{
  "_format": "hh-sol-artifact-1",
  "contractName": "ClaimMatchingLib",
  "sourceName": "contracts/helpers/sismo/utils/ClaimMatchingLib.sol",
  "abi": [
    {
      "inputs": [
        {
          "internalType": "bytes16",
          "name": "requestClaimGroupId",
          "type": "bytes16"
        },
        {
          "internalType": "bytes16",
          "name": "requestClaimGroupTimestamp",
          "type": "bytes16"
        }
      ],
      "name": "ClaimGroupIdAndGroupTimestampNotFound",
      "type": "error"
    },
    {
      "inputs": [
        {
          "internalType": "bytes16",
          "name": "requestClaimGroupId",
          "type": "bytes16"
        }
      ],
      "name": "ClaimGroupIdNotFound",
      "type": "error"
    },
    {
      "inputs": [
        {
          "internalType": "bytes16",
          "name": "requestClaimGroupTimestamp",
          "type": "bytes16"
        }
      ],
      "name": "ClaimGroupTimestampNotFound",
      "type": "error"
    },
    {
      "inputs": [
        {
          "internalType": "uint8",
          "name": "responseClaimType",
          "type": "uint8"
        },
        {
          "internalType": "bytes16",
          "name": "responseClaimGroupId",
          "type": "bytes16"
        },
        {
          "internalType": "bytes16",
          "name": "responseClaimGroupTimestamp",
          "type": "bytes16"
        },
        {
          "internalType": "uint256",
          "name": "responseClaimValue",
          "type": "uint256"
        },
        {
          "internalType": "bytes",
          "name": "responseExtraData",
          "type": "bytes"
        }
      ],
      "name": "ClaimInRequestNotFoundInResponse",
      "type": "error"
    },
    {
      "inputs": [
        {
          "internalType": "uint8",
          "name": "requestClaimType",
          "type": "uint8"
        },
        {
          "internalType": "bytes16",
          "name": "requestClaimGroupId",
          "type": "bytes16"
        }
      ],
      "name": "ClaimTypeAndGroupIdNotFound",
      "type": "error"
    },
    {
      "inputs": [
        {
          "internalType": "uint8",
          "name": "requestClaimType",
          "type": "uint8"
        },
        {
          "internalType": "bytes16",
          "name": "requestClaimGroupTimestamp",
          "type": "bytes16"
        }
      ],
      "name": "ClaimTypeAndGroupTimestampNotFound",
      "type": "error"
    },
    {
      "inputs": [
        {
          "internalType": "uint8",
          "name": "requestClaimType",
          "type": "uint8"
        }
      ],
      "name": "ClaimTypeNotFound",
      "type": "error"
    },
    {
      "inputs": [
        {
          "internalType": "uint8",
          "name": "maxMatchingProperties",
          "type": "uint8"
        },
        {
          "components": [
            {
              "internalType": "enum ClaimType",
              "name": "claimType",
              "type": "ClaimType"
            },
            {
              "internalType": "bytes16",
              "name": "groupId",
              "type": "bytes16"
            },
            {
              "internalType": "bytes16",
              "name": "groupTimestamp",
              "type": "bytes16"
            },
            {
              "internalType": "uint256",
              "name": "value",
              "type": "uint256"
            },
            {
              "internalType": "bool",
              "name": "isOptional",
              "type": "bool"
            },
            {
              "internalType": "bool",
              "name": "isSelectableByUser",
              "type": "bool"
            },
            {
              "internalType": "bytes",
              "name": "extraData",
              "type": "bytes"
            }
          ],
          "internalType": "struct ClaimRequest",
          "name": "claim",
          "type": "tuple"
        }
      ],
      "name": "handleClaimErrors",
      "outputs": [],
      "stateMutability": "pure",
      "type": "function"
    }
  ],
  "bytecode": "0x6080806040523461001a576106599081610020823930815050f35b600080fdfe60806004908136101561001157600080fd5b6000803560e01c63ccf025941461002757600080fd5b60407ffffffffffffffffffffffffffffffffffffffffffffffffffffffffffffffffc9181833601126105e15784359460ff86168096036105dd5760249586359567ffffffffffffffff958688116105d95760e09088360301126105d55760e08101818110878211176105aa57855260059783880135898110156105a65782526100b28189016105e4565b906020948584019283526100c860448b016105e4565b92888501938452606085019460648c013586526100e760848d01610616565b60808201526100f860a48d01610616565b60a082015260c49b8c810135908c82116105a25701963660238901121561059e57838801358c8111610573578b51987fffffffffffffffffffffffffffffffffffffffffffffffffffffffffffffffe09d8e603f81601f86011601168b01908b821090821117610548578d52818a523687838301011161054457818c92888d9301838d01378a01015260c082019788528061027b5750519b8c1015610250575192519351945197517f352bad2000000000000000000000000000000000000000000000000000000000815260ff9b909b16908b01527fffffffffffffffffffffffffffffffff00000000000000000000000000000000918216908a0152166044880152606487015260a06084870152825160a487018190529193869390929185915b8387106102385750508394508582601f949501015201168101030190fd5b8681018201518988018901529581019588955061021a565b50602187917f4e487b7100000000000000000000000000000000000000000000000000000000835252fd5b8a928a8f96938360018a95146000146102eb57505050604495507fffffffffffffffffffffffffffffffff00000000000000000000000000000000809151169151169251937f5aa45ea2000000000000000000000000000000000000000000000000000000008552840152820152fd5b8897969593906002810361039057505051958610156103675750505190517f2d0981b000000000000000000000000000000000000000000000000000000000815260ff9093169183019182527fffffffffffffffffffffffffffffffff0000000000000000000000000000000016602082015281906040010390fd5b6021857f4e487b7100000000000000000000000000000000000000000000000000000000835252fd5b93979390929190600381036103f1578888887fffffffffffffffffffffffffffffffff000000000000000000000000000000008951169051917f126c1426000000000000000000000000000000000000000000000000000000008352820152fd5b8789949598979650811460001461046f575051958610156103675750505190517f953f998a00000000000000000000000000000000000000000000000000000000815260ff9093169183019182527fffffffffffffffffffffffffffffffff0000000000000000000000000000000016602082015281906040010390fd5b929691928083036104cd57505050507fffffffffffffffffffffffffffffffff000000000000000000000000000000009051169051917f6927e23e000000000000000000000000000000000000000000000000000000008352820152fd5b8588939260068993146104de578580f35b85905193841015610519575060ff9051927f4141a2a20000000000000000000000000000000000000000000000000000000084521690820152fd5b806021847f4e487b710000000000000000000000000000000000000000000000000000000088945252fd5b8b80fd5b878d6041897f4e487b7100000000000000000000000000000000000000000000000000000000835252fd5b858b6041877f4e487b7100000000000000000000000000000000000000000000000000000000835252fd5b8980fd5b8a80fd5b8580fd5b88856041867f4e487b7100000000000000000000000000000000000000000000000000000000835252fd5b8380fd5b8480fd5b5080fd5b80fd5b35907fffffffffffffffffffffffffffffffff000000000000000000000000000000008216820361061157565b600080fd5b359081151582036106115756fea2646970667358221220e674d26ad0f4aea5a16deb256ce65b8f36b1fd1861d8dc1b5c07424f31395dc864736f6c63430008130033",
  "linkReferences": {},
  "deployedLinkReferences": {}
}