{
  "_format": "hh-sol-artifact-1",
  "contractName": "SignatureBuilder",
  "sourceName": "contracts/helpers/sismo/utils/SignatureBuilder.sol",
  "abi": [
    {
      "inputs": [],
      "name": "DEFAULT_SIGNATURE_REQUEST_EXTRA_DATA",
      "outputs": [
        {
          "internalType": "bytes",
          "name": "",
          "type": "bytes"
        }
      ],
      "stateMutability": "view",
      "type": "function"
    },
    {
      "inputs": [],
      "name": "DEFAULT_SIGNATURE_REQUEST_IS_SELECTABLE_BY_USER",
      "outputs": [
        {
          "internalType": "bool",
          "name": "",
          "type": "bool"
        }
      ],
      "stateMutability": "view",
      "type": "function"
    },
    {
      "inputs": [],
      "name": "DEFAULT_SIGNATURE_REQUEST_MESSAGE",
      "outputs": [
        {
          "internalType": "bytes",
          "name": "",
          "type": "bytes"
        }
      ],
      "stateMutability": "view",
      "type": "function"
    },
    {
      "inputs": [
        {
          "internalType": "bytes",
          "name": "message",
          "type": "bytes"
        },
        {
          "internalType": "bool",
          "name": "isSelectableByUser",
          "type": "bool"
        },
        {
          "internalType": "bytes",
          "name": "extraData",
          "type": "bytes"
        }
      ],
      "name": "build",
      "outputs": [
        {
          "components": [
            {
              "internalType": "bytes",
              "name": "message",
              "type": "bytes"
            },
            {
              "internalType": "bool",
              "name": "isSelectableByUser",
              "type": "bool"
            },
            {
              "internalType": "bytes",
              "name": "extraData",
              "type": "bytes"
            }
          ],
          "internalType": "struct SignatureRequest",
          "name": "",
          "type": "tuple"
        }
      ],
      "stateMutability": "pure",
      "type": "function"
    },
    {
      "inputs": [
        {
          "internalType": "bool",
          "name": "isSelectableByUser",
          "type": "bool"
        }
      ],
      "name": "build",
      "outputs": [
        {
          "components": [
            {
              "internalType": "bytes",
              "name": "message",
              "type": "bytes"
            },
            {
              "internalType": "bool",
              "name": "isSelectableByUser",
              "type": "bool"
            },
            {
              "internalType": "bytes",
              "name": "extraData",
              "type": "bytes"
            }
          ],
          "internalType": "struct SignatureRequest",
          "name": "",
          "type": "tuple"
        }
      ],
      "stateMutability": "pure",
      "type": "function"
    },
    {
      "inputs": [
        {
          "internalType": "bytes",
          "name": "message",
          "type": "bytes"
        },
        {
          "internalType": "bytes",
          "name": "extraData",
          "type": "bytes"
        }
      ],
      "name": "build",
      "outputs": [
        {
          "components": [
            {
              "internalType": "bytes",
              "name": "message",
              "type": "bytes"
            },
            {
              "internalType": "bool",
              "name": "isSelectableByUser",
              "type": "bool"
            },
            {
              "internalType": "bytes",
              "name": "extraData",
              "type": "bytes"
            }
          ],
          "internalType": "struct SignatureRequest",
          "name": "",
          "type": "tuple"
        }
      ],
      "stateMutability": "pure",
      "type": "function"
    },
    {
      "inputs": [
        {
          "internalType": "bytes",
          "name": "message",
          "type": "bytes"
        },
        {
          "internalType": "bool",
          "name": "isSelectableByUser",
          "type": "bool"
        }
      ],
      "name": "build",
      "outputs": [
        {
          "components": [
            {
              "internalType": "bytes",
              "name": "message",
              "type": "bytes"
            },
            {
              "internalType": "bool",
              "name": "isSelectableByUser",
              "type": "bool"
            },
            {
              "internalType": "bytes",
              "name": "extraData",
              "type": "bytes"
            }
          ],
          "internalType": "struct SignatureRequest",
          "name": "",
          "type": "tuple"
        }
      ],
      "stateMutability": "pure",
      "type": "function"
    },
    {
      "inputs": [
        {
          "internalType": "bytes",
          "name": "message",
          "type": "bytes"
        }
      ],
      "name": "build",
      "outputs": [
        {
          "components": [
            {
              "internalType": "bytes",
              "name": "message",
              "type": "bytes"
            },
            {
              "internalType": "bool",
              "name": "isSelectableByUser",
              "type": "bool"
            },
            {
              "internalType": "bytes",
              "name": "extraData",
              "type": "bytes"
            }
          ],
          "internalType": "struct SignatureRequest",
          "name": "",
          "type": "tuple"
        }
      ],
      "stateMutability": "pure",
      "type": "function"
    },
    {
      "inputs": [
        {
          "internalType": "bool",
          "name": "isSelectableByUser",
          "type": "bool"
        },
        {
          "internalType": "bytes",
          "name": "extraData",
          "type": "bytes"
        }
      ],
      "name": "build",
      "outputs": [
        {
          "components": [
            {
              "internalType": "bytes",
              "name": "message",
              "type": "bytes"
            },
            {
              "internalType": "bool",
              "name": "isSelectableByUser",
              "type": "bool"
            },
            {
              "internalType": "bytes",
              "name": "extraData",
              "type": "bytes"
            }
          ],
          "internalType": "struct SignatureRequest",
          "name": "",
          "type": "tuple"
        }
      ],
      "stateMutability": "pure",
      "type": "function"
    },
    {
      "inputs": [],
      "name": "buildEmpty",
      "outputs": [
        {
          "components": [
            {
              "internalType": "bytes",
              "name": "message",
              "type": "bytes"
            },
            {
              "internalType": "bool",
              "name": "isSelectableByUser",
              "type": "bool"
            },
            {
              "internalType": "bytes",
              "name": "extraData",
              "type": "bytes"
            }
          ],
          "internalType": "struct SignatureRequest",
          "name": "",
          "type": "tuple"
        }
      ],
      "stateMutability": "pure",
      "type": "function"
    }
  ],
  "bytecode": "0x6080806040523461001657610721908161001c8239f35b600080fdfe6040608081526004908136101561001557600080fd5b600091823560e01c9081631f785c951461042d5781633ed8572e146103d45781635c4b7b601461039b5781635de3b44c1461031857816364009b99146102a25781636835f32c1461023a57816372915d89146101e85781637476d1ac1461015657508063800e65f2146100e65763ac799cb31461009157600080fd5b346100e257817ffffffffffffffffffffffffffffffffffffffffffffffffffffffffffffffffc3601126100e2576100de906100cb610684565b90519182916020835260208301906105c4565b0390f35b5080fd5b50346100e257817ffffffffffffffffffffffffffffffffffffffffffffffffffffffffffffffffc3601126100e257906100de916101226106ce565b5061012b610684565b91610134610500565b908082526101406104b1565b9384526020840152818301525191829182610622565b8383346100e257807ffffffffffffffffffffffffffffffffffffffffffffffffffffffffffffffffc3601126100e25761018e6105b5565b916024359067ffffffffffffffff82116101e557506100de936101b391369101610520565b6101bb6106ce565b506101c4610684565b926101cd6104b1565b93845215156020840152818301525191829182610622565b80fd5b5050346100e257817ffffffffffffffffffffffffffffffffffffffffffffffffffffffffffffffffc3601126100e257906100de91610225610500565b918252519182916020835260208301906105c4565b8383346100e25760207ffffffffffffffffffffffffffffffffffffffffffffffffffffffffffffffffc3601126100e257823567ffffffffffffffff811161029e576100de9361028c91369101610520565b916102956106ce565b50610134610500565b8280fd5b8383346100e257807ffffffffffffffffffffffffffffffffffffffffffffffffffffffffffffffffc3601126100e257823567ffffffffffffffff811161029e576100de936102f391369101610520565b916102fc6105a6565b6103046106ce565b5061030d610500565b9182526101cd6104b1565b9190503461029e57807ffffffffffffffffffffffffffffffffffffffffffffffffffffffffffffffffc36011261029e5767ffffffffffffffff918035838111610397576103699036908301610520565b92602435908111610397576100de949161038591369101610520565b9061038e6106ce565b506101406104b1565b8480fd5b5050346100e257817ffffffffffffffffffffffffffffffffffffffffffffffffffffffffffffffffc3601126100e25751908152602090f35b5050346100e25760207ffffffffffffffffffffffffffffffffffffffffffffffffffffffffffffffffc3601126100e257906100de916104126105b5565b9161041b6106ce565b50610424610684565b9261030d610500565b8383346100e25760607ffffffffffffffffffffffffffffffffffffffffffffffffffffffffffffffffc3601126100e25767ffffffffffffffff9183358381116100e25761047e9036908601610520565b926104876105a6565b916044359182116101e557506100de946104a391369101610520565b906104ac6106ce565b506101cd5b604051906060820182811067ffffffffffffffff8211176104d157604052565b7f4e487b7100000000000000000000000000000000000000000000000000000000600052604160045260246000fd5b604051906020820182811067ffffffffffffffff8211176104d157604052565b81601f820112156105a15780359067ffffffffffffffff928383116104d157604051937fffffffffffffffffffffffffffffffffffffffffffffffffffffffffffffffe0603f81601f8701160116850190858210908211176104d157604052828452602083830101116105a157816000926020809301838601378301015290565b600080fd5b6024359081151582036105a157565b6004359081151582036105a157565b919082519283825260005b84811061060e5750507fffffffffffffffffffffffffffffffffffffffffffffffffffffffffffffffe0601f8460006020809697860101520116010190565b6020818301810151848301820152016105cf565b906106819160208152604061064383516060602085015260808401906105c4565b92602081015115158284015201519060607fffffffffffffffffffffffffffffffffffffffffffffffffffffffffffffffe0828503019101526105c4565b90565b604051906040820182811067ffffffffffffffff8211176104d157604052601882527f4d4553534147455f53454c45435445445f42595f5553455200000000000000006020830152565b6106d66104b1565b9060608252600060208301526060604083015256fea26469706673582212209ada397e22632d6ec3751a699979b39dce44b3a21e278370eac71e8e704a42ca64736f6c63430008130033",
  "linkReferences": {},
  "deployedLinkReferences": {}
}