{
  "_format": "hh-sol-artifact-1",
  "contractName": "ClaimBuilder",
  "sourceName": "contracts/helpers/utils/ClaimBuilder.sol",
  "abi": [
    {
      "inputs": [],
      "name": "DEFAULT_CLAIM_EXTRA_DATA",
      "outputs": [
        {
          "internalType": "bytes",
          "name": "",
          "type": "bytes"
        }
      ],
      "stateMutability": "view",
      "type": "function"
    },
    {
      "inputs": [],
      "name": "DEFAULT_CLAIM_GROUP_TIMESTAMP",
      "outputs": [
        {
          "internalType": "bytes16",
          "name": "",
          "type": "bytes16"
        }
      ],
      "stateMutability": "view",
      "type": "function"
    },
    {
      "inputs": [],
      "name": "DEFAULT_CLAIM_IS_SELECTABLE_BY_USER",
      "outputs": [
        {
          "internalType": "bool",
          "name": "",
          "type": "bool"
        }
      ],
      "stateMutability": "view",
      "type": "function"
    },
    {
      "inputs": [],
      "name": "DEFAULT_CLAIM_TYPE",
      "outputs": [
        {
          "internalType": "enum ClaimType",
          "name": "",
          "type": "ClaimType"
        }
      ],
      "stateMutability": "view",
      "type": "function"
    },
    {
      "inputs": [],
      "name": "DEFAULT_CLAIM_VALUE",
      "outputs": [
        {
          "internalType": "uint256",
          "name": "",
          "type": "uint256"
        }
      ],
      "stateMutability": "view",
      "type": "function"
    },
    {
      "inputs": [
        {
          "internalType": "bytes16",
          "name": "groupId",
          "type": "bytes16"
        },
        {
          "internalType": "bytes16",
          "name": "groupTimestamp",
          "type": "bytes16"
        },
        {
          "internalType": "uint256",
          "name": "value",
          "type": "uint256"
        },
        {
          "internalType": "bytes",
          "name": "extraData",
          "type": "bytes"
        }
      ],
      "name": "build",
      "outputs": [
        {
          "components": [
            {
              "internalType": "enum ClaimType",
              "name": "claimType",
              "type": "ClaimType"
            },
            {
              "internalType": "bytes16",
              "name": "groupId",
              "type": "bytes16"
            },
            {
              "internalType": "bytes16",
              "name": "groupTimestamp",
              "type": "bytes16"
            },
            {
              "internalType": "bool",
              "name": "isSelectableByUser",
              "type": "bool"
            },
            {
              "internalType": "uint256",
              "name": "value",
              "type": "uint256"
            },
            {
              "internalType": "bytes",
              "name": "extraData",
              "type": "bytes"
            }
          ],
          "internalType": "struct Claim",
          "name": "",
          "type": "tuple"
        }
      ],
      "stateMutability": "pure",
      "type": "function"
    },
    {
      "inputs": [
        {
          "internalType": "bytes16",
          "name": "groupId",
          "type": "bytes16"
        },
        {
          "internalType": "bytes16",
          "name": "groupTimestamp",
          "type": "bytes16"
        },
        {
          "internalType": "uint256",
          "name": "value",
          "type": "uint256"
        }
      ],
      "name": "build",
      "outputs": [
        {
          "components": [
            {
              "internalType": "enum ClaimType",
              "name": "claimType",
              "type": "ClaimType"
            },
            {
              "internalType": "bytes16",
              "name": "groupId",
              "type": "bytes16"
            },
            {
              "internalType": "bytes16",
              "name": "groupTimestamp",
              "type": "bytes16"
            },
            {
              "internalType": "bool",
              "name": "isSelectableByUser",
              "type": "bool"
            },
            {
              "internalType": "uint256",
              "name": "value",
              "type": "uint256"
            },
            {
              "internalType": "bytes",
              "name": "extraData",
              "type": "bytes"
            }
          ],
          "internalType": "struct Claim",
          "name": "",
          "type": "tuple"
        }
      ],
      "stateMutability": "pure",
      "type": "function"
    },
    {
      "inputs": [
        {
          "internalType": "bytes16",
          "name": "groupId",
          "type": "bytes16"
        },
        {
          "internalType": "bytes16",
          "name": "groupTimestamp",
          "type": "bytes16"
        }
      ],
      "name": "build",
      "outputs": [
        {
          "components": [
            {
              "internalType": "enum ClaimType",
              "name": "claimType",
              "type": "ClaimType"
            },
            {
              "internalType": "bytes16",
              "name": "groupId",
              "type": "bytes16"
            },
            {
              "internalType": "bytes16",
              "name": "groupTimestamp",
              "type": "bytes16"
            },
            {
              "internalType": "bool",
              "name": "isSelectableByUser",
              "type": "bool"
            },
            {
              "internalType": "uint256",
              "name": "value",
              "type": "uint256"
            },
            {
              "internalType": "bytes",
              "name": "extraData",
              "type": "bytes"
            }
          ],
          "internalType": "struct Claim",
          "name": "",
          "type": "tuple"
        }
      ],
      "stateMutability": "pure",
      "type": "function"
    },
    {
      "inputs": [
        {
          "internalType": "bytes16",
          "name": "groupId",
          "type": "bytes16"
        },
        {
          "internalType": "uint256",
          "name": "value",
          "type": "uint256"
        },
        {
          "internalType": "enum ClaimType",
          "name": "claimType",
          "type": "ClaimType"
        }
      ],
      "name": "build",
      "outputs": [
        {
          "components": [
            {
              "internalType": "enum ClaimType",
              "name": "claimType",
              "type": "ClaimType"
            },
            {
              "internalType": "bytes16",
              "name": "groupId",
              "type": "bytes16"
            },
            {
              "internalType": "bytes16",
              "name": "groupTimestamp",
              "type": "bytes16"
            },
            {
              "internalType": "bool",
              "name": "isSelectableByUser",
              "type": "bool"
            },
            {
              "internalType": "uint256",
              "name": "value",
              "type": "uint256"
            },
            {
              "internalType": "bytes",
              "name": "extraData",
              "type": "bytes"
            }
          ],
          "internalType": "struct Claim",
          "name": "",
          "type": "tuple"
        }
      ],
      "stateMutability": "pure",
      "type": "function"
    },
    {
      "inputs": [
        {
          "internalType": "bytes16",
          "name": "groupId",
          "type": "bytes16"
        },
        {
          "internalType": "bytes16",
          "name": "groupTimestamp",
          "type": "bytes16"
        },
        {
          "internalType": "uint256",
          "name": "value",
          "type": "uint256"
        },
        {
          "internalType": "enum ClaimType",
          "name": "claimType",
          "type": "ClaimType"
        },
        {
          "internalType": "bytes",
          "name": "extraData",
          "type": "bytes"
        }
      ],
      "name": "build",
      "outputs": [
        {
          "components": [
            {
              "internalType": "enum ClaimType",
              "name": "claimType",
              "type": "ClaimType"
            },
            {
              "internalType": "bytes16",
              "name": "groupId",
              "type": "bytes16"
            },
            {
              "internalType": "bytes16",
              "name": "groupTimestamp",
              "type": "bytes16"
            },
            {
              "internalType": "bool",
              "name": "isSelectableByUser",
              "type": "bool"
            },
            {
              "internalType": "uint256",
              "name": "value",
              "type": "uint256"
            },
            {
              "internalType": "bytes",
              "name": "extraData",
              "type": "bytes"
            }
          ],
          "internalType": "struct Claim",
          "name": "",
          "type": "tuple"
        }
      ],
      "stateMutability": "pure",
      "type": "function"
    },
    {
      "inputs": [
        {
          "internalType": "bytes16",
          "name": "groupId",
          "type": "bytes16"
        },
        {
          "internalType": "bytes16",
          "name": "groupTimestamp",
          "type": "bytes16"
        },
        {
          "internalType": "enum ClaimType",
          "name": "claimType",
          "type": "ClaimType"
        },
        {
          "internalType": "bytes",
          "name": "extraData",
          "type": "bytes"
        }
      ],
      "name": "build",
      "outputs": [
        {
          "components": [
            {
              "internalType": "enum ClaimType",
              "name": "claimType",
              "type": "ClaimType"
            },
            {
              "internalType": "bytes16",
              "name": "groupId",
              "type": "bytes16"
            },
            {
              "internalType": "bytes16",
              "name": "groupTimestamp",
              "type": "bytes16"
            },
            {
              "internalType": "bool",
              "name": "isSelectableByUser",
              "type": "bool"
            },
            {
              "internalType": "uint256",
              "name": "value",
              "type": "uint256"
            },
            {
              "internalType": "bytes",
              "name": "extraData",
              "type": "bytes"
            }
          ],
          "internalType": "struct Claim",
          "name": "",
          "type": "tuple"
        }
      ],
      "stateMutability": "pure",
      "type": "function"
    },
    {
      "inputs": [
        {
          "internalType": "bytes16",
          "name": "groupId",
          "type": "bytes16"
        },
        {
          "internalType": "uint256",
          "name": "value",
          "type": "uint256"
        }
      ],
      "name": "build",
      "outputs": [
        {
          "components": [
            {
              "internalType": "enum ClaimType",
              "name": "claimType",
              "type": "ClaimType"
            },
            {
              "internalType": "bytes16",
              "name": "groupId",
              "type": "bytes16"
            },
            {
              "internalType": "bytes16",
              "name": "groupTimestamp",
              "type": "bytes16"
            },
            {
              "internalType": "bool",
              "name": "isSelectableByUser",
              "type": "bool"
            },
            {
              "internalType": "uint256",
              "name": "value",
              "type": "uint256"
            },
            {
              "internalType": "bytes",
              "name": "extraData",
              "type": "bytes"
            }
          ],
          "internalType": "struct Claim",
          "name": "",
          "type": "tuple"
        }
      ],
      "stateMutability": "pure",
      "type": "function"
    },
    {
      "inputs": [
        {
          "internalType": "bytes16",
          "name": "groupId",
          "type": "bytes16"
        },
        {
          "internalType": "bytes16",
          "name": "groupTimestamp",
          "type": "bytes16"
        },
        {
          "internalType": "uint256",
          "name": "value",
          "type": "uint256"
        },
        {
          "internalType": "enum ClaimType",
          "name": "claimType",
          "type": "ClaimType"
        }
      ],
      "name": "build",
      "outputs": [
        {
          "components": [
            {
              "internalType": "enum ClaimType",
              "name": "claimType",
              "type": "ClaimType"
            },
            {
              "internalType": "bytes16",
              "name": "groupId",
              "type": "bytes16"
            },
            {
              "internalType": "bytes16",
              "name": "groupTimestamp",
              "type": "bytes16"
            },
            {
              "internalType": "bool",
              "name": "isSelectableByUser",
              "type": "bool"
            },
            {
              "internalType": "uint256",
              "name": "value",
              "type": "uint256"
            },
            {
              "internalType": "bytes",
              "name": "extraData",
              "type": "bytes"
            }
          ],
          "internalType": "struct Claim",
          "name": "",
          "type": "tuple"
        }
      ],
      "stateMutability": "pure",
      "type": "function"
    },
    {
      "inputs": [
        {
          "internalType": "bytes16",
          "name": "groupId",
          "type": "bytes16"
        },
        {
          "internalType": "enum ClaimType",
          "name": "claimType",
          "type": "ClaimType"
        },
        {
          "internalType": "bytes",
          "name": "extraData",
          "type": "bytes"
        }
      ],
      "name": "build",
      "outputs": [
        {
          "components": [
            {
              "internalType": "enum ClaimType",
              "name": "claimType",
              "type": "ClaimType"
            },
            {
              "internalType": "bytes16",
              "name": "groupId",
              "type": "bytes16"
            },
            {
              "internalType": "bytes16",
              "name": "groupTimestamp",
              "type": "bytes16"
            },
            {
              "internalType": "bool",
              "name": "isSelectableByUser",
              "type": "bool"
            },
            {
              "internalType": "uint256",
              "name": "value",
              "type": "uint256"
            },
            {
              "internalType": "bytes",
              "name": "extraData",
              "type": "bytes"
            }
          ],
          "internalType": "struct Claim",
          "name": "",
          "type": "tuple"
        }
      ],
      "stateMutability": "pure",
      "type": "function"
    },
    {
      "inputs": [
        {
          "internalType": "bytes16",
          "name": "groupId",
          "type": "bytes16"
        },
        {
          "internalType": "bytes",
          "name": "extraData",
          "type": "bytes"
        }
      ],
      "name": "build",
      "outputs": [
        {
          "components": [
            {
              "internalType": "enum ClaimType",
              "name": "claimType",
              "type": "ClaimType"
            },
            {
              "internalType": "bytes16",
              "name": "groupId",
              "type": "bytes16"
            },
            {
              "internalType": "bytes16",
              "name": "groupTimestamp",
              "type": "bytes16"
            },
            {
              "internalType": "bool",
              "name": "isSelectableByUser",
              "type": "bool"
            },
            {
              "internalType": "uint256",
              "name": "value",
              "type": "uint256"
            },
            {
              "internalType": "bytes",
              "name": "extraData",
              "type": "bytes"
            }
          ],
          "internalType": "struct Claim",
          "name": "",
          "type": "tuple"
        }
      ],
      "stateMutability": "pure",
      "type": "function"
    },
    {
      "inputs": [
        {
          "internalType": "bytes16",
          "name": "groupId",
          "type": "bytes16"
        },
        {
          "internalType": "bytes16",
          "name": "groupTimestamp",
          "type": "bytes16"
        },
        {
          "internalType": "uint256",
          "name": "value",
          "type": "uint256"
        },
        {
          "internalType": "enum ClaimType",
          "name": "claimType",
          "type": "ClaimType"
        },
        {
          "internalType": "bool",
          "name": "isSelectableByUser",
          "type": "bool"
        },
        {
          "internalType": "bytes",
          "name": "extraData",
          "type": "bytes"
        }
      ],
      "name": "build",
      "outputs": [
        {
          "components": [
            {
              "internalType": "enum ClaimType",
              "name": "claimType",
              "type": "ClaimType"
            },
            {
              "internalType": "bytes16",
              "name": "groupId",
              "type": "bytes16"
            },
            {
              "internalType": "bytes16",
              "name": "groupTimestamp",
              "type": "bytes16"
            },
            {
              "internalType": "bool",
              "name": "isSelectableByUser",
              "type": "bool"
            },
            {
              "internalType": "uint256",
              "name": "value",
              "type": "uint256"
            },
            {
              "internalType": "bytes",
              "name": "extraData",
              "type": "bytes"
            }
          ],
          "internalType": "struct Claim",
          "name": "",
          "type": "tuple"
        }
      ],
      "stateMutability": "pure",
      "type": "function"
    },
    {
      "inputs": [
        {
          "internalType": "bytes16",
          "name": "groupId",
          "type": "bytes16"
        },
        {
          "internalType": "enum ClaimType",
          "name": "claimType",
          "type": "ClaimType"
        }
      ],
      "name": "build",
      "outputs": [
        {
          "components": [
            {
              "internalType": "enum ClaimType",
              "name": "claimType",
              "type": "ClaimType"
            },
            {
              "internalType": "bytes16",
              "name": "groupId",
              "type": "bytes16"
            },
            {
              "internalType": "bytes16",
              "name": "groupTimestamp",
              "type": "bytes16"
            },
            {
              "internalType": "bool",
              "name": "isSelectableByUser",
              "type": "bool"
            },
            {
              "internalType": "uint256",
              "name": "value",
              "type": "uint256"
            },
            {
              "internalType": "bytes",
              "name": "extraData",
              "type": "bytes"
            }
          ],
          "internalType": "struct Claim",
          "name": "",
          "type": "tuple"
        }
      ],
      "stateMutability": "pure",
      "type": "function"
    },
    {
      "inputs": [
        {
          "internalType": "bytes16",
          "name": "groupId",
          "type": "bytes16"
        },
        {
          "internalType": "uint256",
          "name": "value",
          "type": "uint256"
        },
        {
          "internalType": "enum ClaimType",
          "name": "claimType",
          "type": "ClaimType"
        },
        {
          "internalType": "bytes",
          "name": "extraData",
          "type": "bytes"
        }
      ],
      "name": "build",
      "outputs": [
        {
          "components": [
            {
              "internalType": "enum ClaimType",
              "name": "claimType",
              "type": "ClaimType"
            },
            {
              "internalType": "bytes16",
              "name": "groupId",
              "type": "bytes16"
            },
            {
              "internalType": "bytes16",
              "name": "groupTimestamp",
              "type": "bytes16"
            },
            {
              "internalType": "bool",
              "name": "isSelectableByUser",
              "type": "bool"
            },
            {
              "internalType": "uint256",
              "name": "value",
              "type": "uint256"
            },
            {
              "internalType": "bytes",
              "name": "extraData",
              "type": "bytes"
            }
          ],
          "internalType": "struct Claim",
          "name": "",
          "type": "tuple"
        }
      ],
      "stateMutability": "pure",
      "type": "function"
    },
    {
      "inputs": [
        {
          "internalType": "bytes16",
          "name": "groupId",
          "type": "bytes16"
        }
      ],
      "name": "build",
      "outputs": [
        {
          "components": [
            {
              "internalType": "enum ClaimType",
              "name": "claimType",
              "type": "ClaimType"
            },
            {
              "internalType": "bytes16",
              "name": "groupId",
              "type": "bytes16"
            },
            {
              "internalType": "bytes16",
              "name": "groupTimestamp",
              "type": "bytes16"
            },
            {
              "internalType": "bool",
              "name": "isSelectableByUser",
              "type": "bool"
            },
            {
              "internalType": "uint256",
              "name": "value",
              "type": "uint256"
            },
            {
              "internalType": "bytes",
              "name": "extraData",
              "type": "bytes"
            }
          ],
          "internalType": "struct Claim",
          "name": "",
          "type": "tuple"
        }
      ],
      "stateMutability": "pure",
      "type": "function"
    },
    {
      "inputs": [
        {
          "internalType": "bytes16",
          "name": "groupId",
          "type": "bytes16"
        },
        {
          "internalType": "uint256",
          "name": "value",
          "type": "uint256"
        },
        {
          "internalType": "bytes",
          "name": "extraData",
          "type": "bytes"
        }
      ],
      "name": "build",
      "outputs": [
        {
          "components": [
            {
              "internalType": "enum ClaimType",
              "name": "claimType",
              "type": "ClaimType"
            },
            {
              "internalType": "bytes16",
              "name": "groupId",
              "type": "bytes16"
            },
            {
              "internalType": "bytes16",
              "name": "groupTimestamp",
              "type": "bytes16"
            },
            {
              "internalType": "bool",
              "name": "isSelectableByUser",
              "type": "bool"
            },
            {
              "internalType": "uint256",
              "name": "value",
              "type": "uint256"
            },
            {
              "internalType": "bytes",
              "name": "extraData",
              "type": "bytes"
            }
          ],
          "internalType": "struct Claim",
          "name": "",
          "type": "tuple"
        }
      ],
      "stateMutability": "pure",
      "type": "function"
    },
    {
      "inputs": [
        {
          "internalType": "bytes16",
          "name": "groupId",
          "type": "bytes16"
        },
        {
          "internalType": "bytes16",
          "name": "groupTimestamp",
          "type": "bytes16"
        },
        {
          "internalType": "bytes",
          "name": "extraData",
          "type": "bytes"
        }
      ],
      "name": "build",
      "outputs": [
        {
          "components": [
            {
              "internalType": "enum ClaimType",
              "name": "claimType",
              "type": "ClaimType"
            },
            {
              "internalType": "bytes16",
              "name": "groupId",
              "type": "bytes16"
            },
            {
              "internalType": "bytes16",
              "name": "groupTimestamp",
              "type": "bytes16"
            },
            {
              "internalType": "bool",
              "name": "isSelectableByUser",
              "type": "bool"
            },
            {
              "internalType": "uint256",
              "name": "value",
              "type": "uint256"
            },
            {
              "internalType": "bytes",
              "name": "extraData",
              "type": "bytes"
            }
          ],
          "internalType": "struct Claim",
          "name": "",
          "type": "tuple"
        }
      ],
      "stateMutability": "pure",
      "type": "function"
    },
    {
      "inputs": [
        {
          "internalType": "bytes16",
          "name": "groupId",
          "type": "bytes16"
        },
        {
          "internalType": "bytes16",
          "name": "groupTimestamp",
          "type": "bytes16"
        },
        {
          "internalType": "enum ClaimType",
          "name": "claimType",
          "type": "ClaimType"
        }
      ],
      "name": "build",
      "outputs": [
        {
          "components": [
            {
              "internalType": "enum ClaimType",
              "name": "claimType",
              "type": "ClaimType"
            },
            {
              "internalType": "bytes16",
              "name": "groupId",
              "type": "bytes16"
            },
            {
              "internalType": "bytes16",
              "name": "groupTimestamp",
              "type": "bytes16"
            },
            {
              "internalType": "bool",
              "name": "isSelectableByUser",
              "type": "bool"
            },
            {
              "internalType": "uint256",
              "name": "value",
              "type": "uint256"
            },
            {
              "internalType": "bytes",
              "name": "extraData",
              "type": "bytes"
            }
          ],
          "internalType": "struct Claim",
          "name": "",
          "type": "tuple"
        }
      ],
      "stateMutability": "pure",
      "type": "function"
    }
  ],
  "bytecode": "0x6080806040523461001a57610ca49081610020823930815050f35b600080fdfe6040608081526004908136101561001557600080fd5b600091823560e01c908163102f7b60146109ac57816315091823146109765781634d06bd88146108f5578163644c52c8146108b5578163666b45ef1461085b5781636e6bad32146107f65781637637d99f14610455578163766b1873146107915781638628695b1461074857816387daca99146106bb5781638b54223b1461064d578163a820af1a146105f2578163b60f36701461053c578163c5b3c9ae1461050d578163c946b1051461046c578163d23f57c314610455578163dbb7e4ce1461039b578163e379821c14610306578163e58329e8146102f0578163ec29407814610244578163f744d654146101ae575063f8ed3c241461011557600080fd5b60606003193601126101aa576101296109ff565b90610132610a24565b926044359260058410156101aa576101a69461014c610c30565b50610155610a93565b92835261016a610163610a44565b9586610c62565b6fffffffffffffffffffffffffffffffff1980921660208601521682840152600160608401526001608084015260a08301525191829182610b92565b0390f35b5080fd5b838360606003193601126101aa576101c46109ff565b6101cc610a24565b9060443567ffffffffffffffff8111610240576101a6956101ef91369101610ab3565b916101f8610c30565b50610201610a44565b9485526fffffffffffffffffffffffffffffffff1980921660208601521682840152600160608401526001608084015260a08301525191829182610b92565b8480fd5b838360606003193601126101aa5761025a6109ff565b60443567ffffffffffffffff81116102ec5761028e6101a6956fffffffffffffffffffffffffffffffff1992369101610ab3565b91610297610c30565b506102a0610a44565b9485521660208401527f6c617465737400000000000000000000000000000000000000000000000000008284015260016060840152602435608084015260a08301525191829182610b92565b8380fd5b5050816003193601126101aa5751908152602090f35b505060206003193601126101aa57906101a6916103216109ff565b610329610c30565b506fffffffffffffffffffffffffffffffff19610344610a93565b91848352610350610a44565b9485521660208401527f6c6174657374000000000000000000000000000000000000000000000000000082840152600160608401526001608084015260a08301525191829182610b92565b838360806003193601126101aa576103b16109ff565b604435926005841015610452576064359067ffffffffffffffff821161045257506103f46101a6956fffffffffffffffffffffffffffffffff1992369101610ab3565b916103fd610c30565b50610409610163610a44565b1660208401527f6c617465737400000000000000000000000000000000000000000000000000008284015260016060840152602435608084015260a08301525191829182610b92565b80fd5b5050816003193601126101aa576020905160018152f35b5050806003193601126101aa576104816109ff565b906024359160058310156102ec57926fffffffffffffffffffffffffffffffff196101a6946104ae610c30565b506104b7610a93565b9283526104c5610163610a44565b1660208401527f6c6174657374000000000000000000000000000000000000000000000000000082840152600160608401526001608084015260a08301525191829182610b92565b5050816003193601126101aa57906101a691610527610a93565b91825251918291602083526020830190610b34565b838360c06003193601126101aa576105526109ff565b9161055b610a24565b906064359360058510156101aa57608435918215158093036104525760a4359067ffffffffffffffff821161045257506101a69661059b91369101610ab3565b926105a4610c30565b506105b76105b0610a44565b9687610c62565b6fffffffffffffffffffffffffffffffff19809216602087015216838501526060840152604435608084015260a08301525191829182610b92565b8383806003193601126101aa576106076109ff565b60243567ffffffffffffffff81116102ec5761063b6101a6956fffffffffffffffffffffffffffffffff1992369101610ab3565b91610644610c30565b50610350610a44565b838360606003193601126101aa576106636109ff565b602435926005841015610452576044359067ffffffffffffffff821161045257506106a66101a6956fffffffffffffffffffffffffffffffff1992369101610ab3565b916106af610c30565b506104c5610163610a44565b505060806003193601126101aa576106d16109ff565b906106da610a24565b926064359260058410156101aa576101a6946106f4610c30565b506106fd610a93565b92835261070b610163610a44565b6fffffffffffffffffffffffffffffffff198092166020860152168284015260016060840152604435608084015260a08301525191829182610b92565b5050806003193601126101aa57906101a6916107626109ff565b61076a610c30565b506fffffffffffffffffffffffffffffffff19610785610a93565b918483526102a0610a44565b838360806003193601126101aa576107a76109ff565b6107af610a24565b90604435936005851015610452576064359067ffffffffffffffff821161045257506101a6956107e191369101610ab3565b916107ea610c30565b5061016a610163610a44565b838360a06003193601126101aa5761080c6109ff565b610814610a24565b90606435936005851015610452576084359067ffffffffffffffff821161045257506101a69561084691369101610ab3565b9161084f610c30565b5061070b610163610a44565b505060606003193601126101aa576108716109ff565b906044359160058310156102ec57926fffffffffffffffffffffffffffffffff196101a69461089e610c30565b506108a7610a93565b928352610409610163610a44565b5050806003193601126101aa57906101a6916108cf6109ff565b6108d7610a24565b906108e0610c30565b506108e9610a93565b91848352610201610a44565b505060606003193601126101aa57906101a6916109106109ff565b610918610a24565b90610921610c30565b5061092a610a93565b91848352610936610a44565b9485526fffffffffffffffffffffffffffffffff198092166020860152168284015260016060840152604435608084015260a08301525191829182610b92565b5050816003193601126101aa57602090517f6c617465737400000000000000000000000000000000000000000000000000008152f35b838360806003193601126101aa576109c26109ff565b6109ca610a24565b9060643567ffffffffffffffff8111610240576101a6956109ed91369101610ab3565b916109f6610c30565b50610936610a44565b600435906fffffffffffffffffffffffffffffffff1982168203610a1f57565b600080fd5b602435906fffffffffffffffffffffffffffffffff1982168203610a1f57565b6040519060c0820182811067ffffffffffffffff821117610a6457604052565b7f4e487b7100000000000000000000000000000000000000000000000000000000600052604160045260246000fd5b604051906020820182811067ffffffffffffffff821117610a6457604052565b81601f82011215610a1f5780359067ffffffffffffffff92838311610a6457604051937fffffffffffffffffffffffffffffffffffffffffffffffffffffffffffffffe0603f81601f870116011685019085821090821117610a645760405282845260208383010111610a1f57816000926020809301838601378301015290565b919082519283825260005b848110610b7e5750507fffffffffffffffffffffffffffffffffffffffffffffffffffffffffffffffe0601f8460006020809697860101520116010190565b602081830181015184830182015201610b3f565b602081528151916005831015610c015760a060e091610bfe9460208501526fffffffffffffffffffffffffffffffff19806020830151166040860152604082015116606085015260608101511515608085015260808101518285015201519160c0808201520190610b34565b90565b7f4e487b7100000000000000000000000000000000000000000000000000000000600052602160045260246000fd5b610c38610a44565b906000825260006020830152600060408301526000606083015260006080830152606060a0830152565b6005821015610c01575256fea26469706673582212207f93d90fe73556ab3e75cf43d24960e5fc706706274a87ef110eb30d0c5ed14864736f6c63430008130033",
  "linkReferences": {},
  "deployedLinkReferences": {}
}