{
  "_format": "hh-sol-artifact-1",
  "contractName": "ClaimBuilder",
  "sourceName": "contracts/helpers/utils/ClaimBuilder.sol",
  "abi": [
    {
      "inputs": [],
      "name": "DEFAULT_CLAIM_EXTRA_DATA",
      "outputs": [
        {
          "internalType": "bytes",
          "name": "",
          "type": "bytes"
        }
      ],
      "stateMutability": "view",
      "type": "function"
    },
    {
      "inputs": [],
      "name": "DEFAULT_CLAIM_GROUP_TIMESTAMP",
      "outputs": [
        {
          "internalType": "bytes16",
          "name": "",
          "type": "bytes16"
        }
      ],
      "stateMutability": "view",
      "type": "function"
    },
    {
      "inputs": [],
      "name": "DEFAULT_CLAIM_IS_SELECTABLE_BY_USER",
      "outputs": [
        {
          "internalType": "bool",
          "name": "",
          "type": "bool"
        }
      ],
      "stateMutability": "view",
      "type": "function"
    },
    {
      "inputs": [],
      "name": "DEFAULT_CLAIM_TYPE",
      "outputs": [
        {
          "internalType": "enum ClaimType",
          "name": "",
          "type": "ClaimType"
        }
      ],
      "stateMutability": "view",
      "type": "function"
    },
    {
      "inputs": [],
      "name": "DEFAULT_CLAIM_VALUE",
      "outputs": [
        {
          "internalType": "uint256",
          "name": "",
          "type": "uint256"
        }
      ],
      "stateMutability": "view",
      "type": "function"
    },
    {
      "inputs": [
        {
          "internalType": "bytes16",
          "name": "groupId",
          "type": "bytes16"
        },
        {
          "internalType": "bytes16",
          "name": "groupTimestamp",
          "type": "bytes16"
        },
        {
          "internalType": "uint256",
          "name": "value",
          "type": "uint256"
        },
        {
          "internalType": "bytes",
          "name": "extraData",
          "type": "bytes"
        }
      ],
      "name": "build",
      "outputs": [
        {
          "components": [
            {
              "internalType": "enum ClaimType",
              "name": "claimType",
              "type": "ClaimType"
            },
            {
              "internalType": "bytes16",
              "name": "groupId",
              "type": "bytes16"
            },
            {
              "internalType": "bytes16",
              "name": "groupTimestamp",
              "type": "bytes16"
            },
            {
              "internalType": "bool",
              "name": "isSelectableByUser",
              "type": "bool"
            },
            {
              "internalType": "uint256",
              "name": "value",
              "type": "uint256"
            },
            {
              "internalType": "bytes",
              "name": "extraData",
              "type": "bytes"
            }
          ],
          "internalType": "struct Claim",
          "name": "",
          "type": "tuple"
        }
      ],
      "stateMutability": "pure",
      "type": "function"
    },
    {
      "inputs": [
        {
          "internalType": "bytes16",
          "name": "groupId",
          "type": "bytes16"
        },
        {
          "internalType": "bytes16",
          "name": "groupTimestamp",
          "type": "bytes16"
        },
        {
          "internalType": "uint256",
          "name": "value",
          "type": "uint256"
        }
      ],
      "name": "build",
      "outputs": [
        {
          "components": [
            {
              "internalType": "enum ClaimType",
              "name": "claimType",
              "type": "ClaimType"
            },
            {
              "internalType": "bytes16",
              "name": "groupId",
              "type": "bytes16"
            },
            {
              "internalType": "bytes16",
              "name": "groupTimestamp",
              "type": "bytes16"
            },
            {
              "internalType": "bool",
              "name": "isSelectableByUser",
              "type": "bool"
            },
            {
              "internalType": "uint256",
              "name": "value",
              "type": "uint256"
            },
            {
              "internalType": "bytes",
              "name": "extraData",
              "type": "bytes"
            }
          ],
          "internalType": "struct Claim",
          "name": "",
          "type": "tuple"
        }
      ],
      "stateMutability": "pure",
      "type": "function"
    },
    {
      "inputs": [
        {
          "internalType": "bytes16",
          "name": "groupId",
          "type": "bytes16"
        },
        {
          "internalType": "bytes16",
          "name": "groupTimestamp",
          "type": "bytes16"
        }
      ],
      "name": "build",
      "outputs": [
        {
          "components": [
            {
              "internalType": "enum ClaimType",
              "name": "claimType",
              "type": "ClaimType"
            },
            {
              "internalType": "bytes16",
              "name": "groupId",
              "type": "bytes16"
            },
            {
              "internalType": "bytes16",
              "name": "groupTimestamp",
              "type": "bytes16"
            },
            {
              "internalType": "bool",
              "name": "isSelectableByUser",
              "type": "bool"
            },
            {
              "internalType": "uint256",
              "name": "value",
              "type": "uint256"
            },
            {
              "internalType": "bytes",
              "name": "extraData",
              "type": "bytes"
            }
          ],
          "internalType": "struct Claim",
          "name": "",
          "type": "tuple"
        }
      ],
      "stateMutability": "pure",
      "type": "function"
    },
    {
      "inputs": [
        {
          "internalType": "bytes16",
          "name": "groupId",
          "type": "bytes16"
        },
        {
          "internalType": "uint256",
          "name": "value",
          "type": "uint256"
        },
        {
          "internalType": "enum ClaimType",
          "name": "claimType",
          "type": "ClaimType"
        }
      ],
      "name": "build",
      "outputs": [
        {
          "components": [
            {
              "internalType": "enum ClaimType",
              "name": "claimType",
              "type": "ClaimType"
            },
            {
              "internalType": "bytes16",
              "name": "groupId",
              "type": "bytes16"
            },
            {
              "internalType": "bytes16",
              "name": "groupTimestamp",
              "type": "bytes16"
            },
            {
              "internalType": "bool",
              "name": "isSelectableByUser",
              "type": "bool"
            },
            {
              "internalType": "uint256",
              "name": "value",
              "type": "uint256"
            },
            {
              "internalType": "bytes",
              "name": "extraData",
              "type": "bytes"
            }
          ],
          "internalType": "struct Claim",
          "name": "",
          "type": "tuple"
        }
      ],
      "stateMutability": "pure",
      "type": "function"
    },
    {
      "inputs": [
        {
          "internalType": "bytes16",
          "name": "groupId",
          "type": "bytes16"
        },
        {
          "internalType": "bytes16",
          "name": "groupTimestamp",
          "type": "bytes16"
        },
        {
          "internalType": "uint256",
          "name": "value",
          "type": "uint256"
        },
        {
          "internalType": "enum ClaimType",
          "name": "claimType",
          "type": "ClaimType"
        },
        {
          "internalType": "bytes",
          "name": "extraData",
          "type": "bytes"
        }
      ],
      "name": "build",
      "outputs": [
        {
          "components": [
            {
              "internalType": "enum ClaimType",
              "name": "claimType",
              "type": "ClaimType"
            },
            {
              "internalType": "bytes16",
              "name": "groupId",
              "type": "bytes16"
            },
            {
              "internalType": "bytes16",
              "name": "groupTimestamp",
              "type": "bytes16"
            },
            {
              "internalType": "bool",
              "name": "isSelectableByUser",
              "type": "bool"
            },
            {
              "internalType": "uint256",
              "name": "value",
              "type": "uint256"
            },
            {
              "internalType": "bytes",
              "name": "extraData",
              "type": "bytes"
            }
          ],
          "internalType": "struct Claim",
          "name": "",
          "type": "tuple"
        }
      ],
      "stateMutability": "pure",
      "type": "function"
    },
    {
      "inputs": [
        {
          "internalType": "bytes16",
          "name": "groupId",
          "type": "bytes16"
        },
        {
          "internalType": "bytes16",
          "name": "groupTimestamp",
          "type": "bytes16"
        },
        {
          "internalType": "enum ClaimType",
          "name": "claimType",
          "type": "ClaimType"
        },
        {
          "internalType": "bytes",
          "name": "extraData",
          "type": "bytes"
        }
      ],
      "name": "build",
      "outputs": [
        {
          "components": [
            {
              "internalType": "enum ClaimType",
              "name": "claimType",
              "type": "ClaimType"
            },
            {
              "internalType": "bytes16",
              "name": "groupId",
              "type": "bytes16"
            },
            {
              "internalType": "bytes16",
              "name": "groupTimestamp",
              "type": "bytes16"
            },
            {
              "internalType": "bool",
              "name": "isSelectableByUser",
              "type": "bool"
            },
            {
              "internalType": "uint256",
              "name": "value",
              "type": "uint256"
            },
            {
              "internalType": "bytes",
              "name": "extraData",
              "type": "bytes"
            }
          ],
          "internalType": "struct Claim",
          "name": "",
          "type": "tuple"
        }
      ],
      "stateMutability": "pure",
      "type": "function"
    },
    {
      "inputs": [
        {
          "internalType": "bytes16",
          "name": "groupId",
          "type": "bytes16"
        },
        {
          "internalType": "uint256",
          "name": "value",
          "type": "uint256"
        }
      ],
      "name": "build",
      "outputs": [
        {
          "components": [
            {
              "internalType": "enum ClaimType",
              "name": "claimType",
              "type": "ClaimType"
            },
            {
              "internalType": "bytes16",
              "name": "groupId",
              "type": "bytes16"
            },
            {
              "internalType": "bytes16",
              "name": "groupTimestamp",
              "type": "bytes16"
            },
            {
              "internalType": "bool",
              "name": "isSelectableByUser",
              "type": "bool"
            },
            {
              "internalType": "uint256",
              "name": "value",
              "type": "uint256"
            },
            {
              "internalType": "bytes",
              "name": "extraData",
              "type": "bytes"
            }
          ],
          "internalType": "struct Claim",
          "name": "",
          "type": "tuple"
        }
      ],
      "stateMutability": "pure",
      "type": "function"
    },
    {
      "inputs": [
        {
          "internalType": "bytes16",
          "name": "groupId",
          "type": "bytes16"
        },
        {
          "internalType": "bytes16",
          "name": "groupTimestamp",
          "type": "bytes16"
        },
        {
          "internalType": "uint256",
          "name": "value",
          "type": "uint256"
        },
        {
          "internalType": "enum ClaimType",
          "name": "claimType",
          "type": "ClaimType"
        }
      ],
      "name": "build",
      "outputs": [
        {
          "components": [
            {
              "internalType": "enum ClaimType",
              "name": "claimType",
              "type": "ClaimType"
            },
            {
              "internalType": "bytes16",
              "name": "groupId",
              "type": "bytes16"
            },
            {
              "internalType": "bytes16",
              "name": "groupTimestamp",
              "type": "bytes16"
            },
            {
              "internalType": "bool",
              "name": "isSelectableByUser",
              "type": "bool"
            },
            {
              "internalType": "uint256",
              "name": "value",
              "type": "uint256"
            },
            {
              "internalType": "bytes",
              "name": "extraData",
              "type": "bytes"
            }
          ],
          "internalType": "struct Claim",
          "name": "",
          "type": "tuple"
        }
      ],
      "stateMutability": "pure",
      "type": "function"
    },
    {
      "inputs": [
        {
          "internalType": "bytes16",
          "name": "groupId",
          "type": "bytes16"
        },
        {
          "internalType": "enum ClaimType",
          "name": "claimType",
          "type": "ClaimType"
        },
        {
          "internalType": "bytes",
          "name": "extraData",
          "type": "bytes"
        }
      ],
      "name": "build",
      "outputs": [
        {
          "components": [
            {
              "internalType": "enum ClaimType",
              "name": "claimType",
              "type": "ClaimType"
            },
            {
              "internalType": "bytes16",
              "name": "groupId",
              "type": "bytes16"
            },
            {
              "internalType": "bytes16",
              "name": "groupTimestamp",
              "type": "bytes16"
            },
            {
              "internalType": "bool",
              "name": "isSelectableByUser",
              "type": "bool"
            },
            {
              "internalType": "uint256",
              "name": "value",
              "type": "uint256"
            },
            {
              "internalType": "bytes",
              "name": "extraData",
              "type": "bytes"
            }
          ],
          "internalType": "struct Claim",
          "name": "",
          "type": "tuple"
        }
      ],
      "stateMutability": "pure",
      "type": "function"
    },
    {
      "inputs": [
        {
          "internalType": "bytes16",
          "name": "groupId",
          "type": "bytes16"
        },
        {
          "internalType": "bytes",
          "name": "extraData",
          "type": "bytes"
        }
      ],
      "name": "build",
      "outputs": [
        {
          "components": [
            {
              "internalType": "enum ClaimType",
              "name": "claimType",
              "type": "ClaimType"
            },
            {
              "internalType": "bytes16",
              "name": "groupId",
              "type": "bytes16"
            },
            {
              "internalType": "bytes16",
              "name": "groupTimestamp",
              "type": "bytes16"
            },
            {
              "internalType": "bool",
              "name": "isSelectableByUser",
              "type": "bool"
            },
            {
              "internalType": "uint256",
              "name": "value",
              "type": "uint256"
            },
            {
              "internalType": "bytes",
              "name": "extraData",
              "type": "bytes"
            }
          ],
          "internalType": "struct Claim",
          "name": "",
          "type": "tuple"
        }
      ],
      "stateMutability": "pure",
      "type": "function"
    },
    {
      "inputs": [
        {
          "internalType": "bytes16",
          "name": "groupId",
          "type": "bytes16"
        },
        {
          "internalType": "bytes16",
          "name": "groupTimestamp",
          "type": "bytes16"
        },
        {
          "internalType": "uint256",
          "name": "value",
          "type": "uint256"
        },
        {
          "internalType": "enum ClaimType",
          "name": "claimType",
          "type": "ClaimType"
        },
        {
          "internalType": "bool",
          "name": "isSelectableByUser",
          "type": "bool"
        },
        {
          "internalType": "bytes",
          "name": "extraData",
          "type": "bytes"
        }
      ],
      "name": "build",
      "outputs": [
        {
          "components": [
            {
              "internalType": "enum ClaimType",
              "name": "claimType",
              "type": "ClaimType"
            },
            {
              "internalType": "bytes16",
              "name": "groupId",
              "type": "bytes16"
            },
            {
              "internalType": "bytes16",
              "name": "groupTimestamp",
              "type": "bytes16"
            },
            {
              "internalType": "bool",
              "name": "isSelectableByUser",
              "type": "bool"
            },
            {
              "internalType": "uint256",
              "name": "value",
              "type": "uint256"
            },
            {
              "internalType": "bytes",
              "name": "extraData",
              "type": "bytes"
            }
          ],
          "internalType": "struct Claim",
          "name": "",
          "type": "tuple"
        }
      ],
      "stateMutability": "pure",
      "type": "function"
    },
    {
      "inputs": [
        {
          "internalType": "bytes16",
          "name": "groupId",
          "type": "bytes16"
        },
        {
          "internalType": "enum ClaimType",
          "name": "claimType",
          "type": "ClaimType"
        }
      ],
      "name": "build",
      "outputs": [
        {
          "components": [
            {
              "internalType": "enum ClaimType",
              "name": "claimType",
              "type": "ClaimType"
            },
            {
              "internalType": "bytes16",
              "name": "groupId",
              "type": "bytes16"
            },
            {
              "internalType": "bytes16",
              "name": "groupTimestamp",
              "type": "bytes16"
            },
            {
              "internalType": "bool",
              "name": "isSelectableByUser",
              "type": "bool"
            },
            {
              "internalType": "uint256",
              "name": "value",
              "type": "uint256"
            },
            {
              "internalType": "bytes",
              "name": "extraData",
              "type": "bytes"
            }
          ],
          "internalType": "struct Claim",
          "name": "",
          "type": "tuple"
        }
      ],
      "stateMutability": "pure",
      "type": "function"
    },
    {
      "inputs": [
        {
          "internalType": "bytes16",
          "name": "groupId",
          "type": "bytes16"
        },
        {
          "internalType": "uint256",
          "name": "value",
          "type": "uint256"
        },
        {
          "internalType": "enum ClaimType",
          "name": "claimType",
          "type": "ClaimType"
        },
        {
          "internalType": "bytes",
          "name": "extraData",
          "type": "bytes"
        }
      ],
      "name": "build",
      "outputs": [
        {
          "components": [
            {
              "internalType": "enum ClaimType",
              "name": "claimType",
              "type": "ClaimType"
            },
            {
              "internalType": "bytes16",
              "name": "groupId",
              "type": "bytes16"
            },
            {
              "internalType": "bytes16",
              "name": "groupTimestamp",
              "type": "bytes16"
            },
            {
              "internalType": "bool",
              "name": "isSelectableByUser",
              "type": "bool"
            },
            {
              "internalType": "uint256",
              "name": "value",
              "type": "uint256"
            },
            {
              "internalType": "bytes",
              "name": "extraData",
              "type": "bytes"
            }
          ],
          "internalType": "struct Claim",
          "name": "",
          "type": "tuple"
        }
      ],
      "stateMutability": "pure",
      "type": "function"
    },
    {
      "inputs": [
        {
          "internalType": "bytes16",
          "name": "groupId",
          "type": "bytes16"
        }
      ],
      "name": "build",
      "outputs": [
        {
          "components": [
            {
              "internalType": "enum ClaimType",
              "name": "claimType",
              "type": "ClaimType"
            },
            {
              "internalType": "bytes16",
              "name": "groupId",
              "type": "bytes16"
            },
            {
              "internalType": "bytes16",
              "name": "groupTimestamp",
              "type": "bytes16"
            },
            {
              "internalType": "bool",
              "name": "isSelectableByUser",
              "type": "bool"
            },
            {
              "internalType": "uint256",
              "name": "value",
              "type": "uint256"
            },
            {
              "internalType": "bytes",
              "name": "extraData",
              "type": "bytes"
            }
          ],
          "internalType": "struct Claim",
          "name": "",
          "type": "tuple"
        }
      ],
      "stateMutability": "pure",
      "type": "function"
    },
    {
      "inputs": [
        {
          "internalType": "bytes16",
          "name": "groupId",
          "type": "bytes16"
        },
        {
          "internalType": "uint256",
          "name": "value",
          "type": "uint256"
        },
        {
          "internalType": "bytes",
          "name": "extraData",
          "type": "bytes"
        }
      ],
      "name": "build",
      "outputs": [
        {
          "components": [
            {
              "internalType": "enum ClaimType",
              "name": "claimType",
              "type": "ClaimType"
            },
            {
              "internalType": "bytes16",
              "name": "groupId",
              "type": "bytes16"
            },
            {
              "internalType": "bytes16",
              "name": "groupTimestamp",
              "type": "bytes16"
            },
            {
              "internalType": "bool",
              "name": "isSelectableByUser",
              "type": "bool"
            },
            {
              "internalType": "uint256",
              "name": "value",
              "type": "uint256"
            },
            {
              "internalType": "bytes",
              "name": "extraData",
              "type": "bytes"
            }
          ],
          "internalType": "struct Claim",
          "name": "",
          "type": "tuple"
        }
      ],
      "stateMutability": "pure",
      "type": "function"
    },
    {
      "inputs": [
        {
          "internalType": "bytes16",
          "name": "groupId",
          "type": "bytes16"
        },
        {
          "internalType": "bytes16",
          "name": "groupTimestamp",
          "type": "bytes16"
        },
        {
          "internalType": "bytes",
          "name": "extraData",
          "type": "bytes"
        }
      ],
      "name": "build",
      "outputs": [
        {
          "components": [
            {
              "internalType": "enum ClaimType",
              "name": "claimType",
              "type": "ClaimType"
            },
            {
              "internalType": "bytes16",
              "name": "groupId",
              "type": "bytes16"
            },
            {
              "internalType": "bytes16",
              "name": "groupTimestamp",
              "type": "bytes16"
            },
            {
              "internalType": "bool",
              "name": "isSelectableByUser",
              "type": "bool"
            },
            {
              "internalType": "uint256",
              "name": "value",
              "type": "uint256"
            },
            {
              "internalType": "bytes",
              "name": "extraData",
              "type": "bytes"
            }
          ],
          "internalType": "struct Claim",
          "name": "",
          "type": "tuple"
        }
      ],
      "stateMutability": "pure",
      "type": "function"
    },
    {
      "inputs": [
        {
          "internalType": "bytes16",
          "name": "groupId",
          "type": "bytes16"
        },
        {
          "internalType": "bytes16",
          "name": "groupTimestamp",
          "type": "bytes16"
        },
        {
          "internalType": "enum ClaimType",
          "name": "claimType",
          "type": "ClaimType"
        }
      ],
      "name": "build",
      "outputs": [
        {
          "components": [
            {
              "internalType": "enum ClaimType",
              "name": "claimType",
              "type": "ClaimType"
            },
            {
              "internalType": "bytes16",
              "name": "groupId",
              "type": "bytes16"
            },
            {
              "internalType": "bytes16",
              "name": "groupTimestamp",
              "type": "bytes16"
            },
            {
              "internalType": "bool",
              "name": "isSelectableByUser",
              "type": "bool"
            },
            {
              "internalType": "uint256",
              "name": "value",
              "type": "uint256"
            },
            {
              "internalType": "bytes",
              "name": "extraData",
              "type": "bytes"
            }
          ],
          "internalType": "struct Claim",
          "name": "",
          "type": "tuple"
        }
      ],
      "stateMutability": "pure",
      "type": "function"
    }
  ],
  "bytecode": "0x6080806040523461001a57610b169081610020823930815050f35b600080fdfe6040608081526004908136101561001557600080fd5b600091823560e01c908163102f7b60146108a757816315091823146108885781634d06bd8814610810578163644c52c8146107d0578163666b45ef146107885781636e6bad32146107235781637637d99f146103ea578163766b1873146106be5781638628695b1461068757816387daca99146106035781638b54223b146105a7578163a820af1a1461055e578163b60f3670146104b1578163c5b3c9ae14610482578163c946b10514610401578163d23f57c3146103ea578163dbb7e4ce14610349578163e379821c146102d4578163e58329e8146102be578163ec29407814610232578163f744d654146101a5575063f8ed3c241461011557600080fd5b60603660031901126101a1576101296108fa565b90610132610916565b926044359260058410156101a15761019d9461014c610aa2565b50610155610963565b92835261016a61016361092d565b9586610ad4565b6001600160801b031980921660208601521682840152600160608401526001608084015260a08301525191829182610a26565b0390f35b5080fd5b838360603660031901126101a1576101bb6108fa565b6101c3610916565b9060443567ffffffffffffffff811161022e5761019d956101e691369101610983565b916101ef610aa2565b506101f861092d565b9485526001600160801b031980921660208601521682840152600160608401526001608084015260a08301525191829182610a26565b8480fd5b838360603660031901126101a1576102486108fa565b60443567ffffffffffffffff81116102ba5761019d9461026a91369101610983565b90610273610aa2565b5061027c61092d565b9384526001600160801b0319166020840152651b185d195cdd60d21b8284015260016060840152602435608084015260a08301525191829182610a26565b8380fd5b5050816003193601126101a15751908152602090f35b505060203660031901126101a1579061019d916102ef6108fa565b6102f7610aa2565b50610300610963565b9083825261030c61092d565b9384526001600160801b0319166020840152651b185d195cdd60d21b82840152600160608401819052608084015260a08301525191829182610a26565b838360803660031901126101a15761035f6108fa565b6044359260058410156103e7576064359067ffffffffffffffff82116103e7575061019d9461039091369101610983565b90610399610aa2565b506103ac6103a561092d565b9485610ad4565b6001600160801b0319166020840152651b185d195cdd60d21b8284015260016060840152602435608084015260a08301525191829182610a26565b80fd5b5050816003193601126101a1576020905160018152f35b5050806003193601126101a1576104166108fa565b906024359160058310156102ba579261019d93610431610aa2565b5061043a610963565b9182526104486103a561092d565b6001600160801b0319166020840152651b185d195cdd60d21b82840152600160608401819052608084015260a08301525191829182610a26565b5050816003193601126101a1579061019d9161049c610963565b918252519182916020835260208301906109e6565b838360c03660031901126101a1576104c76108fa565b916104d0610916565b906064359360058510156101a157608435918215158093036103e75760a4359067ffffffffffffffff82116103e7575061019d9661051091369101610983565b92610519610aa2565b5061052c61052561092d565b9687610ad4565b6001600160801b0319918216602087015216838501526060840152604435608084015260a08301525191829182610a26565b8383806003193601126101a1576105736108fa565b60243567ffffffffffffffff81116102ba5761019d9461059591369101610983565b9061059e610aa2565b5061030c61092d565b838360603660031901126101a1576105bd6108fa565b6024359260058410156103e7576044359067ffffffffffffffff82116103e7575061019d946105ee91369101610983565b906105f7610aa2565b506104486103a561092d565b505060803660031901126101a1576106196108fa565b90610622610916565b926064359260058410156101a15761019d9461063c610aa2565b50610645610963565b92835261065361016361092d565b6001600160801b03199182166020860152168284015260016060840152604435608084015260a08301525191829182610a26565b5050806003193601126101a1579061019d916106a16108fa565b6106a9610aa2565b506106b2610963565b9083825261027c61092d565b838360803660031901126101a1576106d46108fa565b6106dc610916565b906044359360058510156103e7576064359067ffffffffffffffff82116103e7575061019d9561070e91369101610983565b91610717610aa2565b5061016a61016361092d565b838360a03660031901126101a1576107396108fa565b610741610916565b906064359360058510156103e7576084359067ffffffffffffffff82116103e7575061019d9561077391369101610983565b9161077c610aa2565b5061065361016361092d565b505060603660031901126101a15761079e6108fa565b906044359160058310156102ba579261019d936107b9610aa2565b506107c2610963565b9182526103ac6103a561092d565b5050806003193601126101a1579061019d916107ea6108fa565b6107f2610916565b906107fb610aa2565b50610804610963565b918483526101f861092d565b505060603660031901126101a1579061019d9161082b6108fa565b610833610916565b9061083c610aa2565b50610845610963565b9184835261085161092d565b9485526001600160801b03199182166020860152168284015260016060840152604435608084015260a08301525191829182610a26565b5050816003193601126101a15751651b185d195cdd60d21b8152602090f35b838360803660031901126101a1576108bd6108fa565b6108c5610916565b9060643567ffffffffffffffff811161022e5761019d956108e891369101610983565b916108f1610aa2565b5061085161092d565b600435906001600160801b03198216820361091157565b600080fd5b602435906001600160801b03198216820361091157565b6040519060c0820182811067ffffffffffffffff82111761094d57604052565b634e487b7160e01b600052604160045260246000fd5b604051906020820182811067ffffffffffffffff82111761094d57604052565b81601f820112156109115780359067ffffffffffffffff9283831161094d5760405193601f8401601f19908116603f011685019081118582101761094d576040528284526020838301011161091157816000926020809301838601378301015290565b919082519283825260005b848110610a12575050826000602080949584010152601f8019910116010190565b6020818301810151848301820152016109f1565b602081528151916005831015610a8c5760a060e091610a899460208501526001600160801b0319806020830151166040860152604082015116606085015260608101511515608085015260808101518285015201519160c08082015201906109e6565b90565b634e487b7160e01b600052602160045260246000fd5b610aaa61092d565b906000825260006020830152600060408301526000606083015260006080830152606060a0830152565b6005821015610a8c575256fea2646970667358221220df14aa095368b94700779d8302b92a0aea6106cb134b2e8ac523ee846da3e04f64736f6c63430008130033",
  "linkReferences": {},
  "deployedLinkReferences": {}
}