{
  "_format": "hh-sol-artifact-1",
  "contractName": "fmt",
  "sourceName": "contracts/helpers/utils/Fmt.sol",
  "abi": [
    {
      "inputs": [
        {
          "components": [
            {
              "internalType": "enum AuthType",
              "name": "authType",
              "type": "AuthType"
            },
            {
              "internalType": "bool",
              "name": "isAnon",
              "type": "bool"
            },
            {
              "internalType": "bool",
              "name": "isSelectableByUser",
              "type": "bool"
            },
            {
              "internalType": "uint256",
              "name": "userId",
              "type": "uint256"
            },
            {
              "internalType": "bytes",
              "name": "extraData",
              "type": "bytes"
            }
          ],
          "internalType": "struct Auth",
          "name": "auth",
          "type": "tuple"
        },
        {
          "internalType": "string",
          "name": "indication",
          "type": "string"
        }
      ],
      "name": "printAuth",
      "outputs": [],
      "stateMutability": "view",
      "type": "function"
    },
    {
      "inputs": [
        {
          "components": [
            {
              "internalType": "enum AuthType",
              "name": "authType",
              "type": "AuthType"
            },
            {
              "internalType": "uint256",
              "name": "userId",
              "type": "uint256"
            },
            {
              "internalType": "bool",
              "name": "isAnon",
              "type": "bool"
            },
            {
              "internalType": "bool",
              "name": "isOptional",
              "type": "bool"
            },
            {
              "internalType": "bool",
              "name": "isSelectableByUser",
              "type": "bool"
            },
            {
              "internalType": "bytes",
              "name": "extraData",
              "type": "bytes"
            }
          ],
          "internalType": "struct AuthRequest",
          "name": "auth",
          "type": "tuple"
        },
        {
          "internalType": "string",
          "name": "indication",
          "type": "string"
        }
      ],
      "name": "printAuthRequest",
      "outputs": [],
      "stateMutability": "view",
      "type": "function"
    }
  ],
  "bytecode": "0x6080806040523461001a5761078f9081610020823930815050f35b600080fdfe60806040908082526004918236101561001757600080fd5b600091823560e01c90816312d2a52f1461022b575063a0a5002c1461003b57600080fd5b7ffffffffffffffffffffffffffffffffffffffffffffffffffffffffffffffffc90808236011261022757833567ffffffffffffffff928382116102235760a090823603011261021f5781519060a08201828110858211176101f35783528086013560068110156101ef5782526100b46024820161045f565b602083019081526100c76044830161045f565b9284810193845260608101926064810135845260848101358781116101eb576100f4913691018a01610471565b95608082019687526024359081116101e75761011661011b9136908b01610471565b610654565b5160068110156101bb576101b895949261015c6101a7959361014c61016a9460ff6101446104c8565b91169061069b565b511515610157610501565b6106f9565b5161016561053a565b61069b565b5115159051610178816103f1565b601281527f697353656c65637461626c65427975736572000000000000000000000000000060208201526106f9565b6101b2610116610573565b516105ec565b80f35b60248760218a7f4e487b7100000000000000000000000000000000000000000000000000000000835252fd5b8780fd5b8880fd5b8580fd5b6024866041897f4e487b7100000000000000000000000000000000000000000000000000000000835252fd5b8380fd5b8480fd5b8280fd5b9190507ffffffffffffffffffffffffffffffffffffffffffffffffffffffffffffffffc91818336011261021f5784359067ffffffffffffffff938483116101ef5760c09083360301126102235760c08101818110858211176101f35783528186013560068110156101ef57815260208101602483013581526102b06044840161045f565b8483019081526102c26064850161045f565b92606081019384526102d66084860161045f565b946080820195865260a48101358881116103ed576102f8913691018b01610471565b9660a082019788526024359081116101eb5761011661031a9136908c01610471565b5160068110156103c157926103476101a7959361015c6103849461014c6101b89b9a9860ff6101446104c8565b5115158351610355816103f1565b600a81527f69734f7074696f6e616c0000000000000000000000000000000000000000000060208201526106f9565b5115159051610392816103f1565b601281527f697353656c65637461626c65427955736572000000000000000000000000000060208201526106f9565b60248860218b7f4e487b7100000000000000000000000000000000000000000000000000000000835252fd5b8980fd5b6040810190811067ffffffffffffffff82111761040d57604052565b7f4e487b7100000000000000000000000000000000000000000000000000000000600052604160045260246000fd5b90601f601f19910116810190811067ffffffffffffffff82111761040d57604052565b3590811515820361046c57565b600080fd5b81601f8201121561046c5780359067ffffffffffffffff821161040d57604051926104a66020601f19601f860116018561043c565b8284526020838301011161046c57816000926020809301838601378301015290565b604051906104d5826103f1565b600882527f61757468547970650000000000000000000000000000000000000000000000006020830152565b6040519061050e826103f1565b600682527f6973416e6f6e00000000000000000000000000000000000000000000000000006020830152565b60405190610547826103f1565b600682527f75736572496400000000000000000000000000000000000000000000000000006020830152565b60405190610580826103f1565b600982527f65787472614461746100000000000000000000000000000000000000000000006020830152565b919082519283825260005b8481106105d8575050601f19601f8460006020809697860101520116010190565b6020818301810151848301820152016105b7565b600080916040516106418161063360208201947f0be77f560000000000000000000000000000000000000000000000000000000086526020602484015260448301906105ac565b03601f19810183528261043c565b51906a636f6e736f6c652e6c6f675afa50565b600080916040516106418161063360208201947f41304fac0000000000000000000000000000000000000000000000000000000086526020602484015260448301906105ac565b60009190829161064160405180926106e560208301957f9710a9d00000000000000000000000000000000000000000000000000000000087526040602485015260648401906105ac565b90604483015203601f19810183528261043c565b600091908291610641604051809261074360208301957fc3b556350000000000000000000000000000000000000000000000000000000087526040602485015260648401906105ac565b901515604483015203601f19810183528261043c56fea2646970667358221220848b5904b162b196d6051473f1b18b43d3a51e58658538f41f7355999b51ae2264736f6c63430008130033",
  "linkReferences": {},
  "deployedLinkReferences": {}
}