{
  "_format": "hh-sol-artifact-1",
  "contractName": "fmt",
  "sourceName": "contracts/helpers/sismo/utils/Fmt.sol",
  "abi": [
    {
      "inputs": [
        {
          "components": [
            {
              "internalType": "enum AuthType",
              "name": "authType",
              "type": "AuthType"
            },
            {
              "internalType": "bool",
              "name": "isAnon",
              "type": "bool"
            },
            {
              "internalType": "bool",
              "name": "isSelectableByUser",
              "type": "bool"
            },
            {
              "internalType": "uint256",
              "name": "userId",
              "type": "uint256"
            },
            {
              "internalType": "bytes",
              "name": "extraData",
              "type": "bytes"
            }
          ],
          "internalType": "struct Auth",
          "name": "auth",
          "type": "tuple"
        },
        {
          "internalType": "string",
          "name": "indication",
          "type": "string"
        }
      ],
      "name": "printAuth",
      "outputs": [],
      "stateMutability": "view",
      "type": "function"
    },
    {
      "inputs": [
        {
          "components": [
            {
              "internalType": "enum AuthType",
              "name": "authType",
              "type": "AuthType"
            },
            {
              "internalType": "uint256",
              "name": "userId",
              "type": "uint256"
            },
            {
              "internalType": "bool",
              "name": "isAnon",
              "type": "bool"
            },
            {
              "internalType": "bool",
              "name": "isOptional",
              "type": "bool"
            },
            {
              "internalType": "bool",
              "name": "isSelectableByUser",
              "type": "bool"
            },
            {
              "internalType": "bytes",
              "name": "extraData",
              "type": "bytes"
            }
          ],
          "internalType": "struct AuthRequest",
          "name": "auth",
          "type": "tuple"
        },
        {
          "internalType": "string",
          "name": "indication",
          "type": "string"
        }
      ],
      "name": "printAuthRequest",
      "outputs": [],
      "stateMutability": "view",
      "type": "function"
    }
  ],
  "bytecode": "0x6080806040523461001a576108439081610020823930815050f35b600080fdfe60806040908082526004918236101561001757600080fd5b600091823560e01c90816312d2a52f1461022b575063a0a5002c1461003b57600080fd5b7ffffffffffffffffffffffffffffffffffffffffffffffffffffffffffffffffc90808236011261022757833567ffffffffffffffff928382116102235760a090823603011261021f5781519060a08201828110858211176101f35783528086013560068110156101ef5782526100b46024820161047d565b602083019081526100c76044830161047d565b9284810193845260608101926064810135845260848101358781116101eb576100f4913691018a0161048f565b95608082019687526024359081116101e75761011661011b9136908b0161048f565b6106cc565b5160068110156101bb576101b895949261015c6101a7959361014c61016a9460ff610144610504565b911690610713565b51151561015761053d565b61078f565b51610165610576565b610713565b5115159051610178816103f1565b601281527f697353656c65637461626c654279757365720000000000000000000000000000602082015261078f565b6101b26101166105af565b51610646565b80f35b60248760218a7f4e487b7100000000000000000000000000000000000000000000000000000000835252fd5b8780fd5b8880fd5b8580fd5b6024866041897f4e487b7100000000000000000000000000000000000000000000000000000000835252fd5b8380fd5b8480fd5b8280fd5b9190507ffffffffffffffffffffffffffffffffffffffffffffffffffffffffffffffffc91818336011261021f5784359067ffffffffffffffff938483116101ef5760c09083360301126102235760c08101818110858211176101f35783528186013560068110156101ef57815260208101602483013581526102b06044840161047d565b8483019081526102c26064850161047d565b92606081019384526102d66084860161047d565b946080820195865260a48101358881116103ed576102f8913691018b0161048f565b9660a082019788526024359081116101eb5761011661031a9136908c0161048f565b5160068110156103c157926103476101a7959361015c6103849461014c6101b89b9a9860ff610144610504565b5115158351610355816103f1565b600a81527f69734f7074696f6e616c00000000000000000000000000000000000000000000602082015261078f565b5115159051610392816103f1565b601281527f697353656c65637461626c654279557365720000000000000000000000000000602082015261078f565b60248860218b7f4e487b7100000000000000000000000000000000000000000000000000000000835252fd5b8980fd5b6040810190811067ffffffffffffffff82111761040d57604052565b7f4e487b7100000000000000000000000000000000000000000000000000000000600052604160045260246000fd5b90601f7fffffffffffffffffffffffffffffffffffffffffffffffffffffffffffffffe0910116810190811067ffffffffffffffff82111761040d57604052565b3590811515820361048a57565b600080fd5b81601f8201121561048a5780359067ffffffffffffffff821161040d57604051926104e260207fffffffffffffffffffffffffffffffffffffffffffffffffffffffffffffffe0601f860116018561043c565b8284526020838301011161048a57816000926020809301838601378301015290565b60405190610511826103f1565b600882527f61757468547970650000000000000000000000000000000000000000000000006020830152565b6040519061054a826103f1565b600682527f6973416e6f6e00000000000000000000000000000000000000000000000000006020830152565b60405190610583826103f1565b600682527f75736572496400000000000000000000000000000000000000000000000000006020830152565b604051906105bc826103f1565b600982527f65787472614461746100000000000000000000000000000000000000000000006020830152565b919082519283825260005b8481106106325750507fffffffffffffffffffffffffffffffffffffffffffffffffffffffffffffffe0601f8460006020809697860101520116010190565b6020818301810151848301820152016105f3565b600080916040516106b98161068d60208201947f0be77f560000000000000000000000000000000000000000000000000000000086526020602484015260448301906105e8565b037fffffffffffffffffffffffffffffffffffffffffffffffffffffffffffffffe0810183528261043c565b51906a636f6e736f6c652e6c6f675afa50565b600080916040516106b98161068d60208201947f41304fac0000000000000000000000000000000000000000000000000000000086526020602484015260448301906105e8565b6000919082916106b9604051809261075d60208301957f9710a9d00000000000000000000000000000000000000000000000000000000087526040602485015260648401906105e8565b906044830152037fffffffffffffffffffffffffffffffffffffffffffffffffffffffffffffffe0810183528261043c565b6000919082916106b960405180926107d960208301957fc3b556350000000000000000000000000000000000000000000000000000000087526040602485015260648401906105e8565b9015156044830152037fffffffffffffffffffffffffffffffffffffffffffffffffffffffffffffffe0810183528261043c56fea26469706673582212205902fa64d47c0e4ba649af715e37f4eb2f73e5b61c23818018f02dd6700db8cd64736f6c63430008130033",
  "linkReferences": {},
  "deployedLinkReferences": {}
}