{
  "_format": "hh-sol-artifact-1",
  "contractName": "MecenateBay",
  "sourceName": "contracts/evm/layer/MecenateBay.sol",
  "abi": [
    {
      "inputs": [
        {
          "internalType": "address",
          "name": "_usersMouduleContract",
          "type": "address"
        },
        {
          "internalType": "address",
          "name": "_verifierContract",
          "type": "address"
        }
      ],
      "stateMutability": "nonpayable",
      "type": "constructor"
    },
    {
      "anonymous": false,
      "inputs": [
        {
          "indexed": true,
          "internalType": "address",
          "name": "previousOwner",
          "type": "address"
        },
        {
          "indexed": true,
          "internalType": "address",
          "name": "newOwner",
          "type": "address"
        }
      ],
      "name": "OwnershipTransferred",
      "type": "event"
    },
    {
      "anonymous": false,
      "inputs": [
        {
          "indexed": true,
          "internalType": "address",
          "name": "user",
          "type": "address"
        },
        {
          "components": [
            {
              "internalType": "bytes",
              "name": "request",
              "type": "bytes"
            },
            {
              "internalType": "uint256",
              "name": "payment",
              "type": "uint256"
            },
            {
              "internalType": "uint256",
              "name": "stake",
              "type": "uint256"
            },
            {
              "internalType": "address",
              "name": "postAddress",
              "type": "address"
            },
            {
              "internalType": "bool",
              "name": "accepted",
              "type": "bool"
            },
            {
              "internalType": "uint256",
              "name": "postCount",
              "type": "uint256"
            },
            {
              "internalType": "enum Structures.Tokens",
              "name": "tokenId",
              "type": "uint8"
            },
            {
              "internalType": "address",
              "name": "buyerAddress",
              "type": "address"
            }
          ],
          "indexed": false,
          "internalType": "struct Structures.BayRequest",
          "name": "",
          "type": "tuple"
        },
        {
          "indexed": true,
          "internalType": "uint256",
          "name": "index",
          "type": "uint256"
        }
      ],
      "name": "RequestAccepted",
      "type": "event"
    },
    {
      "anonymous": false,
      "inputs": [
        {
          "indexed": true,
          "internalType": "address",
          "name": "user",
          "type": "address"
        },
        {
          "components": [
            {
              "internalType": "bytes",
              "name": "request",
              "type": "bytes"
            },
            {
              "internalType": "uint256",
              "name": "payment",
              "type": "uint256"
            },
            {
              "internalType": "uint256",
              "name": "stake",
              "type": "uint256"
            },
            {
              "internalType": "address",
              "name": "postAddress",
              "type": "address"
            },
            {
              "internalType": "bool",
              "name": "accepted",
              "type": "bool"
            },
            {
              "internalType": "uint256",
              "name": "postCount",
              "type": "uint256"
            },
            {
              "internalType": "enum Structures.Tokens",
              "name": "tokenId",
              "type": "uint8"
            },
            {
              "internalType": "address",
              "name": "buyerAddress",
              "type": "address"
            }
          ],
          "indexed": false,
          "internalType": "struct Structures.BayRequest",
          "name": "",
          "type": "tuple"
        },
        {
          "indexed": true,
          "internalType": "uint256",
          "name": "index",
          "type": "uint256"
        }
      ],
      "name": "RequestCreated",
      "type": "event"
    },
    {
      "inputs": [
        {
          "internalType": "uint256",
          "name": "index",
          "type": "uint256"
        },
        {
          "internalType": "address",
          "name": "_feed",
          "type": "address"
        }
      ],
      "name": "acceptRequest",
      "outputs": [],
      "stateMutability": "nonpayable",
      "type": "function"
    },
    {
      "inputs": [
        {
          "internalType": "uint256",
          "name": "",
          "type": "uint256"
        }
      ],
      "name": "allRequests",
      "outputs": [
        {
          "internalType": "bytes",
          "name": "request",
          "type": "bytes"
        },
        {
          "internalType": "uint256",
          "name": "payment",
          "type": "uint256"
        },
        {
          "internalType": "uint256",
          "name": "stake",
          "type": "uint256"
        },
        {
          "internalType": "address",
          "name": "postAddress",
          "type": "address"
        },
        {
          "internalType": "bool",
          "name": "accepted",
          "type": "bool"
        },
        {
          "internalType": "uint256",
          "name": "postCount",
          "type": "uint256"
        },
        {
          "internalType": "enum Structures.Tokens",
          "name": "tokenId",
          "type": "uint8"
        },
        {
          "internalType": "address",
          "name": "buyerAddress",
          "type": "address"
        }
      ],
      "stateMutability": "view",
      "type": "function"
    },
    {
      "inputs": [
        {
          "internalType": "address",
          "name": "_daiToken",
          "type": "address"
        }
      ],
      "name": "changeDaiToken",
      "outputs": [],
      "stateMutability": "nonpayable",
      "type": "function"
    },
    {
      "inputs": [
        {
          "internalType": "address",
          "name": "_museToken",
          "type": "address"
        }
      ],
      "name": "changeMuseToken",
      "outputs": [],
      "stateMutability": "nonpayable",
      "type": "function"
    },
    {
      "inputs": [
        {
          "internalType": "address",
          "name": "_usersModule",
          "type": "address"
        }
      ],
      "name": "changeUsersModule",
      "outputs": [],
      "stateMutability": "nonpayable",
      "type": "function"
    },
    {
      "inputs": [
        {
          "internalType": "address",
          "name": "_verifier",
          "type": "address"
        }
      ],
      "name": "changeVerifier",
      "outputs": [],
      "stateMutability": "nonpayable",
      "type": "function"
    },
    {
      "inputs": [],
      "name": "contractCounter",
      "outputs": [
        {
          "internalType": "uint256",
          "name": "",
          "type": "uint256"
        }
      ],
      "stateMutability": "view",
      "type": "function"
    },
    {
      "inputs": [
        {
          "components": [
            {
              "internalType": "bytes",
              "name": "request",
              "type": "bytes"
            },
            {
              "internalType": "uint256",
              "name": "payment",
              "type": "uint256"
            },
            {
              "internalType": "uint256",
              "name": "stake",
              "type": "uint256"
            },
            {
              "internalType": "address",
              "name": "postAddress",
              "type": "address"
            },
            {
              "internalType": "bool",
              "name": "accepted",
              "type": "bool"
            },
            {
              "internalType": "uint256",
              "name": "postCount",
              "type": "uint256"
            },
            {
              "internalType": "enum Structures.Tokens",
              "name": "tokenId",
              "type": "uint8"
            },
            {
              "internalType": "address",
              "name": "buyerAddress",
              "type": "address"
            }
          ],
          "internalType": "struct Structures.BayRequest",
          "name": "request",
          "type": "tuple"
        },
        {
          "internalType": "bytes",
          "name": "sismoConnectResponse",
          "type": "bytes"
        },
        {
          "internalType": "address",
          "name": "_to",
          "type": "address"
        },
        {
          "internalType": "address",
          "name": "_from",
          "type": "address"
        }
      ],
      "name": "createRequest",
      "outputs": [
        {
          "components": [
            {
              "internalType": "bytes",
              "name": "request",
              "type": "bytes"
            },
            {
              "internalType": "uint256",
              "name": "payment",
              "type": "uint256"
            },
            {
              "internalType": "uint256",
              "name": "stake",
              "type": "uint256"
            },
            {
              "internalType": "address",
              "name": "postAddress",
              "type": "address"
            },
            {
              "internalType": "bool",
              "name": "accepted",
              "type": "bool"
            },
            {
              "internalType": "uint256",
              "name": "postCount",
              "type": "uint256"
            },
            {
              "internalType": "enum Structures.Tokens",
              "name": "tokenId",
              "type": "uint8"
            },
            {
              "internalType": "address",
              "name": "buyerAddress",
              "type": "address"
            }
          ],
          "internalType": "struct Structures.BayRequest",
          "name": "",
          "type": "tuple"
        }
      ],
      "stateMutability": "payable",
      "type": "function"
    },
    {
      "inputs": [],
      "name": "daiToken",
      "outputs": [
        {
          "internalType": "address",
          "name": "",
          "type": "address"
        }
      ],
      "stateMutability": "view",
      "type": "function"
    },
    {
      "inputs": [
        {
          "internalType": "address",
          "name": "_user",
          "type": "address"
        }
      ],
      "name": "getRequestForAddress",
      "outputs": [
        {
          "components": [
            {
              "internalType": "bytes",
              "name": "request",
              "type": "bytes"
            },
            {
              "internalType": "uint256",
              "name": "payment",
              "type": "uint256"
            },
            {
              "internalType": "uint256",
              "name": "stake",
              "type": "uint256"
            },
            {
              "internalType": "address",
              "name": "postAddress",
              "type": "address"
            },
            {
              "internalType": "bool",
              "name": "accepted",
              "type": "bool"
            },
            {
              "internalType": "uint256",
              "name": "postCount",
              "type": "uint256"
            },
            {
              "internalType": "enum Structures.Tokens",
              "name": "tokenId",
              "type": "uint8"
            },
            {
              "internalType": "address",
              "name": "buyerAddress",
              "type": "address"
            }
          ],
          "internalType": "struct Structures.BayRequest[]",
          "name": "",
          "type": "tuple[]"
        }
      ],
      "stateMutability": "view",
      "type": "function"
    },
    {
      "inputs": [],
      "name": "getRequests",
      "outputs": [
        {
          "components": [
            {
              "internalType": "bytes",
              "name": "request",
              "type": "bytes"
            },
            {
              "internalType": "uint256",
              "name": "payment",
              "type": "uint256"
            },
            {
              "internalType": "uint256",
              "name": "stake",
              "type": "uint256"
            },
            {
              "internalType": "address",
              "name": "postAddress",
              "type": "address"
            },
            {
              "internalType": "bool",
              "name": "accepted",
              "type": "bool"
            },
            {
              "internalType": "uint256",
              "name": "postCount",
              "type": "uint256"
            },
            {
              "internalType": "enum Structures.Tokens",
              "name": "tokenId",
              "type": "uint8"
            },
            {
              "internalType": "address",
              "name": "buyerAddress",
              "type": "address"
            }
          ],
          "internalType": "struct Structures.BayRequest[]",
          "name": "",
          "type": "tuple[]"
        }
      ],
      "stateMutability": "view",
      "type": "function"
    },
    {
      "inputs": [],
      "name": "museToken",
      "outputs": [
        {
          "internalType": "address",
          "name": "",
          "type": "address"
        }
      ],
      "stateMutability": "view",
      "type": "function"
    },
    {
      "inputs": [],
      "name": "owner",
      "outputs": [
        {
          "internalType": "address",
          "name": "",
          "type": "address"
        }
      ],
      "stateMutability": "view",
      "type": "function"
    },
    {
      "inputs": [
        {
          "internalType": "uint256",
          "name": "index",
          "type": "uint256"
        }
      ],
      "name": "removeRequest",
      "outputs": [],
      "stateMutability": "nonpayable",
      "type": "function"
    },
    {
      "inputs": [],
      "name": "renounceOwnership",
      "outputs": [],
      "stateMutability": "nonpayable",
      "type": "function"
    },
    {
      "inputs": [
        {
          "internalType": "address",
          "name": "",
          "type": "address"
        },
        {
          "internalType": "uint256",
          "name": "",
          "type": "uint256"
        }
      ],
      "name": "requests",
      "outputs": [
        {
          "internalType": "bytes",
          "name": "request",
          "type": "bytes"
        },
        {
          "internalType": "uint256",
          "name": "payment",
          "type": "uint256"
        },
        {
          "internalType": "uint256",
          "name": "stake",
          "type": "uint256"
        },
        {
          "internalType": "address",
          "name": "postAddress",
          "type": "address"
        },
        {
          "internalType": "bool",
          "name": "accepted",
          "type": "bool"
        },
        {
          "internalType": "uint256",
          "name": "postCount",
          "type": "uint256"
        },
        {
          "internalType": "enum Structures.Tokens",
          "name": "tokenId",
          "type": "uint8"
        },
        {
          "internalType": "address",
          "name": "buyerAddress",
          "type": "address"
        }
      ],
      "stateMutability": "view",
      "type": "function"
    },
    {
      "inputs": [
        {
          "internalType": "address",
          "name": "newOwner",
          "type": "address"
        }
      ],
      "name": "transferOwnership",
      "outputs": [],
      "stateMutability": "nonpayable",
      "type": "function"
    },
    {
      "inputs": [],
      "name": "usersMouduleContract",
      "outputs": [
        {
          "internalType": "address",
          "name": "",
          "type": "address"
        }
      ],
      "stateMutability": "view",
      "type": "function"
    },
    {
      "inputs": [],
      "name": "verifierContract",
      "outputs": [
        {
          "internalType": "address",
          "name": "",
          "type": "address"
        }
      ],
      "stateMutability": "view",
      "type": "function"
    },
    {
      "stateMutability": "payable",
      "type": "receive"
    }
  ],
  "bytecode": "0x608034620000cc57601f620026ba38819003918201601f19168301916001600160401b03831184841017620000d1578084926040948552833981010312620000cc576200005a60206200005283620000e7565b9201620000e7565b60008054336001600160a01b0319808316821784556040519590946001600160a01b03949093859391908416907f8be0079c531659141344cd1fd0a4f28419497f9722a3daafe3b4186f6b6457e09080a316836002541617600255169060035416176003556125bd9081620000fd8239f35b600080fd5b634e487b7160e01b600052604160045260246000fd5b51906001600160a01b0382168203620000cc5756fe608080604052600436101561001d575b50361561001b57600080fd5b005b600090813560e01c908163067bd3b414611b76575080630f3cd88814611b3657806326a71b201461149d57806344786fc314611065578063715018a61461100b5780638813ce1214610f765780638da5cb5b14610f4f5780639bf4ec2f14610ec45780639c673fe514610e845780639ecebe2a14610de2578063ac9f472a14610d36578063b041377014610d0d578063be22f54614610ce4578063c4bb77d014610ca4578063cf04fb9414610c64578063cf69568814610c3b578063daba858a146101e8578063f2fde38b146101225763f77800e50361000f573461011f578060031936011261011f576004546040516001600160a01b039091168152602090f35b80fd5b503461011f57602036600319011261011f5761013c611b92565b610144611f5c565b6001600160a01b0390811690811561019457600054826001600160601b0360a01b821617600055167f8be0079c531659141344cd1fd0a4f28419497f9722a3daafe3b4186f6b6457e0600080a380f35b60405162461bcd60e51b815260206004820152602660248201527f4f776e61626c653a206e6577206f776e657220697320746865207a65726f206160448201526564647265737360d01b6064820152608490fd5b503461011f57604036600319011261011f576024356001600160a01b038116900361011f57610215612524565b5061021e612524565b6024356001600160a01b0316808252604051638da5cb5b60e01b815290602090829060049082905afa90811561075f578391610bf9575b506001600160a01b03908116602083810191909152604051635c63ed6960e01b81529182906004908290602435165afa90811561075f578391610bc7575b5060408281019190915251634c38d87760e01b81526020816004816024356001600160a01b03165afa90811561075f578391610b95575b50606082015260405163048bf3bb60e11b81526020816004816024356001600160a01b03165afa90811561075f578391610b63575b506080820152604051630bc8361760e11b81526020816004816024356001600160a01b03165afa90811561075f578391610b31575b5060a082015260405163d24e0c8760e01b81526020816004816024356001600160a01b03165afa90811561075f578391610aff575b5060c0820190815260405163faeb5e1760e01b8152906020826004816024356001600160a01b03165afa918215610af4578492610abc575b5060e083019182526040516302734eab60e51b81526020816004816024356001600160a01b03165afa908115610a21578591610a81575b506008811015610a6d5761010084015260405163010a38f560e01b81526020816004816024356001600160a01b03165afa8015610a21578590610a2c575b610425915061012085016122dc565b60405163054fd4d560e41b815284816004816024356001600160a01b03165afa908115610a215785916109a1575b506101408401526001610467600435611dc7565b50015490511161094c5751600261047f600435611dc7565b500154116108f95760025460405163122643f360e21b815233600482015290602090829060249082906001600160a01b03165afa90811561075f5783916108da575b50156108955760ff60056104d6600435611dc7565b5001541660038110156107df57156107f35760ff60056104f7600435611dc7565b5001541660038110156107df5760020361076a576005548290602090610564906001600160a01b0316600161052d600435611dc7565b50015460405163095ea7b360e01b8152602480356001600160a01b0316600483015281019190915293849283919082906044820190565b03925af1801561075f57610730575b505b8160ff6005610585600435611dc7565b500154166001610596600435611dc7565b5001546024356001600160a01b03163b1561072c57604051634fcf370f60e01b8152918391839182916105cf91309190600485016122b4565b0381836024356001600160a01b03165af1801561072157610709575b505060a0905b60036105fe600435611dc7565b50016001831b60ff841b19825416179055600361061c600435611dc7565b5001600180841b03602435166001600160601b03841b825416179055015160046106468135611dc7565b500155610654600435611dc7565b50604051906020825261010060208301526005610675610120840183611e6e565b91600181015460408501526002810154606085015260ff600382015460018060a01b038116608087015260a01c16151560a0850152600481015460c085015201546106c660e0840160ff8316611cd1565b60081c6001600160a01b03166101008301526004359133917fd91a79ad8af805cb8868bca7ed44fb36c1916a2a38448b66790706fb4106caa1919081900390a380f35b61071290611bf3565b61071d5781386105eb565b5080fd5b6040513d84823e3d90fd5b8280fd5b6107519060203d602011610758575b6107498183611c06565b810190612000565b5038610573565b503d61073f565b6040513d85823e3d90fd5b60ff6005610779600435611dc7565b5001541660038110156107df57600103610575578160206107ab60018060a01b0360045416600161052d600435611dc7565b03925af1801561075f576107c0575b50610575565b6107d89060203d602011610758576107498183611c06565b50386107ba565b634e487b7160e01b83526021600452602483fd5b6001610800600435611dc7565b5001548260ff6005610813600435611dc7565b500154166001610824600435611dc7565b500154926024356001600160a01b03163b1561072c57604051634fcf370f60e01b81529384928391829161085d913091600485016122b4565b03916024356001600160a01b03165af1801561075f57610881575b5060a0906105f1565b9161088e60a09293611bf3565b9190610878565b60405162461bcd60e51b815260206004820152601760248201527f4241593a7573657220646f6573206e6f742065786973740000000000000000006044820152606490fd5b6108f3915060203d602011610758576107498183611c06565b386104c1565b60405162461bcd60e51b815260206004820152602560248201527f4241593a7374616b65206973206e6f74207468652073616d65206f6620746865604482015264081999595960da1b6064820152608490fd5b60405162461bcd60e51b815260206004820152602760248201527f4241593a7061796d656e74206973206e6f74207468652073616d65206f6620746044820152661a19481999595960ca1b6064820152608490fd5b90503d8086833e6109b28183611c06565b810190602081830312610a1d578051906001600160401b038211610a19570181601f82011215610a1d5780516109e781611c27565b926109f56040519485611c06565b81845260208284010111610a1957610a139160208085019101611c89565b38610453565b8680fd5b8580fd5b6040513d87823e3d90fd5b506020813d602011610a65575b81610a4660209383611c06565b81010312610a6157516003811015610a615761042590610416565b8480fd5b3d9150610a39565b634e487b7160e01b85526021600452602485fd5b90506020813d602011610ab4575b81610a9c60209383611c06565b81010312610a6157516008811015610a6157386103d8565b3d9150610a8f565b9091506020813d602011610aec575b81610ad860209383611c06565b81010312610ae8575190386103a1565b8380fd5b3d9150610acb565b6040513d86823e3d90fd5b90506020813d602011610b29575b81610b1a60209383611c06565b8101031261072c575138610369565b3d9150610b0d565b90506020813d602011610b5b575b81610b4c60209383611c06565b8101031261072c575138610334565b3d9150610b3f565b90506020813d602011610b8d575b81610b7e60209383611c06565b8101031261072c5751386102ff565b3d9150610b71565b90506020813d602011610bbf575b81610bb060209383611c06565b8101031261072c5751386102ca565b3d9150610ba3565b90506020813d602011610bf1575b81610be260209383611c06565b8101031261072c575138610293565b3d9150610bd5565b90506020813d602011610c33575b81610c1460209383611c06565b8101031261072c57516001600160a01b038116810361072c5738610255565b3d9150610c07565b503461011f578060031936011261011f576003546040516001600160a01b039091168152602090f35b503461011f57602036600319011261011f57610c7e611b92565b610c86611f5c565b60018060a01b03166001600160601b0360a01b600354161760035580f35b503461011f57602036600319011261011f57610cbe611b92565b610cc6611f5c565b60018060a01b03166001600160601b0360a01b600254161760025580f35b503461011f578060031936011261011f576005546040516001600160a01b039091168152602090f35b503461011f578060031936011261011f576002546040516001600160a01b039091168152602090f35b503461011f5760208060031936011261071d576001600160a01b03610d59611b92565b168252600680825260408320928354926001600160401b038411610dce576040519491610d8c600586901b830187611c06565b8486529182528082208186015b858410610db25760405180610dae8982611d65565b0390f35b8483600192610dc0856122e8565b815201920193019290610d99565b634e487b7160e01b82526041600452602482fd5b503461011f57604036600319011261011f57610dfc611b92565b6001600160a01b03908116825260066020526040822080546024359190821015610ae85790610e2a91611e18565b5090610dae604051610e4781610e408187611e6e565b0382611c06565b6001840154926002850154946003810154600560048301549201549360405197889760ff868860081c1697169560ff8560a01c1694169289611f04565b503461011f57602036600319011261011f57610e9e611b92565b610ea6611f5c565b60018060a01b03166001600160601b0360a01b600554161760055580f35b503461011f57602036600319011261011f5760043560015481101561071d57610eec90611dc7565b5060405190610f0682610eff8184611e6e565b0383611c06565b610dae600182015491600281015492600382015491600560048201549101549260405196879660018060a01b039460ff868860081c1697169560ff8560a01c1694169289611f04565b503461011f578060031936011261011f57546040516001600160a01b039091168152602090f35b503461011f578060031936011261011f5760019081546001600160401b038111610dce57604051916020610faf818460051b0185611c06565b8284528482527fb10e2d527612073b26eecdfd717e6a320cf44b4afac2b0732d9fcbe2b7fa0cf68185015b848410610fef5760405180610dae8882611d65565b6006838892610ffd856122e8565b815201920193019290610fda565b503461011f578060031936011261011f57611024611f5c565b80546001600160a01b03198116825581906001600160a01b03167f8be0079c531659141344cd1fd0a4f28419497f9722a3daafe3b4186f6b6457e08280a380f35b503461011f57602036600319011261011f5760043561108381611dc7565b506005015460081c6001600160a01b031633036114685760ff60036110a783611dc7565b50015460a01c16611423576110c46110be82611dc7565b506122e8565b90828080806020860151335af16110d96121e7565b50156113e6576001546000198101919082116113d2578181106113b5575b505060015480156113a15761110f6000198201611dc7565b91909161138d57836111218354611e34565b80611352575b5060018301558360056002938285820155826003820155826004820155015560001901600155825b33845260068060205260408520805483101561134a5761117183600192611e18565b50015460208501511480611326575b806112f4575b806112cf575b61119f575061119a9061208e565b61114f565b9192503384528160205260408420549060001982019182116112bb57818110611282575b5050338352602052604082208054801561126e5760001901916111e68383611e18565b91909161125a578185600592816111fe819654611e34565b8061121f575b50600184015582015582600382015582600482015501555580f35b601f80821160011461123757505083555b8138611204565b61125190868452602084209201871c820160018301612018565b81855555611230565b634e487b7160e01b85526004859052602485fd5b634e487b7160e01b84526031600452602484fd5b6112ae61129c6112b4933388528560205260408820611e18565b50913387528460205260408720611e18565b90612448565b38806111c3565b634e487b7160e01b85526011600452602485fd5b503385528060205260046112e68360408820611e18565b50015460a08501511461118c565b50338552806020526113098260408720611e18565b506003015460608501516001600160a01b03908116911614611186565b50338552806020528261133c8360408820611e18565b500154604085015114611180565b505050505080f35b601f8111600114611368575082555b8338611127565b838252611384601f60208420920160051c820160018301612018565b81845555611361565b634e487b7160e01b84526004849052602484fd5b634e487b7160e01b83526031600452602483fd5b6112ae6113c46113cb93611dc7565b5091611dc7565b38806110f7565b634e487b7160e01b84526011600452602484fd5b60405162461bcd60e51b81526020600482015260156024820152741090564e95985d5b1d0818d85b1b0819985a5b1959605a1b6044820152606490fd5b60405162461bcd60e51b815260206004820152601f60248201527f4241593a7265717565737420697320616c7265616479206163636570746564006044820152606490fd5b60405162461bcd60e51b815260206004820152600d60248201526c2727aa102a242290212aaca2a960991b6044820152606490fd5b5060031960803682011261071d57600435906001600160401b03821161072c5761010090823603011261071d57604051906114d782611bc1565b80600401356001600160401b038111610ae8576114fa9060043691840101611c42565b8252602481013560208301526044810135604083015261151c60648201611bad565b606083015260848101358015158103610ae857608083015260a481013560a083015260c48101356003811015610ae85760c083015261155d9060e401611bad565b60e08201526024356001600160401b03811161072c57611581903690600401611c42565b506044356001600160a01b0381160361071d576064356001600160a01b0381160361071d57604051906115b382611bc1565b606082528260208301528260408301528260608301528260808301528260a08301528260c08301528260e083015260c08101516003811015611b2257611ab7576115fe341515611fb4565b61160d34602083015114611fb4565b61161c60208201511515611fb4565b60025460405163122643f360e21b815233600482015290602090829060249082906001600160a01b03165afa908115610af4578491611a98575b5015611a5d57604081015115611a185761167560208201511515611fb4565b338352600660205260408320805490600160401b821015611a0457906116a091600182018155611e18565b61138d5781518051906001600160401b038211611967576116cb826116c58554611e34565b8561202f565b602090601f831160011461199a57600593929187918361198f575b50508160011b916000199060031b1c19161781555b60208301516001820155604083015160028201556060830151600382018054608086015160ff60a01b90151560a01b166001600160a01b039093166001600160a81b03199091161791909117905560a083015160048201550160c08201516003811015610a6d57906117706117979282612076565b60e08301518154610100600160a81b03191660089190911b610100600160a81b0316179055565b600154600160401b81101561197b578060016117b69201600155611dc7565b61138d5781518051906001600160401b038211611967576117db826116c58554611e34565b602090601f83116001146118fd5760059392918791836118f2575b50508160011b916000199060031b1c19161781555b60208301516001820155604083015160028201556060830151600382018054608086015160ff60a01b90151560a01b166001600160a01b039093166001600160a81b03199091161791909117905560a083015160048201550160c08201516003811015610a6d57906117706118809282612076565b61188b60075461208e565b6007556001546000198101919082116113d257610dae93507f29d2791fa06d2c6aea0286fb24abb62a60f72eafb0c5515f3eb4a11af90b975560405160208152806118db33946020830190611cf4565b0390a3604051918291602083526020830190611cf4565b0151905038806117f6565b908387526020872091875b601f198516811061194f575091839160019360059695601f19811610611936575b505050811b01815561180b565b015160001960f88460031b161c19169055388080611929565b91926020600181928685015181550194019201611908565b634e487b7160e01b86526041600452602486fd5b634e487b7160e01b84526041600452602484fd5b0151905038806116e6565b908387526020872091875b601f19851681106119ec575091839160019360059695601f198116106119d3575b505050811b0181556116fb565b015160001960f88460031b161c191690553880806119c6565b919260206001819286850151815501940192016119a5565b634e487b7160e01b85526041600452602485fd5b60405162461bcd60e51b815260206004820152601760248201527f4241593a7374616b65206973206e6f7420656e6f7567680000000000000000006044820152606490fd5b60405162461bcd60e51b81526020600482015260136024820152721d5cd95c88191bd95cc81b9bdd08195e1a5cdd606a1b6044820152606490fd5b611ab1915060203d602011610758576107498183611c06565b38611656565b60c08101516003811015611b2257600203611aef576005546020820151611aea91309033906001600160a01b03166120b3565b61160d565b60c08101516003811015611b225760010361160d576004546020820151611aea91309033906001600160a01b03166120b3565b634e487b7160e01b84526021600452602484fd5b503461011f57602036600319011261011f57611b50611b92565b611b58611f5c565b60018060a01b03166001600160601b0360a01b600454161760045580f35b90503461071d578160031936011261071d576020906007548152f35b600435906001600160a01b0382168203611ba857565b600080fd5b35906001600160a01b0382168203611ba857565b61010081019081106001600160401b03821117611bdd57604052565b634e487b7160e01b600052604160045260246000fd5b6001600160401b038111611bdd57604052565b90601f801991011681019081106001600160401b03821117611bdd57604052565b6001600160401b038111611bdd57601f01601f191660200190565b81601f82011215611ba857803590611c5982611c27565b92611c676040519485611c06565b82845260208383010111611ba857816000926020809301838601378301015290565b60005b838110611c9c5750506000910152565b8181015183820152602001611c8c565b90602091611cc581518092818552858086019101611c89565b601f01601f1916010190565b906003821015611cde5752565b634e487b7160e01b600052602160045260246000fd5b9060e0611d0a8351610100808552840190611cac565b9260208101516020840152604081015160408401528160018060a01b039182606082015116606086015260808101511515608086015260a081015160a0860152611d5c60c082015160c0870190611cd1565b01511691015290565b602080820190808352835180925260408301928160408460051b8301019501936000915b848310611d995750505050505090565b9091929394958480611db7600193603f198682030187528a51611cf4565b9801930193019194939290611d89565b600154811015611e02576006906001600052027fb10e2d527612073b26eecdfd717e6a320cf44b4afac2b0732d9fcbe2b7fa0cf60190600090565b634e487b7160e01b600052603260045260246000fd5b8054821015611e02576000526006602060002091020190600090565b90600182811c92168015611e64575b6020831014611e4e57565b634e487b7160e01b600052602260045260246000fd5b91607f1691611e43565b9060009291805491611e7f83611e34565b918282526001938481169081600014611ee15750600114611ea1575b50505050565b90919394506000526020928360002092846000945b838610611ecd575050505001019038808080611e9b565b805485870183015294019385908201611eb6565b9294505050602093945060ff191683830152151560051b01019038808080611e9b565b969198979394611f5693611f2360e09893610100808c528b0190611cac565b60208a019b909b5260408901526001600160a01b0395861660608901521515608088015260a087015260c0860190611cd1565b16910152565b6000546001600160a01b03163303611f7057565b606460405162461bcd60e51b815260206004820152602060248201527f4f776e61626c653a2063616c6c6572206973206e6f7420746865206f776e65726044820152fd5b15611fbb57565b60405162461bcd60e51b815260206004820152601960248201527f4241593a7061796d656e74206973206e6f7420656e6f756768000000000000006044820152606490fd5b90816020910312611ba857518015158103611ba85790565b818110612023575050565b60008155600101612018565b9190601f811161203e57505050565b61206a926000526020600020906020601f840160051c8301931061206c575b601f0160051c0190612018565b565b909150819061205d565b906003811015611cde5760ff80198354169116179055565b600019811461209d5760010190565b634e487b7160e01b600052601160045260246000fd5b6040516323b872dd60e01b602082019081526001600160a01b0393841660248301529383166044820152606480820195909552938452919260a08101926001600160401b03929083851183861017611bdd57169160e0820190811184821017611bdd57604052602083527f5361666545524332303a206c6f772d6c6576656c2063616c6c206661696c656460c08201525161215f93600091829182855af16121596121e7565b91612217565b80519081159182156121cd575b50501561217557565b60405162461bcd60e51b815260206004820152602a60248201527f5361666545524332303a204552433230206f7065726174696f6e20646964206e6044820152691bdd081cdd58d8d9595960b21b6064820152608490fd5b6121e09250602080918301019101612000565b388061216c565b3d15612212573d906121f882611c27565b916122066040519384611c06565b82523d6000602084013e565b606090565b91929015612279575081511561222b575090565b3b156122345790565b60405162461bcd60e51b815260206004820152601d60248201527f416464726573733a2063616c6c20746f206e6f6e2d636f6e74726163740000006044820152606490fd5b82519091501561228c5750805190602001fd5b60405162461bcd60e51b8152602060048201529081906122b0906024830190611cac565b0390fd5b919260409194936122c9846060810197611cd1565b60208401526001600160a01b0316910152565b6003821015611cde5752565b906040516122f581611bc1565b60e0819360405161230a81610e408185611e6e565b83526001810154602084015260028101546040840152600560038201549160ff60018060a01b0393848116606088015260a01c1615156080860152600481015460a0860152015461236160ff821660c086016122dc565b60081c16910152565b908082146124445761237c8154611e34565b906001600160401b038211611bdd5781906123a18261239b8654611e34565b8661202f565b600090601f83116001146123d8576000926123cd575b50508160011b916000199060031b1c1916179055565b0154905038806123b7565b81526020808220858352818320935090601f1985169083905b82821061242b575050908460019594939210612412575b505050811b019055565b015460001960f88460031b161c19169055388080612408565b84958192958501548155600180910196019401906123f1565b5050565b919061250e57808203612459575050565b816124678261206a9461236a565b600182015460018201556002820154600282015560058060038301926124cb600386019460ff60018060a01b0396878154166001600160601b0360a01b8454161783555460a01c1681549060ff60a01b90151560a01b169060ff60a01b1916179055565b600485015460048201550192016124e660ff82541684612076565b548254610100600160a81b031916600891821c92909216901b610100600160a81b0316179055565b634e487b7160e01b600052600060045260246000fd5b6040519061016082018281106001600160401b03821117611bdd57604052606061014083600080825280602083015280604083015280848301528060808301528060a08301528060c08301528060e083015280610100830152610120820152015256fea26469706673582212201d16e741f22f58032789dc0c195f2e9675863239713184f6b11501df87a77f6164736f6c63430008130033",
  "linkReferences": {},
  "deployedLinkReferences": {}
}