{
  "_format": "hh-sol-artifact-1",
  "contractName": "MecenateFeedFactory",
  "sourceName": "contracts/evm/factories/MecenateFeedFactory.sol",
  "abi": [
    {
      "inputs": [
        {
          "internalType": "address",
          "name": "_usersModuleContract",
          "type": "address"
        },
        {
          "internalType": "address",
          "name": "_treasuryContract",
          "type": "address"
        }
      ],
      "stateMutability": "nonpayable",
      "type": "constructor"
    },
    {
      "anonymous": false,
      "inputs": [
        {
          "indexed": true,
          "internalType": "address",
          "name": "addr",
          "type": "address"
        }
      ],
      "name": "FeedCreated",
      "type": "event"
    },
    {
      "anonymous": false,
      "inputs": [
        {
          "indexed": true,
          "internalType": "address",
          "name": "previousOwner",
          "type": "address"
        },
        {
          "indexed": true,
          "internalType": "address",
          "name": "newOwner",
          "type": "address"
        }
      ],
      "name": "OwnershipTransferred",
      "type": "event"
    },
    {
      "inputs": [],
      "name": "buildFeed",
      "outputs": [
        {
          "internalType": "address",
          "name": "",
          "type": "address"
        }
      ],
      "stateMutability": "payable",
      "type": "function"
    },
    {
      "inputs": [],
      "name": "burnEnabled",
      "outputs": [
        {
          "internalType": "bool",
          "name": "",
          "type": "bool"
        }
      ],
      "stateMutability": "view",
      "type": "function"
    },
    {
      "inputs": [
        {
          "internalType": "address",
          "name": "_treasury",
          "type": "address"
        },
        {
          "internalType": "address",
          "name": "_usersModule",
          "type": "address"
        },
        {
          "internalType": "address",
          "name": "_wethToken",
          "type": "address"
        },
        {
          "internalType": "address",
          "name": "_museToken",
          "type": "address"
        },
        {
          "internalType": "address",
          "name": "_daiToken",
          "type": "address"
        },
        {
          "internalType": "address",
          "name": "_router",
          "type": "address"
        }
      ],
      "name": "changeMultipleSettings",
      "outputs": [],
      "stateMutability": "nonpayable",
      "type": "function"
    },
    {
      "inputs": [
        {
          "internalType": "string",
          "name": "_version",
          "type": "string"
        }
      ],
      "name": "changeVersion",
      "outputs": [],
      "stateMutability": "nonpayable",
      "type": "function"
    },
    {
      "inputs": [],
      "name": "contractCounter",
      "outputs": [
        {
          "internalType": "uint256",
          "name": "",
          "type": "uint256"
        }
      ],
      "stateMutability": "view",
      "type": "function"
    },
    {
      "inputs": [],
      "name": "daiToken",
      "outputs": [
        {
          "internalType": "address",
          "name": "",
          "type": "address"
        }
      ],
      "stateMutability": "view",
      "type": "function"
    },
    {
      "inputs": [
        {
          "internalType": "address",
          "name": "_feed",
          "type": "address"
        }
      ],
      "name": "getFeedInfo",
      "outputs": [
        {
          "components": [
            {
              "internalType": "address",
              "name": "contractAddress",
              "type": "address"
            },
            {
              "internalType": "address",
              "name": "operator",
              "type": "address"
            },
            {
              "internalType": "uint256",
              "name": "sellerStake",
              "type": "uint256"
            },
            {
              "internalType": "uint256",
              "name": "buyerStake",
              "type": "uint256"
            },
            {
              "internalType": "uint256",
              "name": "totalStake",
              "type": "uint256"
            },
            {
              "internalType": "uint256",
              "name": "postCount",
              "type": "uint256"
            },
            {
              "internalType": "uint256",
              "name": "paymentRequested",
              "type": "uint256"
            },
            {
              "internalType": "uint256",
              "name": "stakeRequested",
              "type": "uint256"
            },
            {
              "internalType": "enum Structures.PostStatus",
              "name": "status",
              "type": "uint8"
            },
            {
              "internalType": "enum Structures.Tokens",
              "name": "tokenId",
              "type": "uint8"
            },
            {
              "internalType": "string",
              "name": "version",
              "type": "string"
            }
          ],
          "internalType": "struct Structures.Feed",
          "name": "",
          "type": "tuple"
        }
      ],
      "stateMutability": "view",
      "type": "function"
    },
    {
      "inputs": [],
      "name": "getFeeds",
      "outputs": [
        {
          "internalType": "address[]",
          "name": "",
          "type": "address[]"
        }
      ],
      "stateMutability": "view",
      "type": "function"
    },
    {
      "inputs": [],
      "name": "getFeedsInfo",
      "outputs": [
        {
          "components": [
            {
              "internalType": "address",
              "name": "contractAddress",
              "type": "address"
            },
            {
              "internalType": "address",
              "name": "operator",
              "type": "address"
            },
            {
              "internalType": "uint256",
              "name": "sellerStake",
              "type": "uint256"
            },
            {
              "internalType": "uint256",
              "name": "buyerStake",
              "type": "uint256"
            },
            {
              "internalType": "uint256",
              "name": "totalStake",
              "type": "uint256"
            },
            {
              "internalType": "uint256",
              "name": "postCount",
              "type": "uint256"
            },
            {
              "internalType": "uint256",
              "name": "paymentRequested",
              "type": "uint256"
            },
            {
              "internalType": "uint256",
              "name": "stakeRequested",
              "type": "uint256"
            },
            {
              "internalType": "enum Structures.PostStatus",
              "name": "status",
              "type": "uint8"
            },
            {
              "internalType": "enum Structures.Tokens",
              "name": "tokenId",
              "type": "uint8"
            },
            {
              "internalType": "string",
              "name": "version",
              "type": "string"
            }
          ],
          "internalType": "struct Structures.Feed[]",
          "name": "",
          "type": "tuple[]"
        }
      ],
      "stateMutability": "view",
      "type": "function"
    },
    {
      "inputs": [
        {
          "internalType": "address",
          "name": "vaultId",
          "type": "address"
        }
      ],
      "name": "getFeedsInfoOwned",
      "outputs": [
        {
          "components": [
            {
              "internalType": "address",
              "name": "contractAddress",
              "type": "address"
            },
            {
              "internalType": "address",
              "name": "operator",
              "type": "address"
            },
            {
              "internalType": "uint256",
              "name": "sellerStake",
              "type": "uint256"
            },
            {
              "internalType": "uint256",
              "name": "buyerStake",
              "type": "uint256"
            },
            {
              "internalType": "uint256",
              "name": "totalStake",
              "type": "uint256"
            },
            {
              "internalType": "uint256",
              "name": "postCount",
              "type": "uint256"
            },
            {
              "internalType": "uint256",
              "name": "paymentRequested",
              "type": "uint256"
            },
            {
              "internalType": "uint256",
              "name": "stakeRequested",
              "type": "uint256"
            },
            {
              "internalType": "enum Structures.PostStatus",
              "name": "status",
              "type": "uint8"
            },
            {
              "internalType": "enum Structures.Tokens",
              "name": "tokenId",
              "type": "uint8"
            },
            {
              "internalType": "string",
              "name": "version",
              "type": "string"
            }
          ],
          "internalType": "struct Structures.Feed[]",
          "name": "",
          "type": "tuple[]"
        }
      ],
      "stateMutability": "view",
      "type": "function"
    },
    {
      "inputs": [
        {
          "internalType": "address",
          "name": "vaultId",
          "type": "address"
        }
      ],
      "name": "getFeedsOwned",
      "outputs": [
        {
          "internalType": "address[]",
          "name": "",
          "type": "address[]"
        }
      ],
      "stateMutability": "view",
      "type": "function"
    },
    {
      "inputs": [
        {
          "internalType": "uint8",
          "name": "tokenId",
          "type": "uint8"
        }
      ],
      "name": "getRouterFee",
      "outputs": [
        {
          "internalType": "uint24",
          "name": "",
          "type": "uint24"
        }
      ],
      "stateMutability": "view",
      "type": "function"
    },
    {
      "inputs": [
        {
          "internalType": "address",
          "name": "contractAddress",
          "type": "address"
        }
      ],
      "name": "isContractCreated",
      "outputs": [
        {
          "internalType": "bool",
          "name": "",
          "type": "bool"
        }
      ],
      "stateMutability": "view",
      "type": "function"
    },
    {
      "inputs": [
        {
          "internalType": "address",
          "name": "_feed",
          "type": "address"
        }
      ],
      "name": "isFeed",
      "outputs": [
        {
          "internalType": "bool",
          "name": "",
          "type": "bool"
        }
      ],
      "stateMutability": "view",
      "type": "function"
    },
    {
      "inputs": [],
      "name": "museToken",
      "outputs": [
        {
          "internalType": "address",
          "name": "",
          "type": "address"
        }
      ],
      "stateMutability": "view",
      "type": "function"
    },
    {
      "inputs": [],
      "name": "owner",
      "outputs": [
        {
          "internalType": "address",
          "name": "",
          "type": "address"
        }
      ],
      "stateMutability": "view",
      "type": "function"
    },
    {
      "inputs": [],
      "name": "renounceOwnership",
      "outputs": [],
      "stateMutability": "nonpayable",
      "type": "function"
    },
    {
      "inputs": [],
      "name": "router",
      "outputs": [
        {
          "internalType": "address",
          "name": "",
          "type": "address"
        }
      ],
      "stateMutability": "view",
      "type": "function"
    },
    {
      "inputs": [
        {
          "internalType": "bool",
          "name": "_burnEnabled",
          "type": "bool"
        }
      ],
      "name": "setBurnEnabled",
      "outputs": [],
      "stateMutability": "nonpayable",
      "type": "function"
    },
    {
      "inputs": [
        {
          "internalType": "bytes",
          "name": "_byteCode",
          "type": "bytes"
        }
      ],
      "name": "setFeedByteCode",
      "outputs": [],
      "stateMutability": "nonpayable",
      "type": "function"
    },
    {
      "inputs": [
        {
          "internalType": "uint8",
          "name": "tokenId",
          "type": "uint8"
        },
        {
          "internalType": "uint24",
          "name": "fee",
          "type": "uint24"
        }
      ],
      "name": "setRouterFee",
      "outputs": [],
      "stateMutability": "nonpayable",
      "type": "function"
    },
    {
      "inputs": [
        {
          "internalType": "address",
          "name": "newOwner",
          "type": "address"
        }
      ],
      "name": "transferOwnership",
      "outputs": [],
      "stateMutability": "nonpayable",
      "type": "function"
    },
    {
      "inputs": [],
      "name": "treasuryContract",
      "outputs": [
        {
          "internalType": "address",
          "name": "",
          "type": "address"
        }
      ],
      "stateMutability": "view",
      "type": "function"
    },
    {
      "inputs": [],
      "name": "version",
      "outputs": [
        {
          "internalType": "string",
          "name": "",
          "type": "string"
        }
      ],
      "stateMutability": "view",
      "type": "function"
    },
    {
      "inputs": [],
      "name": "wethToken",
      "outputs": [
        {
          "internalType": "address",
          "name": "",
          "type": "address"
        }
      ],
      "stateMutability": "view",
      "type": "function"
    },
    {
      "stateMutability": "payable",
      "type": "receive"
    }
  ],
  "bytecode": "0x6080346100cf57601f62001ccf38819003918201601f19168301916001600160401b038311848410176100d45780849260409485528339810103126100cf57610053602061004c836100ea565b92016100ea565b60008054336001600160a01b0319808316821784556040519590946001600160a01b03949093859391908416907f8be0079c531659141344cd1fd0a4f28419497f9722a3daafe3b4186f6b6457e09080a360ff19600f5416600f551683600754161760075516906006541617600655611bd09081620000ff8239f35b600080fd5b634e487b7160e01b600052604160045260246000fd5b51906001600160a01b03821682036100cf5756fe6080604052600436101561001b575b361561001957600080fd5b005b60003560e01c8063067bd3b4146101a657806318da0011146101a1578063237b0d3c1461019c5780632ae219b9146101975780634b57b0be1461019257806354fd4d501461018d5780635dc96d161461018857806364bb432c14610183578063715018a61461017e5780637b2c835f146101795780637fe955d4146101745780638da5cb5b1461016f578063ad8613241461016a578063b2a2e9ca14610165578063be22f54614610160578063ca5b4e5c1461015b578063cedf3ba21461014c578063d223a56414610156578063d570a66d14610151578063e58fdd041461014c578063e86ef35314610147578063e9318b4714610142578063f2fde38b1461013d578063f77800e5146101385763f887ea400361000e57611024565b610ffb565b610f34565b610ee0565b610e65565b610d95565b610e20565b610de7565b610ba6565b610b7d565b610b03565b610a75565b610917565b610890565b610812565b6107ad565b610696565b610673565b6105a2565b6104e3565b6103fd565b610282565b6101c9565b346101c45760003660031901126101c4576020600354604051908152f35b600080fd5b346101c45760003660031901126101c4576006546040516001600160a01b039091168152602090f35b634e487b7160e01b600052604160045260246000fd5b90601f8019910116810190811067ffffffffffffffff82111761022a57604052565b6101f2565b67ffffffffffffffff811161022a57601f01601f191660200190565b9291926102578261022f565b916102656040519384610208565b8294818452818301116101c4578281602093846000960137010152565b346101c4576020806003193601126101c45767ffffffffffffffff6004358181116101c457366023820112156101c4576102c690369060248160040135910161024b565b6102ce61104d565b805191821161022a576102eb826102e660025461050c565b6110bc565b8290601f831160011461035d57928261033f9361034d9361001996600092610352575b50508160011b916000199060031b1c1916176002555b60405192839182016006906576322e302e3160d01b81520190565b03601f198101835282610208565b611163565b01519050388061030e565b6002600052601f19831691907f405787fa12a823e0f2b7631cc41b3ba8828b3321ca811111fa75cd3aa3bb5ace9260005b8181106103d557509361034d9361001996936001938361033f98106103bc575b505050811b01600255610324565b015160001960f88460031b161c191690553880806103ae565b92938660018192878601518155019501930161038e565b6001600160a01b038116036101c457565b346101c45760c03660031901126101c45761001960043561041d816103ec565b6104c66024359161042d836103ec565b6044359061043a826103ec565b60643591610447836103ec565b60843592610454846103ec565b60a43595610461876103ec565b61046961104d565b60018060a01b0392838092816001600160601b0360a01b9716876006541617600655168560075416176007551683600a541617600a551690600854161760085560018060a01b03166001600160601b0360a01b6009541617600955565b60018060a01b03166001600160601b0360a01b600b541617600b55565b346101c45760003660031901126101c457600a546040516001600160a01b039091168152602090f35b90600182811c9216801561053c575b602083101461052657565b634e487b7160e01b600052602260045260246000fd5b91607f169161051b565b60005b8381106105595750506000910152565b8181015183820152602001610549565b9060209161058281518092818552858086019101610546565b601f01601f1916010190565b90602061059f928181520190610569565b90565b346101c45760008060031936011261067057604051908060018054916105c78361050c565b8086529282811690811561064657506001146105fe575b6105fa856105ee81870382610208565b6040519182918261058e565b0390f35b9250808352600080516020611b7b8339815191525b82841061062e5750505081016020016105ee826105fa6105de565b80546020858701810191909152909301928101610613565b8695506105fa969350602092506105ee94915060ff191682840152151560051b82010192936105de565b80fd5b346101c45760003660031901126101c457602060ff600f54166040519015158152f35b346101c4576020806003193601126101c45767ffffffffffffffff906004358281116101c457366023820112156101c4576106db90369060248160040135910161024b565b916106e461104d565b825190811161022a57600191610703826106fe855461050c565b61111f565b80601f831160011461073b5750819293600092610730575b5050600019600383901b1c191690821b179055005b01519050388061071b565b90601f1983169461075c6001600052600080516020611b7b83398151915290565b926000905b8782106107965750508385961061077d575b505050811b019055005b015160001960f88460031b161c19169055388080610773565b808785968294968601518155019501930190610761565b346101c457600080600319360112610670576107c761104d565b80546001600160a01b03198116825581906001600160a01b03167f8be0079c531659141344cd1fd0a4f28419497f9722a3daafe3b4186f6b6457e08280a380f35b801515036101c457565b346101c45760203660031901126101c45760043561082f81610808565b61083761104d565b60ff8019600f54169115151617600f55600080f35b6020908160408183019282815285518094520193019160005b828110610873575050505090565b83516001600160a01b031685529381019392810192600101610865565b346101c45760003660031901126101c457604051806004549182815260208091019260046000527f8a35acfbc15ff81a39ae7d344fd709f28e8600b4aa8c65c6b64bfe7fe36bd19b916000905b828210610900576105fa856108f481890382610208565b6040519182918261084c565b8354865294850194600193840193909101906108dd565b346101c45760003660031901126101c4576000546040516001600160a01b039091168152602090f35b634e487b7160e01b600052602160045260246000fd5b9060088210156109635752565b610940565b9060038210156109635752565b80516001600160a01b0316825261059f91906020818101516001600160a01b03169083015260408101516040830152606081015160608301526080810151608083015260a081015160a083015260c081015160c083015260e081015160e08301526109e96101008083015190840190610956565b6109fc6101208083015190840190610968565b610140809101519161016080928201520190610569565b602080820190808352835180925260408301928160408460051b8301019501936000915b848310610a475750505050505090565b9091929394958480610a65600193603f198682030187528a51610975565b9801930193019194939290610a37565b346101c4576020806003193601126101c457600435610a93816103ec565b60018060a01b0316600052600d81526040600020604051918281835491828152019260005281600020916000905b828210610aec576105fa610ae087610adb81890382610208565b611ade565b60405191829182610a13565b835485529384019360019384019390910190610ac1565b346101c4576020806003193601126101c457600435610b21816103ec565b6001600160a01b03166000908152600d82526040808220905181548082529183528383208185019491939092915b828210610b66576105fa856108f481890382610208565b835486529485019460019384019390910190610b4f565b346101c45760003660031901126101c4576009546040516001600160a01b039091168152602090f35b600080600319360112610670576007546001600160a01b031660405180610bd230843360208501611234565b03610be5601f1991828101845283610208565b60405163122643f360e21b81523360048201526001600160a01b03939091906020908390602490829088165afa908115610d9057610c31610cc192610cb5948891610d62575b50611315565b610c44610c3c611664565b341015611357565b610c7f8680808034610c6f610c63610c6360065460018060a01b031690565b6001600160a01b031690565b5af1610c79611394565b506113c4565b610c92610c8d6003546113fe565b600355565b610c9a611423565b93604051938491610caf6020840180986114df565b906114df565b03908101835282610208565b519083f090813b15610d5e57816105fa917fb658664a46408e6670a38ec7ea8b7614c9e2916184dff2fad99d3a7a3491ca7d949316610cff8161151f565b50336000908152600d60205260409020610d1a9083906114f6565b506001600160a01b0382166000908152600e60205260409020610d4490805460ff19166001179055565b60405194848695a26001600160a01b031682526020820190565b8280fd5b610d83915060203d8111610d89575b610d7b8183610208565b8101906112f4565b38610c2b565b503d610d71565b611309565b346101c45760203660031901126101c457600435610db2816103ec565b60018060a01b0316600052600e602052602060ff604060002054166040519015158152f35b6004359060ff821682036101c457565b346101c45760203660031901126101c45760ff610e02610dd7565b16600052600c602052602062ffffff60406000205416604051908152f35b346101c45760203660031901126101c4576105fa610e51600435610e43816103ec565b610e4b6115f1565b50611780565b604051918291602083526020830190610975565b346101c45760003660031901126101c4576040516004805480835260009182526020808401927f8a35acfbc15ff81a39ae7d344fd709f28e8600b4aa8c65c6b64bfe7fe36bd19b92915b828210610ec9576105fa610ae087610adb81890382610208565b835485529384019360019384019390910190610eaf565b346101c45760403660031901126101c457610ef9610dd7565b6024359062ffffff82168092036101c45760ff90610f1561104d565b16600052600c60205260406000209062ffffff19825416179055600080f35b346101c45760203660031901126101c457600435610f51816103ec565b610f5961104d565b6001600160a01b039081168015610fa757600080546001600160a01b03198116831782559092167f8be0079c531659141344cd1fd0a4f28419497f9722a3daafe3b4186f6b6457e08380a380f35b60405162461bcd60e51b815260206004820152602660248201527f4f776e61626c653a206e6577206f776e657220697320746865207a65726f206160448201526564647265737360d01b6064820152608490fd5b346101c45760003660031901126101c4576008546040516001600160a01b039091168152602090f35b346101c45760003660031901126101c457600b546040516001600160a01b039091168152602090f35b6000546001600160a01b0316330361106157565b606460405162461bcd60e51b815260206004820152602060248201527f4f776e61626c653a2063616c6c6572206973206e6f7420746865206f776e65726044820152fd5b8181106110b0575050565b600081556001016110a5565b90601f82116110c9575050565b6111139160026000527f405787fa12a823e0f2b7631cc41b3ba8828b3321ca811111fa75cd3aa3bb5ace906020601f840160051c83019310611115575b601f0160051c01906110a5565b565b9091508190611106565b90601f821161112c575050565b611113916001600052600080516020611b7b833981519152906020601f840160051c8301931061111557601f0160051c01906110a5565b90815167ffffffffffffffff811161022a57600190611186816106fe845461050c565b602080601f83116001146111c15750819293946000926111b6575b5050600019600383901b1c191690821b179055565b0151905038806111a1565b90601f198316956111e26001600052600080516020611b7b83398151915290565b926000905b88821061121d5750508385969710611204575b505050811b019055565b015160001960f88460031b161c191690553880806111fa565b8087859682949686015181550195019301906111e7565b9260018060a01b038092168452816020931683850152166040830152608060608301526000916001918254926112698461050c565b9384608085015281811690816000146112d1575060011461128c575b5050505090565b6000818152939450600080516020611b7b8339815191525b8585106112bd5750505060a09250010138808080611285565b805485850160a001529382019381016112a4565b9250505060a0935060ff929192191683830152151560051b010138808080611285565b908160209103126101c4575161059f81610808565b6040513d6000823e3d90fd5b1561131c57565b60405162461bcd60e51b81526020600482015260136024820152721d5cd95c88191bd95cc81b9bdd08195e1a5cdd606a1b6044820152606490fd5b1561135e57565b60405162461bcd60e51b815260206004820152600e60248201526d4e4f545f454e4f5547485f46454560901b6044820152606490fd5b3d156113bf573d906113a58261022f565b916113b36040519384610208565b82523d6000602084013e565b606090565b156113cb57565b60405162461bcd60e51b815260206004820152600b60248201526a10d0531317d1905253115160aa1b6044820152606490fd5b600019811461140d5760010190565b634e487b7160e01b600052601160045260246000fd5b60405190600082600254916114378361050c565b808352926001908181169081156114bd575060011461145e575b5061111392500383610208565b6002600090815291507f405787fa12a823e0f2b7631cc41b3ba8828b3321ca811111fa75cd3aa3bb5ace5b8483106114a25750611113935050810160200138611451565b81935090816020925483858a01015201910190918592611489565b90506020925061111394915060ff191682840152151560051b82010138611451565b906114f260209282815194859201610546565b0190565b61059f916001600160a01b03169061159b565b634e487b7160e01b600052603260045260246000fd5b8060005260056020526040600020541560001461159557600454600160401b81101561022a5760018101806004558110156115905781907f8a35acfbc15ff81a39ae7d344fd709f28e8600b4aa8c65c6b64bfe7fe36bd19b0155600454906000526005602052604060002055600190565b611509565b50600090565b600082815260018201602081905260408220546115ea57825492600160401b84101561022a57600184018082558410156115905784604094828552602085200155549382526020522055600190565b5091505090565b60405190610160820182811067ffffffffffffffff82111761022a57604052606061014083600080825280602083015280604083015280848301528060808301528060a08301528060c08301528060e0830152806101008301526101208201520152565b908160209103126101c4575190565b6006546040516391792d5b60e01b815290602090829060049082906001600160a01b03165afa908115610d905760009161169c575090565b61059f915060203d81116116bd575b6116b58183610208565b810190611655565b503d6116ab565b908160209103126101c4575161059f816103ec565b908160209103126101c4575160088110156101c45790565b60088210156109635752565b908160209103126101c4575160038110156101c45790565b60038210156109635752565b6020818303126101c45780519067ffffffffffffffff82116101c4570181601f820112156101c45780516117548161022f565b926117626040519485610208565b818452602082840101116101c45761059f9160208085019101610546565b6117886115f1565b506117916115f1565b6001600160a01b0390911680825260408051638da5cb5b60e01b8152600492602092909183818681865afa8015610d90576117de91600091611a85575b506001600160a01b031686850152565b8051635c63ed6960e01b815283818681865afa908115610d9057600091611a68575b50858201528051634c38d87760e01b815283818681865afa908115610d9057600091611a4b575b506060860152805163048bf3bb60e11b815283818681865afa908115610d9057600091611a2e575b5060808601528051630bc8361760e11b815283818681865afa908115610d9057600091611a11575b5060a0860152805163d24e0c8760e01b815283818681865afa908115610d90576000916119f4575b5060c0860152805163faeb5e1760e01b815283818681865afa908115610d90576000916119d7575b5060e086015280516302734eab60e51b815283818681865afa8015610d90576118fd916000916119aa575b5061010087016116f1565b805163010a38f560e01b81529280848681865afa8015610d905760009461193192869261197d575b50506101208701611715565b5163054fd4d560e41b815292839182905afa908115610d905760009161195c575b5061014082015290565b611977913d8091833e61196f8183610208565b810190611721565b38611952565b61199c9250803d106119a3575b6119948183610208565b8101906116fd565b3880611925565b503d61198a565b6119ca9150853d87116119d0575b6119c28183610208565b8101906116d9565b386118f2565b503d6119b8565b6119ee9150843d86116116bd576116b58183610208565b386118c7565b611a0b9150843d86116116bd576116b58183610208565b3861189f565b611a289150843d86116116bd576116b58183610208565b38611877565b611a459150843d86116116bd576116b58183610208565b3861184f565b611a629150843d86116116bd576116b58183610208565b38611827565b611a7f9150843d86116116bd576116b58183610208565b38611800565b611aa59150853d8711611aab575b611a9d8183610208565b8101906116c4565b386117ce565b503d611a93565b67ffffffffffffffff811161022a5760051b60200190565b80518210156115905760209160051b010190565b8051611ae981611ab2565b91611af76040519384610208565b818352601f19611b0683611ab2565b0160005b818110611b6357505060005b828110611b235750505090565b611b5e90611b436001600160a01b03611b3c8386611aca565b5116611780565b611b4d8287611aca565b52611b588186611aca565b506113fe565b611b16565b602090611b6e6115f1565b82828801015201611b0a56feb10e2d527612073b26eecdfd717e6a320cf44b4afac2b0732d9fcbe2b7fa0cf6a2646970667358221220b812f9026b59d52dc1700f54338c1b2da2cefd176d474a881c5dc963714e62bf64736f6c63430008130033",
  "linkReferences": {},
  "deployedLinkReferences": {}
}