{
  "_format": "hh-sol-artifact-1",
  "contractName": "MecenateFeedFactory",
  "sourceName": "contracts/evm/factories/MecenateFeedFactory.sol",
  "abi": [
    {
      "inputs": [
        {
          "internalType": "address",
          "name": "newUsersModuleContract",
          "type": "address"
        },
        {
          "internalType": "address",
          "name": "newTreasuryContract",
          "type": "address"
        }
      ],
      "stateMutability": "nonpayable",
      "type": "constructor"
    },
    {
      "anonymous": false,
      "inputs": [
        {
          "indexed": true,
          "internalType": "address",
          "name": "addr",
          "type": "address"
        }
      ],
      "name": "FeedCreated",
      "type": "event"
    },
    {
      "anonymous": false,
      "inputs": [
        {
          "indexed": true,
          "internalType": "address",
          "name": "previousOwner",
          "type": "address"
        },
        {
          "indexed": true,
          "internalType": "address",
          "name": "newOwner",
          "type": "address"
        }
      ],
      "name": "OwnershipTransferred",
      "type": "event"
    },
    {
      "inputs": [],
      "name": "buildFeed",
      "outputs": [
        {
          "internalType": "address",
          "name": "",
          "type": "address"
        }
      ],
      "stateMutability": "payable",
      "type": "function"
    },
    {
      "inputs": [],
      "name": "burnEnabled",
      "outputs": [
        {
          "internalType": "bool",
          "name": "",
          "type": "bool"
        }
      ],
      "stateMutability": "view",
      "type": "function"
    },
    {
      "inputs": [
        {
          "internalType": "address",
          "name": "treasury",
          "type": "address"
        },
        {
          "internalType": "address",
          "name": "usersModule",
          "type": "address"
        },
        {
          "internalType": "address",
          "name": "wethTokenAddr",
          "type": "address"
        },
        {
          "internalType": "address",
          "name": "museTokenAddr",
          "type": "address"
        },
        {
          "internalType": "address",
          "name": "daiTokenAddr",
          "type": "address"
        },
        {
          "internalType": "address",
          "name": "routerAddr",
          "type": "address"
        }
      ],
      "name": "changeMultipleSettings",
      "outputs": [],
      "stateMutability": "nonpayable",
      "type": "function"
    },
    {
      "inputs": [],
      "name": "contractCounter",
      "outputs": [
        {
          "internalType": "uint256",
          "name": "",
          "type": "uint256"
        }
      ],
      "stateMutability": "view",
      "type": "function"
    },
    {
      "inputs": [],
      "name": "daiToken",
      "outputs": [
        {
          "internalType": "address",
          "name": "",
          "type": "address"
        }
      ],
      "stateMutability": "view",
      "type": "function"
    },
    {
      "inputs": [
        {
          "internalType": "address",
          "name": "user",
          "type": "address"
        }
      ],
      "name": "getFeedInfo",
      "outputs": [
        {
          "components": [
            {
              "internalType": "address",
              "name": "contractAddress",
              "type": "address"
            },
            {
              "internalType": "address",
              "name": "owner",
              "type": "address"
            },
            {
              "internalType": "uint256",
              "name": "sellerStake",
              "type": "uint256"
            },
            {
              "internalType": "uint256",
              "name": "buyerStake",
              "type": "uint256"
            },
            {
              "internalType": "uint256",
              "name": "totalStake",
              "type": "uint256"
            },
            {
              "internalType": "uint256",
              "name": "postCount",
              "type": "uint256"
            },
            {
              "internalType": "uint256",
              "name": "paymentRequested",
              "type": "uint256"
            },
            {
              "internalType": "uint256",
              "name": "stakeRequested",
              "type": "uint256"
            },
            {
              "internalType": "enum Structures.PostStatus",
              "name": "status",
              "type": "uint8"
            },
            {
              "internalType": "enum Structures.Tokens",
              "name": "tokenId",
              "type": "uint8"
            },
            {
              "internalType": "string",
              "name": "version",
              "type": "string"
            }
          ],
          "internalType": "struct Structures.Feed",
          "name": "",
          "type": "tuple"
        }
      ],
      "stateMutability": "view",
      "type": "function"
    },
    {
      "inputs": [],
      "name": "getFeeds",
      "outputs": [
        {
          "internalType": "address[]",
          "name": "",
          "type": "address[]"
        }
      ],
      "stateMutability": "view",
      "type": "function"
    },
    {
      "inputs": [],
      "name": "getFeedsInfo",
      "outputs": [
        {
          "components": [
            {
              "internalType": "address",
              "name": "contractAddress",
              "type": "address"
            },
            {
              "internalType": "address",
              "name": "owner",
              "type": "address"
            },
            {
              "internalType": "uint256",
              "name": "sellerStake",
              "type": "uint256"
            },
            {
              "internalType": "uint256",
              "name": "buyerStake",
              "type": "uint256"
            },
            {
              "internalType": "uint256",
              "name": "totalStake",
              "type": "uint256"
            },
            {
              "internalType": "uint256",
              "name": "postCount",
              "type": "uint256"
            },
            {
              "internalType": "uint256",
              "name": "paymentRequested",
              "type": "uint256"
            },
            {
              "internalType": "uint256",
              "name": "stakeRequested",
              "type": "uint256"
            },
            {
              "internalType": "enum Structures.PostStatus",
              "name": "status",
              "type": "uint8"
            },
            {
              "internalType": "enum Structures.Tokens",
              "name": "tokenId",
              "type": "uint8"
            },
            {
              "internalType": "string",
              "name": "version",
              "type": "string"
            }
          ],
          "internalType": "struct Structures.Feed[]",
          "name": "",
          "type": "tuple[]"
        }
      ],
      "stateMutability": "view",
      "type": "function"
    },
    {
      "inputs": [
        {
          "internalType": "address",
          "name": "user",
          "type": "address"
        }
      ],
      "name": "getFeedsInfoOwned",
      "outputs": [
        {
          "components": [
            {
              "internalType": "address",
              "name": "contractAddress",
              "type": "address"
            },
            {
              "internalType": "address",
              "name": "owner",
              "type": "address"
            },
            {
              "internalType": "uint256",
              "name": "sellerStake",
              "type": "uint256"
            },
            {
              "internalType": "uint256",
              "name": "buyerStake",
              "type": "uint256"
            },
            {
              "internalType": "uint256",
              "name": "totalStake",
              "type": "uint256"
            },
            {
              "internalType": "uint256",
              "name": "postCount",
              "type": "uint256"
            },
            {
              "internalType": "uint256",
              "name": "paymentRequested",
              "type": "uint256"
            },
            {
              "internalType": "uint256",
              "name": "stakeRequested",
              "type": "uint256"
            },
            {
              "internalType": "enum Structures.PostStatus",
              "name": "status",
              "type": "uint8"
            },
            {
              "internalType": "enum Structures.Tokens",
              "name": "tokenId",
              "type": "uint8"
            },
            {
              "internalType": "string",
              "name": "version",
              "type": "string"
            }
          ],
          "internalType": "struct Structures.Feed[]",
          "name": "",
          "type": "tuple[]"
        }
      ],
      "stateMutability": "view",
      "type": "function"
    },
    {
      "inputs": [
        {
          "internalType": "address",
          "name": "user",
          "type": "address"
        }
      ],
      "name": "getFeedsOwned",
      "outputs": [
        {
          "internalType": "address[]",
          "name": "",
          "type": "address[]"
        }
      ],
      "stateMutability": "view",
      "type": "function"
    },
    {
      "inputs": [
        {
          "internalType": "uint8",
          "name": "tokenId",
          "type": "uint8"
        }
      ],
      "name": "getRouterFee",
      "outputs": [
        {
          "internalType": "uint24",
          "name": "",
          "type": "uint24"
        }
      ],
      "stateMutability": "view",
      "type": "function"
    },
    {
      "inputs": [
        {
          "internalType": "address",
          "name": "contractAddress",
          "type": "address"
        }
      ],
      "name": "isContractCreated",
      "outputs": [
        {
          "internalType": "bool",
          "name": "",
          "type": "bool"
        }
      ],
      "stateMutability": "view",
      "type": "function"
    },
    {
      "inputs": [
        {
          "internalType": "address",
          "name": "newFeed",
          "type": "address"
        }
      ],
      "name": "isFeed",
      "outputs": [
        {
          "internalType": "bool",
          "name": "",
          "type": "bool"
        }
      ],
      "stateMutability": "view",
      "type": "function"
    },
    {
      "inputs": [],
      "name": "museToken",
      "outputs": [
        {
          "internalType": "address",
          "name": "",
          "type": "address"
        }
      ],
      "stateMutability": "view",
      "type": "function"
    },
    {
      "inputs": [],
      "name": "owner",
      "outputs": [
        {
          "internalType": "address",
          "name": "",
          "type": "address"
        }
      ],
      "stateMutability": "view",
      "type": "function"
    },
    {
      "inputs": [],
      "name": "renounceOwnership",
      "outputs": [],
      "stateMutability": "nonpayable",
      "type": "function"
    },
    {
      "inputs": [],
      "name": "router",
      "outputs": [
        {
          "internalType": "address",
          "name": "",
          "type": "address"
        }
      ],
      "stateMutability": "view",
      "type": "function"
    },
    {
      "inputs": [
        {
          "internalType": "bool",
          "name": "newBurnEnabled",
          "type": "bool"
        }
      ],
      "name": "setBurnEnabled",
      "outputs": [],
      "stateMutability": "nonpayable",
      "type": "function"
    },
    {
      "inputs": [
        {
          "internalType": "bytes",
          "name": "newByteCode",
          "type": "bytes"
        },
        {
          "internalType": "string",
          "name": "newVersion",
          "type": "string"
        }
      ],
      "name": "setFeedByteCode",
      "outputs": [],
      "stateMutability": "nonpayable",
      "type": "function"
    },
    {
      "inputs": [
        {
          "internalType": "uint8",
          "name": "tokenId",
          "type": "uint8"
        },
        {
          "internalType": "uint24",
          "name": "fee",
          "type": "uint24"
        }
      ],
      "name": "setRouterFee",
      "outputs": [],
      "stateMutability": "nonpayable",
      "type": "function"
    },
    {
      "inputs": [
        {
          "internalType": "address",
          "name": "newOwner",
          "type": "address"
        }
      ],
      "name": "transferOwnership",
      "outputs": [],
      "stateMutability": "nonpayable",
      "type": "function"
    },
    {
      "inputs": [],
      "name": "treasuryContract",
      "outputs": [
        {
          "internalType": "address",
          "name": "",
          "type": "address"
        }
      ],
      "stateMutability": "view",
      "type": "function"
    },
    {
      "inputs": [],
      "name": "version",
      "outputs": [
        {
          "internalType": "string",
          "name": "",
          "type": "string"
        }
      ],
      "stateMutability": "view",
      "type": "function"
    },
    {
      "inputs": [],
      "name": "wethToken",
      "outputs": [
        {
          "internalType": "address",
          "name": "",
          "type": "address"
        }
      ],
      "stateMutability": "view",
      "type": "function"
    }
  ],
  "bytecode": "0x6080346200016457601f62001c5738819003918201601f19168301916001600160401b038311848410176200016957808492604094855283398101031262000164576200005a602062000052836200017f565b92016200017f565b600080546001600160a01b03198082163390811784556040519591946001600160a01b0394909390919085167f8be0079c531659141344cd1fd0a4f28419497f9722a3daafe3b4186f6b6457e08380a3600e546001918282811c9216801562000159575b602083101462000145579085939291601f821162000115575b505050600c65076322e302e360d41b01600e5560ff19600f5416600f551683600454161760045516906003541617600355611ac29081620001958239f35b600e8152601f60208220920160051c8201915b828110620001375750620000d7565b818155879550830162000128565b634e487b7160e01b81526022600452602490fd5b91607f1691620000be565b600080fd5b634e487b7160e01b600052604160045260246000fd5b51906001600160a01b0382168203620001645756fe6080604052600436101561001257600080fd5b60003560e01c8063067bd3b41461019257806318da00111461018d5780632ae219b9146101885780634b57b0be1461018357806354a12c9b1461017e57806354fd4d50146101795780635dc96d1614610174578063715018a61461016f5780637b2c835f1461016a5780637fe955d4146101655780638da5cb5b14610160578063ad8613241461015b578063b2a2e9ca14610156578063be22f54614610151578063ca5b4e5c1461014c578063cedf3ba21461013d578063d223a56414610147578063d570a66d14610142578063e58fdd041461013d578063e86ef35314610138578063e9318b4714610133578063f2fde38b1461012e578063f77800e5146101295763f887ea401461012457600080fd5b610e09565b610de0565b610d19565b610cc5565b610c48565b610b78565b610c03565b610bca565b610989565b610960565b6108e6565b610858565b6106fa565b610674565b6105f6565b610591565b61056e565b61049b565b610390565b6102d7565b6101ef565b6101b5565b346101b05760003660031901126101b0576020601054604051908152f35b600080fd5b346101b05760003660031901126101b0576003546040516001600160a01b039091168152602090f35b6001600160a01b038116036101b057565b346101b05760c03660031901126101b0576102d560043561020f816101de565b6102b86024359161021f836101de565b6044359061022c826101de565b60643591610239836101de565b60843592610246846101de565b60a43595610253876101de565b61025b610e32565b60018060a01b0392838092816001600160601b0360a01b971687600354161760035516856004541617600455168360085416176008551690600654161760065560018060a01b03166001600160601b0360a01b6007541617600755565b60018060a01b03166001600160601b0360a01b6009541617600955565b005b346101b05760003660031901126101b0576008546040516001600160a01b039091168152602090f35b634e487b7160e01b600052604160045260246000fd5b90601f8019910116810190811067ffffffffffffffff82111761033857604052565b610300565b67ffffffffffffffff811161033857601f01601f191660200190565b9291926103658261033d565b916103736040519384610316565b8294818452818301116101b0578281602093846000960137010152565b346101b05760403660031901126101b05767ffffffffffffffff6004358181116101b057366023820112156101b0576103d3903690602481600401359101610359565b6024359182116101b057366023830112156101b0576103ff6102d5923690602481600401359101610359565b90610e8a565b90600182811c92168015610435575b602083101461041f57565b634e487b7160e01b600052602260045260246000fd5b91607f1691610414565b60005b8381106104525750506000910152565b8181015183820152602001610442565b9060209161047b8151809281855285808601910161043f565b601f01601f1916010190565b906020610498928181520190610462565b90565b346101b05760008060031936011261056b576040519080600e546104be81610405565b8085529160019180831690811561054157506001146104f8575b6104f4856104e881870382610316565b60405191829182610487565b0390f35b9250600e8352600080516020611a6d8339815191525b8284106105295750505081016020016104e8826104f46104d8565b8054602085870181019190915290930192810161050e565b8695506104f4969350602092506104e894915060ff191682840152151560051b82010192936104d8565b80fd5b346101b05760003660031901126101b057602060ff600f54166040519015158152f35b346101b05760008060031936011261056b576105ab610e32565b80546001600160a01b03198116825581906001600160a01b03167f8be0079c531659141344cd1fd0a4f28419497f9722a3daafe3b4186f6b6457e08280a380f35b801515036101b057565b346101b05760203660031901126101b057600435610613816105ec565b61061b610e32565b60ff8019600f54169115151617600f55600080f35b6020908160408183019282815285518094520193019160005b828110610657575050505090565b83516001600160a01b031685529381019392810192600101610649565b346101b05760003660031901126101b05760405180600191825492838252602080920193816000527fb10e2d527612073b26eecdfd717e6a320cf44b4afac2b0732d9fcbe2b7fa0cf6926000905b8282106106e5576104f4866106d9818a0382610316565b60405191829182610630565b845487529586019593830193908301906106c2565b346101b05760003660031901126101b0576000546040516001600160a01b039091168152602090f35b634e487b7160e01b600052602160045260246000fd5b9060088210156107465752565b610723565b9060038210156107465752565b80516001600160a01b0316825261049891906020818101516001600160a01b03169083015260408101516040830152606081015160608301526080810151608083015260a081015160a083015260c081015160c083015260e081015160e08301526107cc6101008083015190840190610739565b6107df610120808301519084019061074b565b610140809101519161016080928201520190610462565b602080820190808352835180925260408301928160408460051b8301019501936000915b84831061082a5750505050505090565b9091929394958480610848600193603f198682030187528a51610758565b980193019301919493929061081a565b346101b0576020806003193601126101b057600435610876816101de565b60018060a01b0316600052600c81526040600020604051918281835491828152019260005281600020916000905b8282106108cf576104f46108c3876108be81890382610316565b6119d0565b604051918291826107f6565b8354855293840193600193840193909101906108a4565b346101b0576020806003193601126101b057600435610904816101de565b6001600160a01b03166000908152600c82526040808220905181548082529183528383208185019491939092915b828210610949576104f4856106d981890382610316565b835486529485019460019384019390910190610932565b346101b05760003660031901126101b0576007546040516001600160a01b039091168152602090f35b60008060031936011261056b576004546001600160a01b0316604051806109b530843360208501611123565b036109c8601f1991828101845283610316565b60405163122643f360e21b81523360048201526001600160a01b03939091906020908390602490829088165afa908115610b7357610a14610aa492610a98948891610b45575b50611207565b610a27610a1f611556565b341015611249565b610a628680808034610a52610a46610a4660035460018060a01b031690565b6001600160a01b031690565b5af1610a5c611286565b506112b6565b610a75610a706010546112f0565b601055565b610a7d611315565b93604051938491610a926020840180986113d1565b906113d1565b03908101835282610316565b519083f090813b15610b4157816104f4917fb658664a46408e6670a38ec7ea8b7614c9e2916184dff2fad99d3a7a3491ca7d949316610ae281611411565b50336000908152600c60205260409020610afd9083906113e8565b506001600160a01b0382166000908152600d60205260409020610b2790805460ff19166001179055565b60405194848695a26001600160a01b031682526020820190565b8280fd5b610b66915060203d8111610b6c575b610b5e8183610316565b8101906111e6565b38610a0e565b503d610b54565b6111fb565b346101b05760203660031901126101b057600435610b95816101de565b60018060a01b0316600052600d602052602060ff604060002054166040519015158152f35b6004359060ff821682036101b057565b346101b05760203660031901126101b05760ff610be5610bba565b16600052600b602052602062ffffff60406000205416604051908152f35b346101b05760203660031901126101b0576104f4610c34600435610c26816101de565b610c2e6114e3565b50611672565b604051918291602083526020830190610758565b346101b05760003660031901126101b05760405180600190815491828252602080920192816000527fb10e2d527612073b26eecdfd717e6a320cf44b4afac2b0732d9fcbe2b7fa0cf6926000905b828210610cb0576104f46108c3886108be818a0382610316565b84548652948501949383019390830190610c96565b346101b05760403660031901126101b057610cde610bba565b6024359062ffffff82168092036101b05760ff90610cfa610e32565b16600052600b60205260406000209062ffffff19825416179055600080f35b346101b05760203660031901126101b057600435610d36816101de565b610d3e610e32565b6001600160a01b039081168015610d8c57600080546001600160a01b03198116831782559092167f8be0079c531659141344cd1fd0a4f28419497f9722a3daafe3b4186f6b6457e08380a380f35b60405162461bcd60e51b815260206004820152602660248201527f4f776e61626c653a206e6577206f776e657220697320746865207a65726f206160448201526564647265737360d01b6064820152608490fd5b346101b05760003660031901126101b0576006546040516001600160a01b039091168152602090f35b346101b05760003660031901126101b0576009546040516001600160a01b039091168152602090f35b6000546001600160a01b03163303610e4657565b606460405162461bcd60e51b815260206004820152602060248201527f4f776e61626c653a2063616c6c6572206973206e6f7420746865206f776e65726044820152fd5b90610e93610e32565b815167ffffffffffffffff811161033857610eb881610eb3600a54610405565b610fa6565b602080601f8311600114610efc57508190610eef94600092610ef1575b50508160011b916000199060031b1c191617600a5561104b565b565b015190503880610ed5565b919293601f198416610f30600a6000527fc65a7bb8d6351c1cf70c95a316cc6a92839c986682d98bc35f958f4883f9d2a890565b936000905b828210610f77575050916001939185610eef97969410610f5e575b505050811b01600a5561104b565b015160001960f88460031b161c19169055388080610f50565b80600186978294978701518155019601940190610f35565b818110610f9a575050565b60008155600101610f8f565b90601f8211610fb3575050565b610eef91600a6000527fc65a7bb8d6351c1cf70c95a316cc6a92839c986682d98bc35f958f4883f9d2a8906020601f840160051c83019310610ffd575b601f0160051c0190610f8f565b9091508190610ff0565b90601f8211611014575050565b610eef91600e600052600080516020611a6d833981519152906020601f840160051c83019310610ffd57601f0160051c0190610f8f565b90815167ffffffffffffffff8111610338576110718161106c600e54610405565b611007565b602080601f83116001146110ad57508192936000926110a2575b50508160011b916000199060031b1c191617600e55565b01519050388061108b565b90601f198316946110ce600e600052600080516020611a6d83398151915290565b926000905b87821061110b5750508360019596106110f2575b505050811b01600e55565b015160001960f88460031b161c191690553880806110e7565b806001859682949686015181550195019301906110d3565b9260018060a01b03809216845281602093168385015216604083015260806060830152600091600e549161115683610405565b9283608084015260019081811690816000146111c3575060011461117c575b5050505090565b600e6000908152939450600080516020611a6d8339815191525b8585106111af5750505060a09250010138808080611175565b805485850160a00152938201938101611196565b9250505060a0935060ff929192191683830152151560051b010138808080611175565b908160209103126101b05751610498816105ec565b6040513d6000823e3d90fd5b1561120e57565b60405162461bcd60e51b81526020600482015260136024820152721d5cd95c88191bd95cc81b9bdd08195e1a5cdd606a1b6044820152606490fd5b1561125057565b60405162461bcd60e51b815260206004820152600e60248201526d4e4f545f454e4f5547485f46454560901b6044820152606490fd5b3d156112b1573d906112978261033d565b916112a56040519384610316565b82523d6000602084013e565b606090565b156112bd57565b60405162461bcd60e51b815260206004820152600b60248201526a10d0531317d1905253115160aa1b6044820152606490fd5b60001981146112ff5760010190565b634e487b7160e01b600052601160045260246000fd5b60405190600082600a549161132983610405565b808352926001908181169081156113af5750600114611350575b50610eef92500383610316565b600a600090815291507fc65a7bb8d6351c1cf70c95a316cc6a92839c986682d98bc35f958f4883f9d2a85b8483106113945750610eef935050810160200138611343565b81935090816020925483858a0101520191019091859261137b565b905060209250610eef94915060ff191682840152151560051b82010138611343565b906113e46020928281519485920161043f565b0190565b610498916001600160a01b03169061148d565b634e487b7160e01b600052603260045260246000fd5b8060005260026020526040600020541560001461148757600154600160401b8110156103385760018101806001558110156114825781907fb10e2d527612073b26eecdfd717e6a320cf44b4afac2b0732d9fcbe2b7fa0cf60155600154906000526002602052604060002055600190565b6113fb565b50600090565b600082815260018201602081905260408220546114dc57825492600160401b84101561033857600184018082558410156114825784604094828552602085200155549382526020522055600190565b5091505090565b60405190610160820182811067ffffffffffffffff82111761033857604052606061014083600080825280602083015280604083015280848301528060808301528060a08301528060c08301528060e0830152806101008301526101208201520152565b908160209103126101b0575190565b6003546040516391792d5b60e01b815290602090829060049082906001600160a01b03165afa908115610b735760009161158e575090565b610498915060203d81116115af575b6115a78183610316565b810190611547565b503d61159d565b908160209103126101b05751610498816101de565b908160209103126101b0575160088110156101b05790565b60088210156107465752565b908160209103126101b0575160038110156101b05790565b60038210156107465752565b6020818303126101b05780519067ffffffffffffffff82116101b0570181601f820112156101b05780516116468161033d565b926116546040519485610316565b818452602082840101116101b057610498916020808501910161043f565b61167a6114e3565b506116836114e3565b6001600160a01b0390911680825260408051638da5cb5b60e01b8152600492602092909183818681865afa8015610b73576116d091600091611977575b506001600160a01b031686850152565b8051635c63ed6960e01b815283818681865afa908115610b735760009161195a575b50858201528051634c38d87760e01b815283818681865afa908115610b735760009161193d575b506060860152805163048bf3bb60e11b815283818681865afa908115610b7357600091611920575b5060808601528051630bc8361760e11b815283818681865afa908115610b7357600091611903575b5060a0860152805163d24e0c8760e01b815283818681865afa908115610b73576000916118e6575b5060c0860152805163faeb5e1760e01b815283818681865afa908115610b73576000916118c9575b5060e086015280516302734eab60e51b815283818681865afa8015610b73576117ef9160009161189c575b5061010087016115e3565b805163010a38f560e01b81529280848681865afa8015610b735760009461182392869261186f575b50506101208701611607565b5163054fd4d560e41b815292839182905afa908115610b735760009161184e575b5061014082015290565b611869913d8091833e6118618183610316565b810190611613565b38611844565b61188e9250803d10611895575b6118868183610316565b8101906115ef565b3880611817565b503d61187c565b6118bc9150853d87116118c2575b6118b48183610316565b8101906115cb565b386117e4565b503d6118aa565b6118e09150843d86116115af576115a78183610316565b386117b9565b6118fd9150843d86116115af576115a78183610316565b38611791565b61191a9150843d86116115af576115a78183610316565b38611769565b6119379150843d86116115af576115a78183610316565b38611741565b6119549150843d86116115af576115a78183610316565b38611719565b6119719150843d86116115af576115a78183610316565b386116f2565b6119979150853d871161199d575b61198f8183610316565b8101906115b6565b386116c0565b503d611985565b67ffffffffffffffff81116103385760051b60200190565b80518210156114825760209160051b010190565b80516119db816119a4565b916119e96040519384610316565b818352601f196119f8836119a4565b0160005b818110611a5557505060005b828110611a155750505090565b611a5090611a356001600160a01b03611a2e83866119bc565b5116611672565b611a3f82876119bc565b52611a4a81866119bc565b506112f0565b611a08565b602090611a606114e3565b828288010152016119fc56febb7b4a454dc3493923482f07822329ed19e8244eff582cc204f8554c3620c3fda26469706673582212201f601b6ada260b8240cca2388d612f134ff28f93612cfed93f830619f3ee8b0664736f6c63430008130033",
  "linkReferences": {},
  "deployedLinkReferences": {}
}