{
  "_format": "hh-sol-artifact-1",
  "contractName": "MecenateFeedFactory",
  "sourceName": "contracts/factories/MecenateFeedFactory.sol",
  "abi": [
    {
      "anonymous": false,
      "inputs": [
        {
          "indexed": true,
          "internalType": "address",
          "name": "addr",
          "type": "address"
        }
      ],
      "name": "FeedCreated",
      "type": "event"
    },
    {
      "anonymous": false,
      "inputs": [
        {
          "indexed": true,
          "internalType": "address",
          "name": "implementation",
          "type": "address"
        },
        {
          "indexed": true,
          "internalType": "uint256",
          "name": "version",
          "type": "uint256"
        }
      ],
      "name": "ImplementationUpdated",
      "type": "event"
    },
    {
      "anonymous": false,
      "inputs": [
        {
          "indexed": false,
          "internalType": "uint8",
          "name": "version",
          "type": "uint8"
        }
      ],
      "name": "Initialized",
      "type": "event"
    },
    {
      "anonymous": false,
      "inputs": [
        {
          "indexed": true,
          "internalType": "address",
          "name": "previousOwner",
          "type": "address"
        },
        {
          "indexed": true,
          "internalType": "address",
          "name": "newOwner",
          "type": "address"
        }
      ],
      "name": "OwnershipTransferred",
      "type": "event"
    },
    {
      "anonymous": false,
      "inputs": [
        {
          "indexed": true,
          "internalType": "address",
          "name": "_proxyCallContract",
          "type": "address"
        }
      ],
      "name": "ProxyCallContractUpdated",
      "type": "event"
    },
    {
      "inputs": [
        {
          "internalType": "address",
          "name": "_implementation",
          "type": "address"
        },
        {
          "internalType": "uint256",
          "name": "major",
          "type": "uint256"
        },
        {
          "internalType": "uint256",
          "name": "minor",
          "type": "uint256"
        },
        {
          "internalType": "uint256",
          "name": "patch",
          "type": "uint256"
        }
      ],
      "name": "adminUpdateImplementation",
      "outputs": [],
      "stateMutability": "nonpayable",
      "type": "function"
    },
    {
      "inputs": [
        {
          "internalType": "address",
          "name": "_proxyCallContract",
          "type": "address"
        }
      ],
      "name": "adminUpdateProxyCallContract",
      "outputs": [],
      "stateMutability": "nonpayable",
      "type": "function"
    },
    {
      "inputs": [],
      "name": "buildFeed",
      "outputs": [
        {
          "internalType": "address",
          "name": "ctx",
          "type": "address"
        }
      ],
      "stateMutability": "payable",
      "type": "function"
    },
    {
      "inputs": [],
      "name": "burnEnabled",
      "outputs": [
        {
          "internalType": "bool",
          "name": "",
          "type": "bool"
        }
      ],
      "stateMutability": "view",
      "type": "function"
    },
    {
      "inputs": [
        {
          "internalType": "address",
          "name": "treasury",
          "type": "address"
        },
        {
          "internalType": "address",
          "name": "usersModule",
          "type": "address"
        },
        {
          "internalType": "address",
          "name": "newEasContract",
          "type": "address"
        },
        {
          "internalType": "bytes32",
          "name": "newEasSchema",
          "type": "bytes32"
        },
        {
          "internalType": "address",
          "name": "wethTokenAddr",
          "type": "address"
        },
        {
          "internalType": "address",
          "name": "museTokenAddr",
          "type": "address"
        },
        {
          "internalType": "address",
          "name": "daiTokenAddr",
          "type": "address"
        },
        {
          "internalType": "address",
          "name": "routerAddr",
          "type": "address"
        }
      ],
      "name": "changeMultipleSettings",
      "outputs": [],
      "stateMutability": "nonpayable",
      "type": "function"
    },
    {
      "inputs": [],
      "name": "contractCounter",
      "outputs": [
        {
          "internalType": "uint256",
          "name": "",
          "type": "uint256"
        }
      ],
      "stateMutability": "view",
      "type": "function"
    },
    {
      "inputs": [],
      "name": "daiToken",
      "outputs": [
        {
          "internalType": "address",
          "name": "",
          "type": "address"
        }
      ],
      "stateMutability": "view",
      "type": "function"
    },
    {
      "inputs": [],
      "name": "defaultOperator",
      "outputs": [
        {
          "internalType": "address",
          "name": "",
          "type": "address"
        }
      ],
      "stateMutability": "view",
      "type": "function"
    },
    {
      "inputs": [],
      "name": "easContract",
      "outputs": [
        {
          "internalType": "address",
          "name": "",
          "type": "address"
        }
      ],
      "stateMutability": "view",
      "type": "function"
    },
    {
      "inputs": [],
      "name": "easSchema",
      "outputs": [
        {
          "internalType": "bytes32",
          "name": "",
          "type": "bytes32"
        }
      ],
      "stateMutability": "view",
      "type": "function"
    },
    {
      "inputs": [
        {
          "internalType": "address",
          "name": "user",
          "type": "address"
        }
      ],
      "name": "getFeedInfo",
      "outputs": [
        {
          "components": [
            {
              "internalType": "address",
              "name": "contractAddress",
              "type": "address"
            },
            {
              "internalType": "address",
              "name": "owner",
              "type": "address"
            },
            {
              "internalType": "uint256",
              "name": "sellerStake",
              "type": "uint256"
            },
            {
              "internalType": "uint256",
              "name": "buyerStake",
              "type": "uint256"
            },
            {
              "internalType": "uint256",
              "name": "totalStake",
              "type": "uint256"
            },
            {
              "internalType": "uint256",
              "name": "postCount",
              "type": "uint256"
            },
            {
              "internalType": "uint256",
              "name": "paymentRequested",
              "type": "uint256"
            },
            {
              "internalType": "uint256",
              "name": "stakeRequested",
              "type": "uint256"
            },
            {
              "internalType": "enum Structures.PostStatus",
              "name": "status",
              "type": "uint8"
            },
            {
              "internalType": "enum Structures.Tokens",
              "name": "tokenId",
              "type": "uint8"
            },
            {
              "internalType": "string",
              "name": "version",
              "type": "string"
            },
            {
              "internalType": "bytes32",
              "name": "postId",
              "type": "bytes32"
            }
          ],
          "internalType": "struct Structures.Feed",
          "name": "",
          "type": "tuple"
        }
      ],
      "stateMutability": "view",
      "type": "function"
    },
    {
      "inputs": [],
      "name": "getFeeds",
      "outputs": [
        {
          "internalType": "address[]",
          "name": "",
          "type": "address[]"
        }
      ],
      "stateMutability": "view",
      "type": "function"
    },
    {
      "inputs": [],
      "name": "getFeedsInfo",
      "outputs": [
        {
          "components": [
            {
              "internalType": "address",
              "name": "contractAddress",
              "type": "address"
            },
            {
              "internalType": "address",
              "name": "owner",
              "type": "address"
            },
            {
              "internalType": "uint256",
              "name": "sellerStake",
              "type": "uint256"
            },
            {
              "internalType": "uint256",
              "name": "buyerStake",
              "type": "uint256"
            },
            {
              "internalType": "uint256",
              "name": "totalStake",
              "type": "uint256"
            },
            {
              "internalType": "uint256",
              "name": "postCount",
              "type": "uint256"
            },
            {
              "internalType": "uint256",
              "name": "paymentRequested",
              "type": "uint256"
            },
            {
              "internalType": "uint256",
              "name": "stakeRequested",
              "type": "uint256"
            },
            {
              "internalType": "enum Structures.PostStatus",
              "name": "status",
              "type": "uint8"
            },
            {
              "internalType": "enum Structures.Tokens",
              "name": "tokenId",
              "type": "uint8"
            },
            {
              "internalType": "string",
              "name": "version",
              "type": "string"
            },
            {
              "internalType": "bytes32",
              "name": "postId",
              "type": "bytes32"
            }
          ],
          "internalType": "struct Structures.Feed[]",
          "name": "",
          "type": "tuple[]"
        }
      ],
      "stateMutability": "view",
      "type": "function"
    },
    {
      "inputs": [
        {
          "internalType": "address",
          "name": "user",
          "type": "address"
        }
      ],
      "name": "getFeedsInfoOwned",
      "outputs": [
        {
          "components": [
            {
              "internalType": "address",
              "name": "contractAddress",
              "type": "address"
            },
            {
              "internalType": "address",
              "name": "owner",
              "type": "address"
            },
            {
              "internalType": "uint256",
              "name": "sellerStake",
              "type": "uint256"
            },
            {
              "internalType": "uint256",
              "name": "buyerStake",
              "type": "uint256"
            },
            {
              "internalType": "uint256",
              "name": "totalStake",
              "type": "uint256"
            },
            {
              "internalType": "uint256",
              "name": "postCount",
              "type": "uint256"
            },
            {
              "internalType": "uint256",
              "name": "paymentRequested",
              "type": "uint256"
            },
            {
              "internalType": "uint256",
              "name": "stakeRequested",
              "type": "uint256"
            },
            {
              "internalType": "enum Structures.PostStatus",
              "name": "status",
              "type": "uint8"
            },
            {
              "internalType": "enum Structures.Tokens",
              "name": "tokenId",
              "type": "uint8"
            },
            {
              "internalType": "string",
              "name": "version",
              "type": "string"
            },
            {
              "internalType": "bytes32",
              "name": "postId",
              "type": "bytes32"
            }
          ],
          "internalType": "struct Structures.Feed[]",
          "name": "",
          "type": "tuple[]"
        }
      ],
      "stateMutability": "view",
      "type": "function"
    },
    {
      "inputs": [
        {
          "internalType": "address",
          "name": "user",
          "type": "address"
        }
      ],
      "name": "getFeedsOwned",
      "outputs": [
        {
          "internalType": "address[]",
          "name": "",
          "type": "address[]"
        }
      ],
      "stateMutability": "view",
      "type": "function"
    },
    {
      "inputs": [
        {
          "internalType": "uint256",
          "name": "tokenId",
          "type": "uint256"
        }
      ],
      "name": "getRouterFee",
      "outputs": [
        {
          "internalType": "uint24",
          "name": "",
          "type": "uint24"
        }
      ],
      "stateMutability": "view",
      "type": "function"
    },
    {
      "inputs": [],
      "name": "implementation",
      "outputs": [
        {
          "internalType": "address",
          "name": "",
          "type": "address"
        }
      ],
      "stateMutability": "view",
      "type": "function"
    },
    {
      "inputs": [
        {
          "internalType": "address",
          "name": "_proxyCallContract",
          "type": "address"
        },
        {
          "internalType": "address",
          "name": "_usersModuleContract",
          "type": "address"
        },
        {
          "internalType": "address",
          "name": "_treasuryContract",
          "type": "address"
        },
        {
          "internalType": "address",
          "name": "_easContract",
          "type": "address"
        },
        {
          "internalType": "bytes32",
          "name": "_easSchema",
          "type": "bytes32"
        },
        {
          "internalType": "address",
          "name": "_wethToken",
          "type": "address"
        },
        {
          "internalType": "address",
          "name": "_museToken",
          "type": "address"
        },
        {
          "internalType": "address",
          "name": "_daiToken",
          "type": "address"
        },
        {
          "internalType": "address",
          "name": "_router",
          "type": "address"
        }
      ],
      "name": "initialize",
      "outputs": [],
      "stateMutability": "nonpayable",
      "type": "function"
    },
    {
      "inputs": [
        {
          "internalType": "address",
          "name": "contractAddress",
          "type": "address"
        }
      ],
      "name": "isContractCreated",
      "outputs": [
        {
          "internalType": "bool",
          "name": "",
          "type": "bool"
        }
      ],
      "stateMutability": "view",
      "type": "function"
    },
    {
      "inputs": [
        {
          "internalType": "address",
          "name": "newFeed",
          "type": "address"
        }
      ],
      "name": "isFeed",
      "outputs": [
        {
          "internalType": "bool",
          "name": "",
          "type": "bool"
        }
      ],
      "stateMutability": "view",
      "type": "function"
    },
    {
      "inputs": [],
      "name": "major",
      "outputs": [
        {
          "internalType": "uint256",
          "name": "",
          "type": "uint256"
        }
      ],
      "stateMutability": "view",
      "type": "function"
    },
    {
      "inputs": [],
      "name": "minor",
      "outputs": [
        {
          "internalType": "uint256",
          "name": "",
          "type": "uint256"
        }
      ],
      "stateMutability": "view",
      "type": "function"
    },
    {
      "inputs": [],
      "name": "museToken",
      "outputs": [
        {
          "internalType": "address",
          "name": "",
          "type": "address"
        }
      ],
      "stateMutability": "view",
      "type": "function"
    },
    {
      "inputs": [],
      "name": "owner",
      "outputs": [
        {
          "internalType": "address",
          "name": "",
          "type": "address"
        }
      ],
      "stateMutability": "view",
      "type": "function"
    },
    {
      "inputs": [],
      "name": "patch",
      "outputs": [
        {
          "internalType": "uint256",
          "name": "",
          "type": "uint256"
        }
      ],
      "stateMutability": "view",
      "type": "function"
    },
    {
      "inputs": [],
      "name": "proxyCallContract",
      "outputs": [
        {
          "internalType": "contract IProxyCall",
          "name": "",
          "type": "address"
        }
      ],
      "stateMutability": "view",
      "type": "function"
    },
    {
      "inputs": [],
      "name": "renounceOwnership",
      "outputs": [],
      "stateMutability": "nonpayable",
      "type": "function"
    },
    {
      "inputs": [],
      "name": "router",
      "outputs": [
        {
          "internalType": "address",
          "name": "",
          "type": "address"
        }
      ],
      "stateMutability": "view",
      "type": "function"
    },
    {
      "inputs": [
        {
          "internalType": "bool",
          "name": "newBurnEnabled",
          "type": "bool"
        }
      ],
      "name": "setBurnEnabled",
      "outputs": [],
      "stateMutability": "nonpayable",
      "type": "function"
    },
    {
      "inputs": [
        {
          "internalType": "uint256",
          "name": "tokenId",
          "type": "uint256"
        },
        {
          "internalType": "uint24",
          "name": "fee",
          "type": "uint24"
        }
      ],
      "name": "setRouterFee",
      "outputs": [],
      "stateMutability": "nonpayable",
      "type": "function"
    },
    {
      "inputs": [
        {
          "internalType": "address",
          "name": "newOwner",
          "type": "address"
        }
      ],
      "name": "transferOwnership",
      "outputs": [],
      "stateMutability": "nonpayable",
      "type": "function"
    },
    {
      "inputs": [],
      "name": "treasuryContract",
      "outputs": [
        {
          "internalType": "address",
          "name": "",
          "type": "address"
        }
      ],
      "stateMutability": "view",
      "type": "function"
    },
    {
      "inputs": [],
      "name": "wethToken",
      "outputs": [
        {
          "internalType": "address",
          "name": "",
          "type": "address"
        }
      ],
      "stateMutability": "view",
      "type": "function"
    }
  ],
  "bytecode": "0x608080604052346100205760ff1960755416607555611cd690816100268239f35b600080fdfe608060408181526004918236101561001657600080fd5b600092833560e01c918263067bd3b4146110d95750816318da0011146110b05781633ec4f23d1461109157816349975235146110725781634b57b0be146110495781635978e9b01461101c5781635c60da1b14610ff35781635dc96d1614610fcf5781636a3f9c3014610f86578163715018a614610f295781637b2c835f14610ef25781637fe955d414610e7857816380ca11fc14610e4f5781638da5cb5b14610e265781639496d7f114610d5f578163a17bb19914610d35578163ad86132414610cbb578163b19bcb5814610b0c578163b2a2e9ca14610a8e578163bb7e364814610a65578163bb834b0e14610a46578163be22f54614610a1d578163ca5b4e5c14610638578163cd77b52c1461060f578163cedf3ba214610327578163d024dda81461036f578163d570a66d1461032c578163e58fdd0414610327578163e86ef35314610297578163f2fde38b1461020157508063f77800e5146101d9578063f86d0b38146101bb5763f887ea401461019057600080fd5b346101b757816003193601126101b75760715490516001600160a01b039091168152602090f35b5080fd5b50346101b757816003193601126101b7576020906077549051908152f35b50346101b757816003193601126101b757606e5490516001600160a01b039091168152602090f35b9050346102935760203660031901126102935761021c611139565b91610225611353565b6001600160a01b03831615610241578361023e846113ab565b80f35b906020608492519162461bcd60e51b8352820152602660248201527f4f776e61626c653a206e6577206f776e657220697320746865207a65726f206160448201526564647265737360d01b6064820152fd5b8280fd5b5050346101b757816003193601126101b75780518092606854808352602080930192606883527fa2153420d844928b4421650203c77babc8b33d7f2e7b450e2966db0c2209775392905b8282106103105761030c86610301896102fc818a038261147e565b611c04565b9051918291826112b5565b0390f35b8354855293840193600193840193909101906102e1565b611317565b5050346101b75760203660031901126101b75761030c9061035c61034e611139565b61035661160b565b50611730565b90519182916020835260208301906111e0565b905034610293576101203660031901126102935761038b611139565b61039361114f565b9061039c611165565b6001600160a01b0391906064358381169081900361060a576103bc61117b565b6103c4611191565b906103cd6111a7565b92610104359487861680960361060a578b549960ff8b60081c16159a8b809c6105fd575b80156105e6575b1561058c5760ff8e61043f928e60018419831617835561057b575b5061042c82825460081c16610427816113f4565b6113f4565b610435336113ab565b5460081c166113f4565b610448336113ab565b610450611353565b331561052957508794939192859384809361046a336113ab565b6104738b611678565b816001600160601b0360a01b9d168d606b541617606b55168b606a541617606a558a606c541617606c55608435606d55168860705416176070551686606e541617606e551684606f541617606f558360715416176071551681606554161760655533906067541617606755600260775582607855826079556104f3575080f35b60207f7f26b83ff96e1f2b6a682f133852f6798a09c465da95921460cefb38474024989161ff001984541684555160018152a180f35b60849060208d519162461bcd60e51b8352820152602660248201527f4f776e61626c653a206e6577206f776e657220697320746865207a65726f206160448201526564647265737360d01b6064820152fd5b61ffff191661010117815538610413565b8c5162461bcd60e51b8152602081840152602e60248201527f496e697469616c697a61626c653a20636f6e747261637420697320616c72656160448201526d191e481a5b9a5d1a585b1a5e995960921b6064820152608490fd5b50303b1580156103f85750600160ff8216146103f8565b50600160ff8216106103f1565b600080fd5b5050346101b757816003193601126101b757606c5490516001600160a01b039091168152602090f35b8383816003193601126101b75780516bffffffffffffffffffffffff193360601b16602080830191825242603480850191909152835294601f19939290919061068260548261147e565b5190206066549360018201809211610a0a5783513360601b6bffffffffffffffffffffffff191688820190815260148101939093526e5af43d82803e903d91602b57fd5bf392916106de9082603485010390810183528261147e565b519020608885901c62ffffff16763d602d80600a3d3981f3363d3d373d3d3d363d7300000017865260789490941b6effffffffffffffffffffffffffffff19161785526001600160a01b039283906037600987f5169283156109c85780606b541660775460785491607954873b156109c45786516339466de560e11b8152338782019081523060208201526001600160a01b0390931660408401526060830193909352608082019390935260a08101929092529086908290819060c001038183895af18015610930579086916109ac575b505060248682606b541685519283809263122643f360e21b825233888301525afa908115610930578691610972575b501561093a57606a541682516391792d5b60e01b815286818481855afa908115610930578691610903575b5034106108d057848080809334905af13d156108cb573d610829816114c3565b906108368551928361147e565b815285873d92013e5b1561089c57507fb658664a46408e6670a38ec7ea8b7614c9e2916184dff2fad99d3a7a3491ca7d82916108736076546114df565b60765561087f836114ee565b503385526074865261089383828720611586565b50519380a28152f35b84606492519162461bcd60e51b8352820152600b60248201526a10d0531317d1905253115160aa1b6044820152fd5b61083f565b5084606492519162461bcd60e51b8352820152600e60248201526d4e4f545f454e4f5547485f46454560901b6044820152fd5b90508681813d8311610929575b61091a818361147e565b8101031261060a575187610809565b503d610910565b84513d88823e3d90fd5b5084606492519162461bcd60e51b835282015260136024820152721d5cd95c88191bd95cc81b9bdd08195e1a5cdd606a1b6044820152fd5b90508681813d83116109a5575b610989818361147e565b810103126109a1575180151581036109a157876107de565b8580fd5b503d61097f565b6109b590611454565b6109c05784876107af565b8480fd5b8880fd5b5084606492519162461bcd60e51b8352820152601760248201527f455243313136373a2063726561746532206661696c65640000000000000000006044820152fd5b634e487b7160e01b865260118352602486fd5b5050346101b757816003193601126101b757606f5490516001600160a01b039091168152602090f35b5050346101b757816003193601126101b7576020906078549051908152f35b5050346101b757816003193601126101b75760655490516001600160a01b039091168152602090f35b5050346101b75760209081600319360112610293576001600160a01b03610ab3611139565b168352607482528083209281518093808654928381520195835280832092905b828210610af55761030c8686610aeb828b038361147e565b51918291826110f5565b835487529586019560019384019390910190610ad3565b8383346101b75760803660031901126101b757610b27611139565b906024356044359060643592610b3b611353565b843b15610c6a5760018060a01b0380951694856001600160601b0360a01b6066541617606655826077558360785584607955606b5416853b15610c665781516339466de560e11b815233818a019081523060208201526001600160a01b039092166040830152606082018490526080820185905260a08201869052919087908390819060c0010381838a5af1908115610c5d5750610c4a575b5061271090818102918183041490151715610c3757606482029180830460641490151715610c3757610c0f9291610c0a916114a0565b6114a0565b907f5678af47993f4856157dd819bee3183b87c10ee1b3575a5128fe25896c073a288380a380f35b634e487b7160e01b855260118652602485fd5b610c5690959195611454565b9386610bd4565b513d88823e3d90fd5b8680fd5b5162461bcd60e51b8152602081880152602660248201527f6e616c693a20696d706c656d656e746174696f6e206973206e6f74206120636f6044820152651b9d1c9858dd60d21b6064820152608490fd5b5050346101b75760209182600319360112610d32576001600160a01b03610ce0611139565b168152607483528181209082518094808454928381520193835280832092905b828210610d1b5761030c86610301896102fc818a038261147e565b835485529384019360019384019390910190610d00565b80fd5b8334610d32576020366003190112610d325761023e610d52611139565b610d5a611353565b611678565b8334610d3257610100366003190112610d3257610d7a611139565b610d8261114f565b610d8a611165565b6001600160a01b03919060843583811691908290036109a157838092610dae61117b565b9082610db8611191565b9481610dc26111a7565b98610dcb611353565b816001600160601b0360a01b9c168c606a541617606a55168a606b541617606b551688606c541617606c55606435606d558760705416176070551685606e541617606e551683606f541617606f551690607154161760715580f35b5050346101b757816003193601126101b75760335490516001600160a01b039091168152602090f35b5050346101b757816003193601126101b75760675490516001600160a01b039091168152602090f35b828434610d325780600319360112610d32578151918291606854808552602080950194606883527fa2153420d844928b4421650203c77babc8b33d7f2e7b450e2966db0c2209775392905b828210610edb5761030c8686610aeb828b038361147e565b835487529586019560019384019390910190610ec3565b8390346101b75760203660031901126101b757358015158091036101b757610f18611353565b60ff80196075541691161760755580f35b8334610d325780600319360112610d3257610f42611353565b603380546001600160a01b0319811690915581906001600160a01b03167f8be0079c531659141344cd1fd0a4f28419497f9722a3daafe3b4186f6b6457e08280a380f35b919050346102935780600319360112610293576024359162ffffff8316809303610fcb57610fb2611353565b358352607360205282209062ffffff1982541617905580f35b8380fd5b5050346101b757816003193601126101b75760209060ff6075541690519015158152f35b5050346101b757816003193601126101b75760665490516001600160a01b039091168152602090f35b905034610293576020366003190112610293578160209362ffffff92358152607385522054169051908152f35b5050346101b757816003193601126101b75760705490516001600160a01b039091168152602090f35b5050346101b757816003193601126101b7576020906079549051908152f35b5050346101b757816003193601126101b757602090606d549051908152f35b5050346101b757816003193601126101b757606a5490516001600160a01b039091168152602090f35b8490346101b757816003193601126101b7576020906076548152f35b6020908160408183019282815285518094520193019160005b82811061111c575050505090565b83516001600160a01b03168552938101939281019260010161110e565b600435906001600160a01b038216820361060a57565b602435906001600160a01b038216820361060a57565b604435906001600160a01b038216820361060a57565b60a435906001600160a01b038216820361060a57565b60c435906001600160a01b038216820361060a57565b60e435906001600160a01b038216820361060a57565b60005b8381106111d05750506000910152565b81810151838201526020016111c0565b9060018060a01b03808351168252602083015116602082015260408201516040820152606082015160608201526080820151608082015260a082015160a082015260c082015160c082015260e082015160e08201526101008083015190600882101561129f578201526101208083015190600382101561129f578201526101408083015192610180809284015283518092840152611288826101a095602087870191016111bd565b6101609081015190830152601f01601f1916010190565b634e487b7160e01b600052602160045260246000fd5b602080820190808352835180925260408301928160408460051b8301019501936000915b8483106112e95750505050505090565b9091929394958480611307600193603f198682030187528a516111e0565b98019301930191949392906112d9565b3461060a57602036600319011261060a576001600160a01b03611338611139565b16600052606960205260206040600020541515604051908152f35b6033546001600160a01b0316330361136757565b606460405162461bcd60e51b815260206004820152602060248201527f4f776e61626c653a2063616c6c6572206973206e6f7420746865206f776e65726044820152fd5b603380546001600160a01b039283166001600160a01b0319821681179092559091167f8be0079c531659141344cd1fd0a4f28419497f9722a3daafe3b4186f6b6457e0600080a3565b156113fb57565b60405162461bcd60e51b815260206004820152602b60248201527f496e697469616c697a61626c653a20636f6e7472616374206973206e6f74206960448201526a6e697469616c697a696e6760a81b6064820152608490fd5b67ffffffffffffffff811161146857604052565b634e487b7160e01b600052604160045260246000fd5b90601f8019910116810190811067ffffffffffffffff82111761146857604052565b919082018092116114ad57565b634e487b7160e01b600052601160045260246000fd5b67ffffffffffffffff811161146857601f01601f191660200190565b60001981146114ad5760010190565b60008181526069602052604081205461158157606854600160401b81101561156d5760018101806068558110156115595790826040927fa2153420d844928b4421650203c77babc8b33d7f2e7b450e2966db0c22097753015560685492815260696020522055600190565b634e487b7160e01b82526032600452602482fd5b634e487b7160e01b82526041600452602482fd5b905090565b9190600183016000908282528060205260408220541560001461160557845494600160401b8610156115f157600186018082558610156115dd57836040949596828552602085200155549382526020522055600190565b634e487b7160e01b83526032600452602483fd5b634e487b7160e01b83526041600452602483fd5b50925050565b60405190610180820182811067ffffffffffffffff82111761146857604052816101606000918281528260208201528260408201528260608201528260808201528260a08201528260c08201528260e0820152826101008201528261012082015260606101408201520152565b803b156116c557606580546001600160a01b0319166001600160a01b039290921691821790557f7213e3d637e4ef4968f947d5f602103307355f708bfd5bfce9d87da7c78f8521600080a2565b60405162461bcd60e51b815260206004820152603a60248201527f464e44436f6c6c656374696f6e466163746f72793a2050726f78792063616c6c60448201527f2061646472657373206973206e6f74206120636f6e74726163740000000000006064820152608490fd5b61173861160b565b5061174161160b565b6001600160a01b0391821680825260408051638da5cb5b60e01b81529293600493919260209290919083818781865afa908115611bb757600091611b81575b5016858301528251635c63ed6960e01b815282818681855afa9081156119e757600091611b54575b50858401528251634c38d87760e01b815282818681855afa9081156119e757600091611b27575b506060860152825163048bf3bb60e11b815282818681855afa9081156119e757600091611afa575b5060808601528251630bc8361760e11b815282818681855afa9081156119e757600091611acd575b5060a0860152825163d24e0c8760e01b815282818681855afa9081156119e757600091611aa0575b5060c0860152825163faeb5e1760e01b815282818681855afa9081156119e757600091611a73575b5060e086015282516302734eab60e51b815282818681855afa9081156119e757600091611a3d575b5060088110156119f257610100860152825163010a38f560e01b815282818681855afa9081156119e757600091611a07575b5060038110156119f257610120860152825163054fd4d560e41b81526000818681855afa9081156119e7579083929160009161196b575b5061014087015283516332946a8760e01b815294859182905afa9182156119615750600091611935575b506101608301525090565b82813d831161195a575b611949818361147e565b81010312610d32575051803861192a565b503d61193f565b513d6000823e3d90fd5b9192503d8082843e61197d818461147e565b82019184818403126101b75780519067ffffffffffffffff8211610293570182601f820112156101b7578051916119b3836114c3565b936119c08851958661147e565b838552868484010111610d32575082916119e19186808097960191016111bd565b38611900565b84513d6000823e3d90fd5b602185634e487b7160e01b6000525260246000fd5b8381813d8311611a36575b611a1c818361147e565b810103126101b75751906003821015610d325750386118c9565b503d611a12565b8381813d8311611a6c575b611a52818361147e565b810103126101b75751906008821015610d32575038611897565b503d611a48565b908382813d8311611a99575b611a89818361147e565b81010312610d325750513861186f565b503d611a7f565b908382813d8311611ac6575b611ab6818361147e565b81010312610d3257505138611847565b503d611aac565b908382813d8311611af3575b611ae3818361147e565b81010312610d325750513861181f565b503d611ad9565b908382813d8311611b20575b611b10818361147e565b81010312610d32575051386117f7565b503d611b06565b908382813d8311611b4d575b611b3d818361147e565b81010312610d32575051386117cf565b503d611b33565b908382813d8311611b7a575b611b6a818361147e565b81010312610d32575051386117a8565b503d611b60565b8481813d8311611bb0575b611b96818361147e565b810103126101b75751908282168203610d32575038611780565b503d611b8c565b85513d6000823e3d90fd5b67ffffffffffffffff81116114685760051b60200190565b8051821015611bee5760209160051b010190565b634e487b7160e01b600052603260045260246000fd5b8051611c0f81611bc2565b91611c1d604051938461147e565b818352601f19611c2c83611bc2565b0160005b818110611c8957505060005b828110611c495750505090565b611c8490611c696001600160a01b03611c628386611bda565b5116611730565b611c738287611bda565b52611c7e8186611bda565b506114df565b611c3c565b602090611c9461160b565b82828801015201611c3056fea26469706673582212201550a7d1c3183f82d266fea7c3ca83126c5ee7f08f120aecb1e8cf8d492f2a2a64736f6c63430008130033",
  "linkReferences": {},
  "deployedLinkReferences": {}
}