{
  "_format": "hh-sol-artifact-1",
  "contractName": "MecenateFeedFactory",
  "sourceName": "contracts/factories/MecenateFeedFactory.sol",
  "abi": [
    {
      "anonymous": false,
      "inputs": [
        {
          "indexed": true,
          "internalType": "address",
          "name": "addr",
          "type": "address"
        }
      ],
      "name": "FeedCreated",
      "type": "event"
    },
    {
      "anonymous": false,
      "inputs": [
        {
          "indexed": true,
          "internalType": "address",
          "name": "implementation",
          "type": "address"
        },
        {
          "indexed": true,
          "internalType": "uint256",
          "name": "version",
          "type": "uint256"
        }
      ],
      "name": "ImplementationUpdated",
      "type": "event"
    },
    {
      "anonymous": false,
      "inputs": [
        {
          "indexed": false,
          "internalType": "uint8",
          "name": "version",
          "type": "uint8"
        }
      ],
      "name": "Initialized",
      "type": "event"
    },
    {
      "anonymous": false,
      "inputs": [
        {
          "indexed": true,
          "internalType": "address",
          "name": "previousOwner",
          "type": "address"
        },
        {
          "indexed": true,
          "internalType": "address",
          "name": "newOwner",
          "type": "address"
        }
      ],
      "name": "OwnershipTransferred",
      "type": "event"
    },
    {
      "anonymous": false,
      "inputs": [
        {
          "indexed": true,
          "internalType": "address",
          "name": "_proxyCallContract",
          "type": "address"
        }
      ],
      "name": "ProxyCallContractUpdated",
      "type": "event"
    },
    {
      "inputs": [
        {
          "internalType": "address",
          "name": "_implementation",
          "type": "address"
        },
        {
          "internalType": "uint256",
          "name": "majorN",
          "type": "uint256"
        },
        {
          "internalType": "uint256",
          "name": "minorN",
          "type": "uint256"
        },
        {
          "internalType": "uint256",
          "name": "patchN",
          "type": "uint256"
        }
      ],
      "name": "adminUpdateImplementation",
      "outputs": [],
      "stateMutability": "nonpayable",
      "type": "function"
    },
    {
      "inputs": [
        {
          "internalType": "address",
          "name": "_proxyCallContract",
          "type": "address"
        }
      ],
      "name": "adminUpdateProxyCallContract",
      "outputs": [],
      "stateMutability": "nonpayable",
      "type": "function"
    },
    {
      "inputs": [],
      "name": "buildFeed",
      "outputs": [
        {
          "internalType": "address",
          "name": "ctx",
          "type": "address"
        }
      ],
      "stateMutability": "payable",
      "type": "function"
    },
    {
      "inputs": [],
      "name": "burnEnabled",
      "outputs": [
        {
          "internalType": "bool",
          "name": "",
          "type": "bool"
        }
      ],
      "stateMutability": "view",
      "type": "function"
    },
    {
      "inputs": [
        {
          "internalType": "address",
          "name": "treasury",
          "type": "address"
        },
        {
          "internalType": "address",
          "name": "usersModule",
          "type": "address"
        },
        {
          "internalType": "address",
          "name": "newEasContract",
          "type": "address"
        },
        {
          "internalType": "bytes32",
          "name": "newEasSchema",
          "type": "bytes32"
        },
        {
          "internalType": "address",
          "name": "wethTokenAddr",
          "type": "address"
        },
        {
          "internalType": "address",
          "name": "museTokenAddr",
          "type": "address"
        },
        {
          "internalType": "address",
          "name": "daiTokenAddr",
          "type": "address"
        },
        {
          "internalType": "address",
          "name": "routerAddr",
          "type": "address"
        }
      ],
      "name": "changeMultipleSettings",
      "outputs": [],
      "stateMutability": "nonpayable",
      "type": "function"
    },
    {
      "inputs": [],
      "name": "contractCounter",
      "outputs": [
        {
          "internalType": "uint256",
          "name": "",
          "type": "uint256"
        }
      ],
      "stateMutability": "view",
      "type": "function"
    },
    {
      "inputs": [],
      "name": "daiToken",
      "outputs": [
        {
          "internalType": "address",
          "name": "",
          "type": "address"
        }
      ],
      "stateMutability": "view",
      "type": "function"
    },
    {
      "inputs": [],
      "name": "defaultOperator",
      "outputs": [
        {
          "internalType": "address",
          "name": "",
          "type": "address"
        }
      ],
      "stateMutability": "view",
      "type": "function"
    },
    {
      "inputs": [],
      "name": "easContract",
      "outputs": [
        {
          "internalType": "address",
          "name": "",
          "type": "address"
        }
      ],
      "stateMutability": "view",
      "type": "function"
    },
    {
      "inputs": [],
      "name": "easSchema",
      "outputs": [
        {
          "internalType": "bytes32",
          "name": "",
          "type": "bytes32"
        }
      ],
      "stateMutability": "view",
      "type": "function"
    },
    {
      "inputs": [
        {
          "internalType": "address",
          "name": "user",
          "type": "address"
        }
      ],
      "name": "getFeedInfo",
      "outputs": [
        {
          "components": [
            {
              "internalType": "address",
              "name": "contractAddress",
              "type": "address"
            },
            {
              "internalType": "address",
              "name": "owner",
              "type": "address"
            },
            {
              "internalType": "uint256",
              "name": "sellerStake",
              "type": "uint256"
            },
            {
              "internalType": "uint256",
              "name": "buyerStake",
              "type": "uint256"
            },
            {
              "internalType": "uint256",
              "name": "totalStake",
              "type": "uint256"
            },
            {
              "internalType": "uint256",
              "name": "postCount",
              "type": "uint256"
            },
            {
              "internalType": "uint256",
              "name": "paymentRequested",
              "type": "uint256"
            },
            {
              "internalType": "uint256",
              "name": "stakeRequested",
              "type": "uint256"
            },
            {
              "internalType": "enum Structures.PostStatus",
              "name": "status",
              "type": "uint8"
            },
            {
              "internalType": "enum Structures.Tokens",
              "name": "tokenId",
              "type": "uint8"
            },
            {
              "internalType": "string",
              "name": "version",
              "type": "string"
            },
            {
              "internalType": "bytes32",
              "name": "postId",
              "type": "bytes32"
            }
          ],
          "internalType": "struct Structures.Feed",
          "name": "",
          "type": "tuple"
        }
      ],
      "stateMutability": "view",
      "type": "function"
    },
    {
      "inputs": [],
      "name": "getFeeds",
      "outputs": [
        {
          "internalType": "address[]",
          "name": "",
          "type": "address[]"
        }
      ],
      "stateMutability": "view",
      "type": "function"
    },
    {
      "inputs": [],
      "name": "getFeedsInfo",
      "outputs": [
        {
          "components": [
            {
              "internalType": "address",
              "name": "contractAddress",
              "type": "address"
            },
            {
              "internalType": "address",
              "name": "owner",
              "type": "address"
            },
            {
              "internalType": "uint256",
              "name": "sellerStake",
              "type": "uint256"
            },
            {
              "internalType": "uint256",
              "name": "buyerStake",
              "type": "uint256"
            },
            {
              "internalType": "uint256",
              "name": "totalStake",
              "type": "uint256"
            },
            {
              "internalType": "uint256",
              "name": "postCount",
              "type": "uint256"
            },
            {
              "internalType": "uint256",
              "name": "paymentRequested",
              "type": "uint256"
            },
            {
              "internalType": "uint256",
              "name": "stakeRequested",
              "type": "uint256"
            },
            {
              "internalType": "enum Structures.PostStatus",
              "name": "status",
              "type": "uint8"
            },
            {
              "internalType": "enum Structures.Tokens",
              "name": "tokenId",
              "type": "uint8"
            },
            {
              "internalType": "string",
              "name": "version",
              "type": "string"
            },
            {
              "internalType": "bytes32",
              "name": "postId",
              "type": "bytes32"
            }
          ],
          "internalType": "struct Structures.Feed[]",
          "name": "",
          "type": "tuple[]"
        }
      ],
      "stateMutability": "view",
      "type": "function"
    },
    {
      "inputs": [
        {
          "internalType": "address",
          "name": "user",
          "type": "address"
        }
      ],
      "name": "getFeedsInfoOwned",
      "outputs": [
        {
          "components": [
            {
              "internalType": "address",
              "name": "contractAddress",
              "type": "address"
            },
            {
              "internalType": "address",
              "name": "owner",
              "type": "address"
            },
            {
              "internalType": "uint256",
              "name": "sellerStake",
              "type": "uint256"
            },
            {
              "internalType": "uint256",
              "name": "buyerStake",
              "type": "uint256"
            },
            {
              "internalType": "uint256",
              "name": "totalStake",
              "type": "uint256"
            },
            {
              "internalType": "uint256",
              "name": "postCount",
              "type": "uint256"
            },
            {
              "internalType": "uint256",
              "name": "paymentRequested",
              "type": "uint256"
            },
            {
              "internalType": "uint256",
              "name": "stakeRequested",
              "type": "uint256"
            },
            {
              "internalType": "enum Structures.PostStatus",
              "name": "status",
              "type": "uint8"
            },
            {
              "internalType": "enum Structures.Tokens",
              "name": "tokenId",
              "type": "uint8"
            },
            {
              "internalType": "string",
              "name": "version",
              "type": "string"
            },
            {
              "internalType": "bytes32",
              "name": "postId",
              "type": "bytes32"
            }
          ],
          "internalType": "struct Structures.Feed[]",
          "name": "",
          "type": "tuple[]"
        }
      ],
      "stateMutability": "view",
      "type": "function"
    },
    {
      "inputs": [
        {
          "internalType": "address",
          "name": "user",
          "type": "address"
        }
      ],
      "name": "getFeedsOwned",
      "outputs": [
        {
          "internalType": "address[]",
          "name": "",
          "type": "address[]"
        }
      ],
      "stateMutability": "view",
      "type": "function"
    },
    {
      "inputs": [
        {
          "internalType": "uint256",
          "name": "tokenId",
          "type": "uint256"
        }
      ],
      "name": "getRouterFee",
      "outputs": [
        {
          "internalType": "uint24",
          "name": "",
          "type": "uint24"
        }
      ],
      "stateMutability": "view",
      "type": "function"
    },
    {
      "inputs": [],
      "name": "implementation",
      "outputs": [
        {
          "internalType": "address",
          "name": "",
          "type": "address"
        }
      ],
      "stateMutability": "view",
      "type": "function"
    },
    {
      "inputs": [
        {
          "internalType": "address",
          "name": "_proxyCallContract",
          "type": "address"
        },
        {
          "internalType": "address",
          "name": "_usersModuleContract",
          "type": "address"
        },
        {
          "internalType": "address",
          "name": "_treasuryContract",
          "type": "address"
        },
        {
          "internalType": "address",
          "name": "_easContract",
          "type": "address"
        },
        {
          "internalType": "bytes32",
          "name": "_easSchema",
          "type": "bytes32"
        },
        {
          "internalType": "address",
          "name": "_wethToken",
          "type": "address"
        },
        {
          "internalType": "address",
          "name": "_museToken",
          "type": "address"
        },
        {
          "internalType": "address",
          "name": "_daiToken",
          "type": "address"
        },
        {
          "internalType": "address",
          "name": "_router",
          "type": "address"
        }
      ],
      "name": "initialize",
      "outputs": [],
      "stateMutability": "nonpayable",
      "type": "function"
    },
    {
      "inputs": [
        {
          "internalType": "address",
          "name": "contractAddress",
          "type": "address"
        }
      ],
      "name": "isContractCreated",
      "outputs": [
        {
          "internalType": "bool",
          "name": "",
          "type": "bool"
        }
      ],
      "stateMutability": "view",
      "type": "function"
    },
    {
      "inputs": [
        {
          "internalType": "address",
          "name": "newFeed",
          "type": "address"
        }
      ],
      "name": "isFeed",
      "outputs": [
        {
          "internalType": "bool",
          "name": "",
          "type": "bool"
        }
      ],
      "stateMutability": "view",
      "type": "function"
    },
    {
      "inputs": [],
      "name": "major",
      "outputs": [
        {
          "internalType": "uint256",
          "name": "",
          "type": "uint256"
        }
      ],
      "stateMutability": "view",
      "type": "function"
    },
    {
      "inputs": [],
      "name": "minor",
      "outputs": [
        {
          "internalType": "uint256",
          "name": "",
          "type": "uint256"
        }
      ],
      "stateMutability": "view",
      "type": "function"
    },
    {
      "inputs": [],
      "name": "museToken",
      "outputs": [
        {
          "internalType": "address",
          "name": "",
          "type": "address"
        }
      ],
      "stateMutability": "view",
      "type": "function"
    },
    {
      "inputs": [],
      "name": "owner",
      "outputs": [
        {
          "internalType": "address",
          "name": "",
          "type": "address"
        }
      ],
      "stateMutability": "view",
      "type": "function"
    },
    {
      "inputs": [],
      "name": "patch",
      "outputs": [
        {
          "internalType": "uint256",
          "name": "",
          "type": "uint256"
        }
      ],
      "stateMutability": "view",
      "type": "function"
    },
    {
      "inputs": [],
      "name": "proxyCallContract",
      "outputs": [
        {
          "internalType": "contract IProxyCall",
          "name": "",
          "type": "address"
        }
      ],
      "stateMutability": "view",
      "type": "function"
    },
    {
      "inputs": [],
      "name": "renounceOwnership",
      "outputs": [],
      "stateMutability": "nonpayable",
      "type": "function"
    },
    {
      "inputs": [],
      "name": "router",
      "outputs": [
        {
          "internalType": "address",
          "name": "",
          "type": "address"
        }
      ],
      "stateMutability": "view",
      "type": "function"
    },
    {
      "inputs": [
        {
          "internalType": "bool",
          "name": "newBurnEnabled",
          "type": "bool"
        }
      ],
      "name": "setBurnEnabled",
      "outputs": [],
      "stateMutability": "nonpayable",
      "type": "function"
    },
    {
      "inputs": [
        {
          "internalType": "uint256",
          "name": "tokenId",
          "type": "uint256"
        },
        {
          "internalType": "uint24",
          "name": "fee",
          "type": "uint24"
        }
      ],
      "name": "setRouterFee",
      "outputs": [],
      "stateMutability": "nonpayable",
      "type": "function"
    },
    {
      "inputs": [
        {
          "internalType": "address",
          "name": "newOwner",
          "type": "address"
        }
      ],
      "name": "transferOwnership",
      "outputs": [],
      "stateMutability": "nonpayable",
      "type": "function"
    },
    {
      "inputs": [],
      "name": "treasuryContract",
      "outputs": [
        {
          "internalType": "address",
          "name": "",
          "type": "address"
        }
      ],
      "stateMutability": "view",
      "type": "function"
    },
    {
      "inputs": [],
      "name": "wethToken",
      "outputs": [
        {
          "internalType": "address",
          "name": "",
          "type": "address"
        }
      ],
      "stateMutability": "view",
      "type": "function"
    }
  ],
  "bytecode": "0x6080806040523461001657611d37908161001c8239f35b600080fdfe608060408181526004918236101561001657600080fd5b600092833560e01c918263067bd3b4146111315750816318da0011146111085781633ec4f23d146110e957816349975235146110ca5781634b57b0be146110a15781635978e9b0146110745781635c60da1b1461104b5781635dc96d16146110275781636a3f9c3014610fde578163715018a614610f815781637b2c835f14610f4a5781637fe955d414610ed057816380ca11fc14610ea75781638da5cb5b14610e7e5781639496d7f114610db2578163a17bb19914610d88578163ad86132414610d0e578163b19bcb5814610b07578163b2a2e9ca14610a89578163bb7e364814610a60578163bb834b0e14610a41578163be22f54614610a18578163ca5b4e5c1461064b578163cd77b52c14610622578163cedf3ba214610327578163d024dda81461036f578163d570a66d1461032c578163e58fdd0414610327578163e86ef35314610297578163f2fde38b1461020157508063f77800e5146101d9578063f86d0b38146101bb5763f887ea401461019057600080fd5b346101b757816003193601126101b75760715490516001600160a01b039091168152602090f35b5080fd5b50346101b757816003193601126101b7576020906076549051908152f35b50346101b757816003193601126101b757606e5490516001600160a01b039091168152602090f35b9050346102935760203660031901126102935761021c611191565b916102256113b0565b6001600160a01b03831615610241578361023e84611408565b80f35b906020608492519162461bcd60e51b8352820152602660248201527f4f776e61626c653a206e6577206f776e657220697320746865207a65726f206160448201526564647265737360d01b6064820152fd5b8280fd5b5050346101b757816003193601126101b75780518092606854808352602080930192606883527fa2153420d844928b4421650203c77babc8b33d7f2e7b450e2966db0c2209775392905b8282106103105761030c86610301896102fc818a03826114b1565b611c65565b905191829182611312565b0390f35b8354855293840193600193840193909101906102e1565b611374565b5050346101b75760203660031901126101b75761030c9061035c61034e611191565b61035661166c565b50611791565b905191829160208352602083019061123d565b905034610293576101203660031901126102935761038b611191565b6103936111ac565b9061039c6111c2565b6001600160a01b0391906064358381169081900361061e576103bc6111d8565b6103c46111ee565b906103cd611204565b92610104359487861680960361061a578b549960ff8b60081c16159a8b809c61060d575b80156105f6575b1561059c579061044260ff8f8e94821995600187831617835561058b575b5061042f82825460081c1661042a81611451565b611451565b61043833611408565b5460081c16611451565b61044b33611408565b6104536113b0565b33156105395750928895949286809593819461046e33611408565b6104778c6116d9565b60745416607455816bffffffffffffffffffffffff60a01b9d168d606b541617606b55168b606a541617606a558a606c541617606c55608435606d55168860705416176070551686606e541617606e551684606f541617606f55836071541617607155168160655416176065553390606754161760675560026076558260775582607855610503575080f35b60207f7f26b83ff96e1f2b6a682f133852f6798a09c465da95921460cefb38474024989161ff001984541684555160018152a180f35b60849060208e519162461bcd60e51b8352820152602660248201527f4f776e61626c653a206e6577206f776e657220697320746865207a65726f206160448201526564647265737360d01b6064820152fd5b61ffff191661010117815538610416565b8c5162461bcd60e51b8152602081840152602e60248201527f496e697469616c697a61626c653a20636f6e747261637420697320616c72656160448201526d191e481a5b9a5d1a585b1a5e995960921b6064820152608490fd5b50303b1580156103f85750600160ff8216146103f8565b50600160ff8216106103f1565b8b80fd5b8780fd5b5050346101b757816003193601126101b757606c5490516001600160a01b039091168152602090f35b8383816003193601126101b75780516bffffffffffffffffffffffff193360601b16602080830191825242603480850191909152835294601f1993929091906106956054826114b1565b5190206066549360018201809211610a055783513360601b6bffffffffffffffffffffffff191688820190815260148101939093526e5af43d82803e903d91602b57fd5bf392916106f1908260348501039081018352826114b1565b519020608885901c62ffffff16763d602d80600a3d3981f3363d3d373d3d3d363d7300000017865260789490941b6effffffffffffffffffffffffffffff19161785526001600160a01b039283906037600987f5169283156109c357606b5460765460775460785486516339466de560e11b8152338782019081529486166001600160a01b031660208601523060408601526060850193909352608084019190915260a08301529087908290819060c001038189895af18015610937576109a6575b5060248682606b541685519283809263122643f360e21b825233888301525afa908115610937578691610979575b501561094157606a541682516391792d5b60e01b815286818481855afa908115610937578691610906575b5034106108d357848080809334905af13d156108ce573d61082c81611524565b90610839855192836114b1565b815285873d92013e5b1561089f57507fb658664a46408e6670a38ec7ea8b7614c9e2916184dff2fad99d3a7a3491ca7d8291610876607554611540565b6075556108828361154f565b5033855260738652610896838287206115e7565b50519380a28152f35b84606492519162461bcd60e51b8352820152600b60248201526a10d0531317d1905253115160aa1b6044820152fd5b610842565b5084606492519162461bcd60e51b8352820152600e60248201526d4e4f545f454e4f5547485f46454560901b6044820152fd5b90508681813d8311610930575b61091d81836114b1565b8101031261092c57518761080c565b8580fd5b503d610913565b84513d88823e3d90fd5b5084606492519162461bcd60e51b835282015260136024820152721d5cd95c88191bd95cc81b9bdd08195e1a5cdd606a1b6044820152fd5b6109999150873d891161099f575b61099181836114b1565b81019061150c565b876107e1565b503d610987565b6109bc90873d891161099f5761099181836114b1565b50866107b3565b5084606492519162461bcd60e51b8352820152601760248201527f455243313136373a2063726561746532206661696c65640000000000000000006044820152fd5b634e487b7160e01b865260118352602486fd5b5050346101b757816003193601126101b757606f5490516001600160a01b039091168152602090f35b5050346101b757816003193601126101b7576020906077549051908152f35b5050346101b757816003193601126101b75760655490516001600160a01b039091168152602090f35b5050346101b75760209081600319360112610293576001600160a01b03610aae611191565b168352607382528083209281518093808654928381520195835280832092905b828210610af05761030c8686610ae6828b03836114b1565b519182918261114d565b835487529586019560019384019390910190610ace565b90503461029357608036600319011261029357610b22611191565b602435906044359260643594610b366113b0565b823b15610ccb57606680546001600160a01b0319166001600160a01b03948516908117909155606b5460765460775460785485516339466de560e11b815233888201908152949098166020858101919091523060408601526060850193909352608084019190915260a0830152919491908290819060c00103818b885af1908115610cc157906001918991610ca3575b50151503610c605750612710808402908482041484151715610c4d57606485029185830460641486151715610c3a5750610c04610c099287926114e9565b6114e9565b907f5678af47993f4856157dd819bee3183b87c10ee1b3575a5128fe25896c073a288680a360765560775560785580f35b634e487b7160e01b885260119052602487fd5b634e487b7160e01b875260118252602487fd5b906020606492519162461bcd60e51b8352820152601960248201527f4661696c656420746f20696e697469616c697a652066656564000000000000006044820152fd5b610cbb915060203d811161099f5761099181836114b1565b38610bc6565b82513d8a823e3d90fd5b906020606492519162461bcd60e51b8352820152602060248201527f696d706c656d656e746174696f6e206973206e6f74206120636f6e74726163746044820152fd5b5050346101b75760209182600319360112610d85576001600160a01b03610d33611191565b168152607383528181209082518094808454928381520193835280832092905b828210610d6e5761030c86610301896102fc818a03826114b1565b835485529384019360019384019390910190610d53565b80fd5b8334610d85576020366003190112610d855761023e610da5611191565b610dad6113b0565b6116d9565b8334610d8557610100366003190112610d8557610dcd611191565b610dd56111ac565b610ddd6111c2565b6001600160a01b039190608435838116919082900361092c57838092610e016111d8565b9082610e0b6111ee565b9481610e15611204565b98610e1e6113b0565b816bffffffffffffffffffffffff60a01b9c168c606a541617606a55168a606b541617606b551688606c541617606c55606435606d558760705416176070551685606e541617606e551683606f541617606f551690607154161760715580f35b5050346101b757816003193601126101b75760335490516001600160a01b039091168152602090f35b5050346101b757816003193601126101b75760675490516001600160a01b039091168152602090f35b828434610d855780600319360112610d85578151918291606854808552602080950194606883527fa2153420d844928b4421650203c77babc8b33d7f2e7b450e2966db0c2209775392905b828210610f335761030c8686610ae6828b03836114b1565b835487529586019560019384019390910190610f1b565b8390346101b75760203660031901126101b757358015158091036101b757610f706113b0565b60ff80196074541691161760745580f35b8334610d855780600319360112610d8557610f9a6113b0565b603380546001600160a01b0319811690915581906001600160a01b03167f8be0079c531659141344cd1fd0a4f28419497f9722a3daafe3b4186f6b6457e08280a380f35b919050346102935780600319360112610293576024359162ffffff83168093036110235761100a6113b0565b358352607260205282209062ffffff1982541617905580f35b8380fd5b5050346101b757816003193601126101b75760209060ff6074541690519015158152f35b5050346101b757816003193601126101b75760665490516001600160a01b039091168152602090f35b905034610293576020366003190112610293578160209362ffffff92358152607285522054169051908152f35b5050346101b757816003193601126101b75760705490516001600160a01b039091168152602090f35b5050346101b757816003193601126101b7576020906078549051908152f35b5050346101b757816003193601126101b757602090606d549051908152f35b5050346101b757816003193601126101b757606a5490516001600160a01b039091168152602090f35b8490346101b757816003193601126101b7576020906075548152f35b6020908160408183019282815285518094520193019160005b828110611174575050505090565b83516001600160a01b031685529381019392810192600101611166565b600435906001600160a01b03821682036111a757565b600080fd5b602435906001600160a01b03821682036111a757565b604435906001600160a01b03821682036111a757565b60a435906001600160a01b03821682036111a757565b60c435906001600160a01b03821682036111a757565b60e435906001600160a01b03821682036111a757565b60005b83811061122d5750506000910152565b818101518382015260200161121d565b9060018060a01b03808351168252602083015116602082015260408201516040820152606082015160608201526080820151608082015260a082015160a082015260c082015160c082015260e082015160e0820152610100808301519060088210156112fc57820152610120808301519060038210156112fc5782015261014080830151926101808092840152835180928401526112e5826101a0956020878701910161121a565b6101609081015190830152601f01601f1916010190565b634e487b7160e01b600052602160045260246000fd5b602080820190808352835180925260408301928160408460051b8301019501936000915b8483106113465750505050505090565b9091929394958480611364600193603f198682030187528a5161123d565b9801930193019194939290611336565b346111a75760203660031901126111a7576001600160a01b03611395611191565b16600052606960205260206040600020541515604051908152f35b6033546001600160a01b031633036113c457565b606460405162461bcd60e51b815260206004820152602060248201527f4f776e61626c653a2063616c6c6572206973206e6f7420746865206f776e65726044820152fd5b603380546001600160a01b039283166001600160a01b0319821681179092559091167f8be0079c531659141344cd1fd0a4f28419497f9722a3daafe3b4186f6b6457e0600080a3565b1561145857565b60405162461bcd60e51b815260206004820152602b60248201527f496e697469616c697a61626c653a20636f6e7472616374206973206e6f74206960448201526a6e697469616c697a696e6760a81b6064820152608490fd5b90601f8019910116810190811067ffffffffffffffff8211176114d357604052565b634e487b7160e01b600052604160045260246000fd5b919082018092116114f657565b634e487b7160e01b600052601160045260246000fd5b908160209103126111a7575180151581036111a75790565b67ffffffffffffffff81116114d357601f01601f191660200190565b60001981146114f65760010190565b6000818152606960205260408120546115e257606854600160401b8110156115ce5760018101806068558110156115ba5790826040927fa2153420d844928b4421650203c77babc8b33d7f2e7b450e2966db0c22097753015560685492815260696020522055600190565b634e487b7160e01b82526032600452602482fd5b634e487b7160e01b82526041600452602482fd5b905090565b9190600183016000908282528060205260408220541560001461166657845494600160401b861015611652576001860180825586101561163e57836040949596828552602085200155549382526020522055600190565b634e487b7160e01b83526032600452602483fd5b634e487b7160e01b83526041600452602483fd5b50925050565b60405190610180820182811067ffffffffffffffff8211176114d357604052816101606000918281528260208201528260408201528260608201528260808201528260a08201528260c08201528260e0820152826101008201528261012082015260606101408201520152565b803b1561172657606580546001600160a01b0319166001600160a01b039290921691821790557f7213e3d637e4ef4968f947d5f602103307355f708bfd5bfce9d87da7c78f8521600080a2565b60405162461bcd60e51b815260206004820152603a60248201527f464e44436f6c6c656374696f6e466163746f72793a2050726f78792063616c6c60448201527f2061646472657373206973206e6f74206120636f6e74726163740000000000006064820152608490fd5b61179961166c565b506117a261166c565b6001600160a01b0391821680825260408051638da5cb5b60e01b81529293600493919260209290919083818781865afa908115611c1857600091611be2575b5016858301528251635c63ed6960e01b815282818681855afa908115611a4857600091611bb5575b50858401528251634c38d87760e01b815282818681855afa908115611a4857600091611b88575b506060860152825163048bf3bb60e11b815282818681855afa908115611a4857600091611b5b575b5060808601528251630bc8361760e11b815282818681855afa908115611a4857600091611b2e575b5060a0860152825163d24e0c8760e01b815282818681855afa908115611a4857600091611b01575b5060c0860152825163faeb5e1760e01b815282818681855afa908115611a4857600091611ad4575b5060e086015282516302734eab60e51b815282818681855afa908115611a4857600091611a9e575b506008811015611a5357610100860152825163010a38f560e01b815282818681855afa908115611a4857600091611a68575b506003811015611a5357610120860152825163054fd4d560e41b81526000818681855afa908115611a4857908392916000916119cc575b5061014087015283516332946a8760e01b815294859182905afa9182156119c25750600091611996575b506101608301525090565b82813d83116119bb575b6119aa81836114b1565b81010312610d85575051803861198b565b503d6119a0565b513d6000823e3d90fd5b9192503d8082843e6119de81846114b1565b82019184818403126101b75780519067ffffffffffffffff8211610293570182601f820112156101b757805191611a1483611524565b93611a21885195866114b1565b838552868484010111610d8557508291611a4291868080979601910161121a565b38611961565b84513d6000823e3d90fd5b602185634e487b7160e01b6000525260246000fd5b8381813d8311611a97575b611a7d81836114b1565b810103126101b75751906003821015610d8557503861192a565b503d611a73565b8381813d8311611acd575b611ab381836114b1565b810103126101b75751906008821015610d855750386118f8565b503d611aa9565b908382813d8311611afa575b611aea81836114b1565b81010312610d85575051386118d0565b503d611ae0565b908382813d8311611b27575b611b1781836114b1565b81010312610d85575051386118a8565b503d611b0d565b908382813d8311611b54575b611b4481836114b1565b81010312610d8557505138611880565b503d611b3a565b908382813d8311611b81575b611b7181836114b1565b81010312610d8557505138611858565b503d611b67565b908382813d8311611bae575b611b9e81836114b1565b81010312610d8557505138611830565b503d611b94565b908382813d8311611bdb575b611bcb81836114b1565b81010312610d8557505138611809565b503d611bc1565b8481813d8311611c11575b611bf781836114b1565b810103126101b75751908282168203610d855750386117e1565b503d611bed565b85513d6000823e3d90fd5b67ffffffffffffffff81116114d35760051b60200190565b8051821015611c4f5760209160051b010190565b634e487b7160e01b600052603260045260246000fd5b8051611c7081611c23565b91611c7e60405193846114b1565b818352601f19611c8d83611c23565b0160005b818110611cea57505060005b828110611caa5750505090565b611ce590611cca6001600160a01b03611cc38386611c3b565b5116611791565b611cd48287611c3b565b52611cdf8186611c3b565b50611540565b611c9d565b602090611cf561166c565b82828801015201611c9156fea264697066735822122070fec04f661af5c349cf7c9856fb4c5851f6fd22472a4285d3fdde394815845064736f6c63430008130033",
  "linkReferences": {},
  "deployedLinkReferences": {}
}