{
  "_format": "hh-sol-artifact-1",
  "contractName": "MecenateFeedFactory",
  "sourceName": "contracts/factories/MecenateFeedFactory.sol",
  "abi": [
    {
      "anonymous": false,
      "inputs": [
        {
          "indexed": true,
          "internalType": "address",
          "name": "addr",
          "type": "address"
        }
      ],
      "name": "FeedCreated",
      "type": "event"
    },
    {
      "anonymous": false,
      "inputs": [
        {
          "indexed": true,
          "internalType": "address",
          "name": "previousOwner",
          "type": "address"
        },
        {
          "indexed": true,
          "internalType": "address",
          "name": "newOwner",
          "type": "address"
        }
      ],
      "name": "OwnershipTransferred",
      "type": "event"
    },
    {
      "inputs": [],
      "name": "buildFeed",
      "outputs": [
        {
          "internalType": "address",
          "name": "",
          "type": "address"
        }
      ],
      "stateMutability": "payable",
      "type": "function"
    },
    {
      "inputs": [],
      "name": "burnEnabled",
      "outputs": [
        {
          "internalType": "bool",
          "name": "",
          "type": "bool"
        }
      ],
      "stateMutability": "view",
      "type": "function"
    },
    {
      "inputs": [
        {
          "internalType": "address",
          "name": "treasury",
          "type": "address"
        },
        {
          "internalType": "address",
          "name": "usersModule",
          "type": "address"
        },
        {
          "internalType": "address",
          "name": "easContract",
          "type": "address"
        },
        {
          "internalType": "bytes32",
          "name": "easSchema",
          "type": "bytes32"
        },
        {
          "internalType": "address",
          "name": "wethTokenAddr",
          "type": "address"
        },
        {
          "internalType": "address",
          "name": "museTokenAddr",
          "type": "address"
        },
        {
          "internalType": "address",
          "name": "daiTokenAddr",
          "type": "address"
        },
        {
          "internalType": "address",
          "name": "routerAddr",
          "type": "address"
        }
      ],
      "name": "changeMultipleSettings",
      "outputs": [],
      "stateMutability": "nonpayable",
      "type": "function"
    },
    {
      "inputs": [],
      "name": "contractCounter",
      "outputs": [
        {
          "internalType": "uint256",
          "name": "",
          "type": "uint256"
        }
      ],
      "stateMutability": "view",
      "type": "function"
    },
    {
      "inputs": [],
      "name": "daiToken",
      "outputs": [
        {
          "internalType": "address",
          "name": "",
          "type": "address"
        }
      ],
      "stateMutability": "view",
      "type": "function"
    },
    {
      "inputs": [],
      "name": "easContract",
      "outputs": [
        {
          "internalType": "address",
          "name": "",
          "type": "address"
        }
      ],
      "stateMutability": "view",
      "type": "function"
    },
    {
      "inputs": [],
      "name": "easSchema",
      "outputs": [
        {
          "internalType": "bytes32",
          "name": "",
          "type": "bytes32"
        }
      ],
      "stateMutability": "view",
      "type": "function"
    },
    {
      "inputs": [
        {
          "internalType": "address",
          "name": "user",
          "type": "address"
        }
      ],
      "name": "getFeedInfo",
      "outputs": [
        {
          "components": [
            {
              "internalType": "address",
              "name": "contractAddress",
              "type": "address"
            },
            {
              "internalType": "address",
              "name": "owner",
              "type": "address"
            },
            {
              "internalType": "uint256",
              "name": "sellerStake",
              "type": "uint256"
            },
            {
              "internalType": "uint256",
              "name": "buyerStake",
              "type": "uint256"
            },
            {
              "internalType": "uint256",
              "name": "totalStake",
              "type": "uint256"
            },
            {
              "internalType": "uint256",
              "name": "postCount",
              "type": "uint256"
            },
            {
              "internalType": "uint256",
              "name": "paymentRequested",
              "type": "uint256"
            },
            {
              "internalType": "uint256",
              "name": "stakeRequested",
              "type": "uint256"
            },
            {
              "internalType": "enum Structures.PostStatus",
              "name": "status",
              "type": "uint8"
            },
            {
              "internalType": "enum Structures.Tokens",
              "name": "tokenId",
              "type": "uint8"
            },
            {
              "internalType": "string",
              "name": "version",
              "type": "string"
            }
          ],
          "internalType": "struct Structures.Feed",
          "name": "",
          "type": "tuple"
        }
      ],
      "stateMutability": "view",
      "type": "function"
    },
    {
      "inputs": [],
      "name": "getFeeds",
      "outputs": [
        {
          "internalType": "address[]",
          "name": "",
          "type": "address[]"
        }
      ],
      "stateMutability": "view",
      "type": "function"
    },
    {
      "inputs": [],
      "name": "getFeedsInfo",
      "outputs": [
        {
          "components": [
            {
              "internalType": "address",
              "name": "contractAddress",
              "type": "address"
            },
            {
              "internalType": "address",
              "name": "owner",
              "type": "address"
            },
            {
              "internalType": "uint256",
              "name": "sellerStake",
              "type": "uint256"
            },
            {
              "internalType": "uint256",
              "name": "buyerStake",
              "type": "uint256"
            },
            {
              "internalType": "uint256",
              "name": "totalStake",
              "type": "uint256"
            },
            {
              "internalType": "uint256",
              "name": "postCount",
              "type": "uint256"
            },
            {
              "internalType": "uint256",
              "name": "paymentRequested",
              "type": "uint256"
            },
            {
              "internalType": "uint256",
              "name": "stakeRequested",
              "type": "uint256"
            },
            {
              "internalType": "enum Structures.PostStatus",
              "name": "status",
              "type": "uint8"
            },
            {
              "internalType": "enum Structures.Tokens",
              "name": "tokenId",
              "type": "uint8"
            },
            {
              "internalType": "string",
              "name": "version",
              "type": "string"
            }
          ],
          "internalType": "struct Structures.Feed[]",
          "name": "",
          "type": "tuple[]"
        }
      ],
      "stateMutability": "view",
      "type": "function"
    },
    {
      "inputs": [
        {
          "internalType": "address",
          "name": "user",
          "type": "address"
        }
      ],
      "name": "getFeedsInfoOwned",
      "outputs": [
        {
          "components": [
            {
              "internalType": "address",
              "name": "contractAddress",
              "type": "address"
            },
            {
              "internalType": "address",
              "name": "owner",
              "type": "address"
            },
            {
              "internalType": "uint256",
              "name": "sellerStake",
              "type": "uint256"
            },
            {
              "internalType": "uint256",
              "name": "buyerStake",
              "type": "uint256"
            },
            {
              "internalType": "uint256",
              "name": "totalStake",
              "type": "uint256"
            },
            {
              "internalType": "uint256",
              "name": "postCount",
              "type": "uint256"
            },
            {
              "internalType": "uint256",
              "name": "paymentRequested",
              "type": "uint256"
            },
            {
              "internalType": "uint256",
              "name": "stakeRequested",
              "type": "uint256"
            },
            {
              "internalType": "enum Structures.PostStatus",
              "name": "status",
              "type": "uint8"
            },
            {
              "internalType": "enum Structures.Tokens",
              "name": "tokenId",
              "type": "uint8"
            },
            {
              "internalType": "string",
              "name": "version",
              "type": "string"
            }
          ],
          "internalType": "struct Structures.Feed[]",
          "name": "",
          "type": "tuple[]"
        }
      ],
      "stateMutability": "view",
      "type": "function"
    },
    {
      "inputs": [
        {
          "internalType": "address",
          "name": "user",
          "type": "address"
        }
      ],
      "name": "getFeedsOwned",
      "outputs": [
        {
          "internalType": "address[]",
          "name": "",
          "type": "address[]"
        }
      ],
      "stateMutability": "view",
      "type": "function"
    },
    {
      "inputs": [
        {
          "internalType": "uint8",
          "name": "tokenId",
          "type": "uint8"
        }
      ],
      "name": "getRouterFee",
      "outputs": [
        {
          "internalType": "uint24",
          "name": "",
          "type": "uint24"
        }
      ],
      "stateMutability": "view",
      "type": "function"
    },
    {
      "inputs": [
        {
          "internalType": "address",
          "name": "contractAddress",
          "type": "address"
        }
      ],
      "name": "isContractCreated",
      "outputs": [
        {
          "internalType": "bool",
          "name": "",
          "type": "bool"
        }
      ],
      "stateMutability": "view",
      "type": "function"
    },
    {
      "inputs": [
        {
          "internalType": "address",
          "name": "newFeed",
          "type": "address"
        }
      ],
      "name": "isFeed",
      "outputs": [
        {
          "internalType": "bool",
          "name": "",
          "type": "bool"
        }
      ],
      "stateMutability": "view",
      "type": "function"
    },
    {
      "inputs": [],
      "name": "museToken",
      "outputs": [
        {
          "internalType": "address",
          "name": "",
          "type": "address"
        }
      ],
      "stateMutability": "view",
      "type": "function"
    },
    {
      "inputs": [],
      "name": "owner",
      "outputs": [
        {
          "internalType": "address",
          "name": "",
          "type": "address"
        }
      ],
      "stateMutability": "view",
      "type": "function"
    },
    {
      "inputs": [],
      "name": "renounceOwnership",
      "outputs": [],
      "stateMutability": "nonpayable",
      "type": "function"
    },
    {
      "inputs": [],
      "name": "router",
      "outputs": [
        {
          "internalType": "address",
          "name": "",
          "type": "address"
        }
      ],
      "stateMutability": "view",
      "type": "function"
    },
    {
      "inputs": [
        {
          "internalType": "bool",
          "name": "newBurnEnabled",
          "type": "bool"
        }
      ],
      "name": "setBurnEnabled",
      "outputs": [],
      "stateMutability": "nonpayable",
      "type": "function"
    },
    {
      "inputs": [
        {
          "internalType": "bytes",
          "name": "newByteCode",
          "type": "bytes"
        },
        {
          "internalType": "string",
          "name": "newVersion",
          "type": "string"
        }
      ],
      "name": "setFeedByteCode",
      "outputs": [],
      "stateMutability": "nonpayable",
      "type": "function"
    },
    {
      "inputs": [
        {
          "internalType": "uint8",
          "name": "tokenId",
          "type": "uint8"
        },
        {
          "internalType": "uint24",
          "name": "fee",
          "type": "uint24"
        }
      ],
      "name": "setRouterFee",
      "outputs": [],
      "stateMutability": "nonpayable",
      "type": "function"
    },
    {
      "inputs": [
        {
          "internalType": "address",
          "name": "newOwner",
          "type": "address"
        }
      ],
      "name": "transferOwnership",
      "outputs": [],
      "stateMutability": "nonpayable",
      "type": "function"
    },
    {
      "inputs": [],
      "name": "treasuryContract",
      "outputs": [
        {
          "internalType": "address",
          "name": "",
          "type": "address"
        }
      ],
      "stateMutability": "view",
      "type": "function"
    },
    {
      "inputs": [],
      "name": "version",
      "outputs": [
        {
          "internalType": "string",
          "name": "",
          "type": "string"
        }
      ],
      "stateMutability": "view",
      "type": "function"
    },
    {
      "inputs": [],
      "name": "wethToken",
      "outputs": [
        {
          "internalType": "address",
          "name": "",
          "type": "address"
        }
      ],
      "stateMutability": "view",
      "type": "function"
    }
  ],
  "bytecode": "0x60808060405234620000e85760008054336001600160a01b0319821681178355906001600160a01b03167f8be0079c531659141344cd1fd0a4f28419497f9722a3daafe3b4186f6b6457e08380a3600f546001918282811c92168015620000dd575b6020831014620000c957601f82116200009c575b600c65076322e302e360d41b01600f556010805460ff191690556122048481620000ee8239f35b600f8152601f60208220920160051c8201915b828110620000be575062000075565b8181558301620000af565b634e487b7160e01b81526022600452602490fd5b91607f169162000061565b600080fdfe6080604052600436101561001257600080fd5b60003560e01c8063067bd3b4146101b257806318da0011146101ad5780633ec4f23d146101a85780634b57b0be146101a357806354a12c9b1461019e57806354fd4d50146101995780635dc96d1614610194578063715018a61461018f5780637b2c835f1461018a5780637fe955d4146101855780638da5cb5b146101805780639496d7f11461017b578063ad86132414610176578063b2a2e9ca14610171578063be22f5461461016c578063ca5b4e5c14610167578063cd77b52c14610162578063cedf3ba214610153578063d223a5641461015d578063d570a66d14610158578063e58fdd0414610153578063e86ef3531461014e578063e9318b4714610149578063f2fde38b14610144578063f77800e51461013f5763f887ea401461013a57600080fd5b6111c9565b611195565b61107a565b61100a565b610f8d565b610eaf565b610f48565b610f0f565b610e7b565b610bcd565b610b99565b610b10565b610a74565b6107b6565b610764565b6106de565b610634565b6105ab565b610588565b610485565b610341565b610227565b610209565b6101d5565b346101d05760006003193601126101d0576020601154604051908152f35b600080fd5b346101d05760006003193601126101d057602073ffffffffffffffffffffffffffffffffffffffff60035416604051908152f35b346101d05760006003193601126101d0576020600654604051908152f35b346101d05760006003193601126101d057602073ffffffffffffffffffffffffffffffffffffffff60095416604051908152f35b7f4e487b7100000000000000000000000000000000000000000000000000000000600052604160045260246000fd5b90601f7fffffffffffffffffffffffffffffffffffffffffffffffffffffffffffffffe0910116810190811067ffffffffffffffff8211176102cb57604052565b61025b565b67ffffffffffffffff81116102cb57601f017fffffffffffffffffffffffffffffffffffffffffffffffffffffffffffffffe01660200190565b929192610316826102d0565b91610324604051938461028a565b8294818452818301116101d0578281602093846000960137010152565b346101d05760406003193601126101d05767ffffffffffffffff6004358181116101d057366023820112156101d05761038490369060248160040135910161030a565b6024359182116101d057366023830112156101d0576103b06103b692369060248160040135910161030a565b9061127c565b005b90600182811c92168015610401575b60208310146103d257565b7f4e487b7100000000000000000000000000000000000000000000000000000000600052602260045260246000fd5b91607f16916103c7565b60005b83811061041e5750506000910152565b818101518382015260200161040e565b907fffffffffffffffffffffffffffffffffffffffffffffffffffffffffffffffe0601f60209361046a8151809281875287808801910161040b565b0116010190565b90602061048292818152019061042e565b90565b346101d057600080600319360112610585576040519080600f546104a8816103b8565b8085529160019180831690811561053d57506001146104e2575b6104de856104d28187038261028a565b60405191829182610471565b0390f35b9250600f83527f8d1108e10bcb7c27dddfc02ed9d693a074039d026cf4ea4240b40f7d581ac8025b8284106105255750505081016020016104d2826104de6104c2565b8054602085870181019190915290930192810161050a565b8695506104de969350602092506104d29491507fffffffffffffffffffffffffffffffffffffffffffffffffffffffffffffff001682840152151560051b82010192936104c2565b80fd5b346101d05760006003193601126101d057602060ff601054166040519015158152f35b346101d057600080600319360112610585576105c56111fd565b8073ffffffffffffffffffffffffffffffffffffffff81547fffffffffffffffffffffffff000000000000000000000000000000000000000081168355167f8be0079c531659141344cd1fd0a4f28419497f9722a3daafe3b4186f6b6457e08280a380f35b801515036101d057565b346101d05760206003193601126101d0576004356106518161062a565b6106596111fd565b60ff7fffffffffffffffffffffffffffffffffffffffffffffffffffffffffffffff00601054169115151617601055600080f35b6020908160408183019282815285518094520193019160005b8281106106b4575050505090565b835173ffffffffffffffffffffffffffffffffffffffff16855293810193928101926001016106a6565b346101d05760006003193601126101d05760405180600191825492838252602080920193816000527fb10e2d527612073b26eecdfd717e6a320cf44b4afac2b0732d9fcbe2b7fa0cf6926000905b82821061074f576104de86610743818a038261028a565b6040519182918261068d565b8454875295860195938301939083019061072c565b346101d05760006003193601126101d057602073ffffffffffffffffffffffffffffffffffffffff60005416604051908152f35b73ffffffffffffffffffffffffffffffffffffffff8116036101d057565b346101d0576101006003193601126101d0576103b66004356107d781610798565b602435906107e482610798565b6044356107f081610798565b608435906107fd82610798565b60a4359061080a82610798565b60c4359161081783610798565b60e4359561082487610798565b61082c6111fd565b73ffffffffffffffffffffffffffffffffffffffff94858094818094817fffffffffffffffffffffffff00000000000000000000000000000000000000009b168b6003541617600355168960045416176004551687600554161760055560643560065516856009541617600955168360075416176007551690600854161760085573ffffffffffffffffffffffffffffffffffffffff167fffffffffffffffffffffffff0000000000000000000000000000000000000000600a541617600a55565b7f4e487b7100000000000000000000000000000000000000000000000000000000600052602160045260246000fd5b90600882101561092a5752565b6108ee565b90600382101561092a5752565b805173ffffffffffffffffffffffffffffffffffffffff168252610482919060208181015173ffffffffffffffffffffffffffffffffffffffff169083015260408101516040830152606081015160608301526080810151608083015260a081015160a083015260c081015160c083015260e081015160e08301526109ca610100808301519084019061091d565b6109dd610120808301519084019061092f565b61014080910151916101608092820152019061042e565b602080820190808352835180925260408301928160408460051b8301019501936000915b848310610a285750505050505090565b9091929394958480610a64837fffffffffffffffffffffffffffffffffffffffffffffffffffffffffffffffc086600196030187528a5161093c565b9801930193019194939290610a18565b346101d0576020806003193601126101d05773ffffffffffffffffffffffffffffffffffffffff600435610aa781610798565b16600052600d81526040600020604051918281835491828152019260005281600020916000905b828210610af9576104de610aed87610ae88189038261028a565b612107565b604051918291826109f4565b835485529384019360019384019390910190610ace565b346101d0576020806003193601126101d05773ffffffffffffffffffffffffffffffffffffffff600435610b4381610798565b16600052600d8152604060002090604051908181845491828152019360005281600020916000905b828210610b82576104de856107438189038261028a565b835486529485019460019384019390910190610b6b565b346101d05760006003193601126101d057602073ffffffffffffffffffffffffffffffffffffffff60085416604051908152f35b6000806003193601126105855760045473ffffffffffffffffffffffffffffffffffffffff1660405180610c06308433602085016115eb565b03610c377fffffffffffffffffffffffffffffffffffffffffffffffffffffffffffffffe09182810184528361028a565b6040517f48990fcc000000000000000000000000000000000000000000000000000000008152336004820152906020828060248101038173ffffffffffffffffffffffffffffffffffffffff8098165afa908115610e7657610ca7610d5292610d46948891610e48575b5061170e565b610cba610cb2611b58565b341015611773565b610d108680808034610d00610ce7610ce760035473ffffffffffffffffffffffffffffffffffffffff1690565b73ffffffffffffffffffffffffffffffffffffffff1690565b5af1610d0a6117d8565b50611808565b610d23610d1e60115461186d565b601155565b610d2b6118c9565b93604051938491610d406020840180986119a3565b906119a3565b0390810183528261028a565b519083f090813b15610e4457816104de917fb658664a46408e6670a38ec7ea8b7614c9e2916184dff2fad99d3a7a3491ca7d949316610d9081611a09565b50610dc482610dbf3373ffffffffffffffffffffffffffffffffffffffff16600052600d602052604060002090565b6119ba565b50610e1d610df28373ffffffffffffffffffffffffffffffffffffffff16600052600e602052604060002090565b60017fffffffffffffffffffffffffffffffffffffffffffffffffffffffffffffff00825416179055565b60405194848695a273ffffffffffffffffffffffffffffffffffffffff1682526020820190565b8280fd5b610e69915060203d8111610e6f575b610e61818361028a565b8101906116ed565b38610ca1565b503d610e57565b611702565b346101d05760006003193601126101d057602073ffffffffffffffffffffffffffffffffffffffff60055416604051908152f35b346101d05760206003193601126101d05773ffffffffffffffffffffffffffffffffffffffff600435610ee181610798565b16600052600e602052602060ff604060002054166040519015158152f35b6004359060ff821682036101d057565b346101d05760206003193601126101d05760ff610f2a610eff565b16600052600c602052602062ffffff60406000205416604051908152f35b346101d05760206003193601126101d0576104de610f79600435610f6b81610798565b610f73611ae5565b50611c97565b60405191829160208352602083019061093c565b346101d05760006003193601126101d05760405180600190815491828252602080920192816000527fb10e2d527612073b26eecdfd717e6a320cf44b4afac2b0732d9fcbe2b7fa0cf6926000905b828210610ff5576104de610aed88610ae8818a038261028a565b84548652948501949383019390830190610fdb565b346101d05760406003193601126101d057611023610eff565b6024359062ffffff82168092036101d05760ff9061103f6111fd565b16600052600c6020526040600020907fffffffffffffffffffffffffffffffffffffffffffffffffffffffffff000000825416179055600080f35b346101d05760206003193601126101d05760043561109781610798565b61109f6111fd565b73ffffffffffffffffffffffffffffffffffffffff8091168015611111576000918254827fffffffffffffffffffffffff00000000000000000000000000000000000000008216178455167f8be0079c531659141344cd1fd0a4f28419497f9722a3daafe3b4186f6b6457e08380a380f35b60846040517f08c379a000000000000000000000000000000000000000000000000000000000815260206004820152602660248201527f4f776e61626c653a206e6577206f776e657220697320746865207a65726f206160448201527f64647265737300000000000000000000000000000000000000000000000000006064820152fd5b346101d05760006003193601126101d057602073ffffffffffffffffffffffffffffffffffffffff60075416604051908152f35b346101d05760006003193601126101d057602073ffffffffffffffffffffffffffffffffffffffff600a5416604051908152f35b73ffffffffffffffffffffffffffffffffffffffff60005416330361121e57565b60646040517f08c379a000000000000000000000000000000000000000000000000000000000815260206004820152602060248201527f4f776e61626c653a2063616c6c6572206973206e6f7420746865206f776e65726044820152fd5b906112856111fd565b815167ffffffffffffffff81116102cb576112aa816112a5600b546103b8565b6113f1565b602080601f831160011461130b575081906112fe94600092611300575b50507fffffffffffffffffffffffffffffffffffffffffffffffffffffffffffffffff8260011b9260031b1c191617600b556114a8565b565b0151905038806112c7565b9192937fffffffffffffffffffffffffffffffffffffffffffffffffffffffffffffffe0841661135d600b6000527f0175b7a638427703f0dbe7bb9bbf987a2551717b34e79f33b5b1008d1fa01db990565b936000905b8282106113c25750509160019391856112fe9796941061138b575b505050811b01600b556114a8565b01517fffffffffffffffffffffffffffffffffffffffffffffffffffffffffffffffff60f88460031b161c1916905538808061137d565b80600186978294978701518155019601940190611362565b8181106113e5575050565b600081556001016113da565b90601f82116113fe575050565b6112fe91600b6000527f0175b7a638427703f0dbe7bb9bbf987a2551717b34e79f33b5b1008d1fa01db9906020601f840160051c83019310611448575b601f0160051c01906113da565b909150819061143b565b90601f821161145f575050565b6112fe91600f6000527f8d1108e10bcb7c27dddfc02ed9d693a074039d026cf4ea4240b40f7d581ac802906020601f840160051c8301931061144857601f0160051c01906113da565b90815167ffffffffffffffff81116102cb576114ce816114c9600f546103b8565b611452565b602080601f8311600114611527575081929360009261151c575b50507fffffffffffffffffffffffffffffffffffffffffffffffffffffffffffffffff8260011b9260031b1c191617600f55565b0151905038806114e8565b907fffffffffffffffffffffffffffffffffffffffffffffffffffffffffffffffe0831694611578600f6000527f8d1108e10bcb7c27dddfc02ed9d693a074039d026cf4ea4240b40f7d581ac80290565b926000905b8782106115d357505083600195961061159c575b505050811b01600f55565b01517fffffffffffffffffffffffffffffffffffffffffffffffffffffffffffffffff60f88460031b161c19169055388080611591565b8060018596829496860151815501950193019061157d565b9273ffffffffffffffffffffffffffffffffffffffff809216845281602093168385015216604083015260806060830152600091600f549161162c836103b8565b9283608084015260019081811690816000146116ab5750600114611652575b5050505090565b600f60009081529394507f8d1108e10bcb7c27dddfc02ed9d693a074039d026cf4ea4240b40f7d581ac8025b8585106116975750505060a0925001013880808061164b565b805485850160a0015293820193810161167e565b91505060a094507fffffffffffffffffffffffffffffffffffffffffffffffffffffffffffffff0091509291921683830152151560051b01013880808061164b565b908160209103126101d057516104828161062a565b6040513d6000823e3d90fd5b1561171557565b60646040517f08c379a000000000000000000000000000000000000000000000000000000000815260206004820152601360248201527f7573657220646f6573206e6f74206578697374000000000000000000000000006044820152fd5b1561177a57565b60646040517f08c379a000000000000000000000000000000000000000000000000000000000815260206004820152600e60248201527f4e4f545f454e4f5547485f4645450000000000000000000000000000000000006044820152fd5b3d15611803573d906117e9826102d0565b916117f7604051938461028a565b82523d6000602084013e565b606090565b1561180f57565b60646040517f08c379a000000000000000000000000000000000000000000000000000000000815260206004820152600b60248201527f43414c4c5f4641494c45440000000000000000000000000000000000000000006044820152fd5b7fffffffffffffffffffffffffffffffffffffffffffffffffffffffffffffffff811461189a5760010190565b7f4e487b7100000000000000000000000000000000000000000000000000000000600052601160045260246000fd5b60405190600082600b54916118dd836103b8565b808352926001908181169081156119635750600114611904575b506112fe9250038361028a565b600b600090815291507f0175b7a638427703f0dbe7bb9bbf987a2551717b34e79f33b5b1008d1fa01db95b84831061194857506112fe9350508101602001386118f7565b81935090816020925483858a0101520191019091859261192f565b602093506112fe9592507fffffffffffffffffffffffffffffffffffffffffffffffffffffffffffffff0091501682840152151560051b820101386118f7565b906119b66020928281519485920161040b565b0190565b73ffffffffffffffffffffffffffffffffffffffff610482921690611a8a565b7f4e487b7100000000000000000000000000000000000000000000000000000000600052603260045260246000fd5b80600052600260205260406000205415600014611a8457600154680100000000000000008110156102cb576001810180600155811015611a7f5781907fb10e2d527612073b26eecdfd717e6a320cf44b4afac2b0732d9fcbe2b7fa0cf60155600154906000526002602052604060002055600190565b6119da565b50600090565b60008281526001820160208190526040822054611ade57825492680100000000000000008410156102cb5760018401808255841015611a7f5784604094828552602085200155549382526020522055600190565b5091505090565b60405190610160820182811067ffffffffffffffff8211176102cb57604052606061014083600080825280602083015280604083015280848301528060808301528060a08301528060c08301528060e0830152806101008301526101208201520152565b908160209103126101d0575190565b6004602073ffffffffffffffffffffffffffffffffffffffff60035416604051928380927f91792d5b0000000000000000000000000000000000000000000000000000000082525afa908115610e7657600091611bb3575090565b610482915060203d8111611bd4575b611bcc818361028a565b810190611b49565b503d611bc2565b908160209103126101d0575161048281610798565b908160209103126101d0575160088110156101d05790565b600882101561092a5752565b908160209103126101d0575160038110156101d05790565b600382101561092a5752565b6020818303126101d05780519067ffffffffffffffff82116101d0570181601f820112156101d0578051611c6b816102d0565b92611c79604051948561028a565b818452602082840101116101d057610482916020808501910161040b565b611c9f611ae5565b50611ca8611ae5565b73ffffffffffffffffffffffffffffffffffffffff90911680825260408051917f8da5cb5b00000000000000000000000000000000000000000000000000000000835260209160049383818681865afa8015610e7657611d27916000916120ae575b5073ffffffffffffffffffffffffffffffffffffffff1686850152565b80517f5c63ed6900000000000000000000000000000000000000000000000000000000815283818681865afa908115610e7657600091612091575b508186015280517f4c38d87700000000000000000000000000000000000000000000000000000000815283818681865afa908115610e7657600091612074575b50606086015280517f0917e77600000000000000000000000000000000000000000000000000000000815283818681865afa908115610e7657600091612057575b50608086015280517f17906c2e00000000000000000000000000000000000000000000000000000000815283818681865afa908115610e765760009161203a575b5060a086015280517fd24e0c8700000000000000000000000000000000000000000000000000000000815283818681865afa908115610e765760009161201d575b5060c086015280517ffaeb5e1700000000000000000000000000000000000000000000000000000000815283818681865afa908115610e7657600091612000575b5060e086015280517f4e69d56000000000000000000000000000000000000000000000000000000000815283818681865afa8015610e7657611ef591600091611fd3575b506101008701611c08565b8051927f010a38f500000000000000000000000000000000000000000000000000000000845280848681865afa8015610e7657600094611f42928692611fa6575b50506101208701611c2c565b51928380927f54fd4d500000000000000000000000000000000000000000000000000000000082525afa908115610e7657600091611f85575b5061014082015290565b611fa0913d8091833e611f98818361028a565b810190611c38565b38611f7b565b611fc59250803d10611fcc575b611fbd818361028a565b810190611c14565b3880611f36565b503d611fb3565b611ff39150853d8711611ff9575b611feb818361028a565b810190611bf0565b38611eea565b503d611fe1565b6120179150843d8611611bd457611bcc818361028a565b38611ea6565b6120349150843d8611611bd457611bcc818361028a565b38611e65565b6120519150843d8611611bd457611bcc818361028a565b38611e24565b61206e9150843d8611611bd457611bcc818361028a565b38611de3565b61208b9150843d8611611bd457611bcc818361028a565b38611da2565b6120a89150843d8611611bd457611bcc818361028a565b38611d62565b6120ce9150853d87116120d4575b6120c6818361028a565b810190611bdb565b38611d0a565b503d6120bc565b67ffffffffffffffff81116102cb5760051b60200190565b8051821015611a7f5760209160051b010190565b8051612112816120db565b91612120604051938461028a565b8183527fffffffffffffffffffffffffffffffffffffffffffffffffffffffffffffffe061214d836120db565b0160005b8181106121b757505060005b82811061216a5750505090565b8061219773ffffffffffffffffffffffffffffffffffffffff6121906121b294866120f3565b5116611c97565b6121a182876120f3565b526121ac81866120f3565b5061186d565b61215d565b6020906121c2611ae5565b8282880101520161215156fea2646970667358221220c2d6318c1cceb647a57093febaf6fdc535d4cdced14093c2333cb1d50a1236c964736f6c63430008130033",
  "linkReferences": {},
  "deployedLinkReferences": {}
}