{
  "_format": "hh-sol-artifact-1",
  "contractName": "MecenateFeedFactory",
  "sourceName": "contracts/factories/MecenateFeedFactory.sol",
  "abi": [
    {
      "anonymous": false,
      "inputs": [
        {
          "indexed": true,
          "internalType": "address",
          "name": "addr",
          "type": "address"
        }
      ],
      "name": "FeedCreated",
      "type": "event"
    },
    {
      "anonymous": false,
      "inputs": [
        {
          "indexed": true,
          "internalType": "address",
          "name": "previousOwner",
          "type": "address"
        },
        {
          "indexed": true,
          "internalType": "address",
          "name": "newOwner",
          "type": "address"
        }
      ],
      "name": "OwnershipTransferred",
      "type": "event"
    },
    {
      "inputs": [],
      "name": "buildFeed",
      "outputs": [
        {
          "internalType": "address",
          "name": "",
          "type": "address"
        }
      ],
      "stateMutability": "payable",
      "type": "function"
    },
    {
      "inputs": [],
      "name": "burnEnabled",
      "outputs": [
        {
          "internalType": "bool",
          "name": "",
          "type": "bool"
        }
      ],
      "stateMutability": "view",
      "type": "function"
    },
    {
      "inputs": [
        {
          "internalType": "address",
          "name": "treasury",
          "type": "address"
        },
        {
          "internalType": "address",
          "name": "usersModule",
          "type": "address"
        },
        {
          "internalType": "address",
          "name": "easContract",
          "type": "address"
        },
        {
          "internalType": "bytes32",
          "name": "easSchema",
          "type": "bytes32"
        },
        {
          "internalType": "address",
          "name": "wethTokenAddr",
          "type": "address"
        },
        {
          "internalType": "address",
          "name": "museTokenAddr",
          "type": "address"
        },
        {
          "internalType": "address",
          "name": "daiTokenAddr",
          "type": "address"
        },
        {
          "internalType": "address",
          "name": "routerAddr",
          "type": "address"
        }
      ],
      "name": "changeMultipleSettings",
      "outputs": [],
      "stateMutability": "nonpayable",
      "type": "function"
    },
    {
      "inputs": [],
      "name": "contractCounter",
      "outputs": [
        {
          "internalType": "uint256",
          "name": "",
          "type": "uint256"
        }
      ],
      "stateMutability": "view",
      "type": "function"
    },
    {
      "inputs": [],
      "name": "daiToken",
      "outputs": [
        {
          "internalType": "address",
          "name": "",
          "type": "address"
        }
      ],
      "stateMutability": "view",
      "type": "function"
    },
    {
      "inputs": [],
      "name": "easContract",
      "outputs": [
        {
          "internalType": "address",
          "name": "",
          "type": "address"
        }
      ],
      "stateMutability": "view",
      "type": "function"
    },
    {
      "inputs": [],
      "name": "easSchema",
      "outputs": [
        {
          "internalType": "bytes32",
          "name": "",
          "type": "bytes32"
        }
      ],
      "stateMutability": "view",
      "type": "function"
    },
    {
      "inputs": [
        {
          "internalType": "address",
          "name": "user",
          "type": "address"
        }
      ],
      "name": "getFeedInfo",
      "outputs": [
        {
          "components": [
            {
              "internalType": "address",
              "name": "contractAddress",
              "type": "address"
            },
            {
              "internalType": "address",
              "name": "owner",
              "type": "address"
            },
            {
              "internalType": "uint256",
              "name": "sellerStake",
              "type": "uint256"
            },
            {
              "internalType": "uint256",
              "name": "buyerStake",
              "type": "uint256"
            },
            {
              "internalType": "uint256",
              "name": "totalStake",
              "type": "uint256"
            },
            {
              "internalType": "uint256",
              "name": "postCount",
              "type": "uint256"
            },
            {
              "internalType": "uint256",
              "name": "paymentRequested",
              "type": "uint256"
            },
            {
              "internalType": "uint256",
              "name": "stakeRequested",
              "type": "uint256"
            },
            {
              "internalType": "enum Structures.PostStatus",
              "name": "status",
              "type": "uint8"
            },
            {
              "internalType": "enum Structures.Tokens",
              "name": "tokenId",
              "type": "uint8"
            },
            {
              "internalType": "string",
              "name": "version",
              "type": "string"
            }
          ],
          "internalType": "struct Structures.Feed",
          "name": "",
          "type": "tuple"
        }
      ],
      "stateMutability": "view",
      "type": "function"
    },
    {
      "inputs": [],
      "name": "getFeeds",
      "outputs": [
        {
          "internalType": "address[]",
          "name": "",
          "type": "address[]"
        }
      ],
      "stateMutability": "view",
      "type": "function"
    },
    {
      "inputs": [],
      "name": "getFeedsInfo",
      "outputs": [
        {
          "components": [
            {
              "internalType": "address",
              "name": "contractAddress",
              "type": "address"
            },
            {
              "internalType": "address",
              "name": "owner",
              "type": "address"
            },
            {
              "internalType": "uint256",
              "name": "sellerStake",
              "type": "uint256"
            },
            {
              "internalType": "uint256",
              "name": "buyerStake",
              "type": "uint256"
            },
            {
              "internalType": "uint256",
              "name": "totalStake",
              "type": "uint256"
            },
            {
              "internalType": "uint256",
              "name": "postCount",
              "type": "uint256"
            },
            {
              "internalType": "uint256",
              "name": "paymentRequested",
              "type": "uint256"
            },
            {
              "internalType": "uint256",
              "name": "stakeRequested",
              "type": "uint256"
            },
            {
              "internalType": "enum Structures.PostStatus",
              "name": "status",
              "type": "uint8"
            },
            {
              "internalType": "enum Structures.Tokens",
              "name": "tokenId",
              "type": "uint8"
            },
            {
              "internalType": "string",
              "name": "version",
              "type": "string"
            }
          ],
          "internalType": "struct Structures.Feed[]",
          "name": "",
          "type": "tuple[]"
        }
      ],
      "stateMutability": "view",
      "type": "function"
    },
    {
      "inputs": [
        {
          "internalType": "address",
          "name": "user",
          "type": "address"
        }
      ],
      "name": "getFeedsInfoOwned",
      "outputs": [
        {
          "components": [
            {
              "internalType": "address",
              "name": "contractAddress",
              "type": "address"
            },
            {
              "internalType": "address",
              "name": "owner",
              "type": "address"
            },
            {
              "internalType": "uint256",
              "name": "sellerStake",
              "type": "uint256"
            },
            {
              "internalType": "uint256",
              "name": "buyerStake",
              "type": "uint256"
            },
            {
              "internalType": "uint256",
              "name": "totalStake",
              "type": "uint256"
            },
            {
              "internalType": "uint256",
              "name": "postCount",
              "type": "uint256"
            },
            {
              "internalType": "uint256",
              "name": "paymentRequested",
              "type": "uint256"
            },
            {
              "internalType": "uint256",
              "name": "stakeRequested",
              "type": "uint256"
            },
            {
              "internalType": "enum Structures.PostStatus",
              "name": "status",
              "type": "uint8"
            },
            {
              "internalType": "enum Structures.Tokens",
              "name": "tokenId",
              "type": "uint8"
            },
            {
              "internalType": "string",
              "name": "version",
              "type": "string"
            }
          ],
          "internalType": "struct Structures.Feed[]",
          "name": "",
          "type": "tuple[]"
        }
      ],
      "stateMutability": "view",
      "type": "function"
    },
    {
      "inputs": [
        {
          "internalType": "address",
          "name": "user",
          "type": "address"
        }
      ],
      "name": "getFeedsOwned",
      "outputs": [
        {
          "internalType": "address[]",
          "name": "",
          "type": "address[]"
        }
      ],
      "stateMutability": "view",
      "type": "function"
    },
    {
      "inputs": [
        {
          "internalType": "uint8",
          "name": "tokenId",
          "type": "uint8"
        }
      ],
      "name": "getRouterFee",
      "outputs": [
        {
          "internalType": "uint24",
          "name": "",
          "type": "uint24"
        }
      ],
      "stateMutability": "view",
      "type": "function"
    },
    {
      "inputs": [
        {
          "internalType": "address",
          "name": "contractAddress",
          "type": "address"
        }
      ],
      "name": "isContractCreated",
      "outputs": [
        {
          "internalType": "bool",
          "name": "",
          "type": "bool"
        }
      ],
      "stateMutability": "view",
      "type": "function"
    },
    {
      "inputs": [
        {
          "internalType": "address",
          "name": "newFeed",
          "type": "address"
        }
      ],
      "name": "isFeed",
      "outputs": [
        {
          "internalType": "bool",
          "name": "",
          "type": "bool"
        }
      ],
      "stateMutability": "view",
      "type": "function"
    },
    {
      "inputs": [],
      "name": "major",
      "outputs": [
        {
          "internalType": "uint8",
          "name": "",
          "type": "uint8"
        }
      ],
      "stateMutability": "view",
      "type": "function"
    },
    {
      "inputs": [],
      "name": "minor",
      "outputs": [
        {
          "internalType": "uint8",
          "name": "",
          "type": "uint8"
        }
      ],
      "stateMutability": "view",
      "type": "function"
    },
    {
      "inputs": [],
      "name": "museToken",
      "outputs": [
        {
          "internalType": "address",
          "name": "",
          "type": "address"
        }
      ],
      "stateMutability": "view",
      "type": "function"
    },
    {
      "inputs": [],
      "name": "owner",
      "outputs": [
        {
          "internalType": "address",
          "name": "",
          "type": "address"
        }
      ],
      "stateMutability": "view",
      "type": "function"
    },
    {
      "inputs": [],
      "name": "patch",
      "outputs": [
        {
          "internalType": "uint8",
          "name": "",
          "type": "uint8"
        }
      ],
      "stateMutability": "view",
      "type": "function"
    },
    {
      "inputs": [],
      "name": "renounceOwnership",
      "outputs": [],
      "stateMutability": "nonpayable",
      "type": "function"
    },
    {
      "inputs": [],
      "name": "router",
      "outputs": [
        {
          "internalType": "address",
          "name": "",
          "type": "address"
        }
      ],
      "stateMutability": "view",
      "type": "function"
    },
    {
      "inputs": [
        {
          "internalType": "bool",
          "name": "newBurnEnabled",
          "type": "bool"
        }
      ],
      "name": "setBurnEnabled",
      "outputs": [],
      "stateMutability": "nonpayable",
      "type": "function"
    },
    {
      "inputs": [
        {
          "internalType": "bytes",
          "name": "newByteCode",
          "type": "bytes"
        },
        {
          "internalType": "uint8",
          "name": "newMajor",
          "type": "uint8"
        },
        {
          "internalType": "uint8",
          "name": "newMinor",
          "type": "uint8"
        },
        {
          "internalType": "uint8",
          "name": "newPatch",
          "type": "uint8"
        }
      ],
      "name": "setFeedByteCode",
      "outputs": [],
      "stateMutability": "nonpayable",
      "type": "function"
    },
    {
      "inputs": [
        {
          "internalType": "uint8",
          "name": "tokenId",
          "type": "uint8"
        },
        {
          "internalType": "uint24",
          "name": "fee",
          "type": "uint24"
        }
      ],
      "name": "setRouterFee",
      "outputs": [],
      "stateMutability": "nonpayable",
      "type": "function"
    },
    {
      "inputs": [
        {
          "internalType": "address",
          "name": "newOwner",
          "type": "address"
        }
      ],
      "name": "transferOwnership",
      "outputs": [],
      "stateMutability": "nonpayable",
      "type": "function"
    },
    {
      "inputs": [],
      "name": "treasuryContract",
      "outputs": [
        {
          "internalType": "address",
          "name": "",
          "type": "address"
        }
      ],
      "stateMutability": "view",
      "type": "function"
    },
    {
      "inputs": [],
      "name": "version",
      "outputs": [
        {
          "internalType": "string",
          "name": "",
          "type": "string"
        }
      ],
      "stateMutability": "view",
      "type": "function"
    },
    {
      "inputs": [],
      "name": "wethToken",
      "outputs": [
        {
          "internalType": "address",
          "name": "",
          "type": "address"
        }
      ],
      "stateMutability": "view",
      "type": "function"
    }
  ],
  "bytecode": "0x608080604052346100e05760008054336001600160a01b0319821681178355906001600160a01b03167f8be0079c531659141344cd1fd0a4f28419497f9722a3daafe3b4186f6b6457e08380a3600f546001918282811c921680156100d6575b60208310146100c257601f8211610098575b600c65076322e302e360d41b01600f556010805460ff19169055611a3a8481620000e68239f35b600f8152601f60208220920160051c8201915b8281106100b85750610071565b81815583016100ab565b634e487b7160e01b81526022600452602490fd5b91607f169161005f565b600080fdfe6080604052600436101561001257600080fd5b60003560e01c8063067bd3b4146101e257806318da0011146101dd5780633ec4f23d146101d857806349975235146101d35780634b57b0be146101ce57806354fd4d50146101c95780635dc96d16146101c4578063715018a6146101bf5780637b2c835f146101ba5780637fe955d4146101b55780638da5cb5b146101b05780639407aeea146101ab5780639496d7f1146101a6578063ad861324146101a1578063b2a2e9ca1461019c578063bb834b0e14610197578063be22f54614610192578063ca5b4e5c1461018d578063cd77b52c14610188578063cedf3ba214610179578063d223a56414610183578063d570a66d1461017e578063e58fdd0414610179578063e86ef35314610174578063e9318b471461016f578063f2fde38b1461016a578063f77800e514610165578063f86d0b38146101605763f887ea401461015b57600080fd5b610f6e565b610f4d565b610f24565b610e5d565b610e09565b610d8c565b610ccc565b610d47565b610d0e565b610ca3565b610a86565b610a5d565b610a39565b6109bf565b610931565b610702565b610662565b6105dd565b610557565b6104d9565b610474565b610451565b61036c565b610270565b61024c565b61022e565b610205565b34610200576000366003190112610200576020601154604051908152f35b600080fd5b34610200576000366003190112610200576003546040516001600160a01b039091168152602090f35b34610200576000366003190112610200576020600654604051908152f35b3461020057600036600319011261020057602060ff60125460101c16604051908152f35b34610200576000366003190112610200576009546040516001600160a01b039091168152602090f35b90600182811c921680156102c9575b60208310146102b357565b634e487b7160e01b600052602260045260246000fd5b91607f16916102a8565b634e487b7160e01b600052604160045260246000fd5b90601f8019910116810190811067ffffffffffffffff82111761030b57604052565b6102d3565b60005b8381106103235750506000910152565b8181015183820152602001610313565b9060209161034c81518092818552858086019101610310565b601f01601f1916010190565b906020610369928181520190610333565b90565b346102005760008060031936011261044e576040519080600f5461038f81610299565b8085529160019180831690811561042457506001146103c9575b6103c5856103b9818703826102e9565b60405191829182610358565b0390f35b9250600f83527f8d1108e10bcb7c27dddfc02ed9d693a074039d026cf4ea4240b40f7d581ac8025b82841061040c5750505081016020016103b9826103c56103a9565b805460208587018101919091529093019281016103f1565b8695506103c5969350602092506103b994915060ff191682840152151560051b82010192936103a9565b80fd5b3461020057600036600319011261020057602060ff601054166040519015158152f35b346102005760008060031936011261044e5761048e610f97565b80546001600160a01b03198116825581906001600160a01b03167f8be0079c531659141344cd1fd0a4f28419497f9722a3daafe3b4186f6b6457e08280a380f35b8015150361020057565b34610200576020366003190112610200576004356104f6816104cf565b6104fe610f97565b60ff8019601054169115151617601055600080f35b6020908160408183019282815285518094520193019160005b82811061053a575050505090565b83516001600160a01b03168552938101939281019260010161052c565b346102005760003660031901126102005760405180600191825492838252602080920193816000527fb10e2d527612073b26eecdfd717e6a320cf44b4afac2b0732d9fcbe2b7fa0cf6926000905b8282106105c8576103c5866105bc818a03826102e9565b60405191829182610513565b845487529586019593830193908301906105a5565b34610200576000366003190112610200576000546040516001600160a01b039091168152602090f35b67ffffffffffffffff811161030b57601f01601f191660200190565b6024359060ff8216820361020057565b6044359060ff8216820361020057565b6064359060ff8216820361020057565b6004359060ff8216820361020057565b346102005760803660031901126102005760043567ffffffffffffffff8111610200573660238201121561020057806004013561069e81610606565b906106ac60405192836102e9565b80825236602482850101116102005760208160009260246106ef960183860137830101526106d8610622565b6106e0610632565b906106e9610642565b92610fef565b005b6001600160a01b0381160361020057565b3461020057610100366003190112610200576106ef600435610723816106f1565b60243590610730826106f1565b60443561073c816106f1565b60843590610749826106f1565b60a43590610756826106f1565b60c43591610763836106f1565b60e43595610770876106f1565b610778610f97565b60018060a01b0394858094818094816bffffffffffffffffffffffff60a01b9b168b6003541617600355168960045416176004551687600554161760055560643560065516856009541617600955168360075416176007551690600854161760085560018060a01b03166bffffffffffffffffffffffff60a01b600a541617600a55565b634e487b7160e01b600052602160045260246000fd5b90600882101561081f5752565b6107fc565b90600382101561081f5752565b80516001600160a01b0316825261036991906020818101516001600160a01b03169083015260408101516040830152606081015160608301526080810151608083015260a081015160a083015260c081015160c083015260e081015160e08301526108a56101008083015190840190610812565b6108b86101208083015190840190610824565b610140809101519161016080928201520190610333565b602080820190808352835180925260408301928160408460051b8301019501936000915b8483106109035750505050505090565b9091929394958480610921600193603f198682030187528a51610831565b98019301930191949392906108f3565b34610200576020806003193601126102005760043561094f816106f1565b60018060a01b0316600052600d81526040600020604051918281835491828152019260005281600020916000905b8282106109a8576103c561099c87610997818903826102e9565b611968565b604051918291826108cf565b83548552938401936001938401939091019061097d565b3461020057602080600319360112610200576004356109dd816106f1565b6001600160a01b03166000908152600d82526040808220905181548082529183528383208185019491939092915b828210610a22576103c5856105bc818903826102e9565b835486529485019460019384019390910190610a0b565b3461020057600036600319011261020057602060ff60125460081c16604051908152f35b34610200576000366003190112610200576008546040516001600160a01b039091168152602090f35b60008060031936011261044e57600454601254604080513360208201526001600160a01b0390931690830181905230606084015260ff8083166080850152600883901c811660a085015260109290921c90911660c080840191909152825290601f19610af360e0836102e9565b60405163122643f360e21b81523360048201526001600160a01b03939091906020908390602490829088165afa908115610c9e57610b3f610bcf92610bc3948891610c70575b5061119d565b610b52610b4a6114ee565b3410156111df565b610b8d8680808034610b7d610b71610b7160035460018060a01b031690565b6001600160a01b031690565b5af1610b8761121c565b5061124c565b610ba0610b9b601154611286565b601155565b610ba86112ab565b93604051938491610bbd602084018098611369565b90611369565b039081018352826102e9565b519083f090813b15610c6c57816103c5917fb658664a46408e6670a38ec7ea8b7614c9e2916184dff2fad99d3a7a3491ca7d949316610c0d816113a9565b50336000908152600d60205260409020610c28908390611380565b506001600160a01b0382166000908152600e60205260409020610c5290805460ff19166001179055565b60405194848695a26001600160a01b031682526020820190565b8280fd5b610c91915060203d8111610c97575b610c8981836102e9565b81019061117c565b38610b39565b503d610c7f565b611191565b34610200576000366003190112610200576005546040516001600160a01b039091168152602090f35b3461020057602036600319011261020057600435610ce9816106f1565b60018060a01b0316600052600e602052602060ff604060002054166040519015158152f35b346102005760203660031901126102005760ff610d29610652565b16600052600c602052602062ffffff60406000205416604051908152f35b34610200576020366003190112610200576103c5610d78600435610d6a816106f1565b610d7261147b565b5061160a565b604051918291602083526020830190610831565b346102005760003660031901126102005760405180600190815491828252602080920192816000527fb10e2d527612073b26eecdfd717e6a320cf44b4afac2b0732d9fcbe2b7fa0cf6926000905b828210610df4576103c561099c88610997818a03826102e9565b84548652948501949383019390830190610dda565b3461020057604036600319011261020057610e22610652565b6024359062ffffff82168092036102005760ff90610e3e610f97565b16600052600c60205260406000209062ffffff19825416179055600080f35b3461020057602036600319011261020057600435610e7a816106f1565b610e82610f97565b6001600160a01b039081168015610ed057600080546001600160a01b03198116831782559092167f8be0079c531659141344cd1fd0a4f28419497f9722a3daafe3b4186f6b6457e08380a380f35b60405162461bcd60e51b815260206004820152602660248201527f4f776e61626c653a206e6577206f776e657220697320746865207a65726f206160448201526564647265737360d01b6064820152608490fd5b34610200576000366003190112610200576007546040516001600160a01b039091168152602090f35b3461020057600036600319011261020057602060ff60125416604051908152f35b3461020057600036600319011261020057600a546040516001600160a01b039091168152602090f35b6000546001600160a01b03163303610fab57565b606460405162461bcd60e51b815260206004820152602060248201527f4f776e61626c653a2063616c6c6572206973206e6f7420746865206f776e65726044820152fd5b939261ff0090929192611000610f97565b60ff62ff00006012549260101b1694169062ffffff1916179160081b161717601255815167ffffffffffffffff811161030b5761104781611042600b54610299565b61110b565b602080601f83116001146110835750819293600092611078575b50508160011b916000199060031b1c191617600b55565b015190503880611061565b90601f198316946110b6600b6000527f0175b7a638427703f0dbe7bb9bbf987a2551717b34e79f33b5b1008d1fa01db990565b926000905b8782106110f35750508360019596106110da575b505050811b01600b55565b015160001960f88460031b161c191690553880806110cf565b806001859682949686015181550195019301906110bb565b601f8111611117575050565b600090600b82527f0175b7a638427703f0dbe7bb9bbf987a2551717b34e79f33b5b1008d1fa01db9906020601f850160051c83019410611172575b601f0160051c01915b82811061116757505050565b81815560010161115b565b9092508290611152565b908160209103126102005751610369816104cf565b6040513d6000823e3d90fd5b156111a457565b60405162461bcd60e51b81526020600482015260136024820152721d5cd95c88191bd95cc81b9bdd08195e1a5cdd606a1b6044820152606490fd5b156111e657565b60405162461bcd60e51b815260206004820152600e60248201526d4e4f545f454e4f5547485f46454560901b6044820152606490fd5b3d15611247573d9061122d82610606565b9161123b60405193846102e9565b82523d6000602084013e565b606090565b1561125357565b60405162461bcd60e51b815260206004820152600b60248201526a10d0531317d1905253115160aa1b6044820152606490fd5b60001981146112955760010190565b634e487b7160e01b600052601160045260246000fd5b60405190600082600b54916112bf83610299565b8083529260019081811690811561134757506001146112e8575b506112e6925003836102e9565b565b600b600090815291507f0175b7a638427703f0dbe7bb9bbf987a2551717b34e79f33b5b1008d1fa01db95b84831061132c57506112e69350508101602001386112d9565b81935090816020925483858a01015201910190918592611313565b9050602092506112e694915060ff191682840152151560051b820101386112d9565b9061137c60209282815194859201610310565b0190565b610369916001600160a01b031690611425565b634e487b7160e01b600052603260045260246000fd5b8060005260026020526040600020541560001461141f57600154600160401b81101561030b57600181018060015581101561141a5781907fb10e2d527612073b26eecdfd717e6a320cf44b4afac2b0732d9fcbe2b7fa0cf60155600154906000526002602052604060002055600190565b611393565b50600090565b6000828152600182016020819052604082205461147457825492600160401b84101561030b576001840180825584101561141a5784604094828552602085200155549382526020522055600190565b5091505090565b60405190610160820182811067ffffffffffffffff82111761030b57604052606061014083600080825280602083015280604083015280848301528060808301528060a08301528060c08301528060e0830152806101008301526101208201520152565b90816020910312610200575190565b6003546040516391792d5b60e01b815290602090829060049082906001600160a01b03165afa908115610c9e57600091611526575090565b610369915060203d8111611547575b61153f81836102e9565b8101906114df565b503d611535565b908160209103126102005751610369816106f1565b90816020910312610200575160088110156102005790565b600882101561081f5752565b90816020910312610200575160038110156102005790565b600382101561081f5752565b6020818303126102005780519067ffffffffffffffff8211610200570181601f820112156102005780516115de81610606565b926115ec60405194856102e9565b81845260208284010111610200576103699160208085019101610310565b61161261147b565b5061161b61147b565b6001600160a01b0390911680825260408051638da5cb5b60e01b8152600492602092909183818681865afa8015610c9e576116689160009161190f575b506001600160a01b031686850152565b8051635c63ed6960e01b815283818681865afa908115610c9e576000916118f2575b50858201528051634c38d87760e01b815283818681865afa908115610c9e576000916118d5575b506060860152805163048bf3bb60e11b815283818681865afa908115610c9e576000916118b8575b5060808601528051630bc8361760e11b815283818681865afa908115610c9e5760009161189b575b5060a0860152805163d24e0c8760e01b815283818681865afa908115610c9e5760009161187e575b5060c0860152805163faeb5e1760e01b815283818681865afa908115610c9e57600091611861575b5060e086015280516302734eab60e51b815283818681865afa8015610c9e5761178791600091611834575b50610100870161157b565b805163010a38f560e01b81529280848681865afa8015610c9e576000946117bb928692611807575b5050610120870161159f565b5163054fd4d560e41b815292839182905afa908115610c9e576000916117e6575b5061014082015290565b611801913d8091833e6117f981836102e9565b8101906115ab565b386117dc565b6118269250803d1061182d575b61181e81836102e9565b810190611587565b38806117af565b503d611814565b6118549150853d871161185a575b61184c81836102e9565b810190611563565b3861177c565b503d611842565b6118789150843d86116115475761153f81836102e9565b38611751565b6118959150843d86116115475761153f81836102e9565b38611729565b6118b29150843d86116115475761153f81836102e9565b38611701565b6118cf9150843d86116115475761153f81836102e9565b386116d9565b6118ec9150843d86116115475761153f81836102e9565b386116b1565b6119099150843d86116115475761153f81836102e9565b3861168a565b61192f9150853d8711611935575b61192781836102e9565b81019061154e565b38611658565b503d61191d565b67ffffffffffffffff811161030b5760051b60200190565b805182101561141a5760209160051b010190565b80516119738161193c565b9161198160405193846102e9565b818352601f196119908361193c565b0160005b8181106119ed57505060005b8281106119ad5750505090565b6119e8906119cd6001600160a01b036119c68386611954565b511661160a565b6119d78287611954565b526119e28186611954565b50611286565b6119a0565b6020906119f861147b565b8282880101520161199456fea26469706673582212209a14770314c78f648a690b1c80f9677f61fa2cf1e5f18c92bd8b3cc670fc3bb464736f6c63430008130033",
  "linkReferences": {},
  "deployedLinkReferences": {}
}