{
  "_format": "hh-sol-artifact-1",
  "contractName": "SismoPKP",
  "sourceName": "contracts/SismoPKP.sol",
  "abi": [
    {
      "inputs": [],
      "stateMutability": "nonpayable",
      "type": "constructor"
    },
    {
      "inputs": [],
      "name": "exportAllData",
      "outputs": [
        {
          "internalType": "bytes32[]",
          "name": "",
          "type": "bytes32[]"
        },
        {
          "internalType": "address[]",
          "name": "",
          "type": "address[]"
        },
        {
          "internalType": "string[]",
          "name": "",
          "type": "string[]"
        },
        {
          "internalType": "string[]",
          "name": "",
          "type": "string[]"
        }
      ],
      "stateMutability": "view",
      "type": "function"
    },
    {
      "inputs": [
        {
          "internalType": "bytes32",
          "name": "encryptedVaultId",
          "type": "bytes32"
        }
      ],
      "name": "getWalletInfo",
      "outputs": [
        {
          "internalType": "address",
          "name": "",
          "type": "address"
        },
        {
          "internalType": "string",
          "name": "",
          "type": "string"
        },
        {
          "internalType": "string",
          "name": "",
          "type": "string"
        }
      ],
      "stateMutability": "view",
      "type": "function"
    },
    {
      "inputs": [
        {
          "internalType": "bytes32[]",
          "name": "importedVaultIds",
          "type": "bytes32[]"
        },
        {
          "internalType": "address[]",
          "name": "importedAddresses",
          "type": "address[]"
        },
        {
          "internalType": "string[]",
          "name": "importedPublicKeys",
          "type": "string[]"
        },
        {
          "internalType": "string[]",
          "name": "importedEncryptedPrivateKeys",
          "type": "string[]"
        }
      ],
      "name": "importAllData",
      "outputs": [],
      "stateMutability": "nonpayable",
      "type": "function"
    },
    {
      "inputs": [],
      "name": "owner",
      "outputs": [
        {
          "internalType": "address",
          "name": "",
          "type": "address"
        }
      ],
      "stateMutability": "view",
      "type": "function"
    },
    {
      "inputs": [
        {
          "internalType": "bytes32",
          "name": "encryptedVaultId",
          "type": "bytes32"
        },
        {
          "internalType": "address",
          "name": "walletAddress",
          "type": "address"
        },
        {
          "internalType": "string",
          "name": "publicKey",
          "type": "string"
        },
        {
          "internalType": "string",
          "name": "encryptedPrivateKey",
          "type": "string"
        }
      ],
      "name": "setWalletInfo",
      "outputs": [],
      "stateMutability": "nonpayable",
      "type": "function"
    },
    {
      "inputs": [
        {
          "internalType": "bytes32",
          "name": "",
          "type": "bytes32"
        }
      ],
      "name": "vaults",
      "outputs": [
        {
          "internalType": "address",
          "name": "walletAddress",
          "type": "address"
        },
        {
          "internalType": "string",
          "name": "publicKey",
          "type": "string"
        },
        {
          "internalType": "string",
          "name": "encryptedPrivateKey",
          "type": "string"
        }
      ],
      "stateMutability": "view",
      "type": "function"
    }
  ],
  "bytecode": "0x6080806040523461002857600080546001600160a01b03191633179055610eb0908161002e8239f35b600080fdfe604060808152600436101561001357600080fd5b60003560e01c806338b66b59146108e35780633bb50d7c146108715780633e557c0f146103b4578063756fe124146100e35780638da5cb5b146100ba5763cca23bf21461005f57600080fd5b346100b55760203660031901126100b557600435600052600160205280600020906100b160018060a01b03835416916100a6600261009f60018701610ce1565b9501610ce1565b905193849384610b45565b0390f35b600080fd5b50346100b55760003660031901126100b55760005490516001600160a01b039091168152602090f35b50346100b55760803660031901126100b5576024356001600160a01b0381811692918390036100b5576001600160401b03906044358281116100b55761012d903690600401610bd1565b906064358381116100b557610146903690600401610bd1565b9484519061015382610b7e565b81526020918282019384528582019687526004356000526001958684526000209151166bffffffffffffffffffffffff60a01b82541617815584810192519283518581116102e5576101a58254610ca7565b94601f9586811161036e575b50849086831160011461030657600294939291600091836102fb575b5050600019600383901b1c191690881b1790555b0194519081519384116102e5576101f88654610ca7565b83811161029f575b508092841160011461023c5750928293918392600094610231575b50501b916000199060031b1c1916179055600080f35b01519250388061021b565b919083601f1981168760005284600020946000905b88838310610285575050501061026c575b505050811b019055005b015160001960f88460031b161c19169055388080610262565b858701518855909601959485019487935090810190610251565b86600052816000208480870160051c8201928488106102dc575b0160051c019086905b8281106102d0575050610200565b600081550186906102c2565b925081926102b9565b634e487b7160e01b600052604160045260246000fd5b0151905038806101cd565b9392918891601f1982169084600052876000209160005b8982821061035857505096836002981061033f575b505050811b0190556101e1565b015160001960f88460031b161c19169055388080610332565b838a015185558d9690940193928301920161031d565b83600052856000208780850160051c8201928886106103ab575b0160051c019089905b82811061039f5750506101b1565b60008155018990610391565b92508192610388565b50346100b55760803660031901126100b557600435906001600160401b0382116100b557366023830112156100b5578160040135916103f283610bba565b926103ff83519485610b99565b8084526024602085019160051b830101913683116100b557602401905b82821061086157505050602435906001600160401b0382116100b557366023830112156100b557816004013561045181610bba565b9261045e83519485610b99565b8184526024602085019260051b820101903682116100b557602401915b818310610841575050506044356001600160401b0381116100b5576104a4903690600401610c27565b926064356001600160401b0381116100b5576104c4903690600401610c27565b906104da60018060a01b03600054163314610d87565b8051845181149081610836575b8161082b575b50156107db5760005b81518110156107d9576001600160a01b036105118287610e50565b511661051d8288610e50565b516105288386610e50565b5186519261053584610b7e565b8352602083019182528683015261054c8385610e50565b516000526001602052856000209060018060a01b038351166bffffffffffffffffffffffff60a01b835416178255519081516001600160401b0381116102e557879261059b6001840154610ca7565b601f8111610782575b50602090601f8311600114610709576002939291600091836106fe575b50508160011b916000199060031b1c19161760018201555b019101518051906001600160401b0382116102e5576105f88354610ca7565b601f81116106b6575b50602090601f831160011461064957610639949392916000918361063e575b50508160011b916000199060031b1c1916179055610e2b565b6104f6565b015190503880610620565b90601f198316918460005260206000209260005b81811061069e57509160019391856106399897969410610685575b505050811b019055610e2b565b015160001960f88460031b161c19169055388080610678565b9293602060018192878601518155019501930161065d565b836000526020600020601f840160051c810191602085106106f4575b601f0160051c01905b8181106106e85750610601565b600081556001016106db565b90915081906106d2565b0151905038806105c1565b939291906001830160005260206000209460005b601f1984168110610767575094829160029596600194601f1981161061074e575b505050811b0160018201556105d9565b015160001960f88460031b161c1916905538808061073e565b8282015187556001909601958b95506020928301920161071d565b9091929350600184016000526020600020601f840160051c8101602085106107d2575b908a95949392915b601f830160051c820181106107c35750506105a4565b600081558b96506001016107ad565b50806107a5565b005b825162461bcd60e51b8152602060048201526024808201527f416c6c20617272617973206d7573742068617665207468652073616d65206c656044820152630dccee8d60e31b6064820152608490fd5b9050825114386104ed565b8651811491506104e7565b82356001600160a01b03811681036100b55781526020928301920161047b565b813581526020918201910161041c565b50346100b55760203660031901126100b5576004356000526001602052806000206100b182516108a081610b7e565b82546001600160a01b0390811682526108ce60026108c060018701610ce1565b956020850196875201610ce1565b91828682015251169251935193849384610b45565b50346100b55760003660031901126100b5576000546001600160a01b03919061090f9083163314610d87565b805190602091828101926001600160401b0394828510868611176102e5578484526000835283519082820196828810908811176102e557868552600082526109578451610de1565b936109628151610de1565b9760005b8251811015610a06578061097d610a019285610e50565b51600052600180885289866109ba60026109ad846000209451956109a087610b7e565b8486541687528501610ce1565b938c860194855201610ce1565b928c810193845251166109cd848a610e50565b52516109d9838b610e50565b526109e4828a610e50565b50516109f0828d610e50565b526109fb818c610e50565b50610e2b565b610966565b50949397959297969096835198899860808a019060808b525180915260a08a01939060005b818110610a9257505050888303898301525180835291810195926000905b838210610a7557898803868b015289806100b18b610a678c8c610ae9565b908382036060850152610ae9565b8451811688528a9950968201969382019360019190910190610a49565b825186528c9b509484019491840191600101610a2b565b919082519283825260005b848110610ad5575050826000602080949584010152601f8019910116010190565b602081830181015184830182015201610ab4565b908082519081815260208091019281808460051b8301019501936000915b848310610b175750505050505090565b9091929394958480610b35600193601f198682030187528a51610aa9565b9801930193019194939290610b07565b6001600160a01b039091168152606060208201819052610b7b939192610b6d91840190610aa9565b916040818403910152610aa9565b90565b606081019081106001600160401b038211176102e557604052565b90601f801991011681019081106001600160401b038211176102e557604052565b6001600160401b0381116102e55760051b60200190565b81601f820112156100b5578035906001600160401b0382116102e55760405192610c05601f8401601f191660200185610b99565b828452602083830101116100b557816000926020809301838601378301015290565b9080601f830112156100b557813590610c3f82610bba565b92610c4d6040519485610b99565b828452602092838086019160051b830101928084116100b557848301915b848310610c7b5750505050505090565b82356001600160401b0381116100b5578691610c9c84848094890101610bd1565b815201920191610c6b565b90600182811c92168015610cd7575b6020831014610cc157565b634e487b7160e01b600052602260045260246000fd5b91607f1691610cb6565b9060405191826000825492610cf584610ca7565b908184526001948581169081600014610d645750600114610d21575b5050610d1f92500383610b99565b565b9093915060005260209081600020936000915b818310610d4c575050610d1f93508201013880610d11565b85548884018501529485019487945091830191610d34565b915050610d1f94506020925060ff191682840152151560051b8201013880610d11565b15610d8e57565b60405162461bcd60e51b815260206004820152602560248201527f4f6e6c7920746865206f776e65722063616e2063616c6c20746869732066756e60448201526431ba34b7b760d91b6064820152608490fd5b90610deb82610bba565b610df86040519182610b99565b8281528092610e09601f1991610bba565b019060005b828110610e1a57505050565b806060602080938501015201610e0e565b6000198114610e3a5760010190565b634e487b7160e01b600052601160045260246000fd5b8051821015610e645760209160051b010190565b634e487b7160e01b600052603260045260246000fdfea264697066735822122094d53e8bd6db4d6cca8af1f0d5834a3ee9bdb70f69f2ae3b66517313e7a9013464736f6c63430008130033",
  "linkReferences": {},
  "deployedLinkReferences": {}
}