{
  "address": "0x735AceD9781e2C259Cd04d7135F00AcC05dB088f",
  "abi": [
    {
      "inputs": [
        {
          "internalType": "address",
          "name": "externalContract",
          "type": "address"
        },
        {
          "internalType": "bytes",
          "name": "callData",
          "type": "bytes"
        }
      ],
      "name": "proxyCallAndReturnAddress",
      "outputs": [
        {
          "internalType": "address payable",
          "name": "result",
          "type": "address"
        }
      ],
      "stateMutability": "nonpayable",
      "type": "function"
    }
  ],
  "transactionHash": "0x8d6d724d936216f15345dc84c24e60819ed600b799198ddb1ba94d1f21687121",
  "args": [],
  "numDeployments": 1,
  "solcInputHash": "d626d7b77fafbd5854c421f751c5af18",
  "bytecode": "0x60808060405234610016576102d9908161001c8239f35b600080fdfe6080604052600436101561001257600080fd5b6000803560e01c63a1453b0e1461002857600080fd5b346100db5760403660031901126100db576004356001600160a01b03811681036100d7576024359067ffffffffffffffff82116100d357366023830112156100d357816004013561008061007b8261011f565b6100f4565b9281845236602483830101116100cf57916100cb9460208381969460246100af9701838701378401015261013b565b01516040516001600160a01b0390911681529081906020820190565b0390f35b8480fd5b8280fd5b5080fd5b80fd5b634e487b7160e01b600052604160045260246000fd5b6040519190601f01601f1916820167ffffffffffffffff81118382101761011a57604052565b6100de565b67ffffffffffffffff811161011a57601f01601f191660200190565b60405190604082019282841067ffffffffffffffff85111761011a57600080916101ba95604052601e85527f416464726573733a206c6f772d6c6576656c2063616c6c206661696c65640000602086015260208151910182855af13d156101bd573d916101aa61007b8461011f565b9283523d6000602085013e610211565b90565b606091610211565b156101cc57565b60405162461bcd60e51b815260206004820152601d60248201527f416464726573733a2063616c6c20746f206e6f6e2d636f6e74726163740000006044820152606490fd5b919290156102315750815115610225575090565b6101ba903b15156101c5565b8251909150156102445750805190602001fd5b6040519062461bcd60e51b82528160208060048301528251908160248401526000935b82851061028a575050604492506000838284010152601f80199101168101030190fd5b848101820151868601604401529381019385935061026756fea26469706673582212205166b4cf3ba78e656933ebd9a0d05f07b68447521405f99c896a591fb551a22464736f6c63430008130033",
  "devdoc": {
    "details": "This is used so that the from address of the calling contract does not have any special permissions (e.g. ERC-20 transfer). Other return types and call structures may be added in the future.",
    "kind": "dev",
    "methods": {},
    "title": "Forwards arbitrary calls to an external contract.",
    "version": 1
  },
  "userdoc": {
    "kind": "user",
    "methods": {},
    "notice": "DO NOT approve this contract to transfer any ERC-20 or ERC-721, or grant any other permissions for another contract.",
    "version": 1
  },
  "storageLayout": {
    "storage": [],
    "types": null
  }
}