{
  "address": "0x9e968F3518Fd53b8349f11dA3750f67944513056",
  "abi": [
    {
      "inputs": [
        {
          "internalType": "address",
          "name": "_usersModuleContract",
          "type": "address"
        },
        {
          "internalType": "address",
          "name": "_treasuryContract",
          "type": "address"
        },
        {
          "internalType": "address",
          "name": "_verifierContract",
          "type": "address"
        }
      ],
      "stateMutability": "nonpayable",
      "type": "constructor"
    },
    {
      "anonymous": false,
      "inputs": [
        {
          "indexed": true,
          "internalType": "address",
          "name": "addr",
          "type": "address"
        }
      ],
      "name": "FeedCreated",
      "type": "event"
    },
    {
      "anonymous": false,
      "inputs": [
        {
          "indexed": true,
          "internalType": "address",
          "name": "previousOwner",
          "type": "address"
        },
        {
          "indexed": true,
          "internalType": "address",
          "name": "newOwner",
          "type": "address"
        }
      ],
      "name": "OwnershipTransferred",
      "type": "event"
    },
    {
      "inputs": [
        {
          "internalType": "bytes",
          "name": "sismoConnectResponse",
          "type": "bytes"
        },
        {
          "internalType": "address",
          "name": "_to",
          "type": "address"
        },
        {
          "internalType": "bytes32",
          "name": "_nonce",
          "type": "bytes32"
        }
      ],
      "name": "buildFeed",
      "outputs": [
        {
          "internalType": "address",
          "name": "",
          "type": "address"
        }
      ],
      "stateMutability": "payable",
      "type": "function"
    },
    {
      "inputs": [],
      "name": "burnEnabled",
      "outputs": [
        {
          "internalType": "bool",
          "name": "",
          "type": "bool"
        }
      ],
      "stateMutability": "view",
      "type": "function"
    },
    {
      "inputs": [
        {
          "internalType": "address",
          "name": "_treasury",
          "type": "address"
        },
        {
          "internalType": "address",
          "name": "_usersModule",
          "type": "address"
        },
        {
          "internalType": "address",
          "name": "_wethToken",
          "type": "address"
        },
        {
          "internalType": "address",
          "name": "_museToken",
          "type": "address"
        },
        {
          "internalType": "address",
          "name": "_daiToken",
          "type": "address"
        },
        {
          "internalType": "address",
          "name": "_router",
          "type": "address"
        }
      ],
      "name": "changeMultipleSettings",
      "outputs": [],
      "stateMutability": "nonpayable",
      "type": "function"
    },
    {
      "inputs": [
        {
          "internalType": "string",
          "name": "_version",
          "type": "string"
        }
      ],
      "name": "changeVersion",
      "outputs": [],
      "stateMutability": "nonpayable",
      "type": "function"
    },
    {
      "inputs": [],
      "name": "contractCounter",
      "outputs": [
        {
          "internalType": "uint256",
          "name": "",
          "type": "uint256"
        }
      ],
      "stateMutability": "view",
      "type": "function"
    },
    {
      "inputs": [],
      "name": "daiToken",
      "outputs": [
        {
          "internalType": "address",
          "name": "",
          "type": "address"
        }
      ],
      "stateMutability": "view",
      "type": "function"
    },
    {
      "inputs": [
        {
          "internalType": "address",
          "name": "_feed",
          "type": "address"
        }
      ],
      "name": "getFeedInfo",
      "outputs": [
        {
          "components": [
            {
              "internalType": "address",
              "name": "contractAddress",
              "type": "address"
            },
            {
              "internalType": "bytes32",
              "name": "operator",
              "type": "bytes32"
            },
            {
              "internalType": "uint256",
              "name": "sellerStake",
              "type": "uint256"
            },
            {
              "internalType": "uint256",
              "name": "buyerStake",
              "type": "uint256"
            },
            {
              "internalType": "uint256",
              "name": "totalStake",
              "type": "uint256"
            },
            {
              "internalType": "uint256",
              "name": "postCount",
              "type": "uint256"
            },
            {
              "internalType": "uint256",
              "name": "paymentRequested",
              "type": "uint256"
            },
            {
              "internalType": "uint256",
              "name": "stakeRequested",
              "type": "uint256"
            },
            {
              "internalType": "enum Structures.PostStatus",
              "name": "status",
              "type": "uint8"
            },
            {
              "internalType": "enum Structures.Tokens",
              "name": "tokenId",
              "type": "uint8"
            },
            {
              "internalType": "string",
              "name": "version",
              "type": "string"
            }
          ],
          "internalType": "struct Structures.Feed",
          "name": "",
          "type": "tuple"
        }
      ],
      "stateMutability": "view",
      "type": "function"
    },
    {
      "inputs": [],
      "name": "getFeeds",
      "outputs": [
        {
          "internalType": "address[]",
          "name": "",
          "type": "address[]"
        }
      ],
      "stateMutability": "view",
      "type": "function"
    },
    {
      "inputs": [],
      "name": "getFeedsInfo",
      "outputs": [
        {
          "components": [
            {
              "internalType": "address",
              "name": "contractAddress",
              "type": "address"
            },
            {
              "internalType": "bytes32",
              "name": "operator",
              "type": "bytes32"
            },
            {
              "internalType": "uint256",
              "name": "sellerStake",
              "type": "uint256"
            },
            {
              "internalType": "uint256",
              "name": "buyerStake",
              "type": "uint256"
            },
            {
              "internalType": "uint256",
              "name": "totalStake",
              "type": "uint256"
            },
            {
              "internalType": "uint256",
              "name": "postCount",
              "type": "uint256"
            },
            {
              "internalType": "uint256",
              "name": "paymentRequested",
              "type": "uint256"
            },
            {
              "internalType": "uint256",
              "name": "stakeRequested",
              "type": "uint256"
            },
            {
              "internalType": "enum Structures.PostStatus",
              "name": "status",
              "type": "uint8"
            },
            {
              "internalType": "enum Structures.Tokens",
              "name": "tokenId",
              "type": "uint8"
            },
            {
              "internalType": "string",
              "name": "version",
              "type": "string"
            }
          ],
          "internalType": "struct Structures.Feed[]",
          "name": "",
          "type": "tuple[]"
        }
      ],
      "stateMutability": "view",
      "type": "function"
    },
    {
      "inputs": [
        {
          "internalType": "bytes32",
          "name": "vaultId",
          "type": "bytes32"
        }
      ],
      "name": "getFeedsInfoOwned",
      "outputs": [
        {
          "components": [
            {
              "internalType": "address",
              "name": "contractAddress",
              "type": "address"
            },
            {
              "internalType": "bytes32",
              "name": "operator",
              "type": "bytes32"
            },
            {
              "internalType": "uint256",
              "name": "sellerStake",
              "type": "uint256"
            },
            {
              "internalType": "uint256",
              "name": "buyerStake",
              "type": "uint256"
            },
            {
              "internalType": "uint256",
              "name": "totalStake",
              "type": "uint256"
            },
            {
              "internalType": "uint256",
              "name": "postCount",
              "type": "uint256"
            },
            {
              "internalType": "uint256",
              "name": "paymentRequested",
              "type": "uint256"
            },
            {
              "internalType": "uint256",
              "name": "stakeRequested",
              "type": "uint256"
            },
            {
              "internalType": "enum Structures.PostStatus",
              "name": "status",
              "type": "uint8"
            },
            {
              "internalType": "enum Structures.Tokens",
              "name": "tokenId",
              "type": "uint8"
            },
            {
              "internalType": "string",
              "name": "version",
              "type": "string"
            }
          ],
          "internalType": "struct Structures.Feed[]",
          "name": "",
          "type": "tuple[]"
        }
      ],
      "stateMutability": "view",
      "type": "function"
    },
    {
      "inputs": [
        {
          "internalType": "bytes32",
          "name": "vaultId",
          "type": "bytes32"
        }
      ],
      "name": "getFeedsOwned",
      "outputs": [
        {
          "internalType": "address[]",
          "name": "",
          "type": "address[]"
        }
      ],
      "stateMutability": "view",
      "type": "function"
    },
    {
      "inputs": [
        {
          "internalType": "uint8",
          "name": "tokenId",
          "type": "uint8"
        }
      ],
      "name": "getRouterFee",
      "outputs": [
        {
          "internalType": "uint24",
          "name": "",
          "type": "uint24"
        }
      ],
      "stateMutability": "view",
      "type": "function"
    },
    {
      "inputs": [],
      "name": "identityContract",
      "outputs": [
        {
          "internalType": "address",
          "name": "",
          "type": "address"
        }
      ],
      "stateMutability": "view",
      "type": "function"
    },
    {
      "inputs": [
        {
          "internalType": "address",
          "name": "contractAddress",
          "type": "address"
        }
      ],
      "name": "isContractCreated",
      "outputs": [
        {
          "internalType": "bool",
          "name": "",
          "type": "bool"
        }
      ],
      "stateMutability": "view",
      "type": "function"
    },
    {
      "inputs": [
        {
          "internalType": "address",
          "name": "_feed",
          "type": "address"
        }
      ],
      "name": "isFeed",
      "outputs": [
        {
          "internalType": "bool",
          "name": "",
          "type": "bool"
        }
      ],
      "stateMutability": "view",
      "type": "function"
    },
    {
      "inputs": [],
      "name": "museToken",
      "outputs": [
        {
          "internalType": "address",
          "name": "",
          "type": "address"
        }
      ],
      "stateMutability": "view",
      "type": "function"
    },
    {
      "inputs": [],
      "name": "owner",
      "outputs": [
        {
          "internalType": "address",
          "name": "",
          "type": "address"
        }
      ],
      "stateMutability": "view",
      "type": "function"
    },
    {
      "inputs": [],
      "name": "renounceOwnership",
      "outputs": [],
      "stateMutability": "nonpayable",
      "type": "function"
    },
    {
      "inputs": [],
      "name": "router",
      "outputs": [
        {
          "internalType": "address",
          "name": "",
          "type": "address"
        }
      ],
      "stateMutability": "view",
      "type": "function"
    },
    {
      "inputs": [
        {
          "internalType": "bool",
          "name": "_burnEnabled",
          "type": "bool"
        }
      ],
      "name": "setBurnEnabled",
      "outputs": [],
      "stateMutability": "nonpayable",
      "type": "function"
    },
    {
      "inputs": [
        {
          "internalType": "bytes",
          "name": "_byteCode",
          "type": "bytes"
        }
      ],
      "name": "setFeedByteCode",
      "outputs": [],
      "stateMutability": "nonpayable",
      "type": "function"
    },
    {
      "inputs": [
        {
          "internalType": "uint8",
          "name": "tokenId",
          "type": "uint8"
        },
        {
          "internalType": "uint24",
          "name": "fee",
          "type": "uint24"
        }
      ],
      "name": "setRouterFee",
      "outputs": [],
      "stateMutability": "nonpayable",
      "type": "function"
    },
    {
      "inputs": [
        {
          "internalType": "address",
          "name": "newOwner",
          "type": "address"
        }
      ],
      "name": "transferOwnership",
      "outputs": [],
      "stateMutability": "nonpayable",
      "type": "function"
    },
    {
      "inputs": [],
      "name": "treasuryContract",
      "outputs": [
        {
          "internalType": "address",
          "name": "",
          "type": "address"
        }
      ],
      "stateMutability": "view",
      "type": "function"
    },
    {
      "inputs": [],
      "name": "version",
      "outputs": [
        {
          "internalType": "string",
          "name": "",
          "type": "string"
        }
      ],
      "stateMutability": "view",
      "type": "function"
    },
    {
      "inputs": [],
      "name": "wethToken",
      "outputs": [
        {
          "internalType": "address",
          "name": "",
          "type": "address"
        }
      ],
      "stateMutability": "view",
      "type": "function"
    },
    {
      "stateMutability": "payable",
      "type": "receive"
    }
  ],
  "transactionHash": "0x80170cc810fcba8f73360ace0ab9bc269ffe32618b2d62b732bcfede8776e2ad",
  "args": [
    "0x16d01BC38233f8E18228f3D1c46c36FDaeF5B184",
    "0xd6bde4A86b45AC36f45507eB3658C3f99BBfE79e",
    "0x8CFb40101Fbd1a04b8F460CC5d419E94eFe0c74D"
  ],
  "numDeployments": 10,
  "solcInputHash": "c68c70da44f48ac7b190166a0758b91d",
  "bytecode": "0x608034620000f157601f62001efc38819003918201601f19168301916001600160401b03831184841017620000f657808492606094604052833981010312620000f1576200004d816200010c565b62000069604062000061602085016200010c565b93016200010c565b600080546001600160a01b03198082163390811784556040519691956001600160a01b0395948694859391908416907f8be0079c531659141344cd1fd0a4f28419497f9722a3daafe3b4186f6b6457e09080a360ff1960105416601055168560075416176007551683600654161760065516906008541617600855611dda9081620001228239f35b600080fd5b634e487b7160e01b600052604160045260246000fd5b51906001600160a01b0382168203620000f15756fe6080604052600436101561001b575b361561001957600080fd5b005b60003560e01c8063067bd3b4146101b657806318da0011146101b1578063237b0d3c146101ac5780632ae219b9146101a75780634b57b0be146101a2578063546008371461019d57806354fd4d50146101985780635dc96d161461019357806364bb432c1461018e57806367031bae146101895780636d944e6014610184578063715018a61461017f5780637b2c835f1461017a5780637fe955d4146101755780638da5cb5b14610170578063be22f5461461016b578063ca16721914610166578063cedf3ba214610157578063d223a56414610161578063d570a66d1461015c578063e58fdd0414610157578063e86ef35314610152578063e9318b471461014d578063f2fde38b14610148578063f77800e5146101435763f887ea400361000e57611124565b6110fb565b611034565b610fe0565b610f65565b610e95565b610f20565b610ee7565b610bb6565b610b8d565b610b64565b610ae9565b610aaf565b610a4a565b6109cd565b610878565b610761565b61073e565b610669565b61056d565b610500565b61041a565b6102b0565b6101d9565b346101d45760003660031901126101d4576020600354604051908152f35b600080fd5b346101d45760003660031901126101d4576006546040516001600160a01b039091168152602090f35b634e487b7160e01b600052604160045260246000fd5b90601f8019910116810190811067ffffffffffffffff82111761023a57604052565b610202565b67ffffffffffffffff811161023a57601f01601f191660200190565b9291926102678261023f565b916102756040519384610218565b8294818452818301116101d4578281602093846000960137010152565b9080601f830112156101d4578160206102ad9335910161025b565b90565b346101d4576020806003193601126101d45767ffffffffffffffff6004358181116101d4576102e3903690600401610292565b6102eb61114d565b805191821161023a57610308826103036002546105e7565b6111bc565b8290601f831160011461037a57928261035c9361036a936100199660009261036f575b50508160011b916000199060031b1c1916176002555b60405192839182016006906576322e302e3160d01b81520190565b03601f198101835282610218565b611263565b01519050388061032b565b6002600052601f19831691907f405787fa12a823e0f2b7631cc41b3ba8828b3321ca811111fa75cd3aa3bb5ace9260005b8181106103f257509361036a9361001996936001938361035c98106103d9575b505050811b01600255610341565b015160001960f88460031b161c191690553880806103cb565b9293866001819287860151815501950193016103ab565b6001600160a01b038116036101d457565b346101d45760c03660031901126101d45761001960043561043a81610409565b6104e36024359161044a83610409565b6044359061045782610409565b6064359161046483610409565b6084359261047184610409565b60a4359561047e87610409565b61048661114d565b60018060a01b0392838092816001600160601b0360a01b9716876006541617600655168560075416176007551683600b541617600b551690600954161760095560018060a01b03166001600160601b0360a01b600a541617600a55565b60018060a01b03166001600160601b0360a01b600c541617600c55565b346101d45760003660031901126101d457600b546040516001600160a01b039091168152602090f35b6020908160408183019282815285518094520193019160005b828110610550575050505090565b83516001600160a01b031685529381019392810192600101610542565b346101d4576020806003193601126101d457600435600052600e8152604060002090604051908181845491828152019360005281600020916000905b8282106105d0576105cc856105c081890382610218565b60405191829182610529565b0390f35b8354865294850194600193840193909101906105a9565b90600182811c92168015610617575b602083101461060157565b634e487b7160e01b600052602260045260246000fd5b91607f16916105f6565b60005b8381106106345750506000910152565b8181015183820152602001610624565b9060209161065d81518092818552858086019101610621565b601f01601f1916010190565b346101d45760008060031936011261073b576040519080600180549161068e836105e7565b8086529282811690811561071157506001146106c9575b6105cc856106b581870382610218565b604051918291602083526020830190610644565b9250808352600080516020611d858339815191525b8284106106f95750505081016020016106b5826105cc6106a5565b805460208587018101919091529093019281016106de565b8695506105cc969350602092506106b594915060ff191682840152151560051b82010192936106a5565b80fd5b346101d45760003660031901126101d457602060ff601054166040519015158152f35b346101d4576020806003193601126101d45767ffffffffffffffff906004358281116101d457366023820112156101d4576107a690369060248160040135910161025b565b916107af61114d565b825190811161023a576001916107ce826107c985546105e7565b61121f565b80601f831160011461080657508192936000926107fb575b5050600019600383901b1c191690821b179055005b0151905038806107e6565b90601f198316946108276001600052600080516020611d8583398151915290565b926000905b87821061086157505083859610610848575b505050811b019055005b015160001960f88460031b161c1916905538808061083e565b80878596829496860151815501950193019061082c565b346101d45760003660031901126101d4576008546040516001600160a01b039091168152602090f35b634e487b7160e01b600052602160045260246000fd5b9060088210156108c45752565b6108a1565b9060038210156108c45752565b80516001600160a01b031682526102ad91906020810151602083015260408101516040830152606081015160608301526080810151608083015260a081015160a083015260c081015160c083015260e081015160e083015261094161010080830151908401906108b7565b61095461012080830151908401906108c9565b610140809101519161016080928201520190610644565b602080820190808352835180925260408301928160408460051b8301019501936000915b84831061099f5750505050505090565b90919293949584806109bd600193603f198682030187528a516108d6565b980193019301919493929061098f565b346101d4576020806003193601126101d457600435600052600e81526040600020604051918281835491828152019260005281600020916000905b828210610a33576105cc610a2787610a2281890382610218565b611ce8565b6040519182918261096b565b835485529384019360019384019390910190610a08565b346101d45760008060031936011261073b57610a6461114d565b80546001600160a01b03198116825581906001600160a01b03167f8be0079c531659141344cd1fd0a4f28419497f9722a3daafe3b4186f6b6457e08280a380f35b801515036101d457565b346101d45760203660031901126101d457600435610acc81610aa5565b610ad461114d565b60ff8019601054169115151617601055600080f35b346101d45760003660031901126101d457604051806004549182815260208091019260046000527f8a35acfbc15ff81a39ae7d344fd709f28e8600b4aa8c65c6b64bfe7fe36bd19b916000905b828210610b4d576105cc856105c081890382610218565b835486529485019460019384019390910190610b36565b346101d45760003660031901126101d4576000546040516001600160a01b039091168152602090f35b346101d45760003660031901126101d457600a546040516001600160a01b039091168152602090f35b60603660031901126101d45760043567ffffffffffffffff81116101d457610be2903690600401610292565b602435610bee81610409565b600854604435906001600160a01b03169160405192637276069d60e01b845283610c1f8484600098600485016113d1565b6001600160a01b039591879183919003818589165afa8015610e5e57610cb494610c68948789948a94610e63575b5080610cbd939495602098878a80809a518301019101611409565b9a90918881519101209a8b610c99610c8760075460018060a01b031690565b9c8d9c6040519e8f9430938601611428565b0397610cae601f19998d8b820190528d610218565b146114f4565b1691161461152e565b604051630e2ab4cb60e21b815260048101869052928290849060249082908a165afa918215610e5e57610cfe610d8c93610d7a958a91610e31575b5061157a565b610d11610d096118c9565b3410156115bc565b610d4c8880808034610d3c610d30610d3060065460018060a01b031690565b6001600160a01b031690565b5af1610d466115f9565b50611629565b610d5f610d5a600354611663565b600355565b610d80610d6a611688565b9560405195869384018098611744565b90611744565b03908101835282610218565b519084f091823b15610e2d57916105cc91610de982610de47fb658664a46408e6670a38ec7ea8b7614c9e2916184dff2fad99d3a7a3491ca7d9796821693610dd385611784565b50600052600e602052604060002090565b61175b565b506001600160a01b0382166000908152600f60205260409020610e1390805460ff19166001179055565b60405194848695a26001600160a01b031682526020820190565b8380fd5b610e519150833d8511610e57575b610e498183610218565b810190611565565b38610cf8565b503d610e3f565b6113fd565b819550610cbd939450610e87903d808d833e610e7f8183610218565b810190611383565b979291505095949350610c4d565b346101d45760203660031901126101d457600435610eb281610409565b60018060a01b0316600052600f602052602060ff604060002054166040519015158152f35b6004359060ff821682036101d457565b346101d45760203660031901126101d45760ff610f02610ed7565b16600052600d602052602062ffffff60406000205416604051908152f35b346101d45760203660031901126101d4576105cc610f51600435610f4381610409565b610f4b611856565b506119a8565b6040519182916020835260208301906108d6565b346101d45760003660031901126101d4576040516004805480835260009182526020808401927f8a35acfbc15ff81a39ae7d344fd709f28e8600b4aa8c65c6b64bfe7fe36bd19b92915b828210610fc9576105cc610a2787610a2281890382610218565b835485529384019360019384019390910190610faf565b346101d45760403660031901126101d457610ff9610ed7565b6024359062ffffff82168092036101d45760ff9061101561114d565b16600052600d60205260406000209062ffffff19825416179055600080f35b346101d45760203660031901126101d45760043561105181610409565b61105961114d565b6001600160a01b0390811680156110a757600080546001600160a01b03198116831782559092167f8be0079c531659141344cd1fd0a4f28419497f9722a3daafe3b4186f6b6457e08380a380f35b60405162461bcd60e51b815260206004820152602660248201527f4f776e61626c653a206e6577206f776e657220697320746865207a65726f206160448201526564647265737360d01b6064820152608490fd5b346101d45760003660031901126101d4576009546040516001600160a01b039091168152602090f35b346101d45760003660031901126101d457600c546040516001600160a01b039091168152602090f35b6000546001600160a01b0316330361116157565b606460405162461bcd60e51b815260206004820152602060248201527f4f776e61626c653a2063616c6c6572206973206e6f7420746865206f776e65726044820152fd5b8181106111b0575050565b600081556001016111a5565b90601f82116111c9575050565b6112139160026000527f405787fa12a823e0f2b7631cc41b3ba8828b3321ca811111fa75cd3aa3bb5ace906020601f840160051c83019310611215575b601f0160051c01906111a5565b565b9091508190611206565b90601f821161122c575050565b611213916001600052600080516020611d85833981519152906020601f840160051c8301931061121557601f0160051c01906111a5565b90815167ffffffffffffffff811161023a57600190611286816107c984546105e7565b602080601f83116001146112c15750819293946000926112b6575b5050600019600383901b1c191690821b179055565b0151905038806112a1565b90601f198316956112e26001600052600080516020611d8583398151915290565b926000905b88821061131d5750508385969710611304575b505050811b019055565b015160001960f88460031b161c191690553880806112fa565b8087859682949686015181550195019301906112e7565b909291926113418161023f565b9161134f6040519384610218565b8294828452828201116101d4576020611213930190610621565b9080601f830112156101d45781516102ad92602001611334565b916080838303126101d45782519067ffffffffffffffff918281116101d457836113ae918601611369565b9360208101519360408201519360608301519081116101d4576102ad9201611369565b6113e960409295949395606083526060830190610644565b6001600160a01b0390951660208201520152565b6040513d6000823e3d90fd5b91908260409103126101d4576020825161142281610409565b92015190565b9081526001600160a01b0391821660208083019190915292821660408201529216606083015260a060808301526001805460009390929091611469846105e7565b938460a085015281811690816000146114d1575060011461148c575b5050505090565b6000818152939450600080516020611d858339815191525b8585106114bd5750505060c09250010138808080611485565b805485850160c001529382019381016114a4565b9250505060c0935060ff929192191683830152151560051b010138808080611485565b156114fb57565b60405162461bcd60e51b815260206004820152600b60248201526a57524f4e475f4e4f4e434560a81b6044820152606490fd5b1561153557565b60405162461bcd60e51b815260206004820152600860248201526757524f4e475f544f60c01b6044820152606490fd5b908160209103126101d457516102ad81610aa5565b1561158157565b60405162461bcd60e51b81526020600482015260136024820152721d5cd95c88191bd95cc81b9bdd08195e1a5cdd606a1b6044820152606490fd5b156115c357565b60405162461bcd60e51b815260206004820152600e60248201526d4e4f545f454e4f5547485f46454560901b6044820152606490fd5b3d15611624573d9061160a8261023f565b916116186040519384610218565b82523d6000602084013e565b606090565b1561163057565b60405162461bcd60e51b815260206004820152600b60248201526a10d0531317d1905253115160aa1b6044820152606490fd5b60001981146116725760010190565b634e487b7160e01b600052601160045260246000fd5b604051906000826002549161169c836105e7565b8083529260019081811690811561172257506001146116c3575b5061121392500383610218565b6002600090815291507f405787fa12a823e0f2b7631cc41b3ba8828b3321ca811111fa75cd3aa3bb5ace5b84831061170757506112139350508101602001386116b6565b81935090816020925483858a010152019101909185926116ee565b90506020925061121394915060ff191682840152151560051b820101386116b6565b9061175760209282815194859201610621565b0190565b6102ad916001600160a01b031690611800565b634e487b7160e01b600052603260045260246000fd5b806000526005602052604060002054156000146117fa57600454600160401b81101561023a5760018101806004558110156117f55781907f8a35acfbc15ff81a39ae7d344fd709f28e8600b4aa8c65c6b64bfe7fe36bd19b0155600454906000526005602052604060002055600190565b61176e565b50600090565b6000828152600182016020819052604082205461184f57825492600160401b84101561023a57600184018082558410156117f55784604094828552602085200155549382526020522055600190565b5091505090565b60405190610160820182811067ffffffffffffffff82111761023a57604052606061014083600080825280602083015280604083015280848301528060808301528060a08301528060c08301528060e0830152806101008301526101208201520152565b908160209103126101d4575190565b6006546040516391792d5b60e01b815290602090829060049082906001600160a01b03165afa908115610e5e57600091611901575090565b6102ad915060203d8111611922575b61191a8183610218565b8101906118ba565b503d611910565b908160209103126101d4575160088110156101d45790565b60088210156108c45752565b908160209103126101d4575160038110156101d45790565b60038210156108c45752565b6020818303126101d45780519067ffffffffffffffff82116101d457019080601f830112156101d45781516102ad92602001611334565b6119b0611856565b506119b9611856565b6001600160a01b0390911680825260408051638da5cb5b60e01b8152600492602092909183818681865afa908115610e5e57600091611c9f575b50858401528051635c63ed6960e01b815283818681865afa908115610e5e57600091611c82575b50858201528051634c38d87760e01b815283818681865afa908115610e5e57600091611c65575b506060860152805163048bf3bb60e11b815283818681865afa908115610e5e57600091611c48575b5060808601528051630bc8361760e11b815283818681865afa908115610e5e57600091611c2b575b5060a0860152805163d24e0c8760e01b815283818681865afa908115610e5e57600091611c0e575b5060c0860152805163faeb5e1760e01b815283818681865afa908115610e5e57600091611bf1575b5060e086015280516302734eab60e51b815283818681865afa8015610e5e57611b1791600091611bc4575b506101008701611941565b805163010a38f560e01b81529280848681865afa8015610e5e57600094611b4b928692611b97575b50506101208701611965565b5163054fd4d560e41b815292839182905afa908115610e5e57600091611b76575b5061014082015290565b611b91913d8091833e611b898183610218565b810190611971565b38611b6c565b611bb69250803d10611bbd575b611bae8183610218565b81019061194d565b3880611b3f565b503d611ba4565b611be49150853d8711611bea575b611bdc8183610218565b810190611929565b38611b0c565b503d611bd2565b611c089150843d86116119225761191a8183610218565b38611ae1565b611c259150843d86116119225761191a8183610218565b38611ab9565b611c429150843d86116119225761191a8183610218565b38611a91565b611c5f9150843d86116119225761191a8183610218565b38611a69565b611c7c9150843d86116119225761191a8183610218565b38611a41565b611c999150843d86116119225761191a8183610218565b38611a1a565b611cb69150843d86116119225761191a8183610218565b386119f3565b67ffffffffffffffff811161023a5760051b60200190565b80518210156117f55760209160051b010190565b8051611cf381611cbc565b91611d016040519384610218565b818352601f19611d1083611cbc565b0160005b818110611d6d57505060005b828110611d2d5750505090565b611d6890611d4d6001600160a01b03611d468386611cd4565b51166119a8565b611d578287611cd4565b52611d628186611cd4565b50611663565b611d20565b602090611d78611856565b82828801015201611d1456feb10e2d527612073b26eecdfd717e6a320cf44b4afac2b0732d9fcbe2b7fa0cf6a264697066735822122046867cd71f055fe12d66624a41a6dc93becfab35ecd479e96360a3d6f24371e464736f6c63430008130033",
  "devdoc": {
    "kind": "dev",
    "methods": {
      "owner()": {
        "details": "Returns the address of the current owner."
      },
      "renounceOwnership()": {
        "details": "Leaves the contract without owner. It will not be possible to call `onlyOwner` functions. Can only be called by the current owner. NOTE: Renouncing ownership will leave the contract without an owner, thereby disabling any functionality that is only available to the owner."
      },
      "transferOwnership(address)": {
        "details": "Transfers ownership of the contract to a new account (`newOwner`). Can only be called by the current owner."
      }
    },
    "version": 1
  },
  "userdoc": {
    "kind": "user",
    "methods": {},
    "version": 1
  },
  "storageLayout": {
    "storage": [
      {
        "astId": 7,
        "contract": "contracts/factories/MecenateFeedFactory.sol:MecenateFeedFactory",
        "label": "_owner",
        "offset": 0,
        "slot": "0",
        "type": "t_address"
      },
      {
        "astId": 6061,
        "contract": "contracts/factories/MecenateFeedFactory.sol:MecenateFeedFactory",
        "label": "version",
        "offset": 0,
        "slot": "1",
        "type": "t_string_storage"
      },
      {
        "astId": 6063,
        "contract": "contracts/factories/MecenateFeedFactory.sol:MecenateFeedFactory",
        "label": "feedByteCode",
        "offset": 0,
        "slot": "2",
        "type": "t_bytes_storage"
      },
      {
        "astId": 6065,
        "contract": "contracts/factories/MecenateFeedFactory.sol:MecenateFeedFactory",
        "label": "contractCounter",
        "offset": 0,
        "slot": "3",
        "type": "t_uint256"
      },
      {
        "astId": 6068,
        "contract": "contracts/factories/MecenateFeedFactory.sol:MecenateFeedFactory",
        "label": "feeds",
        "offset": 0,
        "slot": "4",
        "type": "t_struct(AddressSet)4021_storage"
      },
      {
        "astId": 6071,
        "contract": "contracts/factories/MecenateFeedFactory.sol:MecenateFeedFactory",
        "label": "settings",
        "offset": 0,
        "slot": "6",
        "type": "t_struct(FactorySettings)8030_storage"
      },
      {
        "astId": 6075,
        "contract": "contracts/factories/MecenateFeedFactory.sol:MecenateFeedFactory",
        "label": "routerFee",
        "offset": 0,
        "slot": "13",
        "type": "t_mapping(t_uint8,t_uint24)"
      },
      {
        "astId": 6080,
        "contract": "contracts/factories/MecenateFeedFactory.sol:MecenateFeedFactory",
        "label": "feedStore",
        "offset": 0,
        "slot": "14",
        "type": "t_mapping(t_bytes32,t_struct(AddressSet)4021_storage)"
      },
      {
        "astId": 6084,
        "contract": "contracts/factories/MecenateFeedFactory.sol:MecenateFeedFactory",
        "label": "createdContracts",
        "offset": 0,
        "slot": "15",
        "type": "t_mapping(t_address,t_bool)"
      },
      {
        "astId": 6091,
        "contract": "contracts/factories/MecenateFeedFactory.sol:MecenateFeedFactory",
        "label": "burnEnabled",
        "offset": 0,
        "slot": "16",
        "type": "t_bool"
      }
    ],
    "types": {
      "t_address": {
        "encoding": "inplace",
        "label": "address",
        "numberOfBytes": "20"
      },
      "t_array(t_bytes32)dyn_storage": {
        "base": "t_bytes32",
        "encoding": "dynamic_array",
        "label": "bytes32[]",
        "numberOfBytes": "32"
      },
      "t_bool": {
        "encoding": "inplace",
        "label": "bool",
        "numberOfBytes": "1"
      },
      "t_bytes32": {
        "encoding": "inplace",
        "label": "bytes32",
        "numberOfBytes": "32"
      },
      "t_bytes_storage": {
        "encoding": "bytes",
        "label": "bytes",
        "numberOfBytes": "32"
      },
      "t_mapping(t_address,t_bool)": {
        "encoding": "mapping",
        "key": "t_address",
        "label": "mapping(address => bool)",
        "numberOfBytes": "32",
        "value": "t_bool"
      },
      "t_mapping(t_bytes32,t_struct(AddressSet)4021_storage)": {
        "encoding": "mapping",
        "key": "t_bytes32",
        "label": "mapping(bytes32 => struct EnumerableSet.AddressSet)",
        "numberOfBytes": "32",
        "value": "t_struct(AddressSet)4021_storage"
      },
      "t_mapping(t_bytes32,t_uint256)": {
        "encoding": "mapping",
        "key": "t_bytes32",
        "label": "mapping(bytes32 => uint256)",
        "numberOfBytes": "32",
        "value": "t_uint256"
      },
      "t_mapping(t_uint8,t_uint24)": {
        "encoding": "mapping",
        "key": "t_uint8",
        "label": "mapping(uint8 => uint24)",
        "numberOfBytes": "32",
        "value": "t_uint24"
      },
      "t_string_storage": {
        "encoding": "bytes",
        "label": "string",
        "numberOfBytes": "32"
      },
      "t_struct(AddressSet)4021_storage": {
        "encoding": "inplace",
        "label": "struct EnumerableSet.AddressSet",
        "members": [
          {
            "astId": 4020,
            "contract": "contracts/factories/MecenateFeedFactory.sol:MecenateFeedFactory",
            "label": "_inner",
            "offset": 0,
            "slot": "0",
            "type": "t_struct(Set)3706_storage"
          }
        ],
        "numberOfBytes": "64"
      },
      "t_struct(FactorySettings)8030_storage": {
        "encoding": "inplace",
        "label": "struct Structures.FactorySettings",
        "members": [
          {
            "astId": 8017,
            "contract": "contracts/factories/MecenateFeedFactory.sol:MecenateFeedFactory",
            "label": "treasuryContract",
            "offset": 0,
            "slot": "0",
            "type": "t_address"
          },
          {
            "astId": 8019,
            "contract": "contracts/factories/MecenateFeedFactory.sol:MecenateFeedFactory",
            "label": "usersModuleContract",
            "offset": 0,
            "slot": "1",
            "type": "t_address"
          },
          {
            "astId": 8021,
            "contract": "contracts/factories/MecenateFeedFactory.sol:MecenateFeedFactory",
            "label": "verifierContract",
            "offset": 0,
            "slot": "2",
            "type": "t_address"
          },
          {
            "astId": 8023,
            "contract": "contracts/factories/MecenateFeedFactory.sol:MecenateFeedFactory",
            "label": "museToken",
            "offset": 0,
            "slot": "3",
            "type": "t_address"
          },
          {
            "astId": 8025,
            "contract": "contracts/factories/MecenateFeedFactory.sol:MecenateFeedFactory",
            "label": "daiToken",
            "offset": 0,
            "slot": "4",
            "type": "t_address"
          },
          {
            "astId": 8027,
            "contract": "contracts/factories/MecenateFeedFactory.sol:MecenateFeedFactory",
            "label": "wethToken",
            "offset": 0,
            "slot": "5",
            "type": "t_address"
          },
          {
            "astId": 8029,
            "contract": "contracts/factories/MecenateFeedFactory.sol:MecenateFeedFactory",
            "label": "router",
            "offset": 0,
            "slot": "6",
            "type": "t_address"
          }
        ],
        "numberOfBytes": "224"
      },
      "t_struct(Set)3706_storage": {
        "encoding": "inplace",
        "label": "struct EnumerableSet.Set",
        "members": [
          {
            "astId": 3701,
            "contract": "contracts/factories/MecenateFeedFactory.sol:MecenateFeedFactory",
            "label": "_values",
            "offset": 0,
            "slot": "0",
            "type": "t_array(t_bytes32)dyn_storage"
          },
          {
            "astId": 3705,
            "contract": "contracts/factories/MecenateFeedFactory.sol:MecenateFeedFactory",
            "label": "_indexes",
            "offset": 0,
            "slot": "1",
            "type": "t_mapping(t_bytes32,t_uint256)"
          }
        ],
        "numberOfBytes": "64"
      },
      "t_uint24": {
        "encoding": "inplace",
        "label": "uint24",
        "numberOfBytes": "3"
      },
      "t_uint256": {
        "encoding": "inplace",
        "label": "uint256",
        "numberOfBytes": "32"
      },
      "t_uint8": {
        "encoding": "inplace",
        "label": "uint8",
        "numberOfBytes": "1"
      }
    }
  }
}