{
  "address": "0x2322eea2231c0f5C0532FB45F02baFf9FB97F78A",
  "abi": [
    {
      "anonymous": false,
      "inputs": [
        {
          "indexed": true,
          "internalType": "address",
          "name": "previousOwner",
          "type": "address"
        },
        {
          "indexed": true,
          "internalType": "address",
          "name": "newOwner",
          "type": "address"
        }
      ],
      "name": "OwnershipTransferred",
      "type": "event"
    },
    {
      "inputs": [
        {
          "internalType": "address",
          "name": "token",
          "type": "address"
        },
        {
          "internalType": "uint256",
          "name": "amount",
          "type": "uint256"
        }
      ],
      "name": "addERC20Funds",
      "outputs": [],
      "stateMutability": "nonpayable",
      "type": "function"
    },
    {
      "inputs": [],
      "name": "addFunds",
      "outputs": [],
      "stateMutability": "payable",
      "type": "function"
    },
    {
      "inputs": [
        {
          "internalType": "address",
          "name": "tokenA",
          "type": "address"
        },
        {
          "internalType": "address",
          "name": "tokenB",
          "type": "address"
        },
        {
          "internalType": "uint24",
          "name": "fee",
          "type": "uint24"
        },
        {
          "internalType": "uint256",
          "name": "amountA",
          "type": "uint256"
        },
        {
          "internalType": "uint256",
          "name": "amountB",
          "type": "uint256"
        },
        {
          "internalType": "int24",
          "name": "tickLower",
          "type": "int24"
        },
        {
          "internalType": "int24",
          "name": "tickUpper",
          "type": "int24"
        }
      ],
      "name": "addLiquidity",
      "outputs": [],
      "stateMutability": "nonpayable",
      "type": "function"
    },
    {
      "inputs": [
        {
          "internalType": "address",
          "name": "nativeAddr",
          "type": "address"
        },
        {
          "internalType": "contract ISwapRouter",
          "name": "swapRouterAddr",
          "type": "address"
        }
      ],
      "name": "configLiquidityProvider",
      "outputs": [],
      "stateMutability": "nonpayable",
      "type": "function"
    },
    {
      "inputs": [
        {
          "internalType": "address",
          "name": "token",
          "type": "address"
        },
        {
          "internalType": "uint256",
          "name": "amount",
          "type": "uint256"
        }
      ],
      "name": "customApprove",
      "outputs": [],
      "stateMutability": "nonpayable",
      "type": "function"
    },
    {
      "inputs": [],
      "name": "distributableBalance",
      "outputs": [
        {
          "internalType": "uint256",
          "name": "",
          "type": "uint256"
        }
      ],
      "stateMutability": "view",
      "type": "function"
    },
    {
      "inputs": [
        {
          "internalType": "address",
          "name": "",
          "type": "address"
        }
      ],
      "name": "distributableERC20Balance",
      "outputs": [
        {
          "internalType": "uint256",
          "name": "",
          "type": "uint256"
        }
      ],
      "stateMutability": "view",
      "type": "function"
    },
    {
      "inputs": [
        {
          "internalType": "address",
          "name": "usersContract",
          "type": "address"
        }
      ],
      "name": "distribute",
      "outputs": [],
      "stateMutability": "nonpayable",
      "type": "function"
    },
    {
      "inputs": [
        {
          "internalType": "address",
          "name": "token",
          "type": "address"
        },
        {
          "internalType": "address",
          "name": "usersContract",
          "type": "address"
        }
      ],
      "name": "distributeERC20",
      "outputs": [],
      "stateMutability": "nonpayable",
      "type": "function"
    },
    {
      "inputs": [],
      "name": "fixedFee",
      "outputs": [
        {
          "internalType": "uint256",
          "name": "",
          "type": "uint256"
        }
      ],
      "stateMutability": "view",
      "type": "function"
    },
    {
      "inputs": [],
      "name": "getDistributionBalance",
      "outputs": [
        {
          "internalType": "uint256",
          "name": "",
          "type": "uint256"
        }
      ],
      "stateMutability": "view",
      "type": "function"
    },
    {
      "inputs": [
        {
          "internalType": "address",
          "name": "token",
          "type": "address"
        }
      ],
      "name": "getDistributionERC20Balance",
      "outputs": [
        {
          "internalType": "uint256",
          "name": "",
          "type": "uint256"
        }
      ],
      "stateMutability": "view",
      "type": "function"
    },
    {
      "inputs": [
        {
          "internalType": "address",
          "name": "user",
          "type": "address"
        }
      ],
      "name": "getReward",
      "outputs": [
        {
          "internalType": "uint256",
          "name": "",
          "type": "uint256"
        }
      ],
      "stateMutability": "view",
      "type": "function"
    },
    {
      "inputs": [
        {
          "internalType": "address",
          "name": "token",
          "type": "address"
        },
        {
          "internalType": "address",
          "name": "user",
          "type": "address"
        }
      ],
      "name": "getRewardERC20",
      "outputs": [
        {
          "internalType": "uint256",
          "name": "",
          "type": "uint256"
        }
      ],
      "stateMutability": "view",
      "type": "function"
    },
    {
      "inputs": [],
      "name": "globalFee",
      "outputs": [
        {
          "internalType": "uint256",
          "name": "",
          "type": "uint256"
        }
      ],
      "stateMutability": "view",
      "type": "function"
    },
    {
      "inputs": [],
      "name": "lastDistributed",
      "outputs": [
        {
          "internalType": "uint256",
          "name": "",
          "type": "uint256"
        }
      ],
      "stateMutability": "view",
      "type": "function"
    },
    {
      "inputs": [],
      "name": "native",
      "outputs": [
        {
          "internalType": "address",
          "name": "",
          "type": "address"
        }
      ],
      "stateMutability": "view",
      "type": "function"
    },
    {
      "inputs": [],
      "name": "owner",
      "outputs": [
        {
          "internalType": "address",
          "name": "",
          "type": "address"
        }
      ],
      "stateMutability": "view",
      "type": "function"
    },
    {
      "inputs": [],
      "name": "ownerFee",
      "outputs": [
        {
          "internalType": "uint256",
          "name": "",
          "type": "uint256"
        }
      ],
      "stateMutability": "view",
      "type": "function"
    },
    {
      "inputs": [],
      "name": "positionManager",
      "outputs": [
        {
          "internalType": "contract INonfungiblePositionManager",
          "name": "",
          "type": "address"
        }
      ],
      "stateMutability": "view",
      "type": "function"
    },
    {
      "inputs": [],
      "name": "renounceOwnership",
      "outputs": [],
      "stateMutability": "nonpayable",
      "type": "function"
    },
    {
      "inputs": [
        {
          "internalType": "uint256",
          "name": "_fixedFee",
          "type": "uint256"
        }
      ],
      "name": "setFixedFee",
      "outputs": [],
      "stateMutability": "nonpayable",
      "type": "function"
    },
    {
      "inputs": [
        {
          "internalType": "uint256",
          "name": "_globalFee",
          "type": "uint256"
        }
      ],
      "name": "setGlobalFee",
      "outputs": [],
      "stateMutability": "nonpayable",
      "type": "function"
    },
    {
      "inputs": [
        {
          "internalType": "bool",
          "name": "_splitLiquidity",
          "type": "bool"
        }
      ],
      "name": "setSplitLiqudity",
      "outputs": [
        {
          "internalType": "bool",
          "name": "",
          "type": "bool"
        }
      ],
      "stateMutability": "nonpayable",
      "type": "function"
    },
    {
      "inputs": [
        {
          "internalType": "contract ISwapRouter",
          "name": "swapRouterAddress",
          "type": "address"
        }
      ],
      "name": "setSwapRouter",
      "outputs": [],
      "stateMutability": "nonpayable",
      "type": "function"
    },
    {
      "inputs": [],
      "name": "splitLiquidity",
      "outputs": [
        {
          "internalType": "bool",
          "name": "",
          "type": "bool"
        }
      ],
      "stateMutability": "view",
      "type": "function"
    },
    {
      "inputs": [
        {
          "internalType": "address",
          "name": "token0",
          "type": "address"
        },
        {
          "internalType": "address",
          "name": "token1",
          "type": "address"
        },
        {
          "internalType": "address",
          "name": "token2",
          "type": "address"
        },
        {
          "internalType": "uint24",
          "name": "fee",
          "type": "uint24"
        },
        {
          "internalType": "uint24",
          "name": "fee2",
          "type": "uint24"
        }
      ],
      "name": "swapAndBurn",
      "outputs": [],
      "stateMutability": "nonpayable",
      "type": "function"
    },
    {
      "inputs": [],
      "name": "swapRouter",
      "outputs": [
        {
          "internalType": "contract ISwapRouter",
          "name": "",
          "type": "address"
        }
      ],
      "stateMutability": "view",
      "type": "function"
    },
    {
      "inputs": [
        {
          "internalType": "address",
          "name": "token1",
          "type": "address"
        },
        {
          "internalType": "address",
          "name": "token2",
          "type": "address"
        },
        {
          "internalType": "uint256",
          "name": "amount",
          "type": "uint256"
        },
        {
          "internalType": "uint24",
          "name": "fee",
          "type": "uint24"
        },
        {
          "internalType": "address",
          "name": "receiver",
          "type": "address"
        }
      ],
      "name": "swapTokensForTokens",
      "outputs": [
        {
          "internalType": "uint256",
          "name": "",
          "type": "uint256"
        }
      ],
      "stateMutability": "nonpayable",
      "type": "function"
    },
    {
      "inputs": [
        {
          "internalType": "address",
          "name": "token1",
          "type": "address"
        },
        {
          "internalType": "address",
          "name": "token2",
          "type": "address"
        },
        {
          "internalType": "uint256",
          "name": "amount",
          "type": "uint256"
        },
        {
          "internalType": "address",
          "name": "receiver",
          "type": "address"
        }
      ],
      "name": "swapTxT",
      "outputs": [
        {
          "internalType": "uint256",
          "name": "",
          "type": "uint256"
        }
      ],
      "stateMutability": "nonpayable",
      "type": "function"
    },
    {
      "inputs": [
        {
          "internalType": "address",
          "name": "receiver",
          "type": "address"
        }
      ],
      "name": "takeReward",
      "outputs": [
        {
          "internalType": "uint256",
          "name": "",
          "type": "uint256"
        }
      ],
      "stateMutability": "nonpayable",
      "type": "function"
    },
    {
      "inputs": [
        {
          "internalType": "address",
          "name": "token",
          "type": "address"
        },
        {
          "internalType": "address",
          "name": "receiver",
          "type": "address"
        }
      ],
      "name": "takeRewardERC20",
      "outputs": [
        {
          "internalType": "uint256",
          "name": "",
          "type": "uint256"
        }
      ],
      "stateMutability": "nonpayable",
      "type": "function"
    },
    {
      "inputs": [
        {
          "internalType": "address",
          "name": "newOwner",
          "type": "address"
        }
      ],
      "name": "transferOwnership",
      "outputs": [],
      "stateMutability": "nonpayable",
      "type": "function"
    },
    {
      "inputs": [
        {
          "internalType": "address",
          "name": "",
          "type": "address"
        }
      ],
      "name": "userReward",
      "outputs": [
        {
          "internalType": "uint256",
          "name": "",
          "type": "uint256"
        }
      ],
      "stateMutability": "view",
      "type": "function"
    },
    {
      "inputs": [
        {
          "internalType": "address",
          "name": "",
          "type": "address"
        },
        {
          "internalType": "address",
          "name": "",
          "type": "address"
        }
      ],
      "name": "userRewardERC20",
      "outputs": [
        {
          "internalType": "uint256",
          "name": "",
          "type": "uint256"
        }
      ],
      "stateMutability": "view",
      "type": "function"
    },
    {
      "stateMutability": "payable",
      "type": "receive"
    }
  ],
  "transactionHash": "0xfc47fb5bb828d76e9356c0ff3beb45e65db1e0b80b8d50b4b57da6ef67106d3c",
  "args": [],
  "numDeployments": 5,
  "solcInputHash": "0a98a6c484dcce6a1f360d0b4510216c",
  "bytecode": "0x6080806040523461006b5760008054336001600160a01b0319821681178355916001600160a01b03909116907f8be0079c531659141344cd1fd0a4f28419497f9722a3daafe3b4186f6b6457e09080a36064600455662386f26fc10000600555611ac190816100718239f35b600080fdfe608080604052600436101561002c575b50361561001b57600080fd5b610027346007546116a8565b600755005b600090813560e01c9081620a74be146115855750806305f6059d1461156057806310027a28146113cd57806311b0b42d146115375780631fce07d514611519578063291206f6146114f65780632ad2e08c1461146957806337de8106146114465780634127365714611406578063568dbccf146113cd57806363453ae11461122a578063674ee49d146111df5780636962a86314610f7d578063715018a614610f235780637450bce914610d5b578063791b98bc14610efa578063808fc20614610edc57806385258b4b14610e095780638da5cb5b14610de25780638f3a899a14610d9757806391792d5b14610d79578063932f9f8a14610d5b578063a26759cb14610d3d578063af2c15c414610b75578063afbce84e146108c2578063bba5f3b1146106ea578063bcb7557f14610699578063c00007b014610660578063c31c9c0714610637578063d1a06cf814610486578063d5b2a01a14610468578063e26629431461032b578063f0c3b912146102c7578063f2fde38b146102015763ffdf2bcb0361000f57346101fe5760403660031901126101fe576101ce6115bb565b6101d66115f9565b6001600160a01b03168152600b6020526040812080546101f990602435906116a8565b905580f35b80fd5b50346101fe5760203660031901126101fe5761021b6115bb565b6102236115f9565b6001600160a01b0390811690811561027357600054826001600160601b0360a01b821617600055167f8be0079c531659141344cd1fd0a4f28419497f9722a3daafe3b4186f6b6457e0600080a380f35b60405162461bcd60e51b815260206004820152602660248201527f4f776e61626c653a206e6577206f776e657220697320746865207a65726f206160448201526564647265737360d01b6064820152608490fd5b50346101fe5760a03660031901126101fe576102e16115bb565b6102e96115d1565b6102f16115e7565b91608435906001600160a01b03821682036103265760209361031e936103156115f9565b604435926116b5565b604051908152f35b600080fd5b50346101fe5760403660031901126101fe57806103466115bb565b8161034f6115d1565b6103576115f9565b60018060a01b03809316600354906044856001600160601b0360a01b948386861617600355168060015495861617600155600160a01b60ff60a01b1987541617865560405195869384928263095ea7b360e01b98898652161760048401528160248401526020998a9616175af191821561045d578492610440575b50604483600354169360015416918660405195869485938452600484015260001960248401525af1801561043557610408578280f35b8161042792903d1061042e575b61041f818361166e565b810190611690565b5038808280f35b503d610415565b6040513d85823e3d90fd5b61045690833d851161042e5761041f818361166e565b50386103d2565b6040513d87823e3d90fd5b50346101fe57806003193601126101fe576020600854604051908152f35b50346101fe5760403660031901126101fe576104a06115bb565b6104a86115d1565b9060018060a01b03809116808452602091600b83526104cc60408620541515611841565b818552600b83528061050c6127106104eb60408920546004549061188d565b046104f8816008546116a8565b600855848852600b86526040882054611834565b9416906040519463b5cb15f760e01b86528486600481865afa95861561062c5787966105fb575b5085610549916105448215156118c0565b6118a0565b91865b8681106105645787600b878783525280604081205580f35b60405163c6e064ad60e01b815260048101829052908682602481865afa9182156105f0576105be9285918b916105c3575b50168952600a87526040892086600052875260406000206105b78682546116a8565b905561190c565b61054c565b6105e39150893d8b116105e9575b6105db818361166e565b81019061191b565b38610595565b503d6105d1565b6040513d8b823e3d90fd5b9095508481813d8311610625575b610613818361166e565b81010312610326575194610549610533565b503d610609565b6040513d89823e3d90fd5b50346101fe57806003193601126101fe576001546040516001600160a01b039091168152602090f35b50346101fe5760203660031901126101fe576020906040906001600160a01b036106886115bb565b168152600983522054604051908152f35b50346101fe5760403660031901126101fe576106b36115bb565b906001600160a01b0390604090826106c96115d1565b168152600a6020522091166000526020526020604060002054604051908152f35b50346101fe5760803660031901126101fe576107046115bb565b61070c6115d1565b6064356001600160a01b03811692604435918490036103265761072d6115f9565b60015460405163095ea7b360e01b81526001600160a01b03918216600482015260248101849052911691906020816044816000875af18015610881576108a3575b50600a420180421161088d576000946020946040519461078d86611651565b85526001600160a01b03908116868601908152610bb86040808801918252606088019485526080880195865260a0880196875260c088018a815260e089018b8152600154925163414bf38960e01b81529951861660048b01529351851660248a0152915162ffffff16604489015293518316606488015293516084870152935160a4860152915160c48501529151811660e48401529193849261010492849291165af19081156108815760009161084a575b602082604051908152f35b6020813d602011610879575b816108636020938361166e565b8101031261087557519050602061083f565b5080fd5b3d9150610856565b6040513d6000823e3d90fd5b634e487b7160e01b600052601160045260246000fd5b6108bb9060203d60201161042e5761041f818361166e565b508461076e565b50346101fe5760e03660031901126101fe576108dc6115bb565b6108e46115d1565b6044359062ffffff82168092036103265760a4358060020b8091036103265760c435918260020b8093036103265761091a6115f9565b60025460405163095ea7b360e01b81526001600160a01b03918216600482015260643560248201529516946020816044818a8a5af1801561062c57610b56575b5060025460405163095ea7b360e01b81526001600160a01b039182166004820152608435602482018190529592909116906020816044818b865af18015610b4b57610b2c575b5060405195610160870187811067ffffffffffffffff821117610b16576040528652602086015260408501526060840152608083015260643560a083015260c08201528160e0820152816101008201523061012082015242610140820152608061014061016460018060a01b036002541693856040519586948593634418b22b60e11b855260018060a01b03815116600486015260018060a01b03602082015116602486015262ffffff6040820151166044860152606081015160020b60648601528781015160020b608486015260a081015160a486015260c081015160c486015260e081015160e486015261010081015161010486015260018060a01b036101208201511661012486015201516101448401525af18015610b0b57610ac4575080f35b6080813d8211610b03575b81610adc6080938361166e565b8101031261087557602001516fffffffffffffffffffffffffffffffff8116036101fe5780f35b3d9150610acf565b6040513d84823e3d90fd5b634e487b7160e01b600052604160045260246000fd5b610b449060203d60201161042e5761041f818361166e565b50386109a0565b6040513d8a823e3d90fd5b610b6e9060203d60201161042e5761041f818361166e565b503861095a565b50346101fe5760403660031901126101fe57610b8f6115bb565b610b976115d1565b91338152602092600a8452604082209260018060a01b031692836000528452604060002054928315610d0257338352600a8552604080842060008381529087528190208490555163a9059cbb60e01b8187019081526001600160a01b039390931660248201526044808201869052815292610c1360648561166e565b60405192604084019084821067ffffffffffffffff831117610b1657610c749583926040528886527f5361666545524332303a206c6f772d6c6576656c2063616c6c206661696c656489870152519082855af1610c6e61193a565b9161197a565b805190838215928315610cea575b50505015610c9257604051908152f35b60405162461bcd60e51b815260048101839052602a60248201527f5361666545524332303a204552433230206f7065726174696f6e20646964206e6044820152691bdd081cdd58d8d9595960b21b6064820152608490fd5b610cfa9350820181019101611690565b388381610c82565b60405162461bcd60e51b81526004810186905260136024820152724e6f2072657761726420617661696c61626c6560681b6044820152606490fd5b50806003193601126101fe57610d55346007546116a8565b60075580f35b50346101fe57806003193601126101fe576020600754604051908152f35b50346101fe57806003193601126101fe576020600554604051908152f35b50346101fe5760203660031901126101fe5760043580151580910361087557610dbe6115f9565b815460ff60a01b191660a09190911b60ff60a01b1617905560405160018152602090f35b50346101fe57806003193601126101fe57546040516001600160a01b039091168152602090f35b50346101fe5760403660031901126101fe57610e6f610e266115bb565b610e2e6115f9565b60015460405163095ea7b360e01b8082526001600160a01b039283166004830152602480359083015260209493831693919290918590849081906044820190565b038189885af1908115610ed1578593604492610eb4575b5060015416918660405195869485938452600484015260001960248401525af1801561043557610408578280f35b610eca90853d871161042e5761041f818361166e565b5038610e86565b6040513d88823e3d90fd5b50346101fe57806003193601126101fe576020600454604051908152f35b50346101fe57806003193601126101fe576002546040516001600160a01b039091168152602090f35b50346101fe57806003193601126101fe57610f3c6115f9565b600080546001600160a01b0319811682556001600160a01b03167f8be0079c531659141344cd1fd0a4f28419497f9722a3daafe3b4186f6b6457e08280a380f35b50346101fe5760a03660031901126101fe57610f976115bb565b90610fa06115d1565b6001600160a01b0360443581811692918382036111db57610fbf6115e7565b916084359162ffffff831683036111d757610fd86115f9565b6040516370a0823160e01b81523060048201526020989089816024818686165afa9081156105f05789916111a6575b5060015460405163095ea7b360e01b8082529185166001600160a01b03166004820152602481018390529096908b816044818e888a165af190811561119b5761106894939291611060918e8e9261117e575b5050611a4e565b8830936116b5565b9384156111465760015460405191825282166001600160a01b03166004820152602481018590529697889795949392918190879060449082908c908a165af18015610b4b576110c9966110c2928a92611129575050611a4e565b30936116b5565b90803b1561112557602483926040519485938492630852cd8d60e31b845260048401525af18015610b0b576110fc575080f35b67ffffffffffffffff81116111115760405280f35b634e487b7160e01b82526041600452602482fd5b5050fd5b61113f9250803d1061042e5761041f818361166e565b3880611059565b60405162461bcd60e51b8152600481018a9052601060248201526f139bc81d1bdad95b9cc8189bdd59da1d60821b6044820152606490fd5b6111949250803d1061042e5761041f818361166e565b388e611059565b6040513d8d823e3d90fd5b90508981813d83116111d0575b6111bd818361166e565b810103126111cc575138611007565b8880fd5b503d6111b3565b8680fd5b8480fd5b50346101fe5760403660031901126101fe5760406020916111fe6115bb565b6112066115d1565b6001600160a01b039182168352600a85528383209116825283522054604051908152f35b50346101fe57602080600319360112610875576112456115bb565b6201518061125560065442611834565b106113885761129060075461126b811515611841565b61271061127a6004548361188d565b0490611288826008546116a8565b600855611834565b60405163b5cb15f760e01b8152926001600160a01b039283169290918285600481875afa948515610ed1578695611353575b50846112d3916105448215156118c0565b92855b8581106112e95786426006558060075580f35b60405163c6e064ad60e01b815260048101829052908482602481865afa918215610b4b576113319285918a91611336575b5016885260098552604088206105b78782546116a8565b6112d6565b61134d9150873d89116105e9576105db818361166e565b3861131a565b9094508281813d8311611381575b61136b818361166e565b8101031261137d5751936112d36112c2565b8580fd5b503d611361565b60405162461bcd60e51b815260048101839052601e60248201527f43616e206f6e6c792064697374726962757465206f6e636520612064617900006044820152606490fd5b50346101fe5760203660031901126101fe576020906040906001600160a01b036113f56115bb565b168152600b83522054604051908152f35b50346101fe5760203660031901126101fe576114206115bb565b6114286115f9565b60018060a01b03166001600160601b0360a01b600154161760015580f35b50346101fe5760203660031901126101fe576114606115f9565b60043560055580f35b50346101fe5760203660031901126101fe57808080806114876115bb565b338252600960205260408220805496905585906001600160a01b03165af16114ad61193a565b50156114be57602090604051908152f35b60405162461bcd60e51b815260206004820152601060248201526f2a3930b739b332b9103330b4b632b21760811b6044820152606490fd5b50346101fe5760203660031901126101fe576115106115f9565b60043560045580f35b50346101fe57806003193601126101fe576020600654604051908152f35b50346101fe57806003193601126101fe576003546040516001600160a01b039091168152602090f35b50346101fe57806003193601126101fe5760ff6020915460a01c166040519015158152f35b905034610875576020366003190112610875576020916040906001600160a01b036115ae6115bb565b1681526009845220548152f35b600435906001600160a01b038216820361032657565b602435906001600160a01b038216820361032657565b6064359062ffffff8216820361032657565b6000546001600160a01b0316330361160d57565b606460405162461bcd60e51b815260206004820152602060248201527f4f776e61626c653a2063616c6c6572206973206e6f7420746865206f776e65726044820152fd5b610100810190811067ffffffffffffffff821117610b1657604052565b90601f8019910116810190811067ffffffffffffffff821117610b1657604052565b90816020910312610326575180151581036103265790565b9190820180921161088d57565b6001546040805163095ea7b360e01b81526001600160a01b039283166004820152602481018790529096949592909116906020816044816000865af180156118295761180a575b50600a42019182421161088d576020946101049360009289519461171f86611651565b85526001600160a01b0396871688860190815262ffffff998a168b8701908152938816606087019081526080870193845260a0870192835260c0870186815260e088018781526001548e5163414bf38960e01b815299518c1660048b015293518b1660248a01529551909b1660448801525188166064870152915160848601525160a4850152965160c484015251841660e483015290948593849291165af191821561180057506000916117d1575090565b90506020813d6020116117f8575b816117ec6020938361166e565b81010312610326575190565b3d91506117df565b513d6000823e3d90fd5b6118229060203d60201161042e5761041f818361166e565b50386116fc565b87513d6000823e3d90fd5b9190820391821161088d57565b1561184857565b60405162461bcd60e51b815260206004820152601860248201527f4e6f2064697374726962757461626c652062616c616e636500000000000000006044820152606490fd5b8181029291811591840414171561088d57565b81156118aa570490565b634e487b7160e01b600052601260045260246000fd5b156118c757565b60405162461bcd60e51b815260206004820152601960248201527f4e6f20757365727320746f206469737472696275746520746f000000000000006044820152606490fd5b600019811461088d5760010190565b9081602091031261032657516001600160a01b03811681036103265790565b3d15611975573d9067ffffffffffffffff8211610b165760405191611969601f8201601f19166020018461166e565b82523d6000602084013e565b606090565b919290156119dc575081511561198e575090565b3b156119975790565b60405162461bcd60e51b815260206004820152601d60248201527f416464726573733a2063616c6c20746f206e6f6e2d636f6e74726163740000006044820152606490fd5b8251909150156119ef5750805190602001fd5b6040519062461bcd60e51b82528160208060048301528251908160248401526000935b828510611a35575050604492506000838284010152601f80199101168101030190fd5b8481018201518686016044015293810193859350611a12565b15611a5557565b60405162461bcd60e51b815260206004820152600e60248201526d105c1c1c9bdd994819985a5b195960921b6044820152606490fdfea2646970667358221220bb8fd75b1e2b67f9de6f2bf9d1cb595bbfcf35d14c7aa9b2f53826fdbecef0a064736f6c63430008130033",
  "devdoc": {
    "kind": "dev",
    "methods": {
      "owner()": {
        "details": "Returns the address of the current owner."
      },
      "renounceOwnership()": {
        "details": "Leaves the contract without owner. It will not be possible to call `onlyOwner` functions. Can only be called by the current owner. NOTE: Renouncing ownership will leave the contract without an owner, thereby disabling any functionality that is only available to the owner."
      },
      "transferOwnership(address)": {
        "details": "Transfers ownership of the contract to a new account (`newOwner`). Can only be called by the current owner."
      }
    },
    "version": 1
  },
  "userdoc": {
    "kind": "user",
    "methods": {},
    "version": 1
  },
  "storageLayout": {
    "storage": [
      {
        "astId": 2963,
        "contract": "contracts/treasury/MecenateTreasury.sol:MecenateTreasury",
        "label": "_owner",
        "offset": 0,
        "slot": "0",
        "type": "t_address"
      },
      {
        "astId": 13081,
        "contract": "contracts/treasury/MecenateTreasury.sol:MecenateTreasury",
        "label": "splitLiquidity",
        "offset": 20,
        "slot": "0",
        "type": "t_bool"
      },
      {
        "astId": 13084,
        "contract": "contracts/treasury/MecenateTreasury.sol:MecenateTreasury",
        "label": "swapRouter",
        "offset": 0,
        "slot": "1",
        "type": "t_contract(ISwapRouter)6683"
      },
      {
        "astId": 13087,
        "contract": "contracts/treasury/MecenateTreasury.sol:MecenateTreasury",
        "label": "positionManager",
        "offset": 0,
        "slot": "2",
        "type": "t_contract(INonfungiblePositionManager)6522"
      },
      {
        "astId": 13089,
        "contract": "contracts/treasury/MecenateTreasury.sol:MecenateTreasury",
        "label": "native",
        "offset": 0,
        "slot": "3",
        "type": "t_address"
      },
      {
        "astId": 14063,
        "contract": "contracts/treasury/MecenateTreasury.sol:MecenateTreasury",
        "label": "globalFee",
        "offset": 0,
        "slot": "4",
        "type": "t_uint256"
      },
      {
        "astId": 14066,
        "contract": "contracts/treasury/MecenateTreasury.sol:MecenateTreasury",
        "label": "fixedFee",
        "offset": 0,
        "slot": "5",
        "type": "t_uint256"
      },
      {
        "astId": 14068,
        "contract": "contracts/treasury/MecenateTreasury.sol:MecenateTreasury",
        "label": "lastDistributed",
        "offset": 0,
        "slot": "6",
        "type": "t_uint256"
      },
      {
        "astId": 14070,
        "contract": "contracts/treasury/MecenateTreasury.sol:MecenateTreasury",
        "label": "distributableBalance",
        "offset": 0,
        "slot": "7",
        "type": "t_uint256"
      },
      {
        "astId": 14072,
        "contract": "contracts/treasury/MecenateTreasury.sol:MecenateTreasury",
        "label": "ownerFee",
        "offset": 0,
        "slot": "8",
        "type": "t_uint256"
      },
      {
        "astId": 14076,
        "contract": "contracts/treasury/MecenateTreasury.sol:MecenateTreasury",
        "label": "userReward",
        "offset": 0,
        "slot": "9",
        "type": "t_mapping(t_address,t_uint256)"
      },
      {
        "astId": 14082,
        "contract": "contracts/treasury/MecenateTreasury.sol:MecenateTreasury",
        "label": "userRewardERC20",
        "offset": 0,
        "slot": "10",
        "type": "t_mapping(t_address,t_mapping(t_address,t_uint256))"
      },
      {
        "astId": 14086,
        "contract": "contracts/treasury/MecenateTreasury.sol:MecenateTreasury",
        "label": "distributableERC20Balance",
        "offset": 0,
        "slot": "11",
        "type": "t_mapping(t_address,t_uint256)"
      }
    ],
    "types": {
      "t_address": {
        "encoding": "inplace",
        "label": "address",
        "numberOfBytes": "20"
      },
      "t_bool": {
        "encoding": "inplace",
        "label": "bool",
        "numberOfBytes": "1"
      },
      "t_contract(INonfungiblePositionManager)6522": {
        "encoding": "inplace",
        "label": "contract INonfungiblePositionManager",
        "numberOfBytes": "20"
      },
      "t_contract(ISwapRouter)6683": {
        "encoding": "inplace",
        "label": "contract ISwapRouter",
        "numberOfBytes": "20"
      },
      "t_mapping(t_address,t_mapping(t_address,t_uint256))": {
        "encoding": "mapping",
        "key": "t_address",
        "label": "mapping(address => mapping(address => uint256))",
        "numberOfBytes": "32",
        "value": "t_mapping(t_address,t_uint256)"
      },
      "t_mapping(t_address,t_uint256)": {
        "encoding": "mapping",
        "key": "t_address",
        "label": "mapping(address => uint256)",
        "numberOfBytes": "32",
        "value": "t_uint256"
      },
      "t_uint256": {
        "encoding": "inplace",
        "label": "uint256",
        "numberOfBytes": "32"
      }
    }
  }
}