{
  "address": "0x8C9Ec183c0098C7A20096d375D50f8E85df0C8A7",
  "abi": [
    {
      "inputs": [
        {
          "internalType": "address",
          "name": "_usersMouduleContract",
          "type": "address"
        },
        {
          "internalType": "address",
          "name": "_verifierContract",
          "type": "address"
        },
        {
          "internalType": "address",
          "name": "_vaultContract",
          "type": "address"
        }
      ],
      "stateMutability": "nonpayable",
      "type": "constructor"
    },
    {
      "anonymous": false,
      "inputs": [
        {
          "indexed": true,
          "internalType": "address",
          "name": "previousOwner",
          "type": "address"
        },
        {
          "indexed": true,
          "internalType": "address",
          "name": "newOwner",
          "type": "address"
        }
      ],
      "name": "OwnershipTransferred",
      "type": "event"
    },
    {
      "anonymous": false,
      "inputs": [
        {
          "indexed": true,
          "internalType": "bytes32",
          "name": "user",
          "type": "bytes32"
        },
        {
          "components": [
            {
              "internalType": "bytes32",
              "name": "request",
              "type": "bytes32"
            },
            {
              "internalType": "uint256",
              "name": "payment",
              "type": "uint256"
            },
            {
              "internalType": "uint256",
              "name": "stake",
              "type": "uint256"
            },
            {
              "internalType": "address",
              "name": "postAddress",
              "type": "address"
            },
            {
              "internalType": "bool",
              "name": "accepted",
              "type": "bool"
            },
            {
              "internalType": "uint256",
              "name": "postCount",
              "type": "uint256"
            },
            {
              "internalType": "enum Structures.Tokens",
              "name": "tokenId",
              "type": "uint8"
            }
          ],
          "indexed": false,
          "internalType": "struct Structures.BayRequest",
          "name": "",
          "type": "tuple"
        },
        {
          "indexed": true,
          "internalType": "uint256",
          "name": "index",
          "type": "uint256"
        }
      ],
      "name": "RequestAccepted",
      "type": "event"
    },
    {
      "anonymous": false,
      "inputs": [
        {
          "indexed": true,
          "internalType": "bytes32",
          "name": "user",
          "type": "bytes32"
        },
        {
          "components": [
            {
              "internalType": "bytes32",
              "name": "request",
              "type": "bytes32"
            },
            {
              "internalType": "uint256",
              "name": "payment",
              "type": "uint256"
            },
            {
              "internalType": "uint256",
              "name": "stake",
              "type": "uint256"
            },
            {
              "internalType": "address",
              "name": "postAddress",
              "type": "address"
            },
            {
              "internalType": "bool",
              "name": "accepted",
              "type": "bool"
            },
            {
              "internalType": "uint256",
              "name": "postCount",
              "type": "uint256"
            },
            {
              "internalType": "enum Structures.Tokens",
              "name": "tokenId",
              "type": "uint8"
            }
          ],
          "indexed": false,
          "internalType": "struct Structures.BayRequest",
          "name": "",
          "type": "tuple"
        },
        {
          "indexed": true,
          "internalType": "uint256",
          "name": "index",
          "type": "uint256"
        }
      ],
      "name": "RequestCreated",
      "type": "event"
    },
    {
      "inputs": [
        {
          "internalType": "uint256",
          "name": "index",
          "type": "uint256"
        },
        {
          "internalType": "address",
          "name": "_feed",
          "type": "address"
        },
        {
          "internalType": "bytes",
          "name": "sismoConnectResponse",
          "type": "bytes"
        },
        {
          "internalType": "address",
          "name": "_to",
          "type": "address"
        },
        {
          "internalType": "bytes32",
          "name": "_nonce",
          "type": "bytes32"
        }
      ],
      "name": "acceptRequest",
      "outputs": [],
      "stateMutability": "nonpayable",
      "type": "function"
    },
    {
      "inputs": [
        {
          "internalType": "uint256",
          "name": "",
          "type": "uint256"
        }
      ],
      "name": "allRequests",
      "outputs": [
        {
          "internalType": "bytes32",
          "name": "request",
          "type": "bytes32"
        },
        {
          "internalType": "uint256",
          "name": "payment",
          "type": "uint256"
        },
        {
          "internalType": "uint256",
          "name": "stake",
          "type": "uint256"
        },
        {
          "internalType": "address",
          "name": "postAddress",
          "type": "address"
        },
        {
          "internalType": "bool",
          "name": "accepted",
          "type": "bool"
        },
        {
          "internalType": "uint256",
          "name": "postCount",
          "type": "uint256"
        },
        {
          "internalType": "enum Structures.Tokens",
          "name": "tokenId",
          "type": "uint8"
        }
      ],
      "stateMutability": "view",
      "type": "function"
    },
    {
      "inputs": [
        {
          "internalType": "uint256",
          "name": "",
          "type": "uint256"
        }
      ],
      "name": "allRequestsPrivate",
      "outputs": [
        {
          "internalType": "bytes",
          "name": "vaultIdSeller",
          "type": "bytes"
        },
        {
          "internalType": "bytes",
          "name": "sellerResponse",
          "type": "bytes"
        },
        {
          "internalType": "bytes",
          "name": "vaultIdBuyer",
          "type": "bytes"
        },
        {
          "internalType": "bytes",
          "name": "buyerResponse",
          "type": "bytes"
        },
        {
          "internalType": "address",
          "name": "buyerTo",
          "type": "address"
        },
        {
          "internalType": "bytes32",
          "name": "buyerNonce",
          "type": "bytes32"
        }
      ],
      "stateMutability": "view",
      "type": "function"
    },
    {
      "inputs": [
        {
          "internalType": "address",
          "name": "_daiToken",
          "type": "address"
        }
      ],
      "name": "changeDaiToken",
      "outputs": [],
      "stateMutability": "nonpayable",
      "type": "function"
    },
    {
      "inputs": [
        {
          "internalType": "address",
          "name": "_museToken",
          "type": "address"
        }
      ],
      "name": "changeMuseToken",
      "outputs": [],
      "stateMutability": "nonpayable",
      "type": "function"
    },
    {
      "inputs": [
        {
          "internalType": "address",
          "name": "_usersModule",
          "type": "address"
        }
      ],
      "name": "changeUsersModule",
      "outputs": [],
      "stateMutability": "nonpayable",
      "type": "function"
    },
    {
      "inputs": [
        {
          "internalType": "address",
          "name": "_vault",
          "type": "address"
        }
      ],
      "name": "changeVault",
      "outputs": [],
      "stateMutability": "nonpayable",
      "type": "function"
    },
    {
      "inputs": [
        {
          "internalType": "address",
          "name": "_verifier",
          "type": "address"
        }
      ],
      "name": "changeVerifier",
      "outputs": [],
      "stateMutability": "nonpayable",
      "type": "function"
    },
    {
      "inputs": [],
      "name": "contractCounter",
      "outputs": [
        {
          "internalType": "uint256",
          "name": "",
          "type": "uint256"
        }
      ],
      "stateMutability": "view",
      "type": "function"
    },
    {
      "inputs": [
        {
          "components": [
            {
              "internalType": "bytes32",
              "name": "request",
              "type": "bytes32"
            },
            {
              "internalType": "uint256",
              "name": "payment",
              "type": "uint256"
            },
            {
              "internalType": "uint256",
              "name": "stake",
              "type": "uint256"
            },
            {
              "internalType": "address",
              "name": "postAddress",
              "type": "address"
            },
            {
              "internalType": "bool",
              "name": "accepted",
              "type": "bool"
            },
            {
              "internalType": "uint256",
              "name": "postCount",
              "type": "uint256"
            },
            {
              "internalType": "enum Structures.Tokens",
              "name": "tokenId",
              "type": "uint8"
            }
          ],
          "internalType": "struct Structures.BayRequest",
          "name": "request",
          "type": "tuple"
        },
        {
          "internalType": "bytes",
          "name": "sismoConnectResponse",
          "type": "bytes"
        },
        {
          "internalType": "address",
          "name": "_to",
          "type": "address"
        },
        {
          "internalType": "bytes32",
          "name": "_nonce",
          "type": "bytes32"
        }
      ],
      "name": "createRequest",
      "outputs": [
        {
          "components": [
            {
              "internalType": "bytes32",
              "name": "request",
              "type": "bytes32"
            },
            {
              "internalType": "uint256",
              "name": "payment",
              "type": "uint256"
            },
            {
              "internalType": "uint256",
              "name": "stake",
              "type": "uint256"
            },
            {
              "internalType": "address",
              "name": "postAddress",
              "type": "address"
            },
            {
              "internalType": "bool",
              "name": "accepted",
              "type": "bool"
            },
            {
              "internalType": "uint256",
              "name": "postCount",
              "type": "uint256"
            },
            {
              "internalType": "enum Structures.Tokens",
              "name": "tokenId",
              "type": "uint8"
            }
          ],
          "internalType": "struct Structures.BayRequest",
          "name": "",
          "type": "tuple"
        }
      ],
      "stateMutability": "payable",
      "type": "function"
    },
    {
      "inputs": [],
      "name": "daiToken",
      "outputs": [
        {
          "internalType": "address",
          "name": "",
          "type": "address"
        }
      ],
      "stateMutability": "view",
      "type": "function"
    },
    {
      "inputs": [
        {
          "internalType": "bytes32",
          "name": "_user",
          "type": "bytes32"
        }
      ],
      "name": "getRequestForAddress",
      "outputs": [
        {
          "components": [
            {
              "internalType": "bytes32",
              "name": "request",
              "type": "bytes32"
            },
            {
              "internalType": "uint256",
              "name": "payment",
              "type": "uint256"
            },
            {
              "internalType": "uint256",
              "name": "stake",
              "type": "uint256"
            },
            {
              "internalType": "address",
              "name": "postAddress",
              "type": "address"
            },
            {
              "internalType": "bool",
              "name": "accepted",
              "type": "bool"
            },
            {
              "internalType": "uint256",
              "name": "postCount",
              "type": "uint256"
            },
            {
              "internalType": "enum Structures.Tokens",
              "name": "tokenId",
              "type": "uint8"
            }
          ],
          "internalType": "struct Structures.BayRequest[]",
          "name": "",
          "type": "tuple[]"
        }
      ],
      "stateMutability": "view",
      "type": "function"
    },
    {
      "inputs": [],
      "name": "getRequests",
      "outputs": [
        {
          "components": [
            {
              "internalType": "bytes32",
              "name": "request",
              "type": "bytes32"
            },
            {
              "internalType": "uint256",
              "name": "payment",
              "type": "uint256"
            },
            {
              "internalType": "uint256",
              "name": "stake",
              "type": "uint256"
            },
            {
              "internalType": "address",
              "name": "postAddress",
              "type": "address"
            },
            {
              "internalType": "bool",
              "name": "accepted",
              "type": "bool"
            },
            {
              "internalType": "uint256",
              "name": "postCount",
              "type": "uint256"
            },
            {
              "internalType": "enum Structures.Tokens",
              "name": "tokenId",
              "type": "uint8"
            }
          ],
          "internalType": "struct Structures.BayRequest[]",
          "name": "",
          "type": "tuple[]"
        }
      ],
      "stateMutability": "view",
      "type": "function"
    },
    {
      "inputs": [],
      "name": "museToken",
      "outputs": [
        {
          "internalType": "address",
          "name": "",
          "type": "address"
        }
      ],
      "stateMutability": "view",
      "type": "function"
    },
    {
      "inputs": [],
      "name": "owner",
      "outputs": [
        {
          "internalType": "address",
          "name": "",
          "type": "address"
        }
      ],
      "stateMutability": "view",
      "type": "function"
    },
    {
      "inputs": [
        {
          "internalType": "uint256",
          "name": "index",
          "type": "uint256"
        },
        {
          "internalType": "bytes",
          "name": "sismoConnectResponse",
          "type": "bytes"
        },
        {
          "internalType": "address",
          "name": "_to",
          "type": "address"
        },
        {
          "internalType": "bytes32",
          "name": "_nonce",
          "type": "bytes32"
        }
      ],
      "name": "removeRequest",
      "outputs": [],
      "stateMutability": "nonpayable",
      "type": "function"
    },
    {
      "inputs": [],
      "name": "renounceOwnership",
      "outputs": [],
      "stateMutability": "nonpayable",
      "type": "function"
    },
    {
      "inputs": [
        {
          "internalType": "bytes32",
          "name": "",
          "type": "bytes32"
        },
        {
          "internalType": "uint256",
          "name": "",
          "type": "uint256"
        }
      ],
      "name": "requests",
      "outputs": [
        {
          "internalType": "bytes32",
          "name": "request",
          "type": "bytes32"
        },
        {
          "internalType": "uint256",
          "name": "payment",
          "type": "uint256"
        },
        {
          "internalType": "uint256",
          "name": "stake",
          "type": "uint256"
        },
        {
          "internalType": "address",
          "name": "postAddress",
          "type": "address"
        },
        {
          "internalType": "bool",
          "name": "accepted",
          "type": "bool"
        },
        {
          "internalType": "uint256",
          "name": "postCount",
          "type": "uint256"
        },
        {
          "internalType": "enum Structures.Tokens",
          "name": "tokenId",
          "type": "uint8"
        }
      ],
      "stateMutability": "view",
      "type": "function"
    },
    {
      "inputs": [
        {
          "internalType": "address",
          "name": "newOwner",
          "type": "address"
        }
      ],
      "name": "transferOwnership",
      "outputs": [],
      "stateMutability": "nonpayable",
      "type": "function"
    },
    {
      "inputs": [],
      "name": "usersMouduleContract",
      "outputs": [
        {
          "internalType": "address",
          "name": "",
          "type": "address"
        }
      ],
      "stateMutability": "view",
      "type": "function"
    },
    {
      "inputs": [],
      "name": "vaultContract",
      "outputs": [
        {
          "internalType": "address",
          "name": "",
          "type": "address"
        }
      ],
      "stateMutability": "view",
      "type": "function"
    },
    {
      "inputs": [],
      "name": "verifierContract",
      "outputs": [
        {
          "internalType": "address",
          "name": "",
          "type": "address"
        }
      ],
      "stateMutability": "view",
      "type": "function"
    },
    {
      "stateMutability": "payable",
      "type": "receive"
    }
  ],
  "transactionHash": "0xb29c8be046eb9b9923ba71ed7ecd1ec87c26509845e1e7a072b66a5f970248db",
  "args": [
    "0x7E8664B5BA54AD234d62A5Af7197999181Ca3dC6",
    "0x5C5957b711169fC762e83c9A90B3A56C80E2C010",
    "0xAE87E4eF6e345E7E8011dd015536956A77C6E877"
  ],
  "numDeployments": 5,
  "solcInputHash": "abe1b51c8b82362d524c8efc9e8c0e34",
  "bytecode": "0x608034620000e757601f6200344c38819003918201601f19168301916001600160401b03831184841017620000ec57808492606094604052833981010312620000e7576200004d8162000102565b620000696040620000616020850162000102565b930162000102565b600080546001600160a01b03198082163390811784556040519691956001600160a01b0395948694859391908416907f8be0079c531659141344cd1fd0a4f28419497f9722a3daafe3b4186f6b6457e09080a31685600354161760035516836004541617600455169060055416176005556133349081620001188239f35b600080fd5b634e487b7160e01b600052604160045260246000fd5b51906001600160a01b0382168203620000e75756fe608080604052600436101561001d575b50361561001b57600080fd5b005b600090813560e01c908163067bd3b4146125bd575080630f3cd888146125715780632274346b1461254a578063346207b61461158357806360e232a914611537578063715018a6146114d05780638416e3041461140a5780638813ce12146113605780638da5cb5b1461133a5780639655e6d8146113045780639791003614610e065780639bf4ec2f14610d9b5780639c673fe514610d4f578063a357427d14610caf578063b041377014610c88578063be22f54614610c61578063c4bb77d014610c15578063c81ac6461461029b578063cf04fb941461024f578063cf69568814610228578063f2fde38b146101415763f77800e50361000f573461013e578060031936011261013e5760206001600160a01b0360065416604051908152f35b80fd5b503461013e57602060031936011261013e5761015b6125d9565b6101636129cb565b6001600160a01b038091169081156101be576000548273ffffffffffffffffffffffffffffffffffffffff19821617600055167f8be0079c531659141344cd1fd0a4f28419497f9722a3daafe3b4186f6b6457e0600080a380f35b608460405162461bcd60e51b815260206004820152602660248201527f4f776e61626c653a206e6577206f776e657220697320746865207a65726f206160448201527f64647265737300000000000000000000000000000000000000000000000000006064820152fd5b503461013e578060031936011261013e5760206001600160a01b0360045416604051908152f35b503461013e57602060031936011261013e576001600160a01b036102716125d9565b6102796129cb565b1673ffffffffffffffffffffffffffffffffffffffff19600454161760045580f35b5060031936016101408112610c115760e01361013e57604051906102be82612635565b6004358252602435602083015260443560408301526102db6125ef565b60608301526084358015158103610c1157608083015260a43560a083015260c4356003811015610c115760c083015260e43567ffffffffffffffff8111610c115761032a9036906004016126ac565b906001600160a01b0361010435166101043503610c0c576040519161034e83612635565b8183528160208401528160408401528160608401528160808401528160a08401528160c084015260c08401516003811015610bf857610b8d57610392341515612a23565b6103a160208501511515612a23565b6103b2610124356101043583612eda565b5050508051602082012091602460206001600160a01b0360035416604051928380927f38aad32c0000000000000000000000000000000000000000000000000000000082528860048301525afa908115610b82578591610b53575b5015610b0f57604086015115610acb5761042c60208701513414612a23565b61043b60208701511515612a23565b828452600860205260408420805468010000000000000000811015610918576104699160018201815561277f565b610a9f578651815560208701516001820155604087015160028201556105056001600160a01b03606089015116600383019073ffffffffffffffffffffffffffffffffffffffff19825416178155608089015115157fffffffffffffffffffffff00ffffffffffffffffffffffffffffffffffffffff74ff0000000000000000000000000000000000000000835492151560a01b169116179055565b60a0870151600482015560c08701516003811015610ab55760056105299201612a86565b600154680100000000000000008110156109185780600161054d92016001556126f3565b610a9f578651815560208701516001820155604087015160028201556105e8600382016001600160a01b0360608a01511673ffffffffffffffffffffffffffffffffffffffff19825416178155608089015115157fffffffffffffffffffffff00ffffffffffffffffffffffffffffffffffffffff74ff0000000000000000000000000000000000000000835492151560a01b169116179055565b60a0870151600482015560c08701516003811015610ab557600561060c9201612a86565b6040519161061983612605565b610621612abd565b835261062b612abd565b6020840152604083015260608201526001600160a01b03610104351660808201526101243560a082015260025468010000000000000000811015610918578060016106799201600255612744565b919091610a9f57805180519067ffffffffffffffff82116109185781906106aa826106a4875461279b565b87612b0d565b602090601f8311600114610a3357600092610a28575b50506000198260011b9260031b1c19161782555b602081015180519067ffffffffffffffff8211610918578190610707826106fe600188015461279b565b60018801612b0d565b602090601f83116001146109b6576000926109ab575b50506000198260011b9260031b1c19161760018301555b604081015180519067ffffffffffffffff82116109185781906107678261075e600288015461279b565b60028801612b0d565b602090601f83116001146109395760009261092e575b50506000198260011b9260031b1c19161760028301555b60038201606082015180519067ffffffffffffffff8211610918576107c3826107bd855461279b565b85612b0d565b602090601f83116001146108aa57918060a094926005969460009261089f575b50506000198260011b9260031b1c19161790555b600484016001600160a01b0360808301511673ffffffffffffffffffffffffffffffffffffffff198254161790550151910155610835600954612b52565b60095560015491600019830192831161088b57507fe9a2b6f068c8e156e02b1fa5a51213d9f1811ceb25dc05211a1df6b0f0f5110260e0809561087b60405180926128ef565ba361088960405180926128ef565bf35b80634e487b7160e01b602492526011600452fd5b0151905038806107e3565b90601f198316918460005260206000209260005b81811061090057509260019285926005989660a09896106108e7575b505050811b0190556107f7565b015160001960f88460031b161c191690553880806108da565b929360206001819287860151815501950193016108be565b634e487b7160e01b600052604160045260246000fd5b01519050388061077d565b9250600285016000526020600020906000935b601f1984168510610990576001945083601f19811610610977575b505050811b016002830155610794565b015160001960f88460031b161c19169055388080610967565b8181015183556020948501946001909301929091019061094c565b01519050388061071d565b9250600185016000526020600020906000935b601f1984168510610a0d576001945083601f198116106109f4575b505050811b016001830155610734565b015160001960f88460031b161c191690553880806109e4565b818101518355602094850194600190930192909101906109c9565b0151905038806106c0565b9250846000526020600020906000935b601f1984168510610a84576001945083601f19811610610a6b575b505050811b0182556106d4565b015160001960f88460031b161c19169055388080610a5e565b81810151835560209485019460019093019290910190610a43565b634e487b7160e01b600052600060045260246000fd5b634e487b7160e01b600052602160045260246000fd5b606460405162461bcd60e51b815260206004820152601760248201527f4241593a7374616b65206973206e6f7420656e6f7567680000000000000000006044820152fd5b606460405162461bcd60e51b815260206004820152601360248201527f7573657220646f6573206e6f74206578697374000000000000000000000000006044820152fd5b610b75915060203d602011610b7b575b610b6d818361266d565b810190612a6e565b3861040d565b503d610b63565b6040513d87823e3d90fd5b60c08401516003811015610bf857600203610bc557610bc06001600160a01b036007541660208601519030903390612b77565b610392565b60c08401516003811015610bf85760010361039257610bc06001600160a01b036006541660208601519030903390612b77565b602483634e487b7160e01b81526021600452fd5b600080fd5b5080fd5b503461013e57602060031936011261013e576001600160a01b03610c376125d9565b610c3f6129cb565b1673ffffffffffffffffffffffffffffffffffffffff19600354161760035580f35b503461013e578060031936011261013e5760206001600160a01b0360075416604051908152f35b503461013e578060031936011261013e5760206001600160a01b0360035416604051908152f35b503461013e57602080600319360112610c1157600435825260088152604082209182549067ffffffffffffffff8211610d3b579260405192610cf6818460051b018561266d565b82845280840191855280852094915b838310610d1e5760405180610d1a8782612942565b0390f35b600682600192610d2d89613051565b815201960192019194610d05565b80634e487b7160e01b602492526041600452fd5b503461013e57602060031936011261013e576001600160a01b03610d716125d9565b610d796129cb565b1673ffffffffffffffffffffffffffffffffffffffff19600754161760075580f35b503461013e57602060031936011261013e57600435600154811015610c1157610dc3906126f3565b508054610d1a600183015491600284015493600381015460ff6005600484015493015416926040519687966001600160a01b0360ff8560a01c169416928861298a565b503461013e57608060031936011261013e5760043560243567ffffffffffffffff811161130057610e3b9036906004016126ac565b6044356001600160a01b0381168103610c0c57610e5c906064359083612eda565b5050506020815191012091610e7c6002610e7583612744565b50016127d5565b6020815191012083036112bc5760ff6003610e96836126f3565b50015460a01c16611278578380610eb5610eaf846126f3565b50613051565b936001600160a01b03600554166020860151602083519301915af1610ed8612cd0565b50156112345760015460001981019081116110bb57808210611218575b50600154801561106c5760001901610f0c816126f3565b610a9f576005816000809355826001820155826002820155826003820155826004820155015560015560025460001981019081116110bb5780821061117f575b5050600254801561116b57610f646000198201612744565b61115857906000600583610f7a60001995613257565b610f8660018201613257565b610f9260028201613257565b610f9e60038201613257565b876004820155015501600255825b82845260088060205260408520805483101561115057610fce8360019261277f565b5001546020840151148061112b575b806110f4575b806110cf575b610ffc5750610ff790612b52565b610fac565b9280925084528260205260408420549060001982019182116110bb57818110611082575b50508252602052604081208054801561106c576000190190611042828261277f565b610a9f57600581600080935582600182015582600282015582600382015582600482015501555580f35b634e487b7160e01b600052603160045260246000fd5b6110ae61109c6110b493858852866020526040882061277f565b5091848752856020526040872061277f565b906130b5565b3880611020565b602485634e487b7160e01b81526011600452fd5b508385528060205260046110e6836040882061277f565b50015460a084015114610fe9565b50838552806020526001600160a01b036003611113846040892061277f565b500154166001600160a01b0360608501511614610fe3565b50838552806020526002611142836040882061277f565b500154604084015114610fdd565b505050505080f35b602485634e487b7160e01b815280600452fd5b602484634e487b7160e01b81526031600452fd5b61118b61119291612744565b5091612744565b91909161115857818114610f4c576005816111ae829385613179565b6111be6001820160018601613179565b6111ce6002820160028601613179565b6111de6003820160038601613179565b600484016001600160a01b0360048301541673ffffffffffffffffffffffffffffffffffffffff1982541617905501549101553880610f4c565b61122461122e916126f3565b506110ae836126f3565b38610ef5565b606460405162461bcd60e51b815260206004820152601560248201527f4241593a5661756c742063616c6c206661696c656400000000000000000000006044820152fd5b606460405162461bcd60e51b815260206004820152601f60248201527f4241593a7265717565737420697320616c7265616479206163636570746564006044820152fd5b606460405162461bcd60e51b815260206004820152601960248201527f4241593a796f7520617265206e6f7420746865206275796572000000000000006044820152fd5b8280fd5b503461013e57604060031936011261013e576024356004358252600860205260408220805482101561130057610dc3925061277f565b503461013e578060031936011261013e576001600160a01b036020915416604051908152f35b503461013e578060031936011261013e57600190815467ffffffffffffffff81116113f65760405191602061139a818460051b018561266d565b8284528482527fb10e2d527612073b26eecdfd717e6a320cf44b4afac2b0732d9fcbe2b7fa0cf68185015b8484106113da5760405180610d1a8882612942565b60068388926113e885613051565b8152019201930192906113c5565b602482634e487b7160e01b81526041600452fd5b503461013e57602060031936011261013e576004359060025482101561013e5761149761143683612744565b50611440816127d5565b9061144d600182016127d5565b6114c161145c600284016127d5565b6114b361146b600386016127d5565b916114a560056001600160a01b0360048901541697015495604051998a9960c08b5260c08b01906128bd565b9089820360208b01526128bd565b9087820360408901526128bd565b9085820360608701526128bd565b91608084015260a08301520390f35b503461013e578060031936011261013e576114e96129cb565b60006001600160a01b03815473ffffffffffffffffffffffffffffffffffffffff1981168355167f8be0079c531659141344cd1fd0a4f28419497f9722a3daafe3b4186f6b6457e08280a380f35b503461013e57602060031936011261013e576001600160a01b036115596125d9565b6115616129cb565b1673ffffffffffffffffffffffffffffffffffffffff19600554161760055580f35b503461013e5760a060031936011261013e576024356001600160a01b0381168103610c115760443567ffffffffffffffff8111611300576115c89036906004016126ac565b906115de6115d46125ef565b6084359084612eda565b5050509182516020840120926115f26132a0565b506115fb6132a0565b916001600160a01b03841683526040517f8da5cb5b0000000000000000000000000000000000000000000000000000000081526020816004816001600160a01b0389165afa90811561227d578791612518575b5060208401526040517f5c63ed690000000000000000000000000000000000000000000000000000000081526020816004816001600160a01b0389165afa90811561227d5787916124e6575b5060408401526040517f4c38d8770000000000000000000000000000000000000000000000000000000081526020816004816001600160a01b0389165afa90811561227d5787916124b4575b5060608401526040517f0917e7760000000000000000000000000000000000000000000000000000000081526020816004816001600160a01b0389165afa90811561227d578791612482575b5060808401526040517f17906c2e0000000000000000000000000000000000000000000000000000000081526020816004816001600160a01b0389165afa90811561227d578791612450575b5060a08401526040517fd24e0c870000000000000000000000000000000000000000000000000000000081526020816004816001600160a01b0389165afa90811561227d57879161241e575b5060c08401526040517ffaeb5e170000000000000000000000000000000000000000000000000000000081526020816004816001600160a01b0389165afa90811561227d5787916123ec575b5060e08401526040517f4e69d5600000000000000000000000000000000000000000000000000000000081526020816004816001600160a01b0389165afa90811561227d5787916123b1575b50600881101561239d576101008401526040517f010a38f50000000000000000000000000000000000000000000000000000000081526020816004816001600160a01b0389165afa801561227d57879061235c575b6118c691506101208501613045565b60016118d36004356126f3565b50015460c0840151116122f25760e083015160026118f26004356126f3565b5001541161228857602460206001600160a01b0360035416604051928380927f38aad32c0000000000000000000000000000000000000000000000000000000082528a60048301525afa90811561227d57879161225e575b501561221a5761195b600435612744565b506119c1600361196c600435612744565b506119b660026001600160a01b0360046119868135612744565b50015416956005611998600435612744565b50015497604051996119a98b612605565b8a5260208a0152016127d5565b6040870152016127d5565b6060840152608083015260a082015260025468010000000000000000811015612206578060016119f49201600255612744565b9190916121f357805180519067ffffffffffffffff8211612077578190611a1f826106a4875461279b565b602090601f831160011461218a57899261217f575b50506000198260011b9260031b1c19161782555b602081015180519067ffffffffffffffff8211612077578190611a72826106fe600188015461279b565b602090601f8311600114612110578992612105575b50506000198260011b9260031b1c19161760018301555b604081015180519067ffffffffffffffff8211612077578190611ac88261075e600288015461279b565b602090601f831160011461209657899261208b575b50506000198260011b9260031b1c19161760028301555b606081015180519067ffffffffffffffff821161207757611b2582611b1c600387015461279b565b60038701612b0d565b602090601f83116001146120055791806005949260a0948b92611ffa575b50506000198260011b9260031b1c19161760038501555b600484016001600160a01b0360808301511673ffffffffffffffffffffffffffffffffffffffff19825416179055015191015560ff6005611b9c6004356126f3565b500154166003811015611ef15715611f055760ff6005611bbd6004356126f3565b500154166003811015611ef157600203611e7b57836020611c366001600160a01b03600754166001611bf06004356126f3565b5001546040517f095ea7b3000000000000000000000000000000000000000000000000000000008152336004820152602481019190915293849283919082906044820190565b03925af18015610b8257611e5c575b505b83611c53600435612744565b506001600160a01b036004611c688135612744565b50015416906005611c7a600435612744565b5001549060ff6005611c8d6004356126f3565b50015416906001611c9f6004356126f3565b500154926001600160a01b0388163b15611e58578593600393611cf19260405197889687967f200f852c0000000000000000000000000000000000000000000000000000000088520160048701612d9c565b0381836001600160a01b0389165af18015611e4d57611e35575b505060a0915b6003611d1e6004356126f3565b5001740100000000000000000000000000000000000000007fffffffffffffffffffffff00ffffffffffffffffffffffffffffffffffffffff8254161790556001600160a01b036003611d726004356126f3565b5001911673ffffffffffffffffffffffffffffffffffffffff1982541617905501516004611da081356126f3565b500155611dae6004356126f3565b5090611e0a60ff6005604051948054865260018101546020870152600281015460408701528260038201546001600160a01b038116606089015260a01c1615156080870152600481015460a087015201541660c08401906128e2565b7f83c2cca80e93944a5016ae3e3f51bd5e9275d6459dfdbfdad3fe85d918d92f3360e060043593a380f35b611e3e90612621565b611e49578338611d0b565b8380fd5b6040513d84823e3d90fd5b8580fd5b611e749060203d602011610b7b57610b6d818361266d565b5038611c45565b60ff6005611e8a6004356126f3565b500154166003811015611ef157600103611c4757836020611ebd6001600160a01b03600654166001611bf06004356126f3565b03925af18015610b8257611ed2575b50611c47565b611eea9060203d602011610b7b57610b6d818361266d565b5038611ecc565b602485634e487b7160e01b81526021600452fd5b906001611f136004356126f3565b50015484611f22600435612744565b50916001600160a01b036004611f388135612744565b50015416906005611f4a600435612744565b5001549360ff6005611f5d6004356126f3565b50015416906001611f6f6004356126f3565b500154916001600160a01b0388163b15611e5857600392611fc191604051988997889687967f200f852c0000000000000000000000000000000000000000000000000000000088520160048701612d9c565b03916001600160a01b0387165af18015610b8257611fe4575b509060a091611d11565b93611ff260a0939295612621565b939091611fda565b015190503880611b43565b906003850189526020892091895b601f198516811061205f5750926005949260019260a09583601f19811610612046575b505050811b016003850155611b5a565b015160001960f88460031b161c19169055388080612036565b91926020600181928685015181550194019201612013565b602488634e487b7160e01b81526041600452fd5b015190503880611add565b9250600285018952602089209089935b601f19841685106120ea576001945083601f198116106120d1575b505050811b016002830155611af4565b015160001960f88460031b161c191690553880806120c1565b818101518355602094850194600190930192909101906120a6565b015190503880611a87565b9250600185018952602089209089935b601f1984168510612164576001945083601f1981161061214b575b505050811b016001830155611a9e565b015160001960f88460031b161c1916905538808061213b565b81810151835560209485019460019093019290910190612120565b015190503880611a34565b9250848952602089209089935b601f19841685106121d8576001945083601f198116106121bf575b505050811b018255611a48565b015160001960f88460031b161c191690553880806121b2565b81810151835560209485019460019093019290910190612197565b602486634e487b7160e01b815280600452fd5b602486634e487b7160e01b81526041600452fd5b606460405162461bcd60e51b815260206004820152601760248201527f4241593a7573657220646f6573206e6f742065786973740000000000000000006044820152fd5b612277915060203d602011610b7b57610b6d818361266d565b3861194a565b6040513d89823e3d90fd5b608460405162461bcd60e51b815260206004820152602560248201527f4241593a7374616b65206973206e6f74207468652073616d65206f662074686560448201527f20666565640000000000000000000000000000000000000000000000000000006064820152fd5b608460405162461bcd60e51b815260206004820152602760248201527f4241593a7061796d656e74206973206e6f74207468652073616d65206f66207460448201527f68652066656564000000000000000000000000000000000000000000000000006064820152fd5b506020813d602011612395575b816123766020938361266d565b8101031261239157516003811015612391576118c6906118b7565b8680fd5b3d9150612369565b602487634e487b7160e01b81526021600452fd5b90506020813d6020116123e4575b816123cc6020938361266d565b81010312612391575160088110156123915738611862565b3d91506123bf565b90506020813d602011612416575b816124076020938361266d565b81010312612391575138611816565b3d91506123fa565b90506020813d602011612448575b816124396020938361266d565b810103126123915751386117ca565b3d915061242c565b90506020813d60201161247a575b8161246b6020938361266d565b8101031261239157513861177e565b3d915061245e565b90506020813d6020116124ac575b8161249d6020938361266d565b81010312612391575138611732565b3d9150612490565b90506020813d6020116124de575b816124cf6020938361266d565b810103126123915751386116e6565b3d91506124c2565b90506020813d602011612510575b816125016020938361266d565b8101031261239157513861169a565b3d91506124f4565b90506020813d602011612542575b816125336020938361266d565b8101031261239157513861164e565b3d9150612526565b503461013e578060031936011261013e5760206001600160a01b0360055416604051908152f35b503461013e57602060031936011261013e576001600160a01b036125936125d9565b61259b6129cb565b1673ffffffffffffffffffffffffffffffffffffffff19600654161760065580f35b905034610c115781600319360112610c11576020906009548152f35b600435906001600160a01b0382168203610c0c57565b606435906001600160a01b0382168203610c0c57565b60c0810190811067ffffffffffffffff82111761091857604052565b67ffffffffffffffff811161091857604052565b60e0810190811067ffffffffffffffff82111761091857604052565b6040810190811067ffffffffffffffff82111761091857604052565b90601f601f19910116810190811067ffffffffffffffff82111761091857604052565b67ffffffffffffffff811161091857601f01601f191660200190565b81601f82011215610c0c578035906126c382612690565b926126d1604051948561266d565b82845260208383010111610c0c57816000926020809301838601378301015290565b60015481101561272e576006906001600052027fb10e2d527612073b26eecdfd717e6a320cf44b4afac2b0732d9fcbe2b7fa0cf60190600090565b634e487b7160e01b600052603260045260246000fd5b60025481101561272e576006906002600052027f405787fa12a823e0f2b7631cc41b3ba8828b3321ca811111fa75cd3aa3bb5ace0190600090565b805482101561272e576000526006602060002091020190600090565b90600182811c921680156127cb575b60208310146127b557565b634e487b7160e01b600052602260045260246000fd5b91607f16916127aa565b90604051918260008254926127e98461279b565b9081845260019485811690816000146128585750600114612815575b50506128139250038361266d565b565b9093915060005260209081600020936000915b81831061284057505061281393508201013880612805565b85548884018501529485019487945091830191612828565b90506128139550602093507fffffffffffffffffffffffffffffffffffffffffffffffffffffffffffffff0091501682840152151560051b8201013880612805565b60005b8381106128ad5750506000910152565b818101518382015260200161289d565b90601f19601f6020936128db8151809281875287808801910161289a565b0116010190565b906003821015610ab55752565b9060c080612813938051845260208101516020850152604081015160408501526001600160a01b03606082015116606085015260808101511515608085015260a081015160a085015201519101906128e2565b6020908160408183019282815285518094520193019160005b828110612969575050505090565b909192938260e08261297e60019489516128ef565b0195019392910161295b565b9260c0946001600160a01b039161281398949a9997939a60e087019b8752602087015260408601521660608401521515608083015260a082015201906128e2565b6001600160a01b036000541633036129df57565b606460405162461bcd60e51b815260206004820152602060248201527f4f776e61626c653a2063616c6c6572206973206e6f7420746865206f776e65726044820152fd5b15612a2a57565b606460405162461bcd60e51b815260206004820152601960248201527f4241593a7061796d656e74206973206e6f7420656e6f756768000000000000006044820152fd5b90816020910312610c0c57518015158103610c0c5790565b906003811015610ab55760ff7fffffffffffffffffffffffffffffffffffffffffffffffffffffffffffffff008354169116179055565b60405190612aca82612651565b600482527f30783030000000000000000000000000000000000000000000000000000000006020830152565b818110612b01575050565b60008155600101612af6565b9190601f8111612b1c57505050565b612813926000526020600020906020601f840160051c83019310612b48575b601f0160051c0190612af6565b9091508190612b3b565b6000198114612b615760010190565b634e487b7160e01b600052601160045260246000fd5b919290926040519160208301947f23b872dd0000000000000000000000000000000000000000000000000000000086526001600160a01b039283809216602486015216604484015260648301526064825260a082019282841067ffffffffffffffff85111761091857612c36946000928392866040521693612bf886612651565b602086527f5361666545524332303a206c6f772d6c6576656c2063616c6c206661696c656460c0820152519082855af1612c30612cd0565b91612d00565b8051908115918215612cb6575b505015612c4c57565b608460405162461bcd60e51b815260206004820152602a60248201527f5361666545524332303a204552433230206f7065726174696f6e20646964206e60448201527f6f742073756363656564000000000000000000000000000000000000000000006064820152fd5b612cc99250602080918301019101612a6e565b3880612c43565b3d15612cfb573d90612ce182612690565b91612cef604051938461266d565b82523d6000602084013e565b606090565b91929015612d615750815115612d14575090565b3b15612d1d5790565b606460405162461bcd60e51b815260206004820152601d60248201527f416464726573733a2063616c6c20746f206e6f6e2d636f6e74726163740000006044820152fd5b825190915015612d745750805190602001fd5b612d989060405191829162461bcd60e51b83526020600484015260248301906128bd565b0390fd5b9290959493919560a084526000908054612db58161279b565b918260a08801526001918281169081600014612e475750600114612e02575b50505091612dfe916001600160a01b036080959498166020850152604084015260608301906128e2565b0152565b909250600052602080600020926000935b838510612e335750505050830160c001816001600160a01b036080612dd4565b805488860160c00152938201938101612e13565b7fffffffffffffffffffffffffffffffffffffffffffffffffffffffffffffff001660c0808a019190915293151560051b880190930193508492506001600160a01b03915060809050612dd4565b81601f82011215610c0c578051612eab81612690565b92612eb9604051948561266d565b81845260208284010111610c0c57612ed7916020808501910161289a565b90565b92919091612f306001600160a01b03948594856004541691604092835197889586937f7276069d0000000000000000000000000000000000000000000000000000000085526060600486015260648501906128bd565b9316602483015286604483015281600095869403915afa93841561303a5782809781978297612fc8575b508387805181010312610c115760208701519081160361013e57508185015103612f85575093929190565b6064905162461bcd60e51b815260206004820152600e60248201527f4e6f742053616d65204e6f6e63650000000000000000000000000000000000006044820152fd5b98509550925094503d8083883e612fdf818861266d565b8601946080878703126113005786519267ffffffffffffffff93848111610c11578761300c918a01612e95565b96602089015194848a0151996060810151918211611e495761302f929101612e95565b969397969538612f5a565b5051903d90823e3d90fd5b6003821015610ab55752565b9061281360405161306181612635565b60c060ff600583968054855260018101546020860152600281015460408601528260038201546001600160a01b038116606088015260a01c1615156080860152600481015460a08601520154169101613045565b90610a9f578181036130c5575050565b600560ff81846128139554855560018101546001860155600281015460028601556131656003860184600384016001600160a01b0381541673ffffffffffffffffffffffffffffffffffffffff198454161783555460a01c167fffffffffffffffffffffff00ffffffffffffffffffffffffffffffffffffffff74ff0000000000000000000000000000000000000000835492151560a01b169116179055565b600481015460048601550154169101612a86565b908082146132535761318b815461279b565b9067ffffffffffffffff82116109185781906131b1826131ab865461279b565b86612b0d565b600090601f83116001146131e7576000926131dc575b50506000198260011b9260031b1c1916179055565b0154905038806131c7565b91601f1916918152602091828220908583528383209383905b82821061323a575050908460019594939210613221575b505050811b019055565b015460001960f88460031b161c19169055388080613217565b8495819295850154815560018091019601940190613200565b5050565b613261815461279b565b908161326b575050565b81601f6000931160011461327d575055565b90808391825261329c601f60208420940160051c840160018501612af6565b5555565b60405190610140820182811067ffffffffffffffff82111761091857604052816101206000918281528260208201528260408201528260608201528260808201528260a08201528260c08201528260e082015282610100820152015256fea26469706673582212200dc0e2b101840c396aafa7dc1ed6247a175cc867329793aa270f3094ab02a9e264736f6c63430008130033",
  "devdoc": {
    "kind": "dev",
    "methods": {
      "owner()": {
        "details": "Returns the address of the current owner."
      },
      "renounceOwnership()": {
        "details": "Leaves the contract without owner. It will not be possible to call `onlyOwner` functions. Can only be called by the current owner. NOTE: Renouncing ownership will leave the contract without an owner, thereby disabling any functionality that is only available to the owner."
      },
      "transferOwnership(address)": {
        "details": "Transfers ownership of the contract to a new account (`newOwner`). Can only be called by the current owner."
      }
    },
    "version": 1
  },
  "userdoc": {
    "kind": "user",
    "methods": {},
    "version": 1
  },
  "storageLayout": {
    "storage": [
      {
        "astId": 7,
        "contract": "contracts/layer/MecenateBay.sol:MecenateBay",
        "label": "_owner",
        "offset": 0,
        "slot": "0",
        "type": "t_address"
      },
      {
        "astId": 7380,
        "contract": "contracts/layer/MecenateBay.sol:MecenateBay",
        "label": "allRequests",
        "offset": 0,
        "slot": "1",
        "type": "t_array(t_struct(BayRequest)8398_storage)dyn_storage"
      },
      {
        "astId": 7384,
        "contract": "contracts/layer/MecenateBay.sol:MecenateBay",
        "label": "allRequestsPrivate",
        "offset": 0,
        "slot": "2",
        "type": "t_array(t_struct(BayRequestPrivate)8411_storage)dyn_storage"
      },
      {
        "astId": 7386,
        "contract": "contracts/layer/MecenateBay.sol:MecenateBay",
        "label": "usersMouduleContract",
        "offset": 0,
        "slot": "3",
        "type": "t_address"
      },
      {
        "astId": 7388,
        "contract": "contracts/layer/MecenateBay.sol:MecenateBay",
        "label": "verifierContract",
        "offset": 0,
        "slot": "4",
        "type": "t_address"
      },
      {
        "astId": 7390,
        "contract": "contracts/layer/MecenateBay.sol:MecenateBay",
        "label": "vaultContract",
        "offset": 0,
        "slot": "5",
        "type": "t_address"
      },
      {
        "astId": 7392,
        "contract": "contracts/layer/MecenateBay.sol:MecenateBay",
        "label": "museToken",
        "offset": 0,
        "slot": "6",
        "type": "t_address"
      },
      {
        "astId": 7394,
        "contract": "contracts/layer/MecenateBay.sol:MecenateBay",
        "label": "daiToken",
        "offset": 0,
        "slot": "7",
        "type": "t_address"
      },
      {
        "astId": 7400,
        "contract": "contracts/layer/MecenateBay.sol:MecenateBay",
        "label": "requests",
        "offset": 0,
        "slot": "8",
        "type": "t_mapping(t_bytes32,t_array(t_struct(BayRequest)8398_storage)dyn_storage)"
      },
      {
        "astId": 7402,
        "contract": "contracts/layer/MecenateBay.sol:MecenateBay",
        "label": "contractCounter",
        "offset": 0,
        "slot": "9",
        "type": "t_uint256"
      },
      {
        "astId": 7406,
        "contract": "contracts/layer/MecenateBay.sol:MecenateBay",
        "label": "sismoResponseMapping",
        "offset": 0,
        "slot": "10",
        "type": "t_mapping(t_uint256,t_bytes_storage)"
      }
    ],
    "types": {
      "t_address": {
        "encoding": "inplace",
        "label": "address",
        "numberOfBytes": "20"
      },
      "t_array(t_struct(BayRequest)8398_storage)dyn_storage": {
        "base": "t_struct(BayRequest)8398_storage",
        "encoding": "dynamic_array",
        "label": "struct Structures.BayRequest[]",
        "numberOfBytes": "32"
      },
      "t_array(t_struct(BayRequestPrivate)8411_storage)dyn_storage": {
        "base": "t_struct(BayRequestPrivate)8411_storage",
        "encoding": "dynamic_array",
        "label": "struct Structures.BayRequestPrivate[]",
        "numberOfBytes": "32"
      },
      "t_bool": {
        "encoding": "inplace",
        "label": "bool",
        "numberOfBytes": "1"
      },
      "t_bytes32": {
        "encoding": "inplace",
        "label": "bytes32",
        "numberOfBytes": "32"
      },
      "t_bytes_storage": {
        "encoding": "bytes",
        "label": "bytes",
        "numberOfBytes": "32"
      },
      "t_enum(Tokens)8242": {
        "encoding": "inplace",
        "label": "enum Structures.Tokens",
        "numberOfBytes": "1"
      },
      "t_mapping(t_bytes32,t_array(t_struct(BayRequest)8398_storage)dyn_storage)": {
        "encoding": "mapping",
        "key": "t_bytes32",
        "label": "mapping(bytes32 => struct Structures.BayRequest[])",
        "numberOfBytes": "32",
        "value": "t_array(t_struct(BayRequest)8398_storage)dyn_storage"
      },
      "t_mapping(t_uint256,t_bytes_storage)": {
        "encoding": "mapping",
        "key": "t_uint256",
        "label": "mapping(uint256 => bytes)",
        "numberOfBytes": "32",
        "value": "t_bytes_storage"
      },
      "t_struct(BayRequest)8398_storage": {
        "encoding": "inplace",
        "label": "struct Structures.BayRequest",
        "members": [
          {
            "astId": 8384,
            "contract": "contracts/layer/MecenateBay.sol:MecenateBay",
            "label": "request",
            "offset": 0,
            "slot": "0",
            "type": "t_bytes32"
          },
          {
            "astId": 8386,
            "contract": "contracts/layer/MecenateBay.sol:MecenateBay",
            "label": "payment",
            "offset": 0,
            "slot": "1",
            "type": "t_uint256"
          },
          {
            "astId": 8388,
            "contract": "contracts/layer/MecenateBay.sol:MecenateBay",
            "label": "stake",
            "offset": 0,
            "slot": "2",
            "type": "t_uint256"
          },
          {
            "astId": 8390,
            "contract": "contracts/layer/MecenateBay.sol:MecenateBay",
            "label": "postAddress",
            "offset": 0,
            "slot": "3",
            "type": "t_address"
          },
          {
            "astId": 8392,
            "contract": "contracts/layer/MecenateBay.sol:MecenateBay",
            "label": "accepted",
            "offset": 20,
            "slot": "3",
            "type": "t_bool"
          },
          {
            "astId": 8394,
            "contract": "contracts/layer/MecenateBay.sol:MecenateBay",
            "label": "postCount",
            "offset": 0,
            "slot": "4",
            "type": "t_uint256"
          },
          {
            "astId": 8397,
            "contract": "contracts/layer/MecenateBay.sol:MecenateBay",
            "label": "tokenId",
            "offset": 0,
            "slot": "5",
            "type": "t_enum(Tokens)8242"
          }
        ],
        "numberOfBytes": "192"
      },
      "t_struct(BayRequestPrivate)8411_storage": {
        "encoding": "inplace",
        "label": "struct Structures.BayRequestPrivate",
        "members": [
          {
            "astId": 8400,
            "contract": "contracts/layer/MecenateBay.sol:MecenateBay",
            "label": "vaultIdSeller",
            "offset": 0,
            "slot": "0",
            "type": "t_bytes_storage"
          },
          {
            "astId": 8402,
            "contract": "contracts/layer/MecenateBay.sol:MecenateBay",
            "label": "sellerResponse",
            "offset": 0,
            "slot": "1",
            "type": "t_bytes_storage"
          },
          {
            "astId": 8404,
            "contract": "contracts/layer/MecenateBay.sol:MecenateBay",
            "label": "vaultIdBuyer",
            "offset": 0,
            "slot": "2",
            "type": "t_bytes_storage"
          },
          {
            "astId": 8406,
            "contract": "contracts/layer/MecenateBay.sol:MecenateBay",
            "label": "buyerResponse",
            "offset": 0,
            "slot": "3",
            "type": "t_bytes_storage"
          },
          {
            "astId": 8408,
            "contract": "contracts/layer/MecenateBay.sol:MecenateBay",
            "label": "buyerTo",
            "offset": 0,
            "slot": "4",
            "type": "t_address"
          },
          {
            "astId": 8410,
            "contract": "contracts/layer/MecenateBay.sol:MecenateBay",
            "label": "buyerNonce",
            "offset": 0,
            "slot": "5",
            "type": "t_bytes32"
          }
        ],
        "numberOfBytes": "192"
      },
      "t_uint256": {
        "encoding": "inplace",
        "label": "uint256",
        "numberOfBytes": "32"
      }
    }
  }
}