{
  "address": "0x0FeC90F263c6e645D6C7A098282530f190C3f1ff",
  "abi": [
    {
      "inputs": [
        {
          "internalType": "address",
          "name": "_verifierContract",
          "type": "address"
        },
        {
          "internalType": "address",
          "name": "_dai",
          "type": "address"
        },
        {
          "internalType": "address",
          "name": "_muse",
          "type": "address"
        }
      ],
      "stateMutability": "nonpayable",
      "type": "constructor"
    },
    {
      "inputs": [],
      "name": "dai",
      "outputs": [
        {
          "internalType": "address",
          "name": "",
          "type": "address"
        }
      ],
      "stateMutability": "view",
      "type": "function"
    },
    {
      "inputs": [
        {
          "internalType": "address",
          "name": "_target",
          "type": "address"
        },
        {
          "internalType": "bytes",
          "name": "_data",
          "type": "bytes"
        },
        {
          "internalType": "uint256",
          "name": "_value",
          "type": "uint256"
        },
        {
          "internalType": "bytes",
          "name": "sismoConnectResponse",
          "type": "bytes"
        },
        {
          "internalType": "address",
          "name": "_to",
          "type": "address"
        },
        {
          "internalType": "bytes32",
          "name": "_nonce",
          "type": "bytes32"
        }
      ],
      "name": "execute",
      "outputs": [
        {
          "internalType": "bool",
          "name": "",
          "type": "bool"
        }
      ],
      "stateMutability": "nonpayable",
      "type": "function"
    },
    {
      "inputs": [],
      "name": "getDAIBalance",
      "outputs": [
        {
          "internalType": "uint256",
          "name": "",
          "type": "uint256"
        }
      ],
      "stateMutability": "view",
      "type": "function"
    },
    {
      "inputs": [],
      "name": "getETHBalance",
      "outputs": [
        {
          "internalType": "uint256",
          "name": "",
          "type": "uint256"
        }
      ],
      "stateMutability": "view",
      "type": "function"
    },
    {
      "inputs": [],
      "name": "getMUSEBalance",
      "outputs": [
        {
          "internalType": "uint256",
          "name": "",
          "type": "uint256"
        }
      ],
      "stateMutability": "view",
      "type": "function"
    },
    {
      "inputs": [],
      "name": "muse",
      "outputs": [
        {
          "internalType": "address",
          "name": "",
          "type": "address"
        }
      ],
      "stateMutability": "view",
      "type": "function"
    },
    {
      "inputs": [],
      "name": "verifierContract",
      "outputs": [
        {
          "internalType": "address",
          "name": "",
          "type": "address"
        }
      ],
      "stateMutability": "view",
      "type": "function"
    },
    {
      "inputs": [
        {
          "internalType": "uint256",
          "name": "_amount",
          "type": "uint256"
        },
        {
          "internalType": "bytes",
          "name": "sismoConnectResponse",
          "type": "bytes"
        },
        {
          "internalType": "address",
          "name": "_to",
          "type": "address"
        },
        {
          "internalType": "bytes32",
          "name": "_nonce",
          "type": "bytes32"
        }
      ],
      "name": "withdraw",
      "outputs": [],
      "stateMutability": "nonpayable",
      "type": "function"
    },
    {
      "inputs": [
        {
          "internalType": "address",
          "name": "_token",
          "type": "address"
        },
        {
          "internalType": "uint256",
          "name": "_amount",
          "type": "uint256"
        },
        {
          "internalType": "bytes",
          "name": "sismoConnectResponse",
          "type": "bytes"
        },
        {
          "internalType": "address",
          "name": "_to",
          "type": "address"
        },
        {
          "internalType": "bytes32",
          "name": "_nonce",
          "type": "bytes32"
        }
      ],
      "name": "withdrawToken",
      "outputs": [],
      "stateMutability": "nonpayable",
      "type": "function"
    },
    {
      "stateMutability": "payable",
      "type": "receive"
    }
  ],
  "transactionHash": "0x3b88c929573dfae10befca2f9b6856dfcf20b9e1df5b32dabf62bc6363044101",
  "args": [
    "0x8CFb40101Fbd1a04b8F460CC5d419E94eFe0c74D",
    "0xCFA79Ce44e410a05c6C271bb2F95084Db6D52b33",
    "0xf954CBE9a64645AC94eb297E0a34C3C1aF1717C7"
  ],
  "numDeployments": 12,
  "solcInputHash": "006e59e67d7abfd2a97d2dd307652f22",
  "bytecode": "0x6080346100a057601f610a7c38819003918201601f19168301916001600160401b038311848410176100a5578084926060946040528339810103126100a057610047816100bb565b906100606040610059602084016100bb565b92016100bb565b60018060a01b0380928160018060a01b0319951685600054161760005516836001541617600155169060025416176002556040516109ac90816100d08239f35b600080fd5b634e487b7160e01b600052604160045260246000fd5b51906001600160a01b03821682036100a05756fe6080604052600436101561001b575b361561001957600080fd5b005b6000803560e01c9081630ede84b5146100ae575080631378f5d9146100a957806368d9dd7d146100a45780636e9472981461009f578063ab55d1cc1461009a578063bbd0094f14610095578063cf69568814610090578063f4b9fa751461008b5763f8e1f51e0361000e57610578565b61054f565b610526565b610481565b6103f1565b6103d5565b61031a565b61021d565b346101325780600319360112610132576002546370a0823160e01b60809081523060845260209160249082906001600160a01b03165afa90811561012d57906100fd575b602090604051908152f35b5060203d8111610126575b61011f81610117602093610170565b6080016107ec565b90506100f2565b503d610108565b6106a8565b80fd5b6001600160a01b0381160361014657565b600080fd5b6084359061015882610135565b565b634e487b7160e01b600052604160045260246000fd5b601f80199101166080016080811067ffffffffffffffff82111761019357604052565b61015a565b90601f8019910116810190811067ffffffffffffffff82111761019357604052565b67ffffffffffffffff811161019357601f01601f191660200190565b81601f82011215610146578035906101ed826101ba565b926101fb6040519485610198565b8284526020838301011161014657816000926020809301838601378301015290565b346101465760a03660031901126101465760043561023a81610135565b60443567ffffffffffffffff81116101465761025a9036906004016101d6565b60643561026681610135565b6000805490936001600160a01b039390916102a6916084359187918391879089165b9160405196879485938493637276069d60e01b85526004850161067c565b03915afa94851561012d576102e26102d66102f1976102e8958a916102f4575b50602080825183010191016106b4565b928088169116146106d3565b14610712565b6024359061077c565b80f35b61031091503d808c833e6103088183610198565b810190610609565b92505050386102c6565b346101465760803660031901126101465760243567ffffffffffffffff81116101465761034b9036906004016101d6565b6044359061035882610135565b6000805490926001600160a01b0392909161037e91606435918691839186908816610288565b03915afa93841561012d576102e26103ad6102f1966103b99589916103c15750602080825183010191016106b4565b928087169116146106d3565b60043561074f565b61031091503d808b833e6103088183610198565b3461014657600036600319011261014657602047604051908152f35b3461014657600080600319360112610132576001546040516370a0823160e01b815230600482015290602090829060249082906001600160a01b03165afa90811561012d578291610448575b602082604051908152f35b90506020813d8211610479575b8161046260209383610198565b810103126104755760209150513861043d565b5080fd5b3d9150610455565b346101465760c03660031901126101465760043561049e81610135565b6024359067ffffffffffffffff9081831161014657366023840112156101465782600401358281116101465736602482860101116101465760643592831161014657610522936104f56105109436906004016101d6565b906104fe61014b565b9260a4359460246044359301906107fe565b60405190151581529081906020820190565b0390f35b34610146576000366003190112610146576000546040516001600160a01b039091168152602090f35b34610146576000366003190112610146576001546040516001600160a01b039091168152602090f35b34610146576000366003190112610146576002546040516001600160a01b039091168152602090f35b60005b8381106105b45750506000910152565b81810151838201526020016105a4565b81601f820112156101465780516105da816101ba565b926105e86040519485610198565b818452602082840101116101465761060691602080850191016105a1565b90565b916080838303126101465782519067ffffffffffffffff9182811161014657836106349186016105c4565b9360208101519360408201519360608301519081116101465761060692016105c4565b90602091610670815180928185528580860191016105a1565b601f01601f1916010190565b61069460409295949395606083526060830190610657565b6001600160a01b0390951660208201520152565b6040513d6000823e3d90fd5b919082604091031261014657602082516106cd81610135565b92015190565b156106da57565b60405162461bcd60e51b815260206004820152601060248201526f4e6f742053616d65204164647265737360801b6044820152606490fd5b1561071957565b60405162461bcd60e51b815260206004820152600e60248201526d4e6f742053616d65204e6f6e636560901b6044820152606490fd5b600080809392819382908215610772575b6001600160a01b031690f11561012d57565b6108fc9150610760565b60446020926000604051958694859363a9059cbb60e01b855260018060a01b0380931660048601526024850152165af1801561012d576107b95750565b6020813d82116107e4575b816107d160209383610198565b8101031261014657518015150361014657565b3d91506107c4565b602090607f1901126101465760805190565b929095949361083992869560018060a01b03926000988991838684541691604051998a9485938493637276069d60e01b85526004850161067c565b03915afa96871561012d57836102e2610875938261086a8d9c8d9b8c916108fc5750602080825183010191016106b4565b9491169116146106d3565b606097816108b05750508293165af19061088d61091e565b821561089857505090565b80516108a5575b5061094e565b60249150018161089f565b9150929180156000146108df57506108cd60405180948193610910565b03925af1906108da61091e565b61088d565b9150826040519384928337810185815203925af1906108da61091e565b61031091503d808e833e6103088183610198565b908092918237016000815290565b3d15610949573d9061092f826101ba565b9161093d6040519384610198565b82523d6000602084013e565b606090565b60405162461bcd60e51b815260206004820152908190610972906024830190610657565b0390fdfea26469706673582212203a4c54d0ef2a55411ff88fb12575a02f6674d2954fe17f5e821a9350654158cf64736f6c63430008130033",
  "devdoc": {
    "kind": "dev",
    "methods": {},
    "version": 1
  },
  "userdoc": {
    "kind": "user",
    "methods": {},
    "version": 1
  },
  "storageLayout": {
    "storage": [
      {
        "astId": 218,
        "contract": "contracts/MecenateForwarder.sol:MecenateForwarder",
        "label": "verifierContract",
        "offset": 0,
        "slot": "0",
        "type": "t_address"
      },
      {
        "astId": 220,
        "contract": "contracts/MecenateForwarder.sol:MecenateForwarder",
        "label": "dai",
        "offset": 0,
        "slot": "1",
        "type": "t_address"
      },
      {
        "astId": 222,
        "contract": "contracts/MecenateForwarder.sol:MecenateForwarder",
        "label": "muse",
        "offset": 0,
        "slot": "2",
        "type": "t_address"
      }
    ],
    "types": {
      "t_address": {
        "encoding": "inplace",
        "label": "address",
        "numberOfBytes": "20"
      }
    }
  }
}