{
  "address": "0x7E8664B5BA54AD234d62A5Af7197999181Ca3dC6",
  "abi": [
    {
      "inputs": [
        {
          "internalType": "address",
          "name": "_verifierContract",
          "type": "address"
        },
        {
          "internalType": "address",
          "name": "_treasuryContract",
          "type": "address"
        }
      ],
      "stateMutability": "nonpayable",
      "type": "constructor"
    },
    {
      "anonymous": false,
      "inputs": [
        {
          "indexed": true,
          "internalType": "address",
          "name": "previousOwner",
          "type": "address"
        },
        {
          "indexed": true,
          "internalType": "address",
          "name": "newOwner",
          "type": "address"
        }
      ],
      "name": "OwnershipTransferred",
      "type": "event"
    },
    {
      "anonymous": false,
      "inputs": [
        {
          "indexed": false,
          "internalType": "bytes32",
          "name": "vaultId",
          "type": "bytes32"
        }
      ],
      "name": "UserRegistered",
      "type": "event"
    },
    {
      "inputs": [
        {
          "internalType": "address",
          "name": "_treasury",
          "type": "address"
        }
      ],
      "name": "changeTreasury",
      "outputs": [],
      "stateMutability": "nonpayable",
      "type": "function"
    },
    {
      "inputs": [
        {
          "internalType": "bytes",
          "name": "sismoConnectResponse",
          "type": "bytes"
        },
        {
          "internalType": "address",
          "name": "_to",
          "type": "address"
        },
        {
          "internalType": "bytes32",
          "name": "_nonce",
          "type": "bytes32"
        },
        {
          "internalType": "string",
          "name": "_username",
          "type": "string"
        }
      ],
      "name": "changeUserName",
      "outputs": [],
      "stateMutability": "nonpayable",
      "type": "function"
    },
    {
      "inputs": [
        {
          "internalType": "address",
          "name": "_verifier",
          "type": "address"
        }
      ],
      "name": "changeVerifier",
      "outputs": [],
      "stateMutability": "nonpayable",
      "type": "function"
    },
    {
      "inputs": [
        {
          "internalType": "bytes32",
          "name": "vaultId",
          "type": "bytes32"
        }
      ],
      "name": "checkifUserExist",
      "outputs": [
        {
          "internalType": "bool",
          "name": "",
          "type": "bool"
        }
      ],
      "stateMutability": "view",
      "type": "function"
    },
    {
      "inputs": [
        {
          "internalType": "uint256",
          "name": "startIndex",
          "type": "uint256"
        },
        {
          "internalType": "uint256",
          "name": "endIndex",
          "type": "uint256"
        }
      ],
      "name": "getPaginatedUsers",
      "outputs": [
        {
          "internalType": "bytes32[]",
          "name": "users",
          "type": "bytes32[]"
        }
      ],
      "stateMutability": "view",
      "type": "function"
    },
    {
      "inputs": [
        {
          "internalType": "uint256",
          "name": "index",
          "type": "uint256"
        }
      ],
      "name": "getUserAt",
      "outputs": [
        {
          "internalType": "bytes32",
          "name": "user",
          "type": "bytes32"
        }
      ],
      "stateMutability": "view",
      "type": "function"
    },
    {
      "inputs": [],
      "name": "getUserCount",
      "outputs": [
        {
          "internalType": "uint256",
          "name": "count",
          "type": "uint256"
        }
      ],
      "stateMutability": "view",
      "type": "function"
    },
    {
      "inputs": [
        {
          "internalType": "bytes32",
          "name": "vaultId",
          "type": "bytes32"
        }
      ],
      "name": "getUserName",
      "outputs": [
        {
          "internalType": "string",
          "name": "",
          "type": "string"
        }
      ],
      "stateMutability": "view",
      "type": "function"
    },
    {
      "inputs": [
        {
          "internalType": "uint256",
          "name": "index",
          "type": "uint256"
        }
      ],
      "name": "getUserVaultIdAt",
      "outputs": [
        {
          "internalType": "bytes32",
          "name": "user",
          "type": "bytes32"
        }
      ],
      "stateMutability": "view",
      "type": "function"
    },
    {
      "inputs": [],
      "name": "getUsers",
      "outputs": [
        {
          "internalType": "bytes32[]",
          "name": "users",
          "type": "bytes32[]"
        }
      ],
      "stateMutability": "view",
      "type": "function"
    },
    {
      "inputs": [],
      "name": "owner",
      "outputs": [
        {
          "internalType": "address",
          "name": "",
          "type": "address"
        }
      ],
      "stateMutability": "view",
      "type": "function"
    },
    {
      "inputs": [
        {
          "internalType": "bytes",
          "name": "sismoConnectResponse",
          "type": "bytes"
        },
        {
          "internalType": "address",
          "name": "_to",
          "type": "address"
        },
        {
          "internalType": "bytes32",
          "name": "_nonce",
          "type": "bytes32"
        },
        {
          "internalType": "string",
          "name": "_username",
          "type": "string"
        }
      ],
      "name": "registerUser",
      "outputs": [],
      "stateMutability": "nonpayable",
      "type": "function"
    },
    {
      "inputs": [],
      "name": "renounceOwnership",
      "outputs": [],
      "stateMutability": "nonpayable",
      "type": "function"
    },
    {
      "inputs": [
        {
          "internalType": "address",
          "name": "newOwner",
          "type": "address"
        }
      ],
      "name": "transferOwnership",
      "outputs": [],
      "stateMutability": "nonpayable",
      "type": "function"
    },
    {
      "inputs": [],
      "name": "treasuryContract",
      "outputs": [
        {
          "internalType": "address",
          "name": "",
          "type": "address"
        }
      ],
      "stateMutability": "view",
      "type": "function"
    },
    {
      "inputs": [
        {
          "internalType": "bytes32",
          "name": "",
          "type": "bytes32"
        }
      ],
      "name": "userNames",
      "outputs": [
        {
          "internalType": "string",
          "name": "",
          "type": "string"
        }
      ],
      "stateMutability": "view",
      "type": "function"
    },
    {
      "inputs": [],
      "name": "verifierContract",
      "outputs": [
        {
          "internalType": "address",
          "name": "",
          "type": "address"
        }
      ],
      "stateMutability": "view",
      "type": "function"
    }
  ],
  "transactionHash": "0xad4ab7df0039bba85b2f700ee47be407ac40f0e578cefc9633ba6eb260f29b04",
  "args": [
    "0x5C5957b711169fC762e83c9A90B3A56C80E2C010",
    "0x27115aAa74b296D2461958498B5b4C99b8E10afA"
  ],
  "numDeployments": 3,
  "solcInputHash": "11ec77ac73880f17301462ca88124e91",
  "bytecode": "0x6080346100c357601f61148a38819003918201601f19168301916001600160401b038311848410176100c85780849260409485528339810103126100c357610052602061004b836100de565b92016100de565b60008054336001600160a01b0319808316821784556040519590946001600160a01b03949093859391908416907f8be0079c531659141344cd1fd0a4f28419497f9722a3daafe3b4186f6b6457e09080a3168360045416176004551690600554161760055561139790816100f38239f35b600080fd5b634e487b7160e01b600052604160045260246000fd5b51906001600160a01b03821682036100c35756fe608060408181526004908136101561001657600080fd5b600092833560e01c908162ce8e3e14610bb9575080630a0bcfd814610b4757806318da001114610b8457806321a1180514610b4757806338aad32c14610b1d5780634a9a471f146108d05780635b5cf50a14610829578063715018a6146107ab5780638da5cb5b14610778578063b14f2a3914610714578063b5cb15f7146106f5578063c6e064ad146106ba578063cf04fb9414610657578063cf5caa1214610498578063cf69568814610461578063f2fde38b146103485763fa2f10c3146100de57600080fd5b3461034457918091610145936100f336610ea0565b979281969273ffffffffffffffffffffffffffffffffffffffff875416918651958694859384937f7276069d0000000000000000000000000000000000000000000000000000000085528b850161103d565b03915afa93841561033a578591869561030c575b5061017b90610172602096878082518301019101611075565b919050146110a9565b8381519101208085526002845261019682862054151561110e565b84526006835283209184519167ffffffffffffffff83116102e057506101bc8354610c73565b601f811161029d575b5080601f831160011461021d5750839482939492610212575b50507fffffffffffffffffffffffffffffffffffffffffffffffffffffffffffffffff8260011b9260031b1c191617905580f35b0151905038806101de565b90601f198316958486528286209286905b8882106102855750508360019596971061024e575b505050811b01905580f35b01517fffffffffffffffffffffffffffffffffffffffffffffffffffffffffffffffff60f88460031b161c19169055388080610243565b8060018596829496860151815501950193019061022e565b838552818520601f840160051c8101918385106102d6575b601f0160051c01905b8181106102cb57506101c5565b8581556001016102be565b90915081906102b5565b8460416024927f4e487b7100000000000000000000000000000000000000000000000000000000835252fd5b61032e91955061017b92503d8088833e6103268183610cc6565b810190610fef565b96929391506101599050565b82513d87823e3d90fd5b8280fd5b50903461034457602060031936011261034457610363610e7d565b9061036c610f2e565b73ffffffffffffffffffffffffffffffffffffffff8092169283156103de5750508254827fffffffffffffffffffffffff00000000000000000000000000000000000000008216178455167f8be0079c531659141344cd1fd0a4f28419497f9722a3daafe3b4186f6b6457e08380a380f35b90602060849251917f08c379a0000000000000000000000000000000000000000000000000000000008352820152602660248201527f4f776e61626c653a206e6577206f776e657220697320746865207a65726f206160448201527f64647265737300000000000000000000000000000000000000000000000000006064820152fd5b5082346104955780600319360112610495575073ffffffffffffffffffffffffffffffffffffffff60209254169051908152f35b80fd5b508290346106535780600319360112610653578235916024803591828510156105d1576001956104cb87548511156112a8565b6104d5868561130d565b95601f196104fa6104e589611349565b986104f289519a8b610cc6565b808a52611349565b019060209136838a0137805b86811061051e5787518061051a8b82610c38565b0390f35b61052781611173565b9054610533848461130d565b918b518310156105a65790859160031b1c9160051b8b0101527fffffffffffffffffffffffffffffffffffffffffffffffffffffffffffffffff811461057a578901610506565b5050506011907f4e487b7100000000000000000000000000000000000000000000000000000000835252fd5b88886032897f4e487b7100000000000000000000000000000000000000000000000000000000835252fd5b60848660228460208851937f08c379a00000000000000000000000000000000000000000000000000000000085528401528201527f53544152545f494e4445585f475245415445525f5448414e5f454e445f494e4460448201527f45580000000000000000000000000000000000000000000000000000000000006064820152fd5b5080fd5b5050346106535760206003193601126106535773ffffffffffffffffffffffffffffffffffffffff610687610e7d565b61068f610f2e565b167fffffffffffffffffffffffff000000000000000000000000000000000000000082541617905580f35b50823461049557602060031936011261049557506106e7602092356106e260015482106112a8565b611173565b91905490519160031b1c8152f35b8382346106535781600319360112610653576020906001549051908152f35b83346104955760206003193601126104955773ffffffffffffffffffffffffffffffffffffffff610743610e7d565b61074b610f2e565b167fffffffffffffffffffffffff0000000000000000000000000000000000000000600554161760055580f35b83823461065357816003193601126106535773ffffffffffffffffffffffffffffffffffffffff60209254169051908152f35b83346104955780600319360112610495576107c4610f2e565b8073ffffffffffffffffffffffffffffffffffffffff81547fffffffffffffffffffffffff000000000000000000000000000000000000000081168355167f8be0079c531659141344cd1fd0a4f28419497f9722a3daafe3b4186f6b6457e08280a380f35b509134610495576020600319360112610495575080359073ffffffffffffffffffffffffffffffffffffffff600554163303610873576020836106e7846106e260015482106112a8565b60649060208451917f08c379a0000000000000000000000000000000000000000000000000000000008352820152600d60248201527f4f4e4c595f5452454153555259000000000000000000000000000000000000006044820152fd5b5034610344579180916108e6936100f336610ea0565b03915afa93841561033a5785918695610af7575b5061091390610172602096878082518301019101611075565b83815191012091828552600684528185209086519067ffffffffffffffff8211610acb57506109428254610c73565b601f8111610a88575b5084601f82116001146109e757819087987f78997021e09413de1e36500ed07f9f6c73541162817fc3ea6a115e5e3d3affb998926109dc575b50507fffffffffffffffffffffffffffffffffffffffffffffffffffffffffffffffff8260011b9260031b1c19161790555b818552600283526109ca818620541561110e565b6109d3826111d9565b5051908152a180f35b015190503880610984565b82875285872097601f198316885b818110610a715750917f78997021e09413de1e36500ed07f9f6c73541162817fc3ea6a115e5e3d3affb9989991846001959410610a3a575b505050811b0190556109b6565b01517fffffffffffffffffffffffffffffffffffffffffffffffffffffffffffffffff60f88460031b161c19169055388080610a2d565b838301518b556001909a01999288019288016109f5565b828752858720601f830160051c810191878410610ac1575b601f0160051c01905b818110610ab6575061094b565b878155600101610aa9565b9091508190610aa0565b8660416024927f4e487b7100000000000000000000000000000000000000000000000000000000835252fd5b610b1191955061091392503d8088833e6103268183610cc6565b96929391506108fa9050565b50903461034457602060031936011261034457602092829135815260028452205415159051908152f35b509034610344576020600319360112610344578161051a93610b7192358152600660205220610d18565b9051918291602083526020830190610e00565b83823461065357816003193601126106535760209073ffffffffffffffffffffffffffffffffffffffff600554169051908152f35b92505034610344578260031936011261034457600180548084528185526020808501957fb10e2d527612073b26eecdfd717e6a320cf44b4afac2b0732d9fcbe2b7fa0cf69392915b828210610c235761051a8787610c19828c0383610cc6565b5191829182610c38565b84548852968701969383019390830190610c01565b6020908160408183019282815285518094520193019160005b828110610c5f575050505090565b835185529381019392810192600101610c51565b90600182811c92168015610cbc575b6020831014610c8d57565b7f4e487b7100000000000000000000000000000000000000000000000000000000600052602260045260246000fd5b91607f1691610c82565b90601f601f19910116810190811067ffffffffffffffff821117610ce957604052565b7f4e487b7100000000000000000000000000000000000000000000000000000000600052604160045260246000fd5b9060405191826000825492610d2c84610c73565b908184526001948581169081600014610d9b5750600114610d58575b5050610d5692500383610cc6565b565b9093915060005260209081600020936000915b818310610d83575050610d5693508201013880610d48565b85548884018501529485019487945091830191610d6b565b9050610d569550602093507fffffffffffffffffffffffffffffffffffffffffffffffffffffffffffffff0091501682840152151560051b8201013880610d48565b60005b838110610df05750506000910152565b8181015183820152602001610de0565b90601f19601f602093610e1e81518092818752878088019101610ddd565b0116010190565b67ffffffffffffffff8111610ce957601f01601f191660200190565b929192610e4d82610e25565b91610e5b6040519384610cc6565b829481845281830111610e78578281602093846000960137010152565b600080fd5b6004359073ffffffffffffffffffffffffffffffffffffffff82168203610e7857565b6080600319820112610e785767ffffffffffffffff90600435828111610e785781602382011215610e785781816024610ede93600401359101610e41565b9260243573ffffffffffffffffffffffffffffffffffffffff81168103610e78579260443592606435918211610e785780602383011215610e7857816024610f2b93600401359101610e41565b90565b73ffffffffffffffffffffffffffffffffffffffff600054163303610f4f57565b60646040517f08c379a000000000000000000000000000000000000000000000000000000000815260206004820152602060248201527f4f776e61626c653a2063616c6c6572206973206e6f7420746865206f776e65726044820152fd5b81601f82011215610e78578051610fc381610e25565b92610fd16040519485610cc6565b81845260208284010111610e7857610f2b9160208085019101610ddd565b91608083830312610e785782519067ffffffffffffffff91828111610e78578361101a918601610fad565b936020810151936040820151936060830151908111610e7857610f2b9201610fad565b73ffffffffffffffffffffffffffffffffffffffff61106a60409396959496606084526060840190610e00565b951660208201520152565b9190826040910312610e7857815173ffffffffffffffffffffffffffffffffffffffff81168103610e785760209092015190565b156110b057565b60646040517f08c379a000000000000000000000000000000000000000000000000000000000815260206004820152600b60248201527f57524f4e475f4e4f4e43450000000000000000000000000000000000000000006044820152fd5b1561111557565b60646040517f08c379a000000000000000000000000000000000000000000000000000000000815260206004820152601360248201527f555345525f414c52454144595f455849535453000000000000000000000000006044820152fd5b6001548110156111aa5760016000527fb10e2d527612073b26eecdfd717e6a320cf44b4afac2b0732d9fcbe2b7fa0cf60190600090565b7f4e487b7100000000000000000000000000000000000000000000000000000000600052603260045260246000fd5b6000818152600260205260408120546112a357600154680100000000000000008110156112765760018101806001558110156112495790826040927fb10e2d527612073b26eecdfd717e6a320cf44b4afac2b0732d9fcbe2b7fa0cf6015560015492815260026020522055600190565b6024827f4e487b710000000000000000000000000000000000000000000000000000000081526032600452fd5b6024827f4e487b710000000000000000000000000000000000000000000000000000000081526041600452fd5b905090565b156112af57565b60646040517f08c379a000000000000000000000000000000000000000000000000000000000815260206004820152600c60248201527f4f55545f4f465f52414e474500000000000000000000000000000000000000006044820152fd5b9190820391821161131a57565b7f4e487b7100000000000000000000000000000000000000000000000000000000600052601160045260246000fd5b67ffffffffffffffff8111610ce95760051b6020019056fea2646970667358221220e163c4af1422e9aa97233b8618d5f6a924174190cb33256c6e62d132eb0f4dc764736f6c63430008130033",
  "devdoc": {
    "kind": "dev",
    "methods": {
      "owner()": {
        "details": "Returns the address of the current owner."
      },
      "renounceOwnership()": {
        "details": "Leaves the contract without owner. It will not be possible to call `onlyOwner` functions. Can only be called by the current owner. NOTE: Renouncing ownership will leave the contract without an owner, thereby disabling any functionality that is only available to the owner."
      },
      "transferOwnership(address)": {
        "details": "Transfers ownership of the contract to a new account (`newOwner`). Can only be called by the current owner."
      }
    },
    "version": 1
  },
  "userdoc": {
    "kind": "user",
    "methods": {},
    "version": 1
  },
  "storageLayout": {
    "storage": [
      {
        "astId": 291,
        "contract": "contracts/registry/MecenateUsers.sol:MecenateUsers",
        "label": "_owner",
        "offset": 0,
        "slot": "0",
        "type": "t_address"
      },
      {
        "astId": 23199,
        "contract": "contracts/registry/MecenateUsers.sol:MecenateUsers",
        "label": "_users",
        "offset": 0,
        "slot": "1",
        "type": "t_struct(Bytes32Set)8001_storage"
      },
      {
        "astId": 23202,
        "contract": "contracts/registry/MecenateUsers.sol:MecenateUsers",
        "label": "_metadata",
        "offset": 0,
        "slot": "3",
        "type": "t_struct(User)18786_storage"
      },
      {
        "astId": 23208,
        "contract": "contracts/registry/MecenateUsers.sol:MecenateUsers",
        "label": "verifierContract",
        "offset": 0,
        "slot": "4",
        "type": "t_address"
      },
      {
        "astId": 23210,
        "contract": "contracts/registry/MecenateUsers.sol:MecenateUsers",
        "label": "treasuryContract",
        "offset": 0,
        "slot": "5",
        "type": "t_address"
      },
      {
        "astId": 23214,
        "contract": "contracts/registry/MecenateUsers.sol:MecenateUsers",
        "label": "userNames",
        "offset": 0,
        "slot": "6",
        "type": "t_mapping(t_bytes32,t_string_storage)"
      }
    ],
    "types": {
      "t_address": {
        "encoding": "inplace",
        "label": "address",
        "numberOfBytes": "20"
      },
      "t_array(t_bytes32)dyn_storage": {
        "base": "t_bytes32",
        "encoding": "dynamic_array",
        "label": "bytes32[]",
        "numberOfBytes": "32"
      },
      "t_bytes32": {
        "encoding": "inplace",
        "label": "bytes32",
        "numberOfBytes": "32"
      },
      "t_mapping(t_bytes32,t_string_storage)": {
        "encoding": "mapping",
        "key": "t_bytes32",
        "label": "mapping(bytes32 => string)",
        "numberOfBytes": "32",
        "value": "t_string_storage"
      },
      "t_mapping(t_bytes32,t_uint256)": {
        "encoding": "mapping",
        "key": "t_bytes32",
        "label": "mapping(bytes32 => uint256)",
        "numberOfBytes": "32",
        "value": "t_uint256"
      },
      "t_string_storage": {
        "encoding": "bytes",
        "label": "string",
        "numberOfBytes": "32"
      },
      "t_struct(Bytes32Set)8001_storage": {
        "encoding": "inplace",
        "label": "struct EnumerableSet.Bytes32Set",
        "members": [
          {
            "astId": 8000,
            "contract": "contracts/registry/MecenateUsers.sol:MecenateUsers",
            "label": "_inner",
            "offset": 0,
            "slot": "0",
            "type": "t_struct(Set)7807_storage"
          }
        ],
        "numberOfBytes": "64"
      },
      "t_struct(Set)7807_storage": {
        "encoding": "inplace",
        "label": "struct EnumerableSet.Set",
        "members": [
          {
            "astId": 7802,
            "contract": "contracts/registry/MecenateUsers.sol:MecenateUsers",
            "label": "_values",
            "offset": 0,
            "slot": "0",
            "type": "t_array(t_bytes32)dyn_storage"
          },
          {
            "astId": 7806,
            "contract": "contracts/registry/MecenateUsers.sol:MecenateUsers",
            "label": "_indexes",
            "offset": 0,
            "slot": "1",
            "type": "t_mapping(t_bytes32,t_uint256)"
          }
        ],
        "numberOfBytes": "64"
      },
      "t_struct(User)18786_storage": {
        "encoding": "inplace",
        "label": "struct Structures.User",
        "members": [
          {
            "astId": 18785,
            "contract": "contracts/registry/MecenateUsers.sol:MecenateUsers",
            "label": "vaultId",
            "offset": 0,
            "slot": "0",
            "type": "t_bytes32"
          }
        ],
        "numberOfBytes": "32"
      },
      "t_uint256": {
        "encoding": "inplace",
        "label": "uint256",
        "numberOfBytes": "32"
      }
    }
  }
}