{
  "address": "0xb27dc56e80DA00Fe939FC984fDb55b6E6107B5E7",
  "abi": [
    {
      "inputs": [
        {
          "internalType": "address",
          "name": "verifierContractAddress",
          "type": "address"
        }
      ],
      "stateMutability": "nonpayable",
      "type": "constructor"
    },
    {
      "anonymous": false,
      "inputs": [
        {
          "indexed": true,
          "internalType": "address",
          "name": "previousOwner",
          "type": "address"
        },
        {
          "indexed": true,
          "internalType": "address",
          "name": "newOwner",
          "type": "address"
        }
      ],
      "name": "OwnershipTransferred",
      "type": "event"
    },
    {
      "anonymous": false,
      "inputs": [
        {
          "indexed": true,
          "internalType": "address",
          "name": "userAddress",
          "type": "address"
        }
      ],
      "name": "UserRegistered",
      "type": "event"
    },
    {
      "inputs": [
        {
          "internalType": "address",
          "name": "userAddress",
          "type": "address"
        }
      ],
      "name": "checkifUserExist",
      "outputs": [
        {
          "internalType": "bool",
          "name": "",
          "type": "bool"
        }
      ],
      "stateMutability": "view",
      "type": "function"
    },
    {
      "inputs": [
        {
          "internalType": "uint256",
          "name": "startIndex",
          "type": "uint256"
        },
        {
          "internalType": "uint256",
          "name": "endIndex",
          "type": "uint256"
        }
      ],
      "name": "getPaginatedUsers",
      "outputs": [
        {
          "internalType": "address[]",
          "name": "",
          "type": "address[]"
        }
      ],
      "stateMutability": "view",
      "type": "function"
    },
    {
      "inputs": [
        {
          "internalType": "uint256",
          "name": "index",
          "type": "uint256"
        }
      ],
      "name": "getUserAt",
      "outputs": [
        {
          "internalType": "address",
          "name": "",
          "type": "address"
        }
      ],
      "stateMutability": "view",
      "type": "function"
    },
    {
      "inputs": [],
      "name": "getUserCount",
      "outputs": [
        {
          "internalType": "uint256",
          "name": "",
          "type": "uint256"
        }
      ],
      "stateMutability": "view",
      "type": "function"
    },
    {
      "inputs": [
        {
          "internalType": "address",
          "name": "userAddress",
          "type": "address"
        }
      ],
      "name": "getUserMetadata",
      "outputs": [
        {
          "components": [
            {
              "internalType": "address",
              "name": "evmAddress",
              "type": "address"
            },
            {
              "internalType": "bytes",
              "name": "sismoVaultId",
              "type": "bytes"
            },
            {
              "internalType": "bytes",
              "name": "publicKey",
              "type": "bytes"
            }
          ],
          "internalType": "struct Structures.User",
          "name": "",
          "type": "tuple"
        }
      ],
      "stateMutability": "view",
      "type": "function"
    },
    {
      "inputs": [
        {
          "internalType": "address",
          "name": "userAddress",
          "type": "address"
        }
      ],
      "name": "getUserPublicKey",
      "outputs": [
        {
          "internalType": "bytes",
          "name": "",
          "type": "bytes"
        }
      ],
      "stateMutability": "view",
      "type": "function"
    },
    {
      "inputs": [],
      "name": "getUsers",
      "outputs": [
        {
          "internalType": "address[]",
          "name": "",
          "type": "address[]"
        }
      ],
      "stateMutability": "view",
      "type": "function"
    },
    {
      "inputs": [],
      "name": "owner",
      "outputs": [
        {
          "internalType": "address",
          "name": "",
          "type": "address"
        }
      ],
      "stateMutability": "view",
      "type": "function"
    },
    {
      "inputs": [
        {
          "internalType": "bytes",
          "name": "metadata",
          "type": "bytes"
        }
      ],
      "name": "registerUser",
      "outputs": [],
      "stateMutability": "nonpayable",
      "type": "function"
    },
    {
      "inputs": [],
      "name": "renounceOwnership",
      "outputs": [],
      "stateMutability": "nonpayable",
      "type": "function"
    },
    {
      "inputs": [
        {
          "internalType": "address",
          "name": "newOwner",
          "type": "address"
        }
      ],
      "name": "transferOwnership",
      "outputs": [],
      "stateMutability": "nonpayable",
      "type": "function"
    },
    {
      "inputs": [],
      "name": "verifierContract",
      "outputs": [
        {
          "internalType": "address",
          "name": "",
          "type": "address"
        }
      ],
      "stateMutability": "view",
      "type": "function"
    }
  ],
  "transactionHash": "0xd6ac8d47d60bc0a7e8ff40726ad0dd1281137372e141ee5e96d34fb7bd6c025d",
  "args": [
    "0x5c0DaBD1960Cd862e190aecF1A853e1Ac669194E"
  ],
  "numDeployments": 10,
  "solcInputHash": "10d6fd1ef9abb518d5da7186a8a68ad2",
  "bytecode": "0x6080346100a757601f610e8438819003918201601f19168301916001600160401b038311848410176100ac578084926020946040528339810103126100a757516001600160a01b0390818116908190036100a75760005460018060a01b0319903382821617600055604051933391167f8be0079c531659141344cd1fd0a4f28419497f9722a3daafe3b4186f6b6457e0600080a36004541617600455610dc190816100c38239f35b600080fd5b634e487b7160e01b600052604160045260246000fdfe608060408181526004908136101561001657600080fd5b600092833560e01c908162ce8e3e1461092e575080630a38178c1461051957806311231fe0146104c757806348990fcc1461048b578063715018a6146104315780638da5cb5b14610409578063b5cb15f7146103ea578063c6e064ad146103a4578063cf5caa1214610265578063cf6956881461023d578063ef2a8764146101735763f2fde38b146100a757600080fd5b3461016f57602036600319011261016f576001600160a01b0382358181169391929084900361016b576100d8610aa9565b831561011957505082546001600160a01b0319811683178455167f8be0079c531659141344cd1fd0a4f28419497f9722a3daafe3b4186f6b6457e08380a380f35b906020608492519162461bcd60e51b8352820152602660248201527f4f776e61626c653a206e6577206f776e657220697320746865207a65726f206160448201526564647265737360d01b6064820152fd5b8480fd5b8280fd5b50903461016f5760209081600319360112610239576001600160a01b03939035848116908190036102355783610231939261021e9260608380516101b6816109f1565b84815282888201520152815260038452209360608151956101d6876109f1565b8781541687526101fa60026101ed60018401610ce5565b92878a0193845201610ce5565b948388019586528351988998828a5251169088015251918601526080850190610a84565b9051838203601f19016060850152610a84565b0390f35b5080fd5b8380fd5b50903461016f578260031936011261016f575490516001600160a01b03909116815260209150f35b50829034610235578060031936011261023557823591602480359182851015610357576001956102988754851115610c6f565b6102a28685610caa565b956102ac87610ccd565b966102b987519889610a23565b8088526102c8601f1991610ccd565b0160209036828a0137815b8681106102e7578751806102318b826109ad565b6102f081610b85565b9054906102fd8584610caa565b918b518310156103455760039190911b1c6001600160a01b031660059190911b8a0183015260001981146103325789016102d3565b5050634e487b7160e01b83525060119052fd5b634e487b7160e01b8852603287528888fd5b835162461bcd60e51b81526020818801526022818401527f53544152545f494e4445585f475245415445525f5448414e5f454e445f494e4460448201526108ab60f31b6064820152608490fd5b5082346103e75760203660031901126103e757506103d1602092356103cc6001548210610c6f565b610b85565b905491519160018060a01b039160031b1c168152f35b80fd5b8382346102355781600319360112610235576020906001549051908152f35b838234610235578160031936011261023557905490516001600160a01b039091168152602090f35b83346103e757806003193601126103e75761044a610aa9565b80546001600160a01b03198116825581906001600160a01b03167f8be0079c531659141344cd1fd0a4f28419497f9722a3daafe3b4186f6b6457e08280a380f35b50903461016f57602036600319011261016f57356001600160a01b0381169081900361016f578282916020945260028452205415159051908152f35b50903461016f57602036600319011261016f57356001600160a01b0381169081900361016f576002828461050693610231965260036020522001610ce5565b9051918291602083526020830190610a84565b503461016f57602090816003193601126102395767ffffffffffffffff833581811161092a573660238201121561092a5780850135908661055983610a45565b9161056686519384610a23565b83835286830193366024828401011161016f578060248993018637830101528051810191848287850194031261092657518381116109265782866105ac92840101610b01565b918482015191848311610918576105c592018601610b01565b916105f88760018060a01b039384895416888a89519586948593849363119f099160e01b85528401526024830190610a84565b03915afa90811561091c5788916108df575b50845192610617846109f1565b33808552878501928352868501958652895260038752858920935184546001600160a01b03191691161783555180516001939091908481018484116108cc576106608154610b4b565b93601f94858111610887575b50898c868311600114610824579060029583610819575b5050600019600383901b1c191690871b1790555b0193518051928311610806576106ad8554610b4b565b8281116107c3575b5086918311600114610764579282939183928a94610759575b50501b916000199060031b1c19161790555b338452600282528084205461072257836106f933610bd2565b50337f54db7a5cb4735e1aac1f53db512d3390390bb6637bd30ad4bf9fc98667d9b9b98280a280f35b5162461bcd60e51b8152918201526013602482015272555345525f414c52454144595f45584953545360681b604482015260649150fd5b0151925038806106ce565b848952868920919083601f1981168b5b8a888383106107ac5750505010610793575b505050811b0190556106e0565b015160001960f88460031b161c19169055388080610786565b868601518855909601959485019487935001610774565b858a52878a208380860160051c8201928a87106107fd575b0160051c019085905b8281106107f25750506106b5565b8b81550185906107e4565b925081926107db565b634e487b7160e01b895260418852602489fd5b015190503880610683565b889291601f1983168583528d80842093905b828210610870575050968360029810610857575b505050811b019055610697565b015160001960f88460031b161c1916905538808061084a565b838a015185558c969094019392830192018e610836565b828d528a8d208680840160051c8201928d85106108c3575b0160051c019088908e5b8382106108b85750505061066c565b81550188908e6108a9565b9250819261089f565b634e487b7160e01b8b5260418a5260248bfd5b90503d8089833e6108f08183610a23565b810186828203126109185781518381116109145761090e9201610b01565b3861060a565b8980fd5b8880fd5b85513d8a823e3d90fd5b8780fd5b8580fd5b9250503461016f578260031936011261016f57600180548084528185526020808501957fb10e2d527612073b26eecdfd717e6a320cf44b4afac2b0732d9fcbe2b7fa0cf69392915b82821061099857610231878761098e828c0383610a23565b51918291826109ad565b84548852968701969383019390830190610976565b6020908160408183019282815285518094520193019160005b8281106109d4575050505090565b83516001600160a01b0316855293810193928101926001016109c6565b6060810190811067ffffffffffffffff821117610a0d57604052565b634e487b7160e01b600052604160045260246000fd5b90601f8019910116810190811067ffffffffffffffff821117610a0d57604052565b67ffffffffffffffff8111610a0d57601f01601f191660200190565b60005b838110610a745750506000910152565b8181015183820152602001610a64565b90602091610a9d81518092818552858086019101610a61565b601f01601f1916010190565b6000546001600160a01b03163303610abd57565b606460405162461bcd60e51b815260206004820152602060248201527f4f776e61626c653a2063616c6c6572206973206e6f7420746865206f776e65726044820152fd5b81601f82011215610b46578051610b1781610a45565b92610b256040519485610a23565b81845260208284010111610b4657610b439160208085019101610a61565b90565b600080fd5b90600182811c92168015610b7b575b6020831014610b6557565b634e487b7160e01b600052602260045260246000fd5b91607f1691610b5a565b600154811015610bbc5760016000527fb10e2d527612073b26eecdfd717e6a320cf44b4afac2b0732d9fcbe2b7fa0cf60190600090565b634e487b7160e01b600052603260045260246000fd5b600081815260026020526040812054610c6a5760015468010000000000000000811015610c56576001810180600155811015610c425790826040927fb10e2d527612073b26eecdfd717e6a320cf44b4afac2b0732d9fcbe2b7fa0cf6015560015492815260026020522055600190565b634e487b7160e01b82526032600452602482fd5b634e487b7160e01b82526041600452602482fd5b905090565b15610c7657565b60405162461bcd60e51b815260206004820152600c60248201526b4f55545f4f465f52414e474560a01b6044820152606490fd5b91908203918211610cb757565b634e487b7160e01b600052601160045260246000fd5b67ffffffffffffffff8111610a0d5760051b60200190565b9060405191826000825492610cf984610b4b565b908184526001948581169081600014610d685750600114610d25575b5050610d2392500383610a23565b565b9093915060005260209081600020936000915b818310610d50575050610d2393508201013880610d15565b85548884018501529485019487945091830191610d38565b915050610d2394506020925060ff191682840152151560051b8201013880610d1556fea26469706673582212203b0befcfe41cb8ba980b4b4c73aa79be8b7723f94e064003463493ef21b7487d64736f6c63430008130033",
  "devdoc": {
    "kind": "dev",
    "methods": {
      "owner()": {
        "details": "Returns the address of the current owner."
      },
      "renounceOwnership()": {
        "details": "Leaves the contract without owner. It will not be possible to call `onlyOwner` functions. Can only be called by the current owner. NOTE: Renouncing ownership will leave the contract without an owner, thereby disabling any functionality that is only available to the owner."
      },
      "transferOwnership(address)": {
        "details": "Transfers ownership of the contract to a new account (`newOwner`). Can only be called by the current owner."
      }
    },
    "version": 1
  },
  "userdoc": {
    "kind": "user",
    "methods": {},
    "version": 1
  },
  "storageLayout": {
    "storage": [
      {
        "astId": 7,
        "contract": "contracts/evm/registry/MecenateUsers.sol:MecenateUsers",
        "label": "_owner",
        "offset": 0,
        "slot": "0",
        "type": "t_address"
      },
      {
        "astId": 10716,
        "contract": "contracts/evm/registry/MecenateUsers.sol:MecenateUsers",
        "label": "_users",
        "offset": 0,
        "slot": "1",
        "type": "t_struct(AddressSet)3956_storage"
      },
      {
        "astId": 10721,
        "contract": "contracts/evm/registry/MecenateUsers.sol:MecenateUsers",
        "label": "_metadata",
        "offset": 0,
        "slot": "3",
        "type": "t_mapping(t_address,t_struct(User)6942_storage)"
      },
      {
        "astId": 10723,
        "contract": "contracts/evm/registry/MecenateUsers.sol:MecenateUsers",
        "label": "verifierContract",
        "offset": 0,
        "slot": "4",
        "type": "t_address"
      }
    ],
    "types": {
      "t_address": {
        "encoding": "inplace",
        "label": "address",
        "numberOfBytes": "20"
      },
      "t_array(t_bytes32)dyn_storage": {
        "base": "t_bytes32",
        "encoding": "dynamic_array",
        "label": "bytes32[]",
        "numberOfBytes": "32"
      },
      "t_bytes32": {
        "encoding": "inplace",
        "label": "bytes32",
        "numberOfBytes": "32"
      },
      "t_bytes_storage": {
        "encoding": "bytes",
        "label": "bytes",
        "numberOfBytes": "32"
      },
      "t_mapping(t_address,t_struct(User)6942_storage)": {
        "encoding": "mapping",
        "key": "t_address",
        "label": "mapping(address => struct Structures.User)",
        "numberOfBytes": "32",
        "value": "t_struct(User)6942_storage"
      },
      "t_mapping(t_bytes32,t_uint256)": {
        "encoding": "mapping",
        "key": "t_bytes32",
        "label": "mapping(bytes32 => uint256)",
        "numberOfBytes": "32",
        "value": "t_uint256"
      },
      "t_struct(AddressSet)3956_storage": {
        "encoding": "inplace",
        "label": "struct EnumerableSet.AddressSet",
        "members": [
          {
            "astId": 3955,
            "contract": "contracts/evm/registry/MecenateUsers.sol:MecenateUsers",
            "label": "_inner",
            "offset": 0,
            "slot": "0",
            "type": "t_struct(Set)3641_storage"
          }
        ],
        "numberOfBytes": "64"
      },
      "t_struct(Set)3641_storage": {
        "encoding": "inplace",
        "label": "struct EnumerableSet.Set",
        "members": [
          {
            "astId": 3636,
            "contract": "contracts/evm/registry/MecenateUsers.sol:MecenateUsers",
            "label": "_values",
            "offset": 0,
            "slot": "0",
            "type": "t_array(t_bytes32)dyn_storage"
          },
          {
            "astId": 3640,
            "contract": "contracts/evm/registry/MecenateUsers.sol:MecenateUsers",
            "label": "_indexes",
            "offset": 0,
            "slot": "1",
            "type": "t_mapping(t_bytes32,t_uint256)"
          }
        ],
        "numberOfBytes": "64"
      },
      "t_struct(User)6942_storage": {
        "encoding": "inplace",
        "label": "struct Structures.User",
        "members": [
          {
            "astId": 6937,
            "contract": "contracts/evm/registry/MecenateUsers.sol:MecenateUsers",
            "label": "evmAddress",
            "offset": 0,
            "slot": "0",
            "type": "t_address"
          },
          {
            "astId": 6939,
            "contract": "contracts/evm/registry/MecenateUsers.sol:MecenateUsers",
            "label": "sismoVaultId",
            "offset": 0,
            "slot": "1",
            "type": "t_bytes_storage"
          },
          {
            "astId": 6941,
            "contract": "contracts/evm/registry/MecenateUsers.sol:MecenateUsers",
            "label": "publicKey",
            "offset": 0,
            "slot": "2",
            "type": "t_bytes_storage"
          }
        ],
        "numberOfBytes": "96"
      },
      "t_uint256": {
        "encoding": "inplace",
        "label": "uint256",
        "numberOfBytes": "32"
      }
    }
  }
}