{
  "address": "0x70F6cb8006DbA377c8c65D98DD868e9B8baB5E9B",
  "abi": [
    {
      "inputs": [
        {
          "internalType": "address",
          "name": "_owner",
          "type": "address"
        },
        {
          "internalType": "address",
          "name": "_usersModuleContract",
          "type": "address"
        },
        {
          "internalType": "address",
          "name": "_factoryContract",
          "type": "address"
        },
        {
          "internalType": "uint256",
          "name": "_major",
          "type": "uint256"
        },
        {
          "internalType": "uint256",
          "name": "_minor",
          "type": "uint256"
        },
        {
          "internalType": "uint256",
          "name": "_patch",
          "type": "uint256"
        }
      ],
      "stateMutability": "nonpayable",
      "type": "constructor"
    },
    {
      "anonymous": false,
      "inputs": [
        {
          "components": [
            {
              "components": [
                {
                  "internalType": "address",
                  "name": "evmAddress",
                  "type": "address"
                },
                {
                  "internalType": "bytes",
                  "name": "sismoVaultId",
                  "type": "bytes"
                },
                {
                  "internalType": "bytes",
                  "name": "publicKey",
                  "type": "bytes"
                }
              ],
              "internalType": "struct Structures.User",
              "name": "creator",
              "type": "tuple"
            },
            {
              "components": [
                {
                  "components": [
                    {
                      "internalType": "enum Structures.PostStatus",
                      "name": "status",
                      "type": "uint8"
                    },
                    {
                      "internalType": "enum Structures.PostType",
                      "name": "postType",
                      "type": "uint8"
                    },
                    {
                      "internalType": "uint256",
                      "name": "creationTimeStamp",
                      "type": "uint256"
                    },
                    {
                      "internalType": "uint256",
                      "name": "endTimeStamp",
                      "type": "uint256"
                    },
                    {
                      "internalType": "uint256",
                      "name": "duration",
                      "type": "uint256"
                    },
                    {
                      "internalType": "enum Structures.Tokens",
                      "name": "tokenId",
                      "type": "uint8"
                    },
                    {
                      "internalType": "bytes32",
                      "name": "postId",
                      "type": "bytes32"
                    }
                  ],
                  "internalType": "struct Structures.PostSettings",
                  "name": "settings",
                  "type": "tuple"
                },
                {
                  "components": [
                    {
                      "internalType": "address",
                      "name": "buyer",
                      "type": "address"
                    },
                    {
                      "internalType": "address",
                      "name": "seller",
                      "type": "address"
                    },
                    {
                      "internalType": "uint256",
                      "name": "stake",
                      "type": "uint256"
                    },
                    {
                      "internalType": "uint256",
                      "name": "payment",
                      "type": "uint256"
                    },
                    {
                      "internalType": "uint256",
                      "name": "punishment",
                      "type": "uint256"
                    },
                    {
                      "internalType": "uint256",
                      "name": "penalty",
                      "type": "uint256"
                    }
                  ],
                  "internalType": "struct Structures.PostEscrow",
                  "name": "escrow",
                  "type": "tuple"
                },
                {
                  "components": [
                    {
                      "internalType": "bytes",
                      "name": "encryptedData",
                      "type": "bytes"
                    },
                    {
                      "internalType": "bytes",
                      "name": "encryptedKey",
                      "type": "bytes"
                    },
                    {
                      "internalType": "bytes",
                      "name": "decryptedData",
                      "type": "bytes"
                    }
                  ],
                  "internalType": "struct Structures.PostEncryptedData",
                  "name": "data",
                  "type": "tuple"
                }
              ],
              "internalType": "struct Structures.PostData",
              "name": "postdata",
              "type": "tuple"
            }
          ],
          "indexed": false,
          "internalType": "struct Structures.Post",
          "name": "post",
          "type": "tuple"
        }
      ],
      "name": "Accepted",
      "type": "event"
    },
    {
      "anonymous": false,
      "inputs": [
        {
          "components": [
            {
              "components": [
                {
                  "internalType": "address",
                  "name": "evmAddress",
                  "type": "address"
                },
                {
                  "internalType": "bytes",
                  "name": "sismoVaultId",
                  "type": "bytes"
                },
                {
                  "internalType": "bytes",
                  "name": "publicKey",
                  "type": "bytes"
                }
              ],
              "internalType": "struct Structures.User",
              "name": "creator",
              "type": "tuple"
            },
            {
              "components": [
                {
                  "components": [
                    {
                      "internalType": "enum Structures.PostStatus",
                      "name": "status",
                      "type": "uint8"
                    },
                    {
                      "internalType": "enum Structures.PostType",
                      "name": "postType",
                      "type": "uint8"
                    },
                    {
                      "internalType": "uint256",
                      "name": "creationTimeStamp",
                      "type": "uint256"
                    },
                    {
                      "internalType": "uint256",
                      "name": "endTimeStamp",
                      "type": "uint256"
                    },
                    {
                      "internalType": "uint256",
                      "name": "duration",
                      "type": "uint256"
                    },
                    {
                      "internalType": "enum Structures.Tokens",
                      "name": "tokenId",
                      "type": "uint8"
                    },
                    {
                      "internalType": "bytes32",
                      "name": "postId",
                      "type": "bytes32"
                    }
                  ],
                  "internalType": "struct Structures.PostSettings",
                  "name": "settings",
                  "type": "tuple"
                },
                {
                  "components": [
                    {
                      "internalType": "address",
                      "name": "buyer",
                      "type": "address"
                    },
                    {
                      "internalType": "address",
                      "name": "seller",
                      "type": "address"
                    },
                    {
                      "internalType": "uint256",
                      "name": "stake",
                      "type": "uint256"
                    },
                    {
                      "internalType": "uint256",
                      "name": "payment",
                      "type": "uint256"
                    },
                    {
                      "internalType": "uint256",
                      "name": "punishment",
                      "type": "uint256"
                    },
                    {
                      "internalType": "uint256",
                      "name": "penalty",
                      "type": "uint256"
                    }
                  ],
                  "internalType": "struct Structures.PostEscrow",
                  "name": "escrow",
                  "type": "tuple"
                },
                {
                  "components": [
                    {
                      "internalType": "bytes",
                      "name": "encryptedData",
                      "type": "bytes"
                    },
                    {
                      "internalType": "bytes",
                      "name": "encryptedKey",
                      "type": "bytes"
                    },
                    {
                      "internalType": "bytes",
                      "name": "decryptedData",
                      "type": "bytes"
                    }
                  ],
                  "internalType": "struct Structures.PostEncryptedData",
                  "name": "data",
                  "type": "tuple"
                }
              ],
              "internalType": "struct Structures.PostData",
              "name": "postdata",
              "type": "tuple"
            }
          ],
          "indexed": false,
          "internalType": "struct Structures.Post",
          "name": "post",
          "type": "tuple"
        }
      ],
      "name": "Created",
      "type": "event"
    },
    {
      "anonymous": false,
      "inputs": [
        {
          "indexed": false,
          "internalType": "enum Structures.Tokens",
          "name": "tokenID",
          "type": "uint8"
        },
        {
          "indexed": false,
          "internalType": "address",
          "name": "user",
          "type": "address"
        },
        {
          "indexed": false,
          "internalType": "uint256",
          "name": "amount",
          "type": "uint256"
        },
        {
          "indexed": false,
          "internalType": "uint256",
          "name": "newDeposit",
          "type": "uint256"
        }
      ],
      "name": "DepositDecreased",
      "type": "event"
    },
    {
      "anonymous": false,
      "inputs": [
        {
          "indexed": false,
          "internalType": "enum Structures.Tokens",
          "name": "tokenID",
          "type": "uint8"
        },
        {
          "indexed": false,
          "internalType": "address",
          "name": "user",
          "type": "address"
        },
        {
          "indexed": false,
          "internalType": "uint256",
          "name": "amount",
          "type": "uint256"
        },
        {
          "indexed": false,
          "internalType": "uint256",
          "name": "newDeposit",
          "type": "uint256"
        }
      ],
      "name": "DepositIncreased",
      "type": "event"
    },
    {
      "anonymous": false,
      "inputs": [
        {
          "components": [
            {
              "components": [
                {
                  "internalType": "address",
                  "name": "evmAddress",
                  "type": "address"
                },
                {
                  "internalType": "bytes",
                  "name": "sismoVaultId",
                  "type": "bytes"
                },
                {
                  "internalType": "bytes",
                  "name": "publicKey",
                  "type": "bytes"
                }
              ],
              "internalType": "struct Structures.User",
              "name": "creator",
              "type": "tuple"
            },
            {
              "components": [
                {
                  "components": [
                    {
                      "internalType": "enum Structures.PostStatus",
                      "name": "status",
                      "type": "uint8"
                    },
                    {
                      "internalType": "enum Structures.PostType",
                      "name": "postType",
                      "type": "uint8"
                    },
                    {
                      "internalType": "uint256",
                      "name": "creationTimeStamp",
                      "type": "uint256"
                    },
                    {
                      "internalType": "uint256",
                      "name": "endTimeStamp",
                      "type": "uint256"
                    },
                    {
                      "internalType": "uint256",
                      "name": "duration",
                      "type": "uint256"
                    },
                    {
                      "internalType": "enum Structures.Tokens",
                      "name": "tokenId",
                      "type": "uint8"
                    },
                    {
                      "internalType": "bytes32",
                      "name": "postId",
                      "type": "bytes32"
                    }
                  ],
                  "internalType": "struct Structures.PostSettings",
                  "name": "settings",
                  "type": "tuple"
                },
                {
                  "components": [
                    {
                      "internalType": "address",
                      "name": "buyer",
                      "type": "address"
                    },
                    {
                      "internalType": "address",
                      "name": "seller",
                      "type": "address"
                    },
                    {
                      "internalType": "uint256",
                      "name": "stake",
                      "type": "uint256"
                    },
                    {
                      "internalType": "uint256",
                      "name": "payment",
                      "type": "uint256"
                    },
                    {
                      "internalType": "uint256",
                      "name": "punishment",
                      "type": "uint256"
                    },
                    {
                      "internalType": "uint256",
                      "name": "penalty",
                      "type": "uint256"
                    }
                  ],
                  "internalType": "struct Structures.PostEscrow",
                  "name": "escrow",
                  "type": "tuple"
                },
                {
                  "components": [
                    {
                      "internalType": "bytes",
                      "name": "encryptedData",
                      "type": "bytes"
                    },
                    {
                      "internalType": "bytes",
                      "name": "encryptedKey",
                      "type": "bytes"
                    },
                    {
                      "internalType": "bytes",
                      "name": "decryptedData",
                      "type": "bytes"
                    }
                  ],
                  "internalType": "struct Structures.PostEncryptedData",
                  "name": "data",
                  "type": "tuple"
                }
              ],
              "internalType": "struct Structures.PostData",
              "name": "postdata",
              "type": "tuple"
            }
          ],
          "indexed": false,
          "internalType": "struct Structures.Post",
          "name": "post",
          "type": "tuple"
        }
      ],
      "name": "Finalized",
      "type": "event"
    },
    {
      "anonymous": false,
      "inputs": [
        {
          "components": [
            {
              "components": [
                {
                  "internalType": "address",
                  "name": "evmAddress",
                  "type": "address"
                },
                {
                  "internalType": "bytes",
                  "name": "sismoVaultId",
                  "type": "bytes"
                },
                {
                  "internalType": "bytes",
                  "name": "publicKey",
                  "type": "bytes"
                }
              ],
              "internalType": "struct Structures.User",
              "name": "creator",
              "type": "tuple"
            },
            {
              "components": [
                {
                  "components": [
                    {
                      "internalType": "enum Structures.PostStatus",
                      "name": "status",
                      "type": "uint8"
                    },
                    {
                      "internalType": "enum Structures.PostType",
                      "name": "postType",
                      "type": "uint8"
                    },
                    {
                      "internalType": "uint256",
                      "name": "creationTimeStamp",
                      "type": "uint256"
                    },
                    {
                      "internalType": "uint256",
                      "name": "endTimeStamp",
                      "type": "uint256"
                    },
                    {
                      "internalType": "uint256",
                      "name": "duration",
                      "type": "uint256"
                    },
                    {
                      "internalType": "enum Structures.Tokens",
                      "name": "tokenId",
                      "type": "uint8"
                    },
                    {
                      "internalType": "bytes32",
                      "name": "postId",
                      "type": "bytes32"
                    }
                  ],
                  "internalType": "struct Structures.PostSettings",
                  "name": "settings",
                  "type": "tuple"
                },
                {
                  "components": [
                    {
                      "internalType": "address",
                      "name": "buyer",
                      "type": "address"
                    },
                    {
                      "internalType": "address",
                      "name": "seller",
                      "type": "address"
                    },
                    {
                      "internalType": "uint256",
                      "name": "stake",
                      "type": "uint256"
                    },
                    {
                      "internalType": "uint256",
                      "name": "payment",
                      "type": "uint256"
                    },
                    {
                      "internalType": "uint256",
                      "name": "punishment",
                      "type": "uint256"
                    },
                    {
                      "internalType": "uint256",
                      "name": "penalty",
                      "type": "uint256"
                    }
                  ],
                  "internalType": "struct Structures.PostEscrow",
                  "name": "escrow",
                  "type": "tuple"
                },
                {
                  "components": [
                    {
                      "internalType": "bytes",
                      "name": "encryptedData",
                      "type": "bytes"
                    },
                    {
                      "internalType": "bytes",
                      "name": "encryptedKey",
                      "type": "bytes"
                    },
                    {
                      "internalType": "bytes",
                      "name": "decryptedData",
                      "type": "bytes"
                    }
                  ],
                  "internalType": "struct Structures.PostEncryptedData",
                  "name": "data",
                  "type": "tuple"
                }
              ],
              "internalType": "struct Structures.PostData",
              "name": "postdata",
              "type": "tuple"
            }
          ],
          "indexed": false,
          "internalType": "struct Structures.Post",
          "name": "post",
          "type": "tuple"
        }
      ],
      "name": "Invalid",
      "type": "event"
    },
    {
      "anonymous": false,
      "inputs": [
        {
          "components": [
            {
              "components": [
                {
                  "internalType": "address",
                  "name": "evmAddress",
                  "type": "address"
                },
                {
                  "internalType": "bytes",
                  "name": "sismoVaultId",
                  "type": "bytes"
                },
                {
                  "internalType": "bytes",
                  "name": "publicKey",
                  "type": "bytes"
                }
              ],
              "internalType": "struct Structures.User",
              "name": "creator",
              "type": "tuple"
            },
            {
              "components": [
                {
                  "components": [
                    {
                      "internalType": "enum Structures.PostStatus",
                      "name": "status",
                      "type": "uint8"
                    },
                    {
                      "internalType": "enum Structures.PostType",
                      "name": "postType",
                      "type": "uint8"
                    },
                    {
                      "internalType": "uint256",
                      "name": "creationTimeStamp",
                      "type": "uint256"
                    },
                    {
                      "internalType": "uint256",
                      "name": "endTimeStamp",
                      "type": "uint256"
                    },
                    {
                      "internalType": "uint256",
                      "name": "duration",
                      "type": "uint256"
                    },
                    {
                      "internalType": "enum Structures.Tokens",
                      "name": "tokenId",
                      "type": "uint8"
                    },
                    {
                      "internalType": "bytes32",
                      "name": "postId",
                      "type": "bytes32"
                    }
                  ],
                  "internalType": "struct Structures.PostSettings",
                  "name": "settings",
                  "type": "tuple"
                },
                {
                  "components": [
                    {
                      "internalType": "address",
                      "name": "buyer",
                      "type": "address"
                    },
                    {
                      "internalType": "address",
                      "name": "seller",
                      "type": "address"
                    },
                    {
                      "internalType": "uint256",
                      "name": "stake",
                      "type": "uint256"
                    },
                    {
                      "internalType": "uint256",
                      "name": "payment",
                      "type": "uint256"
                    },
                    {
                      "internalType": "uint256",
                      "name": "punishment",
                      "type": "uint256"
                    },
                    {
                      "internalType": "uint256",
                      "name": "penalty",
                      "type": "uint256"
                    }
                  ],
                  "internalType": "struct Structures.PostEscrow",
                  "name": "escrow",
                  "type": "tuple"
                },
                {
                  "components": [
                    {
                      "internalType": "bytes",
                      "name": "encryptedData",
                      "type": "bytes"
                    },
                    {
                      "internalType": "bytes",
                      "name": "encryptedKey",
                      "type": "bytes"
                    },
                    {
                      "internalType": "bytes",
                      "name": "decryptedData",
                      "type": "bytes"
                    }
                  ],
                  "internalType": "struct Structures.PostEncryptedData",
                  "name": "data",
                  "type": "tuple"
                }
              ],
              "internalType": "struct Structures.PostData",
              "name": "postdata",
              "type": "tuple"
            }
          ],
          "indexed": false,
          "internalType": "struct Structures.Post",
          "name": "post",
          "type": "tuple"
        }
      ],
      "name": "MadePublic",
      "type": "event"
    },
    {
      "anonymous": false,
      "inputs": [
        {
          "components": [
            {
              "components": [
                {
                  "internalType": "address",
                  "name": "evmAddress",
                  "type": "address"
                },
                {
                  "internalType": "bytes",
                  "name": "sismoVaultId",
                  "type": "bytes"
                },
                {
                  "internalType": "bytes",
                  "name": "publicKey",
                  "type": "bytes"
                }
              ],
              "internalType": "struct Structures.User",
              "name": "creator",
              "type": "tuple"
            },
            {
              "components": [
                {
                  "components": [
                    {
                      "internalType": "enum Structures.PostStatus",
                      "name": "status",
                      "type": "uint8"
                    },
                    {
                      "internalType": "enum Structures.PostType",
                      "name": "postType",
                      "type": "uint8"
                    },
                    {
                      "internalType": "uint256",
                      "name": "creationTimeStamp",
                      "type": "uint256"
                    },
                    {
                      "internalType": "uint256",
                      "name": "endTimeStamp",
                      "type": "uint256"
                    },
                    {
                      "internalType": "uint256",
                      "name": "duration",
                      "type": "uint256"
                    },
                    {
                      "internalType": "enum Structures.Tokens",
                      "name": "tokenId",
                      "type": "uint8"
                    },
                    {
                      "internalType": "bytes32",
                      "name": "postId",
                      "type": "bytes32"
                    }
                  ],
                  "internalType": "struct Structures.PostSettings",
                  "name": "settings",
                  "type": "tuple"
                },
                {
                  "components": [
                    {
                      "internalType": "address",
                      "name": "buyer",
                      "type": "address"
                    },
                    {
                      "internalType": "address",
                      "name": "seller",
                      "type": "address"
                    },
                    {
                      "internalType": "uint256",
                      "name": "stake",
                      "type": "uint256"
                    },
                    {
                      "internalType": "uint256",
                      "name": "payment",
                      "type": "uint256"
                    },
                    {
                      "internalType": "uint256",
                      "name": "punishment",
                      "type": "uint256"
                    },
                    {
                      "internalType": "uint256",
                      "name": "penalty",
                      "type": "uint256"
                    }
                  ],
                  "internalType": "struct Structures.PostEscrow",
                  "name": "escrow",
                  "type": "tuple"
                },
                {
                  "components": [
                    {
                      "internalType": "bytes",
                      "name": "encryptedData",
                      "type": "bytes"
                    },
                    {
                      "internalType": "bytes",
                      "name": "encryptedKey",
                      "type": "bytes"
                    },
                    {
                      "internalType": "bytes",
                      "name": "decryptedData",
                      "type": "bytes"
                    }
                  ],
                  "internalType": "struct Structures.PostEncryptedData",
                  "name": "data",
                  "type": "tuple"
                }
              ],
              "internalType": "struct Structures.PostData",
              "name": "postdata",
              "type": "tuple"
            }
          ],
          "indexed": false,
          "internalType": "struct Structures.Post",
          "name": "post",
          "type": "tuple"
        }
      ],
      "name": "Renounced",
      "type": "event"
    },
    {
      "anonymous": false,
      "inputs": [
        {
          "indexed": false,
          "internalType": "address",
          "name": "staker",
          "type": "address"
        },
        {
          "indexed": false,
          "internalType": "uint256",
          "name": "amount",
          "type": "uint256"
        },
        {
          "indexed": false,
          "internalType": "enum Structures.Tokens",
          "name": "tokenId",
          "type": "uint8"
        }
      ],
      "name": "StakeAdded",
      "type": "event"
    },
    {
      "anonymous": false,
      "inputs": [
        {
          "indexed": false,
          "internalType": "address",
          "name": "staker",
          "type": "address"
        },
        {
          "indexed": false,
          "internalType": "uint256",
          "name": "amount",
          "type": "uint256"
        }
      ],
      "name": "StakeBurned",
      "type": "event"
    },
    {
      "anonymous": false,
      "inputs": [
        {
          "indexed": false,
          "internalType": "address",
          "name": "staker",
          "type": "address"
        },
        {
          "indexed": false,
          "internalType": "uint256",
          "name": "amount",
          "type": "uint256"
        },
        {
          "indexed": false,
          "internalType": "enum Structures.Tokens",
          "name": "tokenId",
          "type": "uint8"
        }
      ],
      "name": "StakeTaken",
      "type": "event"
    },
    {
      "anonymous": false,
      "inputs": [
        {
          "components": [
            {
              "components": [
                {
                  "internalType": "address",
                  "name": "evmAddress",
                  "type": "address"
                },
                {
                  "internalType": "bytes",
                  "name": "sismoVaultId",
                  "type": "bytes"
                },
                {
                  "internalType": "bytes",
                  "name": "publicKey",
                  "type": "bytes"
                }
              ],
              "internalType": "struct Structures.User",
              "name": "creator",
              "type": "tuple"
            },
            {
              "components": [
                {
                  "components": [
                    {
                      "internalType": "enum Structures.PostStatus",
                      "name": "status",
                      "type": "uint8"
                    },
                    {
                      "internalType": "enum Structures.PostType",
                      "name": "postType",
                      "type": "uint8"
                    },
                    {
                      "internalType": "uint256",
                      "name": "creationTimeStamp",
                      "type": "uint256"
                    },
                    {
                      "internalType": "uint256",
                      "name": "endTimeStamp",
                      "type": "uint256"
                    },
                    {
                      "internalType": "uint256",
                      "name": "duration",
                      "type": "uint256"
                    },
                    {
                      "internalType": "enum Structures.Tokens",
                      "name": "tokenId",
                      "type": "uint8"
                    },
                    {
                      "internalType": "bytes32",
                      "name": "postId",
                      "type": "bytes32"
                    }
                  ],
                  "internalType": "struct Structures.PostSettings",
                  "name": "settings",
                  "type": "tuple"
                },
                {
                  "components": [
                    {
                      "internalType": "address",
                      "name": "buyer",
                      "type": "address"
                    },
                    {
                      "internalType": "address",
                      "name": "seller",
                      "type": "address"
                    },
                    {
                      "internalType": "uint256",
                      "name": "stake",
                      "type": "uint256"
                    },
                    {
                      "internalType": "uint256",
                      "name": "payment",
                      "type": "uint256"
                    },
                    {
                      "internalType": "uint256",
                      "name": "punishment",
                      "type": "uint256"
                    },
                    {
                      "internalType": "uint256",
                      "name": "penalty",
                      "type": "uint256"
                    }
                  ],
                  "internalType": "struct Structures.PostEscrow",
                  "name": "escrow",
                  "type": "tuple"
                },
                {
                  "components": [
                    {
                      "internalType": "bytes",
                      "name": "encryptedData",
                      "type": "bytes"
                    },
                    {
                      "internalType": "bytes",
                      "name": "encryptedKey",
                      "type": "bytes"
                    },
                    {
                      "internalType": "bytes",
                      "name": "decryptedData",
                      "type": "bytes"
                    }
                  ],
                  "internalType": "struct Structures.PostEncryptedData",
                  "name": "data",
                  "type": "tuple"
                }
              ],
              "internalType": "struct Structures.PostData",
              "name": "postdata",
              "type": "tuple"
            }
          ],
          "indexed": false,
          "internalType": "struct Structures.Post",
          "name": "post",
          "type": "tuple"
        }
      ],
      "name": "Valid",
      "type": "event"
    },
    {
      "inputs": [
        {
          "internalType": "enum Structures.Tokens",
          "name": "tokenId",
          "type": "uint8"
        },
        {
          "internalType": "uint256",
          "name": "paymentAmount",
          "type": "uint256"
        },
        {
          "internalType": "address",
          "name": "funder",
          "type": "address"
        },
        {
          "internalType": "address",
          "name": "buyer",
          "type": "address"
        }
      ],
      "name": "acceptPost",
      "outputs": [],
      "stateMutability": "payable",
      "type": "function"
    },
    {
      "inputs": [
        {
          "internalType": "enum Structures.Tokens",
          "name": "tokenId",
          "type": "uint8"
        },
        {
          "internalType": "address",
          "name": "_funder",
          "type": "address"
        },
        {
          "internalType": "uint256",
          "name": "amountToAdd",
          "type": "uint256"
        }
      ],
      "name": "addStake",
      "outputs": [
        {
          "internalType": "uint256",
          "name": "",
          "type": "uint256"
        }
      ],
      "stateMutability": "payable",
      "type": "function"
    },
    {
      "inputs": [
        {
          "internalType": "bytes32",
          "name": "postId",
          "type": "bytes32"
        }
      ],
      "name": "containPostId",
      "outputs": [
        {
          "internalType": "bool",
          "name": "",
          "type": "bool"
        }
      ],
      "stateMutability": "view",
      "type": "function"
    },
    {
      "inputs": [
        {
          "internalType": "bytes",
          "name": "encryptedHash",
          "type": "bytes"
        },
        {
          "internalType": "enum Structures.PostType",
          "name": "postType",
          "type": "uint8"
        },
        {
          "internalType": "enum Structures.PostDuration",
          "name": "postDuration",
          "type": "uint8"
        },
        {
          "internalType": "uint256",
          "name": "payment",
          "type": "uint256"
        },
        {
          "internalType": "uint256",
          "name": "stakeAmount",
          "type": "uint256"
        },
        {
          "internalType": "enum Structures.Tokens",
          "name": "tokenId",
          "type": "uint8"
        },
        {
          "internalType": "address",
          "name": "funder",
          "type": "address"
        },
        {
          "internalType": "address",
          "name": "seller",
          "type": "address"
        },
        {
          "internalType": "bool",
          "name": "useStake",
          "type": "bool"
        }
      ],
      "name": "createPost",
      "outputs": [],
      "stateMutability": "payable",
      "type": "function"
    },
    {
      "inputs": [
        {
          "internalType": "bool",
          "name": "valid",
          "type": "bool"
        },
        {
          "internalType": "uint256",
          "name": "punishment",
          "type": "uint256"
        },
        {
          "internalType": "bytes32",
          "name": "uid",
          "type": "bytes32"
        }
      ],
      "name": "finalizePost",
      "outputs": [],
      "stateMutability": "nonpayable",
      "type": "function"
    },
    {
      "inputs": [],
      "name": "getAllPostIds",
      "outputs": [
        {
          "internalType": "bytes32[]",
          "name": "",
          "type": "bytes32[]"
        }
      ],
      "stateMutability": "view",
      "type": "function"
    },
    {
      "inputs": [],
      "name": "getBuyerStake",
      "outputs": [
        {
          "internalType": "uint256",
          "name": "amount",
          "type": "uint256"
        }
      ],
      "stateMutability": "view",
      "type": "function"
    },
    {
      "inputs": [],
      "name": "getEncryptedPost",
      "outputs": [
        {
          "internalType": "bytes",
          "name": "",
          "type": "bytes"
        }
      ],
      "stateMutability": "view",
      "type": "function"
    },
    {
      "inputs": [],
      "name": "getPaymentRequested",
      "outputs": [
        {
          "internalType": "uint256",
          "name": "",
          "type": "uint256"
        }
      ],
      "stateMutability": "view",
      "type": "function"
    },
    {
      "inputs": [],
      "name": "getPost",
      "outputs": [
        {
          "components": [
            {
              "components": [
                {
                  "internalType": "address",
                  "name": "evmAddress",
                  "type": "address"
                },
                {
                  "internalType": "bytes",
                  "name": "sismoVaultId",
                  "type": "bytes"
                },
                {
                  "internalType": "bytes",
                  "name": "publicKey",
                  "type": "bytes"
                }
              ],
              "internalType": "struct Structures.User",
              "name": "creator",
              "type": "tuple"
            },
            {
              "components": [
                {
                  "components": [
                    {
                      "internalType": "enum Structures.PostStatus",
                      "name": "status",
                      "type": "uint8"
                    },
                    {
                      "internalType": "enum Structures.PostType",
                      "name": "postType",
                      "type": "uint8"
                    },
                    {
                      "internalType": "uint256",
                      "name": "creationTimeStamp",
                      "type": "uint256"
                    },
                    {
                      "internalType": "uint256",
                      "name": "endTimeStamp",
                      "type": "uint256"
                    },
                    {
                      "internalType": "uint256",
                      "name": "duration",
                      "type": "uint256"
                    },
                    {
                      "internalType": "enum Structures.Tokens",
                      "name": "tokenId",
                      "type": "uint8"
                    },
                    {
                      "internalType": "bytes32",
                      "name": "postId",
                      "type": "bytes32"
                    }
                  ],
                  "internalType": "struct Structures.PostSettings",
                  "name": "settings",
                  "type": "tuple"
                },
                {
                  "components": [
                    {
                      "internalType": "address",
                      "name": "buyer",
                      "type": "address"
                    },
                    {
                      "internalType": "address",
                      "name": "seller",
                      "type": "address"
                    },
                    {
                      "internalType": "uint256",
                      "name": "stake",
                      "type": "uint256"
                    },
                    {
                      "internalType": "uint256",
                      "name": "payment",
                      "type": "uint256"
                    },
                    {
                      "internalType": "uint256",
                      "name": "punishment",
                      "type": "uint256"
                    },
                    {
                      "internalType": "uint256",
                      "name": "penalty",
                      "type": "uint256"
                    }
                  ],
                  "internalType": "struct Structures.PostEscrow",
                  "name": "escrow",
                  "type": "tuple"
                },
                {
                  "components": [
                    {
                      "internalType": "bytes",
                      "name": "encryptedData",
                      "type": "bytes"
                    },
                    {
                      "internalType": "bytes",
                      "name": "encryptedKey",
                      "type": "bytes"
                    },
                    {
                      "internalType": "bytes",
                      "name": "decryptedData",
                      "type": "bytes"
                    }
                  ],
                  "internalType": "struct Structures.PostEncryptedData",
                  "name": "data",
                  "type": "tuple"
                }
              ],
              "internalType": "struct Structures.PostData",
              "name": "postdata",
              "type": "tuple"
            }
          ],
          "internalType": "struct Structures.Post",
          "name": "",
          "type": "tuple"
        }
      ],
      "stateMutability": "view",
      "type": "function"
    },
    {
      "inputs": [],
      "name": "getPostId",
      "outputs": [
        {
          "internalType": "bytes32",
          "name": "",
          "type": "bytes32"
        }
      ],
      "stateMutability": "view",
      "type": "function"
    },
    {
      "inputs": [
        {
          "internalType": "bytes32",
          "name": "postId",
          "type": "bytes32"
        }
      ],
      "name": "getPostTimestamp",
      "outputs": [
        {
          "components": [
            {
              "internalType": "enum Structures.PostResult",
              "name": "postResult",
              "type": "uint8"
            },
            {
              "internalType": "uint256",
              "name": "creationTimeStamp",
              "type": "uint256"
            },
            {
              "internalType": "uint256",
              "name": "endTimeStamp",
              "type": "uint256"
            }
          ],
          "internalType": "struct Structures.PostTimestamp",
          "name": "",
          "type": "tuple"
        }
      ],
      "stateMutability": "view",
      "type": "function"
    },
    {
      "inputs": [],
      "name": "getSellerStake",
      "outputs": [
        {
          "internalType": "uint256",
          "name": "amount",
          "type": "uint256"
        }
      ],
      "stateMutability": "view",
      "type": "function"
    },
    {
      "inputs": [
        {
          "internalType": "enum Structures.Tokens",
          "name": "tokenId",
          "type": "uint8"
        },
        {
          "internalType": "address",
          "name": "staker",
          "type": "address"
        }
      ],
      "name": "getStake",
      "outputs": [
        {
          "internalType": "uint256",
          "name": "amount",
          "type": "uint256"
        }
      ],
      "stateMutability": "view",
      "type": "function"
    },
    {
      "inputs": [],
      "name": "getStakeRequested",
      "outputs": [
        {
          "internalType": "uint256",
          "name": "",
          "type": "uint256"
        }
      ],
      "stateMutability": "view",
      "type": "function"
    },
    {
      "inputs": [],
      "name": "getStatus",
      "outputs": [
        {
          "internalType": "enum Structures.PostStatus",
          "name": "",
          "type": "uint8"
        }
      ],
      "stateMutability": "view",
      "type": "function"
    },
    {
      "inputs": [],
      "name": "getTokenId",
      "outputs": [
        {
          "internalType": "enum Structures.Tokens",
          "name": "",
          "type": "uint8"
        }
      ],
      "stateMutability": "view",
      "type": "function"
    },
    {
      "inputs": [],
      "name": "getTokenIdAddress",
      "outputs": [
        {
          "internalType": "address",
          "name": "",
          "type": "address"
        }
      ],
      "stateMutability": "view",
      "type": "function"
    },
    {
      "inputs": [],
      "name": "getTotalStaked",
      "outputs": [
        {
          "internalType": "uint256",
          "name": "",
          "type": "uint256"
        }
      ],
      "stateMutability": "view",
      "type": "function"
    },
    {
      "inputs": [],
      "name": "locked",
      "outputs": [
        {
          "internalType": "bool",
          "name": "",
          "type": "bool"
        }
      ],
      "stateMutability": "view",
      "type": "function"
    },
    {
      "inputs": [],
      "name": "owner",
      "outputs": [
        {
          "internalType": "address",
          "name": "",
          "type": "address"
        }
      ],
      "stateMutability": "view",
      "type": "function"
    },
    {
      "inputs": [],
      "name": "post",
      "outputs": [
        {
          "components": [
            {
              "internalType": "address",
              "name": "evmAddress",
              "type": "address"
            },
            {
              "internalType": "bytes",
              "name": "sismoVaultId",
              "type": "bytes"
            },
            {
              "internalType": "bytes",
              "name": "publicKey",
              "type": "bytes"
            }
          ],
          "internalType": "struct Structures.User",
          "name": "creator",
          "type": "tuple"
        },
        {
          "components": [
            {
              "components": [
                {
                  "internalType": "enum Structures.PostStatus",
                  "name": "status",
                  "type": "uint8"
                },
                {
                  "internalType": "enum Structures.PostType",
                  "name": "postType",
                  "type": "uint8"
                },
                {
                  "internalType": "uint256",
                  "name": "creationTimeStamp",
                  "type": "uint256"
                },
                {
                  "internalType": "uint256",
                  "name": "endTimeStamp",
                  "type": "uint256"
                },
                {
                  "internalType": "uint256",
                  "name": "duration",
                  "type": "uint256"
                },
                {
                  "internalType": "enum Structures.Tokens",
                  "name": "tokenId",
                  "type": "uint8"
                },
                {
                  "internalType": "bytes32",
                  "name": "postId",
                  "type": "bytes32"
                }
              ],
              "internalType": "struct Structures.PostSettings",
              "name": "settings",
              "type": "tuple"
            },
            {
              "components": [
                {
                  "internalType": "address",
                  "name": "buyer",
                  "type": "address"
                },
                {
                  "internalType": "address",
                  "name": "seller",
                  "type": "address"
                },
                {
                  "internalType": "uint256",
                  "name": "stake",
                  "type": "uint256"
                },
                {
                  "internalType": "uint256",
                  "name": "payment",
                  "type": "uint256"
                },
                {
                  "internalType": "uint256",
                  "name": "punishment",
                  "type": "uint256"
                },
                {
                  "internalType": "uint256",
                  "name": "penalty",
                  "type": "uint256"
                }
              ],
              "internalType": "struct Structures.PostEscrow",
              "name": "escrow",
              "type": "tuple"
            },
            {
              "components": [
                {
                  "internalType": "bytes",
                  "name": "encryptedData",
                  "type": "bytes"
                },
                {
                  "internalType": "bytes",
                  "name": "encryptedKey",
                  "type": "bytes"
                },
                {
                  "internalType": "bytes",
                  "name": "decryptedData",
                  "type": "bytes"
                }
              ],
              "internalType": "struct Structures.PostEncryptedData",
              "name": "data",
              "type": "tuple"
            }
          ],
          "internalType": "struct Structures.PostData",
          "name": "postdata",
          "type": "tuple"
        }
      ],
      "stateMutability": "view",
      "type": "function"
    },
    {
      "inputs": [],
      "name": "postCount",
      "outputs": [
        {
          "internalType": "uint256",
          "name": "",
          "type": "uint256"
        }
      ],
      "stateMutability": "view",
      "type": "function"
    },
    {
      "inputs": [],
      "name": "renouncePost",
      "outputs": [],
      "stateMutability": "nonpayable",
      "type": "function"
    },
    {
      "inputs": [
        {
          "internalType": "bytes",
          "name": "decryptedData",
          "type": "bytes"
        }
      ],
      "name": "revealData",
      "outputs": [
        {
          "internalType": "bytes",
          "name": "",
          "type": "bytes"
        }
      ],
      "stateMutability": "nonpayable",
      "type": "function"
    },
    {
      "inputs": [
        {
          "internalType": "bytes",
          "name": "encryptedKey",
          "type": "bytes"
        }
      ],
      "name": "submitHash",
      "outputs": [],
      "stateMutability": "nonpayable",
      "type": "function"
    },
    {
      "inputs": [
        {
          "internalType": "enum Structures.Tokens",
          "name": "tokenId",
          "type": "uint8"
        },
        {
          "internalType": "address",
          "name": "receiver",
          "type": "address"
        }
      ],
      "name": "takeFullStake",
      "outputs": [
        {
          "internalType": "uint256",
          "name": "",
          "type": "uint256"
        }
      ],
      "stateMutability": "nonpayable",
      "type": "function"
    },
    {
      "inputs": [
        {
          "internalType": "enum Structures.Tokens",
          "name": "tokenId",
          "type": "uint8"
        },
        {
          "internalType": "address",
          "name": "receiver",
          "type": "address"
        },
        {
          "internalType": "uint256",
          "name": "amountToTake",
          "type": "uint256"
        }
      ],
      "name": "takeStake",
      "outputs": [
        {
          "internalType": "uint256",
          "name": "",
          "type": "uint256"
        }
      ],
      "stateMutability": "nonpayable",
      "type": "function"
    },
    {
      "inputs": [],
      "name": "version",
      "outputs": [
        {
          "internalType": "string",
          "name": "",
          "type": "string"
        }
      ],
      "stateMutability": "view",
      "type": "function"
    },
    {
      "stateMutability": "payable",
      "type": "receive"
    }
  ],
  "transactionHash": "0x45840a7200b2deb53c1c8a8597197221988ea19ec1b4cc99dfdaf081f090bc16",
  "args": [
    "0x0000000000000000000000000000000000000000",
    "0x35F4cB861C960E398AA8b3C0610D217668EC2fc7",
    "0x09cCD9c0a8663405703252A0a5b81b919EBf7C63",
    2,
    0,
    0
  ],
  "numDeployments": 2,
  "solcInputHash": "92732d8dc5d2dedc510f7d508169f721",
  "bytecode": "0x60e060409080825234620003a35760c08162005fff8038038091620000258285620003a8565b833981010312620003a3576200003b81620003e2565b602090816200004c818501620003e2565b936200005a868201620003e2565b9060608101519060a060808201519101519160805260a05260c05267016345785d8a00006015556000908160165560018060a01b039485918260018060a01b031998168860175416176017553388601854161760185560048951809481936303e21fa960e61b8352165afa9081156200039957908591839162000355575b5016856019541617601955620000f060805162000440565b90620001236200010260a05162000440565b92620001486200011460c05162000440565b8a5193849388850190620003f7565b601760f91b8082526200013d6001988980940190620003f7565b9081520190620003f7565b036200015d601f1991828101845283620003a8565b8151916001600160401b0383116200034157601a548581811c9116801562000336575b8782101462000322579081601f8c9695949311620002c6575b508691601f84116001146200025f57508391908362000253575b5050600019600383901b1c191690841b17601a555b601c60ff19948560065416600655828052601b815262015180848420558483526203f480848420556002835262093a80848420556003835262127500848420556004835262278d00848420558280525220918254161790551690600254161760025551615a3e9081620005c1823960805181612652015260a0518161267b015260c051816126aa0152f35b015190503880620001b3565b91839287941691601a865288862092865b8a828210620002ac575050841162000292575b505050811b01601a55620001c8565b015160001960f88460031b161c1916905538808062000283565b8484015186558f99508a9790950194938401930162000270565b909192939450601a8552868520601f850160051c81019188861062000317575b8c969594939291601f89920160051c01915b8281106200030857505062000199565b8681558d9750889101620002f8565b9091508190620002e6565b634e487b7160e01b85526022600452602485fd5b90607f169062000180565b634e487b7160e01b84526041600452602484fd5b809250848092503d831162000391575b620003718183620003a8565b810103126200038d57620003868591620003e2565b38620000d8565b5080fd5b503d62000365565b87513d84823e3d90fd5b600080fd5b601f909101601f19168101906001600160401b03821190821017620003cc57604052565b634e487b7160e01b600052604160045260246000fd5b51906001600160a01b0382168203620003a357565b9081519160005b83811062000410575050016000815290565b8060208092840101518185015201620003fe565b6001600160401b038111620003cc57601f01601f191660200190565b806000917a184f03e93ff9f4daa797ed6e38ed64bf6a1f01000000000000000080821015620005b1575b506d04ee2d6d415b85acef810000000080831015620005a1575b50662386f26fc100008083101562000591575b506305f5e1008083101562000581575b506127108083101562000571575b50606482101562000560575b600a8092101562000555575b60019081602181860195620004e28762000424565b96620004f26040519889620003a8565b80885262000503601f199162000424565b01366020890137860101905b6200051c575b5050505090565b600019019083906f181899199a1a9b1b9c1cb0b131b232b360811b8282061a8353049182156200054f579190826200050f565b62000515565b9160010191620004cd565b9190606460029104910191620004c1565b60049193920491019138620004b5565b60089193920491019138620004a7565b6010919392049101913862000497565b6020919392049101913862000484565b6040935081049150386200046a56fe608080604052600436101561001d575b50361561001b57600080fd5b005b60003560e01c908163010a38f5146134d65750806305c1f5021461348d57806307388dba1461319e5780630917e7761461315857806317906c2e1461313a5780631d0b4af51461306c57806332946a871461304e578063337938c7146130205780633d876d5d146127b75780634c38d877146127875780634e69d5601461275f57806352a6cb4a1461274657806354fd4d501461263c5780635ad4e1701461260f5780635c63ed69146125df578063729e2eb11461250f5780637abe914d146122a2578063825821fb146122125780638c6838ba146120fd5780638da5cb5b146120d45780638e25df9e14611fe35780638f287dc21461142b5780638f903c791461113b578063cf30901214611118578063d24e0c87146110fa578063d2af47ab146102db578063ed70d5d514610219578063f2d7dbb61461018c5763faeb5e1714610169573861000f565b34610187576000366003190112610187576020600e54604051908152f35b600080fd5b346101875760206101e261019f36613b8f565b6101c160ff600a54166101b1816134fd565b6101ba846134fd565b8314613e94565b6101d060ff601e541615613c55565b6101da33836140ee565b91339061553b565b600c546001600160a01b03903390821603610205575080600f555b604051908152f35b600d541633036101fd575b80600e556101fd565b346101875761022736613b5c565b61023c60ff600a94939454166101b1816134fd565b61024b60ff601e541615613c55565b610254826134fd565b81600052601f60205260406000203360005260205280604060002054106102a35760209261028392339061553b565b600c54336001600160a01b03909116036102105780600f55604051908152f35b60405162461bcd60e51b815260206004820152601060248201526f4e4f545f454e4f5547485f5354414b4560801b6044820152606490fd5b610120366003190112610187576004356001600160401b03811161018757610307903690600401613bd9565b60056024351015610187576005604435101561018757600360a43510156101875760c4356001600160a01b03811690036101875760e4356001600160a01b03811690036101875761010435151561010435036101875761036860a4356134fd565b600160a4351480156110e3575b80156110ce575b61038590613e94565b6002546001600160a01b03163303610187576103a660ff601e541615613c55565b60175460405163122643f360e21b81526001600160a01b0360e43581166004830152909160209183916024918391165afa908115610f7857600091611094575b501561105e5760ff600654166008811015610cda57600052601c60205261041460ff60406000205416613c8a565b608435156110255760643515610ff1576101043515610f845761043860a4356134fd565b60a435600052601f602052604060002060018060a01b0360e4351660005260205261046c6084356040600020541015613cc7565b6084355b61047b6044356138b8565b60ff60443516600052601b6020526040600020549060ff60065416926008841015610cda576000938452601c6020526040808520805460ff1990811690915560018087527f6de76108811faf2f94afbe5ac6c98e8393206cd093932de1fbfd61bbeec43a028054831682179055600680549092161790556017549051633bcaa1d960e21b81526001600160a01b0360e4358116600483015290959186916024918391165afa938415610f7857600094610ec5575b50835160405161057a60548260208101948651610550818860208b016139c8565b8201904260208301526001600160601b03199060601b166040820152036034810184520182613841565b519020916040519361058b856137c2565b6001855261059a6024356138b8565b60243560208601524260408601526000606086015260808501526105bf60a4356134fd565b60a43560a08501528260c0850152604051906105da826137dd565b6000825260018060a01b0360e4351660208301526040820152606435606082015260006080820152600060a0820152610611613f24565b610619613f24565b9060405193610627856137a7565b84526020840152604083015260405193610640856137a7565b84526020840152604083015260405191610659836137f8565b83835260208301528251600380546001600160a01b0319166001600160a01b039290921691909117905560208301519283516001600160401b038111610aee576106a4600454613507565b601f8111610e5c575b506020601f8211600114610de35781906040949596600092610dd8575b50508160011b916000199060031b1c1916176004555b01519182516001600160401b038111610aee576106fe600554613507565b601f8111610d6f575b506020601f8211600114610cfb5781929394600092610cf0575b50508160011b916000199060031b1c1916176005555b602081015180519081516008811015610cda5760409261075860c092613d53565b6020810151610766816138b8565b61076f816138b8565b61ff006006549160081b169061ff00191617600655838101516007556060810151600855608081015160095560a08101516107a9816134fd565b6107b2816134fd565b60ff8019600a5416911617600a550151600b5560a060208201516107f5600180841b0382511660018060a01b03166001600160601b0360a01b600c541617600c55565b610821600180841b0360208301511660018060a01b03166001600160601b0360a01b600d541617600d55565b83810151600e556060810151600f556080810151601055015160115501519081519283516001600160401b038111610aee5761085e601254613507565b601f8111610c71575b506020601f8211600114610bfc578192939495600092610bf1575b50508160011b916000199060031b1c1916176012555b60208301519283516001600160401b038111610aee576108b9601354613507565b601f8111610b88575b506020601f8211600114610b0f5781906040949596600092610b04575b50508160011b916000199060031b1c1916176013555b01518051906001600160401b038211610aee57610913601454613507565b601f8111610a9b575b50602090601f8311600114610a015791806109f194927f9f0d3dff5ce109158da1895093a516dca976e31abea5978b2b18a06702acd26f96946000926109f6575b50508160011b916000199060031b1c1916176014555b61097c81613f69565b50610988601654613f44565b60165560026040519161099a836137a7565b6000835260208301428152604084019160008352600052601d602052604060002093516109c6816134fd565b6109cf816134fd565b60ff801986541691161784555160018401555191015560405191829182613c20565b0390a1005b01519050868061095d565b90601f1983169160146000526000805160206159e98339815191529260005b818110610a8357509260019285927f9f0d3dff5ce109158da1895093a516dca976e31abea5978b2b18a06702acd26f98966109f1989610610a6a575b505050811b01601455610973565b015160001960f88460031b161c19169055868080610a5c565b92936020600181928786015181550195019301610a20565b60146000526000805160206159e9833981519152601f840160051c81019160208510610ae4575b601f0160051c01905b818110610ad8575061091c565b60008155600101610acb565b9091508190610ac2565b634e487b7160e01b600052604160045260246000fd5b0151905086806108df565b60136000526000805160206159a98339815191529560005b601f1984168110610b7057509582916040959697600194601f19811610610b57575b505050811b016013556108f5565b015160001960f88460031b161c19169055868080610b49565b82820151885560019097019660209283019201610b27565b6013600052601f820160051c6000805160206159a98339815191520160208310610bdc575b601f820160051c6000805160206159a9833981519152018110610bd057506108c2565b60008155600101610bad565b506000805160206159a9833981519152610bad565b015190508580610882565b60126000526000805160206159898339815191529060005b601f1984168110610c59575060019394959683601f19811610610c40575b505050811b01601255610898565b015160001960f88460031b161c19169055858080610c32565b9091602060018192858b015181550193019101610c14565b6012600052601f820160051c6000805160206159898339815191520160208310610cc5575b601f820160051c600080516020615989833981519152018110610cb95750610867565b60008155600101610c96565b50600080516020615989833981519152610c96565b634e487b7160e01b600052602160045260246000fd5b015190508480610721565b60056000526000805160206159698339815191529060005b601f1984168110610d575750600193949583601f19811610610d3e575b505050811b01600555610737565b015160001960f88460031b161c19169055848080610d30565b9091602060018192858a015181550193019101610d13565b6005600052601f820160051c6000805160206159698339815191520160208310610dc3575b601f820160051c600080516020615969833981519152018110610db75750610707565b60008155600101610d94565b50600080516020615969833981519152610d94565b0151905086806106ca565b60046000526000805160206159c98339815191529560005b601f1984168110610e4457509582916040959697600194601f19811610610e2b575b505050811b016004556106e0565b015160001960f88460031b161c19169055868080610e1d565b82820151885560019097019660209283019201610dfb565b6004600052601f820160051c6000805160206159c98339815191520160208310610eb0575b601f820160051c6000805160206159c9833981519152018110610ea457506106ad565b60008155600101610e81565b506000805160206159c9833981519152610e81565b9093503d806000833e610ed88183613841565b6020828281010312610187578151916001600160401b03831161018757606083820183830103126101875760405192610f10846137a7565b610f1b818301613ece565b8452602081830101516001600160401b03811161018757610f43908484019083850101613ee2565b602085015260408183010151906001600160401b03821161018757610f6c938301920101613ee2565b6040820152928461052f565b6040513d6000823e3d90fd5b610f8f60a4356134fd565b60a43515610fb1575b610fac60843560c43560e43560a4356143c0565b610470565b3460843514610f985760405162461bcd60e51b815260206004820152600f60248201526e57524f4e475f4d53475f56414c554560881b6044820152606490fd5b60405162461bcd60e51b815260206004820152600c60248201526b5041594d454e545f5a45524f60a01b6044820152606490fd5b60405162461bcd60e51b81526020600482015260116024820152705354414b455f414d4f554e545f5a45524f60781b6044820152606490fd5b60405162461bcd60e51b815260206004820152600e60248201526d1554d15497d393d517d1561254d560921b6044820152606490fd5b90506020813d6020116110c6575b816110af60209383613841565b81010312610187576110c090613d05565b826103e6565b3d91506110a2565b506110da60a4356134fd565b60a4351561037c565b506110ef60a4356134fd565b600260a43514610375565b34610187576000366003190112610187576020600f54604051908152f35b3461018757600036600319011261018757602060ff601e54166040519015158152f35b3461018757602080600319360112610187576001600160401b036004358181116101875761116d903690600401613bd9565b906001906111838260ff601e5416151514614155565b600d546001600160a01b03949061119d908616331461411c565b60ff600654166008811015610cda5780600052601c825260ff6040600020541680611417575b6111cc90613c8a565b60248287601754166040519283809263122643f360e21b82523360048301525afa908115610f78576000916113e2575b50156113a75761121360039633908854161461411c565b600052601c815260406000209360ff19948581541690558560005260406000208486825416179055858560065416176006558051928311610aee57611259601354613507565b601f8111611352575b5081601f84116001146112e057509282939183926000946112d5575b50501b9160001990851b1c1916176013555b60065416176006556112a4600954426142c2565b6008557f9ae3be94f0e4131804326f9163ba3d70895b321825873a36011ccca6eec81f28604051806109f181613d6c565b01519250868061127e565b919083601f19811660136000526000805160206159a9833981519152946000905b888383106113385750505010611320575b505050811b01601355611290565b015160001983871b60f8161c19169055848080611312565b858701518855909601959485019487935090810190611301565b60136000526000805160206159a9833981519152601f850160051c81019184861061139d575b601f0160051c019085905b828110611391575050611262565b60008155018590611383565b9091508190611378565b60405162461bcd60e51b8152600481018390526013602482015272155cd95c88191bd95cc81b9bdd08195e1a5cdd606a1b6044820152606490fd5b90508281813d8311611410575b6113f98183613841565b810103126101875761140a90613d05565b876111fc565b503d6113ef565b5060028114806111c35750600381146111c3565b346101875760603660031901126101875760043515156004350361018757600c546001600160a01b031661146033821461411c565b611473600160ff601e5416151514614155565b60ff600654166008811015610cda57600303611fae5760185460405163335ded4b60e21b81526001600160a01b0390911690602081600481855afa908115610f7857600091611f6f575b506040516328c44a9960e21b8152604435600482015290600090829060249082906001600160a01b03165afa908115610f7857600091611e4c575b5060e0810151611512906001600160a01b031684146141a2565b60c0810151600d546001600160a01b03918216911603611e1357602081810151604051633ec4f23d60e01b81529182600481875afa918215610f7857600092611ddf575b5003611da957610120015180518101906060818303126101875761157c60208201613d05565b9161158960408301613ece565b916060810151916001600160401b038311610187576115af926020809201920101613ee2565b90306001600160a01b0390911603611d75576040516115ec816115de60208201946020865260408301906139eb565b03601f198101835282613841565b51902060405160208082015260125481600061160783613507565b92836040840152600181169081600014611d565750600114611d09575b611637925003601f198101835282613841565b6020815191012003611cd5576020600492604051938480926318da001160e01b82525afa918215610f7857600092611c99575b50600f54604051634047e10360e11b81529091906020816004816001600160a01b0388165afa908115610f7857600091611c65575b506127106116b06116b892856141e4565b0480936141f7565b9360085442118015611c5c575b15611a8357506116dc9015156004351515146141a2565b600a54600c54600f5461171a926116ff926001600160a01b03169060ff166142cf565b600a54600d549195916001600160a01b03169060ff16614232565b9160ff600a541661172a816134fd565b600181148081159182611a70575b8015611a5f575b61174890613e94565b601854604051632ee4b68b60e11b815290602090829060049082906001600160a01b03165afa908115610f7857600091611a25575b506119c25761178b836134fd565b826118cb57505050600080806117b594819460018060a01b03165af16117af61466c565b5061469c565b600e55600f55600435156118c45760045b60ff600654166008811015610cda57600052601c60205260406000209060ff19918281541690556008811015610cda578060ff6118199216600052601c6020526040600020600184825416179055613d53565b6002600b5480600052601d6020526001604060002001546040519361183d856137a7565b60018552602085019182526040850192428452600052601d60205260ff604060002095519161186b836134fd565b611874836134fd565b8654169116178455516001840155519101557f9ae3be94f0e4131804326f9163ba3d70895b321825873a36011ccca6eec81f28604051806118b481613d6c565b0390a15b601e805460ff19169055005b60056117c6565b916020939161194295936118de836134fd565b906119af575b801561199e575b6118f490613e94565b6001600160a01b039061190690615748565b60405163a9059cbb60e01b81526001600160a01b0390931660048401526024830193909352909384929190911690829060009082906044820190565b03925af18015610f7857600090611963575b61195e915061570a565b6117b5565b506020813d602011611996575b8161197d60209383613841565b810103126101875761199161195e91613d05565b611954565b3d9150611970565b506119a8816134fd565b60006118eb565b506119b9816134fd565b600281146118e4565b918093506119d091506134fd565b600282036119e95750506119e3906149d1565b506117b5565b6119f2826134fd565b15611a0157506119e390615483565b611a0a816134fd565b15611a1557506117b5565b611a1e90614e68565b50826119e3565b90506020813d602011611a57575b81611a4060209383613841565b8101031261018757611a5190613d05565b8861177d565b3d9150611a33565b50611a69836134fd565b821561173f565b50611a7a836134fd565b60028314611738565b935050505060043515611a97575b506118b8565b600e5490602435918211611c2157601554670de0b6b3a764000080821015611be457611ac6611ad492856141e4565b04809260ff600a54166146d6565b600f55600a54600d54611af59184916001600160a01b03169060ff166146d6565b600e556006805460ff199081166005179091556010929092556011557f0de3fcd0b495fcf96d4f4ab29f8e12012b60a56d458f4c95fdde42b927ce97a0805482166001908117909155600b546000818152601d6020526040908190209092015491519260029290611b65856137a7565b838552602085019182526040850192428452600052601d60205260ff6040600020955191611b92836134fd565b611b9b836134fd565b8654169116178455516001840155519101557f80de7cd6b2dbdab3adb15bbbae320a60f5109fb9befeac59e525a0deb3ee3b4160405180611bdb81613d6c565b0390a180611a91565b60405162461bcd60e51b81526020600482015260156024820152740a0aa9c92a6909a8a9ca8bea482a8929ebe90928e9605b1b6044820152606490fd5b60405162461bcd60e51b81526020600482015260136024820152720a0aa9c92a6909a8a9ca8bea89e9ebe90928e9606b1b6044820152606490fd5b506004356116c5565b90506020813d602011611c91575b81611c8060209383613841565b81010312610187575161271061169f565b3d9150611c73565b9091506020813d602011611ccd575b81611cb560209383613841565b8101031261018757611cc690613ece565b908361166a565b3d9150611ca8565b60405162461bcd60e51b815260206004820152600c60248201526b1253959053125117d413d4d560a21b6044820152606490fd5b50906012600052600080516020615989833981519152906000915b818310611d3c57505090606061163792820101611624565b805460608487010152849350602090920191600101611d24565b6060925061163794915060ff191682840152151560051b820101611624565b60405162461bcd60e51b815260206004820152600c60248201526b1253959053125117d191515160a21b6044820152606490fd5b60405162461bcd60e51b815260206004820152600e60248201526d494e56414c49445f534348454d4160901b6044820152606490fd5b9091506020813d602011611e0b575b81611dfb60209383613841565b8101031261018757519085611556565b3d9150611dee565b60405162461bcd60e51b81526020600482015260116024820152701253959053125117d49150d25412515395607a1b6044820152606490fd5b90503d806000833e611e5e8183613841565b6020828281010312610187578151906001600160401b0382116101875761014082840182850103126101875760405192836101408101106001600160401b0361014086011117610aee57610140840160409081528184018051865260208082015190870152611ecd910161418e565b6040850152611ee060608483010161418e565b6060850152611ef360808483010161418e565b608085015260a0838201015160a0850152611f1260c084830101613ece565b60c0850152611f2560e084830101613ece565b60e0850152610100611f3a8185840101613d05565b9085015261012092838183010151906001600160401b03821161018757611f65938301920101613ee2565b90820152836114f8565b90506020813d602011611fa6575b81611f8a60209383613841565b81010312610187576000611f9f602492613ece565b91506114bd565b3d9150611f7d565b60405162461bcd60e51b815260206004820152600d60248201526c1393d517d4d550935255151151609a1b6044820152606490fd5b346101875760003660031901126101875760005461200081614003565b61200d6040519182613841565b81815261201982614003565b6020928383019291601f190136843760005b81811061207557505090604051928392818401908285525180915260408401929160005b82811061205e57505050500390f35b83518552869550938101939281019260010161204f565b60008052807f290decd9548b62a8d60345a988386fc84ba6bc95484008f6362f93160ef3e56301549083518110156120be576120b991868260051b86010152613f44565b61202b565b634e487b7160e01b600052603260045260246000fd5b34610187576000366003190112610187576002546040516001600160a01b039091168152602090f35b346101875760003660031901126101875761220e60405161211d816137f8565b604051612129816137a7565b600081526060906020928183858094015283604082015281526040519261214f846137a7565b60405161215b816137c2565b600081526000848201526000604082015260008282015260006080820152600060a0820152600060c08201528452604051612195816137dd565b600081526000848201526000604082015260008282015260006080820152600060a082015283850152604051906121cb826137a7565b8082528084830152604082015260408401520152604051906121ec826137f8565b6121f4613862565b82526121fe6138c2565b9082015260405191829182613c20565b0390f35b3461018757602036600319011261018757600060408051612232816137a7565b8281528260208201520152600435600052601d6020526060604060002060405161225b816137a7565b60ff8254169161226a836134fd565b82825260406002600183015492602085019384520154920191825260405192612292816134fd565b8352516020830152516040820152f35b3461018757602080600319360112610187576001600160401b0390600435828111610187576122d5903690600401613bd9565b906122e560ff601e541615613c55565b60ff60065416600881101580610cda5781600052601c835260ff60406000205416806124d3575b61231590613c8a565b61232b60018060a01b03600d5416331415613d12565b610cda5760040361249f578151928311610aee5761234a601454613507565b601f811161244d575b508092601f81116001146123de57809192936000916123d3575b508160011b916000199060031b1c1916176014555b600660ff19815416176006557fa77c04dade08083e74eedaa808b81ae3e17f6e3323c2b8cf30179e8d004b3ca4604051806123bc81613d6c565b0390a161220e6040519282849384528301906139eb565b90508301518461236d565b601f1981169360146000526000805160206159e98339815191529060005b86811061243657508260019495961061241d575b5050811b01601455612382565b85015160001960f88460031b161c191690558480612410565b9091846001819285890151815501930191016123fc565b60146000526000805160206159e9833981519152601f850160051c810191838610612495575b601f0160051c01905b8181106124895750612353565b6000815560010161247c565b9091508190612473565b6064906040519062461bcd60e51b82526004820152600d60248201526c1393d517d19253905312569151609a1b6044820152fd5b50506000600382148015612501575b819080156124f2575b905061230c565b50610cda5780600483146124eb565b5060009050600682146124e2565b3461018757600036600319011261018757604051600060125461253181613507565b808452906001908181169081156125b8575060011461256f575b61220e8461255b81860382613841565b6040519182916020835260208301906139eb565b6012600090815292506000805160206159898339815191525b8284106125a057505050810160200161255b8261254b565b80546020858701810191909152909301928101612588565b60ff191660208087019190915292151560051b8501909201925061255b915083905061254b565b3461018757600036600319011261018757600a54600d546020916101fd916001600160a01b03169060ff166140ee565b3461018757600036600319011261018757602061262a61401a565b6040516001600160a01b039091168152f35b34610187576000366003190112610187576126767f00000000000000000000000000000000000000000000000000000000000000006157e0565b61269f7f00000000000000000000000000000000000000000000000000000000000000006157e0565b9061273260226126ce7f00000000000000000000000000000000000000000000000000000000000000006157e0565b9360405194859185516126e9816020988980880191016139c8565b830190601760f91b91828882015261270a825180938a6021850191016139c8565b01906021820152612723825180938887850191016139c8565b01036002810185520183613841565b61220e6040519282849384528301906139eb565b346101875760206101fd61275936613b8f565b906140ee565b3461018757600036600319011261018757602060ff600654166127856040518092613a4f565bf35b3461018757600036600319011261018757600a54600c546020916101fd916001600160a01b03169060ff166140ee565b3461018757600036600319011261018757600d546001600160a01b03906127e1908216331461411c565b6001906127f68260ff601e5416151514614155565b60ff600654166008811015610cda57600052602090601c825261282060ff60406000205416613c8a565b612828613f24565b612830613f24565b926040519161283e836137a7565b60008352818301908152604083019485526129528460405194612860866137c2565b60078652600085870152600060408701526000606087015260006080870152600060a0870152600060c0870152604051612899816137dd565b60008152600086820152600060408201526000606082015260006080820152600060a0820152604051906128cc826137a7565b6040516128d881613826565b6000815282526040516128ea81613826565b60008152878301526040516128fe81613826565b60008152604083015260405197612914896137a7565b88528688015260408701528460405161292c816137f8565b82815201958652511660018060a01b03166001600160601b0360a01b6003541617600355565b51928351946001600160401b0395868111610aee5780612973600454613507565b96601f97888111612fc3575b508590888311600114612f5357600092612f48575b5050600019600383901b1c191690881b176004555b51928351868111610aee57806005956129c28754613507565b888111612eee575b508590888311600114612e8057600092612e75575b5050600019600383901b1c191690881b1784555b5180518051926008841015610cda5760c060a092612a12604096613d53565b86810151612a1f816138b8565b612a28816138b8565b61ff006006549160081b169061ff00191617600655858101516007556060810151600855608081015160095583810151612a61816134fd565b612a6a816134fd565b60ff8019600a5416911617600a550151600b55612acb8584015191612aa98184511660018060a01b03166001600160601b0360a01b600c541617600c55565b868301511660018060a01b03166001600160601b0360a01b600d541617600d55565b83810151600e556060810151600f556080810151601055015160115501518051805190868211610aee578190612b02601254613507565b878111612e1a575b508490878311600114612daa57600092612d9f575b5050600019600383901b1c191690871b176012555b81810151805190868211610aee57612b4d601354613507565b868111612d4f575b508390868311600114612cdb57604093929160009183612cd0575b5050600019600383901b1c191690881b176013555b0151918251948511610aee57612b9c601454613507565b90848211612c80575b505080928411600114612c0d5750928293918392600094612c02575b50501b916000199060031b1c1916176014555b7fb0b5796e5695900a8ad6ac70ae39f76b2884b7b46bb57da984b7067aa5c65658604051806109f181613d6c565b015192508480612bc1565b919083601f19811660146000526000805160206159e9833981519152946000905b88838310612c665750505010612c4d575b505050811b01601455612bd4565b015160001960f88460031b161c19169055828080612c3f565b858701518855909601959485019487935090810190612c2e565b60146000526000805160206159e98339815191529085808801821c830193858910612cc7575b01901c019086905b828110612cbb5750612ba5565b60008155018690612cae565b93508293612ca6565b015190508980612b70565b92918891601f1982169060136000526000805160206159a98339815191529160005b88828210612d39575050958360409710612d20575b505050811b01601355612b85565b015160001960f88460031b161c19169055898080612d12565b8389015185558d96909401939283019201612cfd565b60136000526000805160206159a983398151915287808501881c820192878610612d96575b01871c019089905b828110612d8a575050612b55565b60008155018990612d7c565b92508192612d74565b015190508880612b1f565b90899350601f1983169160126000526000805160206159898339815191529260005b88828210612e045750508411612deb575b505050811b01601255612b34565b015160001960f88460031b161c19169055888080612ddd565b8385015186558d97909501949384019301612dcc565b909150601260005260008051602061598983398151915287808501881c820192878610612e6c575b918b918695949301891c01915b828110612e5d575050612b0a565b600081558594508b9101612e4f565b92508192612e42565b0151905089806129df565b908a9350601f19831691886000526000805160206159698339815191529260005b89828210612ed85750508411612ebf575b505050811b0184556129f3565b015160001960f88460031b161c19169055898080612eb2565b8385015186558e97909501949384019301612ea1565b9091508660005260008051602061596983398151915288808501891c820192888610612f3f575b918c9186959493018a1c01915b828110612f305750506129ca565b600081558594508c9101612f22565b92508192612f15565b015190508980612994565b908a9350601f1983169160046000526000805160206159c98339815191529260005b89828210612fad5750508411612f94575b505050811b016004556129a9565b015160001960f88460031b161c19169055898080612f86565b8385015186558e97909501949384019301612f75565b90915060046000526000805160206159c98339815191528880850160051c820192888610613017575b918c91869594930160051c01915b82811061300857505061297f565b600081558594508c9101612ffa565b92508192612fec565b3461018757602036600319011261018757600435600052600160205260206040600020541515604051908152f35b34610187576000366003190112610187576020600b54604051908152f35b61307536613b5c565b61308a60ff600a94939454166101b1816134fd565b61309960ff601e541615613c55565b600c546001600160a01b03929083163314801561312d575b156130f6576020936130d69284600d541633146000146130f0575034915b33906143c0565b90600c541633146000146102105780600f55604051908152f35b916130cf565b60405162461bcd60e51b815260206004820152600f60248201526e2ba927a723afa6a9a3a9a2a72222a960891b6044820152606490fd5b5082600d541633146130b1565b34610187576000366003190112610187576020601654604051908152f35b346101875760003660031901126101875760206101fd60ff600a541661319860018060a01b039161318d83600d5416826140ee565b92600c5416906140ee565b906142c2565b6080366003190112610187576004356003811015610187576024908135906001600160a01b036044358181168103610187576064359282841694858503610187576131ee60ff601e541615613c55565b6001600052602095601c875261320b60ff60406000205416613c8a565b61322d60ff600a541661321d816134fd565b613226856134fd565b8414613e94565b613236836134fd565b826134865734945b888882600d54169261325d61325385896140ee565b600e541115613cc7565b601754166040519283809263122643f360e21b82528760048301525afa908115610f7857600091613451575b501561341b5790816132a792331491821592613410575b5050613d12565b600f54908115613388571061334f5760019550916132ca91846132ea95946143c0565b600f5560018060a01b03166001600160601b0360a01b600c541617600c55565b601c60ff19916002836006541617600655600260005252604060002082828254161790556002816006541617600655601e541617601e557fd3a49c266c76e5d7b74f1cd42f52db4e6e3b97b608cca1e9269b0a3dd51739da604051806109f181613d6c565b60405162461bcd60e51b815260048101869052601281880152711393d517d15393d551d217d410565351539560721b6044820152606490fd5b905034156133dc57156133a95760019550916132ca91846132ea95946143c0565b60405162461bcd60e51b815260048101869052600c818801526b16915493d7d410565351539560a21b6044820152606490fd5b60405162461bcd60e51b815260048101879052600d818901526c5a45524f5f4d534756414c554560981b6044820152606490fd5b1415905089806132a0565b60405162461bcd60e51b815260048101899052600f818b01526e1554d1549517d393d517d1561254d5608a1b6044820152606490fd5b90508881813d831161347f575b6134688183613841565b810103126101875761347990613d05565b8a613289565b503d61345e565b819461323e565b34610187576000366003190112610187576134c86134a9613862565b61220e6134b46138c2565b604051938493604085526040850190613a10565b908382036020850152613a5c565b346101875760003660031901126101875760209060ff600a54166134f9816134fd565b8152f35b60031115610cda57565b90600182811c92168015613537575b602083101461352157565b634e487b7160e01b600052602260045260246000fd5b91607f1691613516565b6004546000929161355182613507565b808252916001908181169081156135b6575060011461356f57505050565b9192935060046000526000805160206159c9833981519152916000925b84841061359e57505060209250010190565b8054602085850181019190915290930192810161358c565b915050602093945060ff929192191683830152151560051b010190565b600554600092916135e382613507565b808252916001908181169081156135b6575060011461360157505050565b919293506005600052600080516020615969833981519152916000925b84841061363057505060209250010190565b8054602085850181019190915290930192810161361e565b6012546000929161365882613507565b808252916001908181169081156135b6575060011461367657505050565b919293506012600052600080516020615989833981519152916000925b8484106136a557505060209250010190565b80546020858501810191909152909301928101613693565b601354600092916136cd82613507565b808252916001908181169081156135b657506001146136eb57505050565b9192935060136000526000805160206159a9833981519152916000925b84841061371a57505060209250010190565b80546020858501810191909152909301928101613708565b6014546000929161374282613507565b808252916001908181169081156135b6575060011461376057505050565b9192935060146000526000805160206159e9833981519152916000925b84841061378f57505060209250010190565b8054602085850181019190915290930192810161377d565b606081019081106001600160401b03821117610aee57604052565b60e081019081106001600160401b03821117610aee57604052565b60c081019081106001600160401b03821117610aee57604052565b604081019081106001600160401b03821117610aee57604052565b6001600160401b038111610aee57604052565b602081019081106001600160401b03821117610aee57604052565b90601f801991011681019081106001600160401b03821117610aee57604052565b6040519061386f826137a7565b6003546001600160a01b0316825260405182906138968161388f81613541565b0382613841565b602082015260408051916138b4836138ad816135d3565b0384613841565b0152565b60051115610cda57565b60409081516138d0816137a7565b809280516138dd816137c2565b60065460ff8116906008821015610cda5760ff91835260081c16613900816138b8565b6020820152600754828201526008546060820152600954608082015260ff600a541661392b816134fd565b60a0820152600b5460c082015282528051613945816137dd565b60018060a01b0380600c54168252600d54166020820152600e5482820152600f546060820152601054608082015260115460a0820152602083015280519161398c836137a7565b815161399b8161388f81613648565b835281516139ac8161388f816136bd565b602084015281516139c08161388f81613732565b828401520152565b60005b8381106139db5750506000910152565b81810151838201526020016139cb565b90602091613a04815180928185528580860191016139c8565b601f01601f1916010190565b613a4c9160018060a01b0382511681526040613a3b60208401516060602085015260608401906139eb565b9201519060408184039101526139eb565b90565b906008821015610cda5752565b906040613a4c9260c08151613a72858251613a4f565b6020810151613a80816138b8565b60208601528381015184860152606081015160608601526080810151608086015260a0810151613aaf816134fd565b60a0860152015160c084015260a06020820151600180831b038082511660e087015260208201511661010086015283810151610120860152606081015161014086015260808101516101608601520151610180840152015190613b286101c0806101a084015260608451918401526102208301906139eb565b906102006040613b4c6020860151946101bf199586868303016101e08701526139eb565b94015192828503019101526139eb565b606090600319011261018757600435600381101561018757906024356001600160a01b0381168103610187579060443590565b604090600319011261018757600435600381101561018757906024356001600160a01b03811681036101875790565b6001600160401b038111610aee57601f01601f191660200190565b81601f8201121561018757803590613bf082613bbe565b92613bfe6040519485613841565b8284526020838301011161018757816000926020809301838601378301015290565b90613a4c91602081526020613c4083516040838501526060840190613a10565b920151906040601f1982850301910152613a5c565b15613c5c57565b60405162461bcd60e51b81526020600482015260066024820152651313d0d2d15160d21b6044820152606490fd5b15613c9157565b60405162461bcd60e51b815260206004820152600e60248201526d494e56414c49445f53544154555360901b6044820152606490fd5b15613cce57565b60405162461bcd60e51b815260206004820152600f60248201526e14d51052d157d25390d3d4949150d5608a1b6044820152606490fd5b5190811515820361018757565b15613d1957565b60405162461bcd60e51b81526020600482015260126024820152712ca7aaafa0a922afaa2422afa9a2a62622a960711b6044820152606490fd5b6008811015610cda5760ff801960065416911617600655565b613a4c90602081526040602082015260018060a01b038060035416606083015260606080830152613db3613da260c08401613541565b838103605f190160a08501526135d3565b916040601f198285030191015260ff600654613dd184838316613a4f565b60081c16613dde816138b8565b602083015260075460408301526008546060830152600954608083015260ff600a5416613e0a816134fd565b60a0830152600b5460c083015280600c541660e0830152600d5416610100820152600e54610120820152600f5461014082015260105461016082015260115461018082015260606101c0806101a0840152820152613e6b6102208201613648565b90610200613e876101bf199384848203016101e08501526136bd565b9282840301910152613732565b15613e9b57565b60405162461bcd60e51b815260206004820152600b60248201526a2ba927a723afaa27a5a2a760a91b6044820152606490fd5b51906001600160a01b038216820361018757565b81601f82011215610187578051613ef881613bbe565b92613f066040519485613841565b8184526020828401011161018757613a4c91602080850191016139c8565b60405190613f31826137f8565b60048252630307830360e41b6020830152565b6000198114613f535760010190565b634e487b7160e01b600052601160045260246000fd5b600081815260016020526040812054613ffe57805468010000000000000000811015613fea5760018101808355811015613fd65790826040927f290decd9548b62a8d60345a988386fc84ba6bc95484008f6362f93160ef3e5630155805492815260016020522055600190565b634e487b7160e01b82526032600452602482fd5b634e487b7160e01b82526041600452602482fd5b905090565b6001600160401b038111610aee5760051b60200190565b60ff600a5416614029816134fd565b600181036140a0575060185460405163f77800e560e01b815290602090829060049082906001600160a01b03165afa908115610f785760009161406a575090565b906020823d8211614098575b8161408360209383613841565b810103126140955750613a4c90613ece565b80fd5b3d9150614076565b806140ac6002926134fd565b036140e957601854604051635f117aa360e11b815290602090829060049082906001600160a01b03165afa908115610f785760009161406a575090565b600090565b6140f7816134fd565b600052601f60205260406000209060018060a01b031660005260205260406000205490565b1561412357565b60405162461bcd60e51b815260206004820152600a6024820152692727aa2fa9a2a62622a960b11b6044820152606490fd5b1561415c57565b60405162461bcd60e51b815260206004820152600a6024820152691393d517d313d0d2d15160b21b6044820152606490fd5b51906001600160401b038216820361018757565b156141a957565b60405162461bcd60e51b815260206004820152601360248201527224a72b20a624a22fa0aa2a22a9aa20aa24a7a760691b6044820152606490fd5b81810292918115918404141715613f5357565b91908203918211613f5357565b909493926060926080830196614219816134fd565b83526001600160a01b0316602083015260408201520152565b907ffe2caf3897ec3e02a1d458d232d7c62c17809d25dbfe65864ce842162d6c217c916142bc604094614264836134fd565b600090838252601f60205286822060018060a01b0386169081845260205261428f82898520546142c2565b978893849261429d886134fd565b878252601f602052828220908252602052205560405194859485614204565b0390a190565b91908201809211613f5357565b6142d8816134fd565b6000818152601f60205260409384822060018060a01b03851690818452602052858320548281106143625791867f9060f8ffc7acd8270abf2337023e6377669ca44d5b2a23f3513a29380940f35796959492614337836142bc966141f7565b9889948592614345896134fd565b888252601f60205282822090825260205220555194859485614204565b865162461bcd60e51b8152602060048201526014602482015273125394d551919250d251539517d1115413d4d25560621b6044820152606490fd5b604091949392606082019560018060a01b0316825260208201526138b4836134fd565b929060ff600654166008811015610cda578060026143e79214159081614660575b50613c8a565b811561462a576143f6846134fd565b8315801561443e575b507f68ffd6ad89c76c56b0b5206ae0c1a14cbffb37023d4e80f635ff7397c56b116b92506142bc614431838387614232565b946040519384938461439d565b6144649061444b866134fd565b60018614908115614615575b8115614604575b50613e94565b61446d84615748565b6001600160a01b038061447f87615748565b604051636eb1769f60e11b81526001600160a01b0388166004820152306024820152602097929091889183916044918391165afa8015610f785786916000916145d4575b501061459657906064869260008360405196879586946323b872dd60e01b8652166004850152306024850152896044850152165af1908115610f785760009161453a575b507f68ffd6ad89c76c56b0b5206ae0c1a14cbffb37023d4e80f635ff7397c56b116b93506145349061570a565b386143ff565b91929382813d831161458f575b6145518183613841565b810103126140955750906145346145897f68ffd6ad89c76c56b0b5206ae0c1a14cbffb37023d4e80f635ff7397c56b116b9493613d05565b90614507565b503d614547565b60405162461bcd60e51b8152600481018790526016602482015275494e53554646494349454e545f414c4c4f57414e434560501b6044820152606490fd5b91508782813d83116145fd575b6145eb8183613841565b810103126140955750859051386144c3565b503d6145e1565b905061460f866134fd565b3861445e565b9050614620866134fd565b6002861490614457565b60405162461bcd60e51b815260206004820152600e60248201526d14d51052d157d49154555254915160921b6044820152606490fd5b600391501415386143e1565b3d15614697573d9061467d82613bbe565b9161468b6040519384613841565b82523d6000602084013e565b606090565b156146a357565b60405162461bcd60e51b815260206004820152600b60248201526a10d0531317d1905253115160aa1b6044820152606490fd5b91906146e38282856142cf565b60185460408051632ee4b68b60e11b815292959092916020916001600160a01b039182168385600481845afa9485156149705760009561497b575b50836004918751928380926318da001160e01b82525afa90811561497057908391600091614939575b5016936148cc57614757816134fd565b806147a8575050508392916147886000808080600080516020615949833981519152996142bc975af16117af61466c565b516001600160a01b03909216825260208201929092529081906040820190565b829361481193926147dd836147bd8b956134fd565b6001811480156148b9575b80156148a8575b6147d890613e94565b615748565b16906000875180968195829463a9059cbb60e01b84526004840160209093929193604081019460018060a01b031681520152565b03925af191821561489d57600092614849575b50506000805160206159498339815191529392916148446142bc9261570a565b614788565b81819392933d8311614896575b6148608183613841565b81010312614095575060008051602061594983398151915293929161484461488a6142bc93613d05565b92508193949550614824565b503d614856565b83513d6000823e3d90fd5b506148b2816134fd565b60006147cf565b506148c3816134fd565b600281146147c8565b90506142bc925060008051602061594983398151915295949391506148f0816134fd565b600281036149085750614902846149d1565b50614788565b614911816134fd565b60018103614923575061490284615483565b61492c816134fd565b6148445761490284614e68565b91508482813d8311614969575b6149508183613841565b8101031261409557506149638391613ece565b38614747565b503d614946565b86513d6000823e3d90fd5b90948482813d83116149af575b6149928183613841565b810103126140955750836149a7600492613d05565b95915061471e565b503d614988565b90816020910312610187575162ffffff811681036101875790565b60185460408051635f117aa360e11b8082529094936001600160a01b03936020939260049185908990849082908a165afa978815614e5d57600098614e26575b50601954845163095ea7b360e01b8082529188166001600160a01b031684820190815260208101869052919990918791839182908b9082906040010392165a90600091f18015614c7757614df2575b50856018541692845191825285828481875afa918215614c7757600092614dbb575b5084516325abd85f60e11b808252929087818681895afa908115614cea57600091614d86575b508651918883602481633488e95960e21b9a8b825260008b8301525afa928315614d2e5790614ae294939291600093614d6e575b50615272565b90866018541690855190815286818581855afa90811561497057600091614d39575b5085519063f77800e560e01b9586835288838781875afa928315614d2e57908991600094614cf5575b506024895180968193825260018a8301525afa928315614cea5790614b5c94939291600093614cbb5750615272565b94806018541697845193808552868585818d5afa94851561497057908791600096614c82575b50848751809c819382525afa988915614c7757600099614c30575b5084519081526001600160a01b03989098169188019182526020820186905295969584928792839003604001918391600091165af1908115614c265750614bf0575b50614bea9150615483565b50600190565b82813d8311614c1f575b614c048183613841565b8101031261018757614c18614bea92613d05565b5038614bdf565b503d614bfa565b513d6000823e3d90fd5b90988682813d8311614c70575b614c478183613841565b810103126140955750916000869492614c62899a9b95613ece565b9a9950929450929092614b9d565b503d614c3d565b85513d6000823e3d90fd5b9182819792973d8311614cb4575b614c9a8183613841565b810103126140955750614cad8791613ece565b9438614b82565b503d614c90565b614cdc919350893d8b11614ce3575b614cd48183613841565b8101906149b6565b9138614adc565b503d614cca565b87513d6000823e3d90fd5b9182819592953d8311614d27575b614d0d8183613841565b810103126140955750614d208991613ece565b9238614b2d565b503d614d03565b88513d6000823e3d90fd5b908782813d8311614d67575b614d4f8183613841565b810103126140955750614d6190613ece565b38614b04565b503d614d45565b614cdc9193508a3d8c11614ce357614cd48183613841565b908882813d8311614db4575b614d9c8183613841565b810103126140955750614dae90613ece565b38614aa8565b503d614d92565b90918682813d8311614deb575b614dd28183613841565b810103126140955750614de490613ece565b9038614a82565b503d614dc8565b8581813d8311614e1f575b614e078183613841565b8101031261018757614e1890613d05565b5038614a60565b503d614dfd565b90978582813d8311614e56575b614e3d8183613841565b810103126140955750614e4f90613ece565b9638614a11565b503d614e33565b84513d6000823e3d90fd5b906018549160006040918251926325abd85f60e11b958685526020926004958481888160018060a01b038097165afa90811561521d57908391879161523a575b5016803b156152125785829188865180948193630d0e30db60e41b83525af1801561521d579087939291615227575b508482601854168551988980928d82525afa96871561521d5786976151e2575b50601954845163095ea7b360e01b8082529184166001600160a01b031685820190815260208101849052919890918791839182908b90889083906040010393165af180156150de576151ae575b5081601854168451998a52858a8581845afa998a156150de57879a615177575b50845163f77800e560e01b8082529a87828781865afa91821561512e5788908a93615138575b508751633488e95960e21b815260018882015293849060249082905afa92831561512e5791614fc49391879695938b93614d6e5750615272565b96816018541699868b8751968780928582525afa9485156151245790879189966150e8575b50848751809d819382525afa998a156150de57879a615094575b5084519081526001600160a01b03999099169189019182526020820187905296979596849287928390036040019183918891165af190811561508b5750615051575b505050614bea90615483565b82813d8311615084575b6150658183613841565b8101031261409557509061507b614bea92613d05565b50903880615045565b503d61505b565b513d84823e3d90fd5b9099508581813d83116150d7575b6150ac8183613841565b810103126150d35791868694926150c58a9b9c95613ece565b9b9a50929450929092615003565b8680fd5b503d6150a2565b85513d89823e3d90fd5b8281939297503d831161511d575b6151008183613841565b81010312615119576151128791613ece565b9438614fe9565b8780fd5b503d6150f6565b86513d8a823e3d90fd5b87513d8b823e3d90fd5b80929350813d8311615170575b61514f8183613841565b8101031261516c57908761516560249493613ece565b9293614f8a565b8880fd5b503d615145565b9099508581813d83116151a7575b61518f8183613841565b810103126150d3576151a090613ece565b9838614f64565b503d615185565b8581813d83116151db575b6151c38183613841565b810103126150d3576151d490613d05565b5038614f44565b503d6151b9565b9096508481813d8311615216575b6151fa8183613841565b810103126152125761520b90613ece565b9538614ef7565b8580fd5b503d6151f0565b84513d88823e3d90fd5b61523390969196613813565b9438614ed7565b809250868092503d831161526b575b6152538183613841565b81010312615212576152658391613ece565b38614ea8565b503d615249565b601954604051636eb1769f60e11b81523060048201526001600160a01b039182166024820181905293959493929091169190602081604481865afa8015610f7857859160009161544e575b50106153e2575b50603c420193844211613f53576019546040516101008101916001600160a01b0316906001600160401b03831181841017610aee5760409283529384526001600160a01b03928316602085810191825262ffffff9687168685019081523060608801908152608088019a8b5260a08801998a52600060c0890181815260e08a01828152975163414bf38960e01b81529951891660048b01529451881660248a01529151909816604488015296518516606487015297516084860152955160a4850152945160c4840152511660e482015292918391610104918391905af1908115610f78576000916153b3575090565b906020823d6020116153da575b816153cd60209383613841565b8101031261409557505190565b3d91506153c0565b60405163095ea7b360e01b8152600481019190915260001960248201526020816044816000865af18015610f7857156152c4576020813d602011615446575b8161542e60209383613841565b810103126101875761543f90613d05565b50386152c4565b3d9150615421565b91506020823d60201161547b575b8161546960209383613841565b810103126140955750849051386152bd565b3d915061545c565b60185460405163f77800e560e01b81526001600160a01b03916020908290600490829086165afa908115610f7857600091615502575b501690813b1561018757600091602483926040519485938492630852cd8d60e31b845260048401525af18015610f78576154f35750600190565b6154fc90613813565b38614bea565b906020823d8211615533575b8161551b60209383613841565b81010312614095575061552d90613ece565b386154b9565b3d915061550e565b92909160ff600654166008811015610cda5780600261556292141590816146605750613c8a565b61556b846134fd565b836155cb5760008080848194829082156155c1575b6001600160a01b031690f115610f78577f4a647b1d902051b0ae802f6050c58456d79d826bdf2bbf37a1bf13be97727b2d915b6142bc6144318383876142cf565b6108fc9150615580565b60208261563f926155de879695966134fd565b6001871480156156f7575b80156156e6575b6155f990613e94565b6001600160a01b0361560a88615748565b1690600060405180968195829463a9059cbb60e01b84526004840160209093929193604081019460018060a01b031681520152565b03925af1908115610f7857600091615684575b509061567f7f4a647b1d902051b0ae802f6050c58456d79d826bdf2bbf37a1bf13be97727b2d939261570a565b6155b3565b906020823d82116156de575b8161569d60209383613841565b8101031261409557509061567f6156d57f4a647b1d902051b0ae802f6050c58456d79d826bdf2bbf37a1bf13be97727b2d9493613d05565b91929350615652565b3d9150615690565b506156f0876134fd565b60006155f0565b50615701876134fd565b600287146155e9565b1561571157565b60405162461bcd60e51b815260206004820152600f60248201526e1514905394d1915497d19052531151608a1b6044820152606490fd5b615751816134fd565b600281146157a757806157656001926134fd565b1461576f57600090565b60185460405163f77800e560e01b815290602090829060049082906001600160a01b03165afa908115610f785760009161406a575090565b50601854604051635f117aa360e11b815290602090829060049082906001600160a01b03165afa908115610f785760009161406a575090565b806000917a184f03e93ff9f4daa797ed6e38ed64bf6a1f0100000000000000008082101561593a575b506d04ee2d6d415b85acef81000000008083101561592b575b50662386f26fc100008083101561591c575b506305f5e1008083101561590d575b50612710808310156158fe575b5060648210156158ee575b600a809210156158e4575b6001908160218186019561587987613bbe565b966158876040519889613841565b808852615896601f1991613bbe565b01366020890137860101905b6158ae575b5050505090565b600019019083906f181899199a1a9b1b9c1cb0b131b232b360811b8282061a8353049182156158df579190826158a2565b6158a7565b9160010191615866565b919060646002910491019161585b565b60049193920491019138615850565b60089193920491019138615843565b60109193920491019138615834565b60209193920491019138615822565b60409350810491503861580956fe659f33fc6677bebf3a9bf3101092792e31f35766d0358e54577bdd91a655f6a0036b6384b5eca791c62761152d0c79bb0604c104a5fb6f4eb0703f3154bb3db0bb8a6a4669ba250d26cd7a459eca9d215f8307e33aebe50379bc5a3617ec344466de8ffda797e3de9c05e8fc57b3bf0ec28a930d40b0d285d93c06501cf6a0908a35acfbc15ff81a39ae7d344fd709f28e8600b4aa8c65c6b64bfe7fe36bd19bce6d7b5282bd9a3661ae061feed1dbda4e52ab073b1f9285be6e155d9c38d4eca2646970667358221220a50cf9476d568200cdcbf8543dbd37140405ac29e1e6b44dc253828587a96f4e64736f6c63430008130033",
  "devdoc": {
    "kind": "dev",
    "methods": {
      "version()": {
        "returns": {
          "_0": "Semver contract version as a string."
        }
      }
    },
    "version": 1
  },
  "userdoc": {
    "kind": "user",
    "methods": {
      "version()": {
        "notice": "Returns the full semver contract version."
      }
    },
    "version": 1
  },
  "storageLayout": {
    "storage": [
      {
        "astId": 8336,
        "contract": "contracts/features/MecenateFeed.sol:MecenateFeed",
        "label": "postIds",
        "offset": 0,
        "slot": "0",
        "type": "t_struct(Bytes32Set)3835_storage"
      },
      {
        "astId": 8341,
        "contract": "contracts/features/MecenateFeed.sol:MecenateFeed",
        "label": "owner",
        "offset": 0,
        "slot": "2",
        "type": "t_address"
      },
      {
        "astId": 8344,
        "contract": "contracts/features/MecenateFeed.sol:MecenateFeed",
        "label": "post",
        "offset": 0,
        "slot": "3",
        "type": "t_struct(Post)7333_storage"
      },
      {
        "astId": 8347,
        "contract": "contracts/features/MecenateFeed.sol:MecenateFeed",
        "label": "settings",
        "offset": 0,
        "slot": "21",
        "type": "t_struct(FeedSettings)7309_storage"
      },
      {
        "astId": 8351,
        "contract": "contracts/features/MecenateFeed.sol:MecenateFeed",
        "label": "postDurationToDays",
        "offset": 0,
        "slot": "27",
        "type": "t_mapping(t_uint8,t_uint256)"
      },
      {
        "astId": 8355,
        "contract": "contracts/features/MecenateFeed.sol:MecenateFeed",
        "label": "validStatuses",
        "offset": 0,
        "slot": "28",
        "type": "t_mapping(t_uint8,t_bool)"
      },
      {
        "astId": 8360,
        "contract": "contracts/features/MecenateFeed.sol:MecenateFeed",
        "label": "postTimestamps",
        "offset": 0,
        "slot": "29",
        "type": "t_mapping(t_bytes32,t_struct(PostTimestamp)7296_storage)"
      },
      {
        "astId": 8362,
        "contract": "contracts/features/MecenateFeed.sol:MecenateFeed",
        "label": "locked",
        "offset": 0,
        "slot": "30",
        "type": "t_bool"
      },
      {
        "astId": 8792,
        "contract": "contracts/features/MecenateFeed.sol:MecenateFeed",
        "label": "_deposit",
        "offset": 0,
        "slot": "31",
        "type": "t_mapping(t_uint256,t_mapping(t_address,t_uint256))"
      }
    ],
    "types": {
      "t_address": {
        "encoding": "inplace",
        "label": "address",
        "numberOfBytes": "20"
      },
      "t_array(t_bytes32)dyn_storage": {
        "base": "t_bytes32",
        "encoding": "dynamic_array",
        "label": "bytes32[]",
        "numberOfBytes": "32"
      },
      "t_bool": {
        "encoding": "inplace",
        "label": "bool",
        "numberOfBytes": "1"
      },
      "t_bytes32": {
        "encoding": "inplace",
        "label": "bytes32",
        "numberOfBytes": "32"
      },
      "t_bytes_storage": {
        "encoding": "bytes",
        "label": "bytes",
        "numberOfBytes": "32"
      },
      "t_enum(PostResult)7272": {
        "encoding": "inplace",
        "label": "enum Structures.PostResult",
        "numberOfBytes": "1"
      },
      "t_enum(PostStatus)7268": {
        "encoding": "inplace",
        "label": "enum Structures.PostStatus",
        "numberOfBytes": "1"
      },
      "t_enum(PostType)7282": {
        "encoding": "inplace",
        "label": "enum Structures.PostType",
        "numberOfBytes": "1"
      },
      "t_enum(Tokens)7276": {
        "encoding": "inplace",
        "label": "enum Structures.Tokens",
        "numberOfBytes": "1"
      },
      "t_mapping(t_address,t_uint256)": {
        "encoding": "mapping",
        "key": "t_address",
        "label": "mapping(address => uint256)",
        "numberOfBytes": "32",
        "value": "t_uint256"
      },
      "t_mapping(t_bytes32,t_struct(PostTimestamp)7296_storage)": {
        "encoding": "mapping",
        "key": "t_bytes32",
        "label": "mapping(bytes32 => struct Structures.PostTimestamp)",
        "numberOfBytes": "32",
        "value": "t_struct(PostTimestamp)7296_storage"
      },
      "t_mapping(t_bytes32,t_uint256)": {
        "encoding": "mapping",
        "key": "t_bytes32",
        "label": "mapping(bytes32 => uint256)",
        "numberOfBytes": "32",
        "value": "t_uint256"
      },
      "t_mapping(t_uint256,t_mapping(t_address,t_uint256))": {
        "encoding": "mapping",
        "key": "t_uint256",
        "label": "mapping(uint256 => mapping(address => uint256))",
        "numberOfBytes": "32",
        "value": "t_mapping(t_address,t_uint256)"
      },
      "t_mapping(t_uint8,t_bool)": {
        "encoding": "mapping",
        "key": "t_uint8",
        "label": "mapping(uint8 => bool)",
        "numberOfBytes": "32",
        "value": "t_bool"
      },
      "t_mapping(t_uint8,t_uint256)": {
        "encoding": "mapping",
        "key": "t_uint8",
        "label": "mapping(uint8 => uint256)",
        "numberOfBytes": "32",
        "value": "t_uint256"
      },
      "t_string_storage": {
        "encoding": "bytes",
        "label": "string",
        "numberOfBytes": "32"
      },
      "t_struct(Bytes32Set)3835_storage": {
        "encoding": "inplace",
        "label": "struct EnumerableSet.Bytes32Set",
        "members": [
          {
            "astId": 3834,
            "contract": "contracts/features/MecenateFeed.sol:MecenateFeed",
            "label": "_inner",
            "offset": 0,
            "slot": "0",
            "type": "t_struct(Set)3641_storage"
          }
        ],
        "numberOfBytes": "64"
      },
      "t_struct(FeedSettings)7309_storage": {
        "encoding": "inplace",
        "label": "struct Structures.FeedSettings",
        "members": [
          {
            "astId": 7298,
            "contract": "contracts/features/MecenateFeed.sol:MecenateFeed",
            "label": "punishmentRatio",
            "offset": 0,
            "slot": "0",
            "type": "t_uint256"
          },
          {
            "astId": 7300,
            "contract": "contracts/features/MecenateFeed.sol:MecenateFeed",
            "label": "postCount",
            "offset": 0,
            "slot": "1",
            "type": "t_uint256"
          },
          {
            "astId": 7302,
            "contract": "contracts/features/MecenateFeed.sol:MecenateFeed",
            "label": "usersModuleContract",
            "offset": 0,
            "slot": "2",
            "type": "t_address"
          },
          {
            "astId": 7304,
            "contract": "contracts/features/MecenateFeed.sol:MecenateFeed",
            "label": "factoryContract",
            "offset": 0,
            "slot": "3",
            "type": "t_address"
          },
          {
            "astId": 7306,
            "contract": "contracts/features/MecenateFeed.sol:MecenateFeed",
            "label": "router",
            "offset": 0,
            "slot": "4",
            "type": "t_address"
          },
          {
            "astId": 7308,
            "contract": "contracts/features/MecenateFeed.sol:MecenateFeed",
            "label": "version",
            "offset": 0,
            "slot": "5",
            "type": "t_string_storage"
          }
        ],
        "numberOfBytes": "192"
      },
      "t_struct(Post)7333_storage": {
        "encoding": "inplace",
        "label": "struct Structures.Post",
        "members": [
          {
            "astId": 7329,
            "contract": "contracts/features/MecenateFeed.sol:MecenateFeed",
            "label": "creator",
            "offset": 0,
            "slot": "0",
            "type": "t_struct(User)7388_storage"
          },
          {
            "astId": 7332,
            "contract": "contracts/features/MecenateFeed.sol:MecenateFeed",
            "label": "postdata",
            "offset": 0,
            "slot": "3",
            "type": "t_struct(PostData)7343_storage"
          }
        ],
        "numberOfBytes": "576"
      },
      "t_struct(PostData)7343_storage": {
        "encoding": "inplace",
        "label": "struct Structures.PostData",
        "members": [
          {
            "astId": 7336,
            "contract": "contracts/features/MecenateFeed.sol:MecenateFeed",
            "label": "settings",
            "offset": 0,
            "slot": "0",
            "type": "t_struct(PostSettings)7368_storage"
          },
          {
            "astId": 7339,
            "contract": "contracts/features/MecenateFeed.sol:MecenateFeed",
            "label": "escrow",
            "offset": 0,
            "slot": "6",
            "type": "t_struct(PostEscrow)7381_storage"
          },
          {
            "astId": 7342,
            "contract": "contracts/features/MecenateFeed.sol:MecenateFeed",
            "label": "data",
            "offset": 0,
            "slot": "12",
            "type": "t_struct(PostEncryptedData)7350_storage"
          }
        ],
        "numberOfBytes": "480"
      },
      "t_struct(PostEncryptedData)7350_storage": {
        "encoding": "inplace",
        "label": "struct Structures.PostEncryptedData",
        "members": [
          {
            "astId": 7345,
            "contract": "contracts/features/MecenateFeed.sol:MecenateFeed",
            "label": "encryptedData",
            "offset": 0,
            "slot": "0",
            "type": "t_bytes_storage"
          },
          {
            "astId": 7347,
            "contract": "contracts/features/MecenateFeed.sol:MecenateFeed",
            "label": "encryptedKey",
            "offset": 0,
            "slot": "1",
            "type": "t_bytes_storage"
          },
          {
            "astId": 7349,
            "contract": "contracts/features/MecenateFeed.sol:MecenateFeed",
            "label": "decryptedData",
            "offset": 0,
            "slot": "2",
            "type": "t_bytes_storage"
          }
        ],
        "numberOfBytes": "96"
      },
      "t_struct(PostEscrow)7381_storage": {
        "encoding": "inplace",
        "label": "struct Structures.PostEscrow",
        "members": [
          {
            "astId": 7370,
            "contract": "contracts/features/MecenateFeed.sol:MecenateFeed",
            "label": "buyer",
            "offset": 0,
            "slot": "0",
            "type": "t_address"
          },
          {
            "astId": 7372,
            "contract": "contracts/features/MecenateFeed.sol:MecenateFeed",
            "label": "seller",
            "offset": 0,
            "slot": "1",
            "type": "t_address"
          },
          {
            "astId": 7374,
            "contract": "contracts/features/MecenateFeed.sol:MecenateFeed",
            "label": "stake",
            "offset": 0,
            "slot": "2",
            "type": "t_uint256"
          },
          {
            "astId": 7376,
            "contract": "contracts/features/MecenateFeed.sol:MecenateFeed",
            "label": "payment",
            "offset": 0,
            "slot": "3",
            "type": "t_uint256"
          },
          {
            "astId": 7378,
            "contract": "contracts/features/MecenateFeed.sol:MecenateFeed",
            "label": "punishment",
            "offset": 0,
            "slot": "4",
            "type": "t_uint256"
          },
          {
            "astId": 7380,
            "contract": "contracts/features/MecenateFeed.sol:MecenateFeed",
            "label": "penalty",
            "offset": 0,
            "slot": "5",
            "type": "t_uint256"
          }
        ],
        "numberOfBytes": "192"
      },
      "t_struct(PostSettings)7368_storage": {
        "encoding": "inplace",
        "label": "struct Structures.PostSettings",
        "members": [
          {
            "astId": 7353,
            "contract": "contracts/features/MecenateFeed.sol:MecenateFeed",
            "label": "status",
            "offset": 0,
            "slot": "0",
            "type": "t_enum(PostStatus)7268"
          },
          {
            "astId": 7356,
            "contract": "contracts/features/MecenateFeed.sol:MecenateFeed",
            "label": "postType",
            "offset": 1,
            "slot": "0",
            "type": "t_enum(PostType)7282"
          },
          {
            "astId": 7358,
            "contract": "contracts/features/MecenateFeed.sol:MecenateFeed",
            "label": "creationTimeStamp",
            "offset": 0,
            "slot": "1",
            "type": "t_uint256"
          },
          {
            "astId": 7360,
            "contract": "contracts/features/MecenateFeed.sol:MecenateFeed",
            "label": "endTimeStamp",
            "offset": 0,
            "slot": "2",
            "type": "t_uint256"
          },
          {
            "astId": 7362,
            "contract": "contracts/features/MecenateFeed.sol:MecenateFeed",
            "label": "duration",
            "offset": 0,
            "slot": "3",
            "type": "t_uint256"
          },
          {
            "astId": 7365,
            "contract": "contracts/features/MecenateFeed.sol:MecenateFeed",
            "label": "tokenId",
            "offset": 0,
            "slot": "4",
            "type": "t_enum(Tokens)7276"
          },
          {
            "astId": 7367,
            "contract": "contracts/features/MecenateFeed.sol:MecenateFeed",
            "label": "postId",
            "offset": 0,
            "slot": "5",
            "type": "t_bytes32"
          }
        ],
        "numberOfBytes": "192"
      },
      "t_struct(PostTimestamp)7296_storage": {
        "encoding": "inplace",
        "label": "struct Structures.PostTimestamp",
        "members": [
          {
            "astId": 7291,
            "contract": "contracts/features/MecenateFeed.sol:MecenateFeed",
            "label": "postResult",
            "offset": 0,
            "slot": "0",
            "type": "t_enum(PostResult)7272"
          },
          {
            "astId": 7293,
            "contract": "contracts/features/MecenateFeed.sol:MecenateFeed",
            "label": "creationTimeStamp",
            "offset": 0,
            "slot": "1",
            "type": "t_uint256"
          },
          {
            "astId": 7295,
            "contract": "contracts/features/MecenateFeed.sol:MecenateFeed",
            "label": "endTimeStamp",
            "offset": 0,
            "slot": "2",
            "type": "t_uint256"
          }
        ],
        "numberOfBytes": "96"
      },
      "t_struct(Set)3641_storage": {
        "encoding": "inplace",
        "label": "struct EnumerableSet.Set",
        "members": [
          {
            "astId": 3636,
            "contract": "contracts/features/MecenateFeed.sol:MecenateFeed",
            "label": "_values",
            "offset": 0,
            "slot": "0",
            "type": "t_array(t_bytes32)dyn_storage"
          },
          {
            "astId": 3640,
            "contract": "contracts/features/MecenateFeed.sol:MecenateFeed",
            "label": "_indexes",
            "offset": 0,
            "slot": "1",
            "type": "t_mapping(t_bytes32,t_uint256)"
          }
        ],
        "numberOfBytes": "64"
      },
      "t_struct(User)7388_storage": {
        "encoding": "inplace",
        "label": "struct Structures.User",
        "members": [
          {
            "astId": 7383,
            "contract": "contracts/features/MecenateFeed.sol:MecenateFeed",
            "label": "evmAddress",
            "offset": 0,
            "slot": "0",
            "type": "t_address"
          },
          {
            "astId": 7385,
            "contract": "contracts/features/MecenateFeed.sol:MecenateFeed",
            "label": "sismoVaultId",
            "offset": 0,
            "slot": "1",
            "type": "t_bytes_storage"
          },
          {
            "astId": 7387,
            "contract": "contracts/features/MecenateFeed.sol:MecenateFeed",
            "label": "publicKey",
            "offset": 0,
            "slot": "2",
            "type": "t_bytes_storage"
          }
        ],
        "numberOfBytes": "96"
      },
      "t_uint256": {
        "encoding": "inplace",
        "label": "uint256",
        "numberOfBytes": "32"
      },
      "t_uint8": {
        "encoding": "inplace",
        "label": "uint8",
        "numberOfBytes": "1"
      }
    }
  }
}