{
  "address": "0x09cCD9c0a8663405703252A0a5b81b919EBf7C63",
  "abi": [
    {
      "anonymous": false,
      "inputs": [
        {
          "indexed": true,
          "internalType": "address",
          "name": "addr",
          "type": "address"
        }
      ],
      "name": "FeedCreated",
      "type": "event"
    },
    {
      "anonymous": false,
      "inputs": [
        {
          "indexed": true,
          "internalType": "address",
          "name": "previousOwner",
          "type": "address"
        },
        {
          "indexed": true,
          "internalType": "address",
          "name": "newOwner",
          "type": "address"
        }
      ],
      "name": "OwnershipTransferred",
      "type": "event"
    },
    {
      "inputs": [],
      "name": "buildFeed",
      "outputs": [
        {
          "internalType": "address",
          "name": "",
          "type": "address"
        }
      ],
      "stateMutability": "payable",
      "type": "function"
    },
    {
      "inputs": [],
      "name": "burnEnabled",
      "outputs": [
        {
          "internalType": "bool",
          "name": "",
          "type": "bool"
        }
      ],
      "stateMutability": "view",
      "type": "function"
    },
    {
      "inputs": [
        {
          "internalType": "address",
          "name": "treasury",
          "type": "address"
        },
        {
          "internalType": "address",
          "name": "usersModule",
          "type": "address"
        },
        {
          "internalType": "address",
          "name": "easContract",
          "type": "address"
        },
        {
          "internalType": "bytes32",
          "name": "easSchema",
          "type": "bytes32"
        },
        {
          "internalType": "address",
          "name": "wethTokenAddr",
          "type": "address"
        },
        {
          "internalType": "address",
          "name": "museTokenAddr",
          "type": "address"
        },
        {
          "internalType": "address",
          "name": "daiTokenAddr",
          "type": "address"
        },
        {
          "internalType": "address",
          "name": "routerAddr",
          "type": "address"
        }
      ],
      "name": "changeMultipleSettings",
      "outputs": [],
      "stateMutability": "nonpayable",
      "type": "function"
    },
    {
      "inputs": [],
      "name": "contractCounter",
      "outputs": [
        {
          "internalType": "uint256",
          "name": "",
          "type": "uint256"
        }
      ],
      "stateMutability": "view",
      "type": "function"
    },
    {
      "inputs": [],
      "name": "daiToken",
      "outputs": [
        {
          "internalType": "address",
          "name": "",
          "type": "address"
        }
      ],
      "stateMutability": "view",
      "type": "function"
    },
    {
      "inputs": [],
      "name": "easContract",
      "outputs": [
        {
          "internalType": "address",
          "name": "",
          "type": "address"
        }
      ],
      "stateMutability": "view",
      "type": "function"
    },
    {
      "inputs": [],
      "name": "easSchema",
      "outputs": [
        {
          "internalType": "bytes32",
          "name": "",
          "type": "bytes32"
        }
      ],
      "stateMutability": "view",
      "type": "function"
    },
    {
      "inputs": [
        {
          "internalType": "address",
          "name": "user",
          "type": "address"
        }
      ],
      "name": "getFeedInfo",
      "outputs": [
        {
          "components": [
            {
              "internalType": "address",
              "name": "contractAddress",
              "type": "address"
            },
            {
              "internalType": "address",
              "name": "owner",
              "type": "address"
            },
            {
              "internalType": "uint256",
              "name": "sellerStake",
              "type": "uint256"
            },
            {
              "internalType": "uint256",
              "name": "buyerStake",
              "type": "uint256"
            },
            {
              "internalType": "uint256",
              "name": "totalStake",
              "type": "uint256"
            },
            {
              "internalType": "uint256",
              "name": "postCount",
              "type": "uint256"
            },
            {
              "internalType": "uint256",
              "name": "paymentRequested",
              "type": "uint256"
            },
            {
              "internalType": "uint256",
              "name": "stakeRequested",
              "type": "uint256"
            },
            {
              "internalType": "enum Structures.PostStatus",
              "name": "status",
              "type": "uint8"
            },
            {
              "internalType": "enum Structures.Tokens",
              "name": "tokenId",
              "type": "uint8"
            },
            {
              "internalType": "string",
              "name": "version",
              "type": "string"
            },
            {
              "internalType": "bytes32",
              "name": "postId",
              "type": "bytes32"
            }
          ],
          "internalType": "struct Structures.Feed",
          "name": "",
          "type": "tuple"
        }
      ],
      "stateMutability": "view",
      "type": "function"
    },
    {
      "inputs": [],
      "name": "getFeeds",
      "outputs": [
        {
          "internalType": "address[]",
          "name": "",
          "type": "address[]"
        }
      ],
      "stateMutability": "view",
      "type": "function"
    },
    {
      "inputs": [],
      "name": "getFeedsInfo",
      "outputs": [
        {
          "components": [
            {
              "internalType": "address",
              "name": "contractAddress",
              "type": "address"
            },
            {
              "internalType": "address",
              "name": "owner",
              "type": "address"
            },
            {
              "internalType": "uint256",
              "name": "sellerStake",
              "type": "uint256"
            },
            {
              "internalType": "uint256",
              "name": "buyerStake",
              "type": "uint256"
            },
            {
              "internalType": "uint256",
              "name": "totalStake",
              "type": "uint256"
            },
            {
              "internalType": "uint256",
              "name": "postCount",
              "type": "uint256"
            },
            {
              "internalType": "uint256",
              "name": "paymentRequested",
              "type": "uint256"
            },
            {
              "internalType": "uint256",
              "name": "stakeRequested",
              "type": "uint256"
            },
            {
              "internalType": "enum Structures.PostStatus",
              "name": "status",
              "type": "uint8"
            },
            {
              "internalType": "enum Structures.Tokens",
              "name": "tokenId",
              "type": "uint8"
            },
            {
              "internalType": "string",
              "name": "version",
              "type": "string"
            },
            {
              "internalType": "bytes32",
              "name": "postId",
              "type": "bytes32"
            }
          ],
          "internalType": "struct Structures.Feed[]",
          "name": "",
          "type": "tuple[]"
        }
      ],
      "stateMutability": "view",
      "type": "function"
    },
    {
      "inputs": [
        {
          "internalType": "address",
          "name": "user",
          "type": "address"
        }
      ],
      "name": "getFeedsInfoOwned",
      "outputs": [
        {
          "components": [
            {
              "internalType": "address",
              "name": "contractAddress",
              "type": "address"
            },
            {
              "internalType": "address",
              "name": "owner",
              "type": "address"
            },
            {
              "internalType": "uint256",
              "name": "sellerStake",
              "type": "uint256"
            },
            {
              "internalType": "uint256",
              "name": "buyerStake",
              "type": "uint256"
            },
            {
              "internalType": "uint256",
              "name": "totalStake",
              "type": "uint256"
            },
            {
              "internalType": "uint256",
              "name": "postCount",
              "type": "uint256"
            },
            {
              "internalType": "uint256",
              "name": "paymentRequested",
              "type": "uint256"
            },
            {
              "internalType": "uint256",
              "name": "stakeRequested",
              "type": "uint256"
            },
            {
              "internalType": "enum Structures.PostStatus",
              "name": "status",
              "type": "uint8"
            },
            {
              "internalType": "enum Structures.Tokens",
              "name": "tokenId",
              "type": "uint8"
            },
            {
              "internalType": "string",
              "name": "version",
              "type": "string"
            },
            {
              "internalType": "bytes32",
              "name": "postId",
              "type": "bytes32"
            }
          ],
          "internalType": "struct Structures.Feed[]",
          "name": "",
          "type": "tuple[]"
        }
      ],
      "stateMutability": "view",
      "type": "function"
    },
    {
      "inputs": [
        {
          "internalType": "address",
          "name": "user",
          "type": "address"
        }
      ],
      "name": "getFeedsOwned",
      "outputs": [
        {
          "internalType": "address[]",
          "name": "",
          "type": "address[]"
        }
      ],
      "stateMutability": "view",
      "type": "function"
    },
    {
      "inputs": [
        {
          "internalType": "uint8",
          "name": "tokenId",
          "type": "uint8"
        }
      ],
      "name": "getRouterFee",
      "outputs": [
        {
          "internalType": "uint24",
          "name": "",
          "type": "uint24"
        }
      ],
      "stateMutability": "view",
      "type": "function"
    },
    {
      "inputs": [
        {
          "internalType": "address",
          "name": "contractAddress",
          "type": "address"
        }
      ],
      "name": "isContractCreated",
      "outputs": [
        {
          "internalType": "bool",
          "name": "",
          "type": "bool"
        }
      ],
      "stateMutability": "view",
      "type": "function"
    },
    {
      "inputs": [
        {
          "internalType": "address",
          "name": "newFeed",
          "type": "address"
        }
      ],
      "name": "isFeed",
      "outputs": [
        {
          "internalType": "bool",
          "name": "",
          "type": "bool"
        }
      ],
      "stateMutability": "view",
      "type": "function"
    },
    {
      "inputs": [],
      "name": "major",
      "outputs": [
        {
          "internalType": "uint8",
          "name": "",
          "type": "uint8"
        }
      ],
      "stateMutability": "view",
      "type": "function"
    },
    {
      "inputs": [],
      "name": "minor",
      "outputs": [
        {
          "internalType": "uint8",
          "name": "",
          "type": "uint8"
        }
      ],
      "stateMutability": "view",
      "type": "function"
    },
    {
      "inputs": [],
      "name": "museToken",
      "outputs": [
        {
          "internalType": "address",
          "name": "",
          "type": "address"
        }
      ],
      "stateMutability": "view",
      "type": "function"
    },
    {
      "inputs": [],
      "name": "owner",
      "outputs": [
        {
          "internalType": "address",
          "name": "",
          "type": "address"
        }
      ],
      "stateMutability": "view",
      "type": "function"
    },
    {
      "inputs": [],
      "name": "patch",
      "outputs": [
        {
          "internalType": "uint8",
          "name": "",
          "type": "uint8"
        }
      ],
      "stateMutability": "view",
      "type": "function"
    },
    {
      "inputs": [],
      "name": "renounceOwnership",
      "outputs": [],
      "stateMutability": "nonpayable",
      "type": "function"
    },
    {
      "inputs": [],
      "name": "router",
      "outputs": [
        {
          "internalType": "address",
          "name": "",
          "type": "address"
        }
      ],
      "stateMutability": "view",
      "type": "function"
    },
    {
      "inputs": [
        {
          "internalType": "bool",
          "name": "newBurnEnabled",
          "type": "bool"
        }
      ],
      "name": "setBurnEnabled",
      "outputs": [],
      "stateMutability": "nonpayable",
      "type": "function"
    },
    {
      "inputs": [
        {
          "internalType": "bytes",
          "name": "newByteCode",
          "type": "bytes"
        },
        {
          "internalType": "uint8",
          "name": "newMajor",
          "type": "uint8"
        },
        {
          "internalType": "uint8",
          "name": "newMinor",
          "type": "uint8"
        },
        {
          "internalType": "uint8",
          "name": "newPatch",
          "type": "uint8"
        }
      ],
      "name": "setFeedByteCode",
      "outputs": [],
      "stateMutability": "nonpayable",
      "type": "function"
    },
    {
      "inputs": [
        {
          "internalType": "uint8",
          "name": "tokenId",
          "type": "uint8"
        },
        {
          "internalType": "uint24",
          "name": "fee",
          "type": "uint24"
        }
      ],
      "name": "setRouterFee",
      "outputs": [],
      "stateMutability": "nonpayable",
      "type": "function"
    },
    {
      "inputs": [
        {
          "internalType": "address",
          "name": "newOwner",
          "type": "address"
        }
      ],
      "name": "transferOwnership",
      "outputs": [],
      "stateMutability": "nonpayable",
      "type": "function"
    },
    {
      "inputs": [],
      "name": "treasuryContract",
      "outputs": [
        {
          "internalType": "address",
          "name": "",
          "type": "address"
        }
      ],
      "stateMutability": "view",
      "type": "function"
    },
    {
      "inputs": [],
      "name": "version",
      "outputs": [
        {
          "internalType": "string",
          "name": "",
          "type": "string"
        }
      ],
      "stateMutability": "view",
      "type": "function"
    },
    {
      "inputs": [],
      "name": "wethToken",
      "outputs": [
        {
          "internalType": "address",
          "name": "",
          "type": "address"
        }
      ],
      "stateMutability": "view",
      "type": "function"
    }
  ],
  "transactionHash": "0x09bf769cb2f4a941915101554a9df721108bebd0fb6420f11973c269c8ac3a59",
  "args": [],
  "numDeployments": 2,
  "solcInputHash": "92732d8dc5d2dedc510f7d508169f721",
  "bytecode": "0x608080604052346100e05760008054336001600160a01b0319821681178355906001600160a01b03167f8be0079c531659141344cd1fd0a4f28419497f9722a3daafe3b4186f6b6457e08380a3600f546001918282811c921680156100d6575b60208310146100c257601f8211610098575b600c65076322e302e360d41b01600f556010805460ff19169055611a968481620000e68239f35b600f8152601f60208220920160051c8201915b8281106100b85750610071565b81815583016100ab565b634e487b7160e01b81526022600452602490fd5b91607f169161005f565b600080fdfe6080604052600436101561001257600080fd5b60003560e01c8063067bd3b4146101e257806318da0011146101dd5780633ec4f23d146101d857806349975235146101d35780634b57b0be146101ce57806354fd4d50146101c95780635dc96d16146101c4578063715018a6146101bf5780637b2c835f146101ba5780637fe955d4146101b55780638da5cb5b146101b05780639407aeea146101ab5780639496d7f1146101a6578063ad861324146101a1578063b2a2e9ca1461019c578063bb834b0e14610197578063be22f54614610192578063ca5b4e5c1461018d578063cd77b52c14610188578063cedf3ba214610179578063d223a56414610183578063d570a66d1461017e578063e58fdd0414610179578063e86ef35314610174578063e9318b471461016f578063f2fde38b1461016a578063f77800e514610165578063f86d0b38146101605763f887ea401461015b57600080fd5b610f7c565b610f5b565b610f32565b610e6b565b610e17565b610d9a565b610cda565b610d55565b610d1c565b610cb1565b610a94565b610a6b565b610a47565b6109cd565b61093f565b610702565b610662565b6105dd565b610557565b6104d9565b610474565b610451565b61036c565b610270565b61024c565b61022e565b610205565b34610200576000366003190112610200576020601154604051908152f35b600080fd5b34610200576000366003190112610200576003546040516001600160a01b039091168152602090f35b34610200576000366003190112610200576020600654604051908152f35b3461020057600036600319011261020057602060ff60125460101c16604051908152f35b34610200576000366003190112610200576009546040516001600160a01b039091168152602090f35b90600182811c921680156102c9575b60208310146102b357565b634e487b7160e01b600052602260045260246000fd5b91607f16916102a8565b634e487b7160e01b600052604160045260246000fd5b90601f8019910116810190811067ffffffffffffffff82111761030b57604052565b6102d3565b60005b8381106103235750506000910152565b8181015183820152602001610313565b9060209161034c81518092818552858086019101610310565b601f01601f1916010190565b906020610369928181520190610333565b90565b346102005760008060031936011261044e576040519080600f5461038f81610299565b8085529160019180831690811561042457506001146103c9575b6103c5856103b9818703826102e9565b60405191829182610358565b0390f35b9250600f83527f8d1108e10bcb7c27dddfc02ed9d693a074039d026cf4ea4240b40f7d581ac8025b82841061040c5750505081016020016103b9826103c56103a9565b805460208587018101919091529093019281016103f1565b8695506103c5969350602092506103b994915060ff191682840152151560051b82010192936103a9565b80fd5b3461020057600036600319011261020057602060ff601054166040519015158152f35b346102005760008060031936011261044e5761048e610fa5565b80546001600160a01b03198116825581906001600160a01b03167f8be0079c531659141344cd1fd0a4f28419497f9722a3daafe3b4186f6b6457e08280a380f35b8015150361020057565b34610200576020366003190112610200576004356104f6816104cf565b6104fe610fa5565b60ff8019601054169115151617601055600080f35b6020908160408183019282815285518094520193019160005b82811061053a575050505090565b83516001600160a01b03168552938101939281019260010161052c565b346102005760003660031901126102005760405180600191825492838252602080920193816000527fb10e2d527612073b26eecdfd717e6a320cf44b4afac2b0732d9fcbe2b7fa0cf6926000905b8282106105c8576103c5866105bc818a03826102e9565b60405191829182610513565b845487529586019593830193908301906105a5565b34610200576000366003190112610200576000546040516001600160a01b039091168152602090f35b67ffffffffffffffff811161030b57601f01601f191660200190565b6024359060ff8216820361020057565b6044359060ff8216820361020057565b6064359060ff8216820361020057565b6004359060ff8216820361020057565b346102005760803660031901126102005760043567ffffffffffffffff8111610200573660238201121561020057806004013561069e81610606565b906106ac60405192836102e9565b80825236602482850101116102005760208160009260246106ef960183860137830101526106d8610622565b6106e0610632565b906106e9610642565b92610ffd565b005b6001600160a01b0381160361020057565b3461020057610100366003190112610200576106ef600435610723816106f1565b60243590610730826106f1565b60443561073c816106f1565b60843590610749826106f1565b60a43590610756826106f1565b60c43591610763836106f1565b60e43595610770876106f1565b610778610fa5565b60018060a01b0394858094818094816bffffffffffffffffffffffff60a01b9b168b6003541617600355168960045416176004551687600554161760055560643560065516856009541617600955168360075416176007551690600854161760085560018060a01b03166bffffffffffffffffffffffff60a01b600a541617600a55565b634e487b7160e01b600052602160045260246000fd5b90600882101561081f5752565b6107fc565b90600382101561081f5752565b80516001600160a01b03168252906020828101516001600160a01b03169082015260408201516040820152606082015160608201526080820151608082015260a082015160a082015260c082015160c082015260e082015160e08201526108a16101008084015190830190610812565b6108b46101208084015190830190610824565b6108cf61014080840151906101808091850152830190610333565b916101608091015191015290565b602080820190808352835180925260408301928160408460051b8301019501936000915b8483106109115750505050505090565b909192939495848061092f600193603f198682030187528a51610831565b9801930193019194939290610901565b34610200576020806003193601126102005760043561095d816106f1565b60018060a01b0316600052600d81526040600020604051918281835491828152019260005281600020916000905b8282106109b6576103c56109aa876109a5818903826102e9565b6119c4565b604051918291826108dd565b83548552938401936001938401939091019061098b565b3461020057602080600319360112610200576004356109eb816106f1565b6001600160a01b03166000908152600d82526040808220905181548082529183528383208185019491939092915b828210610a30576103c5856105bc818903826102e9565b835486529485019460019384019390910190610a19565b3461020057600036600319011261020057602060ff60125460081c16604051908152f35b34610200576000366003190112610200576008546040516001600160a01b039091168152602090f35b60008060031936011261044e57600454601254604080513360208201526001600160a01b0390931690830181905230606084015260ff8083166080850152600883901c811660a085015260109290921c90911660c080840191909152825290601f19610b0160e0836102e9565b60405163122643f360e21b81523360048201526001600160a01b03939091906020908390602490829088165afa908115610cac57610b4d610bdd92610bd1948891610c7e575b506111ab565b610b60610b58611505565b3410156111ed565b610b9b8680808034610b8b610b7f610b7f60035460018060a01b031690565b6001600160a01b031690565b5af1610b9561122a565b5061125a565b610bae610ba9601154611294565b601155565b610bb66112b9565b93604051938491610bcb602084018098611377565b90611377565b039081018352826102e9565b519083f090813b15610c7a57816103c5917fb658664a46408e6670a38ec7ea8b7614c9e2916184dff2fad99d3a7a3491ca7d949316610c1b816113b7565b50336000908152600d60205260409020610c3690839061138e565b506001600160a01b0382166000908152600e60205260409020610c6090805460ff19166001179055565b60405194848695a26001600160a01b031682526020820190565b8280fd5b610c9f915060203d8111610ca5575b610c9781836102e9565b81019061118a565b38610b47565b503d610c8d565b61119f565b34610200576000366003190112610200576005546040516001600160a01b039091168152602090f35b3461020057602036600319011261020057600435610cf7816106f1565b60018060a01b0316600052600e602052602060ff604060002054166040519015158152f35b346102005760203660031901126102005760ff610d37610652565b16600052600c602052602062ffffff60406000205416604051908152f35b34610200576020366003190112610200576103c5610d86600435610d78816106f1565b610d80611489565b50611621565b604051918291602083526020830190610831565b346102005760003660031901126102005760405180600190815491828252602080920192816000527fb10e2d527612073b26eecdfd717e6a320cf44b4afac2b0732d9fcbe2b7fa0cf6926000905b828210610e02576103c56109aa886109a5818a03826102e9565b84548652948501949383019390830190610de8565b3461020057604036600319011261020057610e30610652565b6024359062ffffff82168092036102005760ff90610e4c610fa5565b16600052600c60205260406000209062ffffff19825416179055600080f35b3461020057602036600319011261020057600435610e88816106f1565b610e90610fa5565b6001600160a01b039081168015610ede57600080546001600160a01b03198116831782559092167f8be0079c531659141344cd1fd0a4f28419497f9722a3daafe3b4186f6b6457e08380a380f35b60405162461bcd60e51b815260206004820152602660248201527f4f776e61626c653a206e6577206f776e657220697320746865207a65726f206160448201526564647265737360d01b6064820152608490fd5b34610200576000366003190112610200576007546040516001600160a01b039091168152602090f35b3461020057600036600319011261020057602060ff60125416604051908152f35b3461020057600036600319011261020057600a546040516001600160a01b039091168152602090f35b6000546001600160a01b03163303610fb957565b606460405162461bcd60e51b815260206004820152602060248201527f4f776e61626c653a2063616c6c6572206973206e6f7420746865206f776e65726044820152fd5b939261ff009092919261100e610fa5565b60ff62ff00006012549260101b1694169062ffffff1916179160081b161717601255815167ffffffffffffffff811161030b5761105581611050600b54610299565b611119565b602080601f83116001146110915750819293600092611086575b50508160011b916000199060031b1c191617600b55565b01519050388061106f565b90601f198316946110c4600b6000527f0175b7a638427703f0dbe7bb9bbf987a2551717b34e79f33b5b1008d1fa01db990565b926000905b8782106111015750508360019596106110e8575b505050811b01600b55565b015160001960f88460031b161c191690553880806110dd565b806001859682949686015181550195019301906110c9565b601f8111611125575050565b600090600b82527f0175b7a638427703f0dbe7bb9bbf987a2551717b34e79f33b5b1008d1fa01db9906020601f850160051c83019410611180575b601f0160051c01915b82811061117557505050565b818155600101611169565b9092508290611160565b908160209103126102005751610369816104cf565b6040513d6000823e3d90fd5b156111b257565b60405162461bcd60e51b81526020600482015260136024820152721d5cd95c88191bd95cc81b9bdd08195e1a5cdd606a1b6044820152606490fd5b156111f457565b60405162461bcd60e51b815260206004820152600e60248201526d4e4f545f454e4f5547485f46454560901b6044820152606490fd5b3d15611255573d9061123b82610606565b9161124960405193846102e9565b82523d6000602084013e565b606090565b1561126157565b60405162461bcd60e51b815260206004820152600b60248201526a10d0531317d1905253115160aa1b6044820152606490fd5b60001981146112a35760010190565b634e487b7160e01b600052601160045260246000fd5b60405190600082600b54916112cd83610299565b8083529260019081811690811561135557506001146112f6575b506112f4925003836102e9565b565b600b600090815291507f0175b7a638427703f0dbe7bb9bbf987a2551717b34e79f33b5b1008d1fa01db95b84831061133a57506112f49350508101602001386112e7565b81935090816020925483858a01015201910190918592611321565b9050602092506112f494915060ff191682840152151560051b820101386112e7565b9061138a60209282815194859201610310565b0190565b610369916001600160a01b031690611433565b634e487b7160e01b600052603260045260246000fd5b8060005260026020526040600020541560001461142d57600154600160401b81101561030b5760018101806001558110156114285781907fb10e2d527612073b26eecdfd717e6a320cf44b4afac2b0732d9fcbe2b7fa0cf60155600154906000526002602052604060002055600190565b6113a1565b50600090565b6000828152600182016020819052604082205461148257825492600160401b84101561030b57600184018082558410156114285784604094828552602085200155549382526020522055600190565b5091505090565b60405190610180820182811067ffffffffffffffff82111761030b57604052816101606000918281528260208201528260408201528260608201528260808201528260a08201528260c08201528260e0820152826101008201528261012082015260606101408201520152565b90816020910312610200575190565b6003546040516391792d5b60e01b815290602090829060049082906001600160a01b03165afa908115610cac5760009161153d575090565b610369915060203d811161155e575b61155681836102e9565b8101906114f6565b503d61154c565b908160209103126102005751610369816106f1565b90816020910312610200575160088110156102005790565b600882101561081f5752565b90816020910312610200575160038110156102005790565b600382101561081f5752565b6020818303126102005780519067ffffffffffffffff8211610200570181601f820112156102005780516115f581610606565b9261160360405194856102e9565b81845260208284010111610200576103699160208085019101610310565b611629611489565b50611632611489565b6001600160a01b0390911680825260408051638da5cb5b60e01b81526020926004929184818581855afa8015610cac5761167e9160009161196b575b506001600160a01b031686860152565b8151635c63ed6960e01b815284818581855afa908115610cac5760009161194e575b50858301528151634c38d87760e01b815284818581855afa908115610cac57600091611931575b506060860152815163048bf3bb60e11b815284818581855afa908115610cac57600091611914575b5060808601528151630bc8361760e11b815284818581855afa908115610cac576000916118f7575b5060a0860152815163d24e0c8760e01b815284818581855afa908115610cac576000916118da575b5060c0860152815163faeb5e1760e01b815284818581855afa908115610cac576000916118bd575b5060e086015281516302734eab60e51b815284818581855afa8015610cac5761179d91600091611890575b506101008701611592565b815163010a38f560e01b815284818581855afa8015610cac576117cd91600091611863575b5061012087016115b6565b815163054fd4d560e41b8152916000838581855afa8015610cac578593600091611842575b50610140870152516332946a8760e01b815292839182905afa918215610cac57600092611825575b505061016082015290565b61183b9250803d1061155e5761155681836102e9565b388061181a565b61185d913d8091833e61185581836102e9565b8101906115c2565b386117f2565b6118839150863d8811611889575b61187b81836102e9565b81019061159e565b386117c2565b503d611871565b6118b09150863d88116118b6575b6118a881836102e9565b81019061157a565b38611792565b503d61189e565b6118d49150853d871161155e5761155681836102e9565b38611767565b6118f19150853d871161155e5761155681836102e9565b3861173f565b61190e9150853d871161155e5761155681836102e9565b38611717565b61192b9150853d871161155e5761155681836102e9565b386116ef565b6119489150853d871161155e5761155681836102e9565b386116c7565b6119659150853d871161155e5761155681836102e9565b386116a0565b61198b9150863d8811611991575b61198381836102e9565b810190611565565b3861166e565b503d611979565b67ffffffffffffffff811161030b5760051b60200190565b80518210156114285760209160051b010190565b80516119cf81611998565b916119dd60405193846102e9565b818352601f196119ec83611998565b0160005b818110611a4957505060005b828110611a095750505090565b611a4490611a296001600160a01b03611a2283866119b0565b5116611621565b611a3382876119b0565b52611a3e81866119b0565b50611294565b6119fc565b602090611a54611489565b828288010152016119f056fea2646970667358221220eb079c888864c894d0a1ca05ae41a650b09f4eef992a59521dd9bd1db890ec9064736f6c63430008130033",
  "devdoc": {
    "kind": "dev",
    "methods": {
      "owner()": {
        "details": "Returns the address of the current owner."
      },
      "renounceOwnership()": {
        "details": "Leaves the contract without owner. It will not be possible to call `onlyOwner` functions. Can only be called by the current owner. NOTE: Renouncing ownership will leave the contract without an owner, thereby disabling any functionality that is only available to the owner."
      },
      "transferOwnership(address)": {
        "details": "Transfers ownership of the contract to a new account (`newOwner`). Can only be called by the current owner."
      }
    },
    "version": 1
  },
  "userdoc": {
    "kind": "user",
    "methods": {},
    "version": 1
  },
  "storageLayout": {
    "storage": [
      {
        "astId": 7,
        "contract": "contracts/factories/MecenateFeedFactory.sol:MecenateFeedFactory",
        "label": "_owner",
        "offset": 0,
        "slot": "0",
        "type": "t_address"
      },
      {
        "astId": 4767,
        "contract": "contracts/factories/MecenateFeedFactory.sol:MecenateFeedFactory",
        "label": "feeds",
        "offset": 0,
        "slot": "1",
        "type": "t_struct(AddressSet)3956_storage"
      },
      {
        "astId": 4770,
        "contract": "contracts/factories/MecenateFeedFactory.sol:MecenateFeedFactory",
        "label": "settings",
        "offset": 0,
        "slot": "3",
        "type": "t_struct(FactorySettings)7326_storage"
      },
      {
        "astId": 4772,
        "contract": "contracts/factories/MecenateFeedFactory.sol:MecenateFeedFactory",
        "label": "feedByteCode",
        "offset": 0,
        "slot": "11",
        "type": "t_bytes_storage"
      },
      {
        "astId": 4776,
        "contract": "contracts/factories/MecenateFeedFactory.sol:MecenateFeedFactory",
        "label": "routerFee",
        "offset": 0,
        "slot": "12",
        "type": "t_mapping(t_uint8,t_uint24)"
      },
      {
        "astId": 4781,
        "contract": "contracts/factories/MecenateFeedFactory.sol:MecenateFeedFactory",
        "label": "feedStore",
        "offset": 0,
        "slot": "13",
        "type": "t_mapping(t_address,t_struct(AddressSet)3956_storage)"
      },
      {
        "astId": 4785,
        "contract": "contracts/factories/MecenateFeedFactory.sol:MecenateFeedFactory",
        "label": "createdContracts",
        "offset": 0,
        "slot": "14",
        "type": "t_mapping(t_address,t_bool)"
      },
      {
        "astId": 4788,
        "contract": "contracts/factories/MecenateFeedFactory.sol:MecenateFeedFactory",
        "label": "version",
        "offset": 0,
        "slot": "15",
        "type": "t_string_storage"
      },
      {
        "astId": 4791,
        "contract": "contracts/factories/MecenateFeedFactory.sol:MecenateFeedFactory",
        "label": "burnEnabled",
        "offset": 0,
        "slot": "16",
        "type": "t_bool"
      },
      {
        "astId": 4793,
        "contract": "contracts/factories/MecenateFeedFactory.sol:MecenateFeedFactory",
        "label": "contractCounter",
        "offset": 0,
        "slot": "17",
        "type": "t_uint256"
      },
      {
        "astId": 4799,
        "contract": "contracts/factories/MecenateFeedFactory.sol:MecenateFeedFactory",
        "label": "major",
        "offset": 0,
        "slot": "18",
        "type": "t_uint8"
      },
      {
        "astId": 4801,
        "contract": "contracts/factories/MecenateFeedFactory.sol:MecenateFeedFactory",
        "label": "minor",
        "offset": 1,
        "slot": "18",
        "type": "t_uint8"
      },
      {
        "astId": 4803,
        "contract": "contracts/factories/MecenateFeedFactory.sol:MecenateFeedFactory",
        "label": "patch",
        "offset": 2,
        "slot": "18",
        "type": "t_uint8"
      }
    ],
    "types": {
      "t_address": {
        "encoding": "inplace",
        "label": "address",
        "numberOfBytes": "20"
      },
      "t_array(t_bytes32)dyn_storage": {
        "base": "t_bytes32",
        "encoding": "dynamic_array",
        "label": "bytes32[]",
        "numberOfBytes": "32"
      },
      "t_bool": {
        "encoding": "inplace",
        "label": "bool",
        "numberOfBytes": "1"
      },
      "t_bytes32": {
        "encoding": "inplace",
        "label": "bytes32",
        "numberOfBytes": "32"
      },
      "t_bytes_storage": {
        "encoding": "bytes",
        "label": "bytes",
        "numberOfBytes": "32"
      },
      "t_mapping(t_address,t_bool)": {
        "encoding": "mapping",
        "key": "t_address",
        "label": "mapping(address => bool)",
        "numberOfBytes": "32",
        "value": "t_bool"
      },
      "t_mapping(t_address,t_struct(AddressSet)3956_storage)": {
        "encoding": "mapping",
        "key": "t_address",
        "label": "mapping(address => struct EnumerableSet.AddressSet)",
        "numberOfBytes": "32",
        "value": "t_struct(AddressSet)3956_storage"
      },
      "t_mapping(t_bytes32,t_uint256)": {
        "encoding": "mapping",
        "key": "t_bytes32",
        "label": "mapping(bytes32 => uint256)",
        "numberOfBytes": "32",
        "value": "t_uint256"
      },
      "t_mapping(t_uint8,t_uint24)": {
        "encoding": "mapping",
        "key": "t_uint8",
        "label": "mapping(uint8 => uint24)",
        "numberOfBytes": "32",
        "value": "t_uint24"
      },
      "t_string_storage": {
        "encoding": "bytes",
        "label": "string",
        "numberOfBytes": "32"
      },
      "t_struct(AddressSet)3956_storage": {
        "encoding": "inplace",
        "label": "struct EnumerableSet.AddressSet",
        "members": [
          {
            "astId": 3955,
            "contract": "contracts/factories/MecenateFeedFactory.sol:MecenateFeedFactory",
            "label": "_inner",
            "offset": 0,
            "slot": "0",
            "type": "t_struct(Set)3641_storage"
          }
        ],
        "numberOfBytes": "64"
      },
      "t_struct(FactorySettings)7326_storage": {
        "encoding": "inplace",
        "label": "struct Structures.FactorySettings",
        "members": [
          {
            "astId": 7311,
            "contract": "contracts/factories/MecenateFeedFactory.sol:MecenateFeedFactory",
            "label": "treasuryContract",
            "offset": 0,
            "slot": "0",
            "type": "t_address"
          },
          {
            "astId": 7313,
            "contract": "contracts/factories/MecenateFeedFactory.sol:MecenateFeedFactory",
            "label": "usersModuleContract",
            "offset": 0,
            "slot": "1",
            "type": "t_address"
          },
          {
            "astId": 7315,
            "contract": "contracts/factories/MecenateFeedFactory.sol:MecenateFeedFactory",
            "label": "easContract",
            "offset": 0,
            "slot": "2",
            "type": "t_address"
          },
          {
            "astId": 7317,
            "contract": "contracts/factories/MecenateFeedFactory.sol:MecenateFeedFactory",
            "label": "easSchema",
            "offset": 0,
            "slot": "3",
            "type": "t_bytes32"
          },
          {
            "astId": 7319,
            "contract": "contracts/factories/MecenateFeedFactory.sol:MecenateFeedFactory",
            "label": "museToken",
            "offset": 0,
            "slot": "4",
            "type": "t_address"
          },
          {
            "astId": 7321,
            "contract": "contracts/factories/MecenateFeedFactory.sol:MecenateFeedFactory",
            "label": "daiToken",
            "offset": 0,
            "slot": "5",
            "type": "t_address"
          },
          {
            "astId": 7323,
            "contract": "contracts/factories/MecenateFeedFactory.sol:MecenateFeedFactory",
            "label": "wethToken",
            "offset": 0,
            "slot": "6",
            "type": "t_address"
          },
          {
            "astId": 7325,
            "contract": "contracts/factories/MecenateFeedFactory.sol:MecenateFeedFactory",
            "label": "router",
            "offset": 0,
            "slot": "7",
            "type": "t_address"
          }
        ],
        "numberOfBytes": "256"
      },
      "t_struct(Set)3641_storage": {
        "encoding": "inplace",
        "label": "struct EnumerableSet.Set",
        "members": [
          {
            "astId": 3636,
            "contract": "contracts/factories/MecenateFeedFactory.sol:MecenateFeedFactory",
            "label": "_values",
            "offset": 0,
            "slot": "0",
            "type": "t_array(t_bytes32)dyn_storage"
          },
          {
            "astId": 3640,
            "contract": "contracts/factories/MecenateFeedFactory.sol:MecenateFeedFactory",
            "label": "_indexes",
            "offset": 0,
            "slot": "1",
            "type": "t_mapping(t_bytes32,t_uint256)"
          }
        ],
        "numberOfBytes": "64"
      },
      "t_uint24": {
        "encoding": "inplace",
        "label": "uint24",
        "numberOfBytes": "3"
      },
      "t_uint256": {
        "encoding": "inplace",
        "label": "uint256",
        "numberOfBytes": "32"
      },
      "t_uint8": {
        "encoding": "inplace",
        "label": "uint8",
        "numberOfBytes": "1"
      }
    }
  }
}