{
  "address": "0x5d3Aaa0402A67E9904d510e1636Ca70c0a90B1aD",
  "abi": [
    {
      "inputs": [
        {
          "internalType": "address",
          "name": "_mecenateVault",
          "type": "address"
        }
      ],
      "stateMutability": "nonpayable",
      "type": "constructor"
    },
    {
      "anonymous": false,
      "inputs": [
        {
          "indexed": true,
          "internalType": "address",
          "name": "forwarder",
          "type": "address"
        },
        {
          "indexed": false,
          "internalType": "bytes32",
          "name": "encryptedVaultId",
          "type": "bytes32"
        },
        {
          "indexed": false,
          "internalType": "address",
          "name": "vaultContract",
          "type": "address"
        }
      ],
      "name": "ForwarderCreated",
      "type": "event"
    },
    {
      "anonymous": false,
      "inputs": [
        {
          "indexed": true,
          "internalType": "address",
          "name": "previousOwner",
          "type": "address"
        },
        {
          "indexed": true,
          "internalType": "address",
          "name": "newOwner",
          "type": "address"
        }
      ],
      "name": "OwnershipTransferred",
      "type": "event"
    },
    {
      "inputs": [
        {
          "internalType": "address",
          "name": "_mecenateVault",
          "type": "address"
        }
      ],
      "name": "changeVault",
      "outputs": [],
      "stateMutability": "nonpayable",
      "type": "function"
    },
    {
      "inputs": [
        {
          "internalType": "bytes32",
          "name": "_encryptedVaultId",
          "type": "bytes32"
        },
        {
          "internalType": "address",
          "name": "_vaultContract",
          "type": "address"
        }
      ],
      "name": "createforwarder",
      "outputs": [
        {
          "internalType": "address",
          "name": "",
          "type": "address"
        }
      ],
      "stateMutability": "nonpayable",
      "type": "function"
    },
    {
      "inputs": [
        {
          "internalType": "bytes32",
          "name": "",
          "type": "bytes32"
        }
      ],
      "name": "forwardersMapping",
      "outputs": [
        {
          "internalType": "address",
          "name": "",
          "type": "address"
        }
      ],
      "stateMutability": "view",
      "type": "function"
    },
    {
      "inputs": [],
      "name": "getVault",
      "outputs": [
        {
          "internalType": "address",
          "name": "",
          "type": "address"
        }
      ],
      "stateMutability": "view",
      "type": "function"
    },
    {
      "inputs": [
        {
          "internalType": "bytes32",
          "name": "_user",
          "type": "bytes32"
        }
      ],
      "name": "getforwarders",
      "outputs": [
        {
          "internalType": "address",
          "name": "",
          "type": "address"
        }
      ],
      "stateMutability": "view",
      "type": "function"
    },
    {
      "inputs": [],
      "name": "mecenateVault",
      "outputs": [
        {
          "internalType": "address",
          "name": "",
          "type": "address"
        }
      ],
      "stateMutability": "view",
      "type": "function"
    },
    {
      "inputs": [],
      "name": "owner",
      "outputs": [
        {
          "internalType": "address",
          "name": "",
          "type": "address"
        }
      ],
      "stateMutability": "view",
      "type": "function"
    },
    {
      "inputs": [],
      "name": "renounceOwnership",
      "outputs": [],
      "stateMutability": "nonpayable",
      "type": "function"
    },
    {
      "inputs": [
        {
          "internalType": "address",
          "name": "newOwner",
          "type": "address"
        }
      ],
      "name": "transferOwnership",
      "outputs": [],
      "stateMutability": "nonpayable",
      "type": "function"
    }
  ],
  "transactionHash": "0x48793bdb4a77aa618d8c395f89e82ed241024446c24dcb84fd1f4d55a29cf002",
  "args": [
    "0xf2E39EE7c49fBc40f84495197C7B9EdaB929D4a2"
  ],
  "numDeployments": 1,
  "solcInputHash": "a9ff469b4dc9c1829628556d6121bf42",
  "bytecode": "0x6080346100a757601f610d6138819003918201601f19168301916001600160401b038311848410176100ac578084926020946040528339810103126100a757516001600160a01b0390818116908190036100a75760005460018060a01b0319903382821617600055604051933391167f8be0079c531659141344cd1fd0a4f28419497f9722a3daafe3b4186f6b6457e0600080a36002541617600255610c9e90816100c38239f35b600080fd5b634e487b7160e01b600052604160045260246000fdfe6080604081815260048036101561001557600080fd5b600092833560e01c90816305d45fad1461053e5750806307c0e6021461050157806348a7c45b1461037f578063541886b2146101d857806360e232a91461028e578063715018a61461020d5780638d928af8146101d85780638da5cb5b146101a15763f2fde38b1461008657600080fd5b3461019d57602060031936011261019d5761009f61057a565b906100a86105a2565b73ffffffffffffffffffffffffffffffffffffffff80921692831561011a5750508254827fffffffffffffffffffffffff00000000000000000000000000000000000000008216178455167f8be0079c531659141344cd1fd0a4f28419497f9722a3daafe3b4186f6b6457e08380a380f35b90602060849251917f08c379a0000000000000000000000000000000000000000000000000000000008352820152602660248201527f4f776e61626c653a206e6577206f776e657220697320746865207a65726f206160448201527f64647265737300000000000000000000000000000000000000000000000000006064820152fd5b8280fd5b5050346101d457816003193601126101d45773ffffffffffffffffffffffffffffffffffffffff60209254169051908152f35b5080fd5b5050346101d457816003193601126101d45760209073ffffffffffffffffffffffffffffffffffffffff600254169051908152f35b833461028b578060031936011261028b576102266105a2565b8073ffffffffffffffffffffffffffffffffffffffff81547fffffffffffffffffffffffff000000000000000000000000000000000000000081168355167f8be0079c531659141344cd1fd0a4f28419497f9722a3daafe3b4186f6b6457e08280a380f35b80fd5b503461019d57602060031936011261019d5773ffffffffffffffffffffffffffffffffffffffff6102bd61057a565b6102c56105a2565b16918233036102fc5750507fffffffffffffffffffffffff0000000000000000000000000000000000000000600254161760025580f35b90602060849251917f08c379a0000000000000000000000000000000000000000000000000000000008352820152602760248201527f4f6e6c792074686520666163746f72792063616e206368616e6765207468652060448201527f666163746f7279000000000000000000000000000000000000000000000000006064820152fd5b50913461028b578160031936011261028b57823560243573ffffffffffffffffffffffffffffffffffffffff8082168092036104fd57828452602095600187528186862054166104a1578551906106478083019183831067ffffffffffffffff841117610475575088918391610622833986815203019085f0801561046b57927fd20b14a4eb13758b273b5380a229e4cbc58e9ccc277f94fc221c0578e0a7bcb9928695949286931696858389975260018a5220857fffffffffffffffffffffffff0000000000000000000000000000000000000000825416179055825191825287820152a251908152f35b85513d86823e3d90fd5b8760416024927f4e487b7100000000000000000000000000000000000000000000000000000000835252fd5b606490878751917f08c379a0000000000000000000000000000000000000000000000000000000008352820152601960248201527f666f7277617264657220616c72656164792063726561746564000000000000006044820152fd5b8380fd5b503461019d57602060031936011261019d578160209373ffffffffffffffffffffffffffffffffffffffff92358152600185522054169051908152f35b92919050346104fd5760206003193601126104fd573583526001602090815292205473ffffffffffffffffffffffffffffffffffffffff168152f35b6004359073ffffffffffffffffffffffffffffffffffffffff8216820361059d57565b600080fd5b73ffffffffffffffffffffffffffffffffffffffff6000541633036105c357565b60646040517f08c379a000000000000000000000000000000000000000000000000000000000815260206004820152602060248201527f4f776e61626c653a2063616c6c6572206973206e6f7420746865206f776e65726044820152fdfe60803461006357601f61064738819003918201601f19168301916001600160401b03831184841017610068578084926020946040528339810103126100635751600055600180546001600160a01b031916331790556040516105c8908161007f8239f35b600080fd5b634e487b7160e01b600052604160045260246000fdfe608060409080825260049081361015610223575b50361561001f57600080fd5b73ffffffffffffffffffffffffffffffffffffffff806001541683519182917f8d928af8000000000000000000000000000000000000000000000000000000008352828560209586935afa918215610218576000926101e9575b50600054855192848401917fd68d9d4e000000000000000000000000000000000000000000000000000000008352602485015260248452606084019367ffffffffffffffff94818110868211176101bb57885251600093849391923491165af1903d156101b5573d9081116101875784519061011c847fffffffffffffffffffffffffffffffffffffffffffffffffffffffffffffffe0601f84011601836104f1565b81526000833d92013e5b1561012d57005b60649251917f08c379a0000000000000000000000000000000000000000000000000000000008352820152600e60248201527f4465706f736974206661696c65640000000000000000000000000000000000006044820152fd5b6041847f4e487b71000000000000000000000000000000000000000000000000000000006000525260246000fd5b50610126565b6041887f4e487b71000000000000000000000000000000000000000000000000000000006000525260246000fd5b61020a919250833d8511610211575b61020281836104f1565b810190610561565b9038610079565b503d6101f8565b85513d6000823e3d90fd5b600090813560e01c908163338b5dea14610298575063c45a01550361001357823461029457817ffffffffffffffffffffffffffffffffffffffffffffffffffffffffffffffffc3601126102945760209073ffffffffffffffffffffffffffffffffffffffff600154169051908152f35b5080fd5b905083833461042a57817ffffffffffffffffffffffffffffffffffffffffffffffffffffffffffffffffc36011261042a5780359273ffffffffffffffffffffffffffffffffffffffff908185168095036104ed57806024359280600154167f8d928af8000000000000000000000000000000000000000000000000000000008352828660209485935afa9283156104c45788936104ce575b508551927f095ea7b30000000000000000000000000000000000000000000000000000000084521691828582015283602482015281816044818b8b5af19081156104c457889161048a575b501561042e5750908591825495813b1561042a5783606492875198899586947f84abac9500000000000000000000000000000000000000000000000000000000865289860152602485015260448401525af18015610420576103dc578380f35b67ffffffffffffffff83116103f45750528180808380f35b8360416024927f4e487b7100000000000000000000000000000000000000000000000000000000835252fd5b82513d86823e3d90fd5b8380fd5b836064918651917f08c379a0000000000000000000000000000000000000000000000000000000008352820152600e60248201527f417070726f7665206661696c65640000000000000000000000000000000000006044820152fd5b90508181813d83116104bd575b6104a181836104f1565b810103126104b9575180151581036104b9578861037c565b8780fd5b503d610497565b86513d8a823e3d90fd5b6104e6919350823d84116102115761020281836104f1565b9188610331565b8580fd5b90601f7fffffffffffffffffffffffffffffffffffffffffffffffffffffffffffffffe0910116810190811067ffffffffffffffff82111761053257604052565b7f4e487b7100000000000000000000000000000000000000000000000000000000600052604160045260246000fd5b9081602091031261058d575173ffffffffffffffffffffffffffffffffffffffff8116810361058d5790565b600080fdfea264697066735822122057c79ba1f46730c3c86779b8d7a11fb7e4dcff597a98d531318c25e458bba33364736f6c63430008130033a264697066735822122007a97f37bd1aee467d18f3c5254201224bbc32ab2477ef40f68d3a29861fa0a464736f6c63430008130033",
  "devdoc": {
    "kind": "dev",
    "methods": {
      "owner()": {
        "details": "Returns the address of the current owner."
      },
      "renounceOwnership()": {
        "details": "Leaves the contract without owner. It will not be possible to call `onlyOwner` functions. Can only be called by the current owner. NOTE: Renouncing ownership will leave the contract without an owner, thereby disabling any functionality that is only available to the owner."
      },
      "transferOwnership(address)": {
        "details": "Transfers ownership of the contract to a new account (`newOwner`). Can only be called by the current owner."
      }
    },
    "version": 1
  },
  "userdoc": {
    "kind": "user",
    "methods": {},
    "version": 1
  },
  "storageLayout": {
    "storage": [
      {
        "astId": 291,
        "contract": "contracts/factories/MecenateForwarderFactory.sol:MecenateForwarderFactory",
        "label": "_owner",
        "offset": 0,
        "slot": "0",
        "type": "t_address"
      },
      {
        "astId": 11862,
        "contract": "contracts/factories/MecenateForwarderFactory.sol:MecenateForwarderFactory",
        "label": "forwardersMapping",
        "offset": 0,
        "slot": "1",
        "type": "t_mapping(t_bytes32,t_address)"
      },
      {
        "astId": 11864,
        "contract": "contracts/factories/MecenateForwarderFactory.sol:MecenateForwarderFactory",
        "label": "mecenateVault",
        "offset": 0,
        "slot": "2",
        "type": "t_address"
      }
    ],
    "types": {
      "t_address": {
        "encoding": "inplace",
        "label": "address",
        "numberOfBytes": "20"
      },
      "t_bytes32": {
        "encoding": "inplace",
        "label": "bytes32",
        "numberOfBytes": "32"
      },
      "t_mapping(t_bytes32,t_address)": {
        "encoding": "mapping",
        "key": "t_bytes32",
        "label": "mapping(bytes32 => address)",
        "numberOfBytes": "32",
        "value": "t_address"
      }
    }
  }
}