{
  "address": "0x0027Ae655c49b5B3366dFDA94ea63Bb894411E1d",
  "abi": [
    {
      "inputs": [
        {
          "internalType": "bytes32",
          "name": "_encryptedVaultId",
          "type": "bytes32"
        },
        {
          "internalType": "address",
          "name": "_factory",
          "type": "address"
        }
      ],
      "stateMutability": "nonpayable",
      "type": "constructor"
    },
    {
      "inputs": [
        {
          "internalType": "address",
          "name": "token",
          "type": "address"
        },
        {
          "internalType": "uint256",
          "name": "amount",
          "type": "uint256"
        }
      ],
      "name": "depositToken",
      "outputs": [],
      "stateMutability": "nonpayable",
      "type": "function"
    },
    {
      "inputs": [],
      "name": "encryptedVaultId",
      "outputs": [
        {
          "internalType": "bytes32",
          "name": "",
          "type": "bytes32"
        }
      ],
      "stateMutability": "view",
      "type": "function"
    },
    {
      "inputs": [],
      "name": "factory",
      "outputs": [
        {
          "internalType": "address",
          "name": "",
          "type": "address"
        }
      ],
      "stateMutability": "view",
      "type": "function"
    },
    {
      "stateMutability": "payable",
      "type": "receive"
    }
  ],
  "transactionHash": "0xb3d3ef0e0d255000f19592456f4f0681cbc64061bc07d34e392dbea16f58cb09",
  "args": [
    "0x0000000000000000000000000000000000000000000000000000000000000000",
    "0x9A27306175abB6a0799ff7B7A0E02d1987C16046"
  ],
  "numDeployments": 8,
  "solcInputHash": "799b0715dda30dabba2dd8e81ef54a0a",
  "bytecode": "0x60803461007e57601f6106aa38819003918201601f19168301916001600160401b0383118484101761008357808492604094855283398101031261007e5780516020909101516001600160a01b038116919082900361007e57600055600180546001600160a01b031916919091179055604051610610908161009a8239f35b600080fd5b634e487b7160e01b600052604160045260246000fdfe608060409080825260049081361015610223575b50361561001f57600080fd5b73ffffffffffffffffffffffffffffffffffffffff806001541683519182917f8d928af8000000000000000000000000000000000000000000000000000000008352828560209586935afa918215610218576000926101e9575b50600054855192848401917fd68d9d4e000000000000000000000000000000000000000000000000000000008352602485015260248452606084019367ffffffffffffffff94818110868211176101bb57885251600093849391923491165af1903d156101b5573d9081116101875784519061011c847fffffffffffffffffffffffffffffffffffffffffffffffffffffffffffffffe0601f8401160183610539565b81526000833d92013e5b1561012d57005b60649251917f08c379a0000000000000000000000000000000000000000000000000000000008352820152600e60248201527f4465706f736974206661696c65640000000000000000000000000000000000006044820152fd5b6041847f4e487b71000000000000000000000000000000000000000000000000000000006000525260246000fd5b50610126565b6041887f4e487b71000000000000000000000000000000000000000000000000000000006000525260246000fd5b61020a919250833d8511610211575b6102028183610539565b8101906105a9565b9038610079565b503d6101f8565b85513d6000823e3d90fd5b600090813560e01c9081631a58a6a61461050157508063338b5dea146102a35763c45a01550361001357823461029f57817ffffffffffffffffffffffffffffffffffffffffffffffffffffffffffffffffc36011261029f5760209073ffffffffffffffffffffffffffffffffffffffff600154169051908152f35b5080fd5b5091346104fd57807ffffffffffffffffffffffffffffffffffffffffffffffffffffffffffffffffc3601126104fd5781359173ffffffffffffffffffffffffffffffffffffffff8084168094036104f95760243590806001541684519182917f8d928af8000000000000000000000000000000000000000000000000000000008352828660209485935afa9283156104d05788936104da575b508551927f095ea7b30000000000000000000000000000000000000000000000000000000084521691828582015283602482015281816044818b8b5af19081156104d0578891610496575b501561043a5750908591825495813b156104365783606492875198899586947f84abac9500000000000000000000000000000000000000000000000000000000865289860152602485015260448401525af1801561042c576103e8578380f35b67ffffffffffffffff83116104005750523880808380f35b8360416024927f4e487b7100000000000000000000000000000000000000000000000000000000835252fd5b82513d86823e3d90fd5b8380fd5b836064918651917f08c379a0000000000000000000000000000000000000000000000000000000008352820152600e60248201527f417070726f7665206661696c65640000000000000000000000000000000000006044820152fd5b90508181813d83116104c9575b6104ad8183610539565b810103126104c5575180151581036104c55738610388565b8780fd5b503d6104a3565b86513d8a823e3d90fd5b6104f2919350823d8411610211576102028183610539565b913861033d565b8480fd5b8280fd5b90503461029f57817ffffffffffffffffffffffffffffffffffffffffffffffffffffffffffffffffc36011261029f57602091548152f35b90601f7fffffffffffffffffffffffffffffffffffffffffffffffffffffffffffffffe0910116810190811067ffffffffffffffff82111761057a57604052565b7f4e487b7100000000000000000000000000000000000000000000000000000000600052604160045260246000fd5b908160209103126105d5575173ffffffffffffffffffffffffffffffffffffffff811681036105d55790565b600080fdfea26469706673582212205395f781e6950dce3444b1fcd01bfbcfebb5090977d46cdb614f9b15cb963a7e64736f6c63430008130033",
  "devdoc": {
    "kind": "dev",
    "methods": {},
    "version": 1
  },
  "userdoc": {
    "kind": "user",
    "methods": {},
    "version": 1
  },
  "storageLayout": {
    "storage": [
      {
        "astId": 633,
        "contract": "contracts/MecenateForwarder.sol:MecenateForwarder",
        "label": "encryptedVaultId",
        "offset": 0,
        "slot": "0",
        "type": "t_bytes32"
      },
      {
        "astId": 635,
        "contract": "contracts/MecenateForwarder.sol:MecenateForwarder",
        "label": "factory",
        "offset": 0,
        "slot": "1",
        "type": "t_address"
      }
    ],
    "types": {
      "t_address": {
        "encoding": "inplace",
        "label": "address",
        "numberOfBytes": "20"
      },
      "t_bytes32": {
        "encoding": "inplace",
        "label": "bytes32",
        "numberOfBytes": "32"
      }
    }
  }
}