{
  "address": "0x9A13ff0515E8DF7C446D1c814518f65B44d2d578",
  "abi": [
    {
      "inputs": [
        {
          "internalType": "address",
          "name": "usersMouduleContractAddress",
          "type": "address"
        }
      ],
      "stateMutability": "nonpayable",
      "type": "constructor"
    },
    {
      "anonymous": false,
      "inputs": [
        {
          "indexed": true,
          "internalType": "address",
          "name": "previousOwner",
          "type": "address"
        },
        {
          "indexed": true,
          "internalType": "address",
          "name": "newOwner",
          "type": "address"
        }
      ],
      "name": "OwnershipTransferred",
      "type": "event"
    },
    {
      "anonymous": false,
      "inputs": [
        {
          "indexed": true,
          "internalType": "address",
          "name": "user",
          "type": "address"
        },
        {
          "components": [
            {
              "internalType": "bytes",
              "name": "request",
              "type": "bytes"
            },
            {
              "internalType": "uint256",
              "name": "payment",
              "type": "uint256"
            },
            {
              "internalType": "uint256",
              "name": "stake",
              "type": "uint256"
            },
            {
              "internalType": "address",
              "name": "postAddress",
              "type": "address"
            },
            {
              "internalType": "bool",
              "name": "accepted",
              "type": "bool"
            },
            {
              "internalType": "uint256",
              "name": "postCount",
              "type": "uint256"
            },
            {
              "internalType": "enum Structures.Tokens",
              "name": "tokenId",
              "type": "uint8"
            },
            {
              "internalType": "address",
              "name": "buyerAddress",
              "type": "address"
            },
            {
              "internalType": "bytes32",
              "name": "postId",
              "type": "bytes32"
            }
          ],
          "indexed": false,
          "internalType": "struct Structures.BayRequest",
          "name": "",
          "type": "tuple"
        },
        {
          "indexed": true,
          "internalType": "uint256",
          "name": "index",
          "type": "uint256"
        }
      ],
      "name": "RequestAccepted",
      "type": "event"
    },
    {
      "anonymous": false,
      "inputs": [
        {
          "indexed": true,
          "internalType": "address",
          "name": "user",
          "type": "address"
        },
        {
          "components": [
            {
              "internalType": "bytes",
              "name": "request",
              "type": "bytes"
            },
            {
              "internalType": "uint256",
              "name": "payment",
              "type": "uint256"
            },
            {
              "internalType": "uint256",
              "name": "stake",
              "type": "uint256"
            },
            {
              "internalType": "address",
              "name": "postAddress",
              "type": "address"
            },
            {
              "internalType": "bool",
              "name": "accepted",
              "type": "bool"
            },
            {
              "internalType": "uint256",
              "name": "postCount",
              "type": "uint256"
            },
            {
              "internalType": "enum Structures.Tokens",
              "name": "tokenId",
              "type": "uint8"
            },
            {
              "internalType": "address",
              "name": "buyerAddress",
              "type": "address"
            },
            {
              "internalType": "bytes32",
              "name": "postId",
              "type": "bytes32"
            }
          ],
          "indexed": false,
          "internalType": "struct Structures.BayRequest",
          "name": "",
          "type": "tuple"
        },
        {
          "indexed": true,
          "internalType": "uint256",
          "name": "index",
          "type": "uint256"
        }
      ],
      "name": "RequestCreated",
      "type": "event"
    },
    {
      "inputs": [
        {
          "internalType": "uint256",
          "name": "index",
          "type": "uint256"
        },
        {
          "internalType": "address",
          "name": "feed",
          "type": "address"
        }
      ],
      "name": "acceptRequest",
      "outputs": [],
      "stateMutability": "nonpayable",
      "type": "function"
    },
    {
      "inputs": [
        {
          "internalType": "uint256",
          "name": "",
          "type": "uint256"
        }
      ],
      "name": "allRequests",
      "outputs": [
        {
          "internalType": "bytes",
          "name": "request",
          "type": "bytes"
        },
        {
          "internalType": "uint256",
          "name": "payment",
          "type": "uint256"
        },
        {
          "internalType": "uint256",
          "name": "stake",
          "type": "uint256"
        },
        {
          "internalType": "address",
          "name": "postAddress",
          "type": "address"
        },
        {
          "internalType": "bool",
          "name": "accepted",
          "type": "bool"
        },
        {
          "internalType": "uint256",
          "name": "postCount",
          "type": "uint256"
        },
        {
          "internalType": "enum Structures.Tokens",
          "name": "tokenId",
          "type": "uint8"
        },
        {
          "internalType": "address",
          "name": "buyerAddress",
          "type": "address"
        },
        {
          "internalType": "bytes32",
          "name": "postId",
          "type": "bytes32"
        }
      ],
      "stateMutability": "view",
      "type": "function"
    },
    {
      "inputs": [
        {
          "internalType": "address",
          "name": "_daiToken",
          "type": "address"
        }
      ],
      "name": "changeDaiToken",
      "outputs": [],
      "stateMutability": "nonpayable",
      "type": "function"
    },
    {
      "inputs": [
        {
          "internalType": "address",
          "name": "_museToken",
          "type": "address"
        }
      ],
      "name": "changeMuseToken",
      "outputs": [],
      "stateMutability": "nonpayable",
      "type": "function"
    },
    {
      "inputs": [
        {
          "internalType": "address",
          "name": "_usersModule",
          "type": "address"
        }
      ],
      "name": "changeUsersModule",
      "outputs": [],
      "stateMutability": "nonpayable",
      "type": "function"
    },
    {
      "inputs": [],
      "name": "contractCounter",
      "outputs": [
        {
          "internalType": "uint256",
          "name": "",
          "type": "uint256"
        }
      ],
      "stateMutability": "view",
      "type": "function"
    },
    {
      "inputs": [
        {
          "components": [
            {
              "internalType": "bytes",
              "name": "request",
              "type": "bytes"
            },
            {
              "internalType": "uint256",
              "name": "payment",
              "type": "uint256"
            },
            {
              "internalType": "uint256",
              "name": "stake",
              "type": "uint256"
            },
            {
              "internalType": "address",
              "name": "postAddress",
              "type": "address"
            },
            {
              "internalType": "bool",
              "name": "accepted",
              "type": "bool"
            },
            {
              "internalType": "uint256",
              "name": "postCount",
              "type": "uint256"
            },
            {
              "internalType": "enum Structures.Tokens",
              "name": "tokenId",
              "type": "uint8"
            },
            {
              "internalType": "address",
              "name": "buyerAddress",
              "type": "address"
            },
            {
              "internalType": "bytes32",
              "name": "postId",
              "type": "bytes32"
            }
          ],
          "internalType": "struct Structures.BayRequest",
          "name": "request",
          "type": "tuple"
        }
      ],
      "name": "createRequest",
      "outputs": [
        {
          "components": [
            {
              "internalType": "bytes",
              "name": "request",
              "type": "bytes"
            },
            {
              "internalType": "uint256",
              "name": "payment",
              "type": "uint256"
            },
            {
              "internalType": "uint256",
              "name": "stake",
              "type": "uint256"
            },
            {
              "internalType": "address",
              "name": "postAddress",
              "type": "address"
            },
            {
              "internalType": "bool",
              "name": "accepted",
              "type": "bool"
            },
            {
              "internalType": "uint256",
              "name": "postCount",
              "type": "uint256"
            },
            {
              "internalType": "enum Structures.Tokens",
              "name": "tokenId",
              "type": "uint8"
            },
            {
              "internalType": "address",
              "name": "buyerAddress",
              "type": "address"
            },
            {
              "internalType": "bytes32",
              "name": "postId",
              "type": "bytes32"
            }
          ],
          "internalType": "struct Structures.BayRequest",
          "name": "",
          "type": "tuple"
        }
      ],
      "stateMutability": "payable",
      "type": "function"
    },
    {
      "inputs": [],
      "name": "daiToken",
      "outputs": [
        {
          "internalType": "address",
          "name": "",
          "type": "address"
        }
      ],
      "stateMutability": "view",
      "type": "function"
    },
    {
      "inputs": [
        {
          "internalType": "address",
          "name": "_user",
          "type": "address"
        }
      ],
      "name": "getRequestForAddress",
      "outputs": [
        {
          "components": [
            {
              "internalType": "bytes",
              "name": "request",
              "type": "bytes"
            },
            {
              "internalType": "uint256",
              "name": "payment",
              "type": "uint256"
            },
            {
              "internalType": "uint256",
              "name": "stake",
              "type": "uint256"
            },
            {
              "internalType": "address",
              "name": "postAddress",
              "type": "address"
            },
            {
              "internalType": "bool",
              "name": "accepted",
              "type": "bool"
            },
            {
              "internalType": "uint256",
              "name": "postCount",
              "type": "uint256"
            },
            {
              "internalType": "enum Structures.Tokens",
              "name": "tokenId",
              "type": "uint8"
            },
            {
              "internalType": "address",
              "name": "buyerAddress",
              "type": "address"
            },
            {
              "internalType": "bytes32",
              "name": "postId",
              "type": "bytes32"
            }
          ],
          "internalType": "struct Structures.BayRequest[]",
          "name": "",
          "type": "tuple[]"
        }
      ],
      "stateMutability": "view",
      "type": "function"
    },
    {
      "inputs": [],
      "name": "getRequests",
      "outputs": [
        {
          "components": [
            {
              "internalType": "bytes",
              "name": "request",
              "type": "bytes"
            },
            {
              "internalType": "uint256",
              "name": "payment",
              "type": "uint256"
            },
            {
              "internalType": "uint256",
              "name": "stake",
              "type": "uint256"
            },
            {
              "internalType": "address",
              "name": "postAddress",
              "type": "address"
            },
            {
              "internalType": "bool",
              "name": "accepted",
              "type": "bool"
            },
            {
              "internalType": "uint256",
              "name": "postCount",
              "type": "uint256"
            },
            {
              "internalType": "enum Structures.Tokens",
              "name": "tokenId",
              "type": "uint8"
            },
            {
              "internalType": "address",
              "name": "buyerAddress",
              "type": "address"
            },
            {
              "internalType": "bytes32",
              "name": "postId",
              "type": "bytes32"
            }
          ],
          "internalType": "struct Structures.BayRequest[]",
          "name": "",
          "type": "tuple[]"
        }
      ],
      "stateMutability": "view",
      "type": "function"
    },
    {
      "inputs": [],
      "name": "museToken",
      "outputs": [
        {
          "internalType": "address",
          "name": "",
          "type": "address"
        }
      ],
      "stateMutability": "view",
      "type": "function"
    },
    {
      "inputs": [],
      "name": "owner",
      "outputs": [
        {
          "internalType": "address",
          "name": "",
          "type": "address"
        }
      ],
      "stateMutability": "view",
      "type": "function"
    },
    {
      "inputs": [
        {
          "internalType": "uint256",
          "name": "index",
          "type": "uint256"
        }
      ],
      "name": "removeRequest",
      "outputs": [],
      "stateMutability": "nonpayable",
      "type": "function"
    },
    {
      "inputs": [],
      "name": "renounceOwnership",
      "outputs": [],
      "stateMutability": "nonpayable",
      "type": "function"
    },
    {
      "inputs": [
        {
          "internalType": "address",
          "name": "",
          "type": "address"
        },
        {
          "internalType": "uint256",
          "name": "",
          "type": "uint256"
        }
      ],
      "name": "requests",
      "outputs": [
        {
          "internalType": "bytes",
          "name": "request",
          "type": "bytes"
        },
        {
          "internalType": "uint256",
          "name": "payment",
          "type": "uint256"
        },
        {
          "internalType": "uint256",
          "name": "stake",
          "type": "uint256"
        },
        {
          "internalType": "address",
          "name": "postAddress",
          "type": "address"
        },
        {
          "internalType": "bool",
          "name": "accepted",
          "type": "bool"
        },
        {
          "internalType": "uint256",
          "name": "postCount",
          "type": "uint256"
        },
        {
          "internalType": "enum Structures.Tokens",
          "name": "tokenId",
          "type": "uint8"
        },
        {
          "internalType": "address",
          "name": "buyerAddress",
          "type": "address"
        },
        {
          "internalType": "bytes32",
          "name": "postId",
          "type": "bytes32"
        }
      ],
      "stateMutability": "view",
      "type": "function"
    },
    {
      "inputs": [
        {
          "internalType": "address",
          "name": "newOwner",
          "type": "address"
        }
      ],
      "name": "transferOwnership",
      "outputs": [],
      "stateMutability": "nonpayable",
      "type": "function"
    },
    {
      "inputs": [],
      "name": "usersMouduleContract",
      "outputs": [
        {
          "internalType": "address",
          "name": "",
          "type": "address"
        }
      ],
      "stateMutability": "view",
      "type": "function"
    },
    {
      "stateMutability": "payable",
      "type": "receive"
    }
  ],
  "transactionHash": "0xb0d858c5ca997b26ab46110e5b6b2bb5a49a0476f87e1d643cae6a31fda10673",
  "args": [
    "0x92792054d2Fb584397A27aA71CE4A6b246b713Cc"
  ],
  "numDeployments": 5,
  "solcInputHash": "0a98a6c484dcce6a1f360d0b4510216c",
  "bytecode": "0x6080346100a757601f61270e38819003918201601f19168301916001600160401b038311848410176100ac578084926020946040528339810103126100a757516001600160a01b0390818116908190036100a75760005460018060a01b0319903382821617600055604051933391167f8be0079c531659141344cd1fd0a4f28419497f9722a3daafe3b4186f6b6457e0600080a3600254161760025561264b90816100c38239f35b600080fd5b634e487b7160e01b600052604160045260246000fdfe608080604052600436101561001d575b50361561001b57600080fd5b005b600090813560e01c908163067bd3b414611c16575080630f3cd88814611bd657806344786fc3146117e557806370384aa6146110ea578063715018a6146110905780638813ce1214610fe75780638da5cb5b14610fc05780639bf4ec2f14610f315780639c673fe514610ef15780639ecebe2a14610e4a578063ac9f472a14610d9d578063b041377014610d74578063be22f54614610d4b578063c4bb77d014610d0b578063daba858a146101d2578063f2fde38b1461010c5763f77800e50361000f57346101095780600319360112610109576003546040516001600160a01b039091168152602090f35b80fd5b503461010957602036600319011261010957610126611c32565b61012e611fc2565b6001600160a01b0390811690811561017e57600054826001600160601b0360a01b821617600055167f8be0079c531659141344cd1fd0a4f28419497f9722a3daafe3b4186f6b6457e0600080a380f35b60405162461bcd60e51b815260206004820152602660248201527f4f776e61626c653a206e6577206f776e657220697320746865207a65726f206160448201526564647265737360d01b6064820152608490fd5b5034610109576040366003190112610109576024356001600160a01b0381169003610109576101ff6125a9565b506102086125a9565b6024356001600160a01b0316808252604051638da5cb5b60e01b815290602090829060049082905afa908115610815578391610cc9575b506001600160a01b03908116602083810191909152604051635c63ed6960e01b81529182906004908290602435165afa908115610815578391610c97575b5060408281019190915251634c38d87760e01b81526020816004816024356001600160a01b03165afa908115610815578391610c65575b50606082015260405163048bf3bb60e11b81526020816004816024356001600160a01b03165afa908115610815578391610c33575b506080820152604051630bc8361760e11b81526020816004816024356001600160a01b03165afa908115610815578391610c01575b5060a082015260405163d24e0c8760e01b81526020816004816024356001600160a01b03165afa908115610815578391610bcf575b5060c082015260405163faeb5e1760e01b81526020816004816024356001600160a01b03165afa908115610815578391610b9d575b5060e08201526040516302734eab60e51b81526020816004816024356001600160a01b03165afa908115610815578391610b62575b5060088110156108995761010082015260405163010a38f560e01b81526020816004816024356001600160a01b03165afa8015610815578390610b25575b61040a91506101208301612351565b60405163054fd4d560e41b815282816004816024356001600160a01b03165afa908115610815578391610aa9575b506101408201526040516332946a8760e01b81526020816004816024356001600160a01b03165afa908115610815578391610a73575b506101608201526001610482600435611e26565b50015460c082015111610a1e5760e081015160026104a1600435611e26565b500154116109cb5760025460405163122643f360e21b815233600482015290602090829060249082906001600160a01b03165afa9081156108155783916109ac575b50156109675760ff60056104f8600435611e26565b50015416600381101561089957156108ad5760ff6005610519600435611e26565b500154166003811015610899576002036108205781602061058260018060a01b0360045416600161054b600435611e26565b50015460405163095ea7b360e01b8152602480356001600160a01b0316600483015281019190915293849283919082906044820190565b03925af18015610815576107e6575b505b8160ff60056105a3600435611e26565b5001541660016105b4600435611e26565b5001546105c2600435611e26565b506005015460081c6001600160a01b039081169290602435163b156107e25783916106036040519485938493639917e57960e01b855230916004860161231a565b0381836024356001600160a01b03165af180156107bf576107ca575b505060a0905b6003610632600435611e26565b50016001831b60ff841b198254161790556003610650600435611e26565b5001600180841b03602435166001600160601b03841b8254161790550151600461067a8135611e26565b5001556040516332946a8760e01b81526020816004816024356001600160a01b03165afa9081156107bf578291610788575b5060066106ba600435611e26565b5001556106c8600435611e26565b506040519060208252610120602083015260066106e9610140840183611ecd565b91600181015460408501526002810154606085015260ff600382015460018060a01b038116608087015260a01c16151560a0850152600481015460c0850152600581015461073d60e0860160ff8316611d25565b60081c6001600160a01b031661010085015201546101208301526004359133917f1fa7af6bcc5717c87e9ca2d3b7b2f0c41c9f077b5588d3742e58daa34ae1ec00919081900390a380f35b90506020813d6020116107b7575b816107a360209383611ca1565b810103126107b25751386106ac565b600080fd5b3d9150610796565b6040513d84823e3d90fd5b6107d390611c8e565b6107de57813861061f565b5080fd5b8380fd5b6108079060203d60201161080e575b6107ff8183611ca1565b810190612066565b5038610591565b503d6107f5565b6040513d85823e3d90fd5b60ff600561082f600435611e26565b50015416600381101561089957600103610593576003548290602090610865906001600160a01b0316600161054b600435611e26565b03925af180156108155761087a575b50610593565b6108929060203d60201161080e576107ff8183611ca1565b5038610874565b634e487b7160e01b83526021600452602483fd5b60016108ba600435611e26565b5001548260ff60056108cd600435611e26565b5001541660016108de600435611e26565b500154926108ed600435611e26565b506005015460081c6001600160a01b039081169290602435163b156107e25761092f9460405195869485938493639917e57960e01b855230916004860161231a565b03916024356001600160a01b03165af1801561081557610953575b5060a090610625565b9161096060a09293611c8e565b919061094a565b60405162461bcd60e51b815260206004820152601760248201527f4241593a7573657220646f6573206e6f742065786973740000000000000000006044820152606490fd5b6109c5915060203d60201161080e576107ff8183611ca1565b386104e3565b60405162461bcd60e51b815260206004820152602560248201527f4241593a7374616b65206973206e6f74207468652073616d65206f6620746865604482015264081999595960da1b6064820152608490fd5b60405162461bcd60e51b815260206004820152602760248201527f4241593a7061796d656e74206973206e6f74207468652073616d65206f6620746044820152661a19481999595960ca1b6064820152608490fd5b90506020813d602011610aa1575b81610a8e60209383611ca1565b81010312610a9d57513861046e565b8280fd5b3d9150610a81565b90503d8084833e610aba8183611ca1565b8101906020818303126107e2578051906001600160401b038211610b21570181601f820112156107e2578051610aef81611cc2565b92610afd6040519485611ca1565b81845260208284010111610b2157610b1b9160208085019101611cdd565b38610438565b8480fd5b506020813d602011610b5a575b81610b3f60209383611ca1565b81010312610a9d57516003811015610a9d5761040a906103fb565b3d9150610b32565b90506020813d602011610b95575b81610b7d60209383611ca1565b81010312610a9d57516008811015610a9d57386103bd565b3d9150610b70565b90506020813d602011610bc7575b81610bb860209383611ca1565b81010312610a9d575138610388565b3d9150610bab565b90506020813d602011610bf9575b81610bea60209383611ca1565b81010312610a9d575138610353565b3d9150610bdd565b90506020813d602011610c2b575b81610c1c60209383611ca1565b81010312610a9d57513861031e565b3d9150610c0f565b90506020813d602011610c5d575b81610c4e60209383611ca1565b81010312610a9d5751386102e9565b3d9150610c41565b90506020813d602011610c8f575b81610c8060209383611ca1565b81010312610a9d5751386102b4565b3d9150610c73565b90506020813d602011610cc1575b81610cb260209383611ca1565b81010312610a9d57513861027d565b3d9150610ca5565b90506020813d602011610d03575b81610ce460209383611ca1565b81010312610a9d57516001600160a01b0381168103610a9d573861023f565b3d9150610cd7565b503461010957602036600319011261010957610d25611c32565b610d2d611fc2565b60018060a01b03166001600160601b0360a01b600254161760025580f35b50346101095780600319360112610109576004546040516001600160a01b039091168152602090f35b50346101095780600319360112610109576002546040516001600160a01b039091168152602090f35b5034610109576020806003193601126107de576001600160a01b03610dc0611c32565b1682526005815260408220918254906001600160401b038211610e36579260405192610df1818460051b0185611ca1565b82845280840191855280852094915b838310610e195760405180610e158782611dc4565b0390f35b600782600192610e288961235d565b815201960192019194610e00565b634e487b7160e01b81526041600452602490fd5b503461010957604036600319011261010957610e64611c32565b6001600160a01b039081168252600560205260408220805460243591908210156107e25790610e9291611e77565b50610e15604051610eae81610ea78186611ecd565b0382611ca1565b6001830154926002810154946003820154600483015490600660058501549401549460405198899860ff868860081c1697169560ff8560a01c169416928a611f63565b503461010957602036600319011261010957610f0b611c32565b610f13611fc2565b60018060a01b03166001600160601b0360a01b600454161760045580f35b5034610109576020366003190112610109576004356001548110156107de57610f5990611e26565b5060405190610f7382610f6c8184611ecd565b0383611ca1565b610e1560018201546002830154926003810154916004820154600660058401549301549360405197889760018060a01b039460ff868860081c1697169560ff8560a01c169416928a611f63565b5034610109578060031936011261010957546040516001600160a01b039091168152602090f35b503461010957806003193601126101095760019081546001600160401b03811161107c57604051916020611020818460051b0185611ca1565b8284528482527fb10e2d527612073b26eecdfd717e6a320cf44b4afac2b0732d9fcbe2b7fa0cf68185015b8484106110605760405180610e158882611dc4565b600783889261106e8561235d565b81520192019301929061104b565b634e487b7160e01b82526041600452602482fd5b50346101095780600319360112610109576110a9611fc2565b80546001600160a01b03198116825581906001600160a01b03167f8be0079c531659141344cd1fd0a4f28419497f9722a3daafe3b4186f6b6457e08280a380f35b506003196020368201126107de57600435906001600160401b038211610a9d576101209082360301126107de576040519061112482611c5c565b80600401356001600160401b0381116107e2578101366023820112156107e2578360048201359161115483611cc2565b926111626040519485611ca1565b8084523660248284010111610a9d57806024602093018386013783010152825260248101356020830152604481013560408301526111a260648201611c48565b6060830152608481013580151581036107e257608083015260a481013560a083015260c48101359060038210156107e2576101049160c08401526111e860e48201611c48565b60e084015201356101008201526040519061120282611c5c565b606082528260208301528260408301528260608301528260808301528260a08301528260c08301528260e08301528261010083015260c081015160038110156117d1576117665761125434151561201a565b6112633460208301511461201a565b6112726020820151151561201a565b60025460405163122643f360e21b815233600482015290602090829060249082906001600160a01b03165afa90811561175b57849161173c575b5015611701576040810151156116bc576112cb6020820151151561201a565b338352600560205260408320805490600160401b8210156116a857906112f691600182018155611e77565b61160c5781518051906001600160401b0382116115f85781906113238261131d8654611e93565b86612095565b602090601f831160011461163f578792611634575b50508160011b916000199060031b1c19161781555b60208201516001820155604082015160028201556060820151600382018054608085015160ff60a01b90151560a01b166001600160a01b039093166001600160a81b03199091161791909117905560a082015160048201556005810160c0830151600381101561157057906113c56113ec92826120dc565b60e08401518154610100600160a81b03191660089190911b610100600160a81b0316179055565b6006610100830151910155600154600160401b811015611620578060016114169201600155611e26565b61160c5781518051906001600160401b0382116115f857819061143d8261131d8654611e93565b602090601f831160011461158f578792611584575b50508160011b916000199060031b1c19161781555b60208201516001820155604082015160028201556060820151600382018054608085015160ff60a01b90151560a01b166001600160a01b039093166001600160a81b03199091161791909117905560a082015160048201556005810160c0830151600381101561157057906113c56114df92826120dc565b60066101008301519101556114f56007546120f4565b60075560015460001981019190821161155c57610e1593507f442045a177b57115d94fde38ac39970cf188b709689c6babd87e6c0afeb891f1604051602081528061154533946020830190611d48565b0390a3604051918291602083526020830190611d48565b634e487b7160e01b84526011600452602484fd5b634e487b7160e01b86526021600452602486fd5b015190503880611452565b9250838752602087209087935b601f19841685106115dd576001945083601f198116106115c4575b505050811b018155611467565b015160001960f88460031b161c191690553880806115b7565b8181015183556020948501946001909301929091019061159c565b634e487b7160e01b86526041600452602486fd5b634e487b7160e01b84526004849052602484fd5b634e487b7160e01b84526041600452602484fd5b015190503880611338565b9250838752602087209087935b601f198416851061168d576001945083601f19811610611674575b505050811b01815561134d565b015160001960f88460031b161c19169055388080611667565b8181015183556020948501946001909301929091019061164c565b634e487b7160e01b85526041600452602485fd5b60405162461bcd60e51b815260206004820152601760248201527f4241593a7374616b65206973206e6f7420656e6f7567680000000000000000006044820152606490fd5b60405162461bcd60e51b81526020600482015260136024820152721d5cd95c88191bd95cc81b9bdd08195e1a5cdd606a1b6044820152606490fd5b611755915060203d60201161080e576107ff8183611ca1565b386112ac565b6040513d86823e3d90fd5b60c081015160038110156117d15760020361179e57600454602082015161179991309033906001600160a01b0316612119565b611263565b60c081015160038110156117d15760010361126357600354602082015161179991309033906001600160a01b0316612119565b634e487b7160e01b84526021600452602484fd5b50346101095760203660031901126101095760043561180381611e26565b506005015460081c6001600160a01b03163303611ba15760ff600361182783611e26565b50015460a01c16611b5c5761184461183e82611e26565b5061235d565b90828080806020860151335af161185961224d565b5015611b1f5760015460001981019190821161155c57818110611b02575b505060015480156119df5761188f6000198201611e26565b61160c57600681856118a2819454611e93565b80611ac7575b506001820155826002820155826003820155826004820155826005820155015560001901600155815b3383526005602052604083208054821015611ac1576118f282600192611e77565b50015460208301511480611a9b575b80611a68575b80611a42575b61191f5761191a906120f4565b6118d1565b33835260056020526040832054600019810192508211611a2e578181106119f3575b5050338152600560205260408120805480156119df5760001901906119668282611e77565b61160c5760068185611979819454611e93565b806119a3575b50600182015582600282015582600382015582600482015582600582015501555580f35b601f8082116001146119bb57505081555b823861197f565b6119d69084845260208420920160051c82016001830161207e565b818355556119b4565b634e487b7160e01b83526031600452602483fd5b611a21611a0e611a2793338652600560205260408620611e77565b5091338552600560205260408520611e77565b906124c1565b3880611941565b634e487b7160e01b83526011600452602483fd5b5033835260056020526004611a5a8260408620611e77565b50015460a08301511461190d565b503383526005602052611a7e8160408520611e77565b506003015460608301516001600160a01b03908116911614611907565b5033835260056020526002611ab38260408620611e77565b500154604083015114611901565b50505080f35b601f8111600114611add575081555b82386118a8565b828252611af9601f60208420920160051c82016001830161207e565b81835555611ad6565b611a21611b11611b1893611e26565b5091611e26565b3880611877565b60405162461bcd60e51b81526020600482015260156024820152741090564e95985d5b1d0818d85b1b0819985a5b1959605a1b6044820152606490fd5b60405162461bcd60e51b815260206004820152601f60248201527f4241593a7265717565737420697320616c7265616479206163636570746564006044820152606490fd5b60405162461bcd60e51b815260206004820152600d60248201526c2727aa102a242290212aaca2a960991b6044820152606490fd5b503461010957602036600319011261010957611bf0611c32565b611bf8611fc2565b60018060a01b03166001600160601b0360a01b600354161760035580f35b9050346107de57816003193601126107de576020906007548152f35b600435906001600160a01b03821682036107b257565b35906001600160a01b03821682036107b257565b61012081019081106001600160401b03821117611c7857604052565b634e487b7160e01b600052604160045260246000fd5b6001600160401b038111611c7857604052565b90601f801991011681019081106001600160401b03821117611c7857604052565b6001600160401b038111611c7857601f01601f191660200190565b60005b838110611cf05750506000910152565b8181015183820152602001611ce0565b90602091611d1981518092818552858086019101611cdd565b601f01601f1916010190565b906003821015611d325752565b634e487b7160e01b600052602160045260246000fd5b90611d5c8251610120808452830190611d00565b91602081015160208301526040810151604083015260018060a01b0380606083015116606084015260808201511515608084015260a082015160a0840152611dac60c083015160c0850190611d25565b60e08201511660e08301526101008091015191015290565b602080820190808352835180925260408301928160408460051b8301019501936000915b848310611df85750505050505090565b9091929394958480611e16600193603f198682030187528a51611d48565b9801930193019194939290611de8565b600154811015611e61576007906001600052027fb10e2d527612073b26eecdfd717e6a320cf44b4afac2b0732d9fcbe2b7fa0cf60190600090565b634e487b7160e01b600052603260045260246000fd5b8054821015611e61576000526007602060002091020190600090565b90600182811c92168015611ec3575b6020831014611ead57565b634e487b7160e01b600052602260045260246000fd5b91607f1691611ea2565b9060009291805491611ede83611e93565b918282526001938481169081600014611f405750600114611f00575b50505050565b90919394506000526020928360002092846000945b838610611f2c575050505001019038808080611efa565b805485870183015294019385908201611f15565b9294505050602093945060ff191683830152151560051b01019038808080611efa565b959094611fb893611f8561010099949c9b9a9697610120808b528a0190611d00565b602089019c909c5260408801526001600160a01b0395861660608801521515608087015260a086015260c0850190611d25565b1660e08201520152565b6000546001600160a01b03163303611fd657565b606460405162461bcd60e51b815260206004820152602060248201527f4f776e61626c653a2063616c6c6572206973206e6f7420746865206f776e65726044820152fd5b1561202157565b60405162461bcd60e51b815260206004820152601960248201527f4241593a7061796d656e74206973206e6f7420656e6f756768000000000000006044820152606490fd5b908160209103126107b2575180151581036107b25790565b818110612089575050565b6000815560010161207e565b9190601f81116120a457505050565b6120d0926000526020600020906020601f840160051c830193106120d2575b601f0160051c019061207e565b565b90915081906120c3565b906003811015611d325760ff80198354169116179055565b60001981146121035760010190565b634e487b7160e01b600052601160045260246000fd5b6040516323b872dd60e01b602082019081526001600160a01b0393841660248301529383166044820152606480820195909552938452919260a08101926001600160401b03929083851183861017611c7857169160e0820190811184821017611c7857604052602083527f5361666545524332303a206c6f772d6c6576656c2063616c6c206661696c656460c0820152516121c593600091829182855af16121bf61224d565b9161227d565b8051908115918215612233575b5050156121db57565b60405162461bcd60e51b815260206004820152602a60248201527f5361666545524332303a204552433230206f7065726174696f6e20646964206e6044820152691bdd081cdd58d8d9595960b21b6064820152608490fd5b6122469250602080918301019101612066565b38806121d2565b3d15612278573d9061225e82611cc2565b9161226c6040519384611ca1565b82523d6000602084013e565b606090565b919290156122df5750815115612291575090565b3b1561229a5790565b60405162461bcd60e51b815260206004820152601d60248201527f416464726573733a2063616c6c20746f206e6f6e2d636f6e74726163740000006044820152606490fd5b8251909150156122f25750805190602001fd5b60405162461bcd60e51b815260206004820152908190612316906024830190611d00565b0390fd5b909493926000936080936123328460a0810199611d25565b60208401526001600160a01b0391821660408401521660608201520152565b6003821015611d325752565b9060405161236a81611c5c565b6101006006829460405161238281610ea78185611ecd565b84526001810154602085015260028101546040850152600381015460ff60018060a01b0391828116606088015260a01c1615156080860152600482015460a086015260058201546123d960ff821660c08801612351565b60081c1660e08501520154910152565b908082146124bd576123fb8154611e93565b906001600160401b038211611c7857819061241a8261131d8654611e93565b600090601f831160011461245157600092612446575b50508160011b916000199060031b1c1916179055565b015490503880612430565b81526020808220858352818320935090601f1985169083905b8282106124a457505090846001959493921061248b575b505050811b019055565b015460001960f88460031b161c19169055388080612481565b849581929585015481556001809101960194019061246a565b5050565b9190612593578082036124d2575050565b6006816124e08293856123e9565b600181015460018501556002810154600285015561258c60038501612543600384019160ff60018060a01b0393848154166001600160601b0360a01b8454161783555460a01c1681549060ff60a01b90151560a01b169060ff60a01b1916179055565b6004830154600487015560058601906005840161256460ff825416846120dc565b548254610100600160a81b031916600891821c92909216901b610100600160a81b0316179055565b0154910155565b634e487b7160e01b600052600060045260246000fd5b6040519061018082018281106001600160401b03821117611c7857604052816101606000918281528260208201528260408201528260608201528260808201528260a08201528260c08201528260e082015282610100820152826101208201526060610140820152015256fea26469706673582212205564762cd2c945ab8ff262e866b016a1a2007c03c370d6169a7897a6452edb6264736f6c63430008130033",
  "devdoc": {
    "kind": "dev",
    "methods": {
      "owner()": {
        "details": "Returns the address of the current owner."
      },
      "renounceOwnership()": {
        "details": "Leaves the contract without owner. It will not be possible to call `onlyOwner` functions. Can only be called by the current owner. NOTE: Renouncing ownership will leave the contract without an owner, thereby disabling any functionality that is only available to the owner."
      },
      "transferOwnership(address)": {
        "details": "Transfers ownership of the contract to a new account (`newOwner`). Can only be called by the current owner."
      }
    },
    "version": 1
  },
  "userdoc": {
    "kind": "user",
    "methods": {},
    "version": 1
  },
  "storageLayout": {
    "storage": [
      {
        "astId": 2963,
        "contract": "contracts/layer/MecenateBay.sol:MecenateBay",
        "label": "_owner",
        "offset": 0,
        "slot": "0",
        "type": "t_address"
      },
      {
        "astId": 9080,
        "contract": "contracts/layer/MecenateBay.sol:MecenateBay",
        "label": "allRequests",
        "offset": 0,
        "slot": "1",
        "type": "t_array(t_struct(BayRequest)9886_storage)dyn_storage"
      },
      {
        "astId": 9082,
        "contract": "contracts/layer/MecenateBay.sol:MecenateBay",
        "label": "usersMouduleContract",
        "offset": 0,
        "slot": "2",
        "type": "t_address"
      },
      {
        "astId": 9084,
        "contract": "contracts/layer/MecenateBay.sol:MecenateBay",
        "label": "museToken",
        "offset": 0,
        "slot": "3",
        "type": "t_address"
      },
      {
        "astId": 9086,
        "contract": "contracts/layer/MecenateBay.sol:MecenateBay",
        "label": "daiToken",
        "offset": 0,
        "slot": "4",
        "type": "t_address"
      },
      {
        "astId": 9092,
        "contract": "contracts/layer/MecenateBay.sol:MecenateBay",
        "label": "requests",
        "offset": 0,
        "slot": "5",
        "type": "t_mapping(t_address,t_array(t_struct(BayRequest)9886_storage)dyn_storage)"
      },
      {
        "astId": 9096,
        "contract": "contracts/layer/MecenateBay.sol:MecenateBay",
        "label": "sismoResponseMapping",
        "offset": 0,
        "slot": "6",
        "type": "t_mapping(t_uint256,t_bytes_storage)"
      },
      {
        "astId": 9098,
        "contract": "contracts/layer/MecenateBay.sol:MecenateBay",
        "label": "contractCounter",
        "offset": 0,
        "slot": "7",
        "type": "t_uint256"
      }
    ],
    "types": {
      "t_address": {
        "encoding": "inplace",
        "label": "address",
        "numberOfBytes": "20"
      },
      "t_array(t_struct(BayRequest)9886_storage)dyn_storage": {
        "base": "t_struct(BayRequest)9886_storage",
        "encoding": "dynamic_array",
        "label": "struct Structures.BayRequest[]",
        "numberOfBytes": "32"
      },
      "t_bool": {
        "encoding": "inplace",
        "label": "bool",
        "numberOfBytes": "1"
      },
      "t_bytes32": {
        "encoding": "inplace",
        "label": "bytes32",
        "numberOfBytes": "32"
      },
      "t_bytes_storage": {
        "encoding": "bytes",
        "label": "bytes",
        "numberOfBytes": "32"
      },
      "t_enum(Tokens)9727": {
        "encoding": "inplace",
        "label": "enum Structures.Tokens",
        "numberOfBytes": "1"
      },
      "t_mapping(t_address,t_array(t_struct(BayRequest)9886_storage)dyn_storage)": {
        "encoding": "mapping",
        "key": "t_address",
        "label": "mapping(address => struct Structures.BayRequest[])",
        "numberOfBytes": "32",
        "value": "t_array(t_struct(BayRequest)9886_storage)dyn_storage"
      },
      "t_mapping(t_uint256,t_bytes_storage)": {
        "encoding": "mapping",
        "key": "t_uint256",
        "label": "mapping(uint256 => bytes)",
        "numberOfBytes": "32",
        "value": "t_bytes_storage"
      },
      "t_struct(BayRequest)9886_storage": {
        "encoding": "inplace",
        "label": "struct Structures.BayRequest",
        "members": [
          {
            "astId": 9868,
            "contract": "contracts/layer/MecenateBay.sol:MecenateBay",
            "label": "request",
            "offset": 0,
            "slot": "0",
            "type": "t_bytes_storage"
          },
          {
            "astId": 9870,
            "contract": "contracts/layer/MecenateBay.sol:MecenateBay",
            "label": "payment",
            "offset": 0,
            "slot": "1",
            "type": "t_uint256"
          },
          {
            "astId": 9872,
            "contract": "contracts/layer/MecenateBay.sol:MecenateBay",
            "label": "stake",
            "offset": 0,
            "slot": "2",
            "type": "t_uint256"
          },
          {
            "astId": 9874,
            "contract": "contracts/layer/MecenateBay.sol:MecenateBay",
            "label": "postAddress",
            "offset": 0,
            "slot": "3",
            "type": "t_address"
          },
          {
            "astId": 9876,
            "contract": "contracts/layer/MecenateBay.sol:MecenateBay",
            "label": "accepted",
            "offset": 20,
            "slot": "3",
            "type": "t_bool"
          },
          {
            "astId": 9878,
            "contract": "contracts/layer/MecenateBay.sol:MecenateBay",
            "label": "postCount",
            "offset": 0,
            "slot": "4",
            "type": "t_uint256"
          },
          {
            "astId": 9881,
            "contract": "contracts/layer/MecenateBay.sol:MecenateBay",
            "label": "tokenId",
            "offset": 0,
            "slot": "5",
            "type": "t_enum(Tokens)9727"
          },
          {
            "astId": 9883,
            "contract": "contracts/layer/MecenateBay.sol:MecenateBay",
            "label": "buyerAddress",
            "offset": 1,
            "slot": "5",
            "type": "t_address"
          },
          {
            "astId": 9885,
            "contract": "contracts/layer/MecenateBay.sol:MecenateBay",
            "label": "postId",
            "offset": 0,
            "slot": "6",
            "type": "t_bytes32"
          }
        ],
        "numberOfBytes": "224"
      },
      "t_uint256": {
        "encoding": "inplace",
        "label": "uint256",
        "numberOfBytes": "32"
      }
    }
  }
}