{
  "address": "0xBba4C7caC23179ee89E6d41DB8ACEd8d40245dbD",
  "abi": [
    {
      "inputs": [
        {
          "internalType": "bytes32",
          "name": "_owner",
          "type": "bytes32"
        },
        {
          "internalType": "address",
          "name": "_usersModuleContract",
          "type": "address"
        },
        {
          "internalType": "address",
          "name": "_verifierContract",
          "type": "address"
        },
        {
          "internalType": "address",
          "name": "_vaultContract",
          "type": "address"
        },
        {
          "internalType": "address",
          "name": "_factoryContract",
          "type": "address"
        },
        {
          "internalType": "string",
          "name": "_version",
          "type": "string"
        }
      ],
      "stateMutability": "nonpayable",
      "type": "constructor"
    },
    {
      "anonymous": false,
      "inputs": [
        {
          "components": [
            {
              "components": [
                {
                  "internalType": "bytes32",
                  "name": "vaultId",
                  "type": "bytes32"
                }
              ],
              "internalType": "struct Structures.User",
              "name": "creator",
              "type": "tuple"
            },
            {
              "components": [
                {
                  "components": [
                    {
                      "internalType": "enum Structures.PostStatus",
                      "name": "status",
                      "type": "uint8"
                    },
                    {
                      "internalType": "enum Structures.PostType",
                      "name": "postType",
                      "type": "uint8"
                    },
                    {
                      "internalType": "uint256",
                      "name": "creationTimeStamp",
                      "type": "uint256"
                    },
                    {
                      "internalType": "uint256",
                      "name": "endTimeStamp",
                      "type": "uint256"
                    },
                    {
                      "internalType": "uint256",
                      "name": "duration",
                      "type": "uint256"
                    },
                    {
                      "internalType": "enum Structures.Tokens",
                      "name": "tokenId",
                      "type": "uint8"
                    }
                  ],
                  "internalType": "struct Structures.PostSettings",
                  "name": "settings",
                  "type": "tuple"
                },
                {
                  "components": [
                    {
                      "internalType": "uint256",
                      "name": "stake",
                      "type": "uint256"
                    },
                    {
                      "internalType": "uint256",
                      "name": "payment",
                      "type": "uint256"
                    },
                    {
                      "internalType": "uint256",
                      "name": "punishment",
                      "type": "uint256"
                    },
                    {
                      "internalType": "uint256",
                      "name": "penalty",
                      "type": "uint256"
                    }
                  ],
                  "internalType": "struct Structures.PostEscrow",
                  "name": "escrow",
                  "type": "tuple"
                },
                {
                  "components": [
                    {
                      "internalType": "bytes",
                      "name": "encryptedData",
                      "type": "bytes"
                    },
                    {
                      "internalType": "bytes",
                      "name": "encryptedKey",
                      "type": "bytes"
                    },
                    {
                      "internalType": "bytes",
                      "name": "decryptedData",
                      "type": "bytes"
                    }
                  ],
                  "internalType": "struct Structures.PostEncryptedData",
                  "name": "data",
                  "type": "tuple"
                }
              ],
              "internalType": "struct Structures.PostData",
              "name": "postdata",
              "type": "tuple"
            }
          ],
          "indexed": false,
          "internalType": "struct Structures.Post",
          "name": "post",
          "type": "tuple"
        }
      ],
      "name": "Accepted",
      "type": "event"
    },
    {
      "anonymous": false,
      "inputs": [
        {
          "components": [
            {
              "components": [
                {
                  "internalType": "bytes32",
                  "name": "vaultId",
                  "type": "bytes32"
                }
              ],
              "internalType": "struct Structures.User",
              "name": "creator",
              "type": "tuple"
            },
            {
              "components": [
                {
                  "components": [
                    {
                      "internalType": "enum Structures.PostStatus",
                      "name": "status",
                      "type": "uint8"
                    },
                    {
                      "internalType": "enum Structures.PostType",
                      "name": "postType",
                      "type": "uint8"
                    },
                    {
                      "internalType": "uint256",
                      "name": "creationTimeStamp",
                      "type": "uint256"
                    },
                    {
                      "internalType": "uint256",
                      "name": "endTimeStamp",
                      "type": "uint256"
                    },
                    {
                      "internalType": "uint256",
                      "name": "duration",
                      "type": "uint256"
                    },
                    {
                      "internalType": "enum Structures.Tokens",
                      "name": "tokenId",
                      "type": "uint8"
                    }
                  ],
                  "internalType": "struct Structures.PostSettings",
                  "name": "settings",
                  "type": "tuple"
                },
                {
                  "components": [
                    {
                      "internalType": "uint256",
                      "name": "stake",
                      "type": "uint256"
                    },
                    {
                      "internalType": "uint256",
                      "name": "payment",
                      "type": "uint256"
                    },
                    {
                      "internalType": "uint256",
                      "name": "punishment",
                      "type": "uint256"
                    },
                    {
                      "internalType": "uint256",
                      "name": "penalty",
                      "type": "uint256"
                    }
                  ],
                  "internalType": "struct Structures.PostEscrow",
                  "name": "escrow",
                  "type": "tuple"
                },
                {
                  "components": [
                    {
                      "internalType": "bytes",
                      "name": "encryptedData",
                      "type": "bytes"
                    },
                    {
                      "internalType": "bytes",
                      "name": "encryptedKey",
                      "type": "bytes"
                    },
                    {
                      "internalType": "bytes",
                      "name": "decryptedData",
                      "type": "bytes"
                    }
                  ],
                  "internalType": "struct Structures.PostEncryptedData",
                  "name": "data",
                  "type": "tuple"
                }
              ],
              "internalType": "struct Structures.PostData",
              "name": "postdata",
              "type": "tuple"
            }
          ],
          "indexed": false,
          "internalType": "struct Structures.Post",
          "name": "post",
          "type": "tuple"
        }
      ],
      "name": "Created",
      "type": "event"
    },
    {
      "anonymous": false,
      "inputs": [
        {
          "indexed": false,
          "internalType": "enum Structures.Tokens",
          "name": "tokenID",
          "type": "uint8"
        },
        {
          "indexed": false,
          "internalType": "bytes32",
          "name": "user",
          "type": "bytes32"
        },
        {
          "indexed": false,
          "internalType": "uint256",
          "name": "amount",
          "type": "uint256"
        },
        {
          "indexed": false,
          "internalType": "uint256",
          "name": "newDeposit",
          "type": "uint256"
        }
      ],
      "name": "DepositDecreased",
      "type": "event"
    },
    {
      "anonymous": false,
      "inputs": [
        {
          "indexed": false,
          "internalType": "enum Structures.Tokens",
          "name": "tokenID",
          "type": "uint8"
        },
        {
          "indexed": false,
          "internalType": "bytes32",
          "name": "user",
          "type": "bytes32"
        },
        {
          "indexed": false,
          "internalType": "uint256",
          "name": "amount",
          "type": "uint256"
        },
        {
          "indexed": false,
          "internalType": "uint256",
          "name": "newDeposit",
          "type": "uint256"
        }
      ],
      "name": "DepositIncreased",
      "type": "event"
    },
    {
      "anonymous": false,
      "inputs": [
        {
          "components": [
            {
              "components": [
                {
                  "internalType": "bytes32",
                  "name": "vaultId",
                  "type": "bytes32"
                }
              ],
              "internalType": "struct Structures.User",
              "name": "creator",
              "type": "tuple"
            },
            {
              "components": [
                {
                  "components": [
                    {
                      "internalType": "enum Structures.PostStatus",
                      "name": "status",
                      "type": "uint8"
                    },
                    {
                      "internalType": "enum Structures.PostType",
                      "name": "postType",
                      "type": "uint8"
                    },
                    {
                      "internalType": "uint256",
                      "name": "creationTimeStamp",
                      "type": "uint256"
                    },
                    {
                      "internalType": "uint256",
                      "name": "endTimeStamp",
                      "type": "uint256"
                    },
                    {
                      "internalType": "uint256",
                      "name": "duration",
                      "type": "uint256"
                    },
                    {
                      "internalType": "enum Structures.Tokens",
                      "name": "tokenId",
                      "type": "uint8"
                    }
                  ],
                  "internalType": "struct Structures.PostSettings",
                  "name": "settings",
                  "type": "tuple"
                },
                {
                  "components": [
                    {
                      "internalType": "uint256",
                      "name": "stake",
                      "type": "uint256"
                    },
                    {
                      "internalType": "uint256",
                      "name": "payment",
                      "type": "uint256"
                    },
                    {
                      "internalType": "uint256",
                      "name": "punishment",
                      "type": "uint256"
                    },
                    {
                      "internalType": "uint256",
                      "name": "penalty",
                      "type": "uint256"
                    }
                  ],
                  "internalType": "struct Structures.PostEscrow",
                  "name": "escrow",
                  "type": "tuple"
                },
                {
                  "components": [
                    {
                      "internalType": "bytes",
                      "name": "encryptedData",
                      "type": "bytes"
                    },
                    {
                      "internalType": "bytes",
                      "name": "encryptedKey",
                      "type": "bytes"
                    },
                    {
                      "internalType": "bytes",
                      "name": "decryptedData",
                      "type": "bytes"
                    }
                  ],
                  "internalType": "struct Structures.PostEncryptedData",
                  "name": "data",
                  "type": "tuple"
                }
              ],
              "internalType": "struct Structures.PostData",
              "name": "postdata",
              "type": "tuple"
            }
          ],
          "indexed": false,
          "internalType": "struct Structures.Post",
          "name": "post",
          "type": "tuple"
        }
      ],
      "name": "Finalized",
      "type": "event"
    },
    {
      "anonymous": false,
      "inputs": [
        {
          "components": [
            {
              "components": [
                {
                  "internalType": "bytes32",
                  "name": "vaultId",
                  "type": "bytes32"
                }
              ],
              "internalType": "struct Structures.User",
              "name": "creator",
              "type": "tuple"
            },
            {
              "components": [
                {
                  "components": [
                    {
                      "internalType": "enum Structures.PostStatus",
                      "name": "status",
                      "type": "uint8"
                    },
                    {
                      "internalType": "enum Structures.PostType",
                      "name": "postType",
                      "type": "uint8"
                    },
                    {
                      "internalType": "uint256",
                      "name": "creationTimeStamp",
                      "type": "uint256"
                    },
                    {
                      "internalType": "uint256",
                      "name": "endTimeStamp",
                      "type": "uint256"
                    },
                    {
                      "internalType": "uint256",
                      "name": "duration",
                      "type": "uint256"
                    },
                    {
                      "internalType": "enum Structures.Tokens",
                      "name": "tokenId",
                      "type": "uint8"
                    }
                  ],
                  "internalType": "struct Structures.PostSettings",
                  "name": "settings",
                  "type": "tuple"
                },
                {
                  "components": [
                    {
                      "internalType": "uint256",
                      "name": "stake",
                      "type": "uint256"
                    },
                    {
                      "internalType": "uint256",
                      "name": "payment",
                      "type": "uint256"
                    },
                    {
                      "internalType": "uint256",
                      "name": "punishment",
                      "type": "uint256"
                    },
                    {
                      "internalType": "uint256",
                      "name": "penalty",
                      "type": "uint256"
                    }
                  ],
                  "internalType": "struct Structures.PostEscrow",
                  "name": "escrow",
                  "type": "tuple"
                },
                {
                  "components": [
                    {
                      "internalType": "bytes",
                      "name": "encryptedData",
                      "type": "bytes"
                    },
                    {
                      "internalType": "bytes",
                      "name": "encryptedKey",
                      "type": "bytes"
                    },
                    {
                      "internalType": "bytes",
                      "name": "decryptedData",
                      "type": "bytes"
                    }
                  ],
                  "internalType": "struct Structures.PostEncryptedData",
                  "name": "data",
                  "type": "tuple"
                }
              ],
              "internalType": "struct Structures.PostData",
              "name": "postdata",
              "type": "tuple"
            }
          ],
          "indexed": false,
          "internalType": "struct Structures.Post",
          "name": "post",
          "type": "tuple"
        }
      ],
      "name": "Invalid",
      "type": "event"
    },
    {
      "anonymous": false,
      "inputs": [
        {
          "components": [
            {
              "components": [
                {
                  "internalType": "bytes32",
                  "name": "vaultId",
                  "type": "bytes32"
                }
              ],
              "internalType": "struct Structures.User",
              "name": "creator",
              "type": "tuple"
            },
            {
              "components": [
                {
                  "components": [
                    {
                      "internalType": "enum Structures.PostStatus",
                      "name": "status",
                      "type": "uint8"
                    },
                    {
                      "internalType": "enum Structures.PostType",
                      "name": "postType",
                      "type": "uint8"
                    },
                    {
                      "internalType": "uint256",
                      "name": "creationTimeStamp",
                      "type": "uint256"
                    },
                    {
                      "internalType": "uint256",
                      "name": "endTimeStamp",
                      "type": "uint256"
                    },
                    {
                      "internalType": "uint256",
                      "name": "duration",
                      "type": "uint256"
                    },
                    {
                      "internalType": "enum Structures.Tokens",
                      "name": "tokenId",
                      "type": "uint8"
                    }
                  ],
                  "internalType": "struct Structures.PostSettings",
                  "name": "settings",
                  "type": "tuple"
                },
                {
                  "components": [
                    {
                      "internalType": "uint256",
                      "name": "stake",
                      "type": "uint256"
                    },
                    {
                      "internalType": "uint256",
                      "name": "payment",
                      "type": "uint256"
                    },
                    {
                      "internalType": "uint256",
                      "name": "punishment",
                      "type": "uint256"
                    },
                    {
                      "internalType": "uint256",
                      "name": "penalty",
                      "type": "uint256"
                    }
                  ],
                  "internalType": "struct Structures.PostEscrow",
                  "name": "escrow",
                  "type": "tuple"
                },
                {
                  "components": [
                    {
                      "internalType": "bytes",
                      "name": "encryptedData",
                      "type": "bytes"
                    },
                    {
                      "internalType": "bytes",
                      "name": "encryptedKey",
                      "type": "bytes"
                    },
                    {
                      "internalType": "bytes",
                      "name": "decryptedData",
                      "type": "bytes"
                    }
                  ],
                  "internalType": "struct Structures.PostEncryptedData",
                  "name": "data",
                  "type": "tuple"
                }
              ],
              "internalType": "struct Structures.PostData",
              "name": "postdata",
              "type": "tuple"
            }
          ],
          "indexed": false,
          "internalType": "struct Structures.Post",
          "name": "post",
          "type": "tuple"
        }
      ],
      "name": "MadePublic",
      "type": "event"
    },
    {
      "anonymous": false,
      "inputs": [
        {
          "components": [
            {
              "components": [
                {
                  "internalType": "bytes32",
                  "name": "vaultId",
                  "type": "bytes32"
                }
              ],
              "internalType": "struct Structures.User",
              "name": "creator",
              "type": "tuple"
            },
            {
              "components": [
                {
                  "components": [
                    {
                      "internalType": "enum Structures.PostStatus",
                      "name": "status",
                      "type": "uint8"
                    },
                    {
                      "internalType": "enum Structures.PostType",
                      "name": "postType",
                      "type": "uint8"
                    },
                    {
                      "internalType": "uint256",
                      "name": "creationTimeStamp",
                      "type": "uint256"
                    },
                    {
                      "internalType": "uint256",
                      "name": "endTimeStamp",
                      "type": "uint256"
                    },
                    {
                      "internalType": "uint256",
                      "name": "duration",
                      "type": "uint256"
                    },
                    {
                      "internalType": "enum Structures.Tokens",
                      "name": "tokenId",
                      "type": "uint8"
                    }
                  ],
                  "internalType": "struct Structures.PostSettings",
                  "name": "settings",
                  "type": "tuple"
                },
                {
                  "components": [
                    {
                      "internalType": "uint256",
                      "name": "stake",
                      "type": "uint256"
                    },
                    {
                      "internalType": "uint256",
                      "name": "payment",
                      "type": "uint256"
                    },
                    {
                      "internalType": "uint256",
                      "name": "punishment",
                      "type": "uint256"
                    },
                    {
                      "internalType": "uint256",
                      "name": "penalty",
                      "type": "uint256"
                    }
                  ],
                  "internalType": "struct Structures.PostEscrow",
                  "name": "escrow",
                  "type": "tuple"
                },
                {
                  "components": [
                    {
                      "internalType": "bytes",
                      "name": "encryptedData",
                      "type": "bytes"
                    },
                    {
                      "internalType": "bytes",
                      "name": "encryptedKey",
                      "type": "bytes"
                    },
                    {
                      "internalType": "bytes",
                      "name": "decryptedData",
                      "type": "bytes"
                    }
                  ],
                  "internalType": "struct Structures.PostEncryptedData",
                  "name": "data",
                  "type": "tuple"
                }
              ],
              "internalType": "struct Structures.PostData",
              "name": "postdata",
              "type": "tuple"
            }
          ],
          "indexed": false,
          "internalType": "struct Structures.Post",
          "name": "post",
          "type": "tuple"
        }
      ],
      "name": "Renounced",
      "type": "event"
    },
    {
      "anonymous": false,
      "inputs": [
        {
          "indexed": false,
          "internalType": "bytes32",
          "name": "staker",
          "type": "bytes32"
        },
        {
          "indexed": false,
          "internalType": "uint256",
          "name": "amount",
          "type": "uint256"
        },
        {
          "indexed": false,
          "internalType": "enum Structures.Tokens",
          "name": "tokenId",
          "type": "uint8"
        }
      ],
      "name": "StakeAdded",
      "type": "event"
    },
    {
      "anonymous": false,
      "inputs": [
        {
          "indexed": false,
          "internalType": "bytes32",
          "name": "staker",
          "type": "bytes32"
        },
        {
          "indexed": false,
          "internalType": "uint256",
          "name": "amount",
          "type": "uint256"
        }
      ],
      "name": "StakeBurned",
      "type": "event"
    },
    {
      "anonymous": false,
      "inputs": [
        {
          "indexed": false,
          "internalType": "bytes32",
          "name": "staker",
          "type": "bytes32"
        },
        {
          "indexed": false,
          "internalType": "uint256",
          "name": "amount",
          "type": "uint256"
        },
        {
          "indexed": false,
          "internalType": "enum Structures.Tokens",
          "name": "tokenId",
          "type": "uint8"
        }
      ],
      "name": "StakeTaken",
      "type": "event"
    },
    {
      "anonymous": false,
      "inputs": [
        {
          "components": [
            {
              "components": [
                {
                  "internalType": "bytes32",
                  "name": "vaultId",
                  "type": "bytes32"
                }
              ],
              "internalType": "struct Structures.User",
              "name": "creator",
              "type": "tuple"
            },
            {
              "components": [
                {
                  "components": [
                    {
                      "internalType": "enum Structures.PostStatus",
                      "name": "status",
                      "type": "uint8"
                    },
                    {
                      "internalType": "enum Structures.PostType",
                      "name": "postType",
                      "type": "uint8"
                    },
                    {
                      "internalType": "uint256",
                      "name": "creationTimeStamp",
                      "type": "uint256"
                    },
                    {
                      "internalType": "uint256",
                      "name": "endTimeStamp",
                      "type": "uint256"
                    },
                    {
                      "internalType": "uint256",
                      "name": "duration",
                      "type": "uint256"
                    },
                    {
                      "internalType": "enum Structures.Tokens",
                      "name": "tokenId",
                      "type": "uint8"
                    }
                  ],
                  "internalType": "struct Structures.PostSettings",
                  "name": "settings",
                  "type": "tuple"
                },
                {
                  "components": [
                    {
                      "internalType": "uint256",
                      "name": "stake",
                      "type": "uint256"
                    },
                    {
                      "internalType": "uint256",
                      "name": "payment",
                      "type": "uint256"
                    },
                    {
                      "internalType": "uint256",
                      "name": "punishment",
                      "type": "uint256"
                    },
                    {
                      "internalType": "uint256",
                      "name": "penalty",
                      "type": "uint256"
                    }
                  ],
                  "internalType": "struct Structures.PostEscrow",
                  "name": "escrow",
                  "type": "tuple"
                },
                {
                  "components": [
                    {
                      "internalType": "bytes",
                      "name": "encryptedData",
                      "type": "bytes"
                    },
                    {
                      "internalType": "bytes",
                      "name": "encryptedKey",
                      "type": "bytes"
                    },
                    {
                      "internalType": "bytes",
                      "name": "decryptedData",
                      "type": "bytes"
                    }
                  ],
                  "internalType": "struct Structures.PostEncryptedData",
                  "name": "data",
                  "type": "tuple"
                }
              ],
              "internalType": "struct Structures.PostData",
              "name": "postdata",
              "type": "tuple"
            }
          ],
          "indexed": false,
          "internalType": "struct Structures.Post",
          "name": "post",
          "type": "tuple"
        }
      ],
      "name": "Valid",
      "type": "event"
    },
    {
      "inputs": [],
      "name": "DAI",
      "outputs": [
        {
          "internalType": "address",
          "name": "",
          "type": "address"
        }
      ],
      "stateMutability": "view",
      "type": "function"
    },
    {
      "inputs": [],
      "name": "MUSE",
      "outputs": [
        {
          "internalType": "address",
          "name": "",
          "type": "address"
        }
      ],
      "stateMutability": "view",
      "type": "function"
    },
    {
      "inputs": [],
      "name": "WETH",
      "outputs": [
        {
          "internalType": "address",
          "name": "",
          "type": "address"
        }
      ],
      "stateMutability": "view",
      "type": "function"
    },
    {
      "inputs": [
        {
          "internalType": "bytes",
          "name": "sismoConnectResponse",
          "type": "bytes"
        },
        {
          "internalType": "address",
          "name": "_to",
          "type": "address"
        },
        {
          "internalType": "bytes32",
          "name": "_nonce",
          "type": "bytes32"
        },
        {
          "internalType": "enum Structures.Tokens",
          "name": "tokenId",
          "type": "uint8"
        },
        {
          "internalType": "uint256",
          "name": "_paymentAmount",
          "type": "uint256"
        }
      ],
      "name": "acceptPost",
      "outputs": [],
      "stateMutability": "payable",
      "type": "function"
    },
    {
      "inputs": [
        {
          "internalType": "enum Structures.Tokens",
          "name": "tokenId",
          "type": "uint8"
        },
        {
          "internalType": "uint256",
          "name": "amountToAdd",
          "type": "uint256"
        },
        {
          "internalType": "bytes32",
          "name": "encryptedVaultId",
          "type": "bytes32"
        }
      ],
      "name": "addStake",
      "outputs": [
        {
          "internalType": "uint256",
          "name": "",
          "type": "uint256"
        }
      ],
      "stateMutability": "payable",
      "type": "function"
    },
    {
      "inputs": [
        {
          "internalType": "bytes",
          "name": "encryptedHash",
          "type": "bytes"
        },
        {
          "internalType": "enum Structures.PostType",
          "name": "postType",
          "type": "uint8"
        },
        {
          "internalType": "enum Structures.PostDuration",
          "name": "postDuration",
          "type": "uint8"
        },
        {
          "internalType": "uint256",
          "name": "payment",
          "type": "uint256"
        },
        {
          "internalType": "uint256",
          "name": "stakeAmount",
          "type": "uint256"
        },
        {
          "internalType": "enum Structures.Tokens",
          "name": "tokenId",
          "type": "uint8"
        },
        {
          "internalType": "bytes",
          "name": "sismoConnectResponse",
          "type": "bytes"
        },
        {
          "internalType": "address",
          "name": "_to",
          "type": "address"
        },
        {
          "internalType": "bytes32",
          "name": "_nonce",
          "type": "bytes32"
        }
      ],
      "name": "createPost",
      "outputs": [
        {
          "components": [
            {
              "components": [
                {
                  "internalType": "bytes32",
                  "name": "vaultId",
                  "type": "bytes32"
                }
              ],
              "internalType": "struct Structures.User",
              "name": "creator",
              "type": "tuple"
            },
            {
              "components": [
                {
                  "components": [
                    {
                      "internalType": "enum Structures.PostStatus",
                      "name": "status",
                      "type": "uint8"
                    },
                    {
                      "internalType": "enum Structures.PostType",
                      "name": "postType",
                      "type": "uint8"
                    },
                    {
                      "internalType": "uint256",
                      "name": "creationTimeStamp",
                      "type": "uint256"
                    },
                    {
                      "internalType": "uint256",
                      "name": "endTimeStamp",
                      "type": "uint256"
                    },
                    {
                      "internalType": "uint256",
                      "name": "duration",
                      "type": "uint256"
                    },
                    {
                      "internalType": "enum Structures.Tokens",
                      "name": "tokenId",
                      "type": "uint8"
                    }
                  ],
                  "internalType": "struct Structures.PostSettings",
                  "name": "settings",
                  "type": "tuple"
                },
                {
                  "components": [
                    {
                      "internalType": "uint256",
                      "name": "stake",
                      "type": "uint256"
                    },
                    {
                      "internalType": "uint256",
                      "name": "payment",
                      "type": "uint256"
                    },
                    {
                      "internalType": "uint256",
                      "name": "punishment",
                      "type": "uint256"
                    },
                    {
                      "internalType": "uint256",
                      "name": "penalty",
                      "type": "uint256"
                    }
                  ],
                  "internalType": "struct Structures.PostEscrow",
                  "name": "escrow",
                  "type": "tuple"
                },
                {
                  "components": [
                    {
                      "internalType": "bytes",
                      "name": "encryptedData",
                      "type": "bytes"
                    },
                    {
                      "internalType": "bytes",
                      "name": "encryptedKey",
                      "type": "bytes"
                    },
                    {
                      "internalType": "bytes",
                      "name": "decryptedData",
                      "type": "bytes"
                    }
                  ],
                  "internalType": "struct Structures.PostEncryptedData",
                  "name": "data",
                  "type": "tuple"
                }
              ],
              "internalType": "struct Structures.PostData",
              "name": "postdata",
              "type": "tuple"
            }
          ],
          "internalType": "struct Structures.Post",
          "name": "",
          "type": "tuple"
        }
      ],
      "stateMutability": "payable",
      "type": "function"
    },
    {
      "inputs": [
        {
          "internalType": "bool",
          "name": "valid",
          "type": "bool"
        },
        {
          "internalType": "uint256",
          "name": "punishment",
          "type": "uint256"
        },
        {
          "internalType": "bytes32",
          "name": "encryptedVaultId",
          "type": "bytes32"
        }
      ],
      "name": "finalizePost",
      "outputs": [],
      "stateMutability": "nonpayable",
      "type": "function"
    },
    {
      "inputs": [],
      "name": "getBuyerStake",
      "outputs": [
        {
          "internalType": "uint256",
          "name": "amount",
          "type": "uint256"
        }
      ],
      "stateMutability": "view",
      "type": "function"
    },
    {
      "inputs": [
        {
          "internalType": "bytes",
          "name": "sismoConnectResponse",
          "type": "bytes"
        },
        {
          "internalType": "address",
          "name": "_to",
          "type": "address"
        },
        {
          "internalType": "bytes32",
          "name": "_nonce",
          "type": "bytes32"
        }
      ],
      "name": "getHashedVaultId",
      "outputs": [
        {
          "internalType": "bytes32",
          "name": "",
          "type": "bytes32"
        }
      ],
      "stateMutability": "nonpayable",
      "type": "function"
    },
    {
      "inputs": [
        {
          "internalType": "bytes",
          "name": "sismoConnectResponse",
          "type": "bytes"
        },
        {
          "internalType": "address",
          "name": "_to",
          "type": "address"
        },
        {
          "internalType": "bytes32",
          "name": "_nonce",
          "type": "bytes32"
        }
      ],
      "name": "getMessage",
      "outputs": [
        {
          "internalType": "bytes",
          "name": "",
          "type": "bytes"
        }
      ],
      "stateMutability": "nonpayable",
      "type": "function"
    },
    {
      "inputs": [],
      "name": "getPaymentRequested",
      "outputs": [
        {
          "internalType": "uint256",
          "name": "",
          "type": "uint256"
        }
      ],
      "stateMutability": "view",
      "type": "function"
    },
    {
      "inputs": [],
      "name": "getSellerStake",
      "outputs": [
        {
          "internalType": "uint256",
          "name": "amount",
          "type": "uint256"
        }
      ],
      "stateMutability": "view",
      "type": "function"
    },
    {
      "inputs": [
        {
          "internalType": "enum Structures.Tokens",
          "name": "tokenId",
          "type": "uint8"
        },
        {
          "internalType": "bytes32",
          "name": "staker",
          "type": "bytes32"
        }
      ],
      "name": "getStake",
      "outputs": [
        {
          "internalType": "uint256",
          "name": "amount",
          "type": "uint256"
        }
      ],
      "stateMutability": "view",
      "type": "function"
    },
    {
      "inputs": [],
      "name": "getStakeRequested",
      "outputs": [
        {
          "internalType": "uint256",
          "name": "",
          "type": "uint256"
        }
      ],
      "stateMutability": "view",
      "type": "function"
    },
    {
      "inputs": [],
      "name": "getStatus",
      "outputs": [
        {
          "internalType": "enum Structures.PostStatus",
          "name": "",
          "type": "uint8"
        }
      ],
      "stateMutability": "view",
      "type": "function"
    },
    {
      "inputs": [
        {
          "internalType": "bytes32",
          "name": "encryptedVaultId",
          "type": "bytes32"
        }
      ],
      "name": "getTelegramIds",
      "outputs": [
        {
          "internalType": "uint256",
          "name": "",
          "type": "uint256"
        },
        {
          "internalType": "uint256",
          "name": "",
          "type": "uint256"
        }
      ],
      "stateMutability": "view",
      "type": "function"
    },
    {
      "inputs": [],
      "name": "getTokenId",
      "outputs": [
        {
          "internalType": "enum Structures.Tokens",
          "name": "",
          "type": "uint8"
        }
      ],
      "stateMutability": "view",
      "type": "function"
    },
    {
      "inputs": [],
      "name": "getTokenIdAddress",
      "outputs": [
        {
          "internalType": "address",
          "name": "",
          "type": "address"
        }
      ],
      "stateMutability": "view",
      "type": "function"
    },
    {
      "inputs": [],
      "name": "getTotalStaked",
      "outputs": [
        {
          "internalType": "uint256",
          "name": "",
          "type": "uint256"
        }
      ],
      "stateMutability": "view",
      "type": "function"
    },
    {
      "inputs": [
        {
          "internalType": "bytes32",
          "name": "encryptedVaultId",
          "type": "bytes32"
        }
      ],
      "name": "getVaultIdSecret",
      "outputs": [
        {
          "internalType": "bytes",
          "name": "",
          "type": "bytes"
        }
      ],
      "stateMutability": "view",
      "type": "function"
    },
    {
      "inputs": [],
      "name": "owner",
      "outputs": [
        {
          "internalType": "bytes32",
          "name": "",
          "type": "bytes32"
        }
      ],
      "stateMutability": "view",
      "type": "function"
    },
    {
      "inputs": [],
      "name": "post",
      "outputs": [
        {
          "components": [
            {
              "internalType": "bytes32",
              "name": "vaultId",
              "type": "bytes32"
            }
          ],
          "internalType": "struct Structures.User",
          "name": "creator",
          "type": "tuple"
        },
        {
          "components": [
            {
              "components": [
                {
                  "internalType": "enum Structures.PostStatus",
                  "name": "status",
                  "type": "uint8"
                },
                {
                  "internalType": "enum Structures.PostType",
                  "name": "postType",
                  "type": "uint8"
                },
                {
                  "internalType": "uint256",
                  "name": "creationTimeStamp",
                  "type": "uint256"
                },
                {
                  "internalType": "uint256",
                  "name": "endTimeStamp",
                  "type": "uint256"
                },
                {
                  "internalType": "uint256",
                  "name": "duration",
                  "type": "uint256"
                },
                {
                  "internalType": "enum Structures.Tokens",
                  "name": "tokenId",
                  "type": "uint8"
                }
              ],
              "internalType": "struct Structures.PostSettings",
              "name": "settings",
              "type": "tuple"
            },
            {
              "components": [
                {
                  "internalType": "uint256",
                  "name": "stake",
                  "type": "uint256"
                },
                {
                  "internalType": "uint256",
                  "name": "payment",
                  "type": "uint256"
                },
                {
                  "internalType": "uint256",
                  "name": "punishment",
                  "type": "uint256"
                },
                {
                  "internalType": "uint256",
                  "name": "penalty",
                  "type": "uint256"
                }
              ],
              "internalType": "struct Structures.PostEscrow",
              "name": "escrow",
              "type": "tuple"
            },
            {
              "components": [
                {
                  "internalType": "bytes",
                  "name": "encryptedData",
                  "type": "bytes"
                },
                {
                  "internalType": "bytes",
                  "name": "encryptedKey",
                  "type": "bytes"
                },
                {
                  "internalType": "bytes",
                  "name": "decryptedData",
                  "type": "bytes"
                }
              ],
              "internalType": "struct Structures.PostEncryptedData",
              "name": "data",
              "type": "tuple"
            }
          ],
          "internalType": "struct Structures.PostData",
          "name": "postdata",
          "type": "tuple"
        }
      ],
      "stateMutability": "view",
      "type": "function"
    },
    {
      "inputs": [],
      "name": "postCount",
      "outputs": [
        {
          "internalType": "uint256",
          "name": "",
          "type": "uint256"
        }
      ],
      "stateMutability": "view",
      "type": "function"
    },
    {
      "inputs": [
        {
          "internalType": "bytes",
          "name": "sismoConnectResponse",
          "type": "bytes"
        },
        {
          "internalType": "address",
          "name": "_to",
          "type": "address"
        },
        {
          "internalType": "bytes32",
          "name": "_nonce",
          "type": "bytes32"
        }
      ],
      "name": "renouncePost",
      "outputs": [],
      "stateMutability": "nonpayable",
      "type": "function"
    },
    {
      "inputs": [
        {
          "internalType": "bytes",
          "name": "decryptedData",
          "type": "bytes"
        },
        {
          "internalType": "bytes",
          "name": "sismoConnectResponse",
          "type": "bytes"
        },
        {
          "internalType": "address",
          "name": "_to",
          "type": "address"
        },
        {
          "internalType": "bytes32",
          "name": "_nonce",
          "type": "bytes32"
        }
      ],
      "name": "revealData",
      "outputs": [
        {
          "internalType": "bytes",
          "name": "",
          "type": "bytes"
        }
      ],
      "stateMutability": "nonpayable",
      "type": "function"
    },
    {
      "inputs": [
        {
          "internalType": "bytes",
          "name": "encryptedKey",
          "type": "bytes"
        },
        {
          "internalType": "bytes",
          "name": "sismoConnectResponse",
          "type": "bytes"
        },
        {
          "internalType": "address",
          "name": "_to",
          "type": "address"
        },
        {
          "internalType": "bytes32",
          "name": "_nonce",
          "type": "bytes32"
        }
      ],
      "name": "submitHash",
      "outputs": [],
      "stateMutability": "nonpayable",
      "type": "function"
    },
    {
      "inputs": [
        {
          "internalType": "enum Structures.Tokens",
          "name": "tokenId",
          "type": "uint8"
        },
        {
          "internalType": "bytes",
          "name": "sismoConnectResponse",
          "type": "bytes"
        },
        {
          "internalType": "address",
          "name": "_to",
          "type": "address"
        },
        {
          "internalType": "bytes32",
          "name": "_nonce",
          "type": "bytes32"
        }
      ],
      "name": "takeFullStake",
      "outputs": [
        {
          "internalType": "uint256",
          "name": "",
          "type": "uint256"
        }
      ],
      "stateMutability": "nonpayable",
      "type": "function"
    },
    {
      "inputs": [
        {
          "internalType": "enum Structures.Tokens",
          "name": "tokenId",
          "type": "uint8"
        },
        {
          "internalType": "uint256",
          "name": "amountToTake",
          "type": "uint256"
        },
        {
          "internalType": "bytes",
          "name": "sismoConnectResponse",
          "type": "bytes"
        },
        {
          "internalType": "address",
          "name": "_to",
          "type": "address"
        },
        {
          "internalType": "bytes32",
          "name": "_nonce",
          "type": "bytes32"
        }
      ],
      "name": "takeStake",
      "outputs": [
        {
          "internalType": "uint256",
          "name": "",
          "type": "uint256"
        }
      ],
      "stateMutability": "nonpayable",
      "type": "function"
    },
    {
      "inputs": [],
      "name": "version",
      "outputs": [
        {
          "internalType": "string",
          "name": "",
          "type": "string"
        }
      ],
      "stateMutability": "view",
      "type": "function"
    },
    {
      "inputs": [
        {
          "internalType": "bytes",
          "name": "encodeMessage",
          "type": "bytes"
        },
        {
          "internalType": "bytes32",
          "name": "encryptedVaultId",
          "type": "bytes32"
        }
      ],
      "name": "write",
      "outputs": [],
      "stateMutability": "nonpayable",
      "type": "function"
    },
    {
      "stateMutability": "payable",
      "type": "receive"
    }
  ],
  "transactionHash": "0x69b2bffa5becdf2a2000734ca80ab73040a10ec8abd290ea4144514f843eb005",
  "args": [
    "0x0000000000000000000000000000000000000000000000000000000000000000",
    "0x78329Ef4bEda65c8d54cD551Bc87F7d1AB6a20D9",
    "0xA3Aa50BC3980B5a05dAe85C2A11f657d0c52Fb2f",
    "0x0000000000000000000000000000000000000000",
    "0xcB76cb094dE5c19e728ab996d619a841e2D227d6",
    "v2"
  ],
  "numDeployments": 5,
  "solcInputHash": "6ce937c74f6e9092d33cbdfc7d33c8c2",
  "bytecode": "0x608060409080825234620007cc57620058c88038038091620000228285620007e7565b8339810160c082820312620007cc578151916020620000438183016200080b565b90620000518684016200080b565b6200005f606085016200080b565b916200006e608086016200080b565b60a08601516001600160401b0396919491878211620007cc570192601f94888686011215620007cc578451888111620007d1578b5195601f199a620000ba878d8b8601160189620007e7565b828852868383010111620007cc57859060005b838110620007b75750506000918701015267016345785d8a0000601755600060185560018060a01b0380938180948160018060a01b03199b168b60195416176019551689601b541617601b551687601c541617601c553387601a541617601a5516948951916303e21fa960e61b8352600492848185818b5afa8015620004d657829160009162000778575b501682601d541617601d556200016d62000820565b8051908982116200061557819062000187601e5462000851565b89811162000745575b508690898311600114620006da57600092620006ce575b50508160011b916000199060031b1c191617601e555b620001c762000820565b80519089821162000615578190620001e0895462000851565b8981116200069c575b50869089831160011462000636576000926200062a575b50508160011b916000199060031b1c19161786555b6200021f62000820565b8051908982116200061557819062000238875462000851565b898111620005e3575b5086908983116001146200057d5760009262000571575b50508160011b916000199060031b1c19161784555b60ff199687600554166005556000805260228552620151808c60002055600197886000526203f4808d60002055600260005262093a808d600020556003600052621275008d600020558460005262278d008d600020556000805260238652888d600020918254161790558b516325abd85f60e11b815285818681855afa80156200052757839160009162000532575b508954851691161788558b5163f77800e560e01b81529085828681845afa90811562000527578387928794600091620004e1575b50168560025416176002558d5192838092635f117aa360e11b82525afa908115620004d65760009162000496575b501690600354161760035582519586116200048157506200038160215462000851565b83811162000443575b5080928511600114620003d8575083945090839291600094620003cc575b50501b916000199060031b1c1916176021555b600055516150209081620008a88239f35b015192503880620003a8565b929484908116602160005284600020946000905b888383106200042857505050106200040e575b505050811b01602155620003bb565b015160001960f88460031b161c19169055388080620003ff565b858701518855909601959485019487935090810190620003ec565b62000470906021600052826000208580890160051c820192858a1062000477575b0160051c01906200088e565b386200038a565b9250819262000464565b604190634e487b7160e01b6000525260246000fd5b908582813d8311620004ce575b620004af8183620007e7565b81010312620004cb5750620004c4906200080b565b386200035e565b80fd5b503d620004a3565b8c513d6000823e3d90fd5b9384919395508092503d83116200051f575b620004ff8183620007e7565b81010312620004cb57508491836200051888936200080b565b3862000330565b503d620004f3565b8d513d6000823e3d90fd5b91508682813d831162000569575b6200054c8183620007e7565b81010312620004cb57506200056283916200080b565b38620002fc565b503d62000540565b01519050388062000258565b6000888152888120938e16905b89828210620005cc575050908460019594939210620005b2575b505050811b0184556200026d565b015160001960f88460031b161c19169055388080620005a4565b60018596829396860151815501950193016200058a565b6200060e9088600052886000208b80860160051c8201928b871062000477570160051c01906200088e565b3862000241565b604185634e487b7160e01b6000525260246000fd5b01519050388062000200565b60008a8152888120938e16905b89828210620006855750509084600195949392106200066b575b505050811b01865562000215565b015160001960f88460031b161c191690553880806200065d565b600185968293968601518155019501930162000643565b620006c7908a600052886000208b80860160051c8201928b871062000477570160051c01906200088e565b38620001e9565b015190503880620001a7565b918c1691601e600052876000209260005b898282106200072e57505090846001959493921062000714575b505050811b01601e55620001bd565b015160001960f88460031b161c1916905538808062000705565b6001859682939686015181550195019301620006eb565b6200077190601e600052886000208b80860160051c8201928b871062000477570160051c01906200088e565b3862000190565b91508582813d8311620007af575b620007928183620007e7565b81010312620004cb5750620007a882916200080b565b3862000158565b503d62000786565b818101830151898201840152879201620000cd565b600080fd5b634e487b7160e01b600052604160045260246000fd5b601f909101601f19168101906001600160401b03821190821017620007d157604052565b51906001600160a01b0382168203620007cc57565b60408051919082016001600160401b03811183821017620007d15760405260048252630307830360e41b6020830152565b90600182811c9216801562000883575b60208310146200086d57565b634e487b7160e01b600052602260045260246000fd5b91607f169162000861565b8181106200089a575050565b600081556001016200088e56fe608080604052600436101561001d575b50361561001b57600080fd5b005b60003560e01c908163010a38f5146131125750806305c1f50214612dfd5780630917e77614612d9c57806317906c2e14612d7e5780631b9f0a4314612d52578063200f852c146128ad57806330a0680c1461266f5780633258d15c146125515780633a4fb8b714611ead578063402e3e0b146115425780634828000c1461149c5780634c38d877146114705780634e69d560146114485780635262712f1461141457806354fd4d50146113465780635ad4e1701461130d5780635c63ed69146112d557806383dd1743146110235780638da5cb5b146110055780638f287dc2146109f75780639d8cc89a146109c55780639f8b435914610970578063ad5c46481461093c578063b43f4f7514610487578063b52d2ce414610376578063d24e0c8714610358578063de5d7165146101ec578063e02cfa4c146101cb578063e0bab4c4146101975763faeb5e1714610174573861000f565b34610192576000600319360112610192576020600a54604051908152f35b600080fd5b3461019257600060031936011261019257602073ffffffffffffffffffffffffffffffffffffffff60035416604051908152f35b346101925760206101e46101de3661359b565b91614210565b604051908152f35b346101925760a06003193601126101925760043560038110156101925760243560443567ffffffffffffffff81116101925761022c9036906004016134e8565b916064359273ffffffffffffffffffffffffffffffffffffffff8416840361019257610256613fbc565b60ff600954169060038210156103295761027461027e928414613bd2565b8460843591614cec565b9181600052602460205260406000208360005260205280604060002054106102e557602093836102ad93614b34565b906040516102c5816102be816132fb565b03826131ca565b805190840120036102dc5780600b55604051908152f35b80600a556101e4565b606460405162461bcd60e51b815260206004820152601060248201527f4e4f545f454e4f5547485f5354414b45000000000000000000000000000000006044820152fd5b7f4e487b7100000000000000000000000000000000000000000000000000000000600052602160045260246000fd5b34610192576000600319360112610192576020600b54604051908152f35b60606003193601126101925760043560038110156101925760443560ff600954166003811015610329576103ab908314613bd2565b604051916103c3836103bc816132fb565b03846131ca565b825160208094012082148015610469575b15610425576102ad906040516103ed816102be81613256565b805190850120830361041c5734905b8373ffffffffffffffffffffffffffffffffffffffff601c5416916144cc565b602435906103fc565b6064836040519062461bcd60e51b82526004820152601060248201527f5641554c5449445f4d49534d41544348000000000000000000000000000000006044820152fd5b5060405161047a816102be81613256565b83815191012082146103d4565b34610192576104953661352f565b929061049f613fbc565b60059360ff85541691600883101561032957826000526020946023865260ff6040600020541680610928575b156108e457906104db9291613cb9565b50505083815191012060248473ffffffffffffffffffffffffffffffffffffffff60195416604051928380927f38aad32c0000000000000000000000000000000000000000000000000000000082528660048301525afa9081156108d8576000916108ab575b5015610867576105549060045414614461565b6000526023825260406000209060ff1991828154169055600392836000526040600020906001918285825416179055848487541617865582519267ffffffffffffffff938481116107b05780600f926105b6826105b18654613203565b61382b565b8490601f83116001146107ea576000926107df575b505060001982861b92891b1c19161781555b6105e78154613203565b9384116107b0576105f9601e54613203565b601f811161074b575b50600091601f85116001146106855750600091849182610678575b505060001991921b92851b1c191617601e555b82541617905561064260085442613faf565b6007557f130bb2fe638478ab244a90fc4550e3d9f3401c2bd639012d7cb8d0cbe95266ef604051806106738161390d565b0390a1005b015491506000198861061d565b91905083601f1981949516601e6000527f50bb669a95c7b50b7e8a6f09454034b2b14cf2b85c730dca9a539ca82cb6e350936000905b8783831061071157505050106106d9575b5050811b01601e55610630565b7f8d1108e10bcb7c27dddfc02ed9d693a074039d026cf4ea4240b40f7d581ac802015460001960f884881b161c1916905585806106cc565b7f8d1108e10bcb7c27dddfc02ed9d693a074039d026cf4ea4240b40f7d581ac80286015487559586019590940193869350908101906106bb565b601e6000527f50bb669a95c7b50b7e8a6f09454034b2b14cf2b85c730dca9a539ca82cb6e350601f8601891c8101918487106107a6575b601f01891c019084905b82811061079a575050610602565b6000815501849061078c565b9091508190610782565b7f4e487b7100000000000000000000000000000000000000000000000000000000600052604160045260246000fd5b0151905089806105cb565b90601f1987941691856000527f8d1108e10bcb7c27dddfc02ed9d693a074039d026cf4ea4240b40f7d581ac8029260005b888282106108515750508411610839575b505050811b0181556105dd565b015160001960f8848c1b161c1916905589808061082c565b8385015186558a9790950194938401930161081b565b6064846040519062461bcd60e51b82526004820152601360248201527f5573657220646f6573206e6f74206578697374000000000000000000000000006044820152fd5b6108cb9150853d87116108d1575b6108c381836131ca565b81019061365b565b86610541565b503d6108b9565b6040513d6000823e3d90fd5b6064866040519062461bcd60e51b82526004820152600c60248201527f57524f4e475f53544154555300000000000000000000000000000000000000006044820152fd5b5060028414806104cb5750600384146104cb565b3461019257600060031936011261019257602073ffffffffffffffffffffffffffffffffffffffff60015416604051908152f35b34610192576109c16109ad61098d6109873661359b565b91613cb9565b505050602081519101206109a86109a3826141cd565b614182565b6142f3565b6040519182916020835260208301906133b2565b0390f35b34610192576020600319360112610192576109e46109a36004356141cd565b6109c16040516109ad816102be81613256565b3461019257606060031936011261019257600435801580158203610192576024803592610a22613fbc565b60ff90600593828554166008811015610fd757600303610f935760405195610a5487610a4d816132fb565b03886131ca565b86516020978801206044359003610f505773ffffffffffffffffffffffffffffffffffffffff60048882601a5416604051928380927f18da00110000000000000000000000000000000000000000000000000000000082525afa9081156108d857600091610f1b575b501690600b54906040517f808fc2060000000000000000000000000000000000000000000000000000000081528981600481875afa9081156108d857600091610eec575b50612710610b12610b1a9285613f8f565b048093613fa2565b9360075442118015610ee5575b15610d17575050610b7a610b588660095416604051610b49816102be816132fb565b8b8151910120600b54916140c1565b938660095416604051610b6e816102be81613256565b8b815191012090614044565b918560095416600381101580610ce95760018214908115610cdc575b8115610c9e575b5090610bad610bb2949392613bd2565b614e2d565b600a55600b5515610c9757806004935b54166008811015610c69576000526023845260406000209160ff19928381541690556008841015610c3c5750610c0e9360239184166000525260016040600020918254161790556136be565b7f130bb2fe638478ab244a90fc4550e3d9f3401c2bd639012d7cb8d0cbe95266ef604051806106738161390d565b7f4e487b710000000000000000000000000000000000000000000000000000000060005260216004526000fd5b827f4e487b710000000000000000000000000000000000000000000000000000000060005260216004526000fd5b8083610bc2565b9050610cae578015610bad610b9d565b877f4e487b710000000000000000000000000000000000000000000000000000000060005260216004526000fd5b5050600281146000610b96565b887f4e487b710000000000000000000000000000000000000000000000000000000060005260216004526000fd5b9295945095925050610d2557005b600a548411610ea257601754670de0b6b3a76400009081811015610e5f57610d4d9086613f8f565b0492610d598585613faf565b9183600954169060038210159081610c3c5760018314918215610e51575b8215610e3d575b505093610d9960239694610de1948994610bad8c9d99613bd2565b610dbe848260095416604051610db2816102be816132fb565b888151910120906147a1565b600b5560095416604051610dd5816102be81613256565b858151910120906147a1565b600a5560ff19938585815416178655600c55600d55836000525260406000206001828254161790558154161790557f1c9ee42116032ebac99a31ae475140077588d76949471dfb40a21a14ad523b2d604051806106738161390d565b909150610c3c57508015610d996023610d7e565b506002831491506000610d77565b6064886015856040519262461bcd60e51b845260048401528201527f50554e4953484d454e545f524154494f5f4849474800000000000000000000006044820152fd5b8560136064926040519262461bcd60e51b845260048401528201527f50554e4953484d454e545f544f4f5f48494748000000000000000000000000006044820152fd5b5085610b27565b90508981813d8311610f14575b610f0381836131ca565b810103126101925751612710610b01565b503d610ef9565b90508881813d8311610f49575b610f3281836131ca565b8101031261019257610f4390613c98565b89610abd565b503d610f28565b6064876011876040519262461bcd60e51b845260048401528201527f5641554c5449445f4e4f545f4d415443480000000000000000000000000000006044820152fd5b606484600d6040519162461bcd60e51b8352602060048401528201527f4e4f545f5355424d4954544544000000000000000000000000000000000000006044820152fd5b847f4e487b710000000000000000000000000000000000000000000000000000000060005260216004526000fd5b34610192576000600319360112610192576020600054604051908152f35b346101925760406003193601126101925767ffffffffffffffff600435818111610192576110559036906004016134e8565b9060243590611062613fbc565b61106e6109a3836141cd565b6040519161107f836103bc81613256565b8251602093840120036111c25782519081116107b057601f916110a28354613203565b838111611162575b50808383116001146110e257508192936000926110d7575b50506000198260011b9260031b1c1916179055005b0151905083806110c2565b90601f19831694846000527fa03837a25210ee280c2113ff4b77ca23440b19d4866cca721c801278fd08d807926000905b87821061114a575050836001959610611131575b505050811b019055005b015160001960f88460031b161c19169055838080611127565b80600185968294968601518155019501930190611113565b836000527fa03837a25210ee280c2113ff4b77ca23440b19d4866cca721c801278fd08d8078480850160051c8201928486106111b9575b0160051c01905b8181106111ad57506110aa565b600081556001016111a0565b92508192611199565b829192519081116107b0576111d78354613203565b601f8111611272575b508291601f8211600114611210579181926000926110d75750506000198260011b9260031b1c1916179055600080f35b601f19821692846000527fc97bfaf2f8ee708c303a06d134f5ecd8389ae0432af62dc132a24118292866bb9160005b8686821061125c575050836001951061113157505050811b019055005b600184958293958501518155019401920161123f565b836000527fc97bfaf2f8ee708c303a06d134f5ecd8389ae0432af62dc132a24118292866bb601f830160051c8101918584106112cb575b601f0160051c01905b8181106112bf57506111e0565b600081556001016112b2565b90915081906112a9565b346101925760006003193601126101925760206101e460ff60095416604051611301816102be81613256565b83815191012090613f69565b34610192576000600319360112610192576020611328613e67565b73ffffffffffffffffffffffffffffffffffffffff60405191168152f35b3461019257600060031936011261019257604051600060215461136881613203565b808452906001908181169081156113ed5750600114611392575b6109c1846109ad818603826131ca565b6021600090815292507f3a6357012c1a3ae0a17d304c9920310382d968ebcc4b1771f41c6b304205b5705b8284106113d55750505081016020016109ad82611382565b805460208587018101919091529093019281016113bd565b60ff191660208087019190915292151560051b850190920192506109ad9150839050611382565b3461019257600060031936011261019257602073ffffffffffffffffffffffffffffffffffffffff60025416604051908152f35b3461019257600060031936011261019257602060ff6005541661146e6040518092613382565bf35b346101925760006003193601126101925760206101e460ff60095416604051611301816102be816132fb565b346101925760806003193601126101925760043560038110156101925760243567ffffffffffffffff8111610192576114d99036906004016134e8565b6044359073ffffffffffffffffffffffffffffffffffffffff8216820361019257611502613fbc565b60ff60095416926003841015610329576115306102ad926115266020968414613bd2565b8460643591614cec565b928361153c8184613f69565b92614b34565b6101206003193601126101925760043567ffffffffffffffff81116101925761156f9036906004016134e8565b60056024351015610192576005604435101561019257600360a43510156101925760c43567ffffffffffffffff8111610192576115b09036906004016134e8565b73ffffffffffffffffffffffffffffffffffffffff60e4351660e43503610192576040516115dd816131ae565b6040516115e98161313e565b6000815281526020604051916115fe8361315a565b60405161160a81613176565b60008152600083820152600060408201526000606082015260006080820152600060a0820152835260405161163e81613192565b600081526000838201526000604082015260006060820152828401526040516116668161315a565b6060815260608382015260606040820152604084015201526000600160a43514908115611e9e575b8115611e8c575b50906116a36116b192613bd2565b610104359060e43590613cb9565b5090829392516020850120926000548403611e48576024602073ffffffffffffffffffffffffffffffffffffffff60195416604051928380927f38aad32c0000000000000000000000000000000000000000000000000000000082528960048301525afa9081156108d857600091611e29575b5015611de55760ff60055416600881101561032957600052602360205261175260ff60406000205416613610565b60843515611da1576117656044356131ed565b60ff604435166000526022602052604060002054906117a260843573ffffffffffffffffffffffffffffffffffffffff601c54168760a4356144cc565b60ff600554166008811015610329576000526023602052604060002060ff19815416905560016000526040600020600160ff19825416179055600160ff196005541617600555604051956117f58761313e565b86526040519261180484613176565b600184526118136024356131ed565b602435602085015242604085015260006060850152608084015261183c60a43560a085016131f7565b6040519061184982613192565b815260643560208201526000604082015260006060820152611869613c1d565b611871613c1d565b906040519361187f8561315a565b845260208401526040830152604051926118988461315a565b835260208301526040820152604051936118b1856131ae565b8085528160208601525160045580518051906008821015610329576118d760a0926136be565b60208101516118e5816131ed565b6118ee816131ed565b7fffffffffffffffffffffffffffffffffffffffffffffffffffffffffffff00ff61ff006005549260081b1691161760055560408101516006556060810151600755608081015160085501519060038210156103295760409160ff60ff1960095416911617600955606060208201518051600a556020810151600b5583810151600c550151600d550151805180519067ffffffffffffffff82116107b05781906119a28261199d600e54613203565b6137ba565b602090601f8311600114611d1c57600092611d11575b50506000198260011b9260031b1c191617600e555b602081015180519067ffffffffffffffff82116107b0576119f3826105b1600f54613203565b602090601f8311600114611c8657604093929160009183611c7b575b50506000198260011b9260031b1c191617600f555b015180519067ffffffffffffffff82116107b0578190611a4e82611a49601054613203565b613749565b602090601f8311600114611bf657600092611beb575b50506000198260011b9260031b1c1916176010555b6018549360001994858114611bbc5760010160185580519067ffffffffffffffff82116107b057611ab482611aaf601154613203565b61389c565b602090601f8311600114611b32579582916109c197600093611b27575b50508260011b9260031b1c1916176011555b6012556013557f5c0140b1f9412009d09b44a8920b411de7a75ebe8c087005130524935e0e457f60405180611b1884826135ee565b0390a1604051918291826135ee565b015191508780611ad1565b90601f1983169160116000527f31ecc21a745e3968a04e9570e4425bc18fa8019c68028196b546d1669c200c689260005b818110611ba45750916109c1989185600196959410611b8c575b50505050811b01601155611ae3565b01519060f88460031b161c1916905586808080611b7d565b92936020600181928786015181550195019301611b63565b7f4e487b7100000000000000000000000000000000000000000000000000000000600052601160045260246000fd5b015190508680611a64565b91601f19169160106000527f1b6847dc741a1b0cd08d278845f9d819d87b734759afb55fe2de5cb82a9ae6729260005b818110611c635750908460019594939210611c4a575b505050811b01601055611a79565b015160001960f88460031b161c19169055868080611c3c565b92936020600181928786015181550195019301611c26565b015190508880611a0f565b90600f6000527f8d1108e10bcb7c27dddfc02ed9d693a074039d026cf4ea4240b40f7d581ac8029160005b601f1985168110611cf9575091839160019383601f19604098971610611ce0575b505050811b01600f55611a24565b015160001960f88460031b161c19169055888080611cd2565b91926020600181928685015181550194019201611cb1565b0151905087806119b8565b91601f191691600e6000527fbb7b4a454dc3493923482f07822329ed19e8244eff582cc204f8554c3620c3fd9260005b818110611d895750908460019594939210611d70575b505050811b01600e556119cd565b015160001960f88460031b161c19169055878080611d62565b92936020600181928786015181550195019301611d4c565b606460405162461bcd60e51b815260206004820152601160248201527f5354414b455f414d4f554e545f5a45524f0000000000000000000000000000006044820152fd5b606460405162461bcd60e51b815260206004820152600e60248201527f555345525f4e4f545f45584953540000000000000000000000000000000000006044820152fd5b611e42915060203d6020116108d1576108c381836131ca565b86611724565b606460405162461bcd60e51b815260206004820152600960248201527f4e4f545f4f574e455200000000000000000000000000000000000000000000006044820152fd5b90506103295760a435156116a3611695565b505060a435600214600061168e565b3461019257611ebb3661359b565b611ec3613fbc565b60ff6005541690600882101561032957611f2092611efb9260005260209460238652611ef660ff60406000205416613610565b613cb9565b505050828151910120604051611f14816102be81613256565b83815191012014614461565b604051611f2c8161313e565b6000815260405190611f3d82613176565b60078252600083830152600060408301526000606083015260006080830152600060a083015260405191611f7083613192565b60008352600084840152600060408401526000606084015260405191611f958361315a565b604051611fa18161313e565b600081528352604051611fb38161313e565b6000815285840152604051611fc78161313e565b60008152604084015260405191611fdd8361315a565b8252848201938452604082019283528185604051611ffa816131ae565b8381520152516004555180519060088210156103295761201b60a0926136be565b84810151612028816131ed565b612031816131ed565b7fffffffffffffffffffffffffffffffffffffffffffffffffffffffffffff00ff61ff006005549260081b169116176005556040810151600655606081015160075560808101516008550151600392838210156103295760609160ff60ff1960095416911617600955518051600a5584810151600b556040810151600c550151600d5551805190815167ffffffffffffffff928382116107b05781906120dc8261199d600e54613203565b8690601f83116001146124cd576000926124c2575b50506000198260011b92861b1c191617600e555b838101518051908382116107b057612122826105b1600f54613203565b8590601f831160011461243a5760409392916000918361242f575b50506000198260011b92871b1c191617600f555b01519182518281116107b05761216c81611a49601054613203565b8493601f82116001146123ad5793819293946000926123a2575b50506000198260011b92841b1c1916176010555b6121a2613c1d565b9182518181116107b0576121c0816121bb601454613203565b6136d8565b8493601f8211600114612320579381929394600092612315575b50506000198260011b92851b1c1916176014555b60006015556000601655612200613c1d565b9283519182116107b05761221982611aaf601154613203565b80601f831160011461228a575081929360009361227d575b5050806000199160011b931b1c1916176011555b600060125560006013557f496685ed89450883d7ff0e8e3b71eb9dca092e7b9742b53ed4611b7522443e5e604051806106738161390d565b0151915060001984612231565b919290601f1984169460116000527f31ecc21a745e3968a04e9570e4425bc18fa8019c68028196b546d1669c200c68936000905b8782106122fd5750508480600197106122e2575b5050505050811b01601155612245565b6000199260f8920151931b161c1916905582808080846122d2565b806001859782949686015181550196019301906122be565b0151905085806121da565b601f1982169460146000527fce6d7b5282bd9a3661ae061feed1dbda4e52ab073b1f9285be6e155d9c38d4ec9160005b8888821061238c57505083600195969710612374575b505050811b016014556121ee565b015160001960f884881b161c19169055858080612366565b6001849582939585015181550194019201612350565b015190508580612186565b601f1982169460106000527f1b6847dc741a1b0cd08d278845f9d819d87b734759afb55fe2de5cb82a9ae6729160005b8888821061241957505083600195969710612401575b505050811b0160105561219a565b015160001960f884871b161c191690558580806123f3565b60018495829395850151815501940192016123dd565b01519050878061213d565b90601f19831691600f6000527f8d1108e10bcb7c27dddfc02ed9d693a074039d026cf4ea4240b40f7d581ac8029260005b898282106124ac575050916001939185604097969410612494575b505050811b01600f55612151565b015160001960f8848a1b161c19169055878080612486565b600185968293968601518155019501930161246b565b0151905086806120f1565b91601f191691600e6000527fbb7b4a454dc3493923482f07822329ed19e8244eff582cc204f8554c3620c3fd9260005b8982821061253b575050908460019594939210612523575b505050811b01600e55612105565b015160001960f884891b161c19169055868080612515565b60018596829396860151815501950193016124fd565b34610192576020806003193601126101925760165460043591811561262b576013549182156125e7576125a5604094855161258f816102be81613256565b84815191012081149081156125c9575b50614182565b83519273ffffffffffffffffffffffffffffffffffffffff80921684521690820152f35b905085516125da816102be816132fb565b848151910120148661259f565b6064826040519062461bcd60e51b82526004820152601960248201527f4e4f5f54454c454752414d5f49445f464f525f53454c4c4552000000000000006044820152fd5b6064906040519062461bcd60e51b82526004820152601860248201527f4e4f5f54454c454752414d5f49445f464f525f425559455200000000000000006044820152fd5b346101925761267d3661352f565b90612689939293613fbc565b60ff60055416916008831015918261032957836000526020956023875260ff6040600020541680612868575b916126ed9391611ef66126c794613610565b5050508581519101206040516126e0816102be81613256565b8681519101201415613673565b610329576004036128245780519167ffffffffffffffff83116107b05761271983611a49601054613203565b8092601f81116001146127a35780919293600091612798575b506000198260011b9260031b1c1916176010555b600660ff1960055416176005557f53d57d9d48dda1c6e6d0fc0b92d00b750b752f21cc973929ce8b4b60b374505e604051806127818161390d565b0390a16109c16040519282849384528301906133b2565b905083015184612732565b601f1981169360106000527f1b6847dc741a1b0cd08d278845f9d819d87b734759afb55fe2de5cb82a9ae6729060005b86811061280d5750826001949596106127f4575b5050811b01601055612746565b85015160001960f88460031b161c1916905584806127e7565b9091846001819285890151815501930191016127d3565b6064826040519062461bcd60e51b82526004820152600d60248201527f4e4f545f46494e414c495a4544000000000000000000000000000000000000006044820152fd5b5092509060009260038514801561289f575b84811561288b575b509192916126b5565b905091909161032957906004851484612882565b50600093506006851461287a565b60a06003193601126101925760043567ffffffffffffffff8111610192576128d99036906004016134e8565b60243573ffffffffffffffffffffffffffffffffffffffff81168103610192576003606435101561019257600160005260236020527fb361aea33a0348d043deace4a562cb920ac10508397ad80f12dfe9a2a063e0475461293c9060ff16613610565b60ff600954166003811015610329576129589060643514613bd2565b606435612d465761298634925b604051612975816102be81613256565b602081519101209260443591613cb9565b509290919384516020860120916064356000526024602052604060002081600052602052604060002054600a5411612d02576024602073ffffffffffffffffffffffffffffffffffffffff60195416604051928380927f38aad32c0000000000000000000000000000000000000000000000000000000082528860048301525afa9081156108d857600091612ce3575b5015612c9f57612a2890831415613673565b600b548015612bff5760843510612bbb57612a60915b73ffffffffffffffffffffffffffffffffffffffff601c5416906064356144cc565b600b5560058054600260ff19918216811790925560009190915260236020527f1bcb44d21c67d5659cdd5f45cd32c6d6c6d33d5044115600c6652ecd87939c0980549091166001179055825167ffffffffffffffff81116107b057612aca816121bb601454613203565b6020601f8211600114612b375781929394600092612b2c575b50506000198260011b9260031b1c1916176014555b6015556016557ff13f251f5172305eb93606c0071b9c48215d3ec6a6698a7fa987c18725488e7f604051806106738161390d565b015190508480612ae3565b601f1982169060146000527fce6d7b5282bd9a3661ae061feed1dbda4e52ab073b1f9285be6e155d9c38d4ec9160005b818110612ba357509583600195969710612b8a575b505050811b01601455612af8565b015160001960f88460031b161c19169055848080612b7c565b9192602060018192868b015181550194019201612b67565b606460405162461bcd60e51b815260206004820152601260248201527f4e4f545f454e4f5547485f5041594d454e5400000000000000000000000000006044820152fd5b503415612c5b5760843515612c1757612a6091612a3e565b606460405162461bcd60e51b815260206004820152600c60248201527f5a45524f5f5041594d454e5400000000000000000000000000000000000000006044820152fd5b606460405162461bcd60e51b815260206004820152600d60248201527f5a45524f5f4d534756414c5545000000000000000000000000000000000000006044820152fd5b606460405162461bcd60e51b815260206004820152600f60248201527f55534552545f4e4f545f455849535400000000000000000000000000000000006044820152fd5b612cfc915060203d6020116108d1576108c381836131ca565b87612a16565b606460405162461bcd60e51b815260206004820152600f60248201527f5354414b455f494e434f525245435400000000000000000000000000000000006044820152fd5b61298660843592612965565b34610192576040600319360112610192576004356003811015610192576101e460209160243590613f69565b34610192576000600319360112610192576020601854604051908152f35b346101925760006003193601126101925760206101e460ff60095416612df7612dda604051612dce816102be81613256565b85815191012083613f69565b91604051612deb816102be816132fb565b85815191012090613f69565b90613faf565b3461019257600060031936011261019257604051612e1a8161313e565b6004548152604051612e2b8161315a565b60405191612e3883613176565b60055460ff81169060088210156103295760ff91855260081c1692612e5c846131ed565b60209384820152600654604082015260075460608201526008546080820152612e8d60ff6009541660a083016131f7565b8252604051612e9b81613192565b600a548152600b5484820152600c546040820152600d5460608201528383015260405191612ec88361315a565b604051600e54939085816000612edd88613203565b808352600198808a169081156130f45750600114613098575b50612f03925003826131ca565b815260405185816000600f54612f1881613203565b8084529089811690811561307a575060011461301e575b50612f3c925003826131ca565b858201526040516000948660105491612f5483613203565b80855292818116908115612ffd5750600114612f9f575b505050612f7e816109c1959603826131ca565b604082015260408201526040805194859451855284015260408301906133d7565b9190965060106000527f1b6847dc741a1b0cd08d278845f9d819d87b734759afb55fe2de5cb82a9ae672916000925b828410612fea57505050810190940193612f7e866109c1612f6b565b80548585018a0152928801928101612fce565b60ff191683860152505090151560051b8201019450612f7e866109c1612f6b565b600f60009081529150887f8d1108e10bcb7c27dddfc02ed9d693a074039d026cf4ea4240b40f7d581ac8025b8284106130635750505091612f3c928201018892612f2f565b8054878501870152869450928501928a910161304a565b60ff19168486015250899390151560051b8301019050612f3c612f2f565b600e60009081529150887fbb7b4a454dc3493923482f07822329ed19e8244eff582cc204f8554c3620c3fd5b8284106130dd5750505091612f03928201018892612ef6565b8054878501870152869450928501928a91016130c4565b60ff19168486015250899390151560051b8301019050612f03612ef6565b34610192576000600319360112610192578061146e60209260ff600954165b9060038210156103295752565b6020810190811067ffffffffffffffff8211176107b057604052565b6060810190811067ffffffffffffffff8211176107b057604052565b60c0810190811067ffffffffffffffff8211176107b057604052565b6080810190811067ffffffffffffffff8211176107b057604052565b6040810190811067ffffffffffffffff8211176107b057604052565b90601f601f19910116810190811067ffffffffffffffff8211176107b057604052565b6005111561032957565b60038210156103295752565b90600182811c9216801561324c575b602083101461321d57565b7f4e487b7100000000000000000000000000000000000000000000000000000000600052602260045260246000fd5b91607f1691613212565b6011546000929161326682613203565b808252916001908181169081156132dd575060011461328457505050565b9192935060116000527f31ecc21a745e3968a04e9570e4425bc18fa8019c68028196b546d1669c200c68916000925b8484106132c557505060209250010190565b805460208585018101919091529093019281016132b3565b9050602094955060ff1991509291921683830152151560051b010190565b6014546000929161330b82613203565b808252916001908181169081156132dd575060011461332957505050565b9192935060146000527fce6d7b5282bd9a3661ae061feed1dbda4e52ab073b1f9285be6e155d9c38d4ec916000925b84841061336a57505060209250010190565b80546020858501810191909152909301928101613358565b9060088210156103295752565b60005b8381106133a25750506000910152565b8181015183820152602001613392565b90601f19601f6020936133d08151809281875287808801910161338f565b0116010190565b9060406134c99261342b60a082516133f0868251613382565b60208101516133fe816131ed565b602087015284810151858701526060810151606087015260808101516080870152015160a0850190613131565b60606020820151805160c0860152602081015160e08601528381015161010086015201516101208401520151906134786101608061014084015260608451918401526101c08301906133b2565b906101a060406134b96020860151947ffffffffffffffffffffffffffffffffffffffffffffffffffffffffffffffea09586868303016101808701526133b2565b94015192828503019101526133b2565b90565b67ffffffffffffffff81116107b057601f01601f191660200190565b81601f82011215610192578035906134ff826134cc565b9261350d60405194856131ca565b8284526020838301011161019257816000926020809301838601378301015290565b9060806003198301126101925767ffffffffffffffff600435818111610192578361355c916004016134e8565b9260243591821161019257613573916004016134e8565b9060443573ffffffffffffffffffffffffffffffffffffffff81168103610192579060643590565b6060600319820112610192576004359067ffffffffffffffff8211610192576135c6916004016134e8565b9060243573ffffffffffffffffffffffffffffffffffffffff81168103610192579060443590565b606060206134c9938184528051518285015201519160408082015201906133d7565b1561361757565b606460405162461bcd60e51b815260206004820152600e60248201527f494e56414c49445f5354415455530000000000000000000000000000000000006044820152fd5b90816020910312610192575180151581036101925790565b1561367a57565b606460405162461bcd60e51b815260206004820152601260248201527f594f555f4152455f5448455f53454c4c455200000000000000000000000000006044820152fd5b60088110156103295760ff60ff1960055416911617600555565b601f81116136e4575050565b600090601482527fce6d7b5282bd9a3661ae061feed1dbda4e52ab073b1f9285be6e155d9c38d4ec906020601f850160051c8301941061373f575b601f0160051c01915b82811061373457505050565b818155600101613728565b909250829061371f565b601f8111613755575050565b600090601082527f1b6847dc741a1b0cd08d278845f9d819d87b734759afb55fe2de5cb82a9ae672906020601f850160051c830194106137b0575b601f0160051c01915b8281106137a557505050565b818155600101613799565b9092508290613790565b601f81116137c6575050565b600090600e82527fbb7b4a454dc3493923482f07822329ed19e8244eff582cc204f8554c3620c3fd906020601f850160051c83019410613821575b601f0160051c01915b82811061381657505050565b81815560010161380a565b9092508290613801565b601f8111613837575050565b600090600f82527f8d1108e10bcb7c27dddfc02ed9d693a074039d026cf4ea4240b40f7d581ac802906020601f850160051c83019410613892575b601f0160051c01915b82811061388757505050565b81815560010161387b565b9092508290613872565b601f81116138a8575050565b600090601182527f31ecc21a745e3968a04e9570e4425bc18fa8019c68028196b546d1669c200c68906020601f850160051c83019410613903575b601f0160051c01915b8281106138f857505050565b8181556001016138ec565b90925082906138e3565b60208082526004548183015260408083015260ff60055461393360608501838316613382565b60081c16613940816131ed565b608083015260065460a083015260075460c083015260085460e083015261397160ff60095416610100840190613131565b600a54610120830152600b54610140830152600c546101609081840152600d546101808401526101a083015260606101c0830152600091600e54906139b582613203565b806102208301526001928381169081600014613bb35750600114613b55575b507ffffffffffffffffffffffffffffffffffffffffffffffffffffffffffffffe4080828603016101e0830152600094600f5490613a1182613203565b80825291858116908115613b385750600114613ada575b5050610200908286030191015260009260105491613a4583613203565b80835292818116908115613abd5750600114613a63575b5050505090565b9293509060106000527f1b6847dc741a1b0cd08d278845f9d819d87b734759afb55fe2de5cb82a9ae67292846000945b838610613aa95750505050010138808080613a5c565b805485870183015294019385908201613a93565b60ff191685840152505090151560051b0101905038808080613a5c565b8591929650600f6000527f8d1108e10bcb7c27dddfc02ed9d693a074039d026cf4ea4240b40f7d581ac80290856000925b858410613b22575050010194905061020038613a28565b8054838501860152889490930192879101613b0b565b60ff1916828801525090151560051b018401945061020038613a28565b909350600e6000527fbb7b4a454dc3493923482f07822329ed19e8244eff582cc204f8554c3620c3fd83836000925b848410613b9d57505050610240915084010192386139d4565b8054610240858a01015201910190838591613b84565b9295505060ff19610240921682860152151560051b84010192386139d4565b15613bd957565b606460405162461bcd60e51b815260206004820152600b60248201527f57524f4e475f544f4b454e0000000000000000000000000000000000000000006044820152fd5b60405190613c2a826131ae565b600482527f30783030000000000000000000000000000000000000000000000000000000006020830152565b81601f82011215610192578051613c6c816134cc565b92613c7a60405194856131ca565b81845260208284010111610192576134c9916020808501910161338f565b519073ffffffffffffffffffffffffffffffffffffffff8216820361019257565b9092613d199273ffffffffffffffffffffffffffffffffffffffff9485601b541693604094855197889788937f7276069d0000000000000000000000000000000000000000000000000000000085526060600486015260648501906133b2565b9316602483015283604483015281600098899403915afa928315613e325785918680968196613db4575b508286805181010312613db15750613d5d60208601613c98565b508185015103613d6e575093929190565b6064905162461bcd60e51b815260206004820152600b60248201527f57524f4e475f4e4f4e43450000000000000000000000000000000000000000006044820152fd5b80fd5b97509450915093503d8084873e613dcb81876131ca565b850193608086860312613e2e5785519167ffffffffffffffff92838111613e2a5786613df8918901613c56565b9560208801519383890151986060810151918211613e2657613e1b929101613c56565b959296959438613d43565b8780fd5b8580fd5b8380fd5b513d86823e3d90fd5b90816020910312610192575173ffffffffffffffffffffffffffffffffffffffff811681036101925790565b60ff6009541660038110156103295760018103613f0257506004602073ffffffffffffffffffffffffffffffffffffffff601a5416604051928380927ff77800e50000000000000000000000000000000000000000000000000000000082525afa9081156108d857600091613eda575090565b6134c9915060203d8111613efb575b613ef381836131ca565b810190613e3b565b503d613ee9565b600203613f64576004602073ffffffffffffffffffffffffffffffffffffffff601a5416604051928380927fbe22f5460000000000000000000000000000000000000000000000000000000082525afa9081156108d857600091613eda575090565b600090565b600381101561032957600052602460205260406000209060005260205260406000205490565b81810292918115918404141715611bbc57565b91908203918211611bbc57565b91908201809211611bbc57565b73ffffffffffffffffffffffffffffffffffffffff601c54163303613fdd57565b606460405162461bcd60e51b815260206004820152600a60248201527f4f4e4c595f5641554c54000000000000000000000000000000000000000000006044820152fd5b90949392606092614036836080810198613131565b602083015260408201520152565b91906003831015610329576040926140bb7ffc75911105c5435503d8ce6e41bf92051ed6da32a2077c1a8f73e1d251f64cde9360009083825260246020528682208583526020526140988188842054613faf565b809783868395526024602052818120888252602052205560405194859485614021565b0390a190565b600381101561032957600081815260246020526040938482208483526020528482205481811061413f5791818661411e6140bb947f77008762ca31a384e88f2217752cdef978440c9ad826b7b891c59a8e61281a31989796613fa2565b80988487839652602460205281812089825260205220555194859485614021565b6064865162461bcd60e51b815260206004820152601460248201527f494e53554646494349454e545f4445504f5349540000000000000000000000006044820152fd5b1561418957565b606460405162461bcd60e51b815260206004820152601760248201527f4e4f545f5448455f53454c4c45525f4f525f42555945520000000000000000006044820152fd5b6040516141dd816102be81613256565b602081519101206040516141f4816102be816132fb565b6020815191012090821491821561420a57505090565b14919050565b9061421b9291613cb9565b50505080516020809201206040908151614238816102be81613256565b838151910120811480156142d6575b1561429357815161425b816102be81613256565b8051908401200361428457519061427c8261427581613256565b03836131ca565b815191012090565b519061427c82614275816132fb565b60648383519062461bcd60e51b82526004820152601360248201527f4e4f545f53454c4c45525f4f525f4255594552000000000000000000000000006044820152fd5b5081516142e6816102be816132fb565b8381519101208114614247565b604051906143048261427581613256565b8151602092830120036143cc5760405190816000601f5461432481613203565b808452906001908181169081156143ab575060011461434c575b50506134c9925003826131ca565b90939150601f6000527fa03837a25210ee280c2113ff4b77ca23440b19d4866cca721c801278fd08d807936000915b8183106143935750506134c99350820101388061433e565b8554878401850152948501948694509183019161437b565b90506134c995935060ff1991501682840152151560051b820101388061433e565b6040519081600082546143de81613203565b808452906001908181169081156143ab57506001146144055750506134c9925003826131ca565b60008581527fc97bfaf2f8ee708c303a06d134f5ecd8389ae0432af62dc132a24118292866bb95935091905b8183106144495750506134c99350820101388061433e565b85548784018501529485019486945091830191614431565b1561446857565b606460405162461bcd60e51b815260206004820152600a60248201527f4e4f545f53454c4c4552000000000000000000000000000000000000000000006044820152fd5b6040906144ca93959492956060820196825260208201520190613131565b565b929060ff600554166008811015610329578060026144f39214159081614765575b50613610565b8115614721576003841015610329578315801561454a575b507f7d53254b9393ec490c848e90ed920cf3b18c2151daa4b322875f24dd6301206c92506140bb61453d838387614044565b94604051938493846144ac565b6001851460008115614716575b8115614706575b506145699150613bd2565b61457284614dd7565b9273ffffffffffffffffffffffffffffffffffffffff9384918261459588614dd7565b16906040519384917fdd62ed3e000000000000000000000000000000000000000000000000000000008352169182600483015230602483015281604460209687935afa80156108d85786916000916146d6575b5010614692579060648392600060405198899485937f23b872dd0000000000000000000000000000000000000000000000000000000085526004850152306024850152896044850152165af180156108d8577f7d53254b9393ec490c848e90ed920cf3b18c2151daa4b322875f24dd6301206c9461466f92600092614675575b5050614d8c565b3861450b565b61468b9250803d106108d1576108c381836131ca565b3880614668565b6064836040519062461bcd60e51b82526004820152601660248201527f494e53554646494349454e545f414c4c4f57414e4345000000000000000000006044820152fd5b91508482813d83116146ff575b6146ed81836131ca565b81010312613db15750859051386145e8565b503d6146e3565b905061032957614569903861455e565b600287149150614557565b606460405162461bcd60e51b815260206004820152600e60248201527f5354414b455f52455155495245440000000000000000000000000000000000006044820152fd5b600391501415386144ed565b3d1561479c573d90614782826134cc565b9161479060405193846131ca565b82523d6000602084013e565b606090565b91906147ae8282856140c1565b92600381101561032957806148f2575090600473ffffffffffffffffffffffffffffffffffffffff602081601a5416604051938480927f18da00110000000000000000000000000000000000000000000000000000000082525afa80156108d85783926000916148ab575b506000809381938293165af161482d614771565b5015614867577f44e7d684df94a05f40ae4ea3f03cbd42ce0647bd9d92e4105e296c10088f41aa916040915b82519182526020820152a190565b606460405162461bcd60e51b815260206004820152600b60248201527f43414c4c5f4641494c45440000000000000000000000000000000000000000006044820152fd5b9192506020823d82116148ea575b816148c6602093836131ca565b81010312613db157506000808481946148df8395613c98565b935093509350614819565b3d91506148b9565b60028103614a2d575073ffffffffffffffffffffffffffffffffffffffff9081600354169282601a54166040519384917f18da001100000000000000000000000000000000000000000000000000000000835282600460209788935afa80156108d85785926000916149f4575b50604490600060405198899485937fa9059cbb0000000000000000000000000000000000000000000000000000000085521660048401528660248401525af19283156108d8577f44e7d684df94a05f40ae4ea3f03cbd42ce0647bd9d92e4105e296c10088f41aa946040946149d6575b5050614859565b816149ec92903d106108d1576108c381836131ca565b5038806149cf565b919282813d8311614a26575b614a0a81836131ca565b81010312613db15750906044614a208693613c98565b9061495f565b503d614a00565b907f44e7d684df94a05f40ae4ea3f03cbd42ce0647bd9d92e4105e296c10088f41aa9260016040930361485957614a6381614a68565b614859565b6020600091602473ffffffffffffffffffffffffffffffffffffffff600254169160405194859384927f42966c6800000000000000000000000000000000000000000000000000000000845260048401525af19081156108d857600091614b16575b5015614ad257565b606460405162461bcd60e51b815260206004820152601060248201527f6d757365206275726e206661696c6564000000000000000000000000000000006044820152fd5b614b2e915060203d81116108d1576108c381836131ca565b38614aca565b92909160ff60055416600881101561032957806002614b5b92141590816147655750613610565b60038410156103295783614bd1576000808084819482908215614bc7575b73ffffffffffffffffffffffffffffffffffffffff1690f1156108d8577ff710aed018092bd38ab8d98fe9aa682f6b3aa552004e37cb2e0d6e3e669582ee915b6140bb61453d8383876140c1565b6108fc9150614b79565b916001841460008115614ce1575b8115614cd3575b5082614c7194614bf7602093613bd2565b73ffffffffffffffffffffffffffffffffffffffff614c1588614dd7565b169060006040518098819582947fa9059cbb000000000000000000000000000000000000000000000000000000008452600484016020909392919373ffffffffffffffffffffffffffffffffffffffff60408201951681520152565b03925af19283156108d8577ff710aed018092bd38ab8d98fe9aa682f6b3aa552004e37cb2e0d6e3e669582ee93614cb091600091614cb5575b50614d8c565b614bb9565b614ccd915060203d81116108d1576108c381836131ca565b38614caa565b905061032957600082614be6565b600286149150614bdf565b90614cf79291613cb9565b50505060208151910120604051614d11816102be816132fb565b6020815191012081148015614d6d575b15614d295790565b606460405162461bcd60e51b815260206004820152600c60248201527f554e415554484f52495a454400000000000000000000000000000000000000006044820152fd5b50604051614d7e816102be81613256565b602081519101208114614d21565b15614d9357565b606460405162461bcd60e51b815260206004820152600f60248201527f5452414e534645525f4641494c454400000000000000000000000000000000006044820152fd5b60038110156103295760028114614e1057600114614df457600090565b73ffffffffffffffffffffffffffffffffffffffff6002541690565b5073ffffffffffffffffffffffffffffffffffffffff6003541690565b91909173ffffffffffffffffffffffffffffffffffffffff80601a54166040519485917f18da001100000000000000000000000000000000000000000000000000000000835282600460209889935afa9182156108d857600092614fb3575b506003841015610329578315614f4e575060028314928315614f43578260035416935b15614f2957506040517fa9059cbb00000000000000000000000000000000000000000000000000000000815290821673ffffffffffffffffffffffffffffffffffffffff1660048201526024810193909352839183916044918391600091165af19081156108d8576144ca92600092614675575050614d8c565b92505050600191925014614f3a5750565b6144ca90614a68565b826002541693614eaf565b60009490859450849390849350165af1614f66614771565b5015614f6f5750565b6064906040519062461bcd60e51b82526004820152601060248201527f5472616e73666572206661696c65642e000000000000000000000000000000006044820152fd5b90918682813d8311614fe3575b614fca81836131ca565b81010312613db15750614fdc90613c98565b9038614e8c565b503d614fc056fea264697066735822122054c146a1f4e634b7a959e4276c045ecf7a93de237259b8f547086054fb21d85f64736f6c63430008130033",
  "devdoc": {
    "kind": "dev",
    "methods": {},
    "version": 1
  },
  "userdoc": {
    "kind": "user",
    "methods": {},
    "version": 1
  },
  "storageLayout": {
    "storage": [
      {
        "astId": 5483,
        "contract": "contracts/features/MecenateFeed.sol:MecenateFeed",
        "label": "owner",
        "offset": 0,
        "slot": "0",
        "type": "t_bytes32"
      },
      {
        "astId": 5485,
        "contract": "contracts/features/MecenateFeed.sol:MecenateFeed",
        "label": "WETH",
        "offset": 0,
        "slot": "1",
        "type": "t_address"
      },
      {
        "astId": 5487,
        "contract": "contracts/features/MecenateFeed.sol:MecenateFeed",
        "label": "MUSE",
        "offset": 0,
        "slot": "2",
        "type": "t_address"
      },
      {
        "astId": 5489,
        "contract": "contracts/features/MecenateFeed.sol:MecenateFeed",
        "label": "DAI",
        "offset": 0,
        "slot": "3",
        "type": "t_address"
      },
      {
        "astId": 5492,
        "contract": "contracts/features/MecenateFeed.sol:MecenateFeed",
        "label": "post",
        "offset": 0,
        "slot": "4",
        "type": "t_struct(Post)4898_storage"
      },
      {
        "astId": 5495,
        "contract": "contracts/features/MecenateFeed.sol:MecenateFeed",
        "label": "postSettingPrivate",
        "offset": 0,
        "slot": "17",
        "type": "t_struct(PostSettingPrivate)4944_storage"
      },
      {
        "astId": 5498,
        "contract": "contracts/features/MecenateFeed.sol:MecenateFeed",
        "label": "settings",
        "offset": 0,
        "slot": "23",
        "type": "t_struct(FeedSettings)4874_storage"
      },
      {
        "astId": 5502,
        "contract": "contracts/features/MecenateFeed.sol:MecenateFeed",
        "label": "postDurationToDays",
        "offset": 0,
        "slot": "34",
        "type": "t_mapping(t_uint8,t_uint256)"
      },
      {
        "astId": 5506,
        "contract": "contracts/features/MecenateFeed.sol:MecenateFeed",
        "label": "validStatuses",
        "offset": 0,
        "slot": "35",
        "type": "t_mapping(t_uint8,t_bool)"
      },
      {
        "astId": 5993,
        "contract": "contracts/features/MecenateFeed.sol:MecenateFeed",
        "label": "_deposit",
        "offset": 0,
        "slot": "36",
        "type": "t_mapping(t_uint256,t_mapping(t_bytes32,t_uint256))"
      }
    ],
    "types": {
      "t_address": {
        "encoding": "inplace",
        "label": "address",
        "numberOfBytes": "20"
      },
      "t_bool": {
        "encoding": "inplace",
        "label": "bool",
        "numberOfBytes": "1"
      },
      "t_bytes32": {
        "encoding": "inplace",
        "label": "bytes32",
        "numberOfBytes": "32"
      },
      "t_bytes_storage": {
        "encoding": "bytes",
        "label": "bytes",
        "numberOfBytes": "32"
      },
      "t_enum(PostStatus)4835": {
        "encoding": "inplace",
        "label": "enum Structures.PostStatus",
        "numberOfBytes": "1"
      },
      "t_enum(PostType)4845": {
        "encoding": "inplace",
        "label": "enum Structures.PostType",
        "numberOfBytes": "1"
      },
      "t_enum(Tokens)4839": {
        "encoding": "inplace",
        "label": "enum Structures.Tokens",
        "numberOfBytes": "1"
      },
      "t_mapping(t_bytes32,t_uint256)": {
        "encoding": "mapping",
        "key": "t_bytes32",
        "label": "mapping(bytes32 => uint256)",
        "numberOfBytes": "32",
        "value": "t_uint256"
      },
      "t_mapping(t_uint256,t_mapping(t_bytes32,t_uint256))": {
        "encoding": "mapping",
        "key": "t_uint256",
        "label": "mapping(uint256 => mapping(bytes32 => uint256))",
        "numberOfBytes": "32",
        "value": "t_mapping(t_bytes32,t_uint256)"
      },
      "t_mapping(t_uint8,t_bool)": {
        "encoding": "mapping",
        "key": "t_uint8",
        "label": "mapping(uint8 => bool)",
        "numberOfBytes": "32",
        "value": "t_bool"
      },
      "t_mapping(t_uint8,t_uint256)": {
        "encoding": "mapping",
        "key": "t_uint8",
        "label": "mapping(uint8 => uint256)",
        "numberOfBytes": "32",
        "value": "t_uint256"
      },
      "t_string_storage": {
        "encoding": "bytes",
        "label": "string",
        "numberOfBytes": "32"
      },
      "t_struct(FeedSettings)4874_storage": {
        "encoding": "inplace",
        "label": "struct Structures.FeedSettings",
        "members": [
          {
            "astId": 4853,
            "contract": "contracts/features/MecenateFeed.sol:MecenateFeed",
            "label": "punishmentRatio",
            "offset": 0,
            "slot": "0",
            "type": "t_uint256"
          },
          {
            "astId": 4855,
            "contract": "contracts/features/MecenateFeed.sol:MecenateFeed",
            "label": "postCount",
            "offset": 0,
            "slot": "1",
            "type": "t_uint256"
          },
          {
            "astId": 4857,
            "contract": "contracts/features/MecenateFeed.sol:MecenateFeed",
            "label": "usersModuleContract",
            "offset": 0,
            "slot": "2",
            "type": "t_address"
          },
          {
            "astId": 4859,
            "contract": "contracts/features/MecenateFeed.sol:MecenateFeed",
            "label": "factoryContract",
            "offset": 0,
            "slot": "3",
            "type": "t_address"
          },
          {
            "astId": 4861,
            "contract": "contracts/features/MecenateFeed.sol:MecenateFeed",
            "label": "verifierContract",
            "offset": 0,
            "slot": "4",
            "type": "t_address"
          },
          {
            "astId": 4863,
            "contract": "contracts/features/MecenateFeed.sol:MecenateFeed",
            "label": "vaultContract",
            "offset": 0,
            "slot": "5",
            "type": "t_address"
          },
          {
            "astId": 4865,
            "contract": "contracts/features/MecenateFeed.sol:MecenateFeed",
            "label": "router",
            "offset": 0,
            "slot": "6",
            "type": "t_address"
          },
          {
            "astId": 4867,
            "contract": "contracts/features/MecenateFeed.sol:MecenateFeed",
            "label": "encodedSymKey",
            "offset": 0,
            "slot": "7",
            "type": "t_bytes_storage"
          },
          {
            "astId": 4869,
            "contract": "contracts/features/MecenateFeed.sol:MecenateFeed",
            "label": "lastMessageForBuyer",
            "offset": 0,
            "slot": "8",
            "type": "t_bytes_storage"
          },
          {
            "astId": 4871,
            "contract": "contracts/features/MecenateFeed.sol:MecenateFeed",
            "label": "lastMessageForSeller",
            "offset": 0,
            "slot": "9",
            "type": "t_bytes_storage"
          },
          {
            "astId": 4873,
            "contract": "contracts/features/MecenateFeed.sol:MecenateFeed",
            "label": "version",
            "offset": 0,
            "slot": "10",
            "type": "t_string_storage"
          }
        ],
        "numberOfBytes": "352"
      },
      "t_struct(Post)4898_storage": {
        "encoding": "inplace",
        "label": "struct Structures.Post",
        "members": [
          {
            "astId": 4894,
            "contract": "contracts/features/MecenateFeed.sol:MecenateFeed",
            "label": "creator",
            "offset": 0,
            "slot": "0",
            "type": "t_struct(User)4956_storage"
          },
          {
            "astId": 4897,
            "contract": "contracts/features/MecenateFeed.sol:MecenateFeed",
            "label": "postdata",
            "offset": 0,
            "slot": "1",
            "type": "t_struct(PostData)4908_storage"
          }
        ],
        "numberOfBytes": "416"
      },
      "t_struct(PostData)4908_storage": {
        "encoding": "inplace",
        "label": "struct Structures.PostData",
        "members": [
          {
            "astId": 4901,
            "contract": "contracts/features/MecenateFeed.sol:MecenateFeed",
            "label": "settings",
            "offset": 0,
            "slot": "0",
            "type": "t_struct(PostSettings)4931_storage"
          },
          {
            "astId": 4904,
            "contract": "contracts/features/MecenateFeed.sol:MecenateFeed",
            "label": "escrow",
            "offset": 0,
            "slot": "5",
            "type": "t_struct(PostEscrow)4953_storage"
          },
          {
            "astId": 4907,
            "contract": "contracts/features/MecenateFeed.sol:MecenateFeed",
            "label": "data",
            "offset": 0,
            "slot": "9",
            "type": "t_struct(PostEncryptedData)4915_storage"
          }
        ],
        "numberOfBytes": "384"
      },
      "t_struct(PostEncryptedData)4915_storage": {
        "encoding": "inplace",
        "label": "struct Structures.PostEncryptedData",
        "members": [
          {
            "astId": 4910,
            "contract": "contracts/features/MecenateFeed.sol:MecenateFeed",
            "label": "encryptedData",
            "offset": 0,
            "slot": "0",
            "type": "t_bytes_storage"
          },
          {
            "astId": 4912,
            "contract": "contracts/features/MecenateFeed.sol:MecenateFeed",
            "label": "encryptedKey",
            "offset": 0,
            "slot": "1",
            "type": "t_bytes_storage"
          },
          {
            "astId": 4914,
            "contract": "contracts/features/MecenateFeed.sol:MecenateFeed",
            "label": "decryptedData",
            "offset": 0,
            "slot": "2",
            "type": "t_bytes_storage"
          }
        ],
        "numberOfBytes": "96"
      },
      "t_struct(PostEscrow)4953_storage": {
        "encoding": "inplace",
        "label": "struct Structures.PostEscrow",
        "members": [
          {
            "astId": 4946,
            "contract": "contracts/features/MecenateFeed.sol:MecenateFeed",
            "label": "stake",
            "offset": 0,
            "slot": "0",
            "type": "t_uint256"
          },
          {
            "astId": 4948,
            "contract": "contracts/features/MecenateFeed.sol:MecenateFeed",
            "label": "payment",
            "offset": 0,
            "slot": "1",
            "type": "t_uint256"
          },
          {
            "astId": 4950,
            "contract": "contracts/features/MecenateFeed.sol:MecenateFeed",
            "label": "punishment",
            "offset": 0,
            "slot": "2",
            "type": "t_uint256"
          },
          {
            "astId": 4952,
            "contract": "contracts/features/MecenateFeed.sol:MecenateFeed",
            "label": "penalty",
            "offset": 0,
            "slot": "3",
            "type": "t_uint256"
          }
        ],
        "numberOfBytes": "128"
      },
      "t_struct(PostSettingPrivate)4944_storage": {
        "encoding": "inplace",
        "label": "struct Structures.PostSettingPrivate",
        "members": [
          {
            "astId": 4933,
            "contract": "contracts/features/MecenateFeed.sol:MecenateFeed",
            "label": "vaultIdSeller",
            "offset": 0,
            "slot": "0",
            "type": "t_bytes_storage"
          },
          {
            "astId": 4935,
            "contract": "contracts/features/MecenateFeed.sol:MecenateFeed",
            "label": "sellerTwitterId",
            "offset": 0,
            "slot": "1",
            "type": "t_uint256"
          },
          {
            "astId": 4937,
            "contract": "contracts/features/MecenateFeed.sol:MecenateFeed",
            "label": "sellerTelegramId",
            "offset": 0,
            "slot": "2",
            "type": "t_uint256"
          },
          {
            "astId": 4939,
            "contract": "contracts/features/MecenateFeed.sol:MecenateFeed",
            "label": "vaultIdBuyer",
            "offset": 0,
            "slot": "3",
            "type": "t_bytes_storage"
          },
          {
            "astId": 4941,
            "contract": "contracts/features/MecenateFeed.sol:MecenateFeed",
            "label": "buyerTwitterId",
            "offset": 0,
            "slot": "4",
            "type": "t_uint256"
          },
          {
            "astId": 4943,
            "contract": "contracts/features/MecenateFeed.sol:MecenateFeed",
            "label": "buyerTelegramId",
            "offset": 0,
            "slot": "5",
            "type": "t_uint256"
          }
        ],
        "numberOfBytes": "192"
      },
      "t_struct(PostSettings)4931_storage": {
        "encoding": "inplace",
        "label": "struct Structures.PostSettings",
        "members": [
          {
            "astId": 4918,
            "contract": "contracts/features/MecenateFeed.sol:MecenateFeed",
            "label": "status",
            "offset": 0,
            "slot": "0",
            "type": "t_enum(PostStatus)4835"
          },
          {
            "astId": 4921,
            "contract": "contracts/features/MecenateFeed.sol:MecenateFeed",
            "label": "postType",
            "offset": 1,
            "slot": "0",
            "type": "t_enum(PostType)4845"
          },
          {
            "astId": 4923,
            "contract": "contracts/features/MecenateFeed.sol:MecenateFeed",
            "label": "creationTimeStamp",
            "offset": 0,
            "slot": "1",
            "type": "t_uint256"
          },
          {
            "astId": 4925,
            "contract": "contracts/features/MecenateFeed.sol:MecenateFeed",
            "label": "endTimeStamp",
            "offset": 0,
            "slot": "2",
            "type": "t_uint256"
          },
          {
            "astId": 4927,
            "contract": "contracts/features/MecenateFeed.sol:MecenateFeed",
            "label": "duration",
            "offset": 0,
            "slot": "3",
            "type": "t_uint256"
          },
          {
            "astId": 4930,
            "contract": "contracts/features/MecenateFeed.sol:MecenateFeed",
            "label": "tokenId",
            "offset": 0,
            "slot": "4",
            "type": "t_enum(Tokens)4839"
          }
        ],
        "numberOfBytes": "160"
      },
      "t_struct(User)4956_storage": {
        "encoding": "inplace",
        "label": "struct Structures.User",
        "members": [
          {
            "astId": 4955,
            "contract": "contracts/features/MecenateFeed.sol:MecenateFeed",
            "label": "vaultId",
            "offset": 0,
            "slot": "0",
            "type": "t_bytes32"
          }
        ],
        "numberOfBytes": "32"
      },
      "t_uint256": {
        "encoding": "inplace",
        "label": "uint256",
        "numberOfBytes": "32"
      },
      "t_uint8": {
        "encoding": "inplace",
        "label": "uint8",
        "numberOfBytes": "1"
      }
    }
  }
}