{
  "address": "0x7A4b27C69cD58596046D667B0e1DC547311edC77",
  "abi": [
    {
      "inputs": [
        {
          "internalType": "address",
          "name": "_usersModuleContract",
          "type": "address"
        },
        {
          "internalType": "address",
          "name": "_treasuryContract",
          "type": "address"
        },
        {
          "internalType": "address",
          "name": "_verifierContract",
          "type": "address"
        },
        {
          "internalType": "address",
          "name": "_vaultContract",
          "type": "address"
        }
      ],
      "stateMutability": "nonpayable",
      "type": "constructor"
    },
    {
      "anonymous": false,
      "inputs": [
        {
          "indexed": true,
          "internalType": "address",
          "name": "addr",
          "type": "address"
        }
      ],
      "name": "FeedCreated",
      "type": "event"
    },
    {
      "anonymous": false,
      "inputs": [
        {
          "indexed": true,
          "internalType": "address",
          "name": "previousOwner",
          "type": "address"
        },
        {
          "indexed": true,
          "internalType": "address",
          "name": "newOwner",
          "type": "address"
        }
      ],
      "name": "OwnershipTransferred",
      "type": "event"
    },
    {
      "inputs": [
        {
          "internalType": "bytes",
          "name": "sismoConnectResponse",
          "type": "bytes"
        },
        {
          "internalType": "address",
          "name": "_to",
          "type": "address"
        },
        {
          "internalType": "bytes32",
          "name": "_nonce",
          "type": "bytes32"
        }
      ],
      "name": "buildFeed",
      "outputs": [
        {
          "internalType": "address",
          "name": "",
          "type": "address"
        }
      ],
      "stateMutability": "payable",
      "type": "function"
    },
    {
      "inputs": [],
      "name": "burnEnabled",
      "outputs": [
        {
          "internalType": "bool",
          "name": "",
          "type": "bool"
        }
      ],
      "stateMutability": "view",
      "type": "function"
    },
    {
      "inputs": [
        {
          "internalType": "address",
          "name": "_treasury",
          "type": "address"
        },
        {
          "internalType": "address",
          "name": "_vault",
          "type": "address"
        },
        {
          "internalType": "address",
          "name": "_usersModule",
          "type": "address"
        },
        {
          "internalType": "address",
          "name": "_wethToken",
          "type": "address"
        },
        {
          "internalType": "address",
          "name": "_museToken",
          "type": "address"
        },
        {
          "internalType": "address",
          "name": "_daiToken",
          "type": "address"
        },
        {
          "internalType": "address",
          "name": "_router",
          "type": "address"
        }
      ],
      "name": "changeMultipleSettings",
      "outputs": [],
      "stateMutability": "nonpayable",
      "type": "function"
    },
    {
      "inputs": [
        {
          "internalType": "string",
          "name": "_version",
          "type": "string"
        }
      ],
      "name": "changeVersion",
      "outputs": [],
      "stateMutability": "nonpayable",
      "type": "function"
    },
    {
      "inputs": [],
      "name": "contractCounter",
      "outputs": [
        {
          "internalType": "uint256",
          "name": "",
          "type": "uint256"
        }
      ],
      "stateMutability": "view",
      "type": "function"
    },
    {
      "inputs": [],
      "name": "daiToken",
      "outputs": [
        {
          "internalType": "address",
          "name": "",
          "type": "address"
        }
      ],
      "stateMutability": "view",
      "type": "function"
    },
    {
      "inputs": [
        {
          "internalType": "address",
          "name": "_feed",
          "type": "address"
        }
      ],
      "name": "getFeedInfo",
      "outputs": [
        {
          "components": [
            {
              "internalType": "address",
              "name": "contractAddress",
              "type": "address"
            },
            {
              "internalType": "bytes32",
              "name": "operator",
              "type": "bytes32"
            },
            {
              "internalType": "uint256",
              "name": "sellerStake",
              "type": "uint256"
            },
            {
              "internalType": "uint256",
              "name": "buyerStake",
              "type": "uint256"
            },
            {
              "internalType": "uint256",
              "name": "totalStake",
              "type": "uint256"
            },
            {
              "internalType": "uint256",
              "name": "postCount",
              "type": "uint256"
            },
            {
              "internalType": "uint256",
              "name": "paymentRequested",
              "type": "uint256"
            },
            {
              "internalType": "uint256",
              "name": "stakeRequested",
              "type": "uint256"
            },
            {
              "internalType": "enum Structures.PostStatus",
              "name": "status",
              "type": "uint8"
            },
            {
              "internalType": "enum Structures.Tokens",
              "name": "tokenId",
              "type": "uint8"
            }
          ],
          "internalType": "struct Structures.Feed",
          "name": "",
          "type": "tuple"
        }
      ],
      "stateMutability": "view",
      "type": "function"
    },
    {
      "inputs": [],
      "name": "getFeeds",
      "outputs": [
        {
          "internalType": "address[]",
          "name": "",
          "type": "address[]"
        }
      ],
      "stateMutability": "view",
      "type": "function"
    },
    {
      "inputs": [],
      "name": "getFeedsInfo",
      "outputs": [
        {
          "components": [
            {
              "internalType": "address",
              "name": "contractAddress",
              "type": "address"
            },
            {
              "internalType": "bytes32",
              "name": "operator",
              "type": "bytes32"
            },
            {
              "internalType": "uint256",
              "name": "sellerStake",
              "type": "uint256"
            },
            {
              "internalType": "uint256",
              "name": "buyerStake",
              "type": "uint256"
            },
            {
              "internalType": "uint256",
              "name": "totalStake",
              "type": "uint256"
            },
            {
              "internalType": "uint256",
              "name": "postCount",
              "type": "uint256"
            },
            {
              "internalType": "uint256",
              "name": "paymentRequested",
              "type": "uint256"
            },
            {
              "internalType": "uint256",
              "name": "stakeRequested",
              "type": "uint256"
            },
            {
              "internalType": "enum Structures.PostStatus",
              "name": "status",
              "type": "uint8"
            },
            {
              "internalType": "enum Structures.Tokens",
              "name": "tokenId",
              "type": "uint8"
            }
          ],
          "internalType": "struct Structures.Feed[]",
          "name": "",
          "type": "tuple[]"
        }
      ],
      "stateMutability": "view",
      "type": "function"
    },
    {
      "inputs": [
        {
          "internalType": "bytes32",
          "name": "vaultId",
          "type": "bytes32"
        }
      ],
      "name": "getFeedsInfoOwned",
      "outputs": [
        {
          "components": [
            {
              "internalType": "address",
              "name": "contractAddress",
              "type": "address"
            },
            {
              "internalType": "bytes32",
              "name": "operator",
              "type": "bytes32"
            },
            {
              "internalType": "uint256",
              "name": "sellerStake",
              "type": "uint256"
            },
            {
              "internalType": "uint256",
              "name": "buyerStake",
              "type": "uint256"
            },
            {
              "internalType": "uint256",
              "name": "totalStake",
              "type": "uint256"
            },
            {
              "internalType": "uint256",
              "name": "postCount",
              "type": "uint256"
            },
            {
              "internalType": "uint256",
              "name": "paymentRequested",
              "type": "uint256"
            },
            {
              "internalType": "uint256",
              "name": "stakeRequested",
              "type": "uint256"
            },
            {
              "internalType": "enum Structures.PostStatus",
              "name": "status",
              "type": "uint8"
            },
            {
              "internalType": "enum Structures.Tokens",
              "name": "tokenId",
              "type": "uint8"
            }
          ],
          "internalType": "struct Structures.Feed[]",
          "name": "",
          "type": "tuple[]"
        }
      ],
      "stateMutability": "view",
      "type": "function"
    },
    {
      "inputs": [
        {
          "internalType": "bytes32",
          "name": "vaultId",
          "type": "bytes32"
        }
      ],
      "name": "getFeedsOwned",
      "outputs": [
        {
          "internalType": "address[]",
          "name": "",
          "type": "address[]"
        }
      ],
      "stateMutability": "view",
      "type": "function"
    },
    {
      "inputs": [
        {
          "internalType": "uint8",
          "name": "tokenId",
          "type": "uint8"
        }
      ],
      "name": "getRouterFee",
      "outputs": [
        {
          "internalType": "uint24",
          "name": "",
          "type": "uint24"
        }
      ],
      "stateMutability": "view",
      "type": "function"
    },
    {
      "inputs": [],
      "name": "identityContract",
      "outputs": [
        {
          "internalType": "address",
          "name": "",
          "type": "address"
        }
      ],
      "stateMutability": "view",
      "type": "function"
    },
    {
      "inputs": [
        {
          "internalType": "address",
          "name": "contractAddress",
          "type": "address"
        }
      ],
      "name": "isContractCreated",
      "outputs": [
        {
          "internalType": "bool",
          "name": "",
          "type": "bool"
        }
      ],
      "stateMutability": "view",
      "type": "function"
    },
    {
      "inputs": [
        {
          "internalType": "address",
          "name": "_feed",
          "type": "address"
        }
      ],
      "name": "isFeed",
      "outputs": [
        {
          "internalType": "bool",
          "name": "",
          "type": "bool"
        }
      ],
      "stateMutability": "view",
      "type": "function"
    },
    {
      "inputs": [],
      "name": "museToken",
      "outputs": [
        {
          "internalType": "address",
          "name": "",
          "type": "address"
        }
      ],
      "stateMutability": "view",
      "type": "function"
    },
    {
      "inputs": [],
      "name": "owner",
      "outputs": [
        {
          "internalType": "address",
          "name": "",
          "type": "address"
        }
      ],
      "stateMutability": "view",
      "type": "function"
    },
    {
      "inputs": [],
      "name": "renounceOwnership",
      "outputs": [],
      "stateMutability": "nonpayable",
      "type": "function"
    },
    {
      "inputs": [],
      "name": "router",
      "outputs": [
        {
          "internalType": "address",
          "name": "",
          "type": "address"
        }
      ],
      "stateMutability": "view",
      "type": "function"
    },
    {
      "inputs": [
        {
          "internalType": "bool",
          "name": "_burnEnabled",
          "type": "bool"
        }
      ],
      "name": "setBurnEnabled",
      "outputs": [],
      "stateMutability": "nonpayable",
      "type": "function"
    },
    {
      "inputs": [
        {
          "internalType": "bytes",
          "name": "_byteCode",
          "type": "bytes"
        }
      ],
      "name": "setFeedByteCode",
      "outputs": [],
      "stateMutability": "nonpayable",
      "type": "function"
    },
    {
      "inputs": [
        {
          "internalType": "uint8",
          "name": "tokenId",
          "type": "uint8"
        },
        {
          "internalType": "uint24",
          "name": "fee",
          "type": "uint24"
        }
      ],
      "name": "setRouterFee",
      "outputs": [],
      "stateMutability": "nonpayable",
      "type": "function"
    },
    {
      "inputs": [
        {
          "internalType": "address",
          "name": "newOwner",
          "type": "address"
        }
      ],
      "name": "transferOwnership",
      "outputs": [],
      "stateMutability": "nonpayable",
      "type": "function"
    },
    {
      "inputs": [],
      "name": "treasuryContract",
      "outputs": [
        {
          "internalType": "address",
          "name": "",
          "type": "address"
        }
      ],
      "stateMutability": "view",
      "type": "function"
    },
    {
      "inputs": [],
      "name": "version",
      "outputs": [
        {
          "internalType": "string",
          "name": "",
          "type": "string"
        }
      ],
      "stateMutability": "view",
      "type": "function"
    },
    {
      "inputs": [],
      "name": "wethToken",
      "outputs": [
        {
          "internalType": "address",
          "name": "",
          "type": "address"
        }
      ],
      "stateMutability": "view",
      "type": "function"
    },
    {
      "stateMutability": "payable",
      "type": "receive"
    }
  ],
  "transactionHash": "0xd7915c112cbe06e2d5f1c1bc583619b884aaef67b2dc637422288b24f594cde5",
  "args": [
    "0x0CC0fD8e82eB9ea3b292082901cDe04195634D1b",
    "0xb679FdcaC090FFC4848d9709C705241867B0d78A",
    "0x532b83F2539B8bAdF489C9F35ae5b87a73EBa12d",
    "0x0000000000000000000000000000000000000000"
  ],
  "numDeployments": 1,
  "solcInputHash": "1c44eacd89272d51fa104e5a7d17594c",
  "bytecode": "0x6080346200010657601f62001db138819003918201601f19168301916001600160401b038311848410176200010b5780849260809460405283398101031262000106576200004d8162000121565b906200005c6020820162000121565b620000786060620000706040850162000121565b930162000121565b6000549360018060a01b03199333858716176000556040519560018060a01b03948580948193823391167f8be0079c531659141344cd1fd0a4f28419497f9722a3daafe3b4186f6b6457e0600080a360ff196011541660115516876007541617600755168560065416176006551683600854161760085516906009541617600955611c7a9081620001378239f35b600080fd5b634e487b7160e01b600052604160045260246000fd5b51906001600160a01b0382168203620001065756fe6080604052600436101561001b575b361561001957600080fd5b005b60003560e01c8063067bd3b4146101b657806318da0011146101b1578063237b0d3c146101ac5780634b57b0be146101a757806354600837146101a257806354fd4d501461019d5780635dc96d161461019857806364bb432c1461019357806367031bae1461018e5780636d944e6014610189578063715018a6146101845780637b2c835f1461017f5780637fe955d41461017a5780638da5cb5b14610175578063a6fbd9b014610170578063be22f5461461016b578063ca16721914610166578063cedf3ba214610157578063d223a56414610161578063d570a66d1461015c578063e58fdd0414610157578063e86ef35314610152578063e9318b471461014d578063f2fde38b14610148578063f77800e5146101435763f887ea400361000e576110ec565b6110c3565b610ffc565b610fa8565b610f2d565b610e62565b610eed565b610eb4565b610b7b565b610b52565b610a40565b610a06565b61098b565b610951565b6108ec565b61086f565b61074c565b610635565b610612565b610545565b610438565b6103cb565b6102b0565b6101d9565b346101d45760003660031901126101d4576020600354604051908152f35b600080fd5b346101d45760003660031901126101d4576006546040516001600160a01b039091168152602090f35b634e487b7160e01b600052604160045260246000fd5b90601f8019910116810190811067ffffffffffffffff82111761023a57604052565b610202565b67ffffffffffffffff811161023a57601f01601f191660200190565b9291926102678261023f565b916102756040519384610218565b8294818452818301116101d4578281602093846000960137010152565b9080601f830112156101d4578160206102ad9335910161025b565b90565b346101d4576020806003193601126101d45767ffffffffffffffff6004358181116101d4576102e3903690600401610292565b916102ec611115565b825191821161023a57610309826103046002546104b2565b611184565b80601f831160011461034457508192600092610339575b5050600019600383901b1c191660019190911b17600255005b015190503880610320565b90601f1983169361037760026000527f405787fa12a823e0f2b7631cc41b3ba8828b3321ca811111fa75cd3aa3bb5ace90565b926000905b8682106103b3575050836001951061039a575b505050811b01600255005b015160001960f88460031b161c1916905538808061038f565b8060018596829496860151815501950193019061037c565b346101d45760003660031901126101d457600c546040516001600160a01b039091168152602090f35b6020908160408183019282815285518094520193019160005b82811061041b575050505090565b83516001600160a01b03168552938101939281019260010161040d565b346101d4576020806003193601126101d457600435600052600f8152604060002090604051908181845491828152019360005281600020916000905b82821061049b576104978561048b81890382610218565b604051918291826103f4565b0390f35b835486529485019460019384019390910190610474565b90600182811c921680156104e2575b60208310146104cc57565b634e487b7160e01b600052602260045260246000fd5b91607f16916104c1565b60005b8381106104ff5750506000910152565b81810151838201526020016104ef565b90602091610528815180928185528580860191016104ec565b601f01601f1916010190565b9060206102ad92818152019061050f565b346101d45760008060031936011261060f576040519080600180549161056a836104b2565b808652928281169081156105e5575060011461059d575b6104978561059181870382610218565b60405191829182610534565b9250808352600080516020611c258339815191525b8284106105cd57505050810160200161059182610497610581565b805460208587018101919091529093019281016105b2565b8695506104979693506020925061059194915060ff191682840152151560051b8201019293610581565b80fd5b346101d45760003660031901126101d457602060ff601154166040519015158152f35b346101d4576020806003193601126101d45767ffffffffffffffff906004358281116101d457366023820112156101d45761067a90369060248160040135910161025b565b91610683611115565b825190811161023a576001916106a28261069d85546104b2565b6111e5565b80601f83116001146106da57508192936000926106cf575b5050600019600383901b1c191690821b179055005b0151905038806106ba565b90601f198316946106fb6001600052600080516020611c2583398151915290565b926000905b8782106107355750508385961061071c575b505050811b019055005b015160001960f88460031b161c19169055388080610712565b808785968294968601518155019501930190610700565b346101d45760003660031901126101d4576008546040516001600160a01b039091168152602090f35b634e487b7160e01b600052602160045260246000fd5b9060088210156107985752565b610775565b9060038210156107985752565b80516001600160a01b0316825261082491906020810151602083015260408101516040830152606081015160608301526080810151608083015260a081015160a083015260c081015160c083015260e081015160e0830152610815610100808301519084019061078b565b6101208091015191019061079d565b565b6020908160408183019282815285518094520193019160005b82811061084d575050505090565b90919293826101408261086360019489516107aa565b0195019392910161083f565b346101d4576020806003193601126101d457600435600052600f81526040600020604051918281835491828152019260005281600020916000905b8282106108d5576104976108c9876108c481890382610218565b611b88565b60405191829182610826565b8354855293840193600193840193909101906108aa565b346101d45760008060031936011261060f57610906611115565b80546001600160a01b03198116825581906001600160a01b03167f8be0079c531659141344cd1fd0a4f28419497f9722a3daafe3b4186f6b6457e08280a380f35b801515036101d457565b346101d45760203660031901126101d45760043561096e81610947565b610976611115565b60ff8019601154169115151617601155600080f35b346101d45760003660031901126101d457604051806004549182815260208091019260046000527f8a35acfbc15ff81a39ae7d344fd709f28e8600b4aa8c65c6b64bfe7fe36bd19b916000905b8282106109ef576104978561048b81890382610218565b8354865294850194600193840193909101906109d8565b346101d45760003660031901126101d4576000546040516001600160a01b039091168152602090f35b6001600160a01b038116036101d457565b346101d45760e03660031901126101d457610019600435610a6081610a2f565b610b3560243591610a7083610a2f565b610b18604435610a7f81610a2f565b60643592610a8c84610a2f565b60843591610a9983610a2f565b60a43594610aa686610a2f565b60c43597610ab389610a2f565b610abb611115565b60018060a01b0392838092816001600160601b0360a01b971687600654161760065516856009541617600955168360075416176007551690600c541617600c5560018060a01b03166001600160601b0360a01b600a541617600a55565b60018060a01b03166001600160601b0360a01b600b541617600b55565b60018060a01b03166001600160601b0360a01b600d541617600d55565b346101d45760003660031901126101d457600b546040516001600160a01b039091168152602090f35b60603660031901126101d45760043567ffffffffffffffff81116101d457610ba7903690600401610292565b60243590610bb482610a2f565b6009546001600160a01b039190604435908316610bd2338214611229565b60085485906001600160a01b03169260405194637276069d60e01b86528580610c038460009b8c95600485016112f2565b03818988165afa918215610e305787958893610e35575b50868060209485808251830101910190610c339161132a565b8951998701999099206007549099906001600160a01b0316978a6040519a8b9230918c8c860194610c6395611349565b0395601f19968781018b52610c78908b610218565b14610c829061141d565b16911614610c8f90611457565b604051630e2ab4cb60e21b815260048101869052928290849060249082908a165afa918215610e3057610cd0610d5e93610d4c958a91610e03575b506114a3565b610ce3610cdb6117ec565b3410156114e5565b610d1e8880808034610d0e610d02610d0260065460018060a01b031690565b6001600160a01b031690565b5af1610d18611522565b50611552565b610d31610d2c60035461158c565b600355565b610d52610d3c6115b1565b956040519586938401809861166d565b9061166d565b03908101835282610218565b519084f091823b15610dff579161049791610dbb82610db67fb658664a46408e6670a38ec7ea8b7614c9e2916184dff2fad99d3a7a3491ca7d9796821693610da5856116ad565b50600052600f602052604060002090565b611684565b506001600160a01b0382166000908152601060205260409020610de590805460ff19166001179055565b60405194848695a26001600160a01b031682526020820190565b8380fd5b610e239150833d8511610e29575b610e1b8183610218565b81019061148e565b38610cca565b503d610e11565b61131e565b909250610e559195503d8089833e610e4d8183610218565b8101906112a4565b9692915050949138610c1a565b346101d45760203660031901126101d457600435610e7f81610a2f565b60018060a01b03166000526010602052602060ff604060002054166040519015158152f35b6004359060ff821682036101d457565b346101d45760203660031901126101d45760ff610ecf610ea4565b16600052600e602052602062ffffff60406000205416604051908152f35b346101d45760203660031901126101d457610140610f1e600435610f1081610a2f565b610f1861177f565b50611894565b610f2b60405180926107aa565bf35b346101d45760003660031901126101d4576040516004805480835260009182526020808401927f8a35acfbc15ff81a39ae7d344fd709f28e8600b4aa8c65c6b64bfe7fe36bd19b92915b828210610f91576104976108c9876108c481890382610218565b835485529384019360019384019390910190610f77565b346101d45760403660031901126101d457610fc1610ea4565b6024359062ffffff82168092036101d45760ff90610fdd611115565b16600052600e60205260406000209062ffffff19825416179055600080f35b346101d45760203660031901126101d45760043561101981610a2f565b611021611115565b6001600160a01b03908116801561106f57600080546001600160a01b03198116831782559092167f8be0079c531659141344cd1fd0a4f28419497f9722a3daafe3b4186f6b6457e08380a380f35b60405162461bcd60e51b815260206004820152602660248201527f4f776e61626c653a206e6577206f776e657220697320746865207a65726f206160448201526564647265737360d01b6064820152608490fd5b346101d45760003660031901126101d457600a546040516001600160a01b039091168152602090f35b346101d45760003660031901126101d457600d546040516001600160a01b039091168152602090f35b6000546001600160a01b0316330361112957565b606460405162461bcd60e51b815260206004820152602060248201527f4f776e61626c653a2063616c6c6572206973206e6f7420746865206f776e65726044820152fd5b818110611178575050565b6000815560010161116d565b90601f8211611191575050565b6108249160026000527f405787fa12a823e0f2b7631cc41b3ba8828b3321ca811111fa75cd3aa3bb5ace906020601f840160051c830193106111db575b601f0160051c019061116d565b90915081906111ce565b90601f82116111f2575050565b610824916001600052600080516020611c25833981519152906020601f840160051c830193106111db57601f0160051c019061116d565b1561123057565b60405162461bcd60e51b815260206004820152600a60248201526913d3931657d59055531560b21b6044820152606490fd5b81601f820112156101d45780516112788161023f565b926112866040519485610218565b818452602082840101116101d4576102ad91602080850191016104ec565b916080838303126101d45782519067ffffffffffffffff918281116101d457836112cf918601611262565b9360208101519360408201519360608301519081116101d4576102ad9201611262565b61130a6040929594939560608352606083019061050f565b6001600160a01b0390951660208201520152565b6040513d6000823e3d90fd5b91908260409103126101d4576020825161134381610a2f565b92015190565b9081526001600160a01b0391821660208083019190915292821660408201529281166060840152909216608082015260c060a082015260018054600093909291611392846104b2565b938460c085015281811690816000146113fa57506001146113b5575b5050505090565b6000818152939450600080516020611c258339815191525b8585106113e65750505060e092500101388080806113ae565b805485850160e001529382019381016113cd565b9250505060e0935060ff929192191683830152151560051b0101388080806113ae565b1561142457565b60405162461bcd60e51b815260206004820152600b60248201526a57524f4e475f4e4f4e434560a81b6044820152606490fd5b1561145e57565b60405162461bcd60e51b815260206004820152600860248201526757524f4e475f544f60c01b6044820152606490fd5b908160209103126101d457516102ad81610947565b156114aa57565b60405162461bcd60e51b81526020600482015260136024820152721d5cd95c88191bd95cc81b9bdd08195e1a5cdd606a1b6044820152606490fd5b156114ec57565b60405162461bcd60e51b815260206004820152600e60248201526d4e4f545f454e4f5547485f46454560901b6044820152606490fd5b3d1561154d573d906115338261023f565b916115416040519384610218565b82523d6000602084013e565b606090565b1561155957565b60405162461bcd60e51b815260206004820152600b60248201526a10d0531317d1905253115160aa1b6044820152606490fd5b600019811461159b5760010190565b634e487b7160e01b600052601160045260246000fd5b60405190600082600254916115c5836104b2565b8083529260019081811690811561164b57506001146115ec575b5061082492500383610218565b6002600090815291507f405787fa12a823e0f2b7631cc41b3ba8828b3321ca811111fa75cd3aa3bb5ace5b84831061163057506108249350508101602001386115df565b81935090816020925483858a01015201910190918592611617565b90506020925061082494915060ff191682840152151560051b820101386115df565b90611680602092828151948592016104ec565b0190565b6102ad916001600160a01b031690611729565b634e487b7160e01b600052603260045260246000fd5b8060005260056020526040600020541560001461172357600454600160401b81101561023a57600181018060045581101561171e5781907f8a35acfbc15ff81a39ae7d344fd709f28e8600b4aa8c65c6b64bfe7fe36bd19b0155600454906000526005602052604060002055600190565b611697565b50600090565b6000828152600182016020819052604082205461177857825492600160401b84101561023a576001840180825584101561171e5784604094828552602085200155549382526020522055600190565b5091505090565b60405190610140820182811067ffffffffffffffff82111761023a57604052816101206000918281528260208201528260408201528260608201528260808201528260a08201528260c08201528260e0820152826101008201520152565b908160209103126101d4575190565b6006546040516391792d5b60e01b815290602090829060049082906001600160a01b03165afa908115610e3057600091611824575090565b6102ad915060203d8111611845575b61183d8183610218565b8101906117dd565b503d611833565b908160209103126101d4575160088110156101d45790565b60088210156107985752565b908160209103126101d4575160038110156101d45790565b60038210156107985752565b61189c61177f565b506118a561177f565b6001600160a01b0390911680825260408051638da5cb5b60e01b81526020926004929184818581855afa908115610e3057600091611b3f575b50858501528151635c63ed6960e01b815284818581855afa908115610e3057600091611b22575b50858301528151634c38d87760e01b815284818581855afa908115610e3057600091611b05575b506060860152815163048bf3bb60e11b815284818581855afa908115610e3057600091611ae8575b5060808601528151630bc8361760e11b815284818581855afa908115610e3057600091611acb575b5060a0860152815163d24e0c8760e01b815284818581855afa908115610e3057600091611aae575b5060c0860152815163faeb5e1760e01b815284818581855afa908115610e3057600091611a91575b5060e086015281516302734eab60e51b81529184838581855afa928315610e30578593611a0691600091611a64575b506101008801611864565b5163010a38f560e01b815292839182905afa908115610e30576102ad92600092611a37575b50506101208301611888565b611a569250803d10611a5d575b611a4e8183610218565b810190611870565b3880611a2b565b503d611a44565b611a849150853d8711611a8a575b611a7c8183610218565b81019061184c565b386119fb565b503d611a72565b611aa89150853d87116118455761183d8183610218565b386119cc565b611ac59150853d87116118455761183d8183610218565b386119a4565b611ae29150853d87116118455761183d8183610218565b3861197c565b611aff9150853d87116118455761183d8183610218565b38611954565b611b1c9150853d87116118455761183d8183610218565b3861192c565b611b399150853d87116118455761183d8183610218565b38611905565b611b569150853d87116118455761183d8183610218565b386118de565b67ffffffffffffffff811161023a5760051b60200190565b805182101561171e5760209160051b010190565b8051611b9381611b5c565b91611ba16040519384610218565b818352601f19611bb083611b5c565b0160005b818110611c0d57505060005b828110611bcd5750505090565b611c0890611bed6001600160a01b03611be68386611b74565b5116611894565b611bf78287611b74565b52611c028186611b74565b5061158c565b611bc0565b602090611c1861177f565b82828801015201611bb456feb10e2d527612073b26eecdfd717e6a320cf44b4afac2b0732d9fcbe2b7fa0cf6a2646970667358221220eab7209b0a1a5d29728958ff1332d1e7f5ef1bd2a6147aec3bc501098c4eaaf964736f6c63430008130033",
  "devdoc": {
    "kind": "dev",
    "methods": {
      "owner()": {
        "details": "Returns the address of the current owner."
      },
      "renounceOwnership()": {
        "details": "Leaves the contract without owner. It will not be possible to call `onlyOwner` functions. Can only be called by the current owner. NOTE: Renouncing ownership will leave the contract without an owner, thereby disabling any functionality that is only available to the owner."
      },
      "transferOwnership(address)": {
        "details": "Transfers ownership of the contract to a new account (`newOwner`). Can only be called by the current owner."
      }
    },
    "version": 1
  },
  "userdoc": {
    "kind": "user",
    "methods": {},
    "version": 1
  },
  "storageLayout": {
    "storage": [
      {
        "astId": 291,
        "contract": "contracts/factories/MecenateFeedFactory.sol:MecenateFeedFactory",
        "label": "_owner",
        "offset": 0,
        "slot": "0",
        "type": "t_address"
      },
      {
        "astId": 11162,
        "contract": "contracts/factories/MecenateFeedFactory.sol:MecenateFeedFactory",
        "label": "version",
        "offset": 0,
        "slot": "1",
        "type": "t_string_storage"
      },
      {
        "astId": 11164,
        "contract": "contracts/factories/MecenateFeedFactory.sol:MecenateFeedFactory",
        "label": "feedByteCode",
        "offset": 0,
        "slot": "2",
        "type": "t_bytes_storage"
      },
      {
        "astId": 11166,
        "contract": "contracts/factories/MecenateFeedFactory.sol:MecenateFeedFactory",
        "label": "contractCounter",
        "offset": 0,
        "slot": "3",
        "type": "t_uint256"
      },
      {
        "astId": 11169,
        "contract": "contracts/factories/MecenateFeedFactory.sol:MecenateFeedFactory",
        "label": "feeds",
        "offset": 0,
        "slot": "4",
        "type": "t_struct(AddressSet)8122_storage"
      },
      {
        "astId": 11172,
        "contract": "contracts/factories/MecenateFeedFactory.sol:MecenateFeedFactory",
        "label": "settings",
        "offset": 0,
        "slot": "6",
        "type": "t_struct(FactorySettings)18721_storage"
      },
      {
        "astId": 11176,
        "contract": "contracts/factories/MecenateFeedFactory.sol:MecenateFeedFactory",
        "label": "routerFee",
        "offset": 0,
        "slot": "14",
        "type": "t_mapping(t_uint8,t_uint24)"
      },
      {
        "astId": 11181,
        "contract": "contracts/factories/MecenateFeedFactory.sol:MecenateFeedFactory",
        "label": "feedStore",
        "offset": 0,
        "slot": "15",
        "type": "t_mapping(t_bytes32,t_struct(AddressSet)8122_storage)"
      },
      {
        "astId": 11185,
        "contract": "contracts/factories/MecenateFeedFactory.sol:MecenateFeedFactory",
        "label": "createdContracts",
        "offset": 0,
        "slot": "16",
        "type": "t_mapping(t_address,t_bool)"
      },
      {
        "astId": 11192,
        "contract": "contracts/factories/MecenateFeedFactory.sol:MecenateFeedFactory",
        "label": "burnEnabled",
        "offset": 0,
        "slot": "17",
        "type": "t_bool"
      }
    ],
    "types": {
      "t_address": {
        "encoding": "inplace",
        "label": "address",
        "numberOfBytes": "20"
      },
      "t_array(t_bytes32)dyn_storage": {
        "base": "t_bytes32",
        "encoding": "dynamic_array",
        "label": "bytes32[]",
        "numberOfBytes": "32"
      },
      "t_bool": {
        "encoding": "inplace",
        "label": "bool",
        "numberOfBytes": "1"
      },
      "t_bytes32": {
        "encoding": "inplace",
        "label": "bytes32",
        "numberOfBytes": "32"
      },
      "t_bytes_storage": {
        "encoding": "bytes",
        "label": "bytes",
        "numberOfBytes": "32"
      },
      "t_mapping(t_address,t_bool)": {
        "encoding": "mapping",
        "key": "t_address",
        "label": "mapping(address => bool)",
        "numberOfBytes": "32",
        "value": "t_bool"
      },
      "t_mapping(t_bytes32,t_struct(AddressSet)8122_storage)": {
        "encoding": "mapping",
        "key": "t_bytes32",
        "label": "mapping(bytes32 => struct EnumerableSet.AddressSet)",
        "numberOfBytes": "32",
        "value": "t_struct(AddressSet)8122_storage"
      },
      "t_mapping(t_bytes32,t_uint256)": {
        "encoding": "mapping",
        "key": "t_bytes32",
        "label": "mapping(bytes32 => uint256)",
        "numberOfBytes": "32",
        "value": "t_uint256"
      },
      "t_mapping(t_uint8,t_uint24)": {
        "encoding": "mapping",
        "key": "t_uint8",
        "label": "mapping(uint8 => uint24)",
        "numberOfBytes": "32",
        "value": "t_uint24"
      },
      "t_string_storage": {
        "encoding": "bytes",
        "label": "string",
        "numberOfBytes": "32"
      },
      "t_struct(AddressSet)8122_storage": {
        "encoding": "inplace",
        "label": "struct EnumerableSet.AddressSet",
        "members": [
          {
            "astId": 8121,
            "contract": "contracts/factories/MecenateFeedFactory.sol:MecenateFeedFactory",
            "label": "_inner",
            "offset": 0,
            "slot": "0",
            "type": "t_struct(Set)7807_storage"
          }
        ],
        "numberOfBytes": "64"
      },
      "t_struct(FactorySettings)18721_storage": {
        "encoding": "inplace",
        "label": "struct Structures.FactorySettings",
        "members": [
          {
            "astId": 18706,
            "contract": "contracts/factories/MecenateFeedFactory.sol:MecenateFeedFactory",
            "label": "treasuryContract",
            "offset": 0,
            "slot": "0",
            "type": "t_address"
          },
          {
            "astId": 18708,
            "contract": "contracts/factories/MecenateFeedFactory.sol:MecenateFeedFactory",
            "label": "usersModuleContract",
            "offset": 0,
            "slot": "1",
            "type": "t_address"
          },
          {
            "astId": 18710,
            "contract": "contracts/factories/MecenateFeedFactory.sol:MecenateFeedFactory",
            "label": "verifierContract",
            "offset": 0,
            "slot": "2",
            "type": "t_address"
          },
          {
            "astId": 18712,
            "contract": "contracts/factories/MecenateFeedFactory.sol:MecenateFeedFactory",
            "label": "vaultContract",
            "offset": 0,
            "slot": "3",
            "type": "t_address"
          },
          {
            "astId": 18714,
            "contract": "contracts/factories/MecenateFeedFactory.sol:MecenateFeedFactory",
            "label": "museToken",
            "offset": 0,
            "slot": "4",
            "type": "t_address"
          },
          {
            "astId": 18716,
            "contract": "contracts/factories/MecenateFeedFactory.sol:MecenateFeedFactory",
            "label": "daiToken",
            "offset": 0,
            "slot": "5",
            "type": "t_address"
          },
          {
            "astId": 18718,
            "contract": "contracts/factories/MecenateFeedFactory.sol:MecenateFeedFactory",
            "label": "wethToken",
            "offset": 0,
            "slot": "6",
            "type": "t_address"
          },
          {
            "astId": 18720,
            "contract": "contracts/factories/MecenateFeedFactory.sol:MecenateFeedFactory",
            "label": "router",
            "offset": 0,
            "slot": "7",
            "type": "t_address"
          }
        ],
        "numberOfBytes": "256"
      },
      "t_struct(Set)7807_storage": {
        "encoding": "inplace",
        "label": "struct EnumerableSet.Set",
        "members": [
          {
            "astId": 7802,
            "contract": "contracts/factories/MecenateFeedFactory.sol:MecenateFeedFactory",
            "label": "_values",
            "offset": 0,
            "slot": "0",
            "type": "t_array(t_bytes32)dyn_storage"
          },
          {
            "astId": 7806,
            "contract": "contracts/factories/MecenateFeedFactory.sol:MecenateFeedFactory",
            "label": "_indexes",
            "offset": 0,
            "slot": "1",
            "type": "t_mapping(t_bytes32,t_uint256)"
          }
        ],
        "numberOfBytes": "64"
      },
      "t_uint24": {
        "encoding": "inplace",
        "label": "uint24",
        "numberOfBytes": "3"
      },
      "t_uint256": {
        "encoding": "inplace",
        "label": "uint256",
        "numberOfBytes": "32"
      },
      "t_uint8": {
        "encoding": "inplace",
        "label": "uint8",
        "numberOfBytes": "1"
      }
    }
  }
}