{
  "address": "0xd62e338F43E1f3724774D2C60E5ead9323724A84",
  "abi": [
    {
      "inputs": [
        {
          "internalType": "bytes32",
          "name": "_owner",
          "type": "bytes32"
        },
        {
          "internalType": "address",
          "name": "_usersModuleContract",
          "type": "address"
        },
        {
          "internalType": "address",
          "name": "_verifierContract",
          "type": "address"
        },
        {
          "internalType": "address",
          "name": "_factoryContract",
          "type": "address"
        },
        {
          "internalType": "string",
          "name": "_version",
          "type": "string"
        }
      ],
      "stateMutability": "nonpayable",
      "type": "constructor"
    },
    {
      "anonymous": false,
      "inputs": [
        {
          "components": [
            {
              "components": [
                {
                  "internalType": "bytes32",
                  "name": "vaultId",
                  "type": "bytes32"
                }
              ],
              "internalType": "struct Structures.User",
              "name": "creator",
              "type": "tuple"
            },
            {
              "components": [
                {
                  "components": [
                    {
                      "internalType": "enum Structures.PostStatus",
                      "name": "status",
                      "type": "uint8"
                    },
                    {
                      "internalType": "enum Structures.PostType",
                      "name": "postType",
                      "type": "uint8"
                    },
                    {
                      "internalType": "uint256",
                      "name": "creationTimeStamp",
                      "type": "uint256"
                    },
                    {
                      "internalType": "uint256",
                      "name": "endTimeStamp",
                      "type": "uint256"
                    },
                    {
                      "internalType": "uint256",
                      "name": "duration",
                      "type": "uint256"
                    },
                    {
                      "internalType": "enum Structures.Tokens",
                      "name": "tokenId",
                      "type": "uint8"
                    }
                  ],
                  "internalType": "struct Structures.PostSettings",
                  "name": "settings",
                  "type": "tuple"
                },
                {
                  "components": [
                    {
                      "internalType": "uint256",
                      "name": "stake",
                      "type": "uint256"
                    },
                    {
                      "internalType": "uint256",
                      "name": "payment",
                      "type": "uint256"
                    },
                    {
                      "internalType": "uint256",
                      "name": "punishment",
                      "type": "uint256"
                    },
                    {
                      "internalType": "uint256",
                      "name": "penalty",
                      "type": "uint256"
                    }
                  ],
                  "internalType": "struct Structures.PostEscrow",
                  "name": "escrow",
                  "type": "tuple"
                },
                {
                  "components": [
                    {
                      "internalType": "bytes",
                      "name": "encryptedData",
                      "type": "bytes"
                    },
                    {
                      "internalType": "bytes",
                      "name": "encryptedKey",
                      "type": "bytes"
                    },
                    {
                      "internalType": "bytes",
                      "name": "decryptedData",
                      "type": "bytes"
                    }
                  ],
                  "internalType": "struct Structures.PostEncryptedData",
                  "name": "data",
                  "type": "tuple"
                }
              ],
              "internalType": "struct Structures.PostData",
              "name": "postdata",
              "type": "tuple"
            }
          ],
          "indexed": false,
          "internalType": "struct Structures.Post",
          "name": "post",
          "type": "tuple"
        }
      ],
      "name": "Accepted",
      "type": "event"
    },
    {
      "anonymous": false,
      "inputs": [
        {
          "components": [
            {
              "components": [
                {
                  "internalType": "bytes32",
                  "name": "vaultId",
                  "type": "bytes32"
                }
              ],
              "internalType": "struct Structures.User",
              "name": "creator",
              "type": "tuple"
            },
            {
              "components": [
                {
                  "components": [
                    {
                      "internalType": "enum Structures.PostStatus",
                      "name": "status",
                      "type": "uint8"
                    },
                    {
                      "internalType": "enum Structures.PostType",
                      "name": "postType",
                      "type": "uint8"
                    },
                    {
                      "internalType": "uint256",
                      "name": "creationTimeStamp",
                      "type": "uint256"
                    },
                    {
                      "internalType": "uint256",
                      "name": "endTimeStamp",
                      "type": "uint256"
                    },
                    {
                      "internalType": "uint256",
                      "name": "duration",
                      "type": "uint256"
                    },
                    {
                      "internalType": "enum Structures.Tokens",
                      "name": "tokenId",
                      "type": "uint8"
                    }
                  ],
                  "internalType": "struct Structures.PostSettings",
                  "name": "settings",
                  "type": "tuple"
                },
                {
                  "components": [
                    {
                      "internalType": "uint256",
                      "name": "stake",
                      "type": "uint256"
                    },
                    {
                      "internalType": "uint256",
                      "name": "payment",
                      "type": "uint256"
                    },
                    {
                      "internalType": "uint256",
                      "name": "punishment",
                      "type": "uint256"
                    },
                    {
                      "internalType": "uint256",
                      "name": "penalty",
                      "type": "uint256"
                    }
                  ],
                  "internalType": "struct Structures.PostEscrow",
                  "name": "escrow",
                  "type": "tuple"
                },
                {
                  "components": [
                    {
                      "internalType": "bytes",
                      "name": "encryptedData",
                      "type": "bytes"
                    },
                    {
                      "internalType": "bytes",
                      "name": "encryptedKey",
                      "type": "bytes"
                    },
                    {
                      "internalType": "bytes",
                      "name": "decryptedData",
                      "type": "bytes"
                    }
                  ],
                  "internalType": "struct Structures.PostEncryptedData",
                  "name": "data",
                  "type": "tuple"
                }
              ],
              "internalType": "struct Structures.PostData",
              "name": "postdata",
              "type": "tuple"
            }
          ],
          "indexed": false,
          "internalType": "struct Structures.Post",
          "name": "post",
          "type": "tuple"
        }
      ],
      "name": "Created",
      "type": "event"
    },
    {
      "anonymous": false,
      "inputs": [
        {
          "indexed": false,
          "internalType": "enum Structures.Tokens",
          "name": "tokenID",
          "type": "uint8"
        },
        {
          "indexed": false,
          "internalType": "bytes32",
          "name": "user",
          "type": "bytes32"
        },
        {
          "indexed": false,
          "internalType": "uint256",
          "name": "amount",
          "type": "uint256"
        },
        {
          "indexed": false,
          "internalType": "uint256",
          "name": "newDeposit",
          "type": "uint256"
        }
      ],
      "name": "DepositDecreased",
      "type": "event"
    },
    {
      "anonymous": false,
      "inputs": [
        {
          "indexed": false,
          "internalType": "enum Structures.Tokens",
          "name": "tokenID",
          "type": "uint8"
        },
        {
          "indexed": false,
          "internalType": "bytes32",
          "name": "user",
          "type": "bytes32"
        },
        {
          "indexed": false,
          "internalType": "uint256",
          "name": "amount",
          "type": "uint256"
        },
        {
          "indexed": false,
          "internalType": "uint256",
          "name": "newDeposit",
          "type": "uint256"
        }
      ],
      "name": "DepositIncreased",
      "type": "event"
    },
    {
      "anonymous": false,
      "inputs": [
        {
          "components": [
            {
              "components": [
                {
                  "internalType": "bytes32",
                  "name": "vaultId",
                  "type": "bytes32"
                }
              ],
              "internalType": "struct Structures.User",
              "name": "creator",
              "type": "tuple"
            },
            {
              "components": [
                {
                  "components": [
                    {
                      "internalType": "enum Structures.PostStatus",
                      "name": "status",
                      "type": "uint8"
                    },
                    {
                      "internalType": "enum Structures.PostType",
                      "name": "postType",
                      "type": "uint8"
                    },
                    {
                      "internalType": "uint256",
                      "name": "creationTimeStamp",
                      "type": "uint256"
                    },
                    {
                      "internalType": "uint256",
                      "name": "endTimeStamp",
                      "type": "uint256"
                    },
                    {
                      "internalType": "uint256",
                      "name": "duration",
                      "type": "uint256"
                    },
                    {
                      "internalType": "enum Structures.Tokens",
                      "name": "tokenId",
                      "type": "uint8"
                    }
                  ],
                  "internalType": "struct Structures.PostSettings",
                  "name": "settings",
                  "type": "tuple"
                },
                {
                  "components": [
                    {
                      "internalType": "uint256",
                      "name": "stake",
                      "type": "uint256"
                    },
                    {
                      "internalType": "uint256",
                      "name": "payment",
                      "type": "uint256"
                    },
                    {
                      "internalType": "uint256",
                      "name": "punishment",
                      "type": "uint256"
                    },
                    {
                      "internalType": "uint256",
                      "name": "penalty",
                      "type": "uint256"
                    }
                  ],
                  "internalType": "struct Structures.PostEscrow",
                  "name": "escrow",
                  "type": "tuple"
                },
                {
                  "components": [
                    {
                      "internalType": "bytes",
                      "name": "encryptedData",
                      "type": "bytes"
                    },
                    {
                      "internalType": "bytes",
                      "name": "encryptedKey",
                      "type": "bytes"
                    },
                    {
                      "internalType": "bytes",
                      "name": "decryptedData",
                      "type": "bytes"
                    }
                  ],
                  "internalType": "struct Structures.PostEncryptedData",
                  "name": "data",
                  "type": "tuple"
                }
              ],
              "internalType": "struct Structures.PostData",
              "name": "postdata",
              "type": "tuple"
            }
          ],
          "indexed": false,
          "internalType": "struct Structures.Post",
          "name": "post",
          "type": "tuple"
        }
      ],
      "name": "Finalized",
      "type": "event"
    },
    {
      "anonymous": false,
      "inputs": [
        {
          "components": [
            {
              "components": [
                {
                  "internalType": "bytes32",
                  "name": "vaultId",
                  "type": "bytes32"
                }
              ],
              "internalType": "struct Structures.User",
              "name": "creator",
              "type": "tuple"
            },
            {
              "components": [
                {
                  "components": [
                    {
                      "internalType": "enum Structures.PostStatus",
                      "name": "status",
                      "type": "uint8"
                    },
                    {
                      "internalType": "enum Structures.PostType",
                      "name": "postType",
                      "type": "uint8"
                    },
                    {
                      "internalType": "uint256",
                      "name": "creationTimeStamp",
                      "type": "uint256"
                    },
                    {
                      "internalType": "uint256",
                      "name": "endTimeStamp",
                      "type": "uint256"
                    },
                    {
                      "internalType": "uint256",
                      "name": "duration",
                      "type": "uint256"
                    },
                    {
                      "internalType": "enum Structures.Tokens",
                      "name": "tokenId",
                      "type": "uint8"
                    }
                  ],
                  "internalType": "struct Structures.PostSettings",
                  "name": "settings",
                  "type": "tuple"
                },
                {
                  "components": [
                    {
                      "internalType": "uint256",
                      "name": "stake",
                      "type": "uint256"
                    },
                    {
                      "internalType": "uint256",
                      "name": "payment",
                      "type": "uint256"
                    },
                    {
                      "internalType": "uint256",
                      "name": "punishment",
                      "type": "uint256"
                    },
                    {
                      "internalType": "uint256",
                      "name": "penalty",
                      "type": "uint256"
                    }
                  ],
                  "internalType": "struct Structures.PostEscrow",
                  "name": "escrow",
                  "type": "tuple"
                },
                {
                  "components": [
                    {
                      "internalType": "bytes",
                      "name": "encryptedData",
                      "type": "bytes"
                    },
                    {
                      "internalType": "bytes",
                      "name": "encryptedKey",
                      "type": "bytes"
                    },
                    {
                      "internalType": "bytes",
                      "name": "decryptedData",
                      "type": "bytes"
                    }
                  ],
                  "internalType": "struct Structures.PostEncryptedData",
                  "name": "data",
                  "type": "tuple"
                }
              ],
              "internalType": "struct Structures.PostData",
              "name": "postdata",
              "type": "tuple"
            }
          ],
          "indexed": false,
          "internalType": "struct Structures.Post",
          "name": "post",
          "type": "tuple"
        }
      ],
      "name": "Invalid",
      "type": "event"
    },
    {
      "anonymous": false,
      "inputs": [
        {
          "components": [
            {
              "components": [
                {
                  "internalType": "bytes32",
                  "name": "vaultId",
                  "type": "bytes32"
                }
              ],
              "internalType": "struct Structures.User",
              "name": "creator",
              "type": "tuple"
            },
            {
              "components": [
                {
                  "components": [
                    {
                      "internalType": "enum Structures.PostStatus",
                      "name": "status",
                      "type": "uint8"
                    },
                    {
                      "internalType": "enum Structures.PostType",
                      "name": "postType",
                      "type": "uint8"
                    },
                    {
                      "internalType": "uint256",
                      "name": "creationTimeStamp",
                      "type": "uint256"
                    },
                    {
                      "internalType": "uint256",
                      "name": "endTimeStamp",
                      "type": "uint256"
                    },
                    {
                      "internalType": "uint256",
                      "name": "duration",
                      "type": "uint256"
                    },
                    {
                      "internalType": "enum Structures.Tokens",
                      "name": "tokenId",
                      "type": "uint8"
                    }
                  ],
                  "internalType": "struct Structures.PostSettings",
                  "name": "settings",
                  "type": "tuple"
                },
                {
                  "components": [
                    {
                      "internalType": "uint256",
                      "name": "stake",
                      "type": "uint256"
                    },
                    {
                      "internalType": "uint256",
                      "name": "payment",
                      "type": "uint256"
                    },
                    {
                      "internalType": "uint256",
                      "name": "punishment",
                      "type": "uint256"
                    },
                    {
                      "internalType": "uint256",
                      "name": "penalty",
                      "type": "uint256"
                    }
                  ],
                  "internalType": "struct Structures.PostEscrow",
                  "name": "escrow",
                  "type": "tuple"
                },
                {
                  "components": [
                    {
                      "internalType": "bytes",
                      "name": "encryptedData",
                      "type": "bytes"
                    },
                    {
                      "internalType": "bytes",
                      "name": "encryptedKey",
                      "type": "bytes"
                    },
                    {
                      "internalType": "bytes",
                      "name": "decryptedData",
                      "type": "bytes"
                    }
                  ],
                  "internalType": "struct Structures.PostEncryptedData",
                  "name": "data",
                  "type": "tuple"
                }
              ],
              "internalType": "struct Structures.PostData",
              "name": "postdata",
              "type": "tuple"
            }
          ],
          "indexed": false,
          "internalType": "struct Structures.Post",
          "name": "post",
          "type": "tuple"
        }
      ],
      "name": "MadePublic",
      "type": "event"
    },
    {
      "anonymous": false,
      "inputs": [
        {
          "components": [
            {
              "components": [
                {
                  "internalType": "bytes32",
                  "name": "vaultId",
                  "type": "bytes32"
                }
              ],
              "internalType": "struct Structures.User",
              "name": "creator",
              "type": "tuple"
            },
            {
              "components": [
                {
                  "components": [
                    {
                      "internalType": "enum Structures.PostStatus",
                      "name": "status",
                      "type": "uint8"
                    },
                    {
                      "internalType": "enum Structures.PostType",
                      "name": "postType",
                      "type": "uint8"
                    },
                    {
                      "internalType": "uint256",
                      "name": "creationTimeStamp",
                      "type": "uint256"
                    },
                    {
                      "internalType": "uint256",
                      "name": "endTimeStamp",
                      "type": "uint256"
                    },
                    {
                      "internalType": "uint256",
                      "name": "duration",
                      "type": "uint256"
                    },
                    {
                      "internalType": "enum Structures.Tokens",
                      "name": "tokenId",
                      "type": "uint8"
                    }
                  ],
                  "internalType": "struct Structures.PostSettings",
                  "name": "settings",
                  "type": "tuple"
                },
                {
                  "components": [
                    {
                      "internalType": "uint256",
                      "name": "stake",
                      "type": "uint256"
                    },
                    {
                      "internalType": "uint256",
                      "name": "payment",
                      "type": "uint256"
                    },
                    {
                      "internalType": "uint256",
                      "name": "punishment",
                      "type": "uint256"
                    },
                    {
                      "internalType": "uint256",
                      "name": "penalty",
                      "type": "uint256"
                    }
                  ],
                  "internalType": "struct Structures.PostEscrow",
                  "name": "escrow",
                  "type": "tuple"
                },
                {
                  "components": [
                    {
                      "internalType": "bytes",
                      "name": "encryptedData",
                      "type": "bytes"
                    },
                    {
                      "internalType": "bytes",
                      "name": "encryptedKey",
                      "type": "bytes"
                    },
                    {
                      "internalType": "bytes",
                      "name": "decryptedData",
                      "type": "bytes"
                    }
                  ],
                  "internalType": "struct Structures.PostEncryptedData",
                  "name": "data",
                  "type": "tuple"
                }
              ],
              "internalType": "struct Structures.PostData",
              "name": "postdata",
              "type": "tuple"
            }
          ],
          "indexed": false,
          "internalType": "struct Structures.Post",
          "name": "post",
          "type": "tuple"
        }
      ],
      "name": "Renounced",
      "type": "event"
    },
    {
      "anonymous": false,
      "inputs": [
        {
          "indexed": false,
          "internalType": "bytes32",
          "name": "staker",
          "type": "bytes32"
        },
        {
          "indexed": false,
          "internalType": "uint256",
          "name": "amount",
          "type": "uint256"
        },
        {
          "indexed": false,
          "internalType": "enum Structures.Tokens",
          "name": "tokenId",
          "type": "uint8"
        }
      ],
      "name": "StakeAdded",
      "type": "event"
    },
    {
      "anonymous": false,
      "inputs": [
        {
          "indexed": false,
          "internalType": "bytes32",
          "name": "staker",
          "type": "bytes32"
        },
        {
          "indexed": false,
          "internalType": "uint256",
          "name": "amount",
          "type": "uint256"
        }
      ],
      "name": "StakeBurned",
      "type": "event"
    },
    {
      "anonymous": false,
      "inputs": [
        {
          "indexed": false,
          "internalType": "bytes32",
          "name": "staker",
          "type": "bytes32"
        },
        {
          "indexed": false,
          "internalType": "uint256",
          "name": "amount",
          "type": "uint256"
        },
        {
          "indexed": false,
          "internalType": "enum Structures.Tokens",
          "name": "tokenId",
          "type": "uint8"
        }
      ],
      "name": "StakeTaken",
      "type": "event"
    },
    {
      "anonymous": false,
      "inputs": [
        {
          "components": [
            {
              "components": [
                {
                  "internalType": "bytes32",
                  "name": "vaultId",
                  "type": "bytes32"
                }
              ],
              "internalType": "struct Structures.User",
              "name": "creator",
              "type": "tuple"
            },
            {
              "components": [
                {
                  "components": [
                    {
                      "internalType": "enum Structures.PostStatus",
                      "name": "status",
                      "type": "uint8"
                    },
                    {
                      "internalType": "enum Structures.PostType",
                      "name": "postType",
                      "type": "uint8"
                    },
                    {
                      "internalType": "uint256",
                      "name": "creationTimeStamp",
                      "type": "uint256"
                    },
                    {
                      "internalType": "uint256",
                      "name": "endTimeStamp",
                      "type": "uint256"
                    },
                    {
                      "internalType": "uint256",
                      "name": "duration",
                      "type": "uint256"
                    },
                    {
                      "internalType": "enum Structures.Tokens",
                      "name": "tokenId",
                      "type": "uint8"
                    }
                  ],
                  "internalType": "struct Structures.PostSettings",
                  "name": "settings",
                  "type": "tuple"
                },
                {
                  "components": [
                    {
                      "internalType": "uint256",
                      "name": "stake",
                      "type": "uint256"
                    },
                    {
                      "internalType": "uint256",
                      "name": "payment",
                      "type": "uint256"
                    },
                    {
                      "internalType": "uint256",
                      "name": "punishment",
                      "type": "uint256"
                    },
                    {
                      "internalType": "uint256",
                      "name": "penalty",
                      "type": "uint256"
                    }
                  ],
                  "internalType": "struct Structures.PostEscrow",
                  "name": "escrow",
                  "type": "tuple"
                },
                {
                  "components": [
                    {
                      "internalType": "bytes",
                      "name": "encryptedData",
                      "type": "bytes"
                    },
                    {
                      "internalType": "bytes",
                      "name": "encryptedKey",
                      "type": "bytes"
                    },
                    {
                      "internalType": "bytes",
                      "name": "decryptedData",
                      "type": "bytes"
                    }
                  ],
                  "internalType": "struct Structures.PostEncryptedData",
                  "name": "data",
                  "type": "tuple"
                }
              ],
              "internalType": "struct Structures.PostData",
              "name": "postdata",
              "type": "tuple"
            }
          ],
          "indexed": false,
          "internalType": "struct Structures.Post",
          "name": "post",
          "type": "tuple"
        }
      ],
      "name": "Valid",
      "type": "event"
    },
    {
      "inputs": [
        {
          "internalType": "bytes",
          "name": "sismoConnectResponse",
          "type": "bytes"
        },
        {
          "internalType": "address",
          "name": "_to",
          "type": "address"
        },
        {
          "internalType": "bytes32",
          "name": "_nonce",
          "type": "bytes32"
        },
        {
          "internalType": "enum Structures.Tokens",
          "name": "tokenId",
          "type": "uint8"
        },
        {
          "internalType": "uint256",
          "name": "_paymentAmount",
          "type": "uint256"
        }
      ],
      "name": "acceptPost",
      "outputs": [],
      "stateMutability": "payable",
      "type": "function"
    },
    {
      "inputs": [
        {
          "internalType": "enum Structures.Tokens",
          "name": "tokenId",
          "type": "uint8"
        },
        {
          "internalType": "uint256",
          "name": "amountToAdd",
          "type": "uint256"
        },
        {
          "internalType": "bytes32",
          "name": "encryptedVaultId",
          "type": "bytes32"
        }
      ],
      "name": "addStake",
      "outputs": [
        {
          "internalType": "uint256",
          "name": "",
          "type": "uint256"
        }
      ],
      "stateMutability": "payable",
      "type": "function"
    },
    {
      "inputs": [
        {
          "internalType": "bytes",
          "name": "encryptedHash",
          "type": "bytes"
        },
        {
          "internalType": "enum Structures.PostType",
          "name": "postType",
          "type": "uint8"
        },
        {
          "internalType": "enum Structures.PostDuration",
          "name": "postDuration",
          "type": "uint8"
        },
        {
          "internalType": "uint256",
          "name": "payment",
          "type": "uint256"
        },
        {
          "internalType": "uint256",
          "name": "stakeAmount",
          "type": "uint256"
        },
        {
          "internalType": "enum Structures.Tokens",
          "name": "tokenId",
          "type": "uint8"
        },
        {
          "internalType": "bytes",
          "name": "sismoConnectResponse",
          "type": "bytes"
        },
        {
          "internalType": "address",
          "name": "_to",
          "type": "address"
        },
        {
          "internalType": "bytes32",
          "name": "_nonce",
          "type": "bytes32"
        }
      ],
      "name": "createPost",
      "outputs": [
        {
          "components": [
            {
              "components": [
                {
                  "internalType": "bytes32",
                  "name": "vaultId",
                  "type": "bytes32"
                }
              ],
              "internalType": "struct Structures.User",
              "name": "creator",
              "type": "tuple"
            },
            {
              "components": [
                {
                  "components": [
                    {
                      "internalType": "enum Structures.PostStatus",
                      "name": "status",
                      "type": "uint8"
                    },
                    {
                      "internalType": "enum Structures.PostType",
                      "name": "postType",
                      "type": "uint8"
                    },
                    {
                      "internalType": "uint256",
                      "name": "creationTimeStamp",
                      "type": "uint256"
                    },
                    {
                      "internalType": "uint256",
                      "name": "endTimeStamp",
                      "type": "uint256"
                    },
                    {
                      "internalType": "uint256",
                      "name": "duration",
                      "type": "uint256"
                    },
                    {
                      "internalType": "enum Structures.Tokens",
                      "name": "tokenId",
                      "type": "uint8"
                    }
                  ],
                  "internalType": "struct Structures.PostSettings",
                  "name": "settings",
                  "type": "tuple"
                },
                {
                  "components": [
                    {
                      "internalType": "uint256",
                      "name": "stake",
                      "type": "uint256"
                    },
                    {
                      "internalType": "uint256",
                      "name": "payment",
                      "type": "uint256"
                    },
                    {
                      "internalType": "uint256",
                      "name": "punishment",
                      "type": "uint256"
                    },
                    {
                      "internalType": "uint256",
                      "name": "penalty",
                      "type": "uint256"
                    }
                  ],
                  "internalType": "struct Structures.PostEscrow",
                  "name": "escrow",
                  "type": "tuple"
                },
                {
                  "components": [
                    {
                      "internalType": "bytes",
                      "name": "encryptedData",
                      "type": "bytes"
                    },
                    {
                      "internalType": "bytes",
                      "name": "encryptedKey",
                      "type": "bytes"
                    },
                    {
                      "internalType": "bytes",
                      "name": "decryptedData",
                      "type": "bytes"
                    }
                  ],
                  "internalType": "struct Structures.PostEncryptedData",
                  "name": "data",
                  "type": "tuple"
                }
              ],
              "internalType": "struct Structures.PostData",
              "name": "postdata",
              "type": "tuple"
            }
          ],
          "internalType": "struct Structures.Post",
          "name": "",
          "type": "tuple"
        }
      ],
      "stateMutability": "payable",
      "type": "function"
    },
    {
      "inputs": [
        {
          "internalType": "bool",
          "name": "valid",
          "type": "bool"
        },
        {
          "internalType": "uint256",
          "name": "punishment",
          "type": "uint256"
        },
        {
          "internalType": "bytes32",
          "name": "encryptedVaultId",
          "type": "bytes32"
        }
      ],
      "name": "finalizePost",
      "outputs": [],
      "stateMutability": "nonpayable",
      "type": "function"
    },
    {
      "inputs": [],
      "name": "getBuyerStake",
      "outputs": [
        {
          "internalType": "uint256",
          "name": "amount",
          "type": "uint256"
        }
      ],
      "stateMutability": "view",
      "type": "function"
    },
    {
      "inputs": [
        {
          "internalType": "bytes",
          "name": "sismoConnectResponse",
          "type": "bytes"
        },
        {
          "internalType": "address",
          "name": "_to",
          "type": "address"
        },
        {
          "internalType": "bytes32",
          "name": "_nonce",
          "type": "bytes32"
        }
      ],
      "name": "getHashedVaultId",
      "outputs": [
        {
          "internalType": "bytes32",
          "name": "",
          "type": "bytes32"
        }
      ],
      "stateMutability": "nonpayable",
      "type": "function"
    },
    {
      "inputs": [
        {
          "internalType": "bytes",
          "name": "sismoConnectResponse",
          "type": "bytes"
        },
        {
          "internalType": "address",
          "name": "_to",
          "type": "address"
        },
        {
          "internalType": "bytes32",
          "name": "_nonce",
          "type": "bytes32"
        }
      ],
      "name": "getMessage",
      "outputs": [
        {
          "internalType": "bytes",
          "name": "",
          "type": "bytes"
        }
      ],
      "stateMutability": "nonpayable",
      "type": "function"
    },
    {
      "inputs": [],
      "name": "getPaymentRequested",
      "outputs": [
        {
          "internalType": "uint256",
          "name": "",
          "type": "uint256"
        }
      ],
      "stateMutability": "view",
      "type": "function"
    },
    {
      "inputs": [],
      "name": "getSellerStake",
      "outputs": [
        {
          "internalType": "uint256",
          "name": "amount",
          "type": "uint256"
        }
      ],
      "stateMutability": "view",
      "type": "function"
    },
    {
      "inputs": [
        {
          "internalType": "enum Structures.Tokens",
          "name": "tokenId",
          "type": "uint8"
        },
        {
          "internalType": "bytes32",
          "name": "staker",
          "type": "bytes32"
        }
      ],
      "name": "getStake",
      "outputs": [
        {
          "internalType": "uint256",
          "name": "amount",
          "type": "uint256"
        }
      ],
      "stateMutability": "view",
      "type": "function"
    },
    {
      "inputs": [],
      "name": "getStakeRequested",
      "outputs": [
        {
          "internalType": "uint256",
          "name": "",
          "type": "uint256"
        }
      ],
      "stateMutability": "view",
      "type": "function"
    },
    {
      "inputs": [],
      "name": "getStatus",
      "outputs": [
        {
          "internalType": "enum Structures.PostStatus",
          "name": "",
          "type": "uint8"
        }
      ],
      "stateMutability": "view",
      "type": "function"
    },
    {
      "inputs": [
        {
          "internalType": "bytes32",
          "name": "encryptedVaultId",
          "type": "bytes32"
        }
      ],
      "name": "getTelegramIds",
      "outputs": [
        {
          "internalType": "uint256",
          "name": "",
          "type": "uint256"
        },
        {
          "internalType": "uint256",
          "name": "",
          "type": "uint256"
        }
      ],
      "stateMutability": "view",
      "type": "function"
    },
    {
      "inputs": [],
      "name": "getTokenId",
      "outputs": [
        {
          "internalType": "enum Structures.Tokens",
          "name": "",
          "type": "uint8"
        }
      ],
      "stateMutability": "view",
      "type": "function"
    },
    {
      "inputs": [],
      "name": "getTokenIdAddress",
      "outputs": [
        {
          "internalType": "address",
          "name": "",
          "type": "address"
        }
      ],
      "stateMutability": "view",
      "type": "function"
    },
    {
      "inputs": [],
      "name": "getTotalStaked",
      "outputs": [
        {
          "internalType": "uint256",
          "name": "",
          "type": "uint256"
        }
      ],
      "stateMutability": "view",
      "type": "function"
    },
    {
      "inputs": [
        {
          "internalType": "bytes32",
          "name": "encryptedVaultId",
          "type": "bytes32"
        }
      ],
      "name": "getVaultIdSecret",
      "outputs": [
        {
          "internalType": "bytes",
          "name": "",
          "type": "bytes"
        }
      ],
      "stateMutability": "view",
      "type": "function"
    },
    {
      "inputs": [],
      "name": "owner",
      "outputs": [
        {
          "internalType": "bytes32",
          "name": "",
          "type": "bytes32"
        }
      ],
      "stateMutability": "view",
      "type": "function"
    },
    {
      "inputs": [],
      "name": "post",
      "outputs": [
        {
          "components": [
            {
              "internalType": "bytes32",
              "name": "vaultId",
              "type": "bytes32"
            }
          ],
          "internalType": "struct Structures.User",
          "name": "creator",
          "type": "tuple"
        },
        {
          "components": [
            {
              "components": [
                {
                  "internalType": "enum Structures.PostStatus",
                  "name": "status",
                  "type": "uint8"
                },
                {
                  "internalType": "enum Structures.PostType",
                  "name": "postType",
                  "type": "uint8"
                },
                {
                  "internalType": "uint256",
                  "name": "creationTimeStamp",
                  "type": "uint256"
                },
                {
                  "internalType": "uint256",
                  "name": "endTimeStamp",
                  "type": "uint256"
                },
                {
                  "internalType": "uint256",
                  "name": "duration",
                  "type": "uint256"
                },
                {
                  "internalType": "enum Structures.Tokens",
                  "name": "tokenId",
                  "type": "uint8"
                }
              ],
              "internalType": "struct Structures.PostSettings",
              "name": "settings",
              "type": "tuple"
            },
            {
              "components": [
                {
                  "internalType": "uint256",
                  "name": "stake",
                  "type": "uint256"
                },
                {
                  "internalType": "uint256",
                  "name": "payment",
                  "type": "uint256"
                },
                {
                  "internalType": "uint256",
                  "name": "punishment",
                  "type": "uint256"
                },
                {
                  "internalType": "uint256",
                  "name": "penalty",
                  "type": "uint256"
                }
              ],
              "internalType": "struct Structures.PostEscrow",
              "name": "escrow",
              "type": "tuple"
            },
            {
              "components": [
                {
                  "internalType": "bytes",
                  "name": "encryptedData",
                  "type": "bytes"
                },
                {
                  "internalType": "bytes",
                  "name": "encryptedKey",
                  "type": "bytes"
                },
                {
                  "internalType": "bytes",
                  "name": "decryptedData",
                  "type": "bytes"
                }
              ],
              "internalType": "struct Structures.PostEncryptedData",
              "name": "data",
              "type": "tuple"
            }
          ],
          "internalType": "struct Structures.PostData",
          "name": "postdata",
          "type": "tuple"
        }
      ],
      "stateMutability": "view",
      "type": "function"
    },
    {
      "inputs": [],
      "name": "postCount",
      "outputs": [
        {
          "internalType": "uint256",
          "name": "",
          "type": "uint256"
        }
      ],
      "stateMutability": "view",
      "type": "function"
    },
    {
      "inputs": [
        {
          "internalType": "bytes",
          "name": "sismoConnectResponse",
          "type": "bytes"
        },
        {
          "internalType": "address",
          "name": "_to",
          "type": "address"
        },
        {
          "internalType": "bytes32",
          "name": "_nonce",
          "type": "bytes32"
        }
      ],
      "name": "renouncePost",
      "outputs": [],
      "stateMutability": "nonpayable",
      "type": "function"
    },
    {
      "inputs": [
        {
          "internalType": "bytes",
          "name": "decryptedData",
          "type": "bytes"
        },
        {
          "internalType": "bytes",
          "name": "sismoConnectResponse",
          "type": "bytes"
        },
        {
          "internalType": "address",
          "name": "_to",
          "type": "address"
        },
        {
          "internalType": "bytes32",
          "name": "_nonce",
          "type": "bytes32"
        }
      ],
      "name": "revealData",
      "outputs": [
        {
          "internalType": "bytes",
          "name": "",
          "type": "bytes"
        }
      ],
      "stateMutability": "nonpayable",
      "type": "function"
    },
    {
      "inputs": [
        {
          "internalType": "bytes",
          "name": "encryptedKey",
          "type": "bytes"
        },
        {
          "internalType": "bytes",
          "name": "sismoConnectResponse",
          "type": "bytes"
        },
        {
          "internalType": "address",
          "name": "_to",
          "type": "address"
        },
        {
          "internalType": "bytes32",
          "name": "_nonce",
          "type": "bytes32"
        }
      ],
      "name": "submitHash",
      "outputs": [],
      "stateMutability": "nonpayable",
      "type": "function"
    },
    {
      "inputs": [
        {
          "internalType": "enum Structures.Tokens",
          "name": "tokenId",
          "type": "uint8"
        },
        {
          "internalType": "bytes",
          "name": "sismoConnectResponse",
          "type": "bytes"
        },
        {
          "internalType": "address",
          "name": "_to",
          "type": "address"
        },
        {
          "internalType": "bytes32",
          "name": "_nonce",
          "type": "bytes32"
        }
      ],
      "name": "takeFullStake",
      "outputs": [
        {
          "internalType": "uint256",
          "name": "",
          "type": "uint256"
        }
      ],
      "stateMutability": "nonpayable",
      "type": "function"
    },
    {
      "inputs": [
        {
          "internalType": "enum Structures.Tokens",
          "name": "tokenId",
          "type": "uint8"
        },
        {
          "internalType": "uint256",
          "name": "amountToTake",
          "type": "uint256"
        },
        {
          "internalType": "bytes",
          "name": "sismoConnectResponse",
          "type": "bytes"
        },
        {
          "internalType": "address",
          "name": "_to",
          "type": "address"
        },
        {
          "internalType": "bytes32",
          "name": "_nonce",
          "type": "bytes32"
        }
      ],
      "name": "takeStake",
      "outputs": [
        {
          "internalType": "uint256",
          "name": "",
          "type": "uint256"
        }
      ],
      "stateMutability": "nonpayable",
      "type": "function"
    },
    {
      "inputs": [],
      "name": "version",
      "outputs": [
        {
          "internalType": "string",
          "name": "",
          "type": "string"
        }
      ],
      "stateMutability": "view",
      "type": "function"
    },
    {
      "inputs": [
        {
          "internalType": "bytes",
          "name": "encodeMessage",
          "type": "bytes"
        },
        {
          "internalType": "bytes32",
          "name": "encryptedVaultId",
          "type": "bytes32"
        }
      ],
      "name": "write",
      "outputs": [],
      "stateMutability": "nonpayable",
      "type": "function"
    },
    {
      "stateMutability": "payable",
      "type": "receive"
    }
  ],
  "transactionHash": "0x2b2e2e0b40743dcf593a81aae3be543af17390e8e0517718f0f644d846e999ec",
  "args": [
    "0x0000000000000000000000000000000000000000000000000000000000000000",
    "0x16d01BC38233f8E18228f3D1c46c36FDaeF5B184",
    "0x8CFb40101Fbd1a04b8F460CC5d419E94eFe0c74D",
    "0x9e968F3518Fd53b8349f11dA3750f67944513056",
    "v2"
  ],
  "numDeployments": 14,
  "solcInputHash": "c68c70da44f48ac7b190166a0758b91d",
  "bytecode": "0x6080604090808252346200065d57620058e3803803809162000022828562000678565b8339810160a0828203126200065d578151916020620000438183016200069c565b620000508684016200069c565b906200005f606085016200069c565b60808501516001600160401b03959194918682116200065d570191601f938785850112156200065d57835187811162000662578a5194601f1999620000ab868c8a860116018862000678565b8287528583830101116200065d57849060005b838110620006485750506000918601015267016345785d8a0000601455600060155560018060a01b03958680928160018060a01b031995168560165416176016551683601854161760185533836017541617601755838b5180926303e21fa960e61b82528160049a8b92165afa9081156200063d57600091620005fd575b501690601a541617601a5562000151620006b1565b805190868211620004945781906200016b601b54620006e2565b868111620005ca575b5083908683116001146200055f5760009262000553575b50508160011b916000199060031b1c191617601b555b620001ab620006b1565b80519086821162000494578190620001c5601c54620006e2565b86811162000520575b508390868311600114620004b557600092620004a9575b50508160011b916000199060031b1c191617601c555b62000205620006b1565b805190868211620004945781906200021f601d54620006e2565b86811162000461575b508390868311600114620003f657600092620003ea575b50508160011b916000199060031b1c191617601d555b60ff1993846002541660025560008052838252620151808960002055600194856000526203f4808a60002055600260005262093a808a600020556003600052621275008a600020558160005262278d008a6000205560008052828052858a600020918254161790558251958611620003d55750620002d5601e54620006e2565b83811162000397575b50809285116001146200032c57508394509083929160009462000320575b50501b916000199060031b1c191617601e555b600055516151aa9081620007398239f35b015192503880620002fc565b929484908116601e60005284600020946000905b888383106200037c575050501062000362575b505050811b01601e556200030f565b015160001960f88460031b161c1916905538808062000353565b85870151885590960195948501948793509081019062000340565b620003c490601e600052826000208580890160051c820192858a10620003cb575b0160051c01906200071f565b38620002de565b92508192620003b8565b604190634e487b7160e01b6000525260246000fd5b0151905038806200023f565b91891691601d600052846000209260005b868282106200044a57505090846001959493921062000430575b505050811b01601d5562000255565b015160001960f88460031b161c1916905538808062000421565b600185968293968601518155019501930162000407565b6200048d90601d600052856000208880860160051c820192888710620003cb570160051c01906200071f565b3862000228565b604186634e487b7160e01b6000525260246000fd5b015190503880620001e5565b91891691601c600052846000209260005b8682821062000509575050908460019594939210620004ef575b505050811b01601c55620001fb565b015160001960f88460031b161c19169055388080620004e0565b6001859682939686015181550195019301620004c6565b6200054c90601c600052856000208880860160051c820192888710620003cb570160051c01906200071f565b38620001ce565b0151905038806200018b565b91891691601b600052846000209260005b86828210620005b357505090846001959493921062000599575b505050811b01601b55620001a1565b015160001960f88460031b161c191690553880806200058a565b600185968293968601518155019501930162000570565b620005f690601b600052856000208880860160051c820192888710620003cb570160051c01906200071f565b3862000174565b908482813d831162000635575b62000616818362000678565b810103126200063257506200062b906200069c565b386200013c565b80fd5b503d6200060a565b8b513d6000823e3d90fd5b818101830151888201840152869201620000be565b600080fd5b634e487b7160e01b600052604160045260246000fd5b601f909101601f19168101906001600160401b038211908210176200066257604052565b51906001600160a01b03821682036200065d57565b60408051919082016001600160401b03811183821017620006625760405260048252630307830360e41b6020830152565b90600182811c9216801562000714575b6020831014620006fe57565b634e487b7160e01b600052602260045260246000fd5b91607f1691620006f2565b8181106200072b575050565b600081556001016200071f56fe608080604052600436101561001d575b50361561001b57600080fd5b005b60003560e01c908163010a38f514612cad5750806305c1f502146129d15780630917e7761461297057806317906c2e146129525780631b9f0a4314612926578063200f852c1461253857806330a0680c146123245780633258d15c146122125780633a4fb8b714611c02578063402e3e0b1461138d5780634828000c146112fd5780634c38d877146112d15780634e69d560146112a957806354fd4d50146111db5780635ad4e170146111ae5780635c63ed691461117657806383dd174314610e965780638da5cb5b14610e785780638f287dc2146108745780639d8cc89a146108425780639f8b4359146107ed578063b43f4f75146103d3578063b52d2ce4146102e6578063d24e0c87146102c8578063de5d716514610197578063e02cfa4c146101765763faeb5e1714610153573861000f565b34610171576000366003190112610171576020600754604051908152f35b600080fd5b3461017157602061018f610189366130d8565b91613b4c565b604051908152f35b346101715760a0366003190112610171576004356003811015610171576024356044356001600160401b038111610171576101d6903690600401613033565b60643592906001600160a01b03841684036101715760ff600654169060038210156102b257610209610213928414613638565b8460843591614e4b565b91816000526021602052604060002083600052602052806040600020541061027a576020938361024293614cdb565b9060405161025a8161025381612e76565b0382612d73565b805190840120036102715780600855604051908152f35b8060075561018f565b60405162461bcd60e51b815260206004820152601060248201526f4e4f545f454e4f5547485f5354414b4560801b6044820152606490fd5b634e487b7160e01b600052602160045260246000fd5b34610171576000366003190112610171576020600854604051908152f35b60603660031901126101715760043560038110156101715760443560ff6006541660038110156102b25761031b908314613638565b604051916103338361032c81612e76565b0384612d73565b8251602080940120821480156103b5575b1561037d576102429060405161035d8161025381612de4565b80519085012083036103745734905b833391613de9565b6024359061036c565b60405162461bcd60e51b815260048101849052601060248201526f0ac82aa98a89288be9a92a69a82a886960831b6044820152606490fd5b506040516103c68161025381612de4565b8381519101208214610344565b34610171576103e13661307a565b929060029360ff8554169160088310156102b2578260005260209485805260ff60406000205416806107da575b156107a6579061041e92916136e8565b5050508381519101209060248460018060a01b036016541660405192838092630e2ab4cb60e21b82528760048301525afa90811561079a5760009161076d575b501561073257610472600192835414613d90565b60005282805260406000209160ff1992838154169055600393846000526040600020838582541617905584848754161786558151916001600160401b03928381116106a45780600c926104ce826104c98654612daa565b61330b565b8490601f83116001146106c5576000926106ba575b505060001982891b1c191690851b1781555b6104ff8154612daa565b9283116106a457610511601b54612daa565b601f811161063d575b50600091601f841160011461059d5750928293918392600094610592575b50501b9160001990851b1c191617601b555b82541617905561055c600554426139f7565b6004557f130bb2fe638478ab244a90fc4550e3d9f3401c2bd639012d7cb8d0cbe95266ef6040518061058d816133c9565b0390a1005b015492508780610538565b91905082601f198116601b6000527f3ad8aa4f87544323a9d1e5dd902f40c356527a7955687113db5f9a85ad579dc1936000905b8783831061061557505050106105ef575b5050811b01601b5561054a565b6000805160206150d5833981519152015460001983871b60f8161c1916905585806105e2565b6000805160206150d583398151915286015487559586019590940193869350908101906105d1565b601b6000527f3ad8aa4f87544323a9d1e5dd902f40c356527a7955687113db5f9a85ad579dc1601f850160051c81019184861061069a575b601f0160051c019085905b82811061068e57505061051a565b60008155018590610680565b9091508190610675565b634e487b7160e01b600052604160045260246000fd5b0151905089806104e3565b90879350601f19831691856000526000805160206150d58339815191529260005b8882821061071c5750508411610704575b505050811b0181556104f5565b0151600019838b1b60f8161c191690558980806106f7565b8385015186558b979095019493840193016106e6565b60405162461bcd60e51b8152600481018590526013602482015272155cd95c88191bd95cc81b9bdd08195e1a5cdd606a1b6044820152606490fd5b61078d9150853d8711610793575b6107858183612d73565b81019061317c565b8661045e565b503d61077b565b6040513d6000823e3d90fd5b60405162461bcd60e51b815260048101879052600c60248201526b57524f4e475f53544154555360a01b6044820152606490fd5b508684148061040e57506003841461040e565b346101715761083e61082a61080a610804366130d8565b916136e8565b5050506020815191012061082561082082613b09565b613abd565b613c1f565b604051918291602083526020830190612f1b565b0390f35b3461017157602036600319011261017157610861610820600435613b09565b61083e60405161082a8161025381612de4565b3461017157606036600319011261017157600435158015600435036101715760243560ff6002541660088110156102b257600303610e43576040516108bc8161025381612e76565b8051602060443592012003610e0a576017546040516318da001160e01b815290602090829060049082906001600160a01b03165afa90811561079a57600091610dd0575b50600854604051634047e10360e11b81529092906020816004816001600160a01b0387165afa90811561079a57600091610d9c575b5061271061094661094e9286613937565b04809461394a565b9360045442118015610d93575b15610c3e5750506109b261098e60ff6006541660405161097e8161025381612e76565b6020815191012060085491613a04565b9360ff600654166040516109a58161025381612de4565b602081519101209061397a565b9160ff600654166003811015806102b257600182148015918183610c30575b81908015610c23575b6109e49150613638565b601754604051632ee4b68b60e11b815290602090829060049082906001600160a01b03165afa90811561079a57600091610c04575b50610bb7576102b25782610ae75750610a509360009384935083925082916001600160a01b03165af1610a4a614044565b50614074565b60075560085560043515610ae05760045b60ff6002541660088110156102b2576000526020805260406000209060ff199182815416905560088110156102b257610ab29160ff82166000526020805260016040600020918254161790556131d5565b7f130bb2fe638478ab244a90fc4550e3d9f3401c2bd639012d7cb8d0cbe95266ef6040518061058d816133c9565b6005610a61565b60009091610baa575b8115610b97575b509260209291610b09610b5795613638565b6001600160a01b0390610b1b90615046565b60405163a9059cbb60e01b81526001600160a01b0390931660048401526024830193909352909384929190911690829060009082906044820190565b03925af1801561079a57610b7391600091610b78575b50615008565b610a50565b610b91915060203d602011610793576107858183612d73565b84610b6d565b90509190916102b2579060006020610af7565b5050600281146000610af0565b9150919293506102b25760028203610bda575050610bd49061437a565b50610a50565b15610be95750610bd490614c3e565b15610bf45750610a50565b610bfd90614723565b5082610bd4565b610c1d915060203d602011610793576107858183612d73565b89610a19565b506102b2578084156109da565b5060009050600284146109d1565b9250925050610c4957005b6007548111610d585760145490670de0b6b3a764000080831015610d1b57610c7360059383613937565b04610c9b8160ff60065416604051610c8e8161025381612e76565b60208151910120906140ae565b600855610cb88260ff60065416604051610c8e8161025381612de4565b60075560ff199183836002541617600255600955600a558160005260208052604060002060018282541617905560025416176002557f1c9ee42116032ebac99a31ae475140077588d76949471dfb40a21a14ad523b2d6040518061058d816133c9565b60405162461bcd60e51b81526020600482015260156024820152740a0aa9c92a6909a8a9ca8bea482a8929ebe90928e9605b1b6044820152606490fd5b60405162461bcd60e51b81526020600482015260136024820152720a0aa9c92a6909a8a9ca8bea89e9ebe90928e9606b1b6044820152606490fd5b5060043561095b565b90506020813d602011610dc8575b81610db760209383612d73565b810103126101715751612710610935565b3d9150610daa565b90506020813d602011610e02575b81610deb60209383612d73565b8101031261017157610dfc906136d4565b83610900565b3d9150610dde565b60405162461bcd60e51b81526020600482015260116024820152700ac82aa98a89288be9c9ea8be9a82a8869607b1b6044820152606490fd5b60405162461bcd60e51b815260206004820152600d60248201526c1393d517d4d550935255151151609a1b6044820152606490fd5b34610171576000366003190112610171576020600054604051908152f35b34610171576040366003190112610171576001600160401b0360043581811161017157610ec7903690600401613033565b90602435610ed761082082613b09565b60405190610eef82610ee881612de4565b0383612d73565b8151602092830120036110385782519182116106a457610f10601c54612daa565b601f8111610fd4575b5080601f8311600114610f5357508192600092610f48575b50508160011b916000199060031b1c191617601c55005b015190508280610f31565b90601f19831693601c6000527f0e4562a10381dec21b205ed72637e6b1b523bdd0e4d4d50af5cd23dd4500a211926000905b868210610fbc5750508360019510610fa3575b505050811b01601c55005b015160001960f88460031b161c19169055828080610f98565b80600185968294968601518155019501930190610f85565b601c6000527f0e4562a10381dec21b205ed72637e6b1b523bdd0e4d4d50af5cd23dd4500a211601f840160051c81019183851061102e575b601f0160051c01905b8181106110225750610f19565b60008155600101611015565b909150819061100c565b82519182116106a45761104c601d54612daa565b601f8111611112575b5080601f831160011461109157508192600092611086575b5050600019600383901b1c191660019190911b17601d55005b01519050828061106d565b90601f19831693601d6000527f6d4407e7be21f808e6509aa9fa9143369579dd7d760fe20a2c09680fc146134f926000905b8682106110fa57505083600195106110e1575b505050811b01601d55005b015160001960f88460031b161c191690558280806110d6565b806001859682949686015181550195019301906110c3565b601d6000527f6d4407e7be21f808e6509aa9fa9143369579dd7d760fe20a2c09680fc146134f601f840160051c81019183851061116c575b601f0160051c01905b8181106111605750611055565b60008155600101611153565b909150819061114a565b3461017157600036600319011261017157602061018f60ff600654166040516111a28161025381612de4565b83815191012090613911565b346101715760003660031901126101715760206111c9613855565b6040516001600160a01b039091168152f35b34610171576000366003190112610171576040516000601e546111fd81612daa565b808452906001908181169081156112825750600114611227575b61083e8461082a81860382612d73565b601e600090815292507f50bb669a95c7b50b7e8a6f09454034b2b14cf2b85c730dca9a539ca82cb6e3505b82841061126a57505050810160200161082a82611217565b80546020858701810191909152909301928101611252565b60ff191660208087019190915292151560051b8501909201925061082a9150839050611217565b3461017157600036600319011261017157602060ff600254166112cf6040518092612eeb565bf35b3461017157600036600319011261017157602061018f60ff600654166040516111a28161025381612e76565b34610171576080366003190112610171576004356003811015610171576024356001600160401b03811161017157611339903690600401613033565b604435906001600160a01b03821682036101715760ff600654169260038410156102b25761137b610242926113716020968414613638565b8460643591614e4b565b92836113878184613911565b92614cdb565b610120366003190112610171576004356001600160401b038111610171576113b9903690600401613033565b60056024351015610171576005604435101561017157600360a43510156101715760c4356001600160401b038111610171576113f9903690600401613033565b60e4356001600160a01b03811690036101715760405161141881612d45565b60405161142481612cd9565b60008152815260206040519161143983612cf4565b60405161144581612d0f565b60008152600083820152600060408201526000606082015260006080820152600060a0820152835260405161147981612d2a565b600081526000838201526000604082015260006060820152828401526040516114a181612cf4565b6060815260608382015260606040820152604084015201526000600160a43514908115611bf3575b8115611be1575b50906114de6114ec92613638565b610104359060e435906136e8565b5090829392516020850120926000548403611bb057601654604051630e2ab4cb60e21b81526004810186905290602090829060249082906001600160a01b03165afa90811561079a57600091611b91575b5015611b5b5760ff6002541660088110156102b2576000526020805261156a60ff6040600020541661313f565b60843515611b225761157d604435612d94565b60ff60443516600052601f602052604060002054906115a2608435338760a435613de9565b60ff6002541660088110156102b25760005260208052604060002060ff19815416905560016000526040600020600160ff19825416179055600160ff196002541617600255604051956115f487612cd9565b86526040519261160384612d0f565b60018452611612602435612d94565b602435602085015242604085015260006060850152608084015261163b60a43560a08501612d9e565b6040519061164882612d2a565b815260643560208201526000604082015260006060820152611668613672565b611670613672565b906040519361167e85612cf4565b8452602084015260408301526040519261169784612cf4565b835260208301526040820152604051936116b085612d45565b80855281602086015251600155805180519060088210156102b2576116d660a0926131d5565b60208101516116e481612d94565b6116ed81612d94565b61ff006002549160081b169061ff0019161760025560408101516003556060810151600455608081015160055501519060038210156102b25760409160ff8019600654169116176006556060602082015180516007556020810151600855838101516009550151600a55015180518051906001600160401b0382116106a45781906117828261177d600b54612daa565b6132ac565b602090601f8311600114611aae57600092611aa3575b50508160011b916000199060031b1c191617600b555b60208101518051906001600160401b0382116106a4576117d3826104c9600c54612daa565b602090601f8311600114611a2a57604093929160009183611a1f575b50508160011b916000199060031b1c191617600c555b01518051906001600160401b0382116106a457819061182e82611829600d54612daa565b61324d565b602090601f83116001146119ab576000926119a0575b50508160011b916000199060031b1c191617600d555b601554600019949085811461198a576001016015558051906001600160401b0382116106a4576118948261188f600e54612daa565b61336a565b602090601f83116001146119125795829161083e97600093611907575b50508260011b9260031b1c191617600e555b600f556010557f5c0140b1f9412009d09b44a8920b411de7a75ebe8c087005130524935e0e457f604051806118f8848261311d565b0390a16040519182918261311d565b0151915087806118b1565b90601f19831691600e6000526000805160206150f58339815191529260005b81811061197257509161083e98918560019695941061195a575b50505050811b01600e556118c3565b01519060f88460031b161c191690558680808061194b565b92936020600181928786015181550195019301611931565b634e487b7160e01b600052601160045260246000fd5b015190508680611844565b600d60009081526000805160206151358339815191529350601f198516905b818110611a0757509084600195949392106119ee575b505050811b01600d5561185a565b015160001960f88460031b161c191690558680806119e0565b929360206001819287860151815501950193016119ca565b0151905088806117ef565b90600c6000526000805160206150d58339815191529160005b601f1985168110611a8b575091839160019360409695601f19811610611a72575b505050811b01600c55611805565b015160001960f88460031b161c19169055888080611a64565b91926020600181928685015181550194019201611a43565b015190508780611798565b600b60009081526000805160206151558339815191529350601f198516905b818110611b0a5750908460019594939210611af1575b505050811b01600b556117ae565b015160001960f88460031b161c19169055878080611ae3565b92936020600181928786015181550195019301611acd565b60405162461bcd60e51b81526020600482015260116024820152705354414b455f414d4f554e545f5a45524f60781b6044820152606490fd5b60405162461bcd60e51b815260206004820152600e60248201526d1554d15497d393d517d1561254d560921b6044820152606490fd5b611baa915060203d602011610793576107858183612d73565b8661153d565b60405162461bcd60e51b81526020600482015260096024820152682727aa2fa7aba722a960b91b6044820152606490fd5b90506102b25760a435156114de6114d0565b505060a43560021460006114c9565b3461017157611c10366130d8565b60ff600254169060088210156102b257611c6c92611c4792600052602094858052611c4260ff6040600020541661313f565b6136e8565b505050828151910120604051611c608161025381612de4565b83815191012014613d90565b60405190611c7982612cd9565b6000825260405191611c8a83612d0f565b60078352600082840152600060408401526000606084015260006080840152600060a084015260405190611cbd82612d2a565b60008252600083830152600060408301526000606083015260405190611ce282612cf4565b604051611cee81612cd9565b600081528252604051611d0081612cd9565b6000815284830152604051611d1481612cd9565b60008152604083015260405194611d2a86612cf4565b8552838501928352604085019182528484604051611d4781612d45565b8381520152519360019485555191825160088110156102b257611d69906131d5565b83830151611d7681612d94565b611d7f81612d94565b61ff006002549160081b169061ff0019161760025560a0604084015193600394855560608101516004556080810151600555015190838210156102b25760609160ff8019600654169116176006555180516007558481015160085560408101516009550151600a55519182519283516001600160401b03948582116106a4578190611e0f8261177d600b54612daa565b8490601f83116001146121a357600092612198575b505060001982861b1c191690861b17600b555b818101518051908582116106a457611e54826104c9600c54612daa565b8390601f83116001146121255760409392916000918361211a575b505060001982871b1c191690871b17600c555b01518051908482116106a4578190611e9f82611829600d54612daa565b8390601f83116001146120ab576000926120a0575b505060001982851b1c191690851b17600d555b611ecf613672565b8051908482116106a4578190611eef82611eea601154612daa565b6131ee565b8390601f831160011461203157600092612026575b505060001982851b1c191690851b176011555b60006012556000601355611f29613672565b80519384116106a457611f418461188f600e54612daa565b81601f8511600114611fb05750938394918492600095611fa5575b50501b92600019911b1c191617600e555b6000600f5560006010557f496685ed89450883d7ff0e8e3b71eb9dca092e7b9742b53ed4611b7522443e5e6040518061058d816133c9565b015193508580611f5c565b92919084601f198116600e6000526000805160206150f5833981519152956000905b8983831061200c5750505010611ff2575b50505050811b01600e55611f6d565b01519060f884600019921b161c1916905582808080611fe3565b858701518955909701969485019488935090810190611fd2565b015190508680611f04565b90879350601f1983169160116000526000805160206151158339815191529260005b8782821061208a5750508411612072575b505050811b01601155611f17565b015160001983871b60f8161c19169055868080612064565b8385015186558b97909501949384019301612053565b015190508680611eb4565b90879350601f19831691600d6000526000805160206151358339815191529260005b8782821061210457505084116120ec575b505050811b01600d55611ec7565b015160001983871b60f8161c191690558680806120de565b8385015186558b979095019493840193016120cd565b015190508880611e6f565b92918791601f19821690600c6000526000805160206150d58339815191529160005b8882821061218257505095836040971061216a575b505050811b01600c55611e82565b015160001983891b60f8161c1916905588808061215c565b8389015185558c96909401939283019201612147565b015190508780611e24565b90889350601f19831691600b6000526000805160206151558339815191529260005b888282106121fc57505084116121e4575b505050811b01600b55611e37565b015160001983881b60f8161c191690558780806121d6565b8385015186558c979095019493840193016121c5565b3461017157602080600319360112610171576013546004359181156122e05760105491821561229b5761226660409485516122508161025381612de4565b848151910120811490811561227d575b50613abd565b83516001600160a01b039182168152921690820152f35b9050855161228e8161025381612e76565b8481519101201486612260565b60405162461bcd60e51b815260048101839052601960248201527f4e4f5f54454c454752414d5f49445f464f525f53454c4c4552000000000000006044820152606490fd5b6064906040519062461bcd60e51b82526004820152601860248201527f4e4f5f54454c454752414d5f49445f464f525f425559455200000000000000006044820152fd5b34610171576123323661307a565b9060ff6002949394541691600883101591826102b2578360005260209586805260ff60406000205416806124f3575b916123999391611c426123739461313f565b50505085815191012060405161238c8161025381612de4565b8681519101201415613194565b6102b2576004036124be578051916001600160401b0383116106a4576123c483611829600d54612daa565b8092601f811160011461244f5780919293600091612444575b508160011b916000199060031b1c191617600d555b600660ff1960025416176002557f53d57d9d48dda1c6e6d0fc0b92d00b750b752f21cc973929ce8b4b60b374505e6040518061242d816133c9565b0390a161083e604051928284938452830190612f1b565b9050830151846123dd565b601f19811693600d6000526000805160206151358339815191529060005b8681106124a757508260019495961061248e575b5050811b01600d556123f2565b85015160001960f88460031b161c191690558480612481565b90918460018192858901518155019301910161246d565b60405162461bcd60e51b815260048101839052600d60248201526c1393d517d19253905312569151609a1b6044820152606490fd5b5092509060009260038514801561252a575b848115612516575b50919291612361565b90509190916102b25790600485148461250d565b506000935060068514612505565b60a0366003190112610171576001600160401b0360043581811161017157612564903690600401613033565b602435916001600160a01b0391908284168403610171576064600381351015610171576001600052602080527f156774b33c8bc7cb83eda4cbc43b36c7c9490ff8913c488ccd5132cfc71344ea546125be9060ff1661313f565b60ff6006541660038110156102b2576125d990823514613638565b803561291d5734905b6126086040516125f58161025381612de4565b60208151910120946044978835916136e8565b509691979095885160208a01209284356000526021602052604060002082600052602052604060002054600754116128e85760206024916016541660405192838092630e2ab4cb60e21b82528860048301525afa90811561079a576000916128c9575b50156128945761267d90831415613194565b600854801561281457608435106127dc57509061269e92915b339135613de9565b6008556002805460ff1990811682178255600091909152602080527f2c5f9a2e204d4db70ad0f9037679e33061b4c51a386497019bee969e16be28d78054909116600117905583519081116106a4576126fc81611eea601154612daa565b6020601f821160011461276a578192939460009261275f575b50508160011b916000199060031b1c1916176011555b6012556013557ff13f251f5172305eb93606c0071b9c48215d3ec6a6698a7fa987c18725488e7f6040518061058d816133c9565b015190508480612715565b601f1982169060116000526000805160206151158339815191529160005b8181106127c4575095836001959697106127ab575b505050811b0160115561272b565b015160001960f88460031b161c1916905584808061279d565b9192602060018192868b015181550194019201612788565b9050711393d517d15393d551d217d410565351539560721b6040519162461bcd60e51b83526020600484015260126024840152820152fd5b503415612861576084351561282f57509061269e9291612696565b90506b16915493d7d410565351539560a21b6040519162461bcd60e51b835260206004840152600c6024840152820152fd5b90506c5a45524f5f4d534756414c554560981b6040519162461bcd60e51b835260206004840152600d6024840152820152fd5b60405162461bcd60e51b815260206004820152600f60248201526e1554d1549517d393d517d1561254d5608a1b818401528490fd5b6128e2915060203d602011610793576107858183612d73565b8a61266b565b60405162461bcd60e51b815260206004820152600f60248201526e14d51052d157d25390d3d4949150d5608a1b818501528590fd5b608435906125e2565b346101715760403660031901126101715760043560038110156101715761018f60209160243590613911565b34610171576000366003190112610171576020601554604051908152f35b3461017157600036600319011261017157602061018f60ff600654166129cb6129ae6040516129a28161025381612de4565b85815191012083613911565b916040516129bf8161025381612e76565b85815191012090613911565b906139f7565b34610171576000366003190112610171576040516129ee81612cd9565b60018054825260405191612a0183612cf4565b60405192612a0e84612d0f565b60025460ff81169060088210156102b25760ff91865260081c1693612a3285612d94565b60209485820152600354604082015260045460608201526005546080820152612a6360ff6006541660a08301612d9e565b8152604051612a7181612d2a565b6007548152600854858201526009546040820152600a54606082015284820152604051612a9d81612cf4565b60405185816000600b54612ab081612daa565b80845290898116908115612c8f5750600114612c45575b50612ad492500382612d73565b815260405185816000600c54612ae981612daa565b80845290898116908115612c275750600114612bdd575b50612b0d92500382612d73565b8582015260405160009486600d5491612b2583612daa565b80855292818116908115612bbc5750600114612b70575b505050612b4f8161083e95960382612d73565b60408201526040820152604080519485945185528401526040830190612f40565b91909650600d600052600080516020615135833981519152916000925b828410612ba957505050810190940193612b4f8661083e612b3c565b80548585018a0152928801928101612b8d565b60ff191683860152505090151560051b8201019450612b4f8661083e612b3c565b600c60009081529150886000805160206150d58339815191525b828410612c105750505091612b0d928201018892612b00565b8054878501870152869450928501928a9101612bf7565b60ff19168486015250899390151560051b8301019050612b0d612b00565b600b60009081529150886000805160206151558339815191525b828410612c785750505091612ad4928201018892612ac7565b8054878501870152869450928501928a9101612c5f565b60ff19168486015250899390151560051b8301019050612ad4612ac7565b3461017157600036600319011261017157806112cf60209260ff600654165b9060038210156102b25752565b602081019081106001600160401b038211176106a457604052565b606081019081106001600160401b038211176106a457604052565b60c081019081106001600160401b038211176106a457604052565b608081019081106001600160401b038211176106a457604052565b604081019081106001600160401b038211176106a457604052565b6001600160401b0381116106a457604052565b90601f801991011681019081106001600160401b038211176106a457604052565b600511156102b257565b60038210156102b25752565b90600182811c92168015612dda575b6020831014612dc457565b634e487b7160e01b600052602260045260246000fd5b91607f1691612db9565b600e5460009291612df482612daa565b80825291600190818116908115612e595750600114612e1257505050565b91929350600e6000526000805160206150f5833981519152916000925b848410612e4157505060209250010190565b80546020858501810191909152909301928101612e2f565b915050602093945060ff929192191683830152151560051b010190565b60115460009291612e8682612daa565b80825291600190818116908115612e595750600114612ea457505050565b919293506011600052600080516020615115833981519152916000925b848410612ed357505060209250010190565b80546020858501810191909152909301928101612ec1565b9060088210156102b25752565b60005b838110612f0b5750506000910152565b8181015183820152602001612efb565b90602091612f3481518092818552858086019101612ef8565b601f01601f1916010190565b90604061301592612f9460a08251612f59868251612eeb565b6020810151612f6781612d94565b602087015284810151858701526060810151606087015260808101516080870152015160a0850190612ccc565b60606020820151805160c0860152602081015160e0860152838101516101008601520151610120840152015190612fe16101608061014084015260608451918401526101c0830190612f1b565b906101a0604061300560208601519461015f19958686830301610180870152612f1b565b9401519282850301910152612f1b565b90565b6001600160401b0381116106a457601f01601f191660200190565b81601f820112156101715780359061304a82613018565b926130586040519485612d73565b8284526020838301011161017157816000926020809301838601378301015290565b906080600319830112610171576001600160401b0360043581811161017157836130a691600401613033565b92602435918211610171576130bd91600401613033565b906044356001600160a01b0381168103610171579060643590565b606060031982011261017157600435906001600160401b0382116101715761310291600401613033565b906024356001600160a01b0381168103610171579060443590565b6060602061301593818452805151828501520151916040808201520190612f40565b1561314657565b60405162461bcd60e51b815260206004820152600e60248201526d494e56414c49445f53544154555360901b6044820152606490fd5b90816020910312610171575180151581036101715790565b1561319b57565b60405162461bcd60e51b81526020600482015260126024820152712ca7aaafa0a922afaa2422afa9a2a62622a960711b6044820152606490fd5b60088110156102b25760ff801960025416911617600255565b601f81116131fa575050565b60009060118252600080516020615115833981519152906020601f850160051c83019410613243575b601f0160051c01915b82811061323857505050565b81815560010161322c565b9092508290613223565b601f8111613259575050565b600090600d8252600080516020615135833981519152906020601f850160051c830194106132a2575b601f0160051c01915b82811061329757505050565b81815560010161328b565b9092508290613282565b601f81116132b8575050565b600090600b8252600080516020615155833981519152906020601f850160051c83019410613301575b601f0160051c01915b8281106132f657505050565b8181556001016132ea565b90925082906132e1565b601f8111613317575050565b600090600c82526000805160206150d5833981519152906020601f850160051c83019410613360575b601f0160051c01915b82811061335557505050565b818155600101613349565b9092508290613340565b601f8111613376575050565b600090600e82526000805160206150f5833981519152906020601f850160051c830194106133bf575b601f0160051c01915b8281106133b457505050565b8181556001016133a8565b909250829061339f565b6020808252600180548284015260408084015260ff6002546133f060608601838316612eeb565b60081c166133fd81612d94565b608084015260035460a084015260045460c084015260055460e084015261342e60ff60065416610100850190612ccc565b6007546101208401526008546101408401526009546101609081850152600a546101808501526101a084015260606101c0840152600092600b5461347181612daa565b9081610220840152838116908160001461361957506001146135cd575b506101bf1981850381016101e0830152600c546000956134ad82612daa565b808252918581169081156135b05750600114613564575b50506102009082860301910152600092600d54916134e183612daa565b8083529281811690811561354757506001146134ff575b5050505090565b92935090600d60005260008051602061513583398151915292846000945b83861061353357505050500101388080806134f8565b80548587018301529401938590820161351d565b60ff191685840152505090151560051b01019050388080806134f8565b8591929650600c6000526000805160206150d583398151915290856000925b85841061359a5750500101949050610200386134c4565b8054838501860152889490930192879101613583565b60ff1916828801525090151560051b0184019450610200386134c4565b909350600b60005260008051602061515583398151915283836000925b848410613603575050506102409150840101923861348e565b8054610240858a010152019101908385916135ea565b929550506102409160ff191682860152151560051b840101923861348e565b1561363f57565b60405162461bcd60e51b815260206004820152600b60248201526a2ba927a723afaa27a5a2a760a91b6044820152606490fd5b6040519061367f82612d45565b60048252630307830360e41b6020830152565b81601f820112156101715780516136a881613018565b926136b66040519485612d73565b81845260208284010111610171576130159160208085019101612ef8565b51906001600160a01b038216820361017157565b60185460408051637276069d60e01b815260606004820152958695919490939192909186916001600160a01b0390811691613727906064850190612f1b565b9316602483015283604483015281600098899403915afa92831561382d57859186809681966137b0575b5082868051810103126137ad575061376b602086016136d4565b50818501510361377c575093929190565b5162461bcd60e51b815260206004820152600b60248201526a57524f4e475f4e4f4e434560a81b6044820152606490fd5b80fd5b97509450915093503d8084873e6137c78187612d73565b850193608086860312613829578551916001600160401b039283811161382557866137f3918901613692565b956020880151938389015198606081015191821161382157613816929101613692565b959296959438613751565b8780fd5b8580fd5b8380fd5b513d86823e3d90fd5b9081602091031261017157516001600160a01b03811681036101715790565b60ff6006541660038110156102b257600181036138cd575060175460405163f77800e560e01b815290602090829060049082906001600160a01b03165afa90811561079a576000916138a5575090565b613015915060203d81116138c6575b6138be8183612d73565b810190613836565b503d6138b4565b60020361390c57601754604051635f117aa360e11b815290602090829060049082906001600160a01b03165afa90811561079a576000916138a5575090565b600090565b60038110156102b257600052602160205260406000209060005260205260406000205490565b8181029291811591840414171561198a57565b9190820391821161198a57565b9094939260609261396c836080810198612ccc565b602083015260408201520152565b919060038310156102b2576040926139f17ffc75911105c5435503d8ce6e41bf92051ed6da32a2077c1a8f73e1d251f64cde9360009083825260216020528682208583526020526139ce81888420546139f7565b809783868395526021602052818120888252602052205560405194859485613957565b0390a190565b9190820180921161198a57565b60038110156102b2576000818152602160205260409384822084835260205284822054818110613a8257918186613a616139f1947f77008762ca31a384e88f2217752cdef978440c9ad826b7b891c59a8e61281a3198979661394a565b80988487839652602160205281812089825260205220555194859485613957565b855162461bcd60e51b8152602060048201526014602482015273125394d551919250d251539517d1115413d4d25560621b6044820152606490fd5b15613ac457565b60405162461bcd60e51b815260206004820152601760248201527f4e4f545f5448455f53454c4c45525f4f525f42555945520000000000000000006044820152606490fd5b604051613b198161025381612de4565b60208151910120604051613b308161025381612e76565b60208151910120908214918215613b4657505090565b14919050565b90613b5792916136e8565b50505080516020809201206040908151613b748161025381612de4565b83815191012081148015613c02575b15613bc8578151613b978161025381612de4565b80519084012003613bb9575190613bb182610ee881612de4565b815191012090565b5190613bb182610ee881612e76565b815162461bcd60e51b81526004810184905260136024820152722727aa2fa9a2a62622a92fa7a92fa12aaca2a960691b6044820152606490fd5b508151613c128161025381612e76565b8381519101208114613b83565b60405190613c3082610ee881612de4565b815160209283012003613cf75760405190816000601c54613c5081612daa565b80845290600190818116908115613cd75750600114613c78575b505061301592500382612d73565b90939150601c6000527f0e4562a10381dec21b205ed72637e6b1b523bdd0e4d4d50af5cd23dd4500a211936000915b818310613cbf57505061301593508201013880613c6a565b85548784018501529485019486945091830191613ca7565b91505061301594925060ff191682840152151560051b8201013880613c6a565b60405190816000601d54613d0a81612daa565b80845290600190818116908115613cd75750600114613d3157505061301592500382612d73565b90939150601d6000527f6d4407e7be21f808e6509aa9fa9143369579dd7d760fe20a2c09680fc146134f936000915b818310613d7857505061301593508201013880613c6a565b85548784018501529485019486945091830191613d60565b15613d9757565b60405162461bcd60e51b815260206004820152600a6024820152692727aa2fa9a2a62622a960b11b6044820152606490fd5b604090613de793959492956060820196825260208201520190612ccc565b565b929060ff6002541660088110156102b257806002613e109214159081614038575b5061313f565b81156140025760038410156102b25783158015613e67575b507f7d53254b9393ec490c848e90ed920cf3b18c2151daa4b322875f24dd6301206c92506139f1613e5a83838761397a565b9460405193849384613dc9565b6001851460008115613ff7575b8115613fe7575b50613e869150613638565b613e8f84615046565b926001600160a01b0380613ea287615046565b604051636eb1769f60e11b81526001600160a01b0385166004820152306024820152602094929091859183916044918391165afa801561079a578691600091613fb7575b5010613f79579060648392600083604051998a9586946323b872dd60e01b8652166004850152306024850152896044850152165af1801561079a577f7d53254b9393ec490c848e90ed920cf3b18c2151daa4b322875f24dd6301206c94613f5692600092613f5c575b5050615008565b38613e28565b613f729250803d10610793576107858183612d73565b3880613f4f565b60405162461bcd60e51b8152600481018490526016602482015275494e53554646494349454e545f414c4c4f57414e434560501b6044820152606490fd5b91508482813d8311613fe0575b613fce8183612d73565b810103126137ad575085905138613ee6565b503d613fc4565b90506102b257613e869038613e7b565b600287149150613e74565b60405162461bcd60e51b815260206004820152600e60248201526d14d51052d157d49154555254915160921b6044820152606490fd5b60039150141538613e0a565b3d1561406f573d9061405582613018565b916140636040519384612d73565b82523d6000602084013e565b606090565b1561407b57565b60405162461bcd60e51b815260206004820152600b60248201526a10d0531317d1905253115160aa1b6044820152606490fd5b92916140bb818386613a04565b60175460408051632ee4b68b60e11b815260049793959194919391926020926001600160a01b0391821684848c81845afa938415614335578b918691600096614340575b5089516318da001160e01b815292839182905afa908115614335579083916000916142fe575b50169261427e57600381101561425e57806141815750507f44e7d684df94a05f40ae4ea3f03cbd42ce0647bd9d92e4105e296c10088f41aa95969750600080808086614175955af1610a4a614044565b8351928352820152a190565b6001811460008115614273575b8115614250575b5092600086936141b26141e39d946141ad8998613638565b615046565b169289519c8d958694859363a9059cbb60e01b8552840160209093929193604081019460018060a01b031681520152565b03925af1968715614245577f44e7d684df94a05f40ae4ea3f03cbd42ce0647bd9d92e4105e296c10088f41aa959697614223916000916142285750615008565b614175565b61423f9150833d8511610793576107858183612d73565b38610b6d565b84513d6000823e3d90fd5b905061425e57600080614195565b60218a634e487b7160e01b6000525260246000fd5b60028314915061418e565b91505060038110156142e9577f44e7d684df94a05f40ae4ea3f03cbd42ce0647bd9d92e4105e296c10088f41aa95969750600281146000146142ca57506142c48261437a565b50614175565b600181036142dc57506142c482614c3e565b614223576142c482614723565b602188634e487b7160e01b6000525260246000fd5b91508582813d831161432e575b6143158183612d73565b810103126137ad575061432883916136d4565b38614125565b503d61430b565b88513d6000823e3d90fd5b614358919650823d8411610793576107858183612d73565b94386140ff565b90816020910312610171575162ffffff811681036101715790565b60175460408051635f117aa360e11b808252919493926020926004916001600160a01b039190859085908590829086165afa93841561433557600094614704575b50601a54885163095ea7b360e01b8082529184166001600160a01b03168582019081526020810189905291959091879183918290600090889083906040010393165af180156145db576146e7575b508160175416958851918252858285818a5afa9182156145db576000926146c8575b508851906325abd85f60e11b92838352878387818c5afa92831561463f576000936146a9575b508a51928884602481633488e95960e21b9d8e825260008c8301525afa9182156146695761448794600093614691575b50614a47565b826017541691895190815286818681865afa90811561460557600091614674575b50895163f77800e560e01b808252989088818881885afa91821561466957899160009361464a575b5060248d5180978193825260018b8301525afa91821561463f576144fb946000936146105750614a47565b94816017541692885182815286818381885afa9283156146055787916000946145e6575b50828b518097819382525afa9283156145db57879587956000956145b7575b508a519081526001600160a01b03909416918401918252602082019590955291938492839160009183906040010393165af180156145ac5761458894955061458e575b5050614c3e565b50600190565b816145a492903d10610793576107858183612d73565b503880614581565b85513d6000823e3d90fd5b6000929195506145d390873d89116138c6576138be8183612d73565b94909161453e565b89513d6000823e3d90fd5b6145fe919450823d84116138c6576138be8183612d73565b923861451f565b8a513d6000823e3d90fd5b614631919350893d8b11614638575b6146298183612d73565b81019061435f565b9138614481565b503d61461f565b8b513d6000823e3d90fd5b614662919350823d84116138c6576138be8183612d73565b91386144d0565b8c513d6000823e3d90fd5b61468b9150873d89116138c6576138be8183612d73565b386144a8565b6146319193508a3d8c11614638576146298183612d73565b6146c1919350883d8a116138c6576138be8183612d73565b9138614451565b6146e0919250863d88116138c6576138be8183612d73565b903861442b565b6146fd90863d8811610793576107858183612d73565b5038614409565b61471c919450853d87116138c6576138be8183612d73565b92386143bb565b90601754600092604080516325abd85f60e11b8082526020936004928581858160018060a01b03809b165afa908115614a20579087918a91614a2a575b501688813b156137ad57829185875180948193630d0e30db60e41b83525af18015614a2057614a0d575b508783918688601754168751968780928882525afa948515614a035782956149e4575b5087601a541694878751809281868d826147ea8963095ea7b360e01b9e8f84528d840160209093929193604081019460018060a01b031681520152565b0393165af18015614936576149c7575b50876017541693865190815287818581885afa9081156149365783916149aa575b5086519063f77800e560e01b9586835289838781845afa9283156149815760249392918b91879461498b575b508a51633488e95960e21b815260018982015294859182905afa928315614981579061487c9493929186936149695750614a47565b96806017541694865194808652888686818a5afa95861561495f579089918597614940575b508589518099819382525afa958615614936579183918a989795938a979596614917575b506148f08851998a97889687948552840160209093929193604081019460018060a01b031681520152565b0393165af190811561490e575061458894955061458e575050614c3e565b513d87823e3d90fd5b61492f919650873d89116138c6576138be8183612d73565b94386148c5565b87513d85823e3d90fd5b614958919750823d84116138c6576138be8183612d73565b95386148a1565b88513d86823e3d90fd5b6146319193508b3d8d11614638576146298183612d73565b89513d87823e3d90fd5b6149a3919450823d84116138c6576138be8183612d73565b9238614847565b6149c19150883d8a116138c6576138be8183612d73565b3861481b565b6149dd90883d8a11610793576107858183612d73565b50386147fa565b6149fc919550873d89116138c6576138be8183612d73565b93386147ad565b86513d84823e3d90fd5b97614a19849299612d60565b979061478a565b85513d8b823e3d90fd5b614a419150873d89116138c6576138be8183612d73565b38614760565b601a54604051636eb1769f60e11b81523060048201526001600160a01b039182166024820181905293959493929091169190602081604481865afa801561079a578591600091614c09575b5010614bb7575b50603c42019384421161198a57601a546040516101008101916001600160a01b0316906001600160401b038311818410176106a45760409283529384526001600160a01b03928316602085810191825262ffffff9687168685019081523060608801908152608088019a8b5260a08801998a52600060c0890181815260e08a01828152975163414bf38960e01b81529951891660048b01529451881660248a01529151909816604488015296518516606487015297516084860152955160a4850152945160c4840152511660e482015292918391610104918391905af190811561079a57600091614b88575090565b906020823d602011614baf575b81614ba260209383612d73565b810103126137ad57505190565b3d9150614b95565b60405163095ea7b360e01b8152600481019190915260001960248201526020816044816000865af1801561079a5715614a9957614c029060203d602011610793576107858183612d73565b5038614a99565b91506020823d602011614c36575b81614c2460209383612d73565b810103126137ad575084905138614a92565b3d9150614c17565b60175460405163f77800e560e01b81526001600160a01b03916020908290600490829086165afa90811561079a57600091614cbd575b501690813b1561017157600091602483926040519485938492630852cd8d60e31b845260048401525af1801561079a57614cae5750600190565b614cb790612d60565b38614588565b614cd5915060203d81116138c6576138be8183612d73565b38614c74565b92909160ff6002541660088110156102b257806002614d029214159081614038575061313f565b60038410156102b25783614d6b576000808084819482908215614d61575b6001600160a01b031690f11561079a577ff710aed018092bd38ab8d98fe9aa682f6b3aa552004e37cb2e0d6e3e669582ee915b6139f1613e5a838387613a04565b6108fc9150614d20565b916001841460008115614e40575b8115614e32575b5082614dd794614d91602093613638565b6001600160a01b03614da288615046565b1690600060405180988195829463a9059cbb60e01b84526004840160209093929193604081019460018060a01b031681520152565b03925af192831561079a577ff710aed018092bd38ab8d98fe9aa682f6b3aa552004e37cb2e0d6e3e669582ee93614e1591600091614e1a5750615008565b614d53565b61423f915060203d8111610793576107858183612d73565b90506102b257600082614d80565b600286149150614d79565b90614e5692916136e8565b505050805160208092012090604051600060115491614e7483612daa565b8082528185810193600195878782169182600014614fed575050600114614fa1575b614ea292500382612d73565b5190208314908115614eec575b5015614eb9575090565b6064906040519062461bcd60e51b82526004820152600c60248201526b15539055551213d49256915160a21b6044820152fd5b604051600e54925090816000614f0185612daa565b9283835286830195878282169182600014614f83575050600114614f38575b50614f2d92500382612d73565b519020821438614eaf565b869150600e6000526000805160206150f5833981519152906000915b858310614f6b575050614f2d935082010138614f20565b80548388018501528694508893909201918101614f54565b60ff19168852614f2d95151560051b8501019250389150614f209050565b505060116000528185600080516020615115833981519152866000915b858310614fd4575050614ea29350820101614e96565b8091929450548385880101520191018690868593614fbe565b60ff19168752614ea294151560051b8401019150614e969050565b1561500f57565b60405162461bcd60e51b815260206004820152600f60248201526e1514905394d1915497d19052531151608a1b6044820152606490fd5b60038110156102b2576002811461509b5760011461506357600090565b60175460405163f77800e560e01b815290602090829060049082906001600160a01b03165afa90811561079a576000916138a5575090565b50601754604051635f117aa360e11b815290602090829060049082906001600160a01b03165afa90811561079a576000916138a557509056fedf6966c971051c3d54ec59162606531493a51404a002842f56009d7e5cf4a8c7bb7b4a454dc3493923482f07822329ed19e8244eff582cc204f8554c3620c3fd31ecc21a745e3968a04e9570e4425bc18fa8019c68028196b546d1669c200c68d7b6990105719101dabeb77144f2a3385c8033acd3af97e9423a695e81ad1eb50175b7a638427703f0dbe7bb9bbf987a2551717b34e79f33b5b1008d1fa01db9a264697066735822122040ed09994098aebcabf11fe02581ab9775089030e2a5c4b4d7e1954d8105ee0a64736f6c63430008130033",
  "devdoc": {
    "kind": "dev",
    "methods": {},
    "version": 1
  },
  "userdoc": {
    "kind": "user",
    "methods": {},
    "version": 1
  },
  "storageLayout": {
    "storage": [
      {
        "astId": 9000,
        "contract": "contracts/features/MecenateFeed.sol:MecenateFeed",
        "label": "owner",
        "offset": 0,
        "slot": "0",
        "type": "t_bytes32"
      },
      {
        "astId": 9003,
        "contract": "contracts/features/MecenateFeed.sol:MecenateFeed",
        "label": "post",
        "offset": 0,
        "slot": "1",
        "type": "t_struct(Post)8037_storage"
      },
      {
        "astId": 9006,
        "contract": "contracts/features/MecenateFeed.sol:MecenateFeed",
        "label": "postSettingPrivate",
        "offset": 0,
        "slot": "14",
        "type": "t_struct(PostSettingPrivate)8083_storage"
      },
      {
        "astId": 9009,
        "contract": "contracts/features/MecenateFeed.sol:MecenateFeed",
        "label": "settings",
        "offset": 0,
        "slot": "20",
        "type": "t_struct(FeedSettings)8015_storage"
      },
      {
        "astId": 9013,
        "contract": "contracts/features/MecenateFeed.sol:MecenateFeed",
        "label": "postDurationToDays",
        "offset": 0,
        "slot": "31",
        "type": "t_mapping(t_uint8,t_uint256)"
      },
      {
        "astId": 9017,
        "contract": "contracts/features/MecenateFeed.sol:MecenateFeed",
        "label": "validStatuses",
        "offset": 0,
        "slot": "32",
        "type": "t_mapping(t_uint8,t_bool)"
      },
      {
        "astId": 9459,
        "contract": "contracts/features/MecenateFeed.sol:MecenateFeed",
        "label": "_deposit",
        "offset": 0,
        "slot": "33",
        "type": "t_mapping(t_uint256,t_mapping(t_bytes32,t_uint256))"
      }
    ],
    "types": {
      "t_address": {
        "encoding": "inplace",
        "label": "address",
        "numberOfBytes": "20"
      },
      "t_bool": {
        "encoding": "inplace",
        "label": "bool",
        "numberOfBytes": "1"
      },
      "t_bytes32": {
        "encoding": "inplace",
        "label": "bytes32",
        "numberOfBytes": "32"
      },
      "t_bytes_storage": {
        "encoding": "bytes",
        "label": "bytes",
        "numberOfBytes": "32"
      },
      "t_enum(PostStatus)7976": {
        "encoding": "inplace",
        "label": "enum Structures.PostStatus",
        "numberOfBytes": "1"
      },
      "t_enum(PostType)7986": {
        "encoding": "inplace",
        "label": "enum Structures.PostType",
        "numberOfBytes": "1"
      },
      "t_enum(Tokens)7980": {
        "encoding": "inplace",
        "label": "enum Structures.Tokens",
        "numberOfBytes": "1"
      },
      "t_mapping(t_bytes32,t_uint256)": {
        "encoding": "mapping",
        "key": "t_bytes32",
        "label": "mapping(bytes32 => uint256)",
        "numberOfBytes": "32",
        "value": "t_uint256"
      },
      "t_mapping(t_uint256,t_mapping(t_bytes32,t_uint256))": {
        "encoding": "mapping",
        "key": "t_uint256",
        "label": "mapping(uint256 => mapping(bytes32 => uint256))",
        "numberOfBytes": "32",
        "value": "t_mapping(t_bytes32,t_uint256)"
      },
      "t_mapping(t_uint8,t_bool)": {
        "encoding": "mapping",
        "key": "t_uint8",
        "label": "mapping(uint8 => bool)",
        "numberOfBytes": "32",
        "value": "t_bool"
      },
      "t_mapping(t_uint8,t_uint256)": {
        "encoding": "mapping",
        "key": "t_uint8",
        "label": "mapping(uint8 => uint256)",
        "numberOfBytes": "32",
        "value": "t_uint256"
      },
      "t_string_storage": {
        "encoding": "bytes",
        "label": "string",
        "numberOfBytes": "32"
      },
      "t_struct(FeedSettings)8015_storage": {
        "encoding": "inplace",
        "label": "struct Structures.FeedSettings",
        "members": [
          {
            "astId": 7994,
            "contract": "contracts/features/MecenateFeed.sol:MecenateFeed",
            "label": "punishmentRatio",
            "offset": 0,
            "slot": "0",
            "type": "t_uint256"
          },
          {
            "astId": 7996,
            "contract": "contracts/features/MecenateFeed.sol:MecenateFeed",
            "label": "postCount",
            "offset": 0,
            "slot": "1",
            "type": "t_uint256"
          },
          {
            "astId": 7998,
            "contract": "contracts/features/MecenateFeed.sol:MecenateFeed",
            "label": "usersModuleContract",
            "offset": 0,
            "slot": "2",
            "type": "t_address"
          },
          {
            "astId": 8000,
            "contract": "contracts/features/MecenateFeed.sol:MecenateFeed",
            "label": "factoryContract",
            "offset": 0,
            "slot": "3",
            "type": "t_address"
          },
          {
            "astId": 8002,
            "contract": "contracts/features/MecenateFeed.sol:MecenateFeed",
            "label": "verifierContract",
            "offset": 0,
            "slot": "4",
            "type": "t_address"
          },
          {
            "astId": 8004,
            "contract": "contracts/features/MecenateFeed.sol:MecenateFeed",
            "label": "vaultContract",
            "offset": 0,
            "slot": "5",
            "type": "t_address"
          },
          {
            "astId": 8006,
            "contract": "contracts/features/MecenateFeed.sol:MecenateFeed",
            "label": "router",
            "offset": 0,
            "slot": "6",
            "type": "t_address"
          },
          {
            "astId": 8008,
            "contract": "contracts/features/MecenateFeed.sol:MecenateFeed",
            "label": "encodedSymKey",
            "offset": 0,
            "slot": "7",
            "type": "t_bytes_storage"
          },
          {
            "astId": 8010,
            "contract": "contracts/features/MecenateFeed.sol:MecenateFeed",
            "label": "lastMessageForBuyer",
            "offset": 0,
            "slot": "8",
            "type": "t_bytes_storage"
          },
          {
            "astId": 8012,
            "contract": "contracts/features/MecenateFeed.sol:MecenateFeed",
            "label": "lastMessageForSeller",
            "offset": 0,
            "slot": "9",
            "type": "t_bytes_storage"
          },
          {
            "astId": 8014,
            "contract": "contracts/features/MecenateFeed.sol:MecenateFeed",
            "label": "version",
            "offset": 0,
            "slot": "10",
            "type": "t_string_storage"
          }
        ],
        "numberOfBytes": "352"
      },
      "t_struct(Post)8037_storage": {
        "encoding": "inplace",
        "label": "struct Structures.Post",
        "members": [
          {
            "astId": 8033,
            "contract": "contracts/features/MecenateFeed.sol:MecenateFeed",
            "label": "creator",
            "offset": 0,
            "slot": "0",
            "type": "t_struct(User)8095_storage"
          },
          {
            "astId": 8036,
            "contract": "contracts/features/MecenateFeed.sol:MecenateFeed",
            "label": "postdata",
            "offset": 0,
            "slot": "1",
            "type": "t_struct(PostData)8047_storage"
          }
        ],
        "numberOfBytes": "416"
      },
      "t_struct(PostData)8047_storage": {
        "encoding": "inplace",
        "label": "struct Structures.PostData",
        "members": [
          {
            "astId": 8040,
            "contract": "contracts/features/MecenateFeed.sol:MecenateFeed",
            "label": "settings",
            "offset": 0,
            "slot": "0",
            "type": "t_struct(PostSettings)8070_storage"
          },
          {
            "astId": 8043,
            "contract": "contracts/features/MecenateFeed.sol:MecenateFeed",
            "label": "escrow",
            "offset": 0,
            "slot": "5",
            "type": "t_struct(PostEscrow)8092_storage"
          },
          {
            "astId": 8046,
            "contract": "contracts/features/MecenateFeed.sol:MecenateFeed",
            "label": "data",
            "offset": 0,
            "slot": "9",
            "type": "t_struct(PostEncryptedData)8054_storage"
          }
        ],
        "numberOfBytes": "384"
      },
      "t_struct(PostEncryptedData)8054_storage": {
        "encoding": "inplace",
        "label": "struct Structures.PostEncryptedData",
        "members": [
          {
            "astId": 8049,
            "contract": "contracts/features/MecenateFeed.sol:MecenateFeed",
            "label": "encryptedData",
            "offset": 0,
            "slot": "0",
            "type": "t_bytes_storage"
          },
          {
            "astId": 8051,
            "contract": "contracts/features/MecenateFeed.sol:MecenateFeed",
            "label": "encryptedKey",
            "offset": 0,
            "slot": "1",
            "type": "t_bytes_storage"
          },
          {
            "astId": 8053,
            "contract": "contracts/features/MecenateFeed.sol:MecenateFeed",
            "label": "decryptedData",
            "offset": 0,
            "slot": "2",
            "type": "t_bytes_storage"
          }
        ],
        "numberOfBytes": "96"
      },
      "t_struct(PostEscrow)8092_storage": {
        "encoding": "inplace",
        "label": "struct Structures.PostEscrow",
        "members": [
          {
            "astId": 8085,
            "contract": "contracts/features/MecenateFeed.sol:MecenateFeed",
            "label": "stake",
            "offset": 0,
            "slot": "0",
            "type": "t_uint256"
          },
          {
            "astId": 8087,
            "contract": "contracts/features/MecenateFeed.sol:MecenateFeed",
            "label": "payment",
            "offset": 0,
            "slot": "1",
            "type": "t_uint256"
          },
          {
            "astId": 8089,
            "contract": "contracts/features/MecenateFeed.sol:MecenateFeed",
            "label": "punishment",
            "offset": 0,
            "slot": "2",
            "type": "t_uint256"
          },
          {
            "astId": 8091,
            "contract": "contracts/features/MecenateFeed.sol:MecenateFeed",
            "label": "penalty",
            "offset": 0,
            "slot": "3",
            "type": "t_uint256"
          }
        ],
        "numberOfBytes": "128"
      },
      "t_struct(PostSettingPrivate)8083_storage": {
        "encoding": "inplace",
        "label": "struct Structures.PostSettingPrivate",
        "members": [
          {
            "astId": 8072,
            "contract": "contracts/features/MecenateFeed.sol:MecenateFeed",
            "label": "vaultIdSeller",
            "offset": 0,
            "slot": "0",
            "type": "t_bytes_storage"
          },
          {
            "astId": 8074,
            "contract": "contracts/features/MecenateFeed.sol:MecenateFeed",
            "label": "sellerTwitterId",
            "offset": 0,
            "slot": "1",
            "type": "t_uint256"
          },
          {
            "astId": 8076,
            "contract": "contracts/features/MecenateFeed.sol:MecenateFeed",
            "label": "sellerTelegramId",
            "offset": 0,
            "slot": "2",
            "type": "t_uint256"
          },
          {
            "astId": 8078,
            "contract": "contracts/features/MecenateFeed.sol:MecenateFeed",
            "label": "vaultIdBuyer",
            "offset": 0,
            "slot": "3",
            "type": "t_bytes_storage"
          },
          {
            "astId": 8080,
            "contract": "contracts/features/MecenateFeed.sol:MecenateFeed",
            "label": "buyerTwitterId",
            "offset": 0,
            "slot": "4",
            "type": "t_uint256"
          },
          {
            "astId": 8082,
            "contract": "contracts/features/MecenateFeed.sol:MecenateFeed",
            "label": "buyerTelegramId",
            "offset": 0,
            "slot": "5",
            "type": "t_uint256"
          }
        ],
        "numberOfBytes": "192"
      },
      "t_struct(PostSettings)8070_storage": {
        "encoding": "inplace",
        "label": "struct Structures.PostSettings",
        "members": [
          {
            "astId": 8057,
            "contract": "contracts/features/MecenateFeed.sol:MecenateFeed",
            "label": "status",
            "offset": 0,
            "slot": "0",
            "type": "t_enum(PostStatus)7976"
          },
          {
            "astId": 8060,
            "contract": "contracts/features/MecenateFeed.sol:MecenateFeed",
            "label": "postType",
            "offset": 1,
            "slot": "0",
            "type": "t_enum(PostType)7986"
          },
          {
            "astId": 8062,
            "contract": "contracts/features/MecenateFeed.sol:MecenateFeed",
            "label": "creationTimeStamp",
            "offset": 0,
            "slot": "1",
            "type": "t_uint256"
          },
          {
            "astId": 8064,
            "contract": "contracts/features/MecenateFeed.sol:MecenateFeed",
            "label": "endTimeStamp",
            "offset": 0,
            "slot": "2",
            "type": "t_uint256"
          },
          {
            "astId": 8066,
            "contract": "contracts/features/MecenateFeed.sol:MecenateFeed",
            "label": "duration",
            "offset": 0,
            "slot": "3",
            "type": "t_uint256"
          },
          {
            "astId": 8069,
            "contract": "contracts/features/MecenateFeed.sol:MecenateFeed",
            "label": "tokenId",
            "offset": 0,
            "slot": "4",
            "type": "t_enum(Tokens)7980"
          }
        ],
        "numberOfBytes": "160"
      },
      "t_struct(User)8095_storage": {
        "encoding": "inplace",
        "label": "struct Structures.User",
        "members": [
          {
            "astId": 8094,
            "contract": "contracts/features/MecenateFeed.sol:MecenateFeed",
            "label": "vaultId",
            "offset": 0,
            "slot": "0",
            "type": "t_bytes32"
          }
        ],
        "numberOfBytes": "32"
      },
      "t_uint256": {
        "encoding": "inplace",
        "label": "uint256",
        "numberOfBytes": "32"
      },
      "t_uint8": {
        "encoding": "inplace",
        "label": "uint8",
        "numberOfBytes": "1"
      }
    }
  }
}