{
  "address": "0x584D73be6909de66418D0623aFb060828401a2f0",
  "abi": [
    {
      "inputs": [
        {
          "internalType": "address",
          "name": "_verifierContract",
          "type": "address"
        }
      ],
      "stateMutability": "nonpayable",
      "type": "constructor"
    },
    {
      "anonymous": false,
      "inputs": [
        {
          "indexed": true,
          "internalType": "address",
          "name": "previousOwner",
          "type": "address"
        },
        {
          "indexed": true,
          "internalType": "address",
          "name": "newOwner",
          "type": "address"
        }
      ],
      "name": "OwnershipTransferred",
      "type": "event"
    },
    {
      "anonymous": false,
      "inputs": [
        {
          "indexed": true,
          "internalType": "bytes32",
          "name": "commitment",
          "type": "bytes32"
        },
        {
          "indexed": false,
          "internalType": "uint256",
          "name": "amount",
          "type": "uint256"
        },
        {
          "indexed": false,
          "internalType": "string",
          "name": "secret",
          "type": "string"
        },
        {
          "indexed": false,
          "internalType": "address",
          "name": "token",
          "type": "address"
        }
      ],
      "name": "Withdrawn",
      "type": "event"
    },
    {
      "stateMutability": "payable",
      "type": "fallback"
    },
    {
      "inputs": [
        {
          "internalType": "bytes32",
          "name": "encryptedVaultId",
          "type": "bytes32"
        }
      ],
      "name": "depositETH",
      "outputs": [],
      "stateMutability": "payable",
      "type": "function"
    },
    {
      "inputs": [
        {
          "internalType": "address",
          "name": "_token",
          "type": "address"
        },
        {
          "internalType": "uint256",
          "name": "_amount",
          "type": "uint256"
        },
        {
          "internalType": "bytes32",
          "name": "encryptedVaultId",
          "type": "bytes32"
        }
      ],
      "name": "depositToken",
      "outputs": [],
      "stateMutability": "nonpayable",
      "type": "function"
    },
    {
      "inputs": [
        {
          "internalType": "bytes32",
          "name": "encryptedVaultId",
          "type": "bytes32"
        }
      ],
      "name": "getEthDeposit",
      "outputs": [
        {
          "internalType": "uint256",
          "name": "",
          "type": "uint256"
        }
      ],
      "stateMutability": "view",
      "type": "function"
    },
    {
      "inputs": [
        {
          "internalType": "address",
          "name": "_token",
          "type": "address"
        },
        {
          "internalType": "bytes32",
          "name": "encryptedVaultId",
          "type": "bytes32"
        }
      ],
      "name": "getTokenDeposit",
      "outputs": [
        {
          "internalType": "uint256",
          "name": "",
          "type": "uint256"
        }
      ],
      "stateMutability": "view",
      "type": "function"
    },
    {
      "inputs": [],
      "name": "owner",
      "outputs": [
        {
          "internalType": "address",
          "name": "",
          "type": "address"
        }
      ],
      "stateMutability": "view",
      "type": "function"
    },
    {
      "inputs": [],
      "name": "renounceOwnership",
      "outputs": [],
      "stateMutability": "nonpayable",
      "type": "function"
    },
    {
      "inputs": [
        {
          "internalType": "address",
          "name": "_verifierContract",
          "type": "address"
        }
      ],
      "name": "setVerifierContract",
      "outputs": [],
      "stateMutability": "nonpayable",
      "type": "function"
    },
    {
      "inputs": [
        {
          "internalType": "address",
          "name": "newOwner",
          "type": "address"
        }
      ],
      "name": "transferOwnership",
      "outputs": [],
      "stateMutability": "nonpayable",
      "type": "function"
    },
    {
      "inputs": [],
      "name": "verifierContract",
      "outputs": [
        {
          "internalType": "address",
          "name": "",
          "type": "address"
        }
      ],
      "stateMutability": "view",
      "type": "function"
    },
    {
      "inputs": [
        {
          "internalType": "uint256",
          "name": "_amount",
          "type": "uint256"
        },
        {
          "internalType": "bytes",
          "name": "sismoConnectResponse",
          "type": "bytes"
        },
        {
          "internalType": "address",
          "name": "_to",
          "type": "address"
        },
        {
          "internalType": "address",
          "name": "_from",
          "type": "address"
        }
      ],
      "name": "withdrawETH",
      "outputs": [],
      "stateMutability": "nonpayable",
      "type": "function"
    },
    {
      "inputs": [
        {
          "internalType": "address",
          "name": "_token",
          "type": "address"
        },
        {
          "internalType": "uint256",
          "name": "_amount",
          "type": "uint256"
        },
        {
          "internalType": "bytes",
          "name": "sismoConnectResponse",
          "type": "bytes"
        },
        {
          "internalType": "address",
          "name": "_to",
          "type": "address"
        },
        {
          "internalType": "address",
          "name": "_from",
          "type": "address"
        }
      ],
      "name": "withdrawToken",
      "outputs": [],
      "stateMutability": "nonpayable",
      "type": "function"
    },
    {
      "inputs": [
        {
          "internalType": "string",
          "name": "_secret",
          "type": "string"
        },
        {
          "internalType": "address",
          "name": "_token",
          "type": "address"
        },
        {
          "internalType": "address",
          "name": "_to",
          "type": "address"
        }
      ],
      "name": "withdrawWithSecret",
      "outputs": [],
      "stateMutability": "nonpayable",
      "type": "function"
    },
    {
      "stateMutability": "payable",
      "type": "receive"
    }
  ],
  "transactionHash": "0x513311050cfcdc1dba74df96b2002bad0371cb2662f8a20e866066a5a59b86f5",
  "args": [
    "0xbFcF74875976e238719B90AC2A9869C079AB69d0"
  ],
  "numDeployments": 14,
  "solcInputHash": "ecd027acd5b2c3f49b1ec8f0fd616964",
  "bytecode": "0x6080346100ab57601f610f1f38819003918201601f19168301916001600160401b038311848410176100b0578084926020946040528339810103126100ab57516001600160a01b0390818116908190036100ab5760005460018060a01b0319903382821617600055604051933391167f8be0079c531659141344cd1fd0a4f28419497f9722a3daafe3b4186f6b6457e0600080a3600180556004541617600455610e5890816100c78239f35b600080fd5b634e487b7160e01b600052604160045260246000fdfe608060409080825260049081361015610087575b50361561004557506020361261004057600035600052600260205260002061003c348254610c54565b9055005b600080fd5b6020606492519162461bcd60e51b8352820152601760248201527f557365206465706f7369744554482066756e6374696f6e0000000000000000006044820152fd5b600090813560e01c9081632049191514610aeb5750806325de04d7146108e95780635e0cd92f146108a7578063715018a61461084a57806384abac95146107065780638ab1ee63146104935780638da5cb5b1461046b578063a25da83c1461042a578063cf69568814610401578063d68d9d4e146103cc578063f2fde38b146103085763fd1e04e7036100135791346103045760a03660031901126103045761012e610be6565b6024359060443567ffffffffffffffff8111610300576101519036908601610b9c565b9361015a610bd0565b6001600160a01b03959091908760843588811681036102fc576101a09261017f610c77565b858a865416918a51958694859384936307c93c8f60e01b85528a8501610de6565b03915afa9081156102f25788916102ce575b508051906020978882019283208a5260038952878a20951694858a52885285878a20541061028b5787949261023b979694928a925190208252600386528682208483528652868220610205868254610e15565b9055865163a9059cbb60e01b81526001600160a01b03909316908301908152602081019490945290958693849291839160400190565b03925af19081156102825750610254575b826001805580f35b8161027392903d1061027b575b61026b8183610b11565b810190610d18565b50388061024c565b503d610261565b513d85823e3d90fd5b865162461bcd60e51b8152808401899052601860248201527f4e6f7420656e6f75676820746f6b656e2062616c616e636500000000000000006044820152606490fd5b6102ea91503d808a833e6102e28183610b11565b810190610d53565b5050386101b2565b86513d8a823e3d90fd5b5080fd5b8580fd5b8280fd5b5091903461030457602036600319011261030457610324610be6565b9061032d610bfc565b6001600160a01b0391821692831561037a57505082546001600160a01b0319811683178455167f8be0079c531659141344cd1fd0a4f28419497f9722a3daafe3b4186f6b6457e08380a380f35b906020608492519162461bcd60e51b8352820152602660248201527f4f776e61626c653a206e6577206f776e657220697320746865207a65726f206160448201526564647265737360d01b6064820152fd5b5091906020366003190112610304576103e3610c77565b358252600260205281206103f8348254610c54565b90556001805580f35b509190346103045782600319360112610304575490516001600160a01b03909116815260209150f35b5090346102fc5760203660031901126102fc57610445610be6565b61044d610bfc565b81546001600160a01b0319166001600160a01b039190911617905580f35b5082346102fc57816003193601126102fc57905490516001600160a01b039091168152602090f35b5091903461030457606036600319011261030457803567ffffffffffffffff81116107025736602382011215610702576104d69036906024818501359101610b65565b916001600160a01b0360243581811693919290849003610300576104f8610bba565b93610501610c77565b8151936020948581019061052e8782816105218d87815193849201610d30565b8101038084520182610b11565b51902095826105fd5786895260028652838920549485156105ba5750888086819482948b845260028b5283898120551682f1156105b0576105a27fa5ecd7cf58f2f1e36e387c6442f5dea0a47926654ed49e6d1d9eb06d0406424495965b6060845196879687528601526060850190610dc1565b918301520390a26001805580f35b81513d88823e3d90fd5b845162461bcd60e51b8152908101879052601e60248201527f4e6f20455448206465706f73697420666f7220746869732073656372657400006044820152606490fd5b9050858852600385528288208289528552828820549384156106c15786895260038652838920838a528652838920899055835163a9059cbb60e01b81526001600160a01b039092169082019081526020810185905285908290819060400103818b865af180156106b757966105a2917fa5ecd7cf58f2f1e36e387c6442f5dea0a47926654ed49e6d1d9eb06d04064244979861069a575b5061058c565b6106b090873d891161027b5761026b8183610b11565b5038610694565b83513d8a823e3d90fd5b606490868086519262461bcd60e51b845283015260248201527f4e6f20546f6b656e206465706f73697420666f722074686973207365637265746044820152fd5b8380fd5b5082346102fc5760603660031901126102fc57610721610be6565b60243591906001600160a01b0316801561080757610740831515610ccd565b81516323b872dd60e01b815233868201523060248201526044810184905260209590868160648189875af19081156107fd5786916107e0575b50156107a557506107a0929394604435865260038152828620918652528320918254610c54565b905580f35b825162461bcd60e51b81529081018690526015602482015274151bdad95b881d1c985b9cd9995c8819985a5b1959605a1b6044820152606490fd5b6107f79150873d891161027b5761026b8183610b11565b87610779565b84513d88823e3d90fd5b815162461bcd60e51b8152602081870152601960248201527f546f6b656e20616464726573732063616e6e6f742062652030000000000000006044820152606490fd5b50346108a457806003193601126108a457610863610bfc565b80546001600160a01b03198116825581906001600160a01b03167f8be0079c531659141344cd1fd0a4f28419497f9722a3daafe3b4186f6b6457e08280a380f35b80fd5b5082346102fc57806003193601126102fc57806020926108c5610be6565b6024358252600385528282206001600160a01b039091168252845220549051908152f35b5091346103045760803660031901126103045781359060243567ffffffffffffffff8111610ae75761091e9036908501610b9c565b91610927610bba565b90610930610bd0565b93610939610c77565b855484516307c93c8f60e01b8152956001600160a01b039289928892908516918391829161096c91908a90848f01610de6565b03915afa948515610add578795610abf575b50845160208096012092838852600286528488205415610a7c576109a3831515610ccd565b83885260028652828589205410610a445787808481948294165af1913d15610a3f573d6109cf81610b49565b906109dc86519283610b11565b815287863d92013e5b8652600284526109f9838720918254610e15565b905515610a0857836001805580f35b5162461bcd60e51b8152918201526013602482015272115512081d1c985b9cd9995c8819985a5b1959606a1b604482015260649150fd5b6109e5565b845162461bcd60e51b815280880187905260126024820152714e6f7420656e6f7567682062616c616e636560701b6044820152606490fd5b845162461bcd60e51b8152808801879052601960248201527f436f6d6d69746d656e7420646f6573206e6f74206578697374000000000000006044820152606490fd5b610ad49195503d8089833e6102e28183610b11565b5050933861097e565b84513d89823e3d90fd5b8480fd5b905083833461070257602036600319011261070257926020933581526002845220548152f35b90601f8019910116810190811067ffffffffffffffff821117610b3357604052565b634e487b7160e01b600052604160045260246000fd5b67ffffffffffffffff8111610b3357601f01601f191660200190565b929192610b7182610b49565b91610b7f6040519384610b11565b829481845281830111610040578281602093846000960137010152565b9080601f8301121561004057816020610bb793359101610b65565b90565b604435906001600160a01b038216820361004057565b606435906001600160a01b038216820361004057565b600435906001600160a01b038216820361004057565b6000546001600160a01b03163303610c1057565b606460405162461bcd60e51b815260206004820152602060248201527f4f776e61626c653a2063616c6c6572206973206e6f7420746865206f776e65726044820152fd5b91908201809211610c6157565b634e487b7160e01b600052601160045260246000fd5b600260015414610c88576002600155565b60405162461bcd60e51b815260206004820152601f60248201527f5265656e7472616e637947756172643a207265656e7472616e742063616c6c006044820152606490fd5b15610cd457565b606460405162461bcd60e51b815260206004820152602060248201527f416d6f756e74206d7573742062652067726561746572207468616e207a65726f6044820152fd5b90816020910312610040575180151581036100405790565b60005b838110610d435750506000910152565b8181015183820152602001610d33565b9060608282031261004057815167ffffffffffffffff811161004057820181601f82011215610040578051610d8781610b49565b92610d956040519485610b11565b8184526020828401011161004057610db39160208085019101610d30565b916040602083015192015190565b90602091610dda81518092818552858086019101610d30565b601f01601f1916010190565b91610dfe604092959495606085526060850190610dc1565b6001600160a01b0391821660208501529416910152565b91908203918211610c615756fea2646970667358221220300fcd90cda653c418349c81456f8879c7e946029a89264a5e4215e527a448b164736f6c63430008130033",
  "devdoc": {
    "kind": "dev",
    "methods": {
      "owner()": {
        "details": "Returns the address of the current owner."
      },
      "renounceOwnership()": {
        "details": "Leaves the contract without owner. It will not be possible to call `onlyOwner` functions. Can only be called by the current owner. NOTE: Renouncing ownership will leave the contract without an owner, thereby disabling any functionality that is only available to the owner."
      },
      "transferOwnership(address)": {
        "details": "Transfers ownership of the contract to a new account (`newOwner`). Can only be called by the current owner."
      }
    },
    "version": 1
  },
  "userdoc": {
    "kind": "user",
    "methods": {},
    "version": 1
  },
  "storageLayout": {
    "storage": [
      {
        "astId": 337,
        "contract": "contracts/MecenateVault.sol:MecenateVault",
        "label": "_owner",
        "offset": 0,
        "slot": "0",
        "type": "t_address"
      },
      {
        "astId": 453,
        "contract": "contracts/MecenateVault.sol:MecenateVault",
        "label": "_status",
        "offset": 0,
        "slot": "1",
        "type": "t_uint256"
      },
      {
        "astId": 5849,
        "contract": "contracts/MecenateVault.sol:MecenateVault",
        "label": "ethDeposits",
        "offset": 0,
        "slot": "2",
        "type": "t_mapping(t_bytes32,t_uint256)"
      },
      {
        "astId": 5855,
        "contract": "contracts/MecenateVault.sol:MecenateVault",
        "label": "tokenDeposits",
        "offset": 0,
        "slot": "3",
        "type": "t_mapping(t_bytes32,t_mapping(t_address,t_uint256))"
      },
      {
        "astId": 5857,
        "contract": "contracts/MecenateVault.sol:MecenateVault",
        "label": "verifierContract",
        "offset": 0,
        "slot": "4",
        "type": "t_address"
      }
    ],
    "types": {
      "t_address": {
        "encoding": "inplace",
        "label": "address",
        "numberOfBytes": "20"
      },
      "t_bytes32": {
        "encoding": "inplace",
        "label": "bytes32",
        "numberOfBytes": "32"
      },
      "t_mapping(t_address,t_uint256)": {
        "encoding": "mapping",
        "key": "t_address",
        "label": "mapping(address => uint256)",
        "numberOfBytes": "32",
        "value": "t_uint256"
      },
      "t_mapping(t_bytes32,t_mapping(t_address,t_uint256))": {
        "encoding": "mapping",
        "key": "t_bytes32",
        "label": "mapping(bytes32 => mapping(address => uint256))",
        "numberOfBytes": "32",
        "value": "t_mapping(t_address,t_uint256)"
      },
      "t_mapping(t_bytes32,t_uint256)": {
        "encoding": "mapping",
        "key": "t_bytes32",
        "label": "mapping(bytes32 => uint256)",
        "numberOfBytes": "32",
        "value": "t_uint256"
      },
      "t_uint256": {
        "encoding": "inplace",
        "label": "uint256",
        "numberOfBytes": "32"
      }
    }
  }
}