{
  "address": "0xb679FdcaC090FFC4848d9709C705241867B0d78A",
  "abi": [
    {
      "anonymous": false,
      "inputs": [
        {
          "indexed": true,
          "internalType": "address",
          "name": "previousOwner",
          "type": "address"
        },
        {
          "indexed": true,
          "internalType": "address",
          "name": "newOwner",
          "type": "address"
        }
      ],
      "name": "OwnershipTransferred",
      "type": "event"
    },
    {
      "inputs": [],
      "name": "addFunds",
      "outputs": [],
      "stateMutability": "payable",
      "type": "function"
    },
    {
      "inputs": [
        {
          "internalType": "address",
          "name": "tokenA",
          "type": "address"
        },
        {
          "internalType": "address",
          "name": "tokenB",
          "type": "address"
        },
        {
          "internalType": "uint24",
          "name": "fee",
          "type": "uint24"
        },
        {
          "internalType": "uint256",
          "name": "amountA",
          "type": "uint256"
        },
        {
          "internalType": "uint256",
          "name": "amountB",
          "type": "uint256"
        },
        {
          "internalType": "int24",
          "name": "tickLower",
          "type": "int24"
        },
        {
          "internalType": "int24",
          "name": "tickUpper",
          "type": "int24"
        }
      ],
      "name": "addLiquidity",
      "outputs": [],
      "stateMutability": "nonpayable",
      "type": "function"
    },
    {
      "inputs": [
        {
          "internalType": "address",
          "name": "_native",
          "type": "address"
        },
        {
          "internalType": "contract ISwapRouter",
          "name": "_swapRouter",
          "type": "address"
        }
      ],
      "name": "configLiquidityProvider",
      "outputs": [],
      "stateMutability": "nonpayable",
      "type": "function"
    },
    {
      "inputs": [
        {
          "internalType": "address",
          "name": "_token",
          "type": "address"
        },
        {
          "internalType": "uint256",
          "name": "_amount",
          "type": "uint256"
        }
      ],
      "name": "customApprove",
      "outputs": [],
      "stateMutability": "nonpayable",
      "type": "function"
    },
    {
      "inputs": [],
      "name": "distributableBalance",
      "outputs": [
        {
          "internalType": "uint256",
          "name": "",
          "type": "uint256"
        }
      ],
      "stateMutability": "view",
      "type": "function"
    },
    {
      "inputs": [
        {
          "internalType": "address",
          "name": "_usersContract",
          "type": "address"
        }
      ],
      "name": "distribute",
      "outputs": [],
      "stateMutability": "nonpayable",
      "type": "function"
    },
    {
      "inputs": [],
      "name": "fixedFee",
      "outputs": [
        {
          "internalType": "uint256",
          "name": "",
          "type": "uint256"
        }
      ],
      "stateMutability": "view",
      "type": "function"
    },
    {
      "inputs": [
        {
          "internalType": "address",
          "name": "_verifierContract",
          "type": "address"
        },
        {
          "internalType": "bytes32",
          "name": "encryptedVaultId",
          "type": "bytes32"
        }
      ],
      "name": "getReward",
      "outputs": [
        {
          "internalType": "uint256",
          "name": "",
          "type": "uint256"
        }
      ],
      "stateMutability": "view",
      "type": "function"
    },
    {
      "inputs": [],
      "name": "globalFee",
      "outputs": [
        {
          "internalType": "uint256",
          "name": "",
          "type": "uint256"
        }
      ],
      "stateMutability": "view",
      "type": "function"
    },
    {
      "inputs": [],
      "name": "lastDistributed",
      "outputs": [
        {
          "internalType": "uint256",
          "name": "",
          "type": "uint256"
        }
      ],
      "stateMutability": "view",
      "type": "function"
    },
    {
      "inputs": [],
      "name": "native",
      "outputs": [
        {
          "internalType": "address",
          "name": "",
          "type": "address"
        }
      ],
      "stateMutability": "view",
      "type": "function"
    },
    {
      "inputs": [],
      "name": "owner",
      "outputs": [
        {
          "internalType": "address",
          "name": "",
          "type": "address"
        }
      ],
      "stateMutability": "view",
      "type": "function"
    },
    {
      "inputs": [],
      "name": "ownerFee",
      "outputs": [
        {
          "internalType": "uint256",
          "name": "",
          "type": "uint256"
        }
      ],
      "stateMutability": "view",
      "type": "function"
    },
    {
      "inputs": [],
      "name": "positionManager",
      "outputs": [
        {
          "internalType": "contract INonfungiblePositionManager",
          "name": "",
          "type": "address"
        }
      ],
      "stateMutability": "view",
      "type": "function"
    },
    {
      "inputs": [],
      "name": "renounceOwnership",
      "outputs": [],
      "stateMutability": "nonpayable",
      "type": "function"
    },
    {
      "inputs": [
        {
          "internalType": "uint256",
          "name": "_fixedFee",
          "type": "uint256"
        }
      ],
      "name": "setFixedFee",
      "outputs": [],
      "stateMutability": "nonpayable",
      "type": "function"
    },
    {
      "inputs": [
        {
          "internalType": "uint256",
          "name": "_globalFee",
          "type": "uint256"
        }
      ],
      "name": "setGlobalFee",
      "outputs": [],
      "stateMutability": "nonpayable",
      "type": "function"
    },
    {
      "inputs": [
        {
          "internalType": "bool",
          "name": "_splitLiquidity",
          "type": "bool"
        }
      ],
      "name": "setSplitLiqudity",
      "outputs": [
        {
          "internalType": "bool",
          "name": "",
          "type": "bool"
        }
      ],
      "stateMutability": "nonpayable",
      "type": "function"
    },
    {
      "inputs": [],
      "name": "splitLiquidity",
      "outputs": [
        {
          "internalType": "bool",
          "name": "",
          "type": "bool"
        }
      ],
      "stateMutability": "view",
      "type": "function"
    },
    {
      "inputs": [],
      "name": "swapRouter",
      "outputs": [
        {
          "internalType": "contract ISwapRouter",
          "name": "",
          "type": "address"
        }
      ],
      "stateMutability": "view",
      "type": "function"
    },
    {
      "inputs": [
        {
          "internalType": "address",
          "name": "token1",
          "type": "address"
        },
        {
          "internalType": "address",
          "name": "token2",
          "type": "address"
        },
        {
          "internalType": "uint256",
          "name": "amount",
          "type": "uint256"
        },
        {
          "internalType": "uint24",
          "name": "fee",
          "type": "uint24"
        }
      ],
      "name": "swapTokensForTokens",
      "outputs": [
        {
          "internalType": "uint256",
          "name": "",
          "type": "uint256"
        }
      ],
      "stateMutability": "nonpayable",
      "type": "function"
    },
    {
      "inputs": [
        {
          "internalType": "address",
          "name": "_receiver",
          "type": "address"
        },
        {
          "internalType": "address",
          "name": "_verifierContract",
          "type": "address"
        },
        {
          "internalType": "bytes",
          "name": "sismoConnectResponse",
          "type": "bytes"
        },
        {
          "internalType": "address",
          "name": "_to",
          "type": "address"
        },
        {
          "internalType": "bytes32",
          "name": "_nonce",
          "type": "bytes32"
        }
      ],
      "name": "takeReward",
      "outputs": [
        {
          "internalType": "uint256",
          "name": "",
          "type": "uint256"
        }
      ],
      "stateMutability": "nonpayable",
      "type": "function"
    },
    {
      "inputs": [
        {
          "internalType": "address",
          "name": "newOwner",
          "type": "address"
        }
      ],
      "name": "transferOwnership",
      "outputs": [],
      "stateMutability": "nonpayable",
      "type": "function"
    },
    {
      "inputs": [
        {
          "internalType": "bytes32",
          "name": "",
          "type": "bytes32"
        }
      ],
      "name": "userReward",
      "outputs": [
        {
          "internalType": "uint256",
          "name": "",
          "type": "uint256"
        }
      ],
      "stateMutability": "view",
      "type": "function"
    },
    {
      "inputs": [
        {
          "internalType": "address payable",
          "name": "_to",
          "type": "address"
        },
        {
          "internalType": "uint256",
          "name": "_amount",
          "type": "uint256"
        }
      ],
      "name": "withdrawNative",
      "outputs": [],
      "stateMutability": "nonpayable",
      "type": "function"
    },
    {
      "inputs": [
        {
          "internalType": "address",
          "name": "_token",
          "type": "address"
        },
        {
          "internalType": "address",
          "name": "_to",
          "type": "address"
        },
        {
          "internalType": "uint256",
          "name": "_amount",
          "type": "uint256"
        }
      ],
      "name": "withdrawTokens",
      "outputs": [],
      "stateMutability": "nonpayable",
      "type": "function"
    },
    {
      "stateMutability": "payable",
      "type": "receive"
    }
  ],
  "transactionHash": "0x89b6dcf2247c11e6b3ff2d2d42aa89d8a51200b1ad9adfd8476784f6e2ee82fa",
  "args": [],
  "numDeployments": 1,
  "solcInputHash": "1c44eacd89272d51fa104e5a7d17594c",
  "bytecode": "0x6080806040523461006b5760008054336001600160a01b0319821681178355916001600160a01b03909116907f8be0079c531659141344cd1fd0a4f28419497f9722a3daafe3b4186f6b6457e09080a36064600455662386f26fc1000060055561136b90816100718239f35b600080fdfe608080604052600436101561002c575b50361561001b57600080fd5b610027346007546111a9565b600755005b60003560e01c90816305f6059d146110c45750806307b18bde1461107357806311b0b42d1461104a5780631fce07d51461102c578063291206f61461100b57806337d8af2b14610e3a57806337de810614610e195780635e35359e14610cca57806363453ae114610a955780636c8d424f14610a60578063715018a614610a075780637450bce9146109e9578063791b98bc146109c0578063808fc206146109a257806385258b4b146108dc5780638da5cb5b146108b35780638f3a899a1461086857806391792d5b1461084a578063a26759cb14610832578063afbce84e146105aa578063b51ed1f41461057e578063c31c9c0714610555578063d5b2a01a14610537578063e266294314610429578063f2fde38b146103605763fc99d28f14610157573861000f565b346102ec5760803660031901126102ec576101706110e7565b6101786110fd565b604435906064359162ffffff938484168094036102ec57610197611151565b60015460405163095ea7b360e01b81526001600160a01b03918216600482015260248101849052911693906020816044816000895af180156102f957610331575b50600a42019081421161031b576040519361010085019585871067ffffffffffffffff88111761030557604096875285526001600160a01b03908116602086810191825286880193845230606088019081526080880195865260a08801968752600060c0890181815260e08a018281526001549b5163414bf38960e01b81529a51871660048c01529451861660248b01529551909a166044890152518316606488015293516084870152935160a4860152905160c48501529151821660e4840152919391928492610104928492165af180156102f9576000906102c1575b602090604051908152f35b506020813d6020116102f1575b816102db60209383611113565b810103126102ec57602090516102b6565b600080fd5b3d91506102ce565b6040513d6000823e3d90fd5b634e487b7160e01b600052604160045260246000fd5b634e487b7160e01b600052601160045260246000fd5b6103529060203d602011610359575b61034a8183611113565b8101906111b6565b50386101d8565b503d610340565b346102ec5760203660031901126102ec576103796110e7565b610381611151565b6001600160a01b039081169081156103d557600054826bffffffffffffffffffffffff60a01b821617600055167f8be0079c531659141344cd1fd0a4f28419497f9722a3daafe3b4186f6b6457e0600080a3005b60405162461bcd60e51b815260206004820152602660248201527f4f776e61626c653a206e6577206f776e657220697320746865207a65726f206160448201526564647265737360d01b6064820152608490fd5b346102ec5760403660031901126102ec576104426110e7565b6001600160a01b03602435818116908190036102ec5781600093610464611151565b1690806bffffffffffffffffffffffff60a01b838160035416176003556001541617600155600160a01b60ff60a01b198554161784556040519163095ea7b360e01b9182845260048401528460248401528260448160209788945af19182156102f957849261051a575b50604483600354169360015416916000604051958694859384526004840152811960248401525af180156102f95761050257005b8161051892903d106103595761034a8183611113565b005b61053090833d85116103595761034a8183611113565b50846104ce565b346102ec5760003660031901126102ec576020600854604051908152f35b346102ec5760003660031901126102ec576001546040516001600160a01b039091168152602090f35b346102ec5760203660031901126102ec5760043560005260096020526020604060002054604051908152f35b346102ec5760e03660031901126102ec576105c36110e7565b6105cb6110fd565b6044359062ffffff82168092036102ec5760a4358060020b8091036102ec5760c435918260020b8093036102ec57610601611151565b60025460405163095ea7b360e01b81526001600160a01b039182166004820152606435602482015295169460208160448160008a5af180156102f957610813575b5060025460405163095ea7b360e01b81526001600160a01b039182166004820152608435602482018190529592909116906020816044816000865af180156102f9576107f4575b5060405195610160870187811067ffffffffffffffff821117610305576040528652602086015260408501526060840152608083015260643560a083015260c0820152600060e082015260006101008201523061012082015242610140820152608061014061016460018060a01b03600254169360006040519586948593634418b22b60e11b855260018060a01b03815116600486015260018060a01b03602082015116602486015262ffffff6040820151166044860152606081015160020b60648601528781015160020b608486015260a081015160a486015260c081015160c486015260e081015160e486015261010081015161010486015260018060a01b036101208201511661012486015201516101448401525af180156102f9576107ae57005b6080813d82116107ec575b816107c660809383611113565b810103126102ec57602001516fffffffffffffffffffffffffffffffff8116036102ec57005b3d91506107b9565b61080c9060203d6020116103595761034a8183611113565b5086610689565b61082b9060203d6020116103595761034a8183611113565b5085610642565b60003660031901126102ec57610027346007546111a9565b346102ec5760003660031901126102ec576020600554604051908152f35b346102ec5760203660031901126102ec576004358015158091036102ec5761088e611151565b6000549060ff60a01b9060a01b169060ff60a01b191617600055602060405160018152f35b346102ec5760003660031901126102ec576000546040516001600160a01b039091168152602090f35b346102ec5760403660031901126102ec576109416108f86110e7565b610900611151565b60015460405163095ea7b360e01b8082526001600160a01b039283166004830152602480359083015260209493831693919290918590849081906044820190565b03816000885af19081156102f9578593604492610985575b5060015416916000604051958694859384526004840152811960248401525af180156102f95761050257005b61099b90853d87116103595761034a8183611113565b5086610959565b346102ec5760003660031901126102ec576020600454604051908152f35b346102ec5760003660031901126102ec576002546040516001600160a01b039091168152602090f35b346102ec5760003660031901126102ec576020600754604051908152f35b346102ec5760003660031901126102ec57610a20611151565b600080546001600160a01b0319811682556001600160a01b03167f8be0079c531659141344cd1fd0a4f28419497f9722a3daafe3b4186f6b6457e08280a3005b346102ec5760403660031901126102ec57610a796110e7565b5060243560005260096020526020604060002054604051908152f35b346102ec576020806003193601126102ec57610aaf6110e7565b9062015180610ac0600654426112e3565b10610c86576007548015610c415760045490818102918183040361031b57612710610afb920490610af3826008546111a9565b6008556112e3565b60405163b5cb15f760e01b8152926001600160a01b0316908284600481855afa9384156102f957600094610c12575b508315610bcd578390049160005b848110610b4a57426006556000600755005b604051632dae7a8560e11b8152600481018290528281602481875afa9081156102f957600091610ba0575b50600052600982526040600020610b8d8582546111a9565b9055600019811461031b57600101610b38565b90508281813d8311610bc6575b610bb78183611113565b810103126102ec575186610b75565b503d610bad565b60405162461bcd60e51b815260048101849052601960248201527f4e6f20757365727320746f206469737472696275746520746f000000000000006044820152606490fd5b9093508281813d8311610c3a575b610c2a8183611113565b810103126102ec57519284610b2a565b503d610c20565b60405162461bcd60e51b815260048101839052601860248201527f4e6f2064697374726962757461626c652062616c616e636500000000000000006044820152606490fd5b6064906040519062461bcd60e51b82526004820152601e60248201527f43616e206f6e6c792064697374726962757465206f6e636520612064617900006044820152fd5b346102ec5760603660031901126102ec57610ce36110e7565b610ceb6110fd565b90610cf4611151565b60405163a9059cbb60e01b60208083019182526001600160a01b0394851660248401526044803581850152835293909216610d30606483611113565b604051916040830183811067ffffffffffffffff821117610305576040528483527f5361666545524332303a206c6f772d6c6576656c2063616c6c206661696c65648386015251610d9293600091829182855af1610d8c6111ce565b916111fe565b805190828215928315610e01575b50505015610daa57005b6084906040519062461bcd60e51b82526004820152602a60248201527f5361666545524332303a204552433230206f7065726174696f6e20646964206e6044820152691bdd081cdd58d8d9595960b21b6064820152fd5b610e1193508201810191016111b6565b828281610da0565b346102ec5760203660031901126102ec57610e32611151565b600435600555005b346102ec5760a03660031901126102ec57610e536110e7565b50610e5c6110fd565b67ffffffffffffffff6044358181116102ec57366023820112156102ec57806004013592610e8984611135565b90610e976040519283611113565b8482526020948583019336602483830101116102ec578160009260248993018737840101526001600160a01b03936064358581169291908390036102ec5760008693608435936040518096818094637276069d60e01b825260606004830152610f03606483018c6112be565b9060248301528860448301520392165afa9081156102f957600093600092610fb8575b50506040818051810103126102ec57868101519586168096036102ec576040015103610f8257849360009384938387869551910120845260098752604084209081549687925551925af150610f796111ce565b50604051908152f35b60405162461bcd60e51b815260048101869052600e60248201526d4e6f742053616d65204e6f6e636560901b6044820152606490fd5b915092503d806000833e610fcc8183611113565b81016080828203126102ec5781518481116102ec5781610fed9184016112f0565b9360608301519081116102ec5761100492016112f0565b8780610f26565b346102ec5760203660031901126102ec57611024611151565b600480359055005b346102ec5760003660031901126102ec576020600654604051908152f35b346102ec5760003660031901126102ec576003546040516001600160a01b039091168152602090f35b346102ec5760403660031901126102ec576004356001600160a01b038116908190036102ec57600080808093602435906110ab611151565b8282156110bb575bf1156102f957005b506108fc6110b3565b346102ec5760003660031901126102ec5760209060ff60005460a01c1615158152f35b600435906001600160a01b03821682036102ec57565b602435906001600160a01b03821682036102ec57565b90601f8019910116810190811067ffffffffffffffff82111761030557604052565b67ffffffffffffffff811161030557601f01601f191660200190565b6000546001600160a01b0316330361116557565b606460405162461bcd60e51b815260206004820152602060248201527f4f776e61626c653a2063616c6c6572206973206e6f7420746865206f776e65726044820152fd5b9190820180921161031b57565b908160209103126102ec575180151581036102ec5790565b3d156111f9573d906111df82611135565b916111ed6040519384611113565b82523d6000602084013e565b606090565b919290156112605750815115611212575090565b3b1561121b5790565b60405162461bcd60e51b815260206004820152601d60248201527f416464726573733a2063616c6c20746f206e6f6e2d636f6e74726163740000006044820152606490fd5b8251909150156112735750805190602001fd5b60405162461bcd60e51b8152602060048201529081906112979060248301906112be565b0390fd5b60005b8381106112ae5750506000910152565b818101518382015260200161129e565b906020916112d78151809281855285808601910161129b565b601f01601f1916010190565b9190820391821161031b57565b81601f820112156102ec57805161130681611135565b926113146040519485611113565b818452602082840101116102ec57611332916020808501910161129b565b9056fea264697066735822122072c6e7212a0c77050b73e3b8c3dc06934d55159a4a4facfa97f9615d1354850964736f6c63430008130033",
  "devdoc": {
    "kind": "dev",
    "methods": {
      "owner()": {
        "details": "Returns the address of the current owner."
      },
      "renounceOwnership()": {
        "details": "Leaves the contract without owner. It will not be possible to call `onlyOwner` functions. Can only be called by the current owner. NOTE: Renouncing ownership will leave the contract without an owner, thereby disabling any functionality that is only available to the owner."
      },
      "transferOwnership(address)": {
        "details": "Transfers ownership of the contract to a new account (`newOwner`). Can only be called by the current owner."
      }
    },
    "version": 1
  },
  "userdoc": {
    "kind": "user",
    "methods": {},
    "version": 1
  },
  "storageLayout": {
    "storage": [
      {
        "astId": 291,
        "contract": "contracts/MecenateTreasury.sol:MecenateTreasury",
        "label": "_owner",
        "offset": 0,
        "slot": "0",
        "type": "t_address"
      },
      {
        "astId": 22322,
        "contract": "contracts/MecenateTreasury.sol:MecenateTreasury",
        "label": "splitLiquidity",
        "offset": 20,
        "slot": "0",
        "type": "t_bool"
      },
      {
        "astId": 22325,
        "contract": "contracts/MecenateTreasury.sol:MecenateTreasury",
        "label": "swapRouter",
        "offset": 0,
        "slot": "1",
        "type": "t_contract(ISwapRouter)9260"
      },
      {
        "astId": 22328,
        "contract": "contracts/MecenateTreasury.sol:MecenateTreasury",
        "label": "positionManager",
        "offset": 0,
        "slot": "2",
        "type": "t_contract(INonfungiblePositionManager)9099"
      },
      {
        "astId": 22330,
        "contract": "contracts/MecenateTreasury.sol:MecenateTreasury",
        "label": "native",
        "offset": 0,
        "slot": "3",
        "type": "t_address"
      },
      {
        "astId": 9594,
        "contract": "contracts/MecenateTreasury.sol:MecenateTreasury",
        "label": "globalFee",
        "offset": 0,
        "slot": "4",
        "type": "t_uint256"
      },
      {
        "astId": 9597,
        "contract": "contracts/MecenateTreasury.sol:MecenateTreasury",
        "label": "fixedFee",
        "offset": 0,
        "slot": "5",
        "type": "t_uint256"
      },
      {
        "astId": 9599,
        "contract": "contracts/MecenateTreasury.sol:MecenateTreasury",
        "label": "lastDistributed",
        "offset": 0,
        "slot": "6",
        "type": "t_uint256"
      },
      {
        "astId": 9601,
        "contract": "contracts/MecenateTreasury.sol:MecenateTreasury",
        "label": "distributableBalance",
        "offset": 0,
        "slot": "7",
        "type": "t_uint256"
      },
      {
        "astId": 9603,
        "contract": "contracts/MecenateTreasury.sol:MecenateTreasury",
        "label": "ownerFee",
        "offset": 0,
        "slot": "8",
        "type": "t_uint256"
      },
      {
        "astId": 9607,
        "contract": "contracts/MecenateTreasury.sol:MecenateTreasury",
        "label": "userReward",
        "offset": 0,
        "slot": "9",
        "type": "t_mapping(t_bytes32,t_uint256)"
      }
    ],
    "types": {
      "t_address": {
        "encoding": "inplace",
        "label": "address",
        "numberOfBytes": "20"
      },
      "t_bool": {
        "encoding": "inplace",
        "label": "bool",
        "numberOfBytes": "1"
      },
      "t_bytes32": {
        "encoding": "inplace",
        "label": "bytes32",
        "numberOfBytes": "32"
      },
      "t_contract(INonfungiblePositionManager)9099": {
        "encoding": "inplace",
        "label": "contract INonfungiblePositionManager",
        "numberOfBytes": "20"
      },
      "t_contract(ISwapRouter)9260": {
        "encoding": "inplace",
        "label": "contract ISwapRouter",
        "numberOfBytes": "20"
      },
      "t_mapping(t_bytes32,t_uint256)": {
        "encoding": "mapping",
        "key": "t_bytes32",
        "label": "mapping(bytes32 => uint256)",
        "numberOfBytes": "32",
        "value": "t_uint256"
      },
      "t_uint256": {
        "encoding": "inplace",
        "label": "uint256",
        "numberOfBytes": "32"
      }
    }
  }
}