{
  "address": "0x9c773746F55B14beeCcbf44a3EEa8C90aE5955eB",
  "abi": [
    {
      "inputs": [
        {
          "internalType": "address",
          "name": "_usersMouduleContract",
          "type": "address"
        },
        {
          "internalType": "address",
          "name": "_verifierContract",
          "type": "address"
        },
        {
          "internalType": "address",
          "name": "_vaultContract",
          "type": "address"
        }
      ],
      "stateMutability": "nonpayable",
      "type": "constructor"
    },
    {
      "anonymous": false,
      "inputs": [
        {
          "indexed": true,
          "internalType": "address",
          "name": "previousOwner",
          "type": "address"
        },
        {
          "indexed": true,
          "internalType": "address",
          "name": "newOwner",
          "type": "address"
        }
      ],
      "name": "OwnershipTransferred",
      "type": "event"
    },
    {
      "anonymous": false,
      "inputs": [
        {
          "indexed": true,
          "internalType": "bytes32",
          "name": "user",
          "type": "bytes32"
        },
        {
          "components": [
            {
              "internalType": "bytes32",
              "name": "request",
              "type": "bytes32"
            },
            {
              "internalType": "uint256",
              "name": "payment",
              "type": "uint256"
            },
            {
              "internalType": "uint256",
              "name": "stake",
              "type": "uint256"
            },
            {
              "internalType": "address",
              "name": "postAddress",
              "type": "address"
            },
            {
              "internalType": "bool",
              "name": "accepted",
              "type": "bool"
            },
            {
              "internalType": "uint256",
              "name": "postCount",
              "type": "uint256"
            },
            {
              "internalType": "enum Structures.Tokens",
              "name": "tokenId",
              "type": "uint8"
            }
          ],
          "indexed": false,
          "internalType": "struct Structures.BayRequest",
          "name": "",
          "type": "tuple"
        },
        {
          "indexed": true,
          "internalType": "uint256",
          "name": "index",
          "type": "uint256"
        }
      ],
      "name": "RequestAccepted",
      "type": "event"
    },
    {
      "anonymous": false,
      "inputs": [
        {
          "indexed": true,
          "internalType": "bytes32",
          "name": "user",
          "type": "bytes32"
        },
        {
          "components": [
            {
              "internalType": "bytes32",
              "name": "request",
              "type": "bytes32"
            },
            {
              "internalType": "uint256",
              "name": "payment",
              "type": "uint256"
            },
            {
              "internalType": "uint256",
              "name": "stake",
              "type": "uint256"
            },
            {
              "internalType": "address",
              "name": "postAddress",
              "type": "address"
            },
            {
              "internalType": "bool",
              "name": "accepted",
              "type": "bool"
            },
            {
              "internalType": "uint256",
              "name": "postCount",
              "type": "uint256"
            },
            {
              "internalType": "enum Structures.Tokens",
              "name": "tokenId",
              "type": "uint8"
            }
          ],
          "indexed": false,
          "internalType": "struct Structures.BayRequest",
          "name": "",
          "type": "tuple"
        },
        {
          "indexed": true,
          "internalType": "uint256",
          "name": "index",
          "type": "uint256"
        }
      ],
      "name": "RequestCreated",
      "type": "event"
    },
    {
      "inputs": [
        {
          "internalType": "uint256",
          "name": "index",
          "type": "uint256"
        },
        {
          "internalType": "address",
          "name": "_feed",
          "type": "address"
        },
        {
          "internalType": "bytes",
          "name": "sismoConnectResponse",
          "type": "bytes"
        },
        {
          "internalType": "address",
          "name": "_to",
          "type": "address"
        },
        {
          "internalType": "bytes32",
          "name": "_nonce",
          "type": "bytes32"
        }
      ],
      "name": "acceptRequest",
      "outputs": [],
      "stateMutability": "nonpayable",
      "type": "function"
    },
    {
      "inputs": [
        {
          "internalType": "uint256",
          "name": "",
          "type": "uint256"
        }
      ],
      "name": "allRequests",
      "outputs": [
        {
          "internalType": "bytes32",
          "name": "request",
          "type": "bytes32"
        },
        {
          "internalType": "uint256",
          "name": "payment",
          "type": "uint256"
        },
        {
          "internalType": "uint256",
          "name": "stake",
          "type": "uint256"
        },
        {
          "internalType": "address",
          "name": "postAddress",
          "type": "address"
        },
        {
          "internalType": "bool",
          "name": "accepted",
          "type": "bool"
        },
        {
          "internalType": "uint256",
          "name": "postCount",
          "type": "uint256"
        },
        {
          "internalType": "enum Structures.Tokens",
          "name": "tokenId",
          "type": "uint8"
        }
      ],
      "stateMutability": "view",
      "type": "function"
    },
    {
      "inputs": [
        {
          "internalType": "uint256",
          "name": "",
          "type": "uint256"
        }
      ],
      "name": "allRequestsPrivate",
      "outputs": [
        {
          "internalType": "bytes",
          "name": "vaultIdSeller",
          "type": "bytes"
        },
        {
          "internalType": "bytes",
          "name": "sellerResponse",
          "type": "bytes"
        },
        {
          "internalType": "bytes",
          "name": "vaultIdBuyer",
          "type": "bytes"
        },
        {
          "internalType": "bytes",
          "name": "buyerResponse",
          "type": "bytes"
        },
        {
          "internalType": "address",
          "name": "buyerTo",
          "type": "address"
        },
        {
          "internalType": "bytes32",
          "name": "buyerNonce",
          "type": "bytes32"
        }
      ],
      "stateMutability": "view",
      "type": "function"
    },
    {
      "inputs": [
        {
          "internalType": "address",
          "name": "_daiToken",
          "type": "address"
        }
      ],
      "name": "changeDaiToken",
      "outputs": [],
      "stateMutability": "nonpayable",
      "type": "function"
    },
    {
      "inputs": [
        {
          "internalType": "address",
          "name": "_museToken",
          "type": "address"
        }
      ],
      "name": "changeMuseToken",
      "outputs": [],
      "stateMutability": "nonpayable",
      "type": "function"
    },
    {
      "inputs": [
        {
          "internalType": "address",
          "name": "_usersModule",
          "type": "address"
        }
      ],
      "name": "changeUsersModule",
      "outputs": [],
      "stateMutability": "nonpayable",
      "type": "function"
    },
    {
      "inputs": [
        {
          "internalType": "address",
          "name": "_vault",
          "type": "address"
        }
      ],
      "name": "changeVault",
      "outputs": [],
      "stateMutability": "nonpayable",
      "type": "function"
    },
    {
      "inputs": [
        {
          "internalType": "address",
          "name": "_verifier",
          "type": "address"
        }
      ],
      "name": "changeVerifier",
      "outputs": [],
      "stateMutability": "nonpayable",
      "type": "function"
    },
    {
      "inputs": [],
      "name": "contractCounter",
      "outputs": [
        {
          "internalType": "uint256",
          "name": "",
          "type": "uint256"
        }
      ],
      "stateMutability": "view",
      "type": "function"
    },
    {
      "inputs": [
        {
          "components": [
            {
              "internalType": "bytes32",
              "name": "request",
              "type": "bytes32"
            },
            {
              "internalType": "uint256",
              "name": "payment",
              "type": "uint256"
            },
            {
              "internalType": "uint256",
              "name": "stake",
              "type": "uint256"
            },
            {
              "internalType": "address",
              "name": "postAddress",
              "type": "address"
            },
            {
              "internalType": "bool",
              "name": "accepted",
              "type": "bool"
            },
            {
              "internalType": "uint256",
              "name": "postCount",
              "type": "uint256"
            },
            {
              "internalType": "enum Structures.Tokens",
              "name": "tokenId",
              "type": "uint8"
            }
          ],
          "internalType": "struct Structures.BayRequest",
          "name": "request",
          "type": "tuple"
        },
        {
          "internalType": "bytes",
          "name": "sismoConnectResponse",
          "type": "bytes"
        },
        {
          "internalType": "address",
          "name": "_to",
          "type": "address"
        },
        {
          "internalType": "bytes32",
          "name": "_nonce",
          "type": "bytes32"
        }
      ],
      "name": "createRequest",
      "outputs": [
        {
          "components": [
            {
              "internalType": "bytes32",
              "name": "request",
              "type": "bytes32"
            },
            {
              "internalType": "uint256",
              "name": "payment",
              "type": "uint256"
            },
            {
              "internalType": "uint256",
              "name": "stake",
              "type": "uint256"
            },
            {
              "internalType": "address",
              "name": "postAddress",
              "type": "address"
            },
            {
              "internalType": "bool",
              "name": "accepted",
              "type": "bool"
            },
            {
              "internalType": "uint256",
              "name": "postCount",
              "type": "uint256"
            },
            {
              "internalType": "enum Structures.Tokens",
              "name": "tokenId",
              "type": "uint8"
            }
          ],
          "internalType": "struct Structures.BayRequest",
          "name": "",
          "type": "tuple"
        }
      ],
      "stateMutability": "payable",
      "type": "function"
    },
    {
      "inputs": [],
      "name": "daiToken",
      "outputs": [
        {
          "internalType": "address",
          "name": "",
          "type": "address"
        }
      ],
      "stateMutability": "view",
      "type": "function"
    },
    {
      "inputs": [
        {
          "internalType": "bytes32",
          "name": "_user",
          "type": "bytes32"
        }
      ],
      "name": "getRequestForAddress",
      "outputs": [
        {
          "components": [
            {
              "internalType": "bytes32",
              "name": "request",
              "type": "bytes32"
            },
            {
              "internalType": "uint256",
              "name": "payment",
              "type": "uint256"
            },
            {
              "internalType": "uint256",
              "name": "stake",
              "type": "uint256"
            },
            {
              "internalType": "address",
              "name": "postAddress",
              "type": "address"
            },
            {
              "internalType": "bool",
              "name": "accepted",
              "type": "bool"
            },
            {
              "internalType": "uint256",
              "name": "postCount",
              "type": "uint256"
            },
            {
              "internalType": "enum Structures.Tokens",
              "name": "tokenId",
              "type": "uint8"
            }
          ],
          "internalType": "struct Structures.BayRequest[]",
          "name": "",
          "type": "tuple[]"
        }
      ],
      "stateMutability": "view",
      "type": "function"
    },
    {
      "inputs": [],
      "name": "getRequests",
      "outputs": [
        {
          "components": [
            {
              "internalType": "bytes32",
              "name": "request",
              "type": "bytes32"
            },
            {
              "internalType": "uint256",
              "name": "payment",
              "type": "uint256"
            },
            {
              "internalType": "uint256",
              "name": "stake",
              "type": "uint256"
            },
            {
              "internalType": "address",
              "name": "postAddress",
              "type": "address"
            },
            {
              "internalType": "bool",
              "name": "accepted",
              "type": "bool"
            },
            {
              "internalType": "uint256",
              "name": "postCount",
              "type": "uint256"
            },
            {
              "internalType": "enum Structures.Tokens",
              "name": "tokenId",
              "type": "uint8"
            }
          ],
          "internalType": "struct Structures.BayRequest[]",
          "name": "",
          "type": "tuple[]"
        }
      ],
      "stateMutability": "view",
      "type": "function"
    },
    {
      "inputs": [],
      "name": "museToken",
      "outputs": [
        {
          "internalType": "address",
          "name": "",
          "type": "address"
        }
      ],
      "stateMutability": "view",
      "type": "function"
    },
    {
      "inputs": [],
      "name": "owner",
      "outputs": [
        {
          "internalType": "address",
          "name": "",
          "type": "address"
        }
      ],
      "stateMutability": "view",
      "type": "function"
    },
    {
      "inputs": [
        {
          "internalType": "uint256",
          "name": "index",
          "type": "uint256"
        },
        {
          "internalType": "bytes",
          "name": "sismoConnectResponse",
          "type": "bytes"
        },
        {
          "internalType": "address",
          "name": "_to",
          "type": "address"
        },
        {
          "internalType": "bytes32",
          "name": "_nonce",
          "type": "bytes32"
        }
      ],
      "name": "removeRequest",
      "outputs": [],
      "stateMutability": "nonpayable",
      "type": "function"
    },
    {
      "inputs": [],
      "name": "renounceOwnership",
      "outputs": [],
      "stateMutability": "nonpayable",
      "type": "function"
    },
    {
      "inputs": [
        {
          "internalType": "bytes32",
          "name": "",
          "type": "bytes32"
        },
        {
          "internalType": "uint256",
          "name": "",
          "type": "uint256"
        }
      ],
      "name": "requests",
      "outputs": [
        {
          "internalType": "bytes32",
          "name": "request",
          "type": "bytes32"
        },
        {
          "internalType": "uint256",
          "name": "payment",
          "type": "uint256"
        },
        {
          "internalType": "uint256",
          "name": "stake",
          "type": "uint256"
        },
        {
          "internalType": "address",
          "name": "postAddress",
          "type": "address"
        },
        {
          "internalType": "bool",
          "name": "accepted",
          "type": "bool"
        },
        {
          "internalType": "uint256",
          "name": "postCount",
          "type": "uint256"
        },
        {
          "internalType": "enum Structures.Tokens",
          "name": "tokenId",
          "type": "uint8"
        }
      ],
      "stateMutability": "view",
      "type": "function"
    },
    {
      "inputs": [
        {
          "internalType": "address",
          "name": "newOwner",
          "type": "address"
        }
      ],
      "name": "transferOwnership",
      "outputs": [],
      "stateMutability": "nonpayable",
      "type": "function"
    },
    {
      "inputs": [],
      "name": "usersMouduleContract",
      "outputs": [
        {
          "internalType": "address",
          "name": "",
          "type": "address"
        }
      ],
      "stateMutability": "view",
      "type": "function"
    },
    {
      "inputs": [],
      "name": "vaultContract",
      "outputs": [
        {
          "internalType": "address",
          "name": "",
          "type": "address"
        }
      ],
      "stateMutability": "view",
      "type": "function"
    },
    {
      "inputs": [],
      "name": "verifierContract",
      "outputs": [
        {
          "internalType": "address",
          "name": "",
          "type": "address"
        }
      ],
      "stateMutability": "view",
      "type": "function"
    },
    {
      "stateMutability": "payable",
      "type": "receive"
    }
  ],
  "transactionHash": "0x7aa48536c1866aba130635c8e2c24f228ae8af50a59d8df79e6ef0b234c91839",
  "args": [
    "0x0CC0fD8e82eB9ea3b292082901cDe04195634D1b",
    "0x532b83F2539B8bAdF489C9F35ae5b87a73EBa12d",
    "0x4D2Deb933BeBA3887ab150F0ABDEE355a41e218b"
  ],
  "numDeployments": 1,
  "solcInputHash": "1c44eacd89272d51fa104e5a7d17594c",
  "bytecode": "0x608034620000e757601f6200304d38819003918201601f19168301916001600160401b03831184841017620000ec57808492606094604052833981010312620000e7576200004d8162000102565b620000696040620000616020850162000102565b930162000102565b600080546001600160a01b03198082163390811784556040519691956001600160a01b0395948694859391908416907f8be0079c531659141344cd1fd0a4f28419497f9722a3daafe3b4186f6b6457e09080a3168560035416176003551683600454161760045516906005541617600555612f359081620001188239f35b600080fd5b634e487b7160e01b600052604160045260246000fd5b51906001600160a01b0382168203620000e75756fe608080604052600436101561001d575b50361561001b57600080fd5b005b600090813560e01c908163067bd3b4146122d0575080630f3cd888146122905780632274346b14612267578063346207b61461144757806360e232a914611407578063715018a6146113ad5780638416e304146112e85780638813ce121461123f5780638da5cb5b146112185780639655e6d8146111e25780639791003614610cfa5780639bf4ec2f14610c905780639c673fe514610c50578063a357427d14610bb1578063b041377014610b88578063be22f54614610b5f578063c4bb77d014610b1f578063c81ac64614610272578063cf04fb9414610232578063cf69568814610209578063f2fde38b146101435763f77800e50361000f57346101405780600319360112610140576006546040516001600160a01b039091168152602090f35b80fd5b50346101405760203660031901126101405761015d6122ec565b6101656126b6565b6001600160a01b039081169081156101b557600054826001600160601b0360a01b821617600055167f8be0079c531659141344cd1fd0a4f28419497f9722a3daafe3b4186f6b6457e0600080a380f35b60405162461bcd60e51b815260206004820152602660248201527f4f776e61626c653a206e6577206f776e657220697320746865207a65726f206160448201526564647265737360d01b6064820152608490fd5b50346101405780600319360112610140576004546040516001600160a01b039091168152602090f35b50346101405760203660031901126101405761024c6122ec565b6102546126b6565b60018060a01b03166001600160601b0360a01b600454161760045580f35b5036600319016101408112610b1b5760e013610140576040519061029582612346565b6004358252602435602083015260443560408301526102b2612302565b60608301526084358015158103610b1b57608083015260a43560a083015260c4356003811015610b1b5760c083015260e4356001600160401b038111610b1b576103009036906004016123b8565b90610104356001600160a01b0381169003610b16576040519161032283612346565b8183528160208401528160408401528160608401528160808401528160a08401528160c084015260c08401516003811015610b0257610a975761036634151561270e565b6103756020850151151561270e565b610386610124356101043583612b3e565b50505080516020820120916024602060018060a01b036003541660405192838092630e2ab4cb60e21b82528860048301525afa908115610a8c578591610a5d575b5015610a22576040860151156109dd576103e66020870151341461270e565b6103f56020870151151561270e565b8284526008602052604084208054600160401b81101561082a5761041e9160018201815561248b565b6109b157865181556020870151600182015560408701516002820155606087015160038201805460808a015160ff60a01b90151560a01b166001600160a01b039093166001600160a81b03199091161791909117905560a0870151600482015560c087015160038110156109c75760056104989201612772565b600154600160401b81101561082a578060016104b792016001556123ff565b6109b157865181556020870151600182015560408701516002820155606087015160038201805460808a015160ff60a01b90151560a01b166001600160a01b039093166001600160a81b03199091161791909117905560a0870151600482015560c087015160038110156109c75760056105319201612772565b6040519161053e83612318565b61054661278a565b835261055061278a565b602084015260408301526060820152610104356001600160a01b031660808201526101243560a0820152600254600160401b81101561082a578060016105999201600255612450565b9190916109b15780518051906001600160401b03821161082a5781906105c9826105c387546124a7565b876127c1565b602090601f83116001146109455760009261093a575b50508160011b916000199060031b1c19161782555b60208101518051906001600160401b03821161082a5781906106268261061d60018801546124a7565b600188016127c1565b602090601f83116001146108c8576000926108bd575b50508160011b916000199060031b1c19161760018301555b60408101518051906001600160401b03821161082a5781906106868261067d60028801546124a7565b600288016127c1565b602090601f831160011461084b57600092610840575b50508160011b916000199060031b1c19161760028301555b6003820160608201518051906001600160401b03821161082a576106e2826106dc85546124a7565b856127c1565b602090601f83116001146107bc57918060a09492600596946000926107b1575b50508160011b916000199060031b1c19161790555b60048401600180841b036080830151166001600160601b03841b8254161790550151910155610747600954612806565b60095560015460001981019290831161079d57507fe9a2b6f068c8e156e02b1fa5a51213d9f1811ceb25dc05211a1df6b0f0f5110260e0809561078d60405180926125dc565ba361079b60405180926125dc565bf35b634e487b7160e01b81526011600452602490fd5b015190503880610702565b90601f198316918460005260206000209260005b81811061081257509260019285926005989660a09896106107f9575b505050811b019055610717565b015160001960f88460031b161c191690553880806107ec565b929360206001819287860151815501950193016107d0565b634e487b7160e01b600052604160045260246000fd5b01519050388061069c565b9250600285016000526020600020906000935b601f19841685106108a2576001945083601f19811610610889575b505050811b0160028301556106b4565b015160001960f88460031b161c19169055388080610879565b8181015183556020948501946001909301929091019061085e565b01519050388061063c565b9250600185016000526020600020906000935b601f198416851061091f576001945083601f19811610610906575b505050811b016001830155610654565b015160001960f88460031b161c191690553880806108f6565b818101518355602094850194600190930192909101906108db565b0151905038806105df565b9250846000526020600020906000935b601f1984168510610996576001945083601f1981161061097d575b505050811b0182556105f4565b015160001960f88460031b161c19169055388080610970565b81810151835560209485019460019093019290910190610955565b634e487b7160e01b600052600060045260246000fd5b634e487b7160e01b600052602160045260246000fd5b60405162461bcd60e51b815260206004820152601760248201527f4241593a7374616b65206973206e6f7420656e6f7567680000000000000000006044820152606490fd5b60405162461bcd60e51b81526020600482015260136024820152721d5cd95c88191bd95cc81b9bdd08195e1a5cdd606a1b6044820152606490fd5b610a7f915060203d602011610a85575b610a77818361237c565b81019061275a565b386103c7565b503d610a6d565b6040513d87823e3d90fd5b60c08401516003811015610b0257600203610acf576007546020850151610aca91309033906001600160a01b031661282b565b610366565b60c08401516003811015610b0257600103610366576006546020850151610aca91309033906001600160a01b031661282b565b634e487b7160e01b83526021600452602483fd5b600080fd5b5080fd5b503461014057602036600319011261014057610b396122ec565b610b416126b6565b60018060a01b03166001600160601b0360a01b600354161760035580f35b50346101405780600319360112610140576007546040516001600160a01b039091168152602090f35b50346101405780600319360112610140576003546040516001600160a01b039091168152602090f35b503461014057602080600319360112610b1b5760043582526008815260408220918254906001600160401b038211610c3c579260405192610bf7818460051b018561237c565b82845280840191855280852094915b838310610c1f5760405180610c1b878261262e565b0390f35b600682600192610c2e89612c8b565b815201960192019194610c06565b634e487b7160e01b81526041600452602490fd5b503461014057602036600319011261014057610c6a6122ec565b610c726126b6565b60018060a01b03166001600160601b0360a01b600754161760075580f35b503461014057602036600319011261014057600435600154811015610b1b57610cb8906123ff565b508054610c1b600183015491600284015493600381015460ff60056004840154930154169260405196879660ff8460a01c169360018060a01b03169288612676565b5034610140576080366003190112610140576004356024356001600160401b0381116111de57610d2e9036906004016123b8565b6044356001600160a01b0381168103610b1657610d4f906064359083612b3e565b5050506020815191012091610d6f6002610d6883612450565b50016124e1565b6020815191012083036111995760ff6003610d89836123ff565b50015460a01c16611154578380610da8610da2846123ff565b50612c8b565b60055460208281015187519397909101916001600160a01b03165af1610dcc61295b565b5015611117576001546000198101908111610fae578082106110fb575b506001548015610f5f5760001901610e00816123ff565b6109b157600581600080935582600182015582600282015582600382015582600482015501556001556002546000198101908111610fae5780821061106e575b5050600254801561105a57610e586000198201612450565b61104657600581610e6a600093612e59565b610e7660018201612e59565b610e8260028201612e59565b610e8e60038201612e59565b866004820155015560001901600255825b82845260088060205260408520805483101561103e57610ec18360019261248b565b50015460208401511480611019575b80610fe7575b80610fc2575b610eef5750610eea90612806565b610e9f565b928092508452826020526040842054906000198201918211610fae57818110610f75575b505082526020526040812080548015610f5f576000190190610f35828261248b565b6109b157600581600080935582600182015582600282015582600382015582600482015501555580f35b634e487b7160e01b600052603160045260246000fd5b610fa1610f8f610fa793858852866020526040882061248b565b5091848752856020526040872061248b565b90612cee565b3880610f13565b634e487b7160e01b85526011600452602485fd5b50838552806020526004610fd9836040882061248b565b50015460a084015114610edc565b5083855280602052610ffc826040872061248b565b506003015460608401516001600160a01b03908116911614610ed6565b50838552806020526002611030836040882061248b565b500154604084015114610ed0565b505050505080f35b634e487b7160e01b85526004859052602485fd5b634e487b7160e01b84526031600452602484fd5b61107a61108191612450565b5091612450565b91909161104657818114610e405760058161109d829385612d7b565b6110ad6001820160018601612d7b565b6110bd6002820160028601612d7b565b6110cd6003820160038601612d7b565b6004840160018060a01b036004830154166001600160601b0360a01b82541617905501549101553880610e40565b611107611111916123ff565b50610fa1836123ff565b38610de9565b60405162461bcd60e51b81526020600482015260156024820152741090564e95985d5b1d0818d85b1b0819985a5b1959605a1b6044820152606490fd5b60405162461bcd60e51b815260206004820152601f60248201527f4241593a7265717565737420697320616c7265616479206163636570746564006044820152606490fd5b60405162461bcd60e51b815260206004820152601960248201527f4241593a796f7520617265206e6f7420746865206275796572000000000000006044820152606490fd5b8280fd5b503461014057604036600319011261014057602435600435825260086020526040822080548210156111de57610cb8925061248b565b5034610140578060031936011261014057546040516001600160a01b039091168152602090f35b503461014057806003193601126101405760019081546001600160401b0381116112d457604051916020611278818460051b018561237c565b8284528482527fb10e2d527612073b26eecdfd717e6a320cf44b4afac2b0732d9fcbe2b7fa0cf68185015b8484106112b85760405180610c1b888261262e565b60068388926112c685612c8b565b8152019201930192906112a3565b634e487b7160e01b82526041600452602482fd5b503461014057602036600319011261014057600435906002548210156101405761137461131483612450565b5061131e816124e1565b9061132b600182016124e1565b61139e61133a600284016124e1565b611390611349600386016124e1565b91611382600560018060a01b0360048901541697015495604051998a9960c08b5260c08b01906125aa565b9089820360208b01526125aa565b9087820360408901526125aa565b9085820360608701526125aa565b91608084015260a08301520390f35b50346101405780600319360112610140576113c66126b6565b600080546001600160a01b0319811682556001600160a01b03167f8be0079c531659141344cd1fd0a4f28419497f9722a3daafe3b4186f6b6457e08280a380f35b5034610140576020366003190112610140576114216122ec565b6114296126b6565b60018060a01b03166001600160601b0360a01b600554161760055580f35b50346101405760a0366003190112610140576024356001600160a01b0381168103610b1b576044356001600160401b0381116111de5761148b9036906004016123b8565b906114a1611497612302565b6084359084612b3e565b5050509182516020840120926114b5612ea2565b506114be612ea2565b6001600160a01b038416808252604051638da5cb5b60e01b815291939190602090829060049082905afa908115611fc6578791612235575b50602084810191909152604051635c63ed6960e01b815290816004816001600160a01b0389165afa908115611fc6578791612203575b5060408481019190915251634c38d87760e01b81526020816004816001600160a01b0389165afa908115611fc65787916121d1575b50606084015260405163048bf3bb60e11b81526020816004816001600160a01b0389165afa908115611fc657879161219f575b506080840152604051630bc8361760e11b81526020816004816001600160a01b0389165afa908115611fc657879161216d575b5060a084015260405163d24e0c8760e01b81526020816004816001600160a01b0389165afa908115611fc657879161213b575b5060c084015260405163faeb5e1760e01b81526020816004816001600160a01b0389165afa908115611fc6578791612109575b5060e08401526040516302734eab60e51b81526020816004816001600160a01b0389165afa908115611fc65787916120ce575b5060088110156120ba5761010084015260405163010a38f560e01b81526020816004816001600160a01b0389165afa8015611fc6578790612079575b6116ab91506101208501612c7f565b60016116b86004356123ff565b50015460c0840151116120245760e083015160026116d76004356123ff565b50015411611fd157600354604051630e2ab4cb60e21b81526004810187905290602090829060249082906001600160a01b03165afa908115611fc6578791611fa7575b5015611f625761172b600435612450565b50611795600361173c600435612450565b5061178a600261174d600435612450565b506004908101546001600160a01b0316969060059061176c9035612450565b500154976040519961177d8b612318565b8a5260208a0152016124e1565b6040870152016124e1565b6060840152608083015260a0820152600254600160401b811015611f4e578060016117c39201600255612450565b919091611f3a5780518051906001600160401b038211611dbe5781906117ed826105c387546124a7565b602090601f8311600114611ed1578992611ec6575b50508160011b916000199060031b1c19161782555b60208101518051906001600160401b038211611dbe5781906118408261061d60018801546124a7565b602090601f8311600114611e57578992611e4c575b50508160011b916000199060031b1c19161760018301555b60408101518051906001600160401b038211611dbe5781906118968261067d60028801546124a7565b602090601f8311600114611ddd578992611dd2575b50508160011b916000199060031b1c19161760028301555b60608101518051906001600160401b038211611dbe576118f3826118ea60038701546124a7565b600387016127c1565b602090601f8311600114611d4c5791806005949260a0948b92611d41575b50508160011b916000199060031b1c19161760038501555b60048401600180841b036080830151166001600160601b03841b825416179055015191015560ff600561195d6004356123ff565b500154166003811015611c4d5715611c615760ff600561197e6004356123ff565b500154166003811015611c4d57600203611bd45760075484906020906119e1906001600160a01b031660016119b46004356123ff565b50015460405163095ea7b360e01b8152336004820152602481019190915293849283919082906044820190565b03925af18015610a8c57611bb5575b505b836119fe600435612450565b50611a0a600435612450565b506004908101546001600160a01b03169190600590611a299035612450565b5001549060ff6005611a3c6004356123ff565b50015416906001611a4e6004356123ff565b500154926001600160a01b0388163b15611bb1578593600393611a87926040519788968796630803e14b60e21b88520160048701612a28565b0381836001600160a01b0389165af18015611ba657611b8e575b505060a0915b6003611ab46004356123ff565b50016001841b60ff851b198254161790556003611ad26004356123ff565b500190600180851b03166001600160601b03841b82541617905501516004611afa81356123ff565b500155611b086004356123ff565b5090611b6360ff60056040519480548652600181015460208701526002810154604087015282600382015460018060a01b038116606089015260a01c1615156080870152600481015460a087015201541660c08401906125cf565b7f83c2cca80e93944a5016ae3e3f51bd5e9275d6459dfdbfdad3fe85d918d92f3360e060043593a380f35b611b9790612333565b611ba2578338611aa1565b8380fd5b6040513d84823e3d90fd5b8580fd5b611bcd9060203d602011610a8557610a77818361237c565b50386119f0565b60ff6005611be36004356123ff565b500154166003811015611c4d576001036119f2576006548490602090611c19906001600160a01b031660016119b46004356123ff565b03925af18015610a8c57611c2e575b506119f2565b611c469060203d602011610a8557610a77818361237c565b5038611c28565b634e487b7160e01b85526021600452602485fd5b906001611c6f6004356123ff565b50015484611c7e600435612450565b5091611c8b600435612450565b506004908101546001600160a01b03169190600590611caa9035612450565b5001549360ff6005611cbd6004356123ff565b50015416906001611ccf6004356123ff565b500154916001600160a01b0388163b15611bb157600392611d089160405198899788968796630803e14b60e21b88520160048701612a28565b03916001600160a01b0387165af18015610a8c57611d2b575b509060a091611aa7565b93611d3960a0939295612333565b939091611d21565b015190503880611911565b906003850189526020892091895b601f1985168110611da65750926005949260019260a09583601f19811610611d8d575b505050811b016003850155611929565b015160001960f88460031b161c19169055388080611d7d565b91926020600181928685015181550194019201611d5a565b634e487b7160e01b88526041600452602488fd5b0151905038806118ab565b9250600285018952602089209089935b601f1984168510611e31576001945083601f19811610611e18575b505050811b0160028301556118c3565b015160001960f88460031b161c19169055388080611e08565b81810151835560209485019460019093019290910190611ded565b015190503880611855565b9250600185018952602089209089935b601f1984168510611eab576001945083601f19811610611e92575b505050811b01600183015561186d565b015160001960f88460031b161c19169055388080611e82565b81810151835560209485019460019093019290910190611e67565b015190503880611802565b9250848952602089209089935b601f1984168510611f1f576001945083601f19811610611f06575b505050811b018255611817565b015160001960f88460031b161c19169055388080611ef9565b81810151835560209485019460019093019290910190611ede565b634e487b7160e01b86526004869052602486fd5b634e487b7160e01b86526041600452602486fd5b60405162461bcd60e51b815260206004820152601760248201527f4241593a7573657220646f6573206e6f742065786973740000000000000000006044820152606490fd5b611fc0915060203d602011610a8557610a77818361237c565b3861171a565b6040513d89823e3d90fd5b60405162461bcd60e51b815260206004820152602560248201527f4241593a7374616b65206973206e6f74207468652073616d65206f6620746865604482015264081999595960da1b6064820152608490fd5b60405162461bcd60e51b815260206004820152602760248201527f4241593a7061796d656e74206973206e6f74207468652073616d65206f6620746044820152661a19481999595960ca1b6064820152608490fd5b506020813d6020116120b2575b816120936020938361237c565b810103126120ae575160038110156120ae576116ab9061169c565b8680fd5b3d9150612086565b634e487b7160e01b87526021600452602487fd5b90506020813d602011612101575b816120e96020938361237c565b810103126120ae575160088110156120ae5738611660565b3d91506120dc565b90506020813d602011612133575b816121246020938361237c565b810103126120ae57513861162d565b3d9150612117565b90506020813d602011612165575b816121566020938361237c565b810103126120ae5751386115fa565b3d9150612149565b90506020813d602011612197575b816121886020938361237c565b810103126120ae5751386115c7565b3d915061217b565b90506020813d6020116121c9575b816121ba6020938361237c565b810103126120ae575138611594565b3d91506121ad565b90506020813d6020116121fb575b816121ec6020938361237c565b810103126120ae575138611561565b3d91506121df565b90506020813d60201161222d575b8161221e6020938361237c565b810103126120ae57513861152c565b3d9150612211565b90506020813d60201161225f575b816122506020938361237c565b810103126120ae5751386114f6565b3d9150612243565b50346101405780600319360112610140576005546040516001600160a01b039091168152602090f35b5034610140576020366003190112610140576122aa6122ec565b6122b26126b6565b60018060a01b03166001600160601b0360a01b600654161760065580f35b905034610b1b5781600319360112610b1b576020906009548152f35b600435906001600160a01b0382168203610b1657565b606435906001600160a01b0382168203610b1657565b60c081019081106001600160401b0382111761082a57604052565b6001600160401b03811161082a57604052565b60e081019081106001600160401b0382111761082a57604052565b604081019081106001600160401b0382111761082a57604052565b90601f801991011681019081106001600160401b0382111761082a57604052565b6001600160401b03811161082a57601f01601f191660200190565b81601f82011215610b16578035906123cf8261239d565b926123dd604051948561237c565b82845260208383010111610b1657816000926020809301838601378301015290565b60015481101561243a576006906001600052027fb10e2d527612073b26eecdfd717e6a320cf44b4afac2b0732d9fcbe2b7fa0cf60190600090565b634e487b7160e01b600052603260045260246000fd5b60025481101561243a576006906002600052027f405787fa12a823e0f2b7631cc41b3ba8828b3321ca811111fa75cd3aa3bb5ace0190600090565b805482101561243a576000526006602060002091020190600090565b90600182811c921680156124d7575b60208310146124c157565b634e487b7160e01b600052602260045260246000fd5b91607f16916124b6565b90604051918260008254926124f5846124a7565b9081845260019485811690816000146125645750600114612521575b505061251f9250038361237c565b565b9093915060005260209081600020936000915b81831061254c57505061251f93508201013880612511565b85548884018501529485019487945091830191612534565b91505061251f94506020925060ff191682840152151560051b8201013880612511565b60005b83811061259a5750506000910152565b818101518382015260200161258a565b906020916125c381518092818552858086019101612587565b601f01601f1916010190565b9060038210156109c75752565b9060c08061251f9380518452602081015160208501526040810151604085015260018060a01b03606082015116606085015260808101511515608085015260a081015160a085015201519101906125cf565b6020908160408183019282815285518094520193019160005b828110612655575050505090565b909192938260e08261266a60019489516125dc565b01950193929101612647565b929360c09461251f9793999896929960e086019a86526020860152604085015260018060a01b031660608401521515608083015260a082015201906125cf565b6000546001600160a01b031633036126ca57565b606460405162461bcd60e51b815260206004820152602060248201527f4f776e61626c653a2063616c6c6572206973206e6f7420746865206f776e65726044820152fd5b1561271557565b60405162461bcd60e51b815260206004820152601960248201527f4241593a7061796d656e74206973206e6f7420656e6f756768000000000000006044820152606490fd5b90816020910312610b1657518015158103610b165790565b9060038110156109c75760ff80198354169116179055565b6040519061279782612361565b60048252630307830360e41b6020830152565b8181106127b5575050565b600081556001016127aa565b9190601f81116127d057505050565b61251f926000526020600020906020601f840160051c830193106127fc575b601f0160051c01906127aa565b90915081906127ef565b60001981146128155760010190565b634e487b7160e01b600052601160045260246000fd5b6040516323b872dd60e01b602082019081526001600160a01b0393841660248301529383166044820152606480820195909552938452919260a08101929091906001600160401b0384118385101761082a576128d394600092839286604052169361289586612361565b602086527f5361666545524332303a206c6f772d6c6576656c2063616c6c206661696c656460c0820152519082855af16128cd61295b565b9161298b565b8051908115918215612941575b5050156128e957565b60405162461bcd60e51b815260206004820152602a60248201527f5361666545524332303a204552433230206f7065726174696f6e20646964206e6044820152691bdd081cdd58d8d9595960b21b6064820152608490fd5b612954925060208091830101910161275a565b38806128e0565b3d15612986573d9061296c8261239d565b9161297a604051938461237c565b82523d6000602084013e565b606090565b919290156129ed575081511561299f575090565b3b156129a85790565b60405162461bcd60e51b815260206004820152601d60248201527f416464726573733a2063616c6c20746f206e6f6e2d636f6e74726163740000006044820152606490fd5b825190915015612a005750805190602001fd5b60405162461bcd60e51b815260206004820152908190612a249060248301906125aa565b0390fd5b9290959493919560a084526000908054612a41816124a7565b918260a08801526001918281169081600014612ace5750600114612a8e575b5050506001600160a01b039096166020840152604083015260809190612a8a9060608301906125cf565b0152565b909250600052602080600020926000935b838510612aba5750505050830160c001816080612a8a612a60565b805488860160c00152938201938101612a9f565b60ff191660c0808a019190915293151560051b8801909301935084925060809150612a8a9050612a60565b81601f82011215610b16578051612b0f8161239d565b92612b1d604051948561237c565b81845260208284010111610b1657612b3b9160208085019101612587565b90565b92919091612b7a60018060a01b0394859485600454169160409283519788958693637276069d60e01b85526060600486015260648501906125aa565b9316602483015286604483015281600095869403915afa938415612c745782809781978297612c03575b508387805181010312610b1b5760208701519081160361014057508185015103612bcf575093929190565b5162461bcd60e51b815260206004820152600e60248201526d4e6f742053616d65204e6f6e636560901b6044820152606490fd5b98509550925094503d8083883e612c1a818861237c565b8601946080878703126111de578651926001600160401b0393848111610b1b5787612c46918a01612af9565b96602089015194848a0151996060810151918211611ba257612c69929101612af9565b969397969538612ba4565b5051903d90823e3d90fd5b60038210156109c75752565b9061251f604051612c9b81612346565b60c060ff6005839680548552600181015460208601526002810154604086015282600382015460018060a01b038116606088015260a01c1615156080860152600481015460a08601520154169101612c7f565b906109b157818103612cfe575050565b600560ff818461251f955485556001810154600186015560028101546002860155612d6760038601846003840160018060a01b038154166001600160601b0360a01b8454161783555460a01c1681549060ff60a01b90151560a01b169060ff60a01b1916179055565b600481015460048601550154169101612772565b90808214612e5557612d8d81546124a7565b906001600160401b03821161082a578190612db282612dac86546124a7565b866127c1565b600090601f8311600114612de957600092612dde575b50508160011b916000199060031b1c1916179055565b015490503880612dc8565b81526020808220858352818320935090601f1985169083905b828210612e3c575050908460019594939210612e23575b505050811b019055565b015460001960f88460031b161c19169055388080612e19565b8495819295850154815560018091019601940190612e02565b5050565b612e6381546124a7565b9081612e6d575050565b81601f60009311600114612e7f575055565b908083918252612e9e601f60208420940160051c8401600185016127aa565b5555565b6040519061014082018281106001600160401b0382111761082a57604052816101206000918281528260208201528260408201528260608201528260808201528260a08201528260c08201528260e082015282610100820152015256fea264697066735822122011e69a43d323909bb0dc65b4d65d88b61cff15ef92a53bd2b7b49a8458b5221764736f6c63430008130033",
  "devdoc": {
    "kind": "dev",
    "methods": {
      "owner()": {
        "details": "Returns the address of the current owner."
      },
      "renounceOwnership()": {
        "details": "Leaves the contract without owner. It will not be possible to call `onlyOwner` functions. Can only be called by the current owner. NOTE: Renouncing ownership will leave the contract without an owner, thereby disabling any functionality that is only available to the owner."
      },
      "transferOwnership(address)": {
        "details": "Transfers ownership of the contract to a new account (`newOwner`). Can only be called by the current owner."
      }
    },
    "version": 1
  },
  "userdoc": {
    "kind": "user",
    "methods": {},
    "version": 1
  },
  "storageLayout": {
    "storage": [
      {
        "astId": 291,
        "contract": "contracts/layer/MecenateBay.sol:MecenateBay",
        "label": "_owner",
        "offset": 0,
        "slot": "0",
        "type": "t_address"
      },
      {
        "astId": 17628,
        "contract": "contracts/layer/MecenateBay.sol:MecenateBay",
        "label": "allRequests",
        "offset": 0,
        "slot": "1",
        "type": "t_array(t_struct(BayRequest)18825_storage)dyn_storage"
      },
      {
        "astId": 17632,
        "contract": "contracts/layer/MecenateBay.sol:MecenateBay",
        "label": "allRequestsPrivate",
        "offset": 0,
        "slot": "2",
        "type": "t_array(t_struct(BayRequestPrivate)18838_storage)dyn_storage"
      },
      {
        "astId": 17634,
        "contract": "contracts/layer/MecenateBay.sol:MecenateBay",
        "label": "usersMouduleContract",
        "offset": 0,
        "slot": "3",
        "type": "t_address"
      },
      {
        "astId": 17636,
        "contract": "contracts/layer/MecenateBay.sol:MecenateBay",
        "label": "verifierContract",
        "offset": 0,
        "slot": "4",
        "type": "t_address"
      },
      {
        "astId": 17638,
        "contract": "contracts/layer/MecenateBay.sol:MecenateBay",
        "label": "vaultContract",
        "offset": 0,
        "slot": "5",
        "type": "t_address"
      },
      {
        "astId": 17640,
        "contract": "contracts/layer/MecenateBay.sol:MecenateBay",
        "label": "museToken",
        "offset": 0,
        "slot": "6",
        "type": "t_address"
      },
      {
        "astId": 17642,
        "contract": "contracts/layer/MecenateBay.sol:MecenateBay",
        "label": "daiToken",
        "offset": 0,
        "slot": "7",
        "type": "t_address"
      },
      {
        "astId": 17648,
        "contract": "contracts/layer/MecenateBay.sol:MecenateBay",
        "label": "requests",
        "offset": 0,
        "slot": "8",
        "type": "t_mapping(t_bytes32,t_array(t_struct(BayRequest)18825_storage)dyn_storage)"
      },
      {
        "astId": 17650,
        "contract": "contracts/layer/MecenateBay.sol:MecenateBay",
        "label": "contractCounter",
        "offset": 0,
        "slot": "9",
        "type": "t_uint256"
      },
      {
        "astId": 17654,
        "contract": "contracts/layer/MecenateBay.sol:MecenateBay",
        "label": "sismoResponseMapping",
        "offset": 0,
        "slot": "10",
        "type": "t_mapping(t_uint256,t_bytes_storage)"
      }
    ],
    "types": {
      "t_address": {
        "encoding": "inplace",
        "label": "address",
        "numberOfBytes": "20"
      },
      "t_array(t_struct(BayRequest)18825_storage)dyn_storage": {
        "base": "t_struct(BayRequest)18825_storage",
        "encoding": "dynamic_array",
        "label": "struct Structures.BayRequest[]",
        "numberOfBytes": "32"
      },
      "t_array(t_struct(BayRequestPrivate)18838_storage)dyn_storage": {
        "base": "t_struct(BayRequestPrivate)18838_storage",
        "encoding": "dynamic_array",
        "label": "struct Structures.BayRequestPrivate[]",
        "numberOfBytes": "32"
      },
      "t_bool": {
        "encoding": "inplace",
        "label": "bool",
        "numberOfBytes": "1"
      },
      "t_bytes32": {
        "encoding": "inplace",
        "label": "bytes32",
        "numberOfBytes": "32"
      },
      "t_bytes_storage": {
        "encoding": "bytes",
        "label": "bytes",
        "numberOfBytes": "32"
      },
      "t_enum(Tokens)18669": {
        "encoding": "inplace",
        "label": "enum Structures.Tokens",
        "numberOfBytes": "1"
      },
      "t_mapping(t_bytes32,t_array(t_struct(BayRequest)18825_storage)dyn_storage)": {
        "encoding": "mapping",
        "key": "t_bytes32",
        "label": "mapping(bytes32 => struct Structures.BayRequest[])",
        "numberOfBytes": "32",
        "value": "t_array(t_struct(BayRequest)18825_storage)dyn_storage"
      },
      "t_mapping(t_uint256,t_bytes_storage)": {
        "encoding": "mapping",
        "key": "t_uint256",
        "label": "mapping(uint256 => bytes)",
        "numberOfBytes": "32",
        "value": "t_bytes_storage"
      },
      "t_struct(BayRequest)18825_storage": {
        "encoding": "inplace",
        "label": "struct Structures.BayRequest",
        "members": [
          {
            "astId": 18811,
            "contract": "contracts/layer/MecenateBay.sol:MecenateBay",
            "label": "request",
            "offset": 0,
            "slot": "0",
            "type": "t_bytes32"
          },
          {
            "astId": 18813,
            "contract": "contracts/layer/MecenateBay.sol:MecenateBay",
            "label": "payment",
            "offset": 0,
            "slot": "1",
            "type": "t_uint256"
          },
          {
            "astId": 18815,
            "contract": "contracts/layer/MecenateBay.sol:MecenateBay",
            "label": "stake",
            "offset": 0,
            "slot": "2",
            "type": "t_uint256"
          },
          {
            "astId": 18817,
            "contract": "contracts/layer/MecenateBay.sol:MecenateBay",
            "label": "postAddress",
            "offset": 0,
            "slot": "3",
            "type": "t_address"
          },
          {
            "astId": 18819,
            "contract": "contracts/layer/MecenateBay.sol:MecenateBay",
            "label": "accepted",
            "offset": 20,
            "slot": "3",
            "type": "t_bool"
          },
          {
            "astId": 18821,
            "contract": "contracts/layer/MecenateBay.sol:MecenateBay",
            "label": "postCount",
            "offset": 0,
            "slot": "4",
            "type": "t_uint256"
          },
          {
            "astId": 18824,
            "contract": "contracts/layer/MecenateBay.sol:MecenateBay",
            "label": "tokenId",
            "offset": 0,
            "slot": "5",
            "type": "t_enum(Tokens)18669"
          }
        ],
        "numberOfBytes": "192"
      },
      "t_struct(BayRequestPrivate)18838_storage": {
        "encoding": "inplace",
        "label": "struct Structures.BayRequestPrivate",
        "members": [
          {
            "astId": 18827,
            "contract": "contracts/layer/MecenateBay.sol:MecenateBay",
            "label": "vaultIdSeller",
            "offset": 0,
            "slot": "0",
            "type": "t_bytes_storage"
          },
          {
            "astId": 18829,
            "contract": "contracts/layer/MecenateBay.sol:MecenateBay",
            "label": "sellerResponse",
            "offset": 0,
            "slot": "1",
            "type": "t_bytes_storage"
          },
          {
            "astId": 18831,
            "contract": "contracts/layer/MecenateBay.sol:MecenateBay",
            "label": "vaultIdBuyer",
            "offset": 0,
            "slot": "2",
            "type": "t_bytes_storage"
          },
          {
            "astId": 18833,
            "contract": "contracts/layer/MecenateBay.sol:MecenateBay",
            "label": "buyerResponse",
            "offset": 0,
            "slot": "3",
            "type": "t_bytes_storage"
          },
          {
            "astId": 18835,
            "contract": "contracts/layer/MecenateBay.sol:MecenateBay",
            "label": "buyerTo",
            "offset": 0,
            "slot": "4",
            "type": "t_address"
          },
          {
            "astId": 18837,
            "contract": "contracts/layer/MecenateBay.sol:MecenateBay",
            "label": "buyerNonce",
            "offset": 0,
            "slot": "5",
            "type": "t_bytes32"
          }
        ],
        "numberOfBytes": "192"
      },
      "t_uint256": {
        "encoding": "inplace",
        "label": "uint256",
        "numberOfBytes": "32"
      }
    }
  }
}