{
  "address": "0x6D30D21dCdb106426E15D5F95059c1628Bbc3d76",
  "abi": [
    {
      "inputs": [
        {
          "internalType": "address",
          "name": "usersMouduleContractAddress",
          "type": "address"
        }
      ],
      "stateMutability": "nonpayable",
      "type": "constructor"
    },
    {
      "anonymous": false,
      "inputs": [
        {
          "indexed": true,
          "internalType": "address",
          "name": "previousOwner",
          "type": "address"
        },
        {
          "indexed": true,
          "internalType": "address",
          "name": "newOwner",
          "type": "address"
        }
      ],
      "name": "OwnershipTransferred",
      "type": "event"
    },
    {
      "anonymous": false,
      "inputs": [
        {
          "indexed": true,
          "internalType": "address",
          "name": "user",
          "type": "address"
        },
        {
          "components": [
            {
              "internalType": "bytes",
              "name": "request",
              "type": "bytes"
            },
            {
              "internalType": "uint256",
              "name": "payment",
              "type": "uint256"
            },
            {
              "internalType": "uint256",
              "name": "stake",
              "type": "uint256"
            },
            {
              "internalType": "address",
              "name": "postAddress",
              "type": "address"
            },
            {
              "internalType": "bool",
              "name": "accepted",
              "type": "bool"
            },
            {
              "internalType": "uint256",
              "name": "postCount",
              "type": "uint256"
            },
            {
              "internalType": "enum Structures.Tokens",
              "name": "tokenId",
              "type": "uint8"
            },
            {
              "internalType": "address",
              "name": "buyerAddress",
              "type": "address"
            }
          ],
          "indexed": false,
          "internalType": "struct Structures.BayRequest",
          "name": "",
          "type": "tuple"
        },
        {
          "indexed": true,
          "internalType": "uint256",
          "name": "index",
          "type": "uint256"
        }
      ],
      "name": "RequestAccepted",
      "type": "event"
    },
    {
      "anonymous": false,
      "inputs": [
        {
          "indexed": true,
          "internalType": "address",
          "name": "user",
          "type": "address"
        },
        {
          "components": [
            {
              "internalType": "bytes",
              "name": "request",
              "type": "bytes"
            },
            {
              "internalType": "uint256",
              "name": "payment",
              "type": "uint256"
            },
            {
              "internalType": "uint256",
              "name": "stake",
              "type": "uint256"
            },
            {
              "internalType": "address",
              "name": "postAddress",
              "type": "address"
            },
            {
              "internalType": "bool",
              "name": "accepted",
              "type": "bool"
            },
            {
              "internalType": "uint256",
              "name": "postCount",
              "type": "uint256"
            },
            {
              "internalType": "enum Structures.Tokens",
              "name": "tokenId",
              "type": "uint8"
            },
            {
              "internalType": "address",
              "name": "buyerAddress",
              "type": "address"
            }
          ],
          "indexed": false,
          "internalType": "struct Structures.BayRequest",
          "name": "",
          "type": "tuple"
        },
        {
          "indexed": true,
          "internalType": "uint256",
          "name": "index",
          "type": "uint256"
        }
      ],
      "name": "RequestCreated",
      "type": "event"
    },
    {
      "inputs": [
        {
          "internalType": "uint256",
          "name": "index",
          "type": "uint256"
        },
        {
          "internalType": "address",
          "name": "feed",
          "type": "address"
        }
      ],
      "name": "acceptRequest",
      "outputs": [],
      "stateMutability": "nonpayable",
      "type": "function"
    },
    {
      "inputs": [
        {
          "internalType": "uint256",
          "name": "",
          "type": "uint256"
        }
      ],
      "name": "allRequests",
      "outputs": [
        {
          "internalType": "bytes",
          "name": "request",
          "type": "bytes"
        },
        {
          "internalType": "uint256",
          "name": "payment",
          "type": "uint256"
        },
        {
          "internalType": "uint256",
          "name": "stake",
          "type": "uint256"
        },
        {
          "internalType": "address",
          "name": "postAddress",
          "type": "address"
        },
        {
          "internalType": "bool",
          "name": "accepted",
          "type": "bool"
        },
        {
          "internalType": "uint256",
          "name": "postCount",
          "type": "uint256"
        },
        {
          "internalType": "enum Structures.Tokens",
          "name": "tokenId",
          "type": "uint8"
        },
        {
          "internalType": "address",
          "name": "buyerAddress",
          "type": "address"
        }
      ],
      "stateMutability": "view",
      "type": "function"
    },
    {
      "inputs": [
        {
          "internalType": "address",
          "name": "_daiToken",
          "type": "address"
        }
      ],
      "name": "changeDaiToken",
      "outputs": [],
      "stateMutability": "nonpayable",
      "type": "function"
    },
    {
      "inputs": [
        {
          "internalType": "address",
          "name": "_museToken",
          "type": "address"
        }
      ],
      "name": "changeMuseToken",
      "outputs": [],
      "stateMutability": "nonpayable",
      "type": "function"
    },
    {
      "inputs": [
        {
          "internalType": "address",
          "name": "_usersModule",
          "type": "address"
        }
      ],
      "name": "changeUsersModule",
      "outputs": [],
      "stateMutability": "nonpayable",
      "type": "function"
    },
    {
      "inputs": [],
      "name": "contractCounter",
      "outputs": [
        {
          "internalType": "uint256",
          "name": "",
          "type": "uint256"
        }
      ],
      "stateMutability": "view",
      "type": "function"
    },
    {
      "inputs": [
        {
          "components": [
            {
              "internalType": "bytes",
              "name": "request",
              "type": "bytes"
            },
            {
              "internalType": "uint256",
              "name": "payment",
              "type": "uint256"
            },
            {
              "internalType": "uint256",
              "name": "stake",
              "type": "uint256"
            },
            {
              "internalType": "address",
              "name": "postAddress",
              "type": "address"
            },
            {
              "internalType": "bool",
              "name": "accepted",
              "type": "bool"
            },
            {
              "internalType": "uint256",
              "name": "postCount",
              "type": "uint256"
            },
            {
              "internalType": "enum Structures.Tokens",
              "name": "tokenId",
              "type": "uint8"
            },
            {
              "internalType": "address",
              "name": "buyerAddress",
              "type": "address"
            }
          ],
          "internalType": "struct Structures.BayRequest",
          "name": "request",
          "type": "tuple"
        }
      ],
      "name": "createRequest",
      "outputs": [
        {
          "components": [
            {
              "internalType": "bytes",
              "name": "request",
              "type": "bytes"
            },
            {
              "internalType": "uint256",
              "name": "payment",
              "type": "uint256"
            },
            {
              "internalType": "uint256",
              "name": "stake",
              "type": "uint256"
            },
            {
              "internalType": "address",
              "name": "postAddress",
              "type": "address"
            },
            {
              "internalType": "bool",
              "name": "accepted",
              "type": "bool"
            },
            {
              "internalType": "uint256",
              "name": "postCount",
              "type": "uint256"
            },
            {
              "internalType": "enum Structures.Tokens",
              "name": "tokenId",
              "type": "uint8"
            },
            {
              "internalType": "address",
              "name": "buyerAddress",
              "type": "address"
            }
          ],
          "internalType": "struct Structures.BayRequest",
          "name": "",
          "type": "tuple"
        }
      ],
      "stateMutability": "payable",
      "type": "function"
    },
    {
      "inputs": [],
      "name": "daiToken",
      "outputs": [
        {
          "internalType": "address",
          "name": "",
          "type": "address"
        }
      ],
      "stateMutability": "view",
      "type": "function"
    },
    {
      "inputs": [
        {
          "internalType": "address",
          "name": "_user",
          "type": "address"
        }
      ],
      "name": "getRequestForAddress",
      "outputs": [
        {
          "components": [
            {
              "internalType": "bytes",
              "name": "request",
              "type": "bytes"
            },
            {
              "internalType": "uint256",
              "name": "payment",
              "type": "uint256"
            },
            {
              "internalType": "uint256",
              "name": "stake",
              "type": "uint256"
            },
            {
              "internalType": "address",
              "name": "postAddress",
              "type": "address"
            },
            {
              "internalType": "bool",
              "name": "accepted",
              "type": "bool"
            },
            {
              "internalType": "uint256",
              "name": "postCount",
              "type": "uint256"
            },
            {
              "internalType": "enum Structures.Tokens",
              "name": "tokenId",
              "type": "uint8"
            },
            {
              "internalType": "address",
              "name": "buyerAddress",
              "type": "address"
            }
          ],
          "internalType": "struct Structures.BayRequest[]",
          "name": "",
          "type": "tuple[]"
        }
      ],
      "stateMutability": "view",
      "type": "function"
    },
    {
      "inputs": [],
      "name": "getRequests",
      "outputs": [
        {
          "components": [
            {
              "internalType": "bytes",
              "name": "request",
              "type": "bytes"
            },
            {
              "internalType": "uint256",
              "name": "payment",
              "type": "uint256"
            },
            {
              "internalType": "uint256",
              "name": "stake",
              "type": "uint256"
            },
            {
              "internalType": "address",
              "name": "postAddress",
              "type": "address"
            },
            {
              "internalType": "bool",
              "name": "accepted",
              "type": "bool"
            },
            {
              "internalType": "uint256",
              "name": "postCount",
              "type": "uint256"
            },
            {
              "internalType": "enum Structures.Tokens",
              "name": "tokenId",
              "type": "uint8"
            },
            {
              "internalType": "address",
              "name": "buyerAddress",
              "type": "address"
            }
          ],
          "internalType": "struct Structures.BayRequest[]",
          "name": "",
          "type": "tuple[]"
        }
      ],
      "stateMutability": "view",
      "type": "function"
    },
    {
      "inputs": [],
      "name": "museToken",
      "outputs": [
        {
          "internalType": "address",
          "name": "",
          "type": "address"
        }
      ],
      "stateMutability": "view",
      "type": "function"
    },
    {
      "inputs": [],
      "name": "owner",
      "outputs": [
        {
          "internalType": "address",
          "name": "",
          "type": "address"
        }
      ],
      "stateMutability": "view",
      "type": "function"
    },
    {
      "inputs": [
        {
          "internalType": "uint256",
          "name": "index",
          "type": "uint256"
        }
      ],
      "name": "removeRequest",
      "outputs": [],
      "stateMutability": "nonpayable",
      "type": "function"
    },
    {
      "inputs": [],
      "name": "renounceOwnership",
      "outputs": [],
      "stateMutability": "nonpayable",
      "type": "function"
    },
    {
      "inputs": [
        {
          "internalType": "address",
          "name": "",
          "type": "address"
        },
        {
          "internalType": "uint256",
          "name": "",
          "type": "uint256"
        }
      ],
      "name": "requests",
      "outputs": [
        {
          "internalType": "bytes",
          "name": "request",
          "type": "bytes"
        },
        {
          "internalType": "uint256",
          "name": "payment",
          "type": "uint256"
        },
        {
          "internalType": "uint256",
          "name": "stake",
          "type": "uint256"
        },
        {
          "internalType": "address",
          "name": "postAddress",
          "type": "address"
        },
        {
          "internalType": "bool",
          "name": "accepted",
          "type": "bool"
        },
        {
          "internalType": "uint256",
          "name": "postCount",
          "type": "uint256"
        },
        {
          "internalType": "enum Structures.Tokens",
          "name": "tokenId",
          "type": "uint8"
        },
        {
          "internalType": "address",
          "name": "buyerAddress",
          "type": "address"
        }
      ],
      "stateMutability": "view",
      "type": "function"
    },
    {
      "inputs": [
        {
          "internalType": "address",
          "name": "newOwner",
          "type": "address"
        }
      ],
      "name": "transferOwnership",
      "outputs": [],
      "stateMutability": "nonpayable",
      "type": "function"
    },
    {
      "inputs": [],
      "name": "usersMouduleContract",
      "outputs": [
        {
          "internalType": "address",
          "name": "",
          "type": "address"
        }
      ],
      "stateMutability": "view",
      "type": "function"
    },
    {
      "stateMutability": "payable",
      "type": "receive"
    }
  ],
  "transactionHash": "0x790ccd02de9d5aebaf50f95cfbdbd69e9851e7d14f6182cf523ea947aef61451",
  "args": [
    "0xf0E5Bd580a8Ab22B3c21b64a2c8807adE402f46d"
  ],
  "numDeployments": 1,
  "solcInputHash": "8f4bb87d0f5788529afc2440d434df15",
  "bytecode": "0x6080346100a757601f61261f38819003918201601f19168301916001600160401b038311848410176100ac578084926020946040528339810103126100a757516001600160a01b0390818116908190036100a75760005460018060a01b0319903382821617600055604051933391167f8be0079c531659141344cd1fd0a4f28419497f9722a3daafe3b4186f6b6457e0600080a3600254161760025561255c90816100c38239f35b600080fd5b634e487b7160e01b600052604160045260246000fdfe608080604052600436101561001d575b50361561001b57600080fd5b005b600090813560e01c908163067bd3b414611b54575080630f3cd88814611b145780633b057eb91461145157806344786fc314611029578063715018a614610fcf5780638813ce1214610f265780638da5cb5b14610eff5780639bf4ec2f14610e745780639c673fe514610e345780639ecebe2a14610d92578063ac9f472a14610ce5578063b041377014610cbc578063be22f54614610c93578063c4bb77d014610c53578063daba858a146101d2578063f2fde38b1461010c5763f77800e50361000f57346101095780600319360112610109576003546040516001600160a01b039091168152602090f35b80fd5b503461010957602036600319011261010957610126611b70565b61012e611ef3565b6001600160a01b0390811690811561017e57600054826001600160601b0360a01b821617600055167f8be0079c531659141344cd1fd0a4f28419497f9722a3daafe3b4186f6b6457e0600080a380f35b60405162461bcd60e51b815260206004820152602660248201527f4f776e61626c653a206e6577206f776e657220697320746865207a65726f206160448201526564647265737360d01b6064820152608490fd5b5034610109576040366003190112610109576024356001600160a01b0381169003610109576101ff6124c3565b506102086124c3565b6024356001600160a01b0316808252604051638da5cb5b60e01b815290602090829060049082905afa90811561075b578391610c11575b506001600160a01b03908116602083810191909152604051635c63ed6960e01b81529182906004908290602435165afa90811561075b578391610bdf575b5060408281019190915251634c38d87760e01b81526020816004816024356001600160a01b03165afa90811561075b578391610bad575b50606082015260405163048bf3bb60e11b81526020816004816024356001600160a01b03165afa90811561075b578391610b7b575b506080820152604051630bc8361760e11b81526020816004816024356001600160a01b03165afa90811561075b578391610b49575b5060a082015260405163d24e0c8760e01b81526020816004816024356001600160a01b03165afa90811561075b578391610b13575b5060c0820190815260405163faeb5e1760e01b8152906020826004816024356001600160a01b03165afa918215610b08578492610ad4575b5060e083019182526040516302734eab60e51b81526020816004816024356001600160a01b03165afa908115610a39578591610a99575b506008811015610a855761010084015260405163010a38f560e01b81526020816004816024356001600160a01b03165afa8015610a39578590610a44575b61040f9150610120850161227b565b60405163054fd4d560e41b815284816004816024356001600160a01b03165afa908115610a395785916109b9575b506101408401526001610451600435611d5e565b50015490511161096457516002610469600435611d5e565b500154116109115760025460405163122643f360e21b815233600482015290602090829060249082906001600160a01b03165afa90811561075b5783916108f2575b50156108ad5760ff60056104c0600435611d5e565b5001541660038110156107df57156107f35760ff60056104e1600435611d5e565b5001541660038110156107df576002036107665781602061054a60018060a01b03600454166001610513600435611d5e565b50015460405163095ea7b360e01b8152602480356001600160a01b0316600483015281019190915293849283919082906044820190565b03925af1801561075b5761072c575b505b8160ff600561056b600435611d5e565b50015416600161057c600435611d5e565b50015461058a600435611d5e565b506005015460081c6001600160a01b039081169290602435163b156107285783916105cb604051948593849363039c46dd60e11b855230916004860161224b565b0381836024356001600160a01b03165af1801561071d57610705575b505060a0905b60036105fa600435611d5e565b50016001831b60ff841b198254161790556003610618600435611d5e565b5001600180841b03602435166001600160601b03841b825416179055015160046106428135611d5e565b500155610650600435611d5e565b50604051906020825261010060208301526005610671610120840183611e05565b91600181015460408501526002810154606085015260ff600382015460018060a01b038116608087015260a01c16151560a0850152600481015460c085015201546106c260e0840160ff8316611c68565b60081c6001600160a01b03166101008301526004359133917fd91a79ad8af805cb8868bca7ed44fb36c1916a2a38448b66790706fb4106caa1919081900390a380f35b61070e90611bd1565b6107195781386105e7565b5080fd5b6040513d84823e3d90fd5b8380fd5b61074d9060203d602011610754575b6107458183611be4565b810190611f97565b5038610559565b503d61073b565b6040513d85823e3d90fd5b60ff6005610775600435611d5e565b5001541660038110156107df5760010361055b5760035482906020906107ab906001600160a01b03166001610513600435611d5e565b03925af1801561075b576107c0575b5061055b565b6107d89060203d602011610754576107458183611be4565b50386107ba565b634e487b7160e01b83526021600452602483fd5b6001610800600435611d5e565b5001548260ff6005610813600435611d5e565b500154166001610824600435611d5e565b50015492610833600435611d5e565b506005015460081c6001600160a01b039081169290602435163b1561072857610875946040519586948593849363039c46dd60e11b855230916004860161224b565b03916024356001600160a01b03165af1801561075b57610899575b5060a0906105ed565b916108a660a09293611bd1565b9190610890565b60405162461bcd60e51b815260206004820152601760248201527f4241593a7573657220646f6573206e6f742065786973740000000000000000006044820152606490fd5b61090b915060203d602011610754576107458183611be4565b386104ab565b60405162461bcd60e51b815260206004820152602560248201527f4241593a7374616b65206973206e6f74207468652073616d65206f6620746865604482015264081999595960da1b6064820152608490fd5b60405162461bcd60e51b815260206004820152602760248201527f4241593a7061796d656e74206973206e6f74207468652073616d65206f6620746044820152661a19481999595960ca1b6064820152608490fd5b90503d8086833e6109ca8183611be4565b810190602081830312610a35578051906001600160401b038211610a31570181601f82011215610a355780516109ff81611c05565b92610a0d6040519485611be4565b81845260208284010111610a3157610a2b9160208085019101611c20565b3861043d565b8680fd5b8580fd5b6040513d87823e3d90fd5b506020813d602011610a7d575b81610a5e60209383611be4565b81010312610a7957516003811015610a795761040f90610400565b8480fd5b3d9150610a51565b634e487b7160e01b85526021600452602485fd5b90506020813d602011610acc575b81610ab460209383611be4565b81010312610a7957516008811015610a7957386103c2565b3d9150610aa7565b9091506020813d602011610b00575b81610af060209383611be4565b810103126107285751903861038b565b3d9150610ae3565b6040513d86823e3d90fd5b90506020813d602011610b41575b81610b2e60209383611be4565b81010312610b3d575138610353565b8280fd5b3d9150610b21565b90506020813d602011610b73575b81610b6460209383611be4565b81010312610b3d57513861031e565b3d9150610b57565b90506020813d602011610ba5575b81610b9660209383611be4565b81010312610b3d5751386102e9565b3d9150610b89565b90506020813d602011610bd7575b81610bc860209383611be4565b81010312610b3d5751386102b4565b3d9150610bbb565b90506020813d602011610c09575b81610bfa60209383611be4565b81010312610b3d57513861027d565b3d9150610bed565b90506020813d602011610c4b575b81610c2c60209383611be4565b81010312610b3d57516001600160a01b0381168103610b3d573861023f565b3d9150610c1f565b503461010957602036600319011261010957610c6d611b70565b610c75611ef3565b60018060a01b03166001600160601b0360a01b600254161760025580f35b50346101095780600319360112610109576004546040516001600160a01b039091168152602090f35b50346101095780600319360112610109576002546040516001600160a01b039091168152602090f35b503461010957602080600319360112610719576001600160a01b03610d08611b70565b1682526005815260408220918254906001600160401b038211610d7e579260405192610d39818460051b0185611be4565b82845280840191855280852094915b838310610d615760405180610d5d8782611cfc565b0390f35b600682600192610d7089612287565b815201960192019194610d48565b634e487b7160e01b81526041600452602490fd5b503461010957604036600319011261010957610dac611b70565b6001600160a01b039081168252600560205260408220805460243591908210156107285790610dda91611daf565b5090610d5d604051610df781610df08187611e05565b0382611be4565b6001840154926002850154946003810154600560048301549201549360405197889760ff868860081c1697169560ff8560a01c1694169289611e9b565b503461010957602036600319011261010957610e4e611b70565b610e56611ef3565b60018060a01b03166001600160601b0360a01b600454161760045580f35b50346101095760203660031901126101095760043560015481101561071957610e9c90611d5e565b5060405190610eb682610eaf8184611e05565b0383611be4565b610d5d600182015491600281015492600382015491600560048201549101549260405196879660018060a01b039460ff868860081c1697169560ff8560a01c1694169289611e9b565b5034610109578060031936011261010957546040516001600160a01b039091168152602090f35b503461010957806003193601126101095760019081546001600160401b038111610fbb57604051916020610f5f818460051b0185611be4565b8284528482527fb10e2d527612073b26eecdfd717e6a320cf44b4afac2b0732d9fcbe2b7fa0cf68185015b848410610f9f5760405180610d5d8882611cfc565b6006838892610fad85612287565b815201920193019290610f8a565b634e487b7160e01b82526041600452602482fd5b5034610109578060031936011261010957610fe8611ef3565b80546001600160a01b03198116825581906001600160a01b03167f8be0079c531659141344cd1fd0a4f28419497f9722a3daafe3b4186f6b6457e08280a380f35b50346101095760203660031901126101095760043561104781611d5e565b506005015460081c6001600160a01b0316330361141c5760ff600361106b83611d5e565b50015460a01c166113d75761108861108282611d5e565b50612287565b90828080806020860151335af161109d61217e565b501561139a576001546000198101919082116112815781811061137d575b50506001548015611369576110d36000198201611d5e565b91909161135557836110e58354611dcb565b8061131a575b5060018301558360056002938285820155826003820155826004820155015560001901600155825b33845260056020526040842080548210156113135761113482600192611daf565b500154602084015114806112ee575b806112bb575b80611295575b6111615761115c90612025565b611113565b33845260056020526040842054919250600019820191821161128157818110611246575b5050338252600560205260408220805480156112325760001901916111aa8383611daf565b91909161121e578185600592816111c2819654611dcb565b806111e3575b50600184015582015582600382015582600482015501555580f35b601f8082116001146111fb57505083555b81386111c8565b61121590868452602084209201871c820160018301611faf565b818555556111f4565b634e487b7160e01b85526004859052602485fd5b634e487b7160e01b84526031600452602484fd5b61127461126161127a93338752600560205260408720611daf565b5091338652600560205260408620611daf565b906123e7565b3880611185565b634e487b7160e01b84526011600452602484fd5b50338452600560205260046112ad8260408720611daf565b50015460a08401511461114f565b5033845260056020526112d18160408620611daf565b506003015460608401516001600160a01b03908116911614611149565b503384526005602052816113058260408720611daf565b500154604084015114611143565b5050505080f35b601f8111600114611330575082555b83386110eb565b83825261134c601f60208420920160051c820160018301611faf565b81845555611329565b634e487b7160e01b84526004849052602484fd5b634e487b7160e01b83526031600452602483fd5b61127461138c61139393611d5e565b5091611d5e565b38806110bb565b60405162461bcd60e51b81526020600482015260156024820152741090564e95985d5b1d0818d85b1b0819985a5b1959605a1b6044820152606490fd5b60405162461bcd60e51b815260206004820152601f60248201527f4241593a7265717565737420697320616c7265616479206163636570746564006044820152606490fd5b60405162461bcd60e51b815260206004820152600d60248201526c2727aa102a242290212aaca2a960991b6044820152606490fd5b506003199060203683011261010957600435916001600160401b03831161071957610100908336030112610109576040519061148c82611b9f565b82600401356001600160401b03811161071957830192366023850112156107195760048401356114bb81611c05565b906114c96040519283611be4565b80825260249536878383010111610a79578185928860209301838601378301015283528381013560208401526044810135604084015261150b60648201611b8b565b606084015260848101358015158103610b3d57608084015260a481013560a084015260c48101356003811015610b3d5760c084015261154c9060e401611b8b565b60e08301526040519161155e83611b9f565b606083528160208401528160408401528160608401528160808401528160a08401528160c08401528160e084015260c08101516003811015611b0157611a96576115a9341515611f4b565b6115b834602083015114611f4b565b6115c760208201511515611f4b565b60025460405163122643f360e21b8152336004820152906020908290879082906001600160a01b03165afa90811561075b578391611a77575b5015611a3d576040810151156119f95761161f60208201511515611f4b565b338252600560205260408220805490600160401b8210156119e6579061164a91600182018155611daf565b61194b5781518051906001600160401b038211611938576116758261166f8554611dcb565b85611fc6565b602090601f831160011461197c576005939291869183611971575b50508160011b916000199060031b1c19161781555b60208301516001820155604083015160028201556060830151600382018054608086015160ff60a01b90151560a01b166001600160a01b039093166001600160a81b03199091161791909117905560a083015160048201550160c082015160038110156118b0579061171a611741928261200d565b60e08301518154610100600160a81b03191660089190911b610100600160a81b0316179055565b600154600160401b81101561195e578060016117609201600155611d5e565b61194b5781518051906001600160401b038211611938576117858261166f8554611dcb565b602090601f83116001146118ce5760059392918691836118c3575b50508160011b916000199060031b1c19161781555b60208301516001820155604083015160028201556060830151600382018054608086015160ff60a01b90151560a01b166001600160a01b039093166001600160a81b03199091161791909117905560a083015160048201550160c082015160038110156118b0579061171a61182a928261200d565b611835600754612025565b60075560015460001981019290831161189d5750610d5d93507f29d2791fa06d2c6aea0286fb24abb62a60f72eafb0c5515f3eb4a11af90b9755604051602081528061188633946020830190611c8b565b0390a3604051918291602083526020830190611c8b565b634e487b7160e01b815260116004528490fd5b634e487b7160e01b845260216004528584fd5b0151905038806117a0565b908386526020862091865b601f1985168110611920575091839160019360059695601f19811610611907575b505050811b0181556117b5565b015160001960f88460031b161c191690553880806118fa565b919260206001819286850151815501940192016118d9565b634e487b7160e01b855260416004528685fd5b634e487b7160e01b835260048390528483fd5b634e487b7160e01b835260416004528483fd5b015190503880611690565b908386526020862091865b601f19851681106119ce575091839160019360059695601f198116106119b5575b505050811b0181556116a5565b015160001960f88460031b161c191690553880806119a8565b91926020600181928685015181550194019201611987565b634e487b7160e01b845260416004528584fd5b60405162461bcd60e51b8152602060048201526017818601527f4241593a7374616b65206973206e6f7420656e6f7567680000000000000000006044820152606490fd5b60405162461bcd60e51b815260206004820152601381860152721d5cd95c88191bd95cc81b9bdd08195e1a5cdd606a1b6044820152606490fd5b611a90915060203d602011610754576107458183611be4565b38611600565b60c08101516003811015611b0157600203611ace576004546020820151611ac991309033906001600160a01b031661204a565b6115b8565b60c08101516003811015611b01576001036115b8576003546020820151611ac991309033906001600160a01b031661204a565b634e487b7160e01b835260216004528483fd5b503461010957602036600319011261010957611b2e611b70565b611b36611ef3565b60018060a01b03166001600160601b0360a01b600354161760035580f35b9050346107195781600319360112610719576020906007548152f35b600435906001600160a01b0382168203611b8657565b600080fd5b35906001600160a01b0382168203611b8657565b61010081019081106001600160401b03821117611bbb57604052565b634e487b7160e01b600052604160045260246000fd5b6001600160401b038111611bbb57604052565b90601f801991011681019081106001600160401b03821117611bbb57604052565b6001600160401b038111611bbb57601f01601f191660200190565b60005b838110611c335750506000910152565b8181015183820152602001611c23565b90602091611c5c81518092818552858086019101611c20565b601f01601f1916010190565b906003821015611c755752565b634e487b7160e01b600052602160045260246000fd5b9060e0611ca18351610100808552840190611c43565b9260208101516020840152604081015160408401528160018060a01b039182606082015116606086015260808101511515608086015260a081015160a0860152611cf360c082015160c0870190611c68565b01511691015290565b602080820190808352835180925260408301928160408460051b8301019501936000915b848310611d305750505050505090565b9091929394958480611d4e600193603f198682030187528a51611c8b565b9801930193019194939290611d20565b600154811015611d99576006906001600052027fb10e2d527612073b26eecdfd717e6a320cf44b4afac2b0732d9fcbe2b7fa0cf60190600090565b634e487b7160e01b600052603260045260246000fd5b8054821015611d99576000526006602060002091020190600090565b90600182811c92168015611dfb575b6020831014611de557565b634e487b7160e01b600052602260045260246000fd5b91607f1691611dda565b9060009291805491611e1683611dcb565b918282526001938481169081600014611e785750600114611e38575b50505050565b90919394506000526020928360002092846000945b838610611e64575050505001019038808080611e32565b805485870183015294019385908201611e4d565b9294505050602093945060ff191683830152151560051b01019038808080611e32565b969198979394611eed93611eba60e09893610100808c528b0190611c43565b60208a019b909b5260408901526001600160a01b0395861660608901521515608088015260a087015260c0860190611c68565b16910152565b6000546001600160a01b03163303611f0757565b606460405162461bcd60e51b815260206004820152602060248201527f4f776e61626c653a2063616c6c6572206973206e6f7420746865206f776e65726044820152fd5b15611f5257565b60405162461bcd60e51b815260206004820152601960248201527f4241593a7061796d656e74206973206e6f7420656e6f756768000000000000006044820152606490fd5b90816020910312611b8657518015158103611b865790565b818110611fba575050565b60008155600101611faf565b9190601f8111611fd557505050565b612001926000526020600020906020601f840160051c83019310612003575b601f0160051c0190611faf565b565b9091508190611ff4565b906003811015611c755760ff80198354169116179055565b60001981146120345760010190565b634e487b7160e01b600052601160045260246000fd5b6040516323b872dd60e01b602082019081526001600160a01b0393841660248301529383166044820152606480820195909552938452919260a08101926001600160401b03929083851183861017611bbb57169160e0820190811184821017611bbb57604052602083527f5361666545524332303a206c6f772d6c6576656c2063616c6c206661696c656460c0820152516120f693600091829182855af16120f061217e565b916121ae565b8051908115918215612164575b50501561210c57565b60405162461bcd60e51b815260206004820152602a60248201527f5361666545524332303a204552433230206f7065726174696f6e20646964206e6044820152691bdd081cdd58d8d9595960b21b6064820152608490fd5b6121779250602080918301019101611f97565b3880612103565b3d156121a9573d9061218f82611c05565b9161219d6040519384611be4565b82523d6000602084013e565b606090565b9192901561221057508151156121c2575090565b3b156121cb5790565b60405162461bcd60e51b815260206004820152601d60248201527f416464726573733a2063616c6c20746f206e6f6e2d636f6e74726163740000006044820152606490fd5b8251909150156122235750805190602001fd5b60405162461bcd60e51b815260206004820152908190612247906024830190611c43565b0390fd5b92909493606092612260856080810198611c68565b60208501526001600160a01b03918216604085015216910152565b6003821015611c755752565b9060405161229481611b9f565b60e081936040516122a981610df08185611e05565b83526001810154602084015260028101546040840152600560038201549160ff60018060a01b0393848116606088015260a01c1615156080860152600481015460a0860152015461230060ff821660c0860161227b565b60081c16910152565b908082146123e35761231b8154611dcb565b906001600160401b038211611bbb5781906123408261233a8654611dcb565b86611fc6565b600090601f83116001146123775760009261236c575b50508160011b916000199060031b1c1916179055565b015490503880612356565b81526020808220858352818320935090601f1985169083905b8282106123ca5750509084600195949392106123b1575b505050811b019055565b015460001960f88460031b161c191690553880806123a7565b8495819295850154815560018091019601940190612390565b5050565b91906124ad578082036123f8575050565b816124068261200194612309565b6001820154600182015560028201546002820155600580600383019261246a600386019460ff60018060a01b0396878154166001600160601b0360a01b8454161783555460a01c1681549060ff60a01b90151560a01b169060ff60a01b1916179055565b6004850154600482015501920161248560ff8254168461200d565b548254610100600160a81b031916600891821c92909216901b610100600160a81b0316179055565b634e487b7160e01b600052600060045260246000fd5b6040519061016082018281106001600160401b03821117611bbb57604052606061014083600080825280602083015280604083015280848301528060808301528060a08301528060c08301528060e083015280610100830152610120820152015256fea26469706673582212207e26bdc217808bc76cfa468caec4425dddbfa5b99a37a8f1d177df3d86d177a764736f6c63430008130033",
  "devdoc": {
    "kind": "dev",
    "methods": {
      "owner()": {
        "details": "Returns the address of the current owner."
      },
      "renounceOwnership()": {
        "details": "Leaves the contract without owner. It will not be possible to call `onlyOwner` functions. Can only be called by the current owner. NOTE: Renouncing ownership will leave the contract without an owner, thereby disabling any functionality that is only available to the owner."
      },
      "transferOwnership(address)": {
        "details": "Transfers ownership of the contract to a new account (`newOwner`). Can only be called by the current owner."
      }
    },
    "version": 1
  },
  "userdoc": {
    "kind": "user",
    "methods": {},
    "version": 1
  },
  "storageLayout": {
    "storage": [
      {
        "astId": 7,
        "contract": "contracts/layer/MecenateBay.sol:MecenateBay",
        "label": "_owner",
        "offset": 0,
        "slot": "0",
        "type": "t_address"
      },
      {
        "astId": 15750,
        "contract": "contracts/layer/MecenateBay.sol:MecenateBay",
        "label": "allRequests",
        "offset": 0,
        "slot": "1",
        "type": "t_array(t_struct(BayRequest)16525_storage)dyn_storage"
      },
      {
        "astId": 15752,
        "contract": "contracts/layer/MecenateBay.sol:MecenateBay",
        "label": "usersMouduleContract",
        "offset": 0,
        "slot": "2",
        "type": "t_address"
      },
      {
        "astId": 15754,
        "contract": "contracts/layer/MecenateBay.sol:MecenateBay",
        "label": "museToken",
        "offset": 0,
        "slot": "3",
        "type": "t_address"
      },
      {
        "astId": 15756,
        "contract": "contracts/layer/MecenateBay.sol:MecenateBay",
        "label": "daiToken",
        "offset": 0,
        "slot": "4",
        "type": "t_address"
      },
      {
        "astId": 15762,
        "contract": "contracts/layer/MecenateBay.sol:MecenateBay",
        "label": "requests",
        "offset": 0,
        "slot": "5",
        "type": "t_mapping(t_address,t_array(t_struct(BayRequest)16525_storage)dyn_storage)"
      },
      {
        "astId": 15766,
        "contract": "contracts/layer/MecenateBay.sol:MecenateBay",
        "label": "sismoResponseMapping",
        "offset": 0,
        "slot": "6",
        "type": "t_mapping(t_uint256,t_bytes_storage)"
      },
      {
        "astId": 15768,
        "contract": "contracts/layer/MecenateBay.sol:MecenateBay",
        "label": "contractCounter",
        "offset": 0,
        "slot": "7",
        "type": "t_uint256"
      }
    ],
    "types": {
      "t_address": {
        "encoding": "inplace",
        "label": "address",
        "numberOfBytes": "20"
      },
      "t_array(t_struct(BayRequest)16525_storage)dyn_storage": {
        "base": "t_struct(BayRequest)16525_storage",
        "encoding": "dynamic_array",
        "label": "struct Structures.BayRequest[]",
        "numberOfBytes": "32"
      },
      "t_bool": {
        "encoding": "inplace",
        "label": "bool",
        "numberOfBytes": "1"
      },
      "t_bytes_storage": {
        "encoding": "bytes",
        "label": "bytes",
        "numberOfBytes": "32"
      },
      "t_enum(Tokens)16380": {
        "encoding": "inplace",
        "label": "enum Structures.Tokens",
        "numberOfBytes": "1"
      },
      "t_mapping(t_address,t_array(t_struct(BayRequest)16525_storage)dyn_storage)": {
        "encoding": "mapping",
        "key": "t_address",
        "label": "mapping(address => struct Structures.BayRequest[])",
        "numberOfBytes": "32",
        "value": "t_array(t_struct(BayRequest)16525_storage)dyn_storage"
      },
      "t_mapping(t_uint256,t_bytes_storage)": {
        "encoding": "mapping",
        "key": "t_uint256",
        "label": "mapping(uint256 => bytes)",
        "numberOfBytes": "32",
        "value": "t_bytes_storage"
      },
      "t_struct(BayRequest)16525_storage": {
        "encoding": "inplace",
        "label": "struct Structures.BayRequest",
        "members": [
          {
            "astId": 16509,
            "contract": "contracts/layer/MecenateBay.sol:MecenateBay",
            "label": "request",
            "offset": 0,
            "slot": "0",
            "type": "t_bytes_storage"
          },
          {
            "astId": 16511,
            "contract": "contracts/layer/MecenateBay.sol:MecenateBay",
            "label": "payment",
            "offset": 0,
            "slot": "1",
            "type": "t_uint256"
          },
          {
            "astId": 16513,
            "contract": "contracts/layer/MecenateBay.sol:MecenateBay",
            "label": "stake",
            "offset": 0,
            "slot": "2",
            "type": "t_uint256"
          },
          {
            "astId": 16515,
            "contract": "contracts/layer/MecenateBay.sol:MecenateBay",
            "label": "postAddress",
            "offset": 0,
            "slot": "3",
            "type": "t_address"
          },
          {
            "astId": 16517,
            "contract": "contracts/layer/MecenateBay.sol:MecenateBay",
            "label": "accepted",
            "offset": 20,
            "slot": "3",
            "type": "t_bool"
          },
          {
            "astId": 16519,
            "contract": "contracts/layer/MecenateBay.sol:MecenateBay",
            "label": "postCount",
            "offset": 0,
            "slot": "4",
            "type": "t_uint256"
          },
          {
            "astId": 16522,
            "contract": "contracts/layer/MecenateBay.sol:MecenateBay",
            "label": "tokenId",
            "offset": 0,
            "slot": "5",
            "type": "t_enum(Tokens)16380"
          },
          {
            "astId": 16524,
            "contract": "contracts/layer/MecenateBay.sol:MecenateBay",
            "label": "buyerAddress",
            "offset": 1,
            "slot": "5",
            "type": "t_address"
          }
        ],
        "numberOfBytes": "192"
      },
      "t_uint256": {
        "encoding": "inplace",
        "label": "uint256",
        "numberOfBytes": "32"
      }
    }
  }
}