{
  "address": "0x5405F5cba38D12e86be430319CBfA5B7fA9F8F84",
  "abi": [
    {
      "inputs": [
        {
          "internalType": "bytes32",
          "name": "_encryptedVaultId",
          "type": "bytes32"
        }
      ],
      "stateMutability": "nonpayable",
      "type": "constructor"
    },
    {
      "inputs": [
        {
          "internalType": "address",
          "name": "token",
          "type": "address"
        },
        {
          "internalType": "uint256",
          "name": "amount",
          "type": "uint256"
        }
      ],
      "name": "depositToken",
      "outputs": [],
      "stateMutability": "nonpayable",
      "type": "function"
    },
    {
      "inputs": [],
      "name": "factory",
      "outputs": [
        {
          "internalType": "address",
          "name": "",
          "type": "address"
        }
      ],
      "stateMutability": "view",
      "type": "function"
    },
    {
      "stateMutability": "payable",
      "type": "receive"
    }
  ],
  "transactionHash": "0xe88d471e40e99e6836335a136877f503a817ff273f20199d34f5e0403173e8a3",
  "args": [
    "0x0000000000000000000000000000000000000000000000000000000000000000"
  ],
  "numDeployments": 1,
  "solcInputHash": "a9ff469b4dc9c1829628556d6121bf42",
  "bytecode": "0x60803461006357601f61064738819003918201601f19168301916001600160401b03831184841017610068578084926020946040528339810103126100635751600055600180546001600160a01b031916331790556040516105c8908161007f8239f35b600080fd5b634e487b7160e01b600052604160045260246000fdfe608060409080825260049081361015610223575b50361561001f57600080fd5b73ffffffffffffffffffffffffffffffffffffffff806001541683519182917f8d928af8000000000000000000000000000000000000000000000000000000008352828560209586935afa918215610218576000926101e9575b50600054855192848401917fd68d9d4e000000000000000000000000000000000000000000000000000000008352602485015260248452606084019367ffffffffffffffff94818110868211176101bb57885251600093849391923491165af1903d156101b5573d9081116101875784519061011c847fffffffffffffffffffffffffffffffffffffffffffffffffffffffffffffffe0601f84011601836104f1565b81526000833d92013e5b1561012d57005b60649251917f08c379a0000000000000000000000000000000000000000000000000000000008352820152600e60248201527f4465706f736974206661696c65640000000000000000000000000000000000006044820152fd5b6041847f4e487b71000000000000000000000000000000000000000000000000000000006000525260246000fd5b50610126565b6041887f4e487b71000000000000000000000000000000000000000000000000000000006000525260246000fd5b61020a919250833d8511610211575b61020281836104f1565b810190610561565b9038610079565b503d6101f8565b85513d6000823e3d90fd5b600090813560e01c908163338b5dea14610298575063c45a01550361001357823461029457817ffffffffffffffffffffffffffffffffffffffffffffffffffffffffffffffffc3601126102945760209073ffffffffffffffffffffffffffffffffffffffff600154169051908152f35b5080fd5b905083833461042a57817ffffffffffffffffffffffffffffffffffffffffffffffffffffffffffffffffc36011261042a5780359273ffffffffffffffffffffffffffffffffffffffff908185168095036104ed57806024359280600154167f8d928af8000000000000000000000000000000000000000000000000000000008352828660209485935afa9283156104c45788936104ce575b508551927f095ea7b30000000000000000000000000000000000000000000000000000000084521691828582015283602482015281816044818b8b5af19081156104c457889161048a575b501561042e5750908591825495813b1561042a5783606492875198899586947f84abac9500000000000000000000000000000000000000000000000000000000865289860152602485015260448401525af18015610420576103dc578380f35b67ffffffffffffffff83116103f45750528180808380f35b8360416024927f4e487b7100000000000000000000000000000000000000000000000000000000835252fd5b82513d86823e3d90fd5b8380fd5b836064918651917f08c379a0000000000000000000000000000000000000000000000000000000008352820152600e60248201527f417070726f7665206661696c65640000000000000000000000000000000000006044820152fd5b90508181813d83116104bd575b6104a181836104f1565b810103126104b9575180151581036104b9578861037c565b8780fd5b503d610497565b86513d8a823e3d90fd5b6104e6919350823d84116102115761020281836104f1565b9188610331565b8580fd5b90601f7fffffffffffffffffffffffffffffffffffffffffffffffffffffffffffffffe0910116810190811067ffffffffffffffff82111761053257604052565b7f4e487b7100000000000000000000000000000000000000000000000000000000600052604160045260246000fd5b9081602091031261058d575173ffffffffffffffffffffffffffffffffffffffff8116810361058d5790565b600080fdfea264697066735822122057c79ba1f46730c3c86779b8d7a11fb7e4dcff597a98d531318c25e458bba33364736f6c63430008130033",
  "devdoc": {
    "kind": "dev",
    "methods": {},
    "version": 1
  },
  "userdoc": {
    "kind": "user",
    "methods": {},
    "version": 1
  },
  "storageLayout": {
    "storage": [
      {
        "astId": 9383,
        "contract": "contracts/MecenateForwarder.sol:MecenateForwarder",
        "label": "encryptedVaultId",
        "offset": 0,
        "slot": "0",
        "type": "t_bytes32"
      },
      {
        "astId": 9385,
        "contract": "contracts/MecenateForwarder.sol:MecenateForwarder",
        "label": "factory",
        "offset": 0,
        "slot": "1",
        "type": "t_address"
      }
    ],
    "types": {
      "t_address": {
        "encoding": "inplace",
        "label": "address",
        "numberOfBytes": "20"
      },
      "t_bytes32": {
        "encoding": "inplace",
        "label": "bytes32",
        "numberOfBytes": "32"
      }
    }
  }
}