{
  "address": "0x06260F1Fb2cf60eD15E6e683f5f8dd0D05C3FBeB",
  "abi": [
    {
      "inputs": [],
      "stateMutability": "nonpayable",
      "type": "constructor"
    },
    {
      "inputs": [],
      "name": "InvalidShortString",
      "type": "error"
    },
    {
      "inputs": [
        {
          "internalType": "string",
          "name": "str",
          "type": "string"
        }
      ],
      "name": "StringTooLong",
      "type": "error"
    },
    {
      "anonymous": false,
      "inputs": [
        {
          "indexed": true,
          "internalType": "address",
          "name": "owner",
          "type": "address"
        },
        {
          "indexed": true,
          "internalType": "address",
          "name": "spender",
          "type": "address"
        },
        {
          "indexed": false,
          "internalType": "uint256",
          "name": "value",
          "type": "uint256"
        }
      ],
      "name": "Approval",
      "type": "event"
    },
    {
      "anonymous": false,
      "inputs": [
        {
          "indexed": true,
          "internalType": "address",
          "name": "delegator",
          "type": "address"
        },
        {
          "indexed": true,
          "internalType": "address",
          "name": "fromDelegate",
          "type": "address"
        },
        {
          "indexed": true,
          "internalType": "address",
          "name": "toDelegate",
          "type": "address"
        }
      ],
      "name": "DelegateChanged",
      "type": "event"
    },
    {
      "anonymous": false,
      "inputs": [
        {
          "indexed": true,
          "internalType": "address",
          "name": "delegate",
          "type": "address"
        },
        {
          "indexed": false,
          "internalType": "uint256",
          "name": "previousBalance",
          "type": "uint256"
        },
        {
          "indexed": false,
          "internalType": "uint256",
          "name": "newBalance",
          "type": "uint256"
        }
      ],
      "name": "DelegateVotesChanged",
      "type": "event"
    },
    {
      "anonymous": false,
      "inputs": [],
      "name": "EIP712DomainChanged",
      "type": "event"
    },
    {
      "anonymous": false,
      "inputs": [
        {
          "indexed": true,
          "internalType": "address",
          "name": "previousOwner",
          "type": "address"
        },
        {
          "indexed": true,
          "internalType": "address",
          "name": "newOwner",
          "type": "address"
        }
      ],
      "name": "OwnershipTransferred",
      "type": "event"
    },
    {
      "anonymous": false,
      "inputs": [
        {
          "indexed": false,
          "internalType": "address",
          "name": "account",
          "type": "address"
        }
      ],
      "name": "Paused",
      "type": "event"
    },
    {
      "anonymous": false,
      "inputs": [
        {
          "indexed": false,
          "internalType": "uint256",
          "name": "id",
          "type": "uint256"
        }
      ],
      "name": "Snapshot",
      "type": "event"
    },
    {
      "anonymous": false,
      "inputs": [
        {
          "indexed": true,
          "internalType": "address",
          "name": "from",
          "type": "address"
        },
        {
          "indexed": true,
          "internalType": "address",
          "name": "to",
          "type": "address"
        },
        {
          "indexed": false,
          "internalType": "uint256",
          "name": "value",
          "type": "uint256"
        }
      ],
      "name": "Transfer",
      "type": "event"
    },
    {
      "anonymous": false,
      "inputs": [
        {
          "indexed": false,
          "internalType": "address",
          "name": "account",
          "type": "address"
        }
      ],
      "name": "Unpaused",
      "type": "event"
    },
    {
      "inputs": [],
      "name": "CLOCK_MODE",
      "outputs": [
        {
          "internalType": "string",
          "name": "",
          "type": "string"
        }
      ],
      "stateMutability": "view",
      "type": "function"
    },
    {
      "inputs": [],
      "name": "DOMAIN_SEPARATOR",
      "outputs": [
        {
          "internalType": "bytes32",
          "name": "",
          "type": "bytes32"
        }
      ],
      "stateMutability": "view",
      "type": "function"
    },
    {
      "inputs": [
        {
          "internalType": "address",
          "name": "owner",
          "type": "address"
        },
        {
          "internalType": "address",
          "name": "spender",
          "type": "address"
        }
      ],
      "name": "allowance",
      "outputs": [
        {
          "internalType": "uint256",
          "name": "",
          "type": "uint256"
        }
      ],
      "stateMutability": "view",
      "type": "function"
    },
    {
      "inputs": [
        {
          "internalType": "address",
          "name": "spender",
          "type": "address"
        },
        {
          "internalType": "uint256",
          "name": "amount",
          "type": "uint256"
        }
      ],
      "name": "approve",
      "outputs": [
        {
          "internalType": "bool",
          "name": "",
          "type": "bool"
        }
      ],
      "stateMutability": "nonpayable",
      "type": "function"
    },
    {
      "inputs": [
        {
          "internalType": "address",
          "name": "account",
          "type": "address"
        }
      ],
      "name": "balanceOf",
      "outputs": [
        {
          "internalType": "uint256",
          "name": "",
          "type": "uint256"
        }
      ],
      "stateMutability": "view",
      "type": "function"
    },
    {
      "inputs": [
        {
          "internalType": "address",
          "name": "account",
          "type": "address"
        },
        {
          "internalType": "uint256",
          "name": "snapshotId",
          "type": "uint256"
        }
      ],
      "name": "balanceOfAt",
      "outputs": [
        {
          "internalType": "uint256",
          "name": "",
          "type": "uint256"
        }
      ],
      "stateMutability": "view",
      "type": "function"
    },
    {
      "inputs": [
        {
          "internalType": "uint256",
          "name": "amount",
          "type": "uint256"
        }
      ],
      "name": "burn",
      "outputs": [],
      "stateMutability": "nonpayable",
      "type": "function"
    },
    {
      "inputs": [
        {
          "internalType": "address",
          "name": "account",
          "type": "address"
        },
        {
          "internalType": "uint256",
          "name": "amount",
          "type": "uint256"
        }
      ],
      "name": "burnFrom",
      "outputs": [],
      "stateMutability": "nonpayable",
      "type": "function"
    },
    {
      "inputs": [
        {
          "internalType": "address",
          "name": "account",
          "type": "address"
        },
        {
          "internalType": "uint32",
          "name": "pos",
          "type": "uint32"
        }
      ],
      "name": "checkpoints",
      "outputs": [
        {
          "components": [
            {
              "internalType": "uint32",
              "name": "fromBlock",
              "type": "uint32"
            },
            {
              "internalType": "uint224",
              "name": "votes",
              "type": "uint224"
            }
          ],
          "internalType": "struct ERC20Votes.Checkpoint",
          "name": "",
          "type": "tuple"
        }
      ],
      "stateMutability": "view",
      "type": "function"
    },
    {
      "inputs": [],
      "name": "clock",
      "outputs": [
        {
          "internalType": "uint48",
          "name": "",
          "type": "uint48"
        }
      ],
      "stateMutability": "view",
      "type": "function"
    },
    {
      "inputs": [],
      "name": "decimals",
      "outputs": [
        {
          "internalType": "uint8",
          "name": "",
          "type": "uint8"
        }
      ],
      "stateMutability": "view",
      "type": "function"
    },
    {
      "inputs": [
        {
          "internalType": "address",
          "name": "spender",
          "type": "address"
        },
        {
          "internalType": "uint256",
          "name": "subtractedValue",
          "type": "uint256"
        }
      ],
      "name": "decreaseAllowance",
      "outputs": [
        {
          "internalType": "bool",
          "name": "",
          "type": "bool"
        }
      ],
      "stateMutability": "nonpayable",
      "type": "function"
    },
    {
      "inputs": [
        {
          "internalType": "address",
          "name": "delegatee",
          "type": "address"
        }
      ],
      "name": "delegate",
      "outputs": [],
      "stateMutability": "nonpayable",
      "type": "function"
    },
    {
      "inputs": [
        {
          "internalType": "address",
          "name": "delegatee",
          "type": "address"
        },
        {
          "internalType": "uint256",
          "name": "nonce",
          "type": "uint256"
        },
        {
          "internalType": "uint256",
          "name": "expiry",
          "type": "uint256"
        },
        {
          "internalType": "uint8",
          "name": "v",
          "type": "uint8"
        },
        {
          "internalType": "bytes32",
          "name": "r",
          "type": "bytes32"
        },
        {
          "internalType": "bytes32",
          "name": "s",
          "type": "bytes32"
        }
      ],
      "name": "delegateBySig",
      "outputs": [],
      "stateMutability": "nonpayable",
      "type": "function"
    },
    {
      "inputs": [
        {
          "internalType": "address",
          "name": "account",
          "type": "address"
        }
      ],
      "name": "delegates",
      "outputs": [
        {
          "internalType": "address",
          "name": "",
          "type": "address"
        }
      ],
      "stateMutability": "view",
      "type": "function"
    },
    {
      "inputs": [],
      "name": "eip712Domain",
      "outputs": [
        {
          "internalType": "bytes1",
          "name": "fields",
          "type": "bytes1"
        },
        {
          "internalType": "string",
          "name": "name",
          "type": "string"
        },
        {
          "internalType": "string",
          "name": "version",
          "type": "string"
        },
        {
          "internalType": "uint256",
          "name": "chainId",
          "type": "uint256"
        },
        {
          "internalType": "address",
          "name": "verifyingContract",
          "type": "address"
        },
        {
          "internalType": "bytes32",
          "name": "salt",
          "type": "bytes32"
        },
        {
          "internalType": "uint256[]",
          "name": "extensions",
          "type": "uint256[]"
        }
      ],
      "stateMutability": "view",
      "type": "function"
    },
    {
      "inputs": [
        {
          "internalType": "uint256",
          "name": "timepoint",
          "type": "uint256"
        }
      ],
      "name": "getPastTotalSupply",
      "outputs": [
        {
          "internalType": "uint256",
          "name": "",
          "type": "uint256"
        }
      ],
      "stateMutability": "view",
      "type": "function"
    },
    {
      "inputs": [
        {
          "internalType": "address",
          "name": "account",
          "type": "address"
        },
        {
          "internalType": "uint256",
          "name": "timepoint",
          "type": "uint256"
        }
      ],
      "name": "getPastVotes",
      "outputs": [
        {
          "internalType": "uint256",
          "name": "",
          "type": "uint256"
        }
      ],
      "stateMutability": "view",
      "type": "function"
    },
    {
      "inputs": [
        {
          "internalType": "address",
          "name": "account",
          "type": "address"
        }
      ],
      "name": "getVotes",
      "outputs": [
        {
          "internalType": "uint256",
          "name": "",
          "type": "uint256"
        }
      ],
      "stateMutability": "view",
      "type": "function"
    },
    {
      "inputs": [
        {
          "internalType": "address",
          "name": "spender",
          "type": "address"
        },
        {
          "internalType": "uint256",
          "name": "addedValue",
          "type": "uint256"
        }
      ],
      "name": "increaseAllowance",
      "outputs": [
        {
          "internalType": "bool",
          "name": "",
          "type": "bool"
        }
      ],
      "stateMutability": "nonpayable",
      "type": "function"
    },
    {
      "inputs": [
        {
          "internalType": "address",
          "name": "to",
          "type": "address"
        },
        {
          "internalType": "uint256",
          "name": "amount",
          "type": "uint256"
        }
      ],
      "name": "mint",
      "outputs": [],
      "stateMutability": "nonpayable",
      "type": "function"
    },
    {
      "inputs": [],
      "name": "name",
      "outputs": [
        {
          "internalType": "string",
          "name": "",
          "type": "string"
        }
      ],
      "stateMutability": "view",
      "type": "function"
    },
    {
      "inputs": [
        {
          "internalType": "address",
          "name": "owner",
          "type": "address"
        }
      ],
      "name": "nonces",
      "outputs": [
        {
          "internalType": "uint256",
          "name": "",
          "type": "uint256"
        }
      ],
      "stateMutability": "view",
      "type": "function"
    },
    {
      "inputs": [
        {
          "internalType": "address",
          "name": "account",
          "type": "address"
        }
      ],
      "name": "numCheckpoints",
      "outputs": [
        {
          "internalType": "uint32",
          "name": "",
          "type": "uint32"
        }
      ],
      "stateMutability": "view",
      "type": "function"
    },
    {
      "inputs": [],
      "name": "owner",
      "outputs": [
        {
          "internalType": "address",
          "name": "",
          "type": "address"
        }
      ],
      "stateMutability": "view",
      "type": "function"
    },
    {
      "inputs": [],
      "name": "pause",
      "outputs": [],
      "stateMutability": "nonpayable",
      "type": "function"
    },
    {
      "inputs": [],
      "name": "paused",
      "outputs": [
        {
          "internalType": "bool",
          "name": "",
          "type": "bool"
        }
      ],
      "stateMutability": "view",
      "type": "function"
    },
    {
      "inputs": [
        {
          "internalType": "address",
          "name": "owner",
          "type": "address"
        },
        {
          "internalType": "address",
          "name": "spender",
          "type": "address"
        },
        {
          "internalType": "uint256",
          "name": "value",
          "type": "uint256"
        },
        {
          "internalType": "uint256",
          "name": "deadline",
          "type": "uint256"
        },
        {
          "internalType": "uint8",
          "name": "v",
          "type": "uint8"
        },
        {
          "internalType": "bytes32",
          "name": "r",
          "type": "bytes32"
        },
        {
          "internalType": "bytes32",
          "name": "s",
          "type": "bytes32"
        }
      ],
      "name": "permit",
      "outputs": [],
      "stateMutability": "nonpayable",
      "type": "function"
    },
    {
      "inputs": [],
      "name": "renounceOwnership",
      "outputs": [],
      "stateMutability": "nonpayable",
      "type": "function"
    },
    {
      "inputs": [],
      "name": "snapshot",
      "outputs": [],
      "stateMutability": "nonpayable",
      "type": "function"
    },
    {
      "inputs": [],
      "name": "symbol",
      "outputs": [
        {
          "internalType": "string",
          "name": "",
          "type": "string"
        }
      ],
      "stateMutability": "view",
      "type": "function"
    },
    {
      "inputs": [],
      "name": "totalSupply",
      "outputs": [
        {
          "internalType": "uint256",
          "name": "",
          "type": "uint256"
        }
      ],
      "stateMutability": "view",
      "type": "function"
    },
    {
      "inputs": [
        {
          "internalType": "uint256",
          "name": "snapshotId",
          "type": "uint256"
        }
      ],
      "name": "totalSupplyAt",
      "outputs": [
        {
          "internalType": "uint256",
          "name": "",
          "type": "uint256"
        }
      ],
      "stateMutability": "view",
      "type": "function"
    },
    {
      "inputs": [
        {
          "internalType": "address",
          "name": "to",
          "type": "address"
        },
        {
          "internalType": "uint256",
          "name": "amount",
          "type": "uint256"
        }
      ],
      "name": "transfer",
      "outputs": [
        {
          "internalType": "bool",
          "name": "",
          "type": "bool"
        }
      ],
      "stateMutability": "nonpayable",
      "type": "function"
    },
    {
      "inputs": [
        {
          "internalType": "address",
          "name": "from",
          "type": "address"
        },
        {
          "internalType": "address",
          "name": "to",
          "type": "address"
        },
        {
          "internalType": "uint256",
          "name": "amount",
          "type": "uint256"
        }
      ],
      "name": "transferFrom",
      "outputs": [
        {
          "internalType": "bool",
          "name": "",
          "type": "bool"
        }
      ],
      "stateMutability": "nonpayable",
      "type": "function"
    },
    {
      "inputs": [
        {
          "internalType": "address",
          "name": "newOwner",
          "type": "address"
        }
      ],
      "name": "transferOwnership",
      "outputs": [],
      "stateMutability": "nonpayable",
      "type": "function"
    },
    {
      "inputs": [],
      "name": "unpause",
      "outputs": [],
      "stateMutability": "nonpayable",
      "type": "function"
    }
  ],
  "transactionHash": "0x6812af6220c246a541b4ca047f582987a6517b9c49549b5449b56dbe9c1a5f3a",
  "args": [],
  "numDeployments": 8,
  "solcInputHash": "1df1e5248ce6cfac956a4b387ea3e358",
  "bytecode": "0x6101606040523462000211576200001562000283565b6200001f62000283565b906200002a62000259565b91602092634d55534560e01b84820152620000446200026e565b603160f81b858201908152835190939192916001600160401b0382116200020b576200007d8262000077600354620002ee565b6200032b565b8690601f83116001146200017b57620000b7939291600091836200016f575b50508160011b916000199060031b1c1916176003556200048f565b620000c23362000582565b6009805460ff60a01b19169055620000da83620005cb565b92610120938452620000ec82620006de565b94610140958652815191012060e052519020916101009283524660a052620001136200088f565b6080523060c052620001253362000961565b6040519161384a9384620012fb853960805184612d3f015260a05184612dfa015260c05184612d10015260e05184612d8e01525183612db401525182610eb801525181610ee10152f35b0151905038806200009c565b6003600052601f19831691907fc2575a0e9e593c00f959f8c92f12db2869c3395a3b0502d05e2516446f71f85b9260005b8a828210620001f4575050916001939185620000b797969410620001da575b505050811b016003556200048f565b015160001960f88460031b161c19169055388080620001cb565b6001859682939686015181550195019301620001ac565b62000216565b600080fd5b634e487b7160e01b600052604160045260246000fd5b604081019081106001600160401b038211176200020b57604052565b6040519062000257826200022c565b565b6040519062000268826200022c565b60048252565b604051906200027d826200022c565b60018252565b60405190606082016001600160401b038111838210176200020b5760405260228252616d7960f01b6040837f4d6563656e61746520556e6976657273616c20537570706f72742045636f6e6f60208201520152565b634e487b7160e01b600052601160045260246000fd5b90600182811c9216801562000320575b60208310146200030a57565b634e487b7160e01b600052602260045260246000fd5b91607f1691620002fe565b601f811162000338575050565b6000906003825260208220906020601f850160051c8301941062000379575b601f0160051c01915b8281106200036d57505050565b81815560010162000360565b909250829062000357565b601f811162000391575050565b6000906004825260208220906020601f850160051c83019410620003d2575b601f0160051c01915b828110620003c657505050565b818155600101620003b9565b9092508290620003b0565b601f8111620003ea575050565b600090600a825260208220906020601f850160051c830194106200042b575b601f0160051c01915b8281106200041f57505050565b81815560010162000412565b909250829062000409565b601f811162000443575050565b600090600b825260208220906020601f850160051c8301941062000484575b601f0160051c01915b8281106200047857505050565b8181556001016200046b565b909250829062000462565b80519091906001600160401b0381116200020b57620004bb81620004b5600454620002ee565b62000384565b602080601f8311600114620004fa5750819293600092620004ee575b50508160011b916000199060031b1c191617600455565b015190503880620004d7565b6004600052601f198316949091907f8a35acfbc15ff81a39ae7d344fd709f28e8600b4aa8c65c6b64bfe7fe36bd19b926000905b878210620005695750508360019596106200054f575b505050811b01600455565b015160001960f88460031b161c1916905538808062000544565b806001859682949686015181550195019301906200052e565b600980546001600160a01b039283166001600160a01b0319821681179092559091167f8be0079c531659141344cd1fd0a4f28419497f9722a3daafe3b4186f6b6457e0600080a3565b9081516020808210600014620005ec57505090620005e99062000812565b90565b6001600160401b0382116200020b5762000613826200060d600a54620002ee565b620003dd565b80601f831160011462000653575081929360009262000647575b50508160011b916000199060031b1c191617600a5560ff90565b0151905038806200062d565b600a600052601f198316949091907fc65a7bb8d6351c1cf70c95a316cc6a92839c986682d98bc35f958f4883f9d2a8926000905b878210620006c5575050836001959610620006ab575b505050811b01600a5560ff90565b015160001960f88460031b161c191690553880806200069d565b8060018596829496860151815501950193019062000687565b9081516020808210600014620006fc57505090620005e99062000812565b6001600160401b0382116200020b5762000723826200071d600b54620002ee565b62000436565b80601f831160011462000763575081929360009262000757575b50508160011b916000199060031b1c191617600b5560ff90565b0151905038806200073d565b600b600052601f198316949091907f0175b7a638427703f0dbe7bb9bbf987a2551717b34e79f33b5b1008d1fa01db9926000905b878210620007d5575050836001959610620007bb575b505050811b01600b5560ff90565b015160001960f88460031b161c19169055388080620007ad565b8060018596829496860151815501950193019062000797565b60208151910151906020811062000803575090565b6000199060200360031b1b1690565b601f8151116200082d576200082781620007ee565b90511790565b6040519063305a27a960e01b82528160208060048301528251908160248401526000935b82851062000875575050604492506000838284010152601f80199101168101030190fd5b848101820151868601604401529381019385935062000851565b60e051610100516040519060208201927f8b73c3c69bb8fe3d512ecc4cf759cc79239f7b179b0ffacaa9a75d522b39400f8452604083015260608201524660808201523060a082015260a0815260c0810181811060018060401b038211176200020b5760405251902090565b156200090357565b60405162461bcd60e51b815260206004820152603060248201527f4552433230566f7465733a20746f74616c20737570706c79207269736b73206f60448201526f766572666c6f77696e6720766f74657360801b6064820152608490fd5b6001600160a01b03811690811562000aca5760ff60095460a01c1662000a92578162000a499260005260056020526040600020600060205260406000205460085480620009ae84620011a9565b1062000a6f575b505050620009c2620010a5565b620009d8620009d360025462000b0f565b600255565b6001600160a01b038216600090815260208190526040902069152d02c7e14af6800000815401905560007fddf252ad1be2c89b69c2b068fc378daa952ba7f163c4a11628f55a4df523b3ef6040518062000a40819069152d02c7e14af6800000602083019252565b0390a3620011d0565b60025462000a61906001600160e01b031015620008fb565b62000a6b62000c7e565b5050565b8262000a8260019262000a89956200114c565b016200114c565b388080620009b5565b60405162461bcd60e51b815260206004820152601060248201526f14185d5cd8589b194e881c185d5cd95960821b6044820152606490fd5b60405162461bcd60e51b815260206004820152601f60248201527f45524332303a206d696e7420746f20746865207a65726f2061646472657373006044820152606490fd5b9069152d02c7e14af6800000820180921162000b2757565b620002d8565b604080519192919081016001600160401b038111828210176200020b57604052602081935463ffffffff81168352811c910152565b60065481101562000b7e57600660005260206000200190600090565b634e487b7160e01b600052603260045260246000fd5b805482101562000b7e5760005260206000200190600090565b60105490680100000000000000008210156200020b57600182018060105582101562000b7e576010600052805160209182015190911b63ffffffff191663ffffffff91909116177f1b6847dc741a1b0cd08d278845f9d819d87b734759afb55fe2de5cb82a9ae67290910155565b8054680100000000000000008110156200020b5762000c409160018201815562000b94565b62000c6857815160209283015190921b63ffffffff191663ffffffff92909216919091179055565b634e487b7160e01b600052600060045260246000fd5b60105490811590811562000db45762000c9662000248565b6000815260006020820152925b602084015162000cc3906001600160e01b03165b6001600160e01b031690565b9362000ccf85620012c9565b9315908162000d8d575b501562000d2557620002579062000d0e62000cf48562000f6d565b60106000529160008051602062004b458339815191520190565b9063ffffffff82549181199060201b169116179055565b506200025762000d4e62000d4862000d3d4362000fd7565b65ffffffffffff1690565b6200103f565b62000d8762000d5d8562000f6d565b62000d7762000d6b62000248565b63ffffffff9094168452565b6001600160e01b03166020830152565b62000bad565b5163ffffffff16905063ffffffff62000daa62000d3d4362000fd7565b9116143862000cd9565b601060005262000ddb60008051602062004b45833981519152840162000b2d565b62000b2d565b9262000ca3565b805491821591821562000ee25762000df962000248565b6000815260006020820152935b602085015162000e1f906001600160e01b031662000cb7565b9462000e2b86620012e1565b9415908162000ebb575b501562000e625762000d0e620002579262000e508662000f6d565b92600019019060005260206000200190565b50620002579062000e7b62000d4862000d3d4362000fd7565b9062000eb562000e8b8662000f6d565b62000ea562000e9962000248565b63ffffffff9095168552565b6001600160e01b03166020840152565b62000c1b565b5163ffffffff16905063ffffffff62000ed862000d3d4362000fd7565b9116143862000e35565b62000efc62000dd560001986018360005260206000200190565b9362000e06565b805491821591821562000f4c5762000f1a62000248565b6000815260006020820152935b602085015162000f40906001600160e01b031662000cb7565b9462000e2b86620012c9565b62000f6662000dd560001986018360005260206000200190565b9362000f27565b6001600160e01b039081811162000f82571690565b60405162461bcd60e51b815260206004820152602760248201527f53616665436173743a2076616c756520646f65736e27742066697420696e20326044820152663234206269747360c81b6064820152608490fd5b65ffffffffffff9081811162000feb571690565b60405162461bcd60e51b815260206004820152602660248201527f53616665436173743a2076616c756520646f65736e27742066697420696e203460448201526538206269747360d01b6064820152608490fd5b63ffffffff9081811162001051571690565b60405162461bcd60e51b815260206004820152602660248201527f53616665436173743a2076616c756520646f65736e27742066697420696e203360448201526532206269747360d01b6064820152608490fd5b60025460085480620010b662001178565b10620010c0575050565b6006546801000000000000000091828210156200020b57620010ed82600162001106940160065562000b62565b90919082549060031b91821b91600019901b1916179055565b600754908110156200020b57600181018060075581101562000b7e5760076000527fa66cc928b5edb82af9bd49922954155ab7b0942694bea4ce44661d9a8736c6880155565b90815491680100000000000000008310156200020b5782620010ed916001620002579501815562000b94565b60065480620011875750600090565b600019810190811162000b27576200119f9062000b62565b90549060031b1c90565b805480620011b8575050600090565b600019810190811162000b27576200119f9162000b94565b600e6020527fe710864318d4a32f37d6ce54cb3fadbef648dd12d8dbdf53973564d56b7f881c546001600160a01b0391821660009081526040812054831692909116908183141580620012c0575b6200122857505050565b8162001281575b5050806200123a5750565b6001600160a01b0381166000908152600f6020526040902060008051602062004b65833981519152906200126e9062000f03565b60408051928352602083019190915290a2565b620012a76040828460008051602062004b658339815191529452600f6020522062000de2565b60408051928352602083019190915290a238806200122f565b5060016200121e565b69152d02c7e14af6800000810180911162000b275790565b69152d02c7e14af67fffff19810190811162000b27579056fe6080604052600436101561001257600080fd5b60003560e01c806306fdde0314610267578063095ea7b31461026257806318160ddd1461025d57806323b872dd14610258578063313ce567146102535780633644e5151461024e57806339509351146102495780633a46b1a8146102445780633f4ba83a1461023f57806340c10f191461023a57806342966c68146102355780634bf5d7e9146102305780634ee2cd7e1461022b578063587cde1e146102265780635c19a95c146102215780635c975abb1461021c5780636fcfff451461021757806370a0823114610212578063715018a61461020d57806379cc6790146102085780637ecebe00146102035780638456cb59146101fe57806384b0196e146101f95780638da5cb5b146101f45780638e539e8c146101ef57806391ddadf4146101ea57806395d89b41146101e55780639711715a146101e0578063981b24d0146101db5780639ab24eb0146101d6578063a457c2d7146101d1578063a9059cbb146101cc578063c3cda520146101c7578063d505accf146101c2578063dd62ed3e146101bd578063f1127ed8146101b85763f2fde38b146101b357600080fd5b611819565b611775565b6116fe565b611593565b61142c565b6113e6565b611307565b611298565b611260565b611211565b61116a565b61113e565b610fe5565b610fb1565b610e9d565b610e11565b610dca565b610ccf565b610c4e565b610c07565b610bb2565b610b8c565b610b6a565b610b22565b610ab8565b610a07565b6108c5565b61078c565b6106cf565b61055e565b6104f2565b6104cf565b6104b3565b61047b565b61045d565b61042c565b6102de565b919082519283825260005b8481106102b65750507fffffffffffffffffffffffffffffffffffffffffffffffffffffffffffffffe0601f8460006020809697860101520116010190565b602081830181015184830182015201610277565b9060206102db92818152019061026c565b90565b346103e1576000806003193601126103de5760405190806003546103018161197b565b80855291600191808316908115610396575060011461033b575b6103378561032b81870382611a56565b604051918291826102ca565b0390f35b9250600383527fc2575a0e9e593c00f959f8c92f12db2869c3395a3b0502d05e2516446f71f85b5b82841061037e57505050810160200161032b8261033761031b565b80546020858701810191909152909301928101610363565b8695506103379693506020925061032b9491507fffffffffffffffffffffffffffffffffffffffffffffffffffffffffffffff001682840152151560051b820101929361031b565b80fd5b600080fd5b6004359073ffffffffffffffffffffffffffffffffffffffff821682036103e157565b6024359073ffffffffffffffffffffffffffffffffffffffff821682036103e157565b346103e15760406003193601126103e1576104526104486103e6565b6024359033611d31565b602060405160018152f35b346103e15760006003193601126103e1576020600254604051908152f35b346103e15760606003193601126103e1576104526104976103e6565b61049f610409565b604435916104ae833383611ebc565b611bc3565b346103e15760006003193601126103e157602060405160128152f35b346103e15760006003193601126103e15760206104ea612cf9565b604051908152f35b346103e15760406003193601126103e15761050b6103e6565b3360005260016020526105428160406000209073ffffffffffffffffffffffffffffffffffffffff16600052602052604060002090565b546024358101809111610559576104529133611d31565b611a97565b346103e15760406003193601126103e1576105776103e6565b73ffffffffffffffffffffffffffffffffffffffff602435916105ab65ffffffffffff6105a34361327d565b1684106121bb565b16600052600f60205260406000208054916000836005811161067e575b50905b83821061062d57505081610606575050602060005b7bffffffffffffffffffffffffffffffffffffffffffffffffffffffff60405191168152f35b61062161062891600019602094019060005260206000200190565b5460201c90565b6105e0565b90926106398185613083565b908263ffffffff61065e610654858860005260206000200190565b5463ffffffff1690565b16111561066e5750925b906105cb565b935061067990611ac6565b610668565b8061068e61069492969396613098565b90612215565b908263ffffffff6106af610654858860005260206000200190565b1611156106bf5750925b386105c8565b93506106ca90611ac6565b6106b9565b346103e15760006003193601126103e1576106e8611916565b60095460ff8160a01c1615610748577fffffffffffffffffffffff00ffffffffffffffffffffffffffffffffffffffff166009557f5db9ee0a495bf2e6ff9c91a7834c1ba4fdd244a5e8aa4e537bd38aeae4b073aa6020604051338152a1005b606460405162461bcd60e51b815260206004820152601460248201527f5061757361626c653a206e6f74207061757365640000000000000000000000006044820152fd5b346103e15760406003193601126103e1576107a56103e6565b60243573ffffffffffffffffffffffffffffffffffffffff821691821561088157818161087f946107d8610850946133c8565b6107ec6107e784600254611ad4565b600255565b6108168273ffffffffffffffffffffffffffffffffffffffff166000526000602052604060002090565b8054840190556040518381526000907fddf252ad1be2c89b69c2b068fc378daa952ba7f163c4a11628f55a4df523b3ef90602090a3613640565b61087a7bffffffffffffffffffffffffffffffffffffffffffffffffffffffff6002541115613718565b6126b5565b005b606460405162461bcd60e51b815260206004820152601f60248201527f45524332303a206d696e7420746f20746865207a65726f2061646472657373006044820152fd5b346103e15760206003193601126103e157600435331561099d5761087f906108ec336133e1565b806109173373ffffffffffffffffffffffffffffffffffffffff166000526000602052604060002090565b5461092482821015613789565b0361094f3373ffffffffffffffffffffffffffffffffffffffff166000526000602052604060002090565b5561095d8160025403600255565b60405181815260009033907fddf252ad1be2c89b69c2b068fc378daa952ba7f163c4a11628f55a4df523b3ef90602090a36109988133613698565b612813565b608460405162461bcd60e51b815260206004820152602160248201527f45524332303a206275726e2066726f6d20746865207a65726f2061646472657360448201527f73000000000000000000000000000000000000000000000000000000000000006064820152fd5b346103e15760006003193601126103e1574365ffffffffffff610a294361327d565b1603610a7457610337604051610a3e816119fd565b601d81527f6d6f64653d626c6f636b6e756d6265722666726f6d3d64656661756c740000006020820152604051918291826102ca565b606460405162461bcd60e51b815260206004820152601d60248201527f4552433230566f7465733a2062726f6b656e20636c6f636b206d6f64650000006044820152fd5b346103e15760406003193601126103e157602073ffffffffffffffffffffffffffffffffffffffff610ae86103e6565b16600081815260058352610b0160408220602435612150565b929015610b12575050604051908152f35b60409250815280835220546104ea565b346103e15760206003193601126103e157602073ffffffffffffffffffffffffffffffffffffffff80610b536103e6565b16600052600e825260406000205416604051908152f35b346103e15760206003193601126103e15761087f610b866103e6565b3361226d565b346103e15760006003193601126103e157602060ff60095460a01c166040519015158152f35b346103e15760206003193601126103e15773ffffffffffffffffffffffffffffffffffffffff610be06103e6565b16600052600f6020526020610bf96040600020546132fa565b63ffffffff60405191168152f35b346103e15760206003193601126103e15773ffffffffffffffffffffffffffffffffffffffff610c356103e6565b1660005260006020526020604060002054604051908152f35b346103e1576000806003193601126103de57610c68611916565b8073ffffffffffffffffffffffffffffffffffffffff6009547fffffffffffffffffffffffff00000000000000000000000000000000000000008116600955167f8be0079c531659141344cd1fd0a4f28419497f9722a3daafe3b4186f6b6457e08280a380f35b346103e15760406003193601126103e157610ce86103e6565b602435610cf6813384611ebc565b73ffffffffffffffffffffffffffffffffffffffff821691821561099d578181600061087f95610d28610998956133e1565b83610d538473ffffffffffffffffffffffffffffffffffffffff166000526000602052604060002090565b54610d6082821015613789565b03610d8b8473ffffffffffffffffffffffffffffffffffffffff166000526000602052604060002090565b55610d998460025403600255565b6040518481527fddf252ad1be2c89b69c2b068fc378daa952ba7f163c4a11628f55a4df523b3ef90602090a3613698565b346103e15760206003193601126103e15773ffffffffffffffffffffffffffffffffffffffff610df86103e6565b16600052600c6020526020604060002054604051908152f35b346103e15760006003193601126103e157610e2a611916565b610e32613375565b740100000000000000000000000000000000000000007fffffffffffffffffffffff00ffffffffffffffffffffffffffffffffffffffff60095416176009557f62e78cea01bee320cd4e420270b5ea74000d11b0c9f74754ebdbfc544b05a2586020604051338152a1005b346103e1576000806003193601126103de57610f6390610edc7f0000000000000000000000000000000000000000000000000000000000000000612e61565b610f057f0000000000000000000000000000000000000000000000000000000000000000612f90565b9160405191610f1383611a1e565b8183526040519485947f0f000000000000000000000000000000000000000000000000000000000000008652610f5560209360e08589015260e088019061026c565b90868203604088015261026c565b904660608601523060808601528260a086015284820360c08601528080855193848152019401925b828110610f9a57505050500390f35b835185528695509381019392810192600101610f8b565b346103e15760006003193601126103e157602073ffffffffffffffffffffffffffffffffffffffff60095416604051908152f35b346103e15760206003193601126103e15760043561101465ffffffffffff61100c4361327d565b1682106121bb565b60105490600082600581116110d7575b50905b828210611074578280611041575060405160008152602090f35b6010600052602090610628907f1b6847dc741a1b0cd08d278845f9d819d87b734759afb55fe2de5cb82a9ae67101610621565b90916110808184613083565b6010600052908263ffffffff6110b77f1b6847dc741a1b0cd08d278845f9d819d87b734759afb55fe2de5cb82a9ae6728501610654565b1611156110c75750915b90611027565b92506110d290611ac6565b6110c1565b8061068e6110e792959395613098565b6010600052908263ffffffff61111e7f1b6847dc741a1b0cd08d278845f9d819d87b734759afb55fe2de5cb82a9ae6728501610654565b16111561112e5750915b38611024565b925061113990611ac6565b611128565b346103e15760006003193601126103e157602061115a4361327d565b65ffffffffffff60405191168152f35b346103e1576000806003193601126103de57604051908060045461118d8161197b565b8085529160019180831690811561039657506001146111b6576103378561032b81870382611a56565b9250600483527f8a35acfbc15ff81a39ae7d344fd709f28e8600b4aa8c65c6b64bfe7fe36bd19b5b8284106111f957505050810160200161032b8261033761031b565b805460208587018101919091529093019281016111de565b346103e15760006003193601126103e15761122a611916565b7f8030e83b04d87bef53480e26263266d6ca66863aa8506aca6f2559d18aa1cb67602060016008540180600855604051908152a1005b346103e15760206003193601126103e15761127c6004356120c6565b901561128d57602090604051908152f35b5060206002546104ea565b346103e15760206003193601126103e15773ffffffffffffffffffffffffffffffffffffffff6112c66103e6565b16600052600f6020526040600020805480156000146112ed57505060405160008152602090f35b6020916000196112fe9201906120ae565b5054811c6105e0565b346103e15760406003193601126103e1576113206103e6565b6024359033600052600160205261135b8160406000209073ffffffffffffffffffffffffffffffffffffffff16600052602052604060002090565b549180831061137c5761137092039033611d31565b60405160018152602090f35b608460405162461bcd60e51b815260206004820152602560248201527f45524332303a2064656372656173656420616c6c6f77616e63652062656c6f7760448201527f207a65726f0000000000000000000000000000000000000000000000000000006064820152fd5b346103e15760406003193601126103e1576104526114026103e6565b6024359033611bc3565b6064359060ff821682036103e157565b6084359060ff821682036103e157565b346103e15760c06003193601126103e1576114456103e6565b6044359060243561145461140c565b9280421161154f5761151061154a9161087f95604051906114f8826114cc6020820195898b8860609194939273ffffffffffffffffffffffffffffffffffffffff60808301967fe48329057bfd03d55e49b547132e39cffd9c1820ad7b9d4c5307691425d15adf845216602083015260408201520152565b037fffffffffffffffffffffffffffffffffffffffffffffffffffffffffffffffe08101845283611a56565b61150b60a4359360843593519020612e20565b612ad2565b916115448373ffffffffffffffffffffffffffffffffffffffff16600052600c602052604060002090815491600183019055565b14612222565b61226d565b606460405162461bcd60e51b815260206004820152601d60248201527f4552433230566f7465733a207369676e617475726520657870697265640000006044820152fd5b346103e15760e06003193601126103e1576115ac6103e6565b6115b4610409565b60443590606435926115c461141c565b938042116116ba576116956116b5916114cc61087f976116826116108773ffffffffffffffffffffffffffffffffffffffff16600052600c602052604060002090815491600183019055565b9360405193849160208301968c8c8c8a91959493909260a09360c08401977f6e71edae12b1b97f4d1f60370fef10105fa2faae0126114a169c64845d6126c9855273ffffffffffffffffffffffffffffffffffffffff8092166020860152166040840152606083015260808201520152565b61150b60c4359360a43593519020612e20565b73ffffffffffffffffffffffffffffffffffffffff808416911614611f7b565b611d31565b606460405162461bcd60e51b815260206004820152601d60248201527f45524332305065726d69743a206578706972656420646561646c696e650000006044820152fd5b346103e15760406003193601126103e157602061176c61171c6103e6565b73ffffffffffffffffffffffffffffffffffffffff611739610409565b91166000526001835260406000209073ffffffffffffffffffffffffffffffffffffffff16600052602052604060002090565b54604051908152f35b346103e15760406003193601126103e15761178e6103e6565b63ffffffff60243581811681036103e15760206118076118017bffffffffffffffffffffffffffffffffffffffffffffffffffffffff9373ffffffffffffffffffffffffffffffffffffffff6040976000868a516117eb816119fd565b828152015216600052600f8452866000206120ae565b50612199565b84519381511684520151166020820152f35b346103e15760206003193601126103e1576118326103e6565b61183a611916565b73ffffffffffffffffffffffffffffffffffffffff8091169081156118ac57600954827fffffffffffffffffffffffff0000000000000000000000000000000000000000821617600955167f8be0079c531659141344cd1fd0a4f28419497f9722a3daafe3b4186f6b6457e0600080a3005b608460405162461bcd60e51b815260206004820152602660248201527f4f776e61626c653a206e6577206f776e657220697320746865207a65726f206160448201527f64647265737300000000000000000000000000000000000000000000000000006064820152fd5b73ffffffffffffffffffffffffffffffffffffffff60095416330361193757565b606460405162461bcd60e51b815260206004820152602060248201527f4f776e61626c653a2063616c6c6572206973206e6f7420746865206f776e65726044820152fd5b90600182811c921680156119c4575b602083101461199557565b7f4e487b7100000000000000000000000000000000000000000000000000000000600052602260045260246000fd5b91607f169161198a565b7f4e487b7100000000000000000000000000000000000000000000000000000000600052604160045260246000fd5b6040810190811067ffffffffffffffff821117611a1957604052565b6119ce565b6020810190811067ffffffffffffffff821117611a1957604052565b60c0810190811067ffffffffffffffff821117611a1957604052565b90601f7fffffffffffffffffffffffffffffffffffffffffffffffffffffffffffffffe0910116810190811067ffffffffffffffff821117611a1957604052565b7f4e487b7100000000000000000000000000000000000000000000000000000000600052601160045260246000fd5b906001820180921161055957565b9190820180921161055957565b15611ae857565b608460405162461bcd60e51b815260206004820152602360248201527f45524332303a207472616e7366657220746f20746865207a65726f206164647260448201527f65737300000000000000000000000000000000000000000000000000000000006064820152fd5b15611b5957565b608460405162461bcd60e51b815260206004820152602660248201527f45524332303a207472616e7366657220616d6f756e742065786365656473206260448201527f616c616e636500000000000000000000000000000000000000000000000000006064820152fd5b919073ffffffffffffffffffffffffffffffffffffffff928381168015611cc757611cc594831690611bf6821515611ae1565b611c008484613497565b84611c2b8473ffffffffffffffffffffffffffffffffffffffff166000526000602052604060002090565b54611c3882821015611b52565b03611c638473ffffffffffffffffffffffffffffffffffffffff166000526000602052604060002090565b55611c8e8473ffffffffffffffffffffffffffffffffffffffff166000526000602052604060002090565b8054860190556040518581527fddf252ad1be2c89b69c2b068fc378daa952ba7f163c4a11628f55a4df523b3ef90602090a36136d7565b565b608460405162461bcd60e51b815260206004820152602560248201527f45524332303a207472616e736665722066726f6d20746865207a65726f20616460448201527f64726573730000000000000000000000000000000000000000000000000000006064820152fd5b9073ffffffffffffffffffffffffffffffffffffffff91828116928315611e53578216938415611de95780611dd37f8c5be1e5ebec7d5bd14f71427d1e84f3dd0314c0f7b2291e5b200ac8c7c3b92594611dae611de49573ffffffffffffffffffffffffffffffffffffffff166000526001602052604060002090565b9073ffffffffffffffffffffffffffffffffffffffff16600052602052604060002090565b556040519081529081906020820190565b0390a3565b608460405162461bcd60e51b815260206004820152602260248201527f45524332303a20617070726f766520746f20746865207a65726f20616464726560448201527f73730000000000000000000000000000000000000000000000000000000000006064820152fd5b608460405162461bcd60e51b8152602060048201526024808201527f45524332303a20617070726f76652066726f6d20746865207a65726f2061646460448201527f72657373000000000000000000000000000000000000000000000000000000006064820152fd5b9073ffffffffffffffffffffffffffffffffffffffff82166000526001602052611f0a8160406000209073ffffffffffffffffffffffffffffffffffffffff16600052602052604060002090565b54926000198403611f1c575b50505050565b808410611f3757611f2e930391611d31565b38808080611f16565b606460405162461bcd60e51b815260206004820152601d60248201527f45524332303a20696e73756666696369656e7420616c6c6f77616e63650000006044820152fd5b15611f8257565b606460405162461bcd60e51b815260206004820152601e60248201527f45524332305065726d69743a20696e76616c6964207369676e617475726500006044820152fd5b15611fcd57565b606460405162461bcd60e51b815260206004820152601d60248201527f4552433230536e617073686f743a206e6f6e6578697374656e742069640000006044820152fd5b6007548110156120485760076000527fa66cc928b5edb82af9bd49922954155ab7b0942694bea4ce44661d9a8736c6880190600090565b7f4e487b7100000000000000000000000000000000000000000000000000000000600052603260045260246000fd5b6006548110156120485760066000527ff652222313e28459528d920b65115c16c04f3efc82aaedc97be59f3f377c0d3f0190600090565b80548210156120485760005260206000200190600090565b801561210c576120e3906120de600854821115611fc6565b612970565b60065481036120f55750600090600090565b6120fe90612011565b90549060031b1c9060019190565b606460405162461bcd60e51b815260206004820152601660248201527f4552433230536e617073686f743a2069642069732030000000000000000000006044820152fd5b801561210c5761216e90612168600854821115611fc6565b82612a43565b81548103612180575050600090600090565b60016120fe92016120ae565b60405190611cc5826119fd565b906040516121a6816119fd565b602081935463ffffffff81168352811c910152565b156121c257565b606460405162461bcd60e51b815260206004820152601960248201527f4552433230566f7465733a20667574757265206c6f6f6b7570000000000000006044820152fd5b90600019820191821161055957565b9190820391821161055957565b1561222957565b606460405162461bcd60e51b815260206004820152601960248201527f4552433230566f7465733a20696e76616c6964206e6f6e6365000000000000006044820152fd5b611cc59173ffffffffffffffffffffffffffffffffffffffff809216600092818452600e602052806040852054168092856020527f3134e8a2e6d97e929a7e54011ea5485d7d196dd5f0ba4d4ef95803e8e3fc257f604087205496600e6020526040812094871694857fffffffffffffffffffffffff000000000000000000000000000000000000000082541617905580a45b919073ffffffffffffffffffffffffffffffffffffffff80821693168381141580612592575b6123305750505050565b806123b0575b5082612343575b80611f16565b7fdec2bacdd2f05b59de34da9b523dff8be42e5e38e818c82fdb0bae774387a724916123926123979273ffffffffffffffffffffffffffffffffffffffff16600052600f602052604060002090565b6128a0565b60408051928352602083019190915290a238808061233d565b80600052600f6020527fdec2bacdd2f05b59de34da9b523dff8be42e5e38e818c82fdb0bae774387a724604060002080548015918260001461256f576123f461218c565b6000815260006020820152915b61244e61242d60208501517bffffffffffffffffffffffffffffffffffffffffffffffffffffffff1690565b7bffffffffffffffffffffffffffffffffffffffffffffffffffffffff1690565b9261245989856137fa565b9415908161254c575b50156124d55761248a6124bf9260001961247b876131ea565b93019060005260206000200190565b9063ffffffff7fffffffffffffffffffffffffffffffffffffffffffffffffffffffff0000000083549260201b169116179055565b604080519182526020820192909252a238612336565b50612547906124f96124f46124e94361327d565b65ffffffffffff1690565b6132fa565b90612542612506866131ea565b61251d61251161218c565b63ffffffff9095168552565b7bffffffffffffffffffffffffffffffffffffffffffffffffffffffff166020840152565b612622565b6124bf565b5163ffffffff16905063ffffffff6125666124e94361327d565b91161438612462565b61258c61258760001984018360005260206000200190565b612199565b91612401565b50821515612326565b6010549068010000000000000000821015611a19576001820180601055821015612048576010600052805160209182015190911b7fffffffffffffffffffffffffffffffffffffffffffffffffffffffff000000001663ffffffff91909116177f1b6847dc741a1b0cd08d278845f9d819d87b734759afb55fe2de5cb82a9ae67290910155565b805468010000000000000000811015611a1957612644916001820181556120ae565b61268657815160209283015190921b7fffffffffffffffffffffffffffffffffffffffffffffffffffffffff000000001663ffffffff92909216919091179055565b7f4e487b7100000000000000000000000000000000000000000000000000000000600052600060045260246000fd5b601054909181159182156127de576126cb61218c565b60008152600060208201525b61270d61270661242d60208401517bffffffffffffffffffffffffffffffffffffffffffffffffffffffff1690565b9586613807565b931590816127bb575b501561275b57611cc59061248a60001961272f866131ea565b920160106000527f1b6847dc741a1b0cd08d278845f9d819d87b734759afb55fe2de5cb82a9ae6720190565b50611cc561276e6124f46124e94361327d565b6127b661277a856131ea565b61279161278561218c565b63ffffffff9094168452565b7bffffffffffffffffffffffffffffffffffffffffffffffffffffffff166020830152565b61259b565b5163ffffffff16905063ffffffff6127d56124e94361327d565b91161438612716565b601060005261280e7f1b6847dc741a1b0cd08d278845f9d819d87b734759afb55fe2de5cb82a9ae6718201612199565b6126d7565b6010549091811591821561286b5761282961218c565b60008152600060208201525b61270d61286461242d60208401517bffffffffffffffffffffffffffffffffffffffffffffffffffffffff1690565b95866137fa565b601060005261289b7f1b6847dc741a1b0cd08d278845f9d819d87b734759afb55fe2de5cb82a9ae6718201612199565b612835565b909181549182159283600014612953576128b861218c565b60008152600060208201525b6128fa6128f361242d60208401517bffffffffffffffffffffffffffffffffffffffffffffffffffffffff1690565b9687613807565b94159081612930575b501561291c5761248a611cc59260001961247b876131ea565b50611cc5906124f96124f46124e94361327d565b5163ffffffff16905063ffffffff61294a6124e94361327d565b91161438612903565b61296b61258760001983018460005260206000200190565b6128c4565b6006908154918215612a3b5760009081935b8085106129e55750505081151590816129a5575b50156102db576102db90612206565b90506129dd6129b383612206565b60066000527ff652222313e28459528d920b65115c16c04f3efc82aaedc97be59f3f377c0d3f0190565b541438612996565b6129ef8186613083565b908183855285817ff652222313e28459528d920b65115c16c04f3efc82aaedc97be59f3f377c0d3f015411600014612a28575050612982565b909550612a359150611ac6565b93612982565b505050600090565b8054918215612a3b57600080935b808510612a995750508215159182612a74575b5050156102db576102db90612206565b612a90919250612a8384612206565b9060005260206000200190565b54143880612a64565b612aa38186613083565b9081858452848160208620015411600014612abf575050612a51565b909550612acc9150611ac6565b93612a51565b916102db9391612ae193612c5d565b919091612b22565b60051115612af357565b7f4e487b7100000000000000000000000000000000000000000000000000000000600052602160045260246000fd5b612b2b81612ae9565b80612b335750565b612b3c81612ae9565b60018103612b895760405162461bcd60e51b815260206004820152601860248201527f45434453413a20696e76616c6964207369676e617475726500000000000000006044820152606490fd5b612b9281612ae9565b60028103612bdf5760405162461bcd60e51b815260206004820152601f60248201527f45434453413a20696e76616c6964207369676e6174757265206c656e677468006044820152606490fd5b80612beb600392612ae9565b14612bf257565b60405162461bcd60e51b815260206004820152602260248201527f45434453413a20696e76616c6964207369676e6174757265202773272076616c60448201527f75650000000000000000000000000000000000000000000000000000000000006064820152608490fd5b9291907f7fffffffffffffffffffffffffffffff5d576e7357a4501ddfe92f46681b20a08311612ced5791608094939160ff602094604051948552168484015260408301526060820152600093849182805260015afa15612ce057815173ffffffffffffffffffffffffffffffffffffffff811615612cda579190565b50600190565b50604051903d90823e3d90fd5b50505050600090600390565b73ffffffffffffffffffffffffffffffffffffffff7f000000000000000000000000000000000000000000000000000000000000000016301480612df7575b15612d61577f000000000000000000000000000000000000000000000000000000000000000090565b60405160208101907f8b73c3c69bb8fe3d512ecc4cf759cc79239f7b179b0ffacaa9a75d522b39400f82527f000000000000000000000000000000000000000000000000000000000000000060408201527f000000000000000000000000000000000000000000000000000000000000000060608201524660808201523060a082015260a08152612df181611a3a565b51902090565b507f00000000000000000000000000000000000000000000000000000000000000004614612d38565b604290612e2b612cf9565b90604051917f19010000000000000000000000000000000000000000000000000000000000008352600283015260228201522090565b60ff8114612eb75760ff811690601f8211612e8d5760405191612e83836119fd565b8252602082015290565b60046040517fb3512b0c000000000000000000000000000000000000000000000000000000008152fd5b50604051600a54816000612eca8361197b565b80835292600190818116908115612f505750600114612ef1575b506102db92500382611a56565b600a600090815291507fc65a7bb8d6351c1cf70c95a316cc6a92839c986682d98bc35f958f4883f9d2a85b848310612f3557506102db935050810160200138612ee4565b81935090816020925483858901015201910190918492612f1c565b602093506102db9592507fffffffffffffffffffffffffffffffffffffffffffffffffffffffffffffff0091501682840152151560051b82010138612ee4565b60ff8114612fb25760ff811690601f8211612e8d5760405191612e83836119fd565b50604051600b54816000612fc58361197b565b80835292600190818116908115612f505750600114612feb57506102db92500382611a56565b600b600090815291507f0175b7a638427703f0dbe7bb9bbf987a2551717b34e79f33b5b1008d1fa01db95b84831061302f57506102db935050810160200138612ee4565b81935090816020925483858901015201910190918492613016565b8115613054570490565b7f4e487b7100000000000000000000000000000000000000000000000000000000600052601260045260246000fd5b90808216911860011c81018091116105595790565b80156131d2578061316b61316461315a61315061314661313c61313261312860016102db9a6000908b60801c806131c6575b508060401c806131b9575b508060201c806131ac575b508060101c8061319f575b508060081c80613192575b508060041c80613185575b508060021c80613178575b50821c613171575b811c1b613121818b61304a565b0160011c90565b613121818a61304a565b613121818961304a565b613121818861304a565b613121818761304a565b613121818661304a565b613121818561304a565b809261304a565b906131d8565b8101613114565b600291509101903861310c565b6004915091019038613101565b60089150910190386130f6565b60109150910190386130eb565b60209150910190386130e0565b60409150910190386130d5565b915050608090386130ca565b50600090565b90808210156131e5575090565b905090565b7bffffffffffffffffffffffffffffffffffffffffffffffffffffffff90818111613213571690565b608460405162461bcd60e51b815260206004820152602760248201527f53616665436173743a2076616c756520646f65736e27742066697420696e203260448201527f32342062697473000000000000000000000000000000000000000000000000006064820152fd5b65ffffffffffff90818111613290571690565b608460405162461bcd60e51b815260206004820152602660248201527f53616665436173743a2076616c756520646f65736e27742066697420696e203460448201527f38206269747300000000000000000000000000000000000000000000000000006064820152fd5b63ffffffff9081811161330b571690565b608460405162461bcd60e51b815260206004820152602660248201527f53616665436173743a2076616c756520646f65736e27742066697420696e203360448201527f32206269747300000000000000000000000000000000000000000000000000006064820152fd5b60ff60095460a01c1661338457565b606460405162461bcd60e51b815260206004820152601060248201527f5061757361626c653a20706175736564000000000000000000000000000000006044820152fd5b6133d9906133d4613375565b6134df565b611cc5613534565b6133e9613375565b73ffffffffffffffffffffffffffffffffffffffff811661348e575060008080526020527fad3228b676f7d3cd4284a5443f17f1962b36e491b30a40b2405849e597ba5fb5546008547f05b8ccbb9d4d8fb16ea74ce3c29a41f1b461fbdaff4714a0d9a8eb05499746bc91908061345f8461361d565b10613470575b505050611cc5613534565b82613480600192613486956135b7565b016135b7565b388080613465565b6133d9906134df565b906134a0613375565b73ffffffffffffffffffffffffffffffffffffffff8281166134c757506133d991506134df565b81166134d757506133d9906134df565b6133d4611cc5925b73ffffffffffffffffffffffffffffffffffffffff166000526005602052604060002060006020526040600020546008548061351a8461361d565b1061352457505050565b82613480600192611cc5956135b7565b60025460085490816135446135f0565b1061354d575050565b600654680100000000000000009081811015611a19578060016135739201600655612077565b81549060031b906000198096831b921b191617905560075490811015611a19578060016135a39201600755612011565b909283549160031b92831b921b1916179055565b805468010000000000000000811015611a19576135d9916001820181556120ae565b600019829392549160031b92831b921b1916179055565b600654806135fe5750600090565b60001981019081116105595761361390612077565b90549060031b1c90565b80548061362b575050600090565b600019810190811161055957613613916120ae565b600e6020527fe710864318d4a32f37d6ce54cb3fadbef648dd12d8dbdf53973564d56b7f881c5473ffffffffffffffffffffffffffffffffffffffff91821660009081526040902054611cc593929081169116612300565b90611cc59173ffffffffffffffffffffffffffffffffffffffff809116600052600e602052806040600020541690600080526040600020541690612300565b90611cc5929173ffffffffffffffffffffffffffffffffffffffff809116600052600e60205280806040600020541692166000526040600020541690612300565b1561371f57565b608460405162461bcd60e51b815260206004820152603060248201527f4552433230566f7465733a20746f74616c20737570706c79207269736b73206f60448201527f766572666c6f77696e6720766f746573000000000000000000000000000000006064820152fd5b1561379057565b608460405162461bcd60e51b815260206004820152602260248201527f45524332303a206275726e20616d6f756e7420657863656564732062616c616e60448201527f63650000000000000000000000000000000000000000000000000000000000006064820152fd5b9081039081116105595790565b908101809111610559579056fea264697066735822122061b8fa6899e9476390e23bde681ce37bd861b9b6efac191823768f227488b46864736f6c634300081300331b6847dc741a1b0cd08d278845f9d819d87b734759afb55fe2de5cb82a9ae671dec2bacdd2f05b59de34da9b523dff8be42e5e38e818c82fdb0bae774387a724",
  "devdoc": {
    "events": {
      "Approval(address,address,uint256)": {
        "details": "Emitted when the allowance of a `spender` for an `owner` is set by a call to {approve}. `value` is the new allowance."
      },
      "DelegateChanged(address,address,address)": {
        "details": "Emitted when an account changes their delegate."
      },
      "DelegateVotesChanged(address,uint256,uint256)": {
        "details": "Emitted when a token transfer or delegate change results in changes to a delegate's number of votes."
      },
      "EIP712DomainChanged()": {
        "details": "MAY be emitted to signal that the domain could have changed."
      },
      "Paused(address)": {
        "details": "Emitted when the pause is triggered by `account`."
      },
      "Snapshot(uint256)": {
        "details": "Emitted by {_snapshot} when a snapshot identified by `id` is created."
      },
      "Transfer(address,address,uint256)": {
        "details": "Emitted when `value` tokens are moved from one account (`from`) to another (`to`). Note that `value` may be zero."
      },
      "Unpaused(address)": {
        "details": "Emitted when the pause is lifted by `account`."
      }
    },
    "kind": "dev",
    "methods": {
      "CLOCK_MODE()": {
        "details": "Description of the clock"
      },
      "DOMAIN_SEPARATOR()": {
        "details": "See {IERC20Permit-DOMAIN_SEPARATOR}."
      },
      "allowance(address,address)": {
        "details": "See {IERC20-allowance}."
      },
      "approve(address,uint256)": {
        "details": "See {IERC20-approve}. NOTE: If `amount` is the maximum `uint256`, the allowance is not updated on `transferFrom`. This is semantically equivalent to an infinite approval. Requirements: - `spender` cannot be the zero address."
      },
      "balanceOf(address)": {
        "details": "See {IERC20-balanceOf}."
      },
      "balanceOfAt(address,uint256)": {
        "details": "Retrieves the balance of `account` at the time `snapshotId` was created."
      },
      "burn(uint256)": {
        "details": "Destroys `amount` tokens from the caller. See {ERC20-_burn}."
      },
      "burnFrom(address,uint256)": {
        "details": "Destroys `amount` tokens from `account`, deducting from the caller's allowance. See {ERC20-_burn} and {ERC20-allowance}. Requirements: - the caller must have allowance for ``accounts``'s tokens of at least `amount`."
      },
      "checkpoints(address,uint32)": {
        "details": "Get the `pos`-th checkpoint for `account`."
      },
      "clock()": {
        "details": "Clock used for flagging checkpoints. Can be overridden to implement timestamp based checkpoints (and voting)."
      },
      "decimals()": {
        "details": "Returns the number of decimals used to get its user representation. For example, if `decimals` equals `2`, a balance of `505` tokens should be displayed to a user as `5.05` (`505 / 10 ** 2`). Tokens usually opt for a value of 18, imitating the relationship between Ether and Wei. This is the default value returned by this function, unless it's overridden. NOTE: This information is only used for _display_ purposes: it in no way affects any of the arithmetic of the contract, including {IERC20-balanceOf} and {IERC20-transfer}."
      },
      "decreaseAllowance(address,uint256)": {
        "details": "Atomically decreases the allowance granted to `spender` by the caller. This is an alternative to {approve} that can be used as a mitigation for problems described in {IERC20-approve}. Emits an {Approval} event indicating the updated allowance. Requirements: - `spender` cannot be the zero address. - `spender` must have allowance for the caller of at least `subtractedValue`."
      },
      "delegate(address)": {
        "details": "Delegate votes from the sender to `delegatee`."
      },
      "delegateBySig(address,uint256,uint256,uint8,bytes32,bytes32)": {
        "details": "Delegates votes from signer to `delegatee`"
      },
      "delegates(address)": {
        "details": "Get the address `account` is currently delegating to."
      },
      "eip712Domain()": {
        "details": "See {EIP-5267}. _Available since v4.9._"
      },
      "getPastTotalSupply(uint256)": {
        "details": "Retrieve the `totalSupply` at the end of `timepoint`. Note, this value is the sum of all balances. It is NOT the sum of all the delegated votes! Requirements: - `timepoint` must be in the past"
      },
      "getPastVotes(address,uint256)": {
        "details": "Retrieve the number of votes for `account` at the end of `timepoint`. Requirements: - `timepoint` must be in the past"
      },
      "getVotes(address)": {
        "details": "Gets the current votes balance for `account`"
      },
      "increaseAllowance(address,uint256)": {
        "details": "Atomically increases the allowance granted to `spender` by the caller. This is an alternative to {approve} that can be used as a mitigation for problems described in {IERC20-approve}. Emits an {Approval} event indicating the updated allowance. Requirements: - `spender` cannot be the zero address."
      },
      "name()": {
        "details": "Returns the name of the token."
      },
      "nonces(address)": {
        "details": "See {IERC20Permit-nonces}."
      },
      "numCheckpoints(address)": {
        "details": "Get number of checkpoints for `account`."
      },
      "owner()": {
        "details": "Returns the address of the current owner."
      },
      "paused()": {
        "details": "Returns true if the contract is paused, and false otherwise."
      },
      "permit(address,address,uint256,uint256,uint8,bytes32,bytes32)": {
        "details": "See {IERC20Permit-permit}."
      },
      "renounceOwnership()": {
        "details": "Leaves the contract without owner. It will not be possible to call `onlyOwner` functions. Can only be called by the current owner. NOTE: Renouncing ownership will leave the contract without an owner, thereby disabling any functionality that is only available to the owner."
      },
      "symbol()": {
        "details": "Returns the symbol of the token, usually a shorter version of the name."
      },
      "totalSupply()": {
        "details": "See {IERC20-totalSupply}."
      },
      "totalSupplyAt(uint256)": {
        "details": "Retrieves the total supply at the time `snapshotId` was created."
      },
      "transfer(address,uint256)": {
        "details": "See {IERC20-transfer}. Requirements: - `to` cannot be the zero address. - the caller must have a balance of at least `amount`."
      },
      "transferFrom(address,address,uint256)": {
        "details": "See {IERC20-transferFrom}. Emits an {Approval} event indicating the updated allowance. This is not required by the EIP. See the note at the beginning of {ERC20}. NOTE: Does not update the allowance if the current allowance is the maximum `uint256`. Requirements: - `from` and `to` cannot be the zero address. - `from` must have a balance of at least `amount`. - the caller must have allowance for ``from``'s tokens of at least `amount`."
      },
      "transferOwnership(address)": {
        "details": "Transfers ownership of the contract to a new account (`newOwner`). Can only be called by the current owner."
      }
    },
    "version": 1
  },
  "userdoc": {
    "kind": "user",
    "methods": {},
    "version": 1
  },
  "storageLayout": {
    "storage": [
      {
        "astId": 363,
        "contract": "contracts/tokens/Muse.sol:MUSE",
        "label": "_balances",
        "offset": 0,
        "slot": "0",
        "type": "t_mapping(t_address,t_uint256)"
      },
      {
        "astId": 369,
        "contract": "contracts/tokens/Muse.sol:MUSE",
        "label": "_allowances",
        "offset": 0,
        "slot": "1",
        "type": "t_mapping(t_address,t_mapping(t_address,t_uint256))"
      },
      {
        "astId": 371,
        "contract": "contracts/tokens/Muse.sol:MUSE",
        "label": "_totalSupply",
        "offset": 0,
        "slot": "2",
        "type": "t_uint256"
      },
      {
        "astId": 373,
        "contract": "contracts/tokens/Muse.sol:MUSE",
        "label": "_name",
        "offset": 0,
        "slot": "3",
        "type": "t_string_storage"
      },
      {
        "astId": 375,
        "contract": "contracts/tokens/Muse.sol:MUSE",
        "label": "_symbol",
        "offset": 0,
        "slot": "4",
        "type": "t_string_storage"
      },
      {
        "astId": 1256,
        "contract": "contracts/tokens/Muse.sol:MUSE",
        "label": "_accountBalanceSnapshots",
        "offset": 0,
        "slot": "5",
        "type": "t_mapping(t_address,t_struct(Snapshots)1251_storage)"
      },
      {
        "astId": 1259,
        "contract": "contracts/tokens/Muse.sol:MUSE",
        "label": "_totalSupplySnapshots",
        "offset": 0,
        "slot": "6",
        "type": "t_struct(Snapshots)1251_storage"
      },
      {
        "astId": 1262,
        "contract": "contracts/tokens/Muse.sol:MUSE",
        "label": "_currentSnapshotId",
        "offset": 0,
        "slot": "8",
        "type": "t_struct(Counter)3418_storage"
      },
      {
        "astId": 7,
        "contract": "contracts/tokens/Muse.sol:MUSE",
        "label": "_owner",
        "offset": 0,
        "slot": "9",
        "type": "t_address"
      },
      {
        "astId": 257,
        "contract": "contracts/tokens/Muse.sol:MUSE",
        "label": "_paused",
        "offset": 20,
        "slot": "9",
        "type": "t_bool"
      },
      {
        "astId": 4440,
        "contract": "contracts/tokens/Muse.sol:MUSE",
        "label": "_nameFallback",
        "offset": 0,
        "slot": "10",
        "type": "t_string_storage"
      },
      {
        "astId": 4442,
        "contract": "contracts/tokens/Muse.sol:MUSE",
        "label": "_versionFallback",
        "offset": 0,
        "slot": "11",
        "type": "t_string_storage"
      },
      {
        "astId": 1079,
        "contract": "contracts/tokens/Muse.sol:MUSE",
        "label": "_nonces",
        "offset": 0,
        "slot": "12",
        "type": "t_mapping(t_address,t_struct(Counter)3418_storage)"
      },
      {
        "astId": 1087,
        "contract": "contracts/tokens/Muse.sol:MUSE",
        "label": "_PERMIT_TYPEHASH_DEPRECATED_SLOT",
        "offset": 0,
        "slot": "13",
        "type": "t_bytes32"
      },
      {
        "astId": 1582,
        "contract": "contracts/tokens/Muse.sol:MUSE",
        "label": "_delegates",
        "offset": 0,
        "slot": "14",
        "type": "t_mapping(t_address,t_address)"
      },
      {
        "astId": 1588,
        "contract": "contracts/tokens/Muse.sol:MUSE",
        "label": "_checkpoints",
        "offset": 0,
        "slot": "15",
        "type": "t_mapping(t_address,t_array(t_struct(Checkpoint)1573_storage)dyn_storage)"
      },
      {
        "astId": 1592,
        "contract": "contracts/tokens/Muse.sol:MUSE",
        "label": "_totalSupplyCheckpoints",
        "offset": 0,
        "slot": "16",
        "type": "t_array(t_struct(Checkpoint)1573_storage)dyn_storage"
      }
    ],
    "types": {
      "t_address": {
        "encoding": "inplace",
        "label": "address",
        "numberOfBytes": "20"
      },
      "t_array(t_struct(Checkpoint)1573_storage)dyn_storage": {
        "base": "t_struct(Checkpoint)1573_storage",
        "encoding": "dynamic_array",
        "label": "struct ERC20Votes.Checkpoint[]",
        "numberOfBytes": "32"
      },
      "t_array(t_uint256)dyn_storage": {
        "base": "t_uint256",
        "encoding": "dynamic_array",
        "label": "uint256[]",
        "numberOfBytes": "32"
      },
      "t_bool": {
        "encoding": "inplace",
        "label": "bool",
        "numberOfBytes": "1"
      },
      "t_bytes32": {
        "encoding": "inplace",
        "label": "bytes32",
        "numberOfBytes": "32"
      },
      "t_mapping(t_address,t_address)": {
        "encoding": "mapping",
        "key": "t_address",
        "label": "mapping(address => address)",
        "numberOfBytes": "32",
        "value": "t_address"
      },
      "t_mapping(t_address,t_array(t_struct(Checkpoint)1573_storage)dyn_storage)": {
        "encoding": "mapping",
        "key": "t_address",
        "label": "mapping(address => struct ERC20Votes.Checkpoint[])",
        "numberOfBytes": "32",
        "value": "t_array(t_struct(Checkpoint)1573_storage)dyn_storage"
      },
      "t_mapping(t_address,t_mapping(t_address,t_uint256))": {
        "encoding": "mapping",
        "key": "t_address",
        "label": "mapping(address => mapping(address => uint256))",
        "numberOfBytes": "32",
        "value": "t_mapping(t_address,t_uint256)"
      },
      "t_mapping(t_address,t_struct(Counter)3418_storage)": {
        "encoding": "mapping",
        "key": "t_address",
        "label": "mapping(address => struct Counters.Counter)",
        "numberOfBytes": "32",
        "value": "t_struct(Counter)3418_storage"
      },
      "t_mapping(t_address,t_struct(Snapshots)1251_storage)": {
        "encoding": "mapping",
        "key": "t_address",
        "label": "mapping(address => struct ERC20Snapshot.Snapshots)",
        "numberOfBytes": "32",
        "value": "t_struct(Snapshots)1251_storage"
      },
      "t_mapping(t_address,t_uint256)": {
        "encoding": "mapping",
        "key": "t_address",
        "label": "mapping(address => uint256)",
        "numberOfBytes": "32",
        "value": "t_uint256"
      },
      "t_string_storage": {
        "encoding": "bytes",
        "label": "string",
        "numberOfBytes": "32"
      },
      "t_struct(Checkpoint)1573_storage": {
        "encoding": "inplace",
        "label": "struct ERC20Votes.Checkpoint",
        "members": [
          {
            "astId": 1570,
            "contract": "contracts/tokens/Muse.sol:MUSE",
            "label": "fromBlock",
            "offset": 0,
            "slot": "0",
            "type": "t_uint32"
          },
          {
            "astId": 1572,
            "contract": "contracts/tokens/Muse.sol:MUSE",
            "label": "votes",
            "offset": 4,
            "slot": "0",
            "type": "t_uint224"
          }
        ],
        "numberOfBytes": "32"
      },
      "t_struct(Counter)3418_storage": {
        "encoding": "inplace",
        "label": "struct Counters.Counter",
        "members": [
          {
            "astId": 3417,
            "contract": "contracts/tokens/Muse.sol:MUSE",
            "label": "_value",
            "offset": 0,
            "slot": "0",
            "type": "t_uint256"
          }
        ],
        "numberOfBytes": "32"
      },
      "t_struct(Snapshots)1251_storage": {
        "encoding": "inplace",
        "label": "struct ERC20Snapshot.Snapshots",
        "members": [
          {
            "astId": 1247,
            "contract": "contracts/tokens/Muse.sol:MUSE",
            "label": "ids",
            "offset": 0,
            "slot": "0",
            "type": "t_array(t_uint256)dyn_storage"
          },
          {
            "astId": 1250,
            "contract": "contracts/tokens/Muse.sol:MUSE",
            "label": "values",
            "offset": 0,
            "slot": "1",
            "type": "t_array(t_uint256)dyn_storage"
          }
        ],
        "numberOfBytes": "64"
      },
      "t_uint224": {
        "encoding": "inplace",
        "label": "uint224",
        "numberOfBytes": "28"
      },
      "t_uint256": {
        "encoding": "inplace",
        "label": "uint256",
        "numberOfBytes": "32"
      },
      "t_uint32": {
        "encoding": "inplace",
        "label": "uint32",
        "numberOfBytes": "4"
      }
    }
  }
}