{
  "_format": "hh-sol-artifact-1",
  "contractName": "MUSE",
  "sourceName": "contracts/tokens/Muse.sol",
  "abi": [
    {
      "inputs": [],
      "stateMutability": "nonpayable",
      "type": "constructor"
    },
    {
      "inputs": [],
      "name": "InvalidShortString",
      "type": "error"
    },
    {
      "inputs": [
        {
          "internalType": "string",
          "name": "str",
          "type": "string"
        }
      ],
      "name": "StringTooLong",
      "type": "error"
    },
    {
      "anonymous": false,
      "inputs": [
        {
          "indexed": true,
          "internalType": "address",
          "name": "owner",
          "type": "address"
        },
        {
          "indexed": true,
          "internalType": "address",
          "name": "spender",
          "type": "address"
        },
        {
          "indexed": false,
          "internalType": "uint256",
          "name": "value",
          "type": "uint256"
        }
      ],
      "name": "Approval",
      "type": "event"
    },
    {
      "anonymous": false,
      "inputs": [
        {
          "indexed": true,
          "internalType": "address",
          "name": "delegator",
          "type": "address"
        },
        {
          "indexed": true,
          "internalType": "address",
          "name": "fromDelegate",
          "type": "address"
        },
        {
          "indexed": true,
          "internalType": "address",
          "name": "toDelegate",
          "type": "address"
        }
      ],
      "name": "DelegateChanged",
      "type": "event"
    },
    {
      "anonymous": false,
      "inputs": [
        {
          "indexed": true,
          "internalType": "address",
          "name": "delegate",
          "type": "address"
        },
        {
          "indexed": false,
          "internalType": "uint256",
          "name": "previousBalance",
          "type": "uint256"
        },
        {
          "indexed": false,
          "internalType": "uint256",
          "name": "newBalance",
          "type": "uint256"
        }
      ],
      "name": "DelegateVotesChanged",
      "type": "event"
    },
    {
      "anonymous": false,
      "inputs": [],
      "name": "EIP712DomainChanged",
      "type": "event"
    },
    {
      "anonymous": false,
      "inputs": [
        {
          "indexed": true,
          "internalType": "address",
          "name": "previousOwner",
          "type": "address"
        },
        {
          "indexed": true,
          "internalType": "address",
          "name": "newOwner",
          "type": "address"
        }
      ],
      "name": "OwnershipTransferred",
      "type": "event"
    },
    {
      "anonymous": false,
      "inputs": [
        {
          "indexed": false,
          "internalType": "address",
          "name": "account",
          "type": "address"
        }
      ],
      "name": "Paused",
      "type": "event"
    },
    {
      "anonymous": false,
      "inputs": [
        {
          "indexed": false,
          "internalType": "uint256",
          "name": "id",
          "type": "uint256"
        }
      ],
      "name": "Snapshot",
      "type": "event"
    },
    {
      "anonymous": false,
      "inputs": [
        {
          "indexed": true,
          "internalType": "address",
          "name": "from",
          "type": "address"
        },
        {
          "indexed": true,
          "internalType": "address",
          "name": "to",
          "type": "address"
        },
        {
          "indexed": false,
          "internalType": "uint256",
          "name": "value",
          "type": "uint256"
        }
      ],
      "name": "Transfer",
      "type": "event"
    },
    {
      "anonymous": false,
      "inputs": [
        {
          "indexed": false,
          "internalType": "address",
          "name": "account",
          "type": "address"
        }
      ],
      "name": "Unpaused",
      "type": "event"
    },
    {
      "inputs": [],
      "name": "CLOCK_MODE",
      "outputs": [
        {
          "internalType": "string",
          "name": "",
          "type": "string"
        }
      ],
      "stateMutability": "view",
      "type": "function"
    },
    {
      "inputs": [],
      "name": "DOMAIN_SEPARATOR",
      "outputs": [
        {
          "internalType": "bytes32",
          "name": "",
          "type": "bytes32"
        }
      ],
      "stateMutability": "view",
      "type": "function"
    },
    {
      "inputs": [
        {
          "internalType": "address",
          "name": "owner",
          "type": "address"
        },
        {
          "internalType": "address",
          "name": "spender",
          "type": "address"
        }
      ],
      "name": "allowance",
      "outputs": [
        {
          "internalType": "uint256",
          "name": "",
          "type": "uint256"
        }
      ],
      "stateMutability": "view",
      "type": "function"
    },
    {
      "inputs": [
        {
          "internalType": "address",
          "name": "spender",
          "type": "address"
        },
        {
          "internalType": "uint256",
          "name": "amount",
          "type": "uint256"
        }
      ],
      "name": "approve",
      "outputs": [
        {
          "internalType": "bool",
          "name": "",
          "type": "bool"
        }
      ],
      "stateMutability": "nonpayable",
      "type": "function"
    },
    {
      "inputs": [
        {
          "internalType": "address",
          "name": "account",
          "type": "address"
        }
      ],
      "name": "balanceOf",
      "outputs": [
        {
          "internalType": "uint256",
          "name": "",
          "type": "uint256"
        }
      ],
      "stateMutability": "view",
      "type": "function"
    },
    {
      "inputs": [
        {
          "internalType": "address",
          "name": "account",
          "type": "address"
        },
        {
          "internalType": "uint256",
          "name": "snapshotId",
          "type": "uint256"
        }
      ],
      "name": "balanceOfAt",
      "outputs": [
        {
          "internalType": "uint256",
          "name": "",
          "type": "uint256"
        }
      ],
      "stateMutability": "view",
      "type": "function"
    },
    {
      "inputs": [
        {
          "internalType": "uint256",
          "name": "amount",
          "type": "uint256"
        }
      ],
      "name": "burn",
      "outputs": [],
      "stateMutability": "nonpayable",
      "type": "function"
    },
    {
      "inputs": [
        {
          "internalType": "address",
          "name": "account",
          "type": "address"
        },
        {
          "internalType": "uint256",
          "name": "amount",
          "type": "uint256"
        }
      ],
      "name": "burnFrom",
      "outputs": [],
      "stateMutability": "nonpayable",
      "type": "function"
    },
    {
      "inputs": [
        {
          "internalType": "address",
          "name": "account",
          "type": "address"
        },
        {
          "internalType": "uint32",
          "name": "pos",
          "type": "uint32"
        }
      ],
      "name": "checkpoints",
      "outputs": [
        {
          "components": [
            {
              "internalType": "uint32",
              "name": "fromBlock",
              "type": "uint32"
            },
            {
              "internalType": "uint224",
              "name": "votes",
              "type": "uint224"
            }
          ],
          "internalType": "struct ERC20Votes.Checkpoint",
          "name": "",
          "type": "tuple"
        }
      ],
      "stateMutability": "view",
      "type": "function"
    },
    {
      "inputs": [],
      "name": "clock",
      "outputs": [
        {
          "internalType": "uint48",
          "name": "",
          "type": "uint48"
        }
      ],
      "stateMutability": "view",
      "type": "function"
    },
    {
      "inputs": [],
      "name": "decimals",
      "outputs": [
        {
          "internalType": "uint8",
          "name": "",
          "type": "uint8"
        }
      ],
      "stateMutability": "view",
      "type": "function"
    },
    {
      "inputs": [
        {
          "internalType": "address",
          "name": "spender",
          "type": "address"
        },
        {
          "internalType": "uint256",
          "name": "subtractedValue",
          "type": "uint256"
        }
      ],
      "name": "decreaseAllowance",
      "outputs": [
        {
          "internalType": "bool",
          "name": "",
          "type": "bool"
        }
      ],
      "stateMutability": "nonpayable",
      "type": "function"
    },
    {
      "inputs": [
        {
          "internalType": "address",
          "name": "delegatee",
          "type": "address"
        }
      ],
      "name": "delegate",
      "outputs": [],
      "stateMutability": "nonpayable",
      "type": "function"
    },
    {
      "inputs": [
        {
          "internalType": "address",
          "name": "delegatee",
          "type": "address"
        },
        {
          "internalType": "uint256",
          "name": "nonce",
          "type": "uint256"
        },
        {
          "internalType": "uint256",
          "name": "expiry",
          "type": "uint256"
        },
        {
          "internalType": "uint8",
          "name": "v",
          "type": "uint8"
        },
        {
          "internalType": "bytes32",
          "name": "r",
          "type": "bytes32"
        },
        {
          "internalType": "bytes32",
          "name": "s",
          "type": "bytes32"
        }
      ],
      "name": "delegateBySig",
      "outputs": [],
      "stateMutability": "nonpayable",
      "type": "function"
    },
    {
      "inputs": [
        {
          "internalType": "address",
          "name": "account",
          "type": "address"
        }
      ],
      "name": "delegates",
      "outputs": [
        {
          "internalType": "address",
          "name": "",
          "type": "address"
        }
      ],
      "stateMutability": "view",
      "type": "function"
    },
    {
      "inputs": [],
      "name": "eip712Domain",
      "outputs": [
        {
          "internalType": "bytes1",
          "name": "fields",
          "type": "bytes1"
        },
        {
          "internalType": "string",
          "name": "name",
          "type": "string"
        },
        {
          "internalType": "string",
          "name": "version",
          "type": "string"
        },
        {
          "internalType": "uint256",
          "name": "chainId",
          "type": "uint256"
        },
        {
          "internalType": "address",
          "name": "verifyingContract",
          "type": "address"
        },
        {
          "internalType": "bytes32",
          "name": "salt",
          "type": "bytes32"
        },
        {
          "internalType": "uint256[]",
          "name": "extensions",
          "type": "uint256[]"
        }
      ],
      "stateMutability": "view",
      "type": "function"
    },
    {
      "inputs": [
        {
          "internalType": "uint256",
          "name": "timepoint",
          "type": "uint256"
        }
      ],
      "name": "getPastTotalSupply",
      "outputs": [
        {
          "internalType": "uint256",
          "name": "",
          "type": "uint256"
        }
      ],
      "stateMutability": "view",
      "type": "function"
    },
    {
      "inputs": [
        {
          "internalType": "address",
          "name": "account",
          "type": "address"
        },
        {
          "internalType": "uint256",
          "name": "timepoint",
          "type": "uint256"
        }
      ],
      "name": "getPastVotes",
      "outputs": [
        {
          "internalType": "uint256",
          "name": "",
          "type": "uint256"
        }
      ],
      "stateMutability": "view",
      "type": "function"
    },
    {
      "inputs": [
        {
          "internalType": "address",
          "name": "account",
          "type": "address"
        }
      ],
      "name": "getVotes",
      "outputs": [
        {
          "internalType": "uint256",
          "name": "",
          "type": "uint256"
        }
      ],
      "stateMutability": "view",
      "type": "function"
    },
    {
      "inputs": [
        {
          "internalType": "address",
          "name": "spender",
          "type": "address"
        },
        {
          "internalType": "uint256",
          "name": "addedValue",
          "type": "uint256"
        }
      ],
      "name": "increaseAllowance",
      "outputs": [
        {
          "internalType": "bool",
          "name": "",
          "type": "bool"
        }
      ],
      "stateMutability": "nonpayable",
      "type": "function"
    },
    {
      "inputs": [
        {
          "internalType": "address",
          "name": "to",
          "type": "address"
        },
        {
          "internalType": "uint256",
          "name": "amount",
          "type": "uint256"
        }
      ],
      "name": "mint",
      "outputs": [],
      "stateMutability": "nonpayable",
      "type": "function"
    },
    {
      "inputs": [],
      "name": "name",
      "outputs": [
        {
          "internalType": "string",
          "name": "",
          "type": "string"
        }
      ],
      "stateMutability": "view",
      "type": "function"
    },
    {
      "inputs": [
        {
          "internalType": "address",
          "name": "owner",
          "type": "address"
        }
      ],
      "name": "nonces",
      "outputs": [
        {
          "internalType": "uint256",
          "name": "",
          "type": "uint256"
        }
      ],
      "stateMutability": "view",
      "type": "function"
    },
    {
      "inputs": [
        {
          "internalType": "address",
          "name": "account",
          "type": "address"
        }
      ],
      "name": "numCheckpoints",
      "outputs": [
        {
          "internalType": "uint32",
          "name": "",
          "type": "uint32"
        }
      ],
      "stateMutability": "view",
      "type": "function"
    },
    {
      "inputs": [],
      "name": "owner",
      "outputs": [
        {
          "internalType": "address",
          "name": "",
          "type": "address"
        }
      ],
      "stateMutability": "view",
      "type": "function"
    },
    {
      "inputs": [],
      "name": "pause",
      "outputs": [],
      "stateMutability": "nonpayable",
      "type": "function"
    },
    {
      "inputs": [],
      "name": "paused",
      "outputs": [
        {
          "internalType": "bool",
          "name": "",
          "type": "bool"
        }
      ],
      "stateMutability": "view",
      "type": "function"
    },
    {
      "inputs": [
        {
          "internalType": "address",
          "name": "owner",
          "type": "address"
        },
        {
          "internalType": "address",
          "name": "spender",
          "type": "address"
        },
        {
          "internalType": "uint256",
          "name": "value",
          "type": "uint256"
        },
        {
          "internalType": "uint256",
          "name": "deadline",
          "type": "uint256"
        },
        {
          "internalType": "uint8",
          "name": "v",
          "type": "uint8"
        },
        {
          "internalType": "bytes32",
          "name": "r",
          "type": "bytes32"
        },
        {
          "internalType": "bytes32",
          "name": "s",
          "type": "bytes32"
        }
      ],
      "name": "permit",
      "outputs": [],
      "stateMutability": "nonpayable",
      "type": "function"
    },
    {
      "inputs": [],
      "name": "renounceOwnership",
      "outputs": [],
      "stateMutability": "nonpayable",
      "type": "function"
    },
    {
      "inputs": [],
      "name": "snapshot",
      "outputs": [],
      "stateMutability": "nonpayable",
      "type": "function"
    },
    {
      "inputs": [],
      "name": "symbol",
      "outputs": [
        {
          "internalType": "string",
          "name": "",
          "type": "string"
        }
      ],
      "stateMutability": "view",
      "type": "function"
    },
    {
      "inputs": [],
      "name": "totalSupply",
      "outputs": [
        {
          "internalType": "uint256",
          "name": "",
          "type": "uint256"
        }
      ],
      "stateMutability": "view",
      "type": "function"
    },
    {
      "inputs": [
        {
          "internalType": "uint256",
          "name": "snapshotId",
          "type": "uint256"
        }
      ],
      "name": "totalSupplyAt",
      "outputs": [
        {
          "internalType": "uint256",
          "name": "",
          "type": "uint256"
        }
      ],
      "stateMutability": "view",
      "type": "function"
    },
    {
      "inputs": [
        {
          "internalType": "address",
          "name": "to",
          "type": "address"
        },
        {
          "internalType": "uint256",
          "name": "amount",
          "type": "uint256"
        }
      ],
      "name": "transfer",
      "outputs": [
        {
          "internalType": "bool",
          "name": "",
          "type": "bool"
        }
      ],
      "stateMutability": "nonpayable",
      "type": "function"
    },
    {
      "inputs": [
        {
          "internalType": "address",
          "name": "from",
          "type": "address"
        },
        {
          "internalType": "address",
          "name": "to",
          "type": "address"
        },
        {
          "internalType": "uint256",
          "name": "amount",
          "type": "uint256"
        }
      ],
      "name": "transferFrom",
      "outputs": [
        {
          "internalType": "bool",
          "name": "",
          "type": "bool"
        }
      ],
      "stateMutability": "nonpayable",
      "type": "function"
    },
    {
      "inputs": [
        {
          "internalType": "address",
          "name": "newOwner",
          "type": "address"
        }
      ],
      "name": "transferOwnership",
      "outputs": [],
      "stateMutability": "nonpayable",
      "type": "function"
    },
    {
      "inputs": [],
      "name": "unpause",
      "outputs": [],
      "stateMutability": "nonpayable",
      "type": "function"
    }
  ],
  "bytecode": "0x6101606040523462000211576200001562000283565b6200001f62000283565b906200002a62000259565b91602092634d55534560e01b84820152620000446200026e565b603160f81b858201908152835190939192916001600160401b0382116200020b576200007d8262000077600354620002ee565b6200032b565b8690601f83116001146200017b57620000b7939291600091836200016f575b50508160011b916000199060031b1c1916176003556200048f565b620000c23362000582565b6009805460ff60a01b19169055620000da83620005cb565b92610120938452620000ec82620006de565b94610140958652815191012060e052519020916101009283524660a052620001136200088f565b6080523060c052620001253362000961565b604051916135b89384620012fb853960805184612afb015260a05184612bb6015260c05184612acc015260e05184612b4a01525183612b7001525182610ddb01525181610e040152f35b0151905038806200009c565b6003600052601f19831691907fc2575a0e9e593c00f959f8c92f12db2869c3395a3b0502d05e2516446f71f85b9260005b8a828210620001f4575050916001939185620000b797969410620001da575b505050811b016003556200048f565b015160001960f88460031b161c19169055388080620001cb565b6001859682939686015181550195019301620001ac565b62000216565b600080fd5b634e487b7160e01b600052604160045260246000fd5b604081019081106001600160401b038211176200020b57604052565b6040519062000257826200022c565b565b6040519062000268826200022c565b60048252565b604051906200027d826200022c565b60018252565b60405190606082016001600160401b038111838210176200020b5760405260228252616d7960f01b6040837f4d6563656e61746520556e6976657273616c20537570706f72742045636f6e6f60208201520152565b634e487b7160e01b600052601160045260246000fd5b90600182811c9216801562000320575b60208310146200030a57565b634e487b7160e01b600052602260045260246000fd5b91607f1691620002fe565b601f811162000338575050565b6000906003825260208220906020601f850160051c8301941062000379575b601f0160051c01915b8281106200036d57505050565b81815560010162000360565b909250829062000357565b601f811162000391575050565b6000906004825260208220906020601f850160051c83019410620003d2575b601f0160051c01915b828110620003c657505050565b818155600101620003b9565b9092508290620003b0565b601f8111620003ea575050565b600090600a825260208220906020601f850160051c830194106200042b575b601f0160051c01915b8281106200041f57505050565b81815560010162000412565b909250829062000409565b601f811162000443575050565b600090600b825260208220906020601f850160051c8301941062000484575b601f0160051c01915b8281106200047857505050565b8181556001016200046b565b909250829062000462565b80519091906001600160401b0381116200020b57620004bb81620004b5600454620002ee565b62000384565b602080601f8311600114620004fa5750819293600092620004ee575b50508160011b916000199060031b1c191617600455565b015190503880620004d7565b6004600052601f198316949091907f8a35acfbc15ff81a39ae7d344fd709f28e8600b4aa8c65c6b64bfe7fe36bd19b926000905b878210620005695750508360019596106200054f575b505050811b01600455565b015160001960f88460031b161c1916905538808062000544565b806001859682949686015181550195019301906200052e565b600980546001600160a01b039283166001600160a01b0319821681179092559091167f8be0079c531659141344cd1fd0a4f28419497f9722a3daafe3b4186f6b6457e0600080a3565b9081516020808210600014620005ec57505090620005e99062000812565b90565b6001600160401b0382116200020b5762000613826200060d600a54620002ee565b620003dd565b80601f831160011462000653575081929360009262000647575b50508160011b916000199060031b1c191617600a5560ff90565b0151905038806200062d565b600a600052601f198316949091907fc65a7bb8d6351c1cf70c95a316cc6a92839c986682d98bc35f958f4883f9d2a8926000905b878210620006c5575050836001959610620006ab575b505050811b01600a5560ff90565b015160001960f88460031b161c191690553880806200069d565b8060018596829496860151815501950193019062000687565b9081516020808210600014620006fc57505090620005e99062000812565b6001600160401b0382116200020b5762000723826200071d600b54620002ee565b62000436565b80601f831160011462000763575081929360009262000757575b50508160011b916000199060031b1c191617600b5560ff90565b0151905038806200073d565b600b600052601f198316949091907f0175b7a638427703f0dbe7bb9bbf987a2551717b34e79f33b5b1008d1fa01db9926000905b878210620007d5575050836001959610620007bb575b505050811b01600b5560ff90565b015160001960f88460031b161c19169055388080620007ad565b8060018596829496860151815501950193019062000797565b60208151910151906020811062000803575090565b6000199060200360031b1b1690565b601f8151116200082d576200082781620007ee565b90511790565b6040519063305a27a960e01b82528160208060048301528251908160248401526000935b82851062000875575050604492506000838284010152601f80199101168101030190fd5b848101820151868601604401529381019385935062000851565b60e051610100516040519060208201927f8b73c3c69bb8fe3d512ecc4cf759cc79239f7b179b0ffacaa9a75d522b39400f8452604083015260608201524660808201523060a082015260a0815260c0810181811060018060401b038211176200020b5760405251902090565b156200090357565b60405162461bcd60e51b815260206004820152603060248201527f4552433230566f7465733a20746f74616c20737570706c79207269736b73206f60448201526f766572666c6f77696e6720766f74657360801b6064820152608490fd5b6001600160a01b03811690811562000aca5760ff60095460a01c1662000a92578162000a499260005260056020526040600020600060205260406000205460085480620009ae84620011a9565b1062000a6f575b505050620009c2620010a5565b620009d8620009d360025462000b0f565b600255565b6001600160a01b038216600090815260208190526040902069152d02c7e14af6800000815401905560007fddf252ad1be2c89b69c2b068fc378daa952ba7f163c4a11628f55a4df523b3ef6040518062000a40819069152d02c7e14af6800000602083019252565b0390a3620011d0565b60025462000a61906001600160e01b031015620008fb565b62000a6b62000c7e565b5050565b8262000a8260019262000a89956200114c565b016200114c565b388080620009b5565b60405162461bcd60e51b815260206004820152601060248201526f14185d5cd8589b194e881c185d5cd95960821b6044820152606490fd5b60405162461bcd60e51b815260206004820152601f60248201527f45524332303a206d696e7420746f20746865207a65726f2061646472657373006044820152606490fd5b9069152d02c7e14af6800000820180921162000b2757565b620002d8565b604080519192919081016001600160401b038111828210176200020b57604052602081935463ffffffff81168352811c910152565b60065481101562000b7e57600660005260206000200190600090565b634e487b7160e01b600052603260045260246000fd5b805482101562000b7e5760005260206000200190600090565b60105490680100000000000000008210156200020b57600182018060105582101562000b7e576010600052805160209182015190911b63ffffffff191663ffffffff91909116177f1b6847dc741a1b0cd08d278845f9d819d87b734759afb55fe2de5cb82a9ae67290910155565b8054680100000000000000008110156200020b5762000c409160018201815562000b94565b62000c6857815160209283015190921b63ffffffff191663ffffffff92909216919091179055565b634e487b7160e01b600052600060045260246000fd5b60105490811590811562000db45762000c9662000248565b6000815260006020820152925b602084015162000cc3906001600160e01b03165b6001600160e01b031690565b9362000ccf85620012c9565b9315908162000d8d575b501562000d2557620002579062000d0e62000cf48562000f6d565b601060005291600080516020620048b38339815191520190565b9063ffffffff82549181199060201b169116179055565b506200025762000d4e62000d4862000d3d4362000fd7565b65ffffffffffff1690565b6200103f565b62000d8762000d5d8562000f6d565b62000d7762000d6b62000248565b63ffffffff9094168452565b6001600160e01b03166020830152565b62000bad565b5163ffffffff16905063ffffffff62000daa62000d3d4362000fd7565b9116143862000cd9565b601060005262000ddb600080516020620048b3833981519152840162000b2d565b62000b2d565b9262000ca3565b805491821591821562000ee25762000df962000248565b6000815260006020820152935b602085015162000e1f906001600160e01b031662000cb7565b9462000e2b86620012e1565b9415908162000ebb575b501562000e625762000d0e620002579262000e508662000f6d565b92600019019060005260206000200190565b50620002579062000e7b62000d4862000d3d4362000fd7565b9062000eb562000e8b8662000f6d565b62000ea562000e9962000248565b63ffffffff9095168552565b6001600160e01b03166020840152565b62000c1b565b5163ffffffff16905063ffffffff62000ed862000d3d4362000fd7565b9116143862000e35565b62000efc62000dd560001986018360005260206000200190565b9362000e06565b805491821591821562000f4c5762000f1a62000248565b6000815260006020820152935b602085015162000f40906001600160e01b031662000cb7565b9462000e2b86620012c9565b62000f6662000dd560001986018360005260206000200190565b9362000f27565b6001600160e01b039081811162000f82571690565b60405162461bcd60e51b815260206004820152602760248201527f53616665436173743a2076616c756520646f65736e27742066697420696e20326044820152663234206269747360c81b6064820152608490fd5b65ffffffffffff9081811162000feb571690565b60405162461bcd60e51b815260206004820152602660248201527f53616665436173743a2076616c756520646f65736e27742066697420696e203460448201526538206269747360d01b6064820152608490fd5b63ffffffff9081811162001051571690565b60405162461bcd60e51b815260206004820152602660248201527f53616665436173743a2076616c756520646f65736e27742066697420696e203360448201526532206269747360d01b6064820152608490fd5b60025460085480620010b662001178565b10620010c0575050565b6006546801000000000000000091828210156200020b57620010ed82600162001106940160065562000b62565b90919082549060031b91821b91600019901b1916179055565b600754908110156200020b57600181018060075581101562000b7e5760076000527fa66cc928b5edb82af9bd49922954155ab7b0942694bea4ce44661d9a8736c6880155565b90815491680100000000000000008310156200020b5782620010ed916001620002579501815562000b94565b60065480620011875750600090565b600019810190811162000b27576200119f9062000b62565b90549060031b1c90565b805480620011b8575050600090565b600019810190811162000b27576200119f9162000b94565b600e6020527fe710864318d4a32f37d6ce54cb3fadbef648dd12d8dbdf53973564d56b7f881c546001600160a01b0391821660009081526040812054831692909116908183141580620012c0575b6200122857505050565b8162001281575b5050806200123a5750565b6001600160a01b0381166000908152600f60205260409020600080516020620048d3833981519152906200126e9062000f03565b60408051928352602083019190915290a2565b620012a760408284600080516020620048d38339815191529452600f6020522062000de2565b60408051928352602083019190915290a238806200122f565b5060016200121e565b69152d02c7e14af6800000810180911162000b275790565b69152d02c7e14af67fffff19810190811162000b27579056fe6080604052600436101561001257600080fd5b60003560e01c806306fdde0314610267578063095ea7b31461026257806318160ddd1461025d57806323b872dd14610258578063313ce567146102535780633644e5151461024e57806339509351146102495780633a46b1a8146102445780633f4ba83a1461023f57806340c10f191461023a57806342966c68146102355780634bf5d7e9146102305780634ee2cd7e1461022b578063587cde1e146102265780635c19a95c146102215780635c975abb1461021c5780636fcfff451461021757806370a0823114610212578063715018a61461020d57806379cc6790146102085780637ecebe00146102035780638456cb59146101fe57806384b0196e146101f95780638da5cb5b146101f45780638e539e8c146101ef57806391ddadf4146101ea57806395d89b41146101e55780639711715a146101e0578063981b24d0146101db5780639ab24eb0146101d6578063a457c2d7146101d1578063a9059cbb146101cc578063c3cda520146101c7578063d505accf146101c2578063dd62ed3e146101bd578063f1127ed8146101b85763f2fde38b146101b357600080fd5b6116ad565b611616565b6115b9565b611475565b611328565b6112e2565b611210565b6111ae565b611176565b611127565b611080565b611054565b610efb565b610ed4565b610dc0565b610d34565b610cfa565b610c26565b610bb2565b610b78565b610b30565b610b0a565b610ae8565b610aad565b610a50565b61099f565b610877565b610758565b61069b565b610537565b6104d8565b6104b5565b610499565b610461565b610443565b610412565b6102de565b919082519283825260005b8481106102b65750507fffffffffffffffffffffffffffffffffffffffffffffffffffffffffffffffe0601f8460006020809697860101520116010190565b602081830181015184830182015201610277565b9060206102db92818152019061026c565b90565b346103e1576000806003193601126103de576040519080600354610301816117f5565b80855291600191808316908115610396575060011461033b575b6103378561032b818703826118d0565b604051918291826102ca565b0390f35b9250600383527fc2575a0e9e593c00f959f8c92f12db2869c3395a3b0502d05e2516446f71f85b5b82841061037e57505050810160200161032b8261033761031b565b80546020858701810191909152909301928101610363565b8695506103379693506020925061032b9491507fffffffffffffffffffffffffffffffffffffffffffffffffffffffffffffff001682840152151560051b820101929361031b565b80fd5b600080fd5b600435906001600160a01b03821682036103e157565b602435906001600160a01b03821682036103e157565b346103e15760406003193601126103e15761043861042e6103e6565b6024359033611b77565b602060405160018152f35b346103e15760006003193601126103e1576020600254604051908152f35b346103e15760606003193601126103e15761043861047d6103e6565b6104856103fc565b60443591610494833383611cdb565b611a3d565b346103e15760006003193601126103e157602060405160128152f35b346103e15760006003193601126103e15760206104d0612ac2565b604051908152f35b346103e15760406003193601126103e1576104f16103e6565b33600052600160205261051b816040600020906001600160a01b0316600052602052604060002090565b546024358101809111610532576104389133611b77565b611911565b346103e15760406003193601126103e1576105506103e6565b6001600160a01b036024359161057765ffffffffffff61056f43613039565b168410611fc0565b16600052600f60205260406000208054916000836005811161064a575b50905b8382106105f9575050816105d2575050602060005b7bffffffffffffffffffffffffffffffffffffffffffffffffffffffff60405191168152f35b6105ed6105f491600019602094019060005260206000200190565b5460201c90565b6105ac565b90926106058185612e3f565b908263ffffffff61062a610620858860005260206000200190565b5463ffffffff1690565b16111561063a5750925b90610597565b935061064590611940565b610634565b8061065a61066092969396612e54565b9061201a565b908263ffffffff61067b610620858860005260206000200190565b16111561068b5750925b38610594565b935061069690611940565b610685565b346103e15760006003193601126103e1576106b461179d565b60095460ff8160a01c1615610714577fffffffffffffffffffffff00ffffffffffffffffffffffffffffffffffffffff166009557f5db9ee0a495bf2e6ff9c91a7834c1ba4fdd244a5e8aa4e537bd38aeae4b073aa6020604051338152a1005b606460405162461bcd60e51b815260206004820152601460248201527f5061757361626c653a206e6f74207061757365640000000000000000000000006044820152fd5b346103e15760406003193601126103e1576107716103e6565b6024356001600160a01b0382169182156108335781816108319461079761080294613184565b6107ab6107a68460025461194e565b600255565b6107c8826001600160a01b03166000526000602052604060002090565b8054840190556040518381526000907fddf252ad1be2c89b69c2b068fc378daa952ba7f163c4a11628f55a4df523b3ef90602090a36133d5565b61082c7bffffffffffffffffffffffffffffffffffffffffffffffffffffffff6002541115613486565b612493565b005b606460405162461bcd60e51b815260206004820152601f60248201527f45524332303a206d696e7420746f20746865207a65726f2061646472657373006044820152fd5b346103e15760206003193601126103e1576004353315610935576108319061089e3361319d565b806108bc336001600160a01b03166000526000602052604060002090565b546108c9828210156134f7565b036108e7336001600160a01b03166000526000602052604060002090565b556108f58160025403600255565b60405181815260009033907fddf252ad1be2c89b69c2b068fc378daa952ba7f163c4a11628f55a4df523b3ef90602090a36109308133613420565b6125f1565b608460405162461bcd60e51b815260206004820152602160248201527f45524332303a206275726e2066726f6d20746865207a65726f2061646472657360448201527f73000000000000000000000000000000000000000000000000000000000000006064820152fd5b346103e15760006003193601126103e1574365ffffffffffff6109c143613039565b1603610a0c576103376040516109d681611877565b601d81527f6d6f64653d626c6f636b6e756d6265722666726f6d3d64656661756c740000006020820152604051918291826102ca565b606460405162461bcd60e51b815260206004820152601d60248201527f4552433230566f7465733a2062726f6b656e20636c6f636b206d6f64650000006044820152fd5b346103e15760406003193601126103e15760206001600160a01b03610a736103e6565b16600081815260058352610a8c60408220602435611f55565b929015610a9d575050604051908152f35b60409250815280835220546104d0565b346103e15760206003193601126103e15760206001600160a01b0380610ad16103e6565b16600052600e825260406000205416604051908152f35b346103e15760206003193601126103e157610831610b046103e6565b33612072565b346103e15760006003193601126103e157602060ff60095460a01c166040519015158152f35b346103e15760206003193601126103e1576001600160a01b03610b516103e6565b16600052600f6020526020610b6a6040600020546130b6565b63ffffffff60405191168152f35b346103e15760206003193601126103e1576001600160a01b03610b996103e6565b1660005260006020526020604060002054604051908152f35b346103e1576000806003193601126103de57610bcc61179d565b806001600160a01b036009547fffffffffffffffffffffffff00000000000000000000000000000000000000008116600955167f8be0079c531659141344cd1fd0a4f28419497f9722a3daafe3b4186f6b6457e08280a380f35b346103e15760406003193601126103e157610c3f6103e6565b602435610c4d813384611cdb565b6001600160a01b038216918215610935578181600061083195610c726109309561319d565b83610c90846001600160a01b03166000526000602052604060002090565b54610c9d828210156134f7565b03610cbb846001600160a01b03166000526000602052604060002090565b55610cc98460025403600255565b6040518481527fddf252ad1be2c89b69c2b068fc378daa952ba7f163c4a11628f55a4df523b3ef90602090a3613420565b346103e15760206003193601126103e1576001600160a01b03610d1b6103e6565b16600052600c6020526020604060002054604051908152f35b346103e15760006003193601126103e157610d4d61179d565b610d55613131565b740100000000000000000000000000000000000000007fffffffffffffffffffffff00ffffffffffffffffffffffffffffffffffffffff60095416176009557f62e78cea01bee320cd4e420270b5ea74000d11b0c9f74754ebdbfc544b05a2586020604051338152a1005b346103e1576000806003193601126103de57610e8690610dff7f0000000000000000000000000000000000000000000000000000000000000000612c1d565b610e287f0000000000000000000000000000000000000000000000000000000000000000612d4c565b9160405191610e3683611898565b8183526040519485947f0f000000000000000000000000000000000000000000000000000000000000008652610e7860209360e08589015260e088019061026c565b90868203604088015261026c565b904660608601523060808601528260a086015284820360c08601528080855193848152019401925b828110610ebd57505050500390f35b835185528695509381019392810192600101610eae565b346103e15760006003193601126103e15760206001600160a01b0360095416604051908152f35b346103e15760206003193601126103e157600435610f2a65ffffffffffff610f2243613039565b168210611fc0565b6010549060008260058111610fed575b50905b828210610f8a578280610f57575060405160008152602090f35b60106000526020906105f4907f1b6847dc741a1b0cd08d278845f9d819d87b734759afb55fe2de5cb82a9ae671016105ed565b9091610f968184612e3f565b6010600052908263ffffffff610fcd7f1b6847dc741a1b0cd08d278845f9d819d87b734759afb55fe2de5cb82a9ae6728501610620565b161115610fdd5750915b90610f3d565b9250610fe890611940565b610fd7565b8061065a610ffd92959395612e54565b6010600052908263ffffffff6110347f1b6847dc741a1b0cd08d278845f9d819d87b734759afb55fe2de5cb82a9ae6728501610620565b1611156110445750915b38610f3a565b925061104f90611940565b61103e565b346103e15760006003193601126103e157602061107043613039565b65ffffffffffff60405191168152f35b346103e1576000806003193601126103de5760405190806004546110a3816117f5565b8085529160019180831690811561039657506001146110cc576103378561032b818703826118d0565b9250600483527f8a35acfbc15ff81a39ae7d344fd709f28e8600b4aa8c65c6b64bfe7fe36bd19b5b82841061110f57505050810160200161032b8261033761031b565b805460208587018101919091529093019281016110f4565b346103e15760006003193601126103e15761114061179d565b7f8030e83b04d87bef53480e26263266d6ca66863aa8506aca6f2559d18aa1cb67602060016008540180600855604051908152a1005b346103e15760206003193601126103e157611192600435611ecb565b90156111a357602090604051908152f35b5060206002546104d0565b346103e15760206003193601126103e1576001600160a01b036111cf6103e6565b16600052600f6020526040600020805480156000146111f657505060405160008152602090f35b602091600019611207920190611eb3565b5054811c6105ac565b346103e15760406003193601126103e1576112296103e6565b60243590336000526001602052611257816040600020906001600160a01b0316600052602052604060002090565b54918083106112785761126c92039033611b77565b60405160018152602090f35b608460405162461bcd60e51b815260206004820152602560248201527f45524332303a2064656372656173656420616c6c6f77616e63652062656c6f7760448201527f207a65726f0000000000000000000000000000000000000000000000000000006064820152fd5b346103e15760406003193601126103e1576104386112fe6103e6565b6024359033611a3d565b6064359060ff821682036103e157565b6084359060ff821682036103e157565b346103e15760c06003193601126103e1576113416103e6565b60443590602435611350611308565b92804211611431576113ff61142c9161083195604051906113e7826113bb6020820195898b886060919493926001600160a01b0360808301967fe48329057bfd03d55e49b547132e39cffd9c1820ad7b9d4c5307691425d15adf845216602083015260408201520152565b037fffffffffffffffffffffffffffffffffffffffffffffffffffffffffffffffe081018452836118d0565b6113fa60a4359360843593519020612bdc565b6128a8565b91611426836001600160a01b0316600052600c602052604060002090815491600183019055565b14612027565b612072565b606460405162461bcd60e51b815260206004820152601d60248201527f4552433230566f7465733a207369676e617475726520657870697265640000006044820152fd5b346103e15760e06003193601126103e15761148e6103e6565b6114966103fc565b60443590606435926114a6611318565b938042116115755761155d611570916113bb6108319761154a6114e5876001600160a01b0316600052600c602052604060002090815491600183019055565b9360405193849160208301968c8c8c8a91959493909260a09360c08401977f6e71edae12b1b97f4d1f60370fef10105fa2faae0126114a169c64845d6126c985526001600160a01b038092166020860152166040840152606083015260808201520152565b6113fa60c4359360a43593519020612bdc565b6001600160a01b03808416911614611d80565b611b77565b606460405162461bcd60e51b815260206004820152601d60248201527f45524332305065726d69743a206578706972656420646561646c696e650000006044820152fd5b346103e15760406003193601126103e157602061160d6115d76103e6565b6001600160a01b036115e76103fc565b9116600052600183526040600020906001600160a01b0316600052602052604060002090565b54604051908152f35b346103e15760406003193601126103e15761162f6103e6565b63ffffffff60243581811681036103e157602061169b6116957bffffffffffffffffffffffffffffffffffffffffffffffffffffffff936001600160a01b036040976000868a5161167f81611877565b828152015216600052600f845286600020611eb3565b50611f9e565b84519381511684520151166020820152f35b346103e15760206003193601126103e1576116c66103e6565b6116ce61179d565b6001600160a01b0380911690811561173357600954827fffffffffffffffffffffffff0000000000000000000000000000000000000000821617600955167f8be0079c531659141344cd1fd0a4f28419497f9722a3daafe3b4186f6b6457e0600080a3005b608460405162461bcd60e51b815260206004820152602660248201527f4f776e61626c653a206e6577206f776e657220697320746865207a65726f206160448201527f64647265737300000000000000000000000000000000000000000000000000006064820152fd5b6001600160a01b036009541633036117b157565b606460405162461bcd60e51b815260206004820152602060248201527f4f776e61626c653a2063616c6c6572206973206e6f7420746865206f776e65726044820152fd5b90600182811c9216801561183e575b602083101461180f57565b7f4e487b7100000000000000000000000000000000000000000000000000000000600052602260045260246000fd5b91607f1691611804565b7f4e487b7100000000000000000000000000000000000000000000000000000000600052604160045260246000fd5b6040810190811067ffffffffffffffff82111761189357604052565b611848565b6020810190811067ffffffffffffffff82111761189357604052565b60c0810190811067ffffffffffffffff82111761189357604052565b90601f7fffffffffffffffffffffffffffffffffffffffffffffffffffffffffffffffe0910116810190811067ffffffffffffffff82111761189357604052565b7f4e487b7100000000000000000000000000000000000000000000000000000000600052601160045260246000fd5b906001820180921161053257565b9190820180921161053257565b1561196257565b608460405162461bcd60e51b815260206004820152602360248201527f45524332303a207472616e7366657220746f20746865207a65726f206164647260448201527f65737300000000000000000000000000000000000000000000000000000000006064820152fd5b156119d357565b608460405162461bcd60e51b815260206004820152602660248201527f45524332303a207472616e7366657220616d6f756e742065786365656473206260448201527f616c616e636500000000000000000000000000000000000000000000000000006064820152fd5b91906001600160a01b03928381168015611b0d57611b0b94831690611a6382151561195b565b611a6d8484613246565b84611a8b846001600160a01b03166000526000602052604060002090565b54611a98828210156119cc565b03611ab6846001600160a01b03166000526000602052604060002090565b55611ad4846001600160a01b03166000526000602052604060002090565b8054860190556040518581527fddf252ad1be2c89b69c2b068fc378daa952ba7f163c4a11628f55a4df523b3ef90602090a3613452565b565b608460405162461bcd60e51b815260206004820152602560248201527f45524332303a207472616e736665722066726f6d20746865207a65726f20616460448201527f64726573730000000000000000000000000000000000000000000000000000006064820152fd5b906001600160a01b0391828116928315611c72578216938415611c085780611bf27f8c5be1e5ebec7d5bd14f71427d1e84f3dd0314c0f7b2291e5b200ac8c7c3b92594611bda611c03956001600160a01b03166000526001602052604060002090565b906001600160a01b0316600052602052604060002090565b556040519081529081906020820190565b0390a3565b608460405162461bcd60e51b815260206004820152602260248201527f45524332303a20617070726f766520746f20746865207a65726f20616464726560448201527f73730000000000000000000000000000000000000000000000000000000000006064820152fd5b608460405162461bcd60e51b8152602060048201526024808201527f45524332303a20617070726f76652066726f6d20746865207a65726f2061646460448201527f72657373000000000000000000000000000000000000000000000000000000006064820152fd5b906001600160a01b0382166000526001602052611d0f816040600020906001600160a01b0316600052602052604060002090565b54926000198403611d21575b50505050565b808410611d3c57611d33930391611b77565b38808080611d1b565b606460405162461bcd60e51b815260206004820152601d60248201527f45524332303a20696e73756666696369656e7420616c6c6f77616e63650000006044820152fd5b15611d8757565b606460405162461bcd60e51b815260206004820152601e60248201527f45524332305065726d69743a20696e76616c6964207369676e617475726500006044820152fd5b15611dd257565b606460405162461bcd60e51b815260206004820152601d60248201527f4552433230536e617073686f743a206e6f6e6578697374656e742069640000006044820152fd5b600754811015611e4d5760076000527fa66cc928b5edb82af9bd49922954155ab7b0942694bea4ce44661d9a8736c6880190600090565b7f4e487b7100000000000000000000000000000000000000000000000000000000600052603260045260246000fd5b600654811015611e4d5760066000527ff652222313e28459528d920b65115c16c04f3efc82aaedc97be59f3f377c0d3f0190600090565b8054821015611e4d5760005260206000200190600090565b8015611f1157611ee890611ee3600854821115611dcb565b61274e565b6006548103611efa5750600090600090565b611f0390611e16565b90549060031b1c9060019190565b606460405162461bcd60e51b815260206004820152601660248201527f4552433230536e617073686f743a2069642069732030000000000000000000006044820152fd5b8015611f1157611f7390611f6d600854821115611dcb565b8261281d565b81548103611f85575050600090600090565b6001611f039201611eb3565b60405190611b0b82611877565b90604051611fab81611877565b602081935463ffffffff81168352811c910152565b15611fc757565b606460405162461bcd60e51b815260206004820152601960248201527f4552433230566f7465733a20667574757265206c6f6f6b7570000000000000006044820152fd5b90600019820191821161053257565b9190820391821161053257565b1561202e57565b606460405162461bcd60e51b815260206004820152601960248201527f4552433230566f7465733a20696e76616c6964206e6f6e6365000000000000006044820152fd5b611b0b916001600160a01b03809216600092818452600e602052806040852054168092856020527f3134e8a2e6d97e929a7e54011ea5485d7d196dd5f0ba4d4ef95803e8e3fc257f604087205496600e6020526040812094871694857fffffffffffffffffffffffff000000000000000000000000000000000000000082541617905580a45b91906001600160a01b0380821693168381141580612370575b61211b5750505050565b8061218e575b508261212e575b80611d1b565b7fdec2bacdd2f05b59de34da9b523dff8be42e5e38e818c82fdb0bae774387a72491612170612175926001600160a01b0316600052600f602052604060002090565b61267e565b60408051928352602083019190915290a2388080612128565b80600052600f6020527fdec2bacdd2f05b59de34da9b523dff8be42e5e38e818c82fdb0bae774387a724604060002080548015918260001461234d576121d2611f91565b6000815260006020820152915b61222c61220b60208501517bffffffffffffffffffffffffffffffffffffffffffffffffffffffff1690565b7bffffffffffffffffffffffffffffffffffffffffffffffffffffffff1690565b926122378985613568565b9415908161232a575b50156122b35761226861229d9260001961225987612fa6565b93019060005260206000200190565b9063ffffffff7fffffffffffffffffffffffffffffffffffffffffffffffffffffffff0000000083549260201b169116179055565b604080519182526020820192909252a238612121565b50612325906122d76122d26122c743613039565b65ffffffffffff1690565b6130b6565b906123206122e486612fa6565b6122fb6122ef611f91565b63ffffffff9095168552565b7bffffffffffffffffffffffffffffffffffffffffffffffffffffffff166020840152565b612400565b61229d565b5163ffffffff16905063ffffffff6123446122c743613039565b91161438612240565b61236a61236560001984018360005260206000200190565b611f9e565b916121df565b50821515612111565b6010549068010000000000000000821015611893576001820180601055821015611e4d576010600052805160209182015190911b7fffffffffffffffffffffffffffffffffffffffffffffffffffffffff000000001663ffffffff91909116177f1b6847dc741a1b0cd08d278845f9d819d87b734759afb55fe2de5cb82a9ae67290910155565b8054680100000000000000008110156118935761242291600182018155611eb3565b61246457815160209283015190921b7fffffffffffffffffffffffffffffffffffffffffffffffffffffffff000000001663ffffffff92909216919091179055565b7f4e487b7100000000000000000000000000000000000000000000000000000000600052600060045260246000fd5b601054909181159182156125bc576124a9611f91565b60008152600060208201525b6124eb6124e461220b60208401517bffffffffffffffffffffffffffffffffffffffffffffffffffffffff1690565b9586613575565b93159081612599575b501561253957611b0b9061226860001961250d86612fa6565b920160106000527f1b6847dc741a1b0cd08d278845f9d819d87b734759afb55fe2de5cb82a9ae6720190565b50611b0b61254c6122d26122c743613039565b61259461255885612fa6565b61256f612563611f91565b63ffffffff9094168452565b7bffffffffffffffffffffffffffffffffffffffffffffffffffffffff166020830152565b612379565b5163ffffffff16905063ffffffff6125b36122c743613039565b911614386124f4565b60106000526125ec7f1b6847dc741a1b0cd08d278845f9d819d87b734759afb55fe2de5cb82a9ae6718201611f9e565b6124b5565b6010549091811591821561264957612607611f91565b60008152600060208201525b6124eb61264261220b60208401517bffffffffffffffffffffffffffffffffffffffffffffffffffffffff1690565b9586613568565b60106000526126797f1b6847dc741a1b0cd08d278845f9d819d87b734759afb55fe2de5cb82a9ae6718201611f9e565b612613565b90918154918215928360001461273157612696611f91565b60008152600060208201525b6126d86126d161220b60208401517bffffffffffffffffffffffffffffffffffffffffffffffffffffffff1690565b9687613575565b9415908161270e575b50156126fa57612268611b0b9260001961225987612fa6565b50611b0b906122d76122d26122c743613039565b5163ffffffff16905063ffffffff6127286122c743613039565b911614386126e1565b61274961236560001983018460005260206000200190565b6126a2565b60069081549182156128155760009081935b8085106127c3575050508115159081612783575b50156102db576102db9061200b565b90506127bb6127918361200b565b60066000527ff652222313e28459528d920b65115c16c04f3efc82aaedc97be59f3f377c0d3f0190565b541438612774565b6127cd8186612e3f565b9082845284827ff652222313e28459528d920b65115c16c04f3efc82aaedc97be59f3f377c0d3f0154116000146128045750612760565b945061280f90611940565b93612760565b505050600090565b805491821561281557600080935b808510612873575050821515918261284e575b5050156102db576102db9061200b565b61286a91925061285d8461200b565b9060005260206000200190565b5414388061283e565b61287d8186612e3f565b90848352838260208520015411600014612897575061282b565b94506128a290611940565b9361282b565b916102db93916128b793612a33565b9190916128f8565b600511156128c957565b7f4e487b7100000000000000000000000000000000000000000000000000000000600052602160045260246000fd5b612901816128bf565b806129095750565b612912816128bf565b6001810361295f5760405162461bcd60e51b815260206004820152601860248201527f45434453413a20696e76616c6964207369676e617475726500000000000000006044820152606490fd5b612968816128bf565b600281036129b55760405162461bcd60e51b815260206004820152601f60248201527f45434453413a20696e76616c6964207369676e6174757265206c656e677468006044820152606490fd5b806129c16003926128bf565b146129c857565b60405162461bcd60e51b815260206004820152602260248201527f45434453413a20696e76616c6964207369676e6174757265202773272076616c60448201527f75650000000000000000000000000000000000000000000000000000000000006064820152608490fd5b9291907f7fffffffffffffffffffffffffffffff5d576e7357a4501ddfe92f46681b20a08311612ab65791608094939160ff602094604051948552168484015260408301526060820152600093849182805260015afa15612aa95781516001600160a01b03811615612aa3579190565b50600190565b50604051903d90823e3d90fd5b50505050600090600390565b6001600160a01b037f000000000000000000000000000000000000000000000000000000000000000016301480612bb3575b15612b1d577f000000000000000000000000000000000000000000000000000000000000000090565b60405160208101907f8b73c3c69bb8fe3d512ecc4cf759cc79239f7b179b0ffacaa9a75d522b39400f82527f000000000000000000000000000000000000000000000000000000000000000060408201527f000000000000000000000000000000000000000000000000000000000000000060608201524660808201523060a082015260a08152612bad816118b4565b51902090565b507f00000000000000000000000000000000000000000000000000000000000000004614612af4565b604290612be7612ac2565b90604051917f19010000000000000000000000000000000000000000000000000000000000008352600283015260228201522090565b60ff8114612c735760ff811690601f8211612c495760405191612c3f83611877565b8252602082015290565b60046040517fb3512b0c000000000000000000000000000000000000000000000000000000008152fd5b50604051600a54816000612c86836117f5565b80835292600190818116908115612d0c5750600114612cad575b506102db925003826118d0565b600a600090815291507fc65a7bb8d6351c1cf70c95a316cc6a92839c986682d98bc35f958f4883f9d2a85b848310612cf157506102db935050810160200138612ca0565b81935090816020925483858901015201910190918492612cd8565b602093506102db9592507fffffffffffffffffffffffffffffffffffffffffffffffffffffffffffffff0091501682840152151560051b82010138612ca0565b60ff8114612d6e5760ff811690601f8211612c495760405191612c3f83611877565b50604051600b54816000612d81836117f5565b80835292600190818116908115612d0c5750600114612da757506102db925003826118d0565b600b600090815291507f0175b7a638427703f0dbe7bb9bbf987a2551717b34e79f33b5b1008d1fa01db95b848310612deb57506102db935050810160200138612ca0565b81935090816020925483858901015201910190918492612dd2565b8115612e10570490565b7f4e487b7100000000000000000000000000000000000000000000000000000000600052601260045260246000fd5b90808216911860011c81018091116105325790565b8015612f8e5780612f27612f20612f16612f0c612f02612ef8612eee612ee460016102db9a6000908b60801c80612f82575b508060401c80612f75575b508060201c80612f68575b508060101c80612f5b575b508060081c80612f4e575b508060041c80612f41575b508060021c80612f34575b50821c612f2d575b811c1b612edd818b612e06565b0160011c90565b612edd818a612e06565b612edd8189612e06565b612edd8188612e06565b612edd8187612e06565b612edd8186612e06565b612edd8185612e06565b8092612e06565b90612f94565b8101612ed0565b6002915091019038612ec8565b6004915091019038612ebd565b6008915091019038612eb2565b6010915091019038612ea7565b6020915091019038612e9c565b6040915091019038612e91565b91505060809038612e86565b50600090565b9080821015612fa1575090565b905090565b7bffffffffffffffffffffffffffffffffffffffffffffffffffffffff90818111612fcf571690565b608460405162461bcd60e51b815260206004820152602760248201527f53616665436173743a2076616c756520646f65736e27742066697420696e203260448201527f32342062697473000000000000000000000000000000000000000000000000006064820152fd5b65ffffffffffff9081811161304c571690565b608460405162461bcd60e51b815260206004820152602660248201527f53616665436173743a2076616c756520646f65736e27742066697420696e203460448201527f38206269747300000000000000000000000000000000000000000000000000006064820152fd5b63ffffffff908181116130c7571690565b608460405162461bcd60e51b815260206004820152602660248201527f53616665436173743a2076616c756520646f65736e27742066697420696e203360448201527f32206269747300000000000000000000000000000000000000000000000000006064820152fd5b60ff60095460a01c1661314057565b606460405162461bcd60e51b815260206004820152601060248201527f5061757361626c653a20706175736564000000000000000000000000000000006044820152fd5b61319590613190613131565b613281565b611b0b6132c9565b6131a5613131565b6001600160a01b03811661323d575060008080526020527fad3228b676f7d3cd4284a5443f17f1962b36e491b30a40b2405849e597ba5fb5546008547f05b8ccbb9d4d8fb16ea74ce3c29a41f1b461fbdaff4714a0d9a8eb05499746bc91908061320e846133b2565b1061321f575b505050611b0b6132c9565b8261322f6001926132359561334c565b0161334c565b388080613214565b61319590613281565b9061324f613131565b6001600160a01b0382811661326957506131959150613281565b8116613279575061319590613281565b613190611b0b925b6001600160a01b0316600052600560205260406000206000602052604060002054600854806132af846133b2565b106132b957505050565b8261322f600192611b0b9561334c565b60025460085490816132d9613385565b106132e2575050565b600654680100000000000000009081811015611893578060016133089201600655611e7c565b81549060031b906000198096831b921b191617905560075490811015611893578060016133389201600755611e16565b909283549160031b92831b921b1916179055565b8054680100000000000000008110156118935761336e91600182018155611eb3565b600019829392549160031b92831b921b1916179055565b600654806133935750600090565b6000198101908111610532576133a890611e7c565b90549060031b1c90565b8054806133c0575050600090565b6000198101908111610532576133a891611eb3565b600e6020527fe710864318d4a32f37d6ce54cb3fadbef648dd12d8dbdf53973564d56b7f881c546001600160a01b0391821660009081526040902054611b0b939290811691166120f8565b90611b0b916001600160a01b03809116600052600e6020528060406000205416906000805260406000205416906120f8565b90611b0b92916001600160a01b03809116600052600e602052808060406000205416921660005260406000205416906120f8565b1561348d57565b608460405162461bcd60e51b815260206004820152603060248201527f4552433230566f7465733a20746f74616c20737570706c79207269736b73206f60448201527f766572666c6f77696e6720766f746573000000000000000000000000000000006064820152fd5b156134fe57565b608460405162461bcd60e51b815260206004820152602260248201527f45524332303a206275726e20616d6f756e7420657863656564732062616c616e60448201527f63650000000000000000000000000000000000000000000000000000000000006064820152fd5b9081039081116105325790565b908101809111610532579056fea26469706673582212200608f1b15a882b7f4be6e7de707b22f1407fc40e64f5f6b0ca9bb2d492c5951364736f6c634300081300331b6847dc741a1b0cd08d278845f9d819d87b734759afb55fe2de5cb82a9ae671dec2bacdd2f05b59de34da9b523dff8be42e5e38e818c82fdb0bae774387a724",
  "linkReferences": {},
  "deployedLinkReferences": {}
}