{
  "_format": "hh-sol-artifact-1",
  "contractName": "SismoPKP",
  "sourceName": "contracts/SismoPKP.sol",
  "abi": [
    {
      "inputs": [
        {
          "internalType": "address",
          "name": "_verifierContract",
          "type": "address"
        }
      ],
      "stateMutability": "nonpayable",
      "type": "constructor"
    },
    {
      "inputs": [
        {
          "internalType": "uint256",
          "name": "",
          "type": "uint256"
        }
      ],
      "name": "allVaultIds",
      "outputs": [
        {
          "internalType": "bytes32",
          "name": "",
          "type": "bytes32"
        }
      ],
      "stateMutability": "view",
      "type": "function"
    },
    {
      "inputs": [
        {
          "internalType": "bytes",
          "name": "sismoConnectResponse",
          "type": "bytes"
        },
        {
          "internalType": "bytes32",
          "name": "appId",
          "type": "bytes32"
        },
        {
          "internalType": "bytes32",
          "name": "onetimePass",
          "type": "bytes32"
        }
      ],
      "name": "createPassKey",
      "outputs": [
        {
          "internalType": "bytes32",
          "name": "",
          "type": "bytes32"
        }
      ],
      "stateMutability": "nonpayable",
      "type": "function"
    },
    {
      "inputs": [
        {
          "internalType": "bytes",
          "name": "sismoConnectResponse",
          "type": "bytes"
        },
        {
          "internalType": "bytes32",
          "name": "appId",
          "type": "bytes32"
        },
        {
          "internalType": "bytes32",
          "name": "onetimePass",
          "type": "bytes32"
        }
      ],
      "name": "getPassKey",
      "outputs": [
        {
          "internalType": "bytes32",
          "name": "",
          "type": "bytes32"
        }
      ],
      "stateMutability": "view",
      "type": "function"
    },
    {
      "inputs": [
        {
          "internalType": "bytes32",
          "name": "encryptedVaultId",
          "type": "bytes32"
        },
        {
          "internalType": "bytes32",
          "name": "appId",
          "type": "bytes32"
        }
      ],
      "name": "getWalletInfo",
      "outputs": [
        {
          "internalType": "bytes",
          "name": "",
          "type": "bytes"
        }
      ],
      "stateMutability": "view",
      "type": "function"
    },
    {
      "inputs": [
        {
          "internalType": "bytes32",
          "name": "encryptedVaultId",
          "type": "bytes32"
        },
        {
          "internalType": "bytes32",
          "name": "appId",
          "type": "bytes32"
        },
        {
          "internalType": "bytes",
          "name": "walletInfo",
          "type": "bytes"
        }
      ],
      "name": "setWalletInfo",
      "outputs": [],
      "stateMutability": "nonpayable",
      "type": "function"
    },
    {
      "inputs": [],
      "name": "verifierContract",
      "outputs": [
        {
          "internalType": "address",
          "name": "",
          "type": "address"
        }
      ],
      "stateMutability": "view",
      "type": "function"
    }
  ],
  "bytecode": "0x60803461007457601f6108c138819003918201601f19168301916001600160401b038311848410176100795780849260209460405283398101031261007457516001600160a01b0381169081900361007457600380546001600160a01b03191691909117905560405161083190816100908239f35b600080fd5b634e487b7160e01b600052604160045260246000fdfe6040608081526004908136101561001557600080fd5b600091823560e01c908163018f6e4c146104b65781631e052ed5146103cf5781633ffe9e82146101aa57816344825dd6146100ce575080637b4ba669146100905763cf6956881461006557600080fd5b3461008c578160031936011261008c5760035490516001600160a01b039091168152602090f35b5080fd5b503461008c57806020926100af6100a636610627565b908093926106dc565b5090825260018552828220908581519101208252845220549051908152f35b83833461008c576100e16100a636610627565b9390835194602095868101904282524487820152868152606081019181831067ffffffffffffffff8411176101975791610178608089989795938b620186a08b9997866101699e52835190200695838301964288524460a085015260c0840152610154815180928460e08701910161053f565b820187519c8d9289019d8e60e084019061053f565b01036060810184520182610587565b5190209586948352600188528383209151902082528652205551908152f35b634e487b7160e01b865260418a52602486fd5b9050346103cb5760603660031901126103cb5780359167ffffffffffffffff6024356044358281116103c7576101e390369086016105db565b9281875260209187835281882087895283526102018289205461065d565b610384578752868252808720868852825286209280519283116103715790829161022b855461065d565b601f8111610321575b5081601f84116001146102bb575087926102b0575b50508160011b916000199060031b1c19161790555b600254906801000000000000000082101561029d575080600161028492016002556104f2565b819291549060031b91821b91600019901b191617905580f35b634e487b7160e01b845260419052602483fd5b015190503880610249565b8589528089209350601f1985169089905b8282106103095750509084600195949392106102f0575b505050811b01905561025e565b015160001960f88460031b161c191690553880806102e3565b806001869782949787015181550196019401906102cc565b90919250848852828820601f850160051c810191848610610367575b90601f86959493920160051c01905b8181106103595750610234565b89815585945060010161034c565b909150819061033d565b634e487b7160e01b875260418552602487fd5b815162461bcd60e51b8152808701849052601a60248201527f57616c6c657420696e666f20616c7265616479206578697374730000000000006044820152606490fd5b8680fd5b8280fd5b919050346103cb57806003193601126103cb57602435835260209183835281842090358452825280832081519384918181549061040b8261065d565b9283865260019288848216918260001461048c57505060011461044e575b858861044a8961043b848a0385610587565b51928284938452830190610562565b0390f35b87945081939291528383205b828410610474575050508201018161043b61044a38610429565b8054848a01860152889550879490930192810161045a565b60ff19168882015294151560051b8701909401945085935061043b925061044a9150389050610429565b9050346103cb5760203660031901126103cb5735916002548310156104ef57506104e16020926104f2565b91905490519160031b1c8152f35b80fd5b6002548110156105295760026000527f405787fa12a823e0f2b7631cc41b3ba8828b3321ca811111fa75cd3aa3bb5ace0190600090565b634e487b7160e01b600052603260045260246000fd5b60005b8381106105525750506000910152565b8181015183820152602001610542565b9060209161057b8151809281855285808601910161053f565b601f01601f1916010190565b90601f8019910116810190811067ffffffffffffffff8211176105a957604052565b634e487b7160e01b600052604160045260246000fd5b67ffffffffffffffff81116105a957601f01601f191660200190565b81601f82011215610622578035906105f2826105bf565b926106006040519485610587565b8284526020838301011161062257816000926020809301838601378301015290565b600080fd5b6060600319820112610622576004359067ffffffffffffffff821161062257610652916004016105db565b906024359060443590565b90600182811c9216801561068d575b602083101461067757565b634e487b7160e01b600052602260045260246000fd5b91607f169161066c565b81601f820112156106225780516106ad816105bf565b926106bb6040519485610587565b81845260208284010111610622576106d9916020808501910161053f565b90565b92916107119160018060a01b0360035416946040519586948592632bb0110160e01b8452606060048501526064840190610562565b92602483015283604483015281600097889403915afa9384156107ef578092819561078d575b506020858051810103126104ef5750602084015103610754579190565b60405162461bcd60e51b815260206004820152601160248201527057524f4e475f4f4e4554494d455041535360781b6044820152606490fd5b925093503d8085843e6107a08184610587565b8201916040818403126107eb5780519267ffffffffffffffff938481116103c757816107cd918401610697565b9360208301519081116103c7576107e49201610697565b9338610737565b8480fd5b604051903d90823e3d90fdfea26469706673582212207bd558ea87c09128cc006c64b8cad998bde5ab36249ce6c69ffdbc8bb74b010264736f6c63430008130033",
  "linkReferences": {},
  "deployedLinkReferences": {}
}