{
  "_format": "hh-sol-artifact-1",
  "contractName": "SismoConnect",
  "sourceName": "contracts/helpers/SismoConnectLib.sol",
  "abi": [
    {
      "inputs": [
        {
          "components": [
            {
              "internalType": "bytes16",
              "name": "appId",
              "type": "bytes16"
            },
            {
              "components": [
                {
                  "internalType": "bool",
                  "name": "isImpersonationMode",
                  "type": "bool"
                }
              ],
              "internalType": "struct VaultConfig",
              "name": "vault",
              "type": "tuple"
            }
          ],
          "internalType": "struct SismoConnectConfig",
          "name": "_config",
          "type": "tuple"
        }
      ],
      "stateMutability": "nonpayable",
      "type": "constructor"
    },
    {
      "inputs": [],
      "name": "ADDRESSES_PROVIDER_V2",
      "outputs": [
        {
          "internalType": "contract IAddressesProvider",
          "name": "",
          "type": "address"
        }
      ],
      "stateMutability": "view",
      "type": "function"
    },
    {
      "inputs": [],
      "name": "APP_ID",
      "outputs": [
        {
          "internalType": "bytes16",
          "name": "",
          "type": "bytes16"
        }
      ],
      "stateMutability": "view",
      "type": "function"
    },
    {
      "inputs": [],
      "name": "IS_IMPERSONATION_MODE",
      "outputs": [
        {
          "internalType": "bool",
          "name": "",
          "type": "bool"
        }
      ],
      "stateMutability": "view",
      "type": "function"
    },
    {
      "inputs": [],
      "name": "SISMO_CONNECT_LIB_VERSION",
      "outputs": [
        {
          "internalType": "uint256",
          "name": "",
          "type": "uint256"
        }
      ],
      "stateMutability": "view",
      "type": "function"
    },
    {
      "inputs": [],
      "name": "config",
      "outputs": [
        {
          "components": [
            {
              "internalType": "bytes16",
              "name": "appId",
              "type": "bytes16"
            },
            {
              "components": [
                {
                  "internalType": "bool",
                  "name": "isImpersonationMode",
                  "type": "bool"
                }
              ],
              "internalType": "struct VaultConfig",
              "name": "vault",
              "type": "tuple"
            }
          ],
          "internalType": "struct SismoConnectConfig",
          "name": "",
          "type": "tuple"
        }
      ],
      "stateMutability": "view",
      "type": "function"
    }
  ],
  "bytecode": "0x610160604090808252346103d557806107a18038038091610020828561040b565b8339810103918083126103d55780516001600160401b0390808301828111828210176103da57835283516001600160801b0319929083811681036103d557825260208096601f1901126103d557835194868601918211868310176103da5786918552015180151581036103d5578452848101938452511691610120928352515115159061014091825280516100b4816103f0565b601981527f7369736d6f436f6e6e65637456657269666965722d76312e320000000000000085820152815190816100f963349f642f60e11b928383526004830161044d565b038683733cd5334eb64ebbd4003b72022cc25465f1bfcee69281845afa9283156103ca576000936103ab575b506001600160a01b039283166080528351610180908890610145816103f0565b601781527f61757468526571756573744275696c6465722d76312e31000000000000000000828201528651809381928783526004830161044d565b0381855afa9081156103665790849160009161038e575b501660a0526101e68785516101ab816103f0565b601881527f636c61696d526571756573744275696c6465722d76312e310000000000000000828201528651809381928783526004830161044d565b0381855afa90811561036657908491600091610371575b501660c05261024c878551610211816103f0565b601581527f7369676e61747572654275696c6465722d76312e310000000000000000000000828201528651809381928783526004830161044d565b0381855afa9081156103665791846102b694928a94600091610349575b501660e05285519161027a836103f0565b601383527f726571756573744275696c6465722d76312e310000000000000000000000000084840152865180958194829383526004830161044d565b03915afa95861561033e5760009661030f575b505061010094168452519161030a9384610497853960805184505060a05184505060c05184505060e0518450505183505051828181608b015261017b0152518160db0152f35b61032f929650803d10610337575b610327818361040b565b81019061042e565b9338806102c9565b503d61031d565b83513d6000823e3d90fd5b6103609150853d871161033757610327818361040b565b38610269565b85513d6000823e3d90fd5b6103889150893d8b1161033757610327818361040b565b386101fd565b6103a59150893d8b1161033757610327818361040b565b38610197565b6103c3919350873d891161033757610327818361040b565b9138610125565b84513d6000823e3d90fd5b600080fd5b634e487b7160e01b600052604160045260246000fd5b604081019081106001600160401b038211176103da57604052565b601f909101601f19168101906001600160401b038211908210176103da57604052565b908160209103126103d557516001600160a01b03811681036103d55790565b6020808252825181830181905290939260005b82811061048257505060409293506000838284010152601f8019910116010190565b81810186015184820160400152850161046056fe60806040818152600436101561001457600080fd5b600091823560e01c90816346916301146102505750806379502c5514610100578063a183dc27146100c4578063c187bbc1146100775763c9512d991461005957600080fd5b346100735781600319360112610073576020905160028152f35b5080fd5b5034610073578160031936011261007357517f00000000000000000000000000000000000000000000000000000000000000006fffffffffffffffffffffffffffffffff19168152602090f35b5034610073578160031936011261007357602090517f000000000000000000000000000000000000000000000000000000000000000015158152f35b50903461024d578060031936011261024d5761011a6102b4565b81815261012561027e565b8281526020809201526101366102b4565b8281528161014261027e565b9184835201528161015161027e565b5261015a61027e565b9182526101656102b4565b916fffffffffffffffffffffffffffffffff19807f00000000000000000000000000000000000000000000000000000000000000001680855283850192835215610211578151516101c157845193511683525151151590820152f35b845162461bcd60e51b815260048101849052602360248201527f696d706572736f6e6174696f6e206d6f6465206973206e6f7420737570706f726044820152621d195960ea1b6064820152608490fd5b845162461bcd60e51b815260048101849052601560248201527461707049642063616e6e6f7420626520656d70747960581b6044820152606490fd5b80fd5b83903461007357816003193601126100735780733cd5334eb64ebbd4003b72022cc25465f1bfcee660209252f35b604051906020820182811067ffffffffffffffff82111761029e57604052565b634e487b7160e01b600052604160045260246000fd5b604051906040820182811067ffffffffffffffff82111761029e5760405256fea2646970667358221220d45ed4cdc20d997e74865439b92ae12469a4e3585acc44d94a0280952ea55b8064736f6c63430008130033",
  "linkReferences": {},
  "deployedLinkReferences": {}
}