{
  "_format": "hh-sol-artifact-1",
  "contractName": "MecenateForwarderFactory",
  "sourceName": "contracts/factories/MecenateForwarderFactory.sol",
  "abi": [
    {
      "inputs": [
        {
          "internalType": "address",
          "name": "_mecenateVault",
          "type": "address"
        }
      ],
      "stateMutability": "nonpayable",
      "type": "constructor"
    },
    {
      "anonymous": false,
      "inputs": [
        {
          "indexed": true,
          "internalType": "address",
          "name": "forwarder",
          "type": "address"
        },
        {
          "indexed": false,
          "internalType": "bytes32",
          "name": "encryptedVaultId",
          "type": "bytes32"
        },
        {
          "indexed": false,
          "internalType": "address",
          "name": "vaultContract",
          "type": "address"
        }
      ],
      "name": "ForwarderCreated",
      "type": "event"
    },
    {
      "anonymous": false,
      "inputs": [
        {
          "indexed": true,
          "internalType": "address",
          "name": "previousOwner",
          "type": "address"
        },
        {
          "indexed": true,
          "internalType": "address",
          "name": "newOwner",
          "type": "address"
        }
      ],
      "name": "OwnershipTransferred",
      "type": "event"
    },
    {
      "inputs": [
        {
          "internalType": "address",
          "name": "_mecenateVault",
          "type": "address"
        }
      ],
      "name": "changeVault",
      "outputs": [],
      "stateMutability": "nonpayable",
      "type": "function"
    },
    {
      "inputs": [
        {
          "internalType": "bytes32",
          "name": "_encryptedVaultId",
          "type": "bytes32"
        }
      ],
      "name": "createforwarder",
      "outputs": [
        {
          "internalType": "address",
          "name": "",
          "type": "address"
        }
      ],
      "stateMutability": "nonpayable",
      "type": "function"
    },
    {
      "inputs": [
        {
          "internalType": "bytes32",
          "name": "",
          "type": "bytes32"
        }
      ],
      "name": "forwardersMapping",
      "outputs": [
        {
          "internalType": "address",
          "name": "",
          "type": "address"
        }
      ],
      "stateMutability": "view",
      "type": "function"
    },
    {
      "inputs": [],
      "name": "getVault",
      "outputs": [
        {
          "internalType": "address",
          "name": "",
          "type": "address"
        }
      ],
      "stateMutability": "view",
      "type": "function"
    },
    {
      "inputs": [
        {
          "internalType": "bytes32",
          "name": "_user",
          "type": "bytes32"
        }
      ],
      "name": "getforwarders",
      "outputs": [
        {
          "internalType": "address",
          "name": "",
          "type": "address"
        }
      ],
      "stateMutability": "view",
      "type": "function"
    },
    {
      "inputs": [],
      "name": "mecenateVault",
      "outputs": [
        {
          "internalType": "address",
          "name": "",
          "type": "address"
        }
      ],
      "stateMutability": "view",
      "type": "function"
    },
    {
      "inputs": [],
      "name": "owner",
      "outputs": [
        {
          "internalType": "address",
          "name": "",
          "type": "address"
        }
      ],
      "stateMutability": "view",
      "type": "function"
    },
    {
      "inputs": [],
      "name": "renounceOwnership",
      "outputs": [],
      "stateMutability": "nonpayable",
      "type": "function"
    },
    {
      "inputs": [
        {
          "internalType": "address",
          "name": "newOwner",
          "type": "address"
        }
      ],
      "name": "transferOwnership",
      "outputs": [],
      "stateMutability": "nonpayable",
      "type": "function"
    }
  ],
  "bytecode": "0x6080346100a757601f610a0b38819003918201601f19168301916001600160401b038311848410176100ac578084926020946040528339810103126100a757516001600160a01b0390818116908190036100a75760005460018060a01b0319903382821617600055604051933391167f8be0079c531659141344cd1fd0a4f28419497f9722a3daafe3b4186f6b6457e0600080a3600254161760025561094890816100c38239f35b600080fd5b634e487b7160e01b600052604160045260246000fdfe608060408181526004908136101561001657600080fd5b600092833560e01c90816305d45fad146103d95750806307c0e602146103a6578063541886b21461017f57806360e232a9146102fb578063715018a6146102a15780637ef0db66146101a85780638d928af81461017f5780638da5cb5b146101535763f2fde38b1461008757600080fd5b3461014f57602036600319011261014f576001600160a01b0382358181169391929084900361014b576100b861040a565b83156100f957505082546001600160a01b0319811683178455167f8be0079c531659141344cd1fd0a4f28419497f9722a3daafe3b4186f6b6457e08380a380f35b906020608492519162461bcd60e51b8352820152602660248201527f4f776e61626c653a206e6577206f776e657220697320746865207a65726f206160448201526564647265737360d01b6064820152fd5b8480fd5b8280fd5b83823461017b578160031936011261017b57905490516001600160a01b039091168152602090f35b5080fd5b83823461017b578160031936011261017b5760025490516001600160a01b039091168152602090f35b503461014f576020928360031936011261029e578235808252600185528282205490936001600160a01b0391821661025b578351906104b08083019183831067ffffffffffffffff8411176102485750859183916104638339878152308982015203019083f0801561023e5790839291169381526001855220826bffffffffffffffffffffffff60a01b82541617905551908152f35b83513d84823e3d90fd5b634e487b7160e01b865260419052602485fd5b835162461bcd60e51b8152908101869052601960248201527f666f7277617264657220616c72656164792063726561746564000000000000006044820152606490fd5b80fd5b833461029e578060031936011261029e576102ba61040a565b80546001600160a01b03198116825581906001600160a01b03167f8be0079c531659141344cd1fd0a4f28419497f9722a3daafe3b4186f6b6457e08280a380f35b50903461014f57602036600319011261014f5780356001600160a01b03811692908390036103a25761032b61040a565b82330361034f5750506bffffffffffffffffffffffff60a01b600254161760025580f35b906020608492519162461bcd60e51b8352820152602760248201527f4f6e6c792074686520666163746f72792063616e206368616e67652074686520604482015266666163746f727960c81b6064820152fd5b8380fd5b50903461014f57602036600319011261014f5735825260016020908152918190205490516001600160a01b039091168152f35b918491503461017b57602036600319011261017b579235815260016020908152929020546001600160a01b03168152f35b6000546001600160a01b0316330361041e57565b606460405162461bcd60e51b815260206004820152602060248201527f4f776e61626c653a2063616c6c6572206973206e6f7420746865206f776e65726044820152fdfe60803461007e57601f6104b038819003918201601f19168301916001600160401b0383118484101761008357808492604094855283398101031261007e5780516020909101516001600160a01b038116919082900361007e57600055600180546001600160a01b031916919091179055604051610416908161009a8239f35b600080fd5b634e487b7160e01b600052604160045260246000fdfe60806040908082526004908136101561016d575b50361561001f57600080fd5b60015482516311b2515f60e31b81526020916001600160a01b0390839083908690829085165afa91821561016257600092610133575b5060005485519284840191636b46cea760e11b8352602485015260248452606084019367ffffffffffffffff948181108682111761011e57885251600093849391923491165af1903d15610118573d908111610103578451906100c1601f8201601f1916850183610384565b81526000833d92013e5b156100d257005b606492519162461bcd60e51b8352820152600e60248201526d11195c1bdcda5d0819985a5b195960921b6044820152fd5b604184634e487b7160e01b6000525260246000fd5b506100cb565b604188634e487b7160e01b6000525260246000fd5b610154919250833d851161015b575b61014c8183610384565b8101906103bc565b9038610055565b503d610142565b85513d6000823e3d90fd5b600090813560e01c9081631a58a6a61461036a57508063338b5dea146101c35763c45a0155036100135782346101bf57816003193601126101bf5760015490516001600160a01b039091168152602090f35b5080fd5b50913461036657806003193601126103665781356001600160a01b0381811693918490036103625760243590806001541684519182916311b2515f60e31b8352828660209485935afa928315610339578893610343575b5085519263095ea7b360e01b84521691828582015283602482015281816044818b8b5af19081156103395788916102ff575b50156102cc5750908591825495813b156102c85783606492875198899586946384abac9560e01b865289860152602485015260448401525af180156102be57610293578380f35b67ffffffffffffffff83116102ab5750523880808380f35b634e487b7160e01b845260419052602483fd5b82513d86823e3d90fd5b8380fd5b8360649186519162461bcd60e51b8352820152600e60248201526d105c1c1c9bdd994819985a5b195960921b6044820152fd5b90508181813d8311610332575b6103168183610384565b8101031261032e5751801515810361032e573861024c565b8780fd5b503d61030c565b86513d8a823e3d90fd5b61035b919350823d841161015b5761014c8183610384565b913861021a565b8480fd5b8280fd5b9050346101bf57816003193601126101bf57602091548152f35b90601f8019910116810190811067ffffffffffffffff8211176103a657604052565b634e487b7160e01b600052604160045260246000fd5b908160209103126103db57516001600160a01b03811681036103db5790565b600080fdfea26469706673582212208a6423907ad8c0858649fc881974c80991ac02f6db7c1d4ef6b10378d38764c864736f6c63430008130033a264697066735822122073c86fd4c1365f39b0dfb3959f76c4106dbc4620cc5f1d8a5486da049eff92e264736f6c63430008130033",
  "linkReferences": {},
  "deployedLinkReferences": {}
}