{
  "_format": "hh-sol-artifact-1",
  "contractName": "MecenateForwarderFactory",
  "sourceName": "contracts/factories/MecenateForwarderFactory.sol",
  "abi": [
    {
      "inputs": [
        {
          "internalType": "address",
          "name": "_mecenateVault",
          "type": "address"
        }
      ],
      "stateMutability": "nonpayable",
      "type": "constructor"
    },
    {
      "anonymous": false,
      "inputs": [
        {
          "indexed": true,
          "internalType": "address",
          "name": "forwarder",
          "type": "address"
        },
        {
          "indexed": false,
          "internalType": "bytes32",
          "name": "encryptedVaultId",
          "type": "bytes32"
        },
        {
          "indexed": false,
          "internalType": "address",
          "name": "vaultContract",
          "type": "address"
        }
      ],
      "name": "ForwarderCreated",
      "type": "event"
    },
    {
      "anonymous": false,
      "inputs": [
        {
          "indexed": true,
          "internalType": "address",
          "name": "previousOwner",
          "type": "address"
        },
        {
          "indexed": true,
          "internalType": "address",
          "name": "newOwner",
          "type": "address"
        }
      ],
      "name": "OwnershipTransferred",
      "type": "event"
    },
    {
      "inputs": [
        {
          "internalType": "address",
          "name": "_mecenateVault",
          "type": "address"
        }
      ],
      "name": "changeVault",
      "outputs": [],
      "stateMutability": "nonpayable",
      "type": "function"
    },
    {
      "inputs": [
        {
          "internalType": "bytes32",
          "name": "_encryptedVaultId",
          "type": "bytes32"
        }
      ],
      "name": "createforwarder",
      "outputs": [
        {
          "internalType": "address",
          "name": "",
          "type": "address"
        }
      ],
      "stateMutability": "nonpayable",
      "type": "function"
    },
    {
      "inputs": [
        {
          "internalType": "bytes32",
          "name": "",
          "type": "bytes32"
        }
      ],
      "name": "forwardersMapping",
      "outputs": [
        {
          "internalType": "address",
          "name": "",
          "type": "address"
        }
      ],
      "stateMutability": "view",
      "type": "function"
    },
    {
      "inputs": [],
      "name": "getVault",
      "outputs": [
        {
          "internalType": "address",
          "name": "",
          "type": "address"
        }
      ],
      "stateMutability": "view",
      "type": "function"
    },
    {
      "inputs": [
        {
          "internalType": "bytes32",
          "name": "_user",
          "type": "bytes32"
        }
      ],
      "name": "getforwarders",
      "outputs": [
        {
          "internalType": "address",
          "name": "",
          "type": "address"
        }
      ],
      "stateMutability": "view",
      "type": "function"
    },
    {
      "inputs": [],
      "name": "mecenateVault",
      "outputs": [
        {
          "internalType": "address",
          "name": "",
          "type": "address"
        }
      ],
      "stateMutability": "view",
      "type": "function"
    },
    {
      "inputs": [],
      "name": "owner",
      "outputs": [
        {
          "internalType": "address",
          "name": "",
          "type": "address"
        }
      ],
      "stateMutability": "view",
      "type": "function"
    },
    {
      "inputs": [],
      "name": "renounceOwnership",
      "outputs": [],
      "stateMutability": "nonpayable",
      "type": "function"
    },
    {
      "inputs": [
        {
          "internalType": "address",
          "name": "newOwner",
          "type": "address"
        }
      ],
      "name": "transferOwnership",
      "outputs": [],
      "stateMutability": "nonpayable",
      "type": "function"
    }
  ],
  "bytecode": "0x6080346100a757601f610d6c38819003918201601f19168301916001600160401b038311848410176100ac578084926020946040528339810103126100a757516001600160a01b0390818116908190036100a75760005460018060a01b0319903382821617600055604051933391167f8be0079c531659141344cd1fd0a4f28419497f9722a3daafe3b4186f6b6457e0600080a36002541617600255610ca990816100c38239f35b600080fd5b634e487b7160e01b600052604160045260246000fdfe608060408181526004908136101561001657600080fd5b600092833560e01c90816305d45fad1461050f5750806307c0e602146104d1578063541886b2146101de57806360e232a9146103d9578063715018a61461035b5780637ef0db66146102135780638d928af8146101de5780638da5cb5b146101a75763f2fde38b1461008757600080fd5b346101a35760206003193601126101a35781359173ffffffffffffffffffffffffffffffffffffffff9182841680940361019f576100c361054a565b831561011c5750508254827fffffffffffffffffffffffff00000000000000000000000000000000000000008216178455167f8be0079c531659141344cd1fd0a4f28419497f9722a3daafe3b4186f6b6457e08380a380f35b90602060849251917f08c379a0000000000000000000000000000000000000000000000000000000008352820152602660248201527f4f776e61626c653a206e6577206f776e657220697320746865207a65726f206160448201527f64647265737300000000000000000000000000000000000000000000000000006064820152fd5b8480fd5b8280fd5b8382346101da57816003193601126101da5773ffffffffffffffffffffffffffffffffffffffff60209254169051908152f35b5080fd5b8382346101da57816003193601126101da5760209073ffffffffffffffffffffffffffffffffffffffff600254169051908152f35b50346101a35760209283600319360112610358578235928382526001855273ffffffffffffffffffffffffffffffffffffffff908184842054166102fc578351906106aa8083019183831067ffffffffffffffff8411176102d05750859183916105ca8339878152308982015203019083f080156102c65790839291169381526001855220827fffffffffffffffffffffffff000000000000000000000000000000000000000082541617905551908152f35b83513d84823e3d90fd5b8560416024927f4e487b7100000000000000000000000000000000000000000000000000000000835252fd5b606490868551917f08c379a0000000000000000000000000000000000000000000000000000000008352820152601960248201527f666f7277617264657220616c72656164792063726561746564000000000000006044820152fd5b80fd5b833461035857806003193601126103585761037461054a565b8073ffffffffffffffffffffffffffffffffffffffff81547fffffffffffffffffffffffff000000000000000000000000000000000000000081168355167f8be0079c531659141344cd1fd0a4f28419497f9722a3daafe3b4186f6b6457e08280a380f35b5090346101a35760206003193601126101a35780359173ffffffffffffffffffffffffffffffffffffffff83168093036104cd5761041561054a565b82330361044a5750507fffffffffffffffffffffffff0000000000000000000000000000000000000000600254161760025580f35b90602060849251917f08c379a0000000000000000000000000000000000000000000000000000000008352820152602760248201527f4f6e6c792074686520666163746f72792063616e206368616e6765207468652060448201527f666163746f7279000000000000000000000000000000000000000000000000006064820152fd5b8380fd5b5090346101a35760206003193601126101a3578160209373ffffffffffffffffffffffffffffffffffffffff92358152600185522054169051908152f35b929050346104cd5760206003193601126104cd573583526001602090815292205473ffffffffffffffffffffffffffffffffffffffff168152f35b73ffffffffffffffffffffffffffffffffffffffff60005416330361056b57565b60646040517f08c379a000000000000000000000000000000000000000000000000000000000815260206004820152602060248201527f4f776e61626c653a2063616c6c6572206973206e6f7420746865206f776e65726044820152fdfe60803461007e57601f6106aa38819003918201601f19168301916001600160401b0383118484101761008357808492604094855283398101031261007e5780516020909101516001600160a01b038116919082900361007e57600055600180546001600160a01b031916919091179055604051610610908161009a8239f35b600080fd5b634e487b7160e01b600052604160045260246000fdfe608060409080825260049081361015610223575b50361561001f57600080fd5b73ffffffffffffffffffffffffffffffffffffffff806001541683519182917f8d928af8000000000000000000000000000000000000000000000000000000008352828560209586935afa918215610218576000926101e9575b50600054855192848401917fd68d9d4e000000000000000000000000000000000000000000000000000000008352602485015260248452606084019367ffffffffffffffff94818110868211176101bb57885251600093849391923491165af1903d156101b5573d9081116101875784519061011c847fffffffffffffffffffffffffffffffffffffffffffffffffffffffffffffffe0601f8401160183610539565b81526000833d92013e5b1561012d57005b60649251917f08c379a0000000000000000000000000000000000000000000000000000000008352820152600e60248201527f4465706f736974206661696c65640000000000000000000000000000000000006044820152fd5b6041847f4e487b71000000000000000000000000000000000000000000000000000000006000525260246000fd5b50610126565b6041887f4e487b71000000000000000000000000000000000000000000000000000000006000525260246000fd5b61020a919250833d8511610211575b6102028183610539565b8101906105a9565b9038610079565b503d6101f8565b85513d6000823e3d90fd5b600090813560e01c9081631a58a6a61461050157508063338b5dea146102a35763c45a01550361001357823461029f57817ffffffffffffffffffffffffffffffffffffffffffffffffffffffffffffffffc36011261029f5760209073ffffffffffffffffffffffffffffffffffffffff600154169051908152f35b5080fd5b5091346104fd57807ffffffffffffffffffffffffffffffffffffffffffffffffffffffffffffffffc3601126104fd5781359173ffffffffffffffffffffffffffffffffffffffff8084168094036104f95760243590806001541684519182917f8d928af8000000000000000000000000000000000000000000000000000000008352828660209485935afa9283156104d05788936104da575b508551927f095ea7b30000000000000000000000000000000000000000000000000000000084521691828582015283602482015281816044818b8b5af19081156104d0578891610496575b501561043a5750908591825495813b156104365783606492875198899586947f84abac9500000000000000000000000000000000000000000000000000000000865289860152602485015260448401525af1801561042c576103e8578380f35b67ffffffffffffffff83116104005750523880808380f35b8360416024927f4e487b7100000000000000000000000000000000000000000000000000000000835252fd5b82513d86823e3d90fd5b8380fd5b836064918651917f08c379a0000000000000000000000000000000000000000000000000000000008352820152600e60248201527f417070726f7665206661696c65640000000000000000000000000000000000006044820152fd5b90508181813d83116104c9575b6104ad8183610539565b810103126104c5575180151581036104c55738610388565b8780fd5b503d6104a3565b86513d8a823e3d90fd5b6104f2919350823d8411610211576102028183610539565b913861033d565b8480fd5b8280fd5b90503461029f57817ffffffffffffffffffffffffffffffffffffffffffffffffffffffffffffffffc36011261029f57602091548152f35b90601f7fffffffffffffffffffffffffffffffffffffffffffffffffffffffffffffffe0910116810190811067ffffffffffffffff82111761057a57604052565b7f4e487b7100000000000000000000000000000000000000000000000000000000600052604160045260246000fd5b908160209103126105d5575173ffffffffffffffffffffffffffffffffffffffff811681036105d55790565b600080fdfea26469706673582212205395f781e6950dce3444b1fcd01bfbcfebb5090977d46cdb614f9b15cb963a7e64736f6c63430008130033a26469706673582212200133ccc7ce58f6d9166eb6ec570fb5f4292270abddc745f8570d74c9b3fd9f1664736f6c63430008130033",
  "linkReferences": {},
  "deployedLinkReferences": {}
}