{
  "_format": "hh-sol-artifact-1",
  "contractName": "MecenateVerifier",
  "sourceName": "contracts/MecenateVerifier.sol",
  "abi": [
    {
      "inputs": [
        {
          "internalType": "bytes16",
          "name": "_appId",
          "type": "bytes16"
        }
      ],
      "stateMutability": "nonpayable",
      "type": "constructor"
    },
    {
      "inputs": [
        {
          "internalType": "enum AuthType",
          "name": "authType",
          "type": "uint8"
        }
      ],
      "name": "AuthTypeNotFoundInVerifiedResult",
      "type": "error"
    },
    {
      "inputs": [],
      "name": "ADDRESSES_PROVIDER_V2",
      "outputs": [
        {
          "internalType": "contract IAddressesProvider",
          "name": "",
          "type": "address"
        }
      ],
      "stateMutability": "view",
      "type": "function"
    },
    {
      "inputs": [],
      "name": "APP_ID",
      "outputs": [
        {
          "internalType": "bytes16",
          "name": "",
          "type": "bytes16"
        }
      ],
      "stateMutability": "view",
      "type": "function"
    },
    {
      "inputs": [],
      "name": "IS_IMPERSONATION_MODE",
      "outputs": [
        {
          "internalType": "bool",
          "name": "",
          "type": "bool"
        }
      ],
      "stateMutability": "view",
      "type": "function"
    },
    {
      "inputs": [],
      "name": "SISMO_CONNECT_LIB_VERSION",
      "outputs": [
        {
          "internalType": "uint256",
          "name": "",
          "type": "uint256"
        }
      ],
      "stateMutability": "view",
      "type": "function"
    },
    {
      "inputs": [],
      "name": "appId",
      "outputs": [
        {
          "internalType": "bytes16",
          "name": "",
          "type": "bytes16"
        }
      ],
      "stateMutability": "view",
      "type": "function"
    },
    {
      "inputs": [],
      "name": "config",
      "outputs": [
        {
          "components": [
            {
              "internalType": "bytes16",
              "name": "appId",
              "type": "bytes16"
            },
            {
              "components": [
                {
                  "internalType": "bool",
                  "name": "isImpersonationMode",
                  "type": "bool"
                }
              ],
              "internalType": "struct VaultConfig",
              "name": "vault",
              "type": "tuple"
            }
          ],
          "internalType": "struct SismoConnectConfig",
          "name": "",
          "type": "tuple"
        }
      ],
      "stateMutability": "view",
      "type": "function"
    },
    {
      "inputs": [
        {
          "internalType": "bytes",
          "name": "sismoConnectResponse",
          "type": "bytes"
        },
        {
          "internalType": "address",
          "name": "_to",
          "type": "address"
        },
        {
          "internalType": "address",
          "name": "_from",
          "type": "address"
        }
      ],
      "name": "sismoVerify",
      "outputs": [
        {
          "internalType": "bytes",
          "name": "",
          "type": "bytes"
        },
        {
          "internalType": "uint256",
          "name": "",
          "type": "uint256"
        },
        {
          "internalType": "uint256",
          "name": "",
          "type": "uint256"
        }
      ],
      "stateMutability": "view",
      "type": "function"
    }
  ],
  "bytecode": "0x610160604081815234620004e3578162002668803803809162000023828562000536565b8339602093849181010312620004e357516001600160801b03198082169290838303620004e3578151906200005882620004e8565b600091828152868451916200006d836200051a565b848352015281835162000080816200051a565b528251946200008f866200051a565b828652835190620000a082620004e8565b808252878201968752156200049f578551516200044f57819051169461012095865251511515936101409485528351620000da81620004e8565b601981527f7369736d6f436f6e6e65637456657269666965722d76312e320000000000000088820152845190816200012163349f642f60e11b92838352600483016200057b565b038983733cd5334eb64ebbd4003b72022cc25465f1bfcee69281845afa9283156200044557869362000421575b506001600160a01b039283166080528651620001ad908b906200017181620004e8565b601781527f61757468526571756573744275696c6465722d76312e3100000000000000000082820152895180938192878352600483016200057b565b0381855afa908115620003d3579084918891620003ff575b501660a052620002188a8851620001dc81620004e8565b601881527f636c61696d526571756573744275696c6465722d76312e31000000000000000082820152895180938192878352600483016200057b565b0381855afa908115620003d3579084918891620003dd575b501660c052620002838a88516200024781620004e8565b601581527f7369676e61747572654275696c6465722d76312e31000000000000000000000082820152895180938192878352600483016200057b565b0381855afa908115620003d3579184620002f294928d948a91620003b1575b501660e052885191620002b583620004e8565b601383527f726571756573744275696c6465722d76312e31000000000000000000000000008484015289518095819482938352600483016200057b565b03915afa988915620003a757859962000371575b50506101009716875260801c9082541617905551916120a19384620005c7853960805184610cea015260a05184818161028a0152818161030b015261038c015260c05184505060e0518461043501525183610b5f01525182818160ac0152611bd20152518160e80152f35b62000396929950803d106200039f575b6200038d818362000536565b8101906200055a565b96388062000306565b503d62000381565b86513d87823e3d90fd5b620003cc9150853d87116200039f576200038d818362000536565b38620002a2565b88513d89823e3d90fd5b620003f891508c8d3d106200039f576200038d818362000536565b3862000230565b6200041a91508c8d3d106200039f576200038d818362000536565b38620001c5565b6200043d9193508a3d8c116200039f576200038d818362000536565b91386200014e565b87513d88823e3d90fd5b835162461bcd60e51b815260048101889052602360248201527f696d706572736f6e6174696f6e206d6f6465206973206e6f7420737570706f726044820152621d195960ea1b6064820152608490fd5b835162461bcd60e51b815260048101889052601560248201527f61707049642063616e6e6f7420626520656d70747900000000000000000000006044820152606490fd5b600080fd5b604081019081106001600160401b038211176200050457604052565b634e487b7160e01b600052604160045260246000fd5b602081019081106001600160401b038211176200050457604052565b601f909101601f19168101906001600160401b038211908210176200050457604052565b90816020910312620004e357516001600160a01b0381168103620004e35790565b6020808252825181830181905290939260005b828110620005b157505060409293506000838284010152601f8019910116010190565b8181018601518482016040015285016200058e56fe6101e0604052600436101561001357600080fd5b60003560e01c806307c93c8f146101a7578063469163011461017857806379502c551461013857806380afdea81461010d578063a183dc27146100d0578063c187bbc11461008b5763c9512d991461006a57600080fd5b3461008657600036600319011261008657602060405160028152f35b600080fd5b346100865760003660031901126100865760206040516001600160801b03197f0000000000000000000000000000000000000000000000000000000000000000168152f35b346100865760003660031901126100865760206040517f000000000000000000000000000000000000000000000000000000000000000015158152f35b3461008657600036600319011261008657602060005460801b604051906001600160801b0319168152f35b34610086576000366003190112610086576040610153611b92565b61017682518092602080916001600160801b031981511684520151511515910152565bf35b34610086576000366003190112610086576020604051733cd5334eb64ebbd4003b72022cc25465f1bfcee68152f35b34610086576060366003190112610086576004356001600160401b0381116100865736602382011215610086578060040135906101f26101e683611a1e565b604051806080526119fd565b8160805152366024838301011161008657816000926024602093018360805101376080510101526024356001600160a01b0381168103610086576044356001600160a01b03811681036100865760805151156118f4576040519061025582611976565b6003825260005b606081106118dd575061026d611a98565b50604051633a0ba6ff60e01b8152600060048201819052816024817f00000000000000000000000000000000000000000000000000000000000000006001600160a01b03165afa90811561132e576000916118c2575b506102cd83611acd565b526102d782611acd565b506102e0611a98565b50604051630c3bcacd60e41b81526002600482015260016024820181905260448201526000816064817f00000000000000000000000000000000000000000000000000000000000000006001600160a01b03165afa90811561132e576000916118a7575b5061034e83611af0565b5261035882611af0565b50610361611a98565b50604051630c3bcacd60e41b81526004808201526001602482018190526044820152906000826064817f00000000000000000000000000000000000000000000000000000000000000006001600160a01b03165afa801561132e5761043192600091611884575b506103d284611b00565b526103dc83611b00565b50604080516001600160a01b038681166020830152831681830152908152600090610406816119e2565b61040e611eab565b5060405180948192631a0d7ccb60e21b8352602060048401526024830190611a5c565b03817f00000000000000000000000000000000000000000000000000000000000000006001600160a01b03165afa91821561132e57600092611840575b50606060a060405161047f8161192a565b60008152600060208201526000604082015282808201528260808201520152608051938451850161018052602085610180510312610086576020850151946001600160401b038611610086578560a0910161018051031261008657604051926104e78461195b565b6104f76020876080510101611ca1565b84526105096040876080510101611ca1565b6020850152606086608051010151604085015285608051016080810151906001600160401b03821161008657602061054992816101805101920101611cb6565b6060850152856080510160a081015160c0526001600160401b0360c051116100865760206101805101603f60c05183010112156100865760c05101602001519461059286611a81565b61059f60405191826119fd565b8061010052868152602081016101005260c0518860805101016020610180510160408960051b830101116100865760400161012052919592915b60c05188608051010160408560051b820101610120511015610ae95761012051516101c0526001600160401b036101c051116100865760a090601f19906101c0510161018051030112610086576040516101a0526106396101a05161195b565b6101c05160c05189608051010101604081015160e0526001600160401b0360e051116100865760206101805101605f60e05183010112156100865760409060e0510101516101405261068d61014051611a81565b9661069b60405198896119fd565b610140518852602088019460e0516101c05160c0518c608051010101016020610180510160606101405160051b8301011161008657606001955b60e0516101c05160c0518d608051010101019060606101405160051b83010188101561080b578751916001600160401b038311610086576101805160a09184019003603f19011261008657604051916060818e6107318661195b565b60e051906101c0519060c0519060805101010101010151600681101561008657818e60c092865261077560808360e0516101c0518751868551010101010101611cfb565b602087015261079860a08360e0516101c051875186608051010101010101611cfb565b604087015260e051906101c0519084519060805101010101010151606084015260e0518d6101c0519060c0519060805101010101019060e0820151926001600160401b038411610086576107fb6020949360608695866101805101920101611cb6565b60808201528152019601956106d5565b505093979094509591959490946101a051526101c05160c05189608051010101606081015160a0526001600160401b0360a051116100865760206101805101605f60a05183010112156100865760409060a0510101516101605261087161016051611a81565b9661087f60405198896119fd565b610160518852602088019460a0516101c05160c0518c608051010101016020610180510160606101605160051b8301011161008657606001955b60a0516101c05160c0518d608051010101019060606101605160051b830101881015610a15578751916001600160401b038311610086576101805160c09184019003603f19011261008657604051916060818e6109158661192a565b60a051906101c0519060c0519060805101010101010151600581101561008657818e60e092865261095a60808360a0516101c05160c051868551010101010101611ca1565b602087015261097d60a08381516101c05160c05186608051010101010101611ca1565b60408701526109a060c08360a0516101c051835186608051010101010101611cfb565b606087015260a051906101c0519060c0519060805101010101010151608084015260a0518d6101c0519060c05190608051010101010190610100820151926001600160401b03841161008657610a056020949360608695866101805101920101611cb6565b60a08201528152019601956108b9565b5050939790945095919594909460206101a051015260806101c05160c0518a8351010101015160406101a05101526101c05160c0518960805101010160a0810151906001600160401b038211610086576040610a7a9260206101805101920101611cb6565b60606101a05101526101c05160c0518960805101010160c0810151906001600160401b038211610086576040610ab99260206101805101920101611cb6565b60806101a05101526101a051610100515260206101005101610100526020610120510161012052959291956105d9565b8686858a6000610b4988886080880152604051610b0581611976565b83815260606020820152606060408201526060610b20611eab565b910152610b5b6040519485938493632ceb1e8d60e01b8552604060048601526044850190611d22565b83810360031901602485015290611dc5565b03817f00000000000000000000000000000000000000000000000000000000000000006001600160a01b03165afa90811561132e5760009161157c575b5092610ba2611b92565b906040519485916312b037ff60e01b8352608060048401526001600160801b031981511660848401526001600160801b031960208201511660a4840152604081015160c48401526080610c05606083015160a060e4870152610124860190611a5c565b9101519060831984820301610104850152815180825260208201916020808360051b8301019401926000915b8383106113d25750505050506003198382030160248401526001600160801b03198251168152610c706020830151608060208401526080830190611d22565b916040810151928281036040840152835180825260208201916020808360051b8301019601926000915b83831061133a575050505050610cc58493600096936060610ce6940151906060818403910152611dc5565b82516001600160801b03191660448501526020909201515115156064840152565b03817f00000000000000000000000000000000000000000000000000000000000000006001600160a01b03165afa92831561132e57600093610f8a575b5060a08301519160408380518101031261008657610d4360208401611b24565b926001600160a01b0390610d5990604001611b24565b166001600160a01b0390911603610f50576001600160a01b03908116911603610f18576060810180515191610d8d83611a81565b92610d9b60405194856119fd565b808452610daa601f1991611a81565b0160005b818110610edf57505060005b82518051821015610df45790610dd381610def93611b10565b51610dde8287611b10565b52610de98186611b10565b50611b38565b610dba565b8483610dff81611f31565b9060405191602083015260208252610e16826119ac565b60009182805b8551811015610eb657610e38610e328288611b10565b51611b5d565b60069081811015610ea057600203610e6457509050610e5f610e598461200f565b91611b38565b610e1c565b610e71610e328389611b10565b90811015610ea057600414610e8a575b610e5f90611b38565b9350610e5f610e9884611fb4565b949050610e81565b634e487b7160e01b600052602160045260246000fd5b610ed0838387604051938493606085526060850190611a5c565b91602084015260408301520390f35b602090604051610eee8161195b565b60008152600083820152600060408201526060808201526060608082015282828801015201610dae565b60405162461bcd60e51b815260206004820152601060248201526f57524f4e475f544f5f4144445245535360801b6044820152606490fd5b60405162461bcd60e51b815260206004820152601260248201527157524f4e475f46524f4d5f4144445245535360701b6044820152606490fd5b9092503d806000833e610f9d81836119fd565b6020828281010312610086578151916001600160401b0383116100865760c083820183830103126100865760405192610fd58461192a565b610fe0818301611ca1565b8452610ff0602082840101611ca1565b602085015281810160408181015190860152606001516001600160401b03811161008657838301601f82848601010112156100865780828401015161103481611a81565b9161104260405193846119fd565b8183526020830186860160208460051b84888a0101010111610086576020828688010101905b60208460051b84888a01010101821061124457505050506060850152608081830101516001600160401b03811161008657838301601f8284860101011215610086578082840101516110b981611a81565b916110c760405193846119fd565b8183526020830186860160208460051b84888a0101010111610086576020828688010101905b60208460051b84888a0101010182106111395750505050608085015260a08183010151906001600160401b0382116100865761112d938301920101611cb6565b60a08201529183610d23565b81516001600160401b0381116100865760e0888801850182018a8a0103601f190112610086576040519161116c83611991565b602082868a8c01010101516005811015610086578352611194604083878b8d01010101611ca1565b60208401526111ab606083878b8d01010101611ca1565b6040840152888801850182016080810151606085015260a001516001600160401b038111610086576111eb908b8b01908a8c018801850101602001611cb6565b60808401528888018501820160c081015160a085015260e00151906001600160401b038211610086576020936112328b868096958f968b8f84998601950101010101611cb6565b60c082015281520192019190506110ed565b81516001600160401b0381116100865760a0888801850182018a8a0103601f19011261008657604051916112778361195b565b602082868a8c0101010151600681101561008657835261129f604083878b8d01010101611cfb565b60208401528888018501820160608101516040850152608001516001600160401b038111610086576112df908b8b01908a8c018801850101602001611cb6565b606084015260a082868a8c0101010151906001600160401b0382116100865760209361131c8b868096958f968b8f84998601950101010101611cb6565b60808201528152019201919050611068565b6040513d6000823e3d90fd5b91939750919394956020806113be600193601f1986820301875260e08c5191611364818451611d15565b6001600160801b03198584015116858201526001600160801b031960408401511660408201526060830151606082015260808301511515608082015260a0830151151560a08201528160c080940151938201520190611a5c565b99019301930190928b979695949293610c9a565b91939596509193601f1982820301835285519060a0810182519060a08352815180915260c08301602060c08360051b86010193019160005b818110611519575050505060208301519082810360208401528151808252602082016020808360051b85010194019260005b838110611498575050505050611485836020936080611474869560406001990151604085015260608501518482036060860152611a5c565b920151906080818403910152611a5c565b97019301930190928a9695949293610c31565b909192939460208061150c600193601f1987820301885260c060a08b516114c0848251611d15565b6001600160801b03198682015116868501526001600160801b03196040820151166040850152606081015115156060850152608081015160808501520151918160a08201520190611a5c565b970195940192910161143c565b9091929360208061157060019360bf198a820301885260a060808a51611540848251611d08565b85810151151586850152604081015115156040850152606081015160608501520151918160808201520190611a5c565b9601940192910161140a565b90503d806000833e61158e81836119fd565b6020828281010312610086578151916001600160401b038311610086576080838201838301031261008657604051926115c684611976565b6115d1818301611ca1565b8452602081830101516001600160401b03811161008657838301601f82848601010112156100865780828401015161160881611a81565b9161161660405193846119fd565b8183526020830186860160208460051b84888a0101010111610086576020828688010101905b60208460051b84888a01010101821061180657505050506020850152604081830101516001600160401b03811161008657838301601f82848601010112156100865780828401015161168d81611a81565b9161169b60405193846119fd565b8183526020830186860160208460051b84888a0101010111610086576020828688010101905b60208460051b84888a01010101821061170c5750505050604085015260608183010151906001600160401b03821161008657611701938301920101611ecb565b606082015284610b98565b81516001600160401b0381116100865760e0888801850182018a8a0103601f190112610086576040519161173f83611991565b602082868a8c01010101516005811015610086578352611767604083878b8d01010101611ca1565b602084015261177e606083878b8d01010101611ca1565b604084015288880185018201608081015160608501526117a09060a001611cfb565b60808401526117b760c083878b8d01010101611cfb565b60a084015260e082868a8c0101010151906001600160401b038211610086576020936117f48b868096958f968b8f84998601950101010101611cb6565b60c082015281520192019190506116c1565b8151906001600160401b0382116100865760208092916118338a838095898f8e9085019401010101611dfb565b815201920191905061163c565b9091503d90816000823e61185482826119fd565b60208183810103126100865780516001600160401b0381116100865761187d9282019101611ecb565b908461046e565b6118a191503d806000833e61189981836119fd565b810190611e86565b856103c8565b6118bc91503d806000833e61189981836119fd565b84610344565b6118d791503d806000833e61189981836119fd565b846102c3565b6020906118e8611a98565b8282860101520161025c565b60405162461bcd60e51b815260206004820152600e60248201526d656d70747920726573706f6e736560901b6044820152606490fd5b60c081019081106001600160401b0382111761194557604052565b634e487b7160e01b600052604160045260246000fd5b60a081019081106001600160401b0382111761194557604052565b608081019081106001600160401b0382111761194557604052565b60e081019081106001600160401b0382111761194557604052565b604081019081106001600160401b0382111761194557604052565b602081019081106001600160401b0382111761194557604052565b606081019081106001600160401b0382111761194557604052565b90601f801991011681019081106001600160401b0382111761194557604052565b6001600160401b03811161194557601f01601f191660200190565b60005b838110611a4c5750506000910152565b8181015183820152602001611a3c565b90602091611a7581518092818552858086019101611a39565b601f01601f1916010190565b6001600160401b0381116119455760051b60200190565b60405190611aa58261192a565b606060a083600081526000602082015260006040820152600083820152600060808201520152565b805115611ada5760200190565b634e487b7160e01b600052603260045260246000fd5b805160011015611ada5760400190565b805160021015611ada5760600190565b8051821015611ada5760209160051b010190565b51906001600160a01b038216820361008657565b6000198114611b475760010190565b634e487b7160e01b600052601160045260246000fd5b516006811015610ea05790565b60405190611b77826119ac565b60008252604051602083611b8a836119c7565b600083520152565b611b9a611b6a565b50611ba3611b6a565b506000604051611bb2816119c7565b52604051611bbf816119c7565b6000815260405190611bd0826119ac565b7f00000000000000000000000000000000000000000000000000000000000000006001600160801b0319168083526020830191825215611c64575151611c135790565b60405162461bcd60e51b815260206004820152602360248201527f696d706572736f6e6174696f6e206d6f6465206973206e6f7420737570706f726044820152621d195960ea1b6064820152608490fd5b60405162461bcd60e51b815260206004820152601560248201527461707049642063616e6e6f7420626520656d70747960581b6044820152606490fd5b51906001600160801b03198216820361008657565b81601f82011215610086578051611ccc81611a1e565b92611cda60405194856119fd565b8184526020828401011161008657611cf89160208085019101611a39565b90565b5190811515820361008657565b906006821015610ea05752565b906005821015610ea05752565b908082519081815260208091019281808460051b8301019501936000915b848310611d505750505050505090565b9091929394958480611db5600193601f198682030187528a51611d74828251611d08565b838101518483015260408082015115159083015260608082015115159083015260808082015115159083015260a0809101519160c080928201520190611a5c565b9801930193019194939290611d40565b611cf8916040611dde8351606084526060840190611a5c565b926020810151151560208401520151906040818403910152611a5c565b919060c0838203126100865760405190611e148261192a565b81938051600681101561008657835260208101516020840152611e3960408201611cfb565b6040840152611e4a60608201611cfb565b6060840152611e5b60808201611cfb565b608084015260a0810151916001600160401b0383116100865760a092611e819201611cb6565b910152565b906020828203126100865781516001600160401b03811161008657611cf89201611dfb565b60405190611eb8826119e2565b6060604083828152600060208201520152565b91906060838203126100865760405190611ee4826119e2565b81938051916001600160401b03928381116100865781611f05918401611cb6565b8452611f1360208301611cfb565b6020850152604082015192831161008657604092611e819201611cb6565b6000805b6060830180518051831015611f9b57610e3283611f5192611b10565b6006811015611f875715611f725750611f6b606091611b38565b9050611f35565b60409350611f81925051611b10565b51015190565b634e487b7160e01b84526021600452602484fd5b60405163267ac2cf60e01b815260048101859052602490fd5b6000805b6060830180518051831015611ff757610e3283611fd492611b10565b6006811015611f8757600414611f725750611ff0606091611b38565b9050611fb8565b60405163267ac2cf60e01b8152600480820152602490fd5b6000805b606083018051805183101561205257610e328361202f92611b10565b6006811015611f8757600214611f72575061204b606091611b38565b9050612013565b60405163267ac2cf60e01b815260026004820152602490fdfea2646970667358221220cc2f7dfc4834c9b23878dd2fb4f9e62bcdab1448c88cb3801c362fb32a23721d64736f6c63430008130033",
  "linkReferences": {},
  "deployedLinkReferences": {}
}