{
  "_format": "hh-sol-artifact-1",
  "contractName": "ExternalProxyCall",
  "sourceName": "contracts/helpers/ExternalProxyCall.sol",
  "abi": [
    {
      "inputs": [
        {
          "internalType": "address",
          "name": "externalContract",
          "type": "address"
        },
        {
          "internalType": "bytes",
          "name": "callData",
          "type": "bytes"
        }
      ],
      "name": "proxyCallAndReturnAddress",
      "outputs": [
        {
          "internalType": "address payable",
          "name": "result",
          "type": "address"
        }
      ],
      "stateMutability": "nonpayable",
      "type": "function"
    }
  ],
  "bytecode": "0x60808060405234610016576102d9908161001c8239f35b600080fdfe6080604052600436101561001257600080fd5b6000803560e01c63a1453b0e1461002857600080fd5b346100db5760403660031901126100db576004356001600160a01b03811681036100d7576024359067ffffffffffffffff82116100d357366023830112156100d357816004013561008061007b8261011f565b6100f4565b9281845236602483830101116100cf57916100cb9460208381969460246100af9701838701378401015261013b565b01516040516001600160a01b0390911681529081906020820190565b0390f35b8480fd5b8280fd5b5080fd5b80fd5b634e487b7160e01b600052604160045260246000fd5b6040519190601f01601f1916820167ffffffffffffffff81118382101761011a57604052565b6100de565b67ffffffffffffffff811161011a57601f01601f191660200190565b60405190604082019282841067ffffffffffffffff85111761011a57600080916101ba95604052601e85527f416464726573733a206c6f772d6c6576656c2063616c6c206661696c65640000602086015260208151910182855af13d156101bd573d916101aa61007b8461011f565b9283523d6000602085013e610211565b90565b606091610211565b156101cc57565b60405162461bcd60e51b815260206004820152601d60248201527f416464726573733a2063616c6c20746f206e6f6e2d636f6e74726163740000006044820152606490fd5b919290156102315750815115610225575090565b6101ba903b15156101c5565b8251909150156102445750805190602001fd5b6040519062461bcd60e51b82528160208060048301528251908160248401526000935b82851061028a575050604492506000838284010152601f80199101168101030190fd5b848101820151868601604401529381019385935061026756fea2646970667358221220b7627444c12e3769362b96b4d26ce4a6ea5ceeb51134faa1eec2e358627b4c1c64736f6c63430008130033",
  "linkReferences": {},
  "deployedLinkReferences": {}
}