{
  "_format": "hh-sol-artifact-1",
  "contractName": "ExternalProxyCall",
  "sourceName": "contracts/helpers/ExternalProxyCall.sol",
  "abi": [
    {
      "inputs": [
        {
          "internalType": "address",
          "name": "externalContract",
          "type": "address"
        },
        {
          "internalType": "bytes",
          "name": "callData",
          "type": "bytes"
        }
      ],
      "name": "proxyCallAndReturnAddress",
      "outputs": [
        {
          "internalType": "address payable",
          "name": "result",
          "type": "address"
        }
      ],
      "stateMutability": "nonpayable",
      "type": "function"
    }
  ],
  "bytecode": "0x60808060405234610016576103b4908161001c8239f35b600080fdfe6080604052600436101561001257600080fd5b6000803560e01c63a1453b0e1461002857600080fd5b346101135760407ffffffffffffffffffffffffffffffffffffffffffffffffffffffffffffffffc3601126101135760043573ffffffffffffffffffffffffffffffffffffffff8116810361010f576024359067ffffffffffffffff821161010b573660238301121561010b5781600401356100ab6100a68261018e565b610145565b92818452366024838301011161010757916101039460208381969460246100da970183870137840101526101c8565b015160405173ffffffffffffffffffffffffffffffffffffffff90911681529081906020820190565b0390f35b8480fd5b8280fd5b5080fd5b80fd5b7f4e487b7100000000000000000000000000000000000000000000000000000000600052604160045260246000fd5b907fffffffffffffffffffffffffffffffffffffffffffffffffffffffffffffffe0601f604051930116820182811067ffffffffffffffff82111761018957604052565b610116565b67ffffffffffffffff811161018957601f017fffffffffffffffffffffffffffffffffffffffffffffffffffffffffffffffe01660200190565b60405190604082019282841067ffffffffffffffff851117610189576000809161024795604052601e85527f416464726573733a206c6f772d6c6576656c2063616c6c206661696c65640000602086015260208151910182855af13d1561024a573d916102376100a68461018e565b9283523d6000602085013e6102b7565b90565b6060916102b7565b1561025957565b60646040517f08c379a000000000000000000000000000000000000000000000000000000000815260206004820152601d60248201527f416464726573733a2063616c6c20746f206e6f6e2d636f6e74726163740000006044820152fd5b919290156102d757508151156102cb575090565b610247903b1515610252565b8251909150156102ea5750805190602001fd5b604051907f08c379a000000000000000000000000000000000000000000000000000000000825281602080600483015282519283602484015260005b848110610367575050507fffffffffffffffffffffffffffffffffffffffffffffffffffffffffffffffe0601f836000604480968601015201168101030190fd5b81810183015186820160440152859350820161032656fea2646970667358221220302838fe53596b27de0f606358691fecdc0c3b8eba76e14f46dbd4d2aa522c8c64736f6c63430008130033",
  "linkReferences": {},
  "deployedLinkReferences": {}
}