{
  "_format": "hh-sol-artifact-1",
  "contractName": "ProofBuilder",
  "sourceName": "contracts/helpers/sismo/utils/SismoConnectProofBuilder.sol",
  "abi": [
    {
      "inputs": [],
      "name": "DEFAULT_PROOF_EXTRA_DATA",
      "outputs": [
        {
          "internalType": "bytes",
          "name": "",
          "type": "bytes"
        }
      ],
      "stateMutability": "view",
      "type": "function"
    },
    {
      "inputs": [],
      "name": "DEFAULT_PROOF_PROVING_SCHEME",
      "outputs": [
        {
          "internalType": "bytes32",
          "name": "",
          "type": "bytes32"
        }
      ],
      "stateMutability": "view",
      "type": "function"
    },
    {
      "inputs": [
        {
          "components": [
            {
              "internalType": "enum AuthType",
              "name": "authType",
              "type": "AuthType"
            },
            {
              "internalType": "bool",
              "name": "isAnon",
              "type": "bool"
            },
            {
              "internalType": "bool",
              "name": "isSelectableByUser",
              "type": "bool"
            },
            {
              "internalType": "uint256",
              "name": "userId",
              "type": "uint256"
            },
            {
              "internalType": "bytes",
              "name": "extraData",
              "type": "bytes"
            }
          ],
          "internalType": "struct Auth[]",
          "name": "auths",
          "type": "tuple[]"
        },
        {
          "components": [
            {
              "internalType": "enum ClaimType",
              "name": "claimType",
              "type": "ClaimType"
            },
            {
              "internalType": "bytes16",
              "name": "groupId",
              "type": "bytes16"
            },
            {
              "internalType": "bytes16",
              "name": "groupTimestamp",
              "type": "bytes16"
            },
            {
              "internalType": "bool",
              "name": "isSelectableByUser",
              "type": "bool"
            },
            {
              "internalType": "uint256",
              "name": "value",
              "type": "uint256"
            },
            {
              "internalType": "bytes",
              "name": "extraData",
              "type": "bytes"
            }
          ],
          "internalType": "struct Claim[]",
          "name": "claims",
          "type": "tuple[]"
        },
        {
          "internalType": "bytes",
          "name": "proofData",
          "type": "bytes"
        }
      ],
      "name": "build",
      "outputs": [
        {
          "components": [
            {
              "components": [
                {
                  "internalType": "enum AuthType",
                  "name": "authType",
                  "type": "AuthType"
                },
                {
                  "internalType": "bool",
                  "name": "isAnon",
                  "type": "bool"
                },
                {
                  "internalType": "bool",
                  "name": "isSelectableByUser",
                  "type": "bool"
                },
                {
                  "internalType": "uint256",
                  "name": "userId",
                  "type": "uint256"
                },
                {
                  "internalType": "bytes",
                  "name": "extraData",
                  "type": "bytes"
                }
              ],
              "internalType": "struct Auth[]",
              "name": "auths",
              "type": "tuple[]"
            },
            {
              "components": [
                {
                  "internalType": "enum ClaimType",
                  "name": "claimType",
                  "type": "ClaimType"
                },
                {
                  "internalType": "bytes16",
                  "name": "groupId",
                  "type": "bytes16"
                },
                {
                  "internalType": "bytes16",
                  "name": "groupTimestamp",
                  "type": "bytes16"
                },
                {
                  "internalType": "bool",
                  "name": "isSelectableByUser",
                  "type": "bool"
                },
                {
                  "internalType": "uint256",
                  "name": "value",
                  "type": "uint256"
                },
                {
                  "internalType": "bytes",
                  "name": "extraData",
                  "type": "bytes"
                }
              ],
              "internalType": "struct Claim[]",
              "name": "claims",
              "type": "tuple[]"
            },
            {
              "internalType": "bytes32",
              "name": "provingScheme",
              "type": "bytes32"
            },
            {
              "internalType": "bytes",
              "name": "proofData",
              "type": "bytes"
            },
            {
              "internalType": "bytes",
              "name": "extraData",
              "type": "bytes"
            }
          ],
          "internalType": "struct SismoConnectProof",
          "name": "",
          "type": "tuple"
        }
      ],
      "stateMutability": "pure",
      "type": "function"
    },
    {
      "inputs": [
        {
          "components": [
            {
              "internalType": "enum AuthType",
              "name": "authType",
              "type": "AuthType"
            },
            {
              "internalType": "bool",
              "name": "isAnon",
              "type": "bool"
            },
            {
              "internalType": "bool",
              "name": "isSelectableByUser",
              "type": "bool"
            },
            {
              "internalType": "uint256",
              "name": "userId",
              "type": "uint256"
            },
            {
              "internalType": "bytes",
              "name": "extraData",
              "type": "bytes"
            }
          ],
          "internalType": "struct Auth",
          "name": "auth",
          "type": "tuple"
        },
        {
          "internalType": "bytes",
          "name": "proofData",
          "type": "bytes"
        }
      ],
      "name": "build",
      "outputs": [
        {
          "components": [
            {
              "components": [
                {
                  "internalType": "enum AuthType",
                  "name": "authType",
                  "type": "AuthType"
                },
                {
                  "internalType": "bool",
                  "name": "isAnon",
                  "type": "bool"
                },
                {
                  "internalType": "bool",
                  "name": "isSelectableByUser",
                  "type": "bool"
                },
                {
                  "internalType": "uint256",
                  "name": "userId",
                  "type": "uint256"
                },
                {
                  "internalType": "bytes",
                  "name": "extraData",
                  "type": "bytes"
                }
              ],
              "internalType": "struct Auth[]",
              "name": "auths",
              "type": "tuple[]"
            },
            {
              "components": [
                {
                  "internalType": "enum ClaimType",
                  "name": "claimType",
                  "type": "ClaimType"
                },
                {
                  "internalType": "bytes16",
                  "name": "groupId",
                  "type": "bytes16"
                },
                {
                  "internalType": "bytes16",
                  "name": "groupTimestamp",
                  "type": "bytes16"
                },
                {
                  "internalType": "bool",
                  "name": "isSelectableByUser",
                  "type": "bool"
                },
                {
                  "internalType": "uint256",
                  "name": "value",
                  "type": "uint256"
                },
                {
                  "internalType": "bytes",
                  "name": "extraData",
                  "type": "bytes"
                }
              ],
              "internalType": "struct Claim[]",
              "name": "claims",
              "type": "tuple[]"
            },
            {
              "internalType": "bytes32",
              "name": "provingScheme",
              "type": "bytes32"
            },
            {
              "internalType": "bytes",
              "name": "proofData",
              "type": "bytes"
            },
            {
              "internalType": "bytes",
              "name": "extraData",
              "type": "bytes"
            }
          ],
          "internalType": "struct SismoConnectProof",
          "name": "",
          "type": "tuple"
        }
      ],
      "stateMutability": "pure",
      "type": "function"
    },
    {
      "inputs": [
        {
          "components": [
            {
              "internalType": "enum ClaimType",
              "name": "claimType",
              "type": "ClaimType"
            },
            {
              "internalType": "bytes16",
              "name": "groupId",
              "type": "bytes16"
            },
            {
              "internalType": "bytes16",
              "name": "groupTimestamp",
              "type": "bytes16"
            },
            {
              "internalType": "bool",
              "name": "isSelectableByUser",
              "type": "bool"
            },
            {
              "internalType": "uint256",
              "name": "value",
              "type": "uint256"
            },
            {
              "internalType": "bytes",
              "name": "extraData",
              "type": "bytes"
            }
          ],
          "internalType": "struct Claim",
          "name": "claim",
          "type": "tuple"
        },
        {
          "internalType": "bytes",
          "name": "proofData",
          "type": "bytes"
        },
        {
          "internalType": "bytes32",
          "name": "provingScheme",
          "type": "bytes32"
        }
      ],
      "name": "build",
      "outputs": [
        {
          "components": [
            {
              "components": [
                {
                  "internalType": "enum AuthType",
                  "name": "authType",
                  "type": "AuthType"
                },
                {
                  "internalType": "bool",
                  "name": "isAnon",
                  "type": "bool"
                },
                {
                  "internalType": "bool",
                  "name": "isSelectableByUser",
                  "type": "bool"
                },
                {
                  "internalType": "uint256",
                  "name": "userId",
                  "type": "uint256"
                },
                {
                  "internalType": "bytes",
                  "name": "extraData",
                  "type": "bytes"
                }
              ],
              "internalType": "struct Auth[]",
              "name": "auths",
              "type": "tuple[]"
            },
            {
              "components": [
                {
                  "internalType": "enum ClaimType",
                  "name": "claimType",
                  "type": "ClaimType"
                },
                {
                  "internalType": "bytes16",
                  "name": "groupId",
                  "type": "bytes16"
                },
                {
                  "internalType": "bytes16",
                  "name": "groupTimestamp",
                  "type": "bytes16"
                },
                {
                  "internalType": "bool",
                  "name": "isSelectableByUser",
                  "type": "bool"
                },
                {
                  "internalType": "uint256",
                  "name": "value",
                  "type": "uint256"
                },
                {
                  "internalType": "bytes",
                  "name": "extraData",
                  "type": "bytes"
                }
              ],
              "internalType": "struct Claim[]",
              "name": "claims",
              "type": "tuple[]"
            },
            {
              "internalType": "bytes32",
              "name": "provingScheme",
              "type": "bytes32"
            },
            {
              "internalType": "bytes",
              "name": "proofData",
              "type": "bytes"
            },
            {
              "internalType": "bytes",
              "name": "extraData",
              "type": "bytes"
            }
          ],
          "internalType": "struct SismoConnectProof",
          "name": "",
          "type": "tuple"
        }
      ],
      "stateMutability": "pure",
      "type": "function"
    },
    {
      "inputs": [
        {
          "components": [
            {
              "internalType": "enum AuthType",
              "name": "authType",
              "type": "AuthType"
            },
            {
              "internalType": "bool",
              "name": "isAnon",
              "type": "bool"
            },
            {
              "internalType": "bool",
              "name": "isSelectableByUser",
              "type": "bool"
            },
            {
              "internalType": "uint256",
              "name": "userId",
              "type": "uint256"
            },
            {
              "internalType": "bytes",
              "name": "extraData",
              "type": "bytes"
            }
          ],
          "internalType": "struct Auth",
          "name": "auth",
          "type": "tuple"
        },
        {
          "internalType": "bytes",
          "name": "proofData",
          "type": "bytes"
        },
        {
          "internalType": "bytes32",
          "name": "provingScheme",
          "type": "bytes32"
        }
      ],
      "name": "build",
      "outputs": [
        {
          "components": [
            {
              "components": [
                {
                  "internalType": "enum AuthType",
                  "name": "authType",
                  "type": "AuthType"
                },
                {
                  "internalType": "bool",
                  "name": "isAnon",
                  "type": "bool"
                },
                {
                  "internalType": "bool",
                  "name": "isSelectableByUser",
                  "type": "bool"
                },
                {
                  "internalType": "uint256",
                  "name": "userId",
                  "type": "uint256"
                },
                {
                  "internalType": "bytes",
                  "name": "extraData",
                  "type": "bytes"
                }
              ],
              "internalType": "struct Auth[]",
              "name": "auths",
              "type": "tuple[]"
            },
            {
              "components": [
                {
                  "internalType": "enum ClaimType",
                  "name": "claimType",
                  "type": "ClaimType"
                },
                {
                  "internalType": "bytes16",
                  "name": "groupId",
                  "type": "bytes16"
                },
                {
                  "internalType": "bytes16",
                  "name": "groupTimestamp",
                  "type": "bytes16"
                },
                {
                  "internalType": "bool",
                  "name": "isSelectableByUser",
                  "type": "bool"
                },
                {
                  "internalType": "uint256",
                  "name": "value",
                  "type": "uint256"
                },
                {
                  "internalType": "bytes",
                  "name": "extraData",
                  "type": "bytes"
                }
              ],
              "internalType": "struct Claim[]",
              "name": "claims",
              "type": "tuple[]"
            },
            {
              "internalType": "bytes32",
              "name": "provingScheme",
              "type": "bytes32"
            },
            {
              "internalType": "bytes",
              "name": "proofData",
              "type": "bytes"
            },
            {
              "internalType": "bytes",
              "name": "extraData",
              "type": "bytes"
            }
          ],
          "internalType": "struct SismoConnectProof",
          "name": "",
          "type": "tuple"
        }
      ],
      "stateMutability": "pure",
      "type": "function"
    },
    {
      "inputs": [
        {
          "components": [
            {
              "internalType": "enum ClaimType",
              "name": "claimType",
              "type": "ClaimType"
            },
            {
              "internalType": "bytes16",
              "name": "groupId",
              "type": "bytes16"
            },
            {
              "internalType": "bytes16",
              "name": "groupTimestamp",
              "type": "bytes16"
            },
            {
              "internalType": "bool",
              "name": "isSelectableByUser",
              "type": "bool"
            },
            {
              "internalType": "uint256",
              "name": "value",
              "type": "uint256"
            },
            {
              "internalType": "bytes",
              "name": "extraData",
              "type": "bytes"
            }
          ],
          "internalType": "struct Claim",
          "name": "claim",
          "type": "tuple"
        },
        {
          "internalType": "bytes",
          "name": "proofData",
          "type": "bytes"
        }
      ],
      "name": "build",
      "outputs": [
        {
          "components": [
            {
              "components": [
                {
                  "internalType": "enum AuthType",
                  "name": "authType",
                  "type": "AuthType"
                },
                {
                  "internalType": "bool",
                  "name": "isAnon",
                  "type": "bool"
                },
                {
                  "internalType": "bool",
                  "name": "isSelectableByUser",
                  "type": "bool"
                },
                {
                  "internalType": "uint256",
                  "name": "userId",
                  "type": "uint256"
                },
                {
                  "internalType": "bytes",
                  "name": "extraData",
                  "type": "bytes"
                }
              ],
              "internalType": "struct Auth[]",
              "name": "auths",
              "type": "tuple[]"
            },
            {
              "components": [
                {
                  "internalType": "enum ClaimType",
                  "name": "claimType",
                  "type": "ClaimType"
                },
                {
                  "internalType": "bytes16",
                  "name": "groupId",
                  "type": "bytes16"
                },
                {
                  "internalType": "bytes16",
                  "name": "groupTimestamp",
                  "type": "bytes16"
                },
                {
                  "internalType": "bool",
                  "name": "isSelectableByUser",
                  "type": "bool"
                },
                {
                  "internalType": "uint256",
                  "name": "value",
                  "type": "uint256"
                },
                {
                  "internalType": "bytes",
                  "name": "extraData",
                  "type": "bytes"
                }
              ],
              "internalType": "struct Claim[]",
              "name": "claims",
              "type": "tuple[]"
            },
            {
              "internalType": "bytes32",
              "name": "provingScheme",
              "type": "bytes32"
            },
            {
              "internalType": "bytes",
              "name": "proofData",
              "type": "bytes"
            },
            {
              "internalType": "bytes",
              "name": "extraData",
              "type": "bytes"
            }
          ],
          "internalType": "struct SismoConnectProof",
          "name": "",
          "type": "tuple"
        }
      ],
      "stateMutability": "pure",
      "type": "function"
    },
    {
      "inputs": [
        {
          "components": [
            {
              "internalType": "enum AuthType",
              "name": "authType",
              "type": "AuthType"
            },
            {
              "internalType": "bool",
              "name": "isAnon",
              "type": "bool"
            },
            {
              "internalType": "bool",
              "name": "isSelectableByUser",
              "type": "bool"
            },
            {
              "internalType": "uint256",
              "name": "userId",
              "type": "uint256"
            },
            {
              "internalType": "bytes",
              "name": "extraData",
              "type": "bytes"
            }
          ],
          "internalType": "struct Auth",
          "name": "auth",
          "type": "tuple"
        },
        {
          "components": [
            {
              "internalType": "enum ClaimType",
              "name": "claimType",
              "type": "ClaimType"
            },
            {
              "internalType": "bytes16",
              "name": "groupId",
              "type": "bytes16"
            },
            {
              "internalType": "bytes16",
              "name": "groupTimestamp",
              "type": "bytes16"
            },
            {
              "internalType": "bool",
              "name": "isSelectableByUser",
              "type": "bool"
            },
            {
              "internalType": "uint256",
              "name": "value",
              "type": "uint256"
            },
            {
              "internalType": "bytes",
              "name": "extraData",
              "type": "bytes"
            }
          ],
          "internalType": "struct Claim",
          "name": "claim",
          "type": "tuple"
        },
        {
          "internalType": "bytes",
          "name": "proofData",
          "type": "bytes"
        }
      ],
      "name": "build",
      "outputs": [
        {
          "components": [
            {
              "components": [
                {
                  "internalType": "enum AuthType",
                  "name": "authType",
                  "type": "AuthType"
                },
                {
                  "internalType": "bool",
                  "name": "isAnon",
                  "type": "bool"
                },
                {
                  "internalType": "bool",
                  "name": "isSelectableByUser",
                  "type": "bool"
                },
                {
                  "internalType": "uint256",
                  "name": "userId",
                  "type": "uint256"
                },
                {
                  "internalType": "bytes",
                  "name": "extraData",
                  "type": "bytes"
                }
              ],
              "internalType": "struct Auth[]",
              "name": "auths",
              "type": "tuple[]"
            },
            {
              "components": [
                {
                  "internalType": "enum ClaimType",
                  "name": "claimType",
                  "type": "ClaimType"
                },
                {
                  "internalType": "bytes16",
                  "name": "groupId",
                  "type": "bytes16"
                },
                {
                  "internalType": "bytes16",
                  "name": "groupTimestamp",
                  "type": "bytes16"
                },
                {
                  "internalType": "bool",
                  "name": "isSelectableByUser",
                  "type": "bool"
                },
                {
                  "internalType": "uint256",
                  "name": "value",
                  "type": "uint256"
                },
                {
                  "internalType": "bytes",
                  "name": "extraData",
                  "type": "bytes"
                }
              ],
              "internalType": "struct Claim[]",
              "name": "claims",
              "type": "tuple[]"
            },
            {
              "internalType": "bytes32",
              "name": "provingScheme",
              "type": "bytes32"
            },
            {
              "internalType": "bytes",
              "name": "proofData",
              "type": "bytes"
            },
            {
              "internalType": "bytes",
              "name": "extraData",
              "type": "bytes"
            }
          ],
          "internalType": "struct SismoConnectProof",
          "name": "",
          "type": "tuple"
        }
      ],
      "stateMutability": "pure",
      "type": "function"
    },
    {
      "inputs": [
        {
          "components": [
            {
              "internalType": "enum AuthType",
              "name": "authType",
              "type": "AuthType"
            },
            {
              "internalType": "bool",
              "name": "isAnon",
              "type": "bool"
            },
            {
              "internalType": "bool",
              "name": "isSelectableByUser",
              "type": "bool"
            },
            {
              "internalType": "uint256",
              "name": "userId",
              "type": "uint256"
            },
            {
              "internalType": "bytes",
              "name": "extraData",
              "type": "bytes"
            }
          ],
          "internalType": "struct Auth",
          "name": "auth",
          "type": "tuple"
        },
        {
          "components": [
            {
              "internalType": "enum ClaimType",
              "name": "claimType",
              "type": "ClaimType"
            },
            {
              "internalType": "bytes16",
              "name": "groupId",
              "type": "bytes16"
            },
            {
              "internalType": "bytes16",
              "name": "groupTimestamp",
              "type": "bytes16"
            },
            {
              "internalType": "bool",
              "name": "isSelectableByUser",
              "type": "bool"
            },
            {
              "internalType": "uint256",
              "name": "value",
              "type": "uint256"
            },
            {
              "internalType": "bytes",
              "name": "extraData",
              "type": "bytes"
            }
          ],
          "internalType": "struct Claim",
          "name": "claim",
          "type": "tuple"
        },
        {
          "internalType": "bytes",
          "name": "proofData",
          "type": "bytes"
        },
        {
          "internalType": "bytes32",
          "name": "provingScheme",
          "type": "bytes32"
        }
      ],
      "name": "build",
      "outputs": [
        {
          "components": [
            {
              "components": [
                {
                  "internalType": "enum AuthType",
                  "name": "authType",
                  "type": "AuthType"
                },
                {
                  "internalType": "bool",
                  "name": "isAnon",
                  "type": "bool"
                },
                {
                  "internalType": "bool",
                  "name": "isSelectableByUser",
                  "type": "bool"
                },
                {
                  "internalType": "uint256",
                  "name": "userId",
                  "type": "uint256"
                },
                {
                  "internalType": "bytes",
                  "name": "extraData",
                  "type": "bytes"
                }
              ],
              "internalType": "struct Auth[]",
              "name": "auths",
              "type": "tuple[]"
            },
            {
              "components": [
                {
                  "internalType": "enum ClaimType",
                  "name": "claimType",
                  "type": "ClaimType"
                },
                {
                  "internalType": "bytes16",
                  "name": "groupId",
                  "type": "bytes16"
                },
                {
                  "internalType": "bytes16",
                  "name": "groupTimestamp",
                  "type": "bytes16"
                },
                {
                  "internalType": "bool",
                  "name": "isSelectableByUser",
                  "type": "bool"
                },
                {
                  "internalType": "uint256",
                  "name": "value",
                  "type": "uint256"
                },
                {
                  "internalType": "bytes",
                  "name": "extraData",
                  "type": "bytes"
                }
              ],
              "internalType": "struct Claim[]",
              "name": "claims",
              "type": "tuple[]"
            },
            {
              "internalType": "bytes32",
              "name": "provingScheme",
              "type": "bytes32"
            },
            {
              "internalType": "bytes",
              "name": "proofData",
              "type": "bytes"
            },
            {
              "internalType": "bytes",
              "name": "extraData",
              "type": "bytes"
            }
          ],
          "internalType": "struct SismoConnectProof",
          "name": "",
          "type": "tuple"
        }
      ],
      "stateMutability": "pure",
      "type": "function"
    },
    {
      "inputs": [
        {
          "components": [
            {
              "internalType": "enum AuthType",
              "name": "authType",
              "type": "AuthType"
            },
            {
              "internalType": "bool",
              "name": "isAnon",
              "type": "bool"
            },
            {
              "internalType": "bool",
              "name": "isSelectableByUser",
              "type": "bool"
            },
            {
              "internalType": "uint256",
              "name": "userId",
              "type": "uint256"
            },
            {
              "internalType": "bytes",
              "name": "extraData",
              "type": "bytes"
            }
          ],
          "internalType": "struct Auth[]",
          "name": "auths",
          "type": "tuple[]"
        },
        {
          "components": [
            {
              "internalType": "enum ClaimType",
              "name": "claimType",
              "type": "ClaimType"
            },
            {
              "internalType": "bytes16",
              "name": "groupId",
              "type": "bytes16"
            },
            {
              "internalType": "bytes16",
              "name": "groupTimestamp",
              "type": "bytes16"
            },
            {
              "internalType": "bool",
              "name": "isSelectableByUser",
              "type": "bool"
            },
            {
              "internalType": "uint256",
              "name": "value",
              "type": "uint256"
            },
            {
              "internalType": "bytes",
              "name": "extraData",
              "type": "bytes"
            }
          ],
          "internalType": "struct Claim[]",
          "name": "claims",
          "type": "tuple[]"
        },
        {
          "internalType": "bytes",
          "name": "proofData",
          "type": "bytes"
        },
        {
          "internalType": "bytes32",
          "name": "provingScheme",
          "type": "bytes32"
        }
      ],
      "name": "build",
      "outputs": [
        {
          "components": [
            {
              "components": [
                {
                  "internalType": "enum AuthType",
                  "name": "authType",
                  "type": "AuthType"
                },
                {
                  "internalType": "bool",
                  "name": "isAnon",
                  "type": "bool"
                },
                {
                  "internalType": "bool",
                  "name": "isSelectableByUser",
                  "type": "bool"
                },
                {
                  "internalType": "uint256",
                  "name": "userId",
                  "type": "uint256"
                },
                {
                  "internalType": "bytes",
                  "name": "extraData",
                  "type": "bytes"
                }
              ],
              "internalType": "struct Auth[]",
              "name": "auths",
              "type": "tuple[]"
            },
            {
              "components": [
                {
                  "internalType": "enum ClaimType",
                  "name": "claimType",
                  "type": "ClaimType"
                },
                {
                  "internalType": "bytes16",
                  "name": "groupId",
                  "type": "bytes16"
                },
                {
                  "internalType": "bytes16",
                  "name": "groupTimestamp",
                  "type": "bytes16"
                },
                {
                  "internalType": "bool",
                  "name": "isSelectableByUser",
                  "type": "bool"
                },
                {
                  "internalType": "uint256",
                  "name": "value",
                  "type": "uint256"
                },
                {
                  "internalType": "bytes",
                  "name": "extraData",
                  "type": "bytes"
                }
              ],
              "internalType": "struct Claim[]",
              "name": "claims",
              "type": "tuple[]"
            },
            {
              "internalType": "bytes32",
              "name": "provingScheme",
              "type": "bytes32"
            },
            {
              "internalType": "bytes",
              "name": "proofData",
              "type": "bytes"
            },
            {
              "internalType": "bytes",
              "name": "extraData",
              "type": "bytes"
            }
          ],
          "internalType": "struct SismoConnectProof",
          "name": "",
          "type": "tuple"
        }
      ],
      "stateMutability": "pure",
      "type": "function"
    }
  ],
  "bytecode": "0x6080806040523461001a57610ec49081610020823930815050f35b600080fdfe60806040908082526004918236101561001757600080fd5b600091823560e01c908163034121d1146106a3575080631e0fdcea1461061c5780633b606951146105d05780635ea9cfa01461052f578063605cc1f31461048c5780636428e33e146103bc578063c6dab85f14610333578063c72824961461021d578063c89320b01461015c5763ef4ce2361461009357600080fd5b60807ffffffffffffffffffffffffffffffffffffffffffffffffffffffffffffffffc3601126101585767ffffffffffffffff918335838111610158576100dd90369086016108f8565b92602435818111610154576100f59036908701610a26565b90604435908111610154576101509561011091369101610813565b90610119610d7a565b50610122610765565b92835261012d6106f6565b948552602085015260643583850152606084015260808301525191829182610afb565b0390f35b8280fd5b5080fd5b5060807ffffffffffffffffffffffffffffffffffffffffffffffffffffffffffffffffc3601126101585767ffffffffffffffff918335838111610158576101a79036908601610884565b92602435818111610154576101bf90369087016109a1565b9060443590811161015457610150956101da91369101610813565b906101e3610d7a565b506101ec610da4565b946101f686610dfa565b5261020085610dfa565b50610209610e36565b9061021382610dfa565b5261011981610dfa565b5060607ffffffffffffffffffffffffffffffffffffffffffffffffffffffffffffffffc3601126101585767ffffffffffffffff918335838111610158576102689036908601610884565b926024358181116101545761028090369087016109a1565b90604435908111610154576101509561029b91369101610813565b906102a4610d7a565b506102ad610da4565b946102b786610dfa565b526102c185610dfa565b506102ca610e36565b906102d482610dfa565b526102de81610dfa565b506102e7610765565b9283526102f26106f6565b94855260208501527f68796472612d73332e310000000000000000000000000000000000000000000083850152606084015260808301525191829182610afb565b508083917ffffffffffffffffffffffffffffffffffffffffffffffffffffffffffffffffc3601126101545767ffffffffffffffff9180358381116103b85761037f90369083016109a1565b926024359081116103b857610150949161039b91369101610813565b6103a3610d7a565b506103ac610765565b938285526102ca610e36565b8480fd5b50829060607ffffffffffffffffffffffffffffffffffffffffffffffffffffffffffffffffc3601126101545767ffffffffffffffff9180358381116103b8576104099036908301610884565b926024359081116103b857610150949161042591369101610813565b61042d610d7a565b50610436610da4565b9361044085610dfa565b5261044a84610dfa565b50610453610765565b82815261045e610765565b9283526104696106f6565b948552602085015260443583850152606084015260808301525191829182610afb565b50829060607ffffffffffffffffffffffffffffffffffffffffffffffffffffffffffffffffc3601126101545767ffffffffffffffff9180358381116103b8576104d990369083016109a1565b926024359081116103b85761015094916104f591369101610813565b6104fd610d7a565b50610506610765565b93828552610512610e36565b9061051c82610dfa565b5261052681610dfa565b5061045e610765565b508083917ffffffffffffffffffffffffffffffffffffffffffffffffffffffffffffffffc3601126101545767ffffffffffffffff9180358381116103b85761057b9036908301610884565b926024359081116103b857610150949161059791369101610813565b61059f610d7a565b506105a8610da4565b936105b285610dfa565b526105bc84610dfa565b506105c5610765565b8281526102e7610765565b50817ffffffffffffffffffffffffffffffffffffffffffffffffffffffffffffffffc360112610158579061015091610607610765565b91825251918291602083526020830190610a9d565b5060607ffffffffffffffffffffffffffffffffffffffffffffffffffffffffffffffffc3601126101585767ffffffffffffffff9183358381116101585761066790369086016108f8565b926024358181116101545761067f9036908701610a26565b90604435908111610154576101509561069a91369101610813565b906102de610d7a565b8390817ffffffffffffffffffffffffffffffffffffffffffffffffffffffffffffffffc36011261015857807f68796472612d73332e310000000000000000000000000000000000000000000060209252f35b6040519060a0820182811067ffffffffffffffff82111761071657604052565b7f4e487b7100000000000000000000000000000000000000000000000000000000600052604160045260246000fd5b6040519060c0820182811067ffffffffffffffff82111761071657604052565b604051906020820182811067ffffffffffffffff82111761071657604052565b604051906040820182811067ffffffffffffffff82111761071657604052565b907fffffffffffffffffffffffffffffffffffffffffffffffffffffffffffffffe0601f604051930116820182811067ffffffffffffffff82111761071657604052565b67ffffffffffffffff81116107165760051b60200190565b3590811515820361080e57565b600080fd5b81601f8201121561080e5780359067ffffffffffffffff82116107165761086160207fffffffffffffffffffffffffffffffffffffffffffffffffffffffffffffffe0601f850116016107a5565b928284526020838301011161080e57816000926020809301838601378301015290565b91909160a08184031261080e576108996106f6565b928135600681101561080e5784526108b360208301610801565b60208501526108c460408301610801565b604085015260608201356060850152608082013567ffffffffffffffff811161080e576108f19201610813565b6080830152565b81601f8201121561080e57803591610917610912846107e9565b6107a5565b9182938084526020808095019160051b8301019280841161080e57848301915b8483106109475750505050505090565b823567ffffffffffffffff811161080e57869161096984848094890101610884565b815201920191610937565b35907fffffffffffffffffffffffffffffffff000000000000000000000000000000008216820361080e57565b91909160c08184031261080e576109b6610745565b928135600581101561080e5784526109d060208301610974565b60208501526109e160408301610974565b60408501526109f260608301610801565b60608501526080820135608085015260a082013567ffffffffffffffff811161080e57610a1f9201610813565b60a0830152565b81601f8201121561080e57803591610a40610912846107e9565b9182938084526020808095019160051b8301019280841161080e57848301915b848310610a705750505050505090565b823567ffffffffffffffff811161080e578691610a92848480948901016109a1565b815201920191610a60565b919082519283825260005b848110610ae75750507fffffffffffffffffffffffffffffffffffffffffffffffffffffffffffffffe0601f8460006020809697860101520116010190565b602081830181015184830182015201610aa8565b91906020835260c09283810182519060a06020840152815180915260e0830190602060e08260051b86010193019160005b828110610cf557505050506020830151947fffffffffffffffffffffffffffffffffffffffffffffffffffffffffffffffe083830301604084015285519081835260208301926020808460051b8301019801936000915b848310610c0d575050505050506080610bd7610c0a94956040850151606085015260608501517fffffffffffffffffffffffffffffffffffffffffffffffffffffffffffffffe08583030184860152610a9d565b9201519060a07fffffffffffffffffffffffffffffffffffffffffffffffffffffffffffffffe082850301910152610a9d565b90565b9091929394987fffffffffffffffffffffffffffffffffffffffffffffffffffffffffffffffe08282030183528951908151916005831015610cc657610cb6828860a0602095946001978796527fffffffffffffffffffffffffffffffff00000000000000000000000000000000808783015116878601526040820151166040850152606080820151151590850152608080820151908501520151918160a08201520190610a9d565b9b01930193019194939290610b83565b7f4e487b7100000000000000000000000000000000000000000000000000000000600052602160045260246000fd5b909192937fffffffffffffffffffffffffffffffffffffffffffffffffffffffffffffff20868203018352845180516006811015610cc657610d6e60209260a085859460019752848301511515858201526040808401511515908201526060808401519082015281608080940151938201520190610a9d565b96019493019101610b2c565b610d826106f6565b9060608252606060208301526000604083015260608083015260606080830152565b610dac610785565b90600182528160005b60209081811015610df557602091610dcb6106f6565b90600082526000818301526000604083015260606000818401526080830152828501015201610db5565b505050565b805115610e075760200190565b7f4e487b7100000000000000000000000000000000000000000000000000000000600052603260045260246000fd5b610e3e610785565b90600182528160005b60209081811015610df557602091610e5d610745565b90600082526000818301526000604083015260606000818401526000608084015260a0830152828501015201610e4756fea2646970667358221220df8316373efc0a90d714b3e4de711391442aeb315b9fb0608161a603d4bd5df964736f6c63430008130033",
  "linkReferences": {},
  "deployedLinkReferences": {}
}