{
  "_format": "hh-sol-artifact-1",
  "contractName": "MecenateVault",
  "sourceName": "contracts/MecenateVault.sol",
  "abi": [
    {
      "inputs": [
        {
          "internalType": "address",
          "name": "_verifierContract",
          "type": "address"
        },
        {
          "internalType": "address",
          "name": "_factoryContract",
          "type": "address"
        },
        {
          "internalType": "address",
          "name": "_bayContract",
          "type": "address"
        },
        {
          "internalType": "address",
          "name": "_usersContract",
          "type": "address"
        },
        {
          "internalType": "address",
          "name": "_relayer",
          "type": "address"
        }
      ],
      "stateMutability": "nonpayable",
      "type": "constructor"
    },
    {
      "anonymous": false,
      "inputs": [
        {
          "indexed": false,
          "internalType": "address",
          "name": "userAddress",
          "type": "address"
        },
        {
          "indexed": false,
          "internalType": "address",
          "name": "relayerAddress",
          "type": "address"
        },
        {
          "indexed": false,
          "internalType": "bytes",
          "name": "functionSignature",
          "type": "bytes"
        }
      ],
      "name": "MetaTransactionExecuted",
      "type": "event"
    },
    {
      "anonymous": false,
      "inputs": [
        {
          "indexed": true,
          "internalType": "address",
          "name": "previousOwner",
          "type": "address"
        },
        {
          "indexed": true,
          "internalType": "address",
          "name": "newOwner",
          "type": "address"
        }
      ],
      "name": "OwnershipTransferred",
      "type": "event"
    },
    {
      "anonymous": false,
      "inputs": [
        {
          "indexed": true,
          "internalType": "bytes32",
          "name": "commitment",
          "type": "bytes32"
        },
        {
          "indexed": false,
          "internalType": "uint256",
          "name": "amount",
          "type": "uint256"
        },
        {
          "indexed": false,
          "internalType": "string",
          "name": "secret",
          "type": "string"
        },
        {
          "indexed": false,
          "internalType": "address",
          "name": "token",
          "type": "address"
        }
      ],
      "name": "Withdrawn",
      "type": "event"
    },
    {
      "stateMutability": "payable",
      "type": "fallback"
    },
    {
      "inputs": [],
      "name": "DAI",
      "outputs": [
        {
          "internalType": "address",
          "name": "",
          "type": "address"
        }
      ],
      "stateMutability": "view",
      "type": "function"
    },
    {
      "inputs": [],
      "name": "MAX_RELAYER_FEE_PERCENTAGE",
      "outputs": [
        {
          "internalType": "uint256",
          "name": "",
          "type": "uint256"
        }
      ],
      "stateMutability": "view",
      "type": "function"
    },
    {
      "inputs": [],
      "name": "MUSE",
      "outputs": [
        {
          "internalType": "address",
          "name": "",
          "type": "address"
        }
      ],
      "stateMutability": "view",
      "type": "function"
    },
    {
      "inputs": [],
      "name": "USDC",
      "outputs": [
        {
          "internalType": "address",
          "name": "",
          "type": "address"
        }
      ],
      "stateMutability": "view",
      "type": "function"
    },
    {
      "inputs": [],
      "name": "WETH",
      "outputs": [
        {
          "internalType": "address",
          "name": "",
          "type": "address"
        }
      ],
      "stateMutability": "view",
      "type": "function"
    },
    {
      "inputs": [
        {
          "internalType": "address",
          "name": "_token",
          "type": "address"
        },
        {
          "internalType": "uint256",
          "name": "_amount",
          "type": "uint256"
        },
        {
          "internalType": "address",
          "name": "_feed",
          "type": "address"
        },
        {
          "internalType": "bytes32",
          "name": "encryptedVaultId",
          "type": "bytes32"
        }
      ],
      "name": "approveTokenToFeed",
      "outputs": [],
      "stateMutability": "nonpayable",
      "type": "function"
    },
    {
      "inputs": [
        {
          "internalType": "uint256",
          "name": "_newRelayerFeePercentage",
          "type": "uint256"
        }
      ],
      "name": "changeRelayerFee",
      "outputs": [],
      "stateMutability": "nonpayable",
      "type": "function"
    },
    {
      "inputs": [
        {
          "internalType": "bytes32",
          "name": "encryptedVaultId",
          "type": "bytes32"
        }
      ],
      "name": "depositETH",
      "outputs": [],
      "stateMutability": "payable",
      "type": "function"
    },
    {
      "inputs": [
        {
          "internalType": "address",
          "name": "_token",
          "type": "address"
        },
        {
          "internalType": "uint256",
          "name": "_amount",
          "type": "uint256"
        },
        {
          "internalType": "bytes32",
          "name": "encryptedVaultId",
          "type": "bytes32"
        }
      ],
      "name": "depositToken",
      "outputs": [],
      "stateMutability": "nonpayable",
      "type": "function"
    },
    {
      "inputs": [
        {
          "internalType": "address",
          "name": "_target",
          "type": "address"
        },
        {
          "internalType": "bytes",
          "name": "_data",
          "type": "bytes"
        },
        {
          "internalType": "uint256",
          "name": "_value",
          "type": "uint256"
        },
        {
          "internalType": "bytes32",
          "name": "_encryptedVaultId",
          "type": "bytes32"
        }
      ],
      "name": "execute",
      "outputs": [
        {
          "internalType": "bool",
          "name": "",
          "type": "bool"
        }
      ],
      "stateMutability": "nonpayable",
      "type": "function"
    },
    {
      "inputs": [],
      "name": "factoryContract",
      "outputs": [
        {
          "internalType": "address",
          "name": "",
          "type": "address"
        }
      ],
      "stateMutability": "view",
      "type": "function"
    },
    {
      "inputs": [
        {
          "internalType": "bytes32",
          "name": "encryptedVaultId",
          "type": "bytes32"
        }
      ],
      "name": "getEthDeposit",
      "outputs": [
        {
          "internalType": "uint256",
          "name": "",
          "type": "uint256"
        }
      ],
      "stateMutability": "view",
      "type": "function"
    },
    {
      "inputs": [
        {
          "internalType": "address",
          "name": "_token",
          "type": "address"
        },
        {
          "internalType": "bytes32",
          "name": "encryptedVaultId",
          "type": "bytes32"
        }
      ],
      "name": "getTokenDeposit",
      "outputs": [
        {
          "internalType": "uint256",
          "name": "",
          "type": "uint256"
        }
      ],
      "stateMutability": "view",
      "type": "function"
    },
    {
      "inputs": [],
      "name": "mecenateBay",
      "outputs": [
        {
          "internalType": "address",
          "name": "",
          "type": "address"
        }
      ],
      "stateMutability": "view",
      "type": "function"
    },
    {
      "inputs": [],
      "name": "mecenateUsers",
      "outputs": [
        {
          "internalType": "address",
          "name": "",
          "type": "address"
        }
      ],
      "stateMutability": "view",
      "type": "function"
    },
    {
      "inputs": [],
      "name": "owner",
      "outputs": [
        {
          "internalType": "address",
          "name": "",
          "type": "address"
        }
      ],
      "stateMutability": "view",
      "type": "function"
    },
    {
      "inputs": [],
      "name": "relayerFeePercentage",
      "outputs": [
        {
          "internalType": "uint256",
          "name": "",
          "type": "uint256"
        }
      ],
      "stateMutability": "view",
      "type": "function"
    },
    {
      "inputs": [],
      "name": "renounceOwnership",
      "outputs": [],
      "stateMutability": "nonpayable",
      "type": "function"
    },
    {
      "inputs": [
        {
          "internalType": "address",
          "name": "_factoryContract",
          "type": "address"
        }
      ],
      "name": "setFactoryContract",
      "outputs": [],
      "stateMutability": "nonpayable",
      "type": "function"
    },
    {
      "inputs": [
        {
          "internalType": "address",
          "name": "_mecenateBay",
          "type": "address"
        }
      ],
      "name": "setMecenateBay",
      "outputs": [],
      "stateMutability": "nonpayable",
      "type": "function"
    },
    {
      "inputs": [
        {
          "internalType": "address",
          "name": "_mecenateUsers",
          "type": "address"
        }
      ],
      "name": "setMecenateUsers",
      "outputs": [],
      "stateMutability": "nonpayable",
      "type": "function"
    },
    {
      "inputs": [
        {
          "internalType": "address",
          "name": "_relayer",
          "type": "address"
        }
      ],
      "name": "setRelayer",
      "outputs": [],
      "stateMutability": "nonpayable",
      "type": "function"
    },
    {
      "inputs": [
        {
          "internalType": "address",
          "name": "_WETH",
          "type": "address"
        },
        {
          "internalType": "address",
          "name": "_DAI",
          "type": "address"
        },
        {
          "internalType": "address",
          "name": "_USDC",
          "type": "address"
        },
        {
          "internalType": "address",
          "name": "_MUSE",
          "type": "address"
        }
      ],
      "name": "setTokens",
      "outputs": [],
      "stateMutability": "nonpayable",
      "type": "function"
    },
    {
      "inputs": [
        {
          "internalType": "address",
          "name": "_verifierContract",
          "type": "address"
        }
      ],
      "name": "setVerifierContract",
      "outputs": [],
      "stateMutability": "nonpayable",
      "type": "function"
    },
    {
      "inputs": [
        {
          "internalType": "address",
          "name": "newOwner",
          "type": "address"
        }
      ],
      "name": "transferOwnership",
      "outputs": [],
      "stateMutability": "nonpayable",
      "type": "function"
    },
    {
      "inputs": [],
      "name": "verifierContract",
      "outputs": [
        {
          "internalType": "address",
          "name": "",
          "type": "address"
        }
      ],
      "stateMutability": "view",
      "type": "function"
    },
    {
      "inputs": [
        {
          "internalType": "uint256",
          "name": "_amount",
          "type": "uint256"
        },
        {
          "internalType": "bytes",
          "name": "sismoConnectResponse",
          "type": "bytes"
        },
        {
          "internalType": "address",
          "name": "_to",
          "type": "address"
        },
        {
          "internalType": "bytes32",
          "name": "_nonce",
          "type": "bytes32"
        }
      ],
      "name": "withdrawETH",
      "outputs": [],
      "stateMutability": "nonpayable",
      "type": "function"
    },
    {
      "inputs": [
        {
          "internalType": "address",
          "name": "_token",
          "type": "address"
        },
        {
          "internalType": "uint256",
          "name": "_amount",
          "type": "uint256"
        },
        {
          "internalType": "bytes",
          "name": "sismoConnectResponse",
          "type": "bytes"
        },
        {
          "internalType": "address",
          "name": "_to",
          "type": "address"
        },
        {
          "internalType": "bytes32",
          "name": "_nonce",
          "type": "bytes32"
        }
      ],
      "name": "withdrawToken",
      "outputs": [],
      "stateMutability": "nonpayable",
      "type": "function"
    },
    {
      "inputs": [
        {
          "internalType": "string",
          "name": "_secret",
          "type": "string"
        },
        {
          "internalType": "address",
          "name": "_token",
          "type": "address"
        },
        {
          "internalType": "bytes",
          "name": "sismoConnectResponse",
          "type": "bytes"
        },
        {
          "internalType": "address",
          "name": "_to",
          "type": "address"
        },
        {
          "internalType": "bytes32",
          "name": "_nonce",
          "type": "bytes32"
        }
      ],
      "name": "withdrawWithSecret",
      "outputs": [],
      "stateMutability": "nonpayable",
      "type": "function"
    },
    {
      "stateMutability": "payable",
      "type": "receive"
    }
  ],
  "bytecode": "0x6080346200012057601f620023a838819003918201601f19168301916001600160401b03831184841017620001255780849260a09460405283398101031262000120576200004d816200013b565b906200005c602082016200013b565b6200006a604083016200013b565b926200008760806200007f606086016200013b565b94016200013b565b906000549360018060a01b03199433868216176000556040519660018060a01b0380968180968195823391167f8be0079c531659141344cd1fd0a4f28419497f9722a3daafe3b4186f6b6457e0600080a36001805560c8600d5516896008541617600855168760095416176009551685600a541617600a551683600b541617600b551690600c541617600c556122579081620001518239f35b600080fd5b634e487b7160e01b600052604160045260246000fd5b51906001600160a01b0382168203620001205756fe604060808152600480361015610083575b361561004157506020361261003c576000356000526002602052600020610038348254611d23565b9055005b600080fd5b6020606492519162461bcd60e51b8352820152601760248201527f557365206465706f7369744554482066756e6374696f6e0000000000000000006044820152fd5b6000803560e01c806310d5700e146118b05780631378f5d9146114fe578063139e3c54146114c957806317d026e614611430578063204919151461140757806324ebc145146113a35780632fe4f4c11461133f5780633f16a3bb1461130a5780635262712f146112d5578063537820bf146112315780635e0cd92f146111e35780636548e9bc1461117f5780636961b361146111625780636ff6158514610f4c578063715018a614610ece57806384abac9514610d4a57806385e66df414610d2b57806389a3027114610cf65780638da5cb5b14610cc35780639926ad8714610786578063a25da83c14610722578063ad5c4648146106ed578063bda7193a14610410578063cf695688146103db578063d424134114610374578063d68d9d4e1461033f578063de11c94a1461030a578063e0bab4c4146102d15763f2fde38b146101ce5750610010565b9190346102cd5760206003193601126102cd576101e9611c55565b906101f2611cbe565b73ffffffffffffffffffffffffffffffffffffffff8092169283156102645750508254827fffffffffffffffffffffffff00000000000000000000000000000000000000008216178455167f8be0079c531659141344cd1fd0a4f28419497f9722a3daafe3b4186f6b6457e08380a380f35b906020608492519162461bcd60e51b8352820152602660248201527f4f776e61626c653a206e6577206f776e657220697320746865207a65726f206160448201527f64647265737300000000000000000000000000000000000000000000000000006064820152fd5b8280fd5b50823461030657816003193601126103065760209073ffffffffffffffffffffffffffffffffffffffff600554169051908152f35b5080fd5b50823461030657816003193601126103065760209073ffffffffffffffffffffffffffffffffffffffff600954169051908152f35b50919060206003193601126102cd57610356611d5f565b3582526002602052812061036b348254611d23565b90556001805580f35b50346103d85760206003193601126103d85773ffffffffffffffffffffffffffffffffffffffff6103a3611c55565b6103ab611cbe565b167fffffffffffffffffffffffff0000000000000000000000000000000000000000600954161760095580f35b80fd5b50823461030657816003193601126103065760209073ffffffffffffffffffffffffffffffffffffffff600854169051908152f35b5091346102cd5760a06003193601126102cd5767ffffffffffffffff9082358281116106e957366023820112156106e9576104549036906024818701359101611bdd565b9261045d611c9b565b926044359081116106e5576104759036908301611c14565b5061047e611c78565b9173ffffffffffffffffffffffffffffffffffffffff926104a484600c54163314611ef8565b6104ac611d5f565b81519380876020966104da8882816104cd8183019687815193849201611f43565b8101038084520182611b33565b519020961691826105aa5786895260028652838920549485156105685750888086819482948b845260028b5283898120551682f11561055e576105507fa5ecd7cf58f2f1e36e387c6442f5dea0a47926654ed49e6d1d9eb06d0406424495965b6060845196879687528601526060850190611ff6565b918301520390a26001805580f35b81513d88823e3d90fd5b6064908786519162461bcd60e51b8352820152601e60248201527f4e6f20455448206465706f73697420666f7220746869732073656372657400006044820152fd5b9050858852600385528288208289528552828820549384156106a45786895260038652838920838a52865283892089905583517fa9059cbb00000000000000000000000000000000000000000000000000000000815273ffffffffffffffffffffffffffffffffffffffff9092169082019081526020810185905285908290819060400103818b865af1801561069a5796610550917fa5ecd7cf58f2f1e36e387c6442f5dea0a47926654ed49e6d1d9eb06d04064244979861066d575b5061053a565b61068c90873d8911610693575b6106848183611b33565b810190611ee0565b5038610667565b503d61067a565b83513d8a823e3d90fd5b606490868086519262461bcd60e51b845283015260248201527f4e6f20546f6b656e206465706f73697420666f722074686973207365637265746044820152fd5b8580fd5b8480fd5b508290346103d857806003193601126103d8575073ffffffffffffffffffffffffffffffffffffffff60209254169051908152f35b50346103d85760206003193601126103d85773ffffffffffffffffffffffffffffffffffffffff610751611c55565b610759611cbe565b167fffffffffffffffffffffffff0000000000000000000000000000000000000000600854161760085580f35b508290346103d85760806003193601126103d8576107a2611c55565b92602491823567ffffffffffffffff958682116102cd57366023830112156102cd57818401359687116102cd5784820191858836920101116102cd57604435966064359473ffffffffffffffffffffffffffffffffffffffff9361080b85600c54163314611ef8565b610813611d5f565b86865260209960028b5289872054918660055416958b51958d878d817f70a08231000000000000000000000000000000000000000000000000000000009b8c8252308b8301525afa968715610cb957908e8e8e97969594938d9a610c75575b508b6007541690519e8f80928d8252308c8301525afa9c8d15610c6b578f8c9e610c37575b50506108ac6108a65a3a61213b565b85611d23565b92838610610bf457918b8f8c829594839589938215600014610bae575050508293165af16108d861215b565b505b15610b6c576108fc916108ec9161214e565b6108f65a3a61213b565b9061214e565b61271061090b600d548361213b565b04916109178383611d23565b8110610b0657888061094f8f958f958e849760026109609a6109438661093e878b9d61214e565b61214e565b93885252852055611d23565b335af161095a61215b565b5061218b565b84600554169189519185835230828401528b838281875afa928315610afc57908c92918994610ac5575b508760075416968c519788938492835230908301525afa938415610abb57908695949392918a9794610a7f575b50808311610a2e575b5050508086116109d8575b8784600180555160018152f35b6109e2908661214e565b948515159081610a24575b506109f9575b806109cb565b610a18938252600387528282209060075416825286522091825461214e565b905582808281806109f3565b90501515886109ed565b610a38908361214e565b918215159081610a75575b50610a4f575b806109c0565b86855260038a528585209085528952610a6c85852091825461214e565b90558880610a49565b905015158b610a43565b8b80929697985081939495503d8311610ab4575b610a9d8183611b33565b810103126106e5579088959493929151928b6109b7565b503d610a93565b89513d88823e3d90fd5b838193949295503d8311610af5575b610ade8183611b33565b81010312610af157908b9151928d61098a565b8780fd5b503d610ad4565b8b513d8a823e3d90fd5b608485858f8f519262461bcd60e51b8452830152808201527f496e73756666696369656e742062616c616e636520666f722067617320616e6460448201527f20666565000000000000000000000000000000000000000000000000000000006064820152fd5b506064846012858f8f519362461bcd60e51b85528401528201527f5472616e73616374696f6e206661696c656400000000000000000000000000006044820152fd5b9092508382959415600014610bdb5750519384928337810182815203925af1610bd561215b565b506108da565b9350519384928337810185815203925af1610bd561215b565b8f8f6018896064938c93519362461bcd60e51b85528401528201527f496e73756666696369656e74204554482062616c616e636500000000000000006044820152fd5b9080929e50813d8311610c64575b610c4f8183611b33565b81010312610c6057519b8f8f610897565b8a80fd5b503d610c45565b8e513d8d823e3d90fd5b939597505090929496975081813d8311610cb2575b610c948183611b33565b81010312610cae57918c969593918e8d9694519838610872565b8980fd5b503d610c8a565b8d513d8c823e3d90fd5b50823461030657816003193601126103065773ffffffffffffffffffffffffffffffffffffffff60209254169051908152f35b50823461030657816003193601126103065760209073ffffffffffffffffffffffffffffffffffffffff600654169051908152f35b508234610306578160031936011261030657602090600d549051908152f35b50823461030657606060031936011261030657610d65611c55565b9060243591610dbe73ffffffffffffffffffffffffffffffffffffffff80921691610d91831515611db4565b610d9c851515611dff565b808754168314908115610ec0575b8115610eb2575b8115610ea4575b50611e4a565b8151947f23b872dd0000000000000000000000000000000000000000000000000000000086523381870152306024870152836044870152602095868160648189875af1908115610e9a578691610e7d575b5015610e3b5750610e36929394604435865260038152828620918652528320918254611d23565b905580f35b6064908684519162461bcd60e51b8352820152601560248201527f546f6b656e207472616e73666572206661696c656400000000000000000000006044820152fd5b610e949150873d8911610693576106848183611b33565b87610e0f565b84513d88823e3d90fd5b905060075416821487610db8565b600654811684149150610db1565b600554811684149150610daa565b50346103d857806003193601126103d857610ee7611cbe565b8073ffffffffffffffffffffffffffffffffffffffff81547fffffffffffffffffffffffff000000000000000000000000000000000000000081168355167f8be0079c531659141344cd1fd0a4f28419497f9722a3daafe3b4186f6b6457e08280a380f35b50823461030657608060031936011261030657610f67611c55565b9060243593610f74611c32565b73ffffffffffffffffffffffffffffffffffffffff80941691610f98831515611db4565b610fa3871515611dff565b8481541683148015611155575b8015611148575b801561113b575b610fc790611e4a565b6064358652602094600386528487208488528652610fea88868920541015611e95565b8581600954169160248751809481937fe58fdd040000000000000000000000000000000000000000000000000000000083528816878301525afa908115611131578791611114575b50156110d257839285928789936110989751978895869485937f095ea7b300000000000000000000000000000000000000000000000000000000855284016020909392919373ffffffffffffffffffffffffffffffffffffffff60408201951681520152565b03925af19081156110c957506110ac578280f35b816110c292903d10610693576106848183611b33565b5081808280f35b513d85823e3d90fd5b6064908585519162461bcd60e51b8352820152600a60248201527f4e6f7420612066656564000000000000000000000000000000000000000000006044820152fd5b61112b9150863d8811610693576106848183611b33565b88611032565b85513d89823e3d90fd5b5060075485168314610fbe565b5084600654168314610fb7565b5084600554168314610fb0565b508234610306578160031936011261030657602090516101f48152f35b50346103d85760206003193601126103d85773ffffffffffffffffffffffffffffffffffffffff6111ae611c55565b6111b6611cbe565b167fffffffffffffffffffffffff0000000000000000000000000000000000000000600c541617600c5580f35b50823461030657806003193601126103065780602092611201611c55565b60243582526003855273ffffffffffffffffffffffffffffffffffffffff83832091168252845220549051908152f35b5090346103065760806003193601126103065761124c611c55565b90611255611c9b565b9061125e611c32565b90611267611c78565b91611270611cbe565b73ffffffffffffffffffffffffffffffffffffffff80948193827fffffffffffffffffffffffff000000000000000000000000000000000000000098168882541617905516856005541617600555168360065416176006551690600754161760075580f35b50823461030657816003193601126103065760209073ffffffffffffffffffffffffffffffffffffffff600754169051908152f35b50823461030657816003193601126103065760209073ffffffffffffffffffffffffffffffffffffffff600a54169051908152f35b50346103d85760206003193601126103d85773ffffffffffffffffffffffffffffffffffffffff61136e611c55565b611376611cbe565b167fffffffffffffffffffffffff0000000000000000000000000000000000000000600b541617600b5580f35b50346103d85760206003193601126103d85773ffffffffffffffffffffffffffffffffffffffff6113d2611c55565b6113da611cbe565b167fffffffffffffffffffffffff0000000000000000000000000000000000000000600a541617600a5580f35b509190346102cd5760206003193601126102cd5760209282913581526002845220549051908152f35b509190346102cd5760206003193601126102cd5780359161144f611cbe565b6101f48311611460575050600d5580f35b906020608492519162461bcd60e51b8352820152602660248201527f4e65772072656c61796572206665652070657263656e7461676520697320746f60448201527f6f206869676800000000000000000000000000000000000000000000000000006064820152fd5b50823461030657816003193601126103065760209073ffffffffffffffffffffffffffffffffffffffff600b54169051908152f35b5091346102cd5760a06003193601126102cd57611519611c55565b906024359060443567ffffffffffffffff81116106e55761153d9036908601611c14565b91611546611c78565b906084359473ffffffffffffffffffffffffffffffffffffffff61156f81600c54163314611ef8565b611577611d5f565b865a948a81611586883a61213b565b998560085416908d6115c48c519e8f95869485947f7276069d0000000000000000000000000000000000000000000000000000000086528501612039565b03915afa9788156118a6578b80998190611860575b8a9b50928a94928a8795936115ff9b9a99989460209c818e808094518301019101612071565b961698519f019e8f20815260028c5220541061181e57906116278461162d94931686146120a5565b146120f0565b875189208b5260038652868b20921691828b52855282868b2054106117dc579184916116cd9388518a208c5260038452878c20828d528452878c2061167384825461214e565b90558b8b8951968795869485937fa9059cbb00000000000000000000000000000000000000000000000000000000855284016020909392919373ffffffffffffffffffffffffffffffffffffffff60408201951681520152565b03925af180156117d257906116f492916117b5575b506116ef3a915a9061214e565b61213b565b93612710611704600d548761213b565b0495845182208852600283528388205461171e8888611d23565b11611773578761176c8180808061175b8d8d8d6117548e60028f8f6117438888611d23565b95519020895252862091825461214e565b9055611d23565b335af161176661215b565b506121d6565b6001805580f35b6064908385519162461bcd60e51b8352820152601f60248201527f4e6f7420656e6f7567682062616c616e636520666f72206761732075736564006044820152fd5b6117cb90843d8611610693576106848183611b33565b50386116e2565b84513d8a823e3d90fd5b6064898688519162461bcd60e51b8352820152601860248201527f4e6f7420656e6f75676820746f6b656e2062616c616e636500000000000000006044820152fd5b60648d8a8c519162461bcd60e51b8352820152601f60248201527f4e6f7420656e6f7567682045544820666f7220676173207265717569726564006044820152fd5b50985091836115ff979695949261188a8a9c8c3d8091833e6118828183611b33565b810190611fa8565b97929150509c8d9c8d97939650939798999a50509294506115d9565b87513d8d823e3d90fd5b509190346102cd5760806003193601126102cd5780359060243567ffffffffffffffff81116106e9576118e69036908301611c14565b916118ef611c32565b916064359361196373ffffffffffffffffffffffffffffffffffffffff9561191c87600c54163314611ef8565b611924611d5f565b88815a94888a60085416918c51968794859384937f7276069d0000000000000000000000000000000000000000000000000000000085528c8501612039565b03915afa968715611b295789928a98611b01575b5090816116276119a09361199560209b8c8082518301019101612071565b9316991689146120a5565b8581519101206119ce6119bc6119b6843a61213b565b8661214e565b828a5260028852888a20541015611e95565b808852600286528688205415611abf5790611a26916119ee851515611dff565b80895260028752611a0485898b20541015611e95565b885260028652868820611a1885825461214e565b90556116ef3a915a9061214e565b93612710611a36600d548761213b565b0495611a428787611d23565b8410611a7e575050508461175b8585611a7984808080809b9a611a6e61176c9e61093e849e859e61214e565b905af161095a61215b565b611d23565b60649350519162461bcd60e51b8352820152601a60248201527f4e6f7420656e6f7567682062616c616e636520666f72206761730000000000006044820152fd5b6064838789519162461bcd60e51b8352820152601960248201527f436f6d6d69746d656e7420646f6573206e6f74206578697374000000000000006044820152fd5b611b1c9198506119a09293503d808c833e6118828183611b33565b9992949391506119779050565b88513d8b823e3d90fd5b90601f7fffffffffffffffffffffffffffffffffffffffffffffffffffffffffffffffe0910116810190811067ffffffffffffffff821117611b7457604052565b7f4e487b7100000000000000000000000000000000000000000000000000000000600052604160045260246000fd5b67ffffffffffffffff8111611b7457601f017fffffffffffffffffffffffffffffffffffffffffffffffffffffffffffffffe01660200190565b929192611be982611ba3565b91611bf76040519384611b33565b82948184528183011161003c578281602093846000960137010152565b9080601f8301121561003c57816020611c2f93359101611bdd565b90565b6044359073ffffffffffffffffffffffffffffffffffffffff8216820361003c57565b6004359073ffffffffffffffffffffffffffffffffffffffff8216820361003c57565b6064359073ffffffffffffffffffffffffffffffffffffffff8216820361003c57565b6024359073ffffffffffffffffffffffffffffffffffffffff8216820361003c57565b73ffffffffffffffffffffffffffffffffffffffff600054163303611cdf57565b606460405162461bcd60e51b815260206004820152602060248201527f4f776e61626c653a2063616c6c6572206973206e6f7420746865206f776e65726044820152fd5b91908201809211611d3057565b7f4e487b7100000000000000000000000000000000000000000000000000000000600052601160045260246000fd5b600260015414611d70576002600155565b606460405162461bcd60e51b815260206004820152601f60248201527f5265656e7472616e637947756172643a207265656e7472616e742063616c6c006044820152fd5b15611dbb57565b606460405162461bcd60e51b815260206004820152601960248201527f546f6b656e20616464726573732063616e6e6f742062652030000000000000006044820152fd5b15611e0657565b606460405162461bcd60e51b815260206004820152602060248201527f416d6f756e74206d7573742062652067726561746572207468616e207a65726f6044820152fd5b15611e5157565b606460405162461bcd60e51b815260206004820152601360248201527f546f6b656e206e6f7420737570706f72746564000000000000000000000000006044820152fd5b15611e9c57565b606460405162461bcd60e51b815260206004820152601260248201527f4e6f7420656e6f7567682062616c616e636500000000000000000000000000006044820152fd5b9081602091031261003c5751801515810361003c5790565b15611eff57565b606460405162461bcd60e51b815260206004820152600b60248201527f4e6f742072656c617965720000000000000000000000000000000000000000006044820152fd5b60005b838110611f565750506000910152565b8181015183820152602001611f46565b81601f8201121561003c578051611f7c81611ba3565b92611f8a6040519485611b33565b8184526020828401011161003c57611c2f9160208085019101611f43565b9160808383031261003c5782519067ffffffffffffffff9182811161003c5783611fd3918601611f66565b93602081015193604082015193606083015190811161003c57611c2f9201611f66565b907fffffffffffffffffffffffffffffffffffffffffffffffffffffffffffffffe0601f60209361203281518092818752878088019101611f43565b0116010190565b73ffffffffffffffffffffffffffffffffffffffff61206660409396959496606084526060840190611ff6565b951660208201520152565b919082604091031261003c57815173ffffffffffffffffffffffffffffffffffffffff8116810361003c5760209092015190565b156120ac57565b606460405162461bcd60e51b815260206004820152601060248201527f4e6f742053616d652041646472657373000000000000000000000000000000006044820152fd5b156120f757565b606460405162461bcd60e51b815260206004820152600e60248201527f4e6f742053616d65204e6f6e63650000000000000000000000000000000000006044820152fd5b81810292918115918404141715611d3057565b91908203918211611d3057565b3d15612186573d9061216c82611ba3565b9161217a6040519384611b33565b82523d6000602084013e565b606090565b1561219257565b606460405162461bcd60e51b815260206004820152601360248201527f455448207472616e73666572206661696c6564000000000000000000000000006044820152fd5b156121dd57565b606460405162461bcd60e51b815260206004820152601c60248201527f455448207472616e73666572206661696c6564207769746820676173000000006044820152fdfea26469706673582212207a91edb712bea2a11883b2cb63c05348c796222cedbd9ab2ceaad43f26b5531d64736f6c63430008130033",
  "linkReferences": {},
  "deployedLinkReferences": {}
}