{
  "_format": "hh-sol-artifact-1",
  "contractName": "MecenateVault",
  "sourceName": "contracts/MecenateVault.sol",
  "abi": [
    {
      "inputs": [
        {
          "internalType": "address",
          "name": "_verifierContract",
          "type": "address"
        }
      ],
      "stateMutability": "nonpayable",
      "type": "constructor"
    },
    {
      "anonymous": false,
      "inputs": [
        {
          "indexed": true,
          "internalType": "address",
          "name": "previousOwner",
          "type": "address"
        },
        {
          "indexed": true,
          "internalType": "address",
          "name": "newOwner",
          "type": "address"
        }
      ],
      "name": "OwnershipTransferred",
      "type": "event"
    },
    {
      "anonymous": false,
      "inputs": [
        {
          "indexed": true,
          "internalType": "bytes32",
          "name": "commitment",
          "type": "bytes32"
        },
        {
          "indexed": false,
          "internalType": "uint256",
          "name": "amount",
          "type": "uint256"
        },
        {
          "indexed": false,
          "internalType": "string",
          "name": "secret",
          "type": "string"
        },
        {
          "indexed": false,
          "internalType": "address",
          "name": "token",
          "type": "address"
        }
      ],
      "name": "Withdrawn",
      "type": "event"
    },
    {
      "stateMutability": "payable",
      "type": "fallback"
    },
    {
      "inputs": [
        {
          "internalType": "bytes32",
          "name": "encryptedVaultId",
          "type": "bytes32"
        }
      ],
      "name": "depositETH",
      "outputs": [],
      "stateMutability": "payable",
      "type": "function"
    },
    {
      "inputs": [
        {
          "internalType": "address",
          "name": "_token",
          "type": "address"
        },
        {
          "internalType": "uint256",
          "name": "_amount",
          "type": "uint256"
        },
        {
          "internalType": "bytes32",
          "name": "encryptedVaultId",
          "type": "bytes32"
        }
      ],
      "name": "depositToken",
      "outputs": [],
      "stateMutability": "nonpayable",
      "type": "function"
    },
    {
      "inputs": [
        {
          "internalType": "bytes32",
          "name": "encryptedVaultId",
          "type": "bytes32"
        }
      ],
      "name": "getEthDeposit",
      "outputs": [
        {
          "internalType": "uint256",
          "name": "",
          "type": "uint256"
        }
      ],
      "stateMutability": "view",
      "type": "function"
    },
    {
      "inputs": [
        {
          "internalType": "address",
          "name": "_token",
          "type": "address"
        },
        {
          "internalType": "bytes32",
          "name": "encryptedVaultId",
          "type": "bytes32"
        }
      ],
      "name": "getTokenDeposit",
      "outputs": [
        {
          "internalType": "uint256",
          "name": "",
          "type": "uint256"
        }
      ],
      "stateMutability": "view",
      "type": "function"
    },
    {
      "inputs": [],
      "name": "owner",
      "outputs": [
        {
          "internalType": "address",
          "name": "",
          "type": "address"
        }
      ],
      "stateMutability": "view",
      "type": "function"
    },
    {
      "inputs": [],
      "name": "renounceOwnership",
      "outputs": [],
      "stateMutability": "nonpayable",
      "type": "function"
    },
    {
      "inputs": [
        {
          "internalType": "address",
          "name": "_verifierContract",
          "type": "address"
        }
      ],
      "name": "setVerifierContract",
      "outputs": [],
      "stateMutability": "nonpayable",
      "type": "function"
    },
    {
      "inputs": [
        {
          "internalType": "address",
          "name": "newOwner",
          "type": "address"
        }
      ],
      "name": "transferOwnership",
      "outputs": [],
      "stateMutability": "nonpayable",
      "type": "function"
    },
    {
      "inputs": [],
      "name": "verifierContract",
      "outputs": [
        {
          "internalType": "address",
          "name": "",
          "type": "address"
        }
      ],
      "stateMutability": "view",
      "type": "function"
    },
    {
      "inputs": [
        {
          "internalType": "uint256",
          "name": "_amount",
          "type": "uint256"
        },
        {
          "internalType": "bytes",
          "name": "sismoConnectResponse",
          "type": "bytes"
        },
        {
          "internalType": "address",
          "name": "_to",
          "type": "address"
        },
        {
          "internalType": "bytes32",
          "name": "_nonce",
          "type": "bytes32"
        }
      ],
      "name": "withdrawETH",
      "outputs": [],
      "stateMutability": "nonpayable",
      "type": "function"
    },
    {
      "inputs": [
        {
          "internalType": "address",
          "name": "_token",
          "type": "address"
        },
        {
          "internalType": "uint256",
          "name": "_amount",
          "type": "uint256"
        },
        {
          "internalType": "bytes",
          "name": "sismoConnectResponse",
          "type": "bytes"
        },
        {
          "internalType": "address",
          "name": "_to",
          "type": "address"
        },
        {
          "internalType": "bytes32",
          "name": "_nonce",
          "type": "bytes32"
        }
      ],
      "name": "withdrawToken",
      "outputs": [],
      "stateMutability": "nonpayable",
      "type": "function"
    },
    {
      "inputs": [
        {
          "internalType": "string",
          "name": "_secret",
          "type": "string"
        },
        {
          "internalType": "address",
          "name": "_token",
          "type": "address"
        },
        {
          "internalType": "bytes",
          "name": "sismoConnectResponse",
          "type": "bytes"
        },
        {
          "internalType": "address",
          "name": "_to",
          "type": "address"
        },
        {
          "internalType": "bytes32",
          "name": "_nonce",
          "type": "bytes32"
        }
      ],
      "name": "withdrawWithSecret",
      "outputs": [],
      "stateMutability": "nonpayable",
      "type": "function"
    },
    {
      "stateMutability": "payable",
      "type": "receive"
    }
  ],
  "bytecode": "0x6080346100ab57601f61104438819003918201601f19168301916001600160401b038311848410176100b0578084926020946040528339810103126100ab57516001600160a01b0390818116908190036100ab5760005460018060a01b0319903382821617600055604051933391167f8be0079c531659141344cd1fd0a4f28419497f9722a3daafe3b4186f6b6457e0600080a3600180556004541617600455610f7d90816100c78239f35b600080fd5b634e487b7160e01b600052604160045260246000fdfe604060808152600480361015610083575b361561004157506020361261003c576000356000526002602052600020610038348254610cb7565b9055005b600080fd5b6020606492519162461bcd60e51b8352820152601760248201527f557365206465706f7369744554482066756e6374696f6e0000000000000000006044820152fd5b6000803560e01c806310d5700e1461095f5780631378f5d91461075057806320491915146107275780635e0cd92f146106e5578063715018a61461068857806384abac95146105445780638da5cb5b1461051c578063a25da83c146104d7578063bda7193a14610238578063cf6956881461020f578063d68d9d4e146101da5763f2fde38b146101135750610010565b9190346101d65760203660031901126101d65761012e610c33565b90610137610c5f565b6001600160a01b0391821692831561018457505082546001600160a01b0319811683178455167f8be0079c531659141344cd1fd0a4f28419497f9722a3daafe3b4186f6b6457e08380a380f35b906020608492519162461bcd60e51b8352820152602660248201527f4f776e61626c653a206e6577206f776e657220697320746865207a65726f206160448201526564647265737360d01b6064820152fd5b8280fd5b50919060203660031901126101d6576101f1610cda565b35825260026020528120610206348254610cb7565b90556001805580f35b509190346101d657826003193601126101d6575490516001600160a01b03909116815260209150f35b5091346101d65760a03660031901126101d65767ffffffffffffffff82358181116104d357366023820112156104d35761027b9036906024818701359101610bde565b926001600160a01b03602435818116949193908590036104cf576044359081116104cf576102ac9036908401610c15565b506102b5610c49565b936102be610cda565b815193602094858101906102eb8782816102de8d87815193849201610d93565b8101038084520182610b8a565b51902095826103ba5786895260028652838920549485156103775750888086819482948b845260028b5283898120551682f11561036d5761035f7fa5ecd7cf58f2f1e36e387c6442f5dea0a47926654ed49e6d1d9eb06d0406424495965b6060845196879687528601526060850190610e46565b918301520390a26001805580f35b81513d88823e3d90fd5b845162461bcd60e51b8152908101879052601e60248201527f4e6f20455448206465706f73697420666f7220746869732073656372657400006044820152606490fd5b90508588526003855282882082895285528288205493841561048e5786895260038652838920838a528652838920899055835163a9059cbb60e01b81526001600160a01b039092169082019081526020810185905285908290819060400103818b865af18015610484579661035f917fa5ecd7cf58f2f1e36e387c6442f5dea0a47926654ed49e6d1d9eb06d040642449798610457575b50610349565b61047690873d891161047d575b61046e8183610b8a565b810190610d7b565b5038610451565b503d610464565b83513d8a823e3d90fd5b606490868086519262461bcd60e51b845283015260248201527f4e6f20546f6b656e206465706f73697420666f722074686973207365637265746044820152fd5b8680fd5b8480fd5b509034610518576020366003190112610518576104f2610c33565b6104fa610c5f565b81546001600160a01b0319166001600160a01b039190911617905580f35b5080fd5b508234610518578160031936011261051857905490516001600160a01b039091168152602090f35b5082346105185760603660031901126105185761055f610c33565b60243591906001600160a01b031680156106455761057e831515610d30565b81516323b872dd60e01b815233868201523060248201526044810184905260209590868160648189875af190811561063b57869161061e575b50156105e357506105de929394604435865260038152828620918652528320918254610cb7565b905580f35b825162461bcd60e51b81529081018690526015602482015274151bdad95b881d1c985b9cd9995c8819985a5b1959605a1b6044820152606490fd5b6106359150873d891161047d5761046e8183610b8a565b876105b7565b84513d88823e3d90fd5b815162461bcd60e51b8152602081870152601960248201527f546f6b656e20616464726573732063616e6e6f742062652030000000000000006044820152606490fd5b50346106e257806003193601126106e2576106a1610c5f565b80546001600160a01b03198116825581906001600160a01b03167f8be0079c531659141344cd1fd0a4f28419497f9722a3daafe3b4186f6b6457e08280a380f35b80fd5b50823461051857806003193601126105185780602092610703610c33565b6024358252600385528282206001600160a01b039091168252845220549051908152f35b509190346101d65760203660031901126101d65760209282913581526002845220549051908152f35b5091346101d65760a03660031901126101d65761076b610c33565b6024359060443567ffffffffffffffff811161095b5761078e9036908601610c15565b93610797610c49565b90608435956107a4610cda565b81548651637276069d60e01b81526001600160a01b039290918a918391851690829081906107d8908e908b90848c01610e6b565b03915afa9788156109515789918a99610923575b5061081b90836108158161080a60209d8e8082518301019101610e97565b931698168814610ebe565b14610efd565b8051918882019283208a5260038952878a20951694858a52885285878a2054106108e0578794926108a0979694928a92519020825260038652868220848352865286822061086a868254610f3a565b9055865163a9059cbb60e01b81526001600160a01b03909316908301908152602081019490945290958693849291839160400190565b03925af19081156108d757506108b9575b826001805580f35b816108cf92903d1061047d5761046e8183610b8a565b5038806108b1565b513d85823e3d90fd5b865162461bcd60e51b8152808401899052601860248201527f4e6f7420656e6f75676820746f6b656e2062616c616e636500000000000000006044820152606490fd5b61094591995061081b92503d808c833e61093d8183610b8a565b810190610df8565b9a929391506107ec9050565b87513d8b823e3d90fd5b8580fd5b5091346101d65760803660031901126101d65781359060243567ffffffffffffffff81116104d3576109949036908501610c15565b6001600160a01b039260443584811692838203610b8657876064359283926109ba610cda565b888a5416908a6109dd8a5197889586948594637276069d60e01b86528501610e6b565b03915afa958615610b7c5788928997610b54575b5090610a1891610815610a0e6020998a8082518301019101610e97565b9216968714610ebe565b84815191012091828752600285528387205415610b1157610a3a821515610d30565b82875260028552818488205410610ad9578680808481945af1913d15610ad4573d610a6481610bc2565b90610a7186519283610b8a565b815287863d92013e5b865260028452610a8e838720918254610f3a565b905515610a9d57836001805580f35b5162461bcd60e51b8152918201526013602482015272115512081d1c985b9cd9995c8819985a5b1959606a1b604482015260649150fd5b610a7a565b835162461bcd60e51b815280870186905260126024820152714e6f7420656e6f7567682062616c616e636560701b6044820152606490fd5b835162461bcd60e51b8152808701869052601960248201527f436f6d6d69746d656e7420646f6573206e6f74206578697374000000000000006044820152606490fd5b610b6f919750610a189293503d808b833e61093d8183610b8a565b9892949391506109f19050565b85513d8a823e3d90fd5b8780fd5b90601f8019910116810190811067ffffffffffffffff821117610bac57604052565b634e487b7160e01b600052604160045260246000fd5b67ffffffffffffffff8111610bac57601f01601f191660200190565b929192610bea82610bc2565b91610bf86040519384610b8a565b82948184528183011161003c578281602093846000960137010152565b9080601f8301121561003c57816020610c3093359101610bde565b90565b600435906001600160a01b038216820361003c57565b606435906001600160a01b038216820361003c57565b6000546001600160a01b03163303610c7357565b606460405162461bcd60e51b815260206004820152602060248201527f4f776e61626c653a2063616c6c6572206973206e6f7420746865206f776e65726044820152fd5b91908201809211610cc457565b634e487b7160e01b600052601160045260246000fd5b600260015414610ceb576002600155565b60405162461bcd60e51b815260206004820152601f60248201527f5265656e7472616e637947756172643a207265656e7472616e742063616c6c006044820152606490fd5b15610d3757565b606460405162461bcd60e51b815260206004820152602060248201527f416d6f756e74206d7573742062652067726561746572207468616e207a65726f6044820152fd5b9081602091031261003c5751801515810361003c5790565b60005b838110610da65750506000910152565b8181015183820152602001610d96565b81601f8201121561003c578051610dcc81610bc2565b92610dda6040519485610b8a565b8184526020828401011161003c57610c309160208085019101610d93565b9160808383031261003c5782519067ffffffffffffffff9182811161003c5783610e23918601610db6565b93602081015193604082015193606083015190811161003c57610c309201610db6565b90602091610e5f81518092818552858086019101610d93565b601f01601f1916010190565b610e8360409295949395606083526060830190610e46565b6001600160a01b0390951660208201520152565b919082604091031261003c5781516001600160a01b038116810361003c5760209092015190565b15610ec557565b60405162461bcd60e51b815260206004820152601060248201526f4e6f742053616d65204164647265737360801b6044820152606490fd5b15610f0457565b60405162461bcd60e51b815260206004820152600e60248201526d4e6f742053616d65204e6f6e636560901b6044820152606490fd5b91908203918211610cc45756fea2646970667358221220816ed504d8e6c08b883286ebfaeed1d899bd3b3cb6f9b1dbff911e1252e6c2c264736f6c63430008130033",
  "linkReferences": {},
  "deployedLinkReferences": {}
}