{
  "_format": "hh-sol-artifact-1",
  "contractName": "MecenateVault",
  "sourceName": "contracts/MecenateVault.sol",
  "abi": [
    {
      "inputs": [
        {
          "internalType": "address",
          "name": "_verifierContract",
          "type": "address"
        },
        {
          "internalType": "address",
          "name": "_factoryContract",
          "type": "address"
        },
        {
          "internalType": "address",
          "name": "_bayContract",
          "type": "address"
        },
        {
          "internalType": "address",
          "name": "_usersContract",
          "type": "address"
        },
        {
          "internalType": "address",
          "name": "_relayer",
          "type": "address"
        }
      ],
      "stateMutability": "nonpayable",
      "type": "constructor"
    },
    {
      "anonymous": false,
      "inputs": [
        {
          "indexed": false,
          "internalType": "address",
          "name": "userAddress",
          "type": "address"
        },
        {
          "indexed": false,
          "internalType": "address",
          "name": "relayerAddress",
          "type": "address"
        },
        {
          "indexed": false,
          "internalType": "bytes",
          "name": "functionSignature",
          "type": "bytes"
        }
      ],
      "name": "MetaTransactionExecuted",
      "type": "event"
    },
    {
      "anonymous": false,
      "inputs": [
        {
          "indexed": true,
          "internalType": "address",
          "name": "previousOwner",
          "type": "address"
        },
        {
          "indexed": true,
          "internalType": "address",
          "name": "newOwner",
          "type": "address"
        }
      ],
      "name": "OwnershipTransferred",
      "type": "event"
    },
    {
      "anonymous": false,
      "inputs": [
        {
          "indexed": true,
          "internalType": "bytes32",
          "name": "commitment",
          "type": "bytes32"
        },
        {
          "indexed": false,
          "internalType": "uint256",
          "name": "amount",
          "type": "uint256"
        },
        {
          "indexed": false,
          "internalType": "string",
          "name": "secret",
          "type": "string"
        },
        {
          "indexed": false,
          "internalType": "address",
          "name": "token",
          "type": "address"
        }
      ],
      "name": "Withdrawn",
      "type": "event"
    },
    {
      "stateMutability": "payable",
      "type": "fallback"
    },
    {
      "inputs": [],
      "name": "DAI",
      "outputs": [
        {
          "internalType": "address",
          "name": "",
          "type": "address"
        }
      ],
      "stateMutability": "view",
      "type": "function"
    },
    {
      "inputs": [],
      "name": "MAX_RELAYER_FEE_PERCENTAGE",
      "outputs": [
        {
          "internalType": "uint256",
          "name": "",
          "type": "uint256"
        }
      ],
      "stateMutability": "view",
      "type": "function"
    },
    {
      "inputs": [],
      "name": "MUSE",
      "outputs": [
        {
          "internalType": "address",
          "name": "",
          "type": "address"
        }
      ],
      "stateMutability": "view",
      "type": "function"
    },
    {
      "inputs": [],
      "name": "USDC",
      "outputs": [
        {
          "internalType": "address",
          "name": "",
          "type": "address"
        }
      ],
      "stateMutability": "view",
      "type": "function"
    },
    {
      "inputs": [],
      "name": "WETH",
      "outputs": [
        {
          "internalType": "address",
          "name": "",
          "type": "address"
        }
      ],
      "stateMutability": "view",
      "type": "function"
    },
    {
      "inputs": [
        {
          "internalType": "uint256",
          "name": "_newRelayerFeePercentage",
          "type": "uint256"
        }
      ],
      "name": "changeRelayerFee",
      "outputs": [],
      "stateMutability": "nonpayable",
      "type": "function"
    },
    {
      "inputs": [
        {
          "internalType": "bytes32",
          "name": "encryptedVaultId",
          "type": "bytes32"
        }
      ],
      "name": "depositETH",
      "outputs": [],
      "stateMutability": "payable",
      "type": "function"
    },
    {
      "inputs": [
        {
          "internalType": "address",
          "name": "_token",
          "type": "address"
        },
        {
          "internalType": "uint256",
          "name": "_amount",
          "type": "uint256"
        },
        {
          "internalType": "bytes32",
          "name": "encryptedVaultId",
          "type": "bytes32"
        }
      ],
      "name": "depositToken",
      "outputs": [],
      "stateMutability": "nonpayable",
      "type": "function"
    },
    {
      "inputs": [
        {
          "internalType": "address",
          "name": "_target",
          "type": "address"
        },
        {
          "internalType": "bytes",
          "name": "_data",
          "type": "bytes"
        },
        {
          "internalType": "uint256",
          "name": "_value",
          "type": "uint256"
        },
        {
          "internalType": "bytes32",
          "name": "_encryptedVaultId",
          "type": "bytes32"
        }
      ],
      "name": "execute",
      "outputs": [
        {
          "internalType": "bool",
          "name": "",
          "type": "bool"
        }
      ],
      "stateMutability": "nonpayable",
      "type": "function"
    },
    {
      "inputs": [],
      "name": "factoryContract",
      "outputs": [
        {
          "internalType": "address",
          "name": "",
          "type": "address"
        }
      ],
      "stateMutability": "view",
      "type": "function"
    },
    {
      "inputs": [
        {
          "internalType": "bytes32",
          "name": "encryptedVaultId",
          "type": "bytes32"
        }
      ],
      "name": "getEthDeposit",
      "outputs": [
        {
          "internalType": "uint256",
          "name": "",
          "type": "uint256"
        }
      ],
      "stateMutability": "view",
      "type": "function"
    },
    {
      "inputs": [
        {
          "internalType": "address",
          "name": "_token",
          "type": "address"
        },
        {
          "internalType": "bytes32",
          "name": "encryptedVaultId",
          "type": "bytes32"
        }
      ],
      "name": "getTokenDeposit",
      "outputs": [
        {
          "internalType": "uint256",
          "name": "",
          "type": "uint256"
        }
      ],
      "stateMutability": "view",
      "type": "function"
    },
    {
      "inputs": [],
      "name": "mecenateBay",
      "outputs": [
        {
          "internalType": "address",
          "name": "",
          "type": "address"
        }
      ],
      "stateMutability": "view",
      "type": "function"
    },
    {
      "inputs": [],
      "name": "mecenateUsers",
      "outputs": [
        {
          "internalType": "address",
          "name": "",
          "type": "address"
        }
      ],
      "stateMutability": "view",
      "type": "function"
    },
    {
      "inputs": [],
      "name": "owner",
      "outputs": [
        {
          "internalType": "address",
          "name": "",
          "type": "address"
        }
      ],
      "stateMutability": "view",
      "type": "function"
    },
    {
      "inputs": [],
      "name": "relayerFeePercentage",
      "outputs": [
        {
          "internalType": "uint256",
          "name": "",
          "type": "uint256"
        }
      ],
      "stateMutability": "view",
      "type": "function"
    },
    {
      "inputs": [],
      "name": "renounceOwnership",
      "outputs": [],
      "stateMutability": "nonpayable",
      "type": "function"
    },
    {
      "inputs": [
        {
          "internalType": "address",
          "name": "_factoryContract",
          "type": "address"
        }
      ],
      "name": "setFactoryContract",
      "outputs": [],
      "stateMutability": "nonpayable",
      "type": "function"
    },
    {
      "inputs": [
        {
          "internalType": "address",
          "name": "_mecenateBay",
          "type": "address"
        }
      ],
      "name": "setMecenateBay",
      "outputs": [],
      "stateMutability": "nonpayable",
      "type": "function"
    },
    {
      "inputs": [
        {
          "internalType": "address",
          "name": "_mecenateUsers",
          "type": "address"
        }
      ],
      "name": "setMecenateUsers",
      "outputs": [],
      "stateMutability": "nonpayable",
      "type": "function"
    },
    {
      "inputs": [
        {
          "internalType": "address",
          "name": "_relayer",
          "type": "address"
        }
      ],
      "name": "setRelayer",
      "outputs": [],
      "stateMutability": "nonpayable",
      "type": "function"
    },
    {
      "inputs": [
        {
          "internalType": "address",
          "name": "_WETH",
          "type": "address"
        },
        {
          "internalType": "address",
          "name": "_DAI",
          "type": "address"
        },
        {
          "internalType": "address",
          "name": "_USDC",
          "type": "address"
        },
        {
          "internalType": "address",
          "name": "_MUSE",
          "type": "address"
        }
      ],
      "name": "setTokens",
      "outputs": [],
      "stateMutability": "nonpayable",
      "type": "function"
    },
    {
      "inputs": [
        {
          "internalType": "address",
          "name": "_verifierContract",
          "type": "address"
        }
      ],
      "name": "setVerifierContract",
      "outputs": [],
      "stateMutability": "nonpayable",
      "type": "function"
    },
    {
      "inputs": [
        {
          "internalType": "address",
          "name": "newOwner",
          "type": "address"
        }
      ],
      "name": "transferOwnership",
      "outputs": [],
      "stateMutability": "nonpayable",
      "type": "function"
    },
    {
      "inputs": [],
      "name": "verifierContract",
      "outputs": [
        {
          "internalType": "address",
          "name": "",
          "type": "address"
        }
      ],
      "stateMutability": "view",
      "type": "function"
    },
    {
      "inputs": [
        {
          "internalType": "uint256",
          "name": "_amount",
          "type": "uint256"
        },
        {
          "internalType": "bytes",
          "name": "sismoConnectResponse",
          "type": "bytes"
        },
        {
          "internalType": "address",
          "name": "_to",
          "type": "address"
        },
        {
          "internalType": "bytes32",
          "name": "_nonce",
          "type": "bytes32"
        }
      ],
      "name": "withdrawETH",
      "outputs": [],
      "stateMutability": "nonpayable",
      "type": "function"
    },
    {
      "inputs": [
        {
          "internalType": "address",
          "name": "_token",
          "type": "address"
        },
        {
          "internalType": "uint256",
          "name": "_amount",
          "type": "uint256"
        },
        {
          "internalType": "bytes",
          "name": "sismoConnectResponse",
          "type": "bytes"
        },
        {
          "internalType": "address",
          "name": "_to",
          "type": "address"
        },
        {
          "internalType": "bytes32",
          "name": "_nonce",
          "type": "bytes32"
        }
      ],
      "name": "withdrawToken",
      "outputs": [],
      "stateMutability": "nonpayable",
      "type": "function"
    },
    {
      "inputs": [
        {
          "internalType": "string",
          "name": "_secret",
          "type": "string"
        },
        {
          "internalType": "address",
          "name": "_token",
          "type": "address"
        },
        {
          "internalType": "bytes",
          "name": "sismoConnectResponse",
          "type": "bytes"
        },
        {
          "internalType": "address",
          "name": "_to",
          "type": "address"
        },
        {
          "internalType": "bytes32",
          "name": "_nonce",
          "type": "bytes32"
        }
      ],
      "name": "withdrawWithSecret",
      "outputs": [],
      "stateMutability": "nonpayable",
      "type": "function"
    },
    {
      "stateMutability": "payable",
      "type": "receive"
    }
  ],
  "bytecode": "0x6080346200012057601f6200214838819003918201601f19168301916001600160401b03831184841017620001255780849260a09460405283398101031262000120576200004d816200013b565b906200005c602082016200013b565b6200006a604083016200013b565b926200008760806200007f606086016200013b565b94016200013b565b906000549360018060a01b03199433868216176000556040519660018060a01b0380968180968195823391167f8be0079c531659141344cd1fd0a4f28419497f9722a3daafe3b4186f6b6457e0600080a36001805560c8600d5516896008541617600855168760095416176009551685600a541617600a551683600b541617600b551690600c541617600c55611ff79081620001518239f35b600080fd5b634e487b7160e01b600052604160045260246000fd5b51906001600160a01b0382168203620001205756fe604060808152600480361015610083575b361561004157506020361261003c576000356000526002602052600020610038348254611abd565b9055005b600080fd5b6020606492519162461bcd60e51b8352820152601760248201527f557365206465706f7369744554482066756e6374696f6e0000000000000000006044820152fd5b6000803560e01c806310d5700e1461164a5780631378f5d914611298578063139e3c541461126357806317d026e6146111ca57806320491915146111a157806324ebc1451461113d5780632fe4f4c1146110d95780633f16a3bb146110a45780635262712f1461106f578063537820bf14610fcb5780635e0cd92f14610f7d5780636548e9bc14610f195780636961b36114610efc578063715018a614610e7e57806384abac9514610c7957806385e66df414610c5a57806389a3027114610c255780638da5cb5b14610bf25780639926ad871461077b578063a25da83c14610717578063ad5c4648146106e2578063bda7193a14610405578063cf695688146103d0578063d424134114610369578063d68d9d4e14610334578063de11c94a146102ff578063e0bab4c4146102c65763f2fde38b146101c35750610010565b9190346102c25760206003193601126102c2576101de6119ef565b906101e7611a58565b73ffffffffffffffffffffffffffffffffffffffff8092169283156102595750508254827fffffffffffffffffffffffff00000000000000000000000000000000000000008216178455167f8be0079c531659141344cd1fd0a4f28419497f9722a3daafe3b4186f6b6457e08380a380f35b906020608492519162461bcd60e51b8352820152602660248201527f4f776e61626c653a206e6577206f776e657220697320746865207a65726f206160448201527f64647265737300000000000000000000000000000000000000000000000000006064820152fd5b8280fd5b5082346102fb57816003193601126102fb5760209073ffffffffffffffffffffffffffffffffffffffff600554169051908152f35b5080fd5b5082346102fb57816003193601126102fb5760209073ffffffffffffffffffffffffffffffffffffffff600954169051908152f35b50919060206003193601126102c25761034b611af9565b35825260026020528120610360348254611abd565b90556001805580f35b50346103cd5760206003193601126103cd5773ffffffffffffffffffffffffffffffffffffffff6103986119ef565b6103a0611a58565b167fffffffffffffffffffffffff0000000000000000000000000000000000000000600954161760095580f35b80fd5b5082346102fb57816003193601126102fb5760209073ffffffffffffffffffffffffffffffffffffffff600854169051908152f35b5091346102c25760a06003193601126102c25767ffffffffffffffff9082358281116106de57366023820112156106de576104499036906024818701359101611977565b92610452611a35565b926044359081116106da5761046a90369083016119ae565b50610473611a12565b9173ffffffffffffffffffffffffffffffffffffffff9261049984600c54163314611bb1565b6104a1611af9565b81519380876020966104cf8882816104c28183019687815193849201611bfc565b81010380845201826118cd565b5190209616918261059f57868952600286528389205494851561055d5750888086819482948b845260028b5283898120551682f115610553576105457fa5ecd7cf58f2f1e36e387c6442f5dea0a47926654ed49e6d1d9eb06d0406424495965b6060845196879687528601526060850190611caf565b918301520390a26001805580f35b81513d88823e3d90fd5b6064908786519162461bcd60e51b8352820152601e60248201527f4e6f20455448206465706f73697420666f7220746869732073656372657400006044820152fd5b9050858852600385528288208289528552828820549384156106995786895260038652838920838a52865283892089905583517fa9059cbb00000000000000000000000000000000000000000000000000000000815273ffffffffffffffffffffffffffffffffffffffff9092169082019081526020810185905285908290819060400103818b865af1801561068f5796610545917fa5ecd7cf58f2f1e36e387c6442f5dea0a47926654ed49e6d1d9eb06d040642449798610662575b5061052f565b61068190873d8911610688575b61067981836118cd565b810190611b99565b503861065c565b503d61066f565b83513d8a823e3d90fd5b606490868086519262461bcd60e51b845283015260248201527f4e6f20546f6b656e206465706f73697420666f722074686973207365637265746044820152fd5b8580fd5b8480fd5b508290346103cd57806003193601126103cd575073ffffffffffffffffffffffffffffffffffffffff60209254169051908152f35b50346103cd5760206003193601126103cd5773ffffffffffffffffffffffffffffffffffffffff6107466119ef565b61074e611a58565b167fffffffffffffffffffffffff0000000000000000000000000000000000000000600854161760085580f35b5091346102c25760806003193601126102c2576107966119ef565b92602480359367ffffffffffffffff94858111610bee5736602382011215610bee5780820135918683116106de5783820191848436920101116106de57604492833560649182359a73ffffffffffffffffffffffffffffffffffffffff9061080382600c54163314611bb1565b61080b611af9565b8c8a5260209b60028d528b8b20549361082d6108275a3a611df4565b87611abd565b98898610610bac57816109fd575050508347106109bc5789808581948294165af1610856611e5f565b5015610955578161086e61088493610874935b611e07565b95611e07565b61087e5a3a611df4565b90611e07565b93612710610894600d5487611df4565b04956108a08787611abd565b85106108f1575050505092806108d584848a6108c5859861086987996108e69c611e07565b90855260028b5289852055611abd565b335af16108e0611e5f565b50611e8f565b600180555160018152f35b917f496e73756666696369656e742062616c616e636520666f722067617320616e647f206665650000000000000000000000000000000000000000000000000000000092608495948c8c519662461bcd60e51b885287015280860152840152820152fd5b5050907f6563697069656e74206d617920686176652072657665727465640000000000006084927f416464726573733a20756e61626c6520746f2073656e642076616c75652c207286603a898d8d519762461bcd60e51b8952880152860152840152820152fd5b505082847f416464726573733a20696e73756666696369656e742062616c616e636500000088601d8b8f8f519562461bcd60e51b8752860152840152820152fd5b9193509085610aac57610a11913691611977565b8b5192838d0190811184821017610a815793610a7b86948f948f8f6108849a9661086e986108749b839452601e86527f416464726573733a206c6f772d6c6576656c2063616c6c206661696c65640000818701528151910182855af1610a75611e5f565b91611f25565b50611e07565b8a8c60418a7f4e487b7100000000000000000000000000000000000000000000000000000000835252fd5b610ab7913691611977565b8b51926060840190811184821017610a81578c52602983527f416464726573733a206c6f772d6c6576656c2063616c6c20776974682076616c8d8401527f7565206661696c656400000000000000000000000000000000000000000000008c840152844710610b46579361087493610a7b82948f948e808a61086e986108849c51910188855af1610a75611e5f565b8b5162461bcd60e51b81528088018e90526026818c01527f416464726573733a20696e73756666696369656e742062616c616e636520666f818b01527f722063616c6c000000000000000000000000000000000000000000000000000081880152608490fd5b878f8f8d8f6014908e947f496e73756666696369656e742062616c616e636500000000000000000000000094519562461bcd60e51b8752860152840152820152fd5b8380fd5b5082346102fb57816003193601126102fb5773ffffffffffffffffffffffffffffffffffffffff60209254169051908152f35b5082346102fb57816003193601126102fb5760209073ffffffffffffffffffffffffffffffffffffffff600654169051908152f35b5082346102fb57816003193601126102fb57602090600d549051908152f35b5082346102fb5760606003193601126102fb57610c946119ef565b9060243591610ca1611af9565b73ffffffffffffffffffffffffffffffffffffffff809116908115610e3b57610ccb841515611b4e565b808654168214908115610e2d575b8115610e1f575b8115610e11575b5015610dce578151947f23b872dd0000000000000000000000000000000000000000000000000000000086523381870152306024870152836044870152602095868160648189875af1908115610dc4578691610da7575b5015610d655750610360929394604435865260038152828620918652528320918254611abd565b6064908684519162461bcd60e51b8352820152601560248201527f546f6b656e207472616e73666572206661696c656400000000000000000000006044820152fd5b610dbe9150873d89116106885761067981836118cd565b87610d3e565b84513d88823e3d90fd5b606485602084519162461bcd60e51b8352820152601360248201527f546f6b656e206e6f7420737570706f72746564000000000000000000000000006044820152fd5b905060075416811486610ce7565b600654811683149150610ce0565b600554811683149150610cd9565b606486602085519162461bcd60e51b8352820152601960248201527f546f6b656e20616464726573732063616e6e6f742062652030000000000000006044820152fd5b50346103cd57806003193601126103cd57610e97611a58565b8073ffffffffffffffffffffffffffffffffffffffff81547fffffffffffffffffffffffff000000000000000000000000000000000000000081168355167f8be0079c531659141344cd1fd0a4f28419497f9722a3daafe3b4186f6b6457e08280a380f35b5082346102fb57816003193601126102fb57602090516101f48152f35b50346103cd5760206003193601126103cd5773ffffffffffffffffffffffffffffffffffffffff610f486119ef565b610f50611a58565b167fffffffffffffffffffffffff0000000000000000000000000000000000000000600c541617600c5580f35b5082346102fb57806003193601126102fb5780602092610f9b6119ef565b60243582526003855273ffffffffffffffffffffffffffffffffffffffff83832091168252845220549051908152f35b5090346102fb5760806003193601126102fb57610fe66119ef565b90610fef611a35565b90610ff86119cc565b90611001611a12565b9161100a611a58565b73ffffffffffffffffffffffffffffffffffffffff80948193827fffffffffffffffffffffffff000000000000000000000000000000000000000098168882541617905516856005541617600555168360065416176006551690600754161760075580f35b5082346102fb57816003193601126102fb5760209073ffffffffffffffffffffffffffffffffffffffff600754169051908152f35b5082346102fb57816003193601126102fb5760209073ffffffffffffffffffffffffffffffffffffffff600a54169051908152f35b50346103cd5760206003193601126103cd5773ffffffffffffffffffffffffffffffffffffffff6111086119ef565b611110611a58565b167fffffffffffffffffffffffff0000000000000000000000000000000000000000600b541617600b5580f35b50346103cd5760206003193601126103cd5773ffffffffffffffffffffffffffffffffffffffff61116c6119ef565b611174611a58565b167fffffffffffffffffffffffff0000000000000000000000000000000000000000600a541617600a5580f35b509190346102c25760206003193601126102c25760209282913581526002845220549051908152f35b509190346102c25760206003193601126102c2578035916111e9611a58565b6101f483116111fa575050600d5580f35b906020608492519162461bcd60e51b8352820152602660248201527f4e65772072656c61796572206665652070657263656e7461676520697320746f60448201527f6f206869676800000000000000000000000000000000000000000000000000006064820152fd5b5082346102fb57816003193601126102fb5760209073ffffffffffffffffffffffffffffffffffffffff600b54169051908152f35b5091346102c25760a06003193601126102c2576112b36119ef565b906024359060443567ffffffffffffffff81116106da576112d790369086016119ae565b916112e0611a12565b906084359473ffffffffffffffffffffffffffffffffffffffff61130981600c54163314611bb1565b611311611af9565b865a948a81611320883a611df4565b998560085416908d61135e8c519e8f95869485947f7276069d0000000000000000000000000000000000000000000000000000000086528501611cf2565b03915afa978815611640578b809981906115fa575b8a9b50928a94928a8795936113999b9a99989460209c818e808094518301019101611d2a565b961698519f019e8f20815260028c522054106115b857906113c1846113c79493168614611d5e565b14611da9565b875189208b5260038652868b20921691828b52855282868b205410611576579184916114679388518a208c5260038452878c20828d528452878c2061140d848254611e07565b90558b8b8951968795869485937fa9059cbb00000000000000000000000000000000000000000000000000000000855284016020909392919373ffffffffffffffffffffffffffffffffffffffff60408201951681520152565b03925af1801561156c579061148e929161154f575b506114893a915a90611e07565b611df4565b9361271061149e600d5487611df4565b049584518220885260028352838820546114b88888611abd565b1161150d5787611506818080806114f58d8d8d6114ee8e60028f8f6114dd8888611abd565b955190208952528620918254611e07565b9055611abd565b335af1611500611e5f565b50611eda565b6001805580f35b6064908385519162461bcd60e51b8352820152601f60248201527f4e6f7420656e6f7567682062616c616e636520666f72206761732075736564006044820152fd5b61156590843d86116106885761067981836118cd565b503861147c565b84513d8a823e3d90fd5b6064898688519162461bcd60e51b8352820152601860248201527f4e6f7420656e6f75676820746f6b656e2062616c616e636500000000000000006044820152fd5b60648d8a8c519162461bcd60e51b8352820152601f60248201527f4e6f7420656e6f7567682045544820666f7220676173207265717569726564006044820152fd5b509850918361139997969594926116248a9c8c3d8091833e61161c81836118cd565b810190611c61565b97929150509c8d9c8d97939650939798999a5050929450611373565b87513d8d823e3d90fd5b509190346102c25760806003193601126102c25780359060243567ffffffffffffffff81116106de5761168090369083016119ae565b916116896119cc565b91606435936116fd73ffffffffffffffffffffffffffffffffffffffff956116b687600c54163314611bb1565b6116be611af9565b88815a94888a60085416918c51968794859384937f7276069d0000000000000000000000000000000000000000000000000000000085528c8501611cf2565b03915afa9687156118c35789928a9861189b575b5090816113c161173a9361172f60209b8c8082518301019101611d2a565b931699168914611d5e565b858151910120611768611756611750843a611df4565b86611e07565b828a5260028852888a20541015611e14565b80885260028652868820541561185957906117c091611788851515611b4e565b8089526002875261179e85898b20541015611e14565b8852600286528688206117b2858254611e07565b90556114893a915a90611e07565b936127106117d0600d5487611df4565b04956117dc8787611abd565b841061181857505050846114f5858561181384808080809b9a6118086115069e610869849e859e611e07565b905af16108e0611e5f565b611abd565b60649350519162461bcd60e51b8352820152601a60248201527f4e6f7420656e6f7567682062616c616e636520666f72206761730000000000006044820152fd5b6064838789519162461bcd60e51b8352820152601960248201527f436f6d6d69746d656e7420646f6573206e6f74206578697374000000000000006044820152fd5b6118b691985061173a9293503d808c833e61161c81836118cd565b9992949391506117119050565b88513d8b823e3d90fd5b90601f7fffffffffffffffffffffffffffffffffffffffffffffffffffffffffffffffe0910116810190811067ffffffffffffffff82111761190e57604052565b7f4e487b7100000000000000000000000000000000000000000000000000000000600052604160045260246000fd5b67ffffffffffffffff811161190e57601f017fffffffffffffffffffffffffffffffffffffffffffffffffffffffffffffffe01660200190565b9291926119838261193d565b9161199160405193846118cd565b82948184528183011161003c578281602093846000960137010152565b9080601f8301121561003c578160206119c993359101611977565b90565b6044359073ffffffffffffffffffffffffffffffffffffffff8216820361003c57565b6004359073ffffffffffffffffffffffffffffffffffffffff8216820361003c57565b6064359073ffffffffffffffffffffffffffffffffffffffff8216820361003c57565b6024359073ffffffffffffffffffffffffffffffffffffffff8216820361003c57565b73ffffffffffffffffffffffffffffffffffffffff600054163303611a7957565b606460405162461bcd60e51b815260206004820152602060248201527f4f776e61626c653a2063616c6c6572206973206e6f7420746865206f776e65726044820152fd5b91908201809211611aca57565b7f4e487b7100000000000000000000000000000000000000000000000000000000600052601160045260246000fd5b600260015414611b0a576002600155565b606460405162461bcd60e51b815260206004820152601f60248201527f5265656e7472616e637947756172643a207265656e7472616e742063616c6c006044820152fd5b15611b5557565b606460405162461bcd60e51b815260206004820152602060248201527f416d6f756e74206d7573742062652067726561746572207468616e207a65726f6044820152fd5b9081602091031261003c5751801515810361003c5790565b15611bb857565b606460405162461bcd60e51b815260206004820152600b60248201527f4e6f742072656c617965720000000000000000000000000000000000000000006044820152fd5b60005b838110611c0f5750506000910152565b8181015183820152602001611bff565b81601f8201121561003c578051611c358161193d565b92611c4360405194856118cd565b8184526020828401011161003c576119c99160208085019101611bfc565b9160808383031261003c5782519067ffffffffffffffff9182811161003c5783611c8c918601611c1f565b93602081015193604082015193606083015190811161003c576119c99201611c1f565b907fffffffffffffffffffffffffffffffffffffffffffffffffffffffffffffffe0601f602093611ceb81518092818752878088019101611bfc565b0116010190565b73ffffffffffffffffffffffffffffffffffffffff611d1f60409396959496606084526060840190611caf565b951660208201520152565b919082604091031261003c57815173ffffffffffffffffffffffffffffffffffffffff8116810361003c5760209092015190565b15611d6557565b606460405162461bcd60e51b815260206004820152601060248201527f4e6f742053616d652041646472657373000000000000000000000000000000006044820152fd5b15611db057565b606460405162461bcd60e51b815260206004820152600e60248201527f4e6f742053616d65204e6f6e63650000000000000000000000000000000000006044820152fd5b81810292918115918404141715611aca57565b91908203918211611aca57565b15611e1b57565b606460405162461bcd60e51b815260206004820152601260248201527f4e6f7420656e6f7567682062616c616e636500000000000000000000000000006044820152fd5b3d15611e8a573d90611e708261193d565b91611e7e60405193846118cd565b82523d6000602084013e565b606090565b15611e9657565b606460405162461bcd60e51b815260206004820152601360248201527f455448207472616e73666572206661696c6564000000000000000000000000006044820152fd5b15611ee157565b606460405162461bcd60e51b815260206004820152601c60248201527f455448207472616e73666572206661696c6564207769746820676173000000006044820152fd5b91929015611f865750815115611f39575090565b3b15611f425790565b606460405162461bcd60e51b815260206004820152601d60248201527f416464726573733a2063616c6c20746f206e6f6e2d636f6e74726163740000006044820152fd5b825190915015611f995750805190602001fd5b611fbd9060405191829162461bcd60e51b8352602060048401526024830190611caf565b0390fdfea2646970667358221220eb715ecc42141c86baa2d9d07a97a4da1086f4498310ec5981f95e5d17b517a064736f6c63430008130033",
  "linkReferences": {},
  "deployedLinkReferences": {}
}