{
  "_format": "hh-sol-artifact-1",
  "contractName": "Semver",
  "sourceName": "contracts/helpers/eas/Semver.sol",
  "abi": [
    {
      "inputs": [
        {
          "internalType": "uint256",
          "name": "major",
          "type": "uint256"
        },
        {
          "internalType": "uint256",
          "name": "minor",
          "type": "uint256"
        },
        {
          "internalType": "uint256",
          "name": "patch",
          "type": "uint256"
        }
      ],
      "stateMutability": "nonpayable",
      "type": "constructor"
    },
    {
      "inputs": [],
      "name": "version",
      "outputs": [
        {
          "internalType": "string",
          "name": "",
          "type": "string"
        }
      ],
      "stateMutability": "view",
      "type": "function"
    }
  ],
  "bytecode": "0x60e03461007c57601f6103fa38819003918201601f19168301916001600160401b038311848410176100815780849260609460405283398101031261007c57805190604060208201519101519160805260a05260c0526040516103629081610098823960805181603d015260a051816068015260c0518160920152f35b600080fd5b634e487b7160e01b600052604160045260246000fdfe6080604052600436101561001257600080fd5b6000803560e01c6354fd4d501461002857600080fd5b3461014a578060031936011261014a576100617f00000000000000000000000000000000000000000000000000000000000000006101c4565b604061008c7f00000000000000000000000000000000000000000000000000000000000000006101c4565b916100b67f00000000000000000000000000000000000000000000000000000000000000006101c4565b90610120602284518094602097886100d7818501978881519384920161014d565b830190601760f91b91828b8201526100f8825180938d60218501910161014d565b01906021820152610111825180938b878501910161014d565b01036002810185520183610170565b61013c835194859381855251928380928601528585019061014d565b601f01601f19168101030190f35b80fd5b60005b8381106101605750506000910152565b8181015183820152602001610150565b90601f8019910116810190811067ffffffffffffffff82111761019257604052565b634e487b7160e01b600052604160045260246000fd5b67ffffffffffffffff811161019257601f01601f191660200190565b806000917a184f03e93ff9f4daa797ed6e38ed64bf6a1f0100000000000000008082101561031e575b506d04ee2d6d415b85acef81000000008083101561030f575b50662386f26fc1000080831015610300575b506305f5e100808310156102f1575b50612710808310156102e2575b5060648210156102d2575b600a809210156102c8575b6001908160218186019561025d876101a8565b9661026b6040519889610170565b80885261027a601f19916101a8565b01366020890137860101905b610292575b5050505090565b600019019083906f181899199a1a9b1b9c1cb0b131b232b360811b8282061a8353049182156102c357919082610286565b61028b565b916001019161024a565b919060646002910491019161023f565b60049193920491019138610234565b60089193920491019138610227565b60109193920491019138610218565b60209193920491019138610206565b6040935081049150386101ed56fea2646970667358221220d3fb42119b2bf64549106b977bf8b9f1196ab8905563c4a3c13ab81baae9adbf64736f6c63430008130033",
  "linkReferences": {},
  "deployedLinkReferences": {}
}