{
  "_format": "hh-sol-artifact-1",
  "contractName": "MecenateTreasury",
  "sourceName": "contracts/sismo-zkp/MecenateTreasury.sol",
  "abi": [
    {
      "anonymous": false,
      "inputs": [
        {
          "indexed": true,
          "internalType": "address",
          "name": "previousOwner",
          "type": "address"
        },
        {
          "indexed": true,
          "internalType": "address",
          "name": "newOwner",
          "type": "address"
        }
      ],
      "name": "OwnershipTransferred",
      "type": "event"
    },
    {
      "inputs": [
        {
          "internalType": "address",
          "name": "token",
          "type": "address"
        },
        {
          "internalType": "uint256",
          "name": "amount",
          "type": "uint256"
        }
      ],
      "name": "addERC20Funds",
      "outputs": [],
      "stateMutability": "nonpayable",
      "type": "function"
    },
    {
      "inputs": [],
      "name": "addFunds",
      "outputs": [],
      "stateMutability": "payable",
      "type": "function"
    },
    {
      "inputs": [
        {
          "internalType": "address",
          "name": "tokenA",
          "type": "address"
        },
        {
          "internalType": "address",
          "name": "tokenB",
          "type": "address"
        },
        {
          "internalType": "uint24",
          "name": "fee",
          "type": "uint24"
        },
        {
          "internalType": "uint256",
          "name": "amountA",
          "type": "uint256"
        },
        {
          "internalType": "uint256",
          "name": "amountB",
          "type": "uint256"
        },
        {
          "internalType": "int24",
          "name": "tickLower",
          "type": "int24"
        },
        {
          "internalType": "int24",
          "name": "tickUpper",
          "type": "int24"
        }
      ],
      "name": "addLiquidity",
      "outputs": [],
      "stateMutability": "nonpayable",
      "type": "function"
    },
    {
      "inputs": [
        {
          "internalType": "address",
          "name": "_native",
          "type": "address"
        },
        {
          "internalType": "contract ISwapRouter",
          "name": "_swapRouter",
          "type": "address"
        }
      ],
      "name": "configLiquidityProvider",
      "outputs": [],
      "stateMutability": "nonpayable",
      "type": "function"
    },
    {
      "inputs": [
        {
          "internalType": "address",
          "name": "_token",
          "type": "address"
        },
        {
          "internalType": "uint256",
          "name": "_amount",
          "type": "uint256"
        }
      ],
      "name": "customApprove",
      "outputs": [],
      "stateMutability": "nonpayable",
      "type": "function"
    },
    {
      "inputs": [],
      "name": "distributableBalance",
      "outputs": [
        {
          "internalType": "uint256",
          "name": "",
          "type": "uint256"
        }
      ],
      "stateMutability": "view",
      "type": "function"
    },
    {
      "inputs": [
        {
          "internalType": "address",
          "name": "",
          "type": "address"
        }
      ],
      "name": "distributableERC20Balance",
      "outputs": [
        {
          "internalType": "uint256",
          "name": "",
          "type": "uint256"
        }
      ],
      "stateMutability": "view",
      "type": "function"
    },
    {
      "inputs": [
        {
          "internalType": "address",
          "name": "_usersContract",
          "type": "address"
        }
      ],
      "name": "distribute",
      "outputs": [],
      "stateMutability": "nonpayable",
      "type": "function"
    },
    {
      "inputs": [
        {
          "internalType": "address",
          "name": "token",
          "type": "address"
        },
        {
          "internalType": "address",
          "name": "_usersContract",
          "type": "address"
        }
      ],
      "name": "distributeERC20",
      "outputs": [],
      "stateMutability": "nonpayable",
      "type": "function"
    },
    {
      "inputs": [],
      "name": "fixedFee",
      "outputs": [
        {
          "internalType": "uint256",
          "name": "",
          "type": "uint256"
        }
      ],
      "stateMutability": "view",
      "type": "function"
    },
    {
      "inputs": [],
      "name": "getDistributionBalance",
      "outputs": [
        {
          "internalType": "uint256",
          "name": "",
          "type": "uint256"
        }
      ],
      "stateMutability": "view",
      "type": "function"
    },
    {
      "inputs": [
        {
          "internalType": "address",
          "name": "token",
          "type": "address"
        }
      ],
      "name": "getDistributionERC20Balance",
      "outputs": [
        {
          "internalType": "uint256",
          "name": "",
          "type": "uint256"
        }
      ],
      "stateMutability": "view",
      "type": "function"
    },
    {
      "inputs": [
        {
          "internalType": "address",
          "name": "_verifierContract",
          "type": "address"
        },
        {
          "internalType": "bytes32",
          "name": "encryptedVaultId",
          "type": "bytes32"
        }
      ],
      "name": "getReward",
      "outputs": [
        {
          "internalType": "uint256",
          "name": "",
          "type": "uint256"
        }
      ],
      "stateMutability": "view",
      "type": "function"
    },
    {
      "inputs": [
        {
          "internalType": "address",
          "name": "_token",
          "type": "address"
        },
        {
          "internalType": "address",
          "name": "_verifierContract",
          "type": "address"
        },
        {
          "internalType": "bytes32",
          "name": "encryptedVaultId",
          "type": "bytes32"
        }
      ],
      "name": "getRewardERC20",
      "outputs": [
        {
          "internalType": "uint256",
          "name": "",
          "type": "uint256"
        }
      ],
      "stateMutability": "view",
      "type": "function"
    },
    {
      "inputs": [],
      "name": "globalFee",
      "outputs": [
        {
          "internalType": "uint256",
          "name": "",
          "type": "uint256"
        }
      ],
      "stateMutability": "view",
      "type": "function"
    },
    {
      "inputs": [],
      "name": "lastDistributed",
      "outputs": [
        {
          "internalType": "uint256",
          "name": "",
          "type": "uint256"
        }
      ],
      "stateMutability": "view",
      "type": "function"
    },
    {
      "inputs": [],
      "name": "native",
      "outputs": [
        {
          "internalType": "address",
          "name": "",
          "type": "address"
        }
      ],
      "stateMutability": "view",
      "type": "function"
    },
    {
      "inputs": [],
      "name": "owner",
      "outputs": [
        {
          "internalType": "address",
          "name": "",
          "type": "address"
        }
      ],
      "stateMutability": "view",
      "type": "function"
    },
    {
      "inputs": [],
      "name": "ownerFee",
      "outputs": [
        {
          "internalType": "uint256",
          "name": "",
          "type": "uint256"
        }
      ],
      "stateMutability": "view",
      "type": "function"
    },
    {
      "inputs": [],
      "name": "positionManager",
      "outputs": [
        {
          "internalType": "contract INonfungiblePositionManager",
          "name": "",
          "type": "address"
        }
      ],
      "stateMutability": "view",
      "type": "function"
    },
    {
      "inputs": [],
      "name": "renounceOwnership",
      "outputs": [],
      "stateMutability": "nonpayable",
      "type": "function"
    },
    {
      "inputs": [
        {
          "internalType": "uint256",
          "name": "_fixedFee",
          "type": "uint256"
        }
      ],
      "name": "setFixedFee",
      "outputs": [],
      "stateMutability": "nonpayable",
      "type": "function"
    },
    {
      "inputs": [
        {
          "internalType": "uint256",
          "name": "_globalFee",
          "type": "uint256"
        }
      ],
      "name": "setGlobalFee",
      "outputs": [],
      "stateMutability": "nonpayable",
      "type": "function"
    },
    {
      "inputs": [
        {
          "internalType": "bool",
          "name": "_splitLiquidity",
          "type": "bool"
        }
      ],
      "name": "setSplitLiqudity",
      "outputs": [
        {
          "internalType": "bool",
          "name": "",
          "type": "bool"
        }
      ],
      "stateMutability": "nonpayable",
      "type": "function"
    },
    {
      "inputs": [
        {
          "internalType": "contract ISwapRouter",
          "name": "_swapRouter",
          "type": "address"
        }
      ],
      "name": "setSwapRouter",
      "outputs": [],
      "stateMutability": "nonpayable",
      "type": "function"
    },
    {
      "inputs": [],
      "name": "splitLiquidity",
      "outputs": [
        {
          "internalType": "bool",
          "name": "",
          "type": "bool"
        }
      ],
      "stateMutability": "view",
      "type": "function"
    },
    {
      "inputs": [
        {
          "internalType": "address",
          "name": "_token0",
          "type": "address"
        },
        {
          "internalType": "address",
          "name": "_token1",
          "type": "address"
        },
        {
          "internalType": "address",
          "name": "_token2",
          "type": "address"
        },
        {
          "internalType": "uint24",
          "name": "_fee",
          "type": "uint24"
        },
        {
          "internalType": "uint24",
          "name": "_fee2",
          "type": "uint24"
        }
      ],
      "name": "swapAndBurn",
      "outputs": [],
      "stateMutability": "nonpayable",
      "type": "function"
    },
    {
      "inputs": [],
      "name": "swapRouter",
      "outputs": [
        {
          "internalType": "contract ISwapRouter",
          "name": "",
          "type": "address"
        }
      ],
      "stateMutability": "view",
      "type": "function"
    },
    {
      "inputs": [
        {
          "internalType": "address",
          "name": "token1",
          "type": "address"
        },
        {
          "internalType": "address",
          "name": "token2",
          "type": "address"
        },
        {
          "internalType": "uint256",
          "name": "amount",
          "type": "uint256"
        },
        {
          "internalType": "uint24",
          "name": "fee",
          "type": "uint24"
        }
      ],
      "name": "swapTokensForTokens",
      "outputs": [
        {
          "internalType": "uint256",
          "name": "",
          "type": "uint256"
        }
      ],
      "stateMutability": "nonpayable",
      "type": "function"
    },
    {
      "inputs": [
        {
          "internalType": "address",
          "name": "_receiver",
          "type": "address"
        },
        {
          "internalType": "address",
          "name": "_verifierContract",
          "type": "address"
        },
        {
          "internalType": "bytes",
          "name": "sismoConnectResponse",
          "type": "bytes"
        },
        {
          "internalType": "address",
          "name": "_to",
          "type": "address"
        },
        {
          "internalType": "address",
          "name": "_from",
          "type": "address"
        }
      ],
      "name": "takeReward",
      "outputs": [
        {
          "internalType": "uint256",
          "name": "",
          "type": "uint256"
        }
      ],
      "stateMutability": "nonpayable",
      "type": "function"
    },
    {
      "inputs": [
        {
          "internalType": "address",
          "name": "_token",
          "type": "address"
        },
        {
          "internalType": "address",
          "name": "_receiver",
          "type": "address"
        },
        {
          "internalType": "address",
          "name": "_verifierContract",
          "type": "address"
        },
        {
          "internalType": "bytes",
          "name": "sismoConnectResponse",
          "type": "bytes"
        },
        {
          "internalType": "address",
          "name": "_to",
          "type": "address"
        },
        {
          "internalType": "address",
          "name": "_from",
          "type": "address"
        }
      ],
      "name": "takeRewardERC20",
      "outputs": [
        {
          "internalType": "uint256",
          "name": "",
          "type": "uint256"
        }
      ],
      "stateMutability": "nonpayable",
      "type": "function"
    },
    {
      "inputs": [
        {
          "internalType": "address",
          "name": "newOwner",
          "type": "address"
        }
      ],
      "name": "transferOwnership",
      "outputs": [],
      "stateMutability": "nonpayable",
      "type": "function"
    },
    {
      "inputs": [
        {
          "internalType": "bytes32",
          "name": "",
          "type": "bytes32"
        }
      ],
      "name": "userReward",
      "outputs": [
        {
          "internalType": "uint256",
          "name": "",
          "type": "uint256"
        }
      ],
      "stateMutability": "view",
      "type": "function"
    },
    {
      "inputs": [
        {
          "internalType": "bytes32",
          "name": "",
          "type": "bytes32"
        },
        {
          "internalType": "address",
          "name": "",
          "type": "address"
        }
      ],
      "name": "userRewardERC20",
      "outputs": [
        {
          "internalType": "uint256",
          "name": "",
          "type": "uint256"
        }
      ],
      "stateMutability": "view",
      "type": "function"
    },
    {
      "stateMutability": "payable",
      "type": "receive"
    }
  ],
  "bytecode": "0x6080806040523461006b5760008054336001600160a01b0319821681178355916001600160a01b03909116907f8be0079c531659141344cd1fd0a4f28419497f9722a3daafe3b4186f6b6457e09080a36064600455662386f26fc10000600555611af590816100718239f35b600080fdfe608080604052600436101561002c575b50361561001b57600080fd5b61002734600754611602565b600755005b600090813560e01c90816305f6059d146114995750806310027a281461139357806311b0b42d146114705780631fce07d514611452578063291206f61461142f57806337de81061461140c57806341273657146113cc578063568dbccf1461139357806363453ae1146111e55780636962a86314610f845780636c8d424f14610f51578063715018a614610ef75780637450bce914610d3a578063791b98bc14610ece578063808fc20614610eb057806385258b4b14610de85780638da5cb5b14610dc15780638f3a899a14610d7657806391792d5b14610d58578063932f9f8a14610d3a578063a26759cb14610d1c578063afbce84e14610a8a578063b51ed1f414610a60578063c31c9c0714610a37578063c7c96e021461093a578063d1a06cf81461078d578063d5b2a01a1461076f578063e266294314610632578063e60ef57f146105e2578063f2fde38b1461051c578063f5ecfa58146104d5578063fc99d28f1461048c578063fd486421146101f75763ffdf2bcb0361000f57346101f45760403660031901126101f4576101c46114bb565b6101cc6115aa565b6001600160a01b03168152600b6020526040812080546101ef9060243590611602565b905580f35b80fd5b50346101f45760c03660031901126101f4576102116114bb565b6102196114d1565b506102226114e7565b9167ffffffffffffffff9060643582811161048857610245903690600401611563565b9261024e6114fd565b6001600160a01b039490929060a43586811681036104835761028b97858885946040519b8c95869485936307c93c8f60e01b8552600485016117c2565b0392165afa958615610476578196610450575b50855160208097012094858252600a875260408220921691826000528652604060002054948515610415578152600a8652604080822060008481529088528190208290555163a9059cbb60e01b8188019081526001600160a01b039490941660248201526044808201879052815293610318606486611525565b604051936040850191858310908311176103ff576103719583926040528886527f5361666545524332303a206c6f772d6c6576656c2063616c6c206661696c656489870152519082855af161036b6117f1565b91611839565b8051908382159283156103e7575b5050501561038f57604051908152f35b60405162461bcd60e51b815260048101839052602a60248201527f5361666545524332303a204552433230206f7065726174696f6e20646964206e6044820152691bdd081cdd58d8d9595960b21b6064820152608490fd5b6103f79350820181019101611821565b38838161037f565b634e487b7160e01b600052604160045260246000fd5b60405162461bcd60e51b81526004810188905260136024820152724e6f2072657761726420617661696c61626c6560681b6044820152606490fd5b61046d9196503d8088833e6104658183611525565b81019061172f565b5050943861029e565b50604051903d90823e3d90fd5b600080fd5b5080fd5b50346101f45760803660031901126101f45760206104cd6104ab6114bb565b6104b36114d1565b6104bb611513565b906104c46115aa565b60443592611913565b604051908152f35b50346101f45760403660031901126101f45760406104f16114d1565b916004358152600a602052209060018060a01b03166000526020526020604060002054604051908152f35b50346101f45760203660031901126101f4576105366114bb565b61053e6115aa565b6001600160a01b0390811690811561058e57600054826001600160601b0360a01b821617600055167f8be0079c531659141344cd1fd0a4f28419497f9722a3daafe3b4186f6b6457e0600080a380f35b60405162461bcd60e51b815260206004820152602660248201527f4f776e61626c653a206e6577206f776e657220697320746865207a65726f206160448201526564647265737360d01b6064820152608490fd5b50346101f45760603660031901126101f45760406105fe6114bb565b916106076114d1565b506044358152600a602052209060018060a01b03166000526020526020604060002054604051908152f35b50346101f45760403660031901126101f4578061064d6114bb565b816106566114d1565b61065e6115aa565b60018060a01b03809316600354906044856001600160601b0360a01b948386861617600355168060015495861617600155600160a01b60ff60a01b1987541617865560405195869384928263095ea7b360e01b98898652161760048401528160248401526020998a9616175af1918215610764578492610747575b50604483600354169360015416918660405195869485938452600484015260001960248401525af1801561073c5761070f578280f35b8161072e92903d10610735575b6107268183611525565b810190611821565b5038808280f35b503d61071c565b6040513d85823e3d90fd5b61075d90833d8511610735576107268183611525565b50386106d9565b6040513d87823e3d90fd5b50346101f457806003193601126101f4576020600854604051908152f35b50346101f45760403660031901126101f4576107a76114bb565b6107af6114d1565b9060018060a01b03809116808452602091600b83526107d360408620541515611632565b818552600b83526108126127106107f160408820546004549061167e565b046107fe81600854611602565b600855838752600b85526040872054611625565b93166040519363b5cb15f760e01b85528385600481855afa94851561092f5786956108fe575b508461084e916108498215156116b1565b611691565b90855b8581106108695786600b868683525280604081205580f35b604051632dae7a8560e11b815260048101829052908582602481865afa80156108f35788906108c4575b6108bf92508852600a86526040882085600052865260406000206108b8858254611602565b90556116fd565b610851565b508582813d83116108ec575b6108da8183611525565b81010312610483576108bf9151610893565b503d6108d0565b6040513d8a823e3d90fd5b9094508381813d8311610928575b6109168183611525565b8101031261048357519361084e610838565b503d61090c565b6040513d88823e3d90fd5b50346101f45760a03660031901126101f4576109546114bb565b5061095d6114d1565b60443567ffffffffffffffff8111610a335761097d903690600401611563565b916001600160a01b036064358181169391848203610483576109c19284926109a36114fd565b926040518096819582946307c93c8f60e01b84528c600485016117c2565b0392165afa908115610a28579382916020958391610a0c575b5085815191012082526009855260408220938285549555848683519301915af150610a036117f1565b50604051908152f35b610a2091503d8085833e6104658183611525565b5050386109da565b6040513d84823e3d90fd5b8280fd5b50346101f457806003193601126101f4576001546040516001600160a01b039091168152602090f35b50346101f45760203660031901126101f45760406020916004358152600983522054604051908152f35b50346101f45760e03660031901126101f457610aa46114bb565b610aac6114d1565b6044359062ffffff82168092036104835760a4358060020b8091036104835760c435918260020b80930361048357610ae26115aa565b60025460405163095ea7b360e01b81526001600160a01b03918216600482015260643560248201529516946020816044818a8a5af18015610d1157610cf2575b5060025460405163095ea7b360e01b81526001600160a01b039182166004820152608435602482018190529592909116906020816044818b865af180156108f357610cd3575b5060405195610160870187811067ffffffffffffffff8211176103ff576040528652602086015260408501526060840152608083015260643560a083015260c08201528160e0820152816101008201523061012082015242610140820152608061014061016460018060a01b036002541693856040519586948593634418b22b60e11b855260018060a01b03815116600486015260018060a01b03602082015116602486015262ffffff6040820151166044860152606081015160020b60648601528781015160020b608486015260a081015160a486015260c081015160c486015260e081015160e486015261010081015161010486015260018060a01b036101208201511661012486015201516101448401525af18015610a2857610c8c575080f35b6080813d8211610ccb575b81610ca460809383611525565b8101031261048857602001516fffffffffffffffffffffffffffffffff8116036101f45780f35b3d9150610c97565b610ceb9060203d602011610735576107268183611525565b5038610b68565b610d0a9060203d602011610735576107268183611525565b5038610b22565b6040513d89823e3d90fd5b50806003193601126101f457610d3434600754611602565b60075580f35b50346101f457806003193601126101f4576020600754604051908152f35b50346101f457806003193601126101f4576020600554604051908152f35b50346101f45760203660031901126101f45760043580151580910361048857610d9d6115aa565b815460ff60a01b191660a09190911b60ff60a01b1617905560405160018152602090f35b50346101f457806003193601126101f457546040516001600160a01b039091168152602090f35b50346101f45760403660031901126101f457610e4e610e056114bb565b610e0d6115aa565b60015460405163095ea7b360e01b8082526001600160a01b039283166004830152602480359083015260209493831693919290918590849081906044820190565b038189885af190811561092f578593604492610e93575b5060015416918660405195869485938452600484015260001960248401525af1801561073c5761070f578280f35b610ea990853d8711610735576107268183611525565b5038610e65565b50346101f457806003193601126101f4576020600454604051908152f35b50346101f457806003193601126101f4576002546040516001600160a01b039091168152602090f35b50346101f457806003193601126101f457610f106115aa565b600080546001600160a01b0319811682556001600160a01b03167f8be0079c531659141344cd1fd0a4f28419497f9722a3daafe3b4186f6b6457e08280a380f35b50346101f45760403660031901126101f4576040602091610f706114bb565b506024358152600983522054604051908152f35b50346101f45760a03660031901126101f457610f9e6114bb565b90610fa76114d1565b91610fb06114e7565b90610fb9611513565b906084359162ffffff831683036111e157610fd26115aa565b6040516370a0823160e01b81523060048201526001600160a01b039360209380861693919291908583602481885afa9283156111d65789936111a3575b5060015460405163095ea7b360e01b8082529189166001600160a01b0316600482015260248101859052909587908290818d816044810103925af1908115611198579161106a8c9261106f9695948d9161117b575b506118d6565b611913565b9182156111435760015460405191825285166001600160a01b0316600482015260248101839052959687969084826044818b858b165af19485156108f3576110c595889361106a928b92611126575b50506118d6565b9116803b1561112257602483926040519485938492630852cd8d60e31b845260048401525af18015610a28576110f9575080f35b67ffffffffffffffff811161110e5760405280f35b634e487b7160e01b82526041600452602482fd5b5050fd5b61113c9250803d10610735576107268183611525565b38806110be565b60405162461bcd60e51b815260048101859052601060248201526f139bc81d1bdad95b9cc8189bdd59da1d60821b6044820152606490fd5b61119291508a3d8c11610735576107268183611525565b38611064565b6040513d8c823e3d90fd5b9092508581813d83116111cf575b6111bb8183611525565b810103126111cb5751913861100f565b8880fd5b503d6111b1565b6040513d8b823e3d90fd5b8480fd5b50346101f457602080600319360112610488576112006114bb565b906201518061121160065442611625565b1061134f5761124c600754611227811515611632565b6127106112366004548361167e565b049061124482600854611602565b600855611625565b60405163b5cb15f760e01b8152926001600160a01b031691908184600481865afa93841561076457859461131e575b508361128c916108498215156116b1565b91845b8481106112a25785426006558060075580f35b604051632dae7a8560e11b815260048101829052908382602481865afa8015610d115787906112eb575b6112e69250875260098452604087206108b8868254611602565b61128f565b508382813d8311611317575b6113018183611525565b81010312611313576112e691516112cc565b8680fd5b503d6112f7565b9093508181813d8311611348575b6113368183611525565b810103126111e157519261128c61127b565b503d61132c565b6064906040519062461bcd60e51b82526004820152601e60248201527f43616e206f6e6c792064697374726962757465206f6e636520612064617900006044820152fd5b50346101f45760203660031901126101f4576020906040906001600160a01b036113bb6114bb565b168152600b83522054604051908152f35b50346101f45760203660031901126101f4576113e66114bb565b6113ee6115aa565b60018060a01b03166001600160601b0360a01b600154161760015580f35b50346101f45760203660031901126101f4576114266115aa565b60043560055580f35b50346101f45760203660031901126101f4576114496115aa565b60043560045580f35b50346101f457806003193601126101f4576020600654604051908152f35b50346101f457806003193601126101f4576003546040516001600160a01b039091168152602090f35b90503461048857816003193601126104885760ff6020925460a01c1615158152f35b600435906001600160a01b038216820361048357565b602435906001600160a01b038216820361048357565b604435906001600160a01b038216820361048357565b608435906001600160a01b038216820361048357565b6064359062ffffff8216820361048357565b90601f8019910116810190811067ffffffffffffffff8211176103ff57604052565b67ffffffffffffffff81116103ff57601f01601f191660200190565b81601f820112156104835780359061157a82611547565b926115886040519485611525565b8284526020838301011161048357816000926020809301838601378301015290565b6000546001600160a01b031633036115be57565b606460405162461bcd60e51b815260206004820152602060248201527f4f776e61626c653a2063616c6c6572206973206e6f7420746865206f776e65726044820152fd5b9190820180921161160f57565b634e487b7160e01b600052601160045260246000fd5b9190820391821161160f57565b1561163957565b60405162461bcd60e51b815260206004820152601860248201527f4e6f2064697374726962757461626c652062616c616e636500000000000000006044820152606490fd5b8181029291811591840414171561160f57565b811561169b570490565b634e487b7160e01b600052601260045260246000fd5b156116b857565b60405162461bcd60e51b815260206004820152601960248201527f4e6f20757365727320746f206469737472696275746520746f000000000000006044820152606490fd5b600019811461160f5760010190565b60005b83811061171f5750506000910152565b818101518382015260200161170f565b9060608282031261048357815167ffffffffffffffff811161048357820181601f8201121561048357805161176381611547565b926117716040519485611525565b818452602082840101116104835761178f916020808501910161170c565b916040602083015192015190565b906020916117b68151809281855285808601910161170c565b601f01601f1916010190565b916117da60409295949560608552606085019061179d565b6001600160a01b0391821660208501529416910152565b3d1561181c573d9061180282611547565b916118106040519384611525565b82523d6000602084013e565b606090565b90816020910312610483575180151581036104835790565b9192901561189b575081511561184d575090565b3b156118565790565b60405162461bcd60e51b815260206004820152601d60248201527f416464726573733a2063616c6c20746f206e6f6e2d636f6e74726163740000006044820152606490fd5b8251909150156118ae5750805190602001fd5b60405162461bcd60e51b8152602060048201529081906118d290602483019061179d565b0390fd5b156118dd57565b60405162461bcd60e51b815260206004820152600e60248201526d105c1c1c9bdd994819985a5b195960921b6044820152606490fd5b6001546040805163095ea7b360e01b81526001600160a01b0392831660048201526024810187905290959392909116906020816044816000865af18015611ab457611a95575b50605f830292808404605f148115171561160f57600a420180421161160f5786519161010083019183831067ffffffffffffffff8411176103ff579188529282526001600160a01b03938416602083810191825262ffffff978816848a0190815230606086019081526080860194855260a0860196875260649889900460c08701908152600060e088018181526001548e5163414bf38960e01b815299518c1660048b015296518b1660248a01529351909b166044880152905188169886019890985292516084850152935160a4840152945160c483015251831660e482015293909284926101049284929091165af1918215611a8b5750600091611a5c575090565b90506020813d602011611a83575b81611a7760209383611525565b81010312610483575190565b3d9150611a6a565b513d6000823e3d90fd5b611aad9060203d602011610735576107268183611525565b5038611959565b86513d6000823e3d90fdfea2646970667358221220e663b74b52f048e2f3ba60e32ce3a4234eb6e1782adb12f753b3e564280a5ee564736f6c63430008130033",
  "linkReferences": {},
  "deployedLinkReferences": {}
}