{
  "_format": "hh-sol-artifact-1",
  "contractName": "AuthBuilder",
  "sourceName": "contracts/helpers/sismo/utils/AuthBuilder.sol",
  "abi": [
    {
      "inputs": [],
      "name": "DEFAULT_AUTH_EXTRA_DATA",
      "outputs": [
        {
          "internalType": "bytes",
          "name": "",
          "type": "bytes"
        }
      ],
      "stateMutability": "view",
      "type": "function"
    },
    {
      "inputs": [],
      "name": "DEFAULT_AUTH_IS_ANON",
      "outputs": [
        {
          "internalType": "bool",
          "name": "",
          "type": "bool"
        }
      ],
      "stateMutability": "view",
      "type": "function"
    },
    {
      "inputs": [],
      "name": "DEFAULT_AUTH_IS_SELECTABLE_BY_USER",
      "outputs": [
        {
          "internalType": "bool",
          "name": "",
          "type": "bool"
        }
      ],
      "stateMutability": "view",
      "type": "function"
    },
    {
      "inputs": [],
      "name": "DEFAULT_AUTH_TYPE",
      "outputs": [
        {
          "internalType": "enum AuthType",
          "name": "",
          "type": "AuthType"
        }
      ],
      "stateMutability": "view",
      "type": "function"
    },
    {
      "inputs": [],
      "name": "DEFAULT_AUTH_USER_ID",
      "outputs": [
        {
          "internalType": "uint256",
          "name": "",
          "type": "uint256"
        }
      ],
      "stateMutability": "view",
      "type": "function"
    },
    {
      "inputs": [
        {
          "internalType": "enum AuthType",
          "name": "authType",
          "type": "AuthType"
        },
        {
          "internalType": "bool",
          "name": "isAnon",
          "type": "bool"
        }
      ],
      "name": "build",
      "outputs": [
        {
          "components": [
            {
              "internalType": "enum AuthType",
              "name": "authType",
              "type": "AuthType"
            },
            {
              "internalType": "bool",
              "name": "isAnon",
              "type": "bool"
            },
            {
              "internalType": "bool",
              "name": "isSelectableByUser",
              "type": "bool"
            },
            {
              "internalType": "uint256",
              "name": "userId",
              "type": "uint256"
            },
            {
              "internalType": "bytes",
              "name": "extraData",
              "type": "bytes"
            }
          ],
          "internalType": "struct Auth",
          "name": "",
          "type": "tuple"
        }
      ],
      "stateMutability": "pure",
      "type": "function"
    },
    {
      "inputs": [
        {
          "internalType": "enum AuthType",
          "name": "authType",
          "type": "AuthType"
        },
        {
          "internalType": "bytes",
          "name": "extraData",
          "type": "bytes"
        }
      ],
      "name": "build",
      "outputs": [
        {
          "components": [
            {
              "internalType": "enum AuthType",
              "name": "authType",
              "type": "AuthType"
            },
            {
              "internalType": "bool",
              "name": "isAnon",
              "type": "bool"
            },
            {
              "internalType": "bool",
              "name": "isSelectableByUser",
              "type": "bool"
            },
            {
              "internalType": "uint256",
              "name": "userId",
              "type": "uint256"
            },
            {
              "internalType": "bytes",
              "name": "extraData",
              "type": "bytes"
            }
          ],
          "internalType": "struct Auth",
          "name": "",
          "type": "tuple"
        }
      ],
      "stateMutability": "pure",
      "type": "function"
    },
    {
      "inputs": [
        {
          "internalType": "enum AuthType",
          "name": "authType",
          "type": "AuthType"
        },
        {
          "internalType": "bool",
          "name": "isAnon",
          "type": "bool"
        },
        {
          "internalType": "bytes",
          "name": "extraData",
          "type": "bytes"
        }
      ],
      "name": "build",
      "outputs": [
        {
          "components": [
            {
              "internalType": "enum AuthType",
              "name": "authType",
              "type": "AuthType"
            },
            {
              "internalType": "bool",
              "name": "isAnon",
              "type": "bool"
            },
            {
              "internalType": "bool",
              "name": "isSelectableByUser",
              "type": "bool"
            },
            {
              "internalType": "uint256",
              "name": "userId",
              "type": "uint256"
            },
            {
              "internalType": "bytes",
              "name": "extraData",
              "type": "bytes"
            }
          ],
          "internalType": "struct Auth",
          "name": "",
          "type": "tuple"
        }
      ],
      "stateMutability": "pure",
      "type": "function"
    },
    {
      "inputs": [
        {
          "internalType": "enum AuthType",
          "name": "authType",
          "type": "AuthType"
        },
        {
          "internalType": "bool",
          "name": "isAnon",
          "type": "bool"
        },
        {
          "internalType": "uint256",
          "name": "userId",
          "type": "uint256"
        },
        {
          "internalType": "bool",
          "name": "isSelectableByUser",
          "type": "bool"
        },
        {
          "internalType": "bytes",
          "name": "extraData",
          "type": "bytes"
        }
      ],
      "name": "build",
      "outputs": [
        {
          "components": [
            {
              "internalType": "enum AuthType",
              "name": "authType",
              "type": "AuthType"
            },
            {
              "internalType": "bool",
              "name": "isAnon",
              "type": "bool"
            },
            {
              "internalType": "bool",
              "name": "isSelectableByUser",
              "type": "bool"
            },
            {
              "internalType": "uint256",
              "name": "userId",
              "type": "uint256"
            },
            {
              "internalType": "bytes",
              "name": "extraData",
              "type": "bytes"
            }
          ],
          "internalType": "struct Auth",
          "name": "",
          "type": "tuple"
        }
      ],
      "stateMutability": "pure",
      "type": "function"
    },
    {
      "inputs": [
        {
          "internalType": "enum AuthType",
          "name": "authType",
          "type": "AuthType"
        },
        {
          "internalType": "bool",
          "name": "isAnon",
          "type": "bool"
        },
        {
          "internalType": "uint256",
          "name": "userId",
          "type": "uint256"
        },
        {
          "internalType": "bool",
          "name": "isSelectableByUser",
          "type": "bool"
        }
      ],
      "name": "build",
      "outputs": [
        {
          "components": [
            {
              "internalType": "enum AuthType",
              "name": "authType",
              "type": "AuthType"
            },
            {
              "internalType": "bool",
              "name": "isAnon",
              "type": "bool"
            },
            {
              "internalType": "bool",
              "name": "isSelectableByUser",
              "type": "bool"
            },
            {
              "internalType": "uint256",
              "name": "userId",
              "type": "uint256"
            },
            {
              "internalType": "bytes",
              "name": "extraData",
              "type": "bytes"
            }
          ],
          "internalType": "struct Auth",
          "name": "",
          "type": "tuple"
        }
      ],
      "stateMutability": "pure",
      "type": "function"
    },
    {
      "inputs": [
        {
          "internalType": "enum AuthType",
          "name": "authType",
          "type": "AuthType"
        }
      ],
      "name": "build",
      "outputs": [
        {
          "components": [
            {
              "internalType": "enum AuthType",
              "name": "authType",
              "type": "AuthType"
            },
            {
              "internalType": "bool",
              "name": "isAnon",
              "type": "bool"
            },
            {
              "internalType": "bool",
              "name": "isSelectableByUser",
              "type": "bool"
            },
            {
              "internalType": "uint256",
              "name": "userId",
              "type": "uint256"
            },
            {
              "internalType": "bytes",
              "name": "extraData",
              "type": "bytes"
            }
          ],
          "internalType": "struct Auth",
          "name": "",
          "type": "tuple"
        }
      ],
      "stateMutability": "pure",
      "type": "function"
    },
    {
      "inputs": [
        {
          "internalType": "enum AuthType",
          "name": "authType",
          "type": "AuthType"
        },
        {
          "internalType": "uint256",
          "name": "userId",
          "type": "uint256"
        },
        {
          "internalType": "bytes",
          "name": "extraData",
          "type": "bytes"
        }
      ],
      "name": "build",
      "outputs": [
        {
          "components": [
            {
              "internalType": "enum AuthType",
              "name": "authType",
              "type": "AuthType"
            },
            {
              "internalType": "bool",
              "name": "isAnon",
              "type": "bool"
            },
            {
              "internalType": "bool",
              "name": "isSelectableByUser",
              "type": "bool"
            },
            {
              "internalType": "uint256",
              "name": "userId",
              "type": "uint256"
            },
            {
              "internalType": "bytes",
              "name": "extraData",
              "type": "bytes"
            }
          ],
          "internalType": "struct Auth",
          "name": "",
          "type": "tuple"
        }
      ],
      "stateMutability": "pure",
      "type": "function"
    },
    {
      "inputs": [
        {
          "internalType": "enum AuthType",
          "name": "authType",
          "type": "AuthType"
        },
        {
          "internalType": "bool",
          "name": "isAnon",
          "type": "bool"
        },
        {
          "internalType": "uint256",
          "name": "userId",
          "type": "uint256"
        }
      ],
      "name": "build",
      "outputs": [
        {
          "components": [
            {
              "internalType": "enum AuthType",
              "name": "authType",
              "type": "AuthType"
            },
            {
              "internalType": "bool",
              "name": "isAnon",
              "type": "bool"
            },
            {
              "internalType": "bool",
              "name": "isSelectableByUser",
              "type": "bool"
            },
            {
              "internalType": "uint256",
              "name": "userId",
              "type": "uint256"
            },
            {
              "internalType": "bytes",
              "name": "extraData",
              "type": "bytes"
            }
          ],
          "internalType": "struct Auth",
          "name": "",
          "type": "tuple"
        }
      ],
      "stateMutability": "pure",
      "type": "function"
    },
    {
      "inputs": [
        {
          "internalType": "enum AuthType",
          "name": "authType",
          "type": "AuthType"
        },
        {
          "internalType": "bool",
          "name": "isAnon",
          "type": "bool"
        },
        {
          "internalType": "uint256",
          "name": "userId",
          "type": "uint256"
        },
        {
          "internalType": "bytes",
          "name": "extraData",
          "type": "bytes"
        }
      ],
      "name": "build",
      "outputs": [
        {
          "components": [
            {
              "internalType": "enum AuthType",
              "name": "authType",
              "type": "AuthType"
            },
            {
              "internalType": "bool",
              "name": "isAnon",
              "type": "bool"
            },
            {
              "internalType": "bool",
              "name": "isSelectableByUser",
              "type": "bool"
            },
            {
              "internalType": "uint256",
              "name": "userId",
              "type": "uint256"
            },
            {
              "internalType": "bytes",
              "name": "extraData",
              "type": "bytes"
            }
          ],
          "internalType": "struct Auth",
          "name": "",
          "type": "tuple"
        }
      ],
      "stateMutability": "pure",
      "type": "function"
    },
    {
      "inputs": [
        {
          "internalType": "enum AuthType",
          "name": "authType",
          "type": "AuthType"
        },
        {
          "internalType": "uint256",
          "name": "userId",
          "type": "uint256"
        }
      ],
      "name": "build",
      "outputs": [
        {
          "components": [
            {
              "internalType": "enum AuthType",
              "name": "authType",
              "type": "AuthType"
            },
            {
              "internalType": "bool",
              "name": "isAnon",
              "type": "bool"
            },
            {
              "internalType": "bool",
              "name": "isSelectableByUser",
              "type": "bool"
            },
            {
              "internalType": "uint256",
              "name": "userId",
              "type": "uint256"
            },
            {
              "internalType": "bytes",
              "name": "extraData",
              "type": "bytes"
            }
          ],
          "internalType": "struct Auth",
          "name": "",
          "type": "tuple"
        }
      ],
      "stateMutability": "pure",
      "type": "function"
    }
  ],
  "bytecode": "0x6080806040523461001a5761075f9081610020823930815050f35b600080fdfe6040608081526004908136101561001557600080fd5b600091823560e01c8063096dad7f146104bc57806318e63ec8146102565780631ac899db1461046b5780632ace1333146103eb5780634cde4f38146103855780634ef11c5b1461035657806350edf82b146102df57806358799a6a146102565780636a1c3381146102835780637450a2331461026c5780637c8979a61461025657806380925472146101fc5780638b40ef78146101b9578063b9103cbc146101315763d2eabeef146100c657600080fd5b8160031936011261012d573590600682101561012d57610129926100e86106f2565b506100f1610651565b90808252610107610100610602565b948561071d565b6020840152600182840152602435606084015260808301525191829182610581565b0390f35b8280fd5b50919060806003193601126101b55782359160068310156101b257610154610500565b906064359067ffffffffffffffff82116101b257506101299461017991369101610671565b906101826106f2565b5061018e610100610602565b15156020840152600182840152604435606084015260808301525191829182610581565b80fd5b5080fd5b50606060031936011261012d573590600682101561012d57610129926101dd610500565b6101e56106f2565b506101ee610651565b91825261018e610100610602565b5090606060031936011261012d5781359160068310156102525760443567ffffffffffffffff811161024e57610129949161023991369101610671565b906102426106f2565b50610107610100610602565b8480fd5b8380fd5b5050816003193601126101b55751908152602090f35b5050816003193601126101b5576020905160018152f35b50602060031936011261012d573590600682101561012d57610129926102a76106f2565b506102b0610651565b908082526102bf610100610602565b806020850152600183850152606084015260808301525191829182610581565b50608060031936011261012d573590600682101561012d5761012992610303610500565b61030b610514565b906103146106f2565b5061031d610651565b92835261033261032b610602565b958661071d565b15156020850152151582840152604435606084015260808301525191829182610581565b5050816003193601126101b5579061012991610370610651565b91825251918291602083526020830190610523565b50919060a06003193601126101b55782359160068310156101b2576103a8610500565b906103b1610514565b906084359067ffffffffffffffff82116101b25750610129956103d691369101610671565b916103df6106f2565b5061033261032b610602565b5090606060031936011261012d5781359160068310156102525761040d610500565b9060443567ffffffffffffffff811161046757610129959161043191369101610671565b9161043a6106f2565b5061044661032b610602565b15156020850152600183850152606084015260808301525191829182610581565b8580fd5b50908060031936011261012d5781359160068310156102525760243567ffffffffffffffff811161024e5761012994916104a791369101610671565b906104b06106f2565b506102bf610100610602565b508160031936011261012d573590600682101561012d57610129926104df610500565b906104e86106f2565b506104f1610651565b9181835261044661032b610602565b60243590811515820361050f57565b600080fd5b60643590811515820361050f57565b919082519283825260005b84811061056d5750507fffffffffffffffffffffffffffffffffffffffffffffffffffffffffffffffe0601f8460006020809697860101520116010190565b60208183018101518483018201520161052e565b6020815281519160068310156105d357608060c0916105d094602085015260208101511515604085015260408101511515606085015260608101518285015201519160a0808201520190610523565b90565b7f4e487b7100000000000000000000000000000000000000000000000000000000600052602160045260246000fd5b6040519060a0820182811067ffffffffffffffff82111761062257604052565b7f4e487b7100000000000000000000000000000000000000000000000000000000600052604160045260246000fd5b604051906020820182811067ffffffffffffffff82111761062257604052565b81601f8201121561050f5780359067ffffffffffffffff9283831161062257604051937fffffffffffffffffffffffffffffffffffffffffffffffffffffffffffffffe0603f81601f870116011685019085821090821117610622576040528284526020838301011161050f57816000926020809301838601378301015290565b6106fa610602565b906000825260006020830152600060408301526000606083015260606080830152565b60068210156105d3575256fea264697066735822122086ce5ccacd4387d031f0778786c3052ba6054c2e514e30ef9ad1ba857ba4f44d64736f6c63430008130033",
  "linkReferences": {},
  "deployedLinkReferences": {}
}