{
  "_format": "hh-sol-artifact-1",
  "contractName": "MecenateForwarder",
  "sourceName": "contracts/MecenateForwarder.sol",
  "abi": [
    {
      "inputs": [
        {
          "internalType": "bytes32",
          "name": "_encryptedVaultId",
          "type": "bytes32"
        }
      ],
      "stateMutability": "nonpayable",
      "type": "constructor"
    },
    {
      "inputs": [
        {
          "internalType": "address",
          "name": "token",
          "type": "address"
        },
        {
          "internalType": "uint256",
          "name": "amount",
          "type": "uint256"
        }
      ],
      "name": "depositToken",
      "outputs": [],
      "stateMutability": "nonpayable",
      "type": "function"
    },
    {
      "inputs": [],
      "name": "factory",
      "outputs": [
        {
          "internalType": "address",
          "name": "",
          "type": "address"
        }
      ],
      "stateMutability": "view",
      "type": "function"
    },
    {
      "stateMutability": "payable",
      "type": "receive"
    }
  ],
  "bytecode": "0x60803461006357601f61060e38819003918201601f19168301916001600160401b03831184841017610068578084926020946040528339810103126100635751600055600180546001600160a01b0319163317905560405161058f908161007f8239f35b600080fd5b634e487b7160e01b600052604160045260246000fdfe60806040908082526004908136101561012e575b50361561001f57600080fd5b8073ffffffffffffffffffffffffffffffffffffffff92602084600154168251938480927f8d928af80000000000000000000000000000000000000000000000000000000082525afa918215610123576000926100f3575b506000549281519160208301948552602083528083019183831067ffffffffffffffff8411176100c5576100c36000808989898989895251923491165af16100bd610496565b506104f4565b005b6041907f4e487b71000000000000000000000000000000000000000000000000000000006000525260246000fd5b61011591925060203d811161011c575b61010d81836103f5565b810190610465565b9038610077565b503d610103565b50513d6000823e3d90fd5b600090813560e01c908163338b5dea146101a3575063c45a01550361001357823461019f57817ffffffffffffffffffffffffffffffffffffffffffffffffffffffffffffffffc36011261019f5760209073ffffffffffffffffffffffffffffffffffffffff600154169051908152f35b5080fd5b929390503461019f57807ffffffffffffffffffffffffffffffffffffffffffffffffffffffffffffffffc36011261019f5773ffffffffffffffffffffffffffffffffffffffff843581811692908381036103f157859660249695969182359085600154167f8d928af8000000000000000000000000000000000000000000000000000000008952888460209c8d935afa9788156103e75789986103c8575b508451958a8701907f095ea7b300000000000000000000000000000000000000000000000000000000825289168588015282604488015260448752608087019667ffffffffffffffff978181108982111761039d578752518a928392905af46102a9610496565b5015610342578754908451998a01967f84abac95000000000000000000000000000000000000000000000000000000008852848b015260448a015260648901526064885260a0880193888510908511176103185786610315818089898d8a8a5251915af46100bd610496565b80f35b604187917f4e487b7100000000000000000000000000000000000000000000000000000000835252fd5b50600e606492898551937f08c379a00000000000000000000000000000000000000000000000000000000085528401528201527f417070726f7665206661696c65640000000000000000000000000000000000006044820152fd5b868c6041887f4e487b7100000000000000000000000000000000000000000000000000000000835252fd5b6103e09198508a3d8c1161011c5761010d81836103f5565b9638610242565b85513d8b823e3d90fd5b8480fd5b90601f7fffffffffffffffffffffffffffffffffffffffffffffffffffffffffffffffe0910116810190811067ffffffffffffffff82111761043657604052565b7f4e487b7100000000000000000000000000000000000000000000000000000000600052604160045260246000fd5b90816020910312610491575173ffffffffffffffffffffffffffffffffffffffff811681036104915790565b600080fd5b3d156104ef573d9067ffffffffffffffff821161043657604051916104e360207fffffffffffffffffffffffffffffffffffffffffffffffffffffffffffffffe0601f84011601846103f5565b82523d6000602084013e565b606090565b156104fb57565b60646040517f08c379a000000000000000000000000000000000000000000000000000000000815260206004820152600e60248201527f4465706f736974206661696c65640000000000000000000000000000000000006044820152fdfea26469706673582212206a68e1c797f265d5f310f757536fa2e9a5237c8e60b8028d582d2427c2c17c5b64736f6c63430008130033",
  "linkReferences": {},
  "deployedLinkReferences": {}
}