{
  "_format": "hh-sol-artifact-1",
  "contractName": "MecenateForwarder",
  "sourceName": "contracts/MecenateForwarder.sol",
  "abi": [
    {
      "inputs": [
        {
          "internalType": "bytes32",
          "name": "_encryptedVaultId",
          "type": "bytes32"
        },
        {
          "internalType": "address",
          "name": "_factory",
          "type": "address"
        }
      ],
      "stateMutability": "nonpayable",
      "type": "constructor"
    },
    {
      "inputs": [
        {
          "internalType": "address",
          "name": "token",
          "type": "address"
        },
        {
          "internalType": "uint256",
          "name": "amount",
          "type": "uint256"
        }
      ],
      "name": "depositToken",
      "outputs": [],
      "stateMutability": "nonpayable",
      "type": "function"
    },
    {
      "inputs": [],
      "name": "encryptedVaultId",
      "outputs": [
        {
          "internalType": "bytes32",
          "name": "",
          "type": "bytes32"
        }
      ],
      "stateMutability": "view",
      "type": "function"
    },
    {
      "inputs": [],
      "name": "factory",
      "outputs": [
        {
          "internalType": "address",
          "name": "",
          "type": "address"
        }
      ],
      "stateMutability": "view",
      "type": "function"
    },
    {
      "stateMutability": "payable",
      "type": "receive"
    }
  ],
  "bytecode": "0x60803461007e57601f6104b038819003918201601f19168301916001600160401b0383118484101761008357808492604094855283398101031261007e5780516020909101516001600160a01b038116919082900361007e57600055600180546001600160a01b031916919091179055604051610416908161009a8239f35b600080fd5b634e487b7160e01b600052604160045260246000fdfe60806040908082526004908136101561016d575b50361561001f57600080fd5b60015482516311b2515f60e31b81526020916001600160a01b0390839083908690829085165afa91821561016257600092610133575b5060005485519284840191636b46cea760e11b8352602485015260248452606084019367ffffffffffffffff948181108682111761011e57885251600093849391923491165af1903d15610118573d908111610103578451906100c1601f8201601f1916850183610384565b81526000833d92013e5b156100d257005b606492519162461bcd60e51b8352820152600e60248201526d11195c1bdcda5d0819985a5b195960921b6044820152fd5b604184634e487b7160e01b6000525260246000fd5b506100cb565b604188634e487b7160e01b6000525260246000fd5b610154919250833d851161015b575b61014c8183610384565b8101906103bc565b9038610055565b503d610142565b85513d6000823e3d90fd5b600090813560e01c9081631a58a6a61461036a57508063338b5dea146101c35763c45a0155036100135782346101bf57816003193601126101bf5760015490516001600160a01b039091168152602090f35b5080fd5b50913461036657806003193601126103665781356001600160a01b0381811693918490036103625760243590806001541684519182916311b2515f60e31b8352828660209485935afa928315610339578893610343575b5085519263095ea7b360e01b84521691828582015283602482015281816044818b8b5af19081156103395788916102ff575b50156102cc5750908591825495813b156102c85783606492875198899586946384abac9560e01b865289860152602485015260448401525af180156102be57610293578380f35b67ffffffffffffffff83116102ab5750523880808380f35b634e487b7160e01b845260419052602483fd5b82513d86823e3d90fd5b8380fd5b8360649186519162461bcd60e51b8352820152600e60248201526d105c1c1c9bdd994819985a5b195960921b6044820152fd5b90508181813d8311610332575b6103168183610384565b8101031261032e5751801515810361032e573861024c565b8780fd5b503d61030c565b86513d8a823e3d90fd5b61035b919350823d841161015b5761014c8183610384565b913861021a565b8480fd5b8280fd5b9050346101bf57816003193601126101bf57602091548152f35b90601f8019910116810190811067ffffffffffffffff8211176103a657604052565b634e487b7160e01b600052604160045260246000fd5b908160209103126103db57516001600160a01b03811681036103db5790565b600080fdfea26469706673582212208a6423907ad8c0858649fc881974c80991ac02f6db7c1d4ef6b10378d38764c864736f6c63430008130033",
  "linkReferences": {},
  "deployedLinkReferences": {}
}