{
  "_format": "hh-sol-artifact-1",
  "contractName": "Data",
  "sourceName": "contracts/modules/Data.sol",
  "abi": [
    {
      "inputs": [
        {
          "internalType": "address",
          "name": "_usersModuleContract",
          "type": "address"
        },
        {
          "internalType": "address",
          "name": "_verifierContract",
          "type": "address"
        },
        {
          "internalType": "address",
          "name": "_factoryContract",
          "type": "address"
        },
        {
          "internalType": "string",
          "name": "_version",
          "type": "string"
        }
      ],
      "stateMutability": "nonpayable",
      "type": "constructor"
    },
    {
      "inputs": [],
      "name": "getPaymentRequested",
      "outputs": [
        {
          "internalType": "uint256",
          "name": "",
          "type": "uint256"
        }
      ],
      "stateMutability": "view",
      "type": "function"
    },
    {
      "inputs": [],
      "name": "getStakeRequested",
      "outputs": [
        {
          "internalType": "uint256",
          "name": "",
          "type": "uint256"
        }
      ],
      "stateMutability": "view",
      "type": "function"
    },
    {
      "inputs": [],
      "name": "getStatus",
      "outputs": [
        {
          "internalType": "enum Structures.PostStatus",
          "name": "",
          "type": "uint8"
        }
      ],
      "stateMutability": "view",
      "type": "function"
    },
    {
      "inputs": [],
      "name": "getTokenId",
      "outputs": [
        {
          "internalType": "enum Structures.Tokens",
          "name": "",
          "type": "uint8"
        }
      ],
      "stateMutability": "view",
      "type": "function"
    },
    {
      "inputs": [],
      "name": "getTokenIdAddress",
      "outputs": [
        {
          "internalType": "address",
          "name": "",
          "type": "address"
        }
      ],
      "stateMutability": "view",
      "type": "function"
    },
    {
      "inputs": [],
      "name": "owner",
      "outputs": [
        {
          "internalType": "bytes32",
          "name": "",
          "type": "bytes32"
        }
      ],
      "stateMutability": "view",
      "type": "function"
    },
    {
      "inputs": [],
      "name": "post",
      "outputs": [
        {
          "components": [
            {
              "internalType": "bytes32",
              "name": "vaultId",
              "type": "bytes32"
            }
          ],
          "internalType": "struct Structures.User",
          "name": "creator",
          "type": "tuple"
        },
        {
          "components": [
            {
              "components": [
                {
                  "internalType": "enum Structures.PostStatus",
                  "name": "status",
                  "type": "uint8"
                },
                {
                  "internalType": "enum Structures.PostType",
                  "name": "postType",
                  "type": "uint8"
                },
                {
                  "internalType": "uint256",
                  "name": "creationTimeStamp",
                  "type": "uint256"
                },
                {
                  "internalType": "uint256",
                  "name": "endTimeStamp",
                  "type": "uint256"
                },
                {
                  "internalType": "uint256",
                  "name": "duration",
                  "type": "uint256"
                },
                {
                  "internalType": "enum Structures.Tokens",
                  "name": "tokenId",
                  "type": "uint8"
                }
              ],
              "internalType": "struct Structures.PostSettings",
              "name": "settings",
              "type": "tuple"
            },
            {
              "components": [
                {
                  "internalType": "uint256",
                  "name": "stake",
                  "type": "uint256"
                },
                {
                  "internalType": "uint256",
                  "name": "payment",
                  "type": "uint256"
                },
                {
                  "internalType": "uint256",
                  "name": "punishment",
                  "type": "uint256"
                },
                {
                  "internalType": "uint256",
                  "name": "penalty",
                  "type": "uint256"
                }
              ],
              "internalType": "struct Structures.PostEscrow",
              "name": "escrow",
              "type": "tuple"
            },
            {
              "components": [
                {
                  "internalType": "bytes",
                  "name": "encryptedData",
                  "type": "bytes"
                },
                {
                  "internalType": "bytes",
                  "name": "encryptedKey",
                  "type": "bytes"
                },
                {
                  "internalType": "bytes",
                  "name": "decryptedData",
                  "type": "bytes"
                }
              ],
              "internalType": "struct Structures.PostEncryptedData",
              "name": "data",
              "type": "tuple"
            }
          ],
          "internalType": "struct Structures.PostData",
          "name": "postdata",
          "type": "tuple"
        }
      ],
      "stateMutability": "view",
      "type": "function"
    },
    {
      "inputs": [],
      "name": "postCount",
      "outputs": [
        {
          "internalType": "uint256",
          "name": "",
          "type": "uint256"
        }
      ],
      "stateMutability": "view",
      "type": "function"
    },
    {
      "inputs": [],
      "name": "version",
      "outputs": [
        {
          "internalType": "string",
          "name": "",
          "type": "string"
        }
      ],
      "stateMutability": "view",
      "type": "function"
    },
    {
      "stateMutability": "payable",
      "type": "receive"
    }
  ],
  "bytecode": "0x608060409080825234620006565762001021803803809162000022828562000671565b833981019060808183031262000656576200003d8162000695565b6020906200004d82840162000695565b906200005b86850162000695565b60608501516001600160401b039591949186821162000656570191601f93878585011215620006565783518781116200065b57895194601f1999620000a7868c8a860116018862000671565b8287528583830101116200065657849060005b838110620006415750506000918601015267016345785d8a0000601455600060155560018060a01b03958680928160018060a01b031995168560165416176016551683601854161760185533836017541617601755838a5180926303e21fa960e61b82528160049a8b92165afa9081156200063657600091620005f6575b501690601a541617601a556200014d620006aa565b8051908682116200048d57819062000167601b54620006db565b868111620005c3575b50839086831160011462000558576000926200054c575b50508160011b916000199060031b1c191617601b555b620001a7620006aa565b8051908682116200048d578190620001c1601c54620006db565b86811162000519575b508390868311600114620004ae57600092620004a2575b50508160011b916000199060031b1c191617601c555b62000201620006aa565b8051908682116200048d5781906200021b601d54620006db565b8681116200045a575b508390868311600114620003ef57600092620003e3575b50508160011b916000199060031b1c191617601d555b60ff1993846002541660025560008052838252620151808860002055600194856000526203f4808960002055600260005262093a80896000205560036000526212750089600020558160005262278d008960002055600080528280528589600020918254161790558251958611620003ce5750620002d1601e54620006db565b83811162000390575b50809285116001146200032557508394509083929160009462000319575b50501b916000199060031b1c191617601e555b516108ef9081620007328239f35b015192503880620002f8565b929484908116601e60005284600020946000905b888383106200037557505050106200035b575b505050811b01601e556200030b565b015160001960f88460031b161c191690553880806200034c565b85870151885590960195948501948793509081019062000339565b620003bd90601e600052826000208580890160051c820192858a10620003c4575b0160051c019062000718565b38620002da565b92508192620003b1565b604190634e487b7160e01b6000525260246000fd5b0151905038806200023b565b91891691601d600052846000209260005b868282106200044357505090846001959493921062000429575b505050811b01601d5562000251565b015160001960f88460031b161c191690553880806200041a565b600185968293968601518155019501930162000400565b6200048690601d600052856000208880860160051c820192888710620003c4570160051c019062000718565b3862000224565b604186634e487b7160e01b6000525260246000fd5b015190503880620001e1565b91891691601c600052846000209260005b8682821062000502575050908460019594939210620004e8575b505050811b01601c55620001f7565b015160001960f88460031b161c19169055388080620004d9565b6001859682939686015181550195019301620004bf565b6200054590601c600052856000208880860160051c820192888710620003c4570160051c019062000718565b38620001ca565b01519050388062000187565b91891691601b600052846000209260005b86828210620005ac57505090846001959493921062000592575b505050811b01601b556200019d565b015160001960f88460031b161c1916905538808062000583565b600185968293968601518155019501930162000569565b620005ef90601b600052856000208880860160051c820192888710620003c4570160051c019062000718565b3862000170565b908482813d83116200062e575b6200060f818362000671565b810103126200062b5750620006249062000695565b3862000138565b80fd5b503d62000603565b8a513d6000823e3d90fd5b818101830151888201840152869201620000ba565b600080fd5b634e487b7160e01b600052604160045260246000fd5b601f909101601f19168101906001600160401b038211908210176200065b57604052565b51906001600160a01b03821682036200065657565b60408051919082016001600160401b038111838210176200065b5760405260048252630307830360e41b6020830152565b90600182811c921680156200070d575b6020831014620006f757565b634e487b7160e01b600052602260045260246000fd5b91607f1691620006eb565b81811062000724575050565b600081556001016200071856fe6080604081815260049182361015610022575b505050361561002057600080fd5b005b600092833560e01c918263010a38f5146106ac5750816305c1f5021461024b5750806317906c2e1461022d5780634e69d5601461020557806354fd4d501461011d5780635ad4e170146100f05780638da5cb5b146100d4578063d24e0c87146100b65763faeb5e17146100955780610012565b346100b257816003193601126100b2576020906007549051908152f35b5080fd5b50346100b257816003193601126100b2576020906008549051908152f35b50346100b257816003193601126100b257602091549051908152f35b50346100b257816003193601126100b25760209061010c6107ee565b90516001600160a01b039091168152f35b50346100b257816003193601126100b25780519082601e5461013e81610743565b808552916001918083169081156101dd5750600114610180575b50505061016a8261017c940383610721565b5191829160208352602083019061078a565b0390f35b9450601e85527f50bb669a95c7b50b7e8a6f09454034b2b14cf2b85c730dca9a539ca82cb6e3505b8286106101c55750505061016a82602061017c9582010194610158565b805460208787018101919091529095019481016101a8565b61017c97508693506020925061016a94915060ff191682840152151560051b82010194610158565b50346100b257816003193601126100b25760209061022b60ff600254169151809261077d565bf35b50346100b257816003193601126100b2576020906015549051908152f35b8284346106a957806003193601126106a9578151916020908184019267ffffffffffffffff938581108582111761069657825260019384548652825191610291836106ef565b83519260c084018481108482111761068357855260025460ff811660088110156106705785526005919060081c60ff1682811015610670578786015260035486860152895494606095868201528254608082015260ff60065416600381101561065d5760a08201528152855193608085019081118582101761064a57865260075484526008548785015260095486850152600a548585015286810193845285519761033b896106ef565b8651600b54818661034b83610743565b928383528c868216918260001461062e5750506001146105d3575b61037292500382610721565b89528651600c54818661038483610743565b928383528c86821691826000146105b757505060011461055c575b6103ab92500382610721565b888a01528651908185600d54926103c184610743565b938484528c828216918260001461053d5750506001146104e3575b506103e992500382610721565b8689015285810197885285519851895285878a0152519161040d868a01845161077d565b86830151918210156104d0575083808998969461045f60a06104bd966104a39661017c9c9a8e01528c60808a8301519101528c82868301519101528c60c06080830151910152015160e08c01906106cc565b5180516101008b0152868101516101208b0152858101516101408b015201519561016096878a015251956101808901528551906101a089015261020088019061078a565b928401519261019f199384888303016101c089015261078a565b92015190848303016101e085015261078a565b634e487b7160e01b815260218a52602490fd5b600d88528b915087907fd7b6990105719101dabeb77144f2a3385c8033acd3af97e9423a695e81ad1eb55b8583106105255750506103e993508201018e6103dc565b80548388018501528694508d9390920191810161050e565b915092506103e994915060ff1916828401521515861b8201018e6103dc565b5050600c8652818a87857fdf6966c971051c3d54ec59162606531493a51404a002842f56009d7e5cf4a8c75b85831061059e5750506103ab935082010161039f565b8091929450548385880101520191018b90858593610588565b60ff1916848201526103ab941515891b840101915061039f9050565b5050600b8652818a87857f0175b7a638427703f0dbe7bb9bbf987a2551717b34e79f33b5b1008d1fa01db95b8583106106155750506103729350820101610366565b8091929450548385880101520191018b908585936105ff565b60ff191684820152610372941515891b84010191506103669050565b634e487b7160e01b845260418b52602484fd5b634e487b7160e01b855260218c52602485fd5b634e487b7160e01b845260218b52602484fd5b634e487b7160e01b835260418a52602483fd5b634e487b7160e01b825260418752602482fd5b80fd5b8490346100b257816003193601126100b2578061022b60209260ff600654165b9060038210156106d95752565b634e487b7160e01b600052602160045260246000fd5b6060810190811067ffffffffffffffff82111761070b57604052565b634e487b7160e01b600052604160045260246000fd5b90601f8019910116810190811067ffffffffffffffff82111761070b57604052565b90600182811c92168015610773575b602083101461075d57565b634e487b7160e01b600052602260045260246000fd5b91607f1691610752565b9060088210156106d95752565b919082519283825260005b8481106107b6575050826000602080949584010152601f8019910116010190565b602081830181015184830182015201610795565b908160209103126107e957516001600160a01b03811681036107e95790565b600080fd5b60ff6006541660038110156106d95760018103610875575060175460405163f77800e560e01b815290602090829060049082906001600160a01b03165afa9081156108695760009161083e575090565b61085f915060203d8111610862575b6108578183610721565b8101906107ca565b90565b503d61084d565b6040513d6000823e3d90fd5b6002036108b457601754604051635f117aa360e11b815290602090829060049082906001600160a01b03165afa9081156108695760009161083e575090565b60009056fea2646970667358221220a87d1ef246c1e3e17fc11c40cc870b92c1c183864b7f6d138144d181aae8e74a64736f6c63430008130033",
  "linkReferences": {},
  "deployedLinkReferences": {}
}