{
  "_format": "hh-sol-artifact-1",
  "contractName": "Data",
  "sourceName": "contracts/modules/Data.sol",
  "abi": [
    {
      "inputs": [
        {
          "internalType": "address",
          "name": "usersModuleContract",
          "type": "address"
        },
        {
          "internalType": "address",
          "name": "factoryContract",
          "type": "address"
        },
        {
          "internalType": "uint256",
          "name": "_major",
          "type": "uint256"
        },
        {
          "internalType": "uint256",
          "name": "_minor",
          "type": "uint256"
        },
        {
          "internalType": "uint256",
          "name": "_patch",
          "type": "uint256"
        }
      ],
      "stateMutability": "nonpayable",
      "type": "constructor"
    },
    {
      "inputs": [
        {
          "internalType": "bytes32",
          "name": "postId",
          "type": "bytes32"
        }
      ],
      "name": "containPostId",
      "outputs": [
        {
          "internalType": "bool",
          "name": "",
          "type": "bool"
        }
      ],
      "stateMutability": "view",
      "type": "function"
    },
    {
      "inputs": [],
      "name": "getAllPostIds",
      "outputs": [
        {
          "internalType": "bytes32[]",
          "name": "",
          "type": "bytes32[]"
        }
      ],
      "stateMutability": "view",
      "type": "function"
    },
    {
      "inputs": [],
      "name": "getEncryptedPost",
      "outputs": [
        {
          "internalType": "bytes",
          "name": "",
          "type": "bytes"
        }
      ],
      "stateMutability": "view",
      "type": "function"
    },
    {
      "inputs": [],
      "name": "getPaymentRequested",
      "outputs": [
        {
          "internalType": "uint256",
          "name": "",
          "type": "uint256"
        }
      ],
      "stateMutability": "view",
      "type": "function"
    },
    {
      "inputs": [],
      "name": "getPost",
      "outputs": [
        {
          "components": [
            {
              "components": [
                {
                  "internalType": "address",
                  "name": "evmAddress",
                  "type": "address"
                },
                {
                  "internalType": "bytes",
                  "name": "sismoVaultId",
                  "type": "bytes"
                },
                {
                  "internalType": "bytes",
                  "name": "publicKey",
                  "type": "bytes"
                }
              ],
              "internalType": "struct Structures.User",
              "name": "creator",
              "type": "tuple"
            },
            {
              "components": [
                {
                  "components": [
                    {
                      "internalType": "enum Structures.PostStatus",
                      "name": "status",
                      "type": "uint8"
                    },
                    {
                      "internalType": "enum Structures.PostType",
                      "name": "postType",
                      "type": "uint8"
                    },
                    {
                      "internalType": "uint256",
                      "name": "creationTimeStamp",
                      "type": "uint256"
                    },
                    {
                      "internalType": "uint256",
                      "name": "endTimeStamp",
                      "type": "uint256"
                    },
                    {
                      "internalType": "uint256",
                      "name": "duration",
                      "type": "uint256"
                    },
                    {
                      "internalType": "enum Structures.Tokens",
                      "name": "tokenId",
                      "type": "uint8"
                    },
                    {
                      "internalType": "bytes32",
                      "name": "postId",
                      "type": "bytes32"
                    }
                  ],
                  "internalType": "struct Structures.PostSettings",
                  "name": "settings",
                  "type": "tuple"
                },
                {
                  "components": [
                    {
                      "internalType": "address",
                      "name": "buyer",
                      "type": "address"
                    },
                    {
                      "internalType": "address",
                      "name": "seller",
                      "type": "address"
                    },
                    {
                      "internalType": "uint256",
                      "name": "stake",
                      "type": "uint256"
                    },
                    {
                      "internalType": "uint256",
                      "name": "payment",
                      "type": "uint256"
                    },
                    {
                      "internalType": "uint256",
                      "name": "punishment",
                      "type": "uint256"
                    },
                    {
                      "internalType": "uint256",
                      "name": "penalty",
                      "type": "uint256"
                    }
                  ],
                  "internalType": "struct Structures.PostEscrow",
                  "name": "escrow",
                  "type": "tuple"
                },
                {
                  "components": [
                    {
                      "internalType": "bytes",
                      "name": "encryptedData",
                      "type": "bytes"
                    },
                    {
                      "internalType": "bytes",
                      "name": "encryptedKey",
                      "type": "bytes"
                    },
                    {
                      "internalType": "bytes",
                      "name": "decryptedData",
                      "type": "bytes"
                    }
                  ],
                  "internalType": "struct Structures.PostEncryptedData",
                  "name": "data",
                  "type": "tuple"
                }
              ],
              "internalType": "struct Structures.PostData",
              "name": "postdata",
              "type": "tuple"
            }
          ],
          "internalType": "struct Structures.Post",
          "name": "",
          "type": "tuple"
        }
      ],
      "stateMutability": "view",
      "type": "function"
    },
    {
      "inputs": [],
      "name": "getPostId",
      "outputs": [
        {
          "internalType": "bytes32",
          "name": "",
          "type": "bytes32"
        }
      ],
      "stateMutability": "view",
      "type": "function"
    },
    {
      "inputs": [
        {
          "internalType": "bytes32",
          "name": "postId",
          "type": "bytes32"
        }
      ],
      "name": "getPostTimestamp",
      "outputs": [
        {
          "components": [
            {
              "internalType": "enum Structures.PostResult",
              "name": "postResult",
              "type": "uint8"
            },
            {
              "internalType": "uint256",
              "name": "creationTimeStamp",
              "type": "uint256"
            },
            {
              "internalType": "uint256",
              "name": "endTimeStamp",
              "type": "uint256"
            }
          ],
          "internalType": "struct Structures.PostTimestamp",
          "name": "",
          "type": "tuple"
        }
      ],
      "stateMutability": "view",
      "type": "function"
    },
    {
      "inputs": [],
      "name": "getStakeRequested",
      "outputs": [
        {
          "internalType": "uint256",
          "name": "",
          "type": "uint256"
        }
      ],
      "stateMutability": "view",
      "type": "function"
    },
    {
      "inputs": [],
      "name": "getStatus",
      "outputs": [
        {
          "internalType": "enum Structures.PostStatus",
          "name": "",
          "type": "uint8"
        }
      ],
      "stateMutability": "view",
      "type": "function"
    },
    {
      "inputs": [],
      "name": "getTokenId",
      "outputs": [
        {
          "internalType": "enum Structures.Tokens",
          "name": "",
          "type": "uint8"
        }
      ],
      "stateMutability": "view",
      "type": "function"
    },
    {
      "inputs": [],
      "name": "getTokenIdAddress",
      "outputs": [
        {
          "internalType": "address",
          "name": "",
          "type": "address"
        }
      ],
      "stateMutability": "view",
      "type": "function"
    },
    {
      "inputs": [],
      "name": "locked",
      "outputs": [
        {
          "internalType": "bool",
          "name": "",
          "type": "bool"
        }
      ],
      "stateMutability": "view",
      "type": "function"
    },
    {
      "inputs": [],
      "name": "owner",
      "outputs": [
        {
          "internalType": "address",
          "name": "",
          "type": "address"
        }
      ],
      "stateMutability": "view",
      "type": "function"
    },
    {
      "inputs": [],
      "name": "post",
      "outputs": [
        {
          "components": [
            {
              "internalType": "address",
              "name": "evmAddress",
              "type": "address"
            },
            {
              "internalType": "bytes",
              "name": "sismoVaultId",
              "type": "bytes"
            },
            {
              "internalType": "bytes",
              "name": "publicKey",
              "type": "bytes"
            }
          ],
          "internalType": "struct Structures.User",
          "name": "creator",
          "type": "tuple"
        },
        {
          "components": [
            {
              "components": [
                {
                  "internalType": "enum Structures.PostStatus",
                  "name": "status",
                  "type": "uint8"
                },
                {
                  "internalType": "enum Structures.PostType",
                  "name": "postType",
                  "type": "uint8"
                },
                {
                  "internalType": "uint256",
                  "name": "creationTimeStamp",
                  "type": "uint256"
                },
                {
                  "internalType": "uint256",
                  "name": "endTimeStamp",
                  "type": "uint256"
                },
                {
                  "internalType": "uint256",
                  "name": "duration",
                  "type": "uint256"
                },
                {
                  "internalType": "enum Structures.Tokens",
                  "name": "tokenId",
                  "type": "uint8"
                },
                {
                  "internalType": "bytes32",
                  "name": "postId",
                  "type": "bytes32"
                }
              ],
              "internalType": "struct Structures.PostSettings",
              "name": "settings",
              "type": "tuple"
            },
            {
              "components": [
                {
                  "internalType": "address",
                  "name": "buyer",
                  "type": "address"
                },
                {
                  "internalType": "address",
                  "name": "seller",
                  "type": "address"
                },
                {
                  "internalType": "uint256",
                  "name": "stake",
                  "type": "uint256"
                },
                {
                  "internalType": "uint256",
                  "name": "payment",
                  "type": "uint256"
                },
                {
                  "internalType": "uint256",
                  "name": "punishment",
                  "type": "uint256"
                },
                {
                  "internalType": "uint256",
                  "name": "penalty",
                  "type": "uint256"
                }
              ],
              "internalType": "struct Structures.PostEscrow",
              "name": "escrow",
              "type": "tuple"
            },
            {
              "components": [
                {
                  "internalType": "bytes",
                  "name": "encryptedData",
                  "type": "bytes"
                },
                {
                  "internalType": "bytes",
                  "name": "encryptedKey",
                  "type": "bytes"
                },
                {
                  "internalType": "bytes",
                  "name": "decryptedData",
                  "type": "bytes"
                }
              ],
              "internalType": "struct Structures.PostEncryptedData",
              "name": "data",
              "type": "tuple"
            }
          ],
          "internalType": "struct Structures.PostData",
          "name": "postdata",
          "type": "tuple"
        }
      ],
      "stateMutability": "view",
      "type": "function"
    },
    {
      "inputs": [],
      "name": "postCount",
      "outputs": [
        {
          "internalType": "uint256",
          "name": "",
          "type": "uint256"
        }
      ],
      "stateMutability": "view",
      "type": "function"
    },
    {
      "inputs": [],
      "name": "version",
      "outputs": [
        {
          "internalType": "string",
          "name": "",
          "type": "string"
        }
      ],
      "stateMutability": "view",
      "type": "function"
    },
    {
      "stateMutability": "payable",
      "type": "receive"
    }
  ],
  "bytecode": "0x60e060409080825234620003855760a0816200177980380380916200002582856200038a565b83398101031262000385576200003b81620003c4565b906020916200004c838301620003c4565b918481015190608060608201519101519160805260a05260c05267016345785d8a0000601555826000928360165560018060a01b039182918260018060a01b031995168560175416176017553385601854161760185560048851809481936303e21fa960e61b8352165afa9081156200037b5784916200033a575b5016906019541617601955620000df60805162000422565b9062000112620000f160a05162000422565b92620001376200010360c05162000422565b875193849388850190620003d9565b601760f91b8082526200012c6001988980940190620003d9565b9081520190620003d9565b036200014c601f19918281018452836200038a565b8151916001600160401b0383116200032657601a548581811c911680156200031b575b8782101462000307579081601f899695949311620002ab575b508691601f84116001146200024457508391908362000238575b5050600019600383901b1c191690841b17601a555b601c60ff19948560065416600655828052601b815262015180848420558483526203f480848420556002835262093a80848420556003835262127500848420556004835262278d0084842055828052522091825416179055516111d69081620005a3823960805181610584015260a051816105b0015260c051816105df0152f35b015190503880620001a2565b91839287941691601a865288862092865b8a82821062000291575050841162000277575b505050811b01601a55620001b7565b015160001960f88460031b161c1916905538808062000268565b8484015186558c99508a9790950194938401930162000255565b909192939450601a8552868520601f850160051c810191888610620002fc575b89969594939291601f89920160051c01915b828110620002ed57505062000188565b8681558a9750889101620002dd565b9091508190620002cb565b634e487b7160e01b85526022600452602485fd5b90607f16906200016f565b634e487b7160e01b84526041600452602484fd5b90508481813d831162000373575b6200035481836200038a565b810103126200036f576200036890620003c4565b38620000c7565b8380fd5b503d62000348565b86513d86823e3d90fd5b600080fd5b601f909101601f19168101906001600160401b03821190821017620003ae57604052565b634e487b7160e01b600052604160045260246000fd5b51906001600160a01b03821682036200038557565b9081519160005b838110620003f2575050016000815290565b8060208092840101518185015201620003e0565b6001600160401b038111620003ae57601f01601f191660200190565b806000917a184f03e93ff9f4daa797ed6e38ed64bf6a1f0100000000000000008082101562000593575b506d04ee2d6d415b85acef81000000008083101562000583575b50662386f26fc100008083101562000573575b506305f5e1008083101562000563575b506127108083101562000553575b50606482101562000542575b600a8092101562000537575b60019081602181860195620004c48762000406565b96620004d460405198896200038a565b808852620004e5601f199162000406565b01366020890137860101905b620004fe575b5050505090565b600019019083906f181899199a1a9b1b9c1cb0b131b232b360811b8282061a8353049182156200053157919082620004f1565b620004f7565b9160010191620004af565b9190606460029104910191620004a3565b6004919392049101913862000497565b6008919392049101913862000489565b6010919392049101913862000479565b6020919392049101913862000466565b6040935081049150386200044c56fe6080604081815260049182361015610022575b505050361561002057600080fd5b005b600092833560e01c918263010a38f51461073f5750816305c1f502146106f757816317906c2e146106d857816332946a87146106b9578163337938c71461068f5781634e69d5601461066657816354fd4d501461056c5781635ad4e1701461053e578163729e2eb114610427578163825821fb1461039a5781638c6838ba146102795781638da5cb5b146102505781638e25df9e1461014457508063cf30901214610121578063d24e0c87146101035763faeb5e17146100e25780610012565b346100ff57816003193601126100ff57602090600e549051908152f35b5080fd5b50346100ff57816003193601126100ff57602090600f549051908152f35b50346100ff57816003193601126100ff5760209060ff601e541690519015158152f35b9050823461024d578060031936011261024d578054839161016482610f0e565b6101708451918261080d565b82815261017c83610f0e565b6020958287019491601f1901368637835b8281106101d25750505083519485948186019282875251809352850193925b8281106101bb57505050500390f35b8351855286955093810193928101926001016101ac565b8480949697989552807f290decd9548b62a8d60345a988386fc84ba6bc95484008f6362f93160ef3e5630154865182101561023a57858260051b8801015260001981146102275760010196959492939661018d565b634e487b7160e01b845260118252602484fd5b634e487b7160e01b855260328352602485fd5b80fd5b5050346100ff57816003193601126100ff5760025490516001600160a01b039091168152602090f35b82843461024d578060031936011261024d5761039682519161029a836107b9565b8351906102a682610787565b80825260609160209481848780940152848882015281528651926102c984610787565b87516102d4816107d5565b8181528184820152818982015281868201528160808201528160a08201528160c08201528452875190610306826107f1565b80825280848301528089830152808683015280608083015260a082015282840152865161033281610787565b8481528483820152848882015287840152015283610383815194610355866107b9565b61035d61082f565b8652610367610a25565b9381870194855283519788978389525192880152860190610dc0565b915190601f198584030190850152610e0c565b0390f35b905034610423576020366003190112610423578282916060948380516103bf81610787565b8281528260208201520152358152601d602052209080516103df81610787565b60ff835416926103ee84610767565b838252826002600183015492602085019384520154920191825282519361041481610767565b84525160208401525190820152f35b8280fd5b82843461024d578060031936011261024d578151918160125492600184811c91818616958615610534575b6020968785108114610521578899509688969785829a5291826000146104fa57505060011461049e575b505050610396929161048f91038561080d565b51928284938452830190610d9b565b9190869350601283527fbb8a6a4669ba250d26cd7a459eca9d215f8307e33aebe50379bc5a3617ec34445b8284106104e2575050508201018161048f61039661047c565b8054848a0186015288955087949093019281016104c9565b60ff19168782015293151560051b8601909301935084925061048f9150610396905061047c565b634e487b7160e01b835260228a52602483fd5b92607f1692610452565b5050346100ff57816003193601126100ff5760209061055b610f4a565b90516001600160a01b039091168152f35b82843461024d578060031936011261024d57506105a87f0000000000000000000000000000000000000000000000000000000000000000611038565b6103966105d47f0000000000000000000000000000000000000000000000000000000000000000611038565b9261048f60226106037f0000000000000000000000000000000000000000000000000000000000000000611038565b958351968791875161061d8160209a8b8088019101610d78565b830190601760f91b91828a82015261063e825180938c602185019101610d78565b01906021820152610657825180938a8785019101610d78565b0103600281018752018561080d565b5050346100ff57816003193601126100ff5760209061068d60ff6006541691518092610dff565bf35b90503461042357602036600319011261042357602092829135815260018452205415159051908152f35b5050346100ff57816003193601126100ff57602090600b549051908152f35b5050346100ff57816003193601126100ff576020906016549051908152f35b82843461024d578060031936011261024d575061071261082f565b9061039661071e610a25565b6107318351948486958652850190610dc0565b908382036020850152610e0c565b8490346100ff57816003193601126100ff5760209060ff600a541661076381610767565b8152f35b6003111561077157565b634e487b7160e01b600052602160045260246000fd5b6060810190811067ffffffffffffffff8211176107a357604052565b634e487b7160e01b600052604160045260246000fd5b6040810190811067ffffffffffffffff8211176107a357604052565b60e0810190811067ffffffffffffffff8211176107a357604052565b60c0810190811067ffffffffffffffff8211176107a357604052565b90601f8019910116810190811067ffffffffffffffff8211176107a357604052565b6040519061083c82610787565b6003546001600160a01b03168252604051600454600181811692859280831c906000908615610a1b575b6020968784108114610a0757838552849291889082156109ea57505060011461098c575b6108969250038261080d565b83830152604051926000916005549081811c918181168015610982575b848410811461096e57838852879594939291811561094f57506001146108ea575b505050604092916108e691038461080d565b0152565b909493925060056000527f036b6384b5eca791c62761152d0c79bb0604c104a5fb6f4eb0703f3154bb3db0946000915b818310610937575093945091925090820101816108e660406108d4565b8654888401850152958601958794509183019161091a565b60ff1916848701525050151560051b8301019050816108e660406108d4565b634e487b7160e01b86526022600452602486fd5b92607f16926108b3565b5050600460005281857f8a35acfbc15ff81a39ae7d344fd709f28e8600b4aa8c65c6b64bfe7fe36bd19b856000915b8583106109d1575050610896935082010161088a565b80919294505483858801015201910186908585936109bb565b60ff19168482015261089694151560051b840101915061088a9050565b634e487b7160e01b83526022600452602483fd5b91607f1691610866565b6040908151610a3381610787565b8092805191610a41836107d5565b60065460ff81169060088210156107715760ff91855260081c169260058410156107715760209384820152600754838201526008546060820152600954608082015260ff600a5416610a9281610767565b60a0820152600b5460c082015281528151610aac816107f1565b600c546001600160a01b039081168252600d541684820152600e5483820152600f546060820152601054608082015260115460a082015281840152815192610af384610787565b82519060009160125460019381851c918581168015610d6e575b8584108114610a075783855284929186908215610d51575050600114610cf3575b610b3a9250038261080d565b8552835160006013549081851c918581168015610ce9575b8584108114610a075783855284929186908215610ccc575050600114610c6e575b610b7f9250038261080d565b818601528351916000906014549081811c918181168015610c64575b8584108114610c505783875286949392918115610c305750600114610bd1575b5050610bc99250038261080d565b828401520152565b9093915060146000527fce6d7b5282bd9a3661ae061feed1dbda4e52ab073b1f9285be6e155d9c38d4ec936000915b818310610c18575050610bc993508201013880610bbb565b85548784018501529485019486945091830191610c00565b915050610bc994925060ff191682840152151560051b8201013880610bbb565b634e487b7160e01b85526022600452602485fd5b92607f1692610b9b565b5050601360005281837f66de8ffda797e3de9c05e8fc57b3bf0ec28a930d40b0d285d93c06501cf6a090866000915b858310610cb3575050610b7f9350820101610b73565b8091929450548385880101520191018490868593610c9d565b60ff191684820152610b7f94151560051b8401019150610b739050565b92607f1692610b52565b5050601260005281837fbb8a6a4669ba250d26cd7a459eca9d215f8307e33aebe50379bc5a3617ec3444866000915b858310610d38575050610b3a9350820101610b2e565b8091929450548385880101520191018490868593610d22565b60ff191684820152610b3a94151560051b8401019150610b2e9050565b92607f1692610b0d565b60005b838110610d8b5750506000910152565b8181015183820152602001610d7b565b90602091610db481518092818552858086019101610d78565b601f01601f1916010190565b610dfc9160018060a01b0382511681526040610deb6020840151606060208501526060840190610d9b565b920151906040818403910152610d9b565b90565b9060088210156107715752565b908151610e1a828251610dff565b60208101519260058410156107715760c0604092610dfc9560208601528381015184860152606081015160608601526080810151608086015260a0810151610e6181610767565b60a0860152015160c084015260a06020820151600180831b038082511660e087015260208201511661010086015283810151610120860152606081015161014086015260808101516101608601520151610180840152015190610eda6101c0806101a08401526060845191840152610220830190610d9b565b906102006040610efe6020860151946101bf199586868303016101e0870152610d9b565b9401519282850301910152610d9b565b67ffffffffffffffff81116107a35760051b60200190565b90816020910312610f4557516001600160a01b0381168103610f455790565b600080fd5b60ff600a5416610f5981610767565b60018103610fce575060185460405163f77800e560e01b815290602090829060049082906001600160a01b03165afa908115610fc257600091610f9a575090565b610dfc915060203d8111610fbb575b610fb3818361080d565b810190610f26565b503d610fa9565b6040513d6000823e3d90fd5b80610fda600292610767565b0361101757601854604051635f117aa360e11b815290602090829060049082906001600160a01b03165afa908115610fc257600091610f9a575090565b600090565b67ffffffffffffffff81116107a357601f01601f191660200190565b806000917a184f03e93ff9f4daa797ed6e38ed64bf6a1f01000000000000000080821015611192575b506d04ee2d6d415b85acef810000000080831015611183575b50662386f26fc1000080831015611174575b506305f5e10080831015611165575b5061271080831015611156575b506064821015611146575b600a8092101561113c575b600190816021818601956110d18761101c565b966110df604051988961080d565b8088526110ee601f199161101c565b01366020890137860101905b611106575b5050505090565b600019019083906f181899199a1a9b1b9c1cb0b131b232b360811b8282061a835304918215611137579190826110fa565b6110ff565b91600101916110be565b91906064600291049101916110b3565b600491939204910191386110a8565b6008919392049101913861109b565b6010919392049101913861108c565b6020919392049101913861107a565b60409350810491503861106156fea26469706673582212205d57f66954705d03543d437a7a99b26c6ffd226a60c69dc293b7d6c1e8587ca064736f6c63430008130033",
  "linkReferences": {},
  "deployedLinkReferences": {}
}