{
  "_format": "hh-sol-artifact-1",
  "contractName": "Data",
  "sourceName": "contracts/modules/Data.sol",
  "abi": [
    {
      "inputs": [
        {
          "internalType": "address",
          "name": "_usersModuleContract",
          "type": "address"
        },
        {
          "internalType": "address",
          "name": "_verifierContract",
          "type": "address"
        },
        {
          "internalType": "address",
          "name": "_vaultContract",
          "type": "address"
        },
        {
          "internalType": "address",
          "name": "_factoryContract",
          "type": "address"
        },
        {
          "internalType": "string",
          "name": "_version",
          "type": "string"
        }
      ],
      "stateMutability": "nonpayable",
      "type": "constructor"
    },
    {
      "inputs": [],
      "name": "DAI",
      "outputs": [
        {
          "internalType": "address",
          "name": "",
          "type": "address"
        }
      ],
      "stateMutability": "view",
      "type": "function"
    },
    {
      "inputs": [],
      "name": "MUSE",
      "outputs": [
        {
          "internalType": "address",
          "name": "",
          "type": "address"
        }
      ],
      "stateMutability": "view",
      "type": "function"
    },
    {
      "inputs": [],
      "name": "WETH",
      "outputs": [
        {
          "internalType": "address",
          "name": "",
          "type": "address"
        }
      ],
      "stateMutability": "view",
      "type": "function"
    },
    {
      "inputs": [],
      "name": "getPaymentRequested",
      "outputs": [
        {
          "internalType": "uint256",
          "name": "",
          "type": "uint256"
        }
      ],
      "stateMutability": "view",
      "type": "function"
    },
    {
      "inputs": [],
      "name": "getStakeRequested",
      "outputs": [
        {
          "internalType": "uint256",
          "name": "",
          "type": "uint256"
        }
      ],
      "stateMutability": "view",
      "type": "function"
    },
    {
      "inputs": [],
      "name": "getStatus",
      "outputs": [
        {
          "internalType": "enum Structures.PostStatus",
          "name": "",
          "type": "uint8"
        }
      ],
      "stateMutability": "view",
      "type": "function"
    },
    {
      "inputs": [],
      "name": "getTokenId",
      "outputs": [
        {
          "internalType": "enum Structures.Tokens",
          "name": "",
          "type": "uint8"
        }
      ],
      "stateMutability": "view",
      "type": "function"
    },
    {
      "inputs": [],
      "name": "getTokenIdAddress",
      "outputs": [
        {
          "internalType": "address",
          "name": "",
          "type": "address"
        }
      ],
      "stateMutability": "view",
      "type": "function"
    },
    {
      "inputs": [],
      "name": "owner",
      "outputs": [
        {
          "internalType": "bytes32",
          "name": "",
          "type": "bytes32"
        }
      ],
      "stateMutability": "view",
      "type": "function"
    },
    {
      "inputs": [],
      "name": "post",
      "outputs": [
        {
          "components": [
            {
              "internalType": "bytes32",
              "name": "vaultId",
              "type": "bytes32"
            }
          ],
          "internalType": "struct Structures.User",
          "name": "creator",
          "type": "tuple"
        },
        {
          "components": [
            {
              "components": [
                {
                  "internalType": "enum Structures.PostStatus",
                  "name": "status",
                  "type": "uint8"
                },
                {
                  "internalType": "enum Structures.PostType",
                  "name": "postType",
                  "type": "uint8"
                },
                {
                  "internalType": "uint256",
                  "name": "creationTimeStamp",
                  "type": "uint256"
                },
                {
                  "internalType": "uint256",
                  "name": "endTimeStamp",
                  "type": "uint256"
                },
                {
                  "internalType": "uint256",
                  "name": "duration",
                  "type": "uint256"
                },
                {
                  "internalType": "enum Structures.Tokens",
                  "name": "tokenId",
                  "type": "uint8"
                }
              ],
              "internalType": "struct Structures.PostSettings",
              "name": "settings",
              "type": "tuple"
            },
            {
              "components": [
                {
                  "internalType": "uint256",
                  "name": "stake",
                  "type": "uint256"
                },
                {
                  "internalType": "uint256",
                  "name": "payment",
                  "type": "uint256"
                },
                {
                  "internalType": "uint256",
                  "name": "punishment",
                  "type": "uint256"
                },
                {
                  "internalType": "uint256",
                  "name": "penalty",
                  "type": "uint256"
                }
              ],
              "internalType": "struct Structures.PostEscrow",
              "name": "escrow",
              "type": "tuple"
            },
            {
              "components": [
                {
                  "internalType": "bytes",
                  "name": "encryptedData",
                  "type": "bytes"
                },
                {
                  "internalType": "bytes",
                  "name": "encryptedKey",
                  "type": "bytes"
                },
                {
                  "internalType": "bytes",
                  "name": "decryptedData",
                  "type": "bytes"
                }
              ],
              "internalType": "struct Structures.PostEncryptedData",
              "name": "data",
              "type": "tuple"
            }
          ],
          "internalType": "struct Structures.PostData",
          "name": "postdata",
          "type": "tuple"
        }
      ],
      "stateMutability": "view",
      "type": "function"
    },
    {
      "inputs": [],
      "name": "postCount",
      "outputs": [
        {
          "internalType": "uint256",
          "name": "",
          "type": "uint256"
        }
      ],
      "stateMutability": "view",
      "type": "function"
    },
    {
      "inputs": [],
      "name": "version",
      "outputs": [
        {
          "internalType": "string",
          "name": "",
          "type": "string"
        }
      ],
      "stateMutability": "view",
      "type": "function"
    },
    {
      "stateMutability": "payable",
      "type": "receive"
    }
  ],
  "bytecode": "0x608060409080825234620007c3576200145e8038038091620000228285620007de565b833981019060a081830312620007c3576200003d8162000802565b60206200004c81840162000802565b6200005986850162000802565b91620000686060860162000802565b60808601516001600160401b0396919491878211620007c3570192601f94888686011215620007c3578451888111620007c8578a5195601f199a620000b4878d8b8601160189620007de565b828852868383010111620007c357859060005b838110620007ae5750506000918701015267016345785d8a0000601755600060185560018060a01b0380938180948160018060a01b03199b168b60195416176019551689601b541617601b551687601c541617601c553387601a541617601a5516948851916303e21fa960e61b8352600492848185818b5afa8015620004cd5782916000916200076f575b501682601d541617601d556200016762000817565b8051908982116200060c57819062000181601e5462000848565b8981116200073c575b508690898311600114620006d157600092620006c5575b50508160011b916000199060031b1c191617601e555b620001c162000817565b8051908982116200060c578190620001da895462000848565b89811162000693575b5086908983116001146200062d5760009262000621575b50508160011b916000199060031b1c19161786555b6200021962000817565b8051908982116200060c57819062000232875462000848565b898111620005da575b508690898311600114620005745760009262000568575b50508160011b916000199060031b1c19161784555b60ff199687600554166005556000805260228552620151808b60002055600197886000526203f4808c60002055600260005262093a808c600020556003600052621275008c600020558460005262278d008c600020556000805260238652888c600020918254161790558a516325abd85f60e11b815285818681855afa80156200051e57839160009162000529575b508954851691161788558a5163f77800e560e01b81529085828681845afa9081156200051e578387928794600091620004d8575b50168560025416176002558c5192838092635f117aa360e11b82525afa908115620004cd576000916200048d575b501690600354161760035582519586116200047857506200037b60215462000848565b8381116200043a575b5080928511600114620003cf575083945090839291600094620003c3575b50501b916000199060031b1c1916176021555b51610bbf90816200089f8239f35b015192503880620003a2565b929484908116602160005284600020946000905b888383106200041f575050501062000405575b505050811b01602155620003b5565b015160001960f88460031b161c19169055388080620003f6565b858701518855909601959485019487935090810190620003e3565b62000467906021600052826000208580890160051c820192858a106200046e575b0160051c019062000885565b3862000384565b925081926200045b565b604190634e487b7160e01b6000525260246000fd5b908582813d8311620004c5575b620004a68183620007de565b81010312620004c25750620004bb9062000802565b3862000358565b80fd5b503d6200049a565b8b513d6000823e3d90fd5b9384919395508092503d831162000516575b620004f68183620007de565b81010312620004c257508491836200050f889362000802565b386200032a565b503d620004ea565b8c513d6000823e3d90fd5b91508682813d831162000560575b620005438183620007de565b81010312620004c2575062000559839162000802565b38620002f6565b503d62000537565b01519050388062000252565b6000888152888120938e16905b89828210620005c3575050908460019594939210620005a9575b505050811b01845562000267565b015160001960f88460031b161c191690553880806200059b565b600185968293968601518155019501930162000581565b620006059088600052886000208b80860160051c8201928b87106200046e570160051c019062000885565b386200023b565b604185634e487b7160e01b6000525260246000fd5b015190503880620001fa565b60008a8152888120938e16905b898282106200067c57505090846001959493921062000662575b505050811b0186556200020f565b015160001960f88460031b161c1916905538808062000654565b60018596829396860151815501950193016200063a565b620006be908a600052886000208b80860160051c8201928b87106200046e570160051c019062000885565b38620001e3565b015190503880620001a1565b918c1691601e600052876000209260005b89828210620007255750509084600195949392106200070b575b505050811b01601e55620001b7565b015160001960f88460031b161c19169055388080620006fc565b6001859682939686015181550195019301620006e2565b6200076890601e600052886000208b80860160051c8201928b87106200046e570160051c019062000885565b386200018a565b91508582813d8311620007a6575b620007898183620007de565b81010312620004c257506200079f829162000802565b3862000152565b503d6200077d565b818101830151898201840152879201620000c7565b600080fd5b634e487b7160e01b600052604160045260246000fd5b601f909101601f19168101906001600160401b03821190821017620007c857604052565b51906001600160a01b0382168203620007c357565b60408051919082016001600160401b03811183821017620007c85760405260048252630307830360e41b6020830152565b90600182811c921680156200087a575b60208310146200086457565b634e487b7160e01b600052602260045260246000fd5b91607f169162000858565b81811062000891575050565b600081556001016200088556fe6080604081815260049182361015610022575b505050361561002057600080fd5b005b600092833560e01c918263010a38f5146108a15750816305c1f502146103325750806317906c2e146103145780634e69d560146102ec5780635262712f146102b857806354fd4d50146101b25780635ad4e170146101795780638da5cb5b1461015d578063ad5c464814610129578063d24e0c871461010b578063e0bab4c4146100d75763faeb5e17146100b65780610012565b346100d357816003193601126100d357602090600a549051908152f35b5080fd5b50346100d357816003193601126100d35760209073ffffffffffffffffffffffffffffffffffffffff600354169051908152f35b50346100d357816003193601126100d357602090600b549051908152f35b50346100d357816003193601126100d35760209073ffffffffffffffffffffffffffffffffffffffff600154169051908152f35b50346100d357816003193601126100d357602091549051908152f35b50346100d357816003193601126100d35760209073ffffffffffffffffffffffffffffffffffffffff6101aa610a78565b915191168152f35b50346100d357816003193601126100d357805190826021546101d381610989565b808552916001918083169081156102725750600114610215575b5050506101ff82610211940383610948565b519182916020835260208301906109e9565b0390f35b9450602185527f3a6357012c1a3ae0a17d304c9920310382d968ebcc4b1771f41c6b304205b5705b82861061025a575050506101ff82602061021195820101946101ed565b8054602087870181019190915290950194810161023d565b6102119750869350602092506101ff9491507fffffffffffffffffffffffffffffffffffffffffffffffffffffffffffffff001682840152151560051b820101946101ed565b50346100d357816003193601126100d35760209073ffffffffffffffffffffffffffffffffffffffff600254169051908152f35b50346100d357816003193601126100d35760209061031260ff60055416915180926109dc565bf35b50346100d357816003193601126100d3576020906018549051908152f35b82843461089e578060031936011261089e578151916020908184019267ffffffffffffffff938581108582111761087257825285548552815193610375856108fd565b82519160c08301838110838211176108465784526005805460ff811660088110156107ee57855260081c60ff168181101561081a5786850152600654858501526007549360609485820152600854608082015260ff6009541660038110156107ee5760a0820152875284519260808401908111848210176107c2578552600a548352600b5486840152600c5485840152600d548484015285870192835284519661041e886108fd565b8551600e5490848161042f84610989565b918282526001948c868216918260001461078857505060011461072d575b61045992500382610948565b89528651600f54818661046b83610989565b928383528c86821691826000146106f3575050600114610698575b61049292500382610948565b888a01528651908185601054926104a884610989565b938484528c828216918260001461065a575050600114610600575b506104d092500382610948565b8689015285810197885285519851895285878a015251916104f4868a0184516109dc565b86830151918210156105d4575083808998969461054660a06105c19661058a966102119c9a8e01528c60808a8301519101528c82868301519101528c60c06080830151910152015160e08c01906108c1565b5180516101008b0152868101516101208b0152858101516101408b015201519561016096878a015251956101808901528551906101a08901526102008801906109e9565b92840151927ffffffffffffffffffffffffffffffffffffffffffffffffffffffffffffffe609384888303016101c08901526109e9565b92015190848303016101e08501526109e9565b8060218b7f4e487b71000000000000000000000000000000000000000000000000000000006024945252fd5b601088528b915087907f1b6847dc741a1b0cd08d278845f9d819d87b734759afb55fe2de5cb82a9ae6725b8583106106425750506104d093508201018e6104c3565b80548388018501528694508d9390920191810161062b565b9093506104d09592507fffffffffffffffffffffffffffffffffffffffffffffffffffffffffffffff00915016828401521515861b8201018e6104c3565b5050600f8652818a87857f8d1108e10bcb7c27dddfc02ed9d693a074039d026cf4ea4240b40f7d581ac8025b8583106106da5750506104929350820101610486565b8091929450548385880101520191018b908585936106c4565b7fffffffffffffffffffffffffffffffffffffffffffffffffffffffffffffff001684820152610492941515891b84010191506104869050565b5050600e8652818a87857fbb7b4a454dc3493923482f07822329ed19e8244eff582cc204f8554c3620c3fd5b85831061076f575050610459935082010161044d565b8091929450548385880101520191018b90858593610759565b7fffffffffffffffffffffffffffffffffffffffffffffffffffffffffffffff001684820152610459941515891b840101915061044d9050565b60248360418c7f4e487b7100000000000000000000000000000000000000000000000000000000835252fd5b60248460218d7f4e487b7100000000000000000000000000000000000000000000000000000000835252fd5b60248360218c7f4e487b7100000000000000000000000000000000000000000000000000000000835252fd5b60248260418b7f4e487b7100000000000000000000000000000000000000000000000000000000835252fd5b6024826041897f4e487b7100000000000000000000000000000000000000000000000000000000835252fd5b80fd5b8490346100d357816003193601126100d3578061031260209260ff600954165b9060038210156108ce5752565b7f4e487b7100000000000000000000000000000000000000000000000000000000600052602160045260246000fd5b6060810190811067ffffffffffffffff82111761091957604052565b7f4e487b7100000000000000000000000000000000000000000000000000000000600052604160045260246000fd5b90601f7fffffffffffffffffffffffffffffffffffffffffffffffffffffffffffffffe0910116810190811067ffffffffffffffff82111761091957604052565b90600182811c921680156109d2575b60208310146109a357565b7f4e487b7100000000000000000000000000000000000000000000000000000000600052602260045260246000fd5b91607f1691610998565b9060088210156108ce5752565b919082519283825260005b848110610a335750507fffffffffffffffffffffffffffffffffffffffffffffffffffffffffffffffe0601f8460006020809697860101520116010190565b6020818301810151848301820152016109f4565b90816020910312610a73575173ffffffffffffffffffffffffffffffffffffffff81168103610a735790565b600080fd5b60ff6009541660038110156108ce5760018103610b2257506004602073ffffffffffffffffffffffffffffffffffffffff601a5416604051928380927ff77800e50000000000000000000000000000000000000000000000000000000082525afa908115610b1657600091610aeb575090565b610b0c915060203d8111610b0f575b610b048183610948565b810190610a47565b90565b503d610afa565b6040513d6000823e3d90fd5b600203610b84576004602073ffffffffffffffffffffffffffffffffffffffff601a5416604051928380927fbe22f5460000000000000000000000000000000000000000000000000000000082525afa908115610b1657600091610aeb575090565b60009056fea2646970667358221220cf474c235c0424ac8ebb39f8e23b298fdee8b9bc10eaec644822d60c0996002164736f6c63430008130033",
  "linkReferences": {},
  "deployedLinkReferences": {}
}