{
  "_format": "hh-sol-artifact-1",
  "contractName": "Data",
  "sourceName": "contracts/modules/Data.sol",
  "abi": [
    {
      "inputs": [
        {
          "internalType": "address",
          "name": "usersModuleContract",
          "type": "address"
        },
        {
          "internalType": "address",
          "name": "factoryContract",
          "type": "address"
        },
        {
          "internalType": "uint256",
          "name": "_major",
          "type": "uint256"
        },
        {
          "internalType": "uint256",
          "name": "_minor",
          "type": "uint256"
        },
        {
          "internalType": "uint256",
          "name": "_patch",
          "type": "uint256"
        }
      ],
      "stateMutability": "nonpayable",
      "type": "constructor"
    },
    {
      "inputs": [],
      "name": "getEncryptedPost",
      "outputs": [
        {
          "internalType": "bytes",
          "name": "",
          "type": "bytes"
        }
      ],
      "stateMutability": "view",
      "type": "function"
    },
    {
      "inputs": [],
      "name": "getPaymentRequested",
      "outputs": [
        {
          "internalType": "uint256",
          "name": "",
          "type": "uint256"
        }
      ],
      "stateMutability": "view",
      "type": "function"
    },
    {
      "inputs": [],
      "name": "getPost",
      "outputs": [
        {
          "components": [
            {
              "components": [
                {
                  "internalType": "address",
                  "name": "evmAddress",
                  "type": "address"
                },
                {
                  "internalType": "bytes",
                  "name": "sismoVaultId",
                  "type": "bytes"
                },
                {
                  "internalType": "bytes",
                  "name": "publicKey",
                  "type": "bytes"
                }
              ],
              "internalType": "struct Structures.User",
              "name": "creator",
              "type": "tuple"
            },
            {
              "components": [
                {
                  "components": [
                    {
                      "internalType": "enum Structures.PostStatus",
                      "name": "status",
                      "type": "uint8"
                    },
                    {
                      "internalType": "enum Structures.PostType",
                      "name": "postType",
                      "type": "uint8"
                    },
                    {
                      "internalType": "uint256",
                      "name": "creationTimeStamp",
                      "type": "uint256"
                    },
                    {
                      "internalType": "uint256",
                      "name": "endTimeStamp",
                      "type": "uint256"
                    },
                    {
                      "internalType": "uint256",
                      "name": "duration",
                      "type": "uint256"
                    },
                    {
                      "internalType": "enum Structures.Tokens",
                      "name": "tokenId",
                      "type": "uint8"
                    }
                  ],
                  "internalType": "struct Structures.PostSettings",
                  "name": "settings",
                  "type": "tuple"
                },
                {
                  "components": [
                    {
                      "internalType": "address",
                      "name": "buyer",
                      "type": "address"
                    },
                    {
                      "internalType": "address",
                      "name": "seller",
                      "type": "address"
                    },
                    {
                      "internalType": "uint256",
                      "name": "stake",
                      "type": "uint256"
                    },
                    {
                      "internalType": "uint256",
                      "name": "payment",
                      "type": "uint256"
                    },
                    {
                      "internalType": "uint256",
                      "name": "punishment",
                      "type": "uint256"
                    },
                    {
                      "internalType": "uint256",
                      "name": "penalty",
                      "type": "uint256"
                    }
                  ],
                  "internalType": "struct Structures.PostEscrow",
                  "name": "escrow",
                  "type": "tuple"
                },
                {
                  "components": [
                    {
                      "internalType": "bytes",
                      "name": "encryptedData",
                      "type": "bytes"
                    },
                    {
                      "internalType": "bytes",
                      "name": "encryptedKey",
                      "type": "bytes"
                    },
                    {
                      "internalType": "bytes",
                      "name": "decryptedData",
                      "type": "bytes"
                    }
                  ],
                  "internalType": "struct Structures.PostEncryptedData",
                  "name": "data",
                  "type": "tuple"
                }
              ],
              "internalType": "struct Structures.PostData",
              "name": "postdata",
              "type": "tuple"
            }
          ],
          "internalType": "struct Structures.Post",
          "name": "",
          "type": "tuple"
        }
      ],
      "stateMutability": "view",
      "type": "function"
    },
    {
      "inputs": [],
      "name": "getStakeRequested",
      "outputs": [
        {
          "internalType": "uint256",
          "name": "",
          "type": "uint256"
        }
      ],
      "stateMutability": "view",
      "type": "function"
    },
    {
      "inputs": [],
      "name": "getStatus",
      "outputs": [
        {
          "internalType": "enum Structures.PostStatus",
          "name": "",
          "type": "uint8"
        }
      ],
      "stateMutability": "view",
      "type": "function"
    },
    {
      "inputs": [],
      "name": "getTokenId",
      "outputs": [
        {
          "internalType": "enum Structures.Tokens",
          "name": "",
          "type": "uint8"
        }
      ],
      "stateMutability": "view",
      "type": "function"
    },
    {
      "inputs": [],
      "name": "getTokenIdAddress",
      "outputs": [
        {
          "internalType": "address",
          "name": "",
          "type": "address"
        }
      ],
      "stateMutability": "view",
      "type": "function"
    },
    {
      "inputs": [],
      "name": "owner",
      "outputs": [
        {
          "internalType": "address",
          "name": "",
          "type": "address"
        }
      ],
      "stateMutability": "view",
      "type": "function"
    },
    {
      "inputs": [],
      "name": "post",
      "outputs": [
        {
          "components": [
            {
              "internalType": "address",
              "name": "evmAddress",
              "type": "address"
            },
            {
              "internalType": "bytes",
              "name": "sismoVaultId",
              "type": "bytes"
            },
            {
              "internalType": "bytes",
              "name": "publicKey",
              "type": "bytes"
            }
          ],
          "internalType": "struct Structures.User",
          "name": "creator",
          "type": "tuple"
        },
        {
          "components": [
            {
              "components": [
                {
                  "internalType": "enum Structures.PostStatus",
                  "name": "status",
                  "type": "uint8"
                },
                {
                  "internalType": "enum Structures.PostType",
                  "name": "postType",
                  "type": "uint8"
                },
                {
                  "internalType": "uint256",
                  "name": "creationTimeStamp",
                  "type": "uint256"
                },
                {
                  "internalType": "uint256",
                  "name": "endTimeStamp",
                  "type": "uint256"
                },
                {
                  "internalType": "uint256",
                  "name": "duration",
                  "type": "uint256"
                },
                {
                  "internalType": "enum Structures.Tokens",
                  "name": "tokenId",
                  "type": "uint8"
                }
              ],
              "internalType": "struct Structures.PostSettings",
              "name": "settings",
              "type": "tuple"
            },
            {
              "components": [
                {
                  "internalType": "address",
                  "name": "buyer",
                  "type": "address"
                },
                {
                  "internalType": "address",
                  "name": "seller",
                  "type": "address"
                },
                {
                  "internalType": "uint256",
                  "name": "stake",
                  "type": "uint256"
                },
                {
                  "internalType": "uint256",
                  "name": "payment",
                  "type": "uint256"
                },
                {
                  "internalType": "uint256",
                  "name": "punishment",
                  "type": "uint256"
                },
                {
                  "internalType": "uint256",
                  "name": "penalty",
                  "type": "uint256"
                }
              ],
              "internalType": "struct Structures.PostEscrow",
              "name": "escrow",
              "type": "tuple"
            },
            {
              "components": [
                {
                  "internalType": "bytes",
                  "name": "encryptedData",
                  "type": "bytes"
                },
                {
                  "internalType": "bytes",
                  "name": "encryptedKey",
                  "type": "bytes"
                },
                {
                  "internalType": "bytes",
                  "name": "decryptedData",
                  "type": "bytes"
                }
              ],
              "internalType": "struct Structures.PostEncryptedData",
              "name": "data",
              "type": "tuple"
            }
          ],
          "internalType": "struct Structures.PostData",
          "name": "postdata",
          "type": "tuple"
        }
      ],
      "stateMutability": "view",
      "type": "function"
    },
    {
      "inputs": [],
      "name": "postCount",
      "outputs": [
        {
          "internalType": "uint256",
          "name": "",
          "type": "uint256"
        }
      ],
      "stateMutability": "view",
      "type": "function"
    },
    {
      "inputs": [],
      "name": "version",
      "outputs": [
        {
          "internalType": "string",
          "name": "",
          "type": "string"
        }
      ],
      "stateMutability": "view",
      "type": "function"
    },
    {
      "stateMutability": "payable",
      "type": "receive"
    }
  ],
  "bytecode": "0x60e06040818152346200038a5760a0826200150280380380916200002482856200038f565b8339810103126200038a576200003a82620003c9565b602062000049818501620003c9565b938381015190608060608201519101519160805260a05260c05267016345785d8a000060125560008060135560018060a01b03928360018060a01b03199116816014541617601455338160155416176015558383865180986303e21fa960e61b8252816004988992165afa8015620003805783906200033d575b6200010f975016906016541617601655620000e060805162000427565b91620000ee60a05162000427565b92620001346200010060c05162000427565b875198899385850190620003de565b601760f91b808252620001296001988980940190620003de565b9081520190620003de565b0362000149601f19918281018952886200038f565b8651906001600160401b0382116200032a57601754978589811c991680156200031f575b848a10146200030c5788601f899a9997989911620002ae575b508391601f8411600114620002405750601993929185918362000234575b5050600019600383901b1c191690861b176017555b60ff19958681541681558380526018825262015180858520558584526203f480858520556002845262093a8085852055600384526212750085852055835262278d008484205582805252209182541617905551610f5a9081620005a882396080518161033b015260a05181610367015260c051816103960152f35b015190503880620001a4565b601786528486209084169695949388939092865b8981106200029357508360199798991062000279575b505050811b01601755620001b9565b015160001960f88460031b161c191690553880806200026a565b8183015184558c98508a959093019291860191860162000254565b9091929394955060178652848620601f850160051c81019186861062000301575b8a97969594939291601f8a920160051c01915b828110620002f257505062000186565b8781558b9850899101620002e2565b9091508190620002cf565b634e487b7160e01b855260228752602485fd5b98607f16986200016d565b634e487b7160e01b845260418652602484fd5b508387813d831162000378575b6200035681836200038f565b8101031262000374576200036e6200010f97620003c9565b620000c3565b8280fd5b503d6200034a565b86513d85823e3d90fd5b600080fd5b601f909101601f19168101906001600160401b03821190821017620003b357604052565b634e487b7160e01b600052604160045260246000fd5b51906001600160a01b03821682036200038a57565b9081519160005b838110620003f7575050016000815290565b8060208092840101518185015201620003e5565b6001600160401b038111620003b357601f01601f191660200190565b806000917a184f03e93ff9f4daa797ed6e38ed64bf6a1f0100000000000000008082101562000598575b506d04ee2d6d415b85acef81000000008083101562000588575b50662386f26fc100008083101562000578575b506305f5e1008083101562000568575b506127108083101562000558575b50606482101562000547575b600a809210156200053c575b60019081602181860195620004c9876200040b565b96620004d960405198896200038f565b808852620004ea601f19916200040b565b01366020890137860101905b62000503575b5050505090565b600019019083906f181899199a1a9b1b9c1cb0b131b232b360811b8282061a8353049182156200053657919082620004f6565b620004fc565b9160010191620004b4565b9190606460029104910191620004a8565b600491939204910191386200049c565b600891939204910191386200048e565b601091939204910191386200047e565b602091939204910191386200046b565b6040935081049150386200045156fe60806040818152600436101561001f575b5050361561001d57600080fd5b005b600091823560e01c908163010a38f5146104ab5750806305c1f5021461046357806317906c2e146104455780634e69d5601461041d57806354fd4d50146103235780635ad4e170146102f6578063729e2eb1146101e05780638c6838ba146101075780638da5cb5b146100e0578063d24e0c87146100c25763faeb5e170361001057346100be57816003193601126100be57602090600b549051908152f35b5080fd5b50346100be57816003193601126100be57602090600c549051908152f35b50346100be57816003193601126100be57905490516001600160a01b039091168152602090f35b5090346101dd57806003193601126101dd576101d98251610127816104ee565b83519261013384610520565b83526060906020938285820152828682015281528385519161015483610520565b61015c610d6e565b8352610166610d6e565b82840152865161017581610520565b84815284838201528488820152878401520152836101c6815194610198866104ee565b6101a061057a565b86526101aa610771565b9381870194855283519788978389525192880152860190610b3f565b915190601f198584030190850152610b8b565b0390f35b80fd5b50346100be57816003193601126100be578051908290600f5491600183811c908085169687156102ec575b60209586841089146102d857868899858a98999a5291826000146102b1575050600114610255575b5050506101d99291610246910385610558565b51928284938452830190610b1a565b9190869350600f83527f8d1108e10bcb7c27dddfc02ed9d693a074039d026cf4ea4240b40f7d581ac8025b82841061029957505050820101816102466101d9610233565b8054848a018601528895508794909301928101610280565b60ff19168782015293151560051b8601909301935084925061024691506101d99050610233565b634e487b7160e01b82526022600452602482fd5b91607f169161020b565b50346100be57816003193601126100be57602090610312610ca6565b90516001600160a01b039091168152f35b5090346101dd57806003193601126101dd575061035f7f0000000000000000000000000000000000000000000000000000000000000000610dbc565b6101d961038b7f0000000000000000000000000000000000000000000000000000000000000000610dbc565b9261024660226103ba7f0000000000000000000000000000000000000000000000000000000000000000610dbc565b95835196879187516103d48160209a8b8088019101610af7565b830190601760f91b91828a8201526103f5825180938c602185019101610af7565b0190602182015261040e825180938a8785019101610af7565b01036002810187520185610558565b50346100be57816003193601126100be5760209061044360ff6004541691518092610b7e565bf35b50346100be57816003193601126100be576020906013549051908152f35b5090346101dd57806003193601126101dd575061047e61057a565b906101d961048a610771565b61049d8351948486958652850190610b3f565b908382036020850152610b8b565b8390346100be57816003193601126100be578061044360209260ff600854165b9060038210156104d85752565b634e487b7160e01b600052602160045260246000fd5b6040810190811067ffffffffffffffff82111761050a57604052565b634e487b7160e01b600052604160045260246000fd5b6060810190811067ffffffffffffffff82111761050a57604052565b60c0810190811067ffffffffffffffff82111761050a57604052565b90601f8019910116810190811067ffffffffffffffff82111761050a57604052565b6040519061058782610520565b600180546001600160a01b03168352604051600254808316928592909180831c906000908615610767575b602096878410811461075357838552849291889082156107365750506001146106d8575b6105e292500382610558565b83830152604051926000916003549081811c9181811680156106ce575b84841081146106ba57838852879594939291811561069b5750600114610636575b50505060409291610632910384610558565b0152565b909493925060036000527fc2575a0e9e593c00f959f8c92f12db2869c3395a3b0502d05e2516446f71f85b946000915b818310610683575093945091925090820101816106326040610620565b86548884018501529586019587945091830191610666565b60ff1916848701525050151560051b8301019050816106326040610620565b634e487b7160e01b86526022600452602486fd5b92607f16926105ff565b5050600260005281857f405787fa12a823e0f2b7631cc41b3ba8828b3321ca811111fa75cd3aa3bb5ace856000915b85831061071d5750506105e293508201016105d6565b8091929450548385880101520191018690858593610707565b60ff1916848201526105e294151560051b84010191506105d69050565b634e487b7160e01b83526022600452602483fd5b91607f16916105b2565b604090815161077f81610520565b809280519161078d8361053c565b6004805460ff81166008811015610acd57855260081c60ff16936005851015610ae25760209485820152600554848201526006546060820152600754608082015260ff600854166003811015610acd5760a0820152825282516107ef8161053c565b6009546001600160a01b039081168252600a541685820152600b5484820152600c546060820152600d546080820152600e5460a08201528285015282519361083685610520565b8351600090600f5460019281841c918481168015610ac3575b8684108114610a2b5783855284929187908215610aa6575050600114610a48575b61087c92500382610558565b8652845160006010549081841c918481168015610a3e575b8684108114610a2b5783855284929187908215610a0e5750506001146109b0575b6108c192500382610558565b8287015284519260009160115480821c928282169081156109a6575b86851082146109935750838752869493929181156109735750600114610914575b505061090c92500382610558565b828401520152565b9093915060116000527f31ecc21a745e3968a04e9570e4425bc18fa8019c68028196b546d1669c200c68936000915b81831061095b57505061090c935082010138806108fe565b85548784018501529485019486945091830191610943565b91505061090c94925060ff191682840152151560051b82010138806108fe565b634e487b7160e01b865260229052602485fd5b93607f16936108dd565b5050601060005281847f1b6847dc741a1b0cd08d278845f9d819d87b734759afb55fe2de5cb82a9ae672856000915b8583106109f55750506108c193508201016108b5565b80919294505483858801015201910185908585936109df565b60ff1916848201526108c194151560051b84010191506108b59050565b634e487b7160e01b835260228852602483fd5b92607f1692610894565b5050600f60005281847f8d1108e10bcb7c27dddfc02ed9d693a074039d026cf4ea4240b40f7d581ac802856000915b858310610a8d57505061087c9350820101610870565b8091929450548385880101520191018590858593610a77565b60ff19168482015261087c94151560051b84010191506108709050565b92607f169261084f565b602183634e487b7160e01b6000525260246000fd5b602182634e487b7160e01b6000525260246000fd5b60005b838110610b0a5750506000910152565b8181015183820152602001610afa565b90602091610b3381518092818552858086019101610af7565b601f01601f1916010190565b610b7b9160018060a01b0382511681526040610b6a6020840151606060208501526060840190610b1a565b920151906040818403910152610b1a565b90565b9060088210156104d85752565b90815191610b9a828451610b7e565b60208301519060058210156104d857610be260a0610b7b95604094602087015284810151858701526060810151606087015260808101516080870152015160a08501906104cb565b60a06020820151600180831b038082511660c087015260208201511660e086015283810151610100860152606081015161012086015260808101516101408601520151610160840152015190610c4e6101a0806101808401526060845191840152610200830190610b1a565b906101e06040610c7260208601519461019f199586868303016101c0870152610b1a565b9401519282850301910152610b1a565b90816020910312610ca157516001600160a01b0381168103610ca15790565b600080fd5b60ff6008541660038110156104d85760018103610d2a575060155460405163f77800e560e01b815290602090829060049082906001600160a01b03165afa908115610d1e57600091610cf6575090565b610b7b915060203d8111610d17575b610d0f8183610558565b810190610c82565b503d610d05565b6040513d6000823e3d90fd5b600203610d6957601554604051635f117aa360e11b815290602090829060049082906001600160a01b03165afa908115610d1e57600091610cf6575090565b600090565b60405190610d7b8261053c565b8160a06000918281528260208201528260408201528260608201528260808201520152565b67ffffffffffffffff811161050a57601f01601f191660200190565b806000917a184f03e93ff9f4daa797ed6e38ed64bf6a1f01000000000000000080821015610f16575b506d04ee2d6d415b85acef810000000080831015610f07575b50662386f26fc1000080831015610ef8575b506305f5e10080831015610ee9575b5061271080831015610eda575b506064821015610eca575b600a80921015610ec0575b60019081602181860195610e5587610da0565b96610e636040519889610558565b808852610e72601f1991610da0565b01366020890137860101905b610e8a575b5050505090565b600019019083906f181899199a1a9b1b9c1cb0b131b232b360811b8282061a835304918215610ebb57919082610e7e565b610e83565b9160010191610e42565b9190606460029104910191610e37565b60049193920491019138610e2c565b60089193920491019138610e1f565b60109193920491019138610e10565b60209193920491019138610dfe565b604093508104915038610de556fea2646970667358221220cecb7a680656fc1f33f0ddd0516359eb9141e923738ba34b1f302ed44e433fb164736f6c63430008130033",
  "linkReferences": {},
  "deployedLinkReferences": {}
}