{
  "_format": "hh-sol-artifact-1",
  "contractName": "Data",
  "sourceName": "contracts/evm/modules/Data.sol",
  "abi": [
    {
      "inputs": [
        {
          "internalType": "address",
          "name": "usersModuleContract",
          "type": "address"
        },
        {
          "internalType": "address",
          "name": "factoryContract",
          "type": "address"
        },
        {
          "internalType": "string",
          "name": "ver",
          "type": "string"
        }
      ],
      "stateMutability": "nonpayable",
      "type": "constructor"
    },
    {
      "inputs": [],
      "name": "getPaymentRequested",
      "outputs": [
        {
          "internalType": "uint256",
          "name": "",
          "type": "uint256"
        }
      ],
      "stateMutability": "view",
      "type": "function"
    },
    {
      "inputs": [],
      "name": "getStakeRequested",
      "outputs": [
        {
          "internalType": "uint256",
          "name": "",
          "type": "uint256"
        }
      ],
      "stateMutability": "view",
      "type": "function"
    },
    {
      "inputs": [],
      "name": "getStatus",
      "outputs": [
        {
          "internalType": "enum Structures.PostStatus",
          "name": "",
          "type": "uint8"
        }
      ],
      "stateMutability": "view",
      "type": "function"
    },
    {
      "inputs": [],
      "name": "getTokenId",
      "outputs": [
        {
          "internalType": "enum Structures.Tokens",
          "name": "",
          "type": "uint8"
        }
      ],
      "stateMutability": "view",
      "type": "function"
    },
    {
      "inputs": [],
      "name": "getTokenIdAddress",
      "outputs": [
        {
          "internalType": "address",
          "name": "",
          "type": "address"
        }
      ],
      "stateMutability": "view",
      "type": "function"
    },
    {
      "inputs": [],
      "name": "owner",
      "outputs": [
        {
          "internalType": "address",
          "name": "",
          "type": "address"
        }
      ],
      "stateMutability": "view",
      "type": "function"
    },
    {
      "inputs": [],
      "name": "post",
      "outputs": [
        {
          "components": [
            {
              "internalType": "address",
              "name": "evmAddress",
              "type": "address"
            },
            {
              "internalType": "bytes",
              "name": "sismoVaultId",
              "type": "bytes"
            },
            {
              "internalType": "bytes",
              "name": "publicKey",
              "type": "bytes"
            }
          ],
          "internalType": "struct Structures.User",
          "name": "creator",
          "type": "tuple"
        },
        {
          "components": [
            {
              "components": [
                {
                  "internalType": "enum Structures.PostStatus",
                  "name": "status",
                  "type": "uint8"
                },
                {
                  "internalType": "enum Structures.PostType",
                  "name": "postType",
                  "type": "uint8"
                },
                {
                  "internalType": "uint256",
                  "name": "creationTimeStamp",
                  "type": "uint256"
                },
                {
                  "internalType": "uint256",
                  "name": "endTimeStamp",
                  "type": "uint256"
                },
                {
                  "internalType": "uint256",
                  "name": "duration",
                  "type": "uint256"
                },
                {
                  "internalType": "enum Structures.Tokens",
                  "name": "tokenId",
                  "type": "uint8"
                }
              ],
              "internalType": "struct Structures.PostSettings",
              "name": "settings",
              "type": "tuple"
            },
            {
              "components": [
                {
                  "internalType": "uint256",
                  "name": "stake",
                  "type": "uint256"
                },
                {
                  "internalType": "uint256",
                  "name": "payment",
                  "type": "uint256"
                },
                {
                  "internalType": "uint256",
                  "name": "punishment",
                  "type": "uint256"
                },
                {
                  "internalType": "uint256",
                  "name": "penalty",
                  "type": "uint256"
                }
              ],
              "internalType": "struct Structures.PostEscrow",
              "name": "escrow",
              "type": "tuple"
            },
            {
              "components": [
                {
                  "internalType": "bytes",
                  "name": "encryptedData",
                  "type": "bytes"
                },
                {
                  "internalType": "bytes",
                  "name": "encryptedKey",
                  "type": "bytes"
                },
                {
                  "internalType": "bytes",
                  "name": "decryptedData",
                  "type": "bytes"
                }
              ],
              "internalType": "struct Structures.PostEncryptedData",
              "name": "data",
              "type": "tuple"
            }
          ],
          "internalType": "struct Structures.PostData",
          "name": "postdata",
          "type": "tuple"
        }
      ],
      "stateMutability": "view",
      "type": "function"
    },
    {
      "inputs": [],
      "name": "postCount",
      "outputs": [
        {
          "internalType": "uint256",
          "name": "",
          "type": "uint256"
        }
      ],
      "stateMutability": "view",
      "type": "function"
    },
    {
      "inputs": [],
      "name": "version",
      "outputs": [
        {
          "internalType": "string",
          "name": "",
          "type": "string"
        }
      ],
      "stateMutability": "view",
      "type": "function"
    },
    {
      "stateMutability": "payable",
      "type": "receive"
    }
  ],
  "bytecode": "0x6080604090808252346200035e5762000e36803803809162000022828562000379565b83398101906060818303126200035e576200003d816200039d565b6020906200004d8284016200039d565b838601516001600160401b03949193918582116200035e570190601f928684840112156200035e5782518681116200036357885193601f199862000098858b89860116018762000379565b8286528483830101116200035e57839060005b8381106200034957505060009185010181905267016345785d8a0000601255601355601480546001600160a01b03199081166001600160a01b03938416179091556015805482163317905588516303e21fa960e61b8152600496919291849082908990829086165afa9081156200033e57600091620002fe575b501690601654161760165560ff19938481541681556000805260188252620151808860002055600194856000526203f4808960002055600260005262093a80896000205560036000526212750089600020558160005262278d00896000205560008052601983528589600020918254161790558251958611620002e957601754908582811c92168015620002de575b83831014620002c957508381116200027d575b50809285116001146200021257508394509083929160009462000206575b50501b916000199060031b1c1916176017555b51610a839081620003b38239f35b015192503880620001e5565b929484908116601760005284600020946000905b8883831062000262575050501062000248575b505050811b01601755620001f8565b015160001960f88460031b161c1916905538808062000239565b85870151885590960195948501948793509081019062000226565b6017600052816000208480880160051c820192848910620002bf575b0160051c019085905b828110620002b2575050620001c7565b60008155018590620002a2565b9250819262000299565b602290634e487b7160e01b6000525260246000fd5b91607f1691620001b4565b604190634e487b7160e01b6000525260246000fd5b908482813d831162000336575b62000317818362000379565b810103126200033357506200032c906200039d565b3862000125565b80fd5b503d6200030b565b8a513d6000823e3d90fd5b818101830151878201840152859201620000ab565b600080fd5b634e487b7160e01b600052604160045260246000fd5b601f909101601f19168101906001600160401b038211908210176200036357604052565b51906001600160a01b03821682036200035e5756fe6080604081815260049182361015610022575b505050361561002057600080fd5b005b600092833560e01c918263010a38f5146108405750816305c1f5021461025a57816317906c2e1461023b5781634e69d560146102105750806354fd4d50146101285780635ad4e170146100fb5780638da5cb5b146100d4578063d24e0c87146100b65763faeb5e17146100955780610012565b346100b257816003193601126100b2576020906009549051908152f35b5080fd5b50346100b257816003193601126100b257602090600a549051908152f35b50346100b257816003193601126100b257905490516001600160a01b039091168152602090f35b50346100b257816003193601126100b257602090610117610982565b90516001600160a01b039091168152f35b50346100b257816003193601126100b2578051908260175461014981610883565b808552916001918083169081156101e8575060011461018b575b505050610175826101879403836108ef565b51918291602083526020830190610911565b0390f35b9450601785527fc624b66cc0138b8fabc209247f72d758e1cf3343756d543badbf24212bed8c155b8286106101d0575050506101758260206101879582010194610163565b805460208787018101919091529095019481016101b3565b61018797508693506020925061017594915060ff191682840152151560051b82010194610163565b8284346102385780600319360112610238575061023660ff602093541691518092610951565bf35b80fd5b5050346100b257816003193601126100b2576020906013549051908152f35b828434610238578060031936011261023857815191610278836108bd565b600180546001600160a01b03908116855282516002549093919290848661029e83610883565b8083529284811690811561082157506001146107c3575b6102c1925003856108ef565b6020938487019081528251958087600354916102dc83610883565b928383528987821691826000146107a657505060011461074c575b610303925003886108ef565b838801968752835194610315866108bd565b84519767ffffffffffffffff9360c08a018581118b8210176107395787528b5460ff81166008811015610725578b526005939060081c60ff1684811015610725578a8c01528354888c01526006549a60609b8c820152600754608082015260ff6008541660038110156107125760a0820152895287519560808701908111878210176106fe5788526009548652600a548a870152600b5488870152600c548b8701528989019586528751966103c9886108bd565b88518b8188600d546103da81610883565b808452938187169182156106e2575050600114610687575b6103fe925003826108ef565b885288518b8188600e5461041181610883565b8084529381871691821561066b575050600114610610575b610435925003826108ef565b8b890152885180918c8891600f5461044c81610883565b808652928183169182156105f557505060011461059a575b50500361047190826108ef565b8888015287890196875287519b888d525116878c01525189808c015260a08b0161049a91610911565b90518a8203603f190160808c01526104b29190610911565b95898703888b01525191868351906104c991610951565b8783015191821015610587575061055d8694896101a09561051c60a08c9a978f9e9c976101879e61057799015288810151898c015284810151858c0152608081015160808c0152015160a08a0190610860565b51805160c08901528881015160e0890152858101516101008901520151610120870152519661016090816101408801528851918701526101c0860190610911565b948601519461015f19958686830301610180870152610911565b9401519282850301910152610911565b634e487b7160e01b815260218b52602490fd5b600f8a528e92508991907f8d1108e10bcb7c27dddfc02ed9d693a074039d026cf4ea4240b40f7d581ac8025b8284106105da575050508201013880610464565b8194929550805483858901015201910190928e9285946105c6565b925093505060ff1916828401521515871b8201013880610464565b5050600e8852818d89857fbb7b4a454dc3493923482f07822329ed19e8244eff582cc204f8554c3620c3fd5b8583106106525750506104359350820101610429565b8091929450548385880101520191018e9085859361063c565b60ff1916848201526104359415158b1b84010191506104299050565b5050600d8852818d89857fd7b6990105719101dabeb77144f2a3385c8033acd3af97e9423a695e81ad1eb55b8583106106c95750506103fe93508201016103f2565b8091929450548385880101520191018e908585936106b3565b60ff1916848201526103fe9415158b1b84010191506103f29050565b50634e487b7160e01b855260418d52602485fd5b634e487b7160e01b875260218f52602487fd5b50634e487b7160e01b855260218d52602485fd5b634e487b7160e01b855260418d52602485fd5b505060038252878783867fc2575a0e9e593c00f959f8c92f12db2869c3395a3b0502d05e2516446f71f85b5b85831061078e57505061030393508201016102f7565b90919383858354920101520191018890868b93610778565b60ff19168482015261030394151560051b84010191506102f79050565b5060028752908690837f405787fa12a823e0f2b7631cc41b3ba8828b3321ca811111fa75cd3aa3bb5ace5b828410610807575050509060206102c1928201016102b5565b6020929450805483858b01015201910190918387936107ee565b602092506102c194915060ff191682840152151560051b8201016102b5565b8490346100b257816003193601126100b2578061023660209260ff600854165b90600382101561086d5752565b634e487b7160e01b600052602160045260246000fd5b90600182811c921680156108b3575b602083101461089d57565b634e487b7160e01b600052602260045260246000fd5b91607f1691610892565b6060810190811067ffffffffffffffff8211176108d957604052565b634e487b7160e01b600052604160045260246000fd5b90601f8019910116810190811067ffffffffffffffff8211176108d957604052565b919082519283825260005b84811061093d575050826000602080949584010152601f8019910116010190565b60208183018101518483018201520161091c565b90600882101561086d5752565b9081602091031261097d57516001600160a01b038116810361097d5790565b600080fd5b60ff60085416600381101561086d5760018103610a09575060155460405163f77800e560e01b815290602090829060049082906001600160a01b03165afa9081156109fd576000916109d2575090565b6109f3915060203d81116109f6575b6109eb81836108ef565b81019061095e565b90565b503d6109e1565b6040513d6000823e3d90fd5b600203610a4857601554604051635f117aa360e11b815290602090829060049082906001600160a01b03165afa9081156109fd576000916109d2575090565b60009056fea2646970667358221220dc86f7980e93d3b601cfca432412e46625867384809c8bfe97841fce98350b7064736f6c63430008130033",
  "linkReferences": {},
  "deployedLinkReferences": {}
}