{
  "_format": "hh-sol-artifact-1",
  "contractName": "MecenateFeedFactory",
  "sourceName": "contracts/sismo-zkp/factories/MecenateFeedFactory.sol",
  "abi": [
    {
      "inputs": [
        {
          "internalType": "address",
          "name": "_usersModuleContract",
          "type": "address"
        },
        {
          "internalType": "address",
          "name": "_treasuryContract",
          "type": "address"
        },
        {
          "internalType": "address",
          "name": "_verifierContract",
          "type": "address"
        }
      ],
      "stateMutability": "nonpayable",
      "type": "constructor"
    },
    {
      "anonymous": false,
      "inputs": [
        {
          "indexed": true,
          "internalType": "address",
          "name": "addr",
          "type": "address"
        }
      ],
      "name": "FeedCreated",
      "type": "event"
    },
    {
      "anonymous": false,
      "inputs": [
        {
          "indexed": true,
          "internalType": "address",
          "name": "previousOwner",
          "type": "address"
        },
        {
          "indexed": true,
          "internalType": "address",
          "name": "newOwner",
          "type": "address"
        }
      ],
      "name": "OwnershipTransferred",
      "type": "event"
    },
    {
      "inputs": [
        {
          "internalType": "bytes",
          "name": "sismoConnectResponse",
          "type": "bytes"
        },
        {
          "internalType": "address",
          "name": "_to",
          "type": "address"
        },
        {
          "internalType": "address",
          "name": "_from",
          "type": "address"
        }
      ],
      "name": "buildFeed",
      "outputs": [
        {
          "internalType": "address",
          "name": "",
          "type": "address"
        }
      ],
      "stateMutability": "payable",
      "type": "function"
    },
    {
      "inputs": [],
      "name": "burnEnabled",
      "outputs": [
        {
          "internalType": "bool",
          "name": "",
          "type": "bool"
        }
      ],
      "stateMutability": "view",
      "type": "function"
    },
    {
      "inputs": [
        {
          "internalType": "address",
          "name": "_treasury",
          "type": "address"
        },
        {
          "internalType": "address",
          "name": "_usersModule",
          "type": "address"
        },
        {
          "internalType": "address",
          "name": "_wethToken",
          "type": "address"
        },
        {
          "internalType": "address",
          "name": "_museToken",
          "type": "address"
        },
        {
          "internalType": "address",
          "name": "_daiToken",
          "type": "address"
        },
        {
          "internalType": "address",
          "name": "_router",
          "type": "address"
        }
      ],
      "name": "changeMultipleSettings",
      "outputs": [],
      "stateMutability": "nonpayable",
      "type": "function"
    },
    {
      "inputs": [
        {
          "internalType": "string",
          "name": "_version",
          "type": "string"
        }
      ],
      "name": "changeVersion",
      "outputs": [],
      "stateMutability": "nonpayable",
      "type": "function"
    },
    {
      "inputs": [],
      "name": "contractCounter",
      "outputs": [
        {
          "internalType": "uint256",
          "name": "",
          "type": "uint256"
        }
      ],
      "stateMutability": "view",
      "type": "function"
    },
    {
      "inputs": [],
      "name": "daiToken",
      "outputs": [
        {
          "internalType": "address",
          "name": "",
          "type": "address"
        }
      ],
      "stateMutability": "view",
      "type": "function"
    },
    {
      "inputs": [
        {
          "internalType": "address",
          "name": "_feed",
          "type": "address"
        }
      ],
      "name": "getFeedInfo",
      "outputs": [
        {
          "components": [
            {
              "internalType": "address",
              "name": "contractAddress",
              "type": "address"
            },
            {
              "internalType": "bytes32",
              "name": "operator",
              "type": "bytes32"
            },
            {
              "internalType": "uint256",
              "name": "sellerStake",
              "type": "uint256"
            },
            {
              "internalType": "uint256",
              "name": "buyerStake",
              "type": "uint256"
            },
            {
              "internalType": "uint256",
              "name": "totalStake",
              "type": "uint256"
            },
            {
              "internalType": "uint256",
              "name": "postCount",
              "type": "uint256"
            },
            {
              "internalType": "uint256",
              "name": "paymentRequested",
              "type": "uint256"
            },
            {
              "internalType": "uint256",
              "name": "stakeRequested",
              "type": "uint256"
            },
            {
              "internalType": "enum Structures.PostStatus",
              "name": "status",
              "type": "uint8"
            },
            {
              "internalType": "enum Structures.Tokens",
              "name": "tokenId",
              "type": "uint8"
            },
            {
              "internalType": "string",
              "name": "version",
              "type": "string"
            }
          ],
          "internalType": "struct Structures.Feed",
          "name": "",
          "type": "tuple"
        }
      ],
      "stateMutability": "view",
      "type": "function"
    },
    {
      "inputs": [],
      "name": "getFeeds",
      "outputs": [
        {
          "internalType": "address[]",
          "name": "",
          "type": "address[]"
        }
      ],
      "stateMutability": "view",
      "type": "function"
    },
    {
      "inputs": [],
      "name": "getFeedsInfo",
      "outputs": [
        {
          "components": [
            {
              "internalType": "address",
              "name": "contractAddress",
              "type": "address"
            },
            {
              "internalType": "bytes32",
              "name": "operator",
              "type": "bytes32"
            },
            {
              "internalType": "uint256",
              "name": "sellerStake",
              "type": "uint256"
            },
            {
              "internalType": "uint256",
              "name": "buyerStake",
              "type": "uint256"
            },
            {
              "internalType": "uint256",
              "name": "totalStake",
              "type": "uint256"
            },
            {
              "internalType": "uint256",
              "name": "postCount",
              "type": "uint256"
            },
            {
              "internalType": "uint256",
              "name": "paymentRequested",
              "type": "uint256"
            },
            {
              "internalType": "uint256",
              "name": "stakeRequested",
              "type": "uint256"
            },
            {
              "internalType": "enum Structures.PostStatus",
              "name": "status",
              "type": "uint8"
            },
            {
              "internalType": "enum Structures.Tokens",
              "name": "tokenId",
              "type": "uint8"
            },
            {
              "internalType": "string",
              "name": "version",
              "type": "string"
            }
          ],
          "internalType": "struct Structures.Feed[]",
          "name": "",
          "type": "tuple[]"
        }
      ],
      "stateMutability": "view",
      "type": "function"
    },
    {
      "inputs": [
        {
          "internalType": "bytes32",
          "name": "vaultId",
          "type": "bytes32"
        }
      ],
      "name": "getFeedsInfoOwned",
      "outputs": [
        {
          "components": [
            {
              "internalType": "address",
              "name": "contractAddress",
              "type": "address"
            },
            {
              "internalType": "bytes32",
              "name": "operator",
              "type": "bytes32"
            },
            {
              "internalType": "uint256",
              "name": "sellerStake",
              "type": "uint256"
            },
            {
              "internalType": "uint256",
              "name": "buyerStake",
              "type": "uint256"
            },
            {
              "internalType": "uint256",
              "name": "totalStake",
              "type": "uint256"
            },
            {
              "internalType": "uint256",
              "name": "postCount",
              "type": "uint256"
            },
            {
              "internalType": "uint256",
              "name": "paymentRequested",
              "type": "uint256"
            },
            {
              "internalType": "uint256",
              "name": "stakeRequested",
              "type": "uint256"
            },
            {
              "internalType": "enum Structures.PostStatus",
              "name": "status",
              "type": "uint8"
            },
            {
              "internalType": "enum Structures.Tokens",
              "name": "tokenId",
              "type": "uint8"
            },
            {
              "internalType": "string",
              "name": "version",
              "type": "string"
            }
          ],
          "internalType": "struct Structures.Feed[]",
          "name": "",
          "type": "tuple[]"
        }
      ],
      "stateMutability": "view",
      "type": "function"
    },
    {
      "inputs": [
        {
          "internalType": "bytes32",
          "name": "vaultId",
          "type": "bytes32"
        }
      ],
      "name": "getFeedsOwned",
      "outputs": [
        {
          "internalType": "address[]",
          "name": "",
          "type": "address[]"
        }
      ],
      "stateMutability": "view",
      "type": "function"
    },
    {
      "inputs": [
        {
          "internalType": "uint8",
          "name": "tokenId",
          "type": "uint8"
        }
      ],
      "name": "getRouterFee",
      "outputs": [
        {
          "internalType": "uint24",
          "name": "",
          "type": "uint24"
        }
      ],
      "stateMutability": "view",
      "type": "function"
    },
    {
      "inputs": [],
      "name": "identityContract",
      "outputs": [
        {
          "internalType": "address",
          "name": "",
          "type": "address"
        }
      ],
      "stateMutability": "view",
      "type": "function"
    },
    {
      "inputs": [
        {
          "internalType": "address",
          "name": "contractAddress",
          "type": "address"
        }
      ],
      "name": "isContractCreated",
      "outputs": [
        {
          "internalType": "bool",
          "name": "",
          "type": "bool"
        }
      ],
      "stateMutability": "view",
      "type": "function"
    },
    {
      "inputs": [
        {
          "internalType": "address",
          "name": "_feed",
          "type": "address"
        }
      ],
      "name": "isFeed",
      "outputs": [
        {
          "internalType": "bool",
          "name": "",
          "type": "bool"
        }
      ],
      "stateMutability": "view",
      "type": "function"
    },
    {
      "inputs": [],
      "name": "museToken",
      "outputs": [
        {
          "internalType": "address",
          "name": "",
          "type": "address"
        }
      ],
      "stateMutability": "view",
      "type": "function"
    },
    {
      "inputs": [],
      "name": "owner",
      "outputs": [
        {
          "internalType": "address",
          "name": "",
          "type": "address"
        }
      ],
      "stateMutability": "view",
      "type": "function"
    },
    {
      "inputs": [],
      "name": "renounceOwnership",
      "outputs": [],
      "stateMutability": "nonpayable",
      "type": "function"
    },
    {
      "inputs": [],
      "name": "router",
      "outputs": [
        {
          "internalType": "address",
          "name": "",
          "type": "address"
        }
      ],
      "stateMutability": "view",
      "type": "function"
    },
    {
      "inputs": [
        {
          "internalType": "bool",
          "name": "_burnEnabled",
          "type": "bool"
        }
      ],
      "name": "setBurnEnabled",
      "outputs": [],
      "stateMutability": "nonpayable",
      "type": "function"
    },
    {
      "inputs": [
        {
          "internalType": "bytes",
          "name": "_byteCode",
          "type": "bytes"
        }
      ],
      "name": "setFeedByteCode",
      "outputs": [],
      "stateMutability": "nonpayable",
      "type": "function"
    },
    {
      "inputs": [
        {
          "internalType": "uint8",
          "name": "tokenId",
          "type": "uint8"
        },
        {
          "internalType": "uint24",
          "name": "fee",
          "type": "uint24"
        }
      ],
      "name": "setRouterFee",
      "outputs": [],
      "stateMutability": "nonpayable",
      "type": "function"
    },
    {
      "inputs": [
        {
          "internalType": "address",
          "name": "newOwner",
          "type": "address"
        }
      ],
      "name": "transferOwnership",
      "outputs": [],
      "stateMutability": "nonpayable",
      "type": "function"
    },
    {
      "inputs": [],
      "name": "treasuryContract",
      "outputs": [
        {
          "internalType": "address",
          "name": "",
          "type": "address"
        }
      ],
      "stateMutability": "view",
      "type": "function"
    },
    {
      "inputs": [],
      "name": "version",
      "outputs": [
        {
          "internalType": "string",
          "name": "",
          "type": "string"
        }
      ],
      "stateMutability": "view",
      "type": "function"
    },
    {
      "inputs": [],
      "name": "wethToken",
      "outputs": [
        {
          "internalType": "address",
          "name": "",
          "type": "address"
        }
      ],
      "stateMutability": "view",
      "type": "function"
    },
    {
      "stateMutability": "payable",
      "type": "receive"
    }
  ],
  "bytecode": "0x608034620000f157601f62001e6438819003918201601f19168301916001600160401b03831184841017620000f657808492606094604052833981010312620000f1576200004d816200010c565b62000069604062000061602085016200010c565b93016200010c565b600080546001600160a01b03198082163390811784556040519691956001600160a01b0395948694859391908416907f8be0079c531659141344cd1fd0a4f28419497f9722a3daafe3b4186f6b6457e09080a360ff1960105416601055168560075416176007551683600654161760065516906008541617600855611d429081620001228239f35b600080fd5b634e487b7160e01b600052604160045260246000fd5b51906001600160a01b0382168203620000f15756fe6080604052600436101561001b575b361561001957600080fd5b005b60003560e01c8063067bd3b4146101b657806318da0011146101b15780632327c3ab146101ac578063237b0d3c146101a75780632ae219b9146101a25780634b57b0be1461019d578063546008371461019857806354fd4d50146101935780635dc96d161461018e57806364bb432c1461018957806367031bae146101845780636d944e601461017f578063715018a61461017a5780637b2c835f146101755780637fe955d4146101705780638da5cb5b1461016b578063be22f54614610166578063cedf3ba214610157578063d223a56414610161578063d570a66d1461015c578063e58fdd0414610157578063e86ef35314610152578063e9318b471461014d578063f2fde38b14610148578063f77800e5146101435763f887ea400361000e5761113b565b611112565b61104f565b610ffb565b610f80565b610eb7565b610f3f565b610f06565b610e8e565b610e65565b610dea565b610db0565b610d4b565b610cd3565b610b7e565b610a67565b610a44565b61096f565b61087c565b6107fd565b61072f565b6105d6565b610334565b6101d9565b346101d45760003660031901126101d4576020600354604051908152f35b600080fd5b346101d45760003660031901126101d4576006546040516001600160a01b039091168152602090f35b634e487b7160e01b600052604160045260246000fd5b90601f8019910116810190811067ffffffffffffffff82111761023a57604052565b610202565b67ffffffffffffffff811161023a57601f01601f191660200190565b9291926102678261023f565b916102756040519384610218565b8294818452818301116101d4578281602093846000960137010152565b9080601f830112156101d4578160206102ad9335910161025b565b90565b602435906001600160a01b03821682036101d457565b604435906001600160a01b03821682036101d457565b600435906001600160a01b03821682036101d457565b606435906001600160a01b03821682036101d457565b608435906001600160a01b03821682036101d457565b60a435906001600160a01b03821682036101d457565b60603660031901126101d45760043567ffffffffffffffff81116101d457610360903690600401610292565b6103686102b0565b6103706102c6565b6008546001600160a01b03169161039c6040519283926307c93c8f60e01b8452600096600485016113c6565b6001600160a01b039391859184919003818685165afa9182156105a75784926105ac575b50815160209283012060075490926103ef92916001600160a01b03169160405193849130908588868601611401565b03610402601f1991828101865285610218565b604051630e2ab4cb60e21b815260048101869052928290849060249082908a165afa9182156105a7576104436104d1936104bf958a9161057a575b506114e2565b61045661044e611831565b341015611524565b610491888080803461048161047561047560065460018060a01b031690565b6001600160a01b031690565b5af161048b611561565b50611591565b6104a461049f6003546115cb565b600355565b6104c56104af6115f0565b95604051958693840180986116ac565b906116ac565b03908101835282610218565b519084f091823b1561057657916105729161052e826105297fb658664a46408e6670a38ec7ea8b7614c9e2916184dff2fad99d3a7a3491ca7d9796821693610518856116ec565b50600052600e602052604060002090565b6116c3565b506001600160a01b0382166000908152600f6020526040902061055890805460ff19166001179055565b60405194848695a26001600160a01b031682526020820190565b0390f35b8380fd5b61059a9150833d85116105a0575b6105928183610218565b8101906114cd565b3861043d565b503d610588565b6113f5565b6103ef9192506105cd903d8087833e6105c58183610218565b810190611380565b505091906103c0565b346101d4576020806003193601126101d45767ffffffffffffffff6004358181116101d457610609903690600401610292565b610611611164565b805191821161023a5761062e826106296002546108ed565b6111d3565b8290601f83116001146106a0579282610682936106909361001996600092610695575b50508160011b916000199060031b1c1916176002555b60405192839182016006906576322e302e3160d01b81520190565b03601f198101835282610218565b61127a565b015190503880610651565b6002600052601f19831691907f405787fa12a823e0f2b7631cc41b3ba8828b3321ca811111fa75cd3aa3bb5ace9260005b8181106107185750936106909361001996936001938361068298106106ff575b505050811b01600255610667565b015160001960f88460031b161c191690553880806106f1565b9293866001819287860151815501950193016106d1565b346101d45760c03660031901126101d45761001961074b6102dc565b6107e06107566102b0565b9161075f6102c6565b906107686102f2565b91610771610308565b9261077a61031e565b95610783611164565b60018060a01b0392838092816001600160601b0360a01b9716876006541617600655168560075416176007551683600b541617600b551690600954161760095560018060a01b03166001600160601b0360a01b600a541617600a55565b60018060a01b03166001600160601b0360a01b600c541617600c55565b346101d45760003660031901126101d457600b546040516001600160a01b039091168152602090f35b60209060031901126101d45760043590565b6020908160408183019282815285518094520193019160005b82811061085f575050505090565b83516001600160a01b031685529381019392810192600101610851565b346101d45761088a36610826565b6000526020600e8152604060002090604051908181845491828152019360005281600020916000905b8282106108d657610572856108ca81890382610218565b60405191829182610838565b8354865294850194600193840193909101906108b3565b90600182811c9216801561091d575b602083101461090757565b634e487b7160e01b600052602260045260246000fd5b91607f16916108fc565b60005b83811061093a5750506000910152565b818101518382015260200161092a565b9060209161096381518092818552858086019101610927565b601f01601f1916010190565b346101d457600080600319360112610a415760405190806001805491610994836108ed565b80865292828116908115610a1757506001146109cf575b610572856109bb81870382610218565b60405191829160208352602083019061094a565b9250808352600080516020611ced8339815191525b8284106109ff5750505081016020016109bb826105726109ab565b805460208587018101919091529093019281016109e4565b869550610572969350602092506109bb94915060ff191682840152151560051b82010192936109ab565b80fd5b346101d45760003660031901126101d457602060ff601054166040519015158152f35b346101d4576020806003193601126101d45767ffffffffffffffff906004358281116101d457366023820112156101d457610aac90369060248160040135910161025b565b91610ab5611164565b825190811161023a57600191610ad482610acf85546108ed565b611236565b80601f8311600114610b0c5750819293600092610b01575b5050600019600383901b1c191690821b179055005b015190503880610aec565b90601f19831694610b2d6001600052600080516020611ced83398151915290565b926000905b878210610b6757505083859610610b4e575b505050811b019055005b015160001960f88460031b161c19169055388080610b44565b808785968294968601518155019501930190610b32565b346101d45760003660031901126101d4576008546040516001600160a01b039091168152602090f35b634e487b7160e01b600052602160045260246000fd5b906008821015610bca5752565b610ba7565b906003821015610bca5752565b80516001600160a01b031682526102ad91906020810151602083015260408101516040830152606081015160608301526080810151608083015260a081015160a083015260c081015160c083015260e081015160e0830152610c476101008083015190840190610bbd565b610c5a6101208083015190840190610bcf565b61014080910151916101608092820152019061094a565b602080820190808352835180925260408301928160408460051b8301019501936000915b848310610ca55750505050505090565b9091929394958480610cc3600193603f198682030187528a51610bdc565b9801930193019194939290610c95565b346101d457610ce136610826565b6000526020600e81526040600020604051918281835491828152019260005281600020916000905b828210610d3457610572610d2887610d2381890382610218565b611c50565b60405191829182610c71565b835485529384019360019384019390910190610d09565b346101d457600080600319360112610a4157610d65611164565b80546001600160a01b03198116825581906001600160a01b03167f8be0079c531659141344cd1fd0a4f28419497f9722a3daafe3b4186f6b6457e08280a380f35b801515036101d457565b346101d45760203660031901126101d457600435610dcd81610da6565b610dd5611164565b60ff8019601054169115151617601055600080f35b346101d45760003660031901126101d457604051806004549182815260208091019260046000527f8a35acfbc15ff81a39ae7d344fd709f28e8600b4aa8c65c6b64bfe7fe36bd19b916000905b828210610e4e57610572856108ca81890382610218565b835486529485019460019384019390910190610e37565b346101d45760003660031901126101d4576000546040516001600160a01b039091168152602090f35b346101d45760003660031901126101d457600a546040516001600160a01b039091168152602090f35b346101d45760203660031901126101d4576001600160a01b03610ed86102dc565b16600052600f602052602060ff604060002054166040519015158152f35b6004359060ff821682036101d457565b346101d45760203660031901126101d45760ff610f21610ef6565b16600052600d602052602062ffffff60406000205416604051908152f35b346101d45760203660031901126101d457610572610f6c610f5e6102dc565b610f666117be565b50611910565b604051918291602083526020830190610bdc565b346101d45760003660031901126101d4576040516004805480835260009182526020808401927f8a35acfbc15ff81a39ae7d344fd709f28e8600b4aa8c65c6b64bfe7fe36bd19b92915b828210610fe457610572610d2887610d2381890382610218565b835485529384019360019384019390910190610fca565b346101d45760403660031901126101d457611014610ef6565b6024359062ffffff82168092036101d45760ff90611030611164565b16600052600d60205260406000209062ffffff19825416179055600080f35b346101d45760203660031901126101d4576110686102dc565b611070611164565b6001600160a01b0390811680156110be57600080546001600160a01b03198116831782559092167f8be0079c531659141344cd1fd0a4f28419497f9722a3daafe3b4186f6b6457e08380a380f35b60405162461bcd60e51b815260206004820152602660248201527f4f776e61626c653a206e6577206f776e657220697320746865207a65726f206160448201526564647265737360d01b6064820152608490fd5b346101d45760003660031901126101d4576009546040516001600160a01b039091168152602090f35b346101d45760003660031901126101d457600c546040516001600160a01b039091168152602090f35b6000546001600160a01b0316330361117857565b606460405162461bcd60e51b815260206004820152602060248201527f4f776e61626c653a2063616c6c6572206973206e6f7420746865206f776e65726044820152fd5b8181106111c7575050565b600081556001016111bc565b90601f82116111e0575050565b61122a9160026000527f405787fa12a823e0f2b7631cc41b3ba8828b3321ca811111fa75cd3aa3bb5ace906020601f840160051c8301931061122c575b601f0160051c01906111bc565b565b909150819061121d565b90601f8211611243575050565b61122a916001600052600080516020611ced833981519152906020601f840160051c8301931061122c57601f0160051c01906111bc565b90815167ffffffffffffffff811161023a5760019061129d81610acf84546108ed565b602080601f83116001146112d85750819293946000926112cd575b5050600019600383901b1c191690821b179055565b0151905038806112b8565b90601f198316956112f96001600052600080516020611ced83398151915290565b926000905b888210611334575050838596971061131b575b505050811b019055565b015160001960f88460031b161c19169055388080611311565b8087859682949686015181550195019301906112fe565b909291926113588161023f565b916113666040519384610218565b8294828452828201116101d457602061122a930190610927565b906060828203126101d457815167ffffffffffffffff81116101d45782019080601f830112156101d45781516113b89260200161134b565b916040602083015192015190565b916113de60409295949560608552606085019061094a565b6001600160a01b0391821660208501529416910152565b6040513d6000823e3d90fd5b9081526001600160a01b0391821660208083019190915292821660408201529216606083015260a060808301526001805460009390929091611442846108ed565b938460a085015281811690816000146114aa5750600114611465575b5050505090565b6000818152939450600080516020611ced8339815191525b8585106114965750505060c0925001013880808061145e565b805485850160c0015293820193810161147d565b9250505060c0935060ff929192191683830152151560051b01013880808061145e565b908160209103126101d457516102ad81610da6565b156114e957565b60405162461bcd60e51b81526020600482015260136024820152721d5cd95c88191bd95cc81b9bdd08195e1a5cdd606a1b6044820152606490fd5b1561152b57565b60405162461bcd60e51b815260206004820152600e60248201526d4e4f545f454e4f5547485f46454560901b6044820152606490fd5b3d1561158c573d906115728261023f565b916115806040519384610218565b82523d6000602084013e565b606090565b1561159857565b60405162461bcd60e51b815260206004820152600b60248201526a10d0531317d1905253115160aa1b6044820152606490fd5b60001981146115da5760010190565b634e487b7160e01b600052601160045260246000fd5b6040519060008260025491611604836108ed565b8083529260019081811690811561168a575060011461162b575b5061122a92500383610218565b6002600090815291507f405787fa12a823e0f2b7631cc41b3ba8828b3321ca811111fa75cd3aa3bb5ace5b84831061166f575061122a93505081016020013861161e565b81935090816020925483858a01015201910190918592611656565b90506020925061122a94915060ff191682840152151560051b8201013861161e565b906116bf60209282815194859201610927565b0190565b6102ad916001600160a01b031690611768565b634e487b7160e01b600052603260045260246000fd5b8060005260056020526040600020541560001461176257600454600160401b81101561023a57600181018060045581101561175d5781907f8a35acfbc15ff81a39ae7d344fd709f28e8600b4aa8c65c6b64bfe7fe36bd19b0155600454906000526005602052604060002055600190565b6116d6565b50600090565b600082815260018201602081905260408220546117b757825492600160401b84101561023a576001840180825584101561175d5784604094828552602085200155549382526020522055600190565b5091505090565b60405190610160820182811067ffffffffffffffff82111761023a57604052606061014083600080825280602083015280604083015280848301528060808301528060a08301528060c08301528060e0830152806101008301526101208201520152565b908160209103126101d4575190565b6006546040516391792d5b60e01b815290602090829060049082906001600160a01b03165afa9081156105a757600091611869575090565b6102ad915060203d811161188a575b6118828183610218565b810190611822565b503d611878565b908160209103126101d4575160088110156101d45790565b6008821015610bca5752565b908160209103126101d4575160038110156101d45790565b6003821015610bca5752565b6020818303126101d45780519067ffffffffffffffff82116101d457019080601f830112156101d45781516102ad9260200161134b565b6119186117be565b506119216117be565b6001600160a01b0390911680825260408051638da5cb5b60e01b8152600492602092909183818681865afa9081156105a757600091611c07575b50858401528051635c63ed6960e01b815283818681865afa9081156105a757600091611bea575b50858201528051634c38d87760e01b815283818681865afa9081156105a757600091611bcd575b506060860152805163048bf3bb60e11b815283818681865afa9081156105a757600091611bb0575b5060808601528051630bc8361760e11b815283818681865afa9081156105a757600091611b93575b5060a0860152805163d24e0c8760e01b815283818681865afa9081156105a757600091611b76575b5060c0860152805163faeb5e1760e01b815283818681865afa9081156105a757600091611b59575b5060e086015280516302734eab60e51b815283818681865afa80156105a757611a7f91600091611b2c575b5061010087016118a9565b805163010a38f560e01b81529280848681865afa80156105a757600094611ab3928692611aff575b505061012087016118cd565b5163054fd4d560e41b815292839182905afa9081156105a757600091611ade575b5061014082015290565b611af9913d8091833e611af18183610218565b8101906118d9565b38611ad4565b611b1e9250803d10611b25575b611b168183610218565b8101906118b5565b3880611aa7565b503d611b0c565b611b4c9150853d8711611b52575b611b448183610218565b810190611891565b38611a74565b503d611b3a565b611b709150843d861161188a576118828183610218565b38611a49565b611b8d9150843d861161188a576118828183610218565b38611a21565b611baa9150843d861161188a576118828183610218565b386119f9565b611bc79150843d861161188a576118828183610218565b386119d1565b611be49150843d861161188a576118828183610218565b386119a9565b611c019150843d861161188a576118828183610218565b38611982565b611c1e9150843d861161188a576118828183610218565b3861195b565b67ffffffffffffffff811161023a5760051b60200190565b805182101561175d5760209160051b010190565b8051611c5b81611c24565b91611c696040519384610218565b818352601f19611c7883611c24565b0160005b818110611cd557505060005b828110611c955750505090565b611cd090611cb56001600160a01b03611cae8386611c3c565b5116611910565b611cbf8287611c3c565b52611cca8186611c3c565b506115cb565b611c88565b602090611ce06117be565b82828801015201611c7c56feb10e2d527612073b26eecdfd717e6a320cf44b4afac2b0732d9fcbe2b7fa0cf6a2646970667358221220b43bd163c44668a321d01d9de2009c5a3d69174dbb86f534379279d3904d6d9964736f6c63430008130033",
  "linkReferences": {},
  "deployedLinkReferences": {}
}