{
  "_format": "hh-sol-artifact-1",
  "contractName": "MecenateAttesterResolver",
  "sourceName": "contracts/helpers/MecenateAttesterResolver.sol",
  "abi": [
    {
      "inputs": [
        {
          "internalType": "contract IEAS",
          "name": "eas",
          "type": "address"
        }
      ],
      "stateMutability": "nonpayable",
      "type": "constructor"
    },
    {
      "inputs": [],
      "name": "AccessDenied",
      "type": "error"
    },
    {
      "inputs": [],
      "name": "InsufficientValue",
      "type": "error"
    },
    {
      "inputs": [],
      "name": "InvalidEAS",
      "type": "error"
    },
    {
      "inputs": [],
      "name": "InvalidLength",
      "type": "error"
    },
    {
      "inputs": [],
      "name": "NotPayable",
      "type": "error"
    },
    {
      "inputs": [
        {
          "components": [
            {
              "internalType": "bytes32",
              "name": "uid",
              "type": "bytes32"
            },
            {
              "internalType": "bytes32",
              "name": "schema",
              "type": "bytes32"
            },
            {
              "internalType": "uint64",
              "name": "time",
              "type": "uint64"
            },
            {
              "internalType": "uint64",
              "name": "expirationTime",
              "type": "uint64"
            },
            {
              "internalType": "uint64",
              "name": "revocationTime",
              "type": "uint64"
            },
            {
              "internalType": "bytes32",
              "name": "refUID",
              "type": "bytes32"
            },
            {
              "internalType": "address",
              "name": "recipient",
              "type": "address"
            },
            {
              "internalType": "address",
              "name": "attester",
              "type": "address"
            },
            {
              "internalType": "bool",
              "name": "revocable",
              "type": "bool"
            },
            {
              "internalType": "bytes",
              "name": "data",
              "type": "bytes"
            }
          ],
          "internalType": "struct Attestation",
          "name": "attestation",
          "type": "tuple"
        }
      ],
      "name": "attest",
      "outputs": [
        {
          "internalType": "bool",
          "name": "",
          "type": "bool"
        }
      ],
      "stateMutability": "payable",
      "type": "function"
    },
    {
      "inputs": [],
      "name": "isPayable",
      "outputs": [
        {
          "internalType": "bool",
          "name": "",
          "type": "bool"
        }
      ],
      "stateMutability": "pure",
      "type": "function"
    },
    {
      "inputs": [
        {
          "components": [
            {
              "internalType": "bytes32",
              "name": "uid",
              "type": "bytes32"
            },
            {
              "internalType": "bytes32",
              "name": "schema",
              "type": "bytes32"
            },
            {
              "internalType": "uint64",
              "name": "time",
              "type": "uint64"
            },
            {
              "internalType": "uint64",
              "name": "expirationTime",
              "type": "uint64"
            },
            {
              "internalType": "uint64",
              "name": "revocationTime",
              "type": "uint64"
            },
            {
              "internalType": "bytes32",
              "name": "refUID",
              "type": "bytes32"
            },
            {
              "internalType": "address",
              "name": "recipient",
              "type": "address"
            },
            {
              "internalType": "address",
              "name": "attester",
              "type": "address"
            },
            {
              "internalType": "bool",
              "name": "revocable",
              "type": "bool"
            },
            {
              "internalType": "bytes",
              "name": "data",
              "type": "bytes"
            }
          ],
          "internalType": "struct Attestation[]",
          "name": "attestations",
          "type": "tuple[]"
        },
        {
          "internalType": "uint256[]",
          "name": "values",
          "type": "uint256[]"
        }
      ],
      "name": "multiAttest",
      "outputs": [
        {
          "internalType": "bool",
          "name": "",
          "type": "bool"
        }
      ],
      "stateMutability": "payable",
      "type": "function"
    },
    {
      "inputs": [
        {
          "components": [
            {
              "internalType": "bytes32",
              "name": "uid",
              "type": "bytes32"
            },
            {
              "internalType": "bytes32",
              "name": "schema",
              "type": "bytes32"
            },
            {
              "internalType": "uint64",
              "name": "time",
              "type": "uint64"
            },
            {
              "internalType": "uint64",
              "name": "expirationTime",
              "type": "uint64"
            },
            {
              "internalType": "uint64",
              "name": "revocationTime",
              "type": "uint64"
            },
            {
              "internalType": "bytes32",
              "name": "refUID",
              "type": "bytes32"
            },
            {
              "internalType": "address",
              "name": "recipient",
              "type": "address"
            },
            {
              "internalType": "address",
              "name": "attester",
              "type": "address"
            },
            {
              "internalType": "bool",
              "name": "revocable",
              "type": "bool"
            },
            {
              "internalType": "bytes",
              "name": "data",
              "type": "bytes"
            }
          ],
          "internalType": "struct Attestation[]",
          "name": "attestations",
          "type": "tuple[]"
        },
        {
          "internalType": "uint256[]",
          "name": "values",
          "type": "uint256[]"
        }
      ],
      "name": "multiRevoke",
      "outputs": [
        {
          "internalType": "bool",
          "name": "",
          "type": "bool"
        }
      ],
      "stateMutability": "payable",
      "type": "function"
    },
    {
      "inputs": [
        {
          "components": [
            {
              "internalType": "bytes32",
              "name": "uid",
              "type": "bytes32"
            },
            {
              "internalType": "bytes32",
              "name": "schema",
              "type": "bytes32"
            },
            {
              "internalType": "uint64",
              "name": "time",
              "type": "uint64"
            },
            {
              "internalType": "uint64",
              "name": "expirationTime",
              "type": "uint64"
            },
            {
              "internalType": "uint64",
              "name": "revocationTime",
              "type": "uint64"
            },
            {
              "internalType": "bytes32",
              "name": "refUID",
              "type": "bytes32"
            },
            {
              "internalType": "address",
              "name": "recipient",
              "type": "address"
            },
            {
              "internalType": "address",
              "name": "attester",
              "type": "address"
            },
            {
              "internalType": "bool",
              "name": "revocable",
              "type": "bool"
            },
            {
              "internalType": "bytes",
              "name": "data",
              "type": "bytes"
            }
          ],
          "internalType": "struct Attestation",
          "name": "attestation",
          "type": "tuple"
        }
      ],
      "name": "revoke",
      "outputs": [
        {
          "internalType": "bool",
          "name": "",
          "type": "bool"
        }
      ],
      "stateMutability": "payable",
      "type": "function"
    },
    {
      "inputs": [],
      "name": "version",
      "outputs": [
        {
          "internalType": "string",
          "name": "",
          "type": "string"
        }
      ],
      "stateMutability": "view",
      "type": "function"
    },
    {
      "stateMutability": "payable",
      "type": "receive"
    }
  ],
  "bytecode": "0x610100346100ad57601f610d2b38819003918201601f19168301916001600160401b038311848410176100b2578084926020946040528339810103126100ad57516001600160a01b0381168082036100ad576001608052600260a052600060c0521561009b5760e052604051610c6290816100c982396080518161018a015260a051816101b4015260c051816101de015260e05181610a820152f35b6040516341bc07ff60e11b8152600490fd5b600080fd5b634e487b7160e01b600052604160045260246000fdfe60406080815260049081361015610029575b361561001c57600080fd5b51631574f9f360e01b8152fd5b6000803560e01c90816354fd4d501461017257816388e5b2d9146100f257816391db0b7e146100d2578163ce46e046146100b457508063e49617e1146100985763e60c3505036100115760209061008f6100823661033d565b61008a610a80565b610455565b90519015158152f35b6020826100a43661033d565b506100ad610a80565b5160018152f35b82346100ce57816003193601126100ce5751908152602090f35b5080fd5b60208361008f6100e1366102f2565b926100ed929192610a80565b6109f9565b82846100fd366102f2565b61010c96939296949194610a80565b80870361016357345b878510610126576020875160018152f35b6101318583886109b0565b35908082116101535790600191610149878b886109d6565b5003940193610115565b875163044044a560e21b81528490fd5b50845163251f56a160e21b8152fd5b905034610296578060031936011261029657506101ae7f0000000000000000000000000000000000000000000000000000000000000000610ac4565b906101d87f0000000000000000000000000000000000000000000000000000000000000000610ac4565b916102027f0000000000000000000000000000000000000000000000000000000000000000610ac4565b9061026c602284518094602097886102238185019788815193849201610299565b830190601760f91b91828b820152610244825180938d602185019101610299565b0190602182015261025d825180938b8785019101610299565b010360028101855201836103be565b6102888351948593818552519283809286015285850190610299565b601f01601f19168101030190f35b80fd5b60005b8381106102ac5750506000910152565b818101518382015260200161029c565b9181601f840112156102ed5782359167ffffffffffffffff83116102ed576020808501948460051b0101116102ed57565b600080fd5b60406003198201126102ed5767ffffffffffffffff916004358381116102ed578261031f916004016102bc565b939093926024359182116102ed57610339916004016102bc565b9091565b600319906020818301126102ed576004359167ffffffffffffffff83116102ed5782610140920301126102ed5760040190565b6060810190811067ffffffffffffffff82111761038c57604052565b634e487b7160e01b600052604160045260246000fd5b60c0810190811067ffffffffffffffff82111761038c57604052565b90601f8019910116810190811067ffffffffffffffff82111761038c57604052565b67ffffffffffffffff811161038c57601f01601f191660200190565b81601f820112156102ed578051610412816103e0565b9261042060405194856103be565b818452602082840101116102ed5761043e9160208085019101610299565b90565b51906001600160a01b03821682036102ed57565b6101209081810135601e19823603018112156102ed5781019182359267ffffffffffffffff908185116102ed576020938482019580360387136102ed5782018581019660609184900382136102ed5735938415948515036102ed576040956001600160a01b0394808801358681169491908590036102ed5781810135908482116102ed5701938a603f860112156102ed57898501356104f3816103e0565b906105008b5192836103be565b8082528b82019c8b82890101116102ed57808d8c8e9901903760009687918301015289519b63729e2eb160e01b8d528c8760049e8f81875afa9081156109a657889161096e575b508c8151910120915190200361092b5788516302734eab60e51b81528a818d81855afa9081156109215786916108eb575b5060088110156108d8578b036108a05790848b9493928a51958680926346341c5d60e11b82525afa93841561089657918793918b93879661064a575b505050508060e093015101515116920135928316809303610296575003610615576105e157505050600190565b5162461bcd60e51b815291820152601060248201526f2ba927a723902b20a624a220aa24a7a760811b604482015260649150fd5b505162461bcd60e51b815291820152601060248201526f24a72b20a624a21020aa2a22a9aa22a960811b604482015260649150fd5b929550925092503d8086833e61066081836103be565b8101908a818303126108725780519085821161086a5701938985830312610872578951948a86018681108382111761088257808c52815183811161087a578201858186031261087a576106b282610370565b6106bb81610441565b82528d81015184811161087e57856106d49183016103fc565b868901528c8101519084821161087e576106f0918691016103fc565b608088015286528b8101519082821161086e5701808303946101a0861261086e578b519561071d87610370565b60c0811261087a578c51610730816103a2565b83516008811015610876578152838f01516005811015610876578f8201528d808501519082015286840151878201526080840151608082015260a084015160038110156108765760a0820152875260c060bf199091011261086e578b5190610797826103a2565b6107a360c08401610441565b82528d6107b260e08501610441565b908301526101008301518d83015282015185820152610140820151608082015261016082015160a08201528c8601526101808101519082821161086e570192838303126108725789519261080584610370565b805182811161086e578361081a9183016103fc565b84528b81015182811161086e57836108339183016103fc565b8c8501528a81015191821161086a57938b93610856859460e098948c98016103fc565b8c8201528b820152828201529338806105b4565b8680fd5b8780fd5b8580fd5b8a80fd5b8880fd5b8980fd5b50634e487b7160e01b875260418d52602487fd5b89513d87823e3d90fd5b885162461bcd60e51b8152808c018b905260126024820152711413d4d5081393d50811925390531256915160721b6044820152606490fd5b634e487b7160e01b865260218c52602486fd5b90508a81813d831161091a575b61090281836103be565b81010312610872575160088110156108725738610578565b503d6108f8565b8a513d88823e3d90fd5b885162461bcd60e51b8152808c018b9052601d60248201527f454e4352595054454420504f535420444f4553204e4f54204d415443480000006044820152606490fd5b90503d8089833e61097f81836103be565b8101908d8183031261087a5780519088821161087e576109a09291016103fc565b38610547565b8c513d8a823e3d90fd5b91908110156109c05760051b0190565b634e487b7160e01b600052603260045260246000fd5b91908110156109c05760051b8101359061013e19813603018212156102ed570190565b909192808303610a6e576000918291345b858510610a1d5750505050505050600190565b610a288583896109b0565b3590808211610a5c57610a3f61008a8789876109d6565b15610a51579060019103940193610a0a565b505050509250505090565b60405163044044a560e21b8152600490fd5b60405163251f56a160e21b8152600490fd5b7f00000000000000000000000000000000000000000000000000000000000000006001600160a01b03163303610ab257565b604051634ca8886760e01b8152600490fd5b806000917a184f03e93ff9f4daa797ed6e38ed64bf6a1f01000000000000000080821015610c1e575b506d04ee2d6d415b85acef810000000080831015610c0f575b50662386f26fc1000080831015610c00575b506305f5e10080831015610bf1575b5061271080831015610be2575b506064821015610bd2575b600a80921015610bc8575b60019081602181860195610b5d876103e0565b96610b6b60405198896103be565b808852610b7a601f19916103e0565b01366020890137860101905b610b92575b5050505090565b600019019083906f181899199a1a9b1b9c1cb0b131b232b360811b8282061a835304918215610bc357919082610b86565b610b8b565b9160010191610b4a565b9190606460029104910191610b3f565b60049193920491019138610b34565b60089193920491019138610b27565b60109193920491019138610b18565b60209193920491019138610b06565b604093508104915038610aed56fea2646970667358221220997f0b35981c551032a7fcfaf9f2a187960f1785dc75f1b9dbe867523af71f3e64736f6c63430008130033",
  "linkReferences": {},
  "deployedLinkReferences": {}
}