{
  "_format": "hh-sol-artifact-1",
  "contractName": "MecenateUsers",
  "sourceName": "contracts/registry/MecenateUsers.sol",
  "abi": [
    {
      "inputs": [
        {
          "internalType": "address",
          "name": "_verifierContract",
          "type": "address"
        },
        {
          "internalType": "address",
          "name": "_treasuryContract",
          "type": "address"
        }
      ],
      "stateMutability": "nonpayable",
      "type": "constructor"
    },
    {
      "anonymous": false,
      "inputs": [
        {
          "indexed": true,
          "internalType": "address",
          "name": "previousOwner",
          "type": "address"
        },
        {
          "indexed": true,
          "internalType": "address",
          "name": "newOwner",
          "type": "address"
        }
      ],
      "name": "OwnershipTransferred",
      "type": "event"
    },
    {
      "anonymous": false,
      "inputs": [
        {
          "indexed": false,
          "internalType": "bytes32",
          "name": "vaultId",
          "type": "bytes32"
        }
      ],
      "name": "UserRegistered",
      "type": "event"
    },
    {
      "inputs": [
        {
          "internalType": "address",
          "name": "_treasury",
          "type": "address"
        }
      ],
      "name": "changeTreasury",
      "outputs": [],
      "stateMutability": "nonpayable",
      "type": "function"
    },
    {
      "inputs": [
        {
          "internalType": "bytes",
          "name": "sismoConnectResponse",
          "type": "bytes"
        },
        {
          "internalType": "address",
          "name": "_to",
          "type": "address"
        },
        {
          "internalType": "address",
          "name": "_from",
          "type": "address"
        },
        {
          "internalType": "string",
          "name": "_username",
          "type": "string"
        }
      ],
      "name": "changeUserName",
      "outputs": [],
      "stateMutability": "nonpayable",
      "type": "function"
    },
    {
      "inputs": [
        {
          "internalType": "address",
          "name": "_verifier",
          "type": "address"
        }
      ],
      "name": "changeVerifier",
      "outputs": [],
      "stateMutability": "nonpayable",
      "type": "function"
    },
    {
      "inputs": [
        {
          "internalType": "bytes32",
          "name": "vaultId",
          "type": "bytes32"
        }
      ],
      "name": "checkifUserExist",
      "outputs": [
        {
          "internalType": "bool",
          "name": "",
          "type": "bool"
        }
      ],
      "stateMutability": "view",
      "type": "function"
    },
    {
      "inputs": [
        {
          "internalType": "uint256",
          "name": "startIndex",
          "type": "uint256"
        },
        {
          "internalType": "uint256",
          "name": "endIndex",
          "type": "uint256"
        }
      ],
      "name": "getPaginatedUsers",
      "outputs": [
        {
          "internalType": "bytes32[]",
          "name": "users",
          "type": "bytes32[]"
        }
      ],
      "stateMutability": "view",
      "type": "function"
    },
    {
      "inputs": [
        {
          "internalType": "uint256",
          "name": "index",
          "type": "uint256"
        }
      ],
      "name": "getUserAt",
      "outputs": [
        {
          "internalType": "bytes32",
          "name": "user",
          "type": "bytes32"
        }
      ],
      "stateMutability": "view",
      "type": "function"
    },
    {
      "inputs": [],
      "name": "getUserCount",
      "outputs": [
        {
          "internalType": "uint256",
          "name": "count",
          "type": "uint256"
        }
      ],
      "stateMutability": "view",
      "type": "function"
    },
    {
      "inputs": [
        {
          "internalType": "bytes32",
          "name": "vaultId",
          "type": "bytes32"
        }
      ],
      "name": "getUserName",
      "outputs": [
        {
          "internalType": "string",
          "name": "",
          "type": "string"
        }
      ],
      "stateMutability": "view",
      "type": "function"
    },
    {
      "inputs": [
        {
          "internalType": "uint256",
          "name": "index",
          "type": "uint256"
        }
      ],
      "name": "getUserVaultIdAt",
      "outputs": [
        {
          "internalType": "bytes32",
          "name": "user",
          "type": "bytes32"
        }
      ],
      "stateMutability": "view",
      "type": "function"
    },
    {
      "inputs": [],
      "name": "getUsers",
      "outputs": [
        {
          "internalType": "bytes32[]",
          "name": "users",
          "type": "bytes32[]"
        }
      ],
      "stateMutability": "view",
      "type": "function"
    },
    {
      "inputs": [],
      "name": "owner",
      "outputs": [
        {
          "internalType": "address",
          "name": "",
          "type": "address"
        }
      ],
      "stateMutability": "view",
      "type": "function"
    },
    {
      "inputs": [
        {
          "internalType": "bytes",
          "name": "sismoConnectResponse",
          "type": "bytes"
        },
        {
          "internalType": "address",
          "name": "_to",
          "type": "address"
        },
        {
          "internalType": "address",
          "name": "_from",
          "type": "address"
        },
        {
          "internalType": "string",
          "name": "_username",
          "type": "string"
        }
      ],
      "name": "registerUser",
      "outputs": [],
      "stateMutability": "nonpayable",
      "type": "function"
    },
    {
      "inputs": [],
      "name": "renounceOwnership",
      "outputs": [],
      "stateMutability": "nonpayable",
      "type": "function"
    },
    {
      "inputs": [
        {
          "internalType": "address",
          "name": "newOwner",
          "type": "address"
        }
      ],
      "name": "transferOwnership",
      "outputs": [],
      "stateMutability": "nonpayable",
      "type": "function"
    },
    {
      "inputs": [],
      "name": "treasuryContract",
      "outputs": [
        {
          "internalType": "address",
          "name": "",
          "type": "address"
        }
      ],
      "stateMutability": "view",
      "type": "function"
    },
    {
      "inputs": [
        {
          "internalType": "bytes32",
          "name": "",
          "type": "bytes32"
        }
      ],
      "name": "userNames",
      "outputs": [
        {
          "internalType": "string",
          "name": "",
          "type": "string"
        }
      ],
      "stateMutability": "view",
      "type": "function"
    },
    {
      "inputs": [],
      "name": "verifierContract",
      "outputs": [
        {
          "internalType": "address",
          "name": "",
          "type": "address"
        }
      ],
      "stateMutability": "view",
      "type": "function"
    }
  ],
  "bytecode": "0x6080346100c357601f610fdd38819003918201601f19168301916001600160401b038311848410176100c85780849260409485528339810103126100c357610052602061004b836100de565b92016100de565b60008054336001600160a01b0319808316821784556040519590946001600160a01b03949093859391908416907f8be0079c531659141344cd1fd0a4f28419497f9722a3daafe3b4186f6b6457e09080a31683600454161760045516906005541617600555610eea90816100f38239f35b600080fd5b634e487b7160e01b600052604160045260246000fd5b51906001600160a01b03821682036100c35756fe6080604081815260048036101561001557600080fd5b600092833560e01c908162ce8e3e14610909575080630a0bcfd8146108a457806318da0011146108e057806321a11805146108a4578381632f31e8ab1461071f5750806338aad32c146106f65780635b5cf50a14610685578063715018a61461062b5780638da5cb5b14610603578063b14f2a39146105be57838163b54aae0a146103a657508063b5cb15f714610387578063c6e064ad14610349578063cf04fb9414610308578063cf5caa12146101cd578063cf695688146101a65763f2fde38b146100e157600080fd5b346101a25760203660031901126101a2576100fa610b7b565b90610103610c1d565b6001600160a01b0391821692831561015057505082546001600160a01b0319811683178455167f8be0079c531659141344cd1fd0a4f28419497f9722a3daafe3b4186f6b6457e08380a380f35b906020608492519162461bcd60e51b8352820152602660248201527f4f776e61626c653a206e6577206f776e657220697320746865207a65726f206160448201526564647265737360d01b6064820152fd5b8280fd5b50346101a257826003193601126101a2575490516001600160a01b03909116815260209150f35b509190346103045780600319360112610304578235916024803591828510156102b7576001956102008754851115610e3e565b61020a8685610e79565b9561021487610e9c565b96610221875198896109fd565b808852610230601f1991610e9c565b019060209136838a0137805b868110610254578751806102508b82610988565b0390f35b61025d81610d54565b90546102698484610e79565b918b518310156102a55760031b1c60059190911b8a01840152600019811461029257890161023c565b5050634e487b7160e01b83525060119052fd5b634e487b7160e01b8852603287528888fd5b835162461bcd60e51b81526020818801526022818401527f53544152545f494e4445585f475245415445525f5448414e5f454e445f494e4460448201526108ab60f31b6064820152608490fd5b5080fd5b83823461030457602036600319011261030457610323610b7b565b61032b610c1d565b81546001600160a01b0319166001600160a01b039190911617905580f35b5091346103845760203660031901126103845750610376602092356103716001548210610e3e565b610d54565b91905490519160031b1c8152f35b80fd5b5050346103045781600319360112610304576020906001549051908152f35b808484346105ba576103e5916103bb36610b91565b9792909160018060a01b03865416918551978894859384936307c93c8f60e01b85528a8501610ce3565b03915afa9283156105b057849361058a575b50825160208094012091828552600684528185209086519067ffffffffffffffff8211610577575061042982546109c3565b601f8111610534575b5084601f82116001146104b157819087987f78997021e09413de1e36500ed07f9f6c73541162817fc3ea6a115e5e3d3affb998926104a6575b50508160011b916000199060031b1c19161790555b818552600283526104948186205415610d12565b61049d82610da1565b5051908152a180f35b01519050888061046b565b82875285872097601f198316885b81811061051d5750917f78997021e09413de1e36500ed07f9f6c73541162817fc3ea6a115e5e3d3affb9989991846001959410610504575b505050811b019055610480565b015160001960f88460031b161c191690558880806104f7565b838301518b556001909a01999288019288016104bf565b828752858720601f830160051c81019187841061056d575b601f0160051c01905b8181106105625750610432565b878155600101610555565b909150819061054c565b634e487b7160e01b875260419052602486fd5b6105a79193503d8086833e61059f81836109fd565b810190610c75565b505091856103f7565b81513d86823e3d90fd5b5050fd5b8334610384576020366003190112610384576105d8610b7b565b6105e0610c1d565b60018060a01b03166bffffffffffffffffffffffff60a01b600554161760055580f35b505034610304578160031936011261030457905490516001600160a01b039091168152602090f35b8334610384578060031936011261038457610644610c1d565b80546001600160a01b03198116825581906001600160a01b03167f8be0079c531659141344cd1fd0a4f28419497f9722a3daafe3b4186f6b6457e08280a380f35b5082346103845760203660031901126103845750600554813591906001600160a01b031633036106c357602083610376846103716001548210610e3e565b606490602084519162461bcd60e51b8352820152600d60248201526c4f4e4c595f545245415355525960981b6044820152fd5b50346101a25760203660031901126101a257602092829135815260028452205415159051908152f35b808484346105ba57610734916103bb36610b91565b03915afa9283156105b0578493610886575b50825160208094012080855260028452610764828620541515610d12565b84526006835283209184519167ffffffffffffffff8311610873575061078a83546109c3565b601f8111610830575b5080601f83116001146107ce57508394829394926107c3575b50508160011b916000199060031b1c191617905580f35b0151905084806107ac565b90601f198316958486528286209286905b888210610818575050836001959697106107ff575b505050811b01905580f35b015160001960f88460031b161c191690558480806107f4565b806001859682949686015181550195019301906107df565b838552818520601f840160051c810191838510610869575b601f0160051c01905b81811061085e5750610793565b858155600101610851565b9091508190610848565b634e487b7160e01b855260419052602484fd5b61089b9193503d8086833e61059f81836109fd565b50509185610746565b50346101a25760203660031901126101a25781610250936108cd92358152600660205220610a35565b9051918291602083526020830190610afe565b50503461030457816003193601126103045760055490516001600160a01b039091168152602090f35b849084346101a257826003193601126101a257600180548084528185526020808501957fb10e2d527612073b26eecdfd717e6a320cf44b4afac2b0732d9fcbe2b7fa0cf69392915b828210610973576102508787610969828c03836109fd565b5191829182610988565b84548852968701969383019390830190610951565b6020908160408183019282815285518094520193019160005b8281106109af575050505090565b8351855293810193928101926001016109a1565b90600182811c921680156109f3575b60208310146109dd57565b634e487b7160e01b600052602260045260246000fd5b91607f16916109d2565b90601f8019910116810190811067ffffffffffffffff821117610a1f57604052565b634e487b7160e01b600052604160045260246000fd5b9060405191826000825492610a49846109c3565b908184526001948581169081600014610ab85750600114610a75575b5050610a73925003836109fd565b565b9093915060005260209081600020936000915b818310610aa0575050610a7393508201013880610a65565b85548884018501529485019487945091830191610a88565b915050610a7394506020925060ff191682840152151560051b8201013880610a65565b60005b838110610aee5750506000910152565b8181015183820152602001610ade565b90602091610b1781518092818552858086019101610adb565b601f01601f1916010190565b67ffffffffffffffff8111610a1f57601f01601f191660200190565b929192610b4b82610b23565b91610b5960405193846109fd565b829481845281830111610b76578281602093846000960137010152565b600080fd5b600435906001600160a01b0382168203610b7657565b6080600319820112610b765767ffffffffffffffff90600435828111610b765781602382011215610b765781816024610bcf93600401359101610b3f565b926001600160a01b03926024358481168103610b7657936044359081168103610b765792606435918211610b765780602383011215610b7657816024610c1a93600401359101610b3f565b90565b6000546001600160a01b03163303610c3157565b606460405162461bcd60e51b815260206004820152602060248201527f4f776e61626c653a2063616c6c6572206973206e6f7420746865206f776e65726044820152fd5b90606082820312610b7657815167ffffffffffffffff8111610b7657820181601f82011215610b76578051610ca981610b23565b92610cb760405194856109fd565b81845260208284010111610b7657610cd59160208085019101610adb565b916040602083015192015190565b91610cfb604092959495606085526060850190610afe565b6001600160a01b0391821660208501529416910152565b15610d1957565b60405162461bcd60e51b8152602060048201526013602482015272555345525f414c52454144595f45584953545360681b6044820152606490fd5b600154811015610d8b5760016000527fb10e2d527612073b26eecdfd717e6a320cf44b4afac2b0732d9fcbe2b7fa0cf60190600090565b634e487b7160e01b600052603260045260246000fd5b600081815260026020526040812054610e395760015468010000000000000000811015610e25576001810180600155811015610e115790826040927fb10e2d527612073b26eecdfd717e6a320cf44b4afac2b0732d9fcbe2b7fa0cf6015560015492815260026020522055600190565b634e487b7160e01b82526032600452602482fd5b634e487b7160e01b82526041600452602482fd5b905090565b15610e4557565b60405162461bcd60e51b815260206004820152600c60248201526b4f55545f4f465f52414e474560a01b6044820152606490fd5b91908203918211610e8657565b634e487b7160e01b600052601160045260246000fd5b67ffffffffffffffff8111610a1f5760051b6020019056fea26469706673582212207a78a44f31da2564226a69e1069df5cfdaf8aabffc782e01496ae45e4173387664736f6c63430008130033",
  "linkReferences": {},
  "deployedLinkReferences": {}
}