{
  "_format": "hh-sol-artifact-1",
  "contractName": "MecenateUsers",
  "sourceName": "contracts/registry/MecenateUsers.sol",
  "abi": [
    {
      "inputs": [
        {
          "internalType": "address",
          "name": "verifierContractAddress",
          "type": "address"
        }
      ],
      "stateMutability": "nonpayable",
      "type": "constructor"
    },
    {
      "anonymous": false,
      "inputs": [
        {
          "indexed": true,
          "internalType": "address",
          "name": "oldAddress",
          "type": "address"
        },
        {
          "indexed": false,
          "internalType": "address",
          "name": "newAddress",
          "type": "address"
        }
      ],
      "name": "EVMAddressChanged",
      "type": "event"
    },
    {
      "anonymous": false,
      "inputs": [
        {
          "indexed": true,
          "internalType": "address",
          "name": "previousOwner",
          "type": "address"
        },
        {
          "indexed": true,
          "internalType": "address",
          "name": "newOwner",
          "type": "address"
        }
      ],
      "name": "OwnershipTransferred",
      "type": "event"
    },
    {
      "anonymous": false,
      "inputs": [
        {
          "indexed": true,
          "internalType": "address",
          "name": "userAddress",
          "type": "address"
        },
        {
          "indexed": false,
          "internalType": "bytes",
          "name": "newPublicKey",
          "type": "bytes"
        }
      ],
      "name": "PublicKeyChanged",
      "type": "event"
    },
    {
      "anonymous": false,
      "inputs": [
        {
          "indexed": true,
          "internalType": "address",
          "name": "userAddress",
          "type": "address"
        }
      ],
      "name": "UserRegistered",
      "type": "event"
    },
    {
      "inputs": [
        {
          "internalType": "address",
          "name": "userAddress",
          "type": "address"
        }
      ],
      "name": "checkifUserExist",
      "outputs": [
        {
          "internalType": "bool",
          "name": "",
          "type": "bool"
        }
      ],
      "stateMutability": "view",
      "type": "function"
    },
    {
      "inputs": [
        {
          "internalType": "uint256",
          "name": "startIndex",
          "type": "uint256"
        },
        {
          "internalType": "uint256",
          "name": "endIndex",
          "type": "uint256"
        }
      ],
      "name": "getPaginatedUsers",
      "outputs": [
        {
          "internalType": "address[]",
          "name": "",
          "type": "address[]"
        }
      ],
      "stateMutability": "view",
      "type": "function"
    },
    {
      "inputs": [
        {
          "internalType": "uint256",
          "name": "index",
          "type": "uint256"
        }
      ],
      "name": "getUserAt",
      "outputs": [
        {
          "internalType": "address",
          "name": "",
          "type": "address"
        }
      ],
      "stateMutability": "view",
      "type": "function"
    },
    {
      "inputs": [],
      "name": "getUserCount",
      "outputs": [
        {
          "internalType": "uint256",
          "name": "",
          "type": "uint256"
        }
      ],
      "stateMutability": "view",
      "type": "function"
    },
    {
      "inputs": [
        {
          "internalType": "address",
          "name": "userAddress",
          "type": "address"
        }
      ],
      "name": "getUserMetadata",
      "outputs": [
        {
          "components": [
            {
              "internalType": "address",
              "name": "evmAddress",
              "type": "address"
            },
            {
              "internalType": "bytes",
              "name": "sismoVaultId",
              "type": "bytes"
            },
            {
              "internalType": "bytes",
              "name": "publicKey",
              "type": "bytes"
            }
          ],
          "internalType": "struct Structures.User",
          "name": "",
          "type": "tuple"
        }
      ],
      "stateMutability": "view",
      "type": "function"
    },
    {
      "inputs": [
        {
          "internalType": "address",
          "name": "userAddress",
          "type": "address"
        }
      ],
      "name": "getUserPublicKey",
      "outputs": [
        {
          "internalType": "bytes",
          "name": "",
          "type": "bytes"
        }
      ],
      "stateMutability": "view",
      "type": "function"
    },
    {
      "inputs": [],
      "name": "getUsers",
      "outputs": [
        {
          "internalType": "address[]",
          "name": "",
          "type": "address[]"
        }
      ],
      "stateMutability": "view",
      "type": "function"
    },
    {
      "inputs": [],
      "name": "owner",
      "outputs": [
        {
          "internalType": "address",
          "name": "",
          "type": "address"
        }
      ],
      "stateMutability": "view",
      "type": "function"
    },
    {
      "inputs": [
        {
          "internalType": "bytes",
          "name": "sismoConnectResponse",
          "type": "bytes"
        },
        {
          "internalType": "bytes",
          "name": "pubKey",
          "type": "bytes"
        }
      ],
      "name": "registerUser",
      "outputs": [
        {
          "components": [
            {
              "internalType": "address",
              "name": "evmAddress",
              "type": "address"
            },
            {
              "internalType": "bytes",
              "name": "sismoVaultId",
              "type": "bytes"
            },
            {
              "internalType": "bytes",
              "name": "publicKey",
              "type": "bytes"
            }
          ],
          "internalType": "struct Structures.User",
          "name": "",
          "type": "tuple"
        }
      ],
      "stateMutability": "nonpayable",
      "type": "function"
    },
    {
      "inputs": [],
      "name": "renounceOwnership",
      "outputs": [],
      "stateMutability": "nonpayable",
      "type": "function"
    },
    {
      "inputs": [
        {
          "internalType": "address",
          "name": "newOwner",
          "type": "address"
        }
      ],
      "name": "transferOwnership",
      "outputs": [],
      "stateMutability": "nonpayable",
      "type": "function"
    },
    {
      "inputs": [],
      "name": "verifierContract",
      "outputs": [
        {
          "internalType": "address",
          "name": "",
          "type": "address"
        }
      ],
      "stateMutability": "view",
      "type": "function"
    }
  ],
  "bytecode": "0x6080346100a757601f610e9738819003918201601f19168301916001600160401b038311848410176100ac578084926020946040528339810103126100a757516001600160a01b0390818116908190036100a75760005460018060a01b0319903382821617600055604051933391167f8be0079c531659141344cd1fd0a4f28419497f9722a3daafe3b4186f6b6457e0600080a36004541617600455610dd490816100c38239f35b600080fd5b634e487b7160e01b600052604160045260246000fdfe608060408181526004908136101561001657600080fd5b600092833560e01c908162ce8e3e146108d55750806311231fe01461088357806348990fcc14610847578063715018a6146107ed5780638da5cb5b146107c5578063b5cb15f7146107a6578063c6e064ad14610760578063cf5caa1214610621578063cf695688146105f9578063ebc4bf84146101f6578063ef2a8764146101735763f2fde38b146100a757600080fd5b3461016f57602036600319011261016f576001600160a01b0382358181169391929084900361016b576100d8610ae6565b831561011957505082546001600160a01b0319811683178455167f8be0079c531659141344cd1fd0a4f28419497f9722a3daafe3b4186f6b6457e08380a380f35b906020608492519162461bcd60e51b8352820152602660248201527f4f776e61626c653a206e6577206f776e657220697320746865207a65726f206160448201526564647265737360d01b6064820152fd5b8480fd5b8280fd5b50903461016f57602036600319011261016f576001600160a01b03919035828116908190036101f2576002826101ee956101e0936101af610b3e565b5081526003602052208351946101c4866109e0565b81541685526101d560018201610cf8565b602086015201610cf8565b818301525191829182610a9c565b0390f35b8380fd5b508290346105f557806003193601126105f55767ffffffffffffffff9280358481116101f2576102299036908301610a50565b60243585811161016b576102409036908401610a50565b610248610b3e565b5060018060a01b038084541696868651809963119f099160e01b8252818061027b6020998a8c84015260248301906109bb565b03915afa9788156105eb578798610572575b5085519761029a896109e0565b33895284890190815286890193845233885260038552868820928951166bffffffffffffffffffffffff60a01b84541617835560019283810191519081519284841161055f576102ea8154610b5e565b93601f9485811161051a575b50888c8683116001146104b95790600295836104ae575b5050600019600383901b1c191690871b1790555b019351805192831161049b576103378554610b5e565b828111610458575b50859183116001146103f9579282939183928a946103ee575b50501b916000199060031b1c19161790555b33845260028152828420546103b85750506101ee9061038833610be5565b50519283927f54db7a5cb4735e1aac1f53db512d3390390bb6637bd30ad4bf9fc98667d9b9b9339180a282610a9c565b606492519162461bcd60e51b83528201526013602482015272555345525f414c52454144595f45584953545360681b6044820152fd5b015192508a80610358565b848952858920919083601f1981168b5b89888383106104415750505010610428575b505050811b01905561036a565b015160001960f88460031b161c1916905588808061041b565b868601518855909601959485019487935001610409565b858a52868a208380860160051c820192898710610492575b0160051c019085905b82811061048757505061033f565b8b8155018590610479565b92508192610470565b634e487b7160e01b895260418752602489fd5b015190508e8061030d565b889291601f1983168583528c8320925b8d8282106105045750509683600298106104eb575b505050811b019055610321565b015160001960f88460031b161c191690558e80806104de565b838a015185558c969094019392830192016104c9565b828d52898d208680840160051c8201928c8510610556575b0160051c019088908e5b83821061054b575050506102f6565b81550188908e61053c565b92508192610532565b634e487b7160e01b8b526041895260248bfd5b9097503d8088833e6105848183610a12565b81019084818303126105e7578051908982116105e3570181601f820112156105e7578051906105b282610a34565b926105bf89519485610a12565b8284528683830101116105e357906105dc91868085019101610998565b968861028d565b8880fd5b8780fd5b86513d89823e3d90fd5b5080fd5b50903461016f578260031936011261016f575490516001600160a01b03909116815260209150f35b508290346105f557806003193601126105f557823591602480359182851015610713576001956106548754851115610c82565b61065e8685610cbd565b9561066887610ce0565b9661067587519889610a12565b808852610684601f1991610ce0565b0160209036828a0137815b8681106106a3578751806101ee8b82610954565b6106ac81610b98565b9054906106b98584610cbd565b918b518310156107015760039190911b1c6001600160a01b031660059190911b8a0183015260001981146106ee57890161068f565b5050634e487b7160e01b83525060119052fd5b634e487b7160e01b8852603287528888fd5b835162461bcd60e51b81526020818801526022818401527f53544152545f494e4445585f475245415445525f5448414e5f454e445f494e4460448201526108ab60f31b6064820152608490fd5b5082346107a35760203660031901126107a3575061078d602092356107886001548210610c82565b610b98565b905491519160018060a01b039160031b1c168152f35b80fd5b8382346105f557816003193601126105f5576020906001549051908152f35b8382346105f557816003193601126105f557905490516001600160a01b039091168152602090f35b83346107a357806003193601126107a357610806610ae6565b80546001600160a01b03198116825581906001600160a01b03167f8be0079c531659141344cd1fd0a4f28419497f9722a3daafe3b4186f6b6457e08280a380f35b50903461016f57602036600319011261016f57356001600160a01b0381169081900361016f578282916020945260028452205415159051908152f35b50903461016f57602036600319011261016f57356001600160a01b0381169081900361016f57600282846108c2936101ee965260036020522001610cf8565b90519182916020835260208301906109bb565b9250503461016f578260031936011261016f57600180548084528185526020808501957fb10e2d527612073b26eecdfd717e6a320cf44b4afac2b0732d9fcbe2b7fa0cf69392915b82821061093f576101ee8787610935828c0383610a12565b5191829182610954565b8454885296870196938301939083019061091d565b6020908160408183019282815285518094520193019160005b82811061097b575050505090565b83516001600160a01b03168552938101939281019260010161096d565b60005b8381106109ab5750506000910152565b818101518382015260200161099b565b906020916109d481518092818552858086019101610998565b601f01601f1916010190565b6060810190811067ffffffffffffffff8211176109fc57604052565b634e487b7160e01b600052604160045260246000fd5b90601f8019910116810190811067ffffffffffffffff8211176109fc57604052565b67ffffffffffffffff81116109fc57601f01601f191660200190565b81601f82011215610a9757803590610a6782610a34565b92610a756040519485610a12565b82845260208383010111610a9757816000926020809301838601378301015290565b600080fd5b90610ae3916020815260018060a01b0382511660208201526040610ace602084015160608385015260808401906109bb565b920151906060601f19828503019101526109bb565b90565b6000546001600160a01b03163303610afa57565b606460405162461bcd60e51b815260206004820152602060248201527f4f776e61626c653a2063616c6c6572206973206e6f7420746865206f776e65726044820152fd5b60405190610b4b826109e0565b6060604083600081528260208201520152565b90600182811c92168015610b8e575b6020831014610b7857565b634e487b7160e01b600052602260045260246000fd5b91607f1691610b6d565b600154811015610bcf5760016000527fb10e2d527612073b26eecdfd717e6a320cf44b4afac2b0732d9fcbe2b7fa0cf60190600090565b634e487b7160e01b600052603260045260246000fd5b600081815260026020526040812054610c7d5760015468010000000000000000811015610c69576001810180600155811015610c555790826040927fb10e2d527612073b26eecdfd717e6a320cf44b4afac2b0732d9fcbe2b7fa0cf6015560015492815260026020522055600190565b634e487b7160e01b82526032600452602482fd5b634e487b7160e01b82526041600452602482fd5b905090565b15610c8957565b60405162461bcd60e51b815260206004820152600c60248201526b4f55545f4f465f52414e474560a01b6044820152606490fd5b91908203918211610cca57565b634e487b7160e01b600052601160045260246000fd5b67ffffffffffffffff81116109fc5760051b60200190565b9060405191826000825492610d0c84610b5e565b908184526001948581169081600014610d7b5750600114610d38575b5050610d3692500383610a12565b565b9093915060005260209081600020936000915b818310610d63575050610d3693508201013880610d28565b85548884018501529485019487945091830191610d4b565b915050610d3694506020925060ff191682840152151560051b8201013880610d2856fea26469706673582212202cdff8aa0abc647cdcd01b9d7deb9407c2200689ede6d9904baac008b0360a2464736f6c63430008130033",
  "linkReferences": {},
  "deployedLinkReferences": {}
}