{
  "_format": "hh-sol-artifact-1",
  "contractName": "MecenateUsers",
  "sourceName": "contracts/registry/MecenateUsers.sol",
  "abi": [
    {
      "inputs": [
        {
          "internalType": "address",
          "name": "verifierContractAddress",
          "type": "address"
        }
      ],
      "stateMutability": "nonpayable",
      "type": "constructor"
    },
    {
      "anonymous": false,
      "inputs": [
        {
          "indexed": true,
          "internalType": "address",
          "name": "previousOwner",
          "type": "address"
        },
        {
          "indexed": true,
          "internalType": "address",
          "name": "newOwner",
          "type": "address"
        }
      ],
      "name": "OwnershipTransferred",
      "type": "event"
    },
    {
      "anonymous": false,
      "inputs": [
        {
          "indexed": true,
          "internalType": "address",
          "name": "userAddress",
          "type": "address"
        }
      ],
      "name": "UserRegistered",
      "type": "event"
    },
    {
      "inputs": [
        {
          "internalType": "address",
          "name": "userAddress",
          "type": "address"
        }
      ],
      "name": "checkifUserExist",
      "outputs": [
        {
          "internalType": "bool",
          "name": "",
          "type": "bool"
        }
      ],
      "stateMutability": "view",
      "type": "function"
    },
    {
      "inputs": [
        {
          "internalType": "uint256",
          "name": "startIndex",
          "type": "uint256"
        },
        {
          "internalType": "uint256",
          "name": "endIndex",
          "type": "uint256"
        }
      ],
      "name": "getPaginatedUsers",
      "outputs": [
        {
          "internalType": "address[]",
          "name": "",
          "type": "address[]"
        }
      ],
      "stateMutability": "view",
      "type": "function"
    },
    {
      "inputs": [
        {
          "internalType": "uint256",
          "name": "index",
          "type": "uint256"
        }
      ],
      "name": "getUserAt",
      "outputs": [
        {
          "internalType": "address",
          "name": "",
          "type": "address"
        }
      ],
      "stateMutability": "view",
      "type": "function"
    },
    {
      "inputs": [],
      "name": "getUserCount",
      "outputs": [
        {
          "internalType": "uint256",
          "name": "",
          "type": "uint256"
        }
      ],
      "stateMutability": "view",
      "type": "function"
    },
    {
      "inputs": [
        {
          "internalType": "address",
          "name": "userAddress",
          "type": "address"
        }
      ],
      "name": "getUserMetadata",
      "outputs": [
        {
          "components": [
            {
              "internalType": "address",
              "name": "evmAddress",
              "type": "address"
            },
            {
              "internalType": "bytes",
              "name": "sismoVaultId",
              "type": "bytes"
            },
            {
              "internalType": "bytes",
              "name": "publicKey",
              "type": "bytes"
            }
          ],
          "internalType": "struct Structures.User",
          "name": "",
          "type": "tuple"
        }
      ],
      "stateMutability": "view",
      "type": "function"
    },
    {
      "inputs": [
        {
          "internalType": "address",
          "name": "userAddress",
          "type": "address"
        }
      ],
      "name": "getUserPublicKey",
      "outputs": [
        {
          "internalType": "bytes",
          "name": "",
          "type": "bytes"
        }
      ],
      "stateMutability": "view",
      "type": "function"
    },
    {
      "inputs": [],
      "name": "getUsers",
      "outputs": [
        {
          "internalType": "address[]",
          "name": "",
          "type": "address[]"
        }
      ],
      "stateMutability": "view",
      "type": "function"
    },
    {
      "inputs": [],
      "name": "owner",
      "outputs": [
        {
          "internalType": "address",
          "name": "",
          "type": "address"
        }
      ],
      "stateMutability": "view",
      "type": "function"
    },
    {
      "inputs": [
        {
          "internalType": "bytes",
          "name": "metadata",
          "type": "bytes"
        }
      ],
      "name": "registerUser",
      "outputs": [],
      "stateMutability": "nonpayable",
      "type": "function"
    },
    {
      "inputs": [],
      "name": "renounceOwnership",
      "outputs": [],
      "stateMutability": "nonpayable",
      "type": "function"
    },
    {
      "inputs": [
        {
          "internalType": "address",
          "name": "newOwner",
          "type": "address"
        }
      ],
      "name": "transferOwnership",
      "outputs": [],
      "stateMutability": "nonpayable",
      "type": "function"
    },
    {
      "inputs": [],
      "name": "verifierContract",
      "outputs": [
        {
          "internalType": "address",
          "name": "",
          "type": "address"
        }
      ],
      "stateMutability": "view",
      "type": "function"
    }
  ],
  "bytecode": "0x6080346100a757601f6112e538819003918201601f19168301916001600160401b038311848410176100ac578084926020946040528339810103126100a757516001600160a01b0390818116908190036100a75760005460018060a01b0319903382821617600055604051933391167f8be0079c531659141344cd1fd0a4f28419497f9722a3daafe3b4186f6b6457e0600080a3600454161760045561122290816100c38239f35b600080fd5b634e487b7160e01b600052604160045260246000fdfe608060408181526004908136101561001657600080fd5b600092833560e01c908162ce8e3e14610c21575080630a38178c146106a457806311231fe01461064657806348990fcc146105fe578063715018a6146105805780638da5cb5b1461054d578063b5cb15f71461052e578063c6e064ad146104dd578063cf5caa12146102f2578063cf695688146102bb578063ef2a8764146101c75763f2fde38b146100a757600080fd5b346101c35760206003193601126101c35781359173ffffffffffffffffffffffffffffffffffffffff918284168094036101bf576100e3610e1d565b831561013c5750508254827fffffffffffffffffffffffff00000000000000000000000000000000000000008216178455167f8be0079c531659141344cd1fd0a4f28419497f9722a3daafe3b4186f6b6457e08380a380f35b90602060849251917f08c379a0000000000000000000000000000000000000000000000000000000008352820152602660248201527f4f776e61626c653a206e6577206f776e657220697320746865207a65726f206160448201527f64647265737300000000000000000000000000000000000000000000000000006064820152fd5b8480fd5b8280fd5b5090346101c357602090816003193601126102b757359273ffffffffffffffffffffffffffffffffffffffff938481168091036102b357836102af939261027e92606083805161021681610cf1565b848152828882015201528152600384522093606081519561023687610cf1565b87815416875261025a600261024d60018401611127565b92878a0193845201611127565b948388019586528351988998828a5251169088015251918601526080850190610dda565b90517fffffffffffffffffffffffffffffffffffffffffffffffffffffffffffffffe0848303016060850152610dda565b0390f35b5080fd5b8380fd5b5082346102ef57806003193601126102ef575073ffffffffffffffffffffffffffffffffffffffff60209254169051908152f35b80fd5b508290346102b357806003193601126102b35782359160248035918285101561045b57600195610325875485111561106e565b61032f86856110d3565b957fffffffffffffffffffffffffffffffffffffffffffffffffffffffffffffffe061037261035d8961110f565b9861036a89519a8b610d3c565b808a5261110f565b019060209136838a0137805b868110610392578751806102af8b82610ca0565b61039b81610f39565b90546103a784846110d3565b918b5183101561043057859173ffffffffffffffffffffffffffffffffffffffff9160031b1c169160051b8b0101527fffffffffffffffffffffffffffffffffffffffffffffffffffffffffffffffff811461040457890161037e565b5050506011907f4e487b7100000000000000000000000000000000000000000000000000000000835252fd5b88886032897f4e487b7100000000000000000000000000000000000000000000000000000000835252fd5b60848660228460208851937f08c379a00000000000000000000000000000000000000000000000000000000085528401528201527f53544152545f494e4445585f475245415445525f5448414e5f454e445f494e4460448201527f45580000000000000000000000000000000000000000000000000000000000006064820152fd5b5082346102ef5760206003193601126102ef575073ffffffffffffffffffffffffffffffffffffffff61051f6020933561051a600154821061106e565b610f39565b92905490519260031b1c168152f35b8382346102b357816003193601126102b3576020906001549051908152f35b8382346102b357816003193601126102b35773ffffffffffffffffffffffffffffffffffffffff60209254169051908152f35b83346102ef57806003193601126102ef57610599610e1d565b8073ffffffffffffffffffffffffffffffffffffffff81547fffffffffffffffffffffffff000000000000000000000000000000000000000081168355167f8be0079c531659141344cd1fd0a4f28419497f9722a3daafe3b4186f6b6457e08280a380f35b5090346101c35760206003193601126101c3573573ffffffffffffffffffffffffffffffffffffffff81168091036101c3578282916020945260028452205415159051908152f35b5090346101c35760206003193601126101c3573573ffffffffffffffffffffffffffffffffffffffff81168091036101c35760028284610691936102af965260036020522001611127565b9051918291602083526020830190610dda565b50346101c357602090816003193601126102b757823567ffffffffffffffff808211610c1d5736602383011215610c1d578185013591866106e484610d7d565b916106f186519384610d3c565b8483528683019436602482840101116101c35780602489930187378301015280518101928482878601950312610c195751828111610c1957838661073792840101610e9c565b928482015191838311610c0b5761075092018601610e9c565b916107aa8773ffffffffffffffffffffffffffffffffffffffff9283895416888a8951958694859384937f119f09910000000000000000000000000000000000000000000000000000000085528401526024830190610dda565b03915afa908115610c0f578891610bd2575b508451916107c983610cf1565b338352868301918252858301948552338952600387528589209251167fffffffffffffffffffffffff0000000000000000000000000000000000000000835416178255600191828101915190815192858411610ba6576108298154610ee6565b93601f94858111610b61575b50898c868311600114610ac2579060029583610ab7575b50507fffffffffffffffffffffffffffffffffffffffffffffffffffffffffffffffff82881b9260031b1c19161790555b0193518051938411610a8b576108938554610ee6565b828111610a48575b50869184116001146109aa57889184918261097f575b50507fffffffffffffffffffffffffffffffffffffffffffffffffffffffffffffffff91921b9260031b1c19161790555b338452600282528084205461092457836108fb33610f9f565b50337f54db7a5cb4735e1aac1f53db512d3390390bb6637bd30ad4bf9fc98667d9b9b98280a280f35b6064935051917f08c379a0000000000000000000000000000000000000000000000000000000008352820152601360248201527f555345525f414c52454144595f455849535453000000000000000000000000006044820152fd5b015191507fffffffffffffffffffffffffffffffffffffffffffffffffffffffffffffffff386108b1565b907fffffffffffffffffffffffffffffffffffffffffffffffffffffffffffffffe08493941691858a5283888b20938b5b8a88838310610a3157505050106109fa575b505050811b0190556108e2565b01517fffffffffffffffffffffffffffffffffffffffffffffffffffffffffffffffff60f88460031b161c191690553880806109ed565b8686015188559096019594850194879350016109db565b858a52878a208380870160051c8201928a8810610a82575b0160051c019084905b828110610a7757505061089b565b8b8155018490610a69565b92508192610a60565b60248960418a7f4e487b7100000000000000000000000000000000000000000000000000000000835252fd5b01519050388061084c565b82917fffffffffffffffffffffffffffffffffffffffffffffffffffffffffffffffe08994168583528d80842093905b828210610b4a575050968360029810610b13575b505050811b01905561087d565b01517fffffffffffffffffffffffffffffffffffffffffffffffffffffffffffffffff60f88460031b161c19169055388080610b06565b838a015185558b969094019392830192018e610af2565b828d528a8d208680840160051c8201928d8510610b9d575b0160051c019087908e5b838210610b9257505050610835565b81550187908e610b83565b92508192610b79565b60248b60418c7f4e487b7100000000000000000000000000000000000000000000000000000000835252fd5b90503d8089833e610be38183610d3c565b81018682820312610c0b578151848111610c0757610c019201610e9c565b386107bc565b8980fd5b8880fd5b85513d8a823e3d90fd5b8780fd5b8580fd5b925050346101c357826003193601126101c357600180548084528185526020808501957fb10e2d527612073b26eecdfd717e6a320cf44b4afac2b0732d9fcbe2b7fa0cf69392915b828210610c8b576102af8787610c81828c0383610d3c565b5191829182610ca0565b84548852968701969383019390830190610c69565b6020908160408183019282815285518094520193019160005b828110610cc7575050505090565b835173ffffffffffffffffffffffffffffffffffffffff1685529381019392810192600101610cb9565b6060810190811067ffffffffffffffff821117610d0d57604052565b7f4e487b7100000000000000000000000000000000000000000000000000000000600052604160045260246000fd5b90601f7fffffffffffffffffffffffffffffffffffffffffffffffffffffffffffffffe0910116810190811067ffffffffffffffff821117610d0d57604052565b67ffffffffffffffff8111610d0d57601f017fffffffffffffffffffffffffffffffffffffffffffffffffffffffffffffffe01660200190565b60005b838110610dca5750506000910152565b8181015183820152602001610dba565b907fffffffffffffffffffffffffffffffffffffffffffffffffffffffffffffffe0601f602093610e1681518092818752878088019101610db7565b0116010190565b73ffffffffffffffffffffffffffffffffffffffff600054163303610e3e57565b60646040517f08c379a000000000000000000000000000000000000000000000000000000000815260206004820152602060248201527f4f776e61626c653a2063616c6c6572206973206e6f7420746865206f776e65726044820152fd5b81601f82011215610ee1578051610eb281610d7d565b92610ec06040519485610d3c565b81845260208284010111610ee157610ede9160208085019101610db7565b90565b600080fd5b90600182811c92168015610f2f575b6020831014610f0057565b7f4e487b7100000000000000000000000000000000000000000000000000000000600052602260045260246000fd5b91607f1691610ef5565b600154811015610f705760016000527fb10e2d527612073b26eecdfd717e6a320cf44b4afac2b0732d9fcbe2b7fa0cf60190600090565b7f4e487b7100000000000000000000000000000000000000000000000000000000600052603260045260246000fd5b600081815260026020526040812054611069576001546801000000000000000081101561103c57600181018060015581101561100f5790826040927fb10e2d527612073b26eecdfd717e6a320cf44b4afac2b0732d9fcbe2b7fa0cf6015560015492815260026020522055600190565b6024827f4e487b710000000000000000000000000000000000000000000000000000000081526032600452fd5b6024827f4e487b710000000000000000000000000000000000000000000000000000000081526041600452fd5b905090565b1561107557565b60646040517f08c379a000000000000000000000000000000000000000000000000000000000815260206004820152600c60248201527f4f55545f4f465f52414e474500000000000000000000000000000000000000006044820152fd5b919082039182116110e057565b7f4e487b7100000000000000000000000000000000000000000000000000000000600052601160045260246000fd5b67ffffffffffffffff8111610d0d5760051b60200190565b906040519182600082549261113b84610ee6565b9081845260019485811690816000146111aa5750600114611167575b505061116592500383610d3c565b565b9093915060005260209081600020936000915b81831061119257505061116593508201013880611157565b8554888401850152948501948794509183019161117a565b90506111659550602093507fffffffffffffffffffffffffffffffffffffffffffffffffffffffffffffff0091501682840152151560051b820101388061115756fea264697066735822122053c08878bdd4ff3c666e910eb6b9af3ad4b1d5efb73761b2fb42d71fc1da801e64736f6c63430008130033",
  "linkReferences": {},
  "deployedLinkReferences": {}
}