{
  "_format": "hh-sol-artifact-1",
  "contractName": "MecenateUsers",
  "sourceName": "contracts/registry/MecenateUsers.sol",
  "abi": [
    {
      "inputs": [
        {
          "internalType": "address",
          "name": "_verifierContract",
          "type": "address"
        },
        {
          "internalType": "address",
          "name": "_treasuryContract",
          "type": "address"
        }
      ],
      "stateMutability": "nonpayable",
      "type": "constructor"
    },
    {
      "anonymous": false,
      "inputs": [
        {
          "indexed": true,
          "internalType": "address",
          "name": "previousOwner",
          "type": "address"
        },
        {
          "indexed": true,
          "internalType": "address",
          "name": "newOwner",
          "type": "address"
        }
      ],
      "name": "OwnershipTransferred",
      "type": "event"
    },
    {
      "anonymous": false,
      "inputs": [
        {
          "indexed": false,
          "internalType": "bytes32",
          "name": "vaultId",
          "type": "bytes32"
        }
      ],
      "name": "UserRegistered",
      "type": "event"
    },
    {
      "inputs": [
        {
          "internalType": "address",
          "name": "_treasury",
          "type": "address"
        }
      ],
      "name": "changeTreasury",
      "outputs": [],
      "stateMutability": "nonpayable",
      "type": "function"
    },
    {
      "inputs": [
        {
          "internalType": "bytes",
          "name": "sismoConnectResponse",
          "type": "bytes"
        },
        {
          "internalType": "address",
          "name": "_to",
          "type": "address"
        },
        {
          "internalType": "bytes32",
          "name": "_nonce",
          "type": "bytes32"
        },
        {
          "internalType": "string",
          "name": "_username",
          "type": "string"
        }
      ],
      "name": "changeUserName",
      "outputs": [],
      "stateMutability": "nonpayable",
      "type": "function"
    },
    {
      "inputs": [
        {
          "internalType": "address",
          "name": "_verifier",
          "type": "address"
        }
      ],
      "name": "changeVerifier",
      "outputs": [],
      "stateMutability": "nonpayable",
      "type": "function"
    },
    {
      "inputs": [
        {
          "internalType": "bytes32",
          "name": "vaultId",
          "type": "bytes32"
        }
      ],
      "name": "checkifUserExist",
      "outputs": [
        {
          "internalType": "bool",
          "name": "",
          "type": "bool"
        }
      ],
      "stateMutability": "view",
      "type": "function"
    },
    {
      "inputs": [
        {
          "internalType": "uint256",
          "name": "startIndex",
          "type": "uint256"
        },
        {
          "internalType": "uint256",
          "name": "endIndex",
          "type": "uint256"
        }
      ],
      "name": "getPaginatedUsers",
      "outputs": [
        {
          "internalType": "bytes32[]",
          "name": "users",
          "type": "bytes32[]"
        }
      ],
      "stateMutability": "view",
      "type": "function"
    },
    {
      "inputs": [
        {
          "internalType": "uint256",
          "name": "index",
          "type": "uint256"
        }
      ],
      "name": "getUserAt",
      "outputs": [
        {
          "internalType": "bytes32",
          "name": "user",
          "type": "bytes32"
        }
      ],
      "stateMutability": "view",
      "type": "function"
    },
    {
      "inputs": [],
      "name": "getUserCount",
      "outputs": [
        {
          "internalType": "uint256",
          "name": "count",
          "type": "uint256"
        }
      ],
      "stateMutability": "view",
      "type": "function"
    },
    {
      "inputs": [
        {
          "internalType": "bytes32",
          "name": "vaultId",
          "type": "bytes32"
        }
      ],
      "name": "getUserName",
      "outputs": [
        {
          "internalType": "string",
          "name": "",
          "type": "string"
        }
      ],
      "stateMutability": "view",
      "type": "function"
    },
    {
      "inputs": [
        {
          "internalType": "uint256",
          "name": "index",
          "type": "uint256"
        }
      ],
      "name": "getUserVaultIdAt",
      "outputs": [
        {
          "internalType": "bytes32",
          "name": "user",
          "type": "bytes32"
        }
      ],
      "stateMutability": "view",
      "type": "function"
    },
    {
      "inputs": [],
      "name": "getUsers",
      "outputs": [
        {
          "internalType": "bytes32[]",
          "name": "users",
          "type": "bytes32[]"
        }
      ],
      "stateMutability": "view",
      "type": "function"
    },
    {
      "inputs": [],
      "name": "owner",
      "outputs": [
        {
          "internalType": "address",
          "name": "",
          "type": "address"
        }
      ],
      "stateMutability": "view",
      "type": "function"
    },
    {
      "inputs": [
        {
          "internalType": "bytes",
          "name": "sismoConnectResponse",
          "type": "bytes"
        },
        {
          "internalType": "address",
          "name": "_to",
          "type": "address"
        },
        {
          "internalType": "bytes32",
          "name": "_nonce",
          "type": "bytes32"
        },
        {
          "internalType": "string",
          "name": "_username",
          "type": "string"
        }
      ],
      "name": "registerUser",
      "outputs": [],
      "stateMutability": "nonpayable",
      "type": "function"
    },
    {
      "inputs": [],
      "name": "renounceOwnership",
      "outputs": [],
      "stateMutability": "nonpayable",
      "type": "function"
    },
    {
      "inputs": [
        {
          "internalType": "address",
          "name": "newOwner",
          "type": "address"
        }
      ],
      "name": "transferOwnership",
      "outputs": [],
      "stateMutability": "nonpayable",
      "type": "function"
    },
    {
      "inputs": [],
      "name": "treasuryContract",
      "outputs": [
        {
          "internalType": "address",
          "name": "",
          "type": "address"
        }
      ],
      "stateMutability": "view",
      "type": "function"
    },
    {
      "inputs": [
        {
          "internalType": "bytes32",
          "name": "",
          "type": "bytes32"
        }
      ],
      "name": "userNames",
      "outputs": [
        {
          "internalType": "string",
          "name": "",
          "type": "string"
        }
      ],
      "stateMutability": "view",
      "type": "function"
    },
    {
      "inputs": [],
      "name": "verifierContract",
      "outputs": [
        {
          "internalType": "address",
          "name": "",
          "type": "address"
        }
      ],
      "stateMutability": "view",
      "type": "function"
    }
  ],
  "bytecode": "0x6080346100c357601f61109b38819003918201601f19168301916001600160401b038311848410176100c85780849260409485528339810103126100c357610052602061004b836100de565b92016100de565b60008054336001600160a01b0319808316821784556040519590946001600160a01b03949093859391908416907f8be0079c531659141344cd1fd0a4f28419497f9722a3daafe3b4186f6b6457e09080a31683600454161760045516906005541617600555610fa890816100f38239f35b600080fd5b634e487b7160e01b600052604160045260246000fd5b51906001600160a01b03821682036100c35756fe608060408181526004908136101561001657600080fd5b600092833560e01c908162ce8e3e14610952575080630a0bcfd8146108ec57806318da00111461092957806321a11805146108ec57806338aad32c146108c25780634a9a471f146106c95780635b5cf50a14610658578063715018a6146105fe5780638da5cb5b146105d6578063b14f2a3914610591578063b5cb15f714610572578063c6e064ad14610534578063cf04fb94146104f3578063cf5caa12146103b8578063cf69568814610390578063f2fde38b146102cd5763fa2f10c3146100de57600080fd5b346102c95791809161011e936100f336610bda565b979281969260018060a01b0387541691865195869485938493637276069d60e01b85528b8501610d43565b03915afa9384156102bf5785918695610291575b506101549061014b602096878082518301019101610d6f565b91905014610d96565b8381519101208085526002845261016f828620541515610dd0565b84526006835283209184519167ffffffffffffffff831161027e57506101958354610a0c565b601f811161023b575b5080601f83116001146101d957508394829394926101ce575b50508160011b916000199060031b1c191617905580f35b0151905038806101b7565b90601f198316958486528286209286905b8882106102235750508360019596971061020a575b505050811b01905580f35b015160001960f88460031b161c191690553880806101ff565b806001859682949686015181550195019301906101ea565b838552818520601f840160051c810191838510610274575b601f0160051c01905b818110610269575061019e565b85815560010161025c565b9091508190610253565b634e487b7160e01b855260419052602484fd5b6102b391955061015492503d8088833e6102ab8183610a46565b810190610cf5565b96929391506101329050565b82513d87823e3d90fd5b8280fd5b5090346102c95760203660031901126102c9576102e8610bc4565b906102f1610c5b565b6001600160a01b0391821692831561033e57505082546001600160a01b0319811683178455167f8be0079c531659141344cd1fd0a4f28419497f9722a3daafe3b4186f6b6457e08380a380f35b906020608492519162461bcd60e51b8352820152602660248201527f4f776e61626c653a206e6577206f776e657220697320746865207a65726f206160448201526564647265737360d01b6064820152fd5b5090346102c957826003193601126102c9575490516001600160a01b03909116815260209150f35b508290346104ef57806003193601126104ef578235916024803591828510156104a2576001956103eb8754851115610efc565b6103f58685610f37565b956103ff87610f5a565b9661040c87519889610a46565b80885261041b601f1991610f5a565b019060209136838a0137805b86811061043f5787518061043b8b826109d1565b0390f35b61044881610e12565b90546104548484610f37565b918b518310156104905760031b1c60059190911b8a01840152600019811461047d578901610427565b5050634e487b7160e01b83525060119052fd5b634e487b7160e01b8852603287528888fd5b835162461bcd60e51b81526020818801526022818401527f53544152545f494e4445585f475245415445525f5448414e5f454e445f494e4460448201526108ab60f31b6064820152608490fd5b5080fd5b5050346104ef5760203660031901126104ef5761050e610bc4565b610516610c5b565b81546001600160a01b0319166001600160a01b039190911617905580f35b50823461056f57602036600319011261056f57506105616020923561055c6001548210610efc565b610e12565b91905490519160031b1c8152f35b80fd5b8382346104ef57816003193601126104ef576020906001549051908152f35b833461056f57602036600319011261056f576105ab610bc4565b6105b3610c5b565b60018060a01b03166bffffffffffffffffffffffff60a01b600554161760055580f35b8382346104ef57816003193601126104ef57905490516001600160a01b039091168152602090f35b833461056f578060031936011261056f57610617610c5b565b80546001600160a01b03198116825581906001600160a01b03167f8be0079c531659141344cd1fd0a4f28419497f9722a3daafe3b4186f6b6457e08280a380f35b50913461056f57602036600319011261056f5750600554813591906001600160a01b03163303610696576020836105618461055c6001548210610efc565b606490602084519162461bcd60e51b8352820152600d60248201526c4f4e4c595f545245415355525960981b6044820152fd5b50346102c9579180916106df936100f336610bda565b03915afa9384156102bf578591869561089c575b5061070c9061014b602096878082518301019101610d6f565b83815191012091828552600684528185209086519067ffffffffffffffff8211610889575061073b8254610a0c565b601f8111610846575b5084601f82116001146107c357819087987f78997021e09413de1e36500ed07f9f6c73541162817fc3ea6a115e5e3d3affb998926107b8575b50508160011b916000199060031b1c19161790555b818552600283526107a68186205415610dd0565b6107af82610e5f565b5051908152a180f35b01519050388061077d565b82875285872097601f198316885b81811061082f5750917f78997021e09413de1e36500ed07f9f6c73541162817fc3ea6a115e5e3d3affb9989991846001959410610816575b505050811b019055610792565b015160001960f88460031b161c19169055388080610809565b838301518b556001909a01999288019288016107d1565b828752858720601f830160051c81019187841061087f575b601f0160051c01905b8181106108745750610744565b878155600101610867565b909150819061085e565b634e487b7160e01b875260419052602486fd5b6108b691955061070c92503d8088833e6102ab8183610a46565b96929391506106f39050565b5090346102c95760203660031901126102c957602092829135815260028452205415159051908152f35b5090346102c95760203660031901126102c9578161043b9361091692358152600660205220610a7e565b9051918291602083526020830190610b47565b8382346104ef57816003193601126104ef5760055490516001600160a01b039091168152602090f35b925050346102c957826003193601126102c957600180548084528185526020808501957fb10e2d527612073b26eecdfd717e6a320cf44b4afac2b0732d9fcbe2b7fa0cf69392915b8282106109bc5761043b87876109b2828c0383610a46565b51918291826109d1565b8454885296870196938301939083019061099a565b6020908160408183019282815285518094520193019160005b8281106109f8575050505090565b8351855293810193928101926001016109ea565b90600182811c92168015610a3c575b6020831014610a2657565b634e487b7160e01b600052602260045260246000fd5b91607f1691610a1b565b90601f8019910116810190811067ffffffffffffffff821117610a6857604052565b634e487b7160e01b600052604160045260246000fd5b9060405191826000825492610a9284610a0c565b908184526001948581169081600014610b015750600114610abe575b5050610abc92500383610a46565b565b9093915060005260209081600020936000915b818310610ae9575050610abc93508201013880610aae565b85548884018501529485019487945091830191610ad1565b915050610abc94506020925060ff191682840152151560051b8201013880610aae565b60005b838110610b375750506000910152565b8181015183820152602001610b27565b90602091610b6081518092818552858086019101610b24565b601f01601f1916010190565b67ffffffffffffffff8111610a6857601f01601f191660200190565b929192610b9482610b6c565b91610ba26040519384610a46565b829481845281830111610bbf578281602093846000960137010152565b600080fd5b600435906001600160a01b0382168203610bbf57565b6080600319820112610bbf5767ffffffffffffffff90600435828111610bbf5781602382011215610bbf5781816024610c1893600401359101610b88565b926024356001600160a01b0381168103610bbf579260443592606435918211610bbf5780602383011215610bbf57816024610c5893600401359101610b88565b90565b6000546001600160a01b03163303610c6f57565b606460405162461bcd60e51b815260206004820152602060248201527f4f776e61626c653a2063616c6c6572206973206e6f7420746865206f776e65726044820152fd5b81601f82011215610bbf578051610cc981610b6c565b92610cd76040519485610a46565b81845260208284010111610bbf57610c589160208085019101610b24565b91608083830312610bbf5782519067ffffffffffffffff91828111610bbf5783610d20918601610cb3565b936020810151936040820151936060830151908111610bbf57610c589201610cb3565b610d5b60409295949395606083526060830190610b47565b6001600160a01b0390951660208201520152565b9190826040910312610bbf5781516001600160a01b0381168103610bbf5760209092015190565b15610d9d57565b60405162461bcd60e51b815260206004820152600b60248201526a57524f4e475f4e4f4e434560a81b6044820152606490fd5b15610dd757565b60405162461bcd60e51b8152602060048201526013602482015272555345525f414c52454144595f45584953545360681b6044820152606490fd5b600154811015610e495760016000527fb10e2d527612073b26eecdfd717e6a320cf44b4afac2b0732d9fcbe2b7fa0cf60190600090565b634e487b7160e01b600052603260045260246000fd5b600081815260026020526040812054610ef75760015468010000000000000000811015610ee3576001810180600155811015610ecf5790826040927fb10e2d527612073b26eecdfd717e6a320cf44b4afac2b0732d9fcbe2b7fa0cf6015560015492815260026020522055600190565b634e487b7160e01b82526032600452602482fd5b634e487b7160e01b82526041600452602482fd5b905090565b15610f0357565b60405162461bcd60e51b815260206004820152600c60248201526b4f55545f4f465f52414e474560a01b6044820152606490fd5b91908203918211610f4457565b634e487b7160e01b600052601160045260246000fd5b67ffffffffffffffff8111610a685760051b6020019056fea2646970667358221220bc0e05fbba141b147821c3c373c52f1fa91811aec20e7602eee2f269af47164764736f6c63430008130033",
  "linkReferences": {},
  "deployedLinkReferences": {}
}