{
  "_format": "hh-sol-artifact-1",
  "contractName": "MecenateTreasury",
  "sourceName": "contracts/treasury/MecenateTreasury.sol",
  "abi": [
    {
      "anonymous": false,
      "inputs": [
        {
          "indexed": true,
          "internalType": "address",
          "name": "previousOwner",
          "type": "address"
        },
        {
          "indexed": true,
          "internalType": "address",
          "name": "newOwner",
          "type": "address"
        }
      ],
      "name": "OwnershipTransferred",
      "type": "event"
    },
    {
      "inputs": [
        {
          "internalType": "address",
          "name": "token",
          "type": "address"
        },
        {
          "internalType": "uint256",
          "name": "amount",
          "type": "uint256"
        }
      ],
      "name": "addERC20Funds",
      "outputs": [],
      "stateMutability": "nonpayable",
      "type": "function"
    },
    {
      "inputs": [],
      "name": "addFunds",
      "outputs": [],
      "stateMutability": "payable",
      "type": "function"
    },
    {
      "inputs": [
        {
          "internalType": "address",
          "name": "tokenA",
          "type": "address"
        },
        {
          "internalType": "address",
          "name": "tokenB",
          "type": "address"
        },
        {
          "internalType": "uint24",
          "name": "fee",
          "type": "uint24"
        },
        {
          "internalType": "uint256",
          "name": "amountA",
          "type": "uint256"
        },
        {
          "internalType": "uint256",
          "name": "amountB",
          "type": "uint256"
        },
        {
          "internalType": "int24",
          "name": "tickLower",
          "type": "int24"
        },
        {
          "internalType": "int24",
          "name": "tickUpper",
          "type": "int24"
        }
      ],
      "name": "addLiquidity",
      "outputs": [],
      "stateMutability": "nonpayable",
      "type": "function"
    },
    {
      "inputs": [
        {
          "internalType": "address",
          "name": "nativeAddr",
          "type": "address"
        },
        {
          "internalType": "contract ISwapRouter",
          "name": "swapRouterAddr",
          "type": "address"
        }
      ],
      "name": "configLiquidityProvider",
      "outputs": [],
      "stateMutability": "nonpayable",
      "type": "function"
    },
    {
      "inputs": [
        {
          "internalType": "address",
          "name": "token",
          "type": "address"
        },
        {
          "internalType": "uint256",
          "name": "amount",
          "type": "uint256"
        }
      ],
      "name": "customApprove",
      "outputs": [],
      "stateMutability": "nonpayable",
      "type": "function"
    },
    {
      "inputs": [],
      "name": "distributableBalance",
      "outputs": [
        {
          "internalType": "uint256",
          "name": "",
          "type": "uint256"
        }
      ],
      "stateMutability": "view",
      "type": "function"
    },
    {
      "inputs": [
        {
          "internalType": "address",
          "name": "",
          "type": "address"
        }
      ],
      "name": "distributableERC20Balance",
      "outputs": [
        {
          "internalType": "uint256",
          "name": "",
          "type": "uint256"
        }
      ],
      "stateMutability": "view",
      "type": "function"
    },
    {
      "inputs": [
        {
          "internalType": "address",
          "name": "usersContract",
          "type": "address"
        }
      ],
      "name": "distribute",
      "outputs": [],
      "stateMutability": "nonpayable",
      "type": "function"
    },
    {
      "inputs": [
        {
          "internalType": "address",
          "name": "token",
          "type": "address"
        },
        {
          "internalType": "address",
          "name": "usersContract",
          "type": "address"
        }
      ],
      "name": "distributeERC20",
      "outputs": [],
      "stateMutability": "nonpayable",
      "type": "function"
    },
    {
      "inputs": [],
      "name": "fixedFee",
      "outputs": [
        {
          "internalType": "uint256",
          "name": "",
          "type": "uint256"
        }
      ],
      "stateMutability": "view",
      "type": "function"
    },
    {
      "inputs": [],
      "name": "getDistributionBalance",
      "outputs": [
        {
          "internalType": "uint256",
          "name": "",
          "type": "uint256"
        }
      ],
      "stateMutability": "view",
      "type": "function"
    },
    {
      "inputs": [
        {
          "internalType": "address",
          "name": "token",
          "type": "address"
        }
      ],
      "name": "getDistributionERC20Balance",
      "outputs": [
        {
          "internalType": "uint256",
          "name": "",
          "type": "uint256"
        }
      ],
      "stateMutability": "view",
      "type": "function"
    },
    {
      "inputs": [
        {
          "internalType": "address",
          "name": "user",
          "type": "address"
        }
      ],
      "name": "getReward",
      "outputs": [
        {
          "internalType": "uint256",
          "name": "",
          "type": "uint256"
        }
      ],
      "stateMutability": "view",
      "type": "function"
    },
    {
      "inputs": [
        {
          "internalType": "address",
          "name": "token",
          "type": "address"
        },
        {
          "internalType": "address",
          "name": "user",
          "type": "address"
        }
      ],
      "name": "getRewardERC20",
      "outputs": [
        {
          "internalType": "uint256",
          "name": "",
          "type": "uint256"
        }
      ],
      "stateMutability": "view",
      "type": "function"
    },
    {
      "inputs": [],
      "name": "globalFee",
      "outputs": [
        {
          "internalType": "uint256",
          "name": "",
          "type": "uint256"
        }
      ],
      "stateMutability": "view",
      "type": "function"
    },
    {
      "inputs": [],
      "name": "lastDistributed",
      "outputs": [
        {
          "internalType": "uint256",
          "name": "",
          "type": "uint256"
        }
      ],
      "stateMutability": "view",
      "type": "function"
    },
    {
      "inputs": [],
      "name": "native",
      "outputs": [
        {
          "internalType": "address",
          "name": "",
          "type": "address"
        }
      ],
      "stateMutability": "view",
      "type": "function"
    },
    {
      "inputs": [],
      "name": "owner",
      "outputs": [
        {
          "internalType": "address",
          "name": "",
          "type": "address"
        }
      ],
      "stateMutability": "view",
      "type": "function"
    },
    {
      "inputs": [],
      "name": "ownerFee",
      "outputs": [
        {
          "internalType": "uint256",
          "name": "",
          "type": "uint256"
        }
      ],
      "stateMutability": "view",
      "type": "function"
    },
    {
      "inputs": [],
      "name": "positionManager",
      "outputs": [
        {
          "internalType": "contract INonfungiblePositionManager",
          "name": "",
          "type": "address"
        }
      ],
      "stateMutability": "view",
      "type": "function"
    },
    {
      "inputs": [],
      "name": "renounceOwnership",
      "outputs": [],
      "stateMutability": "nonpayable",
      "type": "function"
    },
    {
      "inputs": [
        {
          "internalType": "uint256",
          "name": "_fixedFee",
          "type": "uint256"
        }
      ],
      "name": "setFixedFee",
      "outputs": [],
      "stateMutability": "nonpayable",
      "type": "function"
    },
    {
      "inputs": [
        {
          "internalType": "uint256",
          "name": "_globalFee",
          "type": "uint256"
        }
      ],
      "name": "setGlobalFee",
      "outputs": [],
      "stateMutability": "nonpayable",
      "type": "function"
    },
    {
      "inputs": [
        {
          "internalType": "bool",
          "name": "_splitLiquidity",
          "type": "bool"
        }
      ],
      "name": "setSplitLiqudity",
      "outputs": [
        {
          "internalType": "bool",
          "name": "",
          "type": "bool"
        }
      ],
      "stateMutability": "nonpayable",
      "type": "function"
    },
    {
      "inputs": [
        {
          "internalType": "contract ISwapRouter",
          "name": "swapRouterAddress",
          "type": "address"
        }
      ],
      "name": "setSwapRouter",
      "outputs": [],
      "stateMutability": "nonpayable",
      "type": "function"
    },
    {
      "inputs": [],
      "name": "splitLiquidity",
      "outputs": [
        {
          "internalType": "bool",
          "name": "",
          "type": "bool"
        }
      ],
      "stateMutability": "view",
      "type": "function"
    },
    {
      "inputs": [
        {
          "internalType": "address",
          "name": "token0",
          "type": "address"
        },
        {
          "internalType": "address",
          "name": "token1",
          "type": "address"
        },
        {
          "internalType": "address",
          "name": "token2",
          "type": "address"
        },
        {
          "internalType": "uint24",
          "name": "fee",
          "type": "uint24"
        },
        {
          "internalType": "uint24",
          "name": "fee2",
          "type": "uint24"
        }
      ],
      "name": "swapAndBurn",
      "outputs": [],
      "stateMutability": "nonpayable",
      "type": "function"
    },
    {
      "inputs": [],
      "name": "swapRouter",
      "outputs": [
        {
          "internalType": "contract ISwapRouter",
          "name": "",
          "type": "address"
        }
      ],
      "stateMutability": "view",
      "type": "function"
    },
    {
      "inputs": [
        {
          "internalType": "address",
          "name": "token1",
          "type": "address"
        },
        {
          "internalType": "address",
          "name": "token2",
          "type": "address"
        },
        {
          "internalType": "uint256",
          "name": "amount",
          "type": "uint256"
        },
        {
          "internalType": "uint24",
          "name": "fee",
          "type": "uint24"
        }
      ],
      "name": "swapTokensForTokens",
      "outputs": [
        {
          "internalType": "uint256",
          "name": "",
          "type": "uint256"
        }
      ],
      "stateMutability": "nonpayable",
      "type": "function"
    },
    {
      "inputs": [
        {
          "internalType": "address",
          "name": "receiver",
          "type": "address"
        }
      ],
      "name": "takeReward",
      "outputs": [
        {
          "internalType": "uint256",
          "name": "",
          "type": "uint256"
        }
      ],
      "stateMutability": "nonpayable",
      "type": "function"
    },
    {
      "inputs": [
        {
          "internalType": "address",
          "name": "token",
          "type": "address"
        },
        {
          "internalType": "address",
          "name": "receiver",
          "type": "address"
        }
      ],
      "name": "takeRewardERC20",
      "outputs": [
        {
          "internalType": "uint256",
          "name": "",
          "type": "uint256"
        }
      ],
      "stateMutability": "nonpayable",
      "type": "function"
    },
    {
      "inputs": [
        {
          "internalType": "address",
          "name": "newOwner",
          "type": "address"
        }
      ],
      "name": "transferOwnership",
      "outputs": [],
      "stateMutability": "nonpayable",
      "type": "function"
    },
    {
      "inputs": [
        {
          "internalType": "address",
          "name": "",
          "type": "address"
        }
      ],
      "name": "userReward",
      "outputs": [
        {
          "internalType": "uint256",
          "name": "",
          "type": "uint256"
        }
      ],
      "stateMutability": "view",
      "type": "function"
    },
    {
      "inputs": [
        {
          "internalType": "address",
          "name": "",
          "type": "address"
        },
        {
          "internalType": "address",
          "name": "",
          "type": "address"
        }
      ],
      "name": "userRewardERC20",
      "outputs": [
        {
          "internalType": "uint256",
          "name": "",
          "type": "uint256"
        }
      ],
      "stateMutability": "view",
      "type": "function"
    },
    {
      "stateMutability": "payable",
      "type": "receive"
    }
  ],
  "bytecode": "0x6080806040523461006b5760008054336001600160a01b0319821681178355916001600160a01b03909116907f8be0079c531659141344cd1fd0a4f28419497f9722a3daafe3b4186f6b6457e09080a36064600455662386f26fc1000060055561191f90816100718239f35b600080fdfe608080604052600436101561002c575b50361561001b57600080fd5b6100273460075461150c565b600755005b600090813560e01c9081620a74be146113bd5750806305f6059d1461139857806310027a281461120557806311b0b42d1461136f5780631fce07d514611351578063291206f61461132e5780632ad2e08c146112a157806337de81061461127e578063412736571461123e578063568dbccf1461120557806363453ae114611062578063674ee49d146110175780636962a86314610da6578063715018a614610d4c5780637450bce914610b84578063791b98bc14610d23578063808fc20614610d0557806385258b4b14610c325780638da5cb5b14610c0b5780638f3a899a14610bc057806391792d5b14610ba2578063932f9f8a14610b84578063a26759cb14610b66578063af2c15c41461099e578063afbce84e146106c9578063bcb7557f14610678578063c00007b01461063f578063c31c9c0714610616578063d1a06cf814610460578063d5b2a01a14610442578063e266294314610305578063f2fde38b1461023f578063fc99d28f146101f65763ffdf2bcb0361000f57346101f35760403660031901126101f3576101c36113f3565b6101cb611431565b6001600160a01b03168152600b6020526040812080546101ee906024359061150c565b905580f35b80fd5b50346101f35760803660031901126101f35760206102376102156113f3565b61021d611409565b61022561141f565b9061022e611431565b60443592611519565b604051908152f35b50346101f35760203660031901126101f3576102596113f3565b610261611431565b6001600160a01b039081169081156102b157600054826001600160601b0360a01b821617600055167f8be0079c531659141344cd1fd0a4f28419497f9722a3daafe3b4186f6b6457e0600080a380f35b60405162461bcd60e51b815260206004820152602660248201527f4f776e61626c653a206e6577206f776e657220697320746865207a65726f206160448201526564647265737360d01b6064820152608490fd5b50346101f35760403660031901126101f357806103206113f3565b81610329611409565b610331611431565b60018060a01b03809316600354906044856001600160601b0360a01b948386861617600355168060015495861617600155600160a01b60ff60a01b1987541617865560405195869384928263095ea7b360e01b98898652161760048401528160248401526020998a9616175af191821561043757849261041a575b50604483600354169360015416918660405195869485938452600484015260001960248401525af1801561040f576103e2578280f35b8161040192903d10610408575b6103f98183611489565b8101906114ab565b5038808280f35b503d6103ef565b6040513d85823e3d90fd5b61043090833d8511610408576103f98183611489565b50386103ac565b6040513d87823e3d90fd5b50346101f357806003193601126101f3576020600854604051908152f35b50346101f35760403660031901126101f35761047a6113f3565b610482611409565b9060018060a01b03809116808452602091600b83526104a6604086205415156116d2565b818552600b8352806104e66127106104c56040892054600454906114c3565b046104d28160085461150c565b600855848852600b865260408820546116c5565b9416906040519463b5cb15f760e01b86528486600481865afa95861561060b5787966105d5575b50856105239161051e82151561171e565b6114ec565b91865b86811061053e5787600b878783525280604081205580f35b60405163c6e064ad60e01b815260048101829052908682602481865afa9182156105ca576105989285918b9161059d575b50168952600a875260408920866000528752604060002061059186825461150c565b905561176a565b610526565b6105bd9150893d8b116105c3575b6105b58183611489565b810190611779565b3861056f565b503d6105ab565b6040513d8b823e3d90fd5b9095508481813d8311610604575b6105ed8183611489565b810103126105ff57519461052361050d565b600080fd5b503d6105e3565b6040513d89823e3d90fd5b50346101f357806003193601126101f3576001546040516001600160a01b039091168152602090f35b50346101f35760203660031901126101f3576020906040906001600160a01b036106676113f3565b168152600983522054604051908152f35b50346101f35760403660031901126101f3576106926113f3565b906001600160a01b0390604090826106a8611409565b168152600a6020522091166000526020526020604060002054604051908152f35b50346101f35760e03660031901126101f3576106e36113f3565b6106eb611409565b6044359062ffffff821682036105ff5760a4358060020b81036105ff5760c435918260020b83036105ff5761071e611431565b60025460405163095ea7b360e01b81526001600160a01b0390911660048201526064356024820152602081806044810103818a6001600160a01b038b165af1801561060b5761097f575b5060025460405163095ea7b360e01b81526001600160a01b0391821660048201526084356024820181905292909116959194906020816044818b8b5af1801561097457610955575b506040519561016087019287841067ffffffffffffffff85111761093f5762ffffff9360405260018060a01b03168752602087015216604085015260020b606084015260020b608083015260643560a083015260c08201528160e0820152816101008201523061012082015242610140820152608061014061016460018060a01b036002541693856040519586948593634418b22b60e11b855260018060a01b03815116600486015260018060a01b03602082015116602486015262ffffff6040820151166044860152606081015160020b60648601528781015160020b608486015260a081015160a486015260c081015160c486015260e081015160e486015261010081015161010486015260018060a01b036101208201511661012486015201516101448401525af18015610934576108e9575080f35b6080813d821161092c575b8161090160809383611489565b8101031261092857602001516fffffffffffffffffffffffffffffffff8116036101f35780f35b5080fd5b3d91506108f4565b6040513d84823e3d90fd5b634e487b7160e01b600052604160045260246000fd5b61096d9060203d602011610408576103f98183611489565b50386107b0565b6040513d8a823e3d90fd5b6109979060203d602011610408576103f98183611489565b5038610768565b50346101f35760403660031901126101f3576109b86113f3565b6109c0611409565b91338152602092600a8452604082209260018060a01b031692836000528452604060002054928315610b2b57338352600a8552604080842060008381529087528190208490555163a9059cbb60e01b8187019081526001600160a01b039390931660248201526044808201869052815292610a3c606485611489565b60405192604084019084821067ffffffffffffffff83111761093f57610a9d9583926040528886527f5361666545524332303a206c6f772d6c6576656c2063616c6c206661696c656489870152519082855af1610a97611798565b916117d8565b805190838215928315610b13575b50505015610abb57604051908152f35b60405162461bcd60e51b815260048101839052602a60248201527f5361666545524332303a204552433230206f7065726174696f6e20646964206e6044820152691bdd081cdd58d8d9595960b21b6064820152608490fd5b610b2393508201810191016114ab565b388381610aab565b60405162461bcd60e51b81526004810186905260136024820152724e6f2072657761726420617661696c61626c6560681b6044820152606490fd5b50806003193601126101f357610b7e3460075461150c565b60075580f35b50346101f357806003193601126101f3576020600754604051908152f35b50346101f357806003193601126101f3576020600554604051908152f35b50346101f35760203660031901126101f35760043580151580910361092857610be7611431565b815460ff60a01b191660a09190911b60ff60a01b1617905560405160018152602090f35b50346101f357806003193601126101f357546040516001600160a01b039091168152602090f35b50346101f35760403660031901126101f357610c98610c4f6113f3565b610c57611431565b60015460405163095ea7b360e01b8082526001600160a01b039283166004830152602480359083015260209493831693919290918590849081906044820190565b038189885af1908115610cfa578593604492610cdd575b5060015416918660405195869485938452600484015260001960248401525af1801561040f576103e2578280f35b610cf390853d8711610408576103f98183611489565b5038610caf565b6040513d88823e3d90fd5b50346101f357806003193601126101f3576020600454604051908152f35b50346101f357806003193601126101f3576002546040516001600160a01b039091168152602090f35b50346101f357806003193601126101f357610d65611431565b600080546001600160a01b0319811682556001600160a01b03167f8be0079c531659141344cd1fd0a4f28419497f9722a3daafe3b4186f6b6457e08280a380f35b50346101f35760a03660031901126101f357610dc06113f3565b610dc8611409565b906044356001600160a01b038116900361101357610de461141f565b9062ffffff608435166084350361100f57610dfd611431565b6040516370a0823160e01b8152306004820152916020836024816001600160a01b0386165afa918215610437578592610fd5575b60015460405163095ea7b360e01b81526001600160a01b03909116600482015260248101849052935060208480604481015b0381896001600160a01b0386165af1908115610cfa57610e8f8692610e94968991610f73575b506118ac565b611519565b8015610f9d5760015460405163095ea7b360e01b81526001600160a01b039091166004820152602481018290529160208380604481010381876001600160a01b0386165af1928315610f9257610f0193610ef4918691610f7357506118ac565b6084359060443590611519565b6044356001600160a01b03163b1561092857604051630852cd8d60e31b815260048101919091528181602481836044356001600160a01b03165af1801561093457610f4a575080f35b67ffffffffffffffff8111610f5f5760405280f35b634e487b7160e01b82526041600452602482fd5b610f8c915060203d602011610408576103f98183611489565b38610e89565b6040513d86823e3d90fd5b60405162461bcd60e51b815260206004820152601060248201526f139bc81d1bdad95b9cc8189bdd59da1d60821b6044820152606490fd5b91506020833d602011611007575b81610ff060209383611489565b8101031261100357610e63925191610e31565b8480fd5b3d9150610fe3565b8380fd5b8280fd5b50346101f35760403660031901126101f35760406020916110366113f3565b61103e611409565b6001600160a01b039182168352600a85528383209116825283522054604051908152f35b50346101f3576020806003193601126109285761107d6113f3565b6201518061108d600654426116c5565b106111c0576110c86007546110a38115156116d2565b6127106110b2600454836114c3565b04906110c08260085461150c565b6008556116c5565b60405163b5cb15f760e01b8152926001600160a01b039283169290918285600481875afa948515610cfa57869561118b575b508461110b9161051e82151561171e565b92855b8581106111215786426006558060075580f35b60405163c6e064ad60e01b815260048101829052908482602481865afa918215610974576111699285918a9161116e575b50168852600985526040882061059187825461150c565b61110e565b6111859150873d89116105c3576105b58183611489565b38611152565b9094508281813d83116111b9575b6111a38183611489565b810103126111b557519361110b6110fa565b8580fd5b503d611199565b60405162461bcd60e51b815260048101839052601e60248201527f43616e206f6e6c792064697374726962757465206f6e636520612064617900006044820152606490fd5b50346101f35760203660031901126101f3576020906040906001600160a01b0361122d6113f3565b168152600b83522054604051908152f35b50346101f35760203660031901126101f3576112586113f3565b611260611431565b60018060a01b03166001600160601b0360a01b600154161760015580f35b50346101f35760203660031901126101f357611298611431565b60043560055580f35b50346101f35760203660031901126101f357808080806112bf6113f3565b338252600960205260408220805496905585906001600160a01b03165af16112e5611798565b50156112f657602090604051908152f35b60405162461bcd60e51b815260206004820152601060248201526f2a3930b739b332b9103330b4b632b21760811b6044820152606490fd5b50346101f35760203660031901126101f357611348611431565b60043560045580f35b50346101f357806003193601126101f3576020600654604051908152f35b50346101f357806003193601126101f3576003546040516001600160a01b039091168152602090f35b50346101f357806003193601126101f35760ff6020915460a01c166040519015158152f35b905034610928576020366003190112610928576020916040906001600160a01b036113e66113f3565b1681526009845220548152f35b600435906001600160a01b03821682036105ff57565b602435906001600160a01b03821682036105ff57565b6064359062ffffff821682036105ff57565b6000546001600160a01b0316330361144557565b606460405162461bcd60e51b815260206004820152602060248201527f4f776e61626c653a2063616c6c6572206973206e6f7420746865206f776e65726044820152fd5b90601f8019910116810190811067ffffffffffffffff82111761093f57604052565b908160209103126105ff575180151581036105ff5790565b818102929181159184041417156114d657565b634e487b7160e01b600052601160045260246000fd5b81156114f6570490565b634e487b7160e01b600052601260045260246000fd5b919082018092116114d657565b6001546040805163095ea7b360e01b81526001600160a01b0392831660048201526024810187905290959392909116906020816044816000865af180156116ba5761169b575b50605f830292808404605f14811517156114d657600a42018042116114d65786519161010083019183831067ffffffffffffffff84111761093f579188529282526001600160a01b03938416602083810191825262ffffff978816848a0190815230606086019081526080860194855260a0860196875260649889900460c08701908152600060e088018181526001548e5163414bf38960e01b815299518c1660048b015296518b1660248a01529351909b166044880152905188169886019890985292516084850152935160a4840152945160c483015251831660e482015293909284926101049284929091165af19182156116915750600091611662575090565b90506020813d602011611689575b8161167d60209383611489565b810103126105ff575190565b3d9150611670565b513d6000823e3d90fd5b6116b39060203d602011610408576103f98183611489565b503861155f565b86513d6000823e3d90fd5b919082039182116114d657565b156116d957565b60405162461bcd60e51b815260206004820152601860248201527f4e6f2064697374726962757461626c652062616c616e636500000000000000006044820152606490fd5b1561172557565b60405162461bcd60e51b815260206004820152601960248201527f4e6f20757365727320746f206469737472696275746520746f000000000000006044820152606490fd5b60001981146114d65760010190565b908160209103126105ff57516001600160a01b03811681036105ff5790565b3d156117d3573d9067ffffffffffffffff821161093f57604051916117c7601f8201601f191660200184611489565b82523d6000602084013e565b606090565b9192901561183a57508151156117ec575090565b3b156117f55790565b60405162461bcd60e51b815260206004820152601d60248201527f416464726573733a2063616c6c20746f206e6f6e2d636f6e74726163740000006044820152606490fd5b82519091501561184d5750805190602001fd5b6040519062461bcd60e51b82528160208060048301528251908160248401526000935b828510611893575050604492506000838284010152601f80199101168101030190fd5b8481018201518686016044015293810193859350611870565b156118b357565b60405162461bcd60e51b815260206004820152600e60248201526d105c1c1c9bdd994819985a5b195960921b6044820152606490fdfea26469706673582212208918286dea178562b1c39d1edcd7bf6e8a67156712ccb1dd5ed763ab717829ba64736f6c63430008130033",
  "linkReferences": {},
  "deployedLinkReferences": {}
}