{
  "_format": "hh-sol-artifact-1",
  "contractName": "MecenateFeed",
  "sourceName": "contracts/evm/features/MecenateFeed.sol",
  "abi": [
    {
      "inputs": [
        {
          "internalType": "address",
          "name": "_owner",
          "type": "address"
        },
        {
          "internalType": "address",
          "name": "_usersModuleContract",
          "type": "address"
        },
        {
          "internalType": "address",
          "name": "_factoryContract",
          "type": "address"
        },
        {
          "internalType": "string",
          "name": "_version",
          "type": "string"
        }
      ],
      "stateMutability": "nonpayable",
      "type": "constructor"
    },
    {
      "anonymous": false,
      "inputs": [
        {
          "components": [
            {
              "components": [
                {
                  "internalType": "address",
                  "name": "evmAddress",
                  "type": "address"
                },
                {
                  "internalType": "bytes",
                  "name": "sismoVaultId",
                  "type": "bytes"
                },
                {
                  "internalType": "bytes",
                  "name": "publicKey",
                  "type": "bytes"
                }
              ],
              "internalType": "struct Structures.User",
              "name": "creator",
              "type": "tuple"
            },
            {
              "components": [
                {
                  "components": [
                    {
                      "internalType": "enum Structures.PostStatus",
                      "name": "status",
                      "type": "uint8"
                    },
                    {
                      "internalType": "enum Structures.PostType",
                      "name": "postType",
                      "type": "uint8"
                    },
                    {
                      "internalType": "uint256",
                      "name": "creationTimeStamp",
                      "type": "uint256"
                    },
                    {
                      "internalType": "uint256",
                      "name": "endTimeStamp",
                      "type": "uint256"
                    },
                    {
                      "internalType": "uint256",
                      "name": "duration",
                      "type": "uint256"
                    },
                    {
                      "internalType": "enum Structures.Tokens",
                      "name": "tokenId",
                      "type": "uint8"
                    }
                  ],
                  "internalType": "struct Structures.PostSettings",
                  "name": "settings",
                  "type": "tuple"
                },
                {
                  "components": [
                    {
                      "internalType": "uint256",
                      "name": "stake",
                      "type": "uint256"
                    },
                    {
                      "internalType": "uint256",
                      "name": "payment",
                      "type": "uint256"
                    },
                    {
                      "internalType": "uint256",
                      "name": "punishment",
                      "type": "uint256"
                    },
                    {
                      "internalType": "uint256",
                      "name": "penalty",
                      "type": "uint256"
                    }
                  ],
                  "internalType": "struct Structures.PostEscrow",
                  "name": "escrow",
                  "type": "tuple"
                },
                {
                  "components": [
                    {
                      "internalType": "bytes",
                      "name": "encryptedData",
                      "type": "bytes"
                    },
                    {
                      "internalType": "bytes",
                      "name": "encryptedKey",
                      "type": "bytes"
                    },
                    {
                      "internalType": "bytes",
                      "name": "decryptedData",
                      "type": "bytes"
                    }
                  ],
                  "internalType": "struct Structures.PostEncryptedData",
                  "name": "data",
                  "type": "tuple"
                }
              ],
              "internalType": "struct Structures.PostData",
              "name": "postdata",
              "type": "tuple"
            }
          ],
          "indexed": false,
          "internalType": "struct Structures.Post",
          "name": "post",
          "type": "tuple"
        }
      ],
      "name": "Accepted",
      "type": "event"
    },
    {
      "anonymous": false,
      "inputs": [
        {
          "components": [
            {
              "components": [
                {
                  "internalType": "address",
                  "name": "evmAddress",
                  "type": "address"
                },
                {
                  "internalType": "bytes",
                  "name": "sismoVaultId",
                  "type": "bytes"
                },
                {
                  "internalType": "bytes",
                  "name": "publicKey",
                  "type": "bytes"
                }
              ],
              "internalType": "struct Structures.User",
              "name": "creator",
              "type": "tuple"
            },
            {
              "components": [
                {
                  "components": [
                    {
                      "internalType": "enum Structures.PostStatus",
                      "name": "status",
                      "type": "uint8"
                    },
                    {
                      "internalType": "enum Structures.PostType",
                      "name": "postType",
                      "type": "uint8"
                    },
                    {
                      "internalType": "uint256",
                      "name": "creationTimeStamp",
                      "type": "uint256"
                    },
                    {
                      "internalType": "uint256",
                      "name": "endTimeStamp",
                      "type": "uint256"
                    },
                    {
                      "internalType": "uint256",
                      "name": "duration",
                      "type": "uint256"
                    },
                    {
                      "internalType": "enum Structures.Tokens",
                      "name": "tokenId",
                      "type": "uint8"
                    }
                  ],
                  "internalType": "struct Structures.PostSettings",
                  "name": "settings",
                  "type": "tuple"
                },
                {
                  "components": [
                    {
                      "internalType": "uint256",
                      "name": "stake",
                      "type": "uint256"
                    },
                    {
                      "internalType": "uint256",
                      "name": "payment",
                      "type": "uint256"
                    },
                    {
                      "internalType": "uint256",
                      "name": "punishment",
                      "type": "uint256"
                    },
                    {
                      "internalType": "uint256",
                      "name": "penalty",
                      "type": "uint256"
                    }
                  ],
                  "internalType": "struct Structures.PostEscrow",
                  "name": "escrow",
                  "type": "tuple"
                },
                {
                  "components": [
                    {
                      "internalType": "bytes",
                      "name": "encryptedData",
                      "type": "bytes"
                    },
                    {
                      "internalType": "bytes",
                      "name": "encryptedKey",
                      "type": "bytes"
                    },
                    {
                      "internalType": "bytes",
                      "name": "decryptedData",
                      "type": "bytes"
                    }
                  ],
                  "internalType": "struct Structures.PostEncryptedData",
                  "name": "data",
                  "type": "tuple"
                }
              ],
              "internalType": "struct Structures.PostData",
              "name": "postdata",
              "type": "tuple"
            }
          ],
          "indexed": false,
          "internalType": "struct Structures.Post",
          "name": "post",
          "type": "tuple"
        }
      ],
      "name": "Created",
      "type": "event"
    },
    {
      "anonymous": false,
      "inputs": [
        {
          "indexed": false,
          "internalType": "enum Structures.Tokens",
          "name": "tokenID",
          "type": "uint8"
        },
        {
          "indexed": false,
          "internalType": "address",
          "name": "user",
          "type": "address"
        },
        {
          "indexed": false,
          "internalType": "uint256",
          "name": "amount",
          "type": "uint256"
        },
        {
          "indexed": false,
          "internalType": "uint256",
          "name": "newDeposit",
          "type": "uint256"
        }
      ],
      "name": "DepositDecreased",
      "type": "event"
    },
    {
      "anonymous": false,
      "inputs": [
        {
          "indexed": false,
          "internalType": "enum Structures.Tokens",
          "name": "tokenID",
          "type": "uint8"
        },
        {
          "indexed": false,
          "internalType": "address",
          "name": "user",
          "type": "address"
        },
        {
          "indexed": false,
          "internalType": "uint256",
          "name": "amount",
          "type": "uint256"
        },
        {
          "indexed": false,
          "internalType": "uint256",
          "name": "newDeposit",
          "type": "uint256"
        }
      ],
      "name": "DepositIncreased",
      "type": "event"
    },
    {
      "anonymous": false,
      "inputs": [
        {
          "components": [
            {
              "components": [
                {
                  "internalType": "address",
                  "name": "evmAddress",
                  "type": "address"
                },
                {
                  "internalType": "bytes",
                  "name": "sismoVaultId",
                  "type": "bytes"
                },
                {
                  "internalType": "bytes",
                  "name": "publicKey",
                  "type": "bytes"
                }
              ],
              "internalType": "struct Structures.User",
              "name": "creator",
              "type": "tuple"
            },
            {
              "components": [
                {
                  "components": [
                    {
                      "internalType": "enum Structures.PostStatus",
                      "name": "status",
                      "type": "uint8"
                    },
                    {
                      "internalType": "enum Structures.PostType",
                      "name": "postType",
                      "type": "uint8"
                    },
                    {
                      "internalType": "uint256",
                      "name": "creationTimeStamp",
                      "type": "uint256"
                    },
                    {
                      "internalType": "uint256",
                      "name": "endTimeStamp",
                      "type": "uint256"
                    },
                    {
                      "internalType": "uint256",
                      "name": "duration",
                      "type": "uint256"
                    },
                    {
                      "internalType": "enum Structures.Tokens",
                      "name": "tokenId",
                      "type": "uint8"
                    }
                  ],
                  "internalType": "struct Structures.PostSettings",
                  "name": "settings",
                  "type": "tuple"
                },
                {
                  "components": [
                    {
                      "internalType": "uint256",
                      "name": "stake",
                      "type": "uint256"
                    },
                    {
                      "internalType": "uint256",
                      "name": "payment",
                      "type": "uint256"
                    },
                    {
                      "internalType": "uint256",
                      "name": "punishment",
                      "type": "uint256"
                    },
                    {
                      "internalType": "uint256",
                      "name": "penalty",
                      "type": "uint256"
                    }
                  ],
                  "internalType": "struct Structures.PostEscrow",
                  "name": "escrow",
                  "type": "tuple"
                },
                {
                  "components": [
                    {
                      "internalType": "bytes",
                      "name": "encryptedData",
                      "type": "bytes"
                    },
                    {
                      "internalType": "bytes",
                      "name": "encryptedKey",
                      "type": "bytes"
                    },
                    {
                      "internalType": "bytes",
                      "name": "decryptedData",
                      "type": "bytes"
                    }
                  ],
                  "internalType": "struct Structures.PostEncryptedData",
                  "name": "data",
                  "type": "tuple"
                }
              ],
              "internalType": "struct Structures.PostData",
              "name": "postdata",
              "type": "tuple"
            }
          ],
          "indexed": false,
          "internalType": "struct Structures.Post",
          "name": "post",
          "type": "tuple"
        }
      ],
      "name": "Finalized",
      "type": "event"
    },
    {
      "anonymous": false,
      "inputs": [
        {
          "components": [
            {
              "components": [
                {
                  "internalType": "address",
                  "name": "evmAddress",
                  "type": "address"
                },
                {
                  "internalType": "bytes",
                  "name": "sismoVaultId",
                  "type": "bytes"
                },
                {
                  "internalType": "bytes",
                  "name": "publicKey",
                  "type": "bytes"
                }
              ],
              "internalType": "struct Structures.User",
              "name": "creator",
              "type": "tuple"
            },
            {
              "components": [
                {
                  "components": [
                    {
                      "internalType": "enum Structures.PostStatus",
                      "name": "status",
                      "type": "uint8"
                    },
                    {
                      "internalType": "enum Structures.PostType",
                      "name": "postType",
                      "type": "uint8"
                    },
                    {
                      "internalType": "uint256",
                      "name": "creationTimeStamp",
                      "type": "uint256"
                    },
                    {
                      "internalType": "uint256",
                      "name": "endTimeStamp",
                      "type": "uint256"
                    },
                    {
                      "internalType": "uint256",
                      "name": "duration",
                      "type": "uint256"
                    },
                    {
                      "internalType": "enum Structures.Tokens",
                      "name": "tokenId",
                      "type": "uint8"
                    }
                  ],
                  "internalType": "struct Structures.PostSettings",
                  "name": "settings",
                  "type": "tuple"
                },
                {
                  "components": [
                    {
                      "internalType": "uint256",
                      "name": "stake",
                      "type": "uint256"
                    },
                    {
                      "internalType": "uint256",
                      "name": "payment",
                      "type": "uint256"
                    },
                    {
                      "internalType": "uint256",
                      "name": "punishment",
                      "type": "uint256"
                    },
                    {
                      "internalType": "uint256",
                      "name": "penalty",
                      "type": "uint256"
                    }
                  ],
                  "internalType": "struct Structures.PostEscrow",
                  "name": "escrow",
                  "type": "tuple"
                },
                {
                  "components": [
                    {
                      "internalType": "bytes",
                      "name": "encryptedData",
                      "type": "bytes"
                    },
                    {
                      "internalType": "bytes",
                      "name": "encryptedKey",
                      "type": "bytes"
                    },
                    {
                      "internalType": "bytes",
                      "name": "decryptedData",
                      "type": "bytes"
                    }
                  ],
                  "internalType": "struct Structures.PostEncryptedData",
                  "name": "data",
                  "type": "tuple"
                }
              ],
              "internalType": "struct Structures.PostData",
              "name": "postdata",
              "type": "tuple"
            }
          ],
          "indexed": false,
          "internalType": "struct Structures.Post",
          "name": "post",
          "type": "tuple"
        }
      ],
      "name": "Invalid",
      "type": "event"
    },
    {
      "anonymous": false,
      "inputs": [
        {
          "components": [
            {
              "components": [
                {
                  "internalType": "address",
                  "name": "evmAddress",
                  "type": "address"
                },
                {
                  "internalType": "bytes",
                  "name": "sismoVaultId",
                  "type": "bytes"
                },
                {
                  "internalType": "bytes",
                  "name": "publicKey",
                  "type": "bytes"
                }
              ],
              "internalType": "struct Structures.User",
              "name": "creator",
              "type": "tuple"
            },
            {
              "components": [
                {
                  "components": [
                    {
                      "internalType": "enum Structures.PostStatus",
                      "name": "status",
                      "type": "uint8"
                    },
                    {
                      "internalType": "enum Structures.PostType",
                      "name": "postType",
                      "type": "uint8"
                    },
                    {
                      "internalType": "uint256",
                      "name": "creationTimeStamp",
                      "type": "uint256"
                    },
                    {
                      "internalType": "uint256",
                      "name": "endTimeStamp",
                      "type": "uint256"
                    },
                    {
                      "internalType": "uint256",
                      "name": "duration",
                      "type": "uint256"
                    },
                    {
                      "internalType": "enum Structures.Tokens",
                      "name": "tokenId",
                      "type": "uint8"
                    }
                  ],
                  "internalType": "struct Structures.PostSettings",
                  "name": "settings",
                  "type": "tuple"
                },
                {
                  "components": [
                    {
                      "internalType": "uint256",
                      "name": "stake",
                      "type": "uint256"
                    },
                    {
                      "internalType": "uint256",
                      "name": "payment",
                      "type": "uint256"
                    },
                    {
                      "internalType": "uint256",
                      "name": "punishment",
                      "type": "uint256"
                    },
                    {
                      "internalType": "uint256",
                      "name": "penalty",
                      "type": "uint256"
                    }
                  ],
                  "internalType": "struct Structures.PostEscrow",
                  "name": "escrow",
                  "type": "tuple"
                },
                {
                  "components": [
                    {
                      "internalType": "bytes",
                      "name": "encryptedData",
                      "type": "bytes"
                    },
                    {
                      "internalType": "bytes",
                      "name": "encryptedKey",
                      "type": "bytes"
                    },
                    {
                      "internalType": "bytes",
                      "name": "decryptedData",
                      "type": "bytes"
                    }
                  ],
                  "internalType": "struct Structures.PostEncryptedData",
                  "name": "data",
                  "type": "tuple"
                }
              ],
              "internalType": "struct Structures.PostData",
              "name": "postdata",
              "type": "tuple"
            }
          ],
          "indexed": false,
          "internalType": "struct Structures.Post",
          "name": "post",
          "type": "tuple"
        }
      ],
      "name": "MadePublic",
      "type": "event"
    },
    {
      "anonymous": false,
      "inputs": [
        {
          "components": [
            {
              "components": [
                {
                  "internalType": "address",
                  "name": "evmAddress",
                  "type": "address"
                },
                {
                  "internalType": "bytes",
                  "name": "sismoVaultId",
                  "type": "bytes"
                },
                {
                  "internalType": "bytes",
                  "name": "publicKey",
                  "type": "bytes"
                }
              ],
              "internalType": "struct Structures.User",
              "name": "creator",
              "type": "tuple"
            },
            {
              "components": [
                {
                  "components": [
                    {
                      "internalType": "enum Structures.PostStatus",
                      "name": "status",
                      "type": "uint8"
                    },
                    {
                      "internalType": "enum Structures.PostType",
                      "name": "postType",
                      "type": "uint8"
                    },
                    {
                      "internalType": "uint256",
                      "name": "creationTimeStamp",
                      "type": "uint256"
                    },
                    {
                      "internalType": "uint256",
                      "name": "endTimeStamp",
                      "type": "uint256"
                    },
                    {
                      "internalType": "uint256",
                      "name": "duration",
                      "type": "uint256"
                    },
                    {
                      "internalType": "enum Structures.Tokens",
                      "name": "tokenId",
                      "type": "uint8"
                    }
                  ],
                  "internalType": "struct Structures.PostSettings",
                  "name": "settings",
                  "type": "tuple"
                },
                {
                  "components": [
                    {
                      "internalType": "uint256",
                      "name": "stake",
                      "type": "uint256"
                    },
                    {
                      "internalType": "uint256",
                      "name": "payment",
                      "type": "uint256"
                    },
                    {
                      "internalType": "uint256",
                      "name": "punishment",
                      "type": "uint256"
                    },
                    {
                      "internalType": "uint256",
                      "name": "penalty",
                      "type": "uint256"
                    }
                  ],
                  "internalType": "struct Structures.PostEscrow",
                  "name": "escrow",
                  "type": "tuple"
                },
                {
                  "components": [
                    {
                      "internalType": "bytes",
                      "name": "encryptedData",
                      "type": "bytes"
                    },
                    {
                      "internalType": "bytes",
                      "name": "encryptedKey",
                      "type": "bytes"
                    },
                    {
                      "internalType": "bytes",
                      "name": "decryptedData",
                      "type": "bytes"
                    }
                  ],
                  "internalType": "struct Structures.PostEncryptedData",
                  "name": "data",
                  "type": "tuple"
                }
              ],
              "internalType": "struct Structures.PostData",
              "name": "postdata",
              "type": "tuple"
            }
          ],
          "indexed": false,
          "internalType": "struct Structures.Post",
          "name": "post",
          "type": "tuple"
        }
      ],
      "name": "Renounced",
      "type": "event"
    },
    {
      "anonymous": false,
      "inputs": [
        {
          "indexed": false,
          "internalType": "address",
          "name": "staker",
          "type": "address"
        },
        {
          "indexed": false,
          "internalType": "uint256",
          "name": "amount",
          "type": "uint256"
        },
        {
          "indexed": false,
          "internalType": "enum Structures.Tokens",
          "name": "tokenId",
          "type": "uint8"
        }
      ],
      "name": "StakeAdded",
      "type": "event"
    },
    {
      "anonymous": false,
      "inputs": [
        {
          "indexed": false,
          "internalType": "address",
          "name": "staker",
          "type": "address"
        },
        {
          "indexed": false,
          "internalType": "uint256",
          "name": "amount",
          "type": "uint256"
        }
      ],
      "name": "StakeBurned",
      "type": "event"
    },
    {
      "anonymous": false,
      "inputs": [
        {
          "indexed": false,
          "internalType": "address",
          "name": "staker",
          "type": "address"
        },
        {
          "indexed": false,
          "internalType": "uint256",
          "name": "amount",
          "type": "uint256"
        },
        {
          "indexed": false,
          "internalType": "enum Structures.Tokens",
          "name": "tokenId",
          "type": "uint8"
        }
      ],
      "name": "StakeTaken",
      "type": "event"
    },
    {
      "anonymous": false,
      "inputs": [
        {
          "components": [
            {
              "components": [
                {
                  "internalType": "address",
                  "name": "evmAddress",
                  "type": "address"
                },
                {
                  "internalType": "bytes",
                  "name": "sismoVaultId",
                  "type": "bytes"
                },
                {
                  "internalType": "bytes",
                  "name": "publicKey",
                  "type": "bytes"
                }
              ],
              "internalType": "struct Structures.User",
              "name": "creator",
              "type": "tuple"
            },
            {
              "components": [
                {
                  "components": [
                    {
                      "internalType": "enum Structures.PostStatus",
                      "name": "status",
                      "type": "uint8"
                    },
                    {
                      "internalType": "enum Structures.PostType",
                      "name": "postType",
                      "type": "uint8"
                    },
                    {
                      "internalType": "uint256",
                      "name": "creationTimeStamp",
                      "type": "uint256"
                    },
                    {
                      "internalType": "uint256",
                      "name": "endTimeStamp",
                      "type": "uint256"
                    },
                    {
                      "internalType": "uint256",
                      "name": "duration",
                      "type": "uint256"
                    },
                    {
                      "internalType": "enum Structures.Tokens",
                      "name": "tokenId",
                      "type": "uint8"
                    }
                  ],
                  "internalType": "struct Structures.PostSettings",
                  "name": "settings",
                  "type": "tuple"
                },
                {
                  "components": [
                    {
                      "internalType": "uint256",
                      "name": "stake",
                      "type": "uint256"
                    },
                    {
                      "internalType": "uint256",
                      "name": "payment",
                      "type": "uint256"
                    },
                    {
                      "internalType": "uint256",
                      "name": "punishment",
                      "type": "uint256"
                    },
                    {
                      "internalType": "uint256",
                      "name": "penalty",
                      "type": "uint256"
                    }
                  ],
                  "internalType": "struct Structures.PostEscrow",
                  "name": "escrow",
                  "type": "tuple"
                },
                {
                  "components": [
                    {
                      "internalType": "bytes",
                      "name": "encryptedData",
                      "type": "bytes"
                    },
                    {
                      "internalType": "bytes",
                      "name": "encryptedKey",
                      "type": "bytes"
                    },
                    {
                      "internalType": "bytes",
                      "name": "decryptedData",
                      "type": "bytes"
                    }
                  ],
                  "internalType": "struct Structures.PostEncryptedData",
                  "name": "data",
                  "type": "tuple"
                }
              ],
              "internalType": "struct Structures.PostData",
              "name": "postdata",
              "type": "tuple"
            }
          ],
          "indexed": false,
          "internalType": "struct Structures.Post",
          "name": "post",
          "type": "tuple"
        }
      ],
      "name": "Valid",
      "type": "event"
    },
    {
      "inputs": [
        {
          "internalType": "enum Structures.Tokens",
          "name": "tokenId",
          "type": "uint8"
        },
        {
          "internalType": "uint256",
          "name": "paymentAmount",
          "type": "uint256"
        },
        {
          "internalType": "address",
          "name": "funder",
          "type": "address"
        }
      ],
      "name": "acceptPost",
      "outputs": [],
      "stateMutability": "payable",
      "type": "function"
    },
    {
      "inputs": [
        {
          "internalType": "enum Structures.Tokens",
          "name": "tokenId",
          "type": "uint8"
        },
        {
          "internalType": "address",
          "name": "_funder",
          "type": "address"
        },
        {
          "internalType": "uint256",
          "name": "amountToAdd",
          "type": "uint256"
        }
      ],
      "name": "addStake",
      "outputs": [
        {
          "internalType": "uint256",
          "name": "",
          "type": "uint256"
        }
      ],
      "stateMutability": "payable",
      "type": "function"
    },
    {
      "inputs": [
        {
          "internalType": "bytes",
          "name": "encryptedHash",
          "type": "bytes"
        },
        {
          "internalType": "enum Structures.PostType",
          "name": "postType",
          "type": "uint8"
        },
        {
          "internalType": "enum Structures.PostDuration",
          "name": "postDuration",
          "type": "uint8"
        },
        {
          "internalType": "uint256",
          "name": "payment",
          "type": "uint256"
        },
        {
          "internalType": "uint256",
          "name": "stakeAmount",
          "type": "uint256"
        },
        {
          "internalType": "enum Structures.Tokens",
          "name": "tokenId",
          "type": "uint8"
        },
        {
          "internalType": "address",
          "name": "funder",
          "type": "address"
        }
      ],
      "name": "createPost",
      "outputs": [
        {
          "components": [
            {
              "components": [
                {
                  "internalType": "address",
                  "name": "evmAddress",
                  "type": "address"
                },
                {
                  "internalType": "bytes",
                  "name": "sismoVaultId",
                  "type": "bytes"
                },
                {
                  "internalType": "bytes",
                  "name": "publicKey",
                  "type": "bytes"
                }
              ],
              "internalType": "struct Structures.User",
              "name": "creator",
              "type": "tuple"
            },
            {
              "components": [
                {
                  "components": [
                    {
                      "internalType": "enum Structures.PostStatus",
                      "name": "status",
                      "type": "uint8"
                    },
                    {
                      "internalType": "enum Structures.PostType",
                      "name": "postType",
                      "type": "uint8"
                    },
                    {
                      "internalType": "uint256",
                      "name": "creationTimeStamp",
                      "type": "uint256"
                    },
                    {
                      "internalType": "uint256",
                      "name": "endTimeStamp",
                      "type": "uint256"
                    },
                    {
                      "internalType": "uint256",
                      "name": "duration",
                      "type": "uint256"
                    },
                    {
                      "internalType": "enum Structures.Tokens",
                      "name": "tokenId",
                      "type": "uint8"
                    }
                  ],
                  "internalType": "struct Structures.PostSettings",
                  "name": "settings",
                  "type": "tuple"
                },
                {
                  "components": [
                    {
                      "internalType": "uint256",
                      "name": "stake",
                      "type": "uint256"
                    },
                    {
                      "internalType": "uint256",
                      "name": "payment",
                      "type": "uint256"
                    },
                    {
                      "internalType": "uint256",
                      "name": "punishment",
                      "type": "uint256"
                    },
                    {
                      "internalType": "uint256",
                      "name": "penalty",
                      "type": "uint256"
                    }
                  ],
                  "internalType": "struct Structures.PostEscrow",
                  "name": "escrow",
                  "type": "tuple"
                },
                {
                  "components": [
                    {
                      "internalType": "bytes",
                      "name": "encryptedData",
                      "type": "bytes"
                    },
                    {
                      "internalType": "bytes",
                      "name": "encryptedKey",
                      "type": "bytes"
                    },
                    {
                      "internalType": "bytes",
                      "name": "decryptedData",
                      "type": "bytes"
                    }
                  ],
                  "internalType": "struct Structures.PostEncryptedData",
                  "name": "data",
                  "type": "tuple"
                }
              ],
              "internalType": "struct Structures.PostData",
              "name": "postdata",
              "type": "tuple"
            }
          ],
          "internalType": "struct Structures.Post",
          "name": "",
          "type": "tuple"
        }
      ],
      "stateMutability": "payable",
      "type": "function"
    },
    {
      "inputs": [
        {
          "internalType": "bool",
          "name": "valid",
          "type": "bool"
        },
        {
          "internalType": "uint256",
          "name": "punishment",
          "type": "uint256"
        }
      ],
      "name": "finalizePost",
      "outputs": [],
      "stateMutability": "nonpayable",
      "type": "function"
    },
    {
      "inputs": [],
      "name": "getBuyerStake",
      "outputs": [
        {
          "internalType": "uint256",
          "name": "amount",
          "type": "uint256"
        }
      ],
      "stateMutability": "view",
      "type": "function"
    },
    {
      "inputs": [],
      "name": "getPaymentRequested",
      "outputs": [
        {
          "internalType": "uint256",
          "name": "",
          "type": "uint256"
        }
      ],
      "stateMutability": "view",
      "type": "function"
    },
    {
      "inputs": [],
      "name": "getSellerStake",
      "outputs": [
        {
          "internalType": "uint256",
          "name": "amount",
          "type": "uint256"
        }
      ],
      "stateMutability": "view",
      "type": "function"
    },
    {
      "inputs": [
        {
          "internalType": "enum Structures.Tokens",
          "name": "tokenId",
          "type": "uint8"
        },
        {
          "internalType": "address",
          "name": "staker",
          "type": "address"
        }
      ],
      "name": "getStake",
      "outputs": [
        {
          "internalType": "uint256",
          "name": "amount",
          "type": "uint256"
        }
      ],
      "stateMutability": "view",
      "type": "function"
    },
    {
      "inputs": [],
      "name": "getStakeRequested",
      "outputs": [
        {
          "internalType": "uint256",
          "name": "",
          "type": "uint256"
        }
      ],
      "stateMutability": "view",
      "type": "function"
    },
    {
      "inputs": [],
      "name": "getStatus",
      "outputs": [
        {
          "internalType": "enum Structures.PostStatus",
          "name": "",
          "type": "uint8"
        }
      ],
      "stateMutability": "view",
      "type": "function"
    },
    {
      "inputs": [],
      "name": "getTokenId",
      "outputs": [
        {
          "internalType": "enum Structures.Tokens",
          "name": "",
          "type": "uint8"
        }
      ],
      "stateMutability": "view",
      "type": "function"
    },
    {
      "inputs": [],
      "name": "getTokenIdAddress",
      "outputs": [
        {
          "internalType": "address",
          "name": "",
          "type": "address"
        }
      ],
      "stateMutability": "view",
      "type": "function"
    },
    {
      "inputs": [],
      "name": "getTotalStaked",
      "outputs": [
        {
          "internalType": "uint256",
          "name": "",
          "type": "uint256"
        }
      ],
      "stateMutability": "view",
      "type": "function"
    },
    {
      "inputs": [],
      "name": "owner",
      "outputs": [
        {
          "internalType": "address",
          "name": "",
          "type": "address"
        }
      ],
      "stateMutability": "view",
      "type": "function"
    },
    {
      "inputs": [],
      "name": "post",
      "outputs": [
        {
          "components": [
            {
              "internalType": "address",
              "name": "evmAddress",
              "type": "address"
            },
            {
              "internalType": "bytes",
              "name": "sismoVaultId",
              "type": "bytes"
            },
            {
              "internalType": "bytes",
              "name": "publicKey",
              "type": "bytes"
            }
          ],
          "internalType": "struct Structures.User",
          "name": "creator",
          "type": "tuple"
        },
        {
          "components": [
            {
              "components": [
                {
                  "internalType": "enum Structures.PostStatus",
                  "name": "status",
                  "type": "uint8"
                },
                {
                  "internalType": "enum Structures.PostType",
                  "name": "postType",
                  "type": "uint8"
                },
                {
                  "internalType": "uint256",
                  "name": "creationTimeStamp",
                  "type": "uint256"
                },
                {
                  "internalType": "uint256",
                  "name": "endTimeStamp",
                  "type": "uint256"
                },
                {
                  "internalType": "uint256",
                  "name": "duration",
                  "type": "uint256"
                },
                {
                  "internalType": "enum Structures.Tokens",
                  "name": "tokenId",
                  "type": "uint8"
                }
              ],
              "internalType": "struct Structures.PostSettings",
              "name": "settings",
              "type": "tuple"
            },
            {
              "components": [
                {
                  "internalType": "uint256",
                  "name": "stake",
                  "type": "uint256"
                },
                {
                  "internalType": "uint256",
                  "name": "payment",
                  "type": "uint256"
                },
                {
                  "internalType": "uint256",
                  "name": "punishment",
                  "type": "uint256"
                },
                {
                  "internalType": "uint256",
                  "name": "penalty",
                  "type": "uint256"
                }
              ],
              "internalType": "struct Structures.PostEscrow",
              "name": "escrow",
              "type": "tuple"
            },
            {
              "components": [
                {
                  "internalType": "bytes",
                  "name": "encryptedData",
                  "type": "bytes"
                },
                {
                  "internalType": "bytes",
                  "name": "encryptedKey",
                  "type": "bytes"
                },
                {
                  "internalType": "bytes",
                  "name": "decryptedData",
                  "type": "bytes"
                }
              ],
              "internalType": "struct Structures.PostEncryptedData",
              "name": "data",
              "type": "tuple"
            }
          ],
          "internalType": "struct Structures.PostData",
          "name": "postdata",
          "type": "tuple"
        }
      ],
      "stateMutability": "view",
      "type": "function"
    },
    {
      "inputs": [],
      "name": "postCount",
      "outputs": [
        {
          "internalType": "uint256",
          "name": "",
          "type": "uint256"
        }
      ],
      "stateMutability": "view",
      "type": "function"
    },
    {
      "inputs": [],
      "name": "renouncePost",
      "outputs": [],
      "stateMutability": "nonpayable",
      "type": "function"
    },
    {
      "inputs": [
        {
          "internalType": "bytes",
          "name": "decryptedData",
          "type": "bytes"
        },
        {
          "internalType": "bytes",
          "name": "sismoConnectResponse",
          "type": "bytes"
        },
        {
          "internalType": "address",
          "name": "_to",
          "type": "address"
        },
        {
          "internalType": "address",
          "name": "_from",
          "type": "address"
        }
      ],
      "name": "revealData",
      "outputs": [
        {
          "internalType": "bytes",
          "name": "",
          "type": "bytes"
        }
      ],
      "stateMutability": "nonpayable",
      "type": "function"
    },
    {
      "inputs": [
        {
          "internalType": "bytes",
          "name": "encryptedKey",
          "type": "bytes"
        }
      ],
      "name": "submitHash",
      "outputs": [],
      "stateMutability": "nonpayable",
      "type": "function"
    },
    {
      "inputs": [
        {
          "internalType": "enum Structures.Tokens",
          "name": "tokenId",
          "type": "uint8"
        },
        {
          "internalType": "bytes",
          "name": "sismoConnectResponse",
          "type": "bytes"
        },
        {
          "internalType": "address",
          "name": "receiver",
          "type": "address"
        }
      ],
      "name": "takeFullStake",
      "outputs": [
        {
          "internalType": "uint256",
          "name": "",
          "type": "uint256"
        }
      ],
      "stateMutability": "nonpayable",
      "type": "function"
    },
    {
      "inputs": [
        {
          "internalType": "enum Structures.Tokens",
          "name": "tokenId",
          "type": "uint8"
        },
        {
          "internalType": "address",
          "name": "receiver",
          "type": "address"
        },
        {
          "internalType": "uint256",
          "name": "amountToTake",
          "type": "uint256"
        }
      ],
      "name": "takeStake",
      "outputs": [
        {
          "internalType": "uint256",
          "name": "",
          "type": "uint256"
        }
      ],
      "stateMutability": "nonpayable",
      "type": "function"
    },
    {
      "inputs": [],
      "name": "version",
      "outputs": [
        {
          "internalType": "string",
          "name": "",
          "type": "string"
        }
      ],
      "stateMutability": "view",
      "type": "function"
    },
    {
      "stateMutability": "payable",
      "type": "receive"
    }
  ],
  "bytecode": "0x6080604090808252346200036e5762004fb7803803809162000022828562000389565b833981016080828203126200036e576200003c82620003ad565b6020916200004c838501620003ad565b936200005a868201620003ad565b60608201516001600160401b03928382116200036e5701601f908482820112156200036e5780518481116200037357895191601f1996620000a28a8987860116018562000389565b8284528983830101116200036e57889060005b838110620003595750506000918301015267016345785d8a0000601255600060135560018060a01b039687938460018060a01b03199a168a6014541617601455338a6015541617601555818b5180926303e21fa960e61b8252816004988992165afa80156200034e5789916000916200030c575b501689601654161760165560ff19938481541681556000805260188252620151808b60002055600194856000526203f4808c60002055600260005262093a808c600020556003600052621275008c600020558160005262278d008c600020556000805260198352858c600020918254161790558251958611620002f757601754908582811c92168015620002ec575b83831014620002d757508381116200028b575b50809285116001146200022057508394509083929160009462000214575b50501b916000199060031b1c1916176017555b1690600054161760005551614bf49081620003c38239f35b015192503880620001e9565b929484908116601760005284600020946000905b8883831062000270575050501062000256575b505050811b01601755620001fc565b015160001960f88460031b161c1916905538808062000247565b85870151885590960195948501948793509081019062000234565b6017600052816000208480880160051c820192848910620002cd575b0160051c019085905b828110620002c0575050620001cb565b60008155018590620002b0565b92508192620002a7565b602290634e487b7160e01b6000525260246000fd5b91607f1691620001b8565b604190634e487b7160e01b6000525260246000fd5b91508282813d831162000346575b62000326818362000389565b810103126200034357506200033c8991620003ad565b3862000129565b80fd5b503d6200031a565b8b513d6000823e3d90fd5b8181018301518582018401528a9201620000b5565b600080fd5b634e487b7160e01b600052604160045260246000fd5b601f909101601f19168101906001600160401b038211908210176200037357604052565b51906001600160a01b03821682036200036e5756fe608080604052600436101561001d575b50361561001b57600080fd5b005b60003560e01c908163010a38f514612c955750806305c1f502146128605780630917e7761461281a57806317906c2e146127fc5780631d0b4af51461272d5780633d876d5d14611f39578063423932be1461199e57806348e17f0e146116bb5780634c38d8771461168b5780634e69d560146116635780634fcf370f146113ac57806352a6cb4a1461136f57806354fd4d501461128d5780635ad4e170146112605780635c63ed69146112305780638da5cb5b146112075780638f903c7914610f0b578063939e99fa146102e6578063d24e0c87146102c8578063df3832af1461021a578063ed70d5d51461013f5763faeb5e171461011c573861000f565b3461013a57600036600319011261013a576020600954604051908152f35b600080fd5b3461013a5761014d36612f4b565b60ff60089392935416600381101561020457600383101561020457610173908314613471565b81600052601a60205260406000203360005260205280604060002054106101cc576020926101a29233906148dc565b601054336001600160a01b03909116036101c35780600a555b604051908152f35b806009556101bb565b60405162461bcd60e51b815260206004820152601060248201526f4e4f545f454e4f5547485f5354414b4560801b6044820152606490fd5b634e487b7160e01b600052602160045260246000fd5b3461013a57606036600319011261013a57600435600381101561013a576024356001600160401b03811161013a57610256903690600401612f99565b5061025f612f35565b9060ff6008541690600382101561020457602092610281610293938314613471565b61028b33836135eb565b9133906148dc565b6010546001600160a01b039033908216036102b5575080600a55604051908152f35b6011541633036101bb57806009556101bb565b3461013a57600036600319011261013a576020600a54604051908152f35b60e036600319011261013a576004356001600160401b03811161013a57610311903690600401612f99565b6005602435101561013a576005604435101561013a57600360a435101561013a5760c4356001600160a01b038116900361013a5760405161035181612d4c565b60405161035d81612cfb565b600081526060602082015260606040820152815260206040519161038083612cfb565b60405161038c81612d16565b60008152600083820152600060408201526000606082015260006080820152600060a082015283526040516103c081612d31565b600081526000838201526000604082015260006060820152828401526040516103e881612cfb565b6060815260608382015260606040820152604084015201526000600160a435148015610efc575b8015610eeb575b6104209150613471565b6000546001600160a01b0316330361013a5760145460405163122643f360e21b815233600482015290602090829060249082906001600160a01b03165afa908115610e4157600091610ebc575b5015610e865760ff60045416600881101561020457600052601960205261049b60ff60406000205416613015565b60843515610e4d576104ae604435612db6565b60ff604435166000526018602052604060002054906104d560843560c4353360a435613843565b9060ff60045416916008831015610204576024926000526019602052604060002060ff19815416905560016000526040600020600160ff19825416179055600160ff196004541617600455600060018060a01b036014541660405194858092633bcaa1d960e21b82523360048301525afa928315610e4157600093610d8e575b506040519361056385612d16565b60018552610572602435612db6565b602435602086015242604086015260006060860152608085015261059b60a43560a08601612dc0565b604051906105a882612d31565b8152606435602082015260006040820152600060608201526105c8613501565b6105d0613501565b90604051936105de85612cfb565b845260208401526040830152604051936105f785612cfb565b8452602084015260408301526040519161061083612d4c565b81835260208301528051600180546001600160a01b0319166001600160a01b039290921691909117905560208101518051906001600160401b0382116109ec5761065b600254612cc1565b601f8111610d25575b50602090601f8311600114610cac57604093929160009183610ca1575b50508160011b916000199060031b1c1916176002555b01518051906001600160401b0382116109ec5781906106b7600354612cc1565b601f8111610c2a575b50602090601f8311600114610bb257600092610ba7575b50508160011b916000199060031b1c1916176003555b6020810151805180519060088210156102045761070b60a0926130ab565b602081015161071981612db6565b61072281612db6565b61ff006004549160081b169061ff0019161760045560408101516005556060810151600655608081015160075501519060038210156102045760409160ff8019600854169116176008556060602082015180516009556020810151600a5583810151600b550151600c5501519081519182516001600160401b0381116109ec576107ad600d54612cc1565b601f8111610b54575b506020601f8211600114610ae25781929394600092610ad7575b50508160011b916000199060031b1c191617600d555b60208101518051906001600160401b0382116109ec57610807600e54612cc1565b601f8111610a84575b50602090601f8311600114610a0d57604093929160009183610a02575b50508160011b916000199060031b1c191617600e555b01519081516001600160401b0381116109ec57610861600f54612cc1565b601f8111610999575b50602092601f8211600114610929579281929360009261091e575b50508160011b916000199060031b1c191617600f555b6013549060001982146109085760016109049201601355336001600160601b0360a01b60115416176011557f32444e7b4a54d133e7b42c066eb65166a0c0a74d57ceffa00b125094dd0d38b5604051806108f58482612fe0565b0390a160405191829182612fe0565b0390f35b634e487b7160e01b600052601160045260246000fd5b015190508380610885565b601f19821693600f600052600080516020614b9f8339815191529160005b8681106109815750836001959610610968575b505050811b01600f5561089b565b015160001960f88460031b161c1916905583808061095a565b91926020600181928685015181550194019201610947565b600f600052600080516020614b9f833981519152601f830160051c810191602084106109e2575b601f0160051c01905b8181106109d6575061086a565b600081556001016109c9565b90915081906109c0565b634e487b7160e01b600052604160045260246000fd5b01519050858061082d565b90601f19831691600e600052600080516020614b5f8339815191529260005b818110610a6c5750916001939185604097969410610a53575b505050811b01600e55610843565b015160001960f88460031b161c19169055858080610a45565b92936020600181928786015181550195019301610a2c565b600e600052600080516020614b5f833981519152601f840160051c81019160208510610acd575b601f0160051c01905b818110610ac15750610810565b60008155600101610ab4565b9091508190610aab565b0151905084806107d0565b601f19821690600d600052600080516020614b7f8339815191529160005b818110610b3c57509583600195969710610b23575b505050811b01600d556107e6565b015160001960f88460031b161c19169055848080610b15565b9192602060018192868b015181550194019201610b00565b600d600052600080516020614b7f833981519152601f830160051c81019160208410610b9d575b601f0160051c01905b818110610b9157506107b6565b60008155600101610b84565b9091508190610b7b565b0151905083806106d7565b92506003600052600080516020614b3f833981519152906000935b601f1984168510610c0f576001945083601f19811610610bf6575b505050811b016003556106ed565b015160001960f88460031b161c19169055838080610be8565b81810151835560209485019460019093019290910190610bcd565b9091506003600052601f830160051c600080516020614b3f833981519152019060208410610c8b575b90601f8493920160051c600080516020614b3f83398151915201905b818110610c7c57506106c0565b60008155849350600101610c6f565b600080516020614b3f8339815191529150610c53565b015190508580610681565b906002600052600080516020614b1f8339815191529160005b601f1985168110610d0d575091839160019360409695601f19811610610cf4575b505050811b01600255610697565b015160001960f88460031b161c19169055858080610ce6565b91926020600181928685015181550194019201610cc5565b6002600052601f830160051c600080516020614b1f8339815191520160208410610d79575b601f820160051c600080516020614b1f833981519152018110610d6d5750610664565b60008155600101610d4a565b50600080516020614b1f833981519152610d4a565b9092503d806000833e610da18183612d95565b602082828101031261013a578151916001600160401b03831161013a576060838201838301031261013a5760405192610dd984612cfb565b610de48183016134ab565b8452602081830101516001600160401b03811161013a57610e0c9084840190838501016134bf565b602085015260408183010151906001600160401b03821161013a57610e359383019201016134bf565b60408201529184610555565b6040513d6000823e3d90fd5b60405162461bcd60e51b81526020600482015260116024820152705354414b455f414d4f554e545f5a45524f60781b6044820152606490fd5b60405162461bcd60e51b815260206004820152600e60248201526d1554d15497d393d517d1561254d560921b6044820152606490fd5b610ede915060203d602011610ee4575b610ed68183612d95565b810190613052565b8261046d565b503d610ecc565b506102045761042060a43515610416565b50506000600260a4351461040f565b3461013a5760208060031936011261013a576001600160401b039060043582811161013a57610f3e903690600401612f99565b60115490916001600160a01b0391610f599083163314613619565b60ff60045416600881101561020457806000526019825260ff60406000205416806111f3575b156111bf5760248284601454166040519283809263122643f360e21b82523360048301525afa908115610e41576000916111a2575b501561116757610fcb600193339085541614613619565b6000526019815260406000209260ff1993848154169055600360005260406000208385825416179055600384600454161760045580519485116109ec57611013600e54612cc1565b601f8111611112575b5081601f86116001146110a0575060039492600092849283611095575b50501b9160001990851b1c191617600e555b600454161760045561105f60075442613746565b6006557f02fe2a83c74f62aff637e2f8affe6ab2afef1ac9c7112f2ce5c98584b8ec730560405180611090816130c4565b0390a1005b015192508680611039565b909491601f19831695600e600052600080516020614b5f833981519152926000905b8882106110fb57505083600397106110e3575b505050811b01600e5561104b565b015160001983871b60f8161c191690558480806110d5565b8087859682949686015181550195019301906110c2565b600e600052600080516020614b5f833981519152601f870160051c81019184881061115d575b601f0160051c019084905b82811061115157505061101c565b60008155018490611143565b9091508190611138565b60405162461bcd60e51b8152600481018390526013602482015272155cd95c88191bd95cc81b9bdd08195e1a5cdd606a1b6044820152606490fd5b6111b99150833d8511610ee457610ed68183612d95565b86610fb4565b60405162461bcd60e51b815260048101839052600c60248201526b57524f4e475f53544154555360a01b6044820152606490fd5b506002811480610f7f575060038114610f7f565b3461013a57600036600319011261013a576000546040516001600160a01b039091168152602090f35b3461013a57600036600319011261013a576008546011546020916101bb916001600160a01b03169060ff166135eb565b3461013a57600036600319011261013a57602061127b613521565b6040516001600160a01b039091168152f35b3461013a57600036600319011261013a5760405160006017546112af81612cc1565b8084529060019081811690811561134857506001146112ed575b610904846112d981860382612d95565b604051918291602083526020830190612def565b6017600090815292507fc624b66cc0138b8fabc209247f72d758e1cf3343756d543badbf24212bed8c155b8284106113305750505081016020016112d9826112c9565b80546020858701810191909152909301928101611318565b60ff191660208087019190915292151560051b850190920192506112d991508390506112c9565b3461013a57604036600319011261013a57600435600381101561013a57602435906001600160a01b038216820361013a576020916101bb916135eb565b606036600319011261013a57600435600381101561013a5760249081356113d1612f35565b6001600052602092601984526113ee60ff60406000205416613015565b60ff60085416600381101561164e57611408908214613471565b806116485734925b6011546001600160a01b039081169061142982856135eb565b6009541161161257868891601454166040519283809263122643f360e21b82523360048301525afa908115610e41576000916115f5575b50156115bf576114729033141561306a565b600a5490811561153c571061150357600294509061149392915b3390613843565b600a55601960ff199183836004541617600455836000525260406000206001828254161790556004541617600455336001600160601b0360a01b60105416176010557f024413d06e2653518c2c3ec94f6fa9abf03587aed601e2cec0004a154fb50d7e60405180611090816130c4565b60405162461bcd60e51b815260048101859052601281870152711393d517d15393d551d217d410565351539560721b6044820152606490fd5b9050341561158b5715611558576002945090611493929161148c565b60405162461bcd60e51b815260048101859052600c818701526b16915493d7d410565351539560a21b6044820152606490fd5b60405162461bcd60e51b815260048101869052600d818801526c5a45524f5f4d534756414c554560981b6044820152606490fd5b60405162461bcd60e51b815260048101879052600f818901526e1554d1549517d393d517d1561254d5608a1b6044820152606490fd5b61160c9150873d8911610ee457610ed68183612d95565b88611460565b60405162461bcd60e51b815260048101889052600f818a01526e14d51052d157d25390d3d4949150d5608a1b6044820152606490fd5b82611410565b85634e487b7160e01b60005260216004526000fd5b3461013a57600036600319011261013a57602060ff600454166116896040518092612e53565bf35b3461013a57600036600319011261013a576008546010546020916101bb916001600160a01b03169060ff166135eb565b3461013a57608036600319011261013a576001600160401b0360043581811161013a576116ec903690600401612f99565b6024803583811161013a57611705903690600401612f99565b5061170e612f35565b506001600160a01b03906064358281160361013a5760ff6004541660088110158061198957816000526020936019855260ff6040600020541680611938575b9061175a61176692613015565b6011541633141561306a565b611923576004036118f05782519384116118dc5750611786600f54612cc1565b601f811161188a575b508092601f811160011461181b5780919293600091611810575b508160011b916000199060031b1c191617600f555b600660ff1960045416176004557fe7d6481f2b9d6b669e12d036651e614223439c9ad89d743ac0dede17d2fd9921604051806117f9816130c4565b0390a1610904604051928284938452830190612def565b9050830151846117a9565b601f19811693600f600052600080516020614b9f8339815191529060005b86811061187357508260019495961061185a575b5050811b01600f556117be565b85015160001960f88460031b161c19169055848061184d565b909184600181928589015181550193019101611839565b600f600052600080516020614b9f833981519152601f850160051c8101918386106118d2575b601f0160051c01905b8181106118c6575061178f565b600081556001016118b9565b90915081906118b0565b634e487b7160e01b60009081526041600452fd5b90600d6064926040519262461bcd60e51b845260048401528201526c1393d517d19253905312569151609a1b6044820152fd5b50634e487b7160e01b60009081526021600452fd5b506000915060038314801561197b575b828115611956575b5061174d565b9050611966576004831482611950565b83634e487b7160e01b60005260216004526000fd5b506000915060068314611948565b82634e487b7160e01b60005260216004526000fd5b3461013a57604036600319011261013a576004351580156004350361013a57601054602435906001600160a01b03166119d8338214613619565b60ff60045416600881101561020457600303611f04576015546040516318da001160e01b81529190602090839060049082906001600160a01b03165afa918215610e4157600092611ed3575b50600a54604051634047e10360e11b81529093906020816004816001600160a01b0388165afa908115610e4157600091611e9f575b50612710611a6a611a729287613671565b048095613684565b9460065442118015611e96575b15611d5057505050611ac2611aa760ff6008541660018060a01b0360105416600a5491613753565b6008546011549195916001600160a01b03169060ff166136bd565b9160ff6008541660038110158061020457600182148015918183611d42575b81908015611d35575b611af49150613471565b601554604051632ee4b68b60e11b815290602090829060049082906001600160a01b03165afa908115610e4157600091611d16575b50611cc9576102045782611bf95750611b609360009384935083925082916001600160a01b03165af1611b5a613ad2565b50613b02565b600955600a5560043515611bf25760045b60ff60045416600881101561020457600052601960205260406000209060ff1991828154169055600881101561020457611bc49160ff8216600052601960205260016040600020918254161790556130ab565b7f02fe2a83c74f62aff637e2f8affe6ab2afef1ac9c7112f2ce5c98584b8ec730560405180611090816130c4565b6005611b71565b60009091611cbc575b8115611ca9575b509260209291611c1b611c6995613471565b6001600160a01b0390611c2d90614a90565b60405163a9059cbb60e01b81526001600160a01b0390931660048401526024830193909352909384929190911690829060009082906044820190565b03925af18015610e4157611c8591600091611c8a575b50614a52565b611b60565b611ca3915060203d602011610ee457610ed68183612d95565b84611c7f565b9050919091610204579060006020611c09565b5050600281146000611c02565b9150919293506102045760028203611cec575050611ce690613df3565b50611b60565b15611cfb5750611ce690614824565b15611d065750611b60565b611d0f9061425c565b5082611ce6565b611d2f915060203d602011610ee457610ed68183612d95565b89611b29565b5061020457808415611aea565b506000905060028414611ae1565b925092509250611d5c57005b6009548111611e5b5760125491670de0b6b3a76400009283811015611e1e57600593611d8b611d999285613671565b04809260ff60085416613b3c565b600a55600854601154611dba9184916001600160a01b03169060ff16613b3c565b60095560ff199183836004541617600455600b55600c55816000526019602052604060002060018282541617905560045416176004557f275bebb09134c1369fa190998cff2fa6935a1cebafc405bb809446f7228f254460405180611090816130c4565b60405162461bcd60e51b81526020600482015260156024820152740a0aa9c92a6909a8a9ca8bea482a8929ebe90928e9605b1b6044820152606490fd5b60405162461bcd60e51b81526020600482015260136024820152720a0aa9c92a6909a8a9ca8bea89e9ebe90928e9606b1b6044820152606490fd5b50600435611a7f565b90506020813d602011611ecb575b81611eba60209383612d95565b8101031261013a5751612710611a59565b3d9150611ead565b611ef691925060203d602011611efd575b611eee8183612d95565b810190613652565b9084611a24565b503d611ee4565b60405162461bcd60e51b815260206004820152600d60248201526c1393d517d4d550935255151151609a1b6044820152606490fd5b3461013a57600036600319011261013a576011546001600160a01b0390611f639082163314613619565b60ff6004541660088110156102045760005260209060198252611f8d60ff60406000205416613015565b611f95613501565b90611f9e613501565b916120aa60405192611faf84612cfb565b600084528584019283526040840194855260405193611fcd85612d16565b60078552600087860152600060408601526000606086015260006080860152600060a0860152604051611fff81612d31565b6000815260008882015260006040820152600060608201526040519061202482612cfb565b60405161203081612d7a565b60008152825260405161204281612d7a565b600081528983015260405161205681612d7a565b6000815260408301526040519661206c88612cfb565b87528887015260408601528660405161208481612d4c565b82815201948552511660018060a01b03166001600160601b0360a01b6001541617600155565b518051926001600160401b03938481116109ec57806120ca600254612cc1565b93601f948581116126d2575b50879085831160011461265e57600092612653575b50508160011b916000199060031b1c1916176002555b519182518481116109ec578060039461211a8654612cc1565b8581116125f9575b5087908583116001146125895760009261257e575b50508160011b9160001990861b1c19161783555b51938451948551600881101561020457612164906130ab565b8186015161217181612db6565b61217a81612db6565b61ff006004549160081b169061ff0019161760045560a0604087015196600597885560608101516006556080810151600755015190848210156102045760409160ff801960085416911617600855606083820151805160095584810151600a5583810151600b550151600c55015180518051908682116109ec578190612201600d54612cc1565b868111612525575b5084908683116001146124b2576000926124a7575b50508160011b9160001990871b1c191617600d555b818101518051908682116109ec5761224c600e54612cc1565b85811161245a575b5083908583116001146123e4576040939291600091836123d9575b50508160011b9160001990881b1c191617600e555b01519485519485116109ec5761229b600f54612cc1565b90838211612390575b50508091841160011461231b57508293600093612310575b50508260011b92600019911b1c191617600f555b6001600160601b0360a01b601154166011557fea9300a5dae1f9505a3d12ec40afb3121817ab70d54e3f05b47b7121d03afb8f60405180611090816130c4565b0151915083806122bc565b9190601f19841694600f600052600080516020614b9f833981519152936000905b878210612378575050846001961061235e575b50505050811b01600f556122d0565b01519060f884600019921b161c191690558280808061234f565b8060018597829496860151815501960193019061233c565b600f600052600080516020614b9f8339815191529084808801821c8301938589106123d0575b01901c01905b818110156122a457600081556001016123bc565b935082936123b6565b01519050898061226f565b90601f19831691600e600052600080516020614b5f8339815191529260005b8782821061244457505091600193918560409796941061242c575b505050811b01600e55612284565b0151600019838a1b60f8161c1916905589808061241e565b6001859682939686015181550195019301612403565b600e600052600080516020614b5f833981519152868085018b1c82019287861061249e575b018a1c01905b8181106124925750612254565b60008155600101612485565b9250819261247f565b01519050888061221e565b600d6000908152600080516020614b7f8339815191529350601f198516905b8782821061250f5750509084600195949392106124f7575b505050811b01600d55612233565b015160001983891b60f8161c191690558880806124e9565b60018596829396860151815501950193016124d1565b909150600d600052600080516020614b7f833981519152868085018b1c820192878610612575575b908594939291018b1c01905b8181106125665750612209565b60008155849350600101612559565b9250819261254d565b015190508780612137565b6000878152600080516020614b3f8339815191529350601f198516905b8a8282106125e35750509084600195949392106125cb575b505050811b01835561214b565b015160001983881b60f8161c191690558780806125be565b60018596829396860151815501950193016125a6565b90915085600052600080516020614b3f8339815191528580850160051c8201928a861061264a575b9085949392910160051c01905b81811061263b5750612122565b6000815584935060010161262e565b92508192612621565b0151905087806120eb565b60026000908152600080516020614b1f8339815191529350601f198516905b8a8282106126bc5750509084600195949392106126a3575b505050811b01600255612101565b015160001960f88460031b161c19169055878080612695565b600185968293968601518155019501930161267d565b9091506002600052600080516020614b1f8339815191528580850160051c8201928a8610612724575b9085949392910160051c01905b81811061271557506120d6565b60008155849350600101612708565b925081926126fb565b61273636612f4b565b60ff6008939293541660038110156102045760038310156102045761275c908314613471565b6010546001600160a01b0392908316331480156127ef575b156127b85760209361279892846011541633146000146127b2575034913390613843565b906010541633146000146101c35780600a55604051908152f35b9161148c565b60405162461bcd60e51b815260206004820152600f60248201526e2ba927a723afa6a9a3a9a2a72222a960891b6044820152606490fd5b5082601154163314612774565b3461013a57600036600319011261013a576020601354604051908152f35b3461013a57600036600319011261013a5760206101bb60ff6008541661285a60018060a01b039161284f8360115416826135eb565b9260105416906135eb565b90613746565b3461013a57600036600319011261013a5760405161287d81612cfb565b600180546001600160a01b03168252604051600254909291908360006128a283612cc1565b80835292848116908115612c765750600114612c27575b6128c592500384612d95565b60209283830152604051838160006003546128df81612cc1565b80845290868116908115612c095750600114612bbf575b5061290392500382612d95565b60408301526040519061291582612cfb565b60405161292181612d16565b60045460ff81169060088210156102045760ff91835260081c1661294481612db6565b8582015260055460408201526006546060820152600754608082015261297260ff6008541660a08301612dc0565b825260405161298081612d31565b6009548152600a5485820152600b546040820152600c54606082015284830152604051906129ad82612cfb565b60405185816000600d546129c081612cc1565b80845290868116908115612ba15750600114612b57575b506129e492500382612d95565b825260405185816000600e546129f981612cc1565b80845290868116908115612b395750600114612aef575b50612a1d92500382612d95565b8583015260405190600090600f5490612a3582612cc1565b80855291818116908115612ad15750600114612a8e575b612a81876109048a898989612a63818b0382612d95565b60408201526040820152604051948594604086526040860190612e14565b9184830390850152612e60565b600f60009081529250600080516020614b9f8339815191525b828410612abe575050508101850181612a63612a4c565b80548585018a0152928801928101612aa7565b60ff1916858a01525050151560051b82018601905081612a63612a4c565b600e6000908152915085600080516020614b5f8339815191525b828410612b225750505091612a1d928201018892612a10565b805487850187015286945092850192879101612b09565b60ff19168486015250899390151560051b8301019050612a1d612a10565b600d6000908152915085600080516020614b7f8339815191525b828410612b8a57505050916129e49282010188926129d7565b805487850187015286945092850192879101612b71565b60ff19168486015250899390151560051b83010190506129e46129d7565b60036000908152915085600080516020614b3f8339815191525b828410612bf257505050916129039282010186926128f6565b805487850187015286945092850192879101612bd9565b60ff19168486015250879390151560051b83010190506129036128f6565b50906002600052600080516020614b1f83398151915290836000925b828410612c5c575050509060206128c5928201016128b9565b6020929450805483858a0101520191019091838693612c43565b602092506128c594915060ff191682840152151560051b8201016128b9565b3461013a57600036600319011261013a578061168960209260ff600854165b9060038210156102045752565b90600182811c92168015612cf1575b6020831014612cdb57565b634e487b7160e01b600052602260045260246000fd5b91607f1691612cd0565b606081019081106001600160401b038211176109ec57604052565b60c081019081106001600160401b038211176109ec57604052565b608081019081106001600160401b038211176109ec57604052565b604081019081106001600160401b038211176109ec57604052565b6001600160401b0381116109ec57604052565b602081019081106001600160401b038211176109ec57604052565b90601f801991011681019081106001600160401b038211176109ec57604052565b6005111561020457565b60038210156102045752565b60005b838110612ddf5750506000910152565b8181015183820152602001612dcf565b90602091612e0881518092818552858086019101612dcc565b601f01601f1916010190565b612e509160018060a01b0382511681526040612e3f6020840151606060208501526060840190612def565b920151906040818403910152612def565b90565b9060088210156102045752565b906040612e5092612eb460a08251612e79868251612e53565b6020810151612e8781612db6565b602087015284810151858701526060810151606087015260808101516080870152015160a0850190612cb4565b60606020820151805160c0860152602081015160e0860152838101516101008601520151610120840152015190612f016101608061014084015260608451918401526101c0830190612def565b906101a06040612f2560208601519461015f19958686830301610180870152612def565b9401519282850301910152612def565b604435906001600160a01b038216820361013a57565b606090600319011261013a57600435600381101561013a57906024356001600160a01b038116810361013a579060443590565b6001600160401b0381116109ec57601f01601f191660200190565b81601f8201121561013a57803590612fb082612f7e565b92612fbe6040519485612d95565b8284526020838301011161013a57816000926020809301838601378301015290565b90612e509160208152602061300083516040838501526060840190612e14565b920151906040601f1982850301910152612e60565b1561301c57565b60405162461bcd60e51b815260206004820152600e60248201526d494e56414c49445f53544154555360901b6044820152606490fd5b9081602091031261013a5751801515810361013a5790565b1561307157565b60405162461bcd60e51b81526020600482015260126024820152712ca7aaafa0a922afaa2422afa9a2a62622a960711b6044820152606490fd5b60088110156102045760ff801960045416911617600455565b60208082526040818301526001808060a01b038154166060840152606060808401526000926002546130f581612cc1565b908160c084015283811690816000146134535750600114613409575b50808403605f190160a082015260035460009461312d82612cc1565b808252918481169081156133ee57506001146133a6575b50506040601f198286030191015260ff60045461316385838316612e53565b60081c1661317081612db6565b8284015260055460408401526006546060840152600754608084015261319f60ff6008541660a0850190612cb4565b60095460c0840152600a5460e0840152600b54610100840152600c54610120840152606061016080610140860152840152600092600d546131df81612cc1565b90816101c08401528381169081600014613387575060011461333b575b5061015f198185038101610180830152600e5460009561321b82612cc1565b8082529185811690811561331e57506001146132d2575b50506101a09082860301910152600092600f549161324f83612cc1565b808352928181169081156132b5575060011461326d575b5050505090565b92935090600f600052600080516020614b9f83398151915292846000945b8386106132a15750505050010138808080613266565b80548587018301529401938590820161328b565b60ff191685840152505090151560051b0101905038808080613266565b8591929650600e600052600080516020614b5f83398151915290856000925b85841061330857505001019490506101a038613232565b80548385018601528894909301928791016132f1565b60ff1916828801525090151560051b01840194506101a038613232565b909350600d600052600080516020614b7f83398151915283836000925b848410613371575050506101e0915084010192386131fc565b80546101e0858a01015201910190838591613358565b929550506101e09160ff191682860152151560051b84010192386131fc565b849295506003600052600080516020614b3f83398151915291846000935b8285106133d8575050500101923880613144565b80548585018701528795909401938691016133c4565b60ff1916828701525090151560051b01830193503880613144565b9093506002600052600080516020614b1f83398151915283836000925b84841061343e5750505060e091508401019238613111565b805460e0858a01015201910190838591613426565b905060e092955060ff191682860152151560051b8401019238613111565b1561347857565b60405162461bcd60e51b815260206004820152600b60248201526a2ba927a723afaa27a5a2a760a91b6044820152606490fd5b51906001600160a01b038216820361013a57565b81601f8201121561013a5780516134d581612f7e565b926134e36040519485612d95565b8184526020828401011161013a57612e509160208085019101612dcc565b6040519061350e82612d4c565b60048252630307830360e41b6020830152565b60ff60085416600381101561020457600181036135a7575060155460405163f77800e560e01b815290602090829060049082906001600160a01b03165afa908115610e4157600091613571575090565b906020823d821161359f575b8161358a60209383612d95565b8101031261359c5750612e50906134ab565b80fd5b3d915061357d565b6002036135e657601554604051635f117aa360e11b815290602090829060049082906001600160a01b03165afa908115610e4157600091613571575090565b600090565b600381101561020457600052601a60205260406000209060018060a01b031660005260205260406000205490565b1561362057565b60405162461bcd60e51b815260206004820152600a6024820152692727aa2fa9a2a62622a960b11b6044820152606490fd5b9081602091031261013a57516001600160a01b038116810361013a5790565b8181029291811591840414171561090857565b9190820391821161090857565b909493926060926136a6836080810198612cb4565b6001600160a01b0316602083015260408201520152565b91906003831015610204576040926137407ffe2caf3897ec3e02a1d458d232d7c62c17809d25dbfe65864ce842162d6c217c93600090838252601a60205286822060018060a01b0386169081845260205261371b8289852054613746565b978389949287869452601a602052828220908252602052205560405194859485613691565b0390a190565b9190820180921161090857565b6003811015610204576000818152601a60205260409384822060018060a01b03851690818452602052858320548281106137de5791867f9060f8ffc7acd8270abf2337023e6377669ca44d5b2a23f3513a29380940f357969594926137bb8361374096613684565b98848a959288879452601a60205282822090825260205220555194859485613691565b865162461bcd60e51b8152602060048201526014602482015273125394d551919250d251539517d1115413d4d25560621b6044820152606490fd5b6001600160a01b03909116815260208101919091526060810192916138419160400190612cb4565b565b929060049260ff8454166008811015613a5c5780600261386c9214159081613ac6575b50613015565b8215613a91576003851015613a7c57841580156138c4575b50507f68ffd6ad89c76c56b0b5206ae0c1a14cbffb37023d4e80f635ff7397c56b116b92506137406138b78383876136bd565b9460405193849384613819565b6001861460008115613a71575b8115613a4c575b506138e39150613471565b6138ec85614a90565b906001600160a01b03908161390088614a90565b60408051636eb1769f60e11b81526001600160a01b0385168a82019081523060208083019190915297949193889385939284900301918391165afa8015610e41578791600091613a1c575b50106139df578291600085946064936040519a8b9687956323b872dd60e01b87521690850152306024850152896044850152165af18015610e41577f68ffd6ad89c76c56b0b5206ae0c1a14cbffb37023d4e80f635ff7397c56b116b946139bb926000926139c2575b5050614a52565b3880613884565b6139d89250803d10610ee457610ed68183612d95565b38806139b4565b60405162461bcd60e51b81528088018590526016602482015275494e53554646494349454e545f414c4c4f57414e434560501b6044820152606490fd5b91508582813d8311613a45575b613a338183612d95565b8101031261359c57508690513861394b565b503d613a29565b9050613a5c576138e390386138d8565b602185634e487b7160e01b6000525260246000fd5b6002881491506138d1565b602184634e487b7160e01b6000525260246000fd5b60405162461bcd60e51b8152602081860152600e60248201526d14d51052d157d49154555254915160921b6044820152606490fd5b60039150141538613866565b3d15613afd573d90613ae382612f7e565b91613af16040519384612d95565b82523d6000602084013e565b606090565b15613b0957565b60405162461bcd60e51b815260206004820152600b60248201526a10d0531317d1905253115160aa1b6044820152606490fd5b9291613b49818386613753565b60155460408051632ee4b68b60e11b815292949290916020906001600160a01b0390600490821683858381845afa948515613daa57600095613db5575b508382918751928380926318da001160e01b82525afa908115613daa57908391600091613d8d575b501693613d1a5760038a1015613d055789613c23575050507f659f33fc6677bebf3a9bf3101092792e31f35766d0358e54577bdd91a655f6a09495965090613c03600080808088613740975af1611b5a613ad2565b516001600160a01b03909216825260208201929092529081906040820190565b86919383959a600060018214908115613cfa575b8115613cde575b5095613c57600092613c52613c8899613471565b614a90565b16928c519687958694859363a9059cbb60e01b8552840160209093929193604081019460018060a01b031681520152565b03925af1918215613cd357613740927f659f33fc6677bebf3a9bf3101092792e31f35766d0358e54577bdd91a655f6a096979892613cce926000926139c2575050614a52565b613c03565b87513d6000823e3d90fd5b9295505091949250613a7c579092849287926000613c57613c3e565b600283149150613c37565b602190634e487b7160e01b6000525260246000fd5b925050506003879293949596971015613d0557507f659f33fc6677bebf3a9bf3101092792e31f35766d0358e54577bdd91a655f6a09392916137409160028103613d6e5750613d6884613df3565b50613c03565b60018103613d805750613d6884614824565b613cce57613d688461425c565b613da49150853d8711611efd57611eee8183612d95565b38613bae565b86513d6000823e3d90fd5b82919550613dd08591823d8411610ee457610ed68183612d95565b959150613b86565b9081602091031261013a575162ffffff8116810361013a5790565b60155460408051635f117aa360e11b808252919493926020926004916001600160a01b039190859085908590829086165afa9384156142515760009461421a575b50601654885163095ea7b360e01b8082529184166001600160a01b03168582019081526020810189905291959091879183918290600090889083906040010393165af18015614075576141fd575b508160155416958851918252858285818a5afa918215614075576000926141c6575b508851906325abd85f60e11b92838352878387818c5afa9283156140f35760009361418f575b508a51928884602481633488e95960e21b9d8e825260008c8301525afa91821561413757613f0094600093614177575b5061462d565b826015541691895190815286818681865afa9081156140b957600091614142575b50895163f77800e560e01b808252989088818881885afa9182156141375789916000936140fe575b5060248d5180978193825260018b8301525afa9182156140f357613f74946000936140c4575061462d565b94816015541692885182815286818381885afa9283156140b9578791600094614080575b50828b518097819382525afa9283156140755787958795600095614030575b508a519081526001600160a01b03909416918401918252602082019590955291938492839160009183906040010393165af1801561402557614001949550614007575b5050614824565b50600190565b8161401d92903d10610ee457610ed68183612d95565b503880613ffa565b85513d6000823e3d90fd5b868194969395979298503d831161406e575b61404c8183612d95565b8101031261359c57509160008694926140668997956134ab565b949091613fb7565b503d614042565b89513d6000823e3d90fd5b9182819592953d83116140b2575b6140988183612d95565b8101031261359c57506140ab87916134ab565b9238613f98565b503d61408e565b8a513d6000823e3d90fd5b6140e5919350893d8b116140ec575b6140dd8183612d95565b810190613dd8565b9138613efa565b503d6140d3565b8b513d6000823e3d90fd5b9182819492943d8311614130575b6141168183612d95565b8101031261359c575061412989916134ab565b9138613f49565b503d61410c565b8c513d6000823e3d90fd5b908782813d8311614170575b6141588183612d95565b8101031261359c575061416a906134ab565b38613f21565b503d61414e565b6140e59193508a3d8c116140ec576140dd8183612d95565b90928882813d83116141bf575b6141a68183612d95565b8101031261359c57506141b8906134ab565b9138613eca565b503d61419c565b90918682813d83116141f6575b6141dd8183612d95565b8101031261359c57506141ef906134ab565b9038613ea4565b503d6141d3565b61421390863d8811610ee457610ed68183612d95565b5038613e82565b90938582813d831161424a575b6142318183612d95565b8101031261359c5750614243906134ab565b9238613e34565b503d614227565b88513d6000823e3d90fd5b90601554600092604080516325abd85f60e11b8082526020936004928581858160018060a01b03809b165afa9081156145e7579087918a916145f1575b501688813b1561359c57829185875180948193630d0e30db60e41b83525af180156145e7576145d4575b508783918688601554168751968780928882525afa9485156145ca57829561458f575b50876016541694878751809281868d826143238963095ea7b360e01b9e8f84528d840160209093929193604081019460018060a01b031681520152565b0393165af1801561448a57614572575b508760155416865194855287858581845afa94851561448a578395614537575b5086519063f77800e560e01b9586835289838781855afa9182156144f2578a9086936144fc575b8a51633488e95960e21b81526001898201529450849060249082905afa9283156144f257906143b29493929186936144da575061462d565b96806015541694865194808652888686818a5afa9586156144d0579089918597614494575b508589518099819382525afa95861561448a579183918a989795938a97959661444d575b506144268851998a97889687948552840160209093929193604081019460018060a01b031681520152565b0393165af19081156144445750614001949550614007575050614824565b513d87823e3d90fd5b9680929950879196503d8311614483575b6144688183612d95565b8101031261359c57889661447c89966134ab565b94386143fb565b503d61445e565b87513d85823e3d90fd5b8281939298503d83116144c9575b6144ac8183612d95565b810103126144c5576144be89916134ab565b95386143d7565b8380fd5b503d6144a2565b88513d86823e3d90fd5b6140e59193508b3d8d116140ec576140dd8183612d95565b89513d87823e3d90fd5b925083813d8311614530575b6145128183612d95565b8101031261452c57896145266024946134ab565b9261437a565b8480fd5b503d614508565b9094508781813d831161456b575b61454f8183612d95565b8101031261456757614560906134ab565b9338614353565b8280fd5b503d614545565b61458890883d8a11610ee457610ed68183612d95565b5038614333565b9094508681813d83116145c3575b6145a78183612d95565b810103126145bf576145b8906134ab565b93386142e6565b5080fd5b503d61459d565b86513d84823e3d90fd5b976145e0849299612d67565b97906142c3565b85513d8b823e3d90fd5b809250878092503d8311614626575b61460a8183612d95565b810103126146225761461c87916134ab565b38614299565b8880fd5b503d614600565b601654604051636eb1769f60e11b81523060048201526001600160a01b039182166024820181905293959493929091169190602081604481865afa8015610e415785916000916147ef575b501061479d575b50603c420193844211610908576016546040516101008101916001600160a01b0316906001600160401b038311818410176109ec5760409283529384526001600160a01b03928316602085810191825262ffffff9687168685019081523060608801908152608088019a8b5260a08801998a52600060c0890181815260e08a01828152975163414bf38960e01b81529951891660048b01529451881660248a01529151909816604488015296518516606487015297516084860152955160a4850152945160c4840152511660e482015292918391610104918391905af1908115610e415760009161476e575090565b906020823d602011614795575b8161478860209383612d95565b8101031261359c57505190565b3d915061477b565b60405163095ea7b360e01b8152600481019190915260001960248201526020816044816000865af18015610e41571561467f576147e89060203d602011610ee457610ed68183612d95565b503861467f565b91506020823d60201161481c575b8161480a60209383612d95565b8101031261359c575084905138614678565b3d91506147fd565b60155460405163f77800e560e01b81526001600160a01b03916020908290600490829086165afa908115610e41576000916148a3575b501690813b1561013a57600091602483926040519485938492630852cd8d60e31b845260048401525af18015610e41576148945750600190565b61489d90612d67565b38614001565b906020823d82116148d4575b816148bc60209383612d95565b8101031261359c57506148ce906134ab565b3861485a565b3d91506148af565b92909160ff600454166008811015610204578060026149039214159081613ac65750613015565b6003841015610204578361496c576000808084819482908215614962575b6001600160a01b031690f115610e41577f4a647b1d902051b0ae802f6050c58456d79d826bdf2bbf37a1bf13be97727b2d915b6137406138b7838387613753565b6108fc9150614921565b916001841460008115614a47575b8115614a39575b50826149d894614992602093613471565b6001600160a01b036149a388614a90565b1690600060405180988195829463a9059cbb60e01b84526004840160209093929193604081019460018060a01b031681520152565b03925af1928315610e41577f4a647b1d902051b0ae802f6050c58456d79d826bdf2bbf37a1bf13be97727b2d93614a1691600091614a1b5750614a52565b614954565b614a33915060203d8111610ee457610ed68183612d95565b38611c7f565b905061020457600082614981565b60028614915061497a565b15614a5957565b60405162461bcd60e51b815260206004820152600f60248201526e1514905394d1915497d19052531151608a1b6044820152606490fd5b60038110156102045760028114614ae557600114614aad57600090565b60155460405163f77800e560e01b815290602090829060049082906001600160a01b03165afa908115610e4157600091613571575090565b50601554604051635f117aa360e11b815290602090829060049082906001600160a01b03165afa908115610e415760009161357157509056fe405787fa12a823e0f2b7631cc41b3ba8828b3321ca811111fa75cd3aa3bb5acec2575a0e9e593c00f959f8c92f12db2869c3395a3b0502d05e2516446f71f85bbb7b4a454dc3493923482f07822329ed19e8244eff582cc204f8554c3620c3fdd7b6990105719101dabeb77144f2a3385c8033acd3af97e9423a695e81ad1eb58d1108e10bcb7c27dddfc02ed9d693a074039d026cf4ea4240b40f7d581ac802a2646970667358221220258054ae8408a26bec735f0e35820469ed263c37645c0e18c8ce2de47ca951db64736f6c63430008130033",
  "linkReferences": {},
  "deployedLinkReferences": {}
}