{
  "_format": "hh-sol-artifact-1",
  "contractName": "RequestBuilder",
  "sourceName": "contracts/helpers/utils/RequestBuilder.sol",
  "abi": [
    {
      "inputs": [],
      "name": "DEFAULT_NAMESPACE",
      "outputs": [
        {
          "internalType": "bytes16",
          "name": "",
          "type": "bytes16"
        }
      ],
      "stateMutability": "view",
      "type": "function"
    },
    {
      "inputs": [
        {
          "components": [
            {
              "internalType": "enum ClaimType",
              "name": "claimType",
              "type": "uint8"
            },
            {
              "internalType": "bytes16",
              "name": "groupId",
              "type": "bytes16"
            },
            {
              "internalType": "bytes16",
              "name": "groupTimestamp",
              "type": "bytes16"
            },
            {
              "internalType": "uint256",
              "name": "value",
              "type": "uint256"
            },
            {
              "internalType": "bool",
              "name": "isOptional",
              "type": "bool"
            },
            {
              "internalType": "bool",
              "name": "isSelectableByUser",
              "type": "bool"
            },
            {
              "internalType": "bytes",
              "name": "extraData",
              "type": "bytes"
            }
          ],
          "internalType": "struct ClaimRequest",
          "name": "claim",
          "type": "tuple"
        },
        {
          "internalType": "bytes16",
          "name": "namespace",
          "type": "bytes16"
        }
      ],
      "name": "build",
      "outputs": [
        {
          "components": [
            {
              "internalType": "bytes16",
              "name": "namespace",
              "type": "bytes16"
            },
            {
              "components": [
                {
                  "internalType": "enum AuthType",
                  "name": "authType",
                  "type": "uint8"
                },
                {
                  "internalType": "uint256",
                  "name": "userId",
                  "type": "uint256"
                },
                {
                  "internalType": "bool",
                  "name": "isAnon",
                  "type": "bool"
                },
                {
                  "internalType": "bool",
                  "name": "isOptional",
                  "type": "bool"
                },
                {
                  "internalType": "bool",
                  "name": "isSelectableByUser",
                  "type": "bool"
                },
                {
                  "internalType": "bytes",
                  "name": "extraData",
                  "type": "bytes"
                }
              ],
              "internalType": "struct AuthRequest[]",
              "name": "auths",
              "type": "tuple[]"
            },
            {
              "components": [
                {
                  "internalType": "enum ClaimType",
                  "name": "claimType",
                  "type": "uint8"
                },
                {
                  "internalType": "bytes16",
                  "name": "groupId",
                  "type": "bytes16"
                },
                {
                  "internalType": "bytes16",
                  "name": "groupTimestamp",
                  "type": "bytes16"
                },
                {
                  "internalType": "uint256",
                  "name": "value",
                  "type": "uint256"
                },
                {
                  "internalType": "bool",
                  "name": "isOptional",
                  "type": "bool"
                },
                {
                  "internalType": "bool",
                  "name": "isSelectableByUser",
                  "type": "bool"
                },
                {
                  "internalType": "bytes",
                  "name": "extraData",
                  "type": "bytes"
                }
              ],
              "internalType": "struct ClaimRequest[]",
              "name": "claims",
              "type": "tuple[]"
            },
            {
              "components": [
                {
                  "internalType": "bytes",
                  "name": "message",
                  "type": "bytes"
                },
                {
                  "internalType": "bool",
                  "name": "isSelectableByUser",
                  "type": "bool"
                },
                {
                  "internalType": "bytes",
                  "name": "extraData",
                  "type": "bytes"
                }
              ],
              "internalType": "struct SignatureRequest",
              "name": "signature",
              "type": "tuple"
            }
          ],
          "internalType": "struct SismoConnectRequest",
          "name": "",
          "type": "tuple"
        }
      ],
      "stateMutability": "view",
      "type": "function"
    },
    {
      "inputs": [
        {
          "components": [
            {
              "internalType": "enum ClaimType",
              "name": "claimType",
              "type": "uint8"
            },
            {
              "internalType": "bytes16",
              "name": "groupId",
              "type": "bytes16"
            },
            {
              "internalType": "bytes16",
              "name": "groupTimestamp",
              "type": "bytes16"
            },
            {
              "internalType": "uint256",
              "name": "value",
              "type": "uint256"
            },
            {
              "internalType": "bool",
              "name": "isOptional",
              "type": "bool"
            },
            {
              "internalType": "bool",
              "name": "isSelectableByUser",
              "type": "bool"
            },
            {
              "internalType": "bytes",
              "name": "extraData",
              "type": "bytes"
            }
          ],
          "internalType": "struct ClaimRequest",
          "name": "claim",
          "type": "tuple"
        }
      ],
      "name": "build",
      "outputs": [
        {
          "components": [
            {
              "internalType": "bytes16",
              "name": "namespace",
              "type": "bytes16"
            },
            {
              "components": [
                {
                  "internalType": "enum AuthType",
                  "name": "authType",
                  "type": "uint8"
                },
                {
                  "internalType": "uint256",
                  "name": "userId",
                  "type": "uint256"
                },
                {
                  "internalType": "bool",
                  "name": "isAnon",
                  "type": "bool"
                },
                {
                  "internalType": "bool",
                  "name": "isOptional",
                  "type": "bool"
                },
                {
                  "internalType": "bool",
                  "name": "isSelectableByUser",
                  "type": "bool"
                },
                {
                  "internalType": "bytes",
                  "name": "extraData",
                  "type": "bytes"
                }
              ],
              "internalType": "struct AuthRequest[]",
              "name": "auths",
              "type": "tuple[]"
            },
            {
              "components": [
                {
                  "internalType": "enum ClaimType",
                  "name": "claimType",
                  "type": "uint8"
                },
                {
                  "internalType": "bytes16",
                  "name": "groupId",
                  "type": "bytes16"
                },
                {
                  "internalType": "bytes16",
                  "name": "groupTimestamp",
                  "type": "bytes16"
                },
                {
                  "internalType": "uint256",
                  "name": "value",
                  "type": "uint256"
                },
                {
                  "internalType": "bool",
                  "name": "isOptional",
                  "type": "bool"
                },
                {
                  "internalType": "bool",
                  "name": "isSelectableByUser",
                  "type": "bool"
                },
                {
                  "internalType": "bytes",
                  "name": "extraData",
                  "type": "bytes"
                }
              ],
              "internalType": "struct ClaimRequest[]",
              "name": "claims",
              "type": "tuple[]"
            },
            {
              "components": [
                {
                  "internalType": "bytes",
                  "name": "message",
                  "type": "bytes"
                },
                {
                  "internalType": "bool",
                  "name": "isSelectableByUser",
                  "type": "bool"
                },
                {
                  "internalType": "bytes",
                  "name": "extraData",
                  "type": "bytes"
                }
              ],
              "internalType": "struct SignatureRequest",
              "name": "signature",
              "type": "tuple"
            }
          ],
          "internalType": "struct SismoConnectRequest",
          "name": "",
          "type": "tuple"
        }
      ],
      "stateMutability": "view",
      "type": "function"
    },
    {
      "inputs": [
        {
          "components": [
            {
              "internalType": "enum AuthType",
              "name": "authType",
              "type": "uint8"
            },
            {
              "internalType": "uint256",
              "name": "userId",
              "type": "uint256"
            },
            {
              "internalType": "bool",
              "name": "isAnon",
              "type": "bool"
            },
            {
              "internalType": "bool",
              "name": "isOptional",
              "type": "bool"
            },
            {
              "internalType": "bool",
              "name": "isSelectableByUser",
              "type": "bool"
            },
            {
              "internalType": "bytes",
              "name": "extraData",
              "type": "bytes"
            }
          ],
          "internalType": "struct AuthRequest",
          "name": "auth",
          "type": "tuple"
        },
        {
          "components": [
            {
              "internalType": "bytes",
              "name": "message",
              "type": "bytes"
            },
            {
              "internalType": "bool",
              "name": "isSelectableByUser",
              "type": "bool"
            },
            {
              "internalType": "bytes",
              "name": "extraData",
              "type": "bytes"
            }
          ],
          "internalType": "struct SignatureRequest",
          "name": "signature",
          "type": "tuple"
        },
        {
          "internalType": "bytes16",
          "name": "namespace",
          "type": "bytes16"
        }
      ],
      "name": "build",
      "outputs": [
        {
          "components": [
            {
              "internalType": "bytes16",
              "name": "namespace",
              "type": "bytes16"
            },
            {
              "components": [
                {
                  "internalType": "enum AuthType",
                  "name": "authType",
                  "type": "uint8"
                },
                {
                  "internalType": "uint256",
                  "name": "userId",
                  "type": "uint256"
                },
                {
                  "internalType": "bool",
                  "name": "isAnon",
                  "type": "bool"
                },
                {
                  "internalType": "bool",
                  "name": "isOptional",
                  "type": "bool"
                },
                {
                  "internalType": "bool",
                  "name": "isSelectableByUser",
                  "type": "bool"
                },
                {
                  "internalType": "bytes",
                  "name": "extraData",
                  "type": "bytes"
                }
              ],
              "internalType": "struct AuthRequest[]",
              "name": "auths",
              "type": "tuple[]"
            },
            {
              "components": [
                {
                  "internalType": "enum ClaimType",
                  "name": "claimType",
                  "type": "uint8"
                },
                {
                  "internalType": "bytes16",
                  "name": "groupId",
                  "type": "bytes16"
                },
                {
                  "internalType": "bytes16",
                  "name": "groupTimestamp",
                  "type": "bytes16"
                },
                {
                  "internalType": "uint256",
                  "name": "value",
                  "type": "uint256"
                },
                {
                  "internalType": "bool",
                  "name": "isOptional",
                  "type": "bool"
                },
                {
                  "internalType": "bool",
                  "name": "isSelectableByUser",
                  "type": "bool"
                },
                {
                  "internalType": "bytes",
                  "name": "extraData",
                  "type": "bytes"
                }
              ],
              "internalType": "struct ClaimRequest[]",
              "name": "claims",
              "type": "tuple[]"
            },
            {
              "components": [
                {
                  "internalType": "bytes",
                  "name": "message",
                  "type": "bytes"
                },
                {
                  "internalType": "bool",
                  "name": "isSelectableByUser",
                  "type": "bool"
                },
                {
                  "internalType": "bytes",
                  "name": "extraData",
                  "type": "bytes"
                }
              ],
              "internalType": "struct SignatureRequest",
              "name": "signature",
              "type": "tuple"
            }
          ],
          "internalType": "struct SismoConnectRequest",
          "name": "",
          "type": "tuple"
        }
      ],
      "stateMutability": "pure",
      "type": "function"
    },
    {
      "inputs": [
        {
          "components": [
            {
              "internalType": "enum AuthType",
              "name": "authType",
              "type": "uint8"
            },
            {
              "internalType": "uint256",
              "name": "userId",
              "type": "uint256"
            },
            {
              "internalType": "bool",
              "name": "isAnon",
              "type": "bool"
            },
            {
              "internalType": "bool",
              "name": "isOptional",
              "type": "bool"
            },
            {
              "internalType": "bool",
              "name": "isSelectableByUser",
              "type": "bool"
            },
            {
              "internalType": "bytes",
              "name": "extraData",
              "type": "bytes"
            }
          ],
          "internalType": "struct AuthRequest[]",
          "name": "auths",
          "type": "tuple[]"
        }
      ],
      "name": "build",
      "outputs": [
        {
          "components": [
            {
              "internalType": "bytes16",
              "name": "namespace",
              "type": "bytes16"
            },
            {
              "components": [
                {
                  "internalType": "enum AuthType",
                  "name": "authType",
                  "type": "uint8"
                },
                {
                  "internalType": "uint256",
                  "name": "userId",
                  "type": "uint256"
                },
                {
                  "internalType": "bool",
                  "name": "isAnon",
                  "type": "bool"
                },
                {
                  "internalType": "bool",
                  "name": "isOptional",
                  "type": "bool"
                },
                {
                  "internalType": "bool",
                  "name": "isSelectableByUser",
                  "type": "bool"
                },
                {
                  "internalType": "bytes",
                  "name": "extraData",
                  "type": "bytes"
                }
              ],
              "internalType": "struct AuthRequest[]",
              "name": "auths",
              "type": "tuple[]"
            },
            {
              "components": [
                {
                  "internalType": "enum ClaimType",
                  "name": "claimType",
                  "type": "uint8"
                },
                {
                  "internalType": "bytes16",
                  "name": "groupId",
                  "type": "bytes16"
                },
                {
                  "internalType": "bytes16",
                  "name": "groupTimestamp",
                  "type": "bytes16"
                },
                {
                  "internalType": "uint256",
                  "name": "value",
                  "type": "uint256"
                },
                {
                  "internalType": "bool",
                  "name": "isOptional",
                  "type": "bool"
                },
                {
                  "internalType": "bool",
                  "name": "isSelectableByUser",
                  "type": "bool"
                },
                {
                  "internalType": "bytes",
                  "name": "extraData",
                  "type": "bytes"
                }
              ],
              "internalType": "struct ClaimRequest[]",
              "name": "claims",
              "type": "tuple[]"
            },
            {
              "components": [
                {
                  "internalType": "bytes",
                  "name": "message",
                  "type": "bytes"
                },
                {
                  "internalType": "bool",
                  "name": "isSelectableByUser",
                  "type": "bool"
                },
                {
                  "internalType": "bytes",
                  "name": "extraData",
                  "type": "bytes"
                }
              ],
              "internalType": "struct SignatureRequest",
              "name": "signature",
              "type": "tuple"
            }
          ],
          "internalType": "struct SismoConnectRequest",
          "name": "",
          "type": "tuple"
        }
      ],
      "stateMutability": "view",
      "type": "function"
    },
    {
      "inputs": [
        {
          "components": [
            {
              "internalType": "enum ClaimType",
              "name": "claimType",
              "type": "uint8"
            },
            {
              "internalType": "bytes16",
              "name": "groupId",
              "type": "bytes16"
            },
            {
              "internalType": "bytes16",
              "name": "groupTimestamp",
              "type": "bytes16"
            },
            {
              "internalType": "uint256",
              "name": "value",
              "type": "uint256"
            },
            {
              "internalType": "bool",
              "name": "isOptional",
              "type": "bool"
            },
            {
              "internalType": "bool",
              "name": "isSelectableByUser",
              "type": "bool"
            },
            {
              "internalType": "bytes",
              "name": "extraData",
              "type": "bytes"
            }
          ],
          "internalType": "struct ClaimRequest[]",
          "name": "claims",
          "type": "tuple[]"
        },
        {
          "components": [
            {
              "internalType": "bytes",
              "name": "message",
              "type": "bytes"
            },
            {
              "internalType": "bool",
              "name": "isSelectableByUser",
              "type": "bool"
            },
            {
              "internalType": "bytes",
              "name": "extraData",
              "type": "bytes"
            }
          ],
          "internalType": "struct SignatureRequest",
          "name": "signature",
          "type": "tuple"
        },
        {
          "internalType": "bytes16",
          "name": "namespace",
          "type": "bytes16"
        }
      ],
      "name": "build",
      "outputs": [
        {
          "components": [
            {
              "internalType": "bytes16",
              "name": "namespace",
              "type": "bytes16"
            },
            {
              "components": [
                {
                  "internalType": "enum AuthType",
                  "name": "authType",
                  "type": "uint8"
                },
                {
                  "internalType": "uint256",
                  "name": "userId",
                  "type": "uint256"
                },
                {
                  "internalType": "bool",
                  "name": "isAnon",
                  "type": "bool"
                },
                {
                  "internalType": "bool",
                  "name": "isOptional",
                  "type": "bool"
                },
                {
                  "internalType": "bool",
                  "name": "isSelectableByUser",
                  "type": "bool"
                },
                {
                  "internalType": "bytes",
                  "name": "extraData",
                  "type": "bytes"
                }
              ],
              "internalType": "struct AuthRequest[]",
              "name": "auths",
              "type": "tuple[]"
            },
            {
              "components": [
                {
                  "internalType": "enum ClaimType",
                  "name": "claimType",
                  "type": "uint8"
                },
                {
                  "internalType": "bytes16",
                  "name": "groupId",
                  "type": "bytes16"
                },
                {
                  "internalType": "bytes16",
                  "name": "groupTimestamp",
                  "type": "bytes16"
                },
                {
                  "internalType": "uint256",
                  "name": "value",
                  "type": "uint256"
                },
                {
                  "internalType": "bool",
                  "name": "isOptional",
                  "type": "bool"
                },
                {
                  "internalType": "bool",
                  "name": "isSelectableByUser",
                  "type": "bool"
                },
                {
                  "internalType": "bytes",
                  "name": "extraData",
                  "type": "bytes"
                }
              ],
              "internalType": "struct ClaimRequest[]",
              "name": "claims",
              "type": "tuple[]"
            },
            {
              "components": [
                {
                  "internalType": "bytes",
                  "name": "message",
                  "type": "bytes"
                },
                {
                  "internalType": "bool",
                  "name": "isSelectableByUser",
                  "type": "bool"
                },
                {
                  "internalType": "bytes",
                  "name": "extraData",
                  "type": "bytes"
                }
              ],
              "internalType": "struct SignatureRequest",
              "name": "signature",
              "type": "tuple"
            }
          ],
          "internalType": "struct SismoConnectRequest",
          "name": "",
          "type": "tuple"
        }
      ],
      "stateMutability": "pure",
      "type": "function"
    },
    {
      "inputs": [
        {
          "components": [
            {
              "internalType": "enum AuthType",
              "name": "authType",
              "type": "uint8"
            },
            {
              "internalType": "uint256",
              "name": "userId",
              "type": "uint256"
            },
            {
              "internalType": "bool",
              "name": "isAnon",
              "type": "bool"
            },
            {
              "internalType": "bool",
              "name": "isOptional",
              "type": "bool"
            },
            {
              "internalType": "bool",
              "name": "isSelectableByUser",
              "type": "bool"
            },
            {
              "internalType": "bytes",
              "name": "extraData",
              "type": "bytes"
            }
          ],
          "internalType": "struct AuthRequest[]",
          "name": "auths",
          "type": "tuple[]"
        },
        {
          "internalType": "bytes16",
          "name": "namespace",
          "type": "bytes16"
        }
      ],
      "name": "build",
      "outputs": [
        {
          "components": [
            {
              "internalType": "bytes16",
              "name": "namespace",
              "type": "bytes16"
            },
            {
              "components": [
                {
                  "internalType": "enum AuthType",
                  "name": "authType",
                  "type": "uint8"
                },
                {
                  "internalType": "uint256",
                  "name": "userId",
                  "type": "uint256"
                },
                {
                  "internalType": "bool",
                  "name": "isAnon",
                  "type": "bool"
                },
                {
                  "internalType": "bool",
                  "name": "isOptional",
                  "type": "bool"
                },
                {
                  "internalType": "bool",
                  "name": "isSelectableByUser",
                  "type": "bool"
                },
                {
                  "internalType": "bytes",
                  "name": "extraData",
                  "type": "bytes"
                }
              ],
              "internalType": "struct AuthRequest[]",
              "name": "auths",
              "type": "tuple[]"
            },
            {
              "components": [
                {
                  "internalType": "enum ClaimType",
                  "name": "claimType",
                  "type": "uint8"
                },
                {
                  "internalType": "bytes16",
                  "name": "groupId",
                  "type": "bytes16"
                },
                {
                  "internalType": "bytes16",
                  "name": "groupTimestamp",
                  "type": "bytes16"
                },
                {
                  "internalType": "uint256",
                  "name": "value",
                  "type": "uint256"
                },
                {
                  "internalType": "bool",
                  "name": "isOptional",
                  "type": "bool"
                },
                {
                  "internalType": "bool",
                  "name": "isSelectableByUser",
                  "type": "bool"
                },
                {
                  "internalType": "bytes",
                  "name": "extraData",
                  "type": "bytes"
                }
              ],
              "internalType": "struct ClaimRequest[]",
              "name": "claims",
              "type": "tuple[]"
            },
            {
              "components": [
                {
                  "internalType": "bytes",
                  "name": "message",
                  "type": "bytes"
                },
                {
                  "internalType": "bool",
                  "name": "isSelectableByUser",
                  "type": "bool"
                },
                {
                  "internalType": "bytes",
                  "name": "extraData",
                  "type": "bytes"
                }
              ],
              "internalType": "struct SignatureRequest",
              "name": "signature",
              "type": "tuple"
            }
          ],
          "internalType": "struct SismoConnectRequest",
          "name": "",
          "type": "tuple"
        }
      ],
      "stateMutability": "view",
      "type": "function"
    },
    {
      "inputs": [
        {
          "components": [
            {
              "internalType": "enum AuthType",
              "name": "authType",
              "type": "uint8"
            },
            {
              "internalType": "uint256",
              "name": "userId",
              "type": "uint256"
            },
            {
              "internalType": "bool",
              "name": "isAnon",
              "type": "bool"
            },
            {
              "internalType": "bool",
              "name": "isOptional",
              "type": "bool"
            },
            {
              "internalType": "bool",
              "name": "isSelectableByUser",
              "type": "bool"
            },
            {
              "internalType": "bytes",
              "name": "extraData",
              "type": "bytes"
            }
          ],
          "internalType": "struct AuthRequest[]",
          "name": "auths",
          "type": "tuple[]"
        },
        {
          "components": [
            {
              "internalType": "bytes",
              "name": "message",
              "type": "bytes"
            },
            {
              "internalType": "bool",
              "name": "isSelectableByUser",
              "type": "bool"
            },
            {
              "internalType": "bytes",
              "name": "extraData",
              "type": "bytes"
            }
          ],
          "internalType": "struct SignatureRequest",
          "name": "signature",
          "type": "tuple"
        }
      ],
      "name": "build",
      "outputs": [
        {
          "components": [
            {
              "internalType": "bytes16",
              "name": "namespace",
              "type": "bytes16"
            },
            {
              "components": [
                {
                  "internalType": "enum AuthType",
                  "name": "authType",
                  "type": "uint8"
                },
                {
                  "internalType": "uint256",
                  "name": "userId",
                  "type": "uint256"
                },
                {
                  "internalType": "bool",
                  "name": "isAnon",
                  "type": "bool"
                },
                {
                  "internalType": "bool",
                  "name": "isOptional",
                  "type": "bool"
                },
                {
                  "internalType": "bool",
                  "name": "isSelectableByUser",
                  "type": "bool"
                },
                {
                  "internalType": "bytes",
                  "name": "extraData",
                  "type": "bytes"
                }
              ],
              "internalType": "struct AuthRequest[]",
              "name": "auths",
              "type": "tuple[]"
            },
            {
              "components": [
                {
                  "internalType": "enum ClaimType",
                  "name": "claimType",
                  "type": "uint8"
                },
                {
                  "internalType": "bytes16",
                  "name": "groupId",
                  "type": "bytes16"
                },
                {
                  "internalType": "bytes16",
                  "name": "groupTimestamp",
                  "type": "bytes16"
                },
                {
                  "internalType": "uint256",
                  "name": "value",
                  "type": "uint256"
                },
                {
                  "internalType": "bool",
                  "name": "isOptional",
                  "type": "bool"
                },
                {
                  "internalType": "bool",
                  "name": "isSelectableByUser",
                  "type": "bool"
                },
                {
                  "internalType": "bytes",
                  "name": "extraData",
                  "type": "bytes"
                }
              ],
              "internalType": "struct ClaimRequest[]",
              "name": "claims",
              "type": "tuple[]"
            },
            {
              "components": [
                {
                  "internalType": "bytes",
                  "name": "message",
                  "type": "bytes"
                },
                {
                  "internalType": "bool",
                  "name": "isSelectableByUser",
                  "type": "bool"
                },
                {
                  "internalType": "bytes",
                  "name": "extraData",
                  "type": "bytes"
                }
              ],
              "internalType": "struct SignatureRequest",
              "name": "signature",
              "type": "tuple"
            }
          ],
          "internalType": "struct SismoConnectRequest",
          "name": "",
          "type": "tuple"
        }
      ],
      "stateMutability": "pure",
      "type": "function"
    },
    {
      "inputs": [
        {
          "components": [
            {
              "internalType": "enum AuthType",
              "name": "authType",
              "type": "uint8"
            },
            {
              "internalType": "uint256",
              "name": "userId",
              "type": "uint256"
            },
            {
              "internalType": "bool",
              "name": "isAnon",
              "type": "bool"
            },
            {
              "internalType": "bool",
              "name": "isOptional",
              "type": "bool"
            },
            {
              "internalType": "bool",
              "name": "isSelectableByUser",
              "type": "bool"
            },
            {
              "internalType": "bytes",
              "name": "extraData",
              "type": "bytes"
            }
          ],
          "internalType": "struct AuthRequest",
          "name": "auth",
          "type": "tuple"
        },
        {
          "components": [
            {
              "internalType": "enum ClaimType",
              "name": "claimType",
              "type": "uint8"
            },
            {
              "internalType": "bytes16",
              "name": "groupId",
              "type": "bytes16"
            },
            {
              "internalType": "bytes16",
              "name": "groupTimestamp",
              "type": "bytes16"
            },
            {
              "internalType": "uint256",
              "name": "value",
              "type": "uint256"
            },
            {
              "internalType": "bool",
              "name": "isOptional",
              "type": "bool"
            },
            {
              "internalType": "bool",
              "name": "isSelectableByUser",
              "type": "bool"
            },
            {
              "internalType": "bytes",
              "name": "extraData",
              "type": "bytes"
            }
          ],
          "internalType": "struct ClaimRequest",
          "name": "claim",
          "type": "tuple"
        },
        {
          "internalType": "bytes16",
          "name": "namespace",
          "type": "bytes16"
        }
      ],
      "name": "build",
      "outputs": [
        {
          "components": [
            {
              "internalType": "bytes16",
              "name": "namespace",
              "type": "bytes16"
            },
            {
              "components": [
                {
                  "internalType": "enum AuthType",
                  "name": "authType",
                  "type": "uint8"
                },
                {
                  "internalType": "uint256",
                  "name": "userId",
                  "type": "uint256"
                },
                {
                  "internalType": "bool",
                  "name": "isAnon",
                  "type": "bool"
                },
                {
                  "internalType": "bool",
                  "name": "isOptional",
                  "type": "bool"
                },
                {
                  "internalType": "bool",
                  "name": "isSelectableByUser",
                  "type": "bool"
                },
                {
                  "internalType": "bytes",
                  "name": "extraData",
                  "type": "bytes"
                }
              ],
              "internalType": "struct AuthRequest[]",
              "name": "auths",
              "type": "tuple[]"
            },
            {
              "components": [
                {
                  "internalType": "enum ClaimType",
                  "name": "claimType",
                  "type": "uint8"
                },
                {
                  "internalType": "bytes16",
                  "name": "groupId",
                  "type": "bytes16"
                },
                {
                  "internalType": "bytes16",
                  "name": "groupTimestamp",
                  "type": "bytes16"
                },
                {
                  "internalType": "uint256",
                  "name": "value",
                  "type": "uint256"
                },
                {
                  "internalType": "bool",
                  "name": "isOptional",
                  "type": "bool"
                },
                {
                  "internalType": "bool",
                  "name": "isSelectableByUser",
                  "type": "bool"
                },
                {
                  "internalType": "bytes",
                  "name": "extraData",
                  "type": "bytes"
                }
              ],
              "internalType": "struct ClaimRequest[]",
              "name": "claims",
              "type": "tuple[]"
            },
            {
              "components": [
                {
                  "internalType": "bytes",
                  "name": "message",
                  "type": "bytes"
                },
                {
                  "internalType": "bool",
                  "name": "isSelectableByUser",
                  "type": "bool"
                },
                {
                  "internalType": "bytes",
                  "name": "extraData",
                  "type": "bytes"
                }
              ],
              "internalType": "struct SignatureRequest",
              "name": "signature",
              "type": "tuple"
            }
          ],
          "internalType": "struct SismoConnectRequest",
          "name": "",
          "type": "tuple"
        }
      ],
      "stateMutability": "view",
      "type": "function"
    },
    {
      "inputs": [
        {
          "components": [
            {
              "internalType": "enum AuthType",
              "name": "authType",
              "type": "uint8"
            },
            {
              "internalType": "uint256",
              "name": "userId",
              "type": "uint256"
            },
            {
              "internalType": "bool",
              "name": "isAnon",
              "type": "bool"
            },
            {
              "internalType": "bool",
              "name": "isOptional",
              "type": "bool"
            },
            {
              "internalType": "bool",
              "name": "isSelectableByUser",
              "type": "bool"
            },
            {
              "internalType": "bytes",
              "name": "extraData",
              "type": "bytes"
            }
          ],
          "internalType": "struct AuthRequest",
          "name": "auth",
          "type": "tuple"
        },
        {
          "components": [
            {
              "internalType": "bytes",
              "name": "message",
              "type": "bytes"
            },
            {
              "internalType": "bool",
              "name": "isSelectableByUser",
              "type": "bool"
            },
            {
              "internalType": "bytes",
              "name": "extraData",
              "type": "bytes"
            }
          ],
          "internalType": "struct SignatureRequest",
          "name": "signature",
          "type": "tuple"
        }
      ],
      "name": "build",
      "outputs": [
        {
          "components": [
            {
              "internalType": "bytes16",
              "name": "namespace",
              "type": "bytes16"
            },
            {
              "components": [
                {
                  "internalType": "enum AuthType",
                  "name": "authType",
                  "type": "uint8"
                },
                {
                  "internalType": "uint256",
                  "name": "userId",
                  "type": "uint256"
                },
                {
                  "internalType": "bool",
                  "name": "isAnon",
                  "type": "bool"
                },
                {
                  "internalType": "bool",
                  "name": "isOptional",
                  "type": "bool"
                },
                {
                  "internalType": "bool",
                  "name": "isSelectableByUser",
                  "type": "bool"
                },
                {
                  "internalType": "bytes",
                  "name": "extraData",
                  "type": "bytes"
                }
              ],
              "internalType": "struct AuthRequest[]",
              "name": "auths",
              "type": "tuple[]"
            },
            {
              "components": [
                {
                  "internalType": "enum ClaimType",
                  "name": "claimType",
                  "type": "uint8"
                },
                {
                  "internalType": "bytes16",
                  "name": "groupId",
                  "type": "bytes16"
                },
                {
                  "internalType": "bytes16",
                  "name": "groupTimestamp",
                  "type": "bytes16"
                },
                {
                  "internalType": "uint256",
                  "name": "value",
                  "type": "uint256"
                },
                {
                  "internalType": "bool",
                  "name": "isOptional",
                  "type": "bool"
                },
                {
                  "internalType": "bool",
                  "name": "isSelectableByUser",
                  "type": "bool"
                },
                {
                  "internalType": "bytes",
                  "name": "extraData",
                  "type": "bytes"
                }
              ],
              "internalType": "struct ClaimRequest[]",
              "name": "claims",
              "type": "tuple[]"
            },
            {
              "components": [
                {
                  "internalType": "bytes",
                  "name": "message",
                  "type": "bytes"
                },
                {
                  "internalType": "bool",
                  "name": "isSelectableByUser",
                  "type": "bool"
                },
                {
                  "internalType": "bytes",
                  "name": "extraData",
                  "type": "bytes"
                }
              ],
              "internalType": "struct SignatureRequest",
              "name": "signature",
              "type": "tuple"
            }
          ],
          "internalType": "struct SismoConnectRequest",
          "name": "",
          "type": "tuple"
        }
      ],
      "stateMutability": "pure",
      "type": "function"
    },
    {
      "inputs": [
        {
          "components": [
            {
              "internalType": "enum ClaimType",
              "name": "claimType",
              "type": "uint8"
            },
            {
              "internalType": "bytes16",
              "name": "groupId",
              "type": "bytes16"
            },
            {
              "internalType": "bytes16",
              "name": "groupTimestamp",
              "type": "bytes16"
            },
            {
              "internalType": "uint256",
              "name": "value",
              "type": "uint256"
            },
            {
              "internalType": "bool",
              "name": "isOptional",
              "type": "bool"
            },
            {
              "internalType": "bool",
              "name": "isSelectableByUser",
              "type": "bool"
            },
            {
              "internalType": "bytes",
              "name": "extraData",
              "type": "bytes"
            }
          ],
          "internalType": "struct ClaimRequest",
          "name": "claim",
          "type": "tuple"
        },
        {
          "components": [
            {
              "internalType": "bytes",
              "name": "message",
              "type": "bytes"
            },
            {
              "internalType": "bool",
              "name": "isSelectableByUser",
              "type": "bool"
            },
            {
              "internalType": "bytes",
              "name": "extraData",
              "type": "bytes"
            }
          ],
          "internalType": "struct SignatureRequest",
          "name": "signature",
          "type": "tuple"
        },
        {
          "internalType": "bytes16",
          "name": "namespace",
          "type": "bytes16"
        }
      ],
      "name": "build",
      "outputs": [
        {
          "components": [
            {
              "internalType": "bytes16",
              "name": "namespace",
              "type": "bytes16"
            },
            {
              "components": [
                {
                  "internalType": "enum AuthType",
                  "name": "authType",
                  "type": "uint8"
                },
                {
                  "internalType": "uint256",
                  "name": "userId",
                  "type": "uint256"
                },
                {
                  "internalType": "bool",
                  "name": "isAnon",
                  "type": "bool"
                },
                {
                  "internalType": "bool",
                  "name": "isOptional",
                  "type": "bool"
                },
                {
                  "internalType": "bool",
                  "name": "isSelectableByUser",
                  "type": "bool"
                },
                {
                  "internalType": "bytes",
                  "name": "extraData",
                  "type": "bytes"
                }
              ],
              "internalType": "struct AuthRequest[]",
              "name": "auths",
              "type": "tuple[]"
            },
            {
              "components": [
                {
                  "internalType": "enum ClaimType",
                  "name": "claimType",
                  "type": "uint8"
                },
                {
                  "internalType": "bytes16",
                  "name": "groupId",
                  "type": "bytes16"
                },
                {
                  "internalType": "bytes16",
                  "name": "groupTimestamp",
                  "type": "bytes16"
                },
                {
                  "internalType": "uint256",
                  "name": "value",
                  "type": "uint256"
                },
                {
                  "internalType": "bool",
                  "name": "isOptional",
                  "type": "bool"
                },
                {
                  "internalType": "bool",
                  "name": "isSelectableByUser",
                  "type": "bool"
                },
                {
                  "internalType": "bytes",
                  "name": "extraData",
                  "type": "bytes"
                }
              ],
              "internalType": "struct ClaimRequest[]",
              "name": "claims",
              "type": "tuple[]"
            },
            {
              "components": [
                {
                  "internalType": "bytes",
                  "name": "message",
                  "type": "bytes"
                },
                {
                  "internalType": "bool",
                  "name": "isSelectableByUser",
                  "type": "bool"
                },
                {
                  "internalType": "bytes",
                  "name": "extraData",
                  "type": "bytes"
                }
              ],
              "internalType": "struct SignatureRequest",
              "name": "signature",
              "type": "tuple"
            }
          ],
          "internalType": "struct SismoConnectRequest",
          "name": "",
          "type": "tuple"
        }
      ],
      "stateMutability": "pure",
      "type": "function"
    },
    {
      "inputs": [
        {
          "components": [
            {
              "internalType": "enum AuthType",
              "name": "authType",
              "type": "uint8"
            },
            {
              "internalType": "uint256",
              "name": "userId",
              "type": "uint256"
            },
            {
              "internalType": "bool",
              "name": "isAnon",
              "type": "bool"
            },
            {
              "internalType": "bool",
              "name": "isOptional",
              "type": "bool"
            },
            {
              "internalType": "bool",
              "name": "isSelectableByUser",
              "type": "bool"
            },
            {
              "internalType": "bytes",
              "name": "extraData",
              "type": "bytes"
            }
          ],
          "internalType": "struct AuthRequest",
          "name": "auth",
          "type": "tuple"
        },
        {
          "internalType": "bytes16",
          "name": "namespace",
          "type": "bytes16"
        }
      ],
      "name": "build",
      "outputs": [
        {
          "components": [
            {
              "internalType": "bytes16",
              "name": "namespace",
              "type": "bytes16"
            },
            {
              "components": [
                {
                  "internalType": "enum AuthType",
                  "name": "authType",
                  "type": "uint8"
                },
                {
                  "internalType": "uint256",
                  "name": "userId",
                  "type": "uint256"
                },
                {
                  "internalType": "bool",
                  "name": "isAnon",
                  "type": "bool"
                },
                {
                  "internalType": "bool",
                  "name": "isOptional",
                  "type": "bool"
                },
                {
                  "internalType": "bool",
                  "name": "isSelectableByUser",
                  "type": "bool"
                },
                {
                  "internalType": "bytes",
                  "name": "extraData",
                  "type": "bytes"
                }
              ],
              "internalType": "struct AuthRequest[]",
              "name": "auths",
              "type": "tuple[]"
            },
            {
              "components": [
                {
                  "internalType": "enum ClaimType",
                  "name": "claimType",
                  "type": "uint8"
                },
                {
                  "internalType": "bytes16",
                  "name": "groupId",
                  "type": "bytes16"
                },
                {
                  "internalType": "bytes16",
                  "name": "groupTimestamp",
                  "type": "bytes16"
                },
                {
                  "internalType": "uint256",
                  "name": "value",
                  "type": "uint256"
                },
                {
                  "internalType": "bool",
                  "name": "isOptional",
                  "type": "bool"
                },
                {
                  "internalType": "bool",
                  "name": "isSelectableByUser",
                  "type": "bool"
                },
                {
                  "internalType": "bytes",
                  "name": "extraData",
                  "type": "bytes"
                }
              ],
              "internalType": "struct ClaimRequest[]",
              "name": "claims",
              "type": "tuple[]"
            },
            {
              "components": [
                {
                  "internalType": "bytes",
                  "name": "message",
                  "type": "bytes"
                },
                {
                  "internalType": "bool",
                  "name": "isSelectableByUser",
                  "type": "bool"
                },
                {
                  "internalType": "bytes",
                  "name": "extraData",
                  "type": "bytes"
                }
              ],
              "internalType": "struct SignatureRequest",
              "name": "signature",
              "type": "tuple"
            }
          ],
          "internalType": "struct SismoConnectRequest",
          "name": "",
          "type": "tuple"
        }
      ],
      "stateMutability": "view",
      "type": "function"
    },
    {
      "inputs": [
        {
          "components": [
            {
              "internalType": "enum AuthType",
              "name": "authType",
              "type": "uint8"
            },
            {
              "internalType": "uint256",
              "name": "userId",
              "type": "uint256"
            },
            {
              "internalType": "bool",
              "name": "isAnon",
              "type": "bool"
            },
            {
              "internalType": "bool",
              "name": "isOptional",
              "type": "bool"
            },
            {
              "internalType": "bool",
              "name": "isSelectableByUser",
              "type": "bool"
            },
            {
              "internalType": "bytes",
              "name": "extraData",
              "type": "bytes"
            }
          ],
          "internalType": "struct AuthRequest[]",
          "name": "auths",
          "type": "tuple[]"
        },
        {
          "components": [
            {
              "internalType": "enum ClaimType",
              "name": "claimType",
              "type": "uint8"
            },
            {
              "internalType": "bytes16",
              "name": "groupId",
              "type": "bytes16"
            },
            {
              "internalType": "bytes16",
              "name": "groupTimestamp",
              "type": "bytes16"
            },
            {
              "internalType": "uint256",
              "name": "value",
              "type": "uint256"
            },
            {
              "internalType": "bool",
              "name": "isOptional",
              "type": "bool"
            },
            {
              "internalType": "bool",
              "name": "isSelectableByUser",
              "type": "bool"
            },
            {
              "internalType": "bytes",
              "name": "extraData",
              "type": "bytes"
            }
          ],
          "internalType": "struct ClaimRequest[]",
          "name": "claims",
          "type": "tuple[]"
        },
        {
          "internalType": "bytes16",
          "name": "namespace",
          "type": "bytes16"
        }
      ],
      "name": "build",
      "outputs": [
        {
          "components": [
            {
              "internalType": "bytes16",
              "name": "namespace",
              "type": "bytes16"
            },
            {
              "components": [
                {
                  "internalType": "enum AuthType",
                  "name": "authType",
                  "type": "uint8"
                },
                {
                  "internalType": "uint256",
                  "name": "userId",
                  "type": "uint256"
                },
                {
                  "internalType": "bool",
                  "name": "isAnon",
                  "type": "bool"
                },
                {
                  "internalType": "bool",
                  "name": "isOptional",
                  "type": "bool"
                },
                {
                  "internalType": "bool",
                  "name": "isSelectableByUser",
                  "type": "bool"
                },
                {
                  "internalType": "bytes",
                  "name": "extraData",
                  "type": "bytes"
                }
              ],
              "internalType": "struct AuthRequest[]",
              "name": "auths",
              "type": "tuple[]"
            },
            {
              "components": [
                {
                  "internalType": "enum ClaimType",
                  "name": "claimType",
                  "type": "uint8"
                },
                {
                  "internalType": "bytes16",
                  "name": "groupId",
                  "type": "bytes16"
                },
                {
                  "internalType": "bytes16",
                  "name": "groupTimestamp",
                  "type": "bytes16"
                },
                {
                  "internalType": "uint256",
                  "name": "value",
                  "type": "uint256"
                },
                {
                  "internalType": "bool",
                  "name": "isOptional",
                  "type": "bool"
                },
                {
                  "internalType": "bool",
                  "name": "isSelectableByUser",
                  "type": "bool"
                },
                {
                  "internalType": "bytes",
                  "name": "extraData",
                  "type": "bytes"
                }
              ],
              "internalType": "struct ClaimRequest[]",
              "name": "claims",
              "type": "tuple[]"
            },
            {
              "components": [
                {
                  "internalType": "bytes",
                  "name": "message",
                  "type": "bytes"
                },
                {
                  "internalType": "bool",
                  "name": "isSelectableByUser",
                  "type": "bool"
                },
                {
                  "internalType": "bytes",
                  "name": "extraData",
                  "type": "bytes"
                }
              ],
              "internalType": "struct SignatureRequest",
              "name": "signature",
              "type": "tuple"
            }
          ],
          "internalType": "struct SismoConnectRequest",
          "name": "",
          "type": "tuple"
        }
      ],
      "stateMutability": "view",
      "type": "function"
    },
    {
      "inputs": [
        {
          "components": [
            {
              "internalType": "enum AuthType",
              "name": "authType",
              "type": "uint8"
            },
            {
              "internalType": "uint256",
              "name": "userId",
              "type": "uint256"
            },
            {
              "internalType": "bool",
              "name": "isAnon",
              "type": "bool"
            },
            {
              "internalType": "bool",
              "name": "isOptional",
              "type": "bool"
            },
            {
              "internalType": "bool",
              "name": "isSelectableByUser",
              "type": "bool"
            },
            {
              "internalType": "bytes",
              "name": "extraData",
              "type": "bytes"
            }
          ],
          "internalType": "struct AuthRequest[]",
          "name": "auths",
          "type": "tuple[]"
        },
        {
          "components": [
            {
              "internalType": "enum ClaimType",
              "name": "claimType",
              "type": "uint8"
            },
            {
              "internalType": "bytes16",
              "name": "groupId",
              "type": "bytes16"
            },
            {
              "internalType": "bytes16",
              "name": "groupTimestamp",
              "type": "bytes16"
            },
            {
              "internalType": "uint256",
              "name": "value",
              "type": "uint256"
            },
            {
              "internalType": "bool",
              "name": "isOptional",
              "type": "bool"
            },
            {
              "internalType": "bool",
              "name": "isSelectableByUser",
              "type": "bool"
            },
            {
              "internalType": "bytes",
              "name": "extraData",
              "type": "bytes"
            }
          ],
          "internalType": "struct ClaimRequest[]",
          "name": "claims",
          "type": "tuple[]"
        },
        {
          "components": [
            {
              "internalType": "bytes",
              "name": "message",
              "type": "bytes"
            },
            {
              "internalType": "bool",
              "name": "isSelectableByUser",
              "type": "bool"
            },
            {
              "internalType": "bytes",
              "name": "extraData",
              "type": "bytes"
            }
          ],
          "internalType": "struct SignatureRequest",
          "name": "signature",
          "type": "tuple"
        }
      ],
      "name": "build",
      "outputs": [
        {
          "components": [
            {
              "internalType": "bytes16",
              "name": "namespace",
              "type": "bytes16"
            },
            {
              "components": [
                {
                  "internalType": "enum AuthType",
                  "name": "authType",
                  "type": "uint8"
                },
                {
                  "internalType": "uint256",
                  "name": "userId",
                  "type": "uint256"
                },
                {
                  "internalType": "bool",
                  "name": "isAnon",
                  "type": "bool"
                },
                {
                  "internalType": "bool",
                  "name": "isOptional",
                  "type": "bool"
                },
                {
                  "internalType": "bool",
                  "name": "isSelectableByUser",
                  "type": "bool"
                },
                {
                  "internalType": "bytes",
                  "name": "extraData",
                  "type": "bytes"
                }
              ],
              "internalType": "struct AuthRequest[]",
              "name": "auths",
              "type": "tuple[]"
            },
            {
              "components": [
                {
                  "internalType": "enum ClaimType",
                  "name": "claimType",
                  "type": "uint8"
                },
                {
                  "internalType": "bytes16",
                  "name": "groupId",
                  "type": "bytes16"
                },
                {
                  "internalType": "bytes16",
                  "name": "groupTimestamp",
                  "type": "bytes16"
                },
                {
                  "internalType": "uint256",
                  "name": "value",
                  "type": "uint256"
                },
                {
                  "internalType": "bool",
                  "name": "isOptional",
                  "type": "bool"
                },
                {
                  "internalType": "bool",
                  "name": "isSelectableByUser",
                  "type": "bool"
                },
                {
                  "internalType": "bytes",
                  "name": "extraData",
                  "type": "bytes"
                }
              ],
              "internalType": "struct ClaimRequest[]",
              "name": "claims",
              "type": "tuple[]"
            },
            {
              "components": [
                {
                  "internalType": "bytes",
                  "name": "message",
                  "type": "bytes"
                },
                {
                  "internalType": "bool",
                  "name": "isSelectableByUser",
                  "type": "bool"
                },
                {
                  "internalType": "bytes",
                  "name": "extraData",
                  "type": "bytes"
                }
              ],
              "internalType": "struct SignatureRequest",
              "name": "signature",
              "type": "tuple"
            }
          ],
          "internalType": "struct SismoConnectRequest",
          "name": "",
          "type": "tuple"
        }
      ],
      "stateMutability": "pure",
      "type": "function"
    },
    {
      "inputs": [
        {
          "components": [
            {
              "internalType": "enum AuthType",
              "name": "authType",
              "type": "uint8"
            },
            {
              "internalType": "uint256",
              "name": "userId",
              "type": "uint256"
            },
            {
              "internalType": "bool",
              "name": "isAnon",
              "type": "bool"
            },
            {
              "internalType": "bool",
              "name": "isOptional",
              "type": "bool"
            },
            {
              "internalType": "bool",
              "name": "isSelectableByUser",
              "type": "bool"
            },
            {
              "internalType": "bytes",
              "name": "extraData",
              "type": "bytes"
            }
          ],
          "internalType": "struct AuthRequest[]",
          "name": "auths",
          "type": "tuple[]"
        },
        {
          "components": [
            {
              "internalType": "enum ClaimType",
              "name": "claimType",
              "type": "uint8"
            },
            {
              "internalType": "bytes16",
              "name": "groupId",
              "type": "bytes16"
            },
            {
              "internalType": "bytes16",
              "name": "groupTimestamp",
              "type": "bytes16"
            },
            {
              "internalType": "uint256",
              "name": "value",
              "type": "uint256"
            },
            {
              "internalType": "bool",
              "name": "isOptional",
              "type": "bool"
            },
            {
              "internalType": "bool",
              "name": "isSelectableByUser",
              "type": "bool"
            },
            {
              "internalType": "bytes",
              "name": "extraData",
              "type": "bytes"
            }
          ],
          "internalType": "struct ClaimRequest[]",
          "name": "claims",
          "type": "tuple[]"
        }
      ],
      "name": "build",
      "outputs": [
        {
          "components": [
            {
              "internalType": "bytes16",
              "name": "namespace",
              "type": "bytes16"
            },
            {
              "components": [
                {
                  "internalType": "enum AuthType",
                  "name": "authType",
                  "type": "uint8"
                },
                {
                  "internalType": "uint256",
                  "name": "userId",
                  "type": "uint256"
                },
                {
                  "internalType": "bool",
                  "name": "isAnon",
                  "type": "bool"
                },
                {
                  "internalType": "bool",
                  "name": "isOptional",
                  "type": "bool"
                },
                {
                  "internalType": "bool",
                  "name": "isSelectableByUser",
                  "type": "bool"
                },
                {
                  "internalType": "bytes",
                  "name": "extraData",
                  "type": "bytes"
                }
              ],
              "internalType": "struct AuthRequest[]",
              "name": "auths",
              "type": "tuple[]"
            },
            {
              "components": [
                {
                  "internalType": "enum ClaimType",
                  "name": "claimType",
                  "type": "uint8"
                },
                {
                  "internalType": "bytes16",
                  "name": "groupId",
                  "type": "bytes16"
                },
                {
                  "internalType": "bytes16",
                  "name": "groupTimestamp",
                  "type": "bytes16"
                },
                {
                  "internalType": "uint256",
                  "name": "value",
                  "type": "uint256"
                },
                {
                  "internalType": "bool",
                  "name": "isOptional",
                  "type": "bool"
                },
                {
                  "internalType": "bool",
                  "name": "isSelectableByUser",
                  "type": "bool"
                },
                {
                  "internalType": "bytes",
                  "name": "extraData",
                  "type": "bytes"
                }
              ],
              "internalType": "struct ClaimRequest[]",
              "name": "claims",
              "type": "tuple[]"
            },
            {
              "components": [
                {
                  "internalType": "bytes",
                  "name": "message",
                  "type": "bytes"
                },
                {
                  "internalType": "bool",
                  "name": "isSelectableByUser",
                  "type": "bool"
                },
                {
                  "internalType": "bytes",
                  "name": "extraData",
                  "type": "bytes"
                }
              ],
              "internalType": "struct SignatureRequest",
              "name": "signature",
              "type": "tuple"
            }
          ],
          "internalType": "struct SismoConnectRequest",
          "name": "",
          "type": "tuple"
        }
      ],
      "stateMutability": "view",
      "type": "function"
    },
    {
      "inputs": [
        {
          "components": [
            {
              "internalType": "enum ClaimType",
              "name": "claimType",
              "type": "uint8"
            },
            {
              "internalType": "bytes16",
              "name": "groupId",
              "type": "bytes16"
            },
            {
              "internalType": "bytes16",
              "name": "groupTimestamp",
              "type": "bytes16"
            },
            {
              "internalType": "uint256",
              "name": "value",
              "type": "uint256"
            },
            {
              "internalType": "bool",
              "name": "isOptional",
              "type": "bool"
            },
            {
              "internalType": "bool",
              "name": "isSelectableByUser",
              "type": "bool"
            },
            {
              "internalType": "bytes",
              "name": "extraData",
              "type": "bytes"
            }
          ],
          "internalType": "struct ClaimRequest[]",
          "name": "claims",
          "type": "tuple[]"
        }
      ],
      "name": "build",
      "outputs": [
        {
          "components": [
            {
              "internalType": "bytes16",
              "name": "namespace",
              "type": "bytes16"
            },
            {
              "components": [
                {
                  "internalType": "enum AuthType",
                  "name": "authType",
                  "type": "uint8"
                },
                {
                  "internalType": "uint256",
                  "name": "userId",
                  "type": "uint256"
                },
                {
                  "internalType": "bool",
                  "name": "isAnon",
                  "type": "bool"
                },
                {
                  "internalType": "bool",
                  "name": "isOptional",
                  "type": "bool"
                },
                {
                  "internalType": "bool",
                  "name": "isSelectableByUser",
                  "type": "bool"
                },
                {
                  "internalType": "bytes",
                  "name": "extraData",
                  "type": "bytes"
                }
              ],
              "internalType": "struct AuthRequest[]",
              "name": "auths",
              "type": "tuple[]"
            },
            {
              "components": [
                {
                  "internalType": "enum ClaimType",
                  "name": "claimType",
                  "type": "uint8"
                },
                {
                  "internalType": "bytes16",
                  "name": "groupId",
                  "type": "bytes16"
                },
                {
                  "internalType": "bytes16",
                  "name": "groupTimestamp",
                  "type": "bytes16"
                },
                {
                  "internalType": "uint256",
                  "name": "value",
                  "type": "uint256"
                },
                {
                  "internalType": "bool",
                  "name": "isOptional",
                  "type": "bool"
                },
                {
                  "internalType": "bool",
                  "name": "isSelectableByUser",
                  "type": "bool"
                },
                {
                  "internalType": "bytes",
                  "name": "extraData",
                  "type": "bytes"
                }
              ],
              "internalType": "struct ClaimRequest[]",
              "name": "claims",
              "type": "tuple[]"
            },
            {
              "components": [
                {
                  "internalType": "bytes",
                  "name": "message",
                  "type": "bytes"
                },
                {
                  "internalType": "bool",
                  "name": "isSelectableByUser",
                  "type": "bool"
                },
                {
                  "internalType": "bytes",
                  "name": "extraData",
                  "type": "bytes"
                }
              ],
              "internalType": "struct SignatureRequest",
              "name": "signature",
              "type": "tuple"
            }
          ],
          "internalType": "struct SismoConnectRequest",
          "name": "",
          "type": "tuple"
        }
      ],
      "stateMutability": "view",
      "type": "function"
    },
    {
      "inputs": [
        {
          "components": [
            {
              "internalType": "enum ClaimType",
              "name": "claimType",
              "type": "uint8"
            },
            {
              "internalType": "bytes16",
              "name": "groupId",
              "type": "bytes16"
            },
            {
              "internalType": "bytes16",
              "name": "groupTimestamp",
              "type": "bytes16"
            },
            {
              "internalType": "uint256",
              "name": "value",
              "type": "uint256"
            },
            {
              "internalType": "bool",
              "name": "isOptional",
              "type": "bool"
            },
            {
              "internalType": "bool",
              "name": "isSelectableByUser",
              "type": "bool"
            },
            {
              "internalType": "bytes",
              "name": "extraData",
              "type": "bytes"
            }
          ],
          "internalType": "struct ClaimRequest[]",
          "name": "claims",
          "type": "tuple[]"
        },
        {
          "components": [
            {
              "internalType": "bytes",
              "name": "message",
              "type": "bytes"
            },
            {
              "internalType": "bool",
              "name": "isSelectableByUser",
              "type": "bool"
            },
            {
              "internalType": "bytes",
              "name": "extraData",
              "type": "bytes"
            }
          ],
          "internalType": "struct SignatureRequest",
          "name": "signature",
          "type": "tuple"
        }
      ],
      "name": "build",
      "outputs": [
        {
          "components": [
            {
              "internalType": "bytes16",
              "name": "namespace",
              "type": "bytes16"
            },
            {
              "components": [
                {
                  "internalType": "enum AuthType",
                  "name": "authType",
                  "type": "uint8"
                },
                {
                  "internalType": "uint256",
                  "name": "userId",
                  "type": "uint256"
                },
                {
                  "internalType": "bool",
                  "name": "isAnon",
                  "type": "bool"
                },
                {
                  "internalType": "bool",
                  "name": "isOptional",
                  "type": "bool"
                },
                {
                  "internalType": "bool",
                  "name": "isSelectableByUser",
                  "type": "bool"
                },
                {
                  "internalType": "bytes",
                  "name": "extraData",
                  "type": "bytes"
                }
              ],
              "internalType": "struct AuthRequest[]",
              "name": "auths",
              "type": "tuple[]"
            },
            {
              "components": [
                {
                  "internalType": "enum ClaimType",
                  "name": "claimType",
                  "type": "uint8"
                },
                {
                  "internalType": "bytes16",
                  "name": "groupId",
                  "type": "bytes16"
                },
                {
                  "internalType": "bytes16",
                  "name": "groupTimestamp",
                  "type": "bytes16"
                },
                {
                  "internalType": "uint256",
                  "name": "value",
                  "type": "uint256"
                },
                {
                  "internalType": "bool",
                  "name": "isOptional",
                  "type": "bool"
                },
                {
                  "internalType": "bool",
                  "name": "isSelectableByUser",
                  "type": "bool"
                },
                {
                  "internalType": "bytes",
                  "name": "extraData",
                  "type": "bytes"
                }
              ],
              "internalType": "struct ClaimRequest[]",
              "name": "claims",
              "type": "tuple[]"
            },
            {
              "components": [
                {
                  "internalType": "bytes",
                  "name": "message",
                  "type": "bytes"
                },
                {
                  "internalType": "bool",
                  "name": "isSelectableByUser",
                  "type": "bool"
                },
                {
                  "internalType": "bytes",
                  "name": "extraData",
                  "type": "bytes"
                }
              ],
              "internalType": "struct SignatureRequest",
              "name": "signature",
              "type": "tuple"
            }
          ],
          "internalType": "struct SismoConnectRequest",
          "name": "",
          "type": "tuple"
        }
      ],
      "stateMutability": "pure",
      "type": "function"
    },
    {
      "inputs": [
        {
          "components": [
            {
              "internalType": "enum ClaimType",
              "name": "claimType",
              "type": "uint8"
            },
            {
              "internalType": "bytes16",
              "name": "groupId",
              "type": "bytes16"
            },
            {
              "internalType": "bytes16",
              "name": "groupTimestamp",
              "type": "bytes16"
            },
            {
              "internalType": "uint256",
              "name": "value",
              "type": "uint256"
            },
            {
              "internalType": "bool",
              "name": "isOptional",
              "type": "bool"
            },
            {
              "internalType": "bool",
              "name": "isSelectableByUser",
              "type": "bool"
            },
            {
              "internalType": "bytes",
              "name": "extraData",
              "type": "bytes"
            }
          ],
          "internalType": "struct ClaimRequest",
          "name": "claim",
          "type": "tuple"
        },
        {
          "components": [
            {
              "internalType": "bytes",
              "name": "message",
              "type": "bytes"
            },
            {
              "internalType": "bool",
              "name": "isSelectableByUser",
              "type": "bool"
            },
            {
              "internalType": "bytes",
              "name": "extraData",
              "type": "bytes"
            }
          ],
          "internalType": "struct SignatureRequest",
          "name": "signature",
          "type": "tuple"
        }
      ],
      "name": "build",
      "outputs": [
        {
          "components": [
            {
              "internalType": "bytes16",
              "name": "namespace",
              "type": "bytes16"
            },
            {
              "components": [
                {
                  "internalType": "enum AuthType",
                  "name": "authType",
                  "type": "uint8"
                },
                {
                  "internalType": "uint256",
                  "name": "userId",
                  "type": "uint256"
                },
                {
                  "internalType": "bool",
                  "name": "isAnon",
                  "type": "bool"
                },
                {
                  "internalType": "bool",
                  "name": "isOptional",
                  "type": "bool"
                },
                {
                  "internalType": "bool",
                  "name": "isSelectableByUser",
                  "type": "bool"
                },
                {
                  "internalType": "bytes",
                  "name": "extraData",
                  "type": "bytes"
                }
              ],
              "internalType": "struct AuthRequest[]",
              "name": "auths",
              "type": "tuple[]"
            },
            {
              "components": [
                {
                  "internalType": "enum ClaimType",
                  "name": "claimType",
                  "type": "uint8"
                },
                {
                  "internalType": "bytes16",
                  "name": "groupId",
                  "type": "bytes16"
                },
                {
                  "internalType": "bytes16",
                  "name": "groupTimestamp",
                  "type": "bytes16"
                },
                {
                  "internalType": "uint256",
                  "name": "value",
                  "type": "uint256"
                },
                {
                  "internalType": "bool",
                  "name": "isOptional",
                  "type": "bool"
                },
                {
                  "internalType": "bool",
                  "name": "isSelectableByUser",
                  "type": "bool"
                },
                {
                  "internalType": "bytes",
                  "name": "extraData",
                  "type": "bytes"
                }
              ],
              "internalType": "struct ClaimRequest[]",
              "name": "claims",
              "type": "tuple[]"
            },
            {
              "components": [
                {
                  "internalType": "bytes",
                  "name": "message",
                  "type": "bytes"
                },
                {
                  "internalType": "bool",
                  "name": "isSelectableByUser",
                  "type": "bool"
                },
                {
                  "internalType": "bytes",
                  "name": "extraData",
                  "type": "bytes"
                }
              ],
              "internalType": "struct SignatureRequest",
              "name": "signature",
              "type": "tuple"
            }
          ],
          "internalType": "struct SismoConnectRequest",
          "name": "",
          "type": "tuple"
        }
      ],
      "stateMutability": "pure",
      "type": "function"
    },
    {
      "inputs": [
        {
          "components": [
            {
              "internalType": "enum AuthType",
              "name": "authType",
              "type": "uint8"
            },
            {
              "internalType": "uint256",
              "name": "userId",
              "type": "uint256"
            },
            {
              "internalType": "bool",
              "name": "isAnon",
              "type": "bool"
            },
            {
              "internalType": "bool",
              "name": "isOptional",
              "type": "bool"
            },
            {
              "internalType": "bool",
              "name": "isSelectableByUser",
              "type": "bool"
            },
            {
              "internalType": "bytes",
              "name": "extraData",
              "type": "bytes"
            }
          ],
          "internalType": "struct AuthRequest",
          "name": "auth",
          "type": "tuple"
        }
      ],
      "name": "build",
      "outputs": [
        {
          "components": [
            {
              "internalType": "bytes16",
              "name": "namespace",
              "type": "bytes16"
            },
            {
              "components": [
                {
                  "internalType": "enum AuthType",
                  "name": "authType",
                  "type": "uint8"
                },
                {
                  "internalType": "uint256",
                  "name": "userId",
                  "type": "uint256"
                },
                {
                  "internalType": "bool",
                  "name": "isAnon",
                  "type": "bool"
                },
                {
                  "internalType": "bool",
                  "name": "isOptional",
                  "type": "bool"
                },
                {
                  "internalType": "bool",
                  "name": "isSelectableByUser",
                  "type": "bool"
                },
                {
                  "internalType": "bytes",
                  "name": "extraData",
                  "type": "bytes"
                }
              ],
              "internalType": "struct AuthRequest[]",
              "name": "auths",
              "type": "tuple[]"
            },
            {
              "components": [
                {
                  "internalType": "enum ClaimType",
                  "name": "claimType",
                  "type": "uint8"
                },
                {
                  "internalType": "bytes16",
                  "name": "groupId",
                  "type": "bytes16"
                },
                {
                  "internalType": "bytes16",
                  "name": "groupTimestamp",
                  "type": "bytes16"
                },
                {
                  "internalType": "uint256",
                  "name": "value",
                  "type": "uint256"
                },
                {
                  "internalType": "bool",
                  "name": "isOptional",
                  "type": "bool"
                },
                {
                  "internalType": "bool",
                  "name": "isSelectableByUser",
                  "type": "bool"
                },
                {
                  "internalType": "bytes",
                  "name": "extraData",
                  "type": "bytes"
                }
              ],
              "internalType": "struct ClaimRequest[]",
              "name": "claims",
              "type": "tuple[]"
            },
            {
              "components": [
                {
                  "internalType": "bytes",
                  "name": "message",
                  "type": "bytes"
                },
                {
                  "internalType": "bool",
                  "name": "isSelectableByUser",
                  "type": "bool"
                },
                {
                  "internalType": "bytes",
                  "name": "extraData",
                  "type": "bytes"
                }
              ],
              "internalType": "struct SignatureRequest",
              "name": "signature",
              "type": "tuple"
            }
          ],
          "internalType": "struct SismoConnectRequest",
          "name": "",
          "type": "tuple"
        }
      ],
      "stateMutability": "view",
      "type": "function"
    },
    {
      "inputs": [
        {
          "components": [
            {
              "internalType": "enum AuthType",
              "name": "authType",
              "type": "uint8"
            },
            {
              "internalType": "uint256",
              "name": "userId",
              "type": "uint256"
            },
            {
              "internalType": "bool",
              "name": "isAnon",
              "type": "bool"
            },
            {
              "internalType": "bool",
              "name": "isOptional",
              "type": "bool"
            },
            {
              "internalType": "bool",
              "name": "isSelectableByUser",
              "type": "bool"
            },
            {
              "internalType": "bytes",
              "name": "extraData",
              "type": "bytes"
            }
          ],
          "internalType": "struct AuthRequest[]",
          "name": "auths",
          "type": "tuple[]"
        },
        {
          "components": [
            {
              "internalType": "bytes",
              "name": "message",
              "type": "bytes"
            },
            {
              "internalType": "bool",
              "name": "isSelectableByUser",
              "type": "bool"
            },
            {
              "internalType": "bytes",
              "name": "extraData",
              "type": "bytes"
            }
          ],
          "internalType": "struct SignatureRequest",
          "name": "signature",
          "type": "tuple"
        },
        {
          "internalType": "bytes16",
          "name": "namespace",
          "type": "bytes16"
        }
      ],
      "name": "build",
      "outputs": [
        {
          "components": [
            {
              "internalType": "bytes16",
              "name": "namespace",
              "type": "bytes16"
            },
            {
              "components": [
                {
                  "internalType": "enum AuthType",
                  "name": "authType",
                  "type": "uint8"
                },
                {
                  "internalType": "uint256",
                  "name": "userId",
                  "type": "uint256"
                },
                {
                  "internalType": "bool",
                  "name": "isAnon",
                  "type": "bool"
                },
                {
                  "internalType": "bool",
                  "name": "isOptional",
                  "type": "bool"
                },
                {
                  "internalType": "bool",
                  "name": "isSelectableByUser",
                  "type": "bool"
                },
                {
                  "internalType": "bytes",
                  "name": "extraData",
                  "type": "bytes"
                }
              ],
              "internalType": "struct AuthRequest[]",
              "name": "auths",
              "type": "tuple[]"
            },
            {
              "components": [
                {
                  "internalType": "enum ClaimType",
                  "name": "claimType",
                  "type": "uint8"
                },
                {
                  "internalType": "bytes16",
                  "name": "groupId",
                  "type": "bytes16"
                },
                {
                  "internalType": "bytes16",
                  "name": "groupTimestamp",
                  "type": "bytes16"
                },
                {
                  "internalType": "uint256",
                  "name": "value",
                  "type": "uint256"
                },
                {
                  "internalType": "bool",
                  "name": "isOptional",
                  "type": "bool"
                },
                {
                  "internalType": "bool",
                  "name": "isSelectableByUser",
                  "type": "bool"
                },
                {
                  "internalType": "bytes",
                  "name": "extraData",
                  "type": "bytes"
                }
              ],
              "internalType": "struct ClaimRequest[]",
              "name": "claims",
              "type": "tuple[]"
            },
            {
              "components": [
                {
                  "internalType": "bytes",
                  "name": "message",
                  "type": "bytes"
                },
                {
                  "internalType": "bool",
                  "name": "isSelectableByUser",
                  "type": "bool"
                },
                {
                  "internalType": "bytes",
                  "name": "extraData",
                  "type": "bytes"
                }
              ],
              "internalType": "struct SignatureRequest",
              "name": "signature",
              "type": "tuple"
            }
          ],
          "internalType": "struct SismoConnectRequest",
          "name": "",
          "type": "tuple"
        }
      ],
      "stateMutability": "pure",
      "type": "function"
    },
    {
      "inputs": [
        {
          "components": [
            {
              "internalType": "enum AuthType",
              "name": "authType",
              "type": "uint8"
            },
            {
              "internalType": "uint256",
              "name": "userId",
              "type": "uint256"
            },
            {
              "internalType": "bool",
              "name": "isAnon",
              "type": "bool"
            },
            {
              "internalType": "bool",
              "name": "isOptional",
              "type": "bool"
            },
            {
              "internalType": "bool",
              "name": "isSelectableByUser",
              "type": "bool"
            },
            {
              "internalType": "bytes",
              "name": "extraData",
              "type": "bytes"
            }
          ],
          "internalType": "struct AuthRequest",
          "name": "auth",
          "type": "tuple"
        },
        {
          "components": [
            {
              "internalType": "enum ClaimType",
              "name": "claimType",
              "type": "uint8"
            },
            {
              "internalType": "bytes16",
              "name": "groupId",
              "type": "bytes16"
            },
            {
              "internalType": "bytes16",
              "name": "groupTimestamp",
              "type": "bytes16"
            },
            {
              "internalType": "uint256",
              "name": "value",
              "type": "uint256"
            },
            {
              "internalType": "bool",
              "name": "isOptional",
              "type": "bool"
            },
            {
              "internalType": "bool",
              "name": "isSelectableByUser",
              "type": "bool"
            },
            {
              "internalType": "bytes",
              "name": "extraData",
              "type": "bytes"
            }
          ],
          "internalType": "struct ClaimRequest",
          "name": "claim",
          "type": "tuple"
        }
      ],
      "name": "build",
      "outputs": [
        {
          "components": [
            {
              "internalType": "bytes16",
              "name": "namespace",
              "type": "bytes16"
            },
            {
              "components": [
                {
                  "internalType": "enum AuthType",
                  "name": "authType",
                  "type": "uint8"
                },
                {
                  "internalType": "uint256",
                  "name": "userId",
                  "type": "uint256"
                },
                {
                  "internalType": "bool",
                  "name": "isAnon",
                  "type": "bool"
                },
                {
                  "internalType": "bool",
                  "name": "isOptional",
                  "type": "bool"
                },
                {
                  "internalType": "bool",
                  "name": "isSelectableByUser",
                  "type": "bool"
                },
                {
                  "internalType": "bytes",
                  "name": "extraData",
                  "type": "bytes"
                }
              ],
              "internalType": "struct AuthRequest[]",
              "name": "auths",
              "type": "tuple[]"
            },
            {
              "components": [
                {
                  "internalType": "enum ClaimType",
                  "name": "claimType",
                  "type": "uint8"
                },
                {
                  "internalType": "bytes16",
                  "name": "groupId",
                  "type": "bytes16"
                },
                {
                  "internalType": "bytes16",
                  "name": "groupTimestamp",
                  "type": "bytes16"
                },
                {
                  "internalType": "uint256",
                  "name": "value",
                  "type": "uint256"
                },
                {
                  "internalType": "bool",
                  "name": "isOptional",
                  "type": "bool"
                },
                {
                  "internalType": "bool",
                  "name": "isSelectableByUser",
                  "type": "bool"
                },
                {
                  "internalType": "bytes",
                  "name": "extraData",
                  "type": "bytes"
                }
              ],
              "internalType": "struct ClaimRequest[]",
              "name": "claims",
              "type": "tuple[]"
            },
            {
              "components": [
                {
                  "internalType": "bytes",
                  "name": "message",
                  "type": "bytes"
                },
                {
                  "internalType": "bool",
                  "name": "isSelectableByUser",
                  "type": "bool"
                },
                {
                  "internalType": "bytes",
                  "name": "extraData",
                  "type": "bytes"
                }
              ],
              "internalType": "struct SignatureRequest",
              "name": "signature",
              "type": "tuple"
            }
          ],
          "internalType": "struct SismoConnectRequest",
          "name": "",
          "type": "tuple"
        }
      ],
      "stateMutability": "view",
      "type": "function"
    },
    {
      "inputs": [
        {
          "components": [
            {
              "internalType": "enum AuthType",
              "name": "authType",
              "type": "uint8"
            },
            {
              "internalType": "uint256",
              "name": "userId",
              "type": "uint256"
            },
            {
              "internalType": "bool",
              "name": "isAnon",
              "type": "bool"
            },
            {
              "internalType": "bool",
              "name": "isOptional",
              "type": "bool"
            },
            {
              "internalType": "bool",
              "name": "isSelectableByUser",
              "type": "bool"
            },
            {
              "internalType": "bytes",
              "name": "extraData",
              "type": "bytes"
            }
          ],
          "internalType": "struct AuthRequest[]",
          "name": "auths",
          "type": "tuple[]"
        },
        {
          "components": [
            {
              "internalType": "enum ClaimType",
              "name": "claimType",
              "type": "uint8"
            },
            {
              "internalType": "bytes16",
              "name": "groupId",
              "type": "bytes16"
            },
            {
              "internalType": "bytes16",
              "name": "groupTimestamp",
              "type": "bytes16"
            },
            {
              "internalType": "uint256",
              "name": "value",
              "type": "uint256"
            },
            {
              "internalType": "bool",
              "name": "isOptional",
              "type": "bool"
            },
            {
              "internalType": "bool",
              "name": "isSelectableByUser",
              "type": "bool"
            },
            {
              "internalType": "bytes",
              "name": "extraData",
              "type": "bytes"
            }
          ],
          "internalType": "struct ClaimRequest[]",
          "name": "claims",
          "type": "tuple[]"
        },
        {
          "components": [
            {
              "internalType": "bytes",
              "name": "message",
              "type": "bytes"
            },
            {
              "internalType": "bool",
              "name": "isSelectableByUser",
              "type": "bool"
            },
            {
              "internalType": "bytes",
              "name": "extraData",
              "type": "bytes"
            }
          ],
          "internalType": "struct SignatureRequest",
          "name": "signature",
          "type": "tuple"
        },
        {
          "internalType": "bytes16",
          "name": "namespace",
          "type": "bytes16"
        }
      ],
      "name": "build",
      "outputs": [
        {
          "components": [
            {
              "internalType": "bytes16",
              "name": "namespace",
              "type": "bytes16"
            },
            {
              "components": [
                {
                  "internalType": "enum AuthType",
                  "name": "authType",
                  "type": "uint8"
                },
                {
                  "internalType": "uint256",
                  "name": "userId",
                  "type": "uint256"
                },
                {
                  "internalType": "bool",
                  "name": "isAnon",
                  "type": "bool"
                },
                {
                  "internalType": "bool",
                  "name": "isOptional",
                  "type": "bool"
                },
                {
                  "internalType": "bool",
                  "name": "isSelectableByUser",
                  "type": "bool"
                },
                {
                  "internalType": "bytes",
                  "name": "extraData",
                  "type": "bytes"
                }
              ],
              "internalType": "struct AuthRequest[]",
              "name": "auths",
              "type": "tuple[]"
            },
            {
              "components": [
                {
                  "internalType": "enum ClaimType",
                  "name": "claimType",
                  "type": "uint8"
                },
                {
                  "internalType": "bytes16",
                  "name": "groupId",
                  "type": "bytes16"
                },
                {
                  "internalType": "bytes16",
                  "name": "groupTimestamp",
                  "type": "bytes16"
                },
                {
                  "internalType": "uint256",
                  "name": "value",
                  "type": "uint256"
                },
                {
                  "internalType": "bool",
                  "name": "isOptional",
                  "type": "bool"
                },
                {
                  "internalType": "bool",
                  "name": "isSelectableByUser",
                  "type": "bool"
                },
                {
                  "internalType": "bytes",
                  "name": "extraData",
                  "type": "bytes"
                }
              ],
              "internalType": "struct ClaimRequest[]",
              "name": "claims",
              "type": "tuple[]"
            },
            {
              "components": [
                {
                  "internalType": "bytes",
                  "name": "message",
                  "type": "bytes"
                },
                {
                  "internalType": "bool",
                  "name": "isSelectableByUser",
                  "type": "bool"
                },
                {
                  "internalType": "bytes",
                  "name": "extraData",
                  "type": "bytes"
                }
              ],
              "internalType": "struct SignatureRequest",
              "name": "signature",
              "type": "tuple"
            }
          ],
          "internalType": "struct SismoConnectRequest",
          "name": "",
          "type": "tuple"
        }
      ],
      "stateMutability": "pure",
      "type": "function"
    },
    {
      "inputs": [
        {
          "components": [
            {
              "internalType": "enum AuthType",
              "name": "authType",
              "type": "uint8"
            },
            {
              "internalType": "uint256",
              "name": "userId",
              "type": "uint256"
            },
            {
              "internalType": "bool",
              "name": "isAnon",
              "type": "bool"
            },
            {
              "internalType": "bool",
              "name": "isOptional",
              "type": "bool"
            },
            {
              "internalType": "bool",
              "name": "isSelectableByUser",
              "type": "bool"
            },
            {
              "internalType": "bytes",
              "name": "extraData",
              "type": "bytes"
            }
          ],
          "internalType": "struct AuthRequest",
          "name": "auth",
          "type": "tuple"
        },
        {
          "components": [
            {
              "internalType": "enum ClaimType",
              "name": "claimType",
              "type": "uint8"
            },
            {
              "internalType": "bytes16",
              "name": "groupId",
              "type": "bytes16"
            },
            {
              "internalType": "bytes16",
              "name": "groupTimestamp",
              "type": "bytes16"
            },
            {
              "internalType": "uint256",
              "name": "value",
              "type": "uint256"
            },
            {
              "internalType": "bool",
              "name": "isOptional",
              "type": "bool"
            },
            {
              "internalType": "bool",
              "name": "isSelectableByUser",
              "type": "bool"
            },
            {
              "internalType": "bytes",
              "name": "extraData",
              "type": "bytes"
            }
          ],
          "internalType": "struct ClaimRequest",
          "name": "claim",
          "type": "tuple"
        },
        {
          "components": [
            {
              "internalType": "bytes",
              "name": "message",
              "type": "bytes"
            },
            {
              "internalType": "bool",
              "name": "isSelectableByUser",
              "type": "bool"
            },
            {
              "internalType": "bytes",
              "name": "extraData",
              "type": "bytes"
            }
          ],
          "internalType": "struct SignatureRequest",
          "name": "signature",
          "type": "tuple"
        },
        {
          "internalType": "bytes16",
          "name": "namespace",
          "type": "bytes16"
        }
      ],
      "name": "build",
      "outputs": [
        {
          "components": [
            {
              "internalType": "bytes16",
              "name": "namespace",
              "type": "bytes16"
            },
            {
              "components": [
                {
                  "internalType": "enum AuthType",
                  "name": "authType",
                  "type": "uint8"
                },
                {
                  "internalType": "uint256",
                  "name": "userId",
                  "type": "uint256"
                },
                {
                  "internalType": "bool",
                  "name": "isAnon",
                  "type": "bool"
                },
                {
                  "internalType": "bool",
                  "name": "isOptional",
                  "type": "bool"
                },
                {
                  "internalType": "bool",
                  "name": "isSelectableByUser",
                  "type": "bool"
                },
                {
                  "internalType": "bytes",
                  "name": "extraData",
                  "type": "bytes"
                }
              ],
              "internalType": "struct AuthRequest[]",
              "name": "auths",
              "type": "tuple[]"
            },
            {
              "components": [
                {
                  "internalType": "enum ClaimType",
                  "name": "claimType",
                  "type": "uint8"
                },
                {
                  "internalType": "bytes16",
                  "name": "groupId",
                  "type": "bytes16"
                },
                {
                  "internalType": "bytes16",
                  "name": "groupTimestamp",
                  "type": "bytes16"
                },
                {
                  "internalType": "uint256",
                  "name": "value",
                  "type": "uint256"
                },
                {
                  "internalType": "bool",
                  "name": "isOptional",
                  "type": "bool"
                },
                {
                  "internalType": "bool",
                  "name": "isSelectableByUser",
                  "type": "bool"
                },
                {
                  "internalType": "bytes",
                  "name": "extraData",
                  "type": "bytes"
                }
              ],
              "internalType": "struct ClaimRequest[]",
              "name": "claims",
              "type": "tuple[]"
            },
            {
              "components": [
                {
                  "internalType": "bytes",
                  "name": "message",
                  "type": "bytes"
                },
                {
                  "internalType": "bool",
                  "name": "isSelectableByUser",
                  "type": "bool"
                },
                {
                  "internalType": "bytes",
                  "name": "extraData",
                  "type": "bytes"
                }
              ],
              "internalType": "struct SignatureRequest",
              "name": "signature",
              "type": "tuple"
            }
          ],
          "internalType": "struct SismoConnectRequest",
          "name": "",
          "type": "tuple"
        }
      ],
      "stateMutability": "pure",
      "type": "function"
    },
    {
      "inputs": [
        {
          "components": [
            {
              "internalType": "enum ClaimType",
              "name": "claimType",
              "type": "uint8"
            },
            {
              "internalType": "bytes16",
              "name": "groupId",
              "type": "bytes16"
            },
            {
              "internalType": "bytes16",
              "name": "groupTimestamp",
              "type": "bytes16"
            },
            {
              "internalType": "uint256",
              "name": "value",
              "type": "uint256"
            },
            {
              "internalType": "bool",
              "name": "isOptional",
              "type": "bool"
            },
            {
              "internalType": "bool",
              "name": "isSelectableByUser",
              "type": "bool"
            },
            {
              "internalType": "bytes",
              "name": "extraData",
              "type": "bytes"
            }
          ],
          "internalType": "struct ClaimRequest[]",
          "name": "claims",
          "type": "tuple[]"
        },
        {
          "internalType": "bytes16",
          "name": "namespace",
          "type": "bytes16"
        }
      ],
      "name": "build",
      "outputs": [
        {
          "components": [
            {
              "internalType": "bytes16",
              "name": "namespace",
              "type": "bytes16"
            },
            {
              "components": [
                {
                  "internalType": "enum AuthType",
                  "name": "authType",
                  "type": "uint8"
                },
                {
                  "internalType": "uint256",
                  "name": "userId",
                  "type": "uint256"
                },
                {
                  "internalType": "bool",
                  "name": "isAnon",
                  "type": "bool"
                },
                {
                  "internalType": "bool",
                  "name": "isOptional",
                  "type": "bool"
                },
                {
                  "internalType": "bool",
                  "name": "isSelectableByUser",
                  "type": "bool"
                },
                {
                  "internalType": "bytes",
                  "name": "extraData",
                  "type": "bytes"
                }
              ],
              "internalType": "struct AuthRequest[]",
              "name": "auths",
              "type": "tuple[]"
            },
            {
              "components": [
                {
                  "internalType": "enum ClaimType",
                  "name": "claimType",
                  "type": "uint8"
                },
                {
                  "internalType": "bytes16",
                  "name": "groupId",
                  "type": "bytes16"
                },
                {
                  "internalType": "bytes16",
                  "name": "groupTimestamp",
                  "type": "bytes16"
                },
                {
                  "internalType": "uint256",
                  "name": "value",
                  "type": "uint256"
                },
                {
                  "internalType": "bool",
                  "name": "isOptional",
                  "type": "bool"
                },
                {
                  "internalType": "bool",
                  "name": "isSelectableByUser",
                  "type": "bool"
                },
                {
                  "internalType": "bytes",
                  "name": "extraData",
                  "type": "bytes"
                }
              ],
              "internalType": "struct ClaimRequest[]",
              "name": "claims",
              "type": "tuple[]"
            },
            {
              "components": [
                {
                  "internalType": "bytes",
                  "name": "message",
                  "type": "bytes"
                },
                {
                  "internalType": "bool",
                  "name": "isSelectableByUser",
                  "type": "bool"
                },
                {
                  "internalType": "bytes",
                  "name": "extraData",
                  "type": "bytes"
                }
              ],
              "internalType": "struct SignatureRequest",
              "name": "signature",
              "type": "tuple"
            }
          ],
          "internalType": "struct SismoConnectRequest",
          "name": "",
          "type": "tuple"
        }
      ],
      "stateMutability": "view",
      "type": "function"
    },
    {
      "inputs": [
        {
          "components": [
            {
              "internalType": "enum AuthType",
              "name": "authType",
              "type": "uint8"
            },
            {
              "internalType": "uint256",
              "name": "userId",
              "type": "uint256"
            },
            {
              "internalType": "bool",
              "name": "isAnon",
              "type": "bool"
            },
            {
              "internalType": "bool",
              "name": "isOptional",
              "type": "bool"
            },
            {
              "internalType": "bool",
              "name": "isSelectableByUser",
              "type": "bool"
            },
            {
              "internalType": "bytes",
              "name": "extraData",
              "type": "bytes"
            }
          ],
          "internalType": "struct AuthRequest",
          "name": "auth",
          "type": "tuple"
        },
        {
          "components": [
            {
              "internalType": "enum ClaimType",
              "name": "claimType",
              "type": "uint8"
            },
            {
              "internalType": "bytes16",
              "name": "groupId",
              "type": "bytes16"
            },
            {
              "internalType": "bytes16",
              "name": "groupTimestamp",
              "type": "bytes16"
            },
            {
              "internalType": "uint256",
              "name": "value",
              "type": "uint256"
            },
            {
              "internalType": "bool",
              "name": "isOptional",
              "type": "bool"
            },
            {
              "internalType": "bool",
              "name": "isSelectableByUser",
              "type": "bool"
            },
            {
              "internalType": "bytes",
              "name": "extraData",
              "type": "bytes"
            }
          ],
          "internalType": "struct ClaimRequest",
          "name": "claim",
          "type": "tuple"
        },
        {
          "components": [
            {
              "internalType": "bytes",
              "name": "message",
              "type": "bytes"
            },
            {
              "internalType": "bool",
              "name": "isSelectableByUser",
              "type": "bool"
            },
            {
              "internalType": "bytes",
              "name": "extraData",
              "type": "bytes"
            }
          ],
          "internalType": "struct SignatureRequest",
          "name": "signature",
          "type": "tuple"
        }
      ],
      "name": "build",
      "outputs": [
        {
          "components": [
            {
              "internalType": "bytes16",
              "name": "namespace",
              "type": "bytes16"
            },
            {
              "components": [
                {
                  "internalType": "enum AuthType",
                  "name": "authType",
                  "type": "uint8"
                },
                {
                  "internalType": "uint256",
                  "name": "userId",
                  "type": "uint256"
                },
                {
                  "internalType": "bool",
                  "name": "isAnon",
                  "type": "bool"
                },
                {
                  "internalType": "bool",
                  "name": "isOptional",
                  "type": "bool"
                },
                {
                  "internalType": "bool",
                  "name": "isSelectableByUser",
                  "type": "bool"
                },
                {
                  "internalType": "bytes",
                  "name": "extraData",
                  "type": "bytes"
                }
              ],
              "internalType": "struct AuthRequest[]",
              "name": "auths",
              "type": "tuple[]"
            },
            {
              "components": [
                {
                  "internalType": "enum ClaimType",
                  "name": "claimType",
                  "type": "uint8"
                },
                {
                  "internalType": "bytes16",
                  "name": "groupId",
                  "type": "bytes16"
                },
                {
                  "internalType": "bytes16",
                  "name": "groupTimestamp",
                  "type": "bytes16"
                },
                {
                  "internalType": "uint256",
                  "name": "value",
                  "type": "uint256"
                },
                {
                  "internalType": "bool",
                  "name": "isOptional",
                  "type": "bool"
                },
                {
                  "internalType": "bool",
                  "name": "isSelectableByUser",
                  "type": "bool"
                },
                {
                  "internalType": "bytes",
                  "name": "extraData",
                  "type": "bytes"
                }
              ],
              "internalType": "struct ClaimRequest[]",
              "name": "claims",
              "type": "tuple[]"
            },
            {
              "components": [
                {
                  "internalType": "bytes",
                  "name": "message",
                  "type": "bytes"
                },
                {
                  "internalType": "bool",
                  "name": "isSelectableByUser",
                  "type": "bool"
                },
                {
                  "internalType": "bytes",
                  "name": "extraData",
                  "type": "bytes"
                }
              ],
              "internalType": "struct SignatureRequest",
              "name": "signature",
              "type": "tuple"
            }
          ],
          "internalType": "struct SismoConnectRequest",
          "name": "",
          "type": "tuple"
        }
      ],
      "stateMutability": "pure",
      "type": "function"
    }
  ],
  "bytecode": "0x60803462000364576001600160401b0360608201818111838210176200034e5760a08301818110838211176200034e57604052601881527f4d4553534147455f53454c45435445445f42595f55534552000000000000000060808401528252602091828101600080825260405192858401848110868211176200033a576040528184526040810193845251928351928584116200033a578254936001958686811c961680156200032f575b898710146200031b578190601f96878111620002c8575b5089908783116001146200026457869262000258575b5050600019600383901b1c191690861b1783555b51151560ff801986541691161784555190815194851162000244576002548481811c9116801562000239575b878210146200022557838111620001dc575b50859285116001146200017357939450849291908362000167575b50501b916000199060031b1c1916176002555b60405161169590816200036a8239f35b01519250388062000144565b6002815285812093958591601f198316915b88838310620001c15750505010620001a7575b505050811b0160025562000157565b015160001960f88460031b161c1916905538808062000198565b85870151885590960195948501948793509081019062000185565b600282528682208480880160051c8201928989106200021b575b0160051c019085905b8281106200020f57505062000129565b838155018590620001ff565b92508192620001f6565b634e487b7160e01b82526022600452602482fd5b90607f169062000117565b634e487b7160e01b81526041600452602490fd5b015190503880620000d7565b8680528a87208994509190601f198416885b8d828210620002b1575050841162000297575b505050811b018355620000eb565b015160001960f88460031b161c1916905538808062000289565b8385015186558c9790950194938401930162000276565b9091508580528986208780850160051c8201928c861062000311575b918a91869594930160051c01915b82811062000302575050620000c1565b8881558594508a9101620002f2565b92508192620002e4565b634e487b7160e01b85526022600452602485fd5b95607f1695620000aa565b634e487b7160e01b83526041600452602483fd5b634e487b7160e01b600052604160045260246000fd5b600080fdfe6040608081526004908136101561001557600080fd5b600090813560e01c8063080b53f814610c755780630e58be0514610c2457806310c5d31b14610ba657806311f83e2014610b6b57806314ddafa314610af35780631b399c9914610ac657806327b5b7c314610a835780632ceb1e8d14610a2c57806331560e751461099557806348fd24cc14610906578063548525771461089257806391ba07f3146108175780639266f47c146107ad578063992403361461073f578063a156e2d8146106ec578063b33cd32314610697578063b5ae258714610629578063c9f97f53146105bf578063d7ccd8da1461054c578063dd108267146104cc578063dde11c7c14610407578063e48cd72114610390578063e93f38b8146102ae578063f1c1e209146102255763f2d3f1f61461013457600080fd5b34610221576060366003190112610221576001600160401b03918335838111610221576101649036908601611137565b9260243581811161021d5761017c9036908701610e69565b9160443591821161021a575061021694610198913691016111bd565b906101a161133a565b506101aa61137d565b936101b4856113e5565b526101be846113e5565b506101c7611408565b906101d1826113e5565b526101db816113e5565b508251936101e885610cce565b6fb8e2054f8a912367e38a22ce773328ff60801b855260208501528284015260608301525191829182610f45565b0390f35b80fd5b8280fd5b5080fd5b503461022157806003193601126102215782356001600160401b03811161021d5761021693610256913691016112ba565b61025e610da7565b9261026761133a565b5082519061027482610d50565b815282519361028285610cce565b6001600160801b031916845260208401528183015261029f61146f565b60608301525191829182610f45565b5034610221576080366003190112610221576001600160401b03918335838111610221576102df9036908601611137565b9260243581811161021d576102f79036908701610e69565b9160443591821161021a575061021694610313913691016111bd565b9061031c610dda565b9361032561133a565b5061032e61137d565b90610338826113e5565b52610342816113e5565b5061034b611408565b91610355836113e5565b5261035f826113e5565b5083519461036c86610cce565b6001600160801b031916855260208501528284015260608301525191829182610f45565b5034610221576080366003190112610221576001600160401b03918335838111610221576103c1903690860161123a565b9260243581811161021d576103d990369087016112ba565b9160443591821161021a5750610216946103f5913691016111bd565b906103fe610dda565b9361035f61133a565b50346102215780600319360112610221576001600160401b0383358181116104c8576104369036908601611137565b9260243591821161021a57506102169361045291369101610e69565b61045a61133a565b5061046361137d565b9261046d846113e5565b52610477836113e5565b50610480611408565b9061048a826113e5565b52610494816113e5565b508151926104a184610cce565b6fb8e2054f8a912367e38a22ce773328ff60801b845260208401528183015261029f61146f565b8380fd5b5082903461021d57606036600319011261021d576001600160401b03918035838111610548576104ff903690830161123a565b9260243590811161054857610216949161051b913691016111bd565b90610524610dc3565b9361052d61133a565b5083519161053a83610d50565b825283519461036c86610cce565b8480fd5b50346102215760203660031901126102215782356001600160401b03811161021d576102169361057e91369101611137565b9161058761133a565b5061059061137d565b9261059a846113e5565b526105a4836113e5565b508151906105b182610d50565b81528151926104a184610cce565b50346102215780600319360112610221576001600160401b0383358181116104c8576105ee9036908601610e69565b906024359081116104c85761021694610609913691016111bd565b9061061261133a565b5082519361061f85610d50565b84526101c7611408565b50346102215780600319360112610221576001600160401b0383358181116104c85761065890369086016112ba565b906024359081116104c85761021694610673913691016111bd565b9061067c61133a565b5082519361068985610d50565b84528251936101e885610cce565b50346102215760203660031901126102215782356001600160401b03811161021d57610216936106c9913691016112ba565b6106d161133a565b508151926106de84610d50565b83528151926104a184610cce565b50346102215780600319360112610221576001600160401b0383358181116104c85761071b903690860161123a565b9260243591821161021a575061021693610737913691016112ba565b61049461133a565b5034610221576060366003190112610221576001600160401b0391833583811161022157610770903690860161123a565b9260243581811161021d5761078890369087016112ba565b9160443591821161021a5750610216946107a4913691016111bd565b906101db61133a565b5034610221576060366003190112610221576001600160401b0383358181116104c8576107dd903690860161123a565b9260243591821161021a5750610216936107f9913691016112ba565b610801610dc3565b9261080a61133a565b5082519361028285610cce565b503461022157806003193601126102215782356001600160401b03811161021d576102169361084891369101611137565b91610851610da7565b9261085a61133a565b5061086361137d565b9061086d826113e5565b52610877816113e5565b5082519161088483610d50565b825282519361028285610cce565b5034610221576060366003190112610221576001600160401b0383358181116104c8576108c29036908601610e69565b906024359081116104c857610216946108dd913691016111bd565b906108e6610dc3565b936108ef61133a565b508351906108fc82610d50565b815261034b611408565b5082903461021d578060031936011261021d576001600160401b03918035838111610548576109389036908301611137565b92602435908111610548576102169491610954913691016111bd565b9061095d61133a565b5061096661137d565b93610970856113e5565b5261097a846113e5565b5082519061098782610d50565b81528251936101e885610cce565b5034610221576060366003190112610221576001600160401b0383358181116104c8576109c59036908601611137565b9260243591821161021a5750610216936109e191369101610e69565b6109e9610dc3565b926109f261133a565b506109fb61137d565b90610a05826113e5565b52610a0f816113e5565b50610a18611408565b91610a22836113e5565b5261080a826113e5565b5082903461021d578060031936011261021d576001600160401b0391803583811161054857610a5e903690830161123a565b92602435908111610548576102169491610a7a913691016111bd565b9061097a61133a565b503461022157806003193601126102215782356001600160401b03811161021d5761021693610ab49136910161123a565b91610abd610da7565b9261087761133a565b5034610221578160031936011261022157516fb8e2054f8a912367e38a22ce773328ff60801b8152602090f35b5034610221576060366003190112610221576001600160401b0383358181116104c857610b2390369086016112ba565b906024359081116104c85761021694610b3e913691016111bd565b90610b47610dc3565b93610b5061133a565b50835190610b5d82610d50565b815283519461036c86610cce565b50346102215760203660031901126102215782356001600160401b03811161021d5761021693610b9d9136910161123a565b916105a461133a565b5082903461021d57606036600319011261021d576001600160401b0391803583811161054857610bd99036908301611137565b92602435908111610548576102169491610bf5913691016111bd565b90610bfe610dc3565b93610c0761133a565b50610c1061137d565b90610c1a826113e5565b5261052d816113e5565b50346102215760203660031901126102215782356001600160401b03811161021d5761021693610c5691369101610e69565b610c5e61133a565b50815192610c6b84610d50565b8352610480611408565b503461022157806003193601126102215782356001600160401b03811161021d5761021693610ca691369101610e69565b610cae610da7565b92610cb761133a565b50825190610cc482610d50565b8152610a18611408565b608081019081106001600160401b03821117610ce957604052565b634e487b7160e01b600052604160045260246000fd5b60e081019081106001600160401b03821117610ce957604052565b60c081019081106001600160401b03821117610ce957604052565b606081019081106001600160401b03821117610ce957604052565b602081019081106001600160401b03821117610ce957604052565b604081019081106001600160401b03821117610ce957604052565b90601f801991011681019081106001600160401b03821117610ce957604052565b602435906001600160801b031982168203610dbe57565b600080fd5b604435906001600160801b031982168203610dbe57565b606435906001600160801b031982168203610dbe57565b35906001600160801b031982168203610dbe57565b35908115158203610dbe57565b81601f82011215610dbe578035906001600160401b038211610ce95760405192610e47601f8401601f191660200185610d86565b82845260208383010111610dbe57816000926020809301838601378301015290565b919060e083820312610dbe5760405190610e8282610cff565b819380356005811015610dbe578352610e9d60208201610df1565b6020840152610eae60408201610df1565b604084015260608101356060840152610ec960808201610e06565b6080840152610eda60a08201610e06565b60a084015260c0810135916001600160401b038311610dbe5760c092610f009201610e13565b910152565b919082519283825260005b848110610f31575050826000602080949584010152601f8019910116010190565b602081830181015184830182015201610f10565b906020825260a08201906001600160801b0319815116602084015260208101519160806040850152825180915260c08401602060c08360051b87010194019160005b8181106110c15750505050604081015191601f19848203016060850152825180825260208201906020808260051b8501019501926000905b82821061101757505050505090606061101493920151916080601f19828403019101526040610ff78351606084526060840190610f05565b926020810151151560208401520151906040818403910152610f05565b90565b9091929395601f19828203018552865190815160058110156110ab5761109e8260c0600195602095948695526001600160801b03198582015116858401526001600160801b031960408201511660408401526060810151606084015260808101511515608084015260a0810151151560a084015201519060e0908160c08201520190610f05565b9801950193920190610fbf565b634e487b7160e01b600052602160045260246000fd5b9091929460bf1987820301845285519081519160068310156110ab5761112b8260c060a06020959460019787965285810151868501526040810151151560408501526060808201511515908501526080810151151560808501520151918160a08201520190610f05565b97019401929101610f87565b919060c083820312610dbe576040519061115082610d1a565b819380356006811015610dbe5783526020810135602084015261117560408201610e06565b604084015261118660608201610e06565b606084015261119760808201610e06565b608084015260a0810135916001600160401b038311610dbe5760a092610f009201610e13565b9190606083820312610dbe57604051906111d682610d35565b81938035916001600160401b0392838111610dbe57816111f7918401610e13565b845261120560208301610e06565b60208501526040820135928311610dbe57604092610f009201610e13565b6001600160401b038111610ce95760051b60200190565b9080601f83011215610dbe5781359061125282611223565b926112606040519485610d86565b828452602092838086019160051b83010192808411610dbe57848301915b84831061128e5750505050505090565b82356001600160401b038111610dbe5786916112af84848094890101611137565b81520192019161127e565b9080601f83011215610dbe578135906112d282611223565b926112e06040519485610d86565b828452602092838086019160051b83010192808411610dbe57848301915b84831061130e5750505050505090565b82356001600160401b038111610dbe57869161132f84848094890101610e69565b8152019201916112fe565b6040519061134782610cce565b8160008152606060208201526060604082015260606040519161136983610d35565b818352600060208401528160408401520152565b60409081519161138c83610d6b565b60018352829160005b6020808210156113dd578351602092916113ae82610d1a565b6000825260008183015260008683015260606000818401526000608084015260a0830152828801015201611395565b505091925050565b8051156113f25760200190565b634e487b7160e01b600052603260045260246000fd5b60409081519161141783610d6b565b60018352829160005b6020808210156113dd5783516020929161143982610cff565b60008252600081830152600086830152606060008184015260006080840152600060a084015260c0830152828801015201611420565b6040519061147c82610d35565b8160405190600080549260019184831c90838616958615611655575b602096878410811461164157838552849291889082156116245750506001146115c7575b6114c892500382610d86565b825260ff815416151583830152604051926000916002549081811c9181811680156115bd575b84841081146115a957838852879594939291811561158a5750600114611525575b50505060409291611521910384610d86565b0152565b909493925060026000527f405787fa12a823e0f2b7631cc41b3ba8828b3321ca811111fa75cd3aa3bb5ace946000915b81831061157257509394509192509082010181611521604061150f565b86548884018501529586019587945091830191611555565b60ff1916848701525050151560051b830101905081611521604061150f565b634e487b7160e01b86526022600452602486fd5b92607f16926114ee565b50506000805281857f290decd9548b62a8d60345a988386fc84ba6bc95484008f6362f93160ef3e563856000915b85831061160b5750506114c893508201016114bc565b80919294505483858801015201910186908585936115f5565b60ff1916848201526114c894151560051b84010191506114bc9050565b634e487b7160e01b83526022600452602483fd5b91607f169161149856fea2646970667358221220cfd6f803b656a42968fc5176156b7f9844f411c03eb00580cb6a50d03e8c287864736f6c63430008130033",
  "linkReferences": {},
  "deployedLinkReferences": {}
}