{
  "_format": "hh-sol-artifact-1",
  "contractName": "MecenateFeed",
  "sourceName": "contracts/features/MecenateFeed.sol",
  "abi": [
    {
      "inputs": [
        {
          "internalType": "bytes32",
          "name": "_owner",
          "type": "bytes32"
        },
        {
          "internalType": "address",
          "name": "_usersModuleContract",
          "type": "address"
        },
        {
          "internalType": "address",
          "name": "_verifierContract",
          "type": "address"
        },
        {
          "internalType": "address",
          "name": "_factoryContract",
          "type": "address"
        },
        {
          "internalType": "string",
          "name": "_version",
          "type": "string"
        }
      ],
      "stateMutability": "nonpayable",
      "type": "constructor"
    },
    {
      "anonymous": false,
      "inputs": [
        {
          "components": [
            {
              "components": [
                {
                  "internalType": "bytes32",
                  "name": "vaultId",
                  "type": "bytes32"
                }
              ],
              "internalType": "struct Structures.User",
              "name": "creator",
              "type": "tuple"
            },
            {
              "components": [
                {
                  "components": [
                    {
                      "internalType": "enum Structures.PostStatus",
                      "name": "status",
                      "type": "uint8"
                    },
                    {
                      "internalType": "enum Structures.PostType",
                      "name": "postType",
                      "type": "uint8"
                    },
                    {
                      "internalType": "uint256",
                      "name": "creationTimeStamp",
                      "type": "uint256"
                    },
                    {
                      "internalType": "uint256",
                      "name": "endTimeStamp",
                      "type": "uint256"
                    },
                    {
                      "internalType": "uint256",
                      "name": "duration",
                      "type": "uint256"
                    },
                    {
                      "internalType": "enum Structures.Tokens",
                      "name": "tokenId",
                      "type": "uint8"
                    }
                  ],
                  "internalType": "struct Structures.PostSettings",
                  "name": "settings",
                  "type": "tuple"
                },
                {
                  "components": [
                    {
                      "internalType": "uint256",
                      "name": "stake",
                      "type": "uint256"
                    },
                    {
                      "internalType": "uint256",
                      "name": "payment",
                      "type": "uint256"
                    },
                    {
                      "internalType": "uint256",
                      "name": "punishment",
                      "type": "uint256"
                    },
                    {
                      "internalType": "uint256",
                      "name": "penalty",
                      "type": "uint256"
                    }
                  ],
                  "internalType": "struct Structures.PostEscrow",
                  "name": "escrow",
                  "type": "tuple"
                },
                {
                  "components": [
                    {
                      "internalType": "bytes",
                      "name": "encryptedData",
                      "type": "bytes"
                    },
                    {
                      "internalType": "bytes",
                      "name": "encryptedKey",
                      "type": "bytes"
                    },
                    {
                      "internalType": "bytes",
                      "name": "decryptedData",
                      "type": "bytes"
                    }
                  ],
                  "internalType": "struct Structures.PostEncryptedData",
                  "name": "data",
                  "type": "tuple"
                }
              ],
              "internalType": "struct Structures.PostData",
              "name": "postdata",
              "type": "tuple"
            }
          ],
          "indexed": false,
          "internalType": "struct Structures.Post",
          "name": "post",
          "type": "tuple"
        }
      ],
      "name": "Accepted",
      "type": "event"
    },
    {
      "anonymous": false,
      "inputs": [
        {
          "components": [
            {
              "components": [
                {
                  "internalType": "bytes32",
                  "name": "vaultId",
                  "type": "bytes32"
                }
              ],
              "internalType": "struct Structures.User",
              "name": "creator",
              "type": "tuple"
            },
            {
              "components": [
                {
                  "components": [
                    {
                      "internalType": "enum Structures.PostStatus",
                      "name": "status",
                      "type": "uint8"
                    },
                    {
                      "internalType": "enum Structures.PostType",
                      "name": "postType",
                      "type": "uint8"
                    },
                    {
                      "internalType": "uint256",
                      "name": "creationTimeStamp",
                      "type": "uint256"
                    },
                    {
                      "internalType": "uint256",
                      "name": "endTimeStamp",
                      "type": "uint256"
                    },
                    {
                      "internalType": "uint256",
                      "name": "duration",
                      "type": "uint256"
                    },
                    {
                      "internalType": "enum Structures.Tokens",
                      "name": "tokenId",
                      "type": "uint8"
                    }
                  ],
                  "internalType": "struct Structures.PostSettings",
                  "name": "settings",
                  "type": "tuple"
                },
                {
                  "components": [
                    {
                      "internalType": "uint256",
                      "name": "stake",
                      "type": "uint256"
                    },
                    {
                      "internalType": "uint256",
                      "name": "payment",
                      "type": "uint256"
                    },
                    {
                      "internalType": "uint256",
                      "name": "punishment",
                      "type": "uint256"
                    },
                    {
                      "internalType": "uint256",
                      "name": "penalty",
                      "type": "uint256"
                    }
                  ],
                  "internalType": "struct Structures.PostEscrow",
                  "name": "escrow",
                  "type": "tuple"
                },
                {
                  "components": [
                    {
                      "internalType": "bytes",
                      "name": "encryptedData",
                      "type": "bytes"
                    },
                    {
                      "internalType": "bytes",
                      "name": "encryptedKey",
                      "type": "bytes"
                    },
                    {
                      "internalType": "bytes",
                      "name": "decryptedData",
                      "type": "bytes"
                    }
                  ],
                  "internalType": "struct Structures.PostEncryptedData",
                  "name": "data",
                  "type": "tuple"
                }
              ],
              "internalType": "struct Structures.PostData",
              "name": "postdata",
              "type": "tuple"
            }
          ],
          "indexed": false,
          "internalType": "struct Structures.Post",
          "name": "post",
          "type": "tuple"
        }
      ],
      "name": "Created",
      "type": "event"
    },
    {
      "anonymous": false,
      "inputs": [
        {
          "indexed": false,
          "internalType": "enum Structures.Tokens",
          "name": "tokenID",
          "type": "uint8"
        },
        {
          "indexed": false,
          "internalType": "bytes32",
          "name": "user",
          "type": "bytes32"
        },
        {
          "indexed": false,
          "internalType": "uint256",
          "name": "amount",
          "type": "uint256"
        },
        {
          "indexed": false,
          "internalType": "uint256",
          "name": "newDeposit",
          "type": "uint256"
        }
      ],
      "name": "DepositDecreased",
      "type": "event"
    },
    {
      "anonymous": false,
      "inputs": [
        {
          "indexed": false,
          "internalType": "enum Structures.Tokens",
          "name": "tokenID",
          "type": "uint8"
        },
        {
          "indexed": false,
          "internalType": "bytes32",
          "name": "user",
          "type": "bytes32"
        },
        {
          "indexed": false,
          "internalType": "uint256",
          "name": "amount",
          "type": "uint256"
        },
        {
          "indexed": false,
          "internalType": "uint256",
          "name": "newDeposit",
          "type": "uint256"
        }
      ],
      "name": "DepositIncreased",
      "type": "event"
    },
    {
      "anonymous": false,
      "inputs": [
        {
          "components": [
            {
              "components": [
                {
                  "internalType": "bytes32",
                  "name": "vaultId",
                  "type": "bytes32"
                }
              ],
              "internalType": "struct Structures.User",
              "name": "creator",
              "type": "tuple"
            },
            {
              "components": [
                {
                  "components": [
                    {
                      "internalType": "enum Structures.PostStatus",
                      "name": "status",
                      "type": "uint8"
                    },
                    {
                      "internalType": "enum Structures.PostType",
                      "name": "postType",
                      "type": "uint8"
                    },
                    {
                      "internalType": "uint256",
                      "name": "creationTimeStamp",
                      "type": "uint256"
                    },
                    {
                      "internalType": "uint256",
                      "name": "endTimeStamp",
                      "type": "uint256"
                    },
                    {
                      "internalType": "uint256",
                      "name": "duration",
                      "type": "uint256"
                    },
                    {
                      "internalType": "enum Structures.Tokens",
                      "name": "tokenId",
                      "type": "uint8"
                    }
                  ],
                  "internalType": "struct Structures.PostSettings",
                  "name": "settings",
                  "type": "tuple"
                },
                {
                  "components": [
                    {
                      "internalType": "uint256",
                      "name": "stake",
                      "type": "uint256"
                    },
                    {
                      "internalType": "uint256",
                      "name": "payment",
                      "type": "uint256"
                    },
                    {
                      "internalType": "uint256",
                      "name": "punishment",
                      "type": "uint256"
                    },
                    {
                      "internalType": "uint256",
                      "name": "penalty",
                      "type": "uint256"
                    }
                  ],
                  "internalType": "struct Structures.PostEscrow",
                  "name": "escrow",
                  "type": "tuple"
                },
                {
                  "components": [
                    {
                      "internalType": "bytes",
                      "name": "encryptedData",
                      "type": "bytes"
                    },
                    {
                      "internalType": "bytes",
                      "name": "encryptedKey",
                      "type": "bytes"
                    },
                    {
                      "internalType": "bytes",
                      "name": "decryptedData",
                      "type": "bytes"
                    }
                  ],
                  "internalType": "struct Structures.PostEncryptedData",
                  "name": "data",
                  "type": "tuple"
                }
              ],
              "internalType": "struct Structures.PostData",
              "name": "postdata",
              "type": "tuple"
            }
          ],
          "indexed": false,
          "internalType": "struct Structures.Post",
          "name": "post",
          "type": "tuple"
        }
      ],
      "name": "Finalized",
      "type": "event"
    },
    {
      "anonymous": false,
      "inputs": [
        {
          "components": [
            {
              "components": [
                {
                  "internalType": "bytes32",
                  "name": "vaultId",
                  "type": "bytes32"
                }
              ],
              "internalType": "struct Structures.User",
              "name": "creator",
              "type": "tuple"
            },
            {
              "components": [
                {
                  "components": [
                    {
                      "internalType": "enum Structures.PostStatus",
                      "name": "status",
                      "type": "uint8"
                    },
                    {
                      "internalType": "enum Structures.PostType",
                      "name": "postType",
                      "type": "uint8"
                    },
                    {
                      "internalType": "uint256",
                      "name": "creationTimeStamp",
                      "type": "uint256"
                    },
                    {
                      "internalType": "uint256",
                      "name": "endTimeStamp",
                      "type": "uint256"
                    },
                    {
                      "internalType": "uint256",
                      "name": "duration",
                      "type": "uint256"
                    },
                    {
                      "internalType": "enum Structures.Tokens",
                      "name": "tokenId",
                      "type": "uint8"
                    }
                  ],
                  "internalType": "struct Structures.PostSettings",
                  "name": "settings",
                  "type": "tuple"
                },
                {
                  "components": [
                    {
                      "internalType": "uint256",
                      "name": "stake",
                      "type": "uint256"
                    },
                    {
                      "internalType": "uint256",
                      "name": "payment",
                      "type": "uint256"
                    },
                    {
                      "internalType": "uint256",
                      "name": "punishment",
                      "type": "uint256"
                    },
                    {
                      "internalType": "uint256",
                      "name": "penalty",
                      "type": "uint256"
                    }
                  ],
                  "internalType": "struct Structures.PostEscrow",
                  "name": "escrow",
                  "type": "tuple"
                },
                {
                  "components": [
                    {
                      "internalType": "bytes",
                      "name": "encryptedData",
                      "type": "bytes"
                    },
                    {
                      "internalType": "bytes",
                      "name": "encryptedKey",
                      "type": "bytes"
                    },
                    {
                      "internalType": "bytes",
                      "name": "decryptedData",
                      "type": "bytes"
                    }
                  ],
                  "internalType": "struct Structures.PostEncryptedData",
                  "name": "data",
                  "type": "tuple"
                }
              ],
              "internalType": "struct Structures.PostData",
              "name": "postdata",
              "type": "tuple"
            }
          ],
          "indexed": false,
          "internalType": "struct Structures.Post",
          "name": "post",
          "type": "tuple"
        }
      ],
      "name": "Invalid",
      "type": "event"
    },
    {
      "anonymous": false,
      "inputs": [
        {
          "components": [
            {
              "components": [
                {
                  "internalType": "bytes32",
                  "name": "vaultId",
                  "type": "bytes32"
                }
              ],
              "internalType": "struct Structures.User",
              "name": "creator",
              "type": "tuple"
            },
            {
              "components": [
                {
                  "components": [
                    {
                      "internalType": "enum Structures.PostStatus",
                      "name": "status",
                      "type": "uint8"
                    },
                    {
                      "internalType": "enum Structures.PostType",
                      "name": "postType",
                      "type": "uint8"
                    },
                    {
                      "internalType": "uint256",
                      "name": "creationTimeStamp",
                      "type": "uint256"
                    },
                    {
                      "internalType": "uint256",
                      "name": "endTimeStamp",
                      "type": "uint256"
                    },
                    {
                      "internalType": "uint256",
                      "name": "duration",
                      "type": "uint256"
                    },
                    {
                      "internalType": "enum Structures.Tokens",
                      "name": "tokenId",
                      "type": "uint8"
                    }
                  ],
                  "internalType": "struct Structures.PostSettings",
                  "name": "settings",
                  "type": "tuple"
                },
                {
                  "components": [
                    {
                      "internalType": "uint256",
                      "name": "stake",
                      "type": "uint256"
                    },
                    {
                      "internalType": "uint256",
                      "name": "payment",
                      "type": "uint256"
                    },
                    {
                      "internalType": "uint256",
                      "name": "punishment",
                      "type": "uint256"
                    },
                    {
                      "internalType": "uint256",
                      "name": "penalty",
                      "type": "uint256"
                    }
                  ],
                  "internalType": "struct Structures.PostEscrow",
                  "name": "escrow",
                  "type": "tuple"
                },
                {
                  "components": [
                    {
                      "internalType": "bytes",
                      "name": "encryptedData",
                      "type": "bytes"
                    },
                    {
                      "internalType": "bytes",
                      "name": "encryptedKey",
                      "type": "bytes"
                    },
                    {
                      "internalType": "bytes",
                      "name": "decryptedData",
                      "type": "bytes"
                    }
                  ],
                  "internalType": "struct Structures.PostEncryptedData",
                  "name": "data",
                  "type": "tuple"
                }
              ],
              "internalType": "struct Structures.PostData",
              "name": "postdata",
              "type": "tuple"
            }
          ],
          "indexed": false,
          "internalType": "struct Structures.Post",
          "name": "post",
          "type": "tuple"
        }
      ],
      "name": "MadePublic",
      "type": "event"
    },
    {
      "anonymous": false,
      "inputs": [
        {
          "components": [
            {
              "components": [
                {
                  "internalType": "bytes32",
                  "name": "vaultId",
                  "type": "bytes32"
                }
              ],
              "internalType": "struct Structures.User",
              "name": "creator",
              "type": "tuple"
            },
            {
              "components": [
                {
                  "components": [
                    {
                      "internalType": "enum Structures.PostStatus",
                      "name": "status",
                      "type": "uint8"
                    },
                    {
                      "internalType": "enum Structures.PostType",
                      "name": "postType",
                      "type": "uint8"
                    },
                    {
                      "internalType": "uint256",
                      "name": "creationTimeStamp",
                      "type": "uint256"
                    },
                    {
                      "internalType": "uint256",
                      "name": "endTimeStamp",
                      "type": "uint256"
                    },
                    {
                      "internalType": "uint256",
                      "name": "duration",
                      "type": "uint256"
                    },
                    {
                      "internalType": "enum Structures.Tokens",
                      "name": "tokenId",
                      "type": "uint8"
                    }
                  ],
                  "internalType": "struct Structures.PostSettings",
                  "name": "settings",
                  "type": "tuple"
                },
                {
                  "components": [
                    {
                      "internalType": "uint256",
                      "name": "stake",
                      "type": "uint256"
                    },
                    {
                      "internalType": "uint256",
                      "name": "payment",
                      "type": "uint256"
                    },
                    {
                      "internalType": "uint256",
                      "name": "punishment",
                      "type": "uint256"
                    },
                    {
                      "internalType": "uint256",
                      "name": "penalty",
                      "type": "uint256"
                    }
                  ],
                  "internalType": "struct Structures.PostEscrow",
                  "name": "escrow",
                  "type": "tuple"
                },
                {
                  "components": [
                    {
                      "internalType": "bytes",
                      "name": "encryptedData",
                      "type": "bytes"
                    },
                    {
                      "internalType": "bytes",
                      "name": "encryptedKey",
                      "type": "bytes"
                    },
                    {
                      "internalType": "bytes",
                      "name": "decryptedData",
                      "type": "bytes"
                    }
                  ],
                  "internalType": "struct Structures.PostEncryptedData",
                  "name": "data",
                  "type": "tuple"
                }
              ],
              "internalType": "struct Structures.PostData",
              "name": "postdata",
              "type": "tuple"
            }
          ],
          "indexed": false,
          "internalType": "struct Structures.Post",
          "name": "post",
          "type": "tuple"
        }
      ],
      "name": "Renounced",
      "type": "event"
    },
    {
      "anonymous": false,
      "inputs": [
        {
          "indexed": false,
          "internalType": "bytes32",
          "name": "staker",
          "type": "bytes32"
        },
        {
          "indexed": false,
          "internalType": "uint256",
          "name": "amount",
          "type": "uint256"
        },
        {
          "indexed": false,
          "internalType": "enum Structures.Tokens",
          "name": "tokenId",
          "type": "uint8"
        }
      ],
      "name": "StakeAdded",
      "type": "event"
    },
    {
      "anonymous": false,
      "inputs": [
        {
          "indexed": false,
          "internalType": "bytes32",
          "name": "staker",
          "type": "bytes32"
        },
        {
          "indexed": false,
          "internalType": "uint256",
          "name": "amount",
          "type": "uint256"
        }
      ],
      "name": "StakeBurned",
      "type": "event"
    },
    {
      "anonymous": false,
      "inputs": [
        {
          "indexed": false,
          "internalType": "bytes32",
          "name": "staker",
          "type": "bytes32"
        },
        {
          "indexed": false,
          "internalType": "uint256",
          "name": "amount",
          "type": "uint256"
        },
        {
          "indexed": false,
          "internalType": "enum Structures.Tokens",
          "name": "tokenId",
          "type": "uint8"
        }
      ],
      "name": "StakeTaken",
      "type": "event"
    },
    {
      "anonymous": false,
      "inputs": [
        {
          "components": [
            {
              "components": [
                {
                  "internalType": "bytes32",
                  "name": "vaultId",
                  "type": "bytes32"
                }
              ],
              "internalType": "struct Structures.User",
              "name": "creator",
              "type": "tuple"
            },
            {
              "components": [
                {
                  "components": [
                    {
                      "internalType": "enum Structures.PostStatus",
                      "name": "status",
                      "type": "uint8"
                    },
                    {
                      "internalType": "enum Structures.PostType",
                      "name": "postType",
                      "type": "uint8"
                    },
                    {
                      "internalType": "uint256",
                      "name": "creationTimeStamp",
                      "type": "uint256"
                    },
                    {
                      "internalType": "uint256",
                      "name": "endTimeStamp",
                      "type": "uint256"
                    },
                    {
                      "internalType": "uint256",
                      "name": "duration",
                      "type": "uint256"
                    },
                    {
                      "internalType": "enum Structures.Tokens",
                      "name": "tokenId",
                      "type": "uint8"
                    }
                  ],
                  "internalType": "struct Structures.PostSettings",
                  "name": "settings",
                  "type": "tuple"
                },
                {
                  "components": [
                    {
                      "internalType": "uint256",
                      "name": "stake",
                      "type": "uint256"
                    },
                    {
                      "internalType": "uint256",
                      "name": "payment",
                      "type": "uint256"
                    },
                    {
                      "internalType": "uint256",
                      "name": "punishment",
                      "type": "uint256"
                    },
                    {
                      "internalType": "uint256",
                      "name": "penalty",
                      "type": "uint256"
                    }
                  ],
                  "internalType": "struct Structures.PostEscrow",
                  "name": "escrow",
                  "type": "tuple"
                },
                {
                  "components": [
                    {
                      "internalType": "bytes",
                      "name": "encryptedData",
                      "type": "bytes"
                    },
                    {
                      "internalType": "bytes",
                      "name": "encryptedKey",
                      "type": "bytes"
                    },
                    {
                      "internalType": "bytes",
                      "name": "decryptedData",
                      "type": "bytes"
                    }
                  ],
                  "internalType": "struct Structures.PostEncryptedData",
                  "name": "data",
                  "type": "tuple"
                }
              ],
              "internalType": "struct Structures.PostData",
              "name": "postdata",
              "type": "tuple"
            }
          ],
          "indexed": false,
          "internalType": "struct Structures.Post",
          "name": "post",
          "type": "tuple"
        }
      ],
      "name": "Valid",
      "type": "event"
    },
    {
      "inputs": [
        {
          "internalType": "bytes",
          "name": "sismoConnectResponse",
          "type": "bytes"
        },
        {
          "internalType": "address",
          "name": "_to",
          "type": "address"
        },
        {
          "internalType": "address",
          "name": "_from",
          "type": "address"
        },
        {
          "internalType": "enum Structures.Tokens",
          "name": "tokenId",
          "type": "uint8"
        },
        {
          "internalType": "uint256",
          "name": "_paymentAmount",
          "type": "uint256"
        }
      ],
      "name": "acceptPost",
      "outputs": [],
      "stateMutability": "payable",
      "type": "function"
    },
    {
      "inputs": [
        {
          "internalType": "enum Structures.Tokens",
          "name": "tokenId",
          "type": "uint8"
        },
        {
          "internalType": "uint256",
          "name": "amountToAdd",
          "type": "uint256"
        },
        {
          "internalType": "bytes32",
          "name": "encryptedVaultId",
          "type": "bytes32"
        }
      ],
      "name": "addStake",
      "outputs": [
        {
          "internalType": "uint256",
          "name": "",
          "type": "uint256"
        }
      ],
      "stateMutability": "payable",
      "type": "function"
    },
    {
      "inputs": [
        {
          "internalType": "bytes",
          "name": "encryptedHash",
          "type": "bytes"
        },
        {
          "internalType": "enum Structures.PostType",
          "name": "postType",
          "type": "uint8"
        },
        {
          "internalType": "enum Structures.PostDuration",
          "name": "postDuration",
          "type": "uint8"
        },
        {
          "internalType": "uint256",
          "name": "payment",
          "type": "uint256"
        },
        {
          "internalType": "uint256",
          "name": "stakeAmount",
          "type": "uint256"
        },
        {
          "internalType": "enum Structures.Tokens",
          "name": "tokenId",
          "type": "uint8"
        },
        {
          "internalType": "bytes",
          "name": "sismoConnectResponse",
          "type": "bytes"
        },
        {
          "internalType": "address",
          "name": "_to",
          "type": "address"
        },
        {
          "internalType": "address",
          "name": "_from",
          "type": "address"
        }
      ],
      "name": "createPost",
      "outputs": [
        {
          "components": [
            {
              "components": [
                {
                  "internalType": "bytes32",
                  "name": "vaultId",
                  "type": "bytes32"
                }
              ],
              "internalType": "struct Structures.User",
              "name": "creator",
              "type": "tuple"
            },
            {
              "components": [
                {
                  "components": [
                    {
                      "internalType": "enum Structures.PostStatus",
                      "name": "status",
                      "type": "uint8"
                    },
                    {
                      "internalType": "enum Structures.PostType",
                      "name": "postType",
                      "type": "uint8"
                    },
                    {
                      "internalType": "uint256",
                      "name": "creationTimeStamp",
                      "type": "uint256"
                    },
                    {
                      "internalType": "uint256",
                      "name": "endTimeStamp",
                      "type": "uint256"
                    },
                    {
                      "internalType": "uint256",
                      "name": "duration",
                      "type": "uint256"
                    },
                    {
                      "internalType": "enum Structures.Tokens",
                      "name": "tokenId",
                      "type": "uint8"
                    }
                  ],
                  "internalType": "struct Structures.PostSettings",
                  "name": "settings",
                  "type": "tuple"
                },
                {
                  "components": [
                    {
                      "internalType": "uint256",
                      "name": "stake",
                      "type": "uint256"
                    },
                    {
                      "internalType": "uint256",
                      "name": "payment",
                      "type": "uint256"
                    },
                    {
                      "internalType": "uint256",
                      "name": "punishment",
                      "type": "uint256"
                    },
                    {
                      "internalType": "uint256",
                      "name": "penalty",
                      "type": "uint256"
                    }
                  ],
                  "internalType": "struct Structures.PostEscrow",
                  "name": "escrow",
                  "type": "tuple"
                },
                {
                  "components": [
                    {
                      "internalType": "bytes",
                      "name": "encryptedData",
                      "type": "bytes"
                    },
                    {
                      "internalType": "bytes",
                      "name": "encryptedKey",
                      "type": "bytes"
                    },
                    {
                      "internalType": "bytes",
                      "name": "decryptedData",
                      "type": "bytes"
                    }
                  ],
                  "internalType": "struct Structures.PostEncryptedData",
                  "name": "data",
                  "type": "tuple"
                }
              ],
              "internalType": "struct Structures.PostData",
              "name": "postdata",
              "type": "tuple"
            }
          ],
          "internalType": "struct Structures.Post",
          "name": "",
          "type": "tuple"
        }
      ],
      "stateMutability": "payable",
      "type": "function"
    },
    {
      "inputs": [
        {
          "internalType": "bytes",
          "name": "sismoConnectResponse",
          "type": "bytes"
        },
        {
          "internalType": "address",
          "name": "_to",
          "type": "address"
        },
        {
          "internalType": "address",
          "name": "_from",
          "type": "address"
        },
        {
          "internalType": "bool",
          "name": "valid",
          "type": "bool"
        },
        {
          "internalType": "uint256",
          "name": "punishment",
          "type": "uint256"
        }
      ],
      "name": "finalizePost",
      "outputs": [],
      "stateMutability": "nonpayable",
      "type": "function"
    },
    {
      "inputs": [],
      "name": "getBuyerStake",
      "outputs": [
        {
          "internalType": "uint256",
          "name": "amount",
          "type": "uint256"
        }
      ],
      "stateMutability": "view",
      "type": "function"
    },
    {
      "inputs": [
        {
          "internalType": "bytes",
          "name": "sismoConnectResponse",
          "type": "bytes"
        },
        {
          "internalType": "address",
          "name": "_to",
          "type": "address"
        },
        {
          "internalType": "address",
          "name": "_from",
          "type": "address"
        }
      ],
      "name": "getHashedVaultId",
      "outputs": [
        {
          "internalType": "bytes32",
          "name": "",
          "type": "bytes32"
        }
      ],
      "stateMutability": "nonpayable",
      "type": "function"
    },
    {
      "inputs": [
        {
          "internalType": "bytes",
          "name": "sismoConnectResponse",
          "type": "bytes"
        },
        {
          "internalType": "address",
          "name": "_to",
          "type": "address"
        },
        {
          "internalType": "address",
          "name": "_from",
          "type": "address"
        }
      ],
      "name": "getMessage",
      "outputs": [
        {
          "internalType": "bytes",
          "name": "",
          "type": "bytes"
        }
      ],
      "stateMutability": "nonpayable",
      "type": "function"
    },
    {
      "inputs": [],
      "name": "getPaymentRequested",
      "outputs": [
        {
          "internalType": "uint256",
          "name": "",
          "type": "uint256"
        }
      ],
      "stateMutability": "view",
      "type": "function"
    },
    {
      "inputs": [],
      "name": "getSellerStake",
      "outputs": [
        {
          "internalType": "uint256",
          "name": "amount",
          "type": "uint256"
        }
      ],
      "stateMutability": "view",
      "type": "function"
    },
    {
      "inputs": [
        {
          "internalType": "enum Structures.Tokens",
          "name": "tokenId",
          "type": "uint8"
        },
        {
          "internalType": "bytes32",
          "name": "staker",
          "type": "bytes32"
        }
      ],
      "name": "getStake",
      "outputs": [
        {
          "internalType": "uint256",
          "name": "amount",
          "type": "uint256"
        }
      ],
      "stateMutability": "view",
      "type": "function"
    },
    {
      "inputs": [],
      "name": "getStakeRequested",
      "outputs": [
        {
          "internalType": "uint256",
          "name": "",
          "type": "uint256"
        }
      ],
      "stateMutability": "view",
      "type": "function"
    },
    {
      "inputs": [],
      "name": "getStatus",
      "outputs": [
        {
          "internalType": "enum Structures.PostStatus",
          "name": "",
          "type": "uint8"
        }
      ],
      "stateMutability": "view",
      "type": "function"
    },
    {
      "inputs": [
        {
          "internalType": "bytes32",
          "name": "encryptedVaultId",
          "type": "bytes32"
        }
      ],
      "name": "getTelegramIds",
      "outputs": [
        {
          "internalType": "uint256",
          "name": "",
          "type": "uint256"
        },
        {
          "internalType": "uint256",
          "name": "",
          "type": "uint256"
        }
      ],
      "stateMutability": "view",
      "type": "function"
    },
    {
      "inputs": [],
      "name": "getTokenId",
      "outputs": [
        {
          "internalType": "enum Structures.Tokens",
          "name": "",
          "type": "uint8"
        }
      ],
      "stateMutability": "view",
      "type": "function"
    },
    {
      "inputs": [],
      "name": "getTokenIdAddress",
      "outputs": [
        {
          "internalType": "address",
          "name": "",
          "type": "address"
        }
      ],
      "stateMutability": "view",
      "type": "function"
    },
    {
      "inputs": [],
      "name": "getTotalStaked",
      "outputs": [
        {
          "internalType": "uint256",
          "name": "",
          "type": "uint256"
        }
      ],
      "stateMutability": "view",
      "type": "function"
    },
    {
      "inputs": [
        {
          "internalType": "bytes32",
          "name": "encryptedVaultId",
          "type": "bytes32"
        }
      ],
      "name": "getVaultIdSecret",
      "outputs": [
        {
          "internalType": "bytes",
          "name": "",
          "type": "bytes"
        }
      ],
      "stateMutability": "view",
      "type": "function"
    },
    {
      "inputs": [],
      "name": "owner",
      "outputs": [
        {
          "internalType": "bytes32",
          "name": "",
          "type": "bytes32"
        }
      ],
      "stateMutability": "view",
      "type": "function"
    },
    {
      "inputs": [],
      "name": "post",
      "outputs": [
        {
          "components": [
            {
              "internalType": "bytes32",
              "name": "vaultId",
              "type": "bytes32"
            }
          ],
          "internalType": "struct Structures.User",
          "name": "creator",
          "type": "tuple"
        },
        {
          "components": [
            {
              "components": [
                {
                  "internalType": "enum Structures.PostStatus",
                  "name": "status",
                  "type": "uint8"
                },
                {
                  "internalType": "enum Structures.PostType",
                  "name": "postType",
                  "type": "uint8"
                },
                {
                  "internalType": "uint256",
                  "name": "creationTimeStamp",
                  "type": "uint256"
                },
                {
                  "internalType": "uint256",
                  "name": "endTimeStamp",
                  "type": "uint256"
                },
                {
                  "internalType": "uint256",
                  "name": "duration",
                  "type": "uint256"
                },
                {
                  "internalType": "enum Structures.Tokens",
                  "name": "tokenId",
                  "type": "uint8"
                }
              ],
              "internalType": "struct Structures.PostSettings",
              "name": "settings",
              "type": "tuple"
            },
            {
              "components": [
                {
                  "internalType": "uint256",
                  "name": "stake",
                  "type": "uint256"
                },
                {
                  "internalType": "uint256",
                  "name": "payment",
                  "type": "uint256"
                },
                {
                  "internalType": "uint256",
                  "name": "punishment",
                  "type": "uint256"
                },
                {
                  "internalType": "uint256",
                  "name": "penalty",
                  "type": "uint256"
                }
              ],
              "internalType": "struct Structures.PostEscrow",
              "name": "escrow",
              "type": "tuple"
            },
            {
              "components": [
                {
                  "internalType": "bytes",
                  "name": "encryptedData",
                  "type": "bytes"
                },
                {
                  "internalType": "bytes",
                  "name": "encryptedKey",
                  "type": "bytes"
                },
                {
                  "internalType": "bytes",
                  "name": "decryptedData",
                  "type": "bytes"
                }
              ],
              "internalType": "struct Structures.PostEncryptedData",
              "name": "data",
              "type": "tuple"
            }
          ],
          "internalType": "struct Structures.PostData",
          "name": "postdata",
          "type": "tuple"
        }
      ],
      "stateMutability": "view",
      "type": "function"
    },
    {
      "inputs": [],
      "name": "postCount",
      "outputs": [
        {
          "internalType": "uint256",
          "name": "",
          "type": "uint256"
        }
      ],
      "stateMutability": "view",
      "type": "function"
    },
    {
      "inputs": [
        {
          "internalType": "bytes",
          "name": "sismoConnectResponse",
          "type": "bytes"
        },
        {
          "internalType": "address",
          "name": "_to",
          "type": "address"
        },
        {
          "internalType": "address",
          "name": "_from",
          "type": "address"
        }
      ],
      "name": "renouncePost",
      "outputs": [],
      "stateMutability": "nonpayable",
      "type": "function"
    },
    {
      "inputs": [
        {
          "internalType": "bytes",
          "name": "decryptedData",
          "type": "bytes"
        },
        {
          "internalType": "bytes",
          "name": "sismoConnectResponse",
          "type": "bytes"
        },
        {
          "internalType": "address",
          "name": "_to",
          "type": "address"
        },
        {
          "internalType": "address",
          "name": "_from",
          "type": "address"
        }
      ],
      "name": "revealData",
      "outputs": [
        {
          "internalType": "bytes",
          "name": "",
          "type": "bytes"
        }
      ],
      "stateMutability": "nonpayable",
      "type": "function"
    },
    {
      "inputs": [
        {
          "internalType": "bytes",
          "name": "encryptedKey",
          "type": "bytes"
        },
        {
          "internalType": "bytes",
          "name": "sismoConnectResponse",
          "type": "bytes"
        },
        {
          "internalType": "address",
          "name": "_to",
          "type": "address"
        },
        {
          "internalType": "address",
          "name": "_from",
          "type": "address"
        }
      ],
      "name": "submitHash",
      "outputs": [],
      "stateMutability": "nonpayable",
      "type": "function"
    },
    {
      "inputs": [
        {
          "internalType": "enum Structures.Tokens",
          "name": "tokenId",
          "type": "uint8"
        },
        {
          "internalType": "bytes",
          "name": "sismoConnectResponse",
          "type": "bytes"
        },
        {
          "internalType": "address",
          "name": "_to",
          "type": "address"
        },
        {
          "internalType": "address",
          "name": "_from",
          "type": "address"
        }
      ],
      "name": "takeFullStake",
      "outputs": [
        {
          "internalType": "uint256",
          "name": "",
          "type": "uint256"
        }
      ],
      "stateMutability": "nonpayable",
      "type": "function"
    },
    {
      "inputs": [
        {
          "internalType": "enum Structures.Tokens",
          "name": "tokenId",
          "type": "uint8"
        },
        {
          "internalType": "uint256",
          "name": "amountToTake",
          "type": "uint256"
        },
        {
          "internalType": "bytes",
          "name": "sismoConnectResponse",
          "type": "bytes"
        },
        {
          "internalType": "address",
          "name": "_to",
          "type": "address"
        },
        {
          "internalType": "address",
          "name": "_from",
          "type": "address"
        }
      ],
      "name": "takeStake",
      "outputs": [
        {
          "internalType": "uint256",
          "name": "",
          "type": "uint256"
        }
      ],
      "stateMutability": "nonpayable",
      "type": "function"
    },
    {
      "inputs": [],
      "name": "version",
      "outputs": [
        {
          "internalType": "string",
          "name": "",
          "type": "string"
        }
      ],
      "stateMutability": "view",
      "type": "function"
    },
    {
      "inputs": [
        {
          "internalType": "bytes",
          "name": "encodeMessage",
          "type": "bytes"
        },
        {
          "internalType": "bytes32",
          "name": "encryptedVaultId",
          "type": "bytes32"
        }
      ],
      "name": "write",
      "outputs": [],
      "stateMutability": "nonpayable",
      "type": "function"
    },
    {
      "stateMutability": "payable",
      "type": "receive"
    }
  ],
  "bytecode": "0x6080604090808252346200065d5762005888803803809162000022828562000678565b8339810160a0828203126200065d578151916020620000438183016200069c565b620000508684016200069c565b906200005f606085016200069c565b60808501516001600160401b03959194918682116200065d570191601f938785850112156200065d57835187811162000662578a5194601f1999620000ab868c8a860116018862000678565b8287528583830101116200065d57849060005b838110620006485750506000918601015267016345785d8a0000601455600060155560018060a01b03958680928160018060a01b031995168560165416176016551683601854161760185533836017541617601755838b5180926303e21fa960e61b82528160049a8b92165afa9081156200063d57600091620005fd575b501690601a541617601a5562000151620006b1565b805190868211620004945781906200016b601b54620006e2565b868111620005ca575b5083908683116001146200055f5760009262000553575b50508160011b916000199060031b1c191617601b555b620001ab620006b1565b80519086821162000494578190620001c5601c54620006e2565b86811162000520575b508390868311600114620004b557600092620004a9575b50508160011b916000199060031b1c191617601c555b62000205620006b1565b805190868211620004945781906200021f601d54620006e2565b86811162000461575b508390868311600114620003f657600092620003ea575b50508160011b916000199060031b1c191617601d555b60ff1993846002541660025560008052838252620151808960002055600194856000526203f4808a60002055600260005262093a808a600020556003600052621275008a600020558160005262278d008a6000205560008052828052858a600020918254161790558251958611620003d55750620002d5601e54620006e2565b83811162000397575b50809285116001146200032c57508394509083929160009462000320575b50501b916000199060031b1c191617601e555b6000555161514f9081620007398239f35b015192503880620002fc565b929484908116601e60005284600020946000905b888383106200037c575050501062000362575b505050811b01601e556200030f565b015160001960f88460031b161c1916905538808062000353565b85870151885590960195948501948793509081019062000340565b620003c490601e600052826000208580890160051c820192858a10620003cb575b0160051c01906200071f565b38620002de565b92508192620003b8565b604190634e487b7160e01b6000525260246000fd5b0151905038806200023f565b91891691601d600052846000209260005b868282106200044a57505090846001959493921062000430575b505050811b01601d5562000255565b015160001960f88460031b161c1916905538808062000421565b600185968293968601518155019501930162000407565b6200048d90601d600052856000208880860160051c820192888710620003cb570160051c01906200071f565b3862000228565b604186634e487b7160e01b6000525260246000fd5b015190503880620001e5565b91891691601c600052846000209260005b8682821062000509575050908460019594939210620004ef575b505050811b01601c55620001fb565b015160001960f88460031b161c19169055388080620004e0565b6001859682939686015181550195019301620004c6565b6200054c90601c600052856000208880860160051c820192888710620003cb570160051c01906200071f565b38620001ce565b0151905038806200018b565b91891691601b600052846000209260005b86828210620005b357505090846001959493921062000599575b505050811b01601b55620001a1565b015160001960f88460031b161c191690553880806200058a565b600185968293968601518155019501930162000570565b620005f690601b600052856000208880860160051c820192888710620003cb570160051c01906200071f565b3862000174565b908482813d831162000635575b62000616818362000678565b810103126200063257506200062b906200069c565b386200013c565b80fd5b503d6200060a565b8b513d6000823e3d90fd5b818101830151888201840152869201620000be565b600080fd5b634e487b7160e01b600052604160045260246000fd5b601f909101601f19168101906001600160401b038211908210176200066257604052565b51906001600160a01b03821682036200065d57565b60408051919082016001600160401b03811183821017620006625760405260048252630307830360e41b6020830152565b90600182811c9216801562000714575b6020831014620006fe57565b634e487b7160e01b600052602260045260246000fd5b91607f1691620006f2565b8181106200072b575050565b600081556001016200071f56fe608080604052600436101561001d575b50361561001b57600080fd5b005b60003560e01c908163010a38f514612cbe5750806305c1f502146129e25780630917e7761461298157806317906c2e146129635780631b9f0a431461293757806322fcddda146128b15780632cb6be3d146122765780633258d15c1461216457806348e17f0e14611f515780634c38d87714611f255780634e69d56014611efd57806354fd4d5014611e2f5780635ad4e17014611e025780635c63ed6914611dca5780635ca3c37b14611ce35780637f8ca18f1461146a57806383dd17431461118a5780638b6a075d146111715780638da5cb5b146111535780639d8cc89a14611121578063b52d2ce414611002578063bd25f05114610fae578063ca234e1514610be8578063d24e0c8714610bca578063e6ba6a13146105a5578063e8726f4b146101765763faeb5e1714610153573861000f565b34610171576000366003190112610171576020600754604051908152f35b600080fd5b3461017157610184366130cd565b929060029360ff85541691600883101561058f578260005260209485805260ff604060002054168061057c575b1561054857906101c192916136fb565b50508381519101209060248460018060a01b036016541660405192838092630e2ab4cb60e21b82528760048301525afa90811561053c5760009161050f575b50156104d457610214600192835414613d50565b60005282805260406000209160ff1992838154169055600393846000526040600020838582541617905584848754161786558151916001600160401b03928381116104465780600c926102708261026b8654612dbb565b613315565b8490601f83116001146104675760009261045c575b505060001982891b1c191690851b1781555b6102a18154612dbb565b928311610446576102b3601b54612dbb565b601f81116103df575b50600091601f841160011461033f5750928293918392600094610334575b50501b9160001990851b1c191617601b555b8254161790556102fe600554426139b8565b6004557f130bb2fe638478ab244a90fc4550e3d9f3401c2bd639012d7cb8d0cbe95266ef6040518061032f81613432565b0390a1005b0154925087806102da565b91905082601f198116601b6000527f3ad8aa4f87544323a9d1e5dd902f40c356527a7955687113db5f9a85ad579dc1936000905b878383106103b75750505010610391575b5050811b01601b556102ec565b60008051602061507a833981519152015460001983871b60f8161c191690558580610384565b60008051602061507a8339815191528601548755958601959094019386935090810190610373565b601b6000527f3ad8aa4f87544323a9d1e5dd902f40c356527a7955687113db5f9a85ad579dc1601f850160051c81019184861061043c575b601f0160051c019085905b8281106104305750506102bc565b60008155018590610422565b9091508190610417565b634e487b7160e01b600052604160045260246000fd5b015190508980610285565b90879350601f198316918560005260008051602061507a8339815191529260005b888282106104be57505084116104a6575b505050811b018155610297565b0151600019838b1b60f8161c19169055898080610499565b8385015186558b97909501949384019301610488565b60405162461bcd60e51b8152600481018590526013602482015272155cd95c88191bd95cc81b9bdd08195e1a5cdd606a1b6044820152606490fd5b61052f9150853d8711610535575b6105278183612d84565b8101906131e5565b86610200565b503d61051d565b6040513d6000823e3d90fd5b60405162461bcd60e51b815260048101879052600c60248201526b57524f4e475f53544154555360a01b6044820152606490fd5b50868414806101b15750600384146101b1565b634e487b7160e01b600052602160045260246000fd5b34610171576105b336613158565b60ff6002541690600882101561058f57610615926105ea926000526020948580526105e560ff604060002054166131a8565b6136fb565b50508281519101206040516106098161060281612df5565b0382612d84565b83815191012014613d50565b6040519061062282612cea565b600082526040519161063383612d20565b60078352600082840152600060408401526000606084015260006080840152600060a08401526040519061066682612d3b565b6000825260008383015260006040830152600060608301526040519061068b82612d05565b60405161069781612cea565b6000815282526040516106a981612cea565b60008152848301526040516106bd81612cea565b600081526040830152604051946106d386612d05565b85528385019283526040850191825284846040516106f081612d56565b83815201525193600194855551918251600881101561058f576107129061323e565b8383015161071f81612da5565b61072881612da5565b61ff006002549160081b169061ff0019161760025560a06040840151936003948555606081015160045560808101516005550151908382101561058f5760609160ff8019600654169116176006555180516007558481015160085560408101516009550151600a55519182519283516001600160401b03948582116104465781906107bd826107b8600b54612dbb565b6132b6565b8490601f8311600114610b5b57600092610b50575b505060001982861b1c191690861b17600b555b81810151805190858211610446576108028261026b600c54612dbb565b8390601f8311600114610add57604093929160009183610ad2575b505060001982871b1c191690871b17600c555b01518051908482116104465781906108528261084d600d54612dbb565b613257565b8390601f8311600114610a6357600092610a58575b505060001982851b1c191690851b17600d555b6108826136db565b8051908482116104465781906108a28261089d601154612dbb565b6133d3565b8390601f83116001146109e9576000926109de575b505060001982851b1c191690851b176011555b600060125560006013556108dc6136db565b8051938411610446576108f9846108f4600e54612dbb565b613374565b81601f8511600114610968575093839491849260009561095d575b50501b92600019911b1c191617600e555b6000600f5560006010557f496685ed89450883d7ff0e8e3b71eb9dca092e7b9742b53ed4611b7522443e5e6040518061032f81613432565b015193508580610914565b92919084601f198116600e60005260008051602061509a833981519152956000905b898383106109c457505050106109aa575b50505050811b01600e55610925565b01519060f884600019921b161c191690558280808061099b565b85870151895590970196948501948893509081019061098a565b0151905086806108b7565b90879350601f1983169160116000526000805160206150ba8339815191529260005b87828210610a425750508411610a2a575b505050811b016011556108ca565b015160001983871b60f8161c19169055868080610a1c565b8385015186558b97909501949384019301610a0b565b015190508680610867565b90879350601f19831691600d6000526000805160206150da8339815191529260005b87828210610abc5750508411610aa4575b505050811b01600d5561087a565b015160001983871b60f8161c19169055868080610a96565b8385015186558b97909501949384019301610a85565b01519050888061081d565b92918791601f19821690600c60005260008051602061507a8339815191529160005b88828210610b3a575050958360409710610b22575b505050811b01600c55610830565b015160001983891b60f8161c19169055888080610b14565b8389015185558c96909401939283019201610aff565b0151905087806107d2565b90889350601f19831691600b6000526000805160206150fa8339815191529260005b88828210610bb45750508411610b9c575b505050811b01600b556107e5565b015160001983881b60f8161c19169055878080610b8e565b8385015186558c97909501949384019301610b7d565b34610171576000366003190112610171576020600854604051908152f35b60a0366003190112610171576001600160401b0360043581811161017157610c14903690600401613044565b90610c1d6130b7565b610c2561308b565b9160649283359460038610156101715760019384600052602092838052610c5360ff604060002054166131a8565b60ff6006541690600382101561058f57610c71610c95928a146136a1565b88610fa55734925b604051610c898161060281612df5565b868151910120946136fb565b9891939097845186860120918360005260218752604060002081600052875260406000205460075411610f7057601654604051630e2ab4cb60e21b815260048101859052602496959493929189908290899082906001600160a01b03165afa90811561053c57600091610f53575b5015610f1f57610d15908314156131fd565b6008548015610ea35760843510610e6d575090610d3592915b3391613da9565b60085560028060ff19818181541617825581600052858052604060002088828254161790558154161790558151938411610e595750610d798361089d601154612dbb565b81601f8411600114610de65750928293918392600094610ddb575b50501b916000199060031b1c1916176011555b6012556013557ff13f251f5172305eb93606c0071b9c48215d3ec6a6698a7fa987c18725488e7f6040518061032f81613432565b015192508680610d94565b919083601f19811660116000526000805160206150ba833981519152946000905b88838310610e3f5750505010610e26575b505050811b01601155610da7565b015160001960f88460031b161c19169055848080610e18565b858701518855909601959485019487935090810190610e07565b634e487b7160e01b60009081526041600452fd5b60405162461bcd60e51b815260048101889052601281870152711393d517d15393d551d217d410565351539560721b6044820152fd5b503415610eee5760843515610ebe575090610d359291610d2e565b60405162461bcd60e51b815260048101889052600c818701526b16915493d7d410565351539560a21b6044820152fd5b60405162461bcd60e51b815260048101889052600d818701526c5a45524f5f4d534756414c554560981b6044820152fd5b5060405162461bcd60e51b815260048101889052600f818701526e1554d1549517d393d517d1561254d5608a1b6044820152fd5b610f6a9150893d8b11610535576105278183612d84565b8d610d03565b5060405162461bcd60e51b815260048101879052600f60248201526e14d51052d157d25390d3d4949150d5608a1b6044820152fd5b60843592610c79565b3461017157610ffe610fea610fcb610fc536613158565b916136fb565b505060208151910120610fe5610fe082613aca565b613a7e565b613bdf565b604051918291602083526020830190612f2c565b0390f35b60603660031901126101715760043560038110156101715760443560ff60065416600381101561058f576110379083146136a1565b6040519161104f8361104881612e87565b0384612d84565b825160208094012082148015611103575b156110cb57611090906040516110798161060281612df5565b80519085012083036110c25734905b833391613da9565b906040516110a18161060281612e87565b805190840120036110b957806008555b604051908152f35b806007556110b1565b60243590611088565b60405162461bcd60e51b815260048101849052601060248201526f0ac82aa98a89288be9a92a69a82a886960831b6044820152606490fd5b506040516111148161060281612df5565b8381519101208214611060565b3461017157602036600319011261017157611140610fe0600435613aca565b610ffe604051610fea8161060281612df5565b34610171576000366003190112610171576020600054604051908152f35b346101715760206110b161118436613158565b91613b0d565b34610171576040366003190112610171576001600160401b03600435818111610171576111bb903690600401613044565b906024356111cb610fe082613aca565b604051906111e3826111dc81612df5565b0383612d84565b81516020928301200361132c57825191821161044657611204601c54612dbb565b601f81116112c8575b5080601f83116001146112475750819260009261123c575b50508160011b916000199060031b1c191617601c55005b015190508280611225565b90601f19831693601c6000527f0e4562a10381dec21b205ed72637e6b1b523bdd0e4d4d50af5cd23dd4500a211926000905b8682106112b05750508360019510611297575b505050811b01601c55005b015160001960f88460031b161c1916905582808061128c565b80600185968294968601518155019501930190611279565b601c6000527f0e4562a10381dec21b205ed72637e6b1b523bdd0e4d4d50af5cd23dd4500a211601f840160051c810191838510611322575b601f0160051c01905b818110611316575061120d565b60008155600101611309565b9091508190611300565b825191821161044657611340601d54612dbb565b601f8111611406575b5080601f83116001146113855750819260009261137a575b5050600019600383901b1c191660019190911b17601d55005b015190508280611361565b90601f19831693601d6000527f6d4407e7be21f808e6509aa9fa9143369579dd7d760fe20a2c09680fc146134f926000905b8682106113ee57505083600195106113d5575b505050811b01601d55005b015160001960f88460031b161c191690558280806113ca565b806001859682949686015181550195019301906113b7565b601d6000527f6d4407e7be21f808e6509aa9fa9143369579dd7d760fe20a2c09680fc146134f601f840160051c810191838510611460575b601f0160051c01905b8181106114545750611349565b60008155600101611447565b909150819061143e565b610120366003190112610171576004356001600160401b03811161017157611496903690600401613044565b60056024351015610171576005604435101561017157600360a43510156101715760c4356001600160401b038111610171576114d6903690600401613044565b60e4356001600160a01b038116900361017157610104356001600160a01b03811690036101715760405161150981612d56565b60405161151581612cea565b60008152815260206040519161152a83612d05565b60405161153681612d20565b60008152600083820152600060408201526000606082015260006080820152600060a0820152835260405161156a81612d3b565b6000815260008382015260006040820152600060608201528284015260405161159281612d05565b6060815260608382015260606040820152604084015201526000600160a43514908115611cd4575b8115611cc2575b50906115cf6115dd926136a1565b610104359060e435906136fb565b90829392516020850120926000548403611c9157601654604051630e2ab4cb60e21b81526004810186905290602090829060249082906001600160a01b03165afa90811561053c57600091611c72575b5015611c3c5760ff60025416600881101561058f576000526020805261165a60ff604060002054166131a8565b60843515611c035761166d604435612da5565b60ff60443516600052601f60205260406000205490611692608435338760a435613da9565b60ff60025416600881101561058f5760005260208052604060002060ff19815416905560016000526040600020600160ff19825416179055600160ff196002541617600255604051956116e487612cea565b8652604051926116f384612d20565b60018452611702602435612da5565b602435602085015242604085015260006060850152608084015261172b60a43560a08501612daf565b6040519061173882612d3b565b8152606435602082015260006040820152600060608201526117586136db565b6117606136db565b906040519361176e85612d05565b8452602084015260408301526040519261178784612d05565b835260208301526040820152604051936117a085612d56565b808552816020860152516001558051805190600882101561058f576117c660a09261323e565b60208101516117d481612da5565b6117dd81612da5565b61ff006002549160081b169061ff00191617600255604081015160035560608101516004556080810151600555015190600382101561058f5760409160ff8019600654169116176006556060602082015180516007556020810151600855838101516009550151600a55015180518051906001600160401b03821161044657819061186d826107b8600b54612dbb565b602090601f8311600114611b8f57600092611b84575b50508160011b916000199060031b1c191617600b555b60208101518051906001600160401b038211610446576118be8261026b600c54612dbb565b602090601f8311600114611b0b57604093929160009183611b00575b50508160011b916000199060031b1c191617600c555b01518051906001600160401b0382116104465781906119148261084d600d54612dbb565b602090601f8311600114611a8c57600092611a81575b50508160011b916000199060031b1c191617600d555b6015546000199490858114611a6b576001016015558051906001600160401b03821161044657611975826108f4600e54612dbb565b602090601f83116001146119f357958291610ffe976000936119e8575b50508260011b9260031b1c191617600e555b600f556010557f5c0140b1f9412009d09b44a8920b411de7a75ebe8c087005130524935e0e457f604051806119d98482613136565b0390a160405191829182613136565b015191508780611992565b90601f19831691600e60005260008051602061509a8339815191529260005b818110611a53575091610ffe989185600196959410611a3b575b50505050811b01600e556119a4565b01519060f88460031b161c1916905586808080611a2c565b92936020600181928786015181550195019301611a12565b634e487b7160e01b600052601160045260246000fd5b01519050868061192a565b600d60009081526000805160206150da8339815191529350601f198516905b818110611ae85750908460019594939210611acf575b505050811b01600d55611940565b015160001960f88460031b161c19169055868080611ac1565b92936020600181928786015181550195019301611aab565b0151905088806118da565b90600c60005260008051602061507a8339815191529160005b601f1985168110611b6c575091839160019360409695601f19811610611b53575b505050811b01600c556118f0565b015160001960f88460031b161c19169055888080611b45565b91926020600181928685015181550194019201611b24565b015190508780611883565b600b60009081526000805160206150fa8339815191529350601f198516905b818110611beb5750908460019594939210611bd2575b505050811b01600b55611899565b015160001960f88460031b161c19169055878080611bc4565b92936020600181928786015181550195019301611bae565b60405162461bcd60e51b81526020600482015260116024820152705354414b455f414d4f554e545f5a45524f60781b6044820152606490fd5b60405162461bcd60e51b815260206004820152600e60248201526d1554d15497d393d517d1561254d560921b6044820152606490fd5b611c8b915060203d602011610535576105278183612d84565b8661162d565b60405162461bcd60e51b81526020600482015260096024820152682727aa2fa7aba722a960b91b6044820152606490fd5b905061058f5760a435156115cf6115c1565b505060a43560021460006115ba565b346101715760a0366003190112610171576004356003811015610171576024356044356001600160401b03811161017157611d22903690600401613044565b91611d2b6130a1565b926084356001600160a01b03811681036101715760ff60065416600381101561058f57611d6392611d5e879286146136a1565b614df1565b918160005260216020526040600020836000526020528060406000205410611d92576020938361109093614c81565b60405162461bcd60e51b815260206004820152601060248201526f4e4f545f454e4f5547485f5354414b4560801b6044820152606490fd5b346101715760003660031901126101715760206110b160ff60065416604051611df68161060281612df5565b838151910120906138d2565b34610171576000366003190112610171576020611e1d613826565b6040516001600160a01b039091168152f35b34610171576000366003190112610171576040516000601e54611e5181612dbb565b80845290600190818116908115611ed65750600114611e7b575b610ffe84610fea81860382612d84565b601e600090815292507f50bb669a95c7b50b7e8a6f09454034b2b14cf2b85c730dca9a539ca82cb6e3505b828410611ebe575050508101602001610fea82611e6b565b80546020858701810191909152909301928101611ea6565b60ff191660208087019190915292151560051b85019092019250610fea9150839050611e6b565b3461017157600036600319011261017157602060ff60025416611f236040518092612efc565bf35b346101715760003660031901126101715760206110b160ff60065416604051611df68161060281612e87565b3461017157611f5f366130cd565b9060ff60029493945416916008831015918261058f578360005260209586805260ff604060002054168061211f575b91611fc593916105e5611fa0946131a8565b5050858151910120604051611fb88161060281612df5565b86815191012014156131fd565b61058f576004036120ea578051916001600160401b03831161044657611ff08361084d600d54612dbb565b8092601f811160011461207b5780919293600091612070575b508160011b916000199060031b1c191617600d555b600660ff1960025416176002557f53d57d9d48dda1c6e6d0fc0b92d00b750b752f21cc973929ce8b4b60b374505e6040518061205981613432565b0390a1610ffe604051928284938452830190612f2c565b905083015184612009565b601f19811693600d6000526000805160206150da8339815191529060005b8681106120d35750826001949596106120ba575b5050811b01600d5561201e565b85015160001960f88460031b161c1916905584806120ad565b909184600181928589015181550193019101612099565b60405162461bcd60e51b815260048101839052600d60248201526c1393d517d19253905312569151609a1b6044820152606490fd5b50925090600092600385148015612156575b848115612142575b50919291611f8e565b905091909161058f57906004851484612139565b506000935060068514612131565b346101715760208060031936011261017157601354600435918115612232576010549182156121ed576121b860409485516121a28161060281612df5565b84815191012081149081156121cf575b50613a7e565b83516001600160a01b039182168152921690820152f35b905085516121e08161060281612e87565b84815191012014866121b2565b60405162461bcd60e51b815260048101839052601960248201527f4e4f5f54454c454752414d5f49445f464f525f53454c4c4552000000000000006044820152606490fd5b6064906040519062461bcd60e51b82526004820152601860248201527f4e4f5f54454c454752414d5f49445f464f525f425559455200000000000000006044820152fd5b346101715760a0366003190112610171576004356001600160401b038111610171576122a6903690600401613044565b6122ae6130b7565b906122b761308b565b916064351592831560643503610171576122d491608435936136fb565b50506020815191012060ff60025416600881101561058f5760030361287c576040516123038161060281612e87565b6020815191012003612843576017546040516318da001160e01b815290602090829060049082906001600160a01b03165afa90811561053c57600091612814575b50600854604051634047e10360e11b81529092906020816004816001600160a01b0387165afa90811561053c576000916127e0575b5061271061238a61239292866138f8565b04809461390b565b93600454421180156127d7575b156126825750506123f66123d260ff600654166040516123c28161060281612e87565b60208151910120600854916139c5565b9360ff600654166040516123e98161060281612df5565b602081519101209061393b565b9160ff6006541660038110158061058f57600182148015918183612674575b81908015612667575b61242891506136a1565b601754604051632ee4b68b60e11b815290602090829060049082906001600160a01b03165afa90811561053c57600091612648575b506125fb5761058f578261252b57506124949360009384935083925082916001600160a01b03165af161248e614004565b50614034565b600755600855606435156125245760045b60ff60025416600881101561058f576000526020805260406000209060ff1991828154169055600881101561058f576124f69160ff821660005260208052600160406000209182541617905561323e565b7f130bb2fe638478ab244a90fc4550e3d9f3401c2bd639012d7cb8d0cbe95266ef6040518061032f81613432565b60056124a5565b600090916125ee575b81156125db575b50926020929161254d61259b956136a1565b6001600160a01b039061255f90614feb565b60405163a9059cbb60e01b81526001600160a01b0390931660048401526024830193909352909384929190911690829060009082906044820190565b03925af1801561053c576125b7916000916125bc575b50614fad565b612494565b6125d5915060203d602011610535576105278183612d84565b846125b1565b905091909161058f57906000602061253b565b5050600281146000612534565b91509192935061058f576002820361261e57505061261890614320565b50612494565b1561262d575061261890614be4565b156126385750612494565b612641906146c9565b5082612618565b612661915060203d602011610535576105278183612d84565b8961245d565b5061058f5780841561241e565b506000905060028414612415565b925092505061268d57005b600754811161279c5760145490670de0b6b3a76400008083101561275f576126b7600593836138f8565b046126df8160ff600654166040516126d28161060281612e87565b602081519101209061406e565b6008556126fc8260ff600654166040516126d28161060281612df5565b60075560ff199183836002541617600255600955600a558160005260208052604060002060018282541617905560025416176002557f1c9ee42116032ebac99a31ae475140077588d76949471dfb40a21a14ad523b2d6040518061032f81613432565b60405162461bcd60e51b81526020600482015260156024820152740a0aa9c92a6909a8a9ca8bea482a8929ebe90928e9605b1b6044820152606490fd5b60405162461bcd60e51b81526020600482015260136024820152720a0aa9c92a6909a8a9ca8bea89e9ebe90928e9606b1b6044820152606490fd5b5060643561239f565b90506020813d60201161280c575b816127fb60209383612d84565b810103126101715751612710612379565b3d91506127ee565b612836915060203d60201161283c575b61282e8183612d84565b810190613807565b83612344565b503d612824565b60405162461bcd60e51b81526020600482015260116024820152700ac82aa98a89288be9c9ea8be9a82a8869607b1b6044820152606490fd5b60405162461bcd60e51b815260206004820152600d60248201526c1393d517d4d550935255151151609a1b6044820152606490fd5b34610171576080366003190112610171576004356003811015610171576024356001600160401b038111610171576128ed903690600401613044565b6128f561308b565b906128fe6130a1565b9260ff6006541691600383101561058f576020948461292592611d5e6110909686146136a1565b928361293181846138d2565b92614c81565b34610171576040366003190112610171576004356003811015610171576110b1602091602435906138d2565b34610171576000366003190112610171576020601554604051908152f35b346101715760003660031901126101715760206110b160ff600654166129dc6129bf6040516129b38161060281612df5565b858151910120836138d2565b916040516129d08161060281612e87565b858151910120906138d2565b906139b8565b34610171576000366003190112610171576040516129ff81612cea565b60018054825260405191612a1283612d05565b60405192612a1f84612d20565b60025460ff811690600882101561058f5760ff91865260081c1693612a4385612da5565b60209485820152600354604082015260045460608201526005546080820152612a7460ff6006541660a08301612daf565b8152604051612a8281612d3b565b6007548152600854858201526009546040820152600a54606082015284820152604051612aae81612d05565b60405185816000600b54612ac181612dbb565b80845290898116908115612ca05750600114612c56575b50612ae592500382612d84565b815260405185816000600c54612afa81612dbb565b80845290898116908115612c385750600114612bee575b50612b1e92500382612d84565b8582015260405160009486600d5491612b3683612dbb565b80855292818116908115612bcd5750600114612b81575b505050612b6081610ffe95960382612d84565b60408201526040820152604080519485945185528401526040830190612f51565b91909650600d6000526000805160206150da833981519152916000925b828410612bba57505050810190940193612b6086610ffe612b4d565b80548585018a0152928801928101612b9e565b60ff191683860152505090151560051b8201019450612b6086610ffe612b4d565b600c600090815291508860008051602061507a8339815191525b828410612c215750505091612b1e928201018892612b11565b8054878501870152869450928501928a9101612c08565b60ff19168486015250899390151560051b8301019050612b1e612b11565b600b60009081529150886000805160206150fa8339815191525b828410612c895750505091612ae5928201018892612ad8565b8054878501870152869450928501928a9101612c70565b60ff19168486015250899390151560051b8301019050612ae5612ad8565b346101715760003660031901126101715780611f2360209260ff600654165b90600382101561058f5752565b602081019081106001600160401b0382111761044657604052565b606081019081106001600160401b0382111761044657604052565b60c081019081106001600160401b0382111761044657604052565b608081019081106001600160401b0382111761044657604052565b604081019081106001600160401b0382111761044657604052565b6001600160401b03811161044657604052565b90601f801991011681019081106001600160401b0382111761044657604052565b6005111561058f57565b600382101561058f5752565b90600182811c92168015612deb575b6020831014612dd557565b634e487b7160e01b600052602260045260246000fd5b91607f1691612dca565b600e5460009291612e0582612dbb565b80825291600190818116908115612e6a5750600114612e2357505050565b91929350600e60005260008051602061509a833981519152916000925b848410612e5257505060209250010190565b80546020858501810191909152909301928101612e40565b915050602093945060ff929192191683830152151560051b010190565b60115460009291612e9782612dbb565b80825291600190818116908115612e6a5750600114612eb557505050565b9192935060116000526000805160206150ba833981519152916000925b848410612ee457505060209250010190565b80546020858501810191909152909301928101612ed2565b90600882101561058f5752565b60005b838110612f1c5750506000910152565b8181015183820152602001612f0c565b90602091612f4581518092818552858086019101612f09565b601f01601f1916010190565b90604061302692612fa560a08251612f6a868251612efc565b6020810151612f7881612da5565b602087015284810151858701526060810151606087015260808101516080870152015160a0850190612cdd565b60606020820151805160c0860152602081015160e0860152838101516101008601520151610120840152015190612ff26101608061014084015260608451918401526101c0830190612f2c565b906101a0604061301660208601519461015f19958686830301610180870152612f2c565b9401519282850301910152612f2c565b90565b6001600160401b03811161044657601f01601f191660200190565b81601f820112156101715780359061305b82613029565b926130696040519485612d84565b8284526020838301011161017157816000926020809301838601378301015290565b604435906001600160a01b038216820361017157565b606435906001600160a01b038216820361017157565b602435906001600160a01b038216820361017157565b906080600319830112610171576001600160401b0360043581811161017157836130f991600401613044565b926024359182116101715761311091600401613044565b906001600160a01b03906044358281168103610171579160643590811681036101715790565b6060602061302693818452805151828501520151916040808201520190612f51565b606060031982011261017157600435906001600160401b0382116101715761318291600401613044565b906001600160a01b03906024358281168103610171579160443590811681036101715790565b156131af57565b60405162461bcd60e51b815260206004820152600e60248201526d494e56414c49445f53544154555360901b6044820152606490fd5b90816020910312610171575180151581036101715790565b1561320457565b60405162461bcd60e51b81526020600482015260126024820152712ca7aaafa0a922afaa2422afa9a2a62622a960711b6044820152606490fd5b600881101561058f5760ff801960025416911617600255565b601f8111613263575050565b600090600d82526000805160206150da833981519152906020601f850160051c830194106132ac575b601f0160051c01915b8281106132a157505050565b818155600101613295565b909250829061328c565b601f81116132c2575050565b600090600b82526000805160206150fa833981519152906020601f850160051c8301941061330b575b601f0160051c01915b82811061330057505050565b8181556001016132f4565b90925082906132eb565b601f8111613321575050565b600090600c825260008051602061507a833981519152906020601f850160051c8301941061336a575b601f0160051c01915b82811061335f57505050565b818155600101613353565b909250829061334a565b601f8111613380575050565b600090600e825260008051602061509a833981519152906020601f850160051c830194106133c9575b601f0160051c01915b8281106133be57505050565b8181556001016133b2565b90925082906133a9565b601f81116133df575050565b600090601182526000805160206150ba833981519152906020601f850160051c83019410613428575b601f0160051c01915b82811061341d57505050565b818155600101613411565b9092508290613408565b6020808252600180548284015260408084015260ff60025461345960608601838316612efc565b60081c1661346681612da5565b608084015260035460a084015260045460c084015260055460e084015261349760ff60065416610100850190612cdd565b6007546101208401526008546101408401526009546101609081850152600a546101808501526101a084015260606101c0840152600092600b546134da81612dbb565b908161022084015283811690816000146136825750600114613636575b506101bf1981850381016101e0830152600c5460009561351682612dbb565b8082529185811690811561361957506001146135cd575b50506102009082860301910152600092600d549161354a83612dbb565b808352928181169081156135b05750600114613568575b5050505090565b92935090600d6000526000805160206150da83398151915292846000945b83861061359c5750505050010138808080613561565b805485870183015294019385908201613586565b60ff191685840152505090151560051b0101905038808080613561565b8591929650600c60005260008051602061507a83398151915290856000925b85841061360357505001019490506102003861352d565b80548385018601528894909301928791016135ec565b60ff1916828801525090151560051b01840194506102003861352d565b909350600b6000526000805160206150fa83398151915283836000925b84841061366c57505050610240915084010192386134f7565b8054610240858a01015201910190838591613653565b929550506102409160ff191682860152151560051b84010192386134f7565b156136a857565b60405162461bcd60e51b815260206004820152600b60248201526a2ba927a723afaa27a5a2a760a91b6044820152606490fd5b604051906136e882612d56565b60048252630307830360e41b6020830152565b6018546040516307c93c8f60e01b81526060600482015294859490939285926001600160a01b039081169290918290613738906064870190612f2c565b9516602485015216604483015281600095869403915afa9182156137fb578080948194613767575b5050929190565b93509350503d8084843e61377b8184612d84565b8201926060838503126137f45782516001600160401b0381116137f757830184601f820112156137f7578051916137b183613029565b956137bf6040519788612d84565b838752602084840101116137f45750906137df9160208087019101612f09565b60406020830151920151929192913880613760565b80fd5b5080fd5b604051903d90823e3d90fd5b9081602091031261017157516001600160a01b03811681036101715790565b60ff60065416600381101561058f576001810361388e575060175460405163f77800e560e01b815290602090829060049082906001600160a01b03165afa90811561053c57600091613876575090565b613026915060203d811161283c5761282e8183612d84565b6002036138cd57601754604051635f117aa360e11b815290602090829060049082906001600160a01b03165afa90811561053c57600091613876575090565b600090565b600381101561058f57600052602160205260406000209060005260205260406000205490565b81810292918115918404141715611a6b57565b91908203918211611a6b57565b9094939260609261392d836080810198612cdd565b602083015260408201520152565b9190600383101561058f576040926139b27ffc75911105c5435503d8ce6e41bf92051ed6da32a2077c1a8f73e1d251f64cde93600090838252602160205286822085835260205261398f81888420546139b8565b809783868395526021602052818120888252602052205560405194859485613918565b0390a190565b91908201809211611a6b57565b600381101561058f576000818152602160205260409384822084835260205284822054818110613a4357918186613a226139b2947f77008762ca31a384e88f2217752cdef978440c9ad826b7b891c59a8e61281a3198979661390b565b80988487839652602160205281812089825260205220555194859485613918565b855162461bcd60e51b8152602060048201526014602482015273125394d551919250d251539517d1115413d4d25560621b6044820152606490fd5b15613a8557565b60405162461bcd60e51b815260206004820152601760248201527f4e4f545f5448455f53454c4c45525f4f525f42555945520000000000000000006044820152606490fd5b604051613ada8161060281612df5565b60208151910120604051613af18161060281612e87565b60208151910120908214918215613b0757505090565b14919050565b90613b1892916136fb565b505080516020809201206040908151613b348161060281612df5565b83815191012081148015613bc2575b15613b88578151613b578161060281612df5565b80519084012003613b79575190613b71826111dc81612df5565b815191012090565b5190613b71826111dc81612e87565b815162461bcd60e51b81526004810184905260136024820152722727aa2fa9a2a62622a92fa7a92fa12aaca2a960691b6044820152606490fd5b508151613bd28161060281612e87565b8381519101208114613b43565b60405190613bf0826111dc81612df5565b815160209283012003613cb75760405190816000601c54613c1081612dbb565b80845290600190818116908115613c975750600114613c38575b505061302692500382612d84565b90939150601c6000527f0e4562a10381dec21b205ed72637e6b1b523bdd0e4d4d50af5cd23dd4500a211936000915b818310613c7f57505061302693508201013880613c2a565b85548784018501529485019486945091830191613c67565b91505061302694925060ff191682840152151560051b8201013880613c2a565b60405190816000601d54613cca81612dbb565b80845290600190818116908115613c975750600114613cf157505061302692500382612d84565b90939150601d6000527f6d4407e7be21f808e6509aa9fa9143369579dd7d760fe20a2c09680fc146134f936000915b818310613d3857505061302693508201013880613c2a565b85548784018501529485019486945091830191613d20565b15613d5757565b60405162461bcd60e51b815260206004820152600a6024820152692727aa2fa9a2a62622a960b11b6044820152606490fd5b604090613da793959492956060820196825260208201520190612cdd565b565b929060ff60025416600881101561058f57806002613dd09214159081613ff8575b506131a8565b8115613fc257600384101561058f5783158015613e27575b507f7d53254b9393ec490c848e90ed920cf3b18c2151daa4b322875f24dd6301206c92506139b2613e1a83838761393b565b9460405193849384613d89565b6001851460008115613fb7575b8115613fa7575b50613e4691506136a1565b613e4f84614feb565b926001600160a01b0380613e6287614feb565b604051636eb1769f60e11b81526001600160a01b0385166004820152306024820152602094929091859183916044918391165afa801561053c578691600091613f77575b5010613f39579060648392600083604051998a9586946323b872dd60e01b8652166004850152306024850152896044850152165af1801561053c577f7d53254b9393ec490c848e90ed920cf3b18c2151daa4b322875f24dd6301206c94613f1692600092613f1c575b5050614fad565b38613de8565b613f329250803d10610535576105278183612d84565b3880613f0f565b60405162461bcd60e51b8152600481018490526016602482015275494e53554646494349454e545f414c4c4f57414e434560501b6044820152606490fd5b91508482813d8311613fa0575b613f8e8183612d84565b810103126137f4575085905138613ea6565b503d613f84565b905061058f57613e469038613e3b565b600287149150613e34565b60405162461bcd60e51b815260206004820152600e60248201526d14d51052d157d49154555254915160921b6044820152606490fd5b60039150141538613dca565b3d1561402f573d9061401582613029565b916140236040519384612d84565b82523d6000602084013e565b606090565b1561403b57565b60405162461bcd60e51b815260206004820152600b60248201526a10d0531317d1905253115160aa1b6044820152606490fd5b929161407b8183866139c5565b60175460408051632ee4b68b60e11b815260049793959194919391926020926001600160a01b0391821684848c81845afa9384156142db578b9186916000966142e6575b5089516318da001160e01b815292839182905afa9081156142db579083916000916142be575b50169261423e57600381101561421e57806141415750507f44e7d684df94a05f40ae4ea3f03cbd42ce0647bd9d92e4105e296c10088f41aa95969750600080808086614135955af161248e614004565b8351928352820152a190565b6001811460008115614233575b8115614210575b5092600086936141726141a39d9461416d89986136a1565b614feb565b169289519c8d958694859363a9059cbb60e01b8552840160209093929193604081019460018060a01b031681520152565b03925af1968715614205577f44e7d684df94a05f40ae4ea3f03cbd42ce0647bd9d92e4105e296c10088f41aa9596976141e3916000916141e85750614fad565b614135565b6141ff9150833d8511610535576105278183612d84565b386125b1565b84513d6000823e3d90fd5b905061421e57600080614155565b60218a634e487b7160e01b6000525260246000fd5b60028314915061414e565b91505060038110156142a9577f44e7d684df94a05f40ae4ea3f03cbd42ce0647bd9d92e4105e296c10088f41aa959697506002811460001461428a575061428482614320565b50614135565b6001810361429c575061428482614be4565b6141e357614284826146c9565b602188634e487b7160e01b6000525260246000fd5b6142d59150863d881161283c5761282e8183612d84565b386140e5565b88513d6000823e3d90fd5b6142fe919650823d8411610535576105278183612d84565b94386140bf565b90816020910312610171575162ffffff811681036101715790565b60175460408051635f117aa360e11b808252919493926020926004916001600160a01b039190859085908590829086165afa9384156142db576000946146aa575b50601a54885163095ea7b360e01b8082529184166001600160a01b03168582019081526020810189905291959091879183918290600090889083906040010393165af180156145815761468d575b508160175416958851918252858285818a5afa9182156145815760009261466e575b508851906325abd85f60e11b92838352878387818c5afa9283156145e55760009361464f575b508a51928884602481633488e95960e21b9d8e825260008c8301525afa91821561460f5761442d94600093614637575b506149ed565b826017541691895190815286818681865afa9081156145ab5760009161461a575b50895163f77800e560e01b808252989088818881885afa91821561460f5789916000936145f0575b5060248d5180978193825260018b8301525afa9182156145e5576144a1946000936145b657506149ed565b94816017541692885182815286818381885afa9283156145ab57879160009461458c575b50828b518097819382525afa928315614581578795879560009561455d575b508a519081526001600160a01b03909416918401918252602082019590955291938492839160009183906040010393165af180156145525761452e949550614534575b5050614be4565b50600190565b8161454a92903d10610535576105278183612d84565b503880614527565b85513d6000823e3d90fd5b60009291955061457990873d891161283c5761282e8183612d84565b9490916144e4565b89513d6000823e3d90fd5b6145a4919450823d841161283c5761282e8183612d84565b92386144c5565b8a513d6000823e3d90fd5b6145d7919350893d8b116145de575b6145cf8183612d84565b810190614305565b9138614427565b503d6145c5565b8b513d6000823e3d90fd5b614608919350823d841161283c5761282e8183612d84565b9138614476565b8c513d6000823e3d90fd5b6146319150873d891161283c5761282e8183612d84565b3861444e565b6145d79193508a3d8c116145de576145cf8183612d84565b614667919350883d8a1161283c5761282e8183612d84565b91386143f7565b614686919250863d881161283c5761282e8183612d84565b90386143d1565b6146a390863d8811610535576105278183612d84565b50386143af565b6146c2919450853d871161283c5761282e8183612d84565b9238614361565b90601754600092604080516325abd85f60e11b8082526020936004928581858160018060a01b03809b165afa9081156149c6579087918a916149d0575b501688813b156137f457829185875180948193630d0e30db60e41b83525af180156149c6576149b3575b508783918688601754168751968780928882525afa9485156149a957829561498a575b5087601a541694878751809281868d826147908963095ea7b360e01b9e8f84528d840160209093929193604081019460018060a01b031681520152565b0393165af180156148dc5761496d575b50876017541693865190815287818581885afa9081156148dc578391614950575b5086519063f77800e560e01b9586835289838781845afa9283156149275760249392918b918794614931575b508a51633488e95960e21b815260018982015294859182905afa928315614927579061482294939291869361490f57506149ed565b96806017541694865194808652888686818a5afa9586156149055790899185976148e6575b508589518099819382525afa9586156148dc579183918a989795938a9795966148bd575b506148968851998a97889687948552840160209093929193604081019460018060a01b031681520152565b0393165af19081156148b4575061452e949550614534575050614be4565b513d87823e3d90fd5b6148d5919650873d891161283c5761282e8183612d84565b943861486b565b87513d85823e3d90fd5b6148fe919750823d841161283c5761282e8183612d84565b9538614847565b88513d86823e3d90fd5b6145d79193508b3d8d116145de576145cf8183612d84565b89513d87823e3d90fd5b614949919450823d841161283c5761282e8183612d84565b92386147ed565b6149679150883d8a1161283c5761282e8183612d84565b386147c1565b61498390883d8a11610535576105278183612d84565b50386147a0565b6149a2919550873d891161283c5761282e8183612d84565b9338614753565b86513d84823e3d90fd5b976149bf849299612d71565b9790614730565b85513d8b823e3d90fd5b6149e79150873d891161283c5761282e8183612d84565b38614706565b601a54604051636eb1769f60e11b81523060048201526001600160a01b039182166024820181905293959493929091169190602081604481865afa801561053c578591600091614baf575b5010614b5d575b50603c420193844211611a6b57601a546040516101008101916001600160a01b0316906001600160401b038311818410176104465760409283529384526001600160a01b03928316602085810191825262ffffff9687168685019081523060608801908152608088019a8b5260a08801998a52600060c0890181815260e08a01828152975163414bf38960e01b81529951891660048b01529451881660248a01529151909816604488015296518516606487015297516084860152955160a4850152945160c4840152511660e482015292918391610104918391905af190811561053c57600091614b2e575090565b906020823d602011614b55575b81614b4860209383612d84565b810103126137f457505190565b3d9150614b3b565b60405163095ea7b360e01b8152600481019190915260001960248201526020816044816000865af1801561053c5715614a3f57614ba89060203d602011610535576105278183612d84565b5038614a3f565b91506020823d602011614bdc575b81614bca60209383612d84565b810103126137f4575084905138614a38565b3d9150614bbd565b60175460405163f77800e560e01b81526001600160a01b03916020908290600490829086165afa90811561053c57600091614c63575b501690813b1561017157600091602483926040519485938492630852cd8d60e31b845260048401525af1801561053c57614c545750600190565b614c5d90612d71565b3861452e565b614c7b915060203d811161283c5761282e8183612d84565b38614c1a565b92909160ff60025416600881101561058f57806002614ca89214159081613ff857506131a8565b600384101561058f5783614d11576000808084819482908215614d07575b6001600160a01b031690f11561053c577ff710aed018092bd38ab8d98fe9aa682f6b3aa552004e37cb2e0d6e3e669582ee915b6139b2613e1a8383876139c5565b6108fc9150614cc6565b916001841460008115614de6575b8115614dd8575b5082614d7d94614d376020936136a1565b6001600160a01b03614d4888614feb565b1690600060405180988195829463a9059cbb60e01b84526004840160209093929193604081019460018060a01b031681520152565b03925af192831561053c577ff710aed018092bd38ab8d98fe9aa682f6b3aa552004e37cb2e0d6e3e669582ee93614dbb91600091614dc05750614fad565b614cf9565b6141ff915060203d8111610535576105278183612d84565b905061058f57600082614d26565b600286149150614d1f565b90614dfc92916136fb565b5050805160208092012090604051600060115491614e1983612dbb565b8082528185810193600195878782169182600014614f92575050600114614f46575b614e4792500382612d84565b5190208314908115614e91575b5015614e5e575090565b6064906040519062461bcd60e51b82526004820152600c60248201526b15539055551213d49256915160a21b6044820152fd5b604051600e54925090816000614ea685612dbb565b9283835286830195878282169182600014614f28575050600114614edd575b50614ed292500382612d84565b519020821438614e54565b869150600e60005260008051602061509a833981519152906000915b858310614f10575050614ed2935082010138614ec5565b80548388018501528694508893909201918101614ef9565b60ff19168852614ed295151560051b8501019250389150614ec59050565b5050601160005281856000805160206150ba833981519152866000915b858310614f79575050614e479350820101614e3b565b8091929450548385880101520191018690868593614f63565b60ff19168752614e4794151560051b8401019150614e3b9050565b15614fb457565b60405162461bcd60e51b815260206004820152600f60248201526e1514905394d1915497d19052531151608a1b6044820152606490fd5b600381101561058f57600281146150405760011461500857600090565b60175460405163f77800e560e01b815290602090829060049082906001600160a01b03165afa90811561053c57600091613876575090565b50601754604051635f117aa360e11b815290602090829060049082906001600160a01b03165afa90811561053c5760009161387657509056fedf6966c971051c3d54ec59162606531493a51404a002842f56009d7e5cf4a8c7bb7b4a454dc3493923482f07822329ed19e8244eff582cc204f8554c3620c3fd31ecc21a745e3968a04e9570e4425bc18fa8019c68028196b546d1669c200c68d7b6990105719101dabeb77144f2a3385c8033acd3af97e9423a695e81ad1eb50175b7a638427703f0dbe7bb9bbf987a2551717b34e79f33b5b1008d1fa01db9a2646970667358221220b1aed74c1246273d06d2cfa51c8646e418e2a74d4d80f35662adf4cb1d87db4364736f6c63430008130033",
  "linkReferences": {},
  "deployedLinkReferences": {}
}