{
  "_format": "hh-sol-artifact-1",
  "contractName": "MecenateFeed",
  "sourceName": "contracts/features/MecenateFeed.sol",
  "abi": [
    {
      "inputs": [
        {
          "internalType": "bytes32",
          "name": "_owner",
          "type": "bytes32"
        },
        {
          "internalType": "address",
          "name": "_usersModuleContract",
          "type": "address"
        },
        {
          "internalType": "address",
          "name": "_verifierContract",
          "type": "address"
        },
        {
          "internalType": "address",
          "name": "_vaultContract",
          "type": "address"
        },
        {
          "internalType": "address",
          "name": "_factoryContract",
          "type": "address"
        },
        {
          "internalType": "string",
          "name": "_version",
          "type": "string"
        }
      ],
      "stateMutability": "nonpayable",
      "type": "constructor"
    },
    {
      "anonymous": false,
      "inputs": [
        {
          "components": [
            {
              "components": [
                {
                  "internalType": "bytes32",
                  "name": "vaultId",
                  "type": "bytes32"
                }
              ],
              "internalType": "struct Structures.User",
              "name": "creator",
              "type": "tuple"
            },
            {
              "components": [
                {
                  "components": [
                    {
                      "internalType": "enum Structures.PostStatus",
                      "name": "status",
                      "type": "uint8"
                    },
                    {
                      "internalType": "enum Structures.PostType",
                      "name": "postType",
                      "type": "uint8"
                    },
                    {
                      "internalType": "uint256",
                      "name": "creationTimeStamp",
                      "type": "uint256"
                    },
                    {
                      "internalType": "uint256",
                      "name": "endTimeStamp",
                      "type": "uint256"
                    },
                    {
                      "internalType": "uint256",
                      "name": "duration",
                      "type": "uint256"
                    },
                    {
                      "internalType": "enum Structures.Tokens",
                      "name": "tokenId",
                      "type": "uint8"
                    }
                  ],
                  "internalType": "struct Structures.PostSettings",
                  "name": "settings",
                  "type": "tuple"
                },
                {
                  "components": [
                    {
                      "internalType": "uint256",
                      "name": "stake",
                      "type": "uint256"
                    },
                    {
                      "internalType": "uint256",
                      "name": "payment",
                      "type": "uint256"
                    },
                    {
                      "internalType": "uint256",
                      "name": "punishment",
                      "type": "uint256"
                    },
                    {
                      "internalType": "uint256",
                      "name": "penalty",
                      "type": "uint256"
                    }
                  ],
                  "internalType": "struct Structures.PostEscrow",
                  "name": "escrow",
                  "type": "tuple"
                },
                {
                  "components": [
                    {
                      "internalType": "bytes",
                      "name": "encryptedData",
                      "type": "bytes"
                    },
                    {
                      "internalType": "bytes",
                      "name": "encryptedKey",
                      "type": "bytes"
                    },
                    {
                      "internalType": "bytes",
                      "name": "decryptedData",
                      "type": "bytes"
                    }
                  ],
                  "internalType": "struct Structures.PostEncryptedData",
                  "name": "data",
                  "type": "tuple"
                }
              ],
              "internalType": "struct Structures.PostData",
              "name": "postdata",
              "type": "tuple"
            }
          ],
          "indexed": false,
          "internalType": "struct Structures.Post",
          "name": "post",
          "type": "tuple"
        }
      ],
      "name": "Accepted",
      "type": "event"
    },
    {
      "anonymous": false,
      "inputs": [
        {
          "components": [
            {
              "components": [
                {
                  "internalType": "bytes32",
                  "name": "vaultId",
                  "type": "bytes32"
                }
              ],
              "internalType": "struct Structures.User",
              "name": "creator",
              "type": "tuple"
            },
            {
              "components": [
                {
                  "components": [
                    {
                      "internalType": "enum Structures.PostStatus",
                      "name": "status",
                      "type": "uint8"
                    },
                    {
                      "internalType": "enum Structures.PostType",
                      "name": "postType",
                      "type": "uint8"
                    },
                    {
                      "internalType": "uint256",
                      "name": "creationTimeStamp",
                      "type": "uint256"
                    },
                    {
                      "internalType": "uint256",
                      "name": "endTimeStamp",
                      "type": "uint256"
                    },
                    {
                      "internalType": "uint256",
                      "name": "duration",
                      "type": "uint256"
                    },
                    {
                      "internalType": "enum Structures.Tokens",
                      "name": "tokenId",
                      "type": "uint8"
                    }
                  ],
                  "internalType": "struct Structures.PostSettings",
                  "name": "settings",
                  "type": "tuple"
                },
                {
                  "components": [
                    {
                      "internalType": "uint256",
                      "name": "stake",
                      "type": "uint256"
                    },
                    {
                      "internalType": "uint256",
                      "name": "payment",
                      "type": "uint256"
                    },
                    {
                      "internalType": "uint256",
                      "name": "punishment",
                      "type": "uint256"
                    },
                    {
                      "internalType": "uint256",
                      "name": "penalty",
                      "type": "uint256"
                    }
                  ],
                  "internalType": "struct Structures.PostEscrow",
                  "name": "escrow",
                  "type": "tuple"
                },
                {
                  "components": [
                    {
                      "internalType": "bytes",
                      "name": "encryptedData",
                      "type": "bytes"
                    },
                    {
                      "internalType": "bytes",
                      "name": "encryptedKey",
                      "type": "bytes"
                    },
                    {
                      "internalType": "bytes",
                      "name": "decryptedData",
                      "type": "bytes"
                    }
                  ],
                  "internalType": "struct Structures.PostEncryptedData",
                  "name": "data",
                  "type": "tuple"
                }
              ],
              "internalType": "struct Structures.PostData",
              "name": "postdata",
              "type": "tuple"
            }
          ],
          "indexed": false,
          "internalType": "struct Structures.Post",
          "name": "post",
          "type": "tuple"
        }
      ],
      "name": "Created",
      "type": "event"
    },
    {
      "anonymous": false,
      "inputs": [
        {
          "indexed": false,
          "internalType": "enum Structures.Tokens",
          "name": "tokenID",
          "type": "uint8"
        },
        {
          "indexed": false,
          "internalType": "bytes32",
          "name": "user",
          "type": "bytes32"
        },
        {
          "indexed": false,
          "internalType": "uint256",
          "name": "amount",
          "type": "uint256"
        },
        {
          "indexed": false,
          "internalType": "uint256",
          "name": "newDeposit",
          "type": "uint256"
        }
      ],
      "name": "DepositDecreased",
      "type": "event"
    },
    {
      "anonymous": false,
      "inputs": [
        {
          "indexed": false,
          "internalType": "enum Structures.Tokens",
          "name": "tokenID",
          "type": "uint8"
        },
        {
          "indexed": false,
          "internalType": "bytes32",
          "name": "user",
          "type": "bytes32"
        },
        {
          "indexed": false,
          "internalType": "uint256",
          "name": "amount",
          "type": "uint256"
        },
        {
          "indexed": false,
          "internalType": "uint256",
          "name": "newDeposit",
          "type": "uint256"
        }
      ],
      "name": "DepositIncreased",
      "type": "event"
    },
    {
      "anonymous": false,
      "inputs": [
        {
          "components": [
            {
              "components": [
                {
                  "internalType": "bytes32",
                  "name": "vaultId",
                  "type": "bytes32"
                }
              ],
              "internalType": "struct Structures.User",
              "name": "creator",
              "type": "tuple"
            },
            {
              "components": [
                {
                  "components": [
                    {
                      "internalType": "enum Structures.PostStatus",
                      "name": "status",
                      "type": "uint8"
                    },
                    {
                      "internalType": "enum Structures.PostType",
                      "name": "postType",
                      "type": "uint8"
                    },
                    {
                      "internalType": "uint256",
                      "name": "creationTimeStamp",
                      "type": "uint256"
                    },
                    {
                      "internalType": "uint256",
                      "name": "endTimeStamp",
                      "type": "uint256"
                    },
                    {
                      "internalType": "uint256",
                      "name": "duration",
                      "type": "uint256"
                    },
                    {
                      "internalType": "enum Structures.Tokens",
                      "name": "tokenId",
                      "type": "uint8"
                    }
                  ],
                  "internalType": "struct Structures.PostSettings",
                  "name": "settings",
                  "type": "tuple"
                },
                {
                  "components": [
                    {
                      "internalType": "uint256",
                      "name": "stake",
                      "type": "uint256"
                    },
                    {
                      "internalType": "uint256",
                      "name": "payment",
                      "type": "uint256"
                    },
                    {
                      "internalType": "uint256",
                      "name": "punishment",
                      "type": "uint256"
                    },
                    {
                      "internalType": "uint256",
                      "name": "penalty",
                      "type": "uint256"
                    }
                  ],
                  "internalType": "struct Structures.PostEscrow",
                  "name": "escrow",
                  "type": "tuple"
                },
                {
                  "components": [
                    {
                      "internalType": "bytes",
                      "name": "encryptedData",
                      "type": "bytes"
                    },
                    {
                      "internalType": "bytes",
                      "name": "encryptedKey",
                      "type": "bytes"
                    },
                    {
                      "internalType": "bytes",
                      "name": "decryptedData",
                      "type": "bytes"
                    }
                  ],
                  "internalType": "struct Structures.PostEncryptedData",
                  "name": "data",
                  "type": "tuple"
                }
              ],
              "internalType": "struct Structures.PostData",
              "name": "postdata",
              "type": "tuple"
            }
          ],
          "indexed": false,
          "internalType": "struct Structures.Post",
          "name": "post",
          "type": "tuple"
        }
      ],
      "name": "Finalized",
      "type": "event"
    },
    {
      "anonymous": false,
      "inputs": [
        {
          "components": [
            {
              "components": [
                {
                  "internalType": "bytes32",
                  "name": "vaultId",
                  "type": "bytes32"
                }
              ],
              "internalType": "struct Structures.User",
              "name": "creator",
              "type": "tuple"
            },
            {
              "components": [
                {
                  "components": [
                    {
                      "internalType": "enum Structures.PostStatus",
                      "name": "status",
                      "type": "uint8"
                    },
                    {
                      "internalType": "enum Structures.PostType",
                      "name": "postType",
                      "type": "uint8"
                    },
                    {
                      "internalType": "uint256",
                      "name": "creationTimeStamp",
                      "type": "uint256"
                    },
                    {
                      "internalType": "uint256",
                      "name": "endTimeStamp",
                      "type": "uint256"
                    },
                    {
                      "internalType": "uint256",
                      "name": "duration",
                      "type": "uint256"
                    },
                    {
                      "internalType": "enum Structures.Tokens",
                      "name": "tokenId",
                      "type": "uint8"
                    }
                  ],
                  "internalType": "struct Structures.PostSettings",
                  "name": "settings",
                  "type": "tuple"
                },
                {
                  "components": [
                    {
                      "internalType": "uint256",
                      "name": "stake",
                      "type": "uint256"
                    },
                    {
                      "internalType": "uint256",
                      "name": "payment",
                      "type": "uint256"
                    },
                    {
                      "internalType": "uint256",
                      "name": "punishment",
                      "type": "uint256"
                    },
                    {
                      "internalType": "uint256",
                      "name": "penalty",
                      "type": "uint256"
                    }
                  ],
                  "internalType": "struct Structures.PostEscrow",
                  "name": "escrow",
                  "type": "tuple"
                },
                {
                  "components": [
                    {
                      "internalType": "bytes",
                      "name": "encryptedData",
                      "type": "bytes"
                    },
                    {
                      "internalType": "bytes",
                      "name": "encryptedKey",
                      "type": "bytes"
                    },
                    {
                      "internalType": "bytes",
                      "name": "decryptedData",
                      "type": "bytes"
                    }
                  ],
                  "internalType": "struct Structures.PostEncryptedData",
                  "name": "data",
                  "type": "tuple"
                }
              ],
              "internalType": "struct Structures.PostData",
              "name": "postdata",
              "type": "tuple"
            }
          ],
          "indexed": false,
          "internalType": "struct Structures.Post",
          "name": "post",
          "type": "tuple"
        }
      ],
      "name": "Invalid",
      "type": "event"
    },
    {
      "anonymous": false,
      "inputs": [
        {
          "components": [
            {
              "components": [
                {
                  "internalType": "bytes32",
                  "name": "vaultId",
                  "type": "bytes32"
                }
              ],
              "internalType": "struct Structures.User",
              "name": "creator",
              "type": "tuple"
            },
            {
              "components": [
                {
                  "components": [
                    {
                      "internalType": "enum Structures.PostStatus",
                      "name": "status",
                      "type": "uint8"
                    },
                    {
                      "internalType": "enum Structures.PostType",
                      "name": "postType",
                      "type": "uint8"
                    },
                    {
                      "internalType": "uint256",
                      "name": "creationTimeStamp",
                      "type": "uint256"
                    },
                    {
                      "internalType": "uint256",
                      "name": "endTimeStamp",
                      "type": "uint256"
                    },
                    {
                      "internalType": "uint256",
                      "name": "duration",
                      "type": "uint256"
                    },
                    {
                      "internalType": "enum Structures.Tokens",
                      "name": "tokenId",
                      "type": "uint8"
                    }
                  ],
                  "internalType": "struct Structures.PostSettings",
                  "name": "settings",
                  "type": "tuple"
                },
                {
                  "components": [
                    {
                      "internalType": "uint256",
                      "name": "stake",
                      "type": "uint256"
                    },
                    {
                      "internalType": "uint256",
                      "name": "payment",
                      "type": "uint256"
                    },
                    {
                      "internalType": "uint256",
                      "name": "punishment",
                      "type": "uint256"
                    },
                    {
                      "internalType": "uint256",
                      "name": "penalty",
                      "type": "uint256"
                    }
                  ],
                  "internalType": "struct Structures.PostEscrow",
                  "name": "escrow",
                  "type": "tuple"
                },
                {
                  "components": [
                    {
                      "internalType": "bytes",
                      "name": "encryptedData",
                      "type": "bytes"
                    },
                    {
                      "internalType": "bytes",
                      "name": "encryptedKey",
                      "type": "bytes"
                    },
                    {
                      "internalType": "bytes",
                      "name": "decryptedData",
                      "type": "bytes"
                    }
                  ],
                  "internalType": "struct Structures.PostEncryptedData",
                  "name": "data",
                  "type": "tuple"
                }
              ],
              "internalType": "struct Structures.PostData",
              "name": "postdata",
              "type": "tuple"
            }
          ],
          "indexed": false,
          "internalType": "struct Structures.Post",
          "name": "post",
          "type": "tuple"
        }
      ],
      "name": "MadePublic",
      "type": "event"
    },
    {
      "anonymous": false,
      "inputs": [
        {
          "components": [
            {
              "components": [
                {
                  "internalType": "bytes32",
                  "name": "vaultId",
                  "type": "bytes32"
                }
              ],
              "internalType": "struct Structures.User",
              "name": "creator",
              "type": "tuple"
            },
            {
              "components": [
                {
                  "components": [
                    {
                      "internalType": "enum Structures.PostStatus",
                      "name": "status",
                      "type": "uint8"
                    },
                    {
                      "internalType": "enum Structures.PostType",
                      "name": "postType",
                      "type": "uint8"
                    },
                    {
                      "internalType": "uint256",
                      "name": "creationTimeStamp",
                      "type": "uint256"
                    },
                    {
                      "internalType": "uint256",
                      "name": "endTimeStamp",
                      "type": "uint256"
                    },
                    {
                      "internalType": "uint256",
                      "name": "duration",
                      "type": "uint256"
                    },
                    {
                      "internalType": "enum Structures.Tokens",
                      "name": "tokenId",
                      "type": "uint8"
                    }
                  ],
                  "internalType": "struct Structures.PostSettings",
                  "name": "settings",
                  "type": "tuple"
                },
                {
                  "components": [
                    {
                      "internalType": "uint256",
                      "name": "stake",
                      "type": "uint256"
                    },
                    {
                      "internalType": "uint256",
                      "name": "payment",
                      "type": "uint256"
                    },
                    {
                      "internalType": "uint256",
                      "name": "punishment",
                      "type": "uint256"
                    },
                    {
                      "internalType": "uint256",
                      "name": "penalty",
                      "type": "uint256"
                    }
                  ],
                  "internalType": "struct Structures.PostEscrow",
                  "name": "escrow",
                  "type": "tuple"
                },
                {
                  "components": [
                    {
                      "internalType": "bytes",
                      "name": "encryptedData",
                      "type": "bytes"
                    },
                    {
                      "internalType": "bytes",
                      "name": "encryptedKey",
                      "type": "bytes"
                    },
                    {
                      "internalType": "bytes",
                      "name": "decryptedData",
                      "type": "bytes"
                    }
                  ],
                  "internalType": "struct Structures.PostEncryptedData",
                  "name": "data",
                  "type": "tuple"
                }
              ],
              "internalType": "struct Structures.PostData",
              "name": "postdata",
              "type": "tuple"
            }
          ],
          "indexed": false,
          "internalType": "struct Structures.Post",
          "name": "post",
          "type": "tuple"
        }
      ],
      "name": "Renounced",
      "type": "event"
    },
    {
      "anonymous": false,
      "inputs": [
        {
          "indexed": false,
          "internalType": "bytes32",
          "name": "staker",
          "type": "bytes32"
        },
        {
          "indexed": false,
          "internalType": "uint256",
          "name": "amount",
          "type": "uint256"
        },
        {
          "indexed": false,
          "internalType": "enum Structures.Tokens",
          "name": "tokenId",
          "type": "uint8"
        }
      ],
      "name": "StakeAdded",
      "type": "event"
    },
    {
      "anonymous": false,
      "inputs": [
        {
          "indexed": false,
          "internalType": "bytes32",
          "name": "staker",
          "type": "bytes32"
        },
        {
          "indexed": false,
          "internalType": "uint256",
          "name": "amount",
          "type": "uint256"
        }
      ],
      "name": "StakeBurned",
      "type": "event"
    },
    {
      "anonymous": false,
      "inputs": [
        {
          "indexed": false,
          "internalType": "bytes32",
          "name": "staker",
          "type": "bytes32"
        },
        {
          "indexed": false,
          "internalType": "uint256",
          "name": "amount",
          "type": "uint256"
        },
        {
          "indexed": false,
          "internalType": "enum Structures.Tokens",
          "name": "tokenId",
          "type": "uint8"
        }
      ],
      "name": "StakeTaken",
      "type": "event"
    },
    {
      "anonymous": false,
      "inputs": [
        {
          "components": [
            {
              "components": [
                {
                  "internalType": "bytes32",
                  "name": "vaultId",
                  "type": "bytes32"
                }
              ],
              "internalType": "struct Structures.User",
              "name": "creator",
              "type": "tuple"
            },
            {
              "components": [
                {
                  "components": [
                    {
                      "internalType": "enum Structures.PostStatus",
                      "name": "status",
                      "type": "uint8"
                    },
                    {
                      "internalType": "enum Structures.PostType",
                      "name": "postType",
                      "type": "uint8"
                    },
                    {
                      "internalType": "uint256",
                      "name": "creationTimeStamp",
                      "type": "uint256"
                    },
                    {
                      "internalType": "uint256",
                      "name": "endTimeStamp",
                      "type": "uint256"
                    },
                    {
                      "internalType": "uint256",
                      "name": "duration",
                      "type": "uint256"
                    },
                    {
                      "internalType": "enum Structures.Tokens",
                      "name": "tokenId",
                      "type": "uint8"
                    }
                  ],
                  "internalType": "struct Structures.PostSettings",
                  "name": "settings",
                  "type": "tuple"
                },
                {
                  "components": [
                    {
                      "internalType": "uint256",
                      "name": "stake",
                      "type": "uint256"
                    },
                    {
                      "internalType": "uint256",
                      "name": "payment",
                      "type": "uint256"
                    },
                    {
                      "internalType": "uint256",
                      "name": "punishment",
                      "type": "uint256"
                    },
                    {
                      "internalType": "uint256",
                      "name": "penalty",
                      "type": "uint256"
                    }
                  ],
                  "internalType": "struct Structures.PostEscrow",
                  "name": "escrow",
                  "type": "tuple"
                },
                {
                  "components": [
                    {
                      "internalType": "bytes",
                      "name": "encryptedData",
                      "type": "bytes"
                    },
                    {
                      "internalType": "bytes",
                      "name": "encryptedKey",
                      "type": "bytes"
                    },
                    {
                      "internalType": "bytes",
                      "name": "decryptedData",
                      "type": "bytes"
                    }
                  ],
                  "internalType": "struct Structures.PostEncryptedData",
                  "name": "data",
                  "type": "tuple"
                }
              ],
              "internalType": "struct Structures.PostData",
              "name": "postdata",
              "type": "tuple"
            }
          ],
          "indexed": false,
          "internalType": "struct Structures.Post",
          "name": "post",
          "type": "tuple"
        }
      ],
      "name": "Valid",
      "type": "event"
    },
    {
      "inputs": [
        {
          "internalType": "bytes",
          "name": "sismoConnectResponse",
          "type": "bytes"
        },
        {
          "internalType": "address",
          "name": "_to",
          "type": "address"
        },
        {
          "internalType": "bytes32",
          "name": "_nonce",
          "type": "bytes32"
        },
        {
          "internalType": "enum Structures.Tokens",
          "name": "tokenId",
          "type": "uint8"
        },
        {
          "internalType": "uint256",
          "name": "_paymentAmount",
          "type": "uint256"
        }
      ],
      "name": "acceptPost",
      "outputs": [],
      "stateMutability": "payable",
      "type": "function"
    },
    {
      "inputs": [
        {
          "internalType": "enum Structures.Tokens",
          "name": "tokenId",
          "type": "uint8"
        },
        {
          "internalType": "uint256",
          "name": "amountToAdd",
          "type": "uint256"
        },
        {
          "internalType": "bytes32",
          "name": "encryptedVaultId",
          "type": "bytes32"
        }
      ],
      "name": "addStake",
      "outputs": [
        {
          "internalType": "uint256",
          "name": "",
          "type": "uint256"
        }
      ],
      "stateMutability": "payable",
      "type": "function"
    },
    {
      "inputs": [
        {
          "internalType": "bytes",
          "name": "encryptedHash",
          "type": "bytes"
        },
        {
          "internalType": "enum Structures.PostType",
          "name": "postType",
          "type": "uint8"
        },
        {
          "internalType": "enum Structures.PostDuration",
          "name": "postDuration",
          "type": "uint8"
        },
        {
          "internalType": "uint256",
          "name": "payment",
          "type": "uint256"
        },
        {
          "internalType": "uint256",
          "name": "stakeAmount",
          "type": "uint256"
        },
        {
          "internalType": "enum Structures.Tokens",
          "name": "tokenId",
          "type": "uint8"
        },
        {
          "internalType": "bytes",
          "name": "sismoConnectResponse",
          "type": "bytes"
        },
        {
          "internalType": "address",
          "name": "_to",
          "type": "address"
        },
        {
          "internalType": "bytes32",
          "name": "_nonce",
          "type": "bytes32"
        }
      ],
      "name": "createPost",
      "outputs": [
        {
          "components": [
            {
              "components": [
                {
                  "internalType": "bytes32",
                  "name": "vaultId",
                  "type": "bytes32"
                }
              ],
              "internalType": "struct Structures.User",
              "name": "creator",
              "type": "tuple"
            },
            {
              "components": [
                {
                  "components": [
                    {
                      "internalType": "enum Structures.PostStatus",
                      "name": "status",
                      "type": "uint8"
                    },
                    {
                      "internalType": "enum Structures.PostType",
                      "name": "postType",
                      "type": "uint8"
                    },
                    {
                      "internalType": "uint256",
                      "name": "creationTimeStamp",
                      "type": "uint256"
                    },
                    {
                      "internalType": "uint256",
                      "name": "endTimeStamp",
                      "type": "uint256"
                    },
                    {
                      "internalType": "uint256",
                      "name": "duration",
                      "type": "uint256"
                    },
                    {
                      "internalType": "enum Structures.Tokens",
                      "name": "tokenId",
                      "type": "uint8"
                    }
                  ],
                  "internalType": "struct Structures.PostSettings",
                  "name": "settings",
                  "type": "tuple"
                },
                {
                  "components": [
                    {
                      "internalType": "uint256",
                      "name": "stake",
                      "type": "uint256"
                    },
                    {
                      "internalType": "uint256",
                      "name": "payment",
                      "type": "uint256"
                    },
                    {
                      "internalType": "uint256",
                      "name": "punishment",
                      "type": "uint256"
                    },
                    {
                      "internalType": "uint256",
                      "name": "penalty",
                      "type": "uint256"
                    }
                  ],
                  "internalType": "struct Structures.PostEscrow",
                  "name": "escrow",
                  "type": "tuple"
                },
                {
                  "components": [
                    {
                      "internalType": "bytes",
                      "name": "encryptedData",
                      "type": "bytes"
                    },
                    {
                      "internalType": "bytes",
                      "name": "encryptedKey",
                      "type": "bytes"
                    },
                    {
                      "internalType": "bytes",
                      "name": "decryptedData",
                      "type": "bytes"
                    }
                  ],
                  "internalType": "struct Structures.PostEncryptedData",
                  "name": "data",
                  "type": "tuple"
                }
              ],
              "internalType": "struct Structures.PostData",
              "name": "postdata",
              "type": "tuple"
            }
          ],
          "internalType": "struct Structures.Post",
          "name": "",
          "type": "tuple"
        }
      ],
      "stateMutability": "payable",
      "type": "function"
    },
    {
      "inputs": [
        {
          "internalType": "bool",
          "name": "valid",
          "type": "bool"
        },
        {
          "internalType": "uint256",
          "name": "punishment",
          "type": "uint256"
        },
        {
          "internalType": "bytes32",
          "name": "encryptedVaultId",
          "type": "bytes32"
        }
      ],
      "name": "finalizePost",
      "outputs": [],
      "stateMutability": "nonpayable",
      "type": "function"
    },
    {
      "inputs": [],
      "name": "getBuyerStake",
      "outputs": [
        {
          "internalType": "uint256",
          "name": "amount",
          "type": "uint256"
        }
      ],
      "stateMutability": "view",
      "type": "function"
    },
    {
      "inputs": [
        {
          "internalType": "bytes",
          "name": "sismoConnectResponse",
          "type": "bytes"
        },
        {
          "internalType": "address",
          "name": "_to",
          "type": "address"
        },
        {
          "internalType": "bytes32",
          "name": "_nonce",
          "type": "bytes32"
        }
      ],
      "name": "getHashedVaultId",
      "outputs": [
        {
          "internalType": "bytes32",
          "name": "",
          "type": "bytes32"
        }
      ],
      "stateMutability": "nonpayable",
      "type": "function"
    },
    {
      "inputs": [
        {
          "internalType": "bytes",
          "name": "sismoConnectResponse",
          "type": "bytes"
        },
        {
          "internalType": "address",
          "name": "_to",
          "type": "address"
        },
        {
          "internalType": "bytes32",
          "name": "_nonce",
          "type": "bytes32"
        }
      ],
      "name": "getMessage",
      "outputs": [
        {
          "internalType": "bytes",
          "name": "",
          "type": "bytes"
        }
      ],
      "stateMutability": "nonpayable",
      "type": "function"
    },
    {
      "inputs": [],
      "name": "getPaymentRequested",
      "outputs": [
        {
          "internalType": "uint256",
          "name": "",
          "type": "uint256"
        }
      ],
      "stateMutability": "view",
      "type": "function"
    },
    {
      "inputs": [],
      "name": "getSellerStake",
      "outputs": [
        {
          "internalType": "uint256",
          "name": "amount",
          "type": "uint256"
        }
      ],
      "stateMutability": "view",
      "type": "function"
    },
    {
      "inputs": [
        {
          "internalType": "enum Structures.Tokens",
          "name": "tokenId",
          "type": "uint8"
        },
        {
          "internalType": "bytes32",
          "name": "staker",
          "type": "bytes32"
        }
      ],
      "name": "getStake",
      "outputs": [
        {
          "internalType": "uint256",
          "name": "amount",
          "type": "uint256"
        }
      ],
      "stateMutability": "view",
      "type": "function"
    },
    {
      "inputs": [],
      "name": "getStakeRequested",
      "outputs": [
        {
          "internalType": "uint256",
          "name": "",
          "type": "uint256"
        }
      ],
      "stateMutability": "view",
      "type": "function"
    },
    {
      "inputs": [],
      "name": "getStatus",
      "outputs": [
        {
          "internalType": "enum Structures.PostStatus",
          "name": "",
          "type": "uint8"
        }
      ],
      "stateMutability": "view",
      "type": "function"
    },
    {
      "inputs": [
        {
          "internalType": "bytes32",
          "name": "encryptedVaultId",
          "type": "bytes32"
        }
      ],
      "name": "getTelegramIds",
      "outputs": [
        {
          "internalType": "uint256",
          "name": "",
          "type": "uint256"
        },
        {
          "internalType": "uint256",
          "name": "",
          "type": "uint256"
        }
      ],
      "stateMutability": "view",
      "type": "function"
    },
    {
      "inputs": [],
      "name": "getTokenId",
      "outputs": [
        {
          "internalType": "enum Structures.Tokens",
          "name": "",
          "type": "uint8"
        }
      ],
      "stateMutability": "view",
      "type": "function"
    },
    {
      "inputs": [],
      "name": "getTokenIdAddress",
      "outputs": [
        {
          "internalType": "address",
          "name": "",
          "type": "address"
        }
      ],
      "stateMutability": "view",
      "type": "function"
    },
    {
      "inputs": [],
      "name": "getTotalStaked",
      "outputs": [
        {
          "internalType": "uint256",
          "name": "",
          "type": "uint256"
        }
      ],
      "stateMutability": "view",
      "type": "function"
    },
    {
      "inputs": [
        {
          "internalType": "bytes32",
          "name": "encryptedVaultId",
          "type": "bytes32"
        }
      ],
      "name": "getVaultIdSecret",
      "outputs": [
        {
          "internalType": "bytes",
          "name": "",
          "type": "bytes"
        }
      ],
      "stateMutability": "view",
      "type": "function"
    },
    {
      "inputs": [],
      "name": "owner",
      "outputs": [
        {
          "internalType": "bytes32",
          "name": "",
          "type": "bytes32"
        }
      ],
      "stateMutability": "view",
      "type": "function"
    },
    {
      "inputs": [],
      "name": "post",
      "outputs": [
        {
          "components": [
            {
              "internalType": "bytes32",
              "name": "vaultId",
              "type": "bytes32"
            }
          ],
          "internalType": "struct Structures.User",
          "name": "creator",
          "type": "tuple"
        },
        {
          "components": [
            {
              "components": [
                {
                  "internalType": "enum Structures.PostStatus",
                  "name": "status",
                  "type": "uint8"
                },
                {
                  "internalType": "enum Structures.PostType",
                  "name": "postType",
                  "type": "uint8"
                },
                {
                  "internalType": "uint256",
                  "name": "creationTimeStamp",
                  "type": "uint256"
                },
                {
                  "internalType": "uint256",
                  "name": "endTimeStamp",
                  "type": "uint256"
                },
                {
                  "internalType": "uint256",
                  "name": "duration",
                  "type": "uint256"
                },
                {
                  "internalType": "enum Structures.Tokens",
                  "name": "tokenId",
                  "type": "uint8"
                }
              ],
              "internalType": "struct Structures.PostSettings",
              "name": "settings",
              "type": "tuple"
            },
            {
              "components": [
                {
                  "internalType": "uint256",
                  "name": "stake",
                  "type": "uint256"
                },
                {
                  "internalType": "uint256",
                  "name": "payment",
                  "type": "uint256"
                },
                {
                  "internalType": "uint256",
                  "name": "punishment",
                  "type": "uint256"
                },
                {
                  "internalType": "uint256",
                  "name": "penalty",
                  "type": "uint256"
                }
              ],
              "internalType": "struct Structures.PostEscrow",
              "name": "escrow",
              "type": "tuple"
            },
            {
              "components": [
                {
                  "internalType": "bytes",
                  "name": "encryptedData",
                  "type": "bytes"
                },
                {
                  "internalType": "bytes",
                  "name": "encryptedKey",
                  "type": "bytes"
                },
                {
                  "internalType": "bytes",
                  "name": "decryptedData",
                  "type": "bytes"
                }
              ],
              "internalType": "struct Structures.PostEncryptedData",
              "name": "data",
              "type": "tuple"
            }
          ],
          "internalType": "struct Structures.PostData",
          "name": "postdata",
          "type": "tuple"
        }
      ],
      "stateMutability": "view",
      "type": "function"
    },
    {
      "inputs": [],
      "name": "postCount",
      "outputs": [
        {
          "internalType": "uint256",
          "name": "",
          "type": "uint256"
        }
      ],
      "stateMutability": "view",
      "type": "function"
    },
    {
      "inputs": [
        {
          "internalType": "bytes",
          "name": "sismoConnectResponse",
          "type": "bytes"
        },
        {
          "internalType": "address",
          "name": "_to",
          "type": "address"
        },
        {
          "internalType": "bytes32",
          "name": "_nonce",
          "type": "bytes32"
        }
      ],
      "name": "renouncePost",
      "outputs": [],
      "stateMutability": "nonpayable",
      "type": "function"
    },
    {
      "inputs": [
        {
          "internalType": "bytes",
          "name": "decryptedData",
          "type": "bytes"
        },
        {
          "internalType": "bytes",
          "name": "sismoConnectResponse",
          "type": "bytes"
        },
        {
          "internalType": "address",
          "name": "_to",
          "type": "address"
        },
        {
          "internalType": "bytes32",
          "name": "_nonce",
          "type": "bytes32"
        }
      ],
      "name": "revealData",
      "outputs": [
        {
          "internalType": "bytes",
          "name": "",
          "type": "bytes"
        }
      ],
      "stateMutability": "nonpayable",
      "type": "function"
    },
    {
      "inputs": [
        {
          "internalType": "bytes",
          "name": "encryptedKey",
          "type": "bytes"
        },
        {
          "internalType": "bytes",
          "name": "sismoConnectResponse",
          "type": "bytes"
        },
        {
          "internalType": "address",
          "name": "_to",
          "type": "address"
        },
        {
          "internalType": "bytes32",
          "name": "_nonce",
          "type": "bytes32"
        }
      ],
      "name": "submitHash",
      "outputs": [],
      "stateMutability": "nonpayable",
      "type": "function"
    },
    {
      "inputs": [
        {
          "internalType": "enum Structures.Tokens",
          "name": "tokenId",
          "type": "uint8"
        },
        {
          "internalType": "bytes",
          "name": "sismoConnectResponse",
          "type": "bytes"
        },
        {
          "internalType": "address",
          "name": "_to",
          "type": "address"
        },
        {
          "internalType": "bytes32",
          "name": "_nonce",
          "type": "bytes32"
        }
      ],
      "name": "takeFullStake",
      "outputs": [
        {
          "internalType": "uint256",
          "name": "",
          "type": "uint256"
        }
      ],
      "stateMutability": "nonpayable",
      "type": "function"
    },
    {
      "inputs": [
        {
          "internalType": "enum Structures.Tokens",
          "name": "tokenId",
          "type": "uint8"
        },
        {
          "internalType": "uint256",
          "name": "amountToTake",
          "type": "uint256"
        },
        {
          "internalType": "bytes",
          "name": "sismoConnectResponse",
          "type": "bytes"
        },
        {
          "internalType": "address",
          "name": "_to",
          "type": "address"
        },
        {
          "internalType": "bytes32",
          "name": "_nonce",
          "type": "bytes32"
        }
      ],
      "name": "takeStake",
      "outputs": [
        {
          "internalType": "uint256",
          "name": "",
          "type": "uint256"
        }
      ],
      "stateMutability": "nonpayable",
      "type": "function"
    },
    {
      "inputs": [],
      "name": "version",
      "outputs": [
        {
          "internalType": "string",
          "name": "",
          "type": "string"
        }
      ],
      "stateMutability": "view",
      "type": "function"
    },
    {
      "inputs": [
        {
          "internalType": "bytes",
          "name": "encodeMessage",
          "type": "bytes"
        },
        {
          "internalType": "bytes32",
          "name": "encryptedVaultId",
          "type": "bytes32"
        }
      ],
      "name": "write",
      "outputs": [],
      "stateMutability": "nonpayable",
      "type": "function"
    },
    {
      "stateMutability": "payable",
      "type": "receive"
    }
  ],
  "bytecode": "0x608060409080825234620006765762005982803803809162000022828562000691565b8339810160c0828203126200067657815191602062000043818301620006b5565b62000050868401620006b5565b6200005e60608501620006b5565b926200006d60808601620006b5565b60a08601516001600160401b039691949187821162000676570192601f94888686011215620006765784518881116200067b578b5195601f199a620000b9878d8b860116018962000691565b8288528683830101116200067657859060005b838110620006615750506000918701015267016345785d8a0000601455600060155560018060a01b0380978180948160018060a01b03199716876016541617601655168560185416176018551683601954161760195533836017541617601755838b5180926303e21fa960e61b82528160049a8b92165afa908115620006565760009162000616575b501690601a541617601a556200016a620006ca565b805190868211620004ad57819062000184601b54620006fb565b868111620005e3575b50839086831160011462000578576000926200056c575b50508160011b916000199060031b1c191617601b555b620001c4620006ca565b805190868211620004ad578190620001de601c54620006fb565b86811162000539575b508390868311600114620004ce57600092620004c2575b50508160011b916000199060031b1c191617601c555b6200021e620006ca565b805190868211620004ad57819062000238601d54620006fb565b8681116200047a575b5083908683116001146200040f5760009262000403575b50508160011b916000199060031b1c191617601d555b60ff1993846002541660025560008052838252620151808960002055600194856000526203f4808a60002055600260005262093a808a600020556003600052621275008a600020558160005262278d008a6000205560008052828052858a600020918254161790558251958611620003ee5750620002ee601e54620006fb565b838111620003b0575b50809285116001146200034557508394509083929160009462000339575b50501b916000199060031b1c191617601e555b600055516152309081620007528239f35b01519250388062000315565b929484908116601e60005284600020946000905b888383106200039557505050106200037b575b505050811b01601e5562000328565b015160001960f88460031b161c191690553880806200036c565b85870151885590960195948501948793509081019062000359565b620003dd90601e600052826000208580890160051c820192858a10620003e4575b0160051c019062000738565b38620002f7565b92508192620003d1565b604190634e487b7160e01b6000525260246000fd5b01519050388062000258565b91891691601d600052846000209260005b868282106200046357505090846001959493921062000449575b505050811b01601d556200026e565b015160001960f88460031b161c191690553880806200043a565b600185968293968601518155019501930162000420565b620004a690601d600052856000208880860160051c820192888710620003e4570160051c019062000738565b3862000241565b604186634e487b7160e01b6000525260246000fd5b015190503880620001fe565b91891691601c600052846000209260005b868282106200052257505090846001959493921062000508575b505050811b01601c5562000214565b015160001960f88460031b161c19169055388080620004f9565b6001859682939686015181550195019301620004df565b6200056590601c600052856000208880860160051c820192888710620003e4570160051c019062000738565b38620001e7565b015190503880620001a4565b91891691601b600052846000209260005b86828210620005cc575050908460019594939210620005b2575b505050811b01601b55620001ba565b015160001960f88460031b161c19169055388080620005a3565b600185968293968601518155019501930162000589565b6200060f90601b600052856000208880860160051c820192888710620003e4570160051c019062000738565b386200018d565b908482813d83116200064e575b6200062f818362000691565b810103126200064b57506200064490620006b5565b3862000155565b80fd5b503d62000623565b8b513d6000823e3d90fd5b818101830151898201840152879201620000cc565b600080fd5b634e487b7160e01b600052604160045260246000fd5b601f909101601f19168101906001600160401b038211908210176200067b57604052565b51906001600160a01b03821682036200067657565b60408051919082016001600160401b038111838210176200067b5760405260048252630307830360e41b6020830152565b90600182811c921680156200072d575b60208310146200071757565b634e487b7160e01b600052602260045260246000fd5b91607f16916200070b565b81811062000744575050565b600081556001016200073856fe608080604052600436101561001d575b50361561001b57600080fd5b005b60003560e01c908163010a38f514612ced5750806305c1f50214612a115780630917e776146129b057806317906c2e146129925780631b9f0a4314612966578063200f852c1461258357806330a0680c146123675780633258d15c146122555780633a4fb8b714611c3d578063402e3e0b146113c15780634828000c146113295780634c38d877146112fd5780634e69d560146112d557806354fd4d50146112075780635ad4e170146111da5780635c63ed69146111a257806383dd174314610eba5780638da5cb5b14610e9c5780638f287dc2146108905780639d8cc89a1461085e5780639f8b435914610809578063b43f4f75146103e7578063b52d2ce4146102ee578063d24e0c87146102d0578063de5d716514610197578063e02cfa4c146101765763faeb5e1714610153573861000f565b34610171576000366003190112610171576020600754604051908152f35b600080fd5b3461017157602061018f61018936613118565b91613bd2565b604051908152f35b346101715760a0366003190112610171576004356003811015610171576024356044356001600160401b038111610171576101d6903690600401613073565b60643592906001600160a01b0384168403610171576101f3613997565b60ff600654169060038210156102ba5761021161021b928414613678565b8460843591614ed1565b918160005260216020526040600020836000526020528060406000205410610282576020938361024a93614d61565b906040516102628161025b81612eb6565b0382612db3565b805190840120036102795780600855604051908152f35b8060075561018f565b60405162461bcd60e51b815260206004820152601060248201526f4e4f545f454e4f5547485f5354414b4560801b6044820152606490fd5b634e487b7160e01b600052602160045260246000fd5b34610171576000366003190112610171576020600854604051908152f35b60603660031901126101715760043560038110156101715760443560ff6006541660038110156102ba57610323908314613678565b6040519161033b8361033481612eb6565b0384612db3565b8251602080940120821480156103c9575b156103915761024a906040516103658161025b81612e24565b80519085012083036103885734905b6019546001600160a01b0316908490613e6f565b60243590610374565b60405162461bcd60e51b815260048101849052601060248201526f0ac82aa98a89288be9a92a69a82a886960831b6044820152606490fd5b506040516103da8161025b81612e24565b838151910120821461034c565b34610171576103f5366130ba565b92906103ff613997565b60029360ff8554169160088310156102ba578260005260209485805260ff60406000205416806107f6575b156107c2579061043a9291613728565b5050508381519101209060248460018060a01b036016541660405192838092630e2ab4cb60e21b82528760048301525afa9081156107b657600091610789575b501561074e5761048e600192835414613e16565b60005282805260406000209160ff1992838154169055600393846000526040600020838582541617905584848754161786558151916001600160401b03928381116106c05780600c926104ea826104e58654612dea565b61334b565b8490601f83116001146106e1576000926106d6575b505060001982891b1c191690851b1781555b61051b8154612dea565b9283116106c05761052d601b54612dea565b601f8111610659575b50600091601f84116001146105b957509282939183926000946105ae575b50501b9160001990851b1c191617601b555b82541617905561057860055442613a7d565b6004557f130bb2fe638478ab244a90fc4550e3d9f3401c2bd639012d7cb8d0cbe95266ef604051806105a981613409565b0390a1005b015492508780610554565b91905082601f198116601b6000527f3ad8aa4f87544323a9d1e5dd902f40c356527a7955687113db5f9a85ad579dc1936000905b87838310610631575050501061060b575b5050811b01601b55610566565b60008051602061515b833981519152015460001983871b60f8161c1916905585806105fe565b60008051602061515b83398151915286015487559586019590940193869350908101906105ed565b601b6000527f3ad8aa4f87544323a9d1e5dd902f40c356527a7955687113db5f9a85ad579dc1601f850160051c8101918486106106b6575b601f0160051c019085905b8281106106aa575050610536565b6000815501859061069c565b9091508190610691565b634e487b7160e01b600052604160045260246000fd5b0151905089806104ff565b90879350601f198316918560005260008051602061515b8339815191529260005b888282106107385750508411610720575b505050811b018155610511565b0151600019838b1b60f8161c19169055898080610713565b8385015186558b97909501949384019301610702565b60405162461bcd60e51b8152600481018590526013602482015272155cd95c88191bd95cc81b9bdd08195e1a5cdd606a1b6044820152606490fd5b6107a99150853d87116107af575b6107a18183612db3565b8101906131bc565b8661047a565b503d610797565b6040513d6000823e3d90fd5b60405162461bcd60e51b815260048101879052600c60248201526b57524f4e475f53544154555360a01b6044820152606490fd5b508684148061042a57506003841461042a565b346101715761085a61084661082661082036613118565b91613728565b5050506020815191012061084161083c82613b8f565b613b43565b613ca5565b604051918291602083526020830190612f5b565b0390f35b346101715760203660031901126101715761087d61083c600435613b8f565b61085a6040516108468161025b81612e24565b346101715760603660031901126101715760043515801560043503610171576024356108ba613997565b60ff6002541660088110156102ba57600303610e67576040516108e08161025b81612eb6565b8051602060443592012003610e2e576017546040516318da001160e01b815290602090829060049082906001600160a01b03165afa9081156107b657600091610df4575b50600854604051634047e10360e11b81529092906020816004816001600160a01b0387165afa9081156107b657600091610dc0575b5061271061096a6109729286613977565b04809461398a565b9360045442118015610db7575b15610c625750506109d66109b260ff600654166040516109a28161025b81612eb6565b6020815191012060085491613a8a565b9360ff600654166040516109c98161025b81612e24565b6020815191012090613a00565b9160ff600654166003811015806102ba57600182148015918183610c54575b81908015610c47575b610a089150613678565b601754604051632ee4b68b60e11b815290602090829060049082906001600160a01b03165afa9081156107b657600091610c28575b50610bdb576102ba5782610b0b5750610a749360009384935083925082916001600160a01b03165af1610a6e6140ca565b506140fa565b60075560085560043515610b045760045b60ff6002541660088110156102ba576000526020805260406000209060ff199182815416905560088110156102ba57610ad69160ff8216600052602080526001604060002091825416179055613215565b7f130bb2fe638478ab244a90fc4550e3d9f3401c2bd639012d7cb8d0cbe95266ef604051806105a981613409565b6005610a85565b60009091610bce575b8115610bbb575b509260209291610b2d610b7b95613678565b6001600160a01b0390610b3f906150cc565b60405163a9059cbb60e01b81526001600160a01b0390931660048401526024830193909352909384929190911690829060009082906044820190565b03925af180156107b657610b9791600091610b9c575b5061508e565b610a74565b610bb5915060203d6020116107af576107a18183612db3565b84610b91565b90509190916102ba579060006020610b1b565b5050600281146000610b14565b9150919293506102ba5760028203610bfe575050610bf890614400565b50610a74565b15610c0d5750610bf890614cc4565b15610c185750610a74565b610c21906147a9565b5082610bf8565b610c41915060203d6020116107af576107a18183612db3565b89610a3d565b506102ba578084156109fe565b5060009050600284146109f5565b9250925050610c6d57005b6007548111610d7c5760145490670de0b6b3a764000080831015610d3f57610c9760059383613977565b04610cbf8160ff60065416604051610cb28161025b81612eb6565b6020815191012090614134565b600855610cdc8260ff60065416604051610cb28161025b81612e24565b60075560ff199183836002541617600255600955600a558160005260208052604060002060018282541617905560025416176002557f1c9ee42116032ebac99a31ae475140077588d76949471dfb40a21a14ad523b2d604051806105a981613409565b60405162461bcd60e51b81526020600482015260156024820152740a0aa9c92a6909a8a9ca8bea482a8929ebe90928e9605b1b6044820152606490fd5b60405162461bcd60e51b81526020600482015260136024820152720a0aa9c92a6909a8a9ca8bea89e9ebe90928e9606b1b6044820152606490fd5b5060043561097f565b90506020813d602011610dec575b81610ddb60209383612db3565b810103126101715751612710610959565b3d9150610dce565b90506020813d602011610e26575b81610e0f60209383612db3565b8101031261017157610e2090613714565b83610924565b3d9150610e02565b60405162461bcd60e51b81526020600482015260116024820152700ac82aa98a89288be9c9ea8be9a82a8869607b1b6044820152606490fd5b60405162461bcd60e51b815260206004820152600d60248201526c1393d517d4d550935255151151609a1b6044820152606490fd5b34610171576000366003190112610171576020600054604051908152f35b34610171576040366003190112610171576001600160401b0360043581811161017157610eeb903690600401613073565b90602435610ef7613997565b610f0361083c82613b8f565b60405190610f1b82610f1481612e24565b0383612db3565b8151602092830120036110645782519182116106c057610f3c601c54612dea565b601f8111611000575b5080601f8311600114610f7f57508192600092610f74575b50508160011b916000199060031b1c191617601c55005b015190508280610f5d565b90601f19831693601c6000527f0e4562a10381dec21b205ed72637e6b1b523bdd0e4d4d50af5cd23dd4500a211926000905b868210610fe85750508360019510610fcf575b505050811b01601c55005b015160001960f88460031b161c19169055828080610fc4565b80600185968294968601518155019501930190610fb1565b601c6000527f0e4562a10381dec21b205ed72637e6b1b523bdd0e4d4d50af5cd23dd4500a211601f840160051c81019183851061105a575b601f0160051c01905b81811061104e5750610f45565b60008155600101611041565b9091508190611038565b82519182116106c057611078601d54612dea565b601f811161113e575b5080601f83116001146110bd575081926000926110b2575b5050600019600383901b1c191660019190911b17601d55005b015190508280611099565b90601f19831693601d6000527f6d4407e7be21f808e6509aa9fa9143369579dd7d760fe20a2c09680fc146134f926000905b868210611126575050836001951061110d575b505050811b01601d55005b015160001960f88460031b161c19169055828080611102565b806001859682949686015181550195019301906110ef565b601d6000527f6d4407e7be21f808e6509aa9fa9143369579dd7d760fe20a2c09680fc146134f601f840160051c810191838510611198575b601f0160051c01905b81811061118c5750611081565b6000815560010161117f565b9091508190611176565b3461017157600036600319011261017157602061018f60ff600654166040516111ce8161025b81612e24565b83815191012090613951565b346101715760003660031901126101715760206111f5613895565b6040516001600160a01b039091168152f35b34610171576000366003190112610171576040516000601e5461122981612dea565b808452906001908181169081156112ae5750600114611253575b61085a8461084681860382612db3565b601e600090815292507f50bb669a95c7b50b7e8a6f09454034b2b14cf2b85c730dca9a539ca82cb6e3505b82841061129657505050810160200161084682611243565b8054602085870181019190915290930192810161127e565b60ff191660208087019190915292151560051b850190920192506108469150839050611243565b3461017157600036600319011261017157602060ff600254166112fb6040518092612f2b565bf35b3461017157600036600319011261017157602061018f60ff600654166040516111ce8161025b81612eb6565b34610171576080366003190112610171576004356003811015610171576024356001600160401b03811161017157611365903690600401613073565b604435906001600160a01b038216820361017157611381613997565b60ff600654169260038410156102ba576113af61024a926113a56020968414613678565b8460643591614ed1565b92836113bb8184613951565b92614d61565b610120366003190112610171576004356001600160401b038111610171576113ed903690600401613073565b60056024351015610171576005604435101561017157600360a43510156101715760c4356001600160401b0381116101715761142d903690600401613073565b60e435906001600160a01b03821682036101715760405161144d81612d85565b60405161145981612d19565b60008152815260206040519161146e83612d34565b60405161147a81612d4f565b60008152600083820152600060408201526000606082015260006080820152600060a082015283526040516114ae81612d6a565b600081526000838201526000604082015260006060820152828401526040516114d681612d34565b6060815260608382015260606040820152604084015201526000600160a43514908115611c2e575b8115611c1c575b509161151361151d93613678565b6101043591613728565b5090829392516020850120926000548403611beb57601654604051630e2ab4cb60e21b81526004810186905290602090829060249082906001600160a01b03165afa9081156107b657600091611bcc575b5015611b965760ff6002541660088110156102ba576000526020805261159b60ff6040600020541661317f565b60843515611b5d576115ae604435612dd4565b60ff60443516600052601f602052604060002054906115dd60843560018060a01b03601954168760a435613e6f565b60ff6002541660088110156102ba5760005260208052604060002060ff19815416905560016000526040600020600160ff19825416179055600160ff1960025416176002556040519561162f87612d19565b86526040519261163e84612d4f565b6001845261164d602435612dd4565b602435602085015242604085015260006060850152608084015261167660a43560a08501612dde565b6040519061168382612d6a565b8152606435602082015260006040820152600060608201526116a36136b2565b6116ab6136b2565b90604051936116b985612d34565b845260208401526040830152604051926116d284612d34565b835260208301526040820152604051936116eb85612d85565b80855281602086015251600155805180519060088210156102ba5761171160a092613215565b602081015161171f81612dd4565b61172881612dd4565b61ff006002549160081b169061ff0019161760025560408101516003556060810151600455608081015160055501519060038210156102ba5760409160ff8019600654169116176006556060602082015180516007556020810151600855838101516009550151600a55015180518051906001600160401b0382116106c05781906117bd826117b8600b54612dea565b6132ec565b602090601f8311600114611ae957600092611ade575b50508160011b916000199060031b1c191617600b555b60208101518051906001600160401b0382116106c05761180e826104e5600c54612dea565b602090601f8311600114611a6557604093929160009183611a5a575b50508160011b916000199060031b1c191617600c555b01518051906001600160401b0382116106c057819061186982611864600d54612dea565b61328d565b602090601f83116001146119e6576000926119db575b50508160011b916000199060031b1c191617600d555b60155460001994908581146119c5576001016015558051906001600160401b0382116106c0576118cf826118ca600e54612dea565b6133aa565b602090601f831160011461194d5795829161085a97600093611942575b50508260011b9260031b1c191617600e555b600f556010557f5c0140b1f9412009d09b44a8920b411de7a75ebe8c087005130524935e0e457f60405180611933848261315d565b0390a16040519182918261315d565b0151915087806118ec565b90601f19831691600e60005260008051602061517b8339815191529260005b8181106119ad57509161085a989185600196959410611995575b50505050811b01600e556118fe565b01519060f88460031b161c1916905586808080611986565b9293602060018192878601518155019501930161196c565b634e487b7160e01b600052601160045260246000fd5b01519050868061187f565b600d60009081526000805160206151bb8339815191529350601f198516905b818110611a425750908460019594939210611a29575b505050811b01600d55611895565b015160001960f88460031b161c19169055868080611a1b565b92936020600181928786015181550195019301611a05565b01519050888061182a565b90600c60005260008051602061515b8339815191529160005b601f1985168110611ac6575091839160019360409695601f19811610611aad575b505050811b01600c55611840565b015160001960f88460031b161c19169055888080611a9f565b91926020600181928685015181550194019201611a7e565b0151905087806117d3565b600b60009081526000805160206151db8339815191529350601f198516905b818110611b455750908460019594939210611b2c575b505050811b01600b556117e9565b015160001960f88460031b161c19169055878080611b1e565b92936020600181928786015181550195019301611b08565b60405162461bcd60e51b81526020600482015260116024820152705354414b455f414d4f554e545f5a45524f60781b6044820152606490fd5b60405162461bcd60e51b815260206004820152600e60248201526d1554d15497d393d517d1561254d560921b6044820152606490fd5b611be5915060203d6020116107af576107a18183612db3565b8661156e565b60405162461bcd60e51b81526020600482015260096024820152682727aa2fa7aba722a960b91b6044820152606490fd5b90506102ba5760a43515611513611505565b505060a43560021460006114fe565b3461017157611c4b36613118565b611c53613997565b60ff600254169060088210156102ba57611caf92611c8a92600052602094858052611c8560ff6040600020541661317f565b613728565b505050828151910120604051611ca38161025b81612e24565b83815191012014613e16565b60405190611cbc82612d19565b6000825260405191611ccd83612d4f565b60078352600082840152600060408401526000606084015260006080840152600060a084015260405190611d0082612d6a565b60008252600083830152600060408301526000606083015260405190611d2582612d34565b604051611d3181612d19565b600081528252604051611d4381612d19565b6000815284830152604051611d5781612d19565b60008152604083015260405194611d6d86612d34565b8552838501928352604085019182528484604051611d8a81612d85565b8381520152519360019485555191825160088110156102ba57611dac90613215565b83830151611db981612dd4565b611dc281612dd4565b61ff006002549160081b169061ff0019161760025560a0604084015193600394855560608101516004556080810151600555015190838210156102ba5760609160ff8019600654169116176006555180516007558481015160085560408101516009550151600a55519182519283516001600160401b03948582116106c0578190611e52826117b8600b54612dea565b8490601f83116001146121e6576000926121db575b505060001982861b1c191690861b17600b555b818101518051908582116106c057611e97826104e5600c54612dea565b8390601f83116001146121685760409392916000918361215d575b505060001982871b1c191690871b17600c555b01518051908482116106c0578190611ee282611864600d54612dea565b8390601f83116001146120ee576000926120e3575b505060001982851b1c191690851b17600d555b611f126136b2565b8051908482116106c0578190611f3282611f2d601154612dea565b61322e565b8390601f831160011461207457600092612069575b505060001982851b1c191690851b176011555b60006012556000601355611f6c6136b2565b80519384116106c057611f84846118ca600e54612dea565b81601f8511600114611ff35750938394918492600095611fe8575b50501b92600019911b1c191617600e555b6000600f5560006010557f496685ed89450883d7ff0e8e3b71eb9dca092e7b9742b53ed4611b7522443e5e604051806105a981613409565b015193508580611f9f565b92919084601f198116600e60005260008051602061517b833981519152956000905b8983831061204f5750505010612035575b50505050811b01600e55611fb0565b01519060f884600019921b161c1916905582808080612026565b858701518955909701969485019488935090810190612015565b015190508680611f47565b90879350601f19831691601160005260008051602061519b8339815191529260005b878282106120cd57505084116120b5575b505050811b01601155611f5a565b015160001983871b60f8161c191690558680806120a7565b8385015186558b97909501949384019301612096565b015190508680611ef7565b90879350601f19831691600d6000526000805160206151bb8339815191529260005b87828210612147575050841161212f575b505050811b01600d55611f0a565b015160001983871b60f8161c19169055868080612121565b8385015186558b97909501949384019301612110565b015190508880611eb2565b92918791601f19821690600c60005260008051602061515b8339815191529160005b888282106121c55750509583604097106121ad575b505050811b01600c55611ec5565b015160001983891b60f8161c1916905588808061219f565b8389015185558c9690940193928301920161218a565b015190508780611e67565b90889350601f19831691600b6000526000805160206151db8339815191529260005b8882821061223f5750508411612227575b505050811b01600b55611e7a565b015160001983881b60f8161c19169055878080612219565b8385015186558c97909501949384019301612208565b346101715760208060031936011261017157601354600435918115612323576010549182156122de576122a960409485516122938161025b81612e24565b84815191012081149081156122c0575b50613b43565b83516001600160a01b039182168152921690820152f35b905085516122d18161025b81612eb6565b84815191012014866122a3565b60405162461bcd60e51b815260048101839052601960248201527f4e4f5f54454c454752414d5f49445f464f525f53454c4c4552000000000000006044820152606490fd5b6064906040519062461bcd60e51b82526004820152601860248201527f4e4f5f54454c454752414d5f49445f464f525f425559455200000000000000006044820152fd5b3461017157612375366130ba565b90612381939293613997565b60ff6002541691600883101591826102ba578360005260209586805260ff604060002054168061253e575b916123e49391611c856123be9461317f565b5050508581519101206040516123d78161025b81612e24565b86815191012014156131d4565b6102ba57600403612509578051916001600160401b0383116106c05761240f83611864600d54612dea565b8092601f811160011461249a578091929360009161248f575b508160011b916000199060031b1c191617600d555b600660ff1960025416176002557f53d57d9d48dda1c6e6d0fc0b92d00b750b752f21cc973929ce8b4b60b374505e6040518061247881613409565b0390a161085a604051928284938452830190612f5b565b905083015184612428565b601f19811693600d6000526000805160206151bb8339815191529060005b8681106124f25750826001949596106124d9575b5050811b01600d5561243d565b85015160001960f88460031b161c1916905584806124cc565b9091846001819285890151815501930191016124b8565b60405162461bcd60e51b815260048101839052600d60248201526c1393d517d19253905312569151609a1b6044820152606490fd5b50925090600092600385148015612575575b848115612561575b509192916123ac565b90509190916102ba57906004851484612558565b506000935060068514612550565b60a0366003190112610171576001600160401b03600435818111610171576125af903690600401613073565b6001600160a01b039160248035929190848416840361017157606435906003821015610171576084359360016000526020928380526125f560ff6040600020541661317f565b60ff6006541660038110156129515761260f908214613678565b806129475761263a34925b60405161262a8161025b81612e24565b8681519101209860443591613728565b5098919990978a51878c0120928460005260218852604060002081600052885260406000205460075411612911578688846016541660405192838092630e2ab4cb60e21b82528960048301525afa9081156107b6576000916128f4575b50156128be576126a9908414156131d4565b60085490811561283e571061280557906126ca9392915b6019541691613e6f565b60085560028060ff19818181541617825581600052848052604060002060018282541617905581541617905585519283116127f1575061270f82611f2d601154612dea565b80601f831160011461277d575081929394600092612772575b50508160011b916000199060031b1c1916176011555b6012556013557ff13f251f5172305eb93606c0071b9c48215d3ec6a6698a7fa987c18725488e7f604051806105a981613409565b015190508480612728565b90601f19831695601160005260008051602061519b833981519152926000905b8882106127d9575050836001959697106127c0575b505050811b0160115561273e565b015160001960f88460031b161c191690558480806127b2565b8060018596829496860151815501950193019061279d565b634e487b7160e01b60009081526041600452fd5b60405162461bcd60e51b815260048101879052601281870152711393d517d15393d551d217d410565351539560721b6044820152606490fd5b9050341561288a571561285757906126ca9392916126c0565b60405162461bcd60e51b815260048101879052600c818701526b16915493d7d410565351539560a21b6044820152606490fd5b60405162461bcd60e51b815260048101889052600d818801526c5a45524f5f4d534756414c554560981b6044820152606490fd5b60405162461bcd60e51b815260048101899052600f818901526e1554d1549517d393d517d1561254d5608a1b6044820152606490fd5b61290b9150893d8b116107af576107a18183612db3565b8d612697565b60405162461bcd60e51b815260048101899052600f818901526e14d51052d157d25390d3d4949150d5608a1b6044820152606490fd5b61263a869261261a565b83634e487b7160e01b60005260216004526000fd5b346101715760403660031901126101715760043560038110156101715761018f60209160243590613951565b34610171576000366003190112610171576020601554604051908152f35b3461017157600036600319011261017157602061018f60ff60065416612a0b6129ee6040516129e28161025b81612e24565b85815191012083613951565b916040516129ff8161025b81612eb6565b85815191012090613951565b90613a7d565b3461017157600036600319011261017157604051612a2e81612d19565b60018054825260405191612a4183612d34565b60405192612a4e84612d4f565b60025460ff81169060088210156102ba5760ff91865260081c1693612a7285612dd4565b60209485820152600354604082015260045460608201526005546080820152612aa360ff6006541660a08301612dde565b8152604051612ab181612d6a565b6007548152600854858201526009546040820152600a54606082015284820152604051612add81612d34565b60405185816000600b54612af081612dea565b80845290898116908115612ccf5750600114612c85575b50612b1492500382612db3565b815260405185816000600c54612b2981612dea565b80845290898116908115612c675750600114612c1d575b50612b4d92500382612db3565b8582015260405160009486600d5491612b6583612dea565b80855292818116908115612bfc5750600114612bb0575b505050612b8f8161085a95960382612db3565b60408201526040820152604080519485945185528401526040830190612f80565b91909650600d6000526000805160206151bb833981519152916000925b828410612be957505050810190940193612b8f8661085a612b7c565b80548585018a0152928801928101612bcd565b60ff191683860152505090151560051b8201019450612b8f8661085a612b7c565b600c600090815291508860008051602061515b8339815191525b828410612c505750505091612b4d928201018892612b40565b8054878501870152869450928501928a9101612c37565b60ff19168486015250899390151560051b8301019050612b4d612b40565b600b60009081529150886000805160206151db8339815191525b828410612cb85750505091612b14928201018892612b07565b8054878501870152869450928501928a9101612c9f565b60ff19168486015250899390151560051b8301019050612b14612b07565b3461017157600036600319011261017157806112fb60209260ff600654165b9060038210156102ba5752565b602081019081106001600160401b038211176106c057604052565b606081019081106001600160401b038211176106c057604052565b60c081019081106001600160401b038211176106c057604052565b608081019081106001600160401b038211176106c057604052565b604081019081106001600160401b038211176106c057604052565b6001600160401b0381116106c057604052565b90601f801991011681019081106001600160401b038211176106c057604052565b600511156102ba57565b60038210156102ba5752565b90600182811c92168015612e1a575b6020831014612e0457565b634e487b7160e01b600052602260045260246000fd5b91607f1691612df9565b600e5460009291612e3482612dea565b80825291600190818116908115612e995750600114612e5257505050565b91929350600e60005260008051602061517b833981519152916000925b848410612e8157505060209250010190565b80546020858501810191909152909301928101612e6f565b915050602093945060ff929192191683830152151560051b010190565b60115460009291612ec682612dea565b80825291600190818116908115612e995750600114612ee457505050565b91929350601160005260008051602061519b833981519152916000925b848410612f1357505060209250010190565b80546020858501810191909152909301928101612f01565b9060088210156102ba5752565b60005b838110612f4b5750506000910152565b8181015183820152602001612f3b565b90602091612f7481518092818552858086019101612f38565b601f01601f1916010190565b90604061305592612fd460a08251612f99868251612f2b565b6020810151612fa781612dd4565b602087015284810151858701526060810151606087015260808101516080870152015160a0850190612d0c565b60606020820151805160c0860152602081015160e08601528381015161010086015201516101208401520151906130216101608061014084015260608451918401526101c0830190612f5b565b906101a0604061304560208601519461015f19958686830301610180870152612f5b565b9401519282850301910152612f5b565b90565b6001600160401b0381116106c057601f01601f191660200190565b81601f820112156101715780359061308a82613058565b926130986040519485612db3565b8284526020838301011161017157816000926020809301838601378301015290565b906080600319830112610171576001600160401b0360043581811161017157836130e691600401613073565b92602435918211610171576130fd91600401613073565b906044356001600160a01b0381168103610171579060643590565b606060031982011261017157600435906001600160401b0382116101715761314291600401613073565b906024356001600160a01b0381168103610171579060443590565b6060602061305593818452805151828501520151916040808201520190612f80565b1561318657565b60405162461bcd60e51b815260206004820152600e60248201526d494e56414c49445f53544154555360901b6044820152606490fd5b90816020910312610171575180151581036101715790565b156131db57565b60405162461bcd60e51b81526020600482015260126024820152712ca7aaafa0a922afaa2422afa9a2a62622a960711b6044820152606490fd5b60088110156102ba5760ff801960025416911617600255565b601f811161323a575050565b6000906011825260008051602061519b833981519152906020601f850160051c83019410613283575b601f0160051c01915b82811061327857505050565b81815560010161326c565b9092508290613263565b601f8111613299575050565b600090600d82526000805160206151bb833981519152906020601f850160051c830194106132e2575b601f0160051c01915b8281106132d757505050565b8181556001016132cb565b90925082906132c2565b601f81116132f8575050565b600090600b82526000805160206151db833981519152906020601f850160051c83019410613341575b601f0160051c01915b82811061333657505050565b81815560010161332a565b9092508290613321565b601f8111613357575050565b600090600c825260008051602061515b833981519152906020601f850160051c830194106133a0575b601f0160051c01915b82811061339557505050565b818155600101613389565b9092508290613380565b601f81116133b6575050565b600090600e825260008051602061517b833981519152906020601f850160051c830194106133ff575b601f0160051c01915b8281106133f457505050565b8181556001016133e8565b90925082906133df565b6020808252600180548284015260408084015260ff60025461343060608601838316612f2b565b60081c1661343d81612dd4565b608084015260035460a084015260045460c084015260055460e084015261346e60ff60065416610100850190612d0c565b6007546101208401526008546101408401526009546101609081850152600a546101808501526101a084015260606101c0840152600092600b546134b181612dea565b90816102208401528381169081600014613659575060011461360d575b506101bf1981850381016101e0830152600c546000956134ed82612dea565b808252918581169081156135f057506001146135a4575b50506102009082860301910152600092600d549161352183612dea565b80835292818116908115613587575060011461353f575b5050505090565b92935090600d6000526000805160206151bb83398151915292846000945b8386106135735750505050010138808080613538565b80548587018301529401938590820161355d565b60ff191685840152505090151560051b0101905038808080613538565b8591929650600c60005260008051602061515b83398151915290856000925b8584106135da575050010194905061020038613504565b80548385018601528894909301928791016135c3565b60ff1916828801525090151560051b018401945061020038613504565b909350600b6000526000805160206151db83398151915283836000925b84841061364357505050610240915084010192386134ce565b8054610240858a0101520191019083859161362a565b929550506102409160ff191682860152151560051b84010192386134ce565b1561367f57565b60405162461bcd60e51b815260206004820152600b60248201526a2ba927a723afaa27a5a2a760a91b6044820152606490fd5b604051906136bf82612d85565b60048252630307830360e41b6020830152565b81601f820112156101715780516136e881613058565b926136f66040519485612db3565b81845260208284010111610171576130559160208085019101612f38565b51906001600160a01b038216820361017157565b60185460408051637276069d60e01b815260606004820152958695919490939192909186916001600160a01b0390811691613767906064850190612f5b565b9316602483015283604483015281600098899403915afa92831561386d57859186809681966137f0575b5082868051810103126137ed57506137ab60208601613714565b5081850151036137bc575093929190565b5162461bcd60e51b815260206004820152600b60248201526a57524f4e475f4e4f4e434560a81b6044820152606490fd5b80fd5b97509450915093503d8084873e6138078187612db3565b850193608086860312613869578551916001600160401b039283811161386557866138339189016136d2565b9560208801519383890151986060810151918211613861576138569291016136d2565b959296959438613791565b8780fd5b8580fd5b8380fd5b513d86823e3d90fd5b9081602091031261017157516001600160a01b03811681036101715790565b60ff6006541660038110156102ba576001810361390d575060175460405163f77800e560e01b815290602090829060049082906001600160a01b03165afa9081156107b6576000916138e5575090565b613055915060203d8111613906575b6138fe8183612db3565b810190613876565b503d6138f4565b60020361394c57601754604051635f117aa360e11b815290602090829060049082906001600160a01b03165afa9081156107b6576000916138e5575090565b600090565b60038110156102ba57600052602160205260406000209060005260205260406000205490565b818102929181159184041417156119c557565b919082039182116119c557565b6019546001600160a01b031633036139ab57565b60405162461bcd60e51b815260206004820152600a60248201526913d3931657d59055531560b21b6044820152606490fd5b909493926060926139f2836080810198612d0c565b602083015260408201520152565b919060038310156102ba57604092613a777ffc75911105c5435503d8ce6e41bf92051ed6da32a2077c1a8f73e1d251f64cde936000908382526021602052868220858352602052613a548188842054613a7d565b8097838683955260216020528181208882526020522055604051948594856139dd565b0390a190565b919082018092116119c557565b60038110156102ba576000818152602160205260409384822084835260205284822054818110613b0857918186613ae7613a77947f77008762ca31a384e88f2217752cdef978440c9ad826b7b891c59a8e61281a3198979661398a565b809884878396526021602052818120898252602052205551948594856139dd565b855162461bcd60e51b8152602060048201526014602482015273125394d551919250d251539517d1115413d4d25560621b6044820152606490fd5b15613b4a57565b60405162461bcd60e51b815260206004820152601760248201527f4e4f545f5448455f53454c4c45525f4f525f42555945520000000000000000006044820152606490fd5b604051613b9f8161025b81612e24565b60208151910120604051613bb68161025b81612eb6565b60208151910120908214918215613bcc57505090565b14919050565b90613bdd9291613728565b50505080516020809201206040908151613bfa8161025b81612e24565b83815191012081148015613c88575b15613c4e578151613c1d8161025b81612e24565b80519084012003613c3f575190613c3782610f1481612e24565b815191012090565b5190613c3782610f1481612eb6565b815162461bcd60e51b81526004810184905260136024820152722727aa2fa9a2a62622a92fa7a92fa12aaca2a960691b6044820152606490fd5b508151613c988161025b81612eb6565b8381519101208114613c09565b60405190613cb682610f1481612e24565b815160209283012003613d7d5760405190816000601c54613cd681612dea565b80845290600190818116908115613d5d5750600114613cfe575b505061305592500382612db3565b90939150601c6000527f0e4562a10381dec21b205ed72637e6b1b523bdd0e4d4d50af5cd23dd4500a211936000915b818310613d4557505061305593508201013880613cf0565b85548784018501529485019486945091830191613d2d565b91505061305594925060ff191682840152151560051b8201013880613cf0565b60405190816000601d54613d9081612dea565b80845290600190818116908115613d5d5750600114613db757505061305592500382612db3565b90939150601d6000527f6d4407e7be21f808e6509aa9fa9143369579dd7d760fe20a2c09680fc146134f936000915b818310613dfe57505061305593508201013880613cf0565b85548784018501529485019486945091830191613de6565b15613e1d57565b60405162461bcd60e51b815260206004820152600a6024820152692727aa2fa9a2a62622a960b11b6044820152606490fd5b604090613e6d93959492956060820196825260208201520190612d0c565b565b929060ff6002541660088110156102ba57806002613e9692141590816140be575b5061317f565b81156140885760038410156102ba5783158015613eed575b507f7d53254b9393ec490c848e90ed920cf3b18c2151daa4b322875f24dd6301206c9250613a77613ee0838387613a00565b9460405193849384613e4f565b600185146000811561407d575b811561406d575b50613f0c9150613678565b613f15846150cc565b926001600160a01b0380613f28876150cc565b604051636eb1769f60e11b81526001600160a01b0385166004820152306024820152602094929091859183916044918391165afa80156107b657869160009161403d575b5010613fff579060648392600083604051998a9586946323b872dd60e01b8652166004850152306024850152896044850152165af180156107b6577f7d53254b9393ec490c848e90ed920cf3b18c2151daa4b322875f24dd6301206c94613fdc92600092613fe2575b505061508e565b38613eae565b613ff89250803d106107af576107a18183612db3565b3880613fd5565b60405162461bcd60e51b8152600481018490526016602482015275494e53554646494349454e545f414c4c4f57414e434560501b6044820152606490fd5b91508482813d8311614066575b6140548183612db3565b810103126137ed575085905138613f6c565b503d61404a565b90506102ba57613f0c9038613f01565b600287149150613efa565b60405162461bcd60e51b815260206004820152600e60248201526d14d51052d157d49154555254915160921b6044820152606490fd5b60039150141538613e90565b3d156140f5573d906140db82613058565b916140e96040519384612db3565b82523d6000602084013e565b606090565b1561410157565b60405162461bcd60e51b815260206004820152600b60248201526a10d0531317d1905253115160aa1b6044820152606490fd5b9291614141818386613a8a565b60175460408051632ee4b68b60e11b815260049793959194919391926020926001600160a01b0391821684848c81845afa9384156143bb578b9186916000966143c6575b5089516318da001160e01b815292839182905afa9081156143bb57908391600091614384575b5016926143045760038110156142e457806142075750507f44e7d684df94a05f40ae4ea3f03cbd42ce0647bd9d92e4105e296c10088f41aa959697506000808080866141fb955af1610a6e6140ca565b8351928352820152a190565b60018114600081156142f9575b81156142d6575b5092600086936142386142699d946142338998613678565b6150cc565b169289519c8d958694859363a9059cbb60e01b8552840160209093929193604081019460018060a01b031681520152565b03925af19687156142cb577f44e7d684df94a05f40ae4ea3f03cbd42ce0647bd9d92e4105e296c10088f41aa9596976142a9916000916142ae575061508e565b6141fb565b6142c59150833d85116107af576107a18183612db3565b38610b91565b84513d6000823e3d90fd5b90506142e45760008061421b565b60218a634e487b7160e01b6000525260246000fd5b600283149150614214565b915050600381101561436f577f44e7d684df94a05f40ae4ea3f03cbd42ce0647bd9d92e4105e296c10088f41aa9596975060028114600014614350575061434a82614400565b506141fb565b60018103614362575061434a82614cc4565b6142a95761434a826147a9565b602188634e487b7160e01b6000525260246000fd5b91508582813d83116143b4575b61439b8183612db3565b810103126137ed57506143ae8391613714565b386141ab565b503d614391565b88513d6000823e3d90fd5b6143de919650823d84116107af576107a18183612db3565b9438614185565b90816020910312610171575162ffffff811681036101715790565b60175460408051635f117aa360e11b808252919493926020926004916001600160a01b039190859085908590829086165afa9384156143bb5760009461478a575b50601a54885163095ea7b360e01b8082529184166001600160a01b03168582019081526020810189905291959091879183918290600090889083906040010393165af180156146615761476d575b508160175416958851918252858285818a5afa9182156146615760009261474e575b508851906325abd85f60e11b92838352878387818c5afa9283156146c55760009361472f575b508a51928884602481633488e95960e21b9d8e825260008c8301525afa9182156146ef5761450d94600093614717575b50614acd565b826017541691895190815286818681865afa90811561468b576000916146fa575b50895163f77800e560e01b808252989088818881885afa9182156146ef5789916000936146d0575b5060248d5180978193825260018b8301525afa9182156146c557614581946000936146965750614acd565b94816017541692885182815286818381885afa92831561468b57879160009461466c575b50828b518097819382525afa928315614661578795879560009561463d575b508a519081526001600160a01b03909416918401918252602082019590955291938492839160009183906040010393165af180156146325761460e949550614614575b5050614cc4565b50600190565b8161462a92903d106107af576107a18183612db3565b503880614607565b85513d6000823e3d90fd5b60009291955061465990873d8911613906576138fe8183612db3565b9490916145c4565b89513d6000823e3d90fd5b614684919450823d8411613906576138fe8183612db3565b92386145a5565b8a513d6000823e3d90fd5b6146b7919350893d8b116146be575b6146af8183612db3565b8101906143e5565b9138614507565b503d6146a5565b8b513d6000823e3d90fd5b6146e8919350823d8411613906576138fe8183612db3565b9138614556565b8c513d6000823e3d90fd5b6147119150873d8911613906576138fe8183612db3565b3861452e565b6146b79193508a3d8c116146be576146af8183612db3565b614747919350883d8a11613906576138fe8183612db3565b91386144d7565b614766919250863d8811613906576138fe8183612db3565b90386144b1565b61478390863d88116107af576107a18183612db3565b503861448f565b6147a2919450853d8711613906576138fe8183612db3565b9238614441565b90601754600092604080516325abd85f60e11b8082526020936004928581858160018060a01b03809b165afa908115614aa6579087918a91614ab0575b501688813b156137ed57829185875180948193630d0e30db60e41b83525af18015614aa657614a93575b508783918688601754168751968780928882525afa948515614a89578295614a6a575b5087601a541694878751809281868d826148708963095ea7b360e01b9e8f84528d840160209093929193604081019460018060a01b031681520152565b0393165af180156149bc57614a4d575b50876017541693865190815287818581885afa9081156149bc578391614a30575b5086519063f77800e560e01b9586835289838781845afa928315614a075760249392918b918794614a11575b508a51633488e95960e21b815260018982015294859182905afa928315614a0757906149029493929186936149ef5750614acd565b96806017541694865194808652888686818a5afa9586156149e55790899185976149c6575b508589518099819382525afa9586156149bc579183918a989795938a97959661499d575b506149768851998a97889687948552840160209093929193604081019460018060a01b031681520152565b0393165af1908115614994575061460e949550614614575050614cc4565b513d87823e3d90fd5b6149b5919650873d8911613906576138fe8183612db3565b943861494b565b87513d85823e3d90fd5b6149de919750823d8411613906576138fe8183612db3565b9538614927565b88513d86823e3d90fd5b6146b79193508b3d8d116146be576146af8183612db3565b89513d87823e3d90fd5b614a29919450823d8411613906576138fe8183612db3565b92386148cd565b614a479150883d8a11613906576138fe8183612db3565b386148a1565b614a6390883d8a116107af576107a18183612db3565b5038614880565b614a82919550873d8911613906576138fe8183612db3565b9338614833565b86513d84823e3d90fd5b97614a9f849299612da0565b9790614810565b85513d8b823e3d90fd5b614ac79150873d8911613906576138fe8183612db3565b386147e6565b601a54604051636eb1769f60e11b81523060048201526001600160a01b039182166024820181905293959493929091169190602081604481865afa80156107b6578591600091614c8f575b5010614c3d575b50603c4201938442116119c557601a546040516101008101916001600160a01b0316906001600160401b038311818410176106c05760409283529384526001600160a01b03928316602085810191825262ffffff9687168685019081523060608801908152608088019a8b5260a08801998a52600060c0890181815260e08a01828152975163414bf38960e01b81529951891660048b01529451881660248a01529151909816604488015296518516606487015297516084860152955160a4850152945160c4840152511660e482015292918391610104918391905af19081156107b657600091614c0e575090565b906020823d602011614c35575b81614c2860209383612db3565b810103126137ed57505190565b3d9150614c1b565b60405163095ea7b360e01b8152600481019190915260001960248201526020816044816000865af180156107b65715614b1f57614c889060203d6020116107af576107a18183612db3565b5038614b1f565b91506020823d602011614cbc575b81614caa60209383612db3565b810103126137ed575084905138614b18565b3d9150614c9d565b60175460405163f77800e560e01b81526001600160a01b03916020908290600490829086165afa9081156107b657600091614d43575b501690813b1561017157600091602483926040519485938492630852cd8d60e31b845260048401525af180156107b657614d345750600190565b614d3d90612da0565b3861460e565b614d5b915060203d8111613906576138fe8183612db3565b38614cfa565b92909160ff6002541660088110156102ba57806002614d8892141590816140be575061317f565b60038410156102ba5783614df1576000808084819482908215614de7575b6001600160a01b031690f1156107b6577ff710aed018092bd38ab8d98fe9aa682f6b3aa552004e37cb2e0d6e3e669582ee915b613a77613ee0838387613a8a565b6108fc9150614da6565b916001841460008115614ec6575b8115614eb8575b5082614e5d94614e17602093613678565b6001600160a01b03614e28886150cc565b1690600060405180988195829463a9059cbb60e01b84526004840160209093929193604081019460018060a01b031681520152565b03925af19283156107b6577ff710aed018092bd38ab8d98fe9aa682f6b3aa552004e37cb2e0d6e3e669582ee93614e9b91600091614ea0575061508e565b614dd9565b6142c5915060203d81116107af576107a18183612db3565b90506102ba57600082614e06565b600286149150614dff565b90614edc9291613728565b505050805160208092012090604051600060115491614efa83612dea565b8082528185810193600195878782169182600014615073575050600114615027575b614f2892500382612db3565b5190208314908115614f72575b5015614f3f575090565b6064906040519062461bcd60e51b82526004820152600c60248201526b15539055551213d49256915160a21b6044820152fd5b604051600e54925090816000614f8785612dea565b9283835286830195878282169182600014615009575050600114614fbe575b50614fb392500382612db3565b519020821438614f35565b869150600e60005260008051602061517b833981519152906000915b858310614ff1575050614fb3935082010138614fa6565b80548388018501528694508893909201918101614fda565b60ff19168852614fb395151560051b8501019250389150614fa69050565b50506011600052818560008051602061519b833981519152866000915b85831061505a575050614f289350820101614f1c565b8091929450548385880101520191018690868593615044565b60ff19168752614f2894151560051b8401019150614f1c9050565b1561509557565b60405162461bcd60e51b815260206004820152600f60248201526e1514905394d1915497d19052531151608a1b6044820152606490fd5b60038110156102ba5760028114615121576001146150e957600090565b60175460405163f77800e560e01b815290602090829060049082906001600160a01b03165afa9081156107b6576000916138e5575090565b50601754604051635f117aa360e11b815290602090829060049082906001600160a01b03165afa9081156107b6576000916138e557509056fedf6966c971051c3d54ec59162606531493a51404a002842f56009d7e5cf4a8c7bb7b4a454dc3493923482f07822329ed19e8244eff582cc204f8554c3620c3fd31ecc21a745e3968a04e9570e4425bc18fa8019c68028196b546d1669c200c68d7b6990105719101dabeb77144f2a3385c8033acd3af97e9423a695e81ad1eb50175b7a638427703f0dbe7bb9bbf987a2551717b34e79f33b5b1008d1fa01db9a26469706673582212205874f625d95f4a43cb1f8385a90fa342181aa7728f98ac4cb91c98bd27e91aa064736f6c63430008130033",
  "linkReferences": {},
  "deployedLinkReferences": {}
}