{
  "_format": "hh-sol-artifact-1",
  "contractName": "MecenateFeed",
  "sourceName": "contracts/features/MecenateFeed.sol",
  "abi": [
    {
      "anonymous": false,
      "inputs": [
        {
          "components": [
            {
              "components": [
                {
                  "internalType": "address",
                  "name": "evmAddress",
                  "type": "address"
                },
                {
                  "internalType": "bytes",
                  "name": "sismoVaultId",
                  "type": "bytes"
                },
                {
                  "internalType": "bytes",
                  "name": "publicKey",
                  "type": "bytes"
                }
              ],
              "internalType": "struct Structures.User",
              "name": "creator",
              "type": "tuple"
            },
            {
              "components": [
                {
                  "components": [
                    {
                      "internalType": "enum Structures.PostStatus",
                      "name": "status",
                      "type": "uint8"
                    },
                    {
                      "internalType": "enum Structures.PostType",
                      "name": "postType",
                      "type": "uint8"
                    },
                    {
                      "internalType": "uint256",
                      "name": "creationTimeStamp",
                      "type": "uint256"
                    },
                    {
                      "internalType": "uint256",
                      "name": "endTimeStamp",
                      "type": "uint256"
                    },
                    {
                      "internalType": "uint256",
                      "name": "duration",
                      "type": "uint256"
                    },
                    {
                      "internalType": "enum Structures.Tokens",
                      "name": "tokenId",
                      "type": "uint8"
                    },
                    {
                      "internalType": "bytes32",
                      "name": "postId",
                      "type": "bytes32"
                    }
                  ],
                  "internalType": "struct Structures.PostSettings",
                  "name": "settings",
                  "type": "tuple"
                },
                {
                  "components": [
                    {
                      "internalType": "address",
                      "name": "buyer",
                      "type": "address"
                    },
                    {
                      "internalType": "address",
                      "name": "seller",
                      "type": "address"
                    },
                    {
                      "internalType": "uint256",
                      "name": "stake",
                      "type": "uint256"
                    },
                    {
                      "internalType": "uint256",
                      "name": "payment",
                      "type": "uint256"
                    },
                    {
                      "internalType": "uint256",
                      "name": "punishment",
                      "type": "uint256"
                    },
                    {
                      "internalType": "uint256",
                      "name": "penalty",
                      "type": "uint256"
                    }
                  ],
                  "internalType": "struct Structures.PostEscrow",
                  "name": "escrow",
                  "type": "tuple"
                },
                {
                  "components": [
                    {
                      "internalType": "bytes",
                      "name": "encryptedData",
                      "type": "bytes"
                    },
                    {
                      "internalType": "bytes",
                      "name": "encryptedKey",
                      "type": "bytes"
                    },
                    {
                      "internalType": "bytes",
                      "name": "decryptedData",
                      "type": "bytes"
                    }
                  ],
                  "internalType": "struct Structures.PostEncryptedData",
                  "name": "data",
                  "type": "tuple"
                }
              ],
              "internalType": "struct Structures.PostData",
              "name": "postdata",
              "type": "tuple"
            }
          ],
          "indexed": false,
          "internalType": "struct Structures.Post",
          "name": "post",
          "type": "tuple"
        }
      ],
      "name": "Accepted",
      "type": "event"
    },
    {
      "anonymous": false,
      "inputs": [
        {
          "components": [
            {
              "components": [
                {
                  "internalType": "address",
                  "name": "evmAddress",
                  "type": "address"
                },
                {
                  "internalType": "bytes",
                  "name": "sismoVaultId",
                  "type": "bytes"
                },
                {
                  "internalType": "bytes",
                  "name": "publicKey",
                  "type": "bytes"
                }
              ],
              "internalType": "struct Structures.User",
              "name": "creator",
              "type": "tuple"
            },
            {
              "components": [
                {
                  "components": [
                    {
                      "internalType": "enum Structures.PostStatus",
                      "name": "status",
                      "type": "uint8"
                    },
                    {
                      "internalType": "enum Structures.PostType",
                      "name": "postType",
                      "type": "uint8"
                    },
                    {
                      "internalType": "uint256",
                      "name": "creationTimeStamp",
                      "type": "uint256"
                    },
                    {
                      "internalType": "uint256",
                      "name": "endTimeStamp",
                      "type": "uint256"
                    },
                    {
                      "internalType": "uint256",
                      "name": "duration",
                      "type": "uint256"
                    },
                    {
                      "internalType": "enum Structures.Tokens",
                      "name": "tokenId",
                      "type": "uint8"
                    },
                    {
                      "internalType": "bytes32",
                      "name": "postId",
                      "type": "bytes32"
                    }
                  ],
                  "internalType": "struct Structures.PostSettings",
                  "name": "settings",
                  "type": "tuple"
                },
                {
                  "components": [
                    {
                      "internalType": "address",
                      "name": "buyer",
                      "type": "address"
                    },
                    {
                      "internalType": "address",
                      "name": "seller",
                      "type": "address"
                    },
                    {
                      "internalType": "uint256",
                      "name": "stake",
                      "type": "uint256"
                    },
                    {
                      "internalType": "uint256",
                      "name": "payment",
                      "type": "uint256"
                    },
                    {
                      "internalType": "uint256",
                      "name": "punishment",
                      "type": "uint256"
                    },
                    {
                      "internalType": "uint256",
                      "name": "penalty",
                      "type": "uint256"
                    }
                  ],
                  "internalType": "struct Structures.PostEscrow",
                  "name": "escrow",
                  "type": "tuple"
                },
                {
                  "components": [
                    {
                      "internalType": "bytes",
                      "name": "encryptedData",
                      "type": "bytes"
                    },
                    {
                      "internalType": "bytes",
                      "name": "encryptedKey",
                      "type": "bytes"
                    },
                    {
                      "internalType": "bytes",
                      "name": "decryptedData",
                      "type": "bytes"
                    }
                  ],
                  "internalType": "struct Structures.PostEncryptedData",
                  "name": "data",
                  "type": "tuple"
                }
              ],
              "internalType": "struct Structures.PostData",
              "name": "postdata",
              "type": "tuple"
            }
          ],
          "indexed": false,
          "internalType": "struct Structures.Post",
          "name": "post",
          "type": "tuple"
        }
      ],
      "name": "Created",
      "type": "event"
    },
    {
      "anonymous": false,
      "inputs": [
        {
          "indexed": false,
          "internalType": "enum Structures.Tokens",
          "name": "tokenID",
          "type": "uint8"
        },
        {
          "indexed": false,
          "internalType": "address",
          "name": "user",
          "type": "address"
        },
        {
          "indexed": false,
          "internalType": "uint256",
          "name": "amount",
          "type": "uint256"
        },
        {
          "indexed": false,
          "internalType": "uint256",
          "name": "newDeposit",
          "type": "uint256"
        }
      ],
      "name": "DepositDecreased",
      "type": "event"
    },
    {
      "anonymous": false,
      "inputs": [
        {
          "indexed": false,
          "internalType": "enum Structures.Tokens",
          "name": "tokenID",
          "type": "uint8"
        },
        {
          "indexed": false,
          "internalType": "address",
          "name": "user",
          "type": "address"
        },
        {
          "indexed": false,
          "internalType": "uint256",
          "name": "amount",
          "type": "uint256"
        },
        {
          "indexed": false,
          "internalType": "uint256",
          "name": "newDeposit",
          "type": "uint256"
        }
      ],
      "name": "DepositIncreased",
      "type": "event"
    },
    {
      "anonymous": false,
      "inputs": [
        {
          "components": [
            {
              "components": [
                {
                  "internalType": "address",
                  "name": "evmAddress",
                  "type": "address"
                },
                {
                  "internalType": "bytes",
                  "name": "sismoVaultId",
                  "type": "bytes"
                },
                {
                  "internalType": "bytes",
                  "name": "publicKey",
                  "type": "bytes"
                }
              ],
              "internalType": "struct Structures.User",
              "name": "creator",
              "type": "tuple"
            },
            {
              "components": [
                {
                  "components": [
                    {
                      "internalType": "enum Structures.PostStatus",
                      "name": "status",
                      "type": "uint8"
                    },
                    {
                      "internalType": "enum Structures.PostType",
                      "name": "postType",
                      "type": "uint8"
                    },
                    {
                      "internalType": "uint256",
                      "name": "creationTimeStamp",
                      "type": "uint256"
                    },
                    {
                      "internalType": "uint256",
                      "name": "endTimeStamp",
                      "type": "uint256"
                    },
                    {
                      "internalType": "uint256",
                      "name": "duration",
                      "type": "uint256"
                    },
                    {
                      "internalType": "enum Structures.Tokens",
                      "name": "tokenId",
                      "type": "uint8"
                    },
                    {
                      "internalType": "bytes32",
                      "name": "postId",
                      "type": "bytes32"
                    }
                  ],
                  "internalType": "struct Structures.PostSettings",
                  "name": "settings",
                  "type": "tuple"
                },
                {
                  "components": [
                    {
                      "internalType": "address",
                      "name": "buyer",
                      "type": "address"
                    },
                    {
                      "internalType": "address",
                      "name": "seller",
                      "type": "address"
                    },
                    {
                      "internalType": "uint256",
                      "name": "stake",
                      "type": "uint256"
                    },
                    {
                      "internalType": "uint256",
                      "name": "payment",
                      "type": "uint256"
                    },
                    {
                      "internalType": "uint256",
                      "name": "punishment",
                      "type": "uint256"
                    },
                    {
                      "internalType": "uint256",
                      "name": "penalty",
                      "type": "uint256"
                    }
                  ],
                  "internalType": "struct Structures.PostEscrow",
                  "name": "escrow",
                  "type": "tuple"
                },
                {
                  "components": [
                    {
                      "internalType": "bytes",
                      "name": "encryptedData",
                      "type": "bytes"
                    },
                    {
                      "internalType": "bytes",
                      "name": "encryptedKey",
                      "type": "bytes"
                    },
                    {
                      "internalType": "bytes",
                      "name": "decryptedData",
                      "type": "bytes"
                    }
                  ],
                  "internalType": "struct Structures.PostEncryptedData",
                  "name": "data",
                  "type": "tuple"
                }
              ],
              "internalType": "struct Structures.PostData",
              "name": "postdata",
              "type": "tuple"
            }
          ],
          "indexed": false,
          "internalType": "struct Structures.Post",
          "name": "post",
          "type": "tuple"
        }
      ],
      "name": "Finalized",
      "type": "event"
    },
    {
      "anonymous": false,
      "inputs": [
        {
          "indexed": false,
          "internalType": "uint8",
          "name": "version",
          "type": "uint8"
        }
      ],
      "name": "Initialized",
      "type": "event"
    },
    {
      "anonymous": false,
      "inputs": [
        {
          "components": [
            {
              "components": [
                {
                  "internalType": "address",
                  "name": "evmAddress",
                  "type": "address"
                },
                {
                  "internalType": "bytes",
                  "name": "sismoVaultId",
                  "type": "bytes"
                },
                {
                  "internalType": "bytes",
                  "name": "publicKey",
                  "type": "bytes"
                }
              ],
              "internalType": "struct Structures.User",
              "name": "creator",
              "type": "tuple"
            },
            {
              "components": [
                {
                  "components": [
                    {
                      "internalType": "enum Structures.PostStatus",
                      "name": "status",
                      "type": "uint8"
                    },
                    {
                      "internalType": "enum Structures.PostType",
                      "name": "postType",
                      "type": "uint8"
                    },
                    {
                      "internalType": "uint256",
                      "name": "creationTimeStamp",
                      "type": "uint256"
                    },
                    {
                      "internalType": "uint256",
                      "name": "endTimeStamp",
                      "type": "uint256"
                    },
                    {
                      "internalType": "uint256",
                      "name": "duration",
                      "type": "uint256"
                    },
                    {
                      "internalType": "enum Structures.Tokens",
                      "name": "tokenId",
                      "type": "uint8"
                    },
                    {
                      "internalType": "bytes32",
                      "name": "postId",
                      "type": "bytes32"
                    }
                  ],
                  "internalType": "struct Structures.PostSettings",
                  "name": "settings",
                  "type": "tuple"
                },
                {
                  "components": [
                    {
                      "internalType": "address",
                      "name": "buyer",
                      "type": "address"
                    },
                    {
                      "internalType": "address",
                      "name": "seller",
                      "type": "address"
                    },
                    {
                      "internalType": "uint256",
                      "name": "stake",
                      "type": "uint256"
                    },
                    {
                      "internalType": "uint256",
                      "name": "payment",
                      "type": "uint256"
                    },
                    {
                      "internalType": "uint256",
                      "name": "punishment",
                      "type": "uint256"
                    },
                    {
                      "internalType": "uint256",
                      "name": "penalty",
                      "type": "uint256"
                    }
                  ],
                  "internalType": "struct Structures.PostEscrow",
                  "name": "escrow",
                  "type": "tuple"
                },
                {
                  "components": [
                    {
                      "internalType": "bytes",
                      "name": "encryptedData",
                      "type": "bytes"
                    },
                    {
                      "internalType": "bytes",
                      "name": "encryptedKey",
                      "type": "bytes"
                    },
                    {
                      "internalType": "bytes",
                      "name": "decryptedData",
                      "type": "bytes"
                    }
                  ],
                  "internalType": "struct Structures.PostEncryptedData",
                  "name": "data",
                  "type": "tuple"
                }
              ],
              "internalType": "struct Structures.PostData",
              "name": "postdata",
              "type": "tuple"
            }
          ],
          "indexed": false,
          "internalType": "struct Structures.Post",
          "name": "post",
          "type": "tuple"
        }
      ],
      "name": "Invalid",
      "type": "event"
    },
    {
      "anonymous": false,
      "inputs": [
        {
          "components": [
            {
              "components": [
                {
                  "internalType": "address",
                  "name": "evmAddress",
                  "type": "address"
                },
                {
                  "internalType": "bytes",
                  "name": "sismoVaultId",
                  "type": "bytes"
                },
                {
                  "internalType": "bytes",
                  "name": "publicKey",
                  "type": "bytes"
                }
              ],
              "internalType": "struct Structures.User",
              "name": "creator",
              "type": "tuple"
            },
            {
              "components": [
                {
                  "components": [
                    {
                      "internalType": "enum Structures.PostStatus",
                      "name": "status",
                      "type": "uint8"
                    },
                    {
                      "internalType": "enum Structures.PostType",
                      "name": "postType",
                      "type": "uint8"
                    },
                    {
                      "internalType": "uint256",
                      "name": "creationTimeStamp",
                      "type": "uint256"
                    },
                    {
                      "internalType": "uint256",
                      "name": "endTimeStamp",
                      "type": "uint256"
                    },
                    {
                      "internalType": "uint256",
                      "name": "duration",
                      "type": "uint256"
                    },
                    {
                      "internalType": "enum Structures.Tokens",
                      "name": "tokenId",
                      "type": "uint8"
                    },
                    {
                      "internalType": "bytes32",
                      "name": "postId",
                      "type": "bytes32"
                    }
                  ],
                  "internalType": "struct Structures.PostSettings",
                  "name": "settings",
                  "type": "tuple"
                },
                {
                  "components": [
                    {
                      "internalType": "address",
                      "name": "buyer",
                      "type": "address"
                    },
                    {
                      "internalType": "address",
                      "name": "seller",
                      "type": "address"
                    },
                    {
                      "internalType": "uint256",
                      "name": "stake",
                      "type": "uint256"
                    },
                    {
                      "internalType": "uint256",
                      "name": "payment",
                      "type": "uint256"
                    },
                    {
                      "internalType": "uint256",
                      "name": "punishment",
                      "type": "uint256"
                    },
                    {
                      "internalType": "uint256",
                      "name": "penalty",
                      "type": "uint256"
                    }
                  ],
                  "internalType": "struct Structures.PostEscrow",
                  "name": "escrow",
                  "type": "tuple"
                },
                {
                  "components": [
                    {
                      "internalType": "bytes",
                      "name": "encryptedData",
                      "type": "bytes"
                    },
                    {
                      "internalType": "bytes",
                      "name": "encryptedKey",
                      "type": "bytes"
                    },
                    {
                      "internalType": "bytes",
                      "name": "decryptedData",
                      "type": "bytes"
                    }
                  ],
                  "internalType": "struct Structures.PostEncryptedData",
                  "name": "data",
                  "type": "tuple"
                }
              ],
              "internalType": "struct Structures.PostData",
              "name": "postdata",
              "type": "tuple"
            }
          ],
          "indexed": false,
          "internalType": "struct Structures.Post",
          "name": "post",
          "type": "tuple"
        }
      ],
      "name": "MadePublic",
      "type": "event"
    },
    {
      "anonymous": false,
      "inputs": [
        {
          "components": [
            {
              "components": [
                {
                  "internalType": "address",
                  "name": "evmAddress",
                  "type": "address"
                },
                {
                  "internalType": "bytes",
                  "name": "sismoVaultId",
                  "type": "bytes"
                },
                {
                  "internalType": "bytes",
                  "name": "publicKey",
                  "type": "bytes"
                }
              ],
              "internalType": "struct Structures.User",
              "name": "creator",
              "type": "tuple"
            },
            {
              "components": [
                {
                  "components": [
                    {
                      "internalType": "enum Structures.PostStatus",
                      "name": "status",
                      "type": "uint8"
                    },
                    {
                      "internalType": "enum Structures.PostType",
                      "name": "postType",
                      "type": "uint8"
                    },
                    {
                      "internalType": "uint256",
                      "name": "creationTimeStamp",
                      "type": "uint256"
                    },
                    {
                      "internalType": "uint256",
                      "name": "endTimeStamp",
                      "type": "uint256"
                    },
                    {
                      "internalType": "uint256",
                      "name": "duration",
                      "type": "uint256"
                    },
                    {
                      "internalType": "enum Structures.Tokens",
                      "name": "tokenId",
                      "type": "uint8"
                    },
                    {
                      "internalType": "bytes32",
                      "name": "postId",
                      "type": "bytes32"
                    }
                  ],
                  "internalType": "struct Structures.PostSettings",
                  "name": "settings",
                  "type": "tuple"
                },
                {
                  "components": [
                    {
                      "internalType": "address",
                      "name": "buyer",
                      "type": "address"
                    },
                    {
                      "internalType": "address",
                      "name": "seller",
                      "type": "address"
                    },
                    {
                      "internalType": "uint256",
                      "name": "stake",
                      "type": "uint256"
                    },
                    {
                      "internalType": "uint256",
                      "name": "payment",
                      "type": "uint256"
                    },
                    {
                      "internalType": "uint256",
                      "name": "punishment",
                      "type": "uint256"
                    },
                    {
                      "internalType": "uint256",
                      "name": "penalty",
                      "type": "uint256"
                    }
                  ],
                  "internalType": "struct Structures.PostEscrow",
                  "name": "escrow",
                  "type": "tuple"
                },
                {
                  "components": [
                    {
                      "internalType": "bytes",
                      "name": "encryptedData",
                      "type": "bytes"
                    },
                    {
                      "internalType": "bytes",
                      "name": "encryptedKey",
                      "type": "bytes"
                    },
                    {
                      "internalType": "bytes",
                      "name": "decryptedData",
                      "type": "bytes"
                    }
                  ],
                  "internalType": "struct Structures.PostEncryptedData",
                  "name": "data",
                  "type": "tuple"
                }
              ],
              "internalType": "struct Structures.PostData",
              "name": "postdata",
              "type": "tuple"
            }
          ],
          "indexed": false,
          "internalType": "struct Structures.Post",
          "name": "post",
          "type": "tuple"
        }
      ],
      "name": "Renounced",
      "type": "event"
    },
    {
      "anonymous": false,
      "inputs": [
        {
          "indexed": false,
          "internalType": "address",
          "name": "staker",
          "type": "address"
        },
        {
          "indexed": false,
          "internalType": "uint256",
          "name": "amount",
          "type": "uint256"
        },
        {
          "indexed": false,
          "internalType": "enum Structures.Tokens",
          "name": "tokenId",
          "type": "uint8"
        }
      ],
      "name": "StakeAdded",
      "type": "event"
    },
    {
      "anonymous": false,
      "inputs": [
        {
          "indexed": false,
          "internalType": "address",
          "name": "staker",
          "type": "address"
        },
        {
          "indexed": false,
          "internalType": "uint256",
          "name": "amount",
          "type": "uint256"
        }
      ],
      "name": "StakeBurned",
      "type": "event"
    },
    {
      "anonymous": false,
      "inputs": [
        {
          "indexed": false,
          "internalType": "address",
          "name": "staker",
          "type": "address"
        },
        {
          "indexed": false,
          "internalType": "uint256",
          "name": "amount",
          "type": "uint256"
        },
        {
          "indexed": false,
          "internalType": "enum Structures.Tokens",
          "name": "tokenId",
          "type": "uint8"
        }
      ],
      "name": "StakeTaken",
      "type": "event"
    },
    {
      "anonymous": false,
      "inputs": [
        {
          "components": [
            {
              "components": [
                {
                  "internalType": "address",
                  "name": "evmAddress",
                  "type": "address"
                },
                {
                  "internalType": "bytes",
                  "name": "sismoVaultId",
                  "type": "bytes"
                },
                {
                  "internalType": "bytes",
                  "name": "publicKey",
                  "type": "bytes"
                }
              ],
              "internalType": "struct Structures.User",
              "name": "creator",
              "type": "tuple"
            },
            {
              "components": [
                {
                  "components": [
                    {
                      "internalType": "enum Structures.PostStatus",
                      "name": "status",
                      "type": "uint8"
                    },
                    {
                      "internalType": "enum Structures.PostType",
                      "name": "postType",
                      "type": "uint8"
                    },
                    {
                      "internalType": "uint256",
                      "name": "creationTimeStamp",
                      "type": "uint256"
                    },
                    {
                      "internalType": "uint256",
                      "name": "endTimeStamp",
                      "type": "uint256"
                    },
                    {
                      "internalType": "uint256",
                      "name": "duration",
                      "type": "uint256"
                    },
                    {
                      "internalType": "enum Structures.Tokens",
                      "name": "tokenId",
                      "type": "uint8"
                    },
                    {
                      "internalType": "bytes32",
                      "name": "postId",
                      "type": "bytes32"
                    }
                  ],
                  "internalType": "struct Structures.PostSettings",
                  "name": "settings",
                  "type": "tuple"
                },
                {
                  "components": [
                    {
                      "internalType": "address",
                      "name": "buyer",
                      "type": "address"
                    },
                    {
                      "internalType": "address",
                      "name": "seller",
                      "type": "address"
                    },
                    {
                      "internalType": "uint256",
                      "name": "stake",
                      "type": "uint256"
                    },
                    {
                      "internalType": "uint256",
                      "name": "payment",
                      "type": "uint256"
                    },
                    {
                      "internalType": "uint256",
                      "name": "punishment",
                      "type": "uint256"
                    },
                    {
                      "internalType": "uint256",
                      "name": "penalty",
                      "type": "uint256"
                    }
                  ],
                  "internalType": "struct Structures.PostEscrow",
                  "name": "escrow",
                  "type": "tuple"
                },
                {
                  "components": [
                    {
                      "internalType": "bytes",
                      "name": "encryptedData",
                      "type": "bytes"
                    },
                    {
                      "internalType": "bytes",
                      "name": "encryptedKey",
                      "type": "bytes"
                    },
                    {
                      "internalType": "bytes",
                      "name": "decryptedData",
                      "type": "bytes"
                    }
                  ],
                  "internalType": "struct Structures.PostEncryptedData",
                  "name": "data",
                  "type": "tuple"
                }
              ],
              "internalType": "struct Structures.PostData",
              "name": "postdata",
              "type": "tuple"
            }
          ],
          "indexed": false,
          "internalType": "struct Structures.Post",
          "name": "post",
          "type": "tuple"
        }
      ],
      "name": "Valid",
      "type": "event"
    },
    {
      "inputs": [
        {
          "internalType": "enum Structures.Tokens",
          "name": "tokenId",
          "type": "uint8"
        },
        {
          "internalType": "uint256",
          "name": "paymentAmount",
          "type": "uint256"
        },
        {
          "internalType": "address",
          "name": "funder",
          "type": "address"
        },
        {
          "internalType": "address",
          "name": "buyer",
          "type": "address"
        },
        {
          "internalType": "bool",
          "name": "useStake",
          "type": "bool"
        }
      ],
      "name": "acceptPost",
      "outputs": [],
      "stateMutability": "payable",
      "type": "function"
    },
    {
      "inputs": [
        {
          "internalType": "enum Structures.Tokens",
          "name": "tokenId",
          "type": "uint8"
        },
        {
          "internalType": "address",
          "name": "_funder",
          "type": "address"
        },
        {
          "internalType": "uint256",
          "name": "amountToAdd",
          "type": "uint256"
        }
      ],
      "name": "addStake",
      "outputs": [
        {
          "internalType": "uint256",
          "name": "",
          "type": "uint256"
        }
      ],
      "stateMutability": "payable",
      "type": "function"
    },
    {
      "inputs": [
        {
          "internalType": "bytes32",
          "name": "postId",
          "type": "bytes32"
        }
      ],
      "name": "containPostId",
      "outputs": [
        {
          "internalType": "bool",
          "name": "",
          "type": "bool"
        }
      ],
      "stateMutability": "view",
      "type": "function"
    },
    {
      "inputs": [
        {
          "internalType": "bytes",
          "name": "encryptedHash",
          "type": "bytes"
        },
        {
          "internalType": "enum Structures.PostType",
          "name": "postType",
          "type": "uint8"
        },
        {
          "internalType": "enum Structures.PostDuration",
          "name": "postDuration",
          "type": "uint8"
        },
        {
          "internalType": "uint256",
          "name": "payment",
          "type": "uint256"
        },
        {
          "internalType": "uint256",
          "name": "stakeAmount",
          "type": "uint256"
        },
        {
          "internalType": "enum Structures.Tokens",
          "name": "tokenId",
          "type": "uint8"
        },
        {
          "internalType": "address",
          "name": "funder",
          "type": "address"
        },
        {
          "internalType": "address",
          "name": "seller",
          "type": "address"
        },
        {
          "internalType": "bool",
          "name": "useStake",
          "type": "bool"
        }
      ],
      "name": "createPost",
      "outputs": [],
      "stateMutability": "payable",
      "type": "function"
    },
    {
      "inputs": [
        {
          "internalType": "bool",
          "name": "valid",
          "type": "bool"
        },
        {
          "internalType": "uint256",
          "name": "punishment",
          "type": "uint256"
        },
        {
          "internalType": "bytes32",
          "name": "uid",
          "type": "bytes32"
        }
      ],
      "name": "finalizePost",
      "outputs": [],
      "stateMutability": "nonpayable",
      "type": "function"
    },
    {
      "inputs": [],
      "name": "getAllPostIds",
      "outputs": [
        {
          "internalType": "bytes32[]",
          "name": "",
          "type": "bytes32[]"
        }
      ],
      "stateMutability": "view",
      "type": "function"
    },
    {
      "inputs": [],
      "name": "getBuyerStake",
      "outputs": [
        {
          "internalType": "uint256",
          "name": "amount",
          "type": "uint256"
        }
      ],
      "stateMutability": "view",
      "type": "function"
    },
    {
      "inputs": [],
      "name": "getEncryptedPost",
      "outputs": [
        {
          "internalType": "bytes",
          "name": "",
          "type": "bytes"
        }
      ],
      "stateMutability": "view",
      "type": "function"
    },
    {
      "inputs": [],
      "name": "getPaymentRequested",
      "outputs": [
        {
          "internalType": "uint256",
          "name": "",
          "type": "uint256"
        }
      ],
      "stateMutability": "view",
      "type": "function"
    },
    {
      "inputs": [],
      "name": "getPost",
      "outputs": [
        {
          "components": [
            {
              "components": [
                {
                  "internalType": "address",
                  "name": "evmAddress",
                  "type": "address"
                },
                {
                  "internalType": "bytes",
                  "name": "sismoVaultId",
                  "type": "bytes"
                },
                {
                  "internalType": "bytes",
                  "name": "publicKey",
                  "type": "bytes"
                }
              ],
              "internalType": "struct Structures.User",
              "name": "creator",
              "type": "tuple"
            },
            {
              "components": [
                {
                  "components": [
                    {
                      "internalType": "enum Structures.PostStatus",
                      "name": "status",
                      "type": "uint8"
                    },
                    {
                      "internalType": "enum Structures.PostType",
                      "name": "postType",
                      "type": "uint8"
                    },
                    {
                      "internalType": "uint256",
                      "name": "creationTimeStamp",
                      "type": "uint256"
                    },
                    {
                      "internalType": "uint256",
                      "name": "endTimeStamp",
                      "type": "uint256"
                    },
                    {
                      "internalType": "uint256",
                      "name": "duration",
                      "type": "uint256"
                    },
                    {
                      "internalType": "enum Structures.Tokens",
                      "name": "tokenId",
                      "type": "uint8"
                    },
                    {
                      "internalType": "bytes32",
                      "name": "postId",
                      "type": "bytes32"
                    }
                  ],
                  "internalType": "struct Structures.PostSettings",
                  "name": "settings",
                  "type": "tuple"
                },
                {
                  "components": [
                    {
                      "internalType": "address",
                      "name": "buyer",
                      "type": "address"
                    },
                    {
                      "internalType": "address",
                      "name": "seller",
                      "type": "address"
                    },
                    {
                      "internalType": "uint256",
                      "name": "stake",
                      "type": "uint256"
                    },
                    {
                      "internalType": "uint256",
                      "name": "payment",
                      "type": "uint256"
                    },
                    {
                      "internalType": "uint256",
                      "name": "punishment",
                      "type": "uint256"
                    },
                    {
                      "internalType": "uint256",
                      "name": "penalty",
                      "type": "uint256"
                    }
                  ],
                  "internalType": "struct Structures.PostEscrow",
                  "name": "escrow",
                  "type": "tuple"
                },
                {
                  "components": [
                    {
                      "internalType": "bytes",
                      "name": "encryptedData",
                      "type": "bytes"
                    },
                    {
                      "internalType": "bytes",
                      "name": "encryptedKey",
                      "type": "bytes"
                    },
                    {
                      "internalType": "bytes",
                      "name": "decryptedData",
                      "type": "bytes"
                    }
                  ],
                  "internalType": "struct Structures.PostEncryptedData",
                  "name": "data",
                  "type": "tuple"
                }
              ],
              "internalType": "struct Structures.PostData",
              "name": "postdata",
              "type": "tuple"
            }
          ],
          "internalType": "struct Structures.Post",
          "name": "",
          "type": "tuple"
        }
      ],
      "stateMutability": "view",
      "type": "function"
    },
    {
      "inputs": [],
      "name": "getPostId",
      "outputs": [
        {
          "internalType": "bytes32",
          "name": "",
          "type": "bytes32"
        }
      ],
      "stateMutability": "view",
      "type": "function"
    },
    {
      "inputs": [
        {
          "internalType": "bytes32",
          "name": "postId",
          "type": "bytes32"
        }
      ],
      "name": "getPostTimestamp",
      "outputs": [
        {
          "components": [
            {
              "internalType": "enum Structures.PostResult",
              "name": "postResult",
              "type": "uint8"
            },
            {
              "internalType": "uint256",
              "name": "creationTimeStamp",
              "type": "uint256"
            },
            {
              "internalType": "uint256",
              "name": "endTimeStamp",
              "type": "uint256"
            }
          ],
          "internalType": "struct Structures.PostTimestamp",
          "name": "",
          "type": "tuple"
        }
      ],
      "stateMutability": "view",
      "type": "function"
    },
    {
      "inputs": [],
      "name": "getSellerStake",
      "outputs": [
        {
          "internalType": "uint256",
          "name": "amount",
          "type": "uint256"
        }
      ],
      "stateMutability": "view",
      "type": "function"
    },
    {
      "inputs": [
        {
          "internalType": "enum Structures.Tokens",
          "name": "tokenId",
          "type": "uint8"
        },
        {
          "internalType": "address",
          "name": "staker",
          "type": "address"
        }
      ],
      "name": "getStake",
      "outputs": [
        {
          "internalType": "uint256",
          "name": "amount",
          "type": "uint256"
        }
      ],
      "stateMutability": "view",
      "type": "function"
    },
    {
      "inputs": [],
      "name": "getStakeRequested",
      "outputs": [
        {
          "internalType": "uint256",
          "name": "",
          "type": "uint256"
        }
      ],
      "stateMutability": "view",
      "type": "function"
    },
    {
      "inputs": [],
      "name": "getStatus",
      "outputs": [
        {
          "internalType": "enum Structures.PostStatus",
          "name": "",
          "type": "uint8"
        }
      ],
      "stateMutability": "view",
      "type": "function"
    },
    {
      "inputs": [],
      "name": "getTokenId",
      "outputs": [
        {
          "internalType": "enum Structures.Tokens",
          "name": "",
          "type": "uint8"
        }
      ],
      "stateMutability": "view",
      "type": "function"
    },
    {
      "inputs": [],
      "name": "getTokenIdAddress",
      "outputs": [
        {
          "internalType": "address",
          "name": "",
          "type": "address"
        }
      ],
      "stateMutability": "view",
      "type": "function"
    },
    {
      "inputs": [],
      "name": "getTotalStaked",
      "outputs": [
        {
          "internalType": "uint256",
          "name": "",
          "type": "uint256"
        }
      ],
      "stateMutability": "view",
      "type": "function"
    },
    {
      "inputs": [
        {
          "internalType": "address",
          "name": "_owner",
          "type": "address"
        },
        {
          "internalType": "address",
          "name": "_usersModuleContract",
          "type": "address"
        },
        {
          "internalType": "address",
          "name": "_factoryContract",
          "type": "address"
        },
        {
          "internalType": "uint256",
          "name": "_maj",
          "type": "uint256"
        },
        {
          "internalType": "uint256",
          "name": "_min",
          "type": "uint256"
        },
        {
          "internalType": "uint256",
          "name": "_pat",
          "type": "uint256"
        }
      ],
      "name": "initialize",
      "outputs": [
        {
          "internalType": "bool",
          "name": "",
          "type": "bool"
        }
      ],
      "stateMutability": "nonpayable",
      "type": "function"
    },
    {
      "inputs": [],
      "name": "locked",
      "outputs": [
        {
          "internalType": "bool",
          "name": "",
          "type": "bool"
        }
      ],
      "stateMutability": "view",
      "type": "function"
    },
    {
      "inputs": [],
      "name": "major",
      "outputs": [
        {
          "internalType": "uint256",
          "name": "",
          "type": "uint256"
        }
      ],
      "stateMutability": "view",
      "type": "function"
    },
    {
      "inputs": [],
      "name": "minor",
      "outputs": [
        {
          "internalType": "uint256",
          "name": "",
          "type": "uint256"
        }
      ],
      "stateMutability": "view",
      "type": "function"
    },
    {
      "inputs": [],
      "name": "owner",
      "outputs": [
        {
          "internalType": "address",
          "name": "",
          "type": "address"
        }
      ],
      "stateMutability": "view",
      "type": "function"
    },
    {
      "inputs": [],
      "name": "patch",
      "outputs": [
        {
          "internalType": "uint256",
          "name": "",
          "type": "uint256"
        }
      ],
      "stateMutability": "view",
      "type": "function"
    },
    {
      "inputs": [],
      "name": "post",
      "outputs": [
        {
          "components": [
            {
              "internalType": "address",
              "name": "evmAddress",
              "type": "address"
            },
            {
              "internalType": "bytes",
              "name": "sismoVaultId",
              "type": "bytes"
            },
            {
              "internalType": "bytes",
              "name": "publicKey",
              "type": "bytes"
            }
          ],
          "internalType": "struct Structures.User",
          "name": "creator",
          "type": "tuple"
        },
        {
          "components": [
            {
              "components": [
                {
                  "internalType": "enum Structures.PostStatus",
                  "name": "status",
                  "type": "uint8"
                },
                {
                  "internalType": "enum Structures.PostType",
                  "name": "postType",
                  "type": "uint8"
                },
                {
                  "internalType": "uint256",
                  "name": "creationTimeStamp",
                  "type": "uint256"
                },
                {
                  "internalType": "uint256",
                  "name": "endTimeStamp",
                  "type": "uint256"
                },
                {
                  "internalType": "uint256",
                  "name": "duration",
                  "type": "uint256"
                },
                {
                  "internalType": "enum Structures.Tokens",
                  "name": "tokenId",
                  "type": "uint8"
                },
                {
                  "internalType": "bytes32",
                  "name": "postId",
                  "type": "bytes32"
                }
              ],
              "internalType": "struct Structures.PostSettings",
              "name": "settings",
              "type": "tuple"
            },
            {
              "components": [
                {
                  "internalType": "address",
                  "name": "buyer",
                  "type": "address"
                },
                {
                  "internalType": "address",
                  "name": "seller",
                  "type": "address"
                },
                {
                  "internalType": "uint256",
                  "name": "stake",
                  "type": "uint256"
                },
                {
                  "internalType": "uint256",
                  "name": "payment",
                  "type": "uint256"
                },
                {
                  "internalType": "uint256",
                  "name": "punishment",
                  "type": "uint256"
                },
                {
                  "internalType": "uint256",
                  "name": "penalty",
                  "type": "uint256"
                }
              ],
              "internalType": "struct Structures.PostEscrow",
              "name": "escrow",
              "type": "tuple"
            },
            {
              "components": [
                {
                  "internalType": "bytes",
                  "name": "encryptedData",
                  "type": "bytes"
                },
                {
                  "internalType": "bytes",
                  "name": "encryptedKey",
                  "type": "bytes"
                },
                {
                  "internalType": "bytes",
                  "name": "decryptedData",
                  "type": "bytes"
                }
              ],
              "internalType": "struct Structures.PostEncryptedData",
              "name": "data",
              "type": "tuple"
            }
          ],
          "internalType": "struct Structures.PostData",
          "name": "postdata",
          "type": "tuple"
        }
      ],
      "stateMutability": "view",
      "type": "function"
    },
    {
      "inputs": [],
      "name": "postCount",
      "outputs": [
        {
          "internalType": "uint256",
          "name": "",
          "type": "uint256"
        }
      ],
      "stateMutability": "view",
      "type": "function"
    },
    {
      "inputs": [],
      "name": "renouncePost",
      "outputs": [],
      "stateMutability": "nonpayable",
      "type": "function"
    },
    {
      "inputs": [
        {
          "internalType": "bytes",
          "name": "decryptedData",
          "type": "bytes"
        }
      ],
      "name": "revealData",
      "outputs": [
        {
          "internalType": "bytes",
          "name": "",
          "type": "bytes"
        }
      ],
      "stateMutability": "nonpayable",
      "type": "function"
    },
    {
      "inputs": [
        {
          "internalType": "bytes",
          "name": "encryptedKey",
          "type": "bytes"
        }
      ],
      "name": "submitHash",
      "outputs": [],
      "stateMutability": "nonpayable",
      "type": "function"
    },
    {
      "inputs": [
        {
          "internalType": "enum Structures.Tokens",
          "name": "tokenId",
          "type": "uint8"
        },
        {
          "internalType": "address",
          "name": "receiver",
          "type": "address"
        }
      ],
      "name": "takeFullStake",
      "outputs": [
        {
          "internalType": "uint256",
          "name": "",
          "type": "uint256"
        }
      ],
      "stateMutability": "nonpayable",
      "type": "function"
    },
    {
      "inputs": [
        {
          "internalType": "enum Structures.Tokens",
          "name": "tokenId",
          "type": "uint8"
        },
        {
          "internalType": "address",
          "name": "receiver",
          "type": "address"
        },
        {
          "internalType": "uint256",
          "name": "amountToTake",
          "type": "uint256"
        }
      ],
      "name": "takeStake",
      "outputs": [
        {
          "internalType": "uint256",
          "name": "",
          "type": "uint256"
        }
      ],
      "stateMutability": "nonpayable",
      "type": "function"
    },
    {
      "inputs": [],
      "name": "version",
      "outputs": [
        {
          "internalType": "string",
          "name": "",
          "type": "string"
        }
      ],
      "stateMutability": "view",
      "type": "function"
    },
    {
      "stateMutability": "payable",
      "type": "receive"
    }
  ],
  "bytecode": "0x6080806040523461001757615b7b90816200001d8239f35b600080fdfe608080604052600436101561001d575b50361561001b57600080fd5b005b60003560e01c908163010a38f5146133c65750806305c1f5021461337d5780630917e7761461333757806317906c2e146133195780631d0b4af51461324b57806332946a871461322d578063337938c7146131ff5780633d876d5d14612b5a5780634997523514612b3c5780634c38d87714612b0c5780634e69d56014612ae457806352a6cb4a14612acb57806354fd4d5014612aaf5780635ad4e17014612a825780635c63ed6914612a52578063728cdbca146126a6578063729e2eb1146125d65780637abe914d146123c0578063825821fb146123305780638c6838ba1461221b5780638da5cb5b146121f25780638e25df9e146120fb5780638f287dc2146115435780638f903c79146112ac5780639917e57914610fa7578063bb834b0e14610f89578063cf30901214610f66578063d24e0c8714610f48578063d2af47ab14610324578063ed70d5d514610263578063f2d7dbb6146101d6578063f86d0b38146101b85763faeb5e1714610195573861000f565b346101b35760003660031901126101b3576020600f54604051908152f35b600080fd5b346101b35760003660031901126101b3576020602154604051908152f35b346101b357602061022c6101e936613a95565b61020b60ff600b54166101fb816133ed565b610204846133ed565b8314613f59565b61021a60ff601f541615613cf5565b61022433836141a2565b9133906155ed565b600d546001600160a01b0390339082160361024f5750806010555b604051908152f35b600e54163303610247575b80600f55610247565b346101b35761027136613a62565b61028660ff600b94939454166101fb816133ed565b61029560ff601f541615613cf5565b61029e826133ed565b816000526020805260406000203360005260205280604060002054106102ec576020926102cc9233906155ed565b600d54336001600160a01b039091160361025a5780601055604051908152f35b60405162461bcd60e51b815260206004820152601060248201526f4e4f545f454e4f5547485f5354414b4560801b6044820152606490fd5b6101203660031901126101b3576004356001600160401b0381116101b357610350903690600401613adf565b600560243510156101b357600560443510156101b357600360a43510156101b35760c4356001600160a01b03811690036101b35760e4356001600160a01b03811690036101b35761010435151561010435036101b3576103b160a4356133ed565b600160a435148015610f31575b8015610f1c575b6103ce90613f59565b6003546001600160a01b03163303610eeb576103ef60ff601f541615613cf5565b60185460405163122643f360e21b81526001600160a01b0360e43581166004830152909160209183916024918391165afa908115610dc357600091610eb1575b5015610e7b5760ff600754166008811015610bf757600052601d60205261045d60ff60406000205416613d2a565b60843515610e425760643515610e0e576101043515610dcf5761048160a4356133ed565b60a43560005260208052604060002060018060a01b0360e435166000526020526104b46084356040600020541015613d67565b6084355b6104c36044356137a8565b60ff60443516600052601c6020526040600020549060ff60075416926008841015610bf7576000938452601d6020526040808520805460ff1990811690915560018087527f9de6abd965d55c3bb0cdbf6fa175050624c6ff8fe86f682dc08f2a450ede22788054831682179055600780549092161790556018549051633bcaa1d960e21b81526001600160a01b0360e4358116600483015290959186916024918391165afa938415610dc357600094610d10575b5083516040516105c260548260208101948651610598818860208b016138b8565b8201904260208301526001600160601b03199060601b166040820152036034810184520182613731565b51902091604051936105d3856136b2565b600185526105e26024356137a8565b602435602086015242604086015260006060860152608085015261060760a4356133ed565b60a43560a08501528260c085015260405190610622826136cd565b6000825260018060a01b0360e4351660208301526040820152606435606082015260006080820152600060a0820152610659613fd5565b610661613fd5565b906040519361066f85613697565b8452602084015260408301526040519361068885613697565b845260208401526040830152604051916106a1836136e8565b83835260208301528251600480546001600160a01b0319166001600160a01b039290921691909117905560208301519283516001600160401b038111610ae0576106f5816106f06005546133f7565b613b86565b6020601f8211600114610c975781906040949596600092610c8c575b50508160011b916000199060031b1c1916176005555b01519182516001600160401b038111610ae05761074e816107496006546133f7565b613bcc565b6020601f8211600114610c185781929394600092610c0d575b50508160011b916000199060031b1c1916176006555b602081015180519081516008811015610bf75760409261079e60c092613cdc565b60208101516107ac816137a8565b6107b5816137a8565b61ff006007549160081b169061ff001916176007558381015160085560608101516009556080810151600a5560a08101516107ef816133ed565b6107f8816133ed565b60ff8019600b5416911617600b550151600c5560a0602082015161083b600180841b0382511660018060a01b03166001600160601b0360a01b600d541617600d55565b610867600180841b0360208301511660018060a01b03166001600160601b0360a01b600e541617600e55565b83810151600f5560608101516010556080810151601155015160125501519081519283516001600160401b038111610ae0576108ad816108a86013546133f7565b613c10565b602094601f8211600114610b8557948192939495600092610b7a575b50508160011b916000199060031b1c1916176013555b60208301519283516001600160401b038111610ae057610909816109046014546133f7565b613c54565b6020601f8211600114610b015781906040949596600092610af6575b50508160011b916000199060031b1c1916176014555b01518051906001600160401b038211610ae0576109628261095d6015546133f7565b613c98565b602090601f8311600114610a46579180610a3694927f9f0d3dff5ce109158da1895093a516dca976e31abea5978b2b18a06702acd26f9694600092610a3b575b50508160011b916000199060031b1c1916176015555b6109c18161401a565b506109cd601754613ff5565b6017556002604051916109df83613697565b6000835260208301428152604084019160008352600052601e60205260406000209351610a0b816133ed565b610a14816133ed565b60ff801986541691161784555160018401555191015560405191829182613b26565b0390a1005b0151905086806109a2565b90601f198316916015600052600080516020615ac68339815191529260005b818110610ac857509260019285927f9f0d3dff5ce109158da1895093a516dca976e31abea5978b2b18a06702acd26f9896610a36989610610aaf575b505050811b016015556109b8565b015160001960f88460031b161c19169055868080610aa1565b92936020600181928786015181550195019301610a65565b634e487b7160e01b600052604160045260246000fd5b015190508680610925565b6014600052600080516020615b268339815191529560005b601f1984168110610b6257509582916040959697600194601f19811610610b49575b505050811b0160145561093b565b015160001960f88460031b161c19169055868080610b3b565b82820151885560019097019660209283019201610b19565b0151905085806108c9565b601f198216956013600052600080516020615ae68339815191529160005b888110610bdf57508360019596979810610bc6575b505050811b016013556108df565b015160001960f88460031b161c19169055858080610bb8565b91926020600181928685015181550194019201610ba3565b634e487b7160e01b600052602160045260246000fd5b015190508480610767565b6006600052600080516020615b068339815191529060005b601f1984168110610c745750600193949583601f19811610610c5b575b505050811b0160065561077d565b015160001960f88460031b161c19169055848080610c4d565b9091602060018192858a015181550193019101610c30565b015190508680610711565b6005600052600080516020615aa68339815191529560005b601f1984168110610cf857509582916040959697600194601f19811610610cdf575b505050811b01600555610727565b015160001960f88460031b161c19169055868080610cd1565b82820151885560019097019660209283019201610caf565b9093503d806000833e610d238183613731565b60208282810103126101b3578151916001600160401b0383116101b357606083820183830103126101b35760405192610d5b84613697565b610d66818301613b5b565b8452602081830101516001600160401b0381116101b357610d8e908484019083850101613f93565b602085015260408183010151906001600160401b0382116101b357610db7938301920101613f93565b60408201529284610577565b6040513d6000823e3d90fd5b610dda60a4356133ed565b60a43515610dfc575b610df760843560c43560e43560a435614472565b6104b8565b610e096084353414613df3565b610de3565b60405162461bcd60e51b815260206004820152600c60248201526b5041594d454e545f5a45524f60a01b6044820152606490fd5b60405162461bcd60e51b81526020600482015260116024820152705354414b455f414d4f554e545f5a45524f60781b6044820152606490fd5b60405162461bcd60e51b815260206004820152600e60248201526d1554d15497d393d517d1561254d560921b6044820152606490fd5b90506020813d602011610ee3575b81610ecc60209383613731565b810103126101b357610edd90613da5565b8261042f565b3d9150610ebf565b60405162461bcd60e51b81526020600482015260096024820152682727aa2fa7aba722a960b91b6044820152606490fd5b50610f2860a4356133ed565b60a435156103c5565b50610f3d60a4356133ed565b600260a435146103be565b346101b35760003660031901126101b3576020601054604051908152f35b346101b35760003660031901126101b357602060ff601f54166040519015158152f35b346101b35760003660031901126101b3576020602254604051908152f35b60a03660031901126101b35760043560038110156101b357602435610fca613a4c565b606435926001600160a01b0392918385168086036101b35760843590811595861583036101b35761100060ff601f541615613cf5565b6001600052602096601d885261101d60ff60406000205416613d2a565b61103f60ff600b541661102f816133ed565b611038886133ed565b8714613f59565b61129e575b60248782600e54169261106461105a858a6141a2565b600f541115613d67565b601854166040519283809263122643f360e21b82528760048301525afa908115610dc357600091611269575b50156112325790816110ae92331491821592611227575b5050613db2565b601054806111e1575b50156111aa57506110c7816133ed565b600052818052604060002033600052825280604060002054106111715760019261110c915b60105560018060a01b03166001600160601b0360a01b600d541617600d55565b601d60ff19916002836007541617600755600260005252604060002082828254161790556002816007541617600755601f541617601f557fd3a49c266c76e5d7b74f1cd42f52db4e6e3b97b608cca1e9269b0a3dd51739da60405180610a3681613e31565b60405162461bcd60e51b81526004810183905260116024820152701410565351539517d25390d3d4949150d5607a1b6044820152606490fd5b61110c926111cb9186846111c0600199966133ed565b80156111d057614472565b6110ec565b6111dc84341015613df3565b614472565b84106111ed57866110b7565b60405162461bcd60e51b81526004810186905260126024820152711393d517d15393d551d217d410565351539560721b6044820152606490fd5b1415905088806110a7565b60405162461bcd60e51b815260048101889052600f60248201526e1554d1549517d393d517d1561254d5608a1b6044820152606490fd5b90508781813d8311611297575b6112808183613731565b810103126101b35761129190613da5565b89611090565b503d611276565b6112a7856133ed565b611044565b346101b3576020806003193601126101b3576001600160401b03906004358281116101b3576112df903690600401613adf565b906001906112f58260ff601f5416151514614208565b600e546001600160a01b039061130e90821633146141cf565b60ff60075416906008821015610bf75781600052601d835260ff604060002054168061152f575b61133e90613d2a565b60248382601854166040519283809263122643f360e21b82523360048301525afa908115610dc3576000916114fa575b50156114bf57600454611383911633146141cf565b600052601d815260406000209260ff199384815416905560036000526040600020838582541617905560038460075416176007558051948511610ae0576113cf856109046014546133f7565b81601f861160011461144d575060039492600092849283611442575b50501b9160001990851b1c1916176014555b6007541617600755611411600a5442614372565b6009557f9ae3be94f0e4131804326f9163ba3d70895b321825873a36011ccca6eec81f2860405180610a3681613e31565b0151925086806113eb565b909491601f198316956014600052600080516020615b26833981519152926000905b8882106114a85750508360039710611490575b505050811b016014556113fd565b015160001983871b60f8161c19169055848080611482565b80878596829496860151815501950193019061146f565b60405162461bcd60e51b8152600481018490526013602482015272155cd95c88191bd95cc81b9bdd08195e1a5cdd606a1b6044820152606490fd5b90508381813d8311611528575b6115118183613731565b810103126101b35761152290613da5565b8761136e565b503d611507565b506002821480611335575060038214611335565b346101b35760603660031901126101b3576004351515600435036101b357600d546001600160a01b03166115783382146141cf565b61158b600160ff601f5416151514614208565b60ff600754166008811015610bf7576003036120c65760195460405163335ded4b60e21b81526001600160a01b0390911690602081600481855afa908115610dc357600091612087575b506040516328c44a9960e21b8152604435600482015290600090829060249082906001600160a01b03165afa908115610dc357600091611f64575b5060e081015161162a906001600160a01b03168414614255565b60c0810151600e546001600160a01b03918216911603611f2b57602081810151604051633ec4f23d60e01b81529182600481875afa918215610dc357600092611ef7575b5003611ec157610120015180518101906080818303126101b35761169460208201613da5565b916116a160408301613b5b565b916080810151916001600160401b0383116101b3576116c7926020809201920101613f93565b90306001600160a01b0390911603611e8d57604051611704816116f660208201946020865260408301906138db565b03601f198101835282613731565b51902060405160208082015260135481600061171f836133f7565b92836040840152600181169081600014611e6e5750600114611e21575b61174f925003601f198101835282613731565b6020815191012003611ded576020600492604051938480926318da001160e01b82525afa918215610dc357600092611db1575b50601054604051634047e10360e11b81529091906020816004816001600160a01b0388165afa908115610dc357600091611d7d575b506127106117c86117d09285614297565b0480936142aa565b9360095442118015611d74575b15611b9b57506117f4901515600435151514614255565b600b54600d5460105461183292611817926001600160a01b03169060ff1661437f565b600b54600e549195916001600160a01b03169060ff166142e5565b9160ff600b5416611842816133ed565b600181148081159182611b88575b8015611b77575b61186090613f59565b601954604051632ee4b68b60e11b815290602090829060049082906001600160a01b03165afa908115610dc357600091611b3d575b50611ada576118a3836133ed565b826119e357505050600080806118cd94819460018060a01b03165af16118c761471e565b5061474e565b600f55601055600435156119dc5760045b60ff600754166008811015610bf757600052601d60205260406000209060ff19918281541690556008811015610bf7578060ff6119319216600052601d6020526040600020600184825416179055613cdc565b6002600c5480600052601e6020526001604060002001546040519361195585613697565b60018552602085019182526040850192428452600052601e60205260ff6040600020955191611983836133ed565b61198c836133ed565b8654169116178455516001840155519101557f9ae3be94f0e4131804326f9163ba3d70895b321825873a36011ccca6eec81f28604051806119cc81613e31565b0390a15b601f805460ff19169055005b60056118de565b9160209391611a5a95936119f6836133ed565b90611ac7575b8015611ab6575b611a0c90613f59565b6001600160a01b0390611a1e906157fa565b60405163a9059cbb60e01b81526001600160a01b0390931660048401526024830193909352909384929190911690829060009082906044820190565b03925af18015610dc357600090611a7b575b611a7691506157bc565b6118cd565b506020813d602011611aae575b81611a9560209383613731565b810103126101b357611aa9611a7691613da5565b611a6c565b3d9150611a88565b50611ac0816133ed565b6000611a03565b50611ad1816133ed565b600281146119fc565b91809350611ae891506133ed565b60028203611b01575050611afb90614a83565b506118cd565b611b0a826133ed565b15611b195750611afb90615535565b611b22816133ed565b15611b2d57506118cd565b611b3690614f1a565b5082611afb565b90506020813d602011611b6f575b81611b5860209383613731565b810103126101b357611b6990613da5565b88611895565b3d9150611b4b565b50611b81836133ed565b8215611857565b50611b92836133ed565b60028314611850565b935050505060043515611baf575b506119d0565b600f5490602435918211611d3957601654670de0b6b3a764000080821015611cfc57611bde611bec9285614297565b04809260ff600b5416614788565b601055600b54600e54611c0d9184916001600160a01b03169060ff16614788565b600f556007805460ff199081166005179091556011929092556012557fd19a5fe801b7c1f3d54e7cd62d56e46f02f2ab5a22ee5edcfdddda6c80cf4c11805482166001908117909155600c546000818152601e6020526040908190209092015491519260029290611c7d85613697565b838552602085019182526040850192428452600052601e60205260ff6040600020955191611caa836133ed565b611cb3836133ed565b8654169116178455516001840155519101557f80de7cd6b2dbdab3adb15bbbae320a60f5109fb9befeac59e525a0deb3ee3b4160405180611cf381613e31565b0390a180611ba9565b60405162461bcd60e51b81526020600482015260156024820152740a0aa9c92a6909a8a9ca8bea482a8929ebe90928e9605b1b6044820152606490fd5b60405162461bcd60e51b81526020600482015260136024820152720a0aa9c92a6909a8a9ca8bea89e9ebe90928e9606b1b6044820152606490fd5b506004356117dd565b90506020813d602011611da9575b81611d9860209383613731565b810103126101b357516127106117b7565b3d9150611d8b565b9091506020813d602011611de5575b81611dcd60209383613731565b810103126101b357611dde90613b5b565b9083611782565b3d9150611dc0565b60405162461bcd60e51b815260206004820152600c60248201526b1253959053125117d413d4d560a21b6044820152606490fd5b50906013600052600080516020615ae6833981519152906000915b818310611e5457505090606061174f9282010161173c565b805460608487010152849350602090920191600101611e3c565b6060925061174f94915060ff191682840152151560051b82010161173c565b60405162461bcd60e51b815260206004820152600c60248201526b1253959053125117d191515160a21b6044820152606490fd5b60405162461bcd60e51b815260206004820152600e60248201526d494e56414c49445f534348454d4160901b6044820152606490fd5b9091506020813d602011611f23575b81611f1360209383613731565b810103126101b35751908561166e565b3d9150611f06565b60405162461bcd60e51b81526020600482015260116024820152701253959053125117d49150d25412515395607a1b6044820152606490fd5b90503d806000833e611f768183613731565b60208282810103126101b3578151906001600160401b0382116101b35761014082840182850103126101b35760405192836101408101106001600160401b0361014086011117610ae057610140840160409081528184018051865260208082015190870152611fe59101614241565b6040850152611ff8606084830101614241565b606085015261200b608084830101614241565b608085015260a0838201015160a085015261202a60c084830101613b5b565b60c085015261203d60e084830101613b5b565b60e08501526101006120528185840101613da5565b9085015261012092838183010151906001600160401b0382116101b35761207d938301920101613f93565b9082015283611610565b90506020813d6020116120be575b816120a260209383613731565b810103126101b35760006120b7602492613b5b565b91506115d5565b3d9150612095565b60405162461bcd60e51b815260206004820152600d60248201526c1393d517d4d550935255151151609a1b6044820152606490fd5b346101b35760003660031901126101b357600180549061211a826140b7565b906121286040519283613731565b828252612134836140b7565b6020838101949091601f190136863760005b81811061218757505060405192818401908285525180915260408401949160005b8281106121745785870386f35b8351875295810195928101928401612167565b83600096949695939552807fb10e2d527612073b26eecdfd717e6a320cf44b4afac2b0732d9fcbe2b7fa0cf601549083518110156121dc576121d191868260051b86010152613ff5565b949294939193612146565b634e487b7160e01b600052603260045260246000fd5b346101b35760003660031901126101b3576003546040516001600160a01b039091168152602090f35b346101b35760003660031901126101b35761232c60405161223b816136e8565b60405161224781613697565b600081526060906020928183858094015283604082015281526040519261226d84613697565b604051612279816136b2565b600081526000848201526000604082015260008282015260006080820152600060a0820152600060c082015284526040516122b3816136cd565b600081526000848201526000604082015260008282015260006080820152600060a082015283850152604051906122e982613697565b80825280848301526040820152604084015201526040519061230a826136e8565b612312613752565b825261231c6137b2565b9082015260405191829182613b26565b0390f35b346101b35760203660031901126101b35760006040805161235081613697565b8281528260208201520152600435600052601e6020526060604060002060405161237981613697565b60ff82541691612388836133ed565b828252604060026001830154926020850193845201549201918252604051926123b0816133ed565b8352516020830152516040820152f35b346101b3576020806003193601126101b3576001600160401b03906004358281116101b3576123f3903690600401613adf565b9061240360ff601f541615613cf5565b60ff60075416600881101580610bf75781600052601d835260ff604060002054168061259a575b61243390613d2a565b61244960018060a01b03600e5416331415613db2565b610bf757600403612566578151928311610ae05761246c8361095d6015546133f7565b8092601f81116001146124f757809192936000916124ec575b508160011b916000199060031b1c1916176015555b600660ff1960075416176007557fa77c04dade08083e74eedaa808b81ae3e17f6e3323c2b8cf30179e8d004b3ca4604051806124d581613e31565b0390a161232c6040519282849384528301906138db565b905083015184612485565b601f198116936015600052600080516020615ac68339815191529060005b86811061254f575082600194959610612536575b5050811b0160155561249a565b85015160001960f88460031b161c191690558480612529565b909184600181928589015181550193019101612515565b6064906040519062461bcd60e51b82526004820152600d60248201526c1393d517d19253905312569151609a1b6044820152fd5b505060006003821480156125c8575b819080156125b9575b905061242a565b50610bf75780600483146125b2565b5060009050600682146125a9565b346101b35760003660031901126101b35760405160006013546125f8816133f7565b8084529060019081811690811561267f5750600114612636575b61232c8461262281860382613731565b6040519182916020835260208301906138db565b601360009081529250600080516020615ae68339815191525b82841061266757505050810160200161262282612612565b8054602085870181019190915290930192810161264f565b60ff191660208087019190915292151560051b850190920192506126229150839050612612565b346101b35760c03660031901126101b3576001600160a01b03600435818116908190036101b357602435908282168092036101b3576126e3613a4c565b906000549060ff8260081c161592838094612a45575b8015612a2e575b156129d257859060019560ff19948688878316176000556129c0575b506001600160601b0360a01b9384600354161760035567016345785d8a0000601655600060175583601854161760185533836019541617601955604051906303e21fa960e61b82528160048160209a8b94165afa908115610dc35760009161298b575b501690601a541617601a55612792615892565b8051906001600160401b038211610ae05781906127b0601b546133f7565b601f8111612932575b508690601f83116001146128b0576000926128a5575b5050600019600383901b1c191690841b17601b555b806007541660075560008052601c845262015180604060002055826000526203f480604060002055600260005262093a80604060002055600360005262127500604060002055600460005262278d0060406000205560008052601d84528260406000209182541617905560643560215560843560225560a43560235561286c57604051908152f35b61ff0019600054166000557f7f26b83ff96e1f2b6a682f133852f6798a09c465da95921460cefb384740249882604051838152a1610247565b0151905086806127cf565b90869350601f19831691601b6000527f3ad8aa4f87544323a9d1e5dd902f40c356527a7955687113db5f9a85ad579dc19260005b8a82821061291c5750508411612903575b505050811b01601b556127e4565b015160001960f88460031b161c191690558680806128f5565b8385015186558a979095019493840193016128e4565b61297b90601b6000527f3ad8aa4f87544323a9d1e5dd902f40c356527a7955687113db5f9a85ad579dc1601f850160051c8101918a8610612981575b601f0160051c0190613b6f565b876127b9565b909150819061296e565b90508681813d83116129b9575b6129a28183613731565b810103126101b3576129b390613b5b565b8761277f565b503d612998565b61ffff1916610101176000558861271c565b60405162461bcd60e51b815260206004820152602e60248201527f496e697469616c697a61626c653a20636f6e747261637420697320616c72656160448201526d191e481a5b9a5d1a585b1a5e995960921b6064820152608490fd5b50303b1580156127005750600160ff841614612700565b50600160ff8416106126f9565b346101b35760003660031901126101b357600b54600e54602091610247916001600160a01b03169060ff166141a2565b346101b35760003660031901126101b3576020612a9d6140ce565b6040516001600160a01b039091168152f35b346101b35760003660031901126101b35761232c612622615892565b346101b3576020610247612ade36613a95565b906141a2565b346101b35760003660031901126101b357602060ff60075416612b0a604051809261393f565bf35b346101b35760003660031901126101b357600b54600d54602091610247916001600160a01b03169060ff166141a2565b346101b35760003660031901126101b3576020602354604051908152f35b346101b35760003660031901126101b357600e546001600160a01b0390612b8490821633146141cf565b600190601f91612b9b8160ff855416151514614208565b60ff600754166008811015610bf7576000526020601d8152612bc460ff60406000205416613d2a565b612bcc613fd5565b90612bd5613fd5565b9160405190612be382613697565b6000825282820190815260408201938452612cf78660405193612c05856136b2565b60078552600086860152600060408601526000606086015260006080860152600060a0860152600060c0860152604051612c3e816136cd565b60008152600087820152600060408201526000606082015260006080820152600060a082015260405190612c7182613697565b604051612c7d81613716565b600081528252604051612c8f81613716565b6000815288830152604051612ca381613716565b60008152604083015260405196612cb988613697565b875287870152604086015285604051612cd1816136e8565b82815201948552511660018060a01b03166001600160601b0360a01b6004541617600455565b519283516001600160401b0394858211610ae0578190612d1c826106f06005546133f7565b85908a831160011461318f57600092613184575b5050600019600383901b1c191690861b176005555b51805190848211610ae0578190612d61826107496006546133f7565b849089831160011461311457600092613109575b5050600019600383901b1c191690851b176006555b519384519485516008811015610bf757604092612da860a092613cdc565b84880151612db5816137a8565b612dbe816137a8565b61ff006007549160081b169061ff001916176007558388015160085560608801516009556080880151600a5560c08289015198612dfa8a6133ed565b612e038a6133ed565b60ff199960ff8b600b5416911617600b550151600c55612e678584015191612e458184511660018060a01b03166001600160601b0360a01b600d541617600d55565b868301511660018060a01b03166001600160601b0360a01b600e541617600e55565b83810151600f5560608101516010556080810151601155015160125501518051805190848211610ae0578190612ea2826108a86013546133f7565b84908983116001146130995760009261308e575b5050600019600383901b1c191690851b176013555b81810151805190848211610ae057612ee8826109046014546133f7565b839088831160011461301a5760409392916000918361300f575b5050600019600383901b1c191690861b176014555b01518051928311610ae057612f318361095d6015546133f7565b81868411600114612f9c5750928293918392600094612f91575b50501b916000199060031b1c1916176015555b81541690557fb0b5796e5695900a8ad6ac70ae39f76b2884b7b46bb57da984b7067aa5c6565860405180610a3681613e31565b015192508680612f4b565b919083601f1981166015600052600080516020615ac6833981519152946000905b88838310612ff55750505010612fdc575b505050811b01601555612f5e565b015160001960f88460031b161c19169055848080612fce565b858701518855909601959485019487935090810190612fbd565b015190508980612f02565b92918691601f198216906014600052600080516020615b268339815191529160005b8882821061307857505095836040971061305f575b505050811b01601455612f17565b015160001960f88460031b161c19169055898080613051565b8389015185558b9690940193928301920161303c565b015190508880612eb6565b90879350601f198316916013600052600080516020615ae68339815191529260005b888282106130f357505084116130da575b505050811b01601355612ecb565b015160001960f88460031b161c191690558880806130cc565b8385015186558b979095019493840193016130bb565b015190508880612d75565b90879350601f198316916006600052600080516020615b068339815191529260005b8882821061316e5750508411613155575b505050811b01600655612d8a565b015160001960f88460031b161c19169055888080613147565b8385015186558b97909501949384019301613136565b015190508980612d30565b90889350601f198316916005600052600080516020615aa68339815191529260005b898282106131e957505084116131d0575b505050811b01600555612d45565b015160001960f88460031b161c191690558980806131c2565b8385015186558c979095019493840193016131b1565b346101b35760203660031901126101b357600435600052600260205260206040600020541515604051908152f35b346101b35760003660031901126101b3576020600c54604051908152f35b61325436613a62565b61326960ff600b94939454166101fb816133ed565b61327860ff601f541615613cf5565b600d546001600160a01b03929083163314801561330c575b156132d5576020936132b59284600e541633146000146132cf575034915b3390614472565b90600d5416331460001461025a5780601055604051908152f35b916132ae565b60405162461bcd60e51b815260206004820152600f60248201526e2ba927a723afa6a9a3a9a2a72222a960891b6044820152606490fd5b5082600e54163314613290565b346101b35760003660031901126101b3576020601754604051908152f35b346101b35760003660031901126101b357602061024760ff600b541661337760018060a01b039161336c83600e5416826141a2565b92600d5416906141a2565b90614372565b346101b35760003660031901126101b3576133b8613399613752565b61232c6133a46137b2565b604051938493604085526040850190613900565b90838203602085015261394c565b346101b35760003660031901126101b35760209060ff600b54166133e9816133ed565b8152f35b60031115610bf757565b90600182811c92168015613427575b602083101461341157565b634e487b7160e01b600052602260045260246000fd5b91607f1691613406565b60055460009291613441826133f7565b808252916001908181169081156134a6575060011461345f57505050565b919293506005600052600080516020615aa6833981519152916000925b84841061348e57505060209250010190565b8054602085850181019190915290930192810161347c565b915050602093945060ff929192191683830152151560051b010190565b600654600092916134d3826133f7565b808252916001908181169081156134a657506001146134f157505050565b919293506006600052600080516020615b06833981519152916000925b84841061352057505060209250010190565b8054602085850181019190915290930192810161350e565b60135460009291613548826133f7565b808252916001908181169081156134a6575060011461356657505050565b919293506013600052600080516020615ae6833981519152916000925b84841061359557505060209250010190565b80546020858501810191909152909301928101613583565b601454600092916135bd826133f7565b808252916001908181169081156134a657506001146135db57505050565b919293506014600052600080516020615b26833981519152916000925b84841061360a57505060209250010190565b805460208585018101919091529093019281016135f8565b60155460009291613632826133f7565b808252916001908181169081156134a6575060011461365057505050565b919293506015600052600080516020615ac6833981519152916000925b84841061367f57505060209250010190565b8054602085850181019190915290930192810161366d565b606081019081106001600160401b03821117610ae057604052565b60e081019081106001600160401b03821117610ae057604052565b60c081019081106001600160401b03821117610ae057604052565b604081019081106001600160401b03821117610ae057604052565b6001600160401b038111610ae057604052565b602081019081106001600160401b03821117610ae057604052565b90601f801991011681019081106001600160401b03821117610ae057604052565b6040519061375f82613697565b6004546001600160a01b0316825260405182906137868161377f81613431565b0382613731565b602082015260408051916137a48361379d816134c3565b0384613731565b0152565b60051115610bf757565b60409081516137c081613697565b809280516137cd816136b2565b60075460ff8116906008821015610bf75760ff91835260081c166137f0816137a8565b6020820152600854828201526009546060820152600a54608082015260ff600b541661381b816133ed565b60a0820152600c5460c082015282528051613835816136cd565b60018060a01b0380600d54168252600e54166020820152600f54828201526010546060820152601154608082015260125460a0820152602083015280519161387c83613697565b815161388b8161377f81613538565b8352815161389c8161377f816135ad565b602084015281516138b08161377f81613622565b828401520152565b60005b8381106138cb5750506000910152565b81810151838201526020016138bb565b906020916138f4815180928185528580860191016138b8565b601f01601f1916010190565b61393c9160018060a01b038251168152604061392b60208401516060602085015260608401906138db565b9201519060408184039101526138db565b90565b906008821015610bf75752565b90604061393c9260c0815161396285825161393f565b6020810151613970816137a8565b60208601528381015184860152606081015160608601526080810151608086015260a081015161399f816133ed565b60a0860152015160c084015260a06020820151600180831b038082511660e087015260208201511661010086015283810151610120860152606081015161014086015260808101516101608601520151610180840152015190613a186101c0806101a084015260608451918401526102208301906138db565b906102006040613a3c6020860151946101bf199586868303016101e08701526138db565b94015192828503019101526138db565b604435906001600160a01b03821682036101b357565b60609060031901126101b35760043560038110156101b357906024356001600160a01b03811681036101b3579060443590565b60409060031901126101b35760043560038110156101b357906024356001600160a01b03811681036101b35790565b6001600160401b038111610ae057601f01601f191660200190565b81601f820112156101b357803590613af682613ac4565b92613b046040519485613731565b828452602083830101116101b357816000926020809301838601378301015290565b9061393c91602081526020613b4683516040838501526060840190613900565b920151906040601f198285030191015261394c565b51906001600160a01b03821682036101b357565b818110613b7a575050565b60008155600101613b6f565b90601f8211613b93575050565b613bca916005600052600080516020615aa6833981519152906020601f840160051c8301931061298157601f0160051c0190613b6f565b565b90601f8211613bd9575050565b613bca916006600052600080516020615b06833981519152906020601f840160051c8301931061298157601f0160051c0190613b6f565b90601f8211613c1d575050565b613bca916013600052600080516020615ae6833981519152906020601f840160051c8301931061298157601f0160051c0190613b6f565b90601f8211613c61575050565b613bca916014600052600080516020615b26833981519152906020601f840160051c8301931061298157601f0160051c0190613b6f565b90601f8211613ca5575050565b613bca916015600052600080516020615ac6833981519152906020601f840160051c8301931061298157601f0160051c0190613b6f565b6008811015610bf75760ff801960075416911617600755565b15613cfc57565b60405162461bcd60e51b81526020600482015260066024820152651313d0d2d15160d21b6044820152606490fd5b15613d3157565b60405162461bcd60e51b815260206004820152600e60248201526d494e56414c49445f53544154555360901b6044820152606490fd5b15613d6e57565b60405162461bcd60e51b815260206004820152600f60248201526e14d51052d157d25390d3d4949150d5608a1b6044820152606490fd5b519081151582036101b357565b15613db957565b60405162461bcd60e51b81526020600482015260126024820152712ca7aaafa0a922afaa2422afa9a2a62622a960711b6044820152606490fd5b15613dfa57565b60405162461bcd60e51b815260206004820152600f60248201526e57524f4e475f4d53475f56414c554560881b6044820152606490fd5b61393c90602081526040602082015260018060a01b038060045416606083015260606080830152613e78613e6760c08401613431565b838103605f190160a08501526134c3565b916040601f198285030191015260ff600754613e968483831661393f565b60081c16613ea3816137a8565b602083015260085460408301526009546060830152600a54608083015260ff600b5416613ecf816133ed565b60a0830152600c5460c083015280600d541660e0830152600e5416610100820152600f5461012082015260105461014082015260115461016082015260125461018082015260606101c0806101a0840152820152613f306102208201613538565b90610200613f4c6101bf199384848203016101e08501526135ad565b9282840301910152613622565b15613f6057565b60405162461bcd60e51b815260206004820152600b60248201526a2ba927a723afaa27a5a2a760a91b6044820152606490fd5b81601f820112156101b3578051613fa981613ac4565b92613fb76040519485613731565b818452602082840101116101b35761393c91602080850191016138b8565b60405190613fe2826136e8565b60048252630307830360e41b6020830152565b60001981146140045760010190565b634e487b7160e01b600052601160045260246000fd5b6000818152600260205260408120546140b2576001546801000000000000000081101561409e57600181018060015581101561408a5790826040927fb10e2d527612073b26eecdfd717e6a320cf44b4afac2b0732d9fcbe2b7fa0cf6015560015492815260026020522055600190565b634e487b7160e01b82526032600452602482fd5b634e487b7160e01b82526041600452602482fd5b905090565b6001600160401b038111610ae05760051b60200190565b60ff600b54166140dd816133ed565b60018103614154575060195460405163f77800e560e01b815290602090829060049082906001600160a01b03165afa908115610dc35760009161411e575090565b906020823d821161414c575b8161413760209383613731565b81010312614149575061393c90613b5b565b80fd5b3d915061412a565b806141606002926133ed565b0361419d57601954604051635f117aa360e11b815290602090829060049082906001600160a01b03165afa908115610dc35760009161411e575090565b600090565b6141ab816133ed565b6000526020805260406000209060018060a01b031660005260205260406000205490565b156141d657565b60405162461bcd60e51b815260206004820152600a6024820152692727aa2fa9a2a62622a960b11b6044820152606490fd5b1561420f57565b60405162461bcd60e51b815260206004820152600a6024820152691393d517d313d0d2d15160b21b6044820152606490fd5b51906001600160401b03821682036101b357565b1561425c57565b60405162461bcd60e51b815260206004820152601360248201527224a72b20a624a22fa0aa2a22a9aa20aa24a7a760691b6044820152606490fd5b8181029291811591840414171561400457565b9190820391821161400457565b9094939260609260808301966142cc816133ed565b83526001600160a01b0316602083015260408201520152565b907ffe2caf3897ec3e02a1d458d232d7c62c17809d25dbfe65864ce842162d6c217c91614311816133ed565b61436c600094828652602090818052604087209160018060a01b038616928389528152604061434383828b2054614372565b9889948593614351896133ed565b888352808052838320918352522055604051948594856142b7565b0390a190565b9190820180921161400457565b9092919261438c826133ed565b60009180835260208080526040958685209160018060a01b0385169283875281528786205482811061441457978291816143ed61436c96957f9060f8ffc7acd8270abf2337023e6377669ca44d5b2a23f3513a29380940f3579a9b9c6142aa565b998a9586936143fb8a6133ed565b89835280805283832091835252205551948594856142b7565b885162461bcd60e51b8152600481018390526014602482015273125394d551919250d251539517d1115413d4d25560621b6044820152606490fd5b604091949392606082019560018060a01b0316825260208201526137a4836133ed565b929060ff600754166008811015610bf7578060026144999214159081614712575b50613d2a565b81156146dc576144a8846133ed565b831580156144f0575b507f68ffd6ad89c76c56b0b5206ae0c1a14cbffb37023d4e80f635ff7397c56b116b925061436c6144e38383876142e5565b946040519384938461444f565b614516906144fd866133ed565b600186149081156146c7575b81156146b6575b50613f59565b61451f846157fa565b6001600160a01b0380614531876157fa565b604051636eb1769f60e11b81526001600160a01b0388166004820152306024820152602097929091889183916044918391165afa8015610dc3578691600091614686575b501061464857906064869260008360405196879586946323b872dd60e01b8652166004850152306024850152896044850152165af1908115610dc3576000916145ec575b507f68ffd6ad89c76c56b0b5206ae0c1a14cbffb37023d4e80f635ff7397c56b116b93506145e6906157bc565b386144b1565b91929382813d8311614641575b6146038183613731565b810103126141495750906145e661463b7f68ffd6ad89c76c56b0b5206ae0c1a14cbffb37023d4e80f635ff7397c56b116b9493613da5565b906145b9565b503d6145f9565b60405162461bcd60e51b8152600481018790526016602482015275494e53554646494349454e545f414c4c4f57414e434560501b6044820152606490fd5b91508782813d83116146af575b61469d8183613731565b81010312614149575085905138614575565b503d614693565b90506146c1866133ed565b38614510565b90506146d2866133ed565b6002861490614509565b60405162461bcd60e51b815260206004820152600e60248201526d14d51052d157d49154555254915160921b6044820152606490fd5b60039150141538614493565b3d15614749573d9061472f82613ac4565b9161473d6040519384613731565b82523d6000602084013e565b606090565b1561475557565b60405162461bcd60e51b815260206004820152600b60248201526a10d0531317d1905253115160aa1b6044820152606490fd5b919061479582828561437f565b60195460408051632ee4b68b60e11b815292959092916020916001600160a01b039182168385600481845afa948515614a2257600095614a2d575b50836004918751928380926318da001160e01b82525afa908115614a22579083916000916149eb575b50169361497e57614809816133ed565b8061485a5750505083929161483a6000808080600080516020615a868339815191529961436c975af16118c761471e565b516001600160a01b03909216825260208201929092529081906040820190565b82936148c3939261488f8361486f8b956133ed565b60018114801561496b575b801561495a575b61488a90613f59565b6157fa565b16906000875180968195829463a9059cbb60e01b84526004840160209093929193604081019460018060a01b031681520152565b03925af191821561494f576000926148fb575b5050600080516020615a868339815191529392916148f661436c926157bc565b61483a565b81819392933d8311614948575b6149128183613731565b810103126141495750600080516020615a868339815191529392916148f661493c61436c93613da5565b925081939495506148d6565b503d614908565b83513d6000823e3d90fd5b50614964816133ed565b6000614881565b50614975816133ed565b6002811461487a565b905061436c9250600080516020615a8683398151915295949391506149a2816133ed565b600281036149ba57506149b484614a83565b5061483a565b6149c3816133ed565b600181036149d557506149b484615535565b6149de816133ed565b6148f6576149b484614f1a565b91508482813d8311614a1b575b614a028183613731565b810103126141495750614a158391613b5b565b386147f9565b503d6149f8565b86513d6000823e3d90fd5b90948482813d8311614a61575b614a448183613731565b81010312614149575083614a59600492613da5565b9591506147d0565b503d614a3a565b908160209103126101b3575162ffffff811681036101b35790565b60195460408051635f117aa360e11b8082529094936001600160a01b03936020939260049185908990849082908a165afa978815614f0f57600098614ed8575b50601a54845163095ea7b360e01b8082529188166001600160a01b031684820190815260208101869052919990918791839182908b9082906040010392165a90600091f18015614d2957614ea4575b50856019541692845191825285828481875afa918215614d2957600092614e6d575b5084516325abd85f60e11b808252929087818681895afa908115614d9c57600091614e38575b508651918883602481633488e95960e21b9a8b825260008b8301525afa928315614de05790614b9494939291600093614e20575b50615324565b90866019541690855190815286818581855afa908115614a2257600091614deb575b5085519063f77800e560e01b9586835288838781875afa928315614de057908991600094614da7575b506024895180968193825260018a8301525afa928315614d9c5790614c0e94939291600093614d6d5750615324565b94806019541697845193808552868585818d5afa948515614a2257908791600096614d34575b50848751809c819382525afa988915614d2957600099614ce2575b5084519081526001600160a01b03989098169188019182526020820186905295969584928792839003604001918391600091165af1908115614cd85750614ca2575b50614c9c9150615535565b50600190565b82813d8311614cd1575b614cb68183613731565b810103126101b357614cca614c9c92613da5565b5038614c91565b503d614cac565b513d6000823e3d90fd5b90988682813d8311614d22575b614cf98183613731565b810103126141495750916000869492614d14899a9b95613b5b565b9a9950929450929092614c4f565b503d614cef565b85513d6000823e3d90fd5b9182819792973d8311614d66575b614d4c8183613731565b810103126141495750614d5f8791613b5b565b9438614c34565b503d614d42565b614d8e919350893d8b11614d95575b614d868183613731565b810190614a68565b9138614b8e565b503d614d7c565b87513d6000823e3d90fd5b9182819592953d8311614dd9575b614dbf8183613731565b810103126141495750614dd28991613b5b565b9238614bdf565b503d614db5565b88513d6000823e3d90fd5b908782813d8311614e19575b614e018183613731565b810103126141495750614e1390613b5b565b38614bb6565b503d614df7565b614d8e9193508a3d8c11614d9557614d868183613731565b908882813d8311614e66575b614e4e8183613731565b810103126141495750614e6090613b5b565b38614b5a565b503d614e44565b90918682813d8311614e9d575b614e848183613731565b810103126141495750614e9690613b5b565b9038614b34565b503d614e7a565b8581813d8311614ed1575b614eb98183613731565b810103126101b357614eca90613da5565b5038614b12565b503d614eaf565b90978582813d8311614f08575b614eef8183613731565b810103126141495750614f0190613b5b565b9638614ac3565b503d614ee5565b84513d6000823e3d90fd5b906019549160006040918251926325abd85f60e11b958685526020926004958481888160018060a01b038097165afa9081156152cf5790839187916152ec575b5016803b156152c45785829188865180948193630d0e30db60e41b83525af180156152cf5790879392916152d9575b508482601954168551988980928d82525afa9687156152cf578697615294575b50601a54845163095ea7b360e01b8082529184166001600160a01b031685820190815260208101849052919890918791839182908b90889083906040010393165af1801561519057615260575b5081601954168451998a52858a8581845afa998a1561519057879a615229575b50845163f77800e560e01b8082529a87828781865afa9182156151e05788908a936151ea575b508751633488e95960e21b815260018882015293849060249082905afa9283156151e057916150769391879695938b93614e205750615324565b96816019541699868b8751968780928582525afa9485156151d657908791899661519a575b50848751809d819382525afa998a1561519057879a615146575b5084519081526001600160a01b03999099169189019182526020820187905296979596849287928390036040019183918891165af190811561513d5750615103575b505050614c9c90615535565b82813d8311615136575b6151178183613731565b8101031261414957509061512d614c9c92613da5565b509038806150f7565b503d61510d565b513d84823e3d90fd5b9099508581813d8311615189575b61515e8183613731565b810103126151855791868694926151778a9b9c95613b5b565b9b9a509294509290926150b5565b8680fd5b503d615154565b85513d89823e3d90fd5b8281939297503d83116151cf575b6151b28183613731565b810103126151cb576151c48791613b5b565b943861509b565b8780fd5b503d6151a8565b86513d8a823e3d90fd5b87513d8b823e3d90fd5b80929350813d8311615222575b6152018183613731565b8101031261521e57908761521760249493613b5b565b929361503c565b8880fd5b503d6151f7565b9099508581813d8311615259575b6152418183613731565b810103126151855761525290613b5b565b9838615016565b503d615237565b8581813d831161528d575b6152758183613731565b810103126151855761528690613da5565b5038614ff6565b503d61526b565b9096508481813d83116152c8575b6152ac8183613731565b810103126152c4576152bd90613b5b565b9538614fa9565b8580fd5b503d6152a2565b84513d88823e3d90fd5b6152e590969196613703565b9438614f89565b809250868092503d831161531d575b6153058183613731565b810103126152c4576153178391613b5b565b38614f5a565b503d6152fb565b601a54604051636eb1769f60e11b81523060048201526001600160a01b039182166024820181905293959493929091169190602081604481865afa8015610dc3578591600091615500575b5010615494575b50603c42019384421161400457601a546040516101008101916001600160a01b0316906001600160401b03831181841017610ae05760409283529384526001600160a01b03928316602085810191825262ffffff9687168685019081523060608801908152608088019a8b5260a08801998a52600060c0890181815260e08a01828152975163414bf38960e01b81529951891660048b01529451881660248a01529151909816604488015296518516606487015297516084860152955160a4850152945160c4840152511660e482015292918391610104918391905af1908115610dc357600091615465575090565b906020823d60201161548c575b8161547f60209383613731565b8101031261414957505190565b3d9150615472565b60405163095ea7b360e01b8152600481019190915260001960248201526020816044816000865af18015610dc35715615376576020813d6020116154f8575b816154e060209383613731565b810103126101b3576154f190613da5565b5038615376565b3d91506154d3565b91506020823d60201161552d575b8161551b60209383613731565b8101031261414957508490513861536f565b3d915061550e565b60195460405163f77800e560e01b81526001600160a01b03916020908290600490829086165afa908115610dc3576000916155b4575b501690813b156101b357600091602483926040519485938492630852cd8d60e31b845260048401525af18015610dc3576155a55750600190565b6155ae90613703565b38614c9c565b906020823d82116155e5575b816155cd60209383613731565b8101031261414957506155df90613b5b565b3861556b565b3d91506155c0565b92909160ff600754166008811015610bf75780600261561492141590816147125750613d2a565b61561d846133ed565b8361567d576000808084819482908215615673575b6001600160a01b031690f115610dc3577f4a647b1d902051b0ae802f6050c58456d79d826bdf2bbf37a1bf13be97727b2d915b61436c6144e383838761437f565b6108fc9150615632565b6020826156f192615690879695966133ed565b6001871480156157a9575b8015615798575b6156ab90613f59565b6001600160a01b036156bc886157fa565b1690600060405180968195829463a9059cbb60e01b84526004840160209093929193604081019460018060a01b031681520152565b03925af1908115610dc357600091615736575b50906157317f4a647b1d902051b0ae802f6050c58456d79d826bdf2bbf37a1bf13be97727b2d93926157bc565b615665565b906020823d8211615790575b8161574f60209383613731565b810103126141495750906157316157877f4a647b1d902051b0ae802f6050c58456d79d826bdf2bbf37a1bf13be97727b2d9493613da5565b91929350615704565b3d9150615742565b506157a2876133ed565b60006156a2565b506157b3876133ed565b6002871461569b565b156157c357565b60405162461bcd60e51b815260206004820152600f60248201526e1514905394d1915497d19052531151608a1b6044820152606490fd5b615803816133ed565b6002811461585957806158176001926133ed565b1461582157600090565b60195460405163f77800e560e01b815290602090829060049082906001600160a01b03165afa908115610dc35760009161411e575090565b50601954604051635f117aa360e11b815290602090829060049082906001600160a01b03165afa908115610dc35760009161411e575090565b61589d60215461591d565b61393c60226158ac815461591d565b926158b860235461591d565b60405194826158d18794518092602080880191016138b8565b830190601760f91b918260208201526158f48251809360206021850191016138b8565b0190602182015261590e82518093602087850191016138b8565b01036002810184520182613731565b806000917a184f03e93ff9f4daa797ed6e38ed64bf6a1f01000000000000000080821015615a77575b506d04ee2d6d415b85acef810000000080831015615a68575b50662386f26fc1000080831015615a59575b506305f5e10080831015615a4a575b5061271080831015615a3b575b506064821015615a2b575b600a80921015615a21575b600190816021818601956159b687613ac4565b966159c46040519889613731565b8088526159d3601f1991613ac4565b01366020890137860101905b6159eb575b5050505090565b600019019083906f181899199a1a9b1b9c1cb0b131b232b360811b8282061a835304918215615a1c579190826159df565b6159e4565b91600101916159a3565b9190606460029104910191615998565b6004919392049101913861598d565b60089193920491019138615980565b60109193920491019138615971565b6020919392049101913861595f565b60409350810491503861594656fe659f33fc6677bebf3a9bf3101092792e31f35766d0358e54577bdd91a655f6a0036b6384b5eca791c62761152d0c79bb0604c104a5fb6f4eb0703f3154bb3db055f448fdea98c4d29eb340757ef0a66cd03dbb9538908a6a81d96026b71ec47566de8ffda797e3de9c05e8fc57b3bf0ec28a930d40b0d285d93c06501cf6a090f652222313e28459528d920b65115c16c04f3efc82aaedc97be59f3f377c0d3fce6d7b5282bd9a3661ae061feed1dbda4e52ab073b1f9285be6e155d9c38d4eca264697066735822122074d1e0c82a875e841ebf62ea6e32bac521d83e3b9eee9a377cf0c2c8f4a1194b64736f6c63430008130033",
  "linkReferences": {},
  "deployedLinkReferences": {}
}