{
  "_format": "hh-sol-artifact-1",
  "contractName": "MecenateFeed",
  "sourceName": "contracts/features/MecenateFeed.sol",
  "abi": [
    {
      "inputs": [
        {
          "internalType": "address",
          "name": "_owner",
          "type": "address"
        },
        {
          "internalType": "address",
          "name": "_usersModuleContract",
          "type": "address"
        },
        {
          "internalType": "address",
          "name": "_factoryContract",
          "type": "address"
        },
        {
          "internalType": "string",
          "name": "_version",
          "type": "string"
        }
      ],
      "stateMutability": "nonpayable",
      "type": "constructor"
    },
    {
      "anonymous": false,
      "inputs": [
        {
          "components": [
            {
              "components": [
                {
                  "internalType": "address",
                  "name": "evmAddress",
                  "type": "address"
                },
                {
                  "internalType": "bytes",
                  "name": "sismoVaultId",
                  "type": "bytes"
                },
                {
                  "internalType": "bytes",
                  "name": "publicKey",
                  "type": "bytes"
                }
              ],
              "internalType": "struct Structures.User",
              "name": "creator",
              "type": "tuple"
            },
            {
              "components": [
                {
                  "components": [
                    {
                      "internalType": "enum Structures.PostStatus",
                      "name": "status",
                      "type": "uint8"
                    },
                    {
                      "internalType": "enum Structures.PostType",
                      "name": "postType",
                      "type": "uint8"
                    },
                    {
                      "internalType": "uint256",
                      "name": "creationTimeStamp",
                      "type": "uint256"
                    },
                    {
                      "internalType": "uint256",
                      "name": "endTimeStamp",
                      "type": "uint256"
                    },
                    {
                      "internalType": "uint256",
                      "name": "duration",
                      "type": "uint256"
                    },
                    {
                      "internalType": "enum Structures.Tokens",
                      "name": "tokenId",
                      "type": "uint8"
                    }
                  ],
                  "internalType": "struct Structures.PostSettings",
                  "name": "settings",
                  "type": "tuple"
                },
                {
                  "components": [
                    {
                      "internalType": "uint256",
                      "name": "stake",
                      "type": "uint256"
                    },
                    {
                      "internalType": "uint256",
                      "name": "payment",
                      "type": "uint256"
                    },
                    {
                      "internalType": "uint256",
                      "name": "punishment",
                      "type": "uint256"
                    },
                    {
                      "internalType": "uint256",
                      "name": "penalty",
                      "type": "uint256"
                    }
                  ],
                  "internalType": "struct Structures.PostEscrow",
                  "name": "escrow",
                  "type": "tuple"
                },
                {
                  "components": [
                    {
                      "internalType": "bytes",
                      "name": "encryptedData",
                      "type": "bytes"
                    },
                    {
                      "internalType": "bytes",
                      "name": "encryptedKey",
                      "type": "bytes"
                    },
                    {
                      "internalType": "bytes",
                      "name": "decryptedData",
                      "type": "bytes"
                    }
                  ],
                  "internalType": "struct Structures.PostEncryptedData",
                  "name": "data",
                  "type": "tuple"
                }
              ],
              "internalType": "struct Structures.PostData",
              "name": "postdata",
              "type": "tuple"
            }
          ],
          "indexed": false,
          "internalType": "struct Structures.Post",
          "name": "post",
          "type": "tuple"
        }
      ],
      "name": "Accepted",
      "type": "event"
    },
    {
      "anonymous": false,
      "inputs": [
        {
          "components": [
            {
              "components": [
                {
                  "internalType": "address",
                  "name": "evmAddress",
                  "type": "address"
                },
                {
                  "internalType": "bytes",
                  "name": "sismoVaultId",
                  "type": "bytes"
                },
                {
                  "internalType": "bytes",
                  "name": "publicKey",
                  "type": "bytes"
                }
              ],
              "internalType": "struct Structures.User",
              "name": "creator",
              "type": "tuple"
            },
            {
              "components": [
                {
                  "components": [
                    {
                      "internalType": "enum Structures.PostStatus",
                      "name": "status",
                      "type": "uint8"
                    },
                    {
                      "internalType": "enum Structures.PostType",
                      "name": "postType",
                      "type": "uint8"
                    },
                    {
                      "internalType": "uint256",
                      "name": "creationTimeStamp",
                      "type": "uint256"
                    },
                    {
                      "internalType": "uint256",
                      "name": "endTimeStamp",
                      "type": "uint256"
                    },
                    {
                      "internalType": "uint256",
                      "name": "duration",
                      "type": "uint256"
                    },
                    {
                      "internalType": "enum Structures.Tokens",
                      "name": "tokenId",
                      "type": "uint8"
                    }
                  ],
                  "internalType": "struct Structures.PostSettings",
                  "name": "settings",
                  "type": "tuple"
                },
                {
                  "components": [
                    {
                      "internalType": "uint256",
                      "name": "stake",
                      "type": "uint256"
                    },
                    {
                      "internalType": "uint256",
                      "name": "payment",
                      "type": "uint256"
                    },
                    {
                      "internalType": "uint256",
                      "name": "punishment",
                      "type": "uint256"
                    },
                    {
                      "internalType": "uint256",
                      "name": "penalty",
                      "type": "uint256"
                    }
                  ],
                  "internalType": "struct Structures.PostEscrow",
                  "name": "escrow",
                  "type": "tuple"
                },
                {
                  "components": [
                    {
                      "internalType": "bytes",
                      "name": "encryptedData",
                      "type": "bytes"
                    },
                    {
                      "internalType": "bytes",
                      "name": "encryptedKey",
                      "type": "bytes"
                    },
                    {
                      "internalType": "bytes",
                      "name": "decryptedData",
                      "type": "bytes"
                    }
                  ],
                  "internalType": "struct Structures.PostEncryptedData",
                  "name": "data",
                  "type": "tuple"
                }
              ],
              "internalType": "struct Structures.PostData",
              "name": "postdata",
              "type": "tuple"
            }
          ],
          "indexed": false,
          "internalType": "struct Structures.Post",
          "name": "post",
          "type": "tuple"
        }
      ],
      "name": "Created",
      "type": "event"
    },
    {
      "anonymous": false,
      "inputs": [
        {
          "indexed": false,
          "internalType": "enum Structures.Tokens",
          "name": "tokenID",
          "type": "uint8"
        },
        {
          "indexed": false,
          "internalType": "address",
          "name": "user",
          "type": "address"
        },
        {
          "indexed": false,
          "internalType": "uint256",
          "name": "amount",
          "type": "uint256"
        },
        {
          "indexed": false,
          "internalType": "uint256",
          "name": "newDeposit",
          "type": "uint256"
        }
      ],
      "name": "DepositDecreased",
      "type": "event"
    },
    {
      "anonymous": false,
      "inputs": [
        {
          "indexed": false,
          "internalType": "enum Structures.Tokens",
          "name": "tokenID",
          "type": "uint8"
        },
        {
          "indexed": false,
          "internalType": "address",
          "name": "user",
          "type": "address"
        },
        {
          "indexed": false,
          "internalType": "uint256",
          "name": "amount",
          "type": "uint256"
        },
        {
          "indexed": false,
          "internalType": "uint256",
          "name": "newDeposit",
          "type": "uint256"
        }
      ],
      "name": "DepositIncreased",
      "type": "event"
    },
    {
      "anonymous": false,
      "inputs": [
        {
          "components": [
            {
              "components": [
                {
                  "internalType": "address",
                  "name": "evmAddress",
                  "type": "address"
                },
                {
                  "internalType": "bytes",
                  "name": "sismoVaultId",
                  "type": "bytes"
                },
                {
                  "internalType": "bytes",
                  "name": "publicKey",
                  "type": "bytes"
                }
              ],
              "internalType": "struct Structures.User",
              "name": "creator",
              "type": "tuple"
            },
            {
              "components": [
                {
                  "components": [
                    {
                      "internalType": "enum Structures.PostStatus",
                      "name": "status",
                      "type": "uint8"
                    },
                    {
                      "internalType": "enum Structures.PostType",
                      "name": "postType",
                      "type": "uint8"
                    },
                    {
                      "internalType": "uint256",
                      "name": "creationTimeStamp",
                      "type": "uint256"
                    },
                    {
                      "internalType": "uint256",
                      "name": "endTimeStamp",
                      "type": "uint256"
                    },
                    {
                      "internalType": "uint256",
                      "name": "duration",
                      "type": "uint256"
                    },
                    {
                      "internalType": "enum Structures.Tokens",
                      "name": "tokenId",
                      "type": "uint8"
                    }
                  ],
                  "internalType": "struct Structures.PostSettings",
                  "name": "settings",
                  "type": "tuple"
                },
                {
                  "components": [
                    {
                      "internalType": "uint256",
                      "name": "stake",
                      "type": "uint256"
                    },
                    {
                      "internalType": "uint256",
                      "name": "payment",
                      "type": "uint256"
                    },
                    {
                      "internalType": "uint256",
                      "name": "punishment",
                      "type": "uint256"
                    },
                    {
                      "internalType": "uint256",
                      "name": "penalty",
                      "type": "uint256"
                    }
                  ],
                  "internalType": "struct Structures.PostEscrow",
                  "name": "escrow",
                  "type": "tuple"
                },
                {
                  "components": [
                    {
                      "internalType": "bytes",
                      "name": "encryptedData",
                      "type": "bytes"
                    },
                    {
                      "internalType": "bytes",
                      "name": "encryptedKey",
                      "type": "bytes"
                    },
                    {
                      "internalType": "bytes",
                      "name": "decryptedData",
                      "type": "bytes"
                    }
                  ],
                  "internalType": "struct Structures.PostEncryptedData",
                  "name": "data",
                  "type": "tuple"
                }
              ],
              "internalType": "struct Structures.PostData",
              "name": "postdata",
              "type": "tuple"
            }
          ],
          "indexed": false,
          "internalType": "struct Structures.Post",
          "name": "post",
          "type": "tuple"
        }
      ],
      "name": "Finalized",
      "type": "event"
    },
    {
      "anonymous": false,
      "inputs": [
        {
          "components": [
            {
              "components": [
                {
                  "internalType": "address",
                  "name": "evmAddress",
                  "type": "address"
                },
                {
                  "internalType": "bytes",
                  "name": "sismoVaultId",
                  "type": "bytes"
                },
                {
                  "internalType": "bytes",
                  "name": "publicKey",
                  "type": "bytes"
                }
              ],
              "internalType": "struct Structures.User",
              "name": "creator",
              "type": "tuple"
            },
            {
              "components": [
                {
                  "components": [
                    {
                      "internalType": "enum Structures.PostStatus",
                      "name": "status",
                      "type": "uint8"
                    },
                    {
                      "internalType": "enum Structures.PostType",
                      "name": "postType",
                      "type": "uint8"
                    },
                    {
                      "internalType": "uint256",
                      "name": "creationTimeStamp",
                      "type": "uint256"
                    },
                    {
                      "internalType": "uint256",
                      "name": "endTimeStamp",
                      "type": "uint256"
                    },
                    {
                      "internalType": "uint256",
                      "name": "duration",
                      "type": "uint256"
                    },
                    {
                      "internalType": "enum Structures.Tokens",
                      "name": "tokenId",
                      "type": "uint8"
                    }
                  ],
                  "internalType": "struct Structures.PostSettings",
                  "name": "settings",
                  "type": "tuple"
                },
                {
                  "components": [
                    {
                      "internalType": "uint256",
                      "name": "stake",
                      "type": "uint256"
                    },
                    {
                      "internalType": "uint256",
                      "name": "payment",
                      "type": "uint256"
                    },
                    {
                      "internalType": "uint256",
                      "name": "punishment",
                      "type": "uint256"
                    },
                    {
                      "internalType": "uint256",
                      "name": "penalty",
                      "type": "uint256"
                    }
                  ],
                  "internalType": "struct Structures.PostEscrow",
                  "name": "escrow",
                  "type": "tuple"
                },
                {
                  "components": [
                    {
                      "internalType": "bytes",
                      "name": "encryptedData",
                      "type": "bytes"
                    },
                    {
                      "internalType": "bytes",
                      "name": "encryptedKey",
                      "type": "bytes"
                    },
                    {
                      "internalType": "bytes",
                      "name": "decryptedData",
                      "type": "bytes"
                    }
                  ],
                  "internalType": "struct Structures.PostEncryptedData",
                  "name": "data",
                  "type": "tuple"
                }
              ],
              "internalType": "struct Structures.PostData",
              "name": "postdata",
              "type": "tuple"
            }
          ],
          "indexed": false,
          "internalType": "struct Structures.Post",
          "name": "post",
          "type": "tuple"
        }
      ],
      "name": "Invalid",
      "type": "event"
    },
    {
      "anonymous": false,
      "inputs": [
        {
          "components": [
            {
              "components": [
                {
                  "internalType": "address",
                  "name": "evmAddress",
                  "type": "address"
                },
                {
                  "internalType": "bytes",
                  "name": "sismoVaultId",
                  "type": "bytes"
                },
                {
                  "internalType": "bytes",
                  "name": "publicKey",
                  "type": "bytes"
                }
              ],
              "internalType": "struct Structures.User",
              "name": "creator",
              "type": "tuple"
            },
            {
              "components": [
                {
                  "components": [
                    {
                      "internalType": "enum Structures.PostStatus",
                      "name": "status",
                      "type": "uint8"
                    },
                    {
                      "internalType": "enum Structures.PostType",
                      "name": "postType",
                      "type": "uint8"
                    },
                    {
                      "internalType": "uint256",
                      "name": "creationTimeStamp",
                      "type": "uint256"
                    },
                    {
                      "internalType": "uint256",
                      "name": "endTimeStamp",
                      "type": "uint256"
                    },
                    {
                      "internalType": "uint256",
                      "name": "duration",
                      "type": "uint256"
                    },
                    {
                      "internalType": "enum Structures.Tokens",
                      "name": "tokenId",
                      "type": "uint8"
                    }
                  ],
                  "internalType": "struct Structures.PostSettings",
                  "name": "settings",
                  "type": "tuple"
                },
                {
                  "components": [
                    {
                      "internalType": "uint256",
                      "name": "stake",
                      "type": "uint256"
                    },
                    {
                      "internalType": "uint256",
                      "name": "payment",
                      "type": "uint256"
                    },
                    {
                      "internalType": "uint256",
                      "name": "punishment",
                      "type": "uint256"
                    },
                    {
                      "internalType": "uint256",
                      "name": "penalty",
                      "type": "uint256"
                    }
                  ],
                  "internalType": "struct Structures.PostEscrow",
                  "name": "escrow",
                  "type": "tuple"
                },
                {
                  "components": [
                    {
                      "internalType": "bytes",
                      "name": "encryptedData",
                      "type": "bytes"
                    },
                    {
                      "internalType": "bytes",
                      "name": "encryptedKey",
                      "type": "bytes"
                    },
                    {
                      "internalType": "bytes",
                      "name": "decryptedData",
                      "type": "bytes"
                    }
                  ],
                  "internalType": "struct Structures.PostEncryptedData",
                  "name": "data",
                  "type": "tuple"
                }
              ],
              "internalType": "struct Structures.PostData",
              "name": "postdata",
              "type": "tuple"
            }
          ],
          "indexed": false,
          "internalType": "struct Structures.Post",
          "name": "post",
          "type": "tuple"
        }
      ],
      "name": "MadePublic",
      "type": "event"
    },
    {
      "anonymous": false,
      "inputs": [
        {
          "components": [
            {
              "components": [
                {
                  "internalType": "address",
                  "name": "evmAddress",
                  "type": "address"
                },
                {
                  "internalType": "bytes",
                  "name": "sismoVaultId",
                  "type": "bytes"
                },
                {
                  "internalType": "bytes",
                  "name": "publicKey",
                  "type": "bytes"
                }
              ],
              "internalType": "struct Structures.User",
              "name": "creator",
              "type": "tuple"
            },
            {
              "components": [
                {
                  "components": [
                    {
                      "internalType": "enum Structures.PostStatus",
                      "name": "status",
                      "type": "uint8"
                    },
                    {
                      "internalType": "enum Structures.PostType",
                      "name": "postType",
                      "type": "uint8"
                    },
                    {
                      "internalType": "uint256",
                      "name": "creationTimeStamp",
                      "type": "uint256"
                    },
                    {
                      "internalType": "uint256",
                      "name": "endTimeStamp",
                      "type": "uint256"
                    },
                    {
                      "internalType": "uint256",
                      "name": "duration",
                      "type": "uint256"
                    },
                    {
                      "internalType": "enum Structures.Tokens",
                      "name": "tokenId",
                      "type": "uint8"
                    }
                  ],
                  "internalType": "struct Structures.PostSettings",
                  "name": "settings",
                  "type": "tuple"
                },
                {
                  "components": [
                    {
                      "internalType": "uint256",
                      "name": "stake",
                      "type": "uint256"
                    },
                    {
                      "internalType": "uint256",
                      "name": "payment",
                      "type": "uint256"
                    },
                    {
                      "internalType": "uint256",
                      "name": "punishment",
                      "type": "uint256"
                    },
                    {
                      "internalType": "uint256",
                      "name": "penalty",
                      "type": "uint256"
                    }
                  ],
                  "internalType": "struct Structures.PostEscrow",
                  "name": "escrow",
                  "type": "tuple"
                },
                {
                  "components": [
                    {
                      "internalType": "bytes",
                      "name": "encryptedData",
                      "type": "bytes"
                    },
                    {
                      "internalType": "bytes",
                      "name": "encryptedKey",
                      "type": "bytes"
                    },
                    {
                      "internalType": "bytes",
                      "name": "decryptedData",
                      "type": "bytes"
                    }
                  ],
                  "internalType": "struct Structures.PostEncryptedData",
                  "name": "data",
                  "type": "tuple"
                }
              ],
              "internalType": "struct Structures.PostData",
              "name": "postdata",
              "type": "tuple"
            }
          ],
          "indexed": false,
          "internalType": "struct Structures.Post",
          "name": "post",
          "type": "tuple"
        }
      ],
      "name": "Renounced",
      "type": "event"
    },
    {
      "anonymous": false,
      "inputs": [
        {
          "indexed": false,
          "internalType": "address",
          "name": "staker",
          "type": "address"
        },
        {
          "indexed": false,
          "internalType": "uint256",
          "name": "amount",
          "type": "uint256"
        },
        {
          "indexed": false,
          "internalType": "enum Structures.Tokens",
          "name": "tokenId",
          "type": "uint8"
        }
      ],
      "name": "StakeAdded",
      "type": "event"
    },
    {
      "anonymous": false,
      "inputs": [
        {
          "indexed": false,
          "internalType": "address",
          "name": "staker",
          "type": "address"
        },
        {
          "indexed": false,
          "internalType": "uint256",
          "name": "amount",
          "type": "uint256"
        }
      ],
      "name": "StakeBurned",
      "type": "event"
    },
    {
      "anonymous": false,
      "inputs": [
        {
          "indexed": false,
          "internalType": "address",
          "name": "staker",
          "type": "address"
        },
        {
          "indexed": false,
          "internalType": "uint256",
          "name": "amount",
          "type": "uint256"
        },
        {
          "indexed": false,
          "internalType": "enum Structures.Tokens",
          "name": "tokenId",
          "type": "uint8"
        }
      ],
      "name": "StakeTaken",
      "type": "event"
    },
    {
      "anonymous": false,
      "inputs": [
        {
          "components": [
            {
              "components": [
                {
                  "internalType": "address",
                  "name": "evmAddress",
                  "type": "address"
                },
                {
                  "internalType": "bytes",
                  "name": "sismoVaultId",
                  "type": "bytes"
                },
                {
                  "internalType": "bytes",
                  "name": "publicKey",
                  "type": "bytes"
                }
              ],
              "internalType": "struct Structures.User",
              "name": "creator",
              "type": "tuple"
            },
            {
              "components": [
                {
                  "components": [
                    {
                      "internalType": "enum Structures.PostStatus",
                      "name": "status",
                      "type": "uint8"
                    },
                    {
                      "internalType": "enum Structures.PostType",
                      "name": "postType",
                      "type": "uint8"
                    },
                    {
                      "internalType": "uint256",
                      "name": "creationTimeStamp",
                      "type": "uint256"
                    },
                    {
                      "internalType": "uint256",
                      "name": "endTimeStamp",
                      "type": "uint256"
                    },
                    {
                      "internalType": "uint256",
                      "name": "duration",
                      "type": "uint256"
                    },
                    {
                      "internalType": "enum Structures.Tokens",
                      "name": "tokenId",
                      "type": "uint8"
                    }
                  ],
                  "internalType": "struct Structures.PostSettings",
                  "name": "settings",
                  "type": "tuple"
                },
                {
                  "components": [
                    {
                      "internalType": "uint256",
                      "name": "stake",
                      "type": "uint256"
                    },
                    {
                      "internalType": "uint256",
                      "name": "payment",
                      "type": "uint256"
                    },
                    {
                      "internalType": "uint256",
                      "name": "punishment",
                      "type": "uint256"
                    },
                    {
                      "internalType": "uint256",
                      "name": "penalty",
                      "type": "uint256"
                    }
                  ],
                  "internalType": "struct Structures.PostEscrow",
                  "name": "escrow",
                  "type": "tuple"
                },
                {
                  "components": [
                    {
                      "internalType": "bytes",
                      "name": "encryptedData",
                      "type": "bytes"
                    },
                    {
                      "internalType": "bytes",
                      "name": "encryptedKey",
                      "type": "bytes"
                    },
                    {
                      "internalType": "bytes",
                      "name": "decryptedData",
                      "type": "bytes"
                    }
                  ],
                  "internalType": "struct Structures.PostEncryptedData",
                  "name": "data",
                  "type": "tuple"
                }
              ],
              "internalType": "struct Structures.PostData",
              "name": "postdata",
              "type": "tuple"
            }
          ],
          "indexed": false,
          "internalType": "struct Structures.Post",
          "name": "post",
          "type": "tuple"
        }
      ],
      "name": "Valid",
      "type": "event"
    },
    {
      "inputs": [
        {
          "internalType": "enum Structures.Tokens",
          "name": "tokenId",
          "type": "uint8"
        },
        {
          "internalType": "uint256",
          "name": "paymentAmount",
          "type": "uint256"
        },
        {
          "internalType": "address",
          "name": "funder",
          "type": "address"
        }
      ],
      "name": "acceptPost",
      "outputs": [],
      "stateMutability": "payable",
      "type": "function"
    },
    {
      "inputs": [
        {
          "internalType": "enum Structures.Tokens",
          "name": "tokenId",
          "type": "uint8"
        },
        {
          "internalType": "address",
          "name": "_funder",
          "type": "address"
        },
        {
          "internalType": "uint256",
          "name": "amountToAdd",
          "type": "uint256"
        }
      ],
      "name": "addStake",
      "outputs": [
        {
          "internalType": "uint256",
          "name": "",
          "type": "uint256"
        }
      ],
      "stateMutability": "payable",
      "type": "function"
    },
    {
      "inputs": [
        {
          "internalType": "bytes",
          "name": "encryptedHash",
          "type": "bytes"
        },
        {
          "internalType": "enum Structures.PostType",
          "name": "postType",
          "type": "uint8"
        },
        {
          "internalType": "enum Structures.PostDuration",
          "name": "postDuration",
          "type": "uint8"
        },
        {
          "internalType": "uint256",
          "name": "payment",
          "type": "uint256"
        },
        {
          "internalType": "uint256",
          "name": "stakeAmount",
          "type": "uint256"
        },
        {
          "internalType": "enum Structures.Tokens",
          "name": "tokenId",
          "type": "uint8"
        },
        {
          "internalType": "address",
          "name": "funder",
          "type": "address"
        }
      ],
      "name": "createPost",
      "outputs": [
        {
          "components": [
            {
              "components": [
                {
                  "internalType": "address",
                  "name": "evmAddress",
                  "type": "address"
                },
                {
                  "internalType": "bytes",
                  "name": "sismoVaultId",
                  "type": "bytes"
                },
                {
                  "internalType": "bytes",
                  "name": "publicKey",
                  "type": "bytes"
                }
              ],
              "internalType": "struct Structures.User",
              "name": "creator",
              "type": "tuple"
            },
            {
              "components": [
                {
                  "components": [
                    {
                      "internalType": "enum Structures.PostStatus",
                      "name": "status",
                      "type": "uint8"
                    },
                    {
                      "internalType": "enum Structures.PostType",
                      "name": "postType",
                      "type": "uint8"
                    },
                    {
                      "internalType": "uint256",
                      "name": "creationTimeStamp",
                      "type": "uint256"
                    },
                    {
                      "internalType": "uint256",
                      "name": "endTimeStamp",
                      "type": "uint256"
                    },
                    {
                      "internalType": "uint256",
                      "name": "duration",
                      "type": "uint256"
                    },
                    {
                      "internalType": "enum Structures.Tokens",
                      "name": "tokenId",
                      "type": "uint8"
                    }
                  ],
                  "internalType": "struct Structures.PostSettings",
                  "name": "settings",
                  "type": "tuple"
                },
                {
                  "components": [
                    {
                      "internalType": "uint256",
                      "name": "stake",
                      "type": "uint256"
                    },
                    {
                      "internalType": "uint256",
                      "name": "payment",
                      "type": "uint256"
                    },
                    {
                      "internalType": "uint256",
                      "name": "punishment",
                      "type": "uint256"
                    },
                    {
                      "internalType": "uint256",
                      "name": "penalty",
                      "type": "uint256"
                    }
                  ],
                  "internalType": "struct Structures.PostEscrow",
                  "name": "escrow",
                  "type": "tuple"
                },
                {
                  "components": [
                    {
                      "internalType": "bytes",
                      "name": "encryptedData",
                      "type": "bytes"
                    },
                    {
                      "internalType": "bytes",
                      "name": "encryptedKey",
                      "type": "bytes"
                    },
                    {
                      "internalType": "bytes",
                      "name": "decryptedData",
                      "type": "bytes"
                    }
                  ],
                  "internalType": "struct Structures.PostEncryptedData",
                  "name": "data",
                  "type": "tuple"
                }
              ],
              "internalType": "struct Structures.PostData",
              "name": "postdata",
              "type": "tuple"
            }
          ],
          "internalType": "struct Structures.Post",
          "name": "",
          "type": "tuple"
        }
      ],
      "stateMutability": "payable",
      "type": "function"
    },
    {
      "inputs": [
        {
          "internalType": "bool",
          "name": "valid",
          "type": "bool"
        },
        {
          "internalType": "uint256",
          "name": "punishment",
          "type": "uint256"
        },
        {
          "internalType": "bytes32",
          "name": "uid",
          "type": "bytes32"
        }
      ],
      "name": "finalizePost",
      "outputs": [],
      "stateMutability": "nonpayable",
      "type": "function"
    },
    {
      "inputs": [],
      "name": "getBuyerStake",
      "outputs": [
        {
          "internalType": "uint256",
          "name": "amount",
          "type": "uint256"
        }
      ],
      "stateMutability": "view",
      "type": "function"
    },
    {
      "inputs": [],
      "name": "getPaymentRequested",
      "outputs": [
        {
          "internalType": "uint256",
          "name": "",
          "type": "uint256"
        }
      ],
      "stateMutability": "view",
      "type": "function"
    },
    {
      "inputs": [],
      "name": "getSellerStake",
      "outputs": [
        {
          "internalType": "uint256",
          "name": "amount",
          "type": "uint256"
        }
      ],
      "stateMutability": "view",
      "type": "function"
    },
    {
      "inputs": [
        {
          "internalType": "enum Structures.Tokens",
          "name": "tokenId",
          "type": "uint8"
        },
        {
          "internalType": "address",
          "name": "staker",
          "type": "address"
        }
      ],
      "name": "getStake",
      "outputs": [
        {
          "internalType": "uint256",
          "name": "amount",
          "type": "uint256"
        }
      ],
      "stateMutability": "view",
      "type": "function"
    },
    {
      "inputs": [],
      "name": "getStakeRequested",
      "outputs": [
        {
          "internalType": "uint256",
          "name": "",
          "type": "uint256"
        }
      ],
      "stateMutability": "view",
      "type": "function"
    },
    {
      "inputs": [],
      "name": "getStatus",
      "outputs": [
        {
          "internalType": "enum Structures.PostStatus",
          "name": "",
          "type": "uint8"
        }
      ],
      "stateMutability": "view",
      "type": "function"
    },
    {
      "inputs": [],
      "name": "getTokenId",
      "outputs": [
        {
          "internalType": "enum Structures.Tokens",
          "name": "",
          "type": "uint8"
        }
      ],
      "stateMutability": "view",
      "type": "function"
    },
    {
      "inputs": [],
      "name": "getTokenIdAddress",
      "outputs": [
        {
          "internalType": "address",
          "name": "",
          "type": "address"
        }
      ],
      "stateMutability": "view",
      "type": "function"
    },
    {
      "inputs": [],
      "name": "getTotalStaked",
      "outputs": [
        {
          "internalType": "uint256",
          "name": "",
          "type": "uint256"
        }
      ],
      "stateMutability": "view",
      "type": "function"
    },
    {
      "inputs": [],
      "name": "owner",
      "outputs": [
        {
          "internalType": "address",
          "name": "",
          "type": "address"
        }
      ],
      "stateMutability": "view",
      "type": "function"
    },
    {
      "inputs": [],
      "name": "post",
      "outputs": [
        {
          "components": [
            {
              "internalType": "address",
              "name": "evmAddress",
              "type": "address"
            },
            {
              "internalType": "bytes",
              "name": "sismoVaultId",
              "type": "bytes"
            },
            {
              "internalType": "bytes",
              "name": "publicKey",
              "type": "bytes"
            }
          ],
          "internalType": "struct Structures.User",
          "name": "creator",
          "type": "tuple"
        },
        {
          "components": [
            {
              "components": [
                {
                  "internalType": "enum Structures.PostStatus",
                  "name": "status",
                  "type": "uint8"
                },
                {
                  "internalType": "enum Structures.PostType",
                  "name": "postType",
                  "type": "uint8"
                },
                {
                  "internalType": "uint256",
                  "name": "creationTimeStamp",
                  "type": "uint256"
                },
                {
                  "internalType": "uint256",
                  "name": "endTimeStamp",
                  "type": "uint256"
                },
                {
                  "internalType": "uint256",
                  "name": "duration",
                  "type": "uint256"
                },
                {
                  "internalType": "enum Structures.Tokens",
                  "name": "tokenId",
                  "type": "uint8"
                }
              ],
              "internalType": "struct Structures.PostSettings",
              "name": "settings",
              "type": "tuple"
            },
            {
              "components": [
                {
                  "internalType": "uint256",
                  "name": "stake",
                  "type": "uint256"
                },
                {
                  "internalType": "uint256",
                  "name": "payment",
                  "type": "uint256"
                },
                {
                  "internalType": "uint256",
                  "name": "punishment",
                  "type": "uint256"
                },
                {
                  "internalType": "uint256",
                  "name": "penalty",
                  "type": "uint256"
                }
              ],
              "internalType": "struct Structures.PostEscrow",
              "name": "escrow",
              "type": "tuple"
            },
            {
              "components": [
                {
                  "internalType": "bytes",
                  "name": "encryptedData",
                  "type": "bytes"
                },
                {
                  "internalType": "bytes",
                  "name": "encryptedKey",
                  "type": "bytes"
                },
                {
                  "internalType": "bytes",
                  "name": "decryptedData",
                  "type": "bytes"
                }
              ],
              "internalType": "struct Structures.PostEncryptedData",
              "name": "data",
              "type": "tuple"
            }
          ],
          "internalType": "struct Structures.PostData",
          "name": "postdata",
          "type": "tuple"
        }
      ],
      "stateMutability": "view",
      "type": "function"
    },
    {
      "inputs": [],
      "name": "postCount",
      "outputs": [
        {
          "internalType": "uint256",
          "name": "",
          "type": "uint256"
        }
      ],
      "stateMutability": "view",
      "type": "function"
    },
    {
      "inputs": [],
      "name": "renouncePost",
      "outputs": [],
      "stateMutability": "nonpayable",
      "type": "function"
    },
    {
      "inputs": [
        {
          "internalType": "bytes",
          "name": "decryptedData",
          "type": "bytes"
        }
      ],
      "name": "revealData",
      "outputs": [
        {
          "internalType": "bytes",
          "name": "",
          "type": "bytes"
        }
      ],
      "stateMutability": "nonpayable",
      "type": "function"
    },
    {
      "inputs": [
        {
          "internalType": "bytes",
          "name": "encryptedKey",
          "type": "bytes"
        }
      ],
      "name": "submitHash",
      "outputs": [],
      "stateMutability": "nonpayable",
      "type": "function"
    },
    {
      "inputs": [
        {
          "internalType": "enum Structures.Tokens",
          "name": "tokenId",
          "type": "uint8"
        },
        {
          "internalType": "bytes",
          "name": "sismoConnectResponse",
          "type": "bytes"
        },
        {
          "internalType": "address",
          "name": "receiver",
          "type": "address"
        }
      ],
      "name": "takeFullStake",
      "outputs": [
        {
          "internalType": "uint256",
          "name": "",
          "type": "uint256"
        }
      ],
      "stateMutability": "nonpayable",
      "type": "function"
    },
    {
      "inputs": [
        {
          "internalType": "enum Structures.Tokens",
          "name": "tokenId",
          "type": "uint8"
        },
        {
          "internalType": "address",
          "name": "receiver",
          "type": "address"
        },
        {
          "internalType": "uint256",
          "name": "amountToTake",
          "type": "uint256"
        }
      ],
      "name": "takeStake",
      "outputs": [
        {
          "internalType": "uint256",
          "name": "",
          "type": "uint256"
        }
      ],
      "stateMutability": "nonpayable",
      "type": "function"
    },
    {
      "inputs": [],
      "name": "version",
      "outputs": [
        {
          "internalType": "string",
          "name": "",
          "type": "string"
        }
      ],
      "stateMutability": "view",
      "type": "function"
    },
    {
      "stateMutability": "payable",
      "type": "receive"
    }
  ],
  "bytecode": "0x6080604090808252346200036e576200631c803803809162000022828562000389565b833981016080828203126200036e576200003c82620003ad565b6020916200004c838501620003ad565b936200005a868201620003ad565b60608201516001600160401b03928382116200036e5701601f908482820112156200036e5780518481116200037357895191601f1996620000a28a8987860116018562000389565b8284528983830101116200036e57889060005b838110620003595750506000918301015267016345785d8a0000601255600060135560018060a01b039687938460018060a01b03199a168a6014541617601455338a6015541617601555818b5180926303e21fa960e61b8252816004988992165afa80156200034e5789916000916200030c575b501689601654161760165560ff19938481541681556000805260188252620151808b60002055600194856000526203f4808c60002055600260005262093a808c600020556003600052621275008c600020558160005262278d008c600020556000805260198352858c600020918254161790558251958611620002f757601754908582811c92168015620002ec575b83831014620002d757508381116200028b575b50809285116001146200022057508394509083929160009462000214575b50501b916000199060031b1c1916176017555b1690600054161760005551615f599081620003c38239f35b015192503880620001e9565b929484908116601760005284600020946000905b8883831062000270575050501062000256575b505050811b01601755620001fc565b015160001960f88460031b161c1916905538808062000247565b85870151885590960195948501948793509081019062000234565b6017600052816000208480880160051c820192848910620002cd575b0160051c019085905b828110620002c0575050620001cb565b60008155018590620002b0565b92508192620002a7565b602290634e487b7160e01b6000525260246000fd5b91607f1691620001b8565b604190634e487b7160e01b6000525260246000fd5b91508282813d831162000346575b62000326818362000389565b810103126200034357506200033c8991620003ad565b3862000129565b80fd5b503d6200031a565b8b513d6000823e3d90fd5b8181018301518582018401528a9201620000b5565b600080fd5b634e487b7160e01b600052604160045260246000fd5b601f909101601f19168101906001600160401b038211908210176200037357604052565b51906001600160a01b03821682036200036e5756fe608080604052600436101561001d575b50361561001b57600080fd5b005b60003560e01c908163010a38f51461380c5750806305c1f5021461340b5780630917e776146133b757806317906c2e146133995780631d0b4af5146132b15780633d876d5d146129a75780634c38d8771461296c5780634e69d560146129445780634fcf370f146125de57806352a6cb4a1461259457806354fd4d50146124b25780635ad4e170146124795780635c63ed691461243e5780637abe914d1461219d5780638da5cb5b146121695780638f287dc2146115945780638f903c791461121d578063939e99fa14610328578063d24e0c871461030a578063df3832af1461024d578063ed70d5d51461013f5763faeb5e171461011c573861000f565b3461013a57600060031936011261013a576020600954604051908152f35b600080fd5b3461013a5761014d36613bc0565b60ff60089392935416600381101561021e57600383101561021e576101739083146141a7565b81600052601a60205260406000203360005260205280604060002054106101da576020926101a2923390615c00565b73ffffffffffffffffffffffffffffffffffffffff6010541633146000146101d15780600a555b604051908152f35b806009556101c9565b606460405162461bcd60e51b815260206004820152601060248201527f4e4f545f454e4f5547485f5354414b45000000000000000000000000000000006044820152fd5b7f4e487b7100000000000000000000000000000000000000000000000000000000600052602160045260246000fd5b3461013a57606060031936011261013a57600435600381101561013a5760243567ffffffffffffffff811161013a5761028a903690600401613c1c565b50610293613b9d565b9060ff6008541690600382101561021e576020926102b56102c79383146141a7565b6102bf338361439e565b913390615c00565b73ffffffffffffffffffffffffffffffffffffffff806010541633146000146102f7575080600a55604051908152f35b6011541633036101c957806009556101c9565b3461013a57600060031936011261013a576020600a54604051908152f35b60e060031936011261013a5760043567ffffffffffffffff811161013a57610354903690600401613c1c565b6005602435101561013a576005604435101561013a57600360a435101561013a5773ffffffffffffffffffffffffffffffffffffffff60c4351660c4350361013a576040516103a281613984565b6040516103ae81613930565b60008152606060208201526060604082015281526020604051916103d183613930565b6040516103dd8161394c565b60008152600083820152600060408201526000606082015260006080820152600060a0820152835260405161041181613968565b6000815260008382015260006040820152600060608201528284015260405161043981613930565b6060815260608382015260606040820152604084015201526000600160a43514801561120d575b819080156111fe575b61047391506141a7565b73ffffffffffffffffffffffffffffffffffffffff60005416330361013a576024602073ffffffffffffffffffffffffffffffffffffffff60145416604051928380927f48990fcc0000000000000000000000000000000000000000000000000000000082523360048301525afa90811561109f576000916111c4575b50156111805760ff60045416600881101561021e57600052601960205261051e60ff60406000205416613c98565b6084351561113c57606435156110f85761021e5760a435156110ab575b6105466044356139f3565b60ff6044351660005260186020526040600020549061056d60843560c4353360a435614694565b9060ff6004541691600883101561021e576024926000526019602052604060002060ff19815416905560016000526040600020600160ff19825416179055600160ff196004541617600455600073ffffffffffffffffffffffffffffffffffffffff60145416604051948580927fef2a87640000000000000000000000000000000000000000000000000000000082523360048301525afa92831561109f57600093610fe9575b50604051936106228561394c565b600185526106316024356139f3565b602435602086015242604086015260006060860152608085015261065a60a43560a086016139fd565b6040519061066782613968565b815260643560208201526000604082015260006060820152610687614255565b61068f614255565b906040519361069d85613930565b845260208401526040830152604051936106b685613930565b845260208401526040830152604051916106cf83613984565b818352602083015261073373ffffffffffffffffffffffffffffffffffffffff82511673ffffffffffffffffffffffffffffffffffffffff167fffffffffffffffffffffffff00000000000000000000000000000000000000006001541617600155565b602081015180519067ffffffffffffffff8211610b5657610755600254613838565b601f8111610f4a575b50602090601f8311600114610ebf57604093929160009183610eb4575b50506000198260011b9260031b1c1916176002555b015180519067ffffffffffffffff8211610b565781906107b1600354613838565b601f8111610e07575b50602090601f8311600114610d7d57600092610d72575b50506000198260011b9260031b1c1916176003555b60208101518051805190600882101561021e5761080460a092613d3b565b6020810151610812816139f3565b61081b816139f3565b7fffffffffffffffffffffffffffffffffffffffffffffffffffffffffffff00ff61ff006004549260081b16911617600455604081015160055560608101516006556080810151600755015190600382101561021e5760409160ff60ff19600854169116176008556060602082015180516009556020810151600a5583810151600b550151600c55015190815191825167ffffffffffffffff8111610b56576108c5600d54613838565b601f8111610d0d575b506020601f8211600114610c895781929394600092610c7e575b50506000198260011b9260031b1c191617600d555b602081015180519067ffffffffffffffff8211610b565761091f600e54613838565b601f8111610c19575b50602090601f8311600114610b9057604093929160009183610b85575b50506000198260011b9260031b1c191617600e555b015190815167ffffffffffffffff8111610b5657610979600f54613838565b601f8111610af1575b50602092601f8211600114610a6f5792819293600092610a64575b50506000198260011b9260031b1c191617600f555b601354906000198214610a35576001610a319201601355337fffffffffffffffffffffffff000000000000000000000000000000000000000060115416176011557f32444e7b4a54d133e7b42c066eb65166a0c0a74d57ceffa00b125094dd0d38b560405180610a228482613c63565b0390a160405191829182613c63565b0390f35b7f4e487b7100000000000000000000000000000000000000000000000000000000600052601160045260246000fd5b01519050838061099d565b601f19821693600f6000527f8d1108e10bcb7c27dddfc02ed9d693a074039d026cf4ea4240b40f7d581ac8029160005b868110610ad95750836001959610610ac0575b505050811b01600f556109b2565b015160001960f88460031b161c19169055838080610ab2565b91926020600181928685015181550194019201610a9f565b600f6000527f8d1108e10bcb7c27dddfc02ed9d693a074039d026cf4ea4240b40f7d581ac802601f830160051c81019160208410610b4c575b601f0160051c01905b818110610b405750610982565b60008155600101610b33565b9091508190610b2a565b7f4e487b7100000000000000000000000000000000000000000000000000000000600052604160045260246000fd5b015190508580610945565b90601f19831691600e6000527fbb7b4a454dc3493923482f07822329ed19e8244eff582cc204f8554c3620c3fd9260005b818110610c015750916001939185604097969410610be8575b505050811b01600e5561095a565b015160001960f88460031b161c19169055858080610bda565b92936020600181928786015181550195019301610bc1565b600e6000527fbb7b4a454dc3493923482f07822329ed19e8244eff582cc204f8554c3620c3fd601f840160051c81019160208510610c74575b601f0160051c01905b818110610c685750610928565b60008155600101610c5b565b9091508190610c52565b0151905084806108e8565b601f19821690600d6000527fd7b6990105719101dabeb77144f2a3385c8033acd3af97e9423a695e81ad1eb59160005b818110610cf557509583600195969710610cdc575b505050811b01600d556108fd565b015160001960f88460031b161c19169055848080610cce565b9192602060018192868b015181550194019201610cb9565b600d6000527fd7b6990105719101dabeb77144f2a3385c8033acd3af97e9423a695e81ad1eb5601f830160051c81019160208410610d68575b601f0160051c01905b818110610d5c57506108ce565b60008155600101610d4f565b9091508190610d46565b0151905083806107d1565b925060036000527fc2575a0e9e593c00f959f8c92f12db2869c3395a3b0502d05e2516446f71f85b906000935b601f1984168510610dec576001945083601f19811610610dd3575b505050811b016003556107e6565b015160001960f88460031b161c19169055838080610dc5565b81810151835560209485019460019093019290910190610daa565b9091506003600052601f830160051c7fc2575a0e9e593c00f959f8c92f12db2869c3395a3b0502d05e2516446f71f85b019060208410610e8c575b90601f8493920160051c7fc2575a0e9e593c00f959f8c92f12db2869c3395a3b0502d05e2516446f71f85b01905b818110610e7d57506107ba565b60008155849350600101610e70565b7fc2575a0e9e593c00f959f8c92f12db2869c3395a3b0502d05e2516446f71f85b9150610e42565b01519050858061077b565b9060026000527f405787fa12a823e0f2b7631cc41b3ba8828b3321ca811111fa75cd3aa3bb5ace9160005b601f1985168110610f32575091839160019383601f19604098971610610f19575b505050811b01600255610790565b015160001960f88460031b161c19169055858080610f0b565b91926020600181928685015181550194019201610eea565b6002600052601f830160051c7f405787fa12a823e0f2b7631cc41b3ba8828b3321ca811111fa75cd3aa3bb5ace0160208410610fc2575b601f820160051c7f405787fa12a823e0f2b7631cc41b3ba8828b3321ca811111fa75cd3aa3bb5ace018110610fb6575061075e565b60008155600101610f81565b507f405787fa12a823e0f2b7631cc41b3ba8828b3321ca811111fa75cd3aa3bb5ace610f81565b9092503d806000833e610ffc81836139d0565b602082828101031261013a5781519167ffffffffffffffff831161013a576060838201838301031261013a576040519261103584613930565b6110408183016141f2565b84526020818301015167ffffffffffffffff811161013a57611069908484019083850101614213565b6020850152604081830101519067ffffffffffffffff821161013a57611093938301920101614213565b60408201529184610614565b6040513d6000823e3d90fd5b346084351461053b57606460405162461bcd60e51b815260206004820152600f60248201527f57524f4e475f4d53475f56414c554500000000000000000000000000000000006044820152fd5b606460405162461bcd60e51b815260206004820152600c60248201527f5041594d454e545f5a45524f00000000000000000000000000000000000000006044820152fd5b606460405162461bcd60e51b815260206004820152601160248201527f5354414b455f414d4f554e545f5a45524f0000000000000000000000000000006044820152fd5b606460405162461bcd60e51b815260206004820152600e60248201527f555345525f4e4f545f45584953540000000000000000000000000000000000006044820152fd5b90506020813d6020116111f6575b816111df602093836139d0565b8101031261013a576111f090613ce3565b836104f0565b3d91506111d2565b5061021e578060a43515610469565b506000905060a435600214610460565b3461013a5760208060031936011261013a5767ffffffffffffffff9060043582811161013a57611251903690600401613c1c565b9173ffffffffffffffffffffffffffffffffffffffff611276816011541633146143da565b60ff60045416600881101561021e57806000526019845260ff6040600020541680611580575b1561153c576024848360145416604051928380927f48990fcc0000000000000000000000000000000000000000000000000000000082523360048301525afa90811561109f57600091611507575b50156114c3576113016001923390845416146143da565b6000526019835260406000209260ff199384815416905560036000526040600020828582541617905560038460045416176004558451928311610b5657611349600e54613838565b601f811161145c575b5080601f84116001146113d857508280916003966000936113cb575b505060001991921b92851b1c191617600e555b600454161760045561139560075442614575565b6006557f02fe2a83c74f62aff637e2f8affe6ab2afef1ac9c7112f2ce5c98584b8ec7305604051806113c681613d55565b0390a1005b015191506000198761136e565b90601f198493941695600e6000527fbb7b4a454dc3493923482f07822329ed19e8244eff582cc204f8554c3620c3fd926000905b888210611445575050836003971061142d575b505050811b01600e55611381565b015160001960f884881b161c1916905584808061141f565b80878596829496860151815501950193019061140c565b600e6000527fbb7b4a454dc3493923482f07822329ed19e8244eff582cc204f8554c3620c3fd601f850160051c8101918386106114b9575b601f0160051c019083905b8281106114ad575050611352565b6000815501839061149f565b9091508190611494565b6064846040519062461bcd60e51b82526004820152601360248201527f5573657220646f6573206e6f74206578697374000000000000000000000000006044820152fd5b90508481813d8311611535575b61151e81836139d0565b8101031261013a5761152f90613ce3565b866112ea565b503d611514565b6064846040519062461bcd60e51b82526004820152600c60248201527f57524f4e475f53544154555300000000000000000000000000000000000000006044820152fd5b50600281148061129c57506003811461129c565b3461013a57606060031936011261013a5760043515156004350361013a5773ffffffffffffffffffffffffffffffffffffffff601054166115d68133146143da565b60ff60045416600881101561021e576003036121255773ffffffffffffffffffffffffffffffffffffffff601554166040517fcd77b52c000000000000000000000000000000000000000000000000000000008152602081600481855afa90811561109f576000916120d3575b50600073ffffffffffffffffffffffffffffffffffffffff916024604051809481937fa3112a640000000000000000000000000000000000000000000000000000000083526044356004840152165afa90811561109f57600091611fb2575b506116c88373ffffffffffffffffffffffffffffffffffffffff60e0840151161461443a565b73ffffffffffffffffffffffffffffffffffffffff60c08201511673ffffffffffffffffffffffffffffffffffffffff6011541603611f6e576020810151604051907f3ec4f23d000000000000000000000000000000000000000000000000000000008252602082600481875afa91821561109f57600092611f3a575b5003611ef657610120015190815182019160608184031261013a5761176c60208201613ce3565b92611779604083016141f2565b9160608101519167ffffffffffffffff831161013a576117a0926020809201920101614213565b9073ffffffffffffffffffffffffffffffffffffffff30911603611eb25760405190816117d96020820192602084526040830190613a2c565b03916117ed601f19938481018352826139d0565b519020906040516118196020820192602084528261180d6040820161388b565b039081018352826139d0565b51902003611e6e576020600491604051928380927f18da00110000000000000000000000000000000000000000000000000000000082525afa90811561109f57600091611e34575b50600a54916040517f808fc20600000000000000000000000000000000000000000000000000000000815260208160048173ffffffffffffffffffffffffffffffffffffffff87165afa90811561109f57600091611e00575b506127106118cb6118d39286614485565b048094614498565b9360065442118015611df7575b15611c7e57506118f790151560043515151461443a565b61194b61192560ff6008541673ffffffffffffffffffffffffffffffffffffffff60105416600a5491614582565b9360ff6008541673ffffffffffffffffffffffffffffffffffffffff60115416906144de565b9160ff6008541660038110158061021e57600182148015918183611c70575b81908015611c63575b61197d91506141a7565b6004602073ffffffffffffffffffffffffffffffffffffffff60155416604051928380927f5dc96d160000000000000000000000000000000000000000000000000000000082525afa90811561109f57600091611c29575b50611bdc5761021e5782611aaf5750505060008080809373ffffffffffffffffffffffffffffffffffffffff611a1696165af1611a106149fd565b50614a2d565b600955600a5560043515611aa85760045b60ff60045416600881101561021e57600052601960205260406000209060ff1991828154169055600881101561021e57611a7a9160ff821660005260196020526001604060002091825416179055613d3b565b7f02fe2a83c74f62aff637e2f8affe6ab2afef1ac9c7112f2ce5c98584b8ec7305604051806113c681613d55565b6005611a27565b60009091611bcf575b8115611ba9575b509273ffffffffffffffffffffffffffffffffffffffff600081611af160209695611aec611b4d996141a7565b615e4f565b1692604051968795869485937fa9059cbb00000000000000000000000000000000000000000000000000000000855216600484016020909392919373ffffffffffffffffffffffffffffffffffffffff60408201951681520152565b03925af1801561109f57600090611b6e575b611b699150615e04565b611a16565b506020813d602011611ba1575b81611b88602093836139d0565b8101031261013a57611b9c611b6991613ce3565b611b5f565b3d9150611b7b565b905091909161021e5790600073ffffffffffffffffffffffffffffffffffffffff611abf565b5050600281146000611ab8565b91509192935061021e5760028203611bff575050611bf990614e47565b50611a16565b15611c0e5750611bf990615b0c565b15611c195750611a16565b611c2290615389565b5082611bf9565b90506020813d602011611c5b575b81611c44602093836139d0565b8101031261013a57611c5590613ce3565b896119d5565b3d9150611c37565b5061021e57808415611973565b50600090506002841461196a565b935091505060043515611c8d57005b611c9e90151560043515151461443a565b600954602435908111611db35760125491670de0b6b3a76400009283811015611d6f57600593611cd1611cdf9285614485565b04809260ff60085416614a78565b600a55611d0b8260ff6008541673ffffffffffffffffffffffffffffffffffffffff6011541690614a78565b60095560ff199183836004541617600455600b55600c55816000526019602052604060002060018282541617905560045416176004557f275bebb09134c1369fa190998cff2fa6935a1cebafc405bb809446f7228f2544604051806113c681613d55565b606460405162461bcd60e51b815260206004820152601560248201527f50554e4953484d454e545f524154494f5f4849474800000000000000000000006044820152fd5b606460405162461bcd60e51b815260206004820152601360248201527f50554e4953484d454e545f544f4f5f48494748000000000000000000000000006044820152fd5b506004356118e0565b90506020813d602011611e2c575b81611e1b602093836139d0565b8101031261013a57516127106118ba565b3d9150611e0e565b90506020813d602011611e66575b81611e4f602093836139d0565b8101031261013a57611e60906141f2565b83611861565b3d9150611e42565b606460405162461bcd60e51b815260206004820152600c60248201527f494e56414c49445f504f535400000000000000000000000000000000000000006044820152fd5b606460405162461bcd60e51b815260206004820152600c60248201527f494e56414c49445f4645454400000000000000000000000000000000000000006044820152fd5b606460405162461bcd60e51b815260206004820152600e60248201527f494e56414c49445f534348454d410000000000000000000000000000000000006044820152fd5b9091506020813d602011611f66575b81611f56602093836139d0565b8101031261013a57519085611745565b3d9150611f49565b606460405162461bcd60e51b815260206004820152601160248201527f494e56414c49445f524543495049454e540000000000000000000000000000006044820152fd5b90503d806000833e611fc481836139d0565b602082828101031261013a5781519067ffffffffffffffff821161013a576101409283838201838301031261013a5760405193848181011067ffffffffffffffff8287011117610b56578401604090815281840180518652602080820151908701526120309101614425565b6040850152612043606084830101614425565b6060850152612056608084830101614425565b608085015260a0838201015160a085015261207560c0848301016141f2565b60c085015261208860e0848301016141f2565b60e085015261010061209d8185840101613ce3565b90850152610120928381830101519067ffffffffffffffff821161013a576120c9938301920101614213565b90820152836116a2565b90506020813d60201161211d575b816120ee602093836139d0565b8101031261013a57600061211673ffffffffffffffffffffffffffffffffffffffff926141f2565b9150611643565b3d91506120e1565b606460405162461bcd60e51b815260206004820152600d60248201527f4e4f545f5355424d4954544544000000000000000000000000000000000000006044820152fd5b3461013a57600060031936011261013a57602073ffffffffffffffffffffffffffffffffffffffff60005416604051908152f35b3461013a5760208060031936011261013a5767ffffffffffffffff9060043582811161013a576121d1903690600401613c1c565b9060ff6004541660088110158061021e57816000526019835260ff6040600020541680612402575b61220290613c98565b61222673ffffffffffffffffffffffffffffffffffffffff60115416331415613cf0565b61021e576004036123be578151928311610b5657612245600f54613838565b601f811161235a575b508092601f81116001146122d957809192936000916122ce575b506000198260011b9260031b1c191617600f555b600660ff1960045416176004557fe7d6481f2b9d6b669e12d036651e614223439c9ad89d743ac0dede17d2fd9921604051806122b781613d55565b0390a1610a31604051928284938452830190613a2c565b905083015184612268565b601f19811693600f6000527f8d1108e10bcb7c27dddfc02ed9d693a074039d026cf4ea4240b40f7d581ac8029060005b86811061234357508260019495961061232a575b5050811b01600f5561227c565b85015160001960f88460031b161c19169055848061231d565b909184600181928589015181550193019101612309565b600f6000527f8d1108e10bcb7c27dddfc02ed9d693a074039d026cf4ea4240b40f7d581ac802601f850160051c8101918386106123b4575b601f0160051c01905b8181106123a8575061224e565b6000815560010161239b565b9091508190612392565b6064906040519062461bcd60e51b82526004820152600d60248201527f4e4f545f46494e414c495a4544000000000000000000000000000000000000006044820152fd5b50506000600382148015612430575b81908015612421575b90506121f9565b5061021e57806004831461241a565b506000905060068214612411565b3461013a57600060031936011261013a5760206101c960ff6008541673ffffffffffffffffffffffffffffffffffffffff601154169061439e565b3461013a57600060031936011261013a57602061249461428e565b73ffffffffffffffffffffffffffffffffffffffff60405191168152f35b3461013a57600060031936011261013a5760405160006017546124d481613838565b8084529060019081811690811561256d5750600114612512575b610a31846124fe818603826139d0565b604051918291602083526020830190613a2c565b6017600090815292507fc624b66cc0138b8fabc209247f72d758e1cf3343756d543badbf24212bed8c155b8284106125555750505081016020016124fe826124ee565b8054602085870181019190915290930192810161253d565b60ff191660208087019190915292151560051b850190920192506124fe91508390506124ee565b3461013a57604060031936011261013a57600435600381101561013a576024359073ffffffffffffffffffffffffffffffffffffffff8216820361013a576020916101c99161439e565b606060031936011261013a57600435600381101561013a576024908135612603613b9d565b60016000526020926019845261262060ff60406000205416613c98565b60ff6008541660038110156129165761263a9082146141a7565b806129105734925b73ffffffffffffffffffffffffffffffffffffffff806011541690612667828561439e565b600954116128cd5786889160145416604051928380927f48990fcc0000000000000000000000000000000000000000000000000000000082523360048301525afa90811561109f57600091612898575b5015612855576126c990331415613cf0565b600a549081156127b357106127705760029450906126ea92915b3390614694565b600a55601960ff199183836004541617600455836000525260406000206001828254161790556004541617600455337fffffffffffffffffffffffff000000000000000000000000000000000000000060105416176010557f024413d06e2653518c2c3ec94f6fa9abf03587aed601e2cec0004a154fb50d7e604051806113c681613d55565b6064846012876040519262461bcd60e51b845260048401528201527f4e4f545f454e4f5547485f5041594d454e5400000000000000000000000000006044820152fd5b9050341561281257156127cf5760029450906126ea92916126e3565b606484600c876040519262461bcd60e51b845260048401528201527f5a45524f5f5041594d454e5400000000000000000000000000000000000000006044820152fd5b606485600d886040519262461bcd60e51b845260048401528201527f5a45524f5f4d534756414c5545000000000000000000000000000000000000006044820152fd5b606486600f896040519262461bcd60e51b845260048401528201527f55534552545f4e4f545f455849535400000000000000000000000000000000006044820152fd5b90508681813d83116128c6575b6128af81836139d0565b8101031261013a576128c090613ce3565b886126b7565b503d6128a5565b606487600f8a6040519262461bcd60e51b845260048401528201527f5354414b455f494e434f525245435400000000000000000000000000000000006044820152fd5b82612642565b857f4e487b710000000000000000000000000000000000000000000000000000000060005260216004526000fd5b3461013a57600060031936011261013a57602060ff6004541661296a6040518092613a9e565bf35b3461013a57600060031936011261013a5760206101c960ff6008541673ffffffffffffffffffffffffffffffffffffffff601054169061439e565b3461013a57600060031936011261013a5773ffffffffffffffffffffffffffffffffffffffff6129dc816011541633146143da565b60ff60045416600881101561021e5760005260209060198252612a0660ff60406000205416613c98565b612a0e614255565b612a16614255565b90612b4660405193612a2785613930565b600085528585019283526040850193845260405194612a458661394c565b60078652600087870152600060408701526000606087015260006080870152600060a0870152604051612a7781613968565b60008152600088820152600060408201526000606082015260405190612a9c82613930565b604051612aa8816139b4565b600081528252604051612aba816139b4565b6000815289830152604051612ace816139b4565b60008152604083015260405197612ae489613930565b885288880152604087015286604051612afc81613984565b82815201958652511673ffffffffffffffffffffffffffffffffffffffff167fffffffffffffffffffffffff00000000000000000000000000000000000000006001541617600155565b5180519167ffffffffffffffff92838111610b565780612b67600254613838565b93601f94858111613244575b5087908583116001146131bf576000926131b4575b50506000198260011b9260031b1c1916176002555b51928351838111610b565780600395612bb68754613838565b858111613148575b5087908583116001146130c8576000926130bd575b50506000198260011b92871b1c19161784555b51938451948551600881101561021e57612bff90613d3b565b81860151612c0c816139f3565b612c15816139f3565b7fffffffffffffffffffffffffffffffffffffffffffffffffffffffffffff00ff61ff006004549260081b1691161760045560a06040870151966005978855606081015160065560808101516007550151908582101561021e5760409160ff60ff1960085416911617600855606083820151805160095584810151600a5583810151600b550151600c5501518051805190858211610b56578190612cba600d54613838565b868111613052575b508490868311600114612fce57600092612fc3575b50506000198260011b92881b1c191617600d555b81810151805190858211610b5657612d04600e54613838565b858111612f64575b508390858311600114612edc57604093929160009183612ed1575b50506000198260011b92891b1c191617600e555b0151948551938411610b5657612d52600f54613838565b90838211612e76575b505080918311600114612deb5750819293600093612dde575b5050806000199160011b931b1c191617600f555b7fffffffffffffffffffffffff0000000000000000000000000000000000000000601154166011557fea9300a5dae1f9505a3d12ec40afb3121817ab70d54e3f05b47b7121d03afb8f604051806113c681613d55565b0151915060001984612d74565b919290601f19841694600f6000527f8d1108e10bcb7c27dddfc02ed9d693a074039d026cf4ea4240b40f7d581ac802936000905b878210612e5e575050848060019710612e43575b5050505050811b01600f55612d88565b6000199260f8920151931b161c191690558280808084612e33565b80600185978294968601518155019601930190612e1f565b600f6000527f8d1108e10bcb7c27dddfc02ed9d693a074039d026cf4ea4240b40f7d581ac8029084808701821c830193858810612ec8575b01901c01905b81811015612d5b5760008155600101612eb4565b93508293612eae565b015190508980612d27565b90601f19831691600e6000527fbb7b4a454dc3493923482f07822329ed19e8244eff582cc204f8554c3620c3fd9260005b87828210612f4e575050916001939185604097969410612f36575b505050811b01600e55612d3b565b015160001960f8848c1b161c19169055898080612f28565b6001859682939686015181550195019301612f0d565b600e6000527fbb7b4a454dc3493923482f07822329ed19e8244eff582cc204f8554c3620c3fd868085018b1c820192878610612fba575b018a1c01905b818110612fae5750612d0c565b60008155600101612fa1565b92508192612f9b565b015190508880612cd7565b91601f191691600d6000527fd7b6990105719101dabeb77144f2a3385c8033acd3af97e9423a695e81ad1eb59260005b8782821061303c575050908460019594939210613024575b505050811b01600d55612ceb565b015160001960f8848b1b161c19169055888080613016565b6001859682939686015181550195019301612ffe565b909150600d6000527fd7b6990105719101dabeb77144f2a3385c8033acd3af97e9423a695e81ad1eb5868085018b1c8201928786106130b4575b908594939291018b1c01905b8181106130a55750612cc2565b60008155849350600101613098565b9250819261308c565b015190508780612bd3565b60008881527fc2575a0e9e593c00f959f8c92f12db2869c3395a3b0502d05e2516446f71f85b93601f1916905b8a82821061313257505090846001959493921061311a575b505050811b018455612be6565b015160001960f8848a1b161c1916905587808061310d565b60018596829396860151815501950193016130f5565b909150866000527fc2575a0e9e593c00f959f8c92f12db2869c3395a3b0502d05e2516446f71f85b8580850160051c8201928a86106131ab575b9085949392910160051c01905b81811061319c5750612bbe565b6000815584935060010161318f565b92508192613182565b015190508780612b88565b91601f19169160026000527f405787fa12a823e0f2b7631cc41b3ba8828b3321ca811111fa75cd3aa3bb5ace9260005b8a82821061322e575050908460019594939210613215575b505050811b01600255612b9d565b015160001960f88460031b161c19169055878080613207565b60018596829396860151815501950193016131ef565b90915060026000527f405787fa12a823e0f2b7631cc41b3ba8828b3321ca811111fa75cd3aa3bb5ace8580850160051c8201928a86106132a8575b9085949392910160051c01905b8181106132995750612b73565b6000815584935060010161328c565b9250819261327f565b6132ba36613bc0565b60ff60089392935416600381101561021e57600383101561021e576132e09083146141a7565b73ffffffffffffffffffffffffffffffffffffffff9182601054163314801561338c575b15613348576020936133289284601154163314600014613342575034913390614694565b906010541633146000146101d15780600a55604051908152f35b916126e3565b606460405162461bcd60e51b815260206004820152600f60248201527f57524f4e475f4d534753454e44455200000000000000000000000000000000006044820152fd5b5082601154163314613304565b3461013a57600060031936011261013a576020601354604051908152f35b3461013a57600060031936011261013a5760206101c960ff6008541661340573ffffffffffffffffffffffffffffffffffffffff916133fa83601154168261439e565b92601054169061439e565b90614575565b3461013a57600060031936011261013a5760405161342881613930565b60019073ffffffffffffffffffffffffffffffffffffffff8254168152604051916000836002549161345983613838565b808352928481169081156137ed575060011461378c575b61347c925003846139d0565b602092838301526040518381600060035461349681613838565b8084529086811690811561376e5750600114613712575b506134ba925003826139d0565b6040830152604051906134cc82613930565b6040516134d88161394c565b60045460ff811690600882101561021e5760ff91835260081c166134fb816139f3565b8582015260055460408201526006546060820152600754608082015261352960ff6008541660a083016139fd565b825260405161353781613968565b6009548152600a5485820152600b546040820152600c546060820152848301526040519061356482613930565b60405161357b816135748161388b565b03826139d0565b825260405185816000600e5461359081613838565b808452908681169081156136f45750600114613698575b506135b4925003826139d0565b8583015260405190600090600f54906135cc82613838565b8085529181811690811561367a5750600114613625575b61361887610a318a8989896135fa818b03826139d0565b60408201526040820152604051948594604086526040860190613a51565b9184830390850152613aab565b600f600090815292507f8d1108e10bcb7c27dddfc02ed9d693a074039d026cf4ea4240b40f7d581ac8025b8284106136675750505081018501816135fa6135e3565b80548585018a0152928801928101613650565b60ff1916858a01525050151560051b820186019050816135fa6135e3565b600e60009081529150857fbb7b4a454dc3493923482f07822329ed19e8244eff582cc204f8554c3620c3fd5b8284106136dd57505050916135b49282010188926135a7565b8054878501870152869450928501928791016136c4565b60ff19168486015250899390151560051b83010190506135b46135a7565b600360009081529150857fc2575a0e9e593c00f959f8c92f12db2869c3395a3b0502d05e2516446f71f85b5b82841061375757505050916134ba9282010186926134ad565b80548785018701528694509285019287910161373e565b60ff19168486015250879390151560051b83010190506134ba6134ad565b509060026000527f405787fa12a823e0f2b7631cc41b3ba8828b3321ca811111fa75cd3aa3bb5ace90836000925b8284106137d35750505090602061347c92820101613470565b6020929450805483858a01015201910190918386936137ba565b6020925061347c94915060ff191682840152151560051b820101613470565b3461013a57600060031936011261013a578061296a60209260ff600854165b90600382101561021e5752565b90600182811c92168015613881575b602083101461385257565b7f4e487b7100000000000000000000000000000000000000000000000000000000600052602260045260246000fd5b91607f1691613847565b600d546000929161389b82613838565b8082529160019081811690811561391257506001146138b957505050565b91929350600d6000527fd7b6990105719101dabeb77144f2a3385c8033acd3af97e9423a695e81ad1eb5916000925b8484106138fa57505060209250010190565b805460208585018101919091529093019281016138e8565b9050602094955060ff1991509291921683830152151560051b010190565b6060810190811067ffffffffffffffff821117610b5657604052565b60c0810190811067ffffffffffffffff821117610b5657604052565b6080810190811067ffffffffffffffff821117610b5657604052565b6040810190811067ffffffffffffffff821117610b5657604052565b67ffffffffffffffff8111610b5657604052565b6020810190811067ffffffffffffffff821117610b5657604052565b90601f601f19910116810190811067ffffffffffffffff821117610b5657604052565b6005111561021e57565b600382101561021e5752565b60005b838110613a1c5750506000910152565b8181015183820152602001613a0c565b90601f19601f602093613a4a81518092818752878088019101613a09565b0116010190565b613a9b9173ffffffffffffffffffffffffffffffffffffffff82511681526040613a8a6020840151606060208501526060840190613a2c565b920151906040818403910152613a2c565b90565b90600882101561021e5752565b906040613a9b92613aff60a08251613ac4868251613a9e565b6020810151613ad2816139f3565b602087015284810151858701526060810151606087015260808101516080870152015160a085019061382b565b60606020820151805160c0860152602081015160e0860152838101516101008601520151610120840152015190613b4c6101608061014084015260608451918401526101c0830190613a2c565b906101a06040613b8d6020860151947ffffffffffffffffffffffffffffffffffffffffffffffffffffffffffffffea0958686830301610180870152613a2c565b9401519282850301910152613a2c565b6044359073ffffffffffffffffffffffffffffffffffffffff8216820361013a57565b600319606091011261013a57600435600381101561013a579060243573ffffffffffffffffffffffffffffffffffffffff8116810361013a579060443590565b67ffffffffffffffff8111610b5657601f01601f191660200190565b81601f8201121561013a57803590613c3382613c00565b92613c4160405194856139d0565b8284526020838301011161013a57816000926020809301838601378301015290565b90613a9b91602081526020613c8383516040838501526060840190613a51565b920151906040601f1982850301910152613aab565b15613c9f57565b606460405162461bcd60e51b815260206004820152600e60248201527f494e56414c49445f5354415455530000000000000000000000000000000000006044820152fd5b5190811515820361013a57565b15613cf757565b606460405162461bcd60e51b815260206004820152601260248201527f594f555f4152455f5448455f53454c4c455200000000000000000000000000006044820152fd5b600881101561021e5760ff60ff1960045416911617600455565b6020808252604081830152600173ffffffffffffffffffffffffffffffffffffffff815416606084015260606080840152600092600254613d9581613838565b908160c08401528381169081600014614189575060011461412d575b508084037fffffffffffffffffffffffffffffffffffffffffffffffffffffffffffffffa00160a0820152600354600094613deb82613838565b8082529184811690811561411257506001146140b8575b50506040601f198286030191015260ff600454613e2185838316613a9e565b60081c16613e2e816139f3565b82840152600554604084015260065460608401526007546080840152613e5d60ff6008541660a085019061382b565b60095460c0840152600a5460e0840152600b54610100840152600c54610120840152606061016080610140860152840152600092600d54613e9d81613838565b90816101c08401528381169081600014614099575060011461403b575b507ffffffffffffffffffffffffffffffffffffffffffffffffffffffffffffffea08082860301610180830152600094600e5490613ef782613838565b8082529185811690811561401e5750600114613fc0575b50506101a09082860301910152600092600f5491613f2b83613838565b80835292818116908115613fa35750600114613f49575b5050505090565b92935090600f6000527f8d1108e10bcb7c27dddfc02ed9d693a074039d026cf4ea4240b40f7d581ac80292846000945b838610613f8f5750505050010138808080613f42565b805485870183015294019385908201613f79565b60ff191685840152505090151560051b0101905038808080613f42565b8591929650600e6000527fbb7b4a454dc3493923482f07822329ed19e8244eff582cc204f8554c3620c3fd90856000925b85841061400857505001019490506101a038613f0e565b8054838501860152889490930192879101613ff1565b60ff1916828801525090151560051b01840194506101a038613f0e565b909350600d6000527fd7b6990105719101dabeb77144f2a3385c8033acd3af97e9423a695e81ad1eb583836000925b848410614083575050506101e091508401019238613eba565b80546101e0858a0101520191019083859161406a565b9295505060ff196101e0921682860152151560051b8401019238613eba565b8492955060036000527fc2575a0e9e593c00f959f8c92f12db2869c3395a3b0502d05e2516446f71f85b91846000935b8285106140fc575050500101923880613e02565b80548585018701528795909401938691016140e8565b60ff1916828701525090151560051b01830193503880613e02565b90935060026000527f405787fa12a823e0f2b7631cc41b3ba8828b3321ca811111fa75cd3aa3bb5ace83836000925b8484106141745750505060e091508401019238613db1565b805460e0858a0101520191019083859161415c565b60e093965060ff1991501682860152151560051b8401019238613db1565b156141ae57565b606460405162461bcd60e51b815260206004820152600b60248201527f57524f4e475f544f4b454e0000000000000000000000000000000000000000006044820152fd5b519073ffffffffffffffffffffffffffffffffffffffff8216820361013a57565b81601f8201121561013a57805161422981613c00565b9261423760405194856139d0565b8184526020828401011161013a57613a9b9160208085019101613a09565b6040519061426282613984565b600482527f30783030000000000000000000000000000000000000000000000000000000006020830152565b60ff60085416600381101561021e576001810361433757506004602073ffffffffffffffffffffffffffffffffffffffff60155416604051928380927ff77800e50000000000000000000000000000000000000000000000000000000082525afa90811561109f57600091614301575090565b906020823d821161432f575b8161431a602093836139d0565b8101031261432c5750613a9b906141f2565b80fd5b3d915061430d565b600203614399576004602073ffffffffffffffffffffffffffffffffffffffff60155416604051928380927fbe22f5460000000000000000000000000000000000000000000000000000000082525afa90811561109f57600091614301575090565b600090565b600381101561021e57600052601a60205273ffffffffffffffffffffffffffffffffffffffff6040600020911660005260205260406000205490565b156143e157565b606460405162461bcd60e51b815260206004820152600a60248201527f4e4f545f53454c4c4552000000000000000000000000000000000000000000006044820152fd5b519067ffffffffffffffff8216820361013a57565b1561444157565b606460405162461bcd60e51b815260206004820152601360248201527f494e56414c49445f4154544553544154494f4e000000000000000000000000006044820152fd5b81810292918115918404141715610a3557565b91908203918211610a3557565b9094939273ffffffffffffffffffffffffffffffffffffffff6060936144cf84608081019961382b565b16602083015260408201520152565b9190600383101561021e5760409261456f7ffe2caf3897ec3e02a1d458d232d7c62c17809d25dbfe65864ce842162d6c217c93600090838252601a60205286822073ffffffffffffffffffffffffffffffffffffffff86169081845260205261454a8289852054614575565b978389949287869452601a6020528282209082526020522055604051948594856144a5565b0390a190565b91908201809211610a3557565b600381101561021e576000818152601a60205260409384822073ffffffffffffffffffffffffffffffffffffffff8516908184526020528583205482811061461b5791867f9060f8ffc7acd8270abf2337023e6377669ca44d5b2a23f3513a29380940f357969594926145f88361456f96614498565b98848a959288879452601a602052828220908252602052205551948594856144a5565b6064875162461bcd60e51b815260206004820152601460248201527f494e53554646494349454e545f4445504f5349540000000000000000000000006044820152fd5b604090614692939594929573ffffffffffffffffffffffffffffffffffffffff60608301971682526020820152019061382b565b565b9290600460ff8154166008811015614946578060026146bc92141590816149f1575b50613c98565b82156149ad57600385101561497f5784158015614714575b50507f68ffd6ad89c76c56b0b5206ae0c1a14cbffb37023d4e80f635ff7397c56b116b925061456f6147078383876144de565b946040519384938461465e565b6001861460008115614974575b8115614936575b5061473391506141a7565b61473c85615e4f565b9373ffffffffffffffffffffffffffffffffffffffff908161475d88615e4f565b169560405180977fdd62ed3e000000000000000000000000000000000000000000000000000000008252602098899181806147c230898c840190602090939293604083019473ffffffffffffffffffffffffffffffffffffffff809216845216910152565b03915afa801561109f578791600091614906575b50106148c35782916000889460649360405197889687957f23b872dd0000000000000000000000000000000000000000000000000000000087521690850152306024850152896044850152165af190811561109f57600091614867575b507f68ffd6ad89c76c56b0b5206ae0c1a14cbffb37023d4e80f635ff7397c56b116b935061486090615e04565b38806146d4565b91929382813d83116148bc575b61487e81836139d0565b8101031261432c5750906148606148b67f68ffd6ad89c76c56b0b5206ae0c1a14cbffb37023d4e80f635ff7397c56b116b9493613ce3565b90614833565b503d614874565b606484886040519162461bcd60e51b8352820152601660248201527f494e53554646494349454e545f414c4c4f57414e4345000000000000000000006044820152fd5b91508882813d831161492f575b61491d81836139d0565b8101031261432c5750869051386147d6565b503d614913565b9050614946576147339038614728565b6021827f4e487b71000000000000000000000000000000000000000000000000000000006000525260246000fd5b600288149150614721565b6021907f4e487b71000000000000000000000000000000000000000000000000000000006000525260246000fd5b60649060206040519162461bcd60e51b8352820152600e60248201527f5354414b455f52455155495245440000000000000000000000000000000000006044820152fd5b600391501415386146b6565b3d15614a28573d90614a0e82613c00565b91614a1c60405193846139d0565b82523d6000602084013e565b606090565b15614a3457565b606460405162461bcd60e51b815260206004820152600b60248201527f43414c4c5f4641494c45440000000000000000000000000000000000000000006044820152fd5b9190614a85828285614582565b9273ffffffffffffffffffffffffffffffffffffffff908160155416906040928351927f5dc96d1600000000000000000000000000000000000000000000000000000000845260209260049184868481845afa958615614de757600096614df2575b508483918851928380927f18da00110000000000000000000000000000000000000000000000000000000082525afa908115614de757908491600091614db0575b501694614d425760038110156149465780614ba95750505050839291614b7c60008080807f659f33fc6677bebf3a9bf3101092792e31f35766d0358e54577bdd91a655f6a09961456f975af1611a106149fd565b51928392836020909392919373ffffffffffffffffffffffffffffffffffffffff60408201951681520152565b9083948892600095949560018214908115614d37575b8115614ced575b5095614bda600092611aec614c32996141a7565b16928851968795869485937fa9059cbb00000000000000000000000000000000000000000000000000000000855284016020909392919373ffffffffffffffffffffffffffffffffffffffff60408201951681520152565b03925af1918215614ce257600092614c7c575b50507f659f33fc6677bebf3a9bf3101092792e31f35766d0358e54577bdd91a655f6a0939291614c7761456f92615e04565b614b7c565b81819392933d8311614cdb575b614c9381836139d0565b8101031261432c57507f659f33fc6677bebf3a9bf3101092792e31f35766d0358e54577bdd91a655f6a0939291614c77614ccf61456f93613ce3565b92508193949550614c45565b503d614c89565b83513d6000823e3d90fd5b9295505091949250614d09579092849288926000614bda614bc6565b6021847f4e487b71000000000000000000000000000000000000000000000000000000006000525260246000fd5b600283149150614bbf565b9350915050600382101561497f57507f659f33fc6677bebf3a9bf3101092792e31f35766d0358e54577bdd91a655f6a093929161456f9160028103614d915750614d8b84614e47565b50614b7c565b60018103614da35750614d8b84615b0c565b614c7757614d8b84615389565b91508582813d8311614de0575b614dc781836139d0565b8101031261432c5750614dda84916141f2565b38614b28565b503d614dbd565b87513d6000823e3d90fd5b90958582813d8311614e25575b614e0981836139d0565b8101031261432c575084614e1d8492613ce3565b969150614ae7565b503d614dff565b9081602091031261013a575162ffffff8116810361013a5790565b9073ffffffffffffffffffffffffffffffffffffffff806015541660408051948580937fbe22f5460000000000000000000000000000000000000000000000000000000090818352602095869160049485915afa97881561537e57600098615347575b508560165416978585518092818a817f095ea7b3000000000000000000000000000000000000000000000000000000009e8f82528a8a830191614f0f926020909392919373ffffffffffffffffffffffffffffffffffffffff60408201951681520152565b0392165a90600091f1801561519857615313575b50856015541692845191825285828481875afa918215615198576000926152dc575b508451917f4b57b0be000000000000000000000000000000000000000000000000000000009283815287818681895afa908115614de7576000916152a7575b5086519188836024817fd223a564000000000000000000000000000000000000000000000000000000009a8b825260008b8301525afa92831561524f5790614fd79493929160009361528f575b5061583f565b90866015541690855190815286818581855afa9081156151dc5760009161525a575b508551907ff77800e5000000000000000000000000000000000000000000000000000000009586835288838781875afa92831561524f57908991600094615216575b506024895180968193825260018a8301525afa928315614de7579061506a949392916000936151e7575061583f565b94806015541697845193808552868585818d5afa9485156151dc579087916000966151a3575b50848751809c819382525afa98891561519857600099615151575b5091600086949288999a946150ee88519b8c9788968794855284016020909392919373ffffffffffffffffffffffffffffffffffffffff60408201951681520152565b0393165af19081156151475750615111575b5061510b9150615b0c565b50600190565b82813d8311615140575b61512581836139d0565b8101031261013a5761513961510b92613ce3565b5038615100565b503d61511b565b513d6000823e3d90fd5b90988682813d8311615191575b61516881836139d0565b8101031261432c5750916000869492615183899a9b956141f2565b9a99509294509290926150ab565b503d61515e565b85513d6000823e3d90fd5b9182819792973d83116151d5575b6151bb81836139d0565b8101031261432c57506151ce87916141f2565b9438615090565b503d6151b1565b86513d6000823e3d90fd5b615208919350893d8b1161520f575b61520081836139d0565b810190614e2c565b9138614fd1565b503d6151f6565b9182819592953d8311615248575b61522e81836139d0565b8101031261432c575061524189916141f2565b923861503b565b503d615224565b88513d6000823e3d90fd5b908782813d8311615288575b61527081836139d0565b8101031261432c5750615282906141f2565b38614ff9565b503d615266565b6152089193508a3d8c1161520f5761520081836139d0565b908882813d83116152d5575b6152bd81836139d0565b8101031261432c57506152cf906141f2565b38614f84565b503d6152b3565b90918682813d831161530c575b6152f381836139d0565b8101031261432c5750615305906141f2565b9038614f45565b503d6152e9565b8581813d8311615340575b61532881836139d0565b8101031261013a5761533990613ce3565b5038614f23565b503d61531e565b90978582813d8311615377575b61535e81836139d0565b8101031261432c5750615370906141f2565b9638614eaa565b503d615354565b84513d6000823e3d90fd5b906015549160006040918251927f4b57b0be00000000000000000000000000000000000000000000000000000000958685526020926004958481888173ffffffffffffffffffffffffffffffffffffffff8097165afa9081156157ea579083918791615807575b5016803b156157df57858291888651809481937fd0e30db00000000000000000000000000000000000000000000000000000000083525af180156157ea5790879392916157f4575b508482601554168551988980928d82525afa9687156157ea5786976157af575b508160165416968585518092818a87827f095ea7b3000000000000000000000000000000000000000000000000000000009e8f8252898c8301916154be926020909392919373ffffffffffffffffffffffffffffffffffffffff60408201951681520152565b0393165af180156156ab5761577b575b5081601554168451998a52858a8581845afa998a156156ab57879a615744575b5084517ff77800e5000000000000000000000000000000000000000000000000000000009a8b825287828781865afa9182156156fb5788908a93615705575b506024938851948580927fd223a56400000000000000000000000000000000000000000000000000000000825260018b8301525afa9283156156fb579161557f9391879695938b9361528f575061583f565b96816015541699868b8751968780928582525afa9485156156f15790879189966156b5575b50848751809d819382525afa998a156156ab57879a615661575b509186869492899a9b9461560088519b8c9788968794855284016020909392919373ffffffffffffffffffffffffffffffffffffffff60408201951681520152565b0393165af1908115615658575061561e575b50505061510b90615b0c565b82813d8311615651575b61563281836139d0565b8101031261432c57509061564861510b92613ce3565b50903880615612565b503d615628565b513d84823e3d90fd5b9099508581813d83116156a4575b61567981836139d0565b810103126156a05791868694926156928a9b9c956141f2565b9b9a509294509290926155be565b8680fd5b503d61566f565b85513d89823e3d90fd5b8281939297503d83116156ea575b6156cd81836139d0565b810103126156e6576156df87916141f2565b94386155a4565b8780fd5b503d6156c3565b86513d8a823e3d90fd5b87513d8b823e3d90fd5b80929350813d831161573d575b61571c81836139d0565b81010312615739579087615732602494936141f2565b929361552d565b8880fd5b503d615712565b9099508581813d8311615774575b61575c81836139d0565b810103126156a05761576d906141f2565b98386154ee565b503d615752565b8581813d83116157a8575b61579081836139d0565b810103126156a0576157a190613ce3565b50386154ce565b503d615786565b9096508481813d83116157e3575b6157c781836139d0565b810103126157df576157d8906141f2565b9538615458565b8580fd5b503d6157bd565b84513d88823e3d90fd5b615800909691966139a0565b9438615438565b809250868092503d8311615838575b61582081836139d0565b810103126157df5761583283916141f2565b386153f0565b503d615816565b6016546040517fdd62ed3e00000000000000000000000000000000000000000000000000000000815230600482015273ffffffffffffffffffffffffffffffffffffffff91821660248201819052929091169190602081604481865afa801561109f578691600091615ad7575b5010615a54575b50603c420190814211610a355773ffffffffffffffffffffffffffffffffffffffff601654169160405191610100830183811067ffffffffffffffff821117610b56576040528252602082019373ffffffffffffffffffffffffffffffffffffffff168452604082019462ffffff16855260608201953087526080830191825260a0830190815260c08301916000835260e084016000905260405197889788977f414bf389000000000000000000000000000000000000000000000000000000008952865173ffffffffffffffffffffffffffffffffffffffff1660048a01525173ffffffffffffffffffffffffffffffffffffffff1660248901525162ffffff1660448801525173ffffffffffffffffffffffffffffffffffffffff1660648701525160848601525160a48501525160c484015260e0015173ffffffffffffffffffffffffffffffffffffffff1660e48301525a92600061010492602095f190811561109f57600091615a25575090565b906020823d602011615a4c575b81615a3f602093836139d0565b8101031261432c57505190565b3d9150615a32565b604051907f095ea7b3000000000000000000000000000000000000000000000000000000008252600482015260001960248201526020816044816000865af1801561109f57156158b3576020813d602011615acf575b81615ab7602093836139d0565b8101031261013a57615ac890613ce3565b50386158b3565b3d9150615aaa565b91506020823d602011615b04575b81615af2602093836139d0565b8101031261432c5750859051386158ac565b3d9150615ae5565b73ffffffffffffffffffffffffffffffffffffffff600460208260155416604051928380927ff77800e50000000000000000000000000000000000000000000000000000000082525afa90811561109f57600091615bc7575b501690813b1561013a576000916024839260405194859384927f42966c6800000000000000000000000000000000000000000000000000000000845260048401525af1801561109f57615bb85750600190565b615bc1906139a0565b3861510b565b906020823d8211615bf8575b81615be0602093836139d0565b8101031261432c5750615bf2906141f2565b38615b65565b3d9150615bd3565b92909160ff60045416600881101561021e57806002615c2792141590816149f15750613c98565b600384101561021e5783615c9d576000808084819482908215615c93575b73ffffffffffffffffffffffffffffffffffffffff1690f11561109f577f4a647b1d902051b0ae802f6050c58456d79d826bdf2bbf37a1bf13be97727b2d915b61456f614707838387614582565b6108fc9150615c45565b909190826001851460008115615df9575b8115615de7575b5090615d4092615cc66020936141a7565b73ffffffffffffffffffffffffffffffffffffffff615ce488615e4f565b169060006040518096819582947fa9059cbb000000000000000000000000000000000000000000000000000000008452600484016020909392919373ffffffffffffffffffffffffffffffffffffffff60408201951681520152565b03925af190811561109f57600091615d85575b5090615d807f4a647b1d902051b0ae802f6050c58456d79d826bdf2bbf37a1bf13be97727b2d9392615e04565b615c85565b906020823d8211615ddf575b81615d9e602093836139d0565b8101031261432c575090615d80615dd67f4a647b1d902051b0ae802f6050c58456d79d826bdf2bbf37a1bf13be97727b2d9493613ce3565b91929350615d53565b3d9150615d91565b91505061021e57826000615d40615cb5565b600287149150615cae565b15615e0b57565b606460405162461bcd60e51b815260206004820152600f60248201527f5452414e534645525f4641494c454400000000000000000000000000000000006044820152fd5b600381101561021e5760028114615ec757600114615e6c57600090565b6004602073ffffffffffffffffffffffffffffffffffffffff60155416604051928380927ff77800e50000000000000000000000000000000000000000000000000000000082525afa90811561109f57600091614301575090565b506004602073ffffffffffffffffffffffffffffffffffffffff60155416604051928380927fbe22f5460000000000000000000000000000000000000000000000000000000082525afa90811561109f5760009161430157509056fea2646970667358221220323c1a455928347d8bcc9b9c388dff2b45eccdf078cfd534aaa8566d8303245264736f6c63430008130033",
  "linkReferences": {},
  "deployedLinkReferences": {}
}