{
  "_format": "hh-sol-artifact-1",
  "contractName": "MecenateFeed",
  "sourceName": "contracts/features/MecenateFeed.sol",
  "abi": [
    {
      "anonymous": false,
      "inputs": [
        {
          "components": [
            {
              "components": [
                {
                  "internalType": "address",
                  "name": "evmAddress",
                  "type": "address"
                },
                {
                  "internalType": "bytes",
                  "name": "sismoVaultId",
                  "type": "bytes"
                },
                {
                  "internalType": "bytes",
                  "name": "publicKey",
                  "type": "bytes"
                }
              ],
              "internalType": "struct Structures.User",
              "name": "creator",
              "type": "tuple"
            },
            {
              "components": [
                {
                  "components": [
                    {
                      "internalType": "enum Structures.PostStatus",
                      "name": "status",
                      "type": "uint8"
                    },
                    {
                      "internalType": "enum Structures.PostType",
                      "name": "postType",
                      "type": "uint8"
                    },
                    {
                      "internalType": "uint256",
                      "name": "creationTimeStamp",
                      "type": "uint256"
                    },
                    {
                      "internalType": "uint256",
                      "name": "endTimeStamp",
                      "type": "uint256"
                    },
                    {
                      "internalType": "uint256",
                      "name": "duration",
                      "type": "uint256"
                    },
                    {
                      "internalType": "enum Structures.Tokens",
                      "name": "tokenId",
                      "type": "uint8"
                    },
                    {
                      "internalType": "bytes32",
                      "name": "postId",
                      "type": "bytes32"
                    }
                  ],
                  "internalType": "struct Structures.PostSettings",
                  "name": "settings",
                  "type": "tuple"
                },
                {
                  "components": [
                    {
                      "internalType": "address",
                      "name": "buyer",
                      "type": "address"
                    },
                    {
                      "internalType": "address",
                      "name": "seller",
                      "type": "address"
                    },
                    {
                      "internalType": "uint256",
                      "name": "stake",
                      "type": "uint256"
                    },
                    {
                      "internalType": "uint256",
                      "name": "payment",
                      "type": "uint256"
                    },
                    {
                      "internalType": "uint256",
                      "name": "punishment",
                      "type": "uint256"
                    },
                    {
                      "internalType": "uint256",
                      "name": "penalty",
                      "type": "uint256"
                    }
                  ],
                  "internalType": "struct Structures.PostEscrow",
                  "name": "escrow",
                  "type": "tuple"
                },
                {
                  "components": [
                    {
                      "internalType": "bytes",
                      "name": "encryptedData",
                      "type": "bytes"
                    },
                    {
                      "internalType": "bytes",
                      "name": "encryptedKey",
                      "type": "bytes"
                    },
                    {
                      "internalType": "bytes",
                      "name": "decryptedData",
                      "type": "bytes"
                    }
                  ],
                  "internalType": "struct Structures.PostEncryptedData",
                  "name": "data",
                  "type": "tuple"
                }
              ],
              "internalType": "struct Structures.PostData",
              "name": "postdata",
              "type": "tuple"
            }
          ],
          "indexed": false,
          "internalType": "struct Structures.Post",
          "name": "post",
          "type": "tuple"
        }
      ],
      "name": "Accepted",
      "type": "event"
    },
    {
      "anonymous": false,
      "inputs": [
        {
          "components": [
            {
              "components": [
                {
                  "internalType": "address",
                  "name": "evmAddress",
                  "type": "address"
                },
                {
                  "internalType": "bytes",
                  "name": "sismoVaultId",
                  "type": "bytes"
                },
                {
                  "internalType": "bytes",
                  "name": "publicKey",
                  "type": "bytes"
                }
              ],
              "internalType": "struct Structures.User",
              "name": "creator",
              "type": "tuple"
            },
            {
              "components": [
                {
                  "components": [
                    {
                      "internalType": "enum Structures.PostStatus",
                      "name": "status",
                      "type": "uint8"
                    },
                    {
                      "internalType": "enum Structures.PostType",
                      "name": "postType",
                      "type": "uint8"
                    },
                    {
                      "internalType": "uint256",
                      "name": "creationTimeStamp",
                      "type": "uint256"
                    },
                    {
                      "internalType": "uint256",
                      "name": "endTimeStamp",
                      "type": "uint256"
                    },
                    {
                      "internalType": "uint256",
                      "name": "duration",
                      "type": "uint256"
                    },
                    {
                      "internalType": "enum Structures.Tokens",
                      "name": "tokenId",
                      "type": "uint8"
                    },
                    {
                      "internalType": "bytes32",
                      "name": "postId",
                      "type": "bytes32"
                    }
                  ],
                  "internalType": "struct Structures.PostSettings",
                  "name": "settings",
                  "type": "tuple"
                },
                {
                  "components": [
                    {
                      "internalType": "address",
                      "name": "buyer",
                      "type": "address"
                    },
                    {
                      "internalType": "address",
                      "name": "seller",
                      "type": "address"
                    },
                    {
                      "internalType": "uint256",
                      "name": "stake",
                      "type": "uint256"
                    },
                    {
                      "internalType": "uint256",
                      "name": "payment",
                      "type": "uint256"
                    },
                    {
                      "internalType": "uint256",
                      "name": "punishment",
                      "type": "uint256"
                    },
                    {
                      "internalType": "uint256",
                      "name": "penalty",
                      "type": "uint256"
                    }
                  ],
                  "internalType": "struct Structures.PostEscrow",
                  "name": "escrow",
                  "type": "tuple"
                },
                {
                  "components": [
                    {
                      "internalType": "bytes",
                      "name": "encryptedData",
                      "type": "bytes"
                    },
                    {
                      "internalType": "bytes",
                      "name": "encryptedKey",
                      "type": "bytes"
                    },
                    {
                      "internalType": "bytes",
                      "name": "decryptedData",
                      "type": "bytes"
                    }
                  ],
                  "internalType": "struct Structures.PostEncryptedData",
                  "name": "data",
                  "type": "tuple"
                }
              ],
              "internalType": "struct Structures.PostData",
              "name": "postdata",
              "type": "tuple"
            }
          ],
          "indexed": false,
          "internalType": "struct Structures.Post",
          "name": "post",
          "type": "tuple"
        }
      ],
      "name": "Created",
      "type": "event"
    },
    {
      "anonymous": false,
      "inputs": [
        {
          "indexed": false,
          "internalType": "enum Structures.Tokens",
          "name": "tokenID",
          "type": "uint8"
        },
        {
          "indexed": false,
          "internalType": "address",
          "name": "user",
          "type": "address"
        },
        {
          "indexed": false,
          "internalType": "uint256",
          "name": "amount",
          "type": "uint256"
        },
        {
          "indexed": false,
          "internalType": "uint256",
          "name": "newDeposit",
          "type": "uint256"
        }
      ],
      "name": "DepositDecreased",
      "type": "event"
    },
    {
      "anonymous": false,
      "inputs": [
        {
          "indexed": false,
          "internalType": "enum Structures.Tokens",
          "name": "tokenID",
          "type": "uint8"
        },
        {
          "indexed": false,
          "internalType": "address",
          "name": "user",
          "type": "address"
        },
        {
          "indexed": false,
          "internalType": "uint256",
          "name": "amount",
          "type": "uint256"
        },
        {
          "indexed": false,
          "internalType": "uint256",
          "name": "newDeposit",
          "type": "uint256"
        }
      ],
      "name": "DepositIncreased",
      "type": "event"
    },
    {
      "anonymous": false,
      "inputs": [
        {
          "components": [
            {
              "components": [
                {
                  "internalType": "address",
                  "name": "evmAddress",
                  "type": "address"
                },
                {
                  "internalType": "bytes",
                  "name": "sismoVaultId",
                  "type": "bytes"
                },
                {
                  "internalType": "bytes",
                  "name": "publicKey",
                  "type": "bytes"
                }
              ],
              "internalType": "struct Structures.User",
              "name": "creator",
              "type": "tuple"
            },
            {
              "components": [
                {
                  "components": [
                    {
                      "internalType": "enum Structures.PostStatus",
                      "name": "status",
                      "type": "uint8"
                    },
                    {
                      "internalType": "enum Structures.PostType",
                      "name": "postType",
                      "type": "uint8"
                    },
                    {
                      "internalType": "uint256",
                      "name": "creationTimeStamp",
                      "type": "uint256"
                    },
                    {
                      "internalType": "uint256",
                      "name": "endTimeStamp",
                      "type": "uint256"
                    },
                    {
                      "internalType": "uint256",
                      "name": "duration",
                      "type": "uint256"
                    },
                    {
                      "internalType": "enum Structures.Tokens",
                      "name": "tokenId",
                      "type": "uint8"
                    },
                    {
                      "internalType": "bytes32",
                      "name": "postId",
                      "type": "bytes32"
                    }
                  ],
                  "internalType": "struct Structures.PostSettings",
                  "name": "settings",
                  "type": "tuple"
                },
                {
                  "components": [
                    {
                      "internalType": "address",
                      "name": "buyer",
                      "type": "address"
                    },
                    {
                      "internalType": "address",
                      "name": "seller",
                      "type": "address"
                    },
                    {
                      "internalType": "uint256",
                      "name": "stake",
                      "type": "uint256"
                    },
                    {
                      "internalType": "uint256",
                      "name": "payment",
                      "type": "uint256"
                    },
                    {
                      "internalType": "uint256",
                      "name": "punishment",
                      "type": "uint256"
                    },
                    {
                      "internalType": "uint256",
                      "name": "penalty",
                      "type": "uint256"
                    }
                  ],
                  "internalType": "struct Structures.PostEscrow",
                  "name": "escrow",
                  "type": "tuple"
                },
                {
                  "components": [
                    {
                      "internalType": "bytes",
                      "name": "encryptedData",
                      "type": "bytes"
                    },
                    {
                      "internalType": "bytes",
                      "name": "encryptedKey",
                      "type": "bytes"
                    },
                    {
                      "internalType": "bytes",
                      "name": "decryptedData",
                      "type": "bytes"
                    }
                  ],
                  "internalType": "struct Structures.PostEncryptedData",
                  "name": "data",
                  "type": "tuple"
                }
              ],
              "internalType": "struct Structures.PostData",
              "name": "postdata",
              "type": "tuple"
            }
          ],
          "indexed": false,
          "internalType": "struct Structures.Post",
          "name": "post",
          "type": "tuple"
        }
      ],
      "name": "Finalized",
      "type": "event"
    },
    {
      "anonymous": false,
      "inputs": [
        {
          "indexed": false,
          "internalType": "uint8",
          "name": "version",
          "type": "uint8"
        }
      ],
      "name": "Initialized",
      "type": "event"
    },
    {
      "anonymous": false,
      "inputs": [
        {
          "components": [
            {
              "components": [
                {
                  "internalType": "address",
                  "name": "evmAddress",
                  "type": "address"
                },
                {
                  "internalType": "bytes",
                  "name": "sismoVaultId",
                  "type": "bytes"
                },
                {
                  "internalType": "bytes",
                  "name": "publicKey",
                  "type": "bytes"
                }
              ],
              "internalType": "struct Structures.User",
              "name": "creator",
              "type": "tuple"
            },
            {
              "components": [
                {
                  "components": [
                    {
                      "internalType": "enum Structures.PostStatus",
                      "name": "status",
                      "type": "uint8"
                    },
                    {
                      "internalType": "enum Structures.PostType",
                      "name": "postType",
                      "type": "uint8"
                    },
                    {
                      "internalType": "uint256",
                      "name": "creationTimeStamp",
                      "type": "uint256"
                    },
                    {
                      "internalType": "uint256",
                      "name": "endTimeStamp",
                      "type": "uint256"
                    },
                    {
                      "internalType": "uint256",
                      "name": "duration",
                      "type": "uint256"
                    },
                    {
                      "internalType": "enum Structures.Tokens",
                      "name": "tokenId",
                      "type": "uint8"
                    },
                    {
                      "internalType": "bytes32",
                      "name": "postId",
                      "type": "bytes32"
                    }
                  ],
                  "internalType": "struct Structures.PostSettings",
                  "name": "settings",
                  "type": "tuple"
                },
                {
                  "components": [
                    {
                      "internalType": "address",
                      "name": "buyer",
                      "type": "address"
                    },
                    {
                      "internalType": "address",
                      "name": "seller",
                      "type": "address"
                    },
                    {
                      "internalType": "uint256",
                      "name": "stake",
                      "type": "uint256"
                    },
                    {
                      "internalType": "uint256",
                      "name": "payment",
                      "type": "uint256"
                    },
                    {
                      "internalType": "uint256",
                      "name": "punishment",
                      "type": "uint256"
                    },
                    {
                      "internalType": "uint256",
                      "name": "penalty",
                      "type": "uint256"
                    }
                  ],
                  "internalType": "struct Structures.PostEscrow",
                  "name": "escrow",
                  "type": "tuple"
                },
                {
                  "components": [
                    {
                      "internalType": "bytes",
                      "name": "encryptedData",
                      "type": "bytes"
                    },
                    {
                      "internalType": "bytes",
                      "name": "encryptedKey",
                      "type": "bytes"
                    },
                    {
                      "internalType": "bytes",
                      "name": "decryptedData",
                      "type": "bytes"
                    }
                  ],
                  "internalType": "struct Structures.PostEncryptedData",
                  "name": "data",
                  "type": "tuple"
                }
              ],
              "internalType": "struct Structures.PostData",
              "name": "postdata",
              "type": "tuple"
            }
          ],
          "indexed": false,
          "internalType": "struct Structures.Post",
          "name": "post",
          "type": "tuple"
        }
      ],
      "name": "Invalid",
      "type": "event"
    },
    {
      "anonymous": false,
      "inputs": [
        {
          "components": [
            {
              "components": [
                {
                  "internalType": "address",
                  "name": "evmAddress",
                  "type": "address"
                },
                {
                  "internalType": "bytes",
                  "name": "sismoVaultId",
                  "type": "bytes"
                },
                {
                  "internalType": "bytes",
                  "name": "publicKey",
                  "type": "bytes"
                }
              ],
              "internalType": "struct Structures.User",
              "name": "creator",
              "type": "tuple"
            },
            {
              "components": [
                {
                  "components": [
                    {
                      "internalType": "enum Structures.PostStatus",
                      "name": "status",
                      "type": "uint8"
                    },
                    {
                      "internalType": "enum Structures.PostType",
                      "name": "postType",
                      "type": "uint8"
                    },
                    {
                      "internalType": "uint256",
                      "name": "creationTimeStamp",
                      "type": "uint256"
                    },
                    {
                      "internalType": "uint256",
                      "name": "endTimeStamp",
                      "type": "uint256"
                    },
                    {
                      "internalType": "uint256",
                      "name": "duration",
                      "type": "uint256"
                    },
                    {
                      "internalType": "enum Structures.Tokens",
                      "name": "tokenId",
                      "type": "uint8"
                    },
                    {
                      "internalType": "bytes32",
                      "name": "postId",
                      "type": "bytes32"
                    }
                  ],
                  "internalType": "struct Structures.PostSettings",
                  "name": "settings",
                  "type": "tuple"
                },
                {
                  "components": [
                    {
                      "internalType": "address",
                      "name": "buyer",
                      "type": "address"
                    },
                    {
                      "internalType": "address",
                      "name": "seller",
                      "type": "address"
                    },
                    {
                      "internalType": "uint256",
                      "name": "stake",
                      "type": "uint256"
                    },
                    {
                      "internalType": "uint256",
                      "name": "payment",
                      "type": "uint256"
                    },
                    {
                      "internalType": "uint256",
                      "name": "punishment",
                      "type": "uint256"
                    },
                    {
                      "internalType": "uint256",
                      "name": "penalty",
                      "type": "uint256"
                    }
                  ],
                  "internalType": "struct Structures.PostEscrow",
                  "name": "escrow",
                  "type": "tuple"
                },
                {
                  "components": [
                    {
                      "internalType": "bytes",
                      "name": "encryptedData",
                      "type": "bytes"
                    },
                    {
                      "internalType": "bytes",
                      "name": "encryptedKey",
                      "type": "bytes"
                    },
                    {
                      "internalType": "bytes",
                      "name": "decryptedData",
                      "type": "bytes"
                    }
                  ],
                  "internalType": "struct Structures.PostEncryptedData",
                  "name": "data",
                  "type": "tuple"
                }
              ],
              "internalType": "struct Structures.PostData",
              "name": "postdata",
              "type": "tuple"
            }
          ],
          "indexed": false,
          "internalType": "struct Structures.Post",
          "name": "post",
          "type": "tuple"
        }
      ],
      "name": "MadePublic",
      "type": "event"
    },
    {
      "anonymous": false,
      "inputs": [
        {
          "components": [
            {
              "components": [
                {
                  "internalType": "address",
                  "name": "evmAddress",
                  "type": "address"
                },
                {
                  "internalType": "bytes",
                  "name": "sismoVaultId",
                  "type": "bytes"
                },
                {
                  "internalType": "bytes",
                  "name": "publicKey",
                  "type": "bytes"
                }
              ],
              "internalType": "struct Structures.User",
              "name": "creator",
              "type": "tuple"
            },
            {
              "components": [
                {
                  "components": [
                    {
                      "internalType": "enum Structures.PostStatus",
                      "name": "status",
                      "type": "uint8"
                    },
                    {
                      "internalType": "enum Structures.PostType",
                      "name": "postType",
                      "type": "uint8"
                    },
                    {
                      "internalType": "uint256",
                      "name": "creationTimeStamp",
                      "type": "uint256"
                    },
                    {
                      "internalType": "uint256",
                      "name": "endTimeStamp",
                      "type": "uint256"
                    },
                    {
                      "internalType": "uint256",
                      "name": "duration",
                      "type": "uint256"
                    },
                    {
                      "internalType": "enum Structures.Tokens",
                      "name": "tokenId",
                      "type": "uint8"
                    },
                    {
                      "internalType": "bytes32",
                      "name": "postId",
                      "type": "bytes32"
                    }
                  ],
                  "internalType": "struct Structures.PostSettings",
                  "name": "settings",
                  "type": "tuple"
                },
                {
                  "components": [
                    {
                      "internalType": "address",
                      "name": "buyer",
                      "type": "address"
                    },
                    {
                      "internalType": "address",
                      "name": "seller",
                      "type": "address"
                    },
                    {
                      "internalType": "uint256",
                      "name": "stake",
                      "type": "uint256"
                    },
                    {
                      "internalType": "uint256",
                      "name": "payment",
                      "type": "uint256"
                    },
                    {
                      "internalType": "uint256",
                      "name": "punishment",
                      "type": "uint256"
                    },
                    {
                      "internalType": "uint256",
                      "name": "penalty",
                      "type": "uint256"
                    }
                  ],
                  "internalType": "struct Structures.PostEscrow",
                  "name": "escrow",
                  "type": "tuple"
                },
                {
                  "components": [
                    {
                      "internalType": "bytes",
                      "name": "encryptedData",
                      "type": "bytes"
                    },
                    {
                      "internalType": "bytes",
                      "name": "encryptedKey",
                      "type": "bytes"
                    },
                    {
                      "internalType": "bytes",
                      "name": "decryptedData",
                      "type": "bytes"
                    }
                  ],
                  "internalType": "struct Structures.PostEncryptedData",
                  "name": "data",
                  "type": "tuple"
                }
              ],
              "internalType": "struct Structures.PostData",
              "name": "postdata",
              "type": "tuple"
            }
          ],
          "indexed": false,
          "internalType": "struct Structures.Post",
          "name": "post",
          "type": "tuple"
        }
      ],
      "name": "Renounced",
      "type": "event"
    },
    {
      "anonymous": false,
      "inputs": [
        {
          "indexed": false,
          "internalType": "address",
          "name": "staker",
          "type": "address"
        },
        {
          "indexed": false,
          "internalType": "uint256",
          "name": "amount",
          "type": "uint256"
        },
        {
          "indexed": false,
          "internalType": "enum Structures.Tokens",
          "name": "tokenId",
          "type": "uint8"
        }
      ],
      "name": "StakeAdded",
      "type": "event"
    },
    {
      "anonymous": false,
      "inputs": [
        {
          "indexed": false,
          "internalType": "address",
          "name": "staker",
          "type": "address"
        },
        {
          "indexed": false,
          "internalType": "uint256",
          "name": "amount",
          "type": "uint256"
        }
      ],
      "name": "StakeBurned",
      "type": "event"
    },
    {
      "anonymous": false,
      "inputs": [
        {
          "indexed": false,
          "internalType": "address",
          "name": "staker",
          "type": "address"
        },
        {
          "indexed": false,
          "internalType": "uint256",
          "name": "amount",
          "type": "uint256"
        },
        {
          "indexed": false,
          "internalType": "enum Structures.Tokens",
          "name": "tokenId",
          "type": "uint8"
        }
      ],
      "name": "StakeTaken",
      "type": "event"
    },
    {
      "anonymous": false,
      "inputs": [
        {
          "components": [
            {
              "components": [
                {
                  "internalType": "address",
                  "name": "evmAddress",
                  "type": "address"
                },
                {
                  "internalType": "bytes",
                  "name": "sismoVaultId",
                  "type": "bytes"
                },
                {
                  "internalType": "bytes",
                  "name": "publicKey",
                  "type": "bytes"
                }
              ],
              "internalType": "struct Structures.User",
              "name": "creator",
              "type": "tuple"
            },
            {
              "components": [
                {
                  "components": [
                    {
                      "internalType": "enum Structures.PostStatus",
                      "name": "status",
                      "type": "uint8"
                    },
                    {
                      "internalType": "enum Structures.PostType",
                      "name": "postType",
                      "type": "uint8"
                    },
                    {
                      "internalType": "uint256",
                      "name": "creationTimeStamp",
                      "type": "uint256"
                    },
                    {
                      "internalType": "uint256",
                      "name": "endTimeStamp",
                      "type": "uint256"
                    },
                    {
                      "internalType": "uint256",
                      "name": "duration",
                      "type": "uint256"
                    },
                    {
                      "internalType": "enum Structures.Tokens",
                      "name": "tokenId",
                      "type": "uint8"
                    },
                    {
                      "internalType": "bytes32",
                      "name": "postId",
                      "type": "bytes32"
                    }
                  ],
                  "internalType": "struct Structures.PostSettings",
                  "name": "settings",
                  "type": "tuple"
                },
                {
                  "components": [
                    {
                      "internalType": "address",
                      "name": "buyer",
                      "type": "address"
                    },
                    {
                      "internalType": "address",
                      "name": "seller",
                      "type": "address"
                    },
                    {
                      "internalType": "uint256",
                      "name": "stake",
                      "type": "uint256"
                    },
                    {
                      "internalType": "uint256",
                      "name": "payment",
                      "type": "uint256"
                    },
                    {
                      "internalType": "uint256",
                      "name": "punishment",
                      "type": "uint256"
                    },
                    {
                      "internalType": "uint256",
                      "name": "penalty",
                      "type": "uint256"
                    }
                  ],
                  "internalType": "struct Structures.PostEscrow",
                  "name": "escrow",
                  "type": "tuple"
                },
                {
                  "components": [
                    {
                      "internalType": "bytes",
                      "name": "encryptedData",
                      "type": "bytes"
                    },
                    {
                      "internalType": "bytes",
                      "name": "encryptedKey",
                      "type": "bytes"
                    },
                    {
                      "internalType": "bytes",
                      "name": "decryptedData",
                      "type": "bytes"
                    }
                  ],
                  "internalType": "struct Structures.PostEncryptedData",
                  "name": "data",
                  "type": "tuple"
                }
              ],
              "internalType": "struct Structures.PostData",
              "name": "postdata",
              "type": "tuple"
            }
          ],
          "indexed": false,
          "internalType": "struct Structures.Post",
          "name": "post",
          "type": "tuple"
        }
      ],
      "name": "Valid",
      "type": "event"
    },
    {
      "inputs": [
        {
          "internalType": "enum Structures.Tokens",
          "name": "tokenId",
          "type": "uint8"
        },
        {
          "internalType": "uint256",
          "name": "paymentAmount",
          "type": "uint256"
        },
        {
          "internalType": "address",
          "name": "funder",
          "type": "address"
        },
        {
          "internalType": "address",
          "name": "buyer",
          "type": "address"
        },
        {
          "internalType": "bool",
          "name": "useStake",
          "type": "bool"
        }
      ],
      "name": "acceptPost",
      "outputs": [],
      "stateMutability": "payable",
      "type": "function"
    },
    {
      "inputs": [
        {
          "internalType": "enum Structures.Tokens",
          "name": "tokenId",
          "type": "uint8"
        },
        {
          "internalType": "address",
          "name": "_funder",
          "type": "address"
        },
        {
          "internalType": "uint256",
          "name": "amountToAdd",
          "type": "uint256"
        }
      ],
      "name": "addStake",
      "outputs": [
        {
          "internalType": "uint256",
          "name": "",
          "type": "uint256"
        }
      ],
      "stateMutability": "payable",
      "type": "function"
    },
    {
      "inputs": [
        {
          "internalType": "bytes32",
          "name": "postId",
          "type": "bytes32"
        }
      ],
      "name": "containPostId",
      "outputs": [
        {
          "internalType": "bool",
          "name": "",
          "type": "bool"
        }
      ],
      "stateMutability": "view",
      "type": "function"
    },
    {
      "inputs": [
        {
          "internalType": "bytes",
          "name": "encryptedHash",
          "type": "bytes"
        },
        {
          "internalType": "enum Structures.PostType",
          "name": "postType",
          "type": "uint8"
        },
        {
          "internalType": "enum Structures.PostDuration",
          "name": "postDuration",
          "type": "uint8"
        },
        {
          "internalType": "uint256",
          "name": "payment",
          "type": "uint256"
        },
        {
          "internalType": "uint256",
          "name": "stakeAmount",
          "type": "uint256"
        },
        {
          "internalType": "enum Structures.Tokens",
          "name": "tokenId",
          "type": "uint8"
        },
        {
          "internalType": "address",
          "name": "funder",
          "type": "address"
        },
        {
          "internalType": "address",
          "name": "seller",
          "type": "address"
        },
        {
          "internalType": "bool",
          "name": "useStake",
          "type": "bool"
        }
      ],
      "name": "createPost",
      "outputs": [],
      "stateMutability": "payable",
      "type": "function"
    },
    {
      "inputs": [
        {
          "internalType": "bool",
          "name": "valid",
          "type": "bool"
        },
        {
          "internalType": "uint256",
          "name": "punishment",
          "type": "uint256"
        },
        {
          "internalType": "bytes32",
          "name": "uid",
          "type": "bytes32"
        }
      ],
      "name": "finalizePost",
      "outputs": [],
      "stateMutability": "nonpayable",
      "type": "function"
    },
    {
      "inputs": [],
      "name": "getAllPostIds",
      "outputs": [
        {
          "internalType": "bytes32[]",
          "name": "",
          "type": "bytes32[]"
        }
      ],
      "stateMutability": "view",
      "type": "function"
    },
    {
      "inputs": [],
      "name": "getBuyerStake",
      "outputs": [
        {
          "internalType": "uint256",
          "name": "amount",
          "type": "uint256"
        }
      ],
      "stateMutability": "view",
      "type": "function"
    },
    {
      "inputs": [],
      "name": "getEncryptedPost",
      "outputs": [
        {
          "internalType": "bytes",
          "name": "",
          "type": "bytes"
        }
      ],
      "stateMutability": "view",
      "type": "function"
    },
    {
      "inputs": [],
      "name": "getPaymentRequested",
      "outputs": [
        {
          "internalType": "uint256",
          "name": "",
          "type": "uint256"
        }
      ],
      "stateMutability": "view",
      "type": "function"
    },
    {
      "inputs": [],
      "name": "getPost",
      "outputs": [
        {
          "components": [
            {
              "components": [
                {
                  "internalType": "address",
                  "name": "evmAddress",
                  "type": "address"
                },
                {
                  "internalType": "bytes",
                  "name": "sismoVaultId",
                  "type": "bytes"
                },
                {
                  "internalType": "bytes",
                  "name": "publicKey",
                  "type": "bytes"
                }
              ],
              "internalType": "struct Structures.User",
              "name": "creator",
              "type": "tuple"
            },
            {
              "components": [
                {
                  "components": [
                    {
                      "internalType": "enum Structures.PostStatus",
                      "name": "status",
                      "type": "uint8"
                    },
                    {
                      "internalType": "enum Structures.PostType",
                      "name": "postType",
                      "type": "uint8"
                    },
                    {
                      "internalType": "uint256",
                      "name": "creationTimeStamp",
                      "type": "uint256"
                    },
                    {
                      "internalType": "uint256",
                      "name": "endTimeStamp",
                      "type": "uint256"
                    },
                    {
                      "internalType": "uint256",
                      "name": "duration",
                      "type": "uint256"
                    },
                    {
                      "internalType": "enum Structures.Tokens",
                      "name": "tokenId",
                      "type": "uint8"
                    },
                    {
                      "internalType": "bytes32",
                      "name": "postId",
                      "type": "bytes32"
                    }
                  ],
                  "internalType": "struct Structures.PostSettings",
                  "name": "settings",
                  "type": "tuple"
                },
                {
                  "components": [
                    {
                      "internalType": "address",
                      "name": "buyer",
                      "type": "address"
                    },
                    {
                      "internalType": "address",
                      "name": "seller",
                      "type": "address"
                    },
                    {
                      "internalType": "uint256",
                      "name": "stake",
                      "type": "uint256"
                    },
                    {
                      "internalType": "uint256",
                      "name": "payment",
                      "type": "uint256"
                    },
                    {
                      "internalType": "uint256",
                      "name": "punishment",
                      "type": "uint256"
                    },
                    {
                      "internalType": "uint256",
                      "name": "penalty",
                      "type": "uint256"
                    }
                  ],
                  "internalType": "struct Structures.PostEscrow",
                  "name": "escrow",
                  "type": "tuple"
                },
                {
                  "components": [
                    {
                      "internalType": "bytes",
                      "name": "encryptedData",
                      "type": "bytes"
                    },
                    {
                      "internalType": "bytes",
                      "name": "encryptedKey",
                      "type": "bytes"
                    },
                    {
                      "internalType": "bytes",
                      "name": "decryptedData",
                      "type": "bytes"
                    }
                  ],
                  "internalType": "struct Structures.PostEncryptedData",
                  "name": "data",
                  "type": "tuple"
                }
              ],
              "internalType": "struct Structures.PostData",
              "name": "postdata",
              "type": "tuple"
            }
          ],
          "internalType": "struct Structures.Post",
          "name": "",
          "type": "tuple"
        }
      ],
      "stateMutability": "view",
      "type": "function"
    },
    {
      "inputs": [],
      "name": "getPostId",
      "outputs": [
        {
          "internalType": "bytes32",
          "name": "",
          "type": "bytes32"
        }
      ],
      "stateMutability": "view",
      "type": "function"
    },
    {
      "inputs": [
        {
          "internalType": "bytes32",
          "name": "postId",
          "type": "bytes32"
        }
      ],
      "name": "getPostTimestamp",
      "outputs": [
        {
          "components": [
            {
              "internalType": "enum Structures.PostResult",
              "name": "postResult",
              "type": "uint8"
            },
            {
              "internalType": "uint256",
              "name": "creationTimeStamp",
              "type": "uint256"
            },
            {
              "internalType": "uint256",
              "name": "endTimeStamp",
              "type": "uint256"
            }
          ],
          "internalType": "struct Structures.PostTimestamp",
          "name": "",
          "type": "tuple"
        }
      ],
      "stateMutability": "view",
      "type": "function"
    },
    {
      "inputs": [],
      "name": "getSellerStake",
      "outputs": [
        {
          "internalType": "uint256",
          "name": "amount",
          "type": "uint256"
        }
      ],
      "stateMutability": "view",
      "type": "function"
    },
    {
      "inputs": [
        {
          "internalType": "enum Structures.Tokens",
          "name": "tokenId",
          "type": "uint8"
        },
        {
          "internalType": "address",
          "name": "staker",
          "type": "address"
        }
      ],
      "name": "getStake",
      "outputs": [
        {
          "internalType": "uint256",
          "name": "amount",
          "type": "uint256"
        }
      ],
      "stateMutability": "view",
      "type": "function"
    },
    {
      "inputs": [],
      "name": "getStakeRequested",
      "outputs": [
        {
          "internalType": "uint256",
          "name": "",
          "type": "uint256"
        }
      ],
      "stateMutability": "view",
      "type": "function"
    },
    {
      "inputs": [],
      "name": "getStatus",
      "outputs": [
        {
          "internalType": "enum Structures.PostStatus",
          "name": "",
          "type": "uint8"
        }
      ],
      "stateMutability": "view",
      "type": "function"
    },
    {
      "inputs": [],
      "name": "getTokenId",
      "outputs": [
        {
          "internalType": "enum Structures.Tokens",
          "name": "",
          "type": "uint8"
        }
      ],
      "stateMutability": "view",
      "type": "function"
    },
    {
      "inputs": [],
      "name": "getTokenIdAddress",
      "outputs": [
        {
          "internalType": "address",
          "name": "",
          "type": "address"
        }
      ],
      "stateMutability": "view",
      "type": "function"
    },
    {
      "inputs": [],
      "name": "getTotalStaked",
      "outputs": [
        {
          "internalType": "uint256",
          "name": "",
          "type": "uint256"
        }
      ],
      "stateMutability": "view",
      "type": "function"
    },
    {
      "inputs": [
        {
          "internalType": "address",
          "name": "_owner",
          "type": "address"
        },
        {
          "internalType": "address",
          "name": "_usersModuleContract",
          "type": "address"
        },
        {
          "internalType": "address",
          "name": "_factoryContract",
          "type": "address"
        },
        {
          "internalType": "uint256",
          "name": "_maj",
          "type": "uint256"
        },
        {
          "internalType": "uint256",
          "name": "_min",
          "type": "uint256"
        },
        {
          "internalType": "uint256",
          "name": "_pat",
          "type": "uint256"
        }
      ],
      "name": "initialize",
      "outputs": [
        {
          "internalType": "bool",
          "name": "",
          "type": "bool"
        }
      ],
      "stateMutability": "nonpayable",
      "type": "function"
    },
    {
      "inputs": [],
      "name": "locked",
      "outputs": [
        {
          "internalType": "bool",
          "name": "",
          "type": "bool"
        }
      ],
      "stateMutability": "view",
      "type": "function"
    },
    {
      "inputs": [],
      "name": "major",
      "outputs": [
        {
          "internalType": "uint256",
          "name": "",
          "type": "uint256"
        }
      ],
      "stateMutability": "view",
      "type": "function"
    },
    {
      "inputs": [],
      "name": "minor",
      "outputs": [
        {
          "internalType": "uint256",
          "name": "",
          "type": "uint256"
        }
      ],
      "stateMutability": "view",
      "type": "function"
    },
    {
      "inputs": [],
      "name": "owner",
      "outputs": [
        {
          "internalType": "address",
          "name": "",
          "type": "address"
        }
      ],
      "stateMutability": "view",
      "type": "function"
    },
    {
      "inputs": [],
      "name": "patch",
      "outputs": [
        {
          "internalType": "uint256",
          "name": "",
          "type": "uint256"
        }
      ],
      "stateMutability": "view",
      "type": "function"
    },
    {
      "inputs": [],
      "name": "post",
      "outputs": [
        {
          "components": [
            {
              "internalType": "address",
              "name": "evmAddress",
              "type": "address"
            },
            {
              "internalType": "bytes",
              "name": "sismoVaultId",
              "type": "bytes"
            },
            {
              "internalType": "bytes",
              "name": "publicKey",
              "type": "bytes"
            }
          ],
          "internalType": "struct Structures.User",
          "name": "creator",
          "type": "tuple"
        },
        {
          "components": [
            {
              "components": [
                {
                  "internalType": "enum Structures.PostStatus",
                  "name": "status",
                  "type": "uint8"
                },
                {
                  "internalType": "enum Structures.PostType",
                  "name": "postType",
                  "type": "uint8"
                },
                {
                  "internalType": "uint256",
                  "name": "creationTimeStamp",
                  "type": "uint256"
                },
                {
                  "internalType": "uint256",
                  "name": "endTimeStamp",
                  "type": "uint256"
                },
                {
                  "internalType": "uint256",
                  "name": "duration",
                  "type": "uint256"
                },
                {
                  "internalType": "enum Structures.Tokens",
                  "name": "tokenId",
                  "type": "uint8"
                },
                {
                  "internalType": "bytes32",
                  "name": "postId",
                  "type": "bytes32"
                }
              ],
              "internalType": "struct Structures.PostSettings",
              "name": "settings",
              "type": "tuple"
            },
            {
              "components": [
                {
                  "internalType": "address",
                  "name": "buyer",
                  "type": "address"
                },
                {
                  "internalType": "address",
                  "name": "seller",
                  "type": "address"
                },
                {
                  "internalType": "uint256",
                  "name": "stake",
                  "type": "uint256"
                },
                {
                  "internalType": "uint256",
                  "name": "payment",
                  "type": "uint256"
                },
                {
                  "internalType": "uint256",
                  "name": "punishment",
                  "type": "uint256"
                },
                {
                  "internalType": "uint256",
                  "name": "penalty",
                  "type": "uint256"
                }
              ],
              "internalType": "struct Structures.PostEscrow",
              "name": "escrow",
              "type": "tuple"
            },
            {
              "components": [
                {
                  "internalType": "bytes",
                  "name": "encryptedData",
                  "type": "bytes"
                },
                {
                  "internalType": "bytes",
                  "name": "encryptedKey",
                  "type": "bytes"
                },
                {
                  "internalType": "bytes",
                  "name": "decryptedData",
                  "type": "bytes"
                }
              ],
              "internalType": "struct Structures.PostEncryptedData",
              "name": "data",
              "type": "tuple"
            }
          ],
          "internalType": "struct Structures.PostData",
          "name": "postdata",
          "type": "tuple"
        }
      ],
      "stateMutability": "view",
      "type": "function"
    },
    {
      "inputs": [],
      "name": "postCount",
      "outputs": [
        {
          "internalType": "uint256",
          "name": "",
          "type": "uint256"
        }
      ],
      "stateMutability": "view",
      "type": "function"
    },
    {
      "inputs": [],
      "name": "renouncePost",
      "outputs": [],
      "stateMutability": "nonpayable",
      "type": "function"
    },
    {
      "inputs": [
        {
          "internalType": "bytes",
          "name": "decryptedData",
          "type": "bytes"
        }
      ],
      "name": "revealData",
      "outputs": [
        {
          "internalType": "bytes",
          "name": "",
          "type": "bytes"
        }
      ],
      "stateMutability": "nonpayable",
      "type": "function"
    },
    {
      "inputs": [
        {
          "internalType": "bytes",
          "name": "encryptedKey",
          "type": "bytes"
        }
      ],
      "name": "submitHash",
      "outputs": [],
      "stateMutability": "nonpayable",
      "type": "function"
    },
    {
      "inputs": [
        {
          "internalType": "enum Structures.Tokens",
          "name": "tokenId",
          "type": "uint8"
        },
        {
          "internalType": "address",
          "name": "receiver",
          "type": "address"
        }
      ],
      "name": "takeFullStake",
      "outputs": [
        {
          "internalType": "uint256",
          "name": "",
          "type": "uint256"
        }
      ],
      "stateMutability": "nonpayable",
      "type": "function"
    },
    {
      "inputs": [
        {
          "internalType": "enum Structures.Tokens",
          "name": "tokenId",
          "type": "uint8"
        },
        {
          "internalType": "address",
          "name": "receiver",
          "type": "address"
        },
        {
          "internalType": "uint256",
          "name": "amountToTake",
          "type": "uint256"
        }
      ],
      "name": "takeStake",
      "outputs": [
        {
          "internalType": "uint256",
          "name": "",
          "type": "uint256"
        }
      ],
      "stateMutability": "nonpayable",
      "type": "function"
    },
    {
      "inputs": [],
      "name": "version",
      "outputs": [
        {
          "internalType": "string",
          "name": "",
          "type": "string"
        }
      ],
      "stateMutability": "view",
      "type": "function"
    },
    {
      "stateMutability": "payable",
      "type": "receive"
    }
  ],
  "bytecode": "0x6080806040523461001757615bb790816200001d8239f35b600080fdfe608080604052600436101561001d575b50361561001b57600080fd5b005b60003560e01c908163010a38f5146134025750806305c1f502146133b95780630917e7761461337357806317906c2e146133555780631d0b4af51461328757806332946a8714613269578063337938c71461323b5780633d876d5d14612b5a5780634997523514612b3c5780634c38d87714612b0c5780634e69d56014612ae457806352a6cb4a14612acb57806354fd4d5014612aaf5780635ad4e17014612a825780635c63ed6914612a52578063728cdbca146126a6578063729e2eb1146125d65780637abe914d146123c0578063825821fb146123305780638c6838ba1461221b5780638da5cb5b146121f25780638e25df9e146120fb5780638f287dc2146115435780638f903c79146112ac5780639917e57914610fa7578063bb834b0e14610f89578063cf30901214610f66578063d24e0c8714610f48578063d2af47ab14610324578063ed70d5d514610263578063f2d7dbb6146101d6578063f86d0b38146101b85763faeb5e1714610195573861000f565b346101b35760003660031901126101b3576020600f54604051908152f35b600080fd5b346101b35760003660031901126101b3576020602154604051908152f35b346101b357602061022c6101e936613ad1565b61020b60ff600b54166101fb81613429565b61020484613429565b8314613f95565b61021a60ff601f541615613d31565b61022433836141de565b913390615629565b600d546001600160a01b0390339082160361024f5750806010555b604051908152f35b600e54163303610247575b80600f55610247565b346101b35761027136613a9e565b61028660ff600b94939454166101fb81613429565b61029560ff601f541615613d31565b61029e82613429565b816000526020805260406000203360005260205280604060002054106102ec576020926102cc923390615629565b600d54336001600160a01b039091160361025a5780601055604051908152f35b60405162461bcd60e51b815260206004820152601060248201526f4e4f545f454e4f5547485f5354414b4560801b6044820152606490fd5b6101203660031901126101b3576004356001600160401b0381116101b357610350903690600401613b1b565b600560243510156101b357600560443510156101b357600360a43510156101b35760c4356001600160a01b03811690036101b35760e4356001600160a01b03811690036101b35761010435151561010435036101b3576103b160a435613429565b600160a435148015610f31575b8015610f1c575b6103ce90613f95565b6003546001600160a01b03163303610eeb576103ef60ff601f541615613d31565b60185460405163122643f360e21b81526001600160a01b0360e43581166004830152909160209183916024918391165afa908115610dc357600091610eb1575b5015610e7b5760ff600754166008811015610bf757600052601d60205261045d60ff60406000205416613d66565b60843515610e425760643515610e0e576101043515610dcf5761048160a435613429565b60a43560005260208052604060002060018060a01b0360e435166000526020526104b46084356040600020541015613da3565b6084355b6104c36044356137e4565b60ff60443516600052601c6020526040600020549060ff60075416926008841015610bf7576000938452601d6020526040808520805460ff1990811690915560018087527f9de6abd965d55c3bb0cdbf6fa175050624c6ff8fe86f682dc08f2a450ede22788054831682179055600780549092161790556018549051633bcaa1d960e21b81526001600160a01b0360e4358116600483015290959186916024918391165afa938415610dc357600094610d10575b5083516040516105c260548260208101948651610598818860208b016138f4565b8201904260208301526001600160601b03199060601b16604082015203603481018452018261376d565b51902091604051936105d3856136ee565b600185526105e26024356137e4565b602435602086015242604086015260006060860152608085015261060760a435613429565b60a43560a08501528260c08501526040519061062282613709565b6000825260018060a01b0360e4351660208301526040820152606435606082015260006080820152600060a0820152610659614011565b610661614011565b906040519361066f856136d3565b84526020840152604083015260405193610688856136d3565b845260208401526040830152604051916106a183613724565b83835260208301528251600480546001600160a01b0319166001600160a01b039290921691909117905560208301519283516001600160401b038111610ae0576106f5816106f0600554613433565b613bc2565b6020601f8211600114610c975781906040949596600092610c8c575b50508160011b916000199060031b1c1916176005555b01519182516001600160401b038111610ae05761074e81610749600654613433565b613c08565b6020601f8211600114610c185781929394600092610c0d575b50508160011b916000199060031b1c1916176006555b602081015180519081516008811015610bf75760409261079e60c092613d18565b60208101516107ac816137e4565b6107b5816137e4565b61ff006007549160081b169061ff001916176007558381015160085560608101516009556080810151600a5560a08101516107ef81613429565b6107f881613429565b60ff8019600b5416911617600b550151600c5560a0602082015161083b600180841b0382511660018060a01b03166001600160601b0360a01b600d541617600d55565b610867600180841b0360208301511660018060a01b03166001600160601b0360a01b600e541617600e55565b83810151600f5560608101516010556080810151601155015160125501519081519283516001600160401b038111610ae0576108ad816108a8601354613433565b613c4c565b602094601f8211600114610b8557948192939495600092610b7a575b50508160011b916000199060031b1c1916176013555b60208301519283516001600160401b038111610ae05761090981610904601454613433565b613c90565b6020601f8211600114610b015781906040949596600092610af6575b50508160011b916000199060031b1c1916176014555b01518051906001600160401b038211610ae0576109628261095d601554613433565b613cd4565b602090601f8311600114610a46579180610a3694927f9f0d3dff5ce109158da1895093a516dca976e31abea5978b2b18a06702acd26f9694600092610a3b575b50508160011b916000199060031b1c1916176015555b6109c181614056565b506109cd601754614031565b6017556002604051916109df836136d3565b6000835260208301428152604084019160008352600052601e60205260406000209351610a0b81613429565b610a1481613429565b60ff801986541691161784555160018401555191015560405191829182613b62565b0390a1005b0151905086806109a2565b90601f198316916015600052600080516020615b028339815191529260005b818110610ac857509260019285927f9f0d3dff5ce109158da1895093a516dca976e31abea5978b2b18a06702acd26f9896610a36989610610aaf575b505050811b016015556109b8565b015160001960f88460031b161c19169055868080610aa1565b92936020600181928786015181550195019301610a65565b634e487b7160e01b600052604160045260246000fd5b015190508680610925565b6014600052600080516020615b628339815191529560005b601f1984168110610b6257509582916040959697600194601f19811610610b49575b505050811b0160145561093b565b015160001960f88460031b161c19169055868080610b3b565b82820151885560019097019660209283019201610b19565b0151905085806108c9565b601f198216956013600052600080516020615b228339815191529160005b888110610bdf57508360019596979810610bc6575b505050811b016013556108df565b015160001960f88460031b161c19169055858080610bb8565b91926020600181928685015181550194019201610ba3565b634e487b7160e01b600052602160045260246000fd5b015190508480610767565b6006600052600080516020615b428339815191529060005b601f1984168110610c745750600193949583601f19811610610c5b575b505050811b0160065561077d565b015160001960f88460031b161c19169055848080610c4d565b9091602060018192858a015181550193019101610c30565b015190508680610711565b6005600052600080516020615ae28339815191529560005b601f1984168110610cf857509582916040959697600194601f19811610610cdf575b505050811b01600555610727565b015160001960f88460031b161c19169055868080610cd1565b82820151885560019097019660209283019201610caf565b9093503d806000833e610d23818361376d565b60208282810103126101b3578151916001600160401b0383116101b357606083820183830103126101b35760405192610d5b846136d3565b610d66818301613b97565b8452602081830101516001600160401b0381116101b357610d8e908484019083850101613fcf565b602085015260408183010151906001600160401b0382116101b357610db7938301920101613fcf565b60408201529284610577565b6040513d6000823e3d90fd5b610dda60a435613429565b60a43515610dfc575b610df760843560c43560e43560a4356144ae565b6104b8565b610e096084353414613e2f565b610de3565b60405162461bcd60e51b815260206004820152600c60248201526b5041594d454e545f5a45524f60a01b6044820152606490fd5b60405162461bcd60e51b81526020600482015260116024820152705354414b455f414d4f554e545f5a45524f60781b6044820152606490fd5b60405162461bcd60e51b815260206004820152600e60248201526d1554d15497d393d517d1561254d560921b6044820152606490fd5b90506020813d602011610ee3575b81610ecc6020938361376d565b810103126101b357610edd90613de1565b8261042f565b3d9150610ebf565b60405162461bcd60e51b81526020600482015260096024820152682727aa2fa7aba722a960b91b6044820152606490fd5b50610f2860a435613429565b60a435156103c5565b50610f3d60a435613429565b600260a435146103be565b346101b35760003660031901126101b3576020601054604051908152f35b346101b35760003660031901126101b357602060ff601f54166040519015158152f35b346101b35760003660031901126101b3576020602254604051908152f35b60a03660031901126101b35760043560038110156101b357602435610fca613a88565b606435926001600160a01b0392918385168086036101b35760843590811595861583036101b35761100060ff601f541615613d31565b6001600052602096601d885261101d60ff60406000205416613d66565b61103f60ff600b541661102f81613429565b61103888613429565b8714613f95565b61129e575b60248782600e54169261106461105a858a6141de565b600f541115613da3565b601854166040519283809263122643f360e21b82528760048301525afa908115610dc357600091611269575b50156112325790816110ae92331491821592611227575b5050613dee565b601054806111e1575b50156111aa57506110c781613429565b600052818052604060002033600052825280604060002054106111715760019261110c915b60105560018060a01b03166001600160601b0360a01b600d541617600d55565b601d60ff19916002836007541617600755600260005252604060002082828254161790556002816007541617600755601f541617601f557fd3a49c266c76e5d7b74f1cd42f52db4e6e3b97b608cca1e9269b0a3dd51739da60405180610a3681613e6d565b60405162461bcd60e51b81526004810183905260116024820152701410565351539517d25390d3d4949150d5607a1b6044820152606490fd5b61110c926111cb9186846111c060019996613429565b80156111d0576144ae565b6110ec565b6111dc84341015613e2f565b6144ae565b84106111ed57866110b7565b60405162461bcd60e51b81526004810186905260126024820152711393d517d15393d551d217d410565351539560721b6044820152606490fd5b1415905088806110a7565b60405162461bcd60e51b815260048101889052600f60248201526e1554d1549517d393d517d1561254d5608a1b6044820152606490fd5b90508781813d8311611297575b611280818361376d565b810103126101b35761129190613de1565b89611090565b503d611276565b6112a785613429565b611044565b346101b3576020806003193601126101b3576001600160401b03906004358281116101b3576112df903690600401613b1b565b906001906112f58260ff601f5416151514614244565b600e546001600160a01b039061130e908216331461420b565b60ff60075416906008821015610bf75781600052601d835260ff604060002054168061152f575b61133e90613d66565b60248382601854166040519283809263122643f360e21b82523360048301525afa908115610dc3576000916114fa575b50156114bf576004546113839116331461420b565b600052601d815260406000209260ff199384815416905560036000526040600020838582541617905560038460075416176007558051948511610ae0576113cf85610904601454613433565b81601f861160011461144d575060039492600092849283611442575b50501b9160001990851b1c1916176014555b6007541617600755611411600a54426143ae565b6009557f9ae3be94f0e4131804326f9163ba3d70895b321825873a36011ccca6eec81f2860405180610a3681613e6d565b0151925086806113eb565b909491601f198316956014600052600080516020615b62833981519152926000905b8882106114a85750508360039710611490575b505050811b016014556113fd565b015160001983871b60f8161c19169055848080611482565b80878596829496860151815501950193019061146f565b60405162461bcd60e51b8152600481018490526013602482015272155cd95c88191bd95cc81b9bdd08195e1a5cdd606a1b6044820152606490fd5b90508381813d8311611528575b611511818361376d565b810103126101b35761152290613de1565b8761136e565b503d611507565b506002821480611335575060038214611335565b346101b35760603660031901126101b3576004351515600435036101b357600d546001600160a01b031661157833821461420b565b61158b600160ff601f5416151514614244565b60ff600754166008811015610bf7576003036120c65760195460405163335ded4b60e21b81526001600160a01b0390911690602081600481855afa908115610dc357600091612087575b506040516328c44a9960e21b8152604435600482015290600090829060249082906001600160a01b03165afa908115610dc357600091611f64575b5060e081015161162a906001600160a01b03168414614291565b60c0810151600e546001600160a01b03918216911603611f2b57602081810151604051633ec4f23d60e01b81529182600481875afa918215610dc357600092611ef7575b5003611ec157610120015180518101906080818303126101b35761169460208201613de1565b916116a160408301613b97565b916080810151916001600160401b0383116101b3576116c7926020809201920101613fcf565b90306001600160a01b0390911603611e8d57604051611704816116f66020820194602086526040830190613917565b03601f19810183528261376d565b51902060405160208082015260135481600061171f83613433565b92836040840152600181169081600014611e6e5750600114611e21575b61174f925003601f19810183528261376d565b6020815191012003611ded576020600492604051938480926318da001160e01b82525afa918215610dc357600092611db1575b50601054604051634047e10360e11b81529091906020816004816001600160a01b0388165afa908115610dc357600091611d7d575b506127106117c86117d092856142d3565b0480936142e6565b9360095442118015611d74575b15611b9b57506117f4901515600435151514614291565b600b54600d5460105461183292611817926001600160a01b03169060ff166143bb565b600b54600e549195916001600160a01b03169060ff16614321565b9160ff600b541661184281613429565b600181148081159182611b88575b8015611b77575b61186090613f95565b601954604051632ee4b68b60e11b815290602090829060049082906001600160a01b03165afa908115610dc357600091611b3d575b50611ada576118a383613429565b826119e357505050600080806118cd94819460018060a01b03165af16118c761475a565b5061478a565b600f55601055600435156119dc5760045b60ff600754166008811015610bf757600052601d60205260406000209060ff19918281541690556008811015610bf7578060ff6119319216600052601d6020526040600020600184825416179055613d18565b6002600c5480600052601e60205260016040600020015460405193611955856136d3565b60018552602085019182526040850192428452600052601e60205260ff604060002095519161198383613429565b61198c83613429565b8654169116178455516001840155519101557f9ae3be94f0e4131804326f9163ba3d70895b321825873a36011ccca6eec81f28604051806119cc81613e6d565b0390a15b601f805460ff19169055005b60056118de565b9160209391611a5a95936119f683613429565b90611ac7575b8015611ab6575b611a0c90613f95565b6001600160a01b0390611a1e90615836565b60405163a9059cbb60e01b81526001600160a01b0390931660048401526024830193909352909384929190911690829060009082906044820190565b03925af18015610dc357600090611a7b575b611a7691506157f8565b6118cd565b506020813d602011611aae575b81611a956020938361376d565b810103126101b357611aa9611a7691613de1565b611a6c565b3d9150611a88565b50611ac081613429565b6000611a03565b50611ad181613429565b600281146119fc565b91809350611ae89150613429565b60028203611b01575050611afb90614abf565b506118cd565b611b0a82613429565b15611b195750611afb90615571565b611b2281613429565b15611b2d57506118cd565b611b3690614f56565b5082611afb565b90506020813d602011611b6f575b81611b586020938361376d565b810103126101b357611b6990613de1565b88611895565b3d9150611b4b565b50611b8183613429565b8215611857565b50611b9283613429565b60028314611850565b935050505060043515611baf575b506119d0565b600f5490602435918211611d3957601654670de0b6b3a764000080821015611cfc57611bde611bec92856142d3565b04809260ff600b54166147c4565b601055600b54600e54611c0d9184916001600160a01b03169060ff166147c4565b600f556007805460ff199081166005179091556011929092556012557fd19a5fe801b7c1f3d54e7cd62d56e46f02f2ab5a22ee5edcfdddda6c80cf4c11805482166001908117909155600c546000818152601e6020526040908190209092015491519260029290611c7d856136d3565b838552602085019182526040850192428452600052601e60205260ff6040600020955191611caa83613429565b611cb383613429565b8654169116178455516001840155519101557f80de7cd6b2dbdab3adb15bbbae320a60f5109fb9befeac59e525a0deb3ee3b4160405180611cf381613e6d565b0390a180611ba9565b60405162461bcd60e51b81526020600482015260156024820152740a0aa9c92a6909a8a9ca8bea482a8929ebe90928e9605b1b6044820152606490fd5b60405162461bcd60e51b81526020600482015260136024820152720a0aa9c92a6909a8a9ca8bea89e9ebe90928e9606b1b6044820152606490fd5b506004356117dd565b90506020813d602011611da9575b81611d986020938361376d565b810103126101b357516127106117b7565b3d9150611d8b565b9091506020813d602011611de5575b81611dcd6020938361376d565b810103126101b357611dde90613b97565b9083611782565b3d9150611dc0565b60405162461bcd60e51b815260206004820152600c60248201526b1253959053125117d413d4d560a21b6044820152606490fd5b50906013600052600080516020615b22833981519152906000915b818310611e5457505090606061174f9282010161173c565b805460608487010152849350602090920191600101611e3c565b6060925061174f94915060ff191682840152151560051b82010161173c565b60405162461bcd60e51b815260206004820152600c60248201526b1253959053125117d191515160a21b6044820152606490fd5b60405162461bcd60e51b815260206004820152600e60248201526d494e56414c49445f534348454d4160901b6044820152606490fd5b9091506020813d602011611f23575b81611f136020938361376d565b810103126101b35751908561166e565b3d9150611f06565b60405162461bcd60e51b81526020600482015260116024820152701253959053125117d49150d25412515395607a1b6044820152606490fd5b90503d806000833e611f76818361376d565b60208282810103126101b3578151906001600160401b0382116101b35761014082840182850103126101b35760405192836101408101106001600160401b0361014086011117610ae057610140840160409081528184018051865260208082015190870152611fe5910161427d565b6040850152611ff860608483010161427d565b606085015261200b60808483010161427d565b608085015260a0838201015160a085015261202a60c084830101613b97565b60c085015261203d60e084830101613b97565b60e08501526101006120528185840101613de1565b9085015261012092838183010151906001600160401b0382116101b35761207d938301920101613fcf565b9082015283611610565b90506020813d6020116120be575b816120a26020938361376d565b810103126101b35760006120b7602492613b97565b91506115d5565b3d9150612095565b60405162461bcd60e51b815260206004820152600d60248201526c1393d517d4d550935255151151609a1b6044820152606490fd5b346101b35760003660031901126101b357600180549061211a826140f3565b90612128604051928361376d565b828252612134836140f3565b6020838101949091601f190136863760005b81811061218757505060405192818401908285525180915260408401949160005b8281106121745785870386f35b8351875295810195928101928401612167565b83600096949695939552807fb10e2d527612073b26eecdfd717e6a320cf44b4afac2b0732d9fcbe2b7fa0cf601549083518110156121dc576121d191868260051b86010152614031565b949294939193612146565b634e487b7160e01b600052603260045260246000fd5b346101b35760003660031901126101b3576003546040516001600160a01b039091168152602090f35b346101b35760003660031901126101b35761232c60405161223b81613724565b604051612247816136d3565b600081526060906020928183858094015283604082015281526040519261226d846136d3565b604051612279816136ee565b600081526000848201526000604082015260008282015260006080820152600060a0820152600060c082015284526040516122b381613709565b600081526000848201526000604082015260008282015260006080820152600060a082015283850152604051906122e9826136d3565b80825280848301526040820152604084015201526040519061230a82613724565b61231261378e565b825261231c6137ee565b9082015260405191829182613b62565b0390f35b346101b35760203660031901126101b357600060408051612350816136d3565b8281528260208201520152600435600052601e60205260606040600020604051612379816136d3565b60ff8254169161238883613429565b828252604060026001830154926020850193845201549201918252604051926123b081613429565b8352516020830152516040820152f35b346101b3576020806003193601126101b3576001600160401b03906004358281116101b3576123f3903690600401613b1b565b9061240360ff601f541615613d31565b60ff60075416600881101580610bf75781600052601d835260ff604060002054168061259a575b61243390613d66565b61244960018060a01b03600e5416331415613dee565b610bf757600403612566578151928311610ae05761246c8361095d601554613433565b8092601f81116001146124f757809192936000916124ec575b508160011b916000199060031b1c1916176015555b600660ff1960075416176007557fa77c04dade08083e74eedaa808b81ae3e17f6e3323c2b8cf30179e8d004b3ca4604051806124d581613e6d565b0390a161232c604051928284938452830190613917565b905083015184612485565b601f198116936015600052600080516020615b028339815191529060005b86811061254f575082600194959610612536575b5050811b0160155561249a565b85015160001960f88460031b161c191690558480612529565b909184600181928589015181550193019101612515565b6064906040519062461bcd60e51b82526004820152600d60248201526c1393d517d19253905312569151609a1b6044820152fd5b505060006003821480156125c8575b819080156125b9575b905061242a565b50610bf75780600483146125b2565b5060009050600682146125a9565b346101b35760003660031901126101b35760405160006013546125f881613433565b8084529060019081811690811561267f5750600114612636575b61232c846126228186038261376d565b604051918291602083526020830190613917565b601360009081529250600080516020615b228339815191525b82841061266757505050810160200161262282612612565b8054602085870181019190915290930192810161264f565b60ff191660208087019190915292151560051b850190920192506126229150839050612612565b346101b35760c03660031901126101b3576001600160a01b03600435818116908190036101b357602435908282168092036101b3576126e3613a88565b906000549060ff8260081c161592838094612a45575b8015612a2e575b156129d257859060019560ff19948688878316176000556129c0575b506001600160601b0360a01b9384600354161760035567016345785d8a0000601655600060175583601854161760185533836019541617601955604051906303e21fa960e61b82528160048160209a8b94165afa908115610dc35760009161298b575b501690601a541617601a556127926158ce565b8051906001600160401b038211610ae05781906127b0601b54613433565b601f8111612932575b508690601f83116001146128b0576000926128a5575b5050600019600383901b1c191690841b17601b555b806007541660075560008052601c845262015180604060002055826000526203f480604060002055600260005262093a80604060002055600360005262127500604060002055600460005262278d0060406000205560008052601d84528260406000209182541617905560643560215560843560225560a43560235561286c57604051908152f35b61ff0019600054166000557f7f26b83ff96e1f2b6a682f133852f6798a09c465da95921460cefb384740249882604051838152a1610247565b0151905086806127cf565b90869350601f19831691601b6000527f3ad8aa4f87544323a9d1e5dd902f40c356527a7955687113db5f9a85ad579dc19260005b8a82821061291c5750508411612903575b505050811b01601b556127e4565b015160001960f88460031b161c191690558680806128f5565b8385015186558a979095019493840193016128e4565b61297b90601b6000527f3ad8aa4f87544323a9d1e5dd902f40c356527a7955687113db5f9a85ad579dc1601f850160051c8101918a8610612981575b601f0160051c0190613bab565b876127b9565b909150819061296e565b90508681813d83116129b9575b6129a2818361376d565b810103126101b3576129b390613b97565b8761277f565b503d612998565b61ffff1916610101176000558861271c565b60405162461bcd60e51b815260206004820152602e60248201527f496e697469616c697a61626c653a20636f6e747261637420697320616c72656160448201526d191e481a5b9a5d1a585b1a5e995960921b6064820152608490fd5b50303b1580156127005750600160ff841614612700565b50600160ff8416106126f9565b346101b35760003660031901126101b357600b54600e54602091610247916001600160a01b03169060ff166141de565b346101b35760003660031901126101b3576020612a9d61410a565b6040516001600160a01b039091168152f35b346101b35760003660031901126101b35761232c6126226158ce565b346101b3576020610247612ade36613ad1565b906141de565b346101b35760003660031901126101b357602060ff60075416612b0a604051809261397b565bf35b346101b35760003660031901126101b357600b54600d54602091610247916001600160a01b03169060ff166141de565b346101b35760003660031901126101b3576020602354604051908152f35b346101b35760003660031901126101b357600e546001600160a01b0390612b84908216331461420b565b600190601f91612b9b8160ff855416151514614244565b60079160ff8354166008811015610bf757600052602091601d8352612bc760ff60406000205416613d66565b612bcf614011565b94612bd8614011565b9560405190612be6826136d3565b6000825285820190815260408201978852612cf98560405193612c08856136ee565b898552600089860152600060408601526000606086015260006080860152600060a0860152600060c0860152604051612c4081613709565b6000815260008a820152600060408201526000606082015260006080820152600060a082015260405190612c73826136d3565b604051612c7f81613752565b600081528252604051612c9181613752565b600081528b830152604051612ca581613752565b60008152604083015260405196612cbb886136d3565b87528a870152604086015288604051612cd381613724565b82815201948552511660018060a01b03166001600160601b0360a01b6004541617600455565b519687516001600160401b0398898211610ae0578190612d1e826106f0600554613433565b88908683116001146131cb576000926131c0575b5050600019600383901b1c191690851b176005555b51805190888211610ae0578190612d6382610749600654613433565b879085831160011461315057600092613145575b5050600019600383901b1c191690841b176006555b519283519384516008811015610bf757604092612daa60a092613d18565b87870151612db7816137e4565b612dc0816137e4565b61ff008a549160081b169061ff0019161789558387015160085560608701516009556080870151600a5560c08288015197612dfa89613429565b612e0389613429565b60ff199860ff8a600b5416911617600b550151600c55612e678884015191612e458184511660018060a01b03166001600160601b0360a01b600d541617600d55565b898301511660018060a01b03166001600160601b0360a01b600e541617600e55565b83810151600f5560608101516010556080810151601155015160125501518051805190888211610ae0578190612ea2826108a8601354613433565b87908583116001146130d5576000926130ca575b5050600019600383901b1c191690841b176013555b84810151805190888211610ae057612ee882610904601454613433565b86908483116001146130565760409392916000918361304b575b5050600019600383901b1c191690851b176014555b0151958651908111610ae057612f328161095d601554613433565b84828211600114612fd95781929394959697600092612fce575b5050600019600383901b1c191690831b176015555b82815416905560ff8454166008811015610bf7578493601d9160005252604060002082815416905582600052604060002090828254161790558154161790557fb0b5796e5695900a8ad6ac70ae39f76b2884b7b46bb57da984b7067aa5c6565860405180610a3681613e6d565b015190508780612f4c565b601f198216906015600052600080516020615b028339815191529160005b81811061303657509883869798999a9695961061301d575b505050811b01601555612f61565b015160001960f88460031b161c1916905587808061300f565b8a830151845592860192918801918801612ff7565b015190508a80612f02565b92918591601f198216906014600052600080516020615b628339815191529160005b8b8282106130b457505095836040971061309b575b505050811b01601455612f17565b015160001960f88460031b161c191690558a808061308d565b8389015185558a96909401939283019201613078565b015190508980612eb6565b90869350601f198316916013600052600080516020615b228339815191529260005b8b82821061312f5750508411613116575b505050811b01601355612ecb565b015160001960f88460031b161c19169055898080613108565b8385015186558a979095019493840193016130f7565b015190508980612d77565b90869350601f198316916006600052600080516020615b428339815191529260005b8b8282106131aa5750508411613191575b505050811b01600655612d8c565b015160001960f88460031b161c19169055898080613183565b8385015186558a97909501949384019301613172565b015190508a80612d32565b90879350601f198316916005600052600080516020615ae28339815191529260005b8c828210613225575050841161320c575b505050811b01600555612d47565b015160001960f88460031b161c191690558a80806131fe565b8385015186558b979095019493840193016131ed565b346101b35760203660031901126101b357600435600052600260205260206040600020541515604051908152f35b346101b35760003660031901126101b3576020600c54604051908152f35b61329036613a9e565b6132a560ff600b94939454166101fb81613429565b6132b460ff601f541615613d31565b600d546001600160a01b039290831633148015613348575b15613311576020936132f19284600e5416331460001461330b575034915b33906144ae565b90600d5416331460001461025a5780601055604051908152f35b916132ea565b60405162461bcd60e51b815260206004820152600f60248201526e2ba927a723afa6a9a3a9a2a72222a960891b6044820152606490fd5b5082600e541633146132cc565b346101b35760003660031901126101b3576020601754604051908152f35b346101b35760003660031901126101b357602061024760ff600b54166133b360018060a01b03916133a883600e5416826141de565b92600d5416906141de565b906143ae565b346101b35760003660031901126101b3576133f46133d561378e565b61232c6133e06137ee565b60405193849360408552604085019061393c565b908382036020850152613988565b346101b35760003660031901126101b35760209060ff600b541661342581613429565b8152f35b60031115610bf757565b90600182811c92168015613463575b602083101461344d57565b634e487b7160e01b600052602260045260246000fd5b91607f1691613442565b6005546000929161347d82613433565b808252916001908181169081156134e2575060011461349b57505050565b919293506005600052600080516020615ae2833981519152916000925b8484106134ca57505060209250010190565b805460208585018101919091529093019281016134b8565b915050602093945060ff929192191683830152151560051b010190565b6006546000929161350f82613433565b808252916001908181169081156134e2575060011461352d57505050565b919293506006600052600080516020615b42833981519152916000925b84841061355c57505060209250010190565b8054602085850181019190915290930192810161354a565b6013546000929161358482613433565b808252916001908181169081156134e257506001146135a257505050565b919293506013600052600080516020615b22833981519152916000925b8484106135d157505060209250010190565b805460208585018101919091529093019281016135bf565b601454600092916135f982613433565b808252916001908181169081156134e2575060011461361757505050565b919293506014600052600080516020615b62833981519152916000925b84841061364657505060209250010190565b80546020858501810191909152909301928101613634565b6015546000929161366e82613433565b808252916001908181169081156134e2575060011461368c57505050565b919293506015600052600080516020615b02833981519152916000925b8484106136bb57505060209250010190565b805460208585018101919091529093019281016136a9565b606081019081106001600160401b03821117610ae057604052565b60e081019081106001600160401b03821117610ae057604052565b60c081019081106001600160401b03821117610ae057604052565b604081019081106001600160401b03821117610ae057604052565b6001600160401b038111610ae057604052565b602081019081106001600160401b03821117610ae057604052565b90601f801991011681019081106001600160401b03821117610ae057604052565b6040519061379b826136d3565b6004546001600160a01b0316825260405182906137c2816137bb8161346d565b038261376d565b602082015260408051916137e0836137d9816134ff565b038461376d565b0152565b60051115610bf757565b60409081516137fc816136d3565b80928051613809816136ee565b60075460ff8116906008821015610bf75760ff91835260081c1661382c816137e4565b6020820152600854828201526009546060820152600a54608082015260ff600b541661385781613429565b60a0820152600c5460c08201528252805161387181613709565b60018060a01b0380600d54168252600e54166020820152600f54828201526010546060820152601154608082015260125460a082015260208301528051916138b8836136d3565b81516138c7816137bb81613574565b835281516138d8816137bb816135e9565b602084015281516138ec816137bb8161365e565b828401520152565b60005b8381106139075750506000910152565b81810151838201526020016138f7565b90602091613930815180928185528580860191016138f4565b601f01601f1916010190565b6139789160018060a01b03825116815260406139676020840151606060208501526060840190613917565b920151906040818403910152613917565b90565b906008821015610bf75752565b9060406139789260c0815161399e85825161397b565b60208101516139ac816137e4565b60208601528381015184860152606081015160608601526080810151608086015260a08101516139db81613429565b60a0860152015160c084015260a06020820151600180831b038082511660e087015260208201511661010086015283810151610120860152606081015161014086015260808101516101608601520151610180840152015190613a546101c0806101a08401526060845191840152610220830190613917565b906102006040613a786020860151946101bf199586868303016101e0870152613917565b9401519282850301910152613917565b604435906001600160a01b03821682036101b357565b60609060031901126101b35760043560038110156101b357906024356001600160a01b03811681036101b3579060443590565b60409060031901126101b35760043560038110156101b357906024356001600160a01b03811681036101b35790565b6001600160401b038111610ae057601f01601f191660200190565b81601f820112156101b357803590613b3282613b00565b92613b40604051948561376d565b828452602083830101116101b357816000926020809301838601378301015290565b9061397891602081526020613b828351604083850152606084019061393c565b920151906040601f1982850301910152613988565b51906001600160a01b03821682036101b357565b818110613bb6575050565b60008155600101613bab565b90601f8211613bcf575050565b613c06916005600052600080516020615ae2833981519152906020601f840160051c8301931061298157601f0160051c0190613bab565b565b90601f8211613c15575050565b613c06916006600052600080516020615b42833981519152906020601f840160051c8301931061298157601f0160051c0190613bab565b90601f8211613c59575050565b613c06916013600052600080516020615b22833981519152906020601f840160051c8301931061298157601f0160051c0190613bab565b90601f8211613c9d575050565b613c06916014600052600080516020615b62833981519152906020601f840160051c8301931061298157601f0160051c0190613bab565b90601f8211613ce1575050565b613c06916015600052600080516020615b02833981519152906020601f840160051c8301931061298157601f0160051c0190613bab565b6008811015610bf75760ff801960075416911617600755565b15613d3857565b60405162461bcd60e51b81526020600482015260066024820152651313d0d2d15160d21b6044820152606490fd5b15613d6d57565b60405162461bcd60e51b815260206004820152600e60248201526d494e56414c49445f53544154555360901b6044820152606490fd5b15613daa57565b60405162461bcd60e51b815260206004820152600f60248201526e14d51052d157d25390d3d4949150d5608a1b6044820152606490fd5b519081151582036101b357565b15613df557565b60405162461bcd60e51b81526020600482015260126024820152712ca7aaafa0a922afaa2422afa9a2a62622a960711b6044820152606490fd5b15613e3657565b60405162461bcd60e51b815260206004820152600f60248201526e57524f4e475f4d53475f56414c554560881b6044820152606490fd5b61397890602081526040602082015260018060a01b038060045416606083015260606080830152613eb4613ea360c0840161346d565b838103605f190160a08501526134ff565b916040601f198285030191015260ff600754613ed28483831661397b565b60081c16613edf816137e4565b602083015260085460408301526009546060830152600a54608083015260ff600b5416613f0b81613429565b60a0830152600c5460c083015280600d541660e0830152600e5416610100820152600f5461012082015260105461014082015260115461016082015260125461018082015260606101c0806101a0840152820152613f6c6102208201613574565b90610200613f886101bf199384848203016101e08501526135e9565b928284030191015261365e565b15613f9c57565b60405162461bcd60e51b815260206004820152600b60248201526a2ba927a723afaa27a5a2a760a91b6044820152606490fd5b81601f820112156101b3578051613fe581613b00565b92613ff3604051948561376d565b818452602082840101116101b35761397891602080850191016138f4565b6040519061401e82613724565b60048252630307830360e41b6020830152565b60001981146140405760010190565b634e487b7160e01b600052601160045260246000fd5b6000818152600260205260408120546140ee57600154680100000000000000008110156140da5760018101806001558110156140c65790826040927fb10e2d527612073b26eecdfd717e6a320cf44b4afac2b0732d9fcbe2b7fa0cf6015560015492815260026020522055600190565b634e487b7160e01b82526032600452602482fd5b634e487b7160e01b82526041600452602482fd5b905090565b6001600160401b038111610ae05760051b60200190565b60ff600b541661411981613429565b60018103614190575060195460405163f77800e560e01b815290602090829060049082906001600160a01b03165afa908115610dc35760009161415a575090565b906020823d8211614188575b816141736020938361376d565b81010312614185575061397890613b97565b80fd5b3d9150614166565b8061419c600292613429565b036141d957601954604051635f117aa360e11b815290602090829060049082906001600160a01b03165afa908115610dc35760009161415a575090565b600090565b6141e781613429565b6000526020805260406000209060018060a01b031660005260205260406000205490565b1561421257565b60405162461bcd60e51b815260206004820152600a6024820152692727aa2fa9a2a62622a960b11b6044820152606490fd5b1561424b57565b60405162461bcd60e51b815260206004820152600a6024820152691393d517d313d0d2d15160b21b6044820152606490fd5b51906001600160401b03821682036101b357565b1561429857565b60405162461bcd60e51b815260206004820152601360248201527224a72b20a624a22fa0aa2a22a9aa20aa24a7a760691b6044820152606490fd5b8181029291811591840414171561404057565b9190820391821161404057565b90949392606092608083019661430881613429565b83526001600160a01b0316602083015260408201520152565b907ffe2caf3897ec3e02a1d458d232d7c62c17809d25dbfe65864ce842162d6c217c9161434d81613429565b6143a8600094828652602090818052604087209160018060a01b038616928389528152604061437f83828b20546143ae565b988994859361438d89613429565b888352808052838320918352522055604051948594856142f3565b0390a190565b9190820180921161404057565b909291926143c882613429565b60009180835260208080526040958685209160018060a01b0385169283875281528786205482811061445057978291816144296143a896957f9060f8ffc7acd8270abf2337023e6377669ca44d5b2a23f3513a29380940f3579a9b9c6142e6565b998a9586936144378a613429565b89835280805283832091835252205551948594856142f3565b885162461bcd60e51b8152600481018390526014602482015273125394d551919250d251539517d1115413d4d25560621b6044820152606490fd5b604091949392606082019560018060a01b0316825260208201526137e083613429565b929060ff600754166008811015610bf7578060026144d5921415908161474e575b50613d66565b8115614718576144e484613429565b8315801561452c575b507f68ffd6ad89c76c56b0b5206ae0c1a14cbffb37023d4e80f635ff7397c56b116b92506143a861451f838387614321565b946040519384938461448b565b6145529061453986613429565b60018614908115614703575b81156146f2575b50613f95565b61455b84615836565b6001600160a01b038061456d87615836565b604051636eb1769f60e11b81526001600160a01b0388166004820152306024820152602097929091889183916044918391165afa8015610dc35786916000916146c2575b501061468457906064869260008360405196879586946323b872dd60e01b8652166004850152306024850152896044850152165af1908115610dc357600091614628575b507f68ffd6ad89c76c56b0b5206ae0c1a14cbffb37023d4e80f635ff7397c56b116b9350614622906157f8565b386144ed565b91929382813d831161467d575b61463f818361376d565b810103126141855750906146226146777f68ffd6ad89c76c56b0b5206ae0c1a14cbffb37023d4e80f635ff7397c56b116b9493613de1565b906145f5565b503d614635565b60405162461bcd60e51b8152600481018790526016602482015275494e53554646494349454e545f414c4c4f57414e434560501b6044820152606490fd5b91508782813d83116146eb575b6146d9818361376d565b810103126141855750859051386145b1565b503d6146cf565b90506146fd86613429565b3861454c565b905061470e86613429565b6002861490614545565b60405162461bcd60e51b815260206004820152600e60248201526d14d51052d157d49154555254915160921b6044820152606490fd5b600391501415386144cf565b3d15614785573d9061476b82613b00565b91614779604051938461376d565b82523d6000602084013e565b606090565b1561479157565b60405162461bcd60e51b815260206004820152600b60248201526a10d0531317d1905253115160aa1b6044820152606490fd5b91906147d18282856143bb565b60195460408051632ee4b68b60e11b815292959092916020916001600160a01b039182168385600481845afa948515614a5e57600095614a69575b50836004918751928380926318da001160e01b82525afa908115614a5e57908391600091614a27575b5016936149ba5761484581613429565b80614896575050508392916148766000808080600080516020615ac2833981519152996143a8975af16118c761475a565b516001600160a01b03909216825260208201929092529081906040820190565b82936148ff93926148cb836148ab8b95613429565b6001811480156149a7575b8015614996575b6148c690613f95565b615836565b16906000875180968195829463a9059cbb60e01b84526004840160209093929193604081019460018060a01b031681520152565b03925af191821561498b57600092614937575b5050600080516020615ac28339815191529392916149326143a8926157f8565b614876565b81819392933d8311614984575b61494e818361376d565b810103126141855750600080516020615ac28339815191529392916149326149786143a893613de1565b92508193949550614912565b503d614944565b83513d6000823e3d90fd5b506149a081613429565b60006148bd565b506149b181613429565b600281146148b6565b90506143a89250600080516020615ac283398151915295949391506149de81613429565b600281036149f657506149f084614abf565b50614876565b6149ff81613429565b60018103614a1157506149f084615571565b614a1a81613429565b614932576149f084614f56565b91508482813d8311614a57575b614a3e818361376d565b810103126141855750614a518391613b97565b38614835565b503d614a34565b86513d6000823e3d90fd5b90948482813d8311614a9d575b614a80818361376d565b81010312614185575083614a95600492613de1565b95915061480c565b503d614a76565b908160209103126101b3575162ffffff811681036101b35790565b60195460408051635f117aa360e11b8082529094936001600160a01b03936020939260049185908990849082908a165afa978815614f4b57600098614f14575b50601a54845163095ea7b360e01b8082529188166001600160a01b031684820190815260208101869052919990918791839182908b9082906040010392165a90600091f18015614d6557614ee0575b50856019541692845191825285828481875afa918215614d6557600092614ea9575b5084516325abd85f60e11b808252929087818681895afa908115614dd857600091614e74575b508651918883602481633488e95960e21b9a8b825260008b8301525afa928315614e1c5790614bd094939291600093614e5c575b50615360565b90866019541690855190815286818581855afa908115614a5e57600091614e27575b5085519063f77800e560e01b9586835288838781875afa928315614e1c57908991600094614de3575b506024895180968193825260018a8301525afa928315614dd85790614c4a94939291600093614da95750615360565b94806019541697845193808552868585818d5afa948515614a5e57908791600096614d70575b50848751809c819382525afa988915614d6557600099614d1e575b5084519081526001600160a01b03989098169188019182526020820186905295969584928792839003604001918391600091165af1908115614d145750614cde575b50614cd89150615571565b50600190565b82813d8311614d0d575b614cf2818361376d565b810103126101b357614d06614cd892613de1565b5038614ccd565b503d614ce8565b513d6000823e3d90fd5b90988682813d8311614d5e575b614d35818361376d565b810103126141855750916000869492614d50899a9b95613b97565b9a9950929450929092614c8b565b503d614d2b565b85513d6000823e3d90fd5b9182819792973d8311614da2575b614d88818361376d565b810103126141855750614d9b8791613b97565b9438614c70565b503d614d7e565b614dca919350893d8b11614dd1575b614dc2818361376d565b810190614aa4565b9138614bca565b503d614db8565b87513d6000823e3d90fd5b9182819592953d8311614e15575b614dfb818361376d565b810103126141855750614e0e8991613b97565b9238614c1b565b503d614df1565b88513d6000823e3d90fd5b908782813d8311614e55575b614e3d818361376d565b810103126141855750614e4f90613b97565b38614bf2565b503d614e33565b614dca9193508a3d8c11614dd157614dc2818361376d565b908882813d8311614ea2575b614e8a818361376d565b810103126141855750614e9c90613b97565b38614b96565b503d614e80565b90918682813d8311614ed9575b614ec0818361376d565b810103126141855750614ed290613b97565b9038614b70565b503d614eb6565b8581813d8311614f0d575b614ef5818361376d565b810103126101b357614f0690613de1565b5038614b4e565b503d614eeb565b90978582813d8311614f44575b614f2b818361376d565b810103126141855750614f3d90613b97565b9638614aff565b503d614f21565b84513d6000823e3d90fd5b906019549160006040918251926325abd85f60e11b958685526020926004958481888160018060a01b038097165afa90811561530b579083918791615328575b5016803b156153005785829188865180948193630d0e30db60e41b83525af1801561530b579087939291615315575b508482601954168551988980928d82525afa96871561530b5786976152d0575b50601a54845163095ea7b360e01b8082529184166001600160a01b031685820190815260208101849052919890918791839182908b90889083906040010393165af180156151cc5761529c575b5081601954168451998a52858a8581845afa998a156151cc57879a615265575b50845163f77800e560e01b8082529a87828781865afa91821561521c5788908a93615226575b508751633488e95960e21b815260018882015293849060249082905afa92831561521c57916150b29391879695938b93614e5c5750615360565b96816019541699868b8751968780928582525afa9485156152125790879189966151d6575b50848751809d819382525afa998a156151cc57879a615182575b5084519081526001600160a01b03999099169189019182526020820187905296979596849287928390036040019183918891165af1908115615179575061513f575b505050614cd890615571565b82813d8311615172575b615153818361376d565b81010312614185575090615169614cd892613de1565b50903880615133565b503d615149565b513d84823e3d90fd5b9099508581813d83116151c5575b61519a818361376d565b810103126151c15791868694926151b38a9b9c95613b97565b9b9a509294509290926150f1565b8680fd5b503d615190565b85513d89823e3d90fd5b8281939297503d831161520b575b6151ee818361376d565b81010312615207576152008791613b97565b94386150d7565b8780fd5b503d6151e4565b86513d8a823e3d90fd5b87513d8b823e3d90fd5b80929350813d831161525e575b61523d818361376d565b8101031261525a57908761525360249493613b97565b9293615078565b8880fd5b503d615233565b9099508581813d8311615295575b61527d818361376d565b810103126151c15761528e90613b97565b9838615052565b503d615273565b8581813d83116152c9575b6152b1818361376d565b810103126151c1576152c290613de1565b5038615032565b503d6152a7565b9096508481813d8311615304575b6152e8818361376d565b81010312615300576152f990613b97565b9538614fe5565b8580fd5b503d6152de565b84513d88823e3d90fd5b6153219096919661373f565b9438614fc5565b809250868092503d8311615359575b615341818361376d565b81010312615300576153538391613b97565b38614f96565b503d615337565b601a54604051636eb1769f60e11b81523060048201526001600160a01b039182166024820181905293959493929091169190602081604481865afa8015610dc357859160009161553c575b50106154d0575b50603c42019384421161404057601a546040516101008101916001600160a01b0316906001600160401b03831181841017610ae05760409283529384526001600160a01b03928316602085810191825262ffffff9687168685019081523060608801908152608088019a8b5260a08801998a52600060c0890181815260e08a01828152975163414bf38960e01b81529951891660048b01529451881660248a01529151909816604488015296518516606487015297516084860152955160a4850152945160c4840152511660e482015292918391610104918391905af1908115610dc3576000916154a1575090565b906020823d6020116154c8575b816154bb6020938361376d565b8101031261418557505190565b3d91506154ae565b60405163095ea7b360e01b8152600481019190915260001960248201526020816044816000865af18015610dc357156153b2576020813d602011615534575b8161551c6020938361376d565b810103126101b35761552d90613de1565b50386153b2565b3d915061550f565b91506020823d602011615569575b816155576020938361376d565b810103126141855750849051386153ab565b3d915061554a565b60195460405163f77800e560e01b81526001600160a01b03916020908290600490829086165afa908115610dc3576000916155f0575b501690813b156101b357600091602483926040519485938492630852cd8d60e31b845260048401525af18015610dc3576155e15750600190565b6155ea9061373f565b38614cd8565b906020823d8211615621575b816156096020938361376d565b81010312614185575061561b90613b97565b386155a7565b3d91506155fc565b92909160ff600754166008811015610bf757806002615650921415908161474e5750613d66565b61565984613429565b836156b95760008080848194829082156156af575b6001600160a01b031690f115610dc3577f4a647b1d902051b0ae802f6050c58456d79d826bdf2bbf37a1bf13be97727b2d915b6143a861451f8383876143bb565b6108fc915061566e565b60208261572d926156cc87969596613429565b6001871480156157e5575b80156157d4575b6156e790613f95565b6001600160a01b036156f888615836565b1690600060405180968195829463a9059cbb60e01b84526004840160209093929193604081019460018060a01b031681520152565b03925af1908115610dc357600091615772575b509061576d7f4a647b1d902051b0ae802f6050c58456d79d826bdf2bbf37a1bf13be97727b2d93926157f8565b6156a1565b906020823d82116157cc575b8161578b6020938361376d565b8101031261418557509061576d6157c37f4a647b1d902051b0ae802f6050c58456d79d826bdf2bbf37a1bf13be97727b2d9493613de1565b91929350615740565b3d915061577e565b506157de87613429565b60006156de565b506157ef87613429565b600287146156d7565b156157ff57565b60405162461bcd60e51b815260206004820152600f60248201526e1514905394d1915497d19052531151608a1b6044820152606490fd5b61583f81613429565b600281146158955780615853600192613429565b1461585d57600090565b60195460405163f77800e560e01b815290602090829060049082906001600160a01b03165afa908115610dc35760009161415a575090565b50601954604051635f117aa360e11b815290602090829060049082906001600160a01b03165afa908115610dc35760009161415a575090565b6158d9602154615959565b61397860226158e88154615959565b926158f4602354615959565b604051948261590d8794518092602080880191016138f4565b830190601760f91b918260208201526159308251809360206021850191016138f4565b0190602182015261594a82518093602087850191016138f4565b0103600281018452018261376d565b806000917a184f03e93ff9f4daa797ed6e38ed64bf6a1f01000000000000000080821015615ab3575b506d04ee2d6d415b85acef810000000080831015615aa4575b50662386f26fc1000080831015615a95575b506305f5e10080831015615a86575b5061271080831015615a77575b506064821015615a67575b600a80921015615a5d575b600190816021818601956159f287613b00565b96615a00604051988961376d565b808852615a0f601f1991613b00565b01366020890137860101905b615a27575b5050505090565b600019019083906f181899199a1a9b1b9c1cb0b131b232b360811b8282061a835304918215615a5857919082615a1b565b615a20565b91600101916159df565b91906064600291049101916159d4565b600491939204910191386159c9565b600891939204910191386159bc565b601091939204910191386159ad565b6020919392049101913861599b565b60409350810491503861598256fe659f33fc6677bebf3a9bf3101092792e31f35766d0358e54577bdd91a655f6a0036b6384b5eca791c62761152d0c79bb0604c104a5fb6f4eb0703f3154bb3db055f448fdea98c4d29eb340757ef0a66cd03dbb9538908a6a81d96026b71ec47566de8ffda797e3de9c05e8fc57b3bf0ec28a930d40b0d285d93c06501cf6a090f652222313e28459528d920b65115c16c04f3efc82aaedc97be59f3f377c0d3fce6d7b5282bd9a3661ae061feed1dbda4e52ab073b1f9285be6e155d9c38d4eca264697066735822122032227f0673d7bda8d1dddfad0f93912e3509548735cd0fc6e212a6fd44b1c0aa64736f6c63430008130033",
  "linkReferences": {},
  "deployedLinkReferences": {}
}