{
  "_format": "hh-sol-artifact-1",
  "contractName": "MecenateVault",
  "sourceName": "contracts/evm/MecenateVault.sol",
  "abi": [
    {
      "inputs": [
        {
          "internalType": "address",
          "name": "_verifierContract",
          "type": "address"
        }
      ],
      "stateMutability": "nonpayable",
      "type": "constructor"
    },
    {
      "anonymous": false,
      "inputs": [
        {
          "indexed": true,
          "internalType": "address",
          "name": "previousOwner",
          "type": "address"
        },
        {
          "indexed": true,
          "internalType": "address",
          "name": "newOwner",
          "type": "address"
        }
      ],
      "name": "OwnershipTransferred",
      "type": "event"
    },
    {
      "anonymous": false,
      "inputs": [
        {
          "indexed": true,
          "internalType": "bytes32",
          "name": "commitment",
          "type": "bytes32"
        },
        {
          "indexed": false,
          "internalType": "uint256",
          "name": "amount",
          "type": "uint256"
        },
        {
          "indexed": false,
          "internalType": "string",
          "name": "secret",
          "type": "string"
        },
        {
          "indexed": false,
          "internalType": "address",
          "name": "token",
          "type": "address"
        }
      ],
      "name": "Withdrawn",
      "type": "event"
    },
    {
      "inputs": [
        {
          "internalType": "address",
          "name": "_token",
          "type": "address"
        },
        {
          "internalType": "uint256",
          "name": "_amount",
          "type": "uint256"
        }
      ],
      "name": "depositFunds",
      "outputs": [],
      "stateMutability": "payable",
      "type": "function"
    },
    {
      "inputs": [
        {
          "internalType": "bytes32",
          "name": "_hash",
          "type": "bytes32"
        },
        {
          "internalType": "address",
          "name": "_token",
          "type": "address"
        },
        {
          "internalType": "uint256",
          "name": "_amount",
          "type": "uint256"
        }
      ],
      "name": "depositWithSecret",
      "outputs": [],
      "stateMutability": "payable",
      "type": "function"
    },
    {
      "inputs": [
        {
          "internalType": "address",
          "name": "_user",
          "type": "address"
        }
      ],
      "name": "getEthDeposit",
      "outputs": [
        {
          "internalType": "uint256",
          "name": "",
          "type": "uint256"
        }
      ],
      "stateMutability": "view",
      "type": "function"
    },
    {
      "inputs": [
        {
          "internalType": "address",
          "name": "_token",
          "type": "address"
        },
        {
          "internalType": "address",
          "name": "_user",
          "type": "address"
        }
      ],
      "name": "getTokenDeposit",
      "outputs": [
        {
          "internalType": "uint256",
          "name": "",
          "type": "uint256"
        }
      ],
      "stateMutability": "view",
      "type": "function"
    },
    {
      "inputs": [],
      "name": "owner",
      "outputs": [
        {
          "internalType": "address",
          "name": "",
          "type": "address"
        }
      ],
      "stateMutability": "view",
      "type": "function"
    },
    {
      "inputs": [],
      "name": "renounceOwnership",
      "outputs": [],
      "stateMutability": "nonpayable",
      "type": "function"
    },
    {
      "inputs": [
        {
          "internalType": "address",
          "name": "_verifierContract",
          "type": "address"
        }
      ],
      "name": "setVerifierContract",
      "outputs": [],
      "stateMutability": "nonpayable",
      "type": "function"
    },
    {
      "inputs": [
        {
          "internalType": "address",
          "name": "newOwner",
          "type": "address"
        }
      ],
      "name": "transferOwnership",
      "outputs": [],
      "stateMutability": "nonpayable",
      "type": "function"
    },
    {
      "inputs": [],
      "name": "verifierContract",
      "outputs": [
        {
          "internalType": "address",
          "name": "",
          "type": "address"
        }
      ],
      "stateMutability": "view",
      "type": "function"
    },
    {
      "inputs": [
        {
          "internalType": "address",
          "name": "_token",
          "type": "address"
        },
        {
          "internalType": "uint256",
          "name": "_amount",
          "type": "uint256"
        },
        {
          "internalType": "address",
          "name": "_to",
          "type": "address"
        }
      ],
      "name": "withdrawFunds",
      "outputs": [],
      "stateMutability": "nonpayable",
      "type": "function"
    },
    {
      "inputs": [
        {
          "internalType": "string",
          "name": "_secret",
          "type": "string"
        },
        {
          "internalType": "address",
          "name": "_token",
          "type": "address"
        },
        {
          "internalType": "address",
          "name": "_to",
          "type": "address"
        }
      ],
      "name": "withdrawWithSecret",
      "outputs": [],
      "stateMutability": "nonpayable",
      "type": "function"
    },
    {
      "stateMutability": "payable",
      "type": "receive"
    }
  ],
  "bytecode": "0x6080346100ab57601f610cf038819003918201601f19168301916001600160401b038311848410176100b0578084926020946040528339810103126100ab57516001600160a01b0390818116908190036100ab5760005460018060a01b0319903382821617600055604051933391167f8be0079c531659141344cd1fd0a4f28419497f9722a3daafe3b4186f6b6457e0600080a3600180556006541617600655610c2990816100c78239f35b600080fd5b634e487b7160e01b600052604160045260246000fdfe60406080815260048036101561005d575b361561001b57600080fd5b6020606492519162461bcd60e51b8352820152601760248201527f557365206465706f7369744554482066756e6374696f6e0000000000000000006044820152fd5b6000803560e01c806347c6b45e1461064e578063715018a6146105f45780638ab1ee63146103425780638da5cb5b1461031a578063921b004b146102d3578063a25da83c1461028b578063a26c422f14610253578063a7c1b14a14610220578063cf695688146101f3578063cfe6a2a5146101a95763f2fde38b146100e25750610010565b9190346101a55760203660031901126101a5576100fd6108d6565b90610106610971565b6001600160a01b0391821692831561015357505082546001600160a01b0319811683178455167f8be0079c531659141344cd1fd0a4f28419497f9722a3daafe3b4186f6b6457e08380a380f35b906020608492519162461bcd60e51b8352820152602660248201527f4f776e61626c653a206e6577206f776e657220697320746865207a65726f206160448201526564647265737360d01b6064820152fd5b8280fd5b509190346101a557816003193601126101a55760209282916101c96108d6565b906001600160a01b0390816101dc610907565b168452865283832091168252845220549051908152f35b50823461021c578160031936011261021c5760065490516001600160a01b039091168152602090f35b5080fd5b5090606036600319011261021c5761024c9061023a610907565b6102426109c9565b6044359135610aa5565b6001805580f35b50823461021c57602036600319011261021c5760209181906001600160a01b0361027b6108d6565b1681526003845220549051908152f35b50346102d05760203660031901126102d0576102a56108d6565b6102ad610971565b60018060a01b03166bffffffffffffffffffffffff60a01b600654161760065580f35b80fd5b50828060031936011261021c5761024c906102ec6108d6565b906102f56109c9565b5190602082013360601b81526014835261030e8361091d565b60243592519020610aa5565b50823461021c578160031936011261021c57905490516001600160a01b039091168152602090f35b509190346101a55760603660031901126101a557803567ffffffffffffffff918282116105f057366023830112156105f057818101359283116105dd5783519160209286601f199261039b8685601f8a0116018461094f565b8683528583019636602482840101116101a5578060248893018937830101526103c2610907565b946103cb6108f1565b916103d46109c9565b6103fb86895180936103ee83830196879251928391610bb0565b810103808452018261094f565b519020946001600160a01b0390811691826104ed5786895260028652878920549485156104aa5750888086819482948b845260028b52838d8120551682f1156104a05790601f600080516020610bd48339815191529596608094935b81519161048e888401938b85528981526104708161091d565b606083519a8b998a528901525180948160608a015289890190610bb0565b85015201168101030190a26001805580f35b85513d88823e3d90fd5b885162461bcd60e51b8152908101879052601e60248201527f4e6f20455448206465706f73697420666f7220746869732073656372657400006044820152606490fd5b909386895260058652878920838a5286528789205494851561059c57878a5260058752888a20848b528752885163a9059cbb60e01b81529216908201526024810188905284816044818b865af1801561059257966080949392601f92600080516020610bd48339815191529899610565575b50610457565b61058490883d8a1161058b575b61057c818361094f565b810190610a6a565b503861055f565b503d610572565b87513d8a823e3d90fd5b60648288808c519262461bcd60e51b845283015260248201527f4e6f20546f6b656e206465706f73697420666f722074686973207365637265746044820152fd5b634e487b7160e01b855260419052602484fd5b8480fd5b50346102d057806003193601126102d05761060d610971565b80546001600160a01b03198116825581906001600160a01b03167f8be0079c531659141344cd1fd0a4f28419497f9722a3daafe3b4186f6b6457e08280a380f35b509190346101a55760603660031901126101a55761066a6108d6565b602480356106766108f1565b9261067f6109c9565b855193602094858101903360601b82526014815261069c8161091d565b519020956001600160a01b0392831693846107915750868952600286528789205494851561074f575050878085819482948a845260028a52838c8120551682f1156107455790600080516020610bd483398151915293946080925b81519161072e868401938985528781526107108161091d565b60608351988997885287015251809481606088015287870190610bb0565b830152601f01601f19168101030190a26001805580f35b84513d87823e3d90fd5b885162461bcd60e51b8152918201879052601e908201527f4e6f20455448206465706f73697420666f7220746869732073656372657400006044820152606490fd5b91929490878a5260058752888a20858b528752888a20549586156108965786841161085557888b5260058852898b20868c528852898b208054908582039182116108435755895163a9059cbb60e01b815294169084015282015283816044818a865af180156108395791600080516020610bd48339815191529596916080949361081c575b506106f7565b61083290863d881161058b5761057c818361094f565b5038610816565b86513d89823e3d90fd5b634e487b7160e01b8d5260118452848dfd5b506018606492888b519362461bcd60e51b85528401528201527f4e6f7420656e6f75676820746f6b656e2062616c616e636500000000000000006044820152fd5b5086606492818b519362461bcd60e51b85528401528201527f4e6f20546f6b656e206465706f73697420666f722074686973207365637265746044820152fd5b600435906001600160a01b03821682036108ec57565b600080fd5b604435906001600160a01b03821682036108ec57565b602435906001600160a01b03821682036108ec57565b6040810190811067ffffffffffffffff82111761093957604052565b634e487b7160e01b600052604160045260246000fd5b90601f8019910116810190811067ffffffffffffffff82111761093957604052565b6000546001600160a01b0316330361098557565b606460405162461bcd60e51b815260206004820152602060248201527f4f776e61626c653a2063616c6c6572206973206e6f7420746865206f776e65726044820152fd5b6002600154146109da576002600155565b60405162461bcd60e51b815260206004820152601f60248201527f5265656e7472616e637947756172643a207265656e7472616e742063616c6c006044820152606490fd5b15610a2657565b606460405162461bcd60e51b815260206004820152602060248201527f416d6f756e74206d7573742062652067726561746572207468616e207a65726f6044820152fd5b908160209103126108ec575180151581036108ec5790565b91908201809211610a8f57565b634e487b7160e01b600052601160045260246000fd5b906001600160a01b031680610ade57509050610ac2341515610a1f565b60005260026020526040600020610ada348254610a82565b9055565b610ae9831515610a1f565b6040516323b872dd60e01b815233600482015230602482015260448101849052600092602091828160648188885af1908115610ba5578591610b88575b5015610b4b57918391604093610ada9552600581528383209183525220918254610a82565b60405162461bcd60e51b8152600481018390526015602482015274151bdad95b881d1c985b9cd9995c8819985a5b1959605a1b6044820152606490fd5b610b9f9150833d851161058b5761057c818361094f565b38610b26565b6040513d87823e3d90fd5b60005b838110610bc35750506000910152565b8181015183820152602001610bb356fea5ecd7cf58f2f1e36e387c6442f5dea0a47926654ed49e6d1d9eb06d04064244a2646970667358221220bead52dc72eaccb56f19e04ee1b3abccd05c9a3c5387d698def3f9e3b618da5c64736f6c63430008130033",
  "linkReferences": {},
  "deployedLinkReferences": {}
}