{
  "_format": "hh-sol-artifact-1",
  "contractName": "AuthRequestBuilder",
  "sourceName": "contracts/helpers/utils/AuthRequestBuilder.sol",
  "abi": [
    {
      "inputs": [],
      "name": "InvalidUserIdAndAuthType",
      "type": "error"
    },
    {
      "inputs": [],
      "name": "InvalidUserIdAndIsSelectableByUserAuthType",
      "type": "error"
    },
    {
      "inputs": [],
      "name": "DEFAULT_AUTH_REQUEST_EXTRA_DATA",
      "outputs": [
        {
          "internalType": "bytes",
          "name": "",
          "type": "bytes"
        }
      ],
      "stateMutability": "view",
      "type": "function"
    },
    {
      "inputs": [],
      "name": "DEFAULT_AUTH_REQUEST_IS_ANON",
      "outputs": [
        {
          "internalType": "bool",
          "name": "",
          "type": "bool"
        }
      ],
      "stateMutability": "view",
      "type": "function"
    },
    {
      "inputs": [],
      "name": "DEFAULT_AUTH_REQUEST_IS_OPTIONAL",
      "outputs": [
        {
          "internalType": "bool",
          "name": "",
          "type": "bool"
        }
      ],
      "stateMutability": "view",
      "type": "function"
    },
    {
      "inputs": [],
      "name": "DEFAULT_AUTH_REQUEST_USER_ID",
      "outputs": [
        {
          "internalType": "uint256",
          "name": "",
          "type": "uint256"
        }
      ],
      "stateMutability": "view",
      "type": "function"
    },
    {
      "inputs": [
        {
          "internalType": "enum AuthType",
          "name": "authType",
          "type": "uint8"
        },
        {
          "internalType": "bool",
          "name": "isAnon",
          "type": "bool"
        },
        {
          "internalType": "bytes",
          "name": "extraData",
          "type": "bytes"
        }
      ],
      "name": "build",
      "outputs": [
        {
          "components": [
            {
              "internalType": "enum AuthType",
              "name": "authType",
              "type": "uint8"
            },
            {
              "internalType": "uint256",
              "name": "userId",
              "type": "uint256"
            },
            {
              "internalType": "bool",
              "name": "isAnon",
              "type": "bool"
            },
            {
              "internalType": "bool",
              "name": "isOptional",
              "type": "bool"
            },
            {
              "internalType": "bool",
              "name": "isSelectableByUser",
              "type": "bool"
            },
            {
              "internalType": "bytes",
              "name": "extraData",
              "type": "bytes"
            }
          ],
          "internalType": "struct AuthRequest",
          "name": "",
          "type": "tuple"
        }
      ],
      "stateMutability": "pure",
      "type": "function"
    },
    {
      "inputs": [
        {
          "internalType": "enum AuthType",
          "name": "authType",
          "type": "uint8"
        },
        {
          "internalType": "bool",
          "name": "isAnon",
          "type": "bool"
        }
      ],
      "name": "build",
      "outputs": [
        {
          "components": [
            {
              "internalType": "enum AuthType",
              "name": "authType",
              "type": "uint8"
            },
            {
              "internalType": "uint256",
              "name": "userId",
              "type": "uint256"
            },
            {
              "internalType": "bool",
              "name": "isAnon",
              "type": "bool"
            },
            {
              "internalType": "bool",
              "name": "isOptional",
              "type": "bool"
            },
            {
              "internalType": "bool",
              "name": "isSelectableByUser",
              "type": "bool"
            },
            {
              "internalType": "bytes",
              "name": "extraData",
              "type": "bytes"
            }
          ],
          "internalType": "struct AuthRequest",
          "name": "",
          "type": "tuple"
        }
      ],
      "stateMutability": "pure",
      "type": "function"
    },
    {
      "inputs": [
        {
          "internalType": "enum AuthType",
          "name": "authType",
          "type": "uint8"
        },
        {
          "internalType": "bool",
          "name": "isAnon",
          "type": "bool"
        },
        {
          "internalType": "bool",
          "name": "isOptional",
          "type": "bool"
        },
        {
          "internalType": "bool",
          "name": "isSelectableByUser",
          "type": "bool"
        }
      ],
      "name": "build",
      "outputs": [
        {
          "components": [
            {
              "internalType": "enum AuthType",
              "name": "authType",
              "type": "uint8"
            },
            {
              "internalType": "uint256",
              "name": "userId",
              "type": "uint256"
            },
            {
              "internalType": "bool",
              "name": "isAnon",
              "type": "bool"
            },
            {
              "internalType": "bool",
              "name": "isOptional",
              "type": "bool"
            },
            {
              "internalType": "bool",
              "name": "isSelectableByUser",
              "type": "bool"
            },
            {
              "internalType": "bytes",
              "name": "extraData",
              "type": "bytes"
            }
          ],
          "internalType": "struct AuthRequest",
          "name": "",
          "type": "tuple"
        }
      ],
      "stateMutability": "pure",
      "type": "function"
    },
    {
      "inputs": [
        {
          "internalType": "enum AuthType",
          "name": "authType",
          "type": "uint8"
        },
        {
          "internalType": "bool",
          "name": "isOptional",
          "type": "bool"
        },
        {
          "internalType": "bool",
          "name": "isSelectableByUser",
          "type": "bool"
        },
        {
          "internalType": "uint256",
          "name": "userId",
          "type": "uint256"
        }
      ],
      "name": "build",
      "outputs": [
        {
          "components": [
            {
              "internalType": "enum AuthType",
              "name": "authType",
              "type": "uint8"
            },
            {
              "internalType": "uint256",
              "name": "userId",
              "type": "uint256"
            },
            {
              "internalType": "bool",
              "name": "isAnon",
              "type": "bool"
            },
            {
              "internalType": "bool",
              "name": "isOptional",
              "type": "bool"
            },
            {
              "internalType": "bool",
              "name": "isSelectableByUser",
              "type": "bool"
            },
            {
              "internalType": "bytes",
              "name": "extraData",
              "type": "bytes"
            }
          ],
          "internalType": "struct AuthRequest",
          "name": "",
          "type": "tuple"
        }
      ],
      "stateMutability": "pure",
      "type": "function"
    },
    {
      "inputs": [
        {
          "internalType": "enum AuthType",
          "name": "authType",
          "type": "uint8"
        }
      ],
      "name": "build",
      "outputs": [
        {
          "components": [
            {
              "internalType": "enum AuthType",
              "name": "authType",
              "type": "uint8"
            },
            {
              "internalType": "uint256",
              "name": "userId",
              "type": "uint256"
            },
            {
              "internalType": "bool",
              "name": "isAnon",
              "type": "bool"
            },
            {
              "internalType": "bool",
              "name": "isOptional",
              "type": "bool"
            },
            {
              "internalType": "bool",
              "name": "isSelectableByUser",
              "type": "bool"
            },
            {
              "internalType": "bytes",
              "name": "extraData",
              "type": "bytes"
            }
          ],
          "internalType": "struct AuthRequest",
          "name": "",
          "type": "tuple"
        }
      ],
      "stateMutability": "pure",
      "type": "function"
    },
    {
      "inputs": [
        {
          "internalType": "enum AuthType",
          "name": "authType",
          "type": "uint8"
        },
        {
          "internalType": "uint256",
          "name": "userId",
          "type": "uint256"
        },
        {
          "internalType": "bool",
          "name": "isOptional",
          "type": "bool"
        }
      ],
      "name": "build",
      "outputs": [
        {
          "components": [
            {
              "internalType": "enum AuthType",
              "name": "authType",
              "type": "uint8"
            },
            {
              "internalType": "uint256",
              "name": "userId",
              "type": "uint256"
            },
            {
              "internalType": "bool",
              "name": "isAnon",
              "type": "bool"
            },
            {
              "internalType": "bool",
              "name": "isOptional",
              "type": "bool"
            },
            {
              "internalType": "bool",
              "name": "isSelectableByUser",
              "type": "bool"
            },
            {
              "internalType": "bytes",
              "name": "extraData",
              "type": "bytes"
            }
          ],
          "internalType": "struct AuthRequest",
          "name": "",
          "type": "tuple"
        }
      ],
      "stateMutability": "pure",
      "type": "function"
    },
    {
      "inputs": [
        {
          "internalType": "enum AuthType",
          "name": "authType",
          "type": "uint8"
        },
        {
          "internalType": "uint256",
          "name": "userId",
          "type": "uint256"
        }
      ],
      "name": "build",
      "outputs": [
        {
          "components": [
            {
              "internalType": "enum AuthType",
              "name": "authType",
              "type": "uint8"
            },
            {
              "internalType": "uint256",
              "name": "userId",
              "type": "uint256"
            },
            {
              "internalType": "bool",
              "name": "isAnon",
              "type": "bool"
            },
            {
              "internalType": "bool",
              "name": "isOptional",
              "type": "bool"
            },
            {
              "internalType": "bool",
              "name": "isSelectableByUser",
              "type": "bool"
            },
            {
              "internalType": "bytes",
              "name": "extraData",
              "type": "bytes"
            }
          ],
          "internalType": "struct AuthRequest",
          "name": "",
          "type": "tuple"
        }
      ],
      "stateMutability": "pure",
      "type": "function"
    },
    {
      "inputs": [
        {
          "internalType": "enum AuthType",
          "name": "authType",
          "type": "uint8"
        },
        {
          "internalType": "bytes",
          "name": "extraData",
          "type": "bytes"
        }
      ],
      "name": "build",
      "outputs": [
        {
          "components": [
            {
              "internalType": "enum AuthType",
              "name": "authType",
              "type": "uint8"
            },
            {
              "internalType": "uint256",
              "name": "userId",
              "type": "uint256"
            },
            {
              "internalType": "bool",
              "name": "isAnon",
              "type": "bool"
            },
            {
              "internalType": "bool",
              "name": "isOptional",
              "type": "bool"
            },
            {
              "internalType": "bool",
              "name": "isSelectableByUser",
              "type": "bool"
            },
            {
              "internalType": "bytes",
              "name": "extraData",
              "type": "bytes"
            }
          ],
          "internalType": "struct AuthRequest",
          "name": "",
          "type": "tuple"
        }
      ],
      "stateMutability": "pure",
      "type": "function"
    },
    {
      "inputs": [
        {
          "internalType": "enum AuthType",
          "name": "authType",
          "type": "uint8"
        },
        {
          "internalType": "bool",
          "name": "isAnon",
          "type": "bool"
        },
        {
          "internalType": "uint256",
          "name": "userId",
          "type": "uint256"
        }
      ],
      "name": "build",
      "outputs": [
        {
          "components": [
            {
              "internalType": "enum AuthType",
              "name": "authType",
              "type": "uint8"
            },
            {
              "internalType": "uint256",
              "name": "userId",
              "type": "uint256"
            },
            {
              "internalType": "bool",
              "name": "isAnon",
              "type": "bool"
            },
            {
              "internalType": "bool",
              "name": "isOptional",
              "type": "bool"
            },
            {
              "internalType": "bool",
              "name": "isSelectableByUser",
              "type": "bool"
            },
            {
              "internalType": "bytes",
              "name": "extraData",
              "type": "bytes"
            }
          ],
          "internalType": "struct AuthRequest",
          "name": "",
          "type": "tuple"
        }
      ],
      "stateMutability": "pure",
      "type": "function"
    },
    {
      "inputs": [
        {
          "internalType": "enum AuthType",
          "name": "authType",
          "type": "uint8"
        },
        {
          "internalType": "bool",
          "name": "isAnon",
          "type": "bool"
        },
        {
          "internalType": "uint256",
          "name": "userId",
          "type": "uint256"
        },
        {
          "internalType": "bool",
          "name": "isOptional",
          "type": "bool"
        }
      ],
      "name": "build",
      "outputs": [
        {
          "components": [
            {
              "internalType": "enum AuthType",
              "name": "authType",
              "type": "uint8"
            },
            {
              "internalType": "uint256",
              "name": "userId",
              "type": "uint256"
            },
            {
              "internalType": "bool",
              "name": "isAnon",
              "type": "bool"
            },
            {
              "internalType": "bool",
              "name": "isOptional",
              "type": "bool"
            },
            {
              "internalType": "bool",
              "name": "isSelectableByUser",
              "type": "bool"
            },
            {
              "internalType": "bytes",
              "name": "extraData",
              "type": "bytes"
            }
          ],
          "internalType": "struct AuthRequest",
          "name": "",
          "type": "tuple"
        }
      ],
      "stateMutability": "pure",
      "type": "function"
    },
    {
      "inputs": [
        {
          "internalType": "enum AuthType",
          "name": "authType",
          "type": "uint8"
        },
        {
          "internalType": "bool",
          "name": "isAnon",
          "type": "bool"
        },
        {
          "internalType": "uint256",
          "name": "userId",
          "type": "uint256"
        },
        {
          "internalType": "bool",
          "name": "isOptional",
          "type": "bool"
        },
        {
          "internalType": "bool",
          "name": "isSelectableByUser",
          "type": "bool"
        },
        {
          "internalType": "bytes",
          "name": "extraData",
          "type": "bytes"
        }
      ],
      "name": "build",
      "outputs": [
        {
          "components": [
            {
              "internalType": "enum AuthType",
              "name": "authType",
              "type": "uint8"
            },
            {
              "internalType": "uint256",
              "name": "userId",
              "type": "uint256"
            },
            {
              "internalType": "bool",
              "name": "isAnon",
              "type": "bool"
            },
            {
              "internalType": "bool",
              "name": "isOptional",
              "type": "bool"
            },
            {
              "internalType": "bool",
              "name": "isSelectableByUser",
              "type": "bool"
            },
            {
              "internalType": "bytes",
              "name": "extraData",
              "type": "bytes"
            }
          ],
          "internalType": "struct AuthRequest",
          "name": "",
          "type": "tuple"
        }
      ],
      "stateMutability": "pure",
      "type": "function"
    },
    {
      "inputs": [
        {
          "internalType": "enum AuthType",
          "name": "authType",
          "type": "uint8"
        },
        {
          "internalType": "uint256",
          "name": "userId",
          "type": "uint256"
        },
        {
          "internalType": "bytes",
          "name": "extraData",
          "type": "bytes"
        }
      ],
      "name": "build",
      "outputs": [
        {
          "components": [
            {
              "internalType": "enum AuthType",
              "name": "authType",
              "type": "uint8"
            },
            {
              "internalType": "uint256",
              "name": "userId",
              "type": "uint256"
            },
            {
              "internalType": "bool",
              "name": "isAnon",
              "type": "bool"
            },
            {
              "internalType": "bool",
              "name": "isOptional",
              "type": "bool"
            },
            {
              "internalType": "bool",
              "name": "isSelectableByUser",
              "type": "bool"
            },
            {
              "internalType": "bytes",
              "name": "extraData",
              "type": "bytes"
            }
          ],
          "internalType": "struct AuthRequest",
          "name": "",
          "type": "tuple"
        }
      ],
      "stateMutability": "pure",
      "type": "function"
    },
    {
      "inputs": [
        {
          "internalType": "enum AuthType",
          "name": "authType",
          "type": "uint8"
        },
        {
          "internalType": "bool",
          "name": "isAnon",
          "type": "bool"
        },
        {
          "internalType": "uint256",
          "name": "userId",
          "type": "uint256"
        },
        {
          "internalType": "bytes",
          "name": "extraData",
          "type": "bytes"
        }
      ],
      "name": "build",
      "outputs": [
        {
          "components": [
            {
              "internalType": "enum AuthType",
              "name": "authType",
              "type": "uint8"
            },
            {
              "internalType": "uint256",
              "name": "userId",
              "type": "uint256"
            },
            {
              "internalType": "bool",
              "name": "isAnon",
              "type": "bool"
            },
            {
              "internalType": "bool",
              "name": "isOptional",
              "type": "bool"
            },
            {
              "internalType": "bool",
              "name": "isSelectableByUser",
              "type": "bool"
            },
            {
              "internalType": "bytes",
              "name": "extraData",
              "type": "bytes"
            }
          ],
          "internalType": "struct AuthRequest",
          "name": "",
          "type": "tuple"
        }
      ],
      "stateMutability": "pure",
      "type": "function"
    },
    {
      "inputs": [
        {
          "internalType": "enum AuthType",
          "name": "authType",
          "type": "uint8"
        },
        {
          "internalType": "bool",
          "name": "isOptional",
          "type": "bool"
        },
        {
          "internalType": "bool",
          "name": "isSelectableByUser",
          "type": "bool"
        }
      ],
      "name": "build",
      "outputs": [
        {
          "components": [
            {
              "internalType": "enum AuthType",
              "name": "authType",
              "type": "uint8"
            },
            {
              "internalType": "uint256",
              "name": "userId",
              "type": "uint256"
            },
            {
              "internalType": "bool",
              "name": "isAnon",
              "type": "bool"
            },
            {
              "internalType": "bool",
              "name": "isOptional",
              "type": "bool"
            },
            {
              "internalType": "bool",
              "name": "isSelectableByUser",
              "type": "bool"
            },
            {
              "internalType": "bytes",
              "name": "extraData",
              "type": "bytes"
            }
          ],
          "internalType": "struct AuthRequest",
          "name": "",
          "type": "tuple"
        }
      ],
      "stateMutability": "pure",
      "type": "function"
    }
  ],
  "bytecode": "0x6080806040523461001657610d45908161001c8239f35b600080fdfe6040608081526004908136101561001557600080fd5b600090813560e01c80631967e5101461079c5780631a88fb281461073957806320c90199146106e1578063291884ae146105f15780633049e4f11461059e5780633a0ba6ff1461055d5780633ca1531a146104ff578063448324ea146104e557806345c13083146104b2578063498a992e146104ad578063515591901461046a5780636746dd2c146104025780638b9dba71146103b5578063916d93c71461034f5780639aa01be1146102d3578063af4f63961461025c578063c355a32c146101d85763c3bcacd0146100e757600080fd5b346101d45760603660031901126101d45782359160068310156101d15761010c6107bd565b6101146107cc565b9061011d610957565b50610126610820565b92808452610132610957565b5085158015806101c9575b806101c1575b6101b157806101aa575b806101a2575b6101925761018e96506101646107ea565b95865280602087015284860152151560608501521515608084015260a083015251918291826108e3565b0390f35b8451637fb1693d60e01b81528790fd5b508215610153565b508061014d565b85516301972ecd60e11b81528890fd5b508315610143565b50600161013d565b80fd5b5080fd5b5090346101d15760803660031901126101d15782359060068210156101d1576101ff6107bd565b93604435916064359067ffffffffffffffff82116101d157509161022e610251949261018e9794369101610840565b92610237610957565b50610240610957565b5061024b8284610cf2565b92610bcb565b9051918291826108e3565b5082346102cf5760603660031901126102cf5780359060068210156102cb57602435936044359067ffffffffffffffff82116101d15750916102a861018e959261025194369101610840565b916102b1610957565b506102ba610957565b506102c58183610cf2565b91610b44565b8380fd5b8280fd5b5090346101d15760c03660031901126101d15782359260068410156101d4576102fa6107bd565b936103036107db565b916084359384151585036101d15760a4359067ffffffffffffffff82116101d157509161033c61018e9794926102519694369101610840565b93610345610957565b5060443591610c52565b5082346102cf5760803660031901126102cf573560068110156102cf5761018e926102519161037c6107bd565b6044356103876107db565b91610390610957565b50610399610820565b9485526103a4610957565b506103af8285610cf2565b93610c52565b5082346102cf5760603660031901126102cf573560068110156102cf5761018e92610251916103e26107bd565b604435906103ee610957565b506103f7610820565b938452610240610957565b5082346102cf57816003193601126102cf5780359260068410156101d1576024359067ffffffffffffffff82116101d15750926104486102519261018e95369101610840565b90610451610957565b5061045a610957565b5061046481610cda565b90610abd565b5082346102cf57816003193601126102cf573560068110156102cf5761018e9261025191602435610499610957565b506104a2610820565b9283526102ba610957565b61079c565b50346101d457816003193601126101d4579061018e916104d0610820565b918252519182916020835260208301906108a3565b50346101d457816003193601126101d45751908152602090f35b5082346102cf5760603660031901126102cf573560068110156102cf5761018e926102519160243561052f6107cc565b90610538610957565b50610541610820565b93845261054c610957565b506105578184610cf2565b92610a35565b5082346102cf5760203660031901126102cf573560068110156102cf5761018e926102519161058a610957565b50610593610820565b91825261045a610957565b5082346102cf5760803660031901126102cf573560068110156102cf5761018e92610251916105cb6107bd565b6105d36107cc565b916105dc610957565b506105e5610820565b93845260643590610a35565b50346101d45760803660031901126101d45782359160068310156101d1576106176107bd565b61061f6107cc565b6106276107db565b91610630610957565b50610639610820565b93808552610645610957565b5086158015806106d9575b806106d1575b6106c157806106ba575b806106b2575b6106a25761018e97506106776107ea565b9687526020870152151584860152151560608501521515608084015260a083015251918291826108e3565b8551637fb1693d60e01b81528890fd5b508315610666565b5080610660565b86516301972ecd60e11b81528990fd5b508415610656565b506001610650565b5082346102cf57816003193601126102cf573560068110156102cf5761018e926102519161070d6107bd565b610715610957565b5061071e610820565b928352610729610957565b5061073382610cda565b91610989565b5082346102cf5760603660031901126102cf5780359060068210156102cb576107606107bd565b936044359067ffffffffffffffff82116101d157509161078a61018e959261025194369101610840565b91610793610957565b50610729610957565b346107b85760003660031901126107b857602060405160008152f35b600080fd5b6024359081151582036107b857565b6044359081151582036107b857565b6064359081151582036107b857565b6040519060c0820182811067ffffffffffffffff82111761080a57604052565b634e487b7160e01b600052604160045260246000fd5b604051906020820182811067ffffffffffffffff82111761080a57604052565b81601f820112156107b85780359067ffffffffffffffff9283831161080a5760405193601f8401601f19908116603f011685019081118582101761080a57604052828452602083830101116107b857816000926020809301838601378301015290565b919082519283825260005b8481106108cf575050826000602080949584010152601f8019910116010190565b6020818301810151848301820152016108ae565b6020815281519160068310156109415760a060e09161093e94602085015260208101516040850152604081015115156060850152606081015115156080850152608081015115158285015201519160c08082015201906108a3565b90565b634e487b7160e01b600052602160045260246000fd5b61095f6107ea565b906000825260006020830152600060408301526000606083015260006080830152606060a0830152565b929190610994610957565b506006841015610941578315801580610a2d575b80610a25575b610a135780610a0b575b80610a03575b6109f1576109ca6107ea565b9384526000602085015215156040840152600060608401521515608083015260a082015290565b604051637fb1693d60e01b8152600490fd5b5081156109be565b5060006109b8565b6040516301972ecd60e11b8152600490fd5b5082156109ae565b5060016109a8565b93929190610a41610957565b506006851015610941578415801580610ab5575b80610aad575b610a135780610aa4575b80610a9c575b6109f157610a776107ea565b948552602085015260006040850152151560608401521515608083015260a082015290565b508215610a6b565b50801515610a65565b508315610a5b565b508115610a55565b9190610ac7610957565b506006831015610941578215801580610b3c575b80610b34575b610a135780610b2c575b80610b24575b6109f157610afd6107ea565b9283526000602084015260006040840152600060608401521515608083015260a082015290565b508015610af1565b506000610aeb565b508115610ae1565b506001610adb565b929190610b4f610957565b506006841015610941578315801580610bc3575b80610bbb575b610a135780610bb2575b80610baa575b6109f157610b856107ea565b938452602084015260006040840152600060608401521515608083015260a082015290565b508115610b79565b50801515610b73565b508215610b69565b508115610b63565b939291610bd6610957565b506006851015610941578415801580610c4a575b80610c42575b610a135780610c39575b80610c31575b6109f157610c0c6107ea565b948552602085015215156040840152600060608401521515608083015260a082015290565b508215610c00565b50801515610bfa565b508315610bf0565b508115610bea565b94939291610c5e610957565b506006861015610941578515801580610cd2575b80610cca575b610a135780610cc1575b80610cb9575b6109f157610c946107ea565b958652602086015215156040850152151560608401521515608083015260a082015290565b508315610c88565b50801515610c82565b508415610c78565b508115610c72565b60068110156109415715610ced57600190565b600090565b60068110156109415715610d0957610ced57600190565b5060009056fea2646970667358221220e4fdb3e63b9673ab9a074a3880d4f9838ff91a5ecbe71ab969b3d4930b1445c164736f6c63430008130033",
  "linkReferences": {},
  "deployedLinkReferences": {}
}