{
  "_format": "hh-sol-artifact-1",
  "contractName": "MecenatePay",
  "sourceName": "contracts/layer/MecenatePay.sol",
  "abi": [
    {
      "inputs": [
        {
          "internalType": "address",
          "name": "_usersContract",
          "type": "address"
        },
        {
          "internalType": "address",
          "name": "_treasury",
          "type": "address"
        }
      ],
      "stateMutability": "nonpayable",
      "type": "constructor"
    },
    {
      "anonymous": false,
      "inputs": [
        {
          "indexed": true,
          "internalType": "address",
          "name": "user",
          "type": "address"
        },
        {
          "indexed": false,
          "internalType": "bytes",
          "name": "pubKey",
          "type": "bytes"
        }
      ],
      "name": "KeySubmitted",
      "type": "event"
    },
    {
      "anonymous": false,
      "inputs": [
        {
          "indexed": true,
          "internalType": "address",
          "name": "previousOwner",
          "type": "address"
        },
        {
          "indexed": true,
          "internalType": "address",
          "name": "newOwner",
          "type": "address"
        }
      ],
      "name": "OwnershipTransferred",
      "type": "event"
    },
    {
      "inputs": [
        {
          "internalType": "bytes",
          "name": "",
          "type": "bytes"
        }
      ],
      "name": "encryptedKeys",
      "outputs": [
        {
          "internalType": "bytes",
          "name": "",
          "type": "bytes"
        }
      ],
      "stateMutability": "view",
      "type": "function"
    },
    {
      "inputs": [
        {
          "internalType": "bytes",
          "name": "pubKey",
          "type": "bytes"
        }
      ],
      "name": "getHash",
      "outputs": [
        {
          "internalType": "bytes",
          "name": "",
          "type": "bytes"
        }
      ],
      "stateMutability": "view",
      "type": "function"
    },
    {
      "inputs": [],
      "name": "owner",
      "outputs": [
        {
          "internalType": "address",
          "name": "",
          "type": "address"
        }
      ],
      "stateMutability": "view",
      "type": "function"
    },
    {
      "inputs": [],
      "name": "renounceOwnership",
      "outputs": [],
      "stateMutability": "nonpayable",
      "type": "function"
    },
    {
      "inputs": [
        {
          "internalType": "bytes",
          "name": "encryptedData",
          "type": "bytes"
        }
      ],
      "name": "submitHash",
      "outputs": [],
      "stateMutability": "payable",
      "type": "function"
    },
    {
      "inputs": [
        {
          "internalType": "address",
          "name": "newOwner",
          "type": "address"
        }
      ],
      "name": "transferOwnership",
      "outputs": [],
      "stateMutability": "nonpayable",
      "type": "function"
    },
    {
      "inputs": [],
      "name": "treasury",
      "outputs": [
        {
          "internalType": "address",
          "name": "",
          "type": "address"
        }
      ],
      "stateMutability": "view",
      "type": "function"
    },
    {
      "inputs": [
        {
          "internalType": "address",
          "name": "newUsersContract",
          "type": "address"
        }
      ],
      "name": "updateUsersContract",
      "outputs": [],
      "stateMutability": "nonpayable",
      "type": "function"
    },
    {
      "inputs": [],
      "name": "usersContract",
      "outputs": [
        {
          "internalType": "address",
          "name": "",
          "type": "address"
        }
      ],
      "stateMutability": "view",
      "type": "function"
    }
  ],
  "bytecode": "0x6080346100c357601f61097338819003918201601f19168301916001600160401b038311848410176100c85780849260409485528339810103126100c357610052602061004b836100de565b92016100de565b60008054336001600160a01b0319808316821784556040519590946001600160a01b03949093859391908416907f8be0079c531659141344cd1fd0a4f28419497f9722a3daafe3b4186f6b6457e09080a3168360025416176002551690600354161760035561088090816100f38239f35b600080fd5b634e487b7160e01b600052604160045260246000fd5b51906001600160a01b03821682036100c35756fe608060408181526004908136101561001657600080fd5b600092833560e01c908163142ebf3c14610597575080634b78896d14610153578063505da9e11461054e57806361d027b314610525578063715018a6146104c85780638da5cb5b146104a05780638f903c79146101a3578063b00140aa146101535763f2fde38b1461008757600080fd5b3461014f57602036600319011261014f576001600160a01b0382358181169391929084900361014b576100b86107ad565b83156100f957505082546001600160a01b0319811683178455167f8be0079c531659141344cd1fd0a4f28419497f9722a3daafe3b4186f6b6457e08380a380f35b906020608492519162461bcd60e51b8352820152602660248201527f4f776e61626c653a206e6577206f776e657220697320746865207a65726f206160448201526564647265737360d01b6064820152fd5b8480fd5b8280fd5b83823461019f5761019b90610190610181602061016f36610610565b8185519382858094519384920161067e565b810160018152030190206106db565b905191829182610781565b0390f35b5080fd5b5082906101af36610610565b908151820193602092828185880197031261014b57838101519567ffffffffffffffff9687811161049c5781866101e892850101610805565b918481015190888211610487576102029291018601610805565b9360018060a01b036003541684516391792d5b60e01b815282818681855afa908115610492578891610461575b50340361042c57868080809334905af13d15610427573d61024f816105f4565b9061025c875192836105bc565b815287833d92013e5b156103f257835191855161027c8185858a0161067e565b8301928281600195868152030190209381519889116103df57506102a084546106a1565b601f8111610399575b5081601f89116001146103165750968092819288997ef0a6069b4fee3a287b0f6e73983c9654d21d13810d914d14adc2393028cca498999461030b575b50501b916000199060031b1c19161790555b5180610305339482610781565b0390a280f35b0151925089806102e6565b909791601f198316988589528289209289905b8b8210610382575050837ef0a6069b4fee3a287b0f6e73983c9654d21d13810d914d14adc2393028cca498999a10610369575b505050811b0190556102f8565b015160001960f88460031b161c1916905587808061035c565b808785968294968601518155019501930190610329565b848852828820601f8a0160051c810191848b106103d5575b601f0160051c019084905b8281106103ca5750506102a9565b8981550184906103bc565b90915081906103b1565b634e487b7160e01b885260419052602487fd5b9050606492519162461bcd60e51b8352820152601060248201526f2a3930b739b332b9103330b4b632b21760811b6044820152fd5b610265565b845162461bcd60e51b8152808501839052600f60248201526e57726f6e67204665652056616c756560881b6044820152606490fd5b90508281813d831161048b575b61047881836105bc565b8101031261048757518961022f565b8780fd5b503d61046e565b86513d8a823e3d90fd5b8680fd5b83823461019f578160031936011261019f57905490516001600160a01b039091168152602090f35b83346105225780600319360112610522576104e16107ad565b80546001600160a01b03198116825581906001600160a01b03167f8be0079c531659141344cd1fd0a4f28419497f9722a3daafe3b4186f6b6457e08280a380f35b80fd5b83823461019f578160031936011261019f5760035490516001600160a01b039091168152602090f35b50503461019f57602036600319011261019f57356001600160a01b0381169081900361019f5761057c6107ad565b6bffffffffffffffffffffffff60a01b600254161760025580f35b84903461019f578160031936011261019f576002546001600160a01b03168152602090f35b90601f8019910116810190811067ffffffffffffffff8211176105de57604052565b634e487b7160e01b600052604160045260246000fd5b67ffffffffffffffff81116105de57601f01601f191660200190565b60206003198201126106795760043567ffffffffffffffff8111610679578160238201121561067957806004013590610648826105f4565b9261065660405194856105bc565b828452602483830101116106795781600092602460209301838601378301015290565b600080fd5b60005b8381106106915750506000910152565b8181015183820152602001610681565b90600182811c921680156106d1575b60208310146106bb57565b634e487b7160e01b600052602260045260246000fd5b91607f16916106b0565b90604051918260008254926106ef846106a1565b90818452600194858116908160001461075e575060011461071b575b5050610719925003836105bc565b565b9093915060005260209081600020936000915b8183106107465750506107199350820101388061070b565b8554888401850152948501948794509183019161072e565b91505061071994506020925060ff191682840152151560051b820101388061070b565b604091602082526107a1815180928160208601526020868601910161067e565b601f01601f1916010190565b6000546001600160a01b031633036107c157565b606460405162461bcd60e51b815260206004820152602060248201527f4f776e61626c653a2063616c6c6572206973206e6f7420746865206f776e65726044820152fd5b81601f8201121561067957805161081b816105f4565b9261082960405194856105bc565b8184526020828401011161067957610847916020808501910161067e565b9056fea2646970667358221220f78b7b6b1b741baccf5c7fbfb7077b29e8cb4921d3a69680200c1891845a08d764736f6c63430008130033",
  "linkReferences": {},
  "deployedLinkReferences": {}
}