{
  "_format": "hh-sol-artifact-1",
  "contractName": "MecenatePay",
  "sourceName": "contracts/layer/MecenatePay.sol",
  "abi": [
    {
      "inputs": [
        {
          "internalType": "address",
          "name": "_usersContract",
          "type": "address"
        },
        {
          "internalType": "address",
          "name": "_treasury",
          "type": "address"
        }
      ],
      "stateMutability": "nonpayable",
      "type": "constructor"
    },
    {
      "anonymous": false,
      "inputs": [
        {
          "indexed": true,
          "internalType": "address",
          "name": "user",
          "type": "address"
        },
        {
          "indexed": false,
          "internalType": "bytes",
          "name": "pubKey",
          "type": "bytes"
        }
      ],
      "name": "KeySubmitted",
      "type": "event"
    },
    {
      "anonymous": false,
      "inputs": [
        {
          "indexed": true,
          "internalType": "address",
          "name": "previousOwner",
          "type": "address"
        },
        {
          "indexed": true,
          "internalType": "address",
          "name": "newOwner",
          "type": "address"
        }
      ],
      "name": "OwnershipTransferred",
      "type": "event"
    },
    {
      "inputs": [
        {
          "internalType": "bytes",
          "name": "",
          "type": "bytes"
        }
      ],
      "name": "encryptedKeys",
      "outputs": [
        {
          "internalType": "bytes",
          "name": "",
          "type": "bytes"
        }
      ],
      "stateMutability": "view",
      "type": "function"
    },
    {
      "inputs": [
        {
          "internalType": "bytes",
          "name": "pubKey",
          "type": "bytes"
        }
      ],
      "name": "getHash",
      "outputs": [
        {
          "internalType": "bytes",
          "name": "",
          "type": "bytes"
        }
      ],
      "stateMutability": "view",
      "type": "function"
    },
    {
      "inputs": [],
      "name": "owner",
      "outputs": [
        {
          "internalType": "address",
          "name": "",
          "type": "address"
        }
      ],
      "stateMutability": "view",
      "type": "function"
    },
    {
      "inputs": [],
      "name": "renounceOwnership",
      "outputs": [],
      "stateMutability": "nonpayable",
      "type": "function"
    },
    {
      "inputs": [
        {
          "internalType": "address",
          "name": "_receiver",
          "type": "address"
        },
        {
          "internalType": "address",
          "name": "_token",
          "type": "address"
        },
        {
          "internalType": "uint256",
          "name": "amount",
          "type": "uint256"
        }
      ],
      "name": "sendERC20",
      "outputs": [],
      "stateMutability": "payable",
      "type": "function"
    },
    {
      "inputs": [
        {
          "internalType": "address payable",
          "name": "_receiver",
          "type": "address"
        }
      ],
      "name": "sendEth",
      "outputs": [
        {
          "internalType": "bool",
          "name": "",
          "type": "bool"
        }
      ],
      "stateMutability": "payable",
      "type": "function"
    },
    {
      "inputs": [
        {
          "internalType": "bytes",
          "name": "encryptedData",
          "type": "bytes"
        }
      ],
      "name": "submitHash",
      "outputs": [],
      "stateMutability": "payable",
      "type": "function"
    },
    {
      "inputs": [
        {
          "internalType": "address",
          "name": "newOwner",
          "type": "address"
        }
      ],
      "name": "transferOwnership",
      "outputs": [],
      "stateMutability": "nonpayable",
      "type": "function"
    },
    {
      "inputs": [],
      "name": "treasury",
      "outputs": [
        {
          "internalType": "address",
          "name": "",
          "type": "address"
        }
      ],
      "stateMutability": "view",
      "type": "function"
    },
    {
      "inputs": [
        {
          "internalType": "address",
          "name": "newUsersContract",
          "type": "address"
        }
      ],
      "name": "updateUsersContract",
      "outputs": [],
      "stateMutability": "nonpayable",
      "type": "function"
    },
    {
      "inputs": [],
      "name": "usersContract",
      "outputs": [
        {
          "internalType": "address",
          "name": "",
          "type": "address"
        }
      ],
      "stateMutability": "view",
      "type": "function"
    }
  ],
  "bytecode": "0x6080346100c357601f610ded38819003918201601f19168301916001600160401b038311848410176100c85780849260409485528339810103126100c357610052602061004b836100de565b92016100de565b60008054336001600160a01b0319808316821784556040519590946001600160a01b03949093859391908416907f8be0079c531659141344cd1fd0a4f28419497f9722a3daafe3b4186f6b6457e09080a31683600254161760025516906003541617600355610cfa90816100f38239f35b600080fd5b634e487b7160e01b600052604160045260246000fd5b51906001600160a01b03821682036100c35756fe6080604081815260048036101561001557600080fd5b600092833560e01c908163142ebf3c146108f7575080634b78896d14610161578063505da9e1146108b257806361d027b314610889578063715018a61461082c57806376a54c60146107485780638da5cb5b146107205780638f903c79146104615780638f975a64146101b9578063b00140aa146101615763f2fde38b1461009c57600080fd5b3461015d57602036600319011261015d576100b5610b06565b906100be610b1c565b6001600160a01b0391821692831561010b57505082546001600160a01b0319811683178455167f8be0079c531659141344cd1fd0a4f28419497f9722a3daafe3b4186f6b6457e08380a380f35b906020608492519162461bcd60e51b8352820152602660248201527f4f776e61626c653a206e6577206f776e657220697320746865207a65726f206160448201526564647265737360d01b6064820152fd5b8280fd5b5050346101b5576101b19061019e61018f602061017d36610970565b818551938285809451938492016109de565b81016001815203019020610a3b565b9051918291602083526020830190610ae1565b0390f35b5080fd5b5090606036600319011261015d576101cf610b06565b6024916001600160a01b0383358181169081900361045d5760443591835194636eb1769f60e11b8652338887015230878701526020958681604481875afa9081156103e9579085918b9161042c575b50106103f357878683600354168751928380926391792d5b60e01b82525afa80156103e9578a906103b6575b61025691503411610bb9565b16878034156103ad575b81808092853491f1156103a357835192858401916323b872dd60e01b83523388860152604485015260648401526064835260a083019267ffffffffffffffff818510818611176103915760e08201908111858210176103915785528584527f5361666545524332303a206c6f772d6c6576656c2063616c6c206661696c656460c0820152516103019392918991829182855af16102fb610bf7565b91610c27565b805183811591821561036d575b505090501561031b578480f35b5162461bcd60e51b815292830152602a908201527f5361666545524332303a204552433230206f7065726174696f6e20646964206e6044820152691bdd081cdd58d8d9595960b21b6064820152608490fd5b838092935001031261038d57820151801515810361038d5780833861030e565b8580fd5b634e487b7160e01b8a5260418952878afd5b83513d89823e3d90fd5b506108fc610260565b508681813d83116103e2575b6103cc818361091c565b810103126103de57610256905161024a565b8980fd5b503d6103c2565b86513d8c823e3d90fd5b845162461bcd60e51b8152808901879052601481890152734e6f7420656e6f75676820616c6c6f77616e636560601b6044820152606490fd5b809250888092503d8311610456575b610445818361091c565b810103126103de578490513861021e565b503d61043b565b8680fd5b50829061046d36610970565b8051810193602092818385880197031261071c57838301519567ffffffffffffffff9687811161045d5781866104a592870101610b74565b938381015190888211610707576104bf9291018601610b74565b9260018060a01b036003541683516391792d5b60e01b815286818581855afa9081156107125790889182916106dd575b508180936104ff82933414610bb9565b34905af161050b610bf7565b50156106a857825190845161052381848989016109de565b82019186816001948581520301902092815198891161069557506105478354610a01565b601f811161064f575b508590601f89116001146105c75797806105b69695949381938a9b7ef0a6069b4fee3a287b0f6e73983c9654d21d13810d914d14adc2393028cca49a9b946105bc575b50501b916000199060031b1c19161790555b519182918583523395830190610ae1565b0390a280f35b015192508b80610593565b838852868820989190601f198316895b81811061063a5750917ef0a6069b4fee3a287b0f6e73983c9654d21d13810d914d14adc2393028cca498999a91846105b699989796959410610621575b505050811b0190556105a5565b015160001960f88460031b161c19169055898080610614565b838301518c559a85019a9289019289016105d7565b838852868820601f8a0160051c810191888b1061068b575b601f0160051c019083905b828110610680575050610550565b898155018390610672565b9091508190610667565b634e487b7160e01b885260419052602487fd5b5083606492519162461bcd60e51b8352820152601060248201526f2a3930b739b332b9103330b4b632b21760811b6044820152fd5b809250888092503d831161070b575b6106f6818361091c565b8101031261070757518790816104ef565b8780fd5b503d6106ec565b85513d8a823e3d90fd5b8480fd5b5050346101b557816003193601126101b557905490516001600160a01b039091168152602090f35b5091602092836003193601126101b55780356001600160a01b038181169182900361081757858391600354168651928380926391792d5b60e01b82525afa9081156108225784916107f1575b506107a0813411610bb9565b803403923484116107de575083809381938293839034146107d5575bf1156107ca57505160018152f35b9051903d90823e3d90fd5b506108fc6107bc565b634e487b7160e01b855260119052602484fd5b90508581813d831161081b575b610808818361091c565b81010312610817575138610794565b8380fd5b503d6107fe565b85513d86823e3d90fd5b8334610886578060031936011261088657610845610b1c565b80546001600160a01b03198116825581906001600160a01b03167f8be0079c531659141344cd1fd0a4f28419497f9722a3daafe3b4186f6b6457e08280a380f35b80fd5b5050346101b557816003193601126101b55760035490516001600160a01b039091168152602090f35b8334610886576020366003190112610886576108cc610b06565b6108d4610b1c565b60018060a01b03166bffffffffffffffffffffffff60a01b600254161760025580f35b8490346101b557816003193601126101b5576002546001600160a01b03168152602090f35b90601f8019910116810190811067ffffffffffffffff82111761093e57604052565b634e487b7160e01b600052604160045260246000fd5b67ffffffffffffffff811161093e57601f01601f191660200190565b60206003198201126109d95760043567ffffffffffffffff81116109d957816023820112156109d9578060040135906109a882610954565b926109b6604051948561091c565b828452602483830101116109d95781600092602460209301838601378301015290565b600080fd5b60005b8381106109f15750506000910152565b81810151838201526020016109e1565b90600182811c92168015610a31575b6020831014610a1b57565b634e487b7160e01b600052602260045260246000fd5b91607f1691610a10565b9060405191826000825492610a4f84610a01565b908184526001948581169081600014610abe5750600114610a7b575b5050610a799250038361091c565b565b9093915060005260209081600020936000915b818310610aa6575050610a7993508201013880610a6b565b85548884018501529485019487945091830191610a8e565b915050610a7994506020925060ff191682840152151560051b8201013880610a6b565b90602091610afa815180928185528580860191016109de565b601f01601f1916010190565b600435906001600160a01b03821682036109d957565b6000546001600160a01b03163303610b3057565b606460405162461bcd60e51b815260206004820152602060248201527f4f776e61626c653a2063616c6c6572206973206e6f7420746865206f776e65726044820152fd5b81601f820112156109d9578051610b8a81610954565b92610b98604051948561091c565b818452602082840101116109d957610bb691602080850191016109de565b90565b15610bc057565b60405162461bcd60e51b815260206004820152600f60248201526e57726f6e67204665652056616c756560881b6044820152606490fd5b3d15610c22573d90610c0882610954565b91610c16604051938461091c565b82523d6000602084013e565b606090565b91929015610c895750815115610c3b575090565b3b15610c445790565b60405162461bcd60e51b815260206004820152601d60248201527f416464726573733a2063616c6c20746f206e6f6e2d636f6e74726163740000006044820152606490fd5b825190915015610c9c5750805190602001fd5b60405162461bcd60e51b815260206004820152908190610cc0906024830190610ae1565b0390fdfea264697066735822122081d53e1afdafbb9dfa3f0621b03f1df8b6ec55f7966c95a08b1f20581415ebac64736f6c63430008130033",
  "linkReferences": {},
  "deployedLinkReferences": {}
}