{
  "_format": "hh-sol-artifact-1",
  "contractName": "MecenateBay",
  "sourceName": "contracts/sismo-zkp/layer/MecenateBay.sol",
  "abi": [
    {
      "inputs": [
        {
          "internalType": "address",
          "name": "_usersMouduleContract",
          "type": "address"
        },
        {
          "internalType": "address",
          "name": "_verifierContract",
          "type": "address"
        }
      ],
      "stateMutability": "nonpayable",
      "type": "constructor"
    },
    {
      "anonymous": false,
      "inputs": [
        {
          "indexed": true,
          "internalType": "address",
          "name": "previousOwner",
          "type": "address"
        },
        {
          "indexed": true,
          "internalType": "address",
          "name": "newOwner",
          "type": "address"
        }
      ],
      "name": "OwnershipTransferred",
      "type": "event"
    },
    {
      "anonymous": false,
      "inputs": [
        {
          "indexed": true,
          "internalType": "bytes32",
          "name": "user",
          "type": "bytes32"
        },
        {
          "components": [
            {
              "internalType": "bytes32",
              "name": "request",
              "type": "bytes32"
            },
            {
              "internalType": "uint256",
              "name": "payment",
              "type": "uint256"
            },
            {
              "internalType": "uint256",
              "name": "stake",
              "type": "uint256"
            },
            {
              "internalType": "address",
              "name": "postAddress",
              "type": "address"
            },
            {
              "internalType": "bool",
              "name": "accepted",
              "type": "bool"
            },
            {
              "internalType": "uint256",
              "name": "postCount",
              "type": "uint256"
            },
            {
              "internalType": "enum Structures.Tokens",
              "name": "tokenId",
              "type": "uint8"
            }
          ],
          "indexed": false,
          "internalType": "struct Structures.BayRequest",
          "name": "",
          "type": "tuple"
        },
        {
          "indexed": true,
          "internalType": "uint256",
          "name": "index",
          "type": "uint256"
        }
      ],
      "name": "RequestAccepted",
      "type": "event"
    },
    {
      "anonymous": false,
      "inputs": [
        {
          "indexed": true,
          "internalType": "bytes32",
          "name": "user",
          "type": "bytes32"
        },
        {
          "components": [
            {
              "internalType": "bytes32",
              "name": "request",
              "type": "bytes32"
            },
            {
              "internalType": "uint256",
              "name": "payment",
              "type": "uint256"
            },
            {
              "internalType": "uint256",
              "name": "stake",
              "type": "uint256"
            },
            {
              "internalType": "address",
              "name": "postAddress",
              "type": "address"
            },
            {
              "internalType": "bool",
              "name": "accepted",
              "type": "bool"
            },
            {
              "internalType": "uint256",
              "name": "postCount",
              "type": "uint256"
            },
            {
              "internalType": "enum Structures.Tokens",
              "name": "tokenId",
              "type": "uint8"
            }
          ],
          "indexed": false,
          "internalType": "struct Structures.BayRequest",
          "name": "",
          "type": "tuple"
        },
        {
          "indexed": true,
          "internalType": "uint256",
          "name": "index",
          "type": "uint256"
        }
      ],
      "name": "RequestCreated",
      "type": "event"
    },
    {
      "inputs": [
        {
          "internalType": "uint256",
          "name": "index",
          "type": "uint256"
        },
        {
          "internalType": "address",
          "name": "_feed",
          "type": "address"
        },
        {
          "internalType": "bytes",
          "name": "sismoConnectResponse",
          "type": "bytes"
        },
        {
          "internalType": "address",
          "name": "_to",
          "type": "address"
        },
        {
          "internalType": "address",
          "name": "_from",
          "type": "address"
        }
      ],
      "name": "acceptRequest",
      "outputs": [],
      "stateMutability": "nonpayable",
      "type": "function"
    },
    {
      "inputs": [
        {
          "internalType": "uint256",
          "name": "",
          "type": "uint256"
        }
      ],
      "name": "allRequests",
      "outputs": [
        {
          "internalType": "bytes32",
          "name": "request",
          "type": "bytes32"
        },
        {
          "internalType": "uint256",
          "name": "payment",
          "type": "uint256"
        },
        {
          "internalType": "uint256",
          "name": "stake",
          "type": "uint256"
        },
        {
          "internalType": "address",
          "name": "postAddress",
          "type": "address"
        },
        {
          "internalType": "bool",
          "name": "accepted",
          "type": "bool"
        },
        {
          "internalType": "uint256",
          "name": "postCount",
          "type": "uint256"
        },
        {
          "internalType": "enum Structures.Tokens",
          "name": "tokenId",
          "type": "uint8"
        }
      ],
      "stateMutability": "view",
      "type": "function"
    },
    {
      "inputs": [
        {
          "internalType": "uint256",
          "name": "",
          "type": "uint256"
        }
      ],
      "name": "allRequestsPrivate",
      "outputs": [
        {
          "internalType": "bytes",
          "name": "vaultIdSeller",
          "type": "bytes"
        },
        {
          "internalType": "bytes",
          "name": "sellerResponse",
          "type": "bytes"
        },
        {
          "internalType": "bytes",
          "name": "vaultIdBuyer",
          "type": "bytes"
        },
        {
          "internalType": "bytes",
          "name": "buyerResponse",
          "type": "bytes"
        },
        {
          "internalType": "address",
          "name": "buyerTo",
          "type": "address"
        },
        {
          "internalType": "address",
          "name": "buyerFrom",
          "type": "address"
        }
      ],
      "stateMutability": "view",
      "type": "function"
    },
    {
      "inputs": [
        {
          "internalType": "address",
          "name": "_daiToken",
          "type": "address"
        }
      ],
      "name": "changeDaiToken",
      "outputs": [],
      "stateMutability": "nonpayable",
      "type": "function"
    },
    {
      "inputs": [
        {
          "internalType": "address",
          "name": "_museToken",
          "type": "address"
        }
      ],
      "name": "changeMuseToken",
      "outputs": [],
      "stateMutability": "nonpayable",
      "type": "function"
    },
    {
      "inputs": [
        {
          "internalType": "address",
          "name": "_usersModule",
          "type": "address"
        }
      ],
      "name": "changeUsersModule",
      "outputs": [],
      "stateMutability": "nonpayable",
      "type": "function"
    },
    {
      "inputs": [
        {
          "internalType": "address",
          "name": "_verifier",
          "type": "address"
        }
      ],
      "name": "changeVerifier",
      "outputs": [],
      "stateMutability": "nonpayable",
      "type": "function"
    },
    {
      "inputs": [],
      "name": "contractCounter",
      "outputs": [
        {
          "internalType": "uint256",
          "name": "",
          "type": "uint256"
        }
      ],
      "stateMutability": "view",
      "type": "function"
    },
    {
      "inputs": [
        {
          "components": [
            {
              "internalType": "bytes32",
              "name": "request",
              "type": "bytes32"
            },
            {
              "internalType": "uint256",
              "name": "payment",
              "type": "uint256"
            },
            {
              "internalType": "uint256",
              "name": "stake",
              "type": "uint256"
            },
            {
              "internalType": "address",
              "name": "postAddress",
              "type": "address"
            },
            {
              "internalType": "bool",
              "name": "accepted",
              "type": "bool"
            },
            {
              "internalType": "uint256",
              "name": "postCount",
              "type": "uint256"
            },
            {
              "internalType": "enum Structures.Tokens",
              "name": "tokenId",
              "type": "uint8"
            }
          ],
          "internalType": "struct Structures.BayRequest",
          "name": "request",
          "type": "tuple"
        },
        {
          "internalType": "bytes",
          "name": "sismoConnectResponse",
          "type": "bytes"
        },
        {
          "internalType": "address",
          "name": "_to",
          "type": "address"
        },
        {
          "internalType": "address",
          "name": "_from",
          "type": "address"
        }
      ],
      "name": "createRequest",
      "outputs": [
        {
          "components": [
            {
              "internalType": "bytes32",
              "name": "request",
              "type": "bytes32"
            },
            {
              "internalType": "uint256",
              "name": "payment",
              "type": "uint256"
            },
            {
              "internalType": "uint256",
              "name": "stake",
              "type": "uint256"
            },
            {
              "internalType": "address",
              "name": "postAddress",
              "type": "address"
            },
            {
              "internalType": "bool",
              "name": "accepted",
              "type": "bool"
            },
            {
              "internalType": "uint256",
              "name": "postCount",
              "type": "uint256"
            },
            {
              "internalType": "enum Structures.Tokens",
              "name": "tokenId",
              "type": "uint8"
            }
          ],
          "internalType": "struct Structures.BayRequest",
          "name": "",
          "type": "tuple"
        }
      ],
      "stateMutability": "payable",
      "type": "function"
    },
    {
      "inputs": [],
      "name": "daiToken",
      "outputs": [
        {
          "internalType": "address",
          "name": "",
          "type": "address"
        }
      ],
      "stateMutability": "view",
      "type": "function"
    },
    {
      "inputs": [
        {
          "internalType": "bytes32",
          "name": "_user",
          "type": "bytes32"
        }
      ],
      "name": "getRequestForAddress",
      "outputs": [
        {
          "components": [
            {
              "internalType": "bytes32",
              "name": "request",
              "type": "bytes32"
            },
            {
              "internalType": "uint256",
              "name": "payment",
              "type": "uint256"
            },
            {
              "internalType": "uint256",
              "name": "stake",
              "type": "uint256"
            },
            {
              "internalType": "address",
              "name": "postAddress",
              "type": "address"
            },
            {
              "internalType": "bool",
              "name": "accepted",
              "type": "bool"
            },
            {
              "internalType": "uint256",
              "name": "postCount",
              "type": "uint256"
            },
            {
              "internalType": "enum Structures.Tokens",
              "name": "tokenId",
              "type": "uint8"
            }
          ],
          "internalType": "struct Structures.BayRequest[]",
          "name": "",
          "type": "tuple[]"
        }
      ],
      "stateMutability": "view",
      "type": "function"
    },
    {
      "inputs": [],
      "name": "getRequests",
      "outputs": [
        {
          "components": [
            {
              "internalType": "bytes32",
              "name": "request",
              "type": "bytes32"
            },
            {
              "internalType": "uint256",
              "name": "payment",
              "type": "uint256"
            },
            {
              "internalType": "uint256",
              "name": "stake",
              "type": "uint256"
            },
            {
              "internalType": "address",
              "name": "postAddress",
              "type": "address"
            },
            {
              "internalType": "bool",
              "name": "accepted",
              "type": "bool"
            },
            {
              "internalType": "uint256",
              "name": "postCount",
              "type": "uint256"
            },
            {
              "internalType": "enum Structures.Tokens",
              "name": "tokenId",
              "type": "uint8"
            }
          ],
          "internalType": "struct Structures.BayRequest[]",
          "name": "",
          "type": "tuple[]"
        }
      ],
      "stateMutability": "view",
      "type": "function"
    },
    {
      "inputs": [],
      "name": "museToken",
      "outputs": [
        {
          "internalType": "address",
          "name": "",
          "type": "address"
        }
      ],
      "stateMutability": "view",
      "type": "function"
    },
    {
      "inputs": [],
      "name": "owner",
      "outputs": [
        {
          "internalType": "address",
          "name": "",
          "type": "address"
        }
      ],
      "stateMutability": "view",
      "type": "function"
    },
    {
      "inputs": [
        {
          "internalType": "uint256",
          "name": "index",
          "type": "uint256"
        },
        {
          "internalType": "bytes",
          "name": "sismoConnectResponse",
          "type": "bytes"
        },
        {
          "internalType": "address",
          "name": "_to",
          "type": "address"
        },
        {
          "internalType": "address",
          "name": "_from",
          "type": "address"
        }
      ],
      "name": "removeRequest",
      "outputs": [],
      "stateMutability": "nonpayable",
      "type": "function"
    },
    {
      "inputs": [],
      "name": "renounceOwnership",
      "outputs": [],
      "stateMutability": "nonpayable",
      "type": "function"
    },
    {
      "inputs": [
        {
          "internalType": "bytes32",
          "name": "",
          "type": "bytes32"
        },
        {
          "internalType": "uint256",
          "name": "",
          "type": "uint256"
        }
      ],
      "name": "requests",
      "outputs": [
        {
          "internalType": "bytes32",
          "name": "request",
          "type": "bytes32"
        },
        {
          "internalType": "uint256",
          "name": "payment",
          "type": "uint256"
        },
        {
          "internalType": "uint256",
          "name": "stake",
          "type": "uint256"
        },
        {
          "internalType": "address",
          "name": "postAddress",
          "type": "address"
        },
        {
          "internalType": "bool",
          "name": "accepted",
          "type": "bool"
        },
        {
          "internalType": "uint256",
          "name": "postCount",
          "type": "uint256"
        },
        {
          "internalType": "enum Structures.Tokens",
          "name": "tokenId",
          "type": "uint8"
        }
      ],
      "stateMutability": "view",
      "type": "function"
    },
    {
      "inputs": [
        {
          "internalType": "address",
          "name": "newOwner",
          "type": "address"
        }
      ],
      "name": "transferOwnership",
      "outputs": [],
      "stateMutability": "nonpayable",
      "type": "function"
    },
    {
      "inputs": [],
      "name": "usersMouduleContract",
      "outputs": [
        {
          "internalType": "address",
          "name": "",
          "type": "address"
        }
      ],
      "stateMutability": "view",
      "type": "function"
    },
    {
      "inputs": [],
      "name": "verifierContract",
      "outputs": [
        {
          "internalType": "address",
          "name": "",
          "type": "address"
        }
      ],
      "stateMutability": "view",
      "type": "function"
    },
    {
      "stateMutability": "payable",
      "type": "receive"
    }
  ],
  "bytecode": "0x608034620000cc57601f620030a338819003918201601f19168301916001600160401b03831184841017620000d1578084926040948552833981010312620000cc576200005a60206200005283620000e7565b9201620000e7565b60008054336001600160a01b0319808316821784556040519590946001600160a01b03949093859391908416907f8be0079c531659141344cd1fd0a4f28419497f9722a3daafe3b4186f6b6457e09080a31683600354161760035516906004541617600455612fa69081620000fd8239f35b600080fd5b634e487b7160e01b600052604160045260246000fd5b51906001600160a01b0382168203620000cc5756fe608080604052600436101561001d575b50361561001b57600080fd5b005b600090813560e01c908163067bd3b414612371575080630f3cd88814612331578063342a00c214611a995780636b47a4b114611592578063715018a6146115385780638416e3041461147157806386ce3dd7146105455780638813ce121461049c5780638da5cb5b146104755780639655e6d81461043b5780639bf4ec2f146103d15780639c673fe514610391578063a357427d146102ee578063b0413770146102c5578063be22f5461461029c578063c4bb77d01461025c578063cf04fb941461021c578063cf695688146101f3578063f2fde38b1461012d5763f77800e50361000f573461012a578060031936011261012a576005546040516001600160a01b039091168152602090f35b80fd5b503461012a57602036600319011261012a5761014761238d565b61014f612788565b6001600160a01b0390811690811561019f57600054826001600160601b0360a01b821617600055167f8be0079c531659141344cd1fd0a4f28419497f9722a3daafe3b4186f6b6457e0600080a380f35b60405162461bcd60e51b815260206004820152602660248201527f4f776e61626c653a206e6577206f776e657220697320746865207a65726f206160448201526564647265737360d01b6064820152608490fd5b503461012a578060031936011261012a576004546040516001600160a01b039091168152602090f35b503461012a57602036600319011261012a5761023661238d565b61023e612788565b60018060a01b03166001600160601b0360a01b600454161760045580f35b503461012a57602036600319011261012a5761027661238d565b61027e612788565b60018060a01b03166001600160601b0360a01b600354161760035580f35b503461012a578060031936011261012a576006546040516001600160a01b039091168152602090f35b503461012a578060031936011261012a576003546040516001600160a01b039091168152602090f35b503461012a5760208060031936011261038d5760043582526007815260408220918254906001600160401b038211610379579260405192610334818460051b0185612438565b82845280840191855280852094915b83831061035c57604051806103588782612700565b0390f35b60068260019261036b89612ce6565b815201960192019194610343565b634e487b7160e01b81526041600452602490fd5b5080fd5b503461012a57602036600319011261012a576103ab61238d565b6103b3612788565b60018060a01b03166001600160601b0360a01b600654161760065580f35b503461012a57602036600319011261012a5760043560015481101561038d576103f990612583565b508054610358600183015491600284015493600381015460ff60056004840154930154169260405196879660ff8460a01c169360018060a01b03169288612748565b503461012a57604036600319011261012a5760243560043582526007602052604082208054821015610471576103f992506125be565b8280fd5b503461012a578060031936011261012a57546040516001600160a01b039091168152602090f35b503461012a578060031936011261012a5760019081546001600160401b038111610531576040519160206104d5818460051b0185612438565b8284528482527fb10e2d527612073b26eecdfd717e6a320cf44b4afac2b0732d9fcbe2b7fa0cf68185015b84841061051557604051806103588882612700565b600683889261052385612ce6565b815201920193019290610500565b634e487b7160e01b82526041600452602482fd5b503461012a5760a036600319011261012a576024356001600160a01b038116810361038d576044356001600160401b03811161047157610589903690600401612474565b906105926123a8565b6084356001600160a01b038116810361146d576105af9184612c01565b50509182516020840120926105c2612f0d565b506105cb612f0d565b6001600160a01b038416808252604051638da5cb5b60e01b815291939190602090829060049082905afa90811561116c57879161143b575b50602084810191909152604051635c63ed6960e01b815290816004816001600160a01b0389165afa90811561116c578791611409575b5060408481019190915251634c38d87760e01b81526020816004816001600160a01b0389165afa90811561116c5787916113d7575b50606084015260405163048bf3bb60e11b81526020816004816001600160a01b0389165afa90811561116c5787916113a5575b506080840152604051630bc8361760e11b81526020816004816001600160a01b0389165afa90811561116c578791611373575b5060a084015260405163d24e0c8760e01b81526020816004816001600160a01b0389165afa90811561116c578791611341575b5060c084015260405163faeb5e1760e01b81526020816004816001600160a01b0389165afa90811561116c57879161130f575b5060e08401526040516302734eab60e51b81526020816004816001600160a01b0389165afa90811561116c5787916112d4575b5060088110156112c05761010084015260405163010a38f560e01b81526020816004816001600160a01b0389165afa801561116c57879061127f575b6107b891506101208501612cda565b60405163054fd4d560e41b815286816004816001600160a01b0389165afa90811561116c57879161121f575b5061014084015260016107f8600435612583565b50015460c0840151116111ca5760e08301516002610817600435612583565b5001541161117757600354604051630e2ab4cb60e21b81526004810187905290602090829060249082906001600160a01b03165afa90811561116c57879161114d575b50156111085761086b600435612532565b506108e0600361087c600435612532565b506108d5600261088d600435612532565b506004908101546001600160a01b031696906108a99035612532565b5060050154604051996001600160a01b0390911698906108c88b6123ef565b8a5260208a015201612614565b604087015201612614565b6060840152608083015260a0820152600254600160401b8110156110f45780600161090e9201600255612532565b6110e05781518051906001600160401b038211610f6457819061093b8261093586546125da565b86612893565b602090601f831160011461107757899261106c575b50508160011b916000199060031b1c19161781555b60208201518051906001600160401b038211610f645781906109978261098e60018701546125da565b60018701612893565b602090601f8311600114610ffd578992610ff2575b50508160011b916000199060031b1c19161760018201555b60408201518051906001600160401b038211610f645781906109f6826109ed60028701546125da565b60028701612893565b602090601f8311600114610f83578992610f78575b50508160011b916000199060031b1c19161760028201555b60608201518051906001600160401b038211610f6457610a5382610a4a60038601546125da565b60038601612893565b602090601f8311600114610ef4576005939291899183610ee9575b50508160011b916000199060031b1c19161760038201555b6004810160018060a01b036080850151166001600160601b0360a01b825416179055019060a0600180821b03910151166001600160601b0360a01b82541617905560ff6005610ad6600435612583565b500154166003811015610deb5715610dff5760ff6005610af7600435612583565b500154166003811015610deb57600203610d72576006548490602090610b5a906001600160a01b03166001610b2d600435612583565b50015460405163095ea7b360e01b8152336004820152602481019190915293849283919082906044820190565b03925af18015610d6757610d38575b505b83610b77600435612532565b50610b83600435612532565b506004908101546001600160a01b03169190610b9f9035612532565b506005908101546001600160a01b0316919060ff90610bbf600435612583565b50015416906001610bd1600435612583565b500154926001600160a01b0388163b15610d34578593600393610c0a92604051978896879663ca234e1560e01b88520160048701612afa565b0381836001600160a01b0389165af18015610d2957610d11575b505060a0915b6003610c37600435612583565b50016001841b60ff851b198254161790556003610c55600435612583565b500190600180851b03166001600160601b03841b82541617905501516004610c7d8135612583565b500155610c8b600435612583565b5090610ce660ff60056040519480548652600181015460208701526002810154604087015282600382015460018060a01b038116606089015260a01c1615156080870152600481015460a087015201541660c08401906124bb565b7f83c2cca80e93944a5016ae3e3f51bd5e9275d6459dfdbfdad3fe85d918d92f3360e060043593a380f35b610d1a9061240a565b610d25578338610c24565b8380fd5b6040513d84823e3d90fd5b8580fd5b610d599060203d602011610d60575b610d518183612438565b81019061282c565b5038610b69565b503d610d47565b6040513d87823e3d90fd5b60ff6005610d81600435612583565b500154166003811015610deb57600103610b6b576005548490602090610db7906001600160a01b03166001610b2d600435612583565b03925af18015610d6757610dcc575b50610b6b565b610de49060203d602011610d6057610d518183612438565b5038610dc6565b634e487b7160e01b85526021600452602485fd5b906001610e0d600435612583565b50015484610e1c600435612532565b5091610e29600435612532565b506004908101546001600160a01b03169190610e459035612532565b506005908101546001600160a01b0316949060ff90610e65600435612583565b50015416906001610e77600435612583565b500154916001600160a01b0388163b15610d3457600392610eb0916040519889978896879663ca234e1560e01b88520160048701612afa565b03916001600160a01b0387165af18015610d6757610ed3575b509060a091610c2a565b93610ee160a093929561240a565b939091610ec9565b015190503880610a6e565b906003840189526020892091895b601f1985168110610f4c575091839160019360059695601f19811610610f33575b505050811b016003820155610a86565b015160001960f88460031b161c19169055388080610f23565b91926020600181928685015181550194019201610f02565b634e487b7160e01b88526041600452602488fd5b015190503880610a0b565b9250600284018952602089209089935b601f1984168510610fd7576001945083601f19811610610fbe575b505050811b016002820155610a23565b015160001960f88460031b161c19169055388080610fae565b81810151835560209485019460019093019290910190610f93565b0151905038806109ac565b9250600184018952602089209089935b601f1984168510611051576001945083601f19811610611038575b505050811b0160018201556109c4565b015160001960f88460031b161c19169055388080611028565b8181015183556020948501946001909301929091019061100d565b015190503880610950565b9250838952602089209089935b601f19841685106110c5576001945083601f198116106110ac575b505050811b018155610965565b015160001960f88460031b161c1916905538808061109f565b81810151835560209485019460019093019290910190611084565b634e487b7160e01b86526004869052602486fd5b634e487b7160e01b86526041600452602486fd5b60405162461bcd60e51b815260206004820152601760248201527f4241593a7573657220646f6573206e6f742065786973740000000000000000006044820152606490fd5b611166915060203d602011610d6057610d518183612438565b3861085a565b6040513d89823e3d90fd5b60405162461bcd60e51b815260206004820152602560248201527f4241593a7374616b65206973206e6f74207468652073616d65206f6620746865604482015264081999595960da1b6064820152608490fd5b60405162461bcd60e51b815260206004820152602760248201527f4241593a7061796d656e74206973206e6f74207468652073616d65206f6620746044820152661a19481999595960ca1b6064820152608490fd5b3d91508188823e6112308282612438565b602081838101031261127b578051906001600160401b03821161127757828101601f8383010112156112775760206112719382019280830151920101612bcc565b386107e4565b8880fd5b8780fd5b506020813d6020116112b8575b8161129960209383612438565b810103126112b4575160038110156112b4576107b8906107a9565b8680fd5b3d915061128c565b634e487b7160e01b87526021600452602487fd5b90506020813d602011611307575b816112ef60209383612438565b810103126112b4575160088110156112b4573861076d565b3d91506112e2565b90506020813d602011611339575b8161132a60209383612438565b810103126112b457513861073a565b3d915061131d565b90506020813d60201161136b575b8161135c60209383612438565b810103126112b4575138610707565b3d915061134f565b90506020813d60201161139d575b8161138e60209383612438565b810103126112b45751386106d4565b3d9150611381565b90506020813d6020116113cf575b816113c060209383612438565b810103126112b45751386106a1565b3d91506113b3565b90506020813d602011611401575b816113f260209383612438565b810103126112b457513861066e565b3d91506113e5565b90506020813d602011611433575b8161142460209383612438565b810103126112b4575138610639565b3d9150611417565b90506020813d602011611465575b8161145660209383612438565b810103126112b4575138610603565b3d9150611449565b8480fd5b503461012a57602036600319011261012a576004359060025482101561012a576114ff61149d83612532565b506114a781612614565b906114b460018201612614565b6115296114c360028401612614565b61151b6114d260038601612614565b9161150d60018060a01b0360058160048a0154169801541695604051998a9960c08b5260c08b01906126db565b9089820360208b01526126db565b9087820360408901526126db565b9085820360608701526126db565b91608084015260a08301520390f35b503461012a578060031936011261012a57611551612788565b80546001600160a01b03198116825581906001600160a01b03167f8be0079c531659141344cd1fd0a4f28419497f9722a3daafe3b4186f6b6457e08280a380f35b503461012a57608036600319011261012a576004356024356001600160401b038111610471576115c6903690600401612474565b6044356001600160a01b0381169182820361146d576115ed916115e76123a8565b91612c01565b5050602081519101209161160c600261160583612532565b5001612614565b602081519101208303611a545760ff600361162683612583565b50015460a01c16611a0f578380808061164761164186612583565b50612ce6565b956020870151905af1611658612a2d565b50156119d2576001546000198101908111611849578082106119b6575b5060015480156119a2576000190161168c81612583565b6110e057600581878093558260018201558260028201558260038201558260048201550155600155600254600019810190811161184957808210611909575b505060025480156118f5576116e36000198201612532565b6118e1576005816116f48793612ec4565b61170060018201612ec4565b61170c60028201612ec4565b61171860038201612ec4565b826004820155015560001901600255825b8284526007806020526040852080548310156118d95761174b836001926125be565b500154602084015114806118b4575b80611882575b8061185d575b6117795750611774906128d8565b611729565b92809250845282602052604084205490600019820191821161184957818110611810575b5050825260205260408120805480156117fc5760001901906117bf82826125be565b6117e8576005818580935582600182015582600282015582600382015582600482015501555580f35b634e487b7160e01b84526004849052602484fd5b634e487b7160e01b83526031600452602483fd5b61183c61182a6118429385885286602052604088206125be565b509184875285602052604087206125be565b90612d49565b388061179d565b634e487b7160e01b85526011600452602485fd5b5083855280602052600461187483604088206125be565b50015460a084015114611766565b508385528060205261189782604087206125be565b506003015460608401516001600160a01b03908116911614611760565b508385528060205260026118cb83604088206125be565b50015460408401511461175a565b505050505080f35b634e487b7160e01b85526004859052602485fd5b634e487b7160e01b84526031600452602484fd5b61191561191c91612532565b5091612532565b6118e1578082146116cb576119318282612dec565b6119416001830160018301612dec565b6119516002830160028301612dec565b6119616003830160038301612dec565b60048281015490820180546001600160a01b03199081166001600160a01b0393841617909155600593840154929093018054909316911617905538806116cb565b634e487b7160e01b85526031600452602485fd5b6119c26119cc91612583565b5061183c83612583565b38611675565b60405162461bcd60e51b81526020600482015260156024820152741090564e95985d5b1d0818d85b1b0819985a5b1959605a1b6044820152606490fd5b60405162461bcd60e51b815260206004820152601f60248201527f4241593a7265717565737420697320616c7265616479206163636570746564006044820152606490fd5b60405162461bcd60e51b815260206004820152601960248201527f4241593a796f7520617265206e6f7420746865206275796572000000000000006044820152606490fd5b503660031901610140811261038d5760e01361012a5760405190611abc826123be565b600435825260243560208301526044356040830152611ad96123a8565b6060830152608435801515810361038d57608083015260a43560a083015260c435600381101561038d5760c083015260e4356001600160401b03811161038d57611b27903690600401612474565b90610104356001600160a01b038116900361012a57610124356001600160a01b038116900361012a5760405191611b5d836123be565b8183528160208401528160408401528160608401528160808401528160a08401528160c084015260c0840151600381101561231d576122b257611ba13415156127e0565b611bb0346020860151146127e0565b611bbf602085015115156127e0565b611bd0610124356101043583612c01565b505080516020820120916024602060018060a01b036003541660405192838092630e2ab4cb60e21b82528860048301525afa908115610d67578591612293575b50156122585760408601511561221357611c2f602087015115156127e0565b828452600760205260408420805490600160401b8210156110f45790611c5a916001820181556125be565b6118e157865181556020870151600182015560408701516002820155606087015160038201805460808a015160ff60a01b90151560a01b166001600160a01b039093166001600160a81b03199091161791909117905560a0870151600482015560c08701519060038210156121eb57906005611cd69201612844565b600154600160401b8110156121ff57806001611cf59201600155612583565b6118e157865181556020870151600182015560408701516002820155606087015160038201805460808a015160ff60a01b90151560a01b166001600160a01b039093166001600160a81b03199091161791909117905560a0870151600482015560c08701519060038210156121eb57906005611d719201612844565b60405191611d7e836123ef565b611d8661285c565b8352611d9061285c565b6020840152604083015260608201526001600160a01b036101043581166080830152610124351660a0820152600254600160401b8110156121d757806001611ddb9201600255612532565b6117e85781518051906001600160401b0382116110f4578190611e028261093586546125da565b602090601f831160011461216e578792612163575b50508160011b916000199060031b1c19161781555b60208201518051906001600160401b0382116110f4578190611e558261098e60018701546125da565b602090601f83116001146120f45787926120e9575b50508160011b916000199060031b1c19161760018201555b60408201518051906001600160401b0382116110f4578190611eab826109ed60028701546125da565b602090601f831160011461207a57879261206f575b50508160011b916000199060031b1c19161760028201555b6003810160608301518051906001600160401b03821161205b57611f0682611f0085546125da565b85612893565b602090601f8311600114611ff357600594939291889183611fe8575b50508160011b916000199060031b1c19161790555b60808301516004820180546001600160a01b03199081166001600160a01b039384161790915560a094909401519290910180549093169116179055600854611f7e906128d8565b600855600154600019810192908311611fd457507fe9a2b6f068c8e156e02b1fa5a51213d9f1811ceb25dc05211a1df6b0f0f5110260e08095611fc460405180926124de565ba3611fd260405180926124de565bf35b634e487b7160e01b81526011600452602490fd5b015190503880611f22565b838852602088209190601f198416895b81811061204357509160019391856005989796941061202a575b505050811b019055611f37565b015160001960f88460031b161c1916905538808061201d565b92936020600181928786015181550195019301612003565b634e487b7160e01b87526041600452602487fd5b015190503880611ec0565b9250600284018752602087209087935b601f19841685106120ce576001945083601f198116106120b5575b505050811b016002820155611ed8565b015160001960f88460031b161c191690553880806120a5565b8181015183556020948501946001909301929091019061208a565b015190503880611e6a565b9250600184018752602087209087935b601f1984168510612148576001945083601f1981161061212f575b505050811b016001820155611e82565b015160001960f88460031b161c1916905538808061211f565b81810151835560209485019460019093019290910190612104565b015190503880611e17565b9250838752602087209087935b601f19841685106121bc576001945083601f198116106121a3575b505050811b018155611e2c565b015160001960f88460031b161c19169055388080612196565b8181015183556020948501946001909301929091019061217b565b634e487b7160e01b84526041600452602484fd5b634e487b7160e01b86526021600452602486fd5b634e487b7160e01b85526041600452602485fd5b60405162461bcd60e51b815260206004820152601760248201527f4241593a7374616b65206973206e6f7420656e6f7567680000000000000000006044820152606490fd5b60405162461bcd60e51b81526020600482015260136024820152721d5cd95c88191bd95cc81b9bdd08195e1a5cdd606a1b6044820152606490fd5b6122ac915060203d602011610d6057610d518183612438565b38611c10565b60c0840151600381101561231d576002036122ea5760065460208501516122e591309033906001600160a01b03166128fd565b611bb0565b60c0840151600381101561231d57600103611bb05760055460208501516122e591309033906001600160a01b03166128fd565b634e487b7160e01b83526021600452602483fd5b503461012a57602036600319011261012a5761234b61238d565b612353612788565b60018060a01b03166001600160601b0360a01b600554161760055580f35b90503461038d578160031936011261038d576020906008548152f35b600435906001600160a01b03821682036123a357565b600080fd5b606435906001600160a01b03821682036123a357565b60e081019081106001600160401b038211176123d957604052565b634e487b7160e01b600052604160045260246000fd5b60c081019081106001600160401b038211176123d957604052565b6001600160401b0381116123d957604052565b604081019081106001600160401b038211176123d957604052565b90601f801991011681019081106001600160401b038211176123d957604052565b6001600160401b0381116123d957601f01601f191660200190565b81601f820112156123a35780359061248b82612459565b926124996040519485612438565b828452602083830101116123a357816000926020809301838601378301015290565b9060038210156124c85752565b634e487b7160e01b600052602160045260246000fd5b9060c0806125309380518452602081015160208501526040810151604085015260018060a01b03606082015116606085015260808101511515608085015260a081015160a085015201519101906124bb565b565b60025481101561256d576006906002600052027f405787fa12a823e0f2b7631cc41b3ba8828b3321ca811111fa75cd3aa3bb5ace0190600090565b634e487b7160e01b600052603260045260246000fd5b60015481101561256d576006906001600052027fb10e2d527612073b26eecdfd717e6a320cf44b4afac2b0732d9fcbe2b7fa0cf60190600090565b805482101561256d576000526006602060002091020190600090565b90600182811c9216801561260a575b60208310146125f457565b634e487b7160e01b600052602260045260246000fd5b91607f16916125e9565b9060405191826000825492612628846125da565b9081845260019485811690816000146126955750600114612652575b505061253092500383612438565b9093915060005260209081600020936000915b81831061267d57505061253093508201013880612644565b85548884018501529485019487945091830191612665565b91505061253094506020925060ff191682840152151560051b8201013880612644565b60005b8381106126cb5750506000910152565b81810151838201526020016126bb565b906020916126f4815180928185528580860191016126b8565b601f01601f1916010190565b6020908160408183019282815285518094520193019160005b828110612727575050505090565b909192938260e08261273c60019489516124de565b01950193929101612719565b929360c0946125309793999896929960e086019a86526020860152604085015260018060a01b031660608401521515608083015260a082015201906124bb565b6000546001600160a01b0316330361279c57565b606460405162461bcd60e51b815260206004820152602060248201527f4f776e61626c653a2063616c6c6572206973206e6f7420746865206f776e65726044820152fd5b156127e757565b60405162461bcd60e51b815260206004820152601960248201527f4241593a7061796d656e74206973206e6f7420656e6f756768000000000000006044820152606490fd5b908160209103126123a3575180151581036123a35790565b9060038110156124c85760ff80198354169116179055565b604051906128698261241d565b60048252630307830360e41b6020830152565b818110612887575050565b6000815560010161287c565b9190601f81116128a257505050565b612530926000526020600020906020601f840160051c830193106128ce575b601f0160051c019061287c565b90915081906128c1565b60001981146128e75760010190565b634e487b7160e01b600052601160045260246000fd5b6040516323b872dd60e01b602082019081526001600160a01b0393841660248301529383166044820152606480820195909552938452919260a08101929091906001600160401b038411838510176123d9576129a59460009283928660405216936129678661241d565b602086527f5361666545524332303a206c6f772d6c6576656c2063616c6c206661696c656460c0820152519082855af161299f612a2d565b91612a5d565b8051908115918215612a13575b5050156129bb57565b60405162461bcd60e51b815260206004820152602a60248201527f5361666545524332303a204552433230206f7065726174696f6e20646964206e6044820152691bdd081cdd58d8d9595960b21b6064820152608490fd5b612a26925060208091830101910161282c565b38806129b2565b3d15612a58573d90612a3e82612459565b91612a4c6040519384612438565b82523d6000602084013e565b606090565b91929015612abf5750815115612a71575090565b3b15612a7a5790565b60405162461bcd60e51b815260206004820152601d60248201527f416464726573733a2063616c6c20746f206e6f6e2d636f6e74726163740000006044820152606490fd5b825190915015612ad25750805190602001fd5b60405162461bcd60e51b815260206004820152908190612af69060248301906126db565b0390fd5b92959493919060a084526000908054612b12816125da565b918260a08801526001918281169081600014612ba15750600114612b61575b5050506001600160a01b0391821660208501529516604083015260809190612b5d9060608301906124bb565b0152565b909250600052602080600020926000935b838510612b8d5750505050830160c001816080612b5d612b31565b805488860160c00152938201938101612b72565b60ff191660c0808a019190915293151560051b8801909301935084925060809150612b5d9050612b31565b90929192612bd981612459565b91612be76040519384612438565b8294828452828201116123a35760206125309301906126b8565b90612c3a92939160018060a01b03948580600454169160405197889788956307c93c8f60e01b87526060600488015260648701906126db565b9516602485015216604483015281600096879403915afa918215612ccf578390848094612c69575b5050929190565b9294509250503d8082843e612c7e8184612438565b82019060608383031261012a5782516001600160401b03811161038d5783019082601f8301121561012a57508051612cb99291602001612bcc565b9160406020830151920151929192913880612c62565b6040513d85823e3d90fd5b60038210156124c85752565b90612530604051612cf6816123be565b60c060ff6005839680548552600181015460208601526002810154604086015282600382015460018060a01b038116606088015260a01c1615156080860152600481015460a08601520154169101612cda565b90612dd657818103612d59575050565b600560ff8184612530955485556001810154600186015560028101546002860155612dc260038601846003840160018060a01b038154166001600160601b0360a01b8454161783555460a01c1681549060ff60a01b90151560a01b169060ff60a01b1916179055565b600481015460048601550154169101612844565b634e487b7160e01b600052600060045260246000fd5b90808214612ec057612dfe81546125da565b906001600160401b0382116123d9578190612e1d8261093586546125da565b600090601f8311600114612e5457600092612e49575b50508160011b916000199060031b1c1916179055565b015490503880612e33565b81526020808220858352818320935090601f1985169083905b828210612ea7575050908460019594939210612e8e575b505050811b019055565b015460001960f88460031b161c19169055388080612e84565b8495819295850154815560018091019601940190612e6d565b5050565b612ece81546125da565b9081612ed8575050565b81601f60009311600114612eea575055565b908083918252612f09601f60208420940160051c84016001850161287c565b5555565b6040519061016082018281106001600160401b038211176123d957604052606061014083600080825280602083015280604083015280848301528060808301528060a08301528060c08301528060e083015280610100830152610120820152015256fea26469706673582212203d3262e3cad1cf03f88f0bcb6ff88e33802e4d67dcf4d620530f7a183fefccf064736f6c63430008130033",
  "linkReferences": {},
  "deployedLinkReferences": {}
}