{
  "_format": "hh-sol-artifact-1",
  "contractName": "MecenateTreasury",
  "sourceName": "contracts/MecenateTreasury.sol",
  "abi": [
    {
      "anonymous": false,
      "inputs": [
        {
          "indexed": true,
          "internalType": "address",
          "name": "previousOwner",
          "type": "address"
        },
        {
          "indexed": true,
          "internalType": "address",
          "name": "newOwner",
          "type": "address"
        }
      ],
      "name": "OwnershipTransferred",
      "type": "event"
    },
    {
      "inputs": [
        {
          "internalType": "address",
          "name": "token",
          "type": "address"
        },
        {
          "internalType": "uint256",
          "name": "amount",
          "type": "uint256"
        }
      ],
      "name": "addERC20Funds",
      "outputs": [],
      "stateMutability": "nonpayable",
      "type": "function"
    },
    {
      "inputs": [],
      "name": "addFunds",
      "outputs": [],
      "stateMutability": "payable",
      "type": "function"
    },
    {
      "inputs": [
        {
          "internalType": "address",
          "name": "tokenA",
          "type": "address"
        },
        {
          "internalType": "address",
          "name": "tokenB",
          "type": "address"
        },
        {
          "internalType": "uint24",
          "name": "fee",
          "type": "uint24"
        },
        {
          "internalType": "uint256",
          "name": "amountA",
          "type": "uint256"
        },
        {
          "internalType": "uint256",
          "name": "amountB",
          "type": "uint256"
        },
        {
          "internalType": "int24",
          "name": "tickLower",
          "type": "int24"
        },
        {
          "internalType": "int24",
          "name": "tickUpper",
          "type": "int24"
        }
      ],
      "name": "addLiquidity",
      "outputs": [],
      "stateMutability": "nonpayable",
      "type": "function"
    },
    {
      "inputs": [
        {
          "internalType": "address",
          "name": "nativeAddr",
          "type": "address"
        },
        {
          "internalType": "contract ISwapRouter",
          "name": "swapRouterAddr",
          "type": "address"
        }
      ],
      "name": "configLiquidityProvider",
      "outputs": [],
      "stateMutability": "nonpayable",
      "type": "function"
    },
    {
      "inputs": [
        {
          "internalType": "address",
          "name": "token",
          "type": "address"
        },
        {
          "internalType": "uint256",
          "name": "amount",
          "type": "uint256"
        }
      ],
      "name": "customApprove",
      "outputs": [],
      "stateMutability": "nonpayable",
      "type": "function"
    },
    {
      "inputs": [],
      "name": "distributableBalance",
      "outputs": [
        {
          "internalType": "uint256",
          "name": "",
          "type": "uint256"
        }
      ],
      "stateMutability": "view",
      "type": "function"
    },
    {
      "inputs": [
        {
          "internalType": "address",
          "name": "",
          "type": "address"
        }
      ],
      "name": "distributableERC20Balance",
      "outputs": [
        {
          "internalType": "uint256",
          "name": "",
          "type": "uint256"
        }
      ],
      "stateMutability": "view",
      "type": "function"
    },
    {
      "inputs": [
        {
          "internalType": "address",
          "name": "usersContract",
          "type": "address"
        }
      ],
      "name": "distribute",
      "outputs": [],
      "stateMutability": "nonpayable",
      "type": "function"
    },
    {
      "inputs": [
        {
          "internalType": "address",
          "name": "token",
          "type": "address"
        },
        {
          "internalType": "address",
          "name": "usersContract",
          "type": "address"
        }
      ],
      "name": "distributeERC20",
      "outputs": [],
      "stateMutability": "nonpayable",
      "type": "function"
    },
    {
      "inputs": [],
      "name": "fixedFee",
      "outputs": [
        {
          "internalType": "uint256",
          "name": "",
          "type": "uint256"
        }
      ],
      "stateMutability": "view",
      "type": "function"
    },
    {
      "inputs": [],
      "name": "getDistributionBalance",
      "outputs": [
        {
          "internalType": "uint256",
          "name": "",
          "type": "uint256"
        }
      ],
      "stateMutability": "view",
      "type": "function"
    },
    {
      "inputs": [
        {
          "internalType": "address",
          "name": "token",
          "type": "address"
        }
      ],
      "name": "getDistributionERC20Balance",
      "outputs": [
        {
          "internalType": "uint256",
          "name": "",
          "type": "uint256"
        }
      ],
      "stateMutability": "view",
      "type": "function"
    },
    {
      "inputs": [
        {
          "internalType": "address",
          "name": "user",
          "type": "address"
        }
      ],
      "name": "getReward",
      "outputs": [
        {
          "internalType": "uint256",
          "name": "",
          "type": "uint256"
        }
      ],
      "stateMutability": "view",
      "type": "function"
    },
    {
      "inputs": [
        {
          "internalType": "address",
          "name": "token",
          "type": "address"
        },
        {
          "internalType": "address",
          "name": "user",
          "type": "address"
        }
      ],
      "name": "getRewardERC20",
      "outputs": [
        {
          "internalType": "uint256",
          "name": "",
          "type": "uint256"
        }
      ],
      "stateMutability": "view",
      "type": "function"
    },
    {
      "inputs": [],
      "name": "globalFee",
      "outputs": [
        {
          "internalType": "uint256",
          "name": "",
          "type": "uint256"
        }
      ],
      "stateMutability": "view",
      "type": "function"
    },
    {
      "inputs": [],
      "name": "lastDistributed",
      "outputs": [
        {
          "internalType": "uint256",
          "name": "",
          "type": "uint256"
        }
      ],
      "stateMutability": "view",
      "type": "function"
    },
    {
      "inputs": [],
      "name": "native",
      "outputs": [
        {
          "internalType": "address",
          "name": "",
          "type": "address"
        }
      ],
      "stateMutability": "view",
      "type": "function"
    },
    {
      "inputs": [],
      "name": "owner",
      "outputs": [
        {
          "internalType": "address",
          "name": "",
          "type": "address"
        }
      ],
      "stateMutability": "view",
      "type": "function"
    },
    {
      "inputs": [],
      "name": "ownerFee",
      "outputs": [
        {
          "internalType": "uint256",
          "name": "",
          "type": "uint256"
        }
      ],
      "stateMutability": "view",
      "type": "function"
    },
    {
      "inputs": [],
      "name": "positionManager",
      "outputs": [
        {
          "internalType": "contract INonfungiblePositionManager",
          "name": "",
          "type": "address"
        }
      ],
      "stateMutability": "view",
      "type": "function"
    },
    {
      "inputs": [],
      "name": "renounceOwnership",
      "outputs": [],
      "stateMutability": "nonpayable",
      "type": "function"
    },
    {
      "inputs": [
        {
          "internalType": "uint256",
          "name": "_fixedFee",
          "type": "uint256"
        }
      ],
      "name": "setFixedFee",
      "outputs": [],
      "stateMutability": "nonpayable",
      "type": "function"
    },
    {
      "inputs": [
        {
          "internalType": "uint256",
          "name": "_globalFee",
          "type": "uint256"
        }
      ],
      "name": "setGlobalFee",
      "outputs": [],
      "stateMutability": "nonpayable",
      "type": "function"
    },
    {
      "inputs": [
        {
          "internalType": "bool",
          "name": "_splitLiquidity",
          "type": "bool"
        }
      ],
      "name": "setSplitLiqudity",
      "outputs": [
        {
          "internalType": "bool",
          "name": "",
          "type": "bool"
        }
      ],
      "stateMutability": "nonpayable",
      "type": "function"
    },
    {
      "inputs": [
        {
          "internalType": "contract ISwapRouter",
          "name": "swapRouterAddress",
          "type": "address"
        }
      ],
      "name": "setSwapRouter",
      "outputs": [],
      "stateMutability": "nonpayable",
      "type": "function"
    },
    {
      "inputs": [],
      "name": "splitLiquidity",
      "outputs": [
        {
          "internalType": "bool",
          "name": "",
          "type": "bool"
        }
      ],
      "stateMutability": "view",
      "type": "function"
    },
    {
      "inputs": [
        {
          "internalType": "address",
          "name": "token0",
          "type": "address"
        },
        {
          "internalType": "address",
          "name": "token1",
          "type": "address"
        },
        {
          "internalType": "address",
          "name": "token2",
          "type": "address"
        },
        {
          "internalType": "uint24",
          "name": "fee",
          "type": "uint24"
        },
        {
          "internalType": "uint24",
          "name": "fee2",
          "type": "uint24"
        }
      ],
      "name": "swapAndBurn",
      "outputs": [],
      "stateMutability": "nonpayable",
      "type": "function"
    },
    {
      "inputs": [],
      "name": "swapRouter",
      "outputs": [
        {
          "internalType": "contract ISwapRouter",
          "name": "",
          "type": "address"
        }
      ],
      "stateMutability": "view",
      "type": "function"
    },
    {
      "inputs": [
        {
          "internalType": "address",
          "name": "token1",
          "type": "address"
        },
        {
          "internalType": "address",
          "name": "token2",
          "type": "address"
        },
        {
          "internalType": "uint256",
          "name": "amount",
          "type": "uint256"
        },
        {
          "internalType": "uint24",
          "name": "fee",
          "type": "uint24"
        }
      ],
      "name": "swapTokensForTokens",
      "outputs": [
        {
          "internalType": "uint256",
          "name": "",
          "type": "uint256"
        }
      ],
      "stateMutability": "nonpayable",
      "type": "function"
    },
    {
      "inputs": [
        {
          "internalType": "address",
          "name": "receiver",
          "type": "address"
        }
      ],
      "name": "takeReward",
      "outputs": [
        {
          "internalType": "uint256",
          "name": "",
          "type": "uint256"
        }
      ],
      "stateMutability": "nonpayable",
      "type": "function"
    },
    {
      "inputs": [
        {
          "internalType": "address",
          "name": "token",
          "type": "address"
        },
        {
          "internalType": "address",
          "name": "receiver",
          "type": "address"
        }
      ],
      "name": "takeRewardERC20",
      "outputs": [
        {
          "internalType": "uint256",
          "name": "",
          "type": "uint256"
        }
      ],
      "stateMutability": "nonpayable",
      "type": "function"
    },
    {
      "inputs": [
        {
          "internalType": "address",
          "name": "newOwner",
          "type": "address"
        }
      ],
      "name": "transferOwnership",
      "outputs": [],
      "stateMutability": "nonpayable",
      "type": "function"
    },
    {
      "inputs": [
        {
          "internalType": "address",
          "name": "",
          "type": "address"
        }
      ],
      "name": "userReward",
      "outputs": [
        {
          "internalType": "uint256",
          "name": "",
          "type": "uint256"
        }
      ],
      "stateMutability": "view",
      "type": "function"
    },
    {
      "inputs": [
        {
          "internalType": "address",
          "name": "",
          "type": "address"
        },
        {
          "internalType": "address",
          "name": "",
          "type": "address"
        }
      ],
      "name": "userRewardERC20",
      "outputs": [
        {
          "internalType": "uint256",
          "name": "",
          "type": "uint256"
        }
      ],
      "stateMutability": "view",
      "type": "function"
    },
    {
      "stateMutability": "payable",
      "type": "receive"
    }
  ],
  "bytecode": "0x6080806040523461006b5760008054336001600160a01b0319821681178355916001600160a01b03909116907f8be0079c531659141344cd1fd0a4f28419497f9722a3daafe3b4186f6b6457e09080a36064600455662386f26fc100006005556120de90816100718239f35b600080fdfe608080604052600436101561002c575b50361561001b57600080fd5b61002734600754611a63565b600755005b600090813560e01c9081620a74be1461194a5750806305f6059d1461192557806310027a281461172457806311b0b42d146118f15780631fce07d5146118d3578063291206f6146118b05780632ad2e08c146117f057806337de8106146117cd5780634127365714611769578063568dbccf1461172457806363453ae11461152b578063674ee49d146114d35780636962a86314611158578063715018a6146110d95780637450bce914610e8c578063791b98bc146110a5578063808fc2061461108757806385258b4b14610f705780638da5cb5b14610f3d5780638f3a899a14610ec857806391792d5b14610eaa578063932f9f8a14610e8c578063a26759cb14610e6e578063af2c15c414610bf6578063afbce84e14610810578063bcb7557f146107b3578063c00007b01461076e578063c31c9c071461073a578063d1a06cf814610545578063d5b2a01a14610527578063e266294314610363578063f2fde38b1461024a578063fc99d28f146102015763ffdf2bcb0361000f57346101fe5760406003193601126101fe5773ffffffffffffffffffffffffffffffffffffffff6101d861198c565b6101e06119e4565b168152600b602052604081206101f96024358254611a63565b905580f35b80fd5b50346101fe5760806003193601126101fe57602061024261022061198c565b6102286119af565b6102306119d2565b906102396119e4565b60443592611e59565b604051908152f35b50346101fe5760206003193601126101fe5761026461198c565b61026c6119e4565b73ffffffffffffffffffffffffffffffffffffffff8091169081156102df57600054827fffffffffffffffffffffffff0000000000000000000000000000000000000000821617600055167f8be0079c531659141344cd1fd0a4f28419497f9722a3daafe3b4186f6b6457e0600080a380f35b60846040517f08c379a000000000000000000000000000000000000000000000000000000000815260206004820152602660248201527f4f776e61626c653a206e6577206f776e657220697320746865207a65726f206160448201527f64647265737300000000000000000000000000000000000000000000000000006064820152fd5b50346101fe5760406003193601126101fe578061037e61198c565b816103876119af565b61038f6119e4565b73ffffffffffffffffffffffffffffffffffffffff809316600354906044857fffffffffffffffffffffffff0000000000000000000000000000000000000000948386861617600355168060015495861617600155740100000000000000000000000000000000000000007fffffffffffffffffffffff00ffffffffffffffffffffffffffffffffffffffff8754161786556040519586938492827f095ea7b30000000000000000000000000000000000000000000000000000000098898652161760048401528160248401526020998a9616175af191821561051c5784926104ff575b5060448360035416936001541691866040519586948593845260048401527fffffffffffffffffffffffffffffffffffffffffffffffffffffffffffffffff60248401525af180156104f4576104c7578280f35b816104e692903d106104ed575b6104de8183611b5d565b810190611cba565b5038808280f35b503d6104d4565b6040513d85823e3d90fd5b61051590833d85116104ed576104de8183611b5d565b5038610473565b6040513d87823e3d90fd5b50346101fe57806003193601126101fe576020600854604051908152f35b50346101fe5760406003193601126101fe5761055f61198c565b6105676119af565b9073ffffffffffffffffffffffffffffffffffffffff809116808452602091600b835261059960408620541515611aac565b818552600b8352806105d96127106105b8604089205460045490611b11565b046105c581600854611a63565b600855848852600b86526040882054611a9f565b941690604051947fb5cb15f70000000000000000000000000000000000000000000000000000000086528486600481865afa95861561072f5787966106f9575b508561062f9161062a821515611b9e565b611b24565b91865b86811061064a5787600b878783525280604081205580f35b604051907fc6e064ad0000000000000000000000000000000000000000000000000000000082528060048301528682602481865afa9182156106ee576106bc9285918b916106c1575b50168952600a87526040892086600052875260406000206106b5868254611a63565b9055611c03565b610632565b6106e19150893d8b116106e7575b6106d98183611b5d565b810190611c30565b38610693565b503d6106cf565b6040513d8b823e3d90fd5b9095508481813d8311610728575b6107118183611b5d565b8101031261072357519461062f610619565b600080fd5b503d610707565b6040513d89823e3d90fd5b50346101fe57806003193601126101fe57602073ffffffffffffffffffffffffffffffffffffffff60015416604051908152f35b50346101fe5760206003193601126101fe57604060209173ffffffffffffffffffffffffffffffffffffffff6107a261198c565b168152600983522054604051908152f35b50346101fe5760406003193601126101fe576107cd61198c565b90604073ffffffffffffffffffffffffffffffffffffffff91826107ef6119af565b168152600a6020522091166000526020526020604060002054604051908152f35b50346101fe5760e06003193601126101fe5761082a61198c565b6108326119af565b6044359062ffffff821682036107235760a4358060020b81036107235760c435918260020b8303610723576108c6906108696119e4565b6002546040517f095ea7b300000000000000000000000000000000000000000000000000000000815273ffffffffffffffffffffffffffffffffffffffff9091166004820152606435602482015291602090839081906044820190565b03818a73ffffffffffffffffffffffffffffffffffffffff8b165af191821561072f5773ffffffffffffffffffffffffffffffffffffffff92610bd7575b50169373ffffffffffffffffffffffffffffffffffffffff60025416936040517f095ea7b30000000000000000000000000000000000000000000000000000000081526020818061097f608435809a600484016020909392919373ffffffffffffffffffffffffffffffffffffffff60408201951681520152565b03818b8b5af18015610bcc57610bad575b5060405195610160870187811067ffffffffffffffff821117610b7e5762ffffff9373ffffffffffffffffffffffffffffffffffffffff91604052168752602087015216604085015260020b606084015260020b608083015260643560a083015260c08201528160e0820152816101008201523061012082015242610140820152608061014061016473ffffffffffffffffffffffffffffffffffffffff60025416938560405195869485937f8831645600000000000000000000000000000000000000000000000000000000855273ffffffffffffffffffffffffffffffffffffffff815116600486015273ffffffffffffffffffffffffffffffffffffffff602082015116602486015262ffffff6040820151166044860152606081015160020b60648601528781015160020b608486015260a081015160a486015260c081015160c486015260e081015160e486015261010081015161010486015273ffffffffffffffffffffffffffffffffffffffff6101208201511661012486015201516101448401525af18015610b7357610b28575080f35b6080813d8211610b6b575b81610b4060809383611b5d565b81010312610b6757602001516fffffffffffffffffffffffffffffffff8116036101fe5780f35b5080fd5b3d9150610b33565b6040513d84823e3d90fd5b7f4e487b7100000000000000000000000000000000000000000000000000000000600052604160045260246000fd5b610bc59060203d6020116104ed576104de8183611b5d565b5038610990565b6040513d8a823e3d90fd5b610bef9060203d6020116104ed576104de8183611b5d565b5038610904565b50346101fe5760406003193601126101fe57610c1061198c565b610c186119af565b91338152602092600a845273ffffffffffffffffffffffffffffffffffffffff60408320931692836000528452604060002054928315610e1057338352600a8552604083208160005285528260406000205560405192610cf584610cc987898301967fa9059cbb000000000000000000000000000000000000000000000000000000008852602484016020909392919373ffffffffffffffffffffffffffffffffffffffff60408201951681520152565b037fffffffffffffffffffffffffffffffffffffffffffffffffffffffffffffffe08101865285611b5d565b60405192604084019084821067ffffffffffffffff831117610b7e57610d569583926040528886527f5361666545524332303a206c6f772d6c6576656c2063616c6c206661696c656489870152519082855af1610d50611c5c565b91611cd2565b805190838215928315610df8575b50505015610d7457604051908152f35b608482604051907f08c379a00000000000000000000000000000000000000000000000000000000082526004820152602a60248201527f5361666545524332303a204552433230206f7065726174696f6e20646964206e60448201527f6f742073756363656564000000000000000000000000000000000000000000006064820152fd5b610e089350820181019101611cba565b388381610d64565b606485604051907f08c379a00000000000000000000000000000000000000000000000000000000082526004820152601360248201527f4e6f2072657761726420617661696c61626c65000000000000000000000000006044820152fd5b50806003193601126101fe57610e8634600754611a63565b60075580f35b50346101fe57806003193601126101fe576020600754604051908152f35b50346101fe57806003193601126101fe576020600554604051908152f35b50346101fe5760206003193601126101fe57600435801515809103610b6757610eef6119e4565b7fffffffffffffffffffffff00ffffffffffffffffffffffffffffffffffffffff74ff000000000000000000000000000000000000000083549260a01b169116179055602060405160018152f35b50346101fe57806003193601126101fe5773ffffffffffffffffffffffffffffffffffffffff6020915416604051908152f35b50346101fe5760406003193601126101fe57610ffc610f8d61198c565b610f956119e4565b6001546040517f095ea7b30000000000000000000000000000000000000000000000000000000080825273ffffffffffffffffffffffffffffffffffffffff9283166004830152602480359083015260209493831693919290918590849081906044820190565b038189885af190811561107c57859360449261105f575b506001541691866040519586948593845260048401527fffffffffffffffffffffffffffffffffffffffffffffffffffffffffffffffff60248401525af180156104f4576104c7578280f35b61107590853d87116104ed576104de8183611b5d565b5038611013565b6040513d88823e3d90fd5b50346101fe57806003193601126101fe576020600454604051908152f35b50346101fe57806003193601126101fe57602073ffffffffffffffffffffffffffffffffffffffff60025416604051908152f35b50346101fe57806003193601126101fe576110f26119e4565b600073ffffffffffffffffffffffffffffffffffffffff81547fffffffffffffffffffffffff000000000000000000000000000000000000000081168355167f8be0079c531659141344cd1fd0a4f28419497f9722a3daafe3b4186f6b6457e08280a380f35b50346101fe5760a06003193601126101fe5761117261198c565b61117a6119af565b9073ffffffffffffffffffffffffffffffffffffffff60443516604435036114cf576111a46119d2565b9062ffffff60843516608435036114cb576111bd6119e4565b604051917f70a0823100000000000000000000000000000000000000000000000000000000835230600484015260208360248173ffffffffffffffffffffffffffffffffffffffff86165afa91821561051c578592611491575b6001546040517f095ea7b300000000000000000000000000000000000000000000000000000000815273ffffffffffffffffffffffffffffffffffffffff909116600482015260248101849052935060208480604481015b03818973ffffffffffffffffffffffffffffffffffffffff86165af190811561107c576112a886926112ad968991611409575b50611df4565b611e59565b8015611433576001546040517f095ea7b300000000000000000000000000000000000000000000000000000000815273ffffffffffffffffffffffffffffffffffffffff90911660048201526024810182905291602083806044810103818773ffffffffffffffffffffffffffffffffffffffff86165af19283156114285761134d936113409186916114095750611df4565b6084359060443590611e59565b73ffffffffffffffffffffffffffffffffffffffff604435163b15610b6757604051907f42966c68000000000000000000000000000000000000000000000000000000008252600482015281816024818373ffffffffffffffffffffffffffffffffffffffff604435165af18015610b73576113c7575080f35b67ffffffffffffffff81116113dc5760405280f35b6024827f4e487b710000000000000000000000000000000000000000000000000000000081526041600452fd5b611422915060203d6020116104ed576104de8183611b5d565b386112a2565b6040513d86823e3d90fd5b60646040517f08c379a000000000000000000000000000000000000000000000000000000000815260206004820152601060248201527f4e6f20746f6b656e7320626f75676874000000000000000000000000000000006044820152fd5b91506020833d6020116114c3575b816114ac60209383611b5d565b810103126114bf5761126f925191611217565b8480fd5b3d915061149f565b8380fd5b8280fd5b50346101fe5760406003193601126101fe5760406020916114f261198c565b6114fa6119af565b73ffffffffffffffffffffffffffffffffffffffff9182168352600a85528383209116825283522054604051908152f35b50346101fe57602080600319360112610b675761154661198c565b6201518061155660065442611a9f565b106116c65761159160075461156c811515611aac565b61271061157b60045483611b11565b049061158982600854611a63565b600855611a9f565b9173ffffffffffffffffffffffffffffffffffffffff80921691604051937fb5cb15f70000000000000000000000000000000000000000000000000000000085528285600481875afa94851561107c578695611691575b50846115f99161062a821515611b9e565b92855b85811061160f5786426006558060075580f35b604051907fc6e064ad0000000000000000000000000000000000000000000000000000000082528060048301528482602481865afa918215610bcc5761166f9285918a91611674575b5016885260098552604088206106b5878254611a63565b6115fc565b61168b9150873d89116106e7576106d98183611b5d565b38611658565b9094508281813d83116116bf575b6116a98183611b5d565b810103126116bb5751936115f96115e8565b8580fd5b503d61169f565b606482604051907f08c379a00000000000000000000000000000000000000000000000000000000082526004820152601e60248201527f43616e206f6e6c792064697374726962757465206f6e636520612064617900006044820152fd5b50346101fe5760206003193601126101fe57604060209173ffffffffffffffffffffffffffffffffffffffff61175861198c565b168152600b83522054604051908152f35b50346101fe5760206003193601126101fe5773ffffffffffffffffffffffffffffffffffffffff61179861198c565b6117a06119e4565b167fffffffffffffffffffffffff0000000000000000000000000000000000000000600154161760015580f35b50346101fe5760206003193601126101fe576117e76119e4565b60043560055580f35b50346101fe5760206003193601126101fe578080808061180e61198c565b338252600960205273ffffffffffffffffffffffffffffffffffffffff6040832091825497889355165af1611841611c5c565b501561185257602090604051908152f35b60646040517f08c379a000000000000000000000000000000000000000000000000000000000815260206004820152601060248201527f5472616e73666572206661696c65642e000000000000000000000000000000006044820152fd5b50346101fe5760206003193601126101fe576118ca6119e4565b60043560045580f35b50346101fe57806003193601126101fe576020600654604051908152f35b50346101fe57806003193601126101fe57602073ffffffffffffffffffffffffffffffffffffffff60035416604051908152f35b50346101fe57806003193601126101fe5760ff6020915460a01c166040519015158152f35b905034610b67576020600319360112610b6757604060209273ffffffffffffffffffffffffffffffffffffffff61197f61198c565b1681526009845220548152f35b6004359073ffffffffffffffffffffffffffffffffffffffff8216820361072357565b6024359073ffffffffffffffffffffffffffffffffffffffff8216820361072357565b6064359062ffffff8216820361072357565b73ffffffffffffffffffffffffffffffffffffffff600054163303611a0557565b60646040517f08c379a000000000000000000000000000000000000000000000000000000000815260206004820152602060248201527f4f776e61626c653a2063616c6c6572206973206e6f7420746865206f776e65726044820152fd5b91908201809211611a7057565b7f4e487b7100000000000000000000000000000000000000000000000000000000600052601160045260246000fd5b91908203918211611a7057565b15611ab357565b60646040517f08c379a000000000000000000000000000000000000000000000000000000000815260206004820152601860248201527f4e6f2064697374726962757461626c652062616c616e636500000000000000006044820152fd5b81810292918115918404141715611a7057565b8115611b2e570490565b7f4e487b7100000000000000000000000000000000000000000000000000000000600052601260045260246000fd5b90601f7fffffffffffffffffffffffffffffffffffffffffffffffffffffffffffffffe0910116810190811067ffffffffffffffff821117610b7e57604052565b15611ba557565b60646040517f08c379a000000000000000000000000000000000000000000000000000000000815260206004820152601960248201527f4e6f20757365727320746f206469737472696275746520746f000000000000006044820152fd5b7fffffffffffffffffffffffffffffffffffffffffffffffffffffffffffffffff8114611a705760010190565b90816020910312610723575173ffffffffffffffffffffffffffffffffffffffff811681036107235790565b3d15611cb5573d9067ffffffffffffffff8211610b7e5760405191611ca960207fffffffffffffffffffffffffffffffffffffffffffffffffffffffffffffffe0601f8401160184611b5d565b82523d6000602084013e565b606090565b90816020910312610723575180151581036107235790565b91929015611d4d5750815115611ce6575090565b3b15611cef5790565b60646040517f08c379a000000000000000000000000000000000000000000000000000000000815260206004820152601d60248201527f416464726573733a2063616c6c20746f206e6f6e2d636f6e74726163740000006044820152fd5b825190915015611d605750805190602001fd5b604051907f08c379a000000000000000000000000000000000000000000000000000000000825281602080600483015282519283602484015260005b848110611ddd575050507fffffffffffffffffffffffffffffffffffffffffffffffffffffffffffffffe0601f836000604480968601015201168101030190fd5b818101830151868201604401528593508201611d9c565b15611dfb57565b60646040517f08c379a000000000000000000000000000000000000000000000000000000000815260206004820152600e60248201527f417070726f7665206661696c65640000000000000000000000000000000000006044820152fd5b600154604080517f095ea7b300000000000000000000000000000000000000000000000000000000815273ffffffffffffffffffffffffffffffffffffffff92831660048201526024810187905290959290911691906020816044816000875af1801561209d5761207e575b50605f8102818104605f1482151715611a7057600a420190814211611a7057865193610100850185811067ffffffffffffffff821117610b7e5788528452602084019473ffffffffffffffffffffffffffffffffffffffff1685528684019562ffffff16865260608401923084526080850192835260a0850190815260c085019160649004825260e08501926000845260015473ffffffffffffffffffffffffffffffffffffffff1694895198899889987f414bf389000000000000000000000000000000000000000000000000000000008a525173ffffffffffffffffffffffffffffffffffffffff1660048a01525173ffffffffffffffffffffffffffffffffffffffff1660248901525162ffffff1660448801525173ffffffffffffffffffffffffffffffffffffffff1660648701525160848601525160a48501525160c48401525173ffffffffffffffffffffffffffffffffffffffff1660e48301525a92600061010492602095f19182156120745750600091612045575090565b90506020813d60201161206c575b8161206060209383611b5d565b81010312610723575190565b3d9150612053565b513d6000823e3d90fd5b6120969060203d6020116104ed576104de8183611b5d565b5038611ec5565b86513d6000823e3d90fdfea26469706673582212206a4db224b1b76adb9eab739af70e81d4168a716b4693cf9c5b840e645a8fc1a964736f6c63430008130033",
  "linkReferences": {},
  "deployedLinkReferences": {}
}