{
  "_format": "hh-sol-artifact-1",
  "contractName": "MecenateTreasury",
  "sourceName": "contracts/MecenateTreasury.sol",
  "abi": [
    {
      "anonymous": false,
      "inputs": [
        {
          "indexed": true,
          "internalType": "address",
          "name": "previousOwner",
          "type": "address"
        },
        {
          "indexed": true,
          "internalType": "address",
          "name": "newOwner",
          "type": "address"
        }
      ],
      "name": "OwnershipTransferred",
      "type": "event"
    },
    {
      "inputs": [],
      "name": "addFunds",
      "outputs": [],
      "stateMutability": "payable",
      "type": "function"
    },
    {
      "inputs": [
        {
          "internalType": "address",
          "name": "tokenA",
          "type": "address"
        },
        {
          "internalType": "address",
          "name": "tokenB",
          "type": "address"
        },
        {
          "internalType": "uint24",
          "name": "fee",
          "type": "uint24"
        },
        {
          "internalType": "uint256",
          "name": "amountA",
          "type": "uint256"
        },
        {
          "internalType": "uint256",
          "name": "amountB",
          "type": "uint256"
        },
        {
          "internalType": "int24",
          "name": "tickLower",
          "type": "int24"
        },
        {
          "internalType": "int24",
          "name": "tickUpper",
          "type": "int24"
        }
      ],
      "name": "addLiquidity",
      "outputs": [],
      "stateMutability": "nonpayable",
      "type": "function"
    },
    {
      "inputs": [
        {
          "internalType": "address",
          "name": "_native",
          "type": "address"
        },
        {
          "internalType": "contract ISwapRouter",
          "name": "_swapRouter",
          "type": "address"
        }
      ],
      "name": "configLiquidityProvider",
      "outputs": [],
      "stateMutability": "nonpayable",
      "type": "function"
    },
    {
      "inputs": [
        {
          "internalType": "address",
          "name": "_token",
          "type": "address"
        },
        {
          "internalType": "uint256",
          "name": "_amount",
          "type": "uint256"
        }
      ],
      "name": "customApprove",
      "outputs": [],
      "stateMutability": "nonpayable",
      "type": "function"
    },
    {
      "inputs": [],
      "name": "distributableBalance",
      "outputs": [
        {
          "internalType": "uint256",
          "name": "",
          "type": "uint256"
        }
      ],
      "stateMutability": "view",
      "type": "function"
    },
    {
      "inputs": [
        {
          "internalType": "address",
          "name": "_usersContract",
          "type": "address"
        }
      ],
      "name": "distribute",
      "outputs": [],
      "stateMutability": "nonpayable",
      "type": "function"
    },
    {
      "inputs": [],
      "name": "fixedFee",
      "outputs": [
        {
          "internalType": "uint256",
          "name": "",
          "type": "uint256"
        }
      ],
      "stateMutability": "view",
      "type": "function"
    },
    {
      "inputs": [
        {
          "internalType": "address",
          "name": "_verifierContract",
          "type": "address"
        },
        {
          "internalType": "bytes32",
          "name": "encryptedVaultId",
          "type": "bytes32"
        }
      ],
      "name": "getReward",
      "outputs": [
        {
          "internalType": "uint256",
          "name": "",
          "type": "uint256"
        }
      ],
      "stateMutability": "view",
      "type": "function"
    },
    {
      "inputs": [],
      "name": "globalFee",
      "outputs": [
        {
          "internalType": "uint256",
          "name": "",
          "type": "uint256"
        }
      ],
      "stateMutability": "view",
      "type": "function"
    },
    {
      "inputs": [],
      "name": "lastDistributed",
      "outputs": [
        {
          "internalType": "uint256",
          "name": "",
          "type": "uint256"
        }
      ],
      "stateMutability": "view",
      "type": "function"
    },
    {
      "inputs": [],
      "name": "native",
      "outputs": [
        {
          "internalType": "address",
          "name": "",
          "type": "address"
        }
      ],
      "stateMutability": "view",
      "type": "function"
    },
    {
      "inputs": [],
      "name": "owner",
      "outputs": [
        {
          "internalType": "address",
          "name": "",
          "type": "address"
        }
      ],
      "stateMutability": "view",
      "type": "function"
    },
    {
      "inputs": [],
      "name": "ownerFee",
      "outputs": [
        {
          "internalType": "uint256",
          "name": "",
          "type": "uint256"
        }
      ],
      "stateMutability": "view",
      "type": "function"
    },
    {
      "inputs": [],
      "name": "positionManager",
      "outputs": [
        {
          "internalType": "contract INonfungiblePositionManager",
          "name": "",
          "type": "address"
        }
      ],
      "stateMutability": "view",
      "type": "function"
    },
    {
      "inputs": [],
      "name": "renounceOwnership",
      "outputs": [],
      "stateMutability": "nonpayable",
      "type": "function"
    },
    {
      "inputs": [
        {
          "internalType": "uint256",
          "name": "_fixedFee",
          "type": "uint256"
        }
      ],
      "name": "setFixedFee",
      "outputs": [],
      "stateMutability": "nonpayable",
      "type": "function"
    },
    {
      "inputs": [
        {
          "internalType": "uint256",
          "name": "_globalFee",
          "type": "uint256"
        }
      ],
      "name": "setGlobalFee",
      "outputs": [],
      "stateMutability": "nonpayable",
      "type": "function"
    },
    {
      "inputs": [
        {
          "internalType": "bool",
          "name": "_splitLiquidity",
          "type": "bool"
        }
      ],
      "name": "setSplitLiqudity",
      "outputs": [
        {
          "internalType": "bool",
          "name": "",
          "type": "bool"
        }
      ],
      "stateMutability": "nonpayable",
      "type": "function"
    },
    {
      "inputs": [
        {
          "internalType": "contract ISwapRouter",
          "name": "_swapRouter",
          "type": "address"
        }
      ],
      "name": "setSwapRouter",
      "outputs": [],
      "stateMutability": "nonpayable",
      "type": "function"
    },
    {
      "inputs": [],
      "name": "splitLiquidity",
      "outputs": [
        {
          "internalType": "bool",
          "name": "",
          "type": "bool"
        }
      ],
      "stateMutability": "view",
      "type": "function"
    },
    {
      "inputs": [
        {
          "internalType": "address",
          "name": "_token0",
          "type": "address"
        },
        {
          "internalType": "address",
          "name": "_token1",
          "type": "address"
        },
        {
          "internalType": "address",
          "name": "_token2",
          "type": "address"
        },
        {
          "internalType": "uint24",
          "name": "_fee",
          "type": "uint24"
        },
        {
          "internalType": "uint24",
          "name": "_fee2",
          "type": "uint24"
        }
      ],
      "name": "swapAndBurn",
      "outputs": [],
      "stateMutability": "nonpayable",
      "type": "function"
    },
    {
      "inputs": [],
      "name": "swapRouter",
      "outputs": [
        {
          "internalType": "contract ISwapRouter",
          "name": "",
          "type": "address"
        }
      ],
      "stateMutability": "view",
      "type": "function"
    },
    {
      "inputs": [
        {
          "internalType": "address",
          "name": "token1",
          "type": "address"
        },
        {
          "internalType": "address",
          "name": "token2",
          "type": "address"
        },
        {
          "internalType": "uint256",
          "name": "amount",
          "type": "uint256"
        },
        {
          "internalType": "uint24",
          "name": "fee",
          "type": "uint24"
        }
      ],
      "name": "swapTokensForTokens",
      "outputs": [
        {
          "internalType": "uint256",
          "name": "",
          "type": "uint256"
        }
      ],
      "stateMutability": "nonpayable",
      "type": "function"
    },
    {
      "inputs": [
        {
          "internalType": "address",
          "name": "_receiver",
          "type": "address"
        },
        {
          "internalType": "address",
          "name": "_verifierContract",
          "type": "address"
        },
        {
          "internalType": "bytes",
          "name": "sismoConnectResponse",
          "type": "bytes"
        },
        {
          "internalType": "address",
          "name": "_to",
          "type": "address"
        },
        {
          "internalType": "bytes32",
          "name": "_nonce",
          "type": "bytes32"
        }
      ],
      "name": "takeReward",
      "outputs": [
        {
          "internalType": "uint256",
          "name": "",
          "type": "uint256"
        }
      ],
      "stateMutability": "nonpayable",
      "type": "function"
    },
    {
      "inputs": [
        {
          "internalType": "address",
          "name": "newOwner",
          "type": "address"
        }
      ],
      "name": "transferOwnership",
      "outputs": [],
      "stateMutability": "nonpayable",
      "type": "function"
    },
    {
      "inputs": [
        {
          "internalType": "bytes32",
          "name": "",
          "type": "bytes32"
        }
      ],
      "name": "userReward",
      "outputs": [
        {
          "internalType": "uint256",
          "name": "",
          "type": "uint256"
        }
      ],
      "stateMutability": "view",
      "type": "function"
    },
    {
      "inputs": [
        {
          "internalType": "address payable",
          "name": "_to",
          "type": "address"
        },
        {
          "internalType": "uint256",
          "name": "_amount",
          "type": "uint256"
        }
      ],
      "name": "withdrawNative",
      "outputs": [],
      "stateMutability": "nonpayable",
      "type": "function"
    },
    {
      "inputs": [
        {
          "internalType": "address",
          "name": "_token",
          "type": "address"
        },
        {
          "internalType": "address",
          "name": "_to",
          "type": "address"
        },
        {
          "internalType": "uint256",
          "name": "_amount",
          "type": "uint256"
        }
      ],
      "name": "withdrawTokens",
      "outputs": [],
      "stateMutability": "nonpayable",
      "type": "function"
    },
    {
      "stateMutability": "payable",
      "type": "receive"
    }
  ],
  "bytecode": "0x6080806040523461006b5760008054336001600160a01b0319821681178355916001600160a01b03909116907f8be0079c531659141344cd1fd0a4f28419497f9722a3daafe3b4186f6b6457e09080a36064600455662386f26fc10000600555611c8d90816100718239f35b600080fdfe608080604052600436101561002c575b50361561001b57600080fd5b610027346007546117db565b600755005b60003560e01c90816305f6059d146116665750806307b18bde1461160957806311b0b42d146115d55780631fce07d5146115b7578063291206f61461159657806337d8af2b1461137957806337de81061461135857806341273657146112f35780635e35359e1461113b57806363453ae114610e2f5780636962a86314610b825780636c8d424f14610b4d578063715018a614610acf5780637450bce914610ab1578063791b98bc14610a7d578063808fc20614610a5f57806385258b4b146109545780638da5cb5b146109205780638f3a899a146108aa57806391792d5b1461088c578063a26759cb14610874578063afbce84e146104f9578063b51ed1f4146104cd578063c31c9c0714610499578063d5b2a01a1461047b578063e2662943146102d1578063f2fde38b146101ba5763fc99d28f1461016d573861000f565b346101b55760806003193601126101b55760206101ad61018b611689565b6101936116ac565b61019b61174a565b906101a461175c565b60443592611a1d565b604051908152f35b600080fd5b346101b55760206003193601126101b5576101d3611689565b6101db61175c565b73ffffffffffffffffffffffffffffffffffffffff80911690811561024d57600054827fffffffffffffffffffffffff0000000000000000000000000000000000000000821617600055167f8be0079c531659141344cd1fd0a4f28419497f9722a3daafe3b4186f6b6457e0600080a3005b60846040517f08c379a000000000000000000000000000000000000000000000000000000000815260206004820152602660248201527f4f776e61626c653a206e6577206f776e657220697320746865207a65726f206160448201527f64647265737300000000000000000000000000000000000000000000000000006064820152fd5b346101b55760406003193601126101b55760006102ec611689565b6102f46116ac565b6102fc61175c565b73ffffffffffffffffffffffffffffffffffffffff80921690827fffffffffffffffffffffffff000000000000000000000000000000000000000091838360035416176003551680916001541617600155740100000000000000000000000000000000000000007fffffffffffffffffffffff00ffffffffffffffffffffffffffffffffffffffff855416178455604051917f095ea7b3000000000000000000000000000000000000000000000000000000009182845260048401528460248401528260448160209788945af191821561045257849261045e575b506044836003541693600154169160006040519586948593845260048401527fffffffffffffffffffffffffffffffffffffffffffffffffffffffffffffffff60248401525af180156104525761042a57005b8161044992903d1061044b575b61044181836116cf565b8101906117e8565b005b503d610437565b6040513d6000823e3d90fd5b61047490833d851161044b5761044181836116cf565b50846103d7565b346101b55760006003193601126101b5576020600854604051908152f35b346101b55760006003193601126101b557602073ffffffffffffffffffffffffffffffffffffffff60015416604051908152f35b346101b55760206003193601126101b55760043560005260096020526020604060002054604051908152f35b346101b55760e06003193601126101b557610512611689565b61051a6116ac565b6044359062ffffff82168092036101b55760a4358060020b8091036101b55760c435918260020b8093036101b5576105b19061055461175c565b6002546040517f095ea7b300000000000000000000000000000000000000000000000000000000815273ffffffffffffffffffffffffffffffffffffffff9182166004820152606435602482015292602091849182906044820190565b039816978160008a5af19182156104525773ffffffffffffffffffffffffffffffffffffffff92610855575b506002546040517f095ea7b300000000000000000000000000000000000000000000000000000000815273ffffffffffffffffffffffffffffffffffffffff909116600482015260843560248201819052959291909116906020816044816000865af1801561045257610836575b5060405195610160870187811067ffffffffffffffff821117610807576040528652602086015260408501526060840152608083015260643560a083015260c0820152600060e082015260006101008201523061012082015242610140820152608061014061016473ffffffffffffffffffffffffffffffffffffffff6002541693600060405195869485937f8831645600000000000000000000000000000000000000000000000000000000855273ffffffffffffffffffffffffffffffffffffffff815116600486015273ffffffffffffffffffffffffffffffffffffffff602082015116602486015262ffffff6040820151166044860152606081015160020b60648601528781015160020b608486015260a081015160a486015260c081015160c486015260e081015160e486015261010081015161010486015273ffffffffffffffffffffffffffffffffffffffff6101208201511661012486015201516101448401525af18015610452576107c157005b6080813d82116107ff575b816107d9608093836116cf565b810103126101b557602001516fffffffffffffffffffffffffffffffff8116036101b557005b3d91506107cc565b7f4e487b7100000000000000000000000000000000000000000000000000000000600052604160045260246000fd5b61084e9060203d60201161044b5761044181836116cf565b508661064b565b61086d9060203d60201161044b5761044181836116cf565b50866105dd565b60006003193601126101b557610027346007546117db565b346101b55760006003193601126101b5576020600554604051908152f35b346101b55760206003193601126101b5576004358015158091036101b5576108d061175c565b7fffffffffffffffffffffff00ffffffffffffffffffffffffffffffffffffffff74ff00000000000000000000000000000000000000006000549260a01b16911617600055602060405160018152f35b346101b55760006003193601126101b557602073ffffffffffffffffffffffffffffffffffffffff60005416604051908152f35b346101b55760406003193601126101b5576109df610970611689565b61097861175c565b6001546040517f095ea7b30000000000000000000000000000000000000000000000000000000080825273ffffffffffffffffffffffffffffffffffffffff9283166004830152602480359083015260209493831693919290918590849081906044820190565b03816000885af1908115610452578593604492610a42575b50600154169160006040519586948593845260048401527fffffffffffffffffffffffffffffffffffffffffffffffffffffffffffffffff60248401525af180156104525761042a57005b610a5890853d871161044b5761044181836116cf565b50866109f7565b346101b55760006003193601126101b5576020600454604051908152f35b346101b55760006003193601126101b557602073ffffffffffffffffffffffffffffffffffffffff60025416604051908152f35b346101b55760006003193601126101b5576020600754604051908152f35b346101b55760006003193601126101b557610ae861175c565b600073ffffffffffffffffffffffffffffffffffffffff81547fffffffffffffffffffffffff000000000000000000000000000000000000000081168355167f8be0079c531659141344cd1fd0a4f28419497f9722a3daafe3b4186f6b6457e08280a3005b346101b55760406003193601126101b557610b66611689565b5060243560005260096020526020604060002054604051908152f35b346101b55760a06003193601126101b557610b9b611689565b610ba36116ac565b6044359073ffffffffffffffffffffffffffffffffffffffff808316908184036101b557610bcf61174a565b946084359162ffffff831683036101b557610be861175c565b8082166040517f70a082310000000000000000000000000000000000000000000000000000000081523060048201526020988982602481865afa91821561045257600092610e00575b508360015416948a604051809581600081610c97897f095ea7b3000000000000000000000000000000000000000000000000000000009d8e8452600484016020909392919373ffffffffffffffffffffffffffffffffffffffff60408201951681520152565b03925af190811561045257610cbb8a92610cc0968e600092610de3575b50506119b8565b611a1d565b918215610d8557600154604051918252821673ffffffffffffffffffffffffffffffffffffffff166004820152602481018390529291908790849060449082906000908a165af1918215610452576000968896610cbb610d2a956024978b91610d68575b506119b8565b60405194859384927f42966c6800000000000000000000000000000000000000000000000000000000845260048401525af180156104525761042a57005b610d7f91508a3d8c1161044b5761044181836116cf565b8c610d24565b606488604051907f08c379a00000000000000000000000000000000000000000000000000000000082526004820152601060248201527f4e6f20746f6b656e7320626f75676874000000000000000000000000000000006044820152fd5b610df99250803d1061044b5761044181836116cf565b8e8e610cb4565b9091508981813d8311610e28575b610e1881836116cf565b810103126101b55751908a610c31565b503d610e0e565b346101b5576020806003193601126101b557610e49611689565b9062015180610e5a60065442611966565b106110dd57600754801561107f576004548082029082820403610f965773ffffffffffffffffffffffffffffffffffffffff91612710610eaa920490610ea2826008546117db565b600855611966565b9216604051927fb5cb15f70000000000000000000000000000000000000000000000000000000084528284600481855afa93841561045257600094611050575b508315610ff2578390049160005b848110610f0a57426006556000600755005b6040517f5b5cf50a0000000000000000000000000000000000000000000000000000000081528160048201528281602481875afa90811561045257600091610fc5575b50600052600982526040600020610f658582546117db565b90557fffffffffffffffffffffffffffffffffffffffffffffffffffffffffffffffff8114610f9657600101610ef8565b7f4e487b7100000000000000000000000000000000000000000000000000000000600052601160045260246000fd5b90508281813d8311610feb575b610fdc81836116cf565b810103126101b5575186610f4d565b503d610fd2565b606483604051907f08c379a00000000000000000000000000000000000000000000000000000000082526004820152601960248201527f4e6f20757365727320746f206469737472696275746520746f000000000000006044820152fd5b9093508281813d8311611078575b61106881836116cf565b810103126101b557519284610eea565b503d61105e565b606482604051907f08c379a00000000000000000000000000000000000000000000000000000000082526004820152601860248201527f4e6f2064697374726962757461626c652062616c616e636500000000000000006044820152fd5b606490604051907f08c379a00000000000000000000000000000000000000000000000000000000082526004820152601e60248201527f43616e206f6e6c792064697374726962757465206f6e636520612064617900006044820152fd5b346101b55760606003193601126101b557611154611689565b73ffffffffffffffffffffffffffffffffffffffff6111716116ac565b9161117a61175c565b6040517fa9059cbb00000000000000000000000000000000000000000000000000000000602080830191825273ffffffffffffffffffffffffffffffffffffffff95909516602483015260448035818401528252929091166111dd6064836116cf565b604051916040830183811067ffffffffffffffff821117610807576040528483527f5361666545524332303a206c6f772d6c6576656c2063616c6c206661696c6564838601525161123f93600091829182855af1611239611800565b91611830565b8051908282159283156112db575b5050501561125757005b608490604051907f08c379a00000000000000000000000000000000000000000000000000000000082526004820152602a60248201527f5361666545524332303a204552433230206f7065726174696f6e20646964206e60448201527f6f742073756363656564000000000000000000000000000000000000000000006064820152fd5b6112eb93508201810191016117e8565b82828161124d565b346101b55760206003193601126101b55773ffffffffffffffffffffffffffffffffffffffff611321611689565b61132961175c565b167fffffffffffffffffffffffff00000000000000000000000000000000000000006001541617600155600080f35b346101b55760206003193601126101b55761137161175c565b600435600555005b346101b55760a06003193601126101b557611392611689565b5061139b6116ac565b67ffffffffffffffff6044358181116101b557366023820112156101b5578060040135926113c884611710565b906113d660405192836116cf565b8482526020948583019336602483830101116101b5578160009260248993018737840101526064359073ffffffffffffffffffffffffffffffffffffffff948583168093036101b557600086936084359360405180968180947f7276069d00000000000000000000000000000000000000000000000000000000825260606004830152611466606483018c611923565b9060248301528860448301520392165afa90811561045257600093600092611543575b50506040818051810103126101b557868101519586168096036101b55760400151036114e557849360009384938387869551910120845260098752604084209081549687925551925af1506114dc611800565b50604051908152f35b606485604051907f08c379a00000000000000000000000000000000000000000000000000000000082526004820152600e60248201527f4e6f742053616d65204e6f6e63650000000000000000000000000000000000006044820152fd5b915092503d806000833e61155781836116cf565b81016080828203126101b55781518481116101b55781611578918401611973565b9360608301519081116101b55761158f9201611973565b8780611489565b346101b55760206003193601126101b5576115af61175c565b600480359055005b346101b55760006003193601126101b5576020600654604051908152f35b346101b55760006003193601126101b557602073ffffffffffffffffffffffffffffffffffffffff60035416604051908152f35b346101b55760406003193601126101b55760043573ffffffffffffffffffffffffffffffffffffffff81168091036101b5576000808080936024359061164d61175c565b82821561165d575bf11561045257005b506108fc611655565b346101b55760006003193601126101b55760209060ff60005460a01c1615158152f35b6004359073ffffffffffffffffffffffffffffffffffffffff821682036101b557565b6024359073ffffffffffffffffffffffffffffffffffffffff821682036101b557565b90601f7fffffffffffffffffffffffffffffffffffffffffffffffffffffffffffffffe0910116810190811067ffffffffffffffff82111761080757604052565b67ffffffffffffffff811161080757601f017fffffffffffffffffffffffffffffffffffffffffffffffffffffffffffffffe01660200190565b6064359062ffffff821682036101b557565b73ffffffffffffffffffffffffffffffffffffffff60005416330361177d57565b60646040517f08c379a000000000000000000000000000000000000000000000000000000000815260206004820152602060248201527f4f776e61626c653a2063616c6c6572206973206e6f7420746865206f776e65726044820152fd5b91908201809211610f9657565b908160209103126101b5575180151581036101b55790565b3d1561182b573d9061181182611710565b9161181f60405193846116cf565b82523d6000602084013e565b606090565b919290156118ab5750815115611844575090565b3b1561184d5790565b60646040517f08c379a000000000000000000000000000000000000000000000000000000000815260206004820152601d60248201527f416464726573733a2063616c6c20746f206e6f6e2d636f6e74726163740000006044820152fd5b8251909150156118be5750805190602001fd5b6118fc906040519182917f08c379a0000000000000000000000000000000000000000000000000000000008352602060048401526024830190611923565b0390fd5b60005b8381106119135750506000910152565b8181015183820152602001611903565b907fffffffffffffffffffffffffffffffffffffffffffffffffffffffffffffffe0601f60209361195f81518092818752878088019101611900565b0116010190565b91908203918211610f9657565b81601f820112156101b557805161198981611710565b9261199760405194856116cf565b818452602082840101116101b5576119b59160208085019101611900565b90565b156119bf57565b60646040517f08c379a000000000000000000000000000000000000000000000000000000000815260206004820152600e60248201527f417070726f7665206661696c65640000000000000000000000000000000000006044820152fd5b600154604080517f095ea7b300000000000000000000000000000000000000000000000000000000815273ffffffffffffffffffffffffffffffffffffffff92831660048201526024810187905290959290911691906020816044816000875af18015611c4c57611c2d575b50600a4201804211610f9657855192610100840184811067ffffffffffffffff8211176108075787528352602083019373ffffffffffffffffffffffffffffffffffffffff1684528583019462ffffff16855260608301913083526080840191825260a0840190815260c08401906000825260e08501926000845260015473ffffffffffffffffffffffffffffffffffffffff1694895198899889987f414bf389000000000000000000000000000000000000000000000000000000008a525173ffffffffffffffffffffffffffffffffffffffff1660048a01525173ffffffffffffffffffffffffffffffffffffffff1660248901525162ffffff1660448801525173ffffffffffffffffffffffffffffffffffffffff1660648701525160848601525160a48501525160c48401525173ffffffffffffffffffffffffffffffffffffffff1660e48301525a92600061010492602095f1918215611c235750600091611bf4575090565b90506020813d602011611c1b575b81611c0f602093836116cf565b810103126101b5575190565b3d9150611c02565b513d6000823e3d90fd5b611c459060203d60201161044b5761044181836116cf565b5038611a89565b86513d6000823e3d90fdfea2646970667358221220d010b79f34f74b06ecc2dc4b6f953e4ef5c1f4dd194c7d903e06b0aac1727bad64736f6c63430008130033",
  "linkReferences": {},
  "deployedLinkReferences": {}
}