{
  "_format": "hh-sol-artifact-1",
  "contractName": "MecenateTreasury",
  "sourceName": "contracts/MecenateTreasury.sol",
  "abi": [
    {
      "anonymous": false,
      "inputs": [
        {
          "indexed": true,
          "internalType": "address",
          "name": "previousOwner",
          "type": "address"
        },
        {
          "indexed": true,
          "internalType": "address",
          "name": "newOwner",
          "type": "address"
        }
      ],
      "name": "OwnershipTransferred",
      "type": "event"
    },
    {
      "inputs": [],
      "name": "addFunds",
      "outputs": [],
      "stateMutability": "payable",
      "type": "function"
    },
    {
      "inputs": [
        {
          "internalType": "address",
          "name": "tokenA",
          "type": "address"
        },
        {
          "internalType": "address",
          "name": "tokenB",
          "type": "address"
        },
        {
          "internalType": "uint24",
          "name": "fee",
          "type": "uint24"
        },
        {
          "internalType": "uint256",
          "name": "amountA",
          "type": "uint256"
        },
        {
          "internalType": "uint256",
          "name": "amountB",
          "type": "uint256"
        },
        {
          "internalType": "int24",
          "name": "tickLower",
          "type": "int24"
        },
        {
          "internalType": "int24",
          "name": "tickUpper",
          "type": "int24"
        }
      ],
      "name": "addLiquidity",
      "outputs": [],
      "stateMutability": "nonpayable",
      "type": "function"
    },
    {
      "inputs": [
        {
          "internalType": "address",
          "name": "_native",
          "type": "address"
        },
        {
          "internalType": "contract ISwapRouter",
          "name": "_swapRouter",
          "type": "address"
        }
      ],
      "name": "configLiquidityProvider",
      "outputs": [],
      "stateMutability": "nonpayable",
      "type": "function"
    },
    {
      "inputs": [
        {
          "internalType": "address",
          "name": "_token",
          "type": "address"
        },
        {
          "internalType": "uint256",
          "name": "_amount",
          "type": "uint256"
        }
      ],
      "name": "customApprove",
      "outputs": [],
      "stateMutability": "nonpayable",
      "type": "function"
    },
    {
      "inputs": [],
      "name": "distributableBalance",
      "outputs": [
        {
          "internalType": "uint256",
          "name": "",
          "type": "uint256"
        }
      ],
      "stateMutability": "view",
      "type": "function"
    },
    {
      "inputs": [
        {
          "internalType": "address",
          "name": "_usersContract",
          "type": "address"
        }
      ],
      "name": "distribute",
      "outputs": [],
      "stateMutability": "nonpayable",
      "type": "function"
    },
    {
      "inputs": [],
      "name": "fixedFee",
      "outputs": [
        {
          "internalType": "uint256",
          "name": "",
          "type": "uint256"
        }
      ],
      "stateMutability": "view",
      "type": "function"
    },
    {
      "inputs": [
        {
          "internalType": "address",
          "name": "_verifierContract",
          "type": "address"
        },
        {
          "internalType": "bytes32",
          "name": "encryptedVaultId",
          "type": "bytes32"
        }
      ],
      "name": "getReward",
      "outputs": [
        {
          "internalType": "uint256",
          "name": "",
          "type": "uint256"
        }
      ],
      "stateMutability": "view",
      "type": "function"
    },
    {
      "inputs": [],
      "name": "globalFee",
      "outputs": [
        {
          "internalType": "uint256",
          "name": "",
          "type": "uint256"
        }
      ],
      "stateMutability": "view",
      "type": "function"
    },
    {
      "inputs": [],
      "name": "lastDistributed",
      "outputs": [
        {
          "internalType": "uint256",
          "name": "",
          "type": "uint256"
        }
      ],
      "stateMutability": "view",
      "type": "function"
    },
    {
      "inputs": [],
      "name": "native",
      "outputs": [
        {
          "internalType": "address",
          "name": "",
          "type": "address"
        }
      ],
      "stateMutability": "view",
      "type": "function"
    },
    {
      "inputs": [],
      "name": "owner",
      "outputs": [
        {
          "internalType": "address",
          "name": "",
          "type": "address"
        }
      ],
      "stateMutability": "view",
      "type": "function"
    },
    {
      "inputs": [],
      "name": "ownerFee",
      "outputs": [
        {
          "internalType": "uint256",
          "name": "",
          "type": "uint256"
        }
      ],
      "stateMutability": "view",
      "type": "function"
    },
    {
      "inputs": [],
      "name": "positionManager",
      "outputs": [
        {
          "internalType": "contract INonfungiblePositionManager",
          "name": "",
          "type": "address"
        }
      ],
      "stateMutability": "view",
      "type": "function"
    },
    {
      "inputs": [],
      "name": "renounceOwnership",
      "outputs": [],
      "stateMutability": "nonpayable",
      "type": "function"
    },
    {
      "inputs": [
        {
          "internalType": "uint256",
          "name": "_fixedFee",
          "type": "uint256"
        }
      ],
      "name": "setFixedFee",
      "outputs": [],
      "stateMutability": "nonpayable",
      "type": "function"
    },
    {
      "inputs": [
        {
          "internalType": "uint256",
          "name": "_globalFee",
          "type": "uint256"
        }
      ],
      "name": "setGlobalFee",
      "outputs": [],
      "stateMutability": "nonpayable",
      "type": "function"
    },
    {
      "inputs": [
        {
          "internalType": "bool",
          "name": "_splitLiquidity",
          "type": "bool"
        }
      ],
      "name": "setSplitLiqudity",
      "outputs": [
        {
          "internalType": "bool",
          "name": "",
          "type": "bool"
        }
      ],
      "stateMutability": "nonpayable",
      "type": "function"
    },
    {
      "inputs": [],
      "name": "splitLiquidity",
      "outputs": [
        {
          "internalType": "bool",
          "name": "",
          "type": "bool"
        }
      ],
      "stateMutability": "view",
      "type": "function"
    },
    {
      "inputs": [],
      "name": "swapRouter",
      "outputs": [
        {
          "internalType": "contract ISwapRouter",
          "name": "",
          "type": "address"
        }
      ],
      "stateMutability": "view",
      "type": "function"
    },
    {
      "inputs": [
        {
          "internalType": "address",
          "name": "token1",
          "type": "address"
        },
        {
          "internalType": "address",
          "name": "token2",
          "type": "address"
        },
        {
          "internalType": "uint256",
          "name": "amount",
          "type": "uint256"
        },
        {
          "internalType": "uint24",
          "name": "fee",
          "type": "uint24"
        }
      ],
      "name": "swapTokensForTokens",
      "outputs": [
        {
          "internalType": "uint256",
          "name": "",
          "type": "uint256"
        }
      ],
      "stateMutability": "nonpayable",
      "type": "function"
    },
    {
      "inputs": [
        {
          "internalType": "address",
          "name": "_receiver",
          "type": "address"
        },
        {
          "internalType": "address",
          "name": "_verifierContract",
          "type": "address"
        },
        {
          "internalType": "bytes",
          "name": "sismoConnectResponse",
          "type": "bytes"
        },
        {
          "internalType": "address",
          "name": "_to",
          "type": "address"
        },
        {
          "internalType": "bytes32",
          "name": "_nonce",
          "type": "bytes32"
        }
      ],
      "name": "takeReward",
      "outputs": [
        {
          "internalType": "uint256",
          "name": "",
          "type": "uint256"
        }
      ],
      "stateMutability": "nonpayable",
      "type": "function"
    },
    {
      "inputs": [
        {
          "internalType": "address",
          "name": "newOwner",
          "type": "address"
        }
      ],
      "name": "transferOwnership",
      "outputs": [],
      "stateMutability": "nonpayable",
      "type": "function"
    },
    {
      "inputs": [
        {
          "internalType": "bytes32",
          "name": "",
          "type": "bytes32"
        }
      ],
      "name": "userReward",
      "outputs": [
        {
          "internalType": "uint256",
          "name": "",
          "type": "uint256"
        }
      ],
      "stateMutability": "view",
      "type": "function"
    },
    {
      "inputs": [
        {
          "internalType": "address payable",
          "name": "_to",
          "type": "address"
        },
        {
          "internalType": "uint256",
          "name": "_amount",
          "type": "uint256"
        }
      ],
      "name": "withdrawNative",
      "outputs": [],
      "stateMutability": "nonpayable",
      "type": "function"
    },
    {
      "inputs": [
        {
          "internalType": "address",
          "name": "_token",
          "type": "address"
        },
        {
          "internalType": "address",
          "name": "_to",
          "type": "address"
        },
        {
          "internalType": "uint256",
          "name": "_amount",
          "type": "uint256"
        }
      ],
      "name": "withdrawTokens",
      "outputs": [],
      "stateMutability": "nonpayable",
      "type": "function"
    },
    {
      "stateMutability": "payable",
      "type": "receive"
    }
  ],
  "bytecode": "0x6080806040523461006b5760008054336001600160a01b0319821681178355916001600160a01b03909116907f8be0079c531659141344cd1fd0a4f28419497f9722a3daafe3b4186f6b6457e09080a36064600455662386f26fc100006005556118b890816100718239f35b600080fdfe608080604052600436101561002c575b50361561001b57600080fd5b610027346007546116a5565b600755005b60003560e01c90816305f6059d146115425750806307b18bde146114e557806311b0b42d146114b15780631fce07d514611493578063291206f61461147257806337d8af2b1461125557806337de8106146112345780635e35359e1461107c57806363453ae114610d9f5780636c8d424f14610d6a578063715018a614610cec5780637450bce914610cce578063791b98bc14610c9a578063808fc20614610c7c57806385258b4b14610b715780638da5cb5b14610b3d5780638f3a899a14610ac757806391792d5b14610aa9578063a26759cb14610a91578063afbce84e14610745578063b51ed1f414610719578063c31c9c07146106e5578063d5b2a01a146106c7578063e266294314610537578063f2fde38b146104205763fc99d28f14610157573861000f565b3461037a57608060031936011261037a57610170611565565b610178611588565b6044356064359262ffffff9081851680950361037a5773ffffffffffffffffffffffffffffffffffffffff906101ac611626565b6001546040517f095ea7b300000000000000000000000000000000000000000000000000000000815273ffffffffffffffffffffffffffffffffffffffff909116600482015260248101859052911691906020816044816000875af18015610387576103f1575b50600a4201928342116103c2576040519361010085019685881067ffffffffffffffff8911176103935773ffffffffffffffffffffffffffffffffffffffff6020976101049660e09a604052885216878701526040860152306060860152608085015260a0840152600060c0840152600085840152600073ffffffffffffffffffffffffffffffffffffffff6001541673ffffffffffffffffffffffffffffffffffffffff60405197889687957f414bf389000000000000000000000000000000000000000000000000000000008752838251166004880152838a83015116602488015260408201511660448701528260608201511660648701526080810151608487015260a081015160a487015260c081015160c487015201511660e48401525af180156103875760009061034f575b602090604051908152f35b506020813d60201161037f575b81610369602093836115ab565b8101031261037a5760209051610344565b600080fd5b3d915061035c565b6040513d6000823e3d90fd5b7f4e487b7100000000000000000000000000000000000000000000000000000000600052604160045260246000fd5b7f4e487b7100000000000000000000000000000000000000000000000000000000600052601160045260246000fd5b6104129060203d602011610419575b61040a81836115ab565b8101906116b2565b5038610213565b503d610400565b3461037a57602060031936011261037a57610439611565565b610441611626565b73ffffffffffffffffffffffffffffffffffffffff8091169081156104b357600054827fffffffffffffffffffffffff0000000000000000000000000000000000000000821617600055167f8be0079c531659141344cd1fd0a4f28419497f9722a3daafe3b4186f6b6457e0600080a3005b60846040517f08c379a000000000000000000000000000000000000000000000000000000000815260206004820152602660248201527f4f776e61626c653a206e6577206f776e657220697320746865207a65726f206160448201527f64647265737300000000000000000000000000000000000000000000000000006064820152fd5b3461037a57604060031936011261037a57610550611565565b60243573ffffffffffffffffffffffffffffffffffffffff9081811680910361037a578160009361057f611626565b1690807fffffffffffffffffffffffff0000000000000000000000000000000000000000838160035416176003556001541617600155740100000000000000000000000000000000000000007fffffffffffffffffffffff00ffffffffffffffffffffffffffffffffffffffff855416178455604051917f095ea7b3000000000000000000000000000000000000000000000000000000009182845260048401528460248401528260448160209788945af19182156103875784926106aa575b506044836003541693600154169160006040519586948593845260048401527fffffffffffffffffffffffffffffffffffffffffffffffffffffffffffffffff60248401525af180156103875761069257005b816106a892903d106104195761040a81836115ab565b005b6106c090833d85116104195761040a81836115ab565b508461063f565b3461037a57600060031936011261037a576020600854604051908152f35b3461037a57600060031936011261037a57602073ffffffffffffffffffffffffffffffffffffffff60015416604051908152f35b3461037a57602060031936011261037a5760043560005260096020526020604060002054604051908152f35b3461037a5760e060031936011261037a5761075e611565565b610766611588565b6044359062ffffff821680920361037a5760a4358060020b80910361037a5760c435918260020b80930361037a576107fd906107a0611626565b6002546040517f095ea7b300000000000000000000000000000000000000000000000000000000815273ffffffffffffffffffffffffffffffffffffffff9182166004820152606435602482015292602091849182906044820190565b039816978160008a5af19182156103875773ffffffffffffffffffffffffffffffffffffffff92610a72575b506002546040517f095ea7b300000000000000000000000000000000000000000000000000000000815273ffffffffffffffffffffffffffffffffffffffff909116600482015260843560248201819052959291909116906020816044816000865af1801561038757610a53575b5060405195610160870187811067ffffffffffffffff821117610393576040528652602086015260408501526060840152608083015260643560a083015260c0820152600060e082015260006101008201523061012082015242610140820152608061014061016473ffffffffffffffffffffffffffffffffffffffff6002541693600060405195869485937f8831645600000000000000000000000000000000000000000000000000000000855273ffffffffffffffffffffffffffffffffffffffff815116600486015273ffffffffffffffffffffffffffffffffffffffff602082015116602486015262ffffff6040820151166044860152606081015160020b60648601528781015160020b608486015260a081015160a486015260c081015160c486015260e081015160e486015261010081015161010486015273ffffffffffffffffffffffffffffffffffffffff6101208201511661012486015201516101448401525af1801561038757610a0d57005b6080813d8211610a4b575b81610a25608093836115ab565b8101031261037a57602001516fffffffffffffffffffffffffffffffff81160361037a57005b3d9150610a18565b610a6b9060203d6020116104195761040a81836115ab565b5086610897565b610a8a9060203d6020116104195761040a81836115ab565b5086610829565b600060031936011261037a57610027346007546116a5565b3461037a57600060031936011261037a576020600554604051908152f35b3461037a57602060031936011261037a5760043580151580910361037a57610aed611626565b7fffffffffffffffffffffff00ffffffffffffffffffffffffffffffffffffffff74ff00000000000000000000000000000000000000006000549260a01b16911617600055602060405160018152f35b3461037a57600060031936011261037a57602073ffffffffffffffffffffffffffffffffffffffff60005416604051908152f35b3461037a57604060031936011261037a57610bfc610b8d611565565b610b95611626565b6001546040517f095ea7b30000000000000000000000000000000000000000000000000000000080825273ffffffffffffffffffffffffffffffffffffffff9283166004830152602480359083015260209493831693919290918590849081906044820190565b03816000885af1908115610387578593604492610c5f575b50600154169160006040519586948593845260048401527fffffffffffffffffffffffffffffffffffffffffffffffffffffffffffffffff60248401525af180156103875761069257005b610c7590853d87116104195761040a81836115ab565b5086610c14565b3461037a57600060031936011261037a576020600454604051908152f35b3461037a57600060031936011261037a57602073ffffffffffffffffffffffffffffffffffffffff60025416604051908152f35b3461037a57600060031936011261037a576020600754604051908152f35b3461037a57600060031936011261037a57610d05611626565b600073ffffffffffffffffffffffffffffffffffffffff81547fffffffffffffffffffffffff000000000000000000000000000000000000000081168355167f8be0079c531659141344cd1fd0a4f28419497f9722a3daafe3b4186f6b6457e08280a3005b3461037a57604060031936011261037a57610d83611565565b5060243560005260096020526020604060002054604051908152f35b3461037a5760208060031936011261037a57610db9611565565b9062015180610dca60065442611830565b1061101e576007548015610fc05760045480820290828204036103c25773ffffffffffffffffffffffffffffffffffffffff91612710610e1a920490610e12826008546116a5565b600855611830565b9216604051927fb5cb15f70000000000000000000000000000000000000000000000000000000084528284600481855afa93841561038757600094610f91575b508315610f33578390049160005b848110610e7a57426006556000600755005b6040517f5b5cf50a0000000000000000000000000000000000000000000000000000000081528160048201528281602481875afa90811561038757600091610f06575b50600052600982526040600020610ed58582546116a5565b90557fffffffffffffffffffffffffffffffffffffffffffffffffffffffffffffffff81146103c257600101610e68565b90508281813d8311610f2c575b610f1d81836115ab565b8101031261037a575186610ebd565b503d610f13565b606483604051907f08c379a00000000000000000000000000000000000000000000000000000000082526004820152601960248201527f4e6f20757365727320746f206469737472696275746520746f000000000000006044820152fd5b9093508281813d8311610fb9575b610fa981836115ab565b8101031261037a57519284610e5a565b503d610f9f565b606482604051907f08c379a00000000000000000000000000000000000000000000000000000000082526004820152601860248201527f4e6f2064697374726962757461626c652062616c616e636500000000000000006044820152fd5b606490604051907f08c379a00000000000000000000000000000000000000000000000000000000082526004820152601e60248201527f43616e206f6e6c792064697374726962757465206f6e636520612064617900006044820152fd5b3461037a57606060031936011261037a57611095611565565b73ffffffffffffffffffffffffffffffffffffffff6110b2611588565b916110bb611626565b6040517fa9059cbb00000000000000000000000000000000000000000000000000000000602080830191825273ffffffffffffffffffffffffffffffffffffffff959095166024830152604480358184015282529290911661111e6064836115ab565b604051916040830183811067ffffffffffffffff821117610393576040528483527f5361666545524332303a206c6f772d6c6576656c2063616c6c206661696c6564838601525161118093600091829182855af161117a6116ca565b916116fa565b80519082821592831561121c575b5050501561119857005b608490604051907f08c379a00000000000000000000000000000000000000000000000000000000082526004820152602a60248201527f5361666545524332303a204552433230206f7065726174696f6e20646964206e60448201527f6f742073756363656564000000000000000000000000000000000000000000006064820152fd5b61122c93508201810191016116b2565b82828161118e565b3461037a57602060031936011261037a5761124d611626565b600435600555005b3461037a5760a060031936011261037a5761126e611565565b50611277611588565b67ffffffffffffffff60443581811161037a573660238201121561037a578060040135926112a4846115ec565b906112b260405192836115ab565b84825260209485830193366024838301011161037a578160009260248993018737840101526064359073ffffffffffffffffffffffffffffffffffffffff9485831680930361037a57600086936084359360405180968180947f7276069d00000000000000000000000000000000000000000000000000000000825260606004830152611342606483018c6117ed565b9060248301528860448301520392165afa9081156103875760009360009261141f575b505060408180518101031261037a578681015195861680960361037a5760400151036113c157849360009384938387869551910120845260098752604084209081549687925551925af1506113b86116ca565b50604051908152f35b606485604051907f08c379a00000000000000000000000000000000000000000000000000000000082526004820152600e60248201527f4e6f742053616d65204e6f6e63650000000000000000000000000000000000006044820152fd5b915092503d806000833e61143381836115ab565b810160808282031261037a57815184811161037a578161145491840161183d565b93606083015190811161037a5761146b920161183d565b8780611365565b3461037a57602060031936011261037a5761148b611626565b600480359055005b3461037a57600060031936011261037a576020600654604051908152f35b3461037a57600060031936011261037a57602073ffffffffffffffffffffffffffffffffffffffff60035416604051908152f35b3461037a57604060031936011261037a5760043573ffffffffffffffffffffffffffffffffffffffff811680910361037a5760008080809360243590611529611626565b828215611539575bf11561038757005b506108fc611531565b3461037a57600060031936011261037a5760209060ff60005460a01c1615158152f35b6004359073ffffffffffffffffffffffffffffffffffffffff8216820361037a57565b6024359073ffffffffffffffffffffffffffffffffffffffff8216820361037a57565b90601f7fffffffffffffffffffffffffffffffffffffffffffffffffffffffffffffffe0910116810190811067ffffffffffffffff82111761039357604052565b67ffffffffffffffff811161039357601f017fffffffffffffffffffffffffffffffffffffffffffffffffffffffffffffffe01660200190565b73ffffffffffffffffffffffffffffffffffffffff60005416330361164757565b60646040517f08c379a000000000000000000000000000000000000000000000000000000000815260206004820152602060248201527f4f776e61626c653a2063616c6c6572206973206e6f7420746865206f776e65726044820152fd5b919082018092116103c257565b9081602091031261037a5751801515810361037a5790565b3d156116f5573d906116db826115ec565b916116e960405193846115ab565b82523d6000602084013e565b606090565b91929015611775575081511561170e575090565b3b156117175790565b60646040517f08c379a000000000000000000000000000000000000000000000000000000000815260206004820152601d60248201527f416464726573733a2063616c6c20746f206e6f6e2d636f6e74726163740000006044820152fd5b8251909150156117885750805190602001fd5b6117c6906040519182917f08c379a00000000000000000000000000000000000000000000000000000000083526020600484015260248301906117ed565b0390fd5b60005b8381106117dd5750506000910152565b81810151838201526020016117cd565b907fffffffffffffffffffffffffffffffffffffffffffffffffffffffffffffffe0601f602093611829815180928187528780880191016117ca565b0116010190565b919082039182116103c257565b81601f8201121561037a578051611853816115ec565b9261186160405194856115ab565b8184526020828401011161037a5761187f91602080850191016117ca565b9056fea264697066735822122004926f19a3fc6127ae34807347c8a4c4a3f2429095c9b6b6bb1ce747eb5250e764736f6c63430008130033",
  "linkReferences": {},
  "deployedLinkReferences": {}
}