{
  "_format": "hh-sol-artifact-1",
  "contractName": "MecenateTreasury",
  "sourceName": "contracts/MecenateTreasury.sol",
  "abi": [
    {
      "anonymous": false,
      "inputs": [
        {
          "indexed": true,
          "internalType": "address",
          "name": "previousOwner",
          "type": "address"
        },
        {
          "indexed": true,
          "internalType": "address",
          "name": "newOwner",
          "type": "address"
        }
      ],
      "name": "OwnershipTransferred",
      "type": "event"
    },
    {
      "inputs": [
        {
          "internalType": "address",
          "name": "token",
          "type": "address"
        },
        {
          "internalType": "uint256",
          "name": "amount",
          "type": "uint256"
        }
      ],
      "name": "addERC20Funds",
      "outputs": [],
      "stateMutability": "nonpayable",
      "type": "function"
    },
    {
      "inputs": [],
      "name": "addFunds",
      "outputs": [],
      "stateMutability": "payable",
      "type": "function"
    },
    {
      "inputs": [
        {
          "internalType": "address",
          "name": "tokenA",
          "type": "address"
        },
        {
          "internalType": "address",
          "name": "tokenB",
          "type": "address"
        },
        {
          "internalType": "uint24",
          "name": "fee",
          "type": "uint24"
        },
        {
          "internalType": "uint256",
          "name": "amountA",
          "type": "uint256"
        },
        {
          "internalType": "uint256",
          "name": "amountB",
          "type": "uint256"
        },
        {
          "internalType": "int24",
          "name": "tickLower",
          "type": "int24"
        },
        {
          "internalType": "int24",
          "name": "tickUpper",
          "type": "int24"
        }
      ],
      "name": "addLiquidity",
      "outputs": [],
      "stateMutability": "nonpayable",
      "type": "function"
    },
    {
      "inputs": [
        {
          "internalType": "address",
          "name": "_native",
          "type": "address"
        },
        {
          "internalType": "contract ISwapRouter",
          "name": "_swapRouter",
          "type": "address"
        }
      ],
      "name": "configLiquidityProvider",
      "outputs": [],
      "stateMutability": "nonpayable",
      "type": "function"
    },
    {
      "inputs": [
        {
          "internalType": "address",
          "name": "_token",
          "type": "address"
        },
        {
          "internalType": "uint256",
          "name": "_amount",
          "type": "uint256"
        }
      ],
      "name": "customApprove",
      "outputs": [],
      "stateMutability": "nonpayable",
      "type": "function"
    },
    {
      "inputs": [],
      "name": "distributableBalance",
      "outputs": [
        {
          "internalType": "uint256",
          "name": "",
          "type": "uint256"
        }
      ],
      "stateMutability": "view",
      "type": "function"
    },
    {
      "inputs": [
        {
          "internalType": "address",
          "name": "",
          "type": "address"
        }
      ],
      "name": "distributableERC20Balance",
      "outputs": [
        {
          "internalType": "uint256",
          "name": "",
          "type": "uint256"
        }
      ],
      "stateMutability": "view",
      "type": "function"
    },
    {
      "inputs": [
        {
          "internalType": "address",
          "name": "_usersContract",
          "type": "address"
        }
      ],
      "name": "distribute",
      "outputs": [],
      "stateMutability": "nonpayable",
      "type": "function"
    },
    {
      "inputs": [
        {
          "internalType": "address",
          "name": "token",
          "type": "address"
        },
        {
          "internalType": "address",
          "name": "_usersContract",
          "type": "address"
        }
      ],
      "name": "distributeERC20",
      "outputs": [],
      "stateMutability": "nonpayable",
      "type": "function"
    },
    {
      "inputs": [],
      "name": "fixedFee",
      "outputs": [
        {
          "internalType": "uint256",
          "name": "",
          "type": "uint256"
        }
      ],
      "stateMutability": "view",
      "type": "function"
    },
    {
      "inputs": [],
      "name": "getDistributionBalance",
      "outputs": [
        {
          "internalType": "uint256",
          "name": "",
          "type": "uint256"
        }
      ],
      "stateMutability": "view",
      "type": "function"
    },
    {
      "inputs": [
        {
          "internalType": "address",
          "name": "token",
          "type": "address"
        }
      ],
      "name": "getDistributionERC20Balance",
      "outputs": [
        {
          "internalType": "uint256",
          "name": "",
          "type": "uint256"
        }
      ],
      "stateMutability": "view",
      "type": "function"
    },
    {
      "inputs": [
        {
          "internalType": "address",
          "name": "_verifierContract",
          "type": "address"
        },
        {
          "internalType": "bytes32",
          "name": "encryptedVaultId",
          "type": "bytes32"
        }
      ],
      "name": "getReward",
      "outputs": [
        {
          "internalType": "uint256",
          "name": "",
          "type": "uint256"
        }
      ],
      "stateMutability": "view",
      "type": "function"
    },
    {
      "inputs": [
        {
          "internalType": "address",
          "name": "_token",
          "type": "address"
        },
        {
          "internalType": "address",
          "name": "_verifierContract",
          "type": "address"
        },
        {
          "internalType": "bytes32",
          "name": "encryptedVaultId",
          "type": "bytes32"
        }
      ],
      "name": "getRewardERC20",
      "outputs": [
        {
          "internalType": "uint256",
          "name": "",
          "type": "uint256"
        }
      ],
      "stateMutability": "view",
      "type": "function"
    },
    {
      "inputs": [],
      "name": "globalFee",
      "outputs": [
        {
          "internalType": "uint256",
          "name": "",
          "type": "uint256"
        }
      ],
      "stateMutability": "view",
      "type": "function"
    },
    {
      "inputs": [],
      "name": "lastDistributed",
      "outputs": [
        {
          "internalType": "uint256",
          "name": "",
          "type": "uint256"
        }
      ],
      "stateMutability": "view",
      "type": "function"
    },
    {
      "inputs": [],
      "name": "native",
      "outputs": [
        {
          "internalType": "address",
          "name": "",
          "type": "address"
        }
      ],
      "stateMutability": "view",
      "type": "function"
    },
    {
      "inputs": [],
      "name": "owner",
      "outputs": [
        {
          "internalType": "address",
          "name": "",
          "type": "address"
        }
      ],
      "stateMutability": "view",
      "type": "function"
    },
    {
      "inputs": [],
      "name": "ownerFee",
      "outputs": [
        {
          "internalType": "uint256",
          "name": "",
          "type": "uint256"
        }
      ],
      "stateMutability": "view",
      "type": "function"
    },
    {
      "inputs": [],
      "name": "positionManager",
      "outputs": [
        {
          "internalType": "contract INonfungiblePositionManager",
          "name": "",
          "type": "address"
        }
      ],
      "stateMutability": "view",
      "type": "function"
    },
    {
      "inputs": [],
      "name": "renounceOwnership",
      "outputs": [],
      "stateMutability": "nonpayable",
      "type": "function"
    },
    {
      "inputs": [
        {
          "internalType": "uint256",
          "name": "_fixedFee",
          "type": "uint256"
        }
      ],
      "name": "setFixedFee",
      "outputs": [],
      "stateMutability": "nonpayable",
      "type": "function"
    },
    {
      "inputs": [
        {
          "internalType": "uint256",
          "name": "_globalFee",
          "type": "uint256"
        }
      ],
      "name": "setGlobalFee",
      "outputs": [],
      "stateMutability": "nonpayable",
      "type": "function"
    },
    {
      "inputs": [
        {
          "internalType": "bool",
          "name": "_splitLiquidity",
          "type": "bool"
        }
      ],
      "name": "setSplitLiqudity",
      "outputs": [
        {
          "internalType": "bool",
          "name": "",
          "type": "bool"
        }
      ],
      "stateMutability": "nonpayable",
      "type": "function"
    },
    {
      "inputs": [
        {
          "internalType": "contract ISwapRouter",
          "name": "_swapRouter",
          "type": "address"
        }
      ],
      "name": "setSwapRouter",
      "outputs": [],
      "stateMutability": "nonpayable",
      "type": "function"
    },
    {
      "inputs": [],
      "name": "splitLiquidity",
      "outputs": [
        {
          "internalType": "bool",
          "name": "",
          "type": "bool"
        }
      ],
      "stateMutability": "view",
      "type": "function"
    },
    {
      "inputs": [
        {
          "internalType": "address",
          "name": "_token0",
          "type": "address"
        },
        {
          "internalType": "address",
          "name": "_token1",
          "type": "address"
        },
        {
          "internalType": "address",
          "name": "_token2",
          "type": "address"
        },
        {
          "internalType": "uint24",
          "name": "_fee",
          "type": "uint24"
        },
        {
          "internalType": "uint24",
          "name": "_fee2",
          "type": "uint24"
        }
      ],
      "name": "swapAndBurn",
      "outputs": [],
      "stateMutability": "nonpayable",
      "type": "function"
    },
    {
      "inputs": [],
      "name": "swapRouter",
      "outputs": [
        {
          "internalType": "contract ISwapRouter",
          "name": "",
          "type": "address"
        }
      ],
      "stateMutability": "view",
      "type": "function"
    },
    {
      "inputs": [
        {
          "internalType": "address",
          "name": "token1",
          "type": "address"
        },
        {
          "internalType": "address",
          "name": "token2",
          "type": "address"
        },
        {
          "internalType": "uint256",
          "name": "amount",
          "type": "uint256"
        },
        {
          "internalType": "uint24",
          "name": "fee",
          "type": "uint24"
        }
      ],
      "name": "swapTokensForTokens",
      "outputs": [
        {
          "internalType": "uint256",
          "name": "",
          "type": "uint256"
        }
      ],
      "stateMutability": "nonpayable",
      "type": "function"
    },
    {
      "inputs": [
        {
          "internalType": "address",
          "name": "_receiver",
          "type": "address"
        },
        {
          "internalType": "address",
          "name": "_verifierContract",
          "type": "address"
        },
        {
          "internalType": "bytes",
          "name": "sismoConnectResponse",
          "type": "bytes"
        },
        {
          "internalType": "address",
          "name": "_to",
          "type": "address"
        },
        {
          "internalType": "bytes32",
          "name": "_nonce",
          "type": "bytes32"
        }
      ],
      "name": "takeReward",
      "outputs": [
        {
          "internalType": "uint256",
          "name": "",
          "type": "uint256"
        }
      ],
      "stateMutability": "nonpayable",
      "type": "function"
    },
    {
      "inputs": [
        {
          "internalType": "address",
          "name": "_token",
          "type": "address"
        },
        {
          "internalType": "address",
          "name": "_receiver",
          "type": "address"
        },
        {
          "internalType": "address",
          "name": "_verifierContract",
          "type": "address"
        },
        {
          "internalType": "bytes",
          "name": "sismoConnectResponse",
          "type": "bytes"
        },
        {
          "internalType": "address",
          "name": "_to",
          "type": "address"
        },
        {
          "internalType": "bytes32",
          "name": "_nonce",
          "type": "bytes32"
        }
      ],
      "name": "takeRewardERC20",
      "outputs": [
        {
          "internalType": "uint256",
          "name": "",
          "type": "uint256"
        }
      ],
      "stateMutability": "nonpayable",
      "type": "function"
    },
    {
      "inputs": [
        {
          "internalType": "address",
          "name": "newOwner",
          "type": "address"
        }
      ],
      "name": "transferOwnership",
      "outputs": [],
      "stateMutability": "nonpayable",
      "type": "function"
    },
    {
      "inputs": [
        {
          "internalType": "bytes32",
          "name": "",
          "type": "bytes32"
        }
      ],
      "name": "userReward",
      "outputs": [
        {
          "internalType": "uint256",
          "name": "",
          "type": "uint256"
        }
      ],
      "stateMutability": "view",
      "type": "function"
    },
    {
      "inputs": [
        {
          "internalType": "bytes32",
          "name": "",
          "type": "bytes32"
        },
        {
          "internalType": "address",
          "name": "",
          "type": "address"
        }
      ],
      "name": "userRewardERC20",
      "outputs": [
        {
          "internalType": "uint256",
          "name": "",
          "type": "uint256"
        }
      ],
      "stateMutability": "view",
      "type": "function"
    },
    {
      "stateMutability": "payable",
      "type": "receive"
    }
  ],
  "bytecode": "0x6080806040523461006b5760008054336001600160a01b0319821681178355916001600160a01b03909116907f8be0079c531659141344cd1fd0a4f28419497f9722a3daafe3b4186f6b6457e09080a36064600455662386f26fc10000600555611bd090816100718239f35b600080fdfe608080604052600436101561002c575b50361561001b57600080fd5b61002734600754611657565b600755005b600090813560e01c90816305f6059d146115045750806310027a28146112d557806311b0b42d146114db5780631fce07d5146114bd578063291206f61461149a57806337d8af2b1461137157806337de81061461134e578063412736571461130e578063568dbccf146112d557806363453ae1146111275780636962a86314610eca5780636c8d424f14610e97578063715018a614610e3d5780637450bce914610c80578063791b98bc14610e14578063808fc20614610df657806385258b4b14610d2e5780638da5cb5b14610d075780638f3a899a14610cbc57806391792d5b14610c9e578063932f9f8a14610c80578063a26759cb14610c62578063afbce84e146109c1578063b51ed1f414610997578063b7d25b56146106d3578063c31c9c07146106aa578063d1a06cf8146104f8578063d5b2a01a146104da578063e26629431461039d578063e60ef57f1461034d578063f2fde38b14610287578063f5ecfa5814610240578063fc99d28f146101f75763ffdf2bcb0361000f57346101f45760403660031901126101f4576101c4611526565b6101cc6115ff565b6001600160a01b03168152600b6020526040812080546101ef9060243590611657565b905580f35b80fd5b50346101f45760803660031901126101f4576020610238610216611526565b61021e61153c565b6102266115ed565b9061022f6115ff565b604435926119ee565b604051908152f35b50346101f45760403660031901126101f457604061025c61153c565b916004358152600a602052209060018060a01b03166000526020526020604060002054604051908152f35b50346101f45760203660031901126101f4576102a1611526565b6102a96115ff565b6001600160a01b039081169081156102f957600054826001600160601b0360a01b821617600055167f8be0079c531659141344cd1fd0a4f28419497f9722a3daafe3b4186f6b6457e0600080a380f35b60405162461bcd60e51b815260206004820152602660248201527f4f776e61626c653a206e6577206f776e657220697320746865207a65726f206160448201526564647265737360d01b6064820152608490fd5b50346101f45760603660031901126101f4576040610369611526565b9161037261153c565b506044358152600a602052209060018060a01b03166000526020526020604060002054604051908152f35b50346101f45760403660031901126101f457806103b8611526565b816103c161153c565b6103c96115ff565b60018060a01b03809316600354906044856001600160601b0360a01b948386861617600355168060015495861617600155600160a01b60ff60a01b1987541617865560405195869384928263095ea7b360e01b98898652161760048401528160248401526020998a9616175af19182156104cf5784926104b2575b50604483600354169360015416918660405195869485938452600484015260001960248401525af180156104a75761047a578280f35b8161049992903d106104a0575b6104918183611568565b8101906118fc565b5038808280f35b503d610487565b6040513d85823e3d90fd5b6104c890833d85116104a0576104918183611568565b5038610444565b6040513d87823e3d90fd5b50346101f457806003193601126101f4576020600854604051908152f35b50346101f45760403660031901126101f457610512611526565b61051a61153c565b9060018060a01b03809116808452602091600b835261053e60408620541515611687565b818552600b835261057d61271061055c6040882054600454906116d3565b0461056981600854611657565b600855838752600b8552604087205461167a565b93166040519363b5cb15f760e01b85528385600481855afa94851561069f57869561066e575b50846105b9916105b4821515611706565b6116e6565b90855b8581106105d45786600b868683525280604081205580f35b604051632dae7a8560e11b815260048101829052908582602481865afa801561066357889061062f575b61062a92508852600a8652604088208560005286526040600020610623858254611657565b9055611752565b6105bc565b508582813d831161065c575b6106458183611568565b810103126106575761062a91516105fe565b600080fd5b503d61063b565b6040513d8a823e3d90fd5b9094508381813d8311610698575b6106868183611568565b810103126106575751936105b96105a3565b503d61067c565b6040513d88823e3d90fd5b50346101f457806003193601126101f4576001546040516001600160a01b039091168152602090f35b50346101f45760c03660031901126101f4576106ed611526565b6106f561153c565b506106fe611552565b67ffffffffffffffff90606435828111610993576107209036906004016115a6565b6001600160a01b0394909390608435868116810361065757604051637276069d60e01b81529560a435948392889283918b918391610764918b91906004850161183c565b0392165afa948515610986578190829661095c575b50610799610791602097888082518301019101611868565b90951461188f565b85815191012093848252600a8652866040832093169283600052865260406000205494851561092157859697610824918452600a895260408420856000528952836040600020556108166040519788928b84019863a9059cbb60e01b8a52166024840160209093929193604081019460018060a01b031681520152565b03601f198101875286611568565b6040519360408501918583109083111761090b5761087d9583926040528886527f5361666545524332303a206c6f772d6c6576656c2063616c6c206661696c656489870152519082855af16108776118cc565b91611914565b8051908382159283156108f3575b5050501561089b57604051908152f35b60405162461bcd60e51b815260048101839052602a60248201527f5361666545524332303a204552433230206f7065726174696f6e20646964206e6044820152691bdd081cdd58d8d9595960b21b6064820152608490fd5b61090393508201810191016118fc565b38838161088b565b634e487b7160e01b600052604160045260246000fd5b60405162461bcd60e51b81526004810188905260136024820152724e6f2072657761726420617661696c61626c6560681b6044820152606490fd5b905061097b9195503d8087833e6109738183611568565b8101906117c9565b969291505038610779565b50604051903d90823e3d90fd5b8480fd5b50346101f45760203660031901126101f45760406020916004358152600983522054604051908152f35b50346101f45760e03660031901126101f4576109db611526565b6109e361153c565b6044359062ffffff82168092036106575760a4358060020b8091036106575760c435918260020b80930361065757610a196115ff565b60025460405163095ea7b360e01b81526001600160a01b03918216600482015260643560248201529516946020816044818a8a5af18015610c5757610c38575b5060025460405163095ea7b360e01b81526001600160a01b039182166004820152608435602482018190529592909116906020816044818b865af1801561066357610c19575b5060405195610160870187811067ffffffffffffffff82111761090b576040528652602086015260408501526060840152608083015260643560a083015260c08201528160e0820152816101008201523061012082015242610140820152608061014061016460018060a01b036002541693856040519586948593634418b22b60e11b855260018060a01b03815116600486015260018060a01b03602082015116602486015262ffffff6040820151166044860152606081015160020b60648601528781015160020b608486015260a081015160a486015260c081015160c486015260e081015160e486015261010081015161010486015260018060a01b036101208201511661012486015201516101448401525af18015610c0e57610bc3575080f35b6080813d8211610c06575b81610bdb60809383611568565b81010312610c0257602001516fffffffffffffffffffffffffffffffff8116036101f45780f35b5080fd5b3d9150610bce565b6040513d84823e3d90fd5b610c319060203d6020116104a0576104918183611568565b5038610a9f565b610c509060203d6020116104a0576104918183611568565b5038610a59565b6040513d89823e3d90fd5b50806003193601126101f457610c7a34600754611657565b60075580f35b50346101f457806003193601126101f4576020600754604051908152f35b50346101f457806003193601126101f4576020600554604051908152f35b50346101f45760203660031901126101f457600435801515809103610c0257610ce36115ff565b815460ff60a01b191660a09190911b60ff60a01b1617905560405160018152602090f35b50346101f457806003193601126101f457546040516001600160a01b039091168152602090f35b50346101f45760403660031901126101f457610d94610d4b611526565b610d536115ff565b60015460405163095ea7b360e01b8082526001600160a01b039283166004830152602480359083015260209493831693919290918590849081906044820190565b038189885af190811561069f578593604492610dd9575b5060015416918660405195869485938452600484015260001960248401525af180156104a75761047a578280f35b610def90853d87116104a0576104918183611568565b5038610dab565b50346101f457806003193601126101f4576020600454604051908152f35b50346101f457806003193601126101f4576002546040516001600160a01b039091168152602090f35b50346101f457806003193601126101f457610e566115ff565b600080546001600160a01b0319811682556001600160a01b03167f8be0079c531659141344cd1fd0a4f28419497f9722a3daafe3b4186f6b6457e08280a380f35b50346101f45760403660031901126101f4576040602091610eb6611526565b506024358152600983522054604051908152f35b50346101f45760a03660031901126101f457610ee4611526565b90610eed61153c565b91610ef6611552565b90610eff6115ed565b906084359162ffffff8316830361099357610f186115ff565b6040516370a0823160e01b81523060048201526001600160a01b039360209380861693919291908583602481885afa92831561111c5789936110e9575b5060015460405163095ea7b360e01b8082529189166001600160a01b0316600482015260248101859052909587908290818d816044810103925af19081156110de5791610fb08c92610fb59695948d916110c1575b506119b1565b6119ee565b9182156110895760015460405191825285166001600160a01b0316600482015260248101839052959687969084826044818b858b165af19485156106635761100b958893610fb0928b9261106c575b50506119b1565b9116803b1561106857602483926040519485938492630852cd8d60e31b845260048401525af18015610c0e5761103f575080f35b67ffffffffffffffff81116110545760405280f35b634e487b7160e01b82526041600452602482fd5b5050fd5b6110829250803d106104a0576104918183611568565b3880611004565b60405162461bcd60e51b815260048101859052601060248201526f139bc81d1bdad95b9cc8189bdd59da1d60821b6044820152606490fd5b6110d891508a3d8c116104a0576104918183611568565b38610faa565b6040513d8c823e3d90fd5b9092508581813d8311611115575b6111018183611568565b8101031261111157519138610f55565b8880fd5b503d6110f7565b6040513d8b823e3d90fd5b50346101f457602080600319360112610c0257611142611526565b90620151806111536006544261167a565b106112915761118e600754611169811515611687565b612710611178600454836116d3565b049061118682600854611657565b60085561167a565b60405163b5cb15f760e01b8152926001600160a01b031691908184600481865afa9384156104cf578594611260575b50836111ce916105b4821515611706565b91845b8481106111e45785426006558060075580f35b604051632dae7a8560e11b815260048101829052908382602481865afa8015610c5757879061122d575b611228925087526009845260408720610623868254611657565b6111d1565b508382813d8311611259575b6112438183611568565b8101031261125557611228915161120e565b8680fd5b503d611239565b9093508181813d831161128a575b6112788183611568565b810103126109935751926111ce6111bd565b503d61126e565b6064906040519062461bcd60e51b82526004820152601e60248201527f43616e206f6e6c792064697374726962757465206f6e636520612064617900006044820152fd5b50346101f45760203660031901126101f4576020906040906001600160a01b036112fd611526565b168152600b83522054604051908152f35b50346101f45760203660031901126101f457611328611526565b6113306115ff565b60018060a01b03166001600160601b0360a01b600154161760015580f35b50346101f45760203660031901126101f4576113686115ff565b60043560055580f35b50346101f45760a03660031901126101f45761138b611526565b5061139461153c565b9060443567ffffffffffffffff8111610c02576113b59036906004016115a6565b606435926001600160a01b03808516850361149657836113f39560843593849184604051809a81958294637276069d60e01b84528b6004850161183c565b0392165afa94851561148b5784908596611460575b5091849391849361142e6114266020998a8082518301019101611868565b90941461188f565b8781519101208452600987526040842090815496879255878451940192165af1506114576118cc565b50604051908152f35b85949296508493915061147c903d8086833e6109738183611568565b98929150509193509193611408565b6040513d86823e3d90fd5b8380fd5b50346101f45760203660031901126101f4576114b46115ff565b60043560045580f35b50346101f457806003193601126101f4576020600654604051908152f35b50346101f457806003193601126101f4576003546040516001600160a01b039091168152602090f35b905034610c025781600319360112610c025760ff6020925460a01c1615158152f35b600435906001600160a01b038216820361065757565b602435906001600160a01b038216820361065757565b604435906001600160a01b038216820361065757565b90601f8019910116810190811067ffffffffffffffff82111761090b57604052565b67ffffffffffffffff811161090b57601f01601f191660200190565b81601f82011215610657578035906115bd8261158a565b926115cb6040519485611568565b8284526020838301011161065757816000926020809301838601378301015290565b6064359062ffffff8216820361065757565b6000546001600160a01b0316330361161357565b606460405162461bcd60e51b815260206004820152602060248201527f4f776e61626c653a2063616c6c6572206973206e6f7420746865206f776e65726044820152fd5b9190820180921161166457565b634e487b7160e01b600052601160045260246000fd5b9190820391821161166457565b1561168e57565b60405162461bcd60e51b815260206004820152601860248201527f4e6f2064697374726962757461626c652062616c616e636500000000000000006044820152606490fd5b8181029291811591840414171561166457565b81156116f0570490565b634e487b7160e01b600052601260045260246000fd5b1561170d57565b60405162461bcd60e51b815260206004820152601960248201527f4e6f20757365727320746f206469737472696275746520746f000000000000006044820152606490fd5b60001981146116645760010190565b60005b8381106117745750506000910152565b8181015183820152602001611764565b81601f8201121561065757805161179a8161158a565b926117a86040519485611568565b81845260208284010111610657576117c69160208085019101611761565b90565b916080838303126106575782519067ffffffffffffffff9182811161065757836117f4918601611784565b936020810151936040820151936060830151908111610657576117c69201611784565b9060209161183081518092818552858086019101611761565b601f01601f1916010190565b61185460409295949395606083526060830190611817565b6001600160a01b0390951660208201520152565b91908260409103126106575781516001600160a01b03811681036106575760209092015190565b1561189657565b60405162461bcd60e51b815260206004820152600e60248201526d4e6f742053616d65204e6f6e636560901b6044820152606490fd5b3d156118f7573d906118dd8261158a565b916118eb6040519384611568565b82523d6000602084013e565b606090565b90816020910312610657575180151581036106575790565b919290156119765750815115611928575090565b3b156119315790565b60405162461bcd60e51b815260206004820152601d60248201527f416464726573733a2063616c6c20746f206e6f6e2d636f6e74726163740000006044820152606490fd5b8251909150156119895750805190602001fd5b60405162461bcd60e51b8152602060048201529081906119ad906024830190611817565b0390fd5b156119b857565b60405162461bcd60e51b815260206004820152600e60248201526d105c1c1c9bdd994819985a5b195960921b6044820152606490fd5b6001546040805163095ea7b360e01b81526001600160a01b0392831660048201526024810187905290959392909116906020816044816000865af18015611b8f57611b70575b50605f830292808404605f148115171561166457600a42018042116116645786519161010083019183831067ffffffffffffffff84111761090b579188529282526001600160a01b03938416602083810191825262ffffff978816848a0190815230606086019081526080860194855260a0860196875260649889900460c08701908152600060e088018181526001548e5163414bf38960e01b815299518c1660048b015296518b1660248a01529351909b166044880152905188169886019890985292516084850152935160a4840152945160c483015251831660e482015293909284926101049284929091165af1918215611b665750600091611b37575090565b90506020813d602011611b5e575b81611b5260209383611568565b81010312610657575190565b3d9150611b45565b513d6000823e3d90fd5b611b889060203d6020116104a0576104918183611568565b5038611a34565b86513d6000823e3d90fdfea2646970667358221220938dc455224be3f14bdea5d2229d7b9a28173c82fa13b274a8c13c8ff39612d764736f6c63430008130033",
  "linkReferences": {},
  "deployedLinkReferences": {}
}