{
  "_format": "hh-sol-artifact-1",
  "contractName": "MecenateStats",
  "sourceName": "contracts/stats/MecenateStats.sol",
  "abi": [
    {
      "inputs": [
        {
          "internalType": "address",
          "name": "mecenateUsersAddress",
          "type": "address"
        },
        {
          "internalType": "address",
          "name": "mecenateFeedFactoryAddress",
          "type": "address"
        },
        {
          "internalType": "address",
          "name": "mecenateBayAddress",
          "type": "address"
        },
        {
          "internalType": "address",
          "name": "mecenateTreasuryAddress",
          "type": "address"
        }
      ],
      "stateMutability": "nonpayable",
      "type": "constructor"
    },
    {
      "inputs": [],
      "name": "getStats",
      "outputs": [
        {
          "components": [
            {
              "internalType": "uint256",
              "name": "totalUsers",
              "type": "uint256"
            },
            {
              "internalType": "uint256",
              "name": "totalBayRequests",
              "type": "uint256"
            },
            {
              "internalType": "uint256",
              "name": "totalFeeds",
              "type": "uint256"
            },
            {
              "internalType": "uint256",
              "name": "globalFee",
              "type": "uint256"
            },
            {
              "internalType": "uint256",
              "name": "fixedFee",
              "type": "uint256"
            },
            {
              "internalType": "uint256",
              "name": "treasuryBalance",
              "type": "uint256"
            }
          ],
          "internalType": "struct MecenateStats.Stats",
          "name": "",
          "type": "tuple"
        }
      ],
      "stateMutability": "view",
      "type": "function"
    },
    {
      "inputs": [],
      "name": "mecenateBay",
      "outputs": [
        {
          "internalType": "contract IMecenateBay",
          "name": "",
          "type": "address"
        }
      ],
      "stateMutability": "view",
      "type": "function"
    },
    {
      "inputs": [],
      "name": "mecenateFeedFactory",
      "outputs": [
        {
          "internalType": "contract IMecenateFeedFactory",
          "name": "",
          "type": "address"
        }
      ],
      "stateMutability": "view",
      "type": "function"
    },
    {
      "inputs": [],
      "name": "mecenateTreasury",
      "outputs": [
        {
          "internalType": "contract IMecenateTreasury",
          "name": "",
          "type": "address"
        }
      ],
      "stateMutability": "view",
      "type": "function"
    },
    {
      "inputs": [],
      "name": "mecenateUsers",
      "outputs": [
        {
          "internalType": "contract IMecenateUsers",
          "name": "",
          "type": "address"
        }
      ],
      "stateMutability": "view",
      "type": "function"
    }
  ],
  "bytecode": "0x6080346100b957601f6104eb38819003918201601f19168301916001600160401b038311848410176100be578084926080946040528339810103126100b957610047816100d4565b90610054602082016100d4565b61006c6060610065604085016100d4565b93016100d4565b9060018060a01b03928380928160018060a01b0319971687600054161760005516856001541617600155168360025416176002551690600354161760035560405161040290816100e98239f35b600080fd5b634e487b7160e01b600052604160045260246000fd5b51906001600160a01b03821682036100b95756fe6080604081815260048036101561001557600080fd5b600092833560e01c908163139e3c541461035457508063295b7b9a1461032b5780633f16a3bb1461030257806377260151146102d55763c59d48471461005a57600080fd5b346102d157826003193601126102d157815161007581610378565b8381528360a060209282848201528286820152826060820152826080820152015260018060a01b03908160025416938051928284868163019ef4ed60e21b998a82525afa9384156102985787946102a2575b50828160015416968684518099819382525afa9081156102985785968896959692610262575b50838189541684519889809263b5cb15f760e01b82525afa968715610258578897610225575b506003548351634047e10360e11b815294911681858781845afa9485156101ec5789956101f6575b5081845180976391792d5b60e01b825281845afa9586156101ec5789966101b5575b5060c09850319560a0845161017181610378565b8981528381019283528581019485526060810196875260808101978852019687528351978852519087015251908501525160608401525160808301525160a0820152f35b9095508181813d83116101e5575b6101cd81836103aa565b810103126101e15760c0985051943861015d565b8880fd5b503d6101c3565b84513d8b823e3d90fd5b9094508181813d831161021e575b61020e81836103aa565b810103126101e15751933861013b565b503d610204565b9096508381813d8311610251575b61023d81836103aa565b8101031261024d57519538610113565b8780fd5b503d610233565b83513d8a823e3d90fd5b945090508284813d8111610291575b61027b81836103aa565b8101031261028d5785935190386100ed565b8680fd5b503d610271565b82513d89823e3d90fd5b9093508281813d83116102ca575b6102ba81836103aa565b8101031261028d575192386100c7565b503d6102b0565b8280fd5b5050346102fe57816003193601126102fe5760015490516001600160a01b039091168152602090f35b5080fd5b5050346102fe57816003193601126102fe5760025490516001600160a01b039091168152602090f35b5050346102fe57816003193601126102fe5760035490516001600160a01b039091168152602090f35b8490346102fe57816003193601126102fe5790546001600160a01b03168152602090f35b60c0810190811067ffffffffffffffff82111761039457604052565b634e487b7160e01b600052604160045260246000fd5b90601f8019910116810190811067ffffffffffffffff8211176103945760405256fea2646970667358221220b2e986c801fae996d88a09b4c47948e9c799afe0088959dd8cc35ea93641accc64736f6c63430008130033",
  "linkReferences": {},
  "deployedLinkReferences": {}
}