{"contracts/helpers/MecenateAttesterResolver.sol":{"MecenateAttesterResolver":{"abi":[{"inputs":[{"internalType":"contract IEAS","name":"eas","type":"address"}],"stateMutability":"nonpayable","type":"constructor"},{"inputs":[],"name":"AccessDenied","type":"error"},{"inputs":[],"name":"InsufficientValue","type":"error"},{"inputs":[],"name":"InvalidEAS","type":"error"},{"inputs":[],"name":"InvalidLength","type":"error"},{"inputs":[],"name":"NotPayable","type":"error"},{"inputs":[{"components":[{"internalType":"bytes32","name":"uid","type":"bytes32"},{"internalType":"bytes32","name":"schema","type":"bytes32"},{"internalType":"uint64","name":"time","type":"uint64"},{"internalType":"uint64","name":"expirationTime","type":"uint64"},{"internalType":"uint64","name":"revocationTime","type":"uint64"},{"internalType":"bytes32","name":"refUID","type":"bytes32"},{"internalType":"address","name":"recipient","type":"address"},{"internalType":"address","name":"attester","type":"address"},{"internalType":"bool","name":"revocable","type":"bool"},{"internalType":"bytes","name":"data","type":"bytes"}],"internalType":"struct Attestation","name":"attestation","type":"tuple"}],"name":"attest","outputs":[{"internalType":"bool","name":"","type":"bool"}],"stateMutability":"payable","type":"function"},{"inputs":[],"name":"isPayable","outputs":[{"internalType":"bool","name":"","type":"bool"}],"stateMutability":"pure","type":"function"},{"inputs":[{"components":[{"internalType":"bytes32","name":"uid","type":"bytes32"},{"internalType":"bytes32","name":"schema","type":"bytes32"},{"internalType":"uint64","name":"time","type":"uint64"},{"internalType":"uint64","name":"expirationTime","type":"uint64"},{"internalType":"uint64","name":"revocationTime","type":"uint64"},{"internalType":"bytes32","name":"refUID","type":"bytes32"},{"internalType":"address","name":"recipient","type":"address"},{"internalType":"address","name":"attester","type":"address"},{"internalType":"bool","name":"revocable","type":"bool"},{"internalType":"bytes","name":"data","type":"bytes"}],"internalType":"struct Attestation[]","name":"attestations","type":"tuple[]"},{"internalType":"uint256[]","name":"values","type":"uint256[]"}],"name":"multiAttest","outputs":[{"internalType":"bool","name":"","type":"bool"}],"stateMutability":"payable","type":"function"},{"inputs":[{"components":[{"internalType":"bytes32","name":"uid","type":"bytes32"},{"internalType":"bytes32","name":"schema","type":"bytes32"},{"internalType":"uint64","name":"time","type":"uint64"},{"internalType":"uint64","name":"expirationTime","type":"uint64"},{"internalType":"uint64","name":"revocationTime","type":"uint64"},{"internalType":"bytes32","name":"refUID","type":"bytes32"},{"internalType":"address","name":"recipient","type":"address"},{"internalType":"address","name":"attester","type":"address"},{"internalType":"bool","name":"revocable","type":"bool"},{"internalType":"bytes","name":"data","type":"bytes"}],"internalType":"struct Attestation[]","name":"attestations","type":"tuple[]"},{"internalType":"uint256[]","name":"values","type":"uint256[]"}],"name":"multiRevoke","outputs":[{"internalType":"bool","name":"","type":"bool"}],"stateMutability":"payable","type":"function"},{"inputs":[{"components":[{"internalType":"bytes32","name":"uid","type":"bytes32"},{"internalType":"bytes32","name":"schema","type":"bytes32"},{"internalType":"uint64","name":"time","type":"uint64"},{"internalType":"uint64","name":"expirationTime","type":"uint64"},{"internalType":"uint64","name":"revocationTime","type":"uint64"},{"internalType":"bytes32","name":"refUID","type":"bytes32"},{"internalType":"address","name":"recipient","type":"address"},{"internalType":"address","name":"attester","type":"address"},{"internalType":"bool","name":"revocable","type":"bool"},{"internalType":"bytes","name":"data","type":"bytes"}],"internalType":"struct Attestation","name":"attestation","type":"tuple"}],"name":"revoke","outputs":[{"internalType":"bool","name":"","type":"bool"}],"stateMutability":"payable","type":"function"},{"inputs":[],"name":"version","outputs":[{"internalType":"string","name":"","type":"string"}],"stateMutability":"view","type":"function"},{"stateMutability":"payable","type":"receive"}],"devdoc":{"kind":"dev","methods":{"attest((bytes32,bytes32,uint64,uint64,uint64,bytes32,address,address,bool,bytes))":{"params":{"attestation":"The new attestation."},"returns":{"_0":"Whether the attestation is valid."}},"isPayable()":{"returns":{"_0":"Whether the resolver supports ETH transfers."}},"multiAttest((bytes32,bytes32,uint64,uint64,uint64,bytes32,address,address,bool,bytes)[],uint256[])":{"params":{"attestations":"The new attestations.","values":"Explicit ETH amounts which were sent with each attestation."},"returns":{"_0":"Whether all the attestations are valid."}},"multiRevoke((bytes32,bytes32,uint64,uint64,uint64,bytes32,address,address,bool,bytes)[],uint256[])":{"params":{"attestations":"The existing attestations to be revoked.","values":"Explicit ETH amounts which were sent with each revocation."},"returns":{"_0":"Whether the attestations can be revoked."}},"revoke((bytes32,bytes32,uint64,uint64,uint64,bytes32,address,address,bool,bytes))":{"params":{"attestation":"The existing attestation to be revoked."},"returns":{"_0":"Whether the attestation can be revoked."}},"version()":{"returns":{"_0":"Semver contract version as a string."}}},"title":"A sample schema resolver that checks whether the attestation is from a specific attester.","version":1},"evm":{"bytecode":{"linkReferences":{},"object":"610100346100ad57601f610d2c38819003918201601f19168301916001600160401b038311848410176100b2578084926020946040528339810103126100ad57516001600160a01b0381168082036100ad576001608052600260a052600060c0521561009b5760e052604051610c6390816100c982396080518161018a015260a051816101b4015260c051816101de015260e05181610a830152f35b6040516341bc07ff60e11b8152600490fd5b600080fd5b634e487b7160e01b600052604160045260246000fdfe60406080815260049081361015610029575b361561001c57600080fd5b51631574f9f360e01b8152fd5b6000803560e01c90816354fd4d501461017257816388e5b2d9146100f257816391db0b7e146100d2578163ce46e046146100b457508063e49617e1146100985763e60c3505036100115760209061008f6100823661033d565b61008a610a81565b610455565b90519015158152f35b6020826100a43661033d565b506100ad610a81565b5160018152f35b82346100ce57816003193601126100ce5751908152602090f35b5080fd5b60208361008f6100e1366102f2565b926100ed929192610a81565b6109fa565b82846100fd366102f2565b61010c96939296949194610a81565b80870361016357345b878510610126576020875160018152f35b6101318583886109b1565b35908082116101535790600191610149878b886109d7565b5003940193610115565b875163044044a560e21b81528490fd5b50845163251f56a160e21b8152fd5b905034610296578060031936011261029657506101ae7f0000000000000000000000000000000000000000000000000000000000000000610ac5565b906101d87f0000000000000000000000000000000000000000000000000000000000000000610ac5565b916102027f0000000000000000000000000000000000000000000000000000000000000000610ac5565b9061026c602284518094602097886102238185019788815193849201610299565b830190601760f91b91828b820152610244825180938d602185019101610299565b0190602182015261025d825180938b8785019101610299565b010360028101855201836103be565b6102888351948593818552519283809286015285850190610299565b601f01601f19168101030190f35b80fd5b60005b8381106102ac5750506000910152565b818101518382015260200161029c565b9181601f840112156102ed5782359167ffffffffffffffff83116102ed576020808501948460051b0101116102ed57565b600080fd5b60406003198201126102ed5767ffffffffffffffff916004358381116102ed578261031f916004016102bc565b939093926024359182116102ed57610339916004016102bc565b9091565b600319906020818301126102ed576004359167ffffffffffffffff83116102ed5782610140920301126102ed5760040190565b6060810190811067ffffffffffffffff82111761038c57604052565b634e487b7160e01b600052604160045260246000fd5b60c0810190811067ffffffffffffffff82111761038c57604052565b90601f8019910116810190811067ffffffffffffffff82111761038c57604052565b67ffffffffffffffff811161038c57601f01601f191660200190565b81601f820112156102ed578051610412816103e0565b9261042060405194856103be565b818452602082840101116102ed5761043e9160208085019101610299565b90565b51906001600160a01b03821682036102ed57565b6101209081810135601e19823603018112156102ed5781019182359267ffffffffffffffff908185116102ed576020938482019580360387136102ed5782018581019660609184900382136102ed5735938415948515036102ed576040956001600160a01b0394808801358681169491908590036102ed5781810135908482116102ed5701938a603f860112156102ed57898501356104f3816103e0565b906105008b5192836103be565b8082528b82019c8b82890101116102ed57808d8c8e9901903760009687918301015289519b63729e2eb160e01b8d528c8760049e8f81875afa9081156109a757889161096f575b508c8151910120915190200361092c5788516302734eab60e51b81528a818d81855afa9081156109225786916108ec575b5060088110156108d9576003036108a15790848b9493928a51958680926346341c5d60e11b82525afa93841561089757918793918b93879661064b575b505050508060e093015101515116920135928316809303610296575003610616576105e257505050600190565b5162461bcd60e51b815291820152601060248201526f2ba927a723902b20a624a220aa24a7a760811b604482015260649150fd5b505162461bcd60e51b815291820152601060248201526f24a72b20a624a21020aa2a22a9aa22a960811b604482015260649150fd5b929550925092503d8086833e61066181836103be565b8101908a818303126108735780519085821161086b5701938985830312610873578951948a86018681108382111761088357808c52815183811161087b578201858186031261087b576106b382610370565b6106bc81610441565b82528d81015184811161087f57856106d59183016103fc565b868901528c8101519084821161087f576106f1918691016103fc565b608088015286528b8101519082821161086f5701808303946101a0861261086f578b519561071e87610370565b60c0811261087b578c51610731816103a2565b83516008811015610877578152838f01516005811015610877578f8201528d808501519082015286840151878201526080840151608082015260a084015160038110156108775760a0820152875260c060bf199091011261086f578b5190610798826103a2565b6107a460c08401610441565b82528d6107b360e08501610441565b908301526101008301518d83015282015185820152610140820151608082015261016082015160a08201528c8601526101808101519082821161086f570192838303126108735789519261080684610370565b805182811161086f578361081b9183016103fc565b84528b81015182811161086f57836108349183016103fc565b8c8501528a81015191821161086b57938b93610857859460e098948c98016103fc565b8c8201528b820152828201529338806105b5565b8680fd5b8780fd5b8580fd5b8a80fd5b8880fd5b8980fd5b50634e487b7160e01b875260418d52602487fd5b89513d87823e3d90fd5b885162461bcd60e51b8152808c018b905260126024820152711413d4d5081393d50811925390531256915160721b6044820152606490fd5b634e487b7160e01b865260218c52602486fd5b90508a81813d831161091b575b61090381836103be565b81010312610873575160088110156108735738610578565b503d6108f9565b8a513d88823e3d90fd5b885162461bcd60e51b8152808c018b9052601d60248201527f454e4352595054454420504f535420444f4553204e4f54204d415443480000006044820152606490fd5b90503d8089833e61098081836103be565b8101908d8183031261087b5780519088821161087f576109a19291016103fc565b38610547565b8c513d8a823e3d90fd5b91908110156109c15760051b0190565b634e487b7160e01b600052603260045260246000fd5b91908110156109c15760051b8101359061013e19813603018212156102ed570190565b909192808303610a6f576000918291345b858510610a1e5750505050505050600190565b610a298583896109b1565b3590808211610a5d57610a4061008a8789876109d7565b15610a52579060019103940193610a0b565b505050509250505090565b60405163044044a560e21b8152600490fd5b60405163251f56a160e21b8152600490fd5b7f00000000000000000000000000000000000000000000000000000000000000006001600160a01b03163303610ab357565b604051634ca8886760e01b8152600490fd5b806000917a184f03e93ff9f4daa797ed6e38ed64bf6a1f01000000000000000080821015610c1f575b506d04ee2d6d415b85acef810000000080831015610c10575b50662386f26fc1000080831015610c01575b506305f5e10080831015610bf2575b5061271080831015610be3575b506064821015610bd3575b600a80921015610bc9575b60019081602181860195610b5e876103e0565b96610b6c60405198896103be565b808852610b7b601f19916103e0565b01366020890137860101905b610b93575b5050505090565b600019019083906f181899199a1a9b1b9c1cb0b131b232b360811b8282061a835304918215610bc457919082610b87565b610b8c565b9160010191610b4b565b9190606460029104910191610b40565b60049193920491019138610b35565b60089193920491019138610b28565b60109193920491019138610b19565b60209193920491019138610b07565b604093508104915038610aee56fea2646970667358221220b87557e6cb98075d7d6883932270b01c9015639656c6c3594fb321956eb47e1964736f6c63430008130033","opcodes":"PUSH2 0x100 CALLVALUE PUSH2 0xAD JUMPI PUSH1 0x1F PUSH2 0xD2C CODESIZE DUP2 SWAP1 SUB SWAP2 DUP3 ADD PUSH1 0x1F NOT AND DUP4 ADD SWAP2 PUSH1 0x1 PUSH1 0x1 PUSH1 0x40 SHL SUB DUP4 GT DUP5 DUP5 LT OR PUSH2 0xB2 JUMPI DUP1 DUP5 SWAP3 PUSH1 0x20 SWAP5 PUSH1 0x40 MSTORE DUP4 CODECOPY DUP2 ADD SUB SLT PUSH2 0xAD JUMPI MLOAD PUSH1 0x1 PUSH1 0x1 PUSH1 0xA0 SHL SUB DUP2 AND DUP1 DUP3 SUB PUSH2 0xAD JUMPI PUSH1 0x1 PUSH1 0x80 MSTORE PUSH1 0x2 PUSH1 0xA0 MSTORE PUSH1 0x0 PUSH1 0xC0 MSTORE ISZERO PUSH2 0x9B JUMPI PUSH1 0xE0 MSTORE PUSH1 0x40 MLOAD PUSH2 0xC63 SWAP1 DUP2 PUSH2 0xC9 DUP3 CODECOPY PUSH1 0x80 MLOAD DUP2 PUSH2 0x18A ADD MSTORE PUSH1 0xA0 MLOAD DUP2 PUSH2 0x1B4 ADD MSTORE PUSH1 0xC0 MLOAD DUP2 PUSH2 0x1DE ADD MSTORE PUSH1 0xE0 MLOAD DUP2 PUSH2 0xA83 ADD MSTORE RETURN JUMPDEST PUSH1 0x40 MLOAD PUSH4 0x41BC07FF PUSH1 0xE1 SHL DUP2 MSTORE PUSH1 0x4 SWAP1 REVERT JUMPDEST PUSH1 0x0 DUP1 REVERT JUMPDEST PUSH4 0x4E487B71 PUSH1 0xE0 SHL PUSH1 0x0 MSTORE PUSH1 0x41 PUSH1 0x4 MSTORE PUSH1 0x24 PUSH1 0x0 REVERT INVALID PUSH1 0x40 PUSH1 0x80 DUP2 MSTORE PUSH1 0x4 SWAP1 DUP2 CALLDATASIZE LT ISZERO PUSH2 0x29 JUMPI JUMPDEST CALLDATASIZE ISZERO PUSH2 0x1C JUMPI PUSH1 0x0 DUP1 REVERT JUMPDEST MLOAD PUSH4 0x1574F9F3 PUSH1 0xE0 SHL DUP2 MSTORE REVERT JUMPDEST PUSH1 0x0 DUP1 CALLDATALOAD PUSH1 0xE0 SHR SWAP1 DUP2 PUSH4 0x54FD4D50 EQ PUSH2 0x172 JUMPI DUP2 PUSH4 0x88E5B2D9 EQ PUSH2 0xF2 JUMPI DUP2 PUSH4 0x91DB0B7E EQ PUSH2 0xD2 JUMPI DUP2 PUSH4 0xCE46E046 EQ PUSH2 0xB4 JUMPI POP DUP1 PUSH4 0xE49617E1 EQ PUSH2 0x98 JUMPI PUSH4 0xE60C3505 SUB PUSH2 0x11 JUMPI PUSH1 0x20 SWAP1 PUSH2 0x8F PUSH2 0x82 CALLDATASIZE PUSH2 0x33D JUMP JUMPDEST PUSH2 0x8A PUSH2 0xA81 JUMP JUMPDEST PUSH2 0x455 JUMP JUMPDEST SWAP1 MLOAD SWAP1 ISZERO ISZERO DUP2 MSTORE RETURN JUMPDEST PUSH1 0x20 DUP3 PUSH2 0xA4 CALLDATASIZE PUSH2 0x33D JUMP JUMPDEST POP PUSH2 0xAD PUSH2 0xA81 JUMP JUMPDEST MLOAD PUSH1 0x1 DUP2 MSTORE RETURN JUMPDEST DUP3 CALLVALUE PUSH2 0xCE JUMPI DUP2 PUSH1 0x3 NOT CALLDATASIZE ADD SLT PUSH2 0xCE JUMPI MLOAD SWAP1 DUP2 MSTORE PUSH1 0x20 SWAP1 RETURN JUMPDEST POP DUP1 REVERT JUMPDEST PUSH1 0x20 DUP4 PUSH2 0x8F PUSH2 0xE1 CALLDATASIZE PUSH2 0x2F2 JUMP JUMPDEST SWAP3 PUSH2 0xED SWAP3 SWAP2 SWAP3 PUSH2 0xA81 JUMP JUMPDEST PUSH2 0x9FA JUMP JUMPDEST DUP3 DUP5 PUSH2 0xFD CALLDATASIZE PUSH2 0x2F2 JUMP JUMPDEST PUSH2 0x10C SWAP7 SWAP4 SWAP3 SWAP7 SWAP5 SWAP2 SWAP5 PUSH2 0xA81 JUMP JUMPDEST DUP1 DUP8 SUB PUSH2 0x163 JUMPI CALLVALUE JUMPDEST DUP8 DUP6 LT PUSH2 0x126 JUMPI PUSH1 0x20 DUP8 MLOAD PUSH1 0x1 DUP2 MSTORE RETURN JUMPDEST PUSH2 0x131 DUP6 DUP4 DUP9 PUSH2 0x9B1 JUMP JUMPDEST CALLDATALOAD SWAP1 DUP1 DUP3 GT PUSH2 0x153 JUMPI SWAP1 PUSH1 0x1 SWAP2 PUSH2 0x149 DUP8 DUP12 DUP9 PUSH2 0x9D7 JUMP JUMPDEST POP SUB SWAP5 ADD SWAP4 PUSH2 0x115 JUMP JUMPDEST DUP8 MLOAD PUSH4 0x44044A5 PUSH1 0xE2 SHL DUP2 MSTORE DUP5 SWAP1 REVERT JUMPDEST POP DUP5 MLOAD PUSH4 0x251F56A1 PUSH1 0xE2 SHL DUP2 MSTORE REVERT JUMPDEST SWAP1 POP CALLVALUE PUSH2 0x296 JUMPI DUP1 PUSH1 0x3 NOT CALLDATASIZE ADD SLT PUSH2 0x296 JUMPI POP PUSH2 0x1AE PUSH32 0x0 PUSH2 0xAC5 JUMP JUMPDEST SWAP1 PUSH2 0x1D8 PUSH32 0x0 PUSH2 0xAC5 JUMP JUMPDEST SWAP2 PUSH2 0x202 PUSH32 0x0 PUSH2 0xAC5 JUMP JUMPDEST SWAP1 PUSH2 0x26C PUSH1 0x22 DUP5 MLOAD DUP1 SWAP5 PUSH1 0x20 SWAP8 DUP9 PUSH2 0x223 DUP2 DUP6 ADD SWAP8 DUP9 DUP2 MLOAD SWAP4 DUP5 SWAP3 ADD PUSH2 0x299 JUMP JUMPDEST DUP4 ADD SWAP1 PUSH1 0x17 PUSH1 0xF9 SHL SWAP2 DUP3 DUP12 DUP3 ADD MSTORE PUSH2 0x244 DUP3 MLOAD DUP1 SWAP4 DUP14 PUSH1 0x21 DUP6 ADD SWAP2 ADD PUSH2 0x299 JUMP JUMPDEST ADD SWAP1 PUSH1 0x21 DUP3 ADD MSTORE PUSH2 0x25D DUP3 MLOAD DUP1 SWAP4 DUP12 DUP8 DUP6 ADD SWAP2 ADD PUSH2 0x299 JUMP JUMPDEST ADD SUB PUSH1 0x2 DUP2 ADD DUP6 MSTORE ADD DUP4 PUSH2 0x3BE JUMP JUMPDEST PUSH2 0x288 DUP4 MLOAD SWAP5 DUP6 SWAP4 DUP2 DUP6 MSTORE MLOAD SWAP3 DUP4 DUP1 SWAP3 DUP7 ADD MSTORE DUP6 DUP6 ADD SWAP1 PUSH2 0x299 JUMP JUMPDEST PUSH1 0x1F ADD PUSH1 0x1F NOT AND DUP2 ADD SUB ADD SWAP1 RETURN JUMPDEST DUP1 REVERT JUMPDEST PUSH1 0x0 JUMPDEST DUP4 DUP2 LT PUSH2 0x2AC JUMPI POP POP PUSH1 0x0 SWAP2 ADD MSTORE JUMP JUMPDEST DUP2 DUP2 ADD MLOAD DUP4 DUP3 ADD MSTORE PUSH1 0x20 ADD PUSH2 0x29C JUMP JUMPDEST SWAP2 DUP2 PUSH1 0x1F DUP5 ADD SLT ISZERO PUSH2 0x2ED JUMPI DUP3 CALLDATALOAD SWAP2 PUSH8 0xFFFFFFFFFFFFFFFF DUP4 GT PUSH2 0x2ED JUMPI PUSH1 0x20 DUP1 DUP6 ADD SWAP5 DUP5 PUSH1 0x5 SHL ADD ADD GT PUSH2 0x2ED JUMPI JUMP JUMPDEST PUSH1 0x0 DUP1 REVERT JUMPDEST PUSH1 0x40 PUSH1 0x3 NOT DUP3 ADD SLT PUSH2 0x2ED JUMPI PUSH8 0xFFFFFFFFFFFFFFFF SWAP2 PUSH1 0x4 CALLDATALOAD DUP4 DUP2 GT PUSH2 0x2ED JUMPI DUP3 PUSH2 0x31F SWAP2 PUSH1 0x4 ADD PUSH2 0x2BC JUMP JUMPDEST SWAP4 SWAP1 SWAP4 SWAP3 PUSH1 0x24 CALLDATALOAD SWAP2 DUP3 GT PUSH2 0x2ED JUMPI PUSH2 0x339 SWAP2 PUSH1 0x4 ADD PUSH2 0x2BC JUMP JUMPDEST SWAP1 SWAP2 JUMP JUMPDEST PUSH1 0x3 NOT SWAP1 PUSH1 0x20 DUP2 DUP4 ADD SLT PUSH2 0x2ED JUMPI PUSH1 0x4 CALLDATALOAD SWAP2 PUSH8 0xFFFFFFFFFFFFFFFF DUP4 GT PUSH2 0x2ED JUMPI DUP3 PUSH2 0x140 SWAP3 SUB ADD SLT PUSH2 0x2ED JUMPI PUSH1 0x4 ADD SWAP1 JUMP JUMPDEST PUSH1 0x60 DUP2 ADD SWAP1 DUP2 LT PUSH8 0xFFFFFFFFFFFFFFFF DUP3 GT OR PUSH2 0x38C JUMPI PUSH1 0x40 MSTORE JUMP JUMPDEST PUSH4 0x4E487B71 PUSH1 0xE0 SHL PUSH1 0x0 MSTORE PUSH1 0x41 PUSH1 0x4 MSTORE PUSH1 0x24 PUSH1 0x0 REVERT JUMPDEST PUSH1 0xC0 DUP2 ADD SWAP1 DUP2 LT PUSH8 0xFFFFFFFFFFFFFFFF DUP3 GT OR PUSH2 0x38C JUMPI PUSH1 0x40 MSTORE JUMP JUMPDEST SWAP1 PUSH1 0x1F DUP1 NOT SWAP2 ADD AND DUP2 ADD SWAP1 DUP2 LT PUSH8 0xFFFFFFFFFFFFFFFF DUP3 GT OR PUSH2 0x38C JUMPI PUSH1 0x40 MSTORE JUMP JUMPDEST PUSH8 0xFFFFFFFFFFFFFFFF DUP2 GT PUSH2 0x38C JUMPI PUSH1 0x1F ADD PUSH1 0x1F NOT AND PUSH1 0x20 ADD SWAP1 JUMP JUMPDEST DUP2 PUSH1 0x1F DUP3 ADD SLT ISZERO PUSH2 0x2ED JUMPI DUP1 MLOAD PUSH2 0x412 DUP2 PUSH2 0x3E0 JUMP JUMPDEST SWAP3 PUSH2 0x420 PUSH1 0x40 MLOAD SWAP5 DUP6 PUSH2 0x3BE JUMP JUMPDEST DUP2 DUP5 MSTORE PUSH1 0x20 DUP3 DUP5 ADD ADD GT PUSH2 0x2ED JUMPI PUSH2 0x43E SWAP2 PUSH1 0x20 DUP1 DUP6 ADD SWAP2 ADD PUSH2 0x299 JUMP JUMPDEST SWAP1 JUMP JUMPDEST MLOAD SWAP1 PUSH1 0x1 PUSH1 0x1 PUSH1 0xA0 SHL SUB DUP3 AND DUP3 SUB PUSH2 0x2ED JUMPI JUMP JUMPDEST PUSH2 0x120 SWAP1 DUP2 DUP2 ADD CALLDATALOAD PUSH1 0x1E NOT DUP3 CALLDATASIZE SUB ADD DUP2 SLT ISZERO PUSH2 0x2ED JUMPI DUP2 ADD SWAP2 DUP3 CALLDATALOAD SWAP3 PUSH8 0xFFFFFFFFFFFFFFFF SWAP1 DUP2 DUP6 GT PUSH2 0x2ED JUMPI PUSH1 0x20 SWAP4 DUP5 DUP3 ADD SWAP6 DUP1 CALLDATASIZE SUB DUP8 SGT PUSH2 0x2ED JUMPI DUP3 ADD DUP6 DUP2 ADD SWAP7 PUSH1 0x60 SWAP2 DUP5 SWAP1 SUB DUP3 SGT PUSH2 0x2ED JUMPI CALLDATALOAD SWAP4 DUP5 ISZERO SWAP5 DUP6 ISZERO SUB PUSH2 0x2ED JUMPI PUSH1 0x40 SWAP6 PUSH1 0x1 PUSH1 0x1 PUSH1 0xA0 SHL SUB SWAP5 DUP1 DUP9 ADD CALLDATALOAD DUP7 DUP2 AND SWAP5 SWAP2 SWAP1 DUP6 SWAP1 SUB PUSH2 0x2ED JUMPI DUP2 DUP2 ADD CALLDATALOAD SWAP1 DUP5 DUP3 GT PUSH2 0x2ED JUMPI ADD SWAP4 DUP11 PUSH1 0x3F DUP7 ADD SLT ISZERO PUSH2 0x2ED JUMPI DUP10 DUP6 ADD CALLDATALOAD PUSH2 0x4F3 DUP2 PUSH2 0x3E0 JUMP JUMPDEST SWAP1 PUSH2 0x500 DUP12 MLOAD SWAP3 DUP4 PUSH2 0x3BE JUMP JUMPDEST DUP1 DUP3 MSTORE DUP12 DUP3 ADD SWAP13 DUP12 DUP3 DUP10 ADD ADD GT PUSH2 0x2ED JUMPI DUP1 DUP14 DUP13 DUP15 SWAP10 ADD SWAP1 CALLDATACOPY PUSH1 0x0 SWAP7 DUP8 SWAP2 DUP4 ADD ADD MSTORE DUP10 MLOAD SWAP12 PUSH4 0x729E2EB1 PUSH1 0xE0 SHL DUP14 MSTORE DUP13 DUP8 PUSH1 0x4 SWAP15 DUP16 DUP2 DUP8 GAS STATICCALL SWAP1 DUP2 ISZERO PUSH2 0x9A7 JUMPI DUP9 SWAP2 PUSH2 0x96F JUMPI JUMPDEST POP DUP13 DUP2 MLOAD SWAP2 ADD KECCAK256 SWAP2 MLOAD SWAP1 KECCAK256 SUB PUSH2 0x92C JUMPI DUP9 MLOAD PUSH4 0x2734EAB PUSH1 0xE5 SHL DUP2 MSTORE DUP11 DUP2 DUP14 DUP2 DUP6 GAS STATICCALL SWAP1 DUP2 ISZERO PUSH2 0x922 JUMPI DUP7 SWAP2 PUSH2 0x8EC JUMPI JUMPDEST POP PUSH1 0x8 DUP2 LT ISZERO PUSH2 0x8D9 JUMPI PUSH1 0x3 SUB PUSH2 0x8A1 JUMPI SWAP1 DUP5 DUP12 SWAP5 SWAP4 SWAP3 DUP11 MLOAD SWAP6 DUP7 DUP1 SWAP3 PUSH4 0x46341C5D PUSH1 0xE1 SHL DUP3 MSTORE GAS STATICCALL SWAP4 DUP5 ISZERO PUSH2 0x897 JUMPI SWAP2 DUP8 SWAP4 SWAP2 DUP12 SWAP4 DUP8 SWAP7 PUSH2 0x64B JUMPI JUMPDEST POP POP POP POP DUP1 PUSH1 0xE0 SWAP4 ADD MLOAD ADD MLOAD MLOAD AND SWAP3 ADD CALLDATALOAD SWAP3 DUP4 AND DUP1 SWAP4 SUB PUSH2 0x296 JUMPI POP SUB PUSH2 0x616 JUMPI PUSH2 0x5E2 JUMPI POP POP POP PUSH1 0x1 SWAP1 JUMP JUMPDEST MLOAD PUSH3 0x461BCD PUSH1 0xE5 SHL DUP2 MSTORE SWAP2 DUP3 ADD MSTORE PUSH1 0x10 PUSH1 0x24 DUP3 ADD MSTORE PUSH16 0x2BA927A723902B20A624A220AA24A7A7 PUSH1 0x81 SHL PUSH1 0x44 DUP3 ADD MSTORE PUSH1 0x64 SWAP2 POP REVERT JUMPDEST POP MLOAD PUSH3 0x461BCD PUSH1 0xE5 SHL DUP2 MSTORE SWAP2 DUP3 ADD MSTORE PUSH1 0x10 PUSH1 0x24 DUP3 ADD MSTORE PUSH16 0x24A72B20A624A21020AA2A22A9AA22A9 PUSH1 0x81 SHL PUSH1 0x44 DUP3 ADD MSTORE PUSH1 0x64 SWAP2 POP REVERT JUMPDEST SWAP3 SWAP6 POP SWAP3 POP SWAP3 POP RETURNDATASIZE DUP1 DUP7 DUP4 RETURNDATACOPY PUSH2 0x661 DUP2 DUP4 PUSH2 0x3BE JUMP JUMPDEST DUP2 ADD SWAP1 DUP11 DUP2 DUP4 SUB SLT PUSH2 0x873 JUMPI DUP1 MLOAD SWAP1 DUP6 DUP3 GT PUSH2 0x86B JUMPI ADD SWAP4 DUP10 DUP6 DUP4 SUB SLT PUSH2 0x873 JUMPI DUP10 MLOAD SWAP5 DUP11 DUP7 ADD DUP7 DUP2 LT DUP4 DUP3 GT OR PUSH2 0x883 JUMPI DUP1 DUP13 MSTORE DUP2 MLOAD DUP4 DUP2 GT PUSH2 0x87B JUMPI DUP3 ADD DUP6 DUP2 DUP7 SUB SLT PUSH2 0x87B JUMPI PUSH2 0x6B3 DUP3 PUSH2 0x370 JUMP JUMPDEST PUSH2 0x6BC DUP2 PUSH2 0x441 JUMP JUMPDEST DUP3 MSTORE DUP14 DUP2 ADD MLOAD DUP5 DUP2 GT PUSH2 0x87F JUMPI DUP6 PUSH2 0x6D5 SWAP2 DUP4 ADD PUSH2 0x3FC JUMP JUMPDEST DUP7 DUP10 ADD MSTORE DUP13 DUP2 ADD MLOAD SWAP1 DUP5 DUP3 GT PUSH2 0x87F JUMPI PUSH2 0x6F1 SWAP2 DUP7 SWAP2 ADD PUSH2 0x3FC JUMP JUMPDEST PUSH1 0x80 DUP9 ADD MSTORE DUP7 MSTORE DUP12 DUP2 ADD MLOAD SWAP1 DUP3 DUP3 GT PUSH2 0x86F JUMPI ADD DUP1 DUP4 SUB SWAP5 PUSH2 0x1A0 DUP7 SLT PUSH2 0x86F JUMPI DUP12 MLOAD SWAP6 PUSH2 0x71E DUP8 PUSH2 0x370 JUMP JUMPDEST PUSH1 0xC0 DUP2 SLT PUSH2 0x87B JUMPI DUP13 MLOAD PUSH2 0x731 DUP2 PUSH2 0x3A2 JUMP JUMPDEST DUP4 MLOAD PUSH1 0x8 DUP2 LT ISZERO PUSH2 0x877 JUMPI DUP2 MSTORE DUP4 DUP16 ADD MLOAD PUSH1 0x5 DUP2 LT ISZERO PUSH2 0x877 JUMPI DUP16 DUP3 ADD MSTORE DUP14 DUP1 DUP6 ADD MLOAD SWAP1 DUP3 ADD MSTORE DUP7 DUP5 ADD MLOAD DUP8 DUP3 ADD MSTORE PUSH1 0x80 DUP5 ADD MLOAD PUSH1 0x80 DUP3 ADD MSTORE PUSH1 0xA0 DUP5 ADD MLOAD PUSH1 0x3 DUP2 LT ISZERO PUSH2 0x877 JUMPI PUSH1 0xA0 DUP3 ADD MSTORE DUP8 MSTORE PUSH1 0xC0 PUSH1 0xBF NOT SWAP1 SWAP2 ADD SLT PUSH2 0x86F JUMPI DUP12 MLOAD SWAP1 PUSH2 0x798 DUP3 PUSH2 0x3A2 JUMP JUMPDEST PUSH2 0x7A4 PUSH1 0xC0 DUP5 ADD PUSH2 0x441 JUMP JUMPDEST DUP3 MSTORE DUP14 PUSH2 0x7B3 PUSH1 0xE0 DUP6 ADD PUSH2 0x441 JUMP JUMPDEST SWAP1 DUP4 ADD MSTORE PUSH2 0x100 DUP4 ADD MLOAD DUP14 DUP4 ADD MSTORE DUP3 ADD MLOAD DUP6 DUP3 ADD MSTORE PUSH2 0x140 DUP3 ADD MLOAD PUSH1 0x80 DUP3 ADD MSTORE PUSH2 0x160 DUP3 ADD MLOAD PUSH1 0xA0 DUP3 ADD MSTORE DUP13 DUP7 ADD MSTORE PUSH2 0x180 DUP2 ADD MLOAD SWAP1 DUP3 DUP3 GT PUSH2 0x86F JUMPI ADD SWAP3 DUP4 DUP4 SUB SLT PUSH2 0x873 JUMPI DUP10 MLOAD SWAP3 PUSH2 0x806 DUP5 PUSH2 0x370 JUMP JUMPDEST DUP1 MLOAD DUP3 DUP2 GT PUSH2 0x86F JUMPI DUP4 PUSH2 0x81B SWAP2 DUP4 ADD PUSH2 0x3FC JUMP JUMPDEST DUP5 MSTORE DUP12 DUP2 ADD MLOAD DUP3 DUP2 GT PUSH2 0x86F JUMPI DUP4 PUSH2 0x834 SWAP2 DUP4 ADD PUSH2 0x3FC JUMP JUMPDEST DUP13 DUP6 ADD MSTORE DUP11 DUP2 ADD MLOAD SWAP2 DUP3 GT PUSH2 0x86B JUMPI SWAP4 DUP12 SWAP4 PUSH2 0x857 DUP6 SWAP5 PUSH1 0xE0 SWAP9 SWAP5 DUP13 SWAP9 ADD PUSH2 0x3FC JUMP JUMPDEST DUP13 DUP3 ADD MSTORE DUP12 DUP3 ADD MSTORE DUP3 DUP3 ADD MSTORE SWAP4 CODESIZE DUP1 PUSH2 0x5B5 JUMP JUMPDEST DUP7 DUP1 REVERT JUMPDEST DUP8 DUP1 REVERT JUMPDEST DUP6 DUP1 REVERT JUMPDEST DUP11 DUP1 REVERT JUMPDEST DUP9 DUP1 REVERT JUMPDEST DUP10 DUP1 REVERT JUMPDEST POP PUSH4 0x4E487B71 PUSH1 0xE0 SHL DUP8 MSTORE PUSH1 0x41 DUP14 MSTORE PUSH1 0x24 DUP8 REVERT JUMPDEST DUP10 MLOAD RETURNDATASIZE DUP8 DUP3 RETURNDATACOPY RETURNDATASIZE SWAP1 REVERT JUMPDEST DUP9 MLOAD PUSH3 0x461BCD PUSH1 0xE5 SHL DUP2 MSTORE DUP1 DUP13 ADD DUP12 SWAP1 MSTORE PUSH1 0x12 PUSH1 0x24 DUP3 ADD MSTORE PUSH18 0x1413D4D5081393D508119253905312569151 PUSH1 0x72 SHL PUSH1 0x44 DUP3 ADD MSTORE PUSH1 0x64 SWAP1 REVERT JUMPDEST PUSH4 0x4E487B71 PUSH1 0xE0 SHL DUP7 MSTORE PUSH1 0x21 DUP13 MSTORE PUSH1 0x24 DUP7 REVERT JUMPDEST SWAP1 POP DUP11 DUP2 DUP2 RETURNDATASIZE DUP4 GT PUSH2 0x91B JUMPI JUMPDEST PUSH2 0x903 DUP2 DUP4 PUSH2 0x3BE JUMP JUMPDEST DUP2 ADD SUB SLT PUSH2 0x873 JUMPI MLOAD PUSH1 0x8 DUP2 LT ISZERO PUSH2 0x873 JUMPI CODESIZE PUSH2 0x578 JUMP JUMPDEST POP RETURNDATASIZE PUSH2 0x8F9 JUMP JUMPDEST DUP11 MLOAD RETURNDATASIZE DUP9 DUP3 RETURNDATACOPY RETURNDATASIZE SWAP1 REVERT JUMPDEST DUP9 MLOAD PUSH3 0x461BCD PUSH1 0xE5 SHL DUP2 MSTORE DUP1 DUP13 ADD DUP12 SWAP1 MSTORE PUSH1 0x1D PUSH1 0x24 DUP3 ADD MSTORE PUSH32 0x454E4352595054454420504F535420444F4553204E4F54204D41544348000000 PUSH1 0x44 DUP3 ADD MSTORE PUSH1 0x64 SWAP1 REVERT JUMPDEST SWAP1 POP RETURNDATASIZE DUP1 DUP10 DUP4 RETURNDATACOPY PUSH2 0x980 DUP2 DUP4 PUSH2 0x3BE JUMP JUMPDEST DUP2 ADD SWAP1 DUP14 DUP2 DUP4 SUB SLT PUSH2 0x87B JUMPI DUP1 MLOAD SWAP1 DUP9 DUP3 GT PUSH2 0x87F JUMPI PUSH2 0x9A1 SWAP3 SWAP2 ADD PUSH2 0x3FC JUMP JUMPDEST CODESIZE PUSH2 0x547 JUMP JUMPDEST DUP13 MLOAD RETURNDATASIZE DUP11 DUP3 RETURNDATACOPY RETURNDATASIZE SWAP1 REVERT JUMPDEST SWAP2 SWAP1 DUP2 LT ISZERO PUSH2 0x9C1 JUMPI PUSH1 0x5 SHL ADD SWAP1 JUMP JUMPDEST PUSH4 0x4E487B71 PUSH1 0xE0 SHL PUSH1 0x0 MSTORE PUSH1 0x32 PUSH1 0x4 MSTORE PUSH1 0x24 PUSH1 0x0 REVERT JUMPDEST SWAP2 SWAP1 DUP2 LT ISZERO PUSH2 0x9C1 JUMPI PUSH1 0x5 SHL DUP2 ADD CALLDATALOAD SWAP1 PUSH2 0x13E NOT DUP2 CALLDATASIZE SUB ADD DUP3 SLT ISZERO PUSH2 0x2ED JUMPI ADD SWAP1 JUMP JUMPDEST SWAP1 SWAP2 SWAP3 DUP1 DUP4 SUB PUSH2 0xA6F JUMPI PUSH1 0x0 SWAP2 DUP3 SWAP2 CALLVALUE JUMPDEST DUP6 DUP6 LT PUSH2 0xA1E JUMPI POP POP POP POP POP POP POP PUSH1 0x1 SWAP1 JUMP JUMPDEST PUSH2 0xA29 DUP6 DUP4 DUP10 PUSH2 0x9B1 JUMP JUMPDEST CALLDATALOAD SWAP1 DUP1 DUP3 GT PUSH2 0xA5D JUMPI PUSH2 0xA40 PUSH2 0x8A DUP8 DUP10 DUP8 PUSH2 0x9D7 JUMP JUMPDEST ISZERO PUSH2 0xA52 JUMPI SWAP1 PUSH1 0x1 SWAP2 SUB SWAP5 ADD SWAP4 PUSH2 0xA0B JUMP JUMPDEST POP POP POP POP SWAP3 POP POP POP SWAP1 JUMP JUMPDEST PUSH1 0x40 MLOAD PUSH4 0x44044A5 PUSH1 0xE2 SHL DUP2 MSTORE PUSH1 0x4 SWAP1 REVERT JUMPDEST PUSH1 0x40 MLOAD PUSH4 0x251F56A1 PUSH1 0xE2 SHL DUP2 MSTORE PUSH1 0x4 SWAP1 REVERT JUMPDEST PUSH32 0x0 PUSH1 0x1 PUSH1 0x1 PUSH1 0xA0 SHL SUB AND CALLER SUB PUSH2 0xAB3 JUMPI JUMP JUMPDEST PUSH1 0x40 MLOAD PUSH4 0x4CA88867 PUSH1 0xE0 SHL DUP2 MSTORE PUSH1 0x4 SWAP1 REVERT JUMPDEST DUP1 PUSH1 0x0 SWAP2 PUSH27 0x184F03E93FF9F4DAA797ED6E38ED64BF6A1F010000000000000000 DUP1 DUP3 LT ISZERO PUSH2 0xC1F JUMPI JUMPDEST POP PUSH14 0x4EE2D6D415B85ACEF8100000000 DUP1 DUP4 LT ISZERO PUSH2 0xC10 JUMPI JUMPDEST POP PUSH7 0x2386F26FC10000 DUP1 DUP4 LT ISZERO PUSH2 0xC01 JUMPI JUMPDEST POP PUSH4 0x5F5E100 DUP1 DUP4 LT ISZERO PUSH2 0xBF2 JUMPI JUMPDEST POP PUSH2 0x2710 DUP1 DUP4 LT ISZERO PUSH2 0xBE3 JUMPI JUMPDEST POP PUSH1 0x64 DUP3 LT ISZERO PUSH2 0xBD3 JUMPI JUMPDEST PUSH1 0xA DUP1 SWAP3 LT ISZERO PUSH2 0xBC9 JUMPI JUMPDEST PUSH1 0x1 SWAP1 DUP2 PUSH1 0x21 DUP2 DUP7 ADD SWAP6 PUSH2 0xB5E DUP8 PUSH2 0x3E0 JUMP JUMPDEST SWAP7 PUSH2 0xB6C PUSH1 0x40 MLOAD SWAP9 DUP10 PUSH2 0x3BE JUMP JUMPDEST DUP1 DUP9 MSTORE PUSH2 0xB7B PUSH1 0x1F NOT SWAP2 PUSH2 0x3E0 JUMP JUMPDEST ADD CALLDATASIZE PUSH1 0x20 DUP10 ADD CALLDATACOPY DUP7 ADD ADD SWAP1 JUMPDEST PUSH2 0xB93 JUMPI JUMPDEST POP POP POP POP SWAP1 JUMP JUMPDEST PUSH1 0x0 NOT ADD SWAP1 DUP4 SWAP1 PUSH16 0x181899199A1A9B1B9C1CB0B131B232B3 PUSH1 0x81 SHL DUP3 DUP3 MOD BYTE DUP4 MSTORE8 DIV SWAP2 DUP3 ISZERO PUSH2 0xBC4 JUMPI SWAP2 SWAP1 DUP3 PUSH2 0xB87 JUMP JUMPDEST PUSH2 0xB8C JUMP JUMPDEST SWAP2 PUSH1 0x1 ADD SWAP2 PUSH2 0xB4B JUMP JUMPDEST SWAP2 SWAP1 PUSH1 0x64 PUSH1 0x2 SWAP2 DIV SWAP2 ADD SWAP2 PUSH2 0xB40 JUMP JUMPDEST PUSH1 0x4 SWAP2 SWAP4 SWAP3 DIV SWAP2 ADD SWAP2 CODESIZE PUSH2 0xB35 JUMP JUMPDEST PUSH1 0x8 SWAP2 SWAP4 SWAP3 DIV SWAP2 ADD SWAP2 CODESIZE PUSH2 0xB28 JUMP JUMPDEST PUSH1 0x10 SWAP2 SWAP4 SWAP3 DIV SWAP2 ADD SWAP2 CODESIZE PUSH2 0xB19 JUMP JUMPDEST PUSH1 0x20 SWAP2 SWAP4 SWAP3 DIV SWAP2 ADD SWAP2 CODESIZE PUSH2 0xB07 JUMP JUMPDEST PUSH1 0x40 SWAP4 POP DUP2 DIV SWAP2 POP CODESIZE PUSH2 0xAEE JUMP INVALID LOG2 PUSH5 0x6970667358 0x22 SLT KECCAK256 0xB8 PUSH22 0x57E6CB98075D7D6883932270B01C9015639656C6C359 0x4F 0xB3 0x21 SWAP6 PUSH15 0xB47E1964736F6C6343000813003300 "},"gasEstimates":{"creation":{"codeDepositCost":"634200","executionCost":"infinite","totalCost":"infinite"},"external":{"attest((bytes32,bytes32,uint64,uint64,uint64,bytes32,address,address,bool,bytes))":"infinite","isPayable()":"231","multiAttest((bytes32,bytes32,uint64,uint64,uint64,bytes32,address,address,bool,bytes)[],uint256[])":"infinite","multiRevoke((bytes32,bytes32,uint64,uint64,uint64,bytes32,address,address,bool,bytes)[],uint256[])":"infinite","revoke((bytes32,bytes32,uint64,uint64,uint64,bytes32,address,address,bool,bytes))":"infinite","version()":"infinite"},"internal":{"onAttest(struct Attestation calldata,uint256)":"infinite","onRevoke(struct Attestation calldata,uint256)":"infinite"}},"methodIdentifiers":{"attest((bytes32,bytes32,uint64,uint64,uint64,bytes32,address,address,bool,bytes))":"e60c3505","isPayable()":"ce46e046","multiAttest((bytes32,bytes32,uint64,uint64,uint64,bytes32,address,address,bool,bytes)[],uint256[])":"91db0b7e","multiRevoke((bytes32,bytes32,uint64,uint64,uint64,bytes32,address,address,bool,bytes)[],uint256[])":"88e5b2d9","revoke((bytes32,bytes32,uint64,uint64,uint64,bytes32,address,address,bool,bytes))":"e49617e1","version()":"54fd4d50"}},"storageLayout":{"storage":[],"types":null},"userdoc":{"kind":"user","methods":{"attest((bytes32,bytes32,uint64,uint64,uint64,bytes32,address,address,bool,bytes))":{"notice":"Processes an attestation and verifies whether it's valid."},"isPayable()":{"notice":"Checks if the resolver can be sent ETH."},"multiAttest((bytes32,bytes32,uint64,uint64,uint64,bytes32,address,address,bool,bytes)[],uint256[])":{"notice":"Processes multiple attestations and verifies whether they are valid."},"multiRevoke((bytes32,bytes32,uint64,uint64,uint64,bytes32,address,address,bool,bytes)[],uint256[])":{"notice":"Processes revocation of multiple attestation and verifies they can be revoked."},"revoke((bytes32,bytes32,uint64,uint64,uint64,bytes32,address,address,bool,bytes))":{"notice":"Processes an attestation revocation and verifies if it can be revoked."},"version()":{"notice":"Returns the full semver contract version."}},"version":1}}}}