{"contracts/helpers/eas/Semver.sol":{"Semver":{"abi":[{"inputs":[{"internalType":"uint256","name":"major","type":"uint256"},{"internalType":"uint256","name":"minor","type":"uint256"},{"internalType":"uint256","name":"patch","type":"uint256"}],"stateMutability":"nonpayable","type":"constructor"},{"inputs":[],"name":"version","outputs":[{"internalType":"string","name":"","type":"string"}],"stateMutability":"view","type":"function"}],"devdoc":{"kind":"dev","methods":{"constructor":{"details":"Create a new Semver instance.","params":{"major":"Major version number.","minor":"Minor version number.","patch":"Patch version number."}},"version()":{"returns":{"_0":"Semver contract version as a string."}}},"title":"Semver","version":1},"evm":{"bytecode":{"linkReferences":{},"object":"60e03461007c57601f6103fa38819003918201601f19168301916001600160401b038311848410176100815780849260609460405283398101031261007c57805190604060208201519101519160805260a05260c0526040516103629081610098823960805181603d015260a051816068015260c0518160920152f35b600080fd5b634e487b7160e01b600052604160045260246000fdfe6080604052600436101561001257600080fd5b6000803560e01c6354fd4d501461002857600080fd5b3461014a578060031936011261014a576100617f00000000000000000000000000000000000000000000000000000000000000006101c4565b604061008c7f00000000000000000000000000000000000000000000000000000000000000006101c4565b916100b67f00000000000000000000000000000000000000000000000000000000000000006101c4565b90610120602284518094602097886100d7818501978881519384920161014d565b830190601760f91b91828b8201526100f8825180938d60218501910161014d565b01906021820152610111825180938b878501910161014d565b01036002810185520183610170565b61013c835194859381855251928380928601528585019061014d565b601f01601f19168101030190f35b80fd5b60005b8381106101605750506000910152565b8181015183820152602001610150565b90601f8019910116810190811067ffffffffffffffff82111761019257604052565b634e487b7160e01b600052604160045260246000fd5b67ffffffffffffffff811161019257601f01601f191660200190565b806000917a184f03e93ff9f4daa797ed6e38ed64bf6a1f0100000000000000008082101561031e575b506d04ee2d6d415b85acef81000000008083101561030f575b50662386f26fc1000080831015610300575b506305f5e100808310156102f1575b50612710808310156102e2575b5060648210156102d2575b600a809210156102c8575b6001908160218186019561025d876101a8565b9661026b6040519889610170565b80885261027a601f19916101a8565b01366020890137860101905b610292575b5050505090565b600019019083906f181899199a1a9b1b9c1cb0b131b232b360811b8282061a8353049182156102c357919082610286565b61028b565b916001019161024a565b919060646002910491019161023f565b60049193920491019138610234565b60089193920491019138610227565b60109193920491019138610218565b60209193920491019138610206565b6040935081049150386101ed56fea2646970667358221220d3fb42119b2bf64549106b977bf8b9f1196ab8905563c4a3c13ab81baae9adbf64736f6c63430008130033","opcodes":"PUSH1 0xE0 CALLVALUE PUSH2 0x7C JUMPI PUSH1 0x1F PUSH2 0x3FA CODESIZE DUP2 SWAP1 SUB SWAP2 DUP3 ADD PUSH1 0x1F NOT AND DUP4 ADD SWAP2 PUSH1 0x1 PUSH1 0x1 PUSH1 0x40 SHL SUB DUP4 GT DUP5 DUP5 LT OR PUSH2 0x81 JUMPI DUP1 DUP5 SWAP3 PUSH1 0x60 SWAP5 PUSH1 0x40 MSTORE DUP4 CODECOPY DUP2 ADD SUB SLT PUSH2 0x7C JUMPI DUP1 MLOAD SWAP1 PUSH1 0x40 PUSH1 0x20 DUP3 ADD MLOAD SWAP2 ADD MLOAD SWAP2 PUSH1 0x80 MSTORE PUSH1 0xA0 MSTORE PUSH1 0xC0 MSTORE PUSH1 0x40 MLOAD PUSH2 0x362 SWAP1 DUP2 PUSH2 0x98 DUP3 CODECOPY PUSH1 0x80 MLOAD DUP2 PUSH1 0x3D ADD MSTORE PUSH1 0xA0 MLOAD DUP2 PUSH1 0x68 ADD MSTORE PUSH1 0xC0 MLOAD DUP2 PUSH1 0x92 ADD MSTORE RETURN JUMPDEST PUSH1 0x0 DUP1 REVERT JUMPDEST PUSH4 0x4E487B71 PUSH1 0xE0 SHL PUSH1 0x0 MSTORE PUSH1 0x41 PUSH1 0x4 MSTORE PUSH1 0x24 PUSH1 0x0 REVERT INVALID PUSH1 0x80 PUSH1 0x40 MSTORE PUSH1 0x4 CALLDATASIZE LT ISZERO PUSH2 0x12 JUMPI PUSH1 0x0 DUP1 REVERT JUMPDEST PUSH1 0x0 DUP1 CALLDATALOAD PUSH1 0xE0 SHR PUSH4 0x54FD4D50 EQ PUSH2 0x28 JUMPI PUSH1 0x0 DUP1 REVERT JUMPDEST CALLVALUE PUSH2 0x14A JUMPI DUP1 PUSH1 0x3 NOT CALLDATASIZE ADD SLT PUSH2 0x14A JUMPI PUSH2 0x61 PUSH32 0x0 PUSH2 0x1C4 JUMP JUMPDEST PUSH1 0x40 PUSH2 0x8C PUSH32 0x0 PUSH2 0x1C4 JUMP JUMPDEST SWAP2 PUSH2 0xB6 PUSH32 0x0 PUSH2 0x1C4 JUMP JUMPDEST SWAP1 PUSH2 0x120 PUSH1 0x22 DUP5 MLOAD DUP1 SWAP5 PUSH1 0x20 SWAP8 DUP9 PUSH2 0xD7 DUP2 DUP6 ADD SWAP8 DUP9 DUP2 MLOAD SWAP4 DUP5 SWAP3 ADD PUSH2 0x14D JUMP JUMPDEST DUP4 ADD SWAP1 PUSH1 0x17 PUSH1 0xF9 SHL SWAP2 DUP3 DUP12 DUP3 ADD MSTORE PUSH2 0xF8 DUP3 MLOAD DUP1 SWAP4 DUP14 PUSH1 0x21 DUP6 ADD SWAP2 ADD PUSH2 0x14D JUMP JUMPDEST ADD SWAP1 PUSH1 0x21 DUP3 ADD MSTORE PUSH2 0x111 DUP3 MLOAD DUP1 SWAP4 DUP12 DUP8 DUP6 ADD SWAP2 ADD PUSH2 0x14D JUMP JUMPDEST ADD SUB PUSH1 0x2 DUP2 ADD DUP6 MSTORE ADD DUP4 PUSH2 0x170 JUMP JUMPDEST PUSH2 0x13C DUP4 MLOAD SWAP5 DUP6 SWAP4 DUP2 DUP6 MSTORE MLOAD SWAP3 DUP4 DUP1 SWAP3 DUP7 ADD MSTORE DUP6 DUP6 ADD SWAP1 PUSH2 0x14D JUMP JUMPDEST PUSH1 0x1F ADD PUSH1 0x1F NOT AND DUP2 ADD SUB ADD SWAP1 RETURN JUMPDEST DUP1 REVERT JUMPDEST PUSH1 0x0 JUMPDEST DUP4 DUP2 LT PUSH2 0x160 JUMPI POP POP PUSH1 0x0 SWAP2 ADD MSTORE JUMP JUMPDEST DUP2 DUP2 ADD MLOAD DUP4 DUP3 ADD MSTORE PUSH1 0x20 ADD PUSH2 0x150 JUMP JUMPDEST SWAP1 PUSH1 0x1F DUP1 NOT SWAP2 ADD AND DUP2 ADD SWAP1 DUP2 LT PUSH8 0xFFFFFFFFFFFFFFFF DUP3 GT OR PUSH2 0x192 JUMPI PUSH1 0x40 MSTORE JUMP JUMPDEST PUSH4 0x4E487B71 PUSH1 0xE0 SHL PUSH1 0x0 MSTORE PUSH1 0x41 PUSH1 0x4 MSTORE PUSH1 0x24 PUSH1 0x0 REVERT JUMPDEST PUSH8 0xFFFFFFFFFFFFFFFF DUP2 GT PUSH2 0x192 JUMPI PUSH1 0x1F ADD PUSH1 0x1F NOT AND PUSH1 0x20 ADD SWAP1 JUMP JUMPDEST DUP1 PUSH1 0x0 SWAP2 PUSH27 0x184F03E93FF9F4DAA797ED6E38ED64BF6A1F010000000000000000 DUP1 DUP3 LT ISZERO PUSH2 0x31E JUMPI JUMPDEST POP PUSH14 0x4EE2D6D415B85ACEF8100000000 DUP1 DUP4 LT ISZERO PUSH2 0x30F JUMPI JUMPDEST POP PUSH7 0x2386F26FC10000 DUP1 DUP4 LT ISZERO PUSH2 0x300 JUMPI JUMPDEST POP PUSH4 0x5F5E100 DUP1 DUP4 LT ISZERO PUSH2 0x2F1 JUMPI JUMPDEST POP PUSH2 0x2710 DUP1 DUP4 LT ISZERO PUSH2 0x2E2 JUMPI JUMPDEST POP PUSH1 0x64 DUP3 LT ISZERO PUSH2 0x2D2 JUMPI JUMPDEST PUSH1 0xA DUP1 SWAP3 LT ISZERO PUSH2 0x2C8 JUMPI JUMPDEST PUSH1 0x1 SWAP1 DUP2 PUSH1 0x21 DUP2 DUP7 ADD SWAP6 PUSH2 0x25D DUP8 PUSH2 0x1A8 JUMP JUMPDEST SWAP7 PUSH2 0x26B PUSH1 0x40 MLOAD SWAP9 DUP10 PUSH2 0x170 JUMP JUMPDEST DUP1 DUP9 MSTORE PUSH2 0x27A PUSH1 0x1F NOT SWAP2 PUSH2 0x1A8 JUMP JUMPDEST ADD CALLDATASIZE PUSH1 0x20 DUP10 ADD CALLDATACOPY DUP7 ADD ADD SWAP1 JUMPDEST PUSH2 0x292 JUMPI JUMPDEST POP POP POP POP SWAP1 JUMP JUMPDEST PUSH1 0x0 NOT ADD SWAP1 DUP4 SWAP1 PUSH16 0x181899199A1A9B1B9C1CB0B131B232B3 PUSH1 0x81 SHL DUP3 DUP3 MOD BYTE DUP4 MSTORE8 DIV SWAP2 DUP3 ISZERO PUSH2 0x2C3 JUMPI SWAP2 SWAP1 DUP3 PUSH2 0x286 JUMP JUMPDEST PUSH2 0x28B JUMP JUMPDEST SWAP2 PUSH1 0x1 ADD SWAP2 PUSH2 0x24A JUMP JUMPDEST SWAP2 SWAP1 PUSH1 0x64 PUSH1 0x2 SWAP2 DIV SWAP2 ADD SWAP2 PUSH2 0x23F JUMP JUMPDEST PUSH1 0x4 SWAP2 SWAP4 SWAP3 DIV SWAP2 ADD SWAP2 CODESIZE PUSH2 0x234 JUMP JUMPDEST PUSH1 0x8 SWAP2 SWAP4 SWAP3 DIV SWAP2 ADD SWAP2 CODESIZE PUSH2 0x227 JUMP JUMPDEST PUSH1 0x10 SWAP2 SWAP4 SWAP3 DIV SWAP2 ADD SWAP2 CODESIZE PUSH2 0x218 JUMP JUMPDEST PUSH1 0x20 SWAP2 SWAP4 SWAP3 DIV SWAP2 ADD SWAP2 CODESIZE PUSH2 0x206 JUMP JUMPDEST PUSH1 0x40 SWAP4 POP DUP2 DIV SWAP2 POP CODESIZE PUSH2 0x1ED JUMP INVALID LOG2 PUSH5 0x6970667358 0x22 SLT KECCAK256 0xD3 0xFB TIMESTAMP GT SWAP12 0x2B 0xF6 GASLIMIT 0x49 LT PUSH12 0x977BF8B9F1196AB8905563C4 LOG3 0xC1 GASPRICE 0xB8 SHL 0xAA 0xE9 0xAD 0xBF PUSH5 0x736F6C6343 STOP ADDMOD SGT STOP CALLER "},"gasEstimates":{"creation":{"codeDepositCost":"173200","executionCost":"infinite","totalCost":"infinite"},"external":{"version()":"infinite"}},"methodIdentifiers":{"version()":"54fd4d50"}},"storageLayout":{"storage":[],"types":null},"userdoc":{"kind":"user","methods":{"version()":{"notice":"Returns the full semver contract version."}},"notice":"A simple contract for managing contract versions.","version":1}}}}