{"contracts/layer/MecenatePay.sol":{"MecenatePay":{"abi":[{"inputs":[{"internalType":"address","name":"_usersContract","type":"address"}],"stateMutability":"nonpayable","type":"constructor"},{"anonymous":false,"inputs":[{"indexed":true,"internalType":"address","name":"user","type":"address"},{"indexed":false,"internalType":"bytes","name":"pubKey","type":"bytes"}],"name":"KeySubmitted","type":"event"},{"anonymous":false,"inputs":[{"indexed":true,"internalType":"address","name":"previousOwner","type":"address"},{"indexed":true,"internalType":"address","name":"newOwner","type":"address"}],"name":"OwnershipTransferred","type":"event"},{"inputs":[{"internalType":"bytes","name":"","type":"bytes"}],"name":"encryptedKeys","outputs":[{"internalType":"bytes","name":"","type":"bytes"}],"stateMutability":"view","type":"function"},{"inputs":[{"internalType":"bytes","name":"pubKey","type":"bytes"}],"name":"getHash","outputs":[{"internalType":"bytes","name":"","type":"bytes"}],"stateMutability":"view","type":"function"},{"inputs":[],"name":"owner","outputs":[{"internalType":"address","name":"","type":"address"}],"stateMutability":"view","type":"function"},{"inputs":[],"name":"renounceOwnership","outputs":[],"stateMutability":"nonpayable","type":"function"},{"inputs":[{"internalType":"bytes","name":"encryptedData","type":"bytes"}],"name":"submitHash","outputs":[],"stateMutability":"payable","type":"function"},{"inputs":[{"internalType":"address","name":"newOwner","type":"address"}],"name":"transferOwnership","outputs":[],"stateMutability":"nonpayable","type":"function"},{"inputs":[],"name":"treasury","outputs":[{"internalType":"address","name":"","type":"address"}],"stateMutability":"view","type":"function"},{"inputs":[{"internalType":"address","name":"newUsersContract","type":"address"}],"name":"updateUsersContract","outputs":[],"stateMutability":"nonpayable","type":"function"},{"inputs":[],"name":"usersContract","outputs":[{"internalType":"address","name":"","type":"address"}],"stateMutability":"view","type":"function"}],"devdoc":{"kind":"dev","methods":{"owner()":{"details":"Returns the address of the current owner."},"renounceOwnership()":{"details":"Leaves the contract without owner. It will not be possible to call `onlyOwner` functions. Can only be called by the current owner. NOTE: Renouncing ownership will leave the contract without an owner, thereby disabling any functionality that is only available to the owner."},"transferOwnership(address)":{"details":"Transfers ownership of the contract to a new account (`newOwner`). Can only be called by the current owner."}},"version":1},"evm":{"bytecode":{"linkReferences":{},"object":"6080346100a757601f610a8b38819003918201601f19168301916001600160401b038311848410176100ac578084926020946040528339810103126100a757516001600160a01b0390818116908190036100a75760005460018060a01b0319903382821617600055604051933391167f8be0079c531659141344cd1fd0a4f28419497f9722a3daafe3b4186f6b6457e0600080a360025416176002556109c890816100c38239f35b600080fd5b634e487b7160e01b600052604160045260246000fdfe608060408181526004908136101561001657600080fd5b600092833560e01c908163142ebf3c14610678575080634b78896d1461064a578063505da9e11461060157806361d027b3146105d8578063715018a61461057b5780638da5cb5b1461054f5780638f903c791461021f578063b00140aa146101535763f2fde38b1461008757600080fd5b3461014f57602036600319011261014f576001600160a01b0382358181169391929084900361014b576100b861088e565b83156100f957505082546001600160a01b0319811683178455167f8be0079c531659141344cd1fd0a4f28419497f9722a3daafe3b4186f6b6457e08380a380f35b906020608492519162461bcd60e51b8352820152602660248201527f4f776e61626c653a206e6577206f776e657220697320746865207a65726f206160448201526564647265737360d01b6064820152fd5b8480fd5b8280fd5b50903461014f57610163366106f1565b908360018060a01b0360025416916024855180948193628918ff60e51b835233908301525afa908115610212576101e0926101d192602092876101eb98926101ef575b5050828151910120906101c181519284830193842014610951565b855193849283925192839161075f565b810160018152030190206107bc565b905191829182610862565b0390f35b61020b92503d8091833e610203818361069d565b81019061092b565b38806101a6565b50505051903d90823e3d90fd5b50829061022b366106f1565b9081518201936020828482880197031261014b57808401519567ffffffffffffffff9687811161054b578183610263928801016108e6565b9484810151908882116105475761027d92910183016108e6565b60035484516391792d5b60e01b81529195916001600160a01b039182169084818781855afa90811561053d57899161050c575b5034036104d6578780808093819034156104cc575b3491f1156104c2578660249160025416865192838092628918ff60e51b825233898301525afa9081156104b85790610328939291889161049e575b5082815191012061031987519184890192832014610951565b8551938491885192839161075f565b83019282816001958681520301902093815198891161048b575061034c8454610782565b601f8111610445575b5081601f89116001146103c25750968092819288997ef0a6069b4fee3a287b0f6e73983c9654d21d13810d914d14adc2393028cca49899946103b7575b50501b916000199060031b1c19161790555b51806103b1339482610862565b0390a280f35b015192508980610392565b909791601f198316988589528289209289905b8b821061042e575050837ef0a6069b4fee3a287b0f6e73983c9654d21d13810d914d14adc2393028cca498999a10610415575b505050811b0190556103a4565b015160001960f88460031b161c19169055878080610408565b8087859682949686015181550195019301906103d5565b848852828820601f8a0160051c810191848b10610481575b601f0160051c019084905b828110610476575050610355565b898155018490610468565b909150819061045d565b634e487b7160e01b885260419052602487fd5b6104b291503d808a833e610203818361069d565b89610300565b85513d89823e3d90fd5b84513d88823e3d90fd5b6108fc91506102c5565b5050925162461bcd60e51b815291820152600f60248201526e57726f6e67204665652056616c756560881b604482015260649150fd5b90508481813d8311610536575b610523818361069d565b8101031261053257518a6102b0565b8880fd5b503d610519565b87513d8b823e3d90fd5b8780fd5b8680fd5b838234610577578160031936011261057757905490516001600160a01b039091168152602090f35b5080fd5b83346105d557806003193601126105d55761059461088e565b80546001600160a01b03198116825581906001600160a01b03167f8be0079c531659141344cd1fd0a4f28419497f9722a3daafe3b4186f6b6457e08280a380f35b80fd5b83823461057757816003193601126105775760035490516001600160a01b039091168152602090f35b50503461057757602036600319011261057757356001600160a01b038116908190036105775761062f61088e565b6bffffffffffffffffffffffff60a01b600254161760025580f35b838234610577576101eb906101e06101d16020610666366106f1565b8185519382858094519384920161075f565b8490346105775781600319360112610577576002546001600160a01b03168152602090f35b90601f8019910116810190811067ffffffffffffffff8211176106bf57604052565b634e487b7160e01b600052604160045260246000fd5b67ffffffffffffffff81116106bf57601f01601f191660200190565b602060031982011261075a5760043567ffffffffffffffff811161075a578160238201121561075a57806004013590610729826106d5565b92610737604051948561069d565b8284526024838301011161075a5781600092602460209301838601378301015290565b600080fd5b60005b8381106107725750506000910152565b8181015183820152602001610762565b90600182811c921680156107b2575b602083101461079c57565b634e487b7160e01b600052602260045260246000fd5b91607f1691610791565b90604051918260008254926107d084610782565b90818452600194858116908160001461083f57506001146107fc575b50506107fa9250038361069d565b565b9093915060005260209081600020936000915b8183106108275750506107fa935082010138806107ec565b8554888401850152948501948794509183019161080f565b9150506107fa94506020925060ff191682840152151560051b82010138806107ec565b60409160208252610882815180928160208601526020868601910161075f565b601f01601f1916010190565b6000546001600160a01b031633036108a257565b606460405162461bcd60e51b815260206004820152602060248201527f4f776e61626c653a2063616c6c6572206973206e6f7420746865206f776e65726044820152fd5b81601f8201121561075a5780516108fc816106d5565b9261090a604051948561069d565b8184526020828401011161075a57610928916020808501910161075f565b90565b9060208282031261075a57815167ffffffffffffffff811161075a5761092892016108e6565b1561095857565b60405162461bcd60e51b8152602060048201526012602482015271496e76616c6964207075626c6963206b657960701b6044820152606490fdfea2646970667358221220bbd7cc707c0bc01d3e96c150f70e66c33b7bda9ba567c5cad9d18f2dc5473a2764736f6c63430008130033","opcodes":"PUSH1 0x80 CALLVALUE PUSH2 0xA7 JUMPI PUSH1 0x1F PUSH2 0xA8B CODESIZE DUP2 SWAP1 SUB SWAP2 DUP3 ADD PUSH1 0x1F NOT AND DUP4 ADD SWAP2 PUSH1 0x1 PUSH1 0x1 PUSH1 0x40 SHL SUB DUP4 GT DUP5 DUP5 LT OR PUSH2 0xAC JUMPI DUP1 DUP5 SWAP3 PUSH1 0x20 SWAP5 PUSH1 0x40 MSTORE DUP4 CODECOPY DUP2 ADD SUB SLT PUSH2 0xA7 JUMPI MLOAD PUSH1 0x1 PUSH1 0x1 PUSH1 0xA0 SHL SUB SWAP1 DUP2 DUP2 AND SWAP1 DUP2 SWAP1 SUB PUSH2 0xA7 JUMPI PUSH1 0x0 SLOAD PUSH1 0x1 DUP1 PUSH1 0xA0 SHL SUB NOT SWAP1 CALLER DUP3 DUP3 AND OR PUSH1 0x0 SSTORE PUSH1 0x40 MLOAD SWAP4 CALLER SWAP2 AND PUSH32 0x8BE0079C531659141344CD1FD0A4F28419497F9722A3DAAFE3B4186F6B6457E0 PUSH1 0x0 DUP1 LOG3 PUSH1 0x2 SLOAD AND OR PUSH1 0x2 SSTORE PUSH2 0x9C8 SWAP1 DUP2 PUSH2 0xC3 DUP3 CODECOPY RETURN JUMPDEST PUSH1 0x0 DUP1 REVERT JUMPDEST PUSH4 0x4E487B71 PUSH1 0xE0 SHL PUSH1 0x0 MSTORE PUSH1 0x41 PUSH1 0x4 MSTORE PUSH1 0x24 PUSH1 0x0 REVERT INVALID PUSH1 0x80 PUSH1 0x40 DUP2 DUP2 MSTORE PUSH1 0x4 SWAP1 DUP2 CALLDATASIZE LT ISZERO PUSH2 0x16 JUMPI PUSH1 0x0 DUP1 REVERT JUMPDEST PUSH1 0x0 SWAP3 DUP4 CALLDATALOAD PUSH1 0xE0 SHR SWAP1 DUP2 PUSH4 0x142EBF3C EQ PUSH2 0x678 JUMPI POP DUP1 PUSH4 0x4B78896D EQ PUSH2 0x64A JUMPI DUP1 PUSH4 0x505DA9E1 EQ PUSH2 0x601 JUMPI DUP1 PUSH4 0x61D027B3 EQ PUSH2 0x5D8 JUMPI DUP1 PUSH4 0x715018A6 EQ PUSH2 0x57B JUMPI DUP1 PUSH4 0x8DA5CB5B EQ PUSH2 0x54F JUMPI DUP1 PUSH4 0x8F903C79 EQ PUSH2 0x21F JUMPI DUP1 PUSH4 0xB00140AA EQ PUSH2 0x153 JUMPI PUSH4 0xF2FDE38B EQ PUSH2 0x87 JUMPI PUSH1 0x0 DUP1 REVERT JUMPDEST CALLVALUE PUSH2 0x14F JUMPI PUSH1 0x20 CALLDATASIZE PUSH1 0x3 NOT ADD SLT PUSH2 0x14F JUMPI PUSH1 0x1 PUSH1 0x1 PUSH1 0xA0 SHL SUB DUP3 CALLDATALOAD DUP2 DUP2 AND SWAP4 SWAP2 SWAP3 SWAP1 DUP5 SWAP1 SUB PUSH2 0x14B JUMPI PUSH2 0xB8 PUSH2 0x88E JUMP JUMPDEST DUP4 ISZERO PUSH2 0xF9 JUMPI POP POP DUP3 SLOAD PUSH1 0x1 PUSH1 0x1 PUSH1 0xA0 SHL SUB NOT DUP2 AND DUP4 OR DUP5 SSTORE AND PUSH32 0x8BE0079C531659141344CD1FD0A4F28419497F9722A3DAAFE3B4186F6B6457E0 DUP4 DUP1 LOG3 DUP1 RETURN JUMPDEST SWAP1 PUSH1 0x20 PUSH1 0x84 SWAP3 MLOAD SWAP2 PUSH3 0x461BCD PUSH1 0xE5 SHL DUP4 MSTORE DUP3 ADD MSTORE PUSH1 0x26 PUSH1 0x24 DUP3 ADD MSTORE PUSH32 0x4F776E61626C653A206E6577206F776E657220697320746865207A65726F2061 PUSH1 0x44 DUP3 ADD MSTORE PUSH6 0x646472657373 PUSH1 0xD0 SHL PUSH1 0x64 DUP3 ADD MSTORE REVERT JUMPDEST DUP5 DUP1 REVERT JUMPDEST DUP3 DUP1 REVERT JUMPDEST POP SWAP1 CALLVALUE PUSH2 0x14F JUMPI PUSH2 0x163 CALLDATASIZE PUSH2 0x6F1 JUMP JUMPDEST SWAP1 DUP4 PUSH1 0x1 DUP1 PUSH1 0xA0 SHL SUB PUSH1 0x2 SLOAD AND SWAP2 PUSH1 0x24 DUP6 MLOAD DUP1 SWAP5 DUP2 SWAP4 PUSH3 0x8918FF PUSH1 0xE5 SHL DUP4 MSTORE CALLER SWAP1 DUP4 ADD MSTORE GAS STATICCALL SWAP1 DUP2 ISZERO PUSH2 0x212 JUMPI PUSH2 0x1E0 SWAP3 PUSH2 0x1D1 SWAP3 PUSH1 0x20 SWAP3 DUP8 PUSH2 0x1EB SWAP9 SWAP3 PUSH2 0x1EF JUMPI JUMPDEST POP POP DUP3 DUP2 MLOAD SWAP2 ADD KECCAK256 SWAP1 PUSH2 0x1C1 DUP2 MLOAD SWAP3 DUP5 DUP4 ADD SWAP4 DUP5 KECCAK256 EQ PUSH2 0x951 JUMP JUMPDEST DUP6 MLOAD SWAP4 DUP5 SWAP3 DUP4 SWAP3 MLOAD SWAP3 DUP4 SWAP2 PUSH2 0x75F JUMP JUMPDEST DUP2 ADD PUSH1 0x1 DUP2 MSTORE SUB ADD SWAP1 KECCAK256 PUSH2 0x7BC JUMP JUMPDEST SWAP1 MLOAD SWAP2 DUP3 SWAP2 DUP3 PUSH2 0x862 JUMP JUMPDEST SUB SWAP1 RETURN JUMPDEST PUSH2 0x20B SWAP3 POP RETURNDATASIZE DUP1 SWAP2 DUP4 RETURNDATACOPY PUSH2 0x203 DUP2 DUP4 PUSH2 0x69D JUMP JUMPDEST DUP2 ADD SWAP1 PUSH2 0x92B JUMP JUMPDEST CODESIZE DUP1 PUSH2 0x1A6 JUMP JUMPDEST POP POP POP MLOAD SWAP1 RETURNDATASIZE SWAP1 DUP3 RETURNDATACOPY RETURNDATASIZE SWAP1 REVERT JUMPDEST POP DUP3 SWAP1 PUSH2 0x22B CALLDATASIZE PUSH2 0x6F1 JUMP JUMPDEST SWAP1 DUP2 MLOAD DUP3 ADD SWAP4 PUSH1 0x20 DUP3 DUP5 DUP3 DUP9 ADD SWAP8 SUB SLT PUSH2 0x14B JUMPI DUP1 DUP5 ADD MLOAD SWAP6 PUSH8 0xFFFFFFFFFFFFFFFF SWAP7 DUP8 DUP2 GT PUSH2 0x54B JUMPI DUP2 DUP4 PUSH2 0x263 SWAP3 DUP9 ADD ADD PUSH2 0x8E6 JUMP JUMPDEST SWAP5 DUP5 DUP2 ADD MLOAD SWAP1 DUP9 DUP3 GT PUSH2 0x547 JUMPI PUSH2 0x27D SWAP3 SWAP2 ADD DUP4 ADD PUSH2 0x8E6 JUMP JUMPDEST PUSH1 0x3 SLOAD DUP5 MLOAD PUSH4 0x91792D5B PUSH1 0xE0 SHL DUP2 MSTORE SWAP2 SWAP6 SWAP2 PUSH1 0x1 PUSH1 0x1 PUSH1 0xA0 SHL SUB SWAP2 DUP3 AND SWAP1 DUP5 DUP2 DUP8 DUP2 DUP6 GAS STATICCALL SWAP1 DUP2 ISZERO PUSH2 0x53D JUMPI DUP10 SWAP2 PUSH2 0x50C JUMPI JUMPDEST POP CALLVALUE SUB PUSH2 0x4D6 JUMPI DUP8 DUP1 DUP1 DUP1 SWAP4 DUP2 SWAP1 CALLVALUE ISZERO PUSH2 0x4CC JUMPI JUMPDEST CALLVALUE SWAP2 CALL ISZERO PUSH2 0x4C2 JUMPI DUP7 PUSH1 0x24 SWAP2 PUSH1 0x2 SLOAD AND DUP7 MLOAD SWAP3 DUP4 DUP1 SWAP3 PUSH3 0x8918FF PUSH1 0xE5 SHL DUP3 MSTORE CALLER DUP10 DUP4 ADD MSTORE GAS STATICCALL SWAP1 DUP2 ISZERO PUSH2 0x4B8 JUMPI SWAP1 PUSH2 0x328 SWAP4 SWAP3 SWAP2 DUP9 SWAP2 PUSH2 0x49E JUMPI JUMPDEST POP DUP3 DUP2 MLOAD SWAP2 ADD KECCAK256 PUSH2 0x319 DUP8 MLOAD SWAP2 DUP5 DUP10 ADD SWAP3 DUP4 KECCAK256 EQ PUSH2 0x951 JUMP JUMPDEST DUP6 MLOAD SWAP4 DUP5 SWAP2 DUP9 MLOAD SWAP3 DUP4 SWAP2 PUSH2 0x75F JUMP JUMPDEST DUP4 ADD SWAP3 DUP3 DUP2 PUSH1 0x1 SWAP6 DUP7 DUP2 MSTORE SUB ADD SWAP1 KECCAK256 SWAP4 DUP2 MLOAD SWAP9 DUP10 GT PUSH2 0x48B JUMPI POP PUSH2 0x34C DUP5 SLOAD PUSH2 0x782 JUMP JUMPDEST PUSH1 0x1F DUP2 GT PUSH2 0x445 JUMPI JUMPDEST POP DUP2 PUSH1 0x1F DUP10 GT PUSH1 0x1 EQ PUSH2 0x3C2 JUMPI POP SWAP7 DUP1 SWAP3 DUP2 SWAP3 DUP9 SWAP10 PUSH31 0xF0A6069B4FEE3A287B0F6E73983C9654D21D13810D914D14ADC2393028CCA4 SWAP9 SWAP10 SWAP5 PUSH2 0x3B7 JUMPI JUMPDEST POP POP SHL SWAP2 PUSH1 0x0 NOT SWAP1 PUSH1 0x3 SHL SHR NOT AND OR SWAP1 SSTORE JUMPDEST MLOAD DUP1 PUSH2 0x3B1 CALLER SWAP5 DUP3 PUSH2 0x862 JUMP JUMPDEST SUB SWAP1 LOG2 DUP1 RETURN JUMPDEST ADD MLOAD SWAP3 POP DUP10 DUP1 PUSH2 0x392 JUMP JUMPDEST SWAP1 SWAP8 SWAP2 PUSH1 0x1F NOT DUP4 AND SWAP9 DUP6 DUP10 MSTORE DUP3 DUP10 KECCAK256 SWAP3 DUP10 SWAP1 JUMPDEST DUP12 DUP3 LT PUSH2 0x42E JUMPI POP POP DUP4 PUSH31 0xF0A6069B4FEE3A287B0F6E73983C9654D21D13810D914D14ADC2393028CCA4 SWAP9 SWAP10 SWAP11 LT PUSH2 0x415 JUMPI JUMPDEST POP POP POP DUP2 SHL ADD SWAP1 SSTORE PUSH2 0x3A4 JUMP JUMPDEST ADD MLOAD PUSH1 0x0 NOT PUSH1 0xF8 DUP5 PUSH1 0x3 SHL AND SHR NOT AND SWAP1 SSTORE DUP8 DUP1 DUP1 PUSH2 0x408 JUMP JUMPDEST DUP1 DUP8 DUP6 SWAP7 DUP3 SWAP5 SWAP7 DUP7 ADD MLOAD DUP2 SSTORE ADD SWAP6 ADD SWAP4 ADD SWAP1 PUSH2 0x3D5 JUMP JUMPDEST DUP5 DUP9 MSTORE DUP3 DUP9 KECCAK256 PUSH1 0x1F DUP11 ADD PUSH1 0x5 SHR DUP2 ADD SWAP2 DUP5 DUP12 LT PUSH2 0x481 JUMPI JUMPDEST PUSH1 0x1F ADD PUSH1 0x5 SHR ADD SWAP1 DUP5 SWAP1 JUMPDEST DUP3 DUP2 LT PUSH2 0x476 JUMPI POP POP PUSH2 0x355 JUMP JUMPDEST DUP10 DUP2 SSTORE ADD DUP5 SWAP1 PUSH2 0x468 JUMP JUMPDEST SWAP1 SWAP2 POP DUP2 SWAP1 PUSH2 0x45D JUMP JUMPDEST PUSH4 0x4E487B71 PUSH1 0xE0 SHL DUP9 MSTORE PUSH1 0x41 SWAP1 MSTORE PUSH1 0x24 DUP8 REVERT JUMPDEST PUSH2 0x4B2 SWAP2 POP RETURNDATASIZE DUP1 DUP11 DUP4 RETURNDATACOPY PUSH2 0x203 DUP2 DUP4 PUSH2 0x69D JUMP JUMPDEST DUP10 PUSH2 0x300 JUMP JUMPDEST DUP6 MLOAD RETURNDATASIZE DUP10 DUP3 RETURNDATACOPY RETURNDATASIZE SWAP1 REVERT JUMPDEST DUP5 MLOAD RETURNDATASIZE DUP9 DUP3 RETURNDATACOPY RETURNDATASIZE SWAP1 REVERT JUMPDEST PUSH2 0x8FC SWAP2 POP PUSH2 0x2C5 JUMP JUMPDEST POP POP SWAP3 MLOAD PUSH3 0x461BCD PUSH1 0xE5 SHL DUP2 MSTORE SWAP2 DUP3 ADD MSTORE PUSH1 0xF PUSH1 0x24 DUP3 ADD MSTORE PUSH15 0x57726F6E67204665652056616C7565 PUSH1 0x88 SHL PUSH1 0x44 DUP3 ADD MSTORE PUSH1 0x64 SWAP2 POP REVERT JUMPDEST SWAP1 POP DUP5 DUP2 DUP2 RETURNDATASIZE DUP4 GT PUSH2 0x536 JUMPI JUMPDEST PUSH2 0x523 DUP2 DUP4 PUSH2 0x69D JUMP JUMPDEST DUP2 ADD SUB SLT PUSH2 0x532 JUMPI MLOAD DUP11 PUSH2 0x2B0 JUMP JUMPDEST DUP9 DUP1 REVERT JUMPDEST POP RETURNDATASIZE PUSH2 0x519 JUMP JUMPDEST DUP8 MLOAD RETURNDATASIZE DUP12 DUP3 RETURNDATACOPY RETURNDATASIZE SWAP1 REVERT JUMPDEST DUP8 DUP1 REVERT JUMPDEST DUP7 DUP1 REVERT JUMPDEST DUP4 DUP3 CALLVALUE PUSH2 0x577 JUMPI DUP2 PUSH1 0x3 NOT CALLDATASIZE ADD SLT PUSH2 0x577 JUMPI SWAP1 SLOAD SWAP1 MLOAD PUSH1 0x1 PUSH1 0x1 PUSH1 0xA0 SHL SUB SWAP1 SWAP2 AND DUP2 MSTORE PUSH1 0x20 SWAP1 RETURN JUMPDEST POP DUP1 REVERT JUMPDEST DUP4 CALLVALUE PUSH2 0x5D5 JUMPI DUP1 PUSH1 0x3 NOT CALLDATASIZE ADD SLT PUSH2 0x5D5 JUMPI PUSH2 0x594 PUSH2 0x88E JUMP JUMPDEST DUP1 SLOAD PUSH1 0x1 PUSH1 0x1 PUSH1 0xA0 SHL SUB NOT DUP2 AND DUP3 SSTORE DUP2 SWAP1 PUSH1 0x1 PUSH1 0x1 PUSH1 0xA0 SHL SUB AND PUSH32 0x8BE0079C531659141344CD1FD0A4F28419497F9722A3DAAFE3B4186F6B6457E0 DUP3 DUP1 LOG3 DUP1 RETURN JUMPDEST DUP1 REVERT JUMPDEST DUP4 DUP3 CALLVALUE PUSH2 0x577 JUMPI DUP2 PUSH1 0x3 NOT CALLDATASIZE ADD SLT PUSH2 0x577 JUMPI PUSH1 0x3 SLOAD SWAP1 MLOAD PUSH1 0x1 PUSH1 0x1 PUSH1 0xA0 SHL SUB SWAP1 SWAP2 AND DUP2 MSTORE PUSH1 0x20 SWAP1 RETURN JUMPDEST POP POP CALLVALUE PUSH2 0x577 JUMPI PUSH1 0x20 CALLDATASIZE PUSH1 0x3 NOT ADD SLT PUSH2 0x577 JUMPI CALLDATALOAD PUSH1 0x1 PUSH1 0x1 PUSH1 0xA0 SHL SUB DUP2 AND SWAP1 DUP2 SWAP1 SUB PUSH2 0x577 JUMPI PUSH2 0x62F PUSH2 0x88E JUMP JUMPDEST PUSH12 0xFFFFFFFFFFFFFFFFFFFFFFFF PUSH1 0xA0 SHL PUSH1 0x2 SLOAD AND OR PUSH1 0x2 SSTORE DUP1 RETURN JUMPDEST DUP4 DUP3 CALLVALUE PUSH2 0x577 JUMPI PUSH2 0x1EB SWAP1 PUSH2 0x1E0 PUSH2 0x1D1 PUSH1 0x20 PUSH2 0x666 CALLDATASIZE PUSH2 0x6F1 JUMP JUMPDEST DUP2 DUP6 MLOAD SWAP4 DUP3 DUP6 DUP1 SWAP5 MLOAD SWAP4 DUP5 SWAP3 ADD PUSH2 0x75F JUMP JUMPDEST DUP5 SWAP1 CALLVALUE PUSH2 0x577 JUMPI DUP2 PUSH1 0x3 NOT CALLDATASIZE ADD SLT PUSH2 0x577 JUMPI PUSH1 0x2 SLOAD PUSH1 0x1 PUSH1 0x1 PUSH1 0xA0 SHL SUB AND DUP2 MSTORE PUSH1 0x20 SWAP1 RETURN JUMPDEST SWAP1 PUSH1 0x1F DUP1 NOT SWAP2 ADD AND DUP2 ADD SWAP1 DUP2 LT PUSH8 0xFFFFFFFFFFFFFFFF DUP3 GT OR PUSH2 0x6BF JUMPI PUSH1 0x40 MSTORE JUMP JUMPDEST PUSH4 0x4E487B71 PUSH1 0xE0 SHL PUSH1 0x0 MSTORE PUSH1 0x41 PUSH1 0x4 MSTORE PUSH1 0x24 PUSH1 0x0 REVERT JUMPDEST PUSH8 0xFFFFFFFFFFFFFFFF DUP2 GT PUSH2 0x6BF JUMPI PUSH1 0x1F ADD PUSH1 0x1F NOT AND PUSH1 0x20 ADD SWAP1 JUMP JUMPDEST PUSH1 0x20 PUSH1 0x3 NOT DUP3 ADD SLT PUSH2 0x75A JUMPI PUSH1 0x4 CALLDATALOAD PUSH8 0xFFFFFFFFFFFFFFFF DUP2 GT PUSH2 0x75A JUMPI DUP2 PUSH1 0x23 DUP3 ADD SLT ISZERO PUSH2 0x75A JUMPI DUP1 PUSH1 0x4 ADD CALLDATALOAD SWAP1 PUSH2 0x729 DUP3 PUSH2 0x6D5 JUMP JUMPDEST SWAP3 PUSH2 0x737 PUSH1 0x40 MLOAD SWAP5 DUP6 PUSH2 0x69D JUMP JUMPDEST DUP3 DUP5 MSTORE PUSH1 0x24 DUP4 DUP4 ADD ADD GT PUSH2 0x75A JUMPI DUP2 PUSH1 0x0 SWAP3 PUSH1 0x24 PUSH1 0x20 SWAP4 ADD DUP4 DUP7 ADD CALLDATACOPY DUP4 ADD ADD MSTORE SWAP1 JUMP JUMPDEST PUSH1 0x0 DUP1 REVERT JUMPDEST PUSH1 0x0 JUMPDEST DUP4 DUP2 LT PUSH2 0x772 JUMPI POP POP PUSH1 0x0 SWAP2 ADD MSTORE JUMP JUMPDEST DUP2 DUP2 ADD MLOAD DUP4 DUP3 ADD MSTORE PUSH1 0x20 ADD PUSH2 0x762 JUMP JUMPDEST SWAP1 PUSH1 0x1 DUP3 DUP2 SHR SWAP3 AND DUP1 ISZERO PUSH2 0x7B2 JUMPI JUMPDEST PUSH1 0x20 DUP4 LT EQ PUSH2 0x79C JUMPI JUMP JUMPDEST PUSH4 0x4E487B71 PUSH1 0xE0 SHL PUSH1 0x0 MSTORE PUSH1 0x22 PUSH1 0x4 MSTORE PUSH1 0x24 PUSH1 0x0 REVERT JUMPDEST SWAP2 PUSH1 0x7F AND SWAP2 PUSH2 0x791 JUMP JUMPDEST SWAP1 PUSH1 0x40 MLOAD SWAP2 DUP3 PUSH1 0x0 DUP3 SLOAD SWAP3 PUSH2 0x7D0 DUP5 PUSH2 0x782 JUMP JUMPDEST SWAP1 DUP2 DUP5 MSTORE PUSH1 0x1 SWAP5 DUP6 DUP2 AND SWAP1 DUP2 PUSH1 0x0 EQ PUSH2 0x83F JUMPI POP PUSH1 0x1 EQ PUSH2 0x7FC JUMPI JUMPDEST POP POP PUSH2 0x7FA SWAP3 POP SUB DUP4 PUSH2 0x69D JUMP JUMPDEST JUMP JUMPDEST SWAP1 SWAP4 SWAP2 POP PUSH1 0x0 MSTORE PUSH1 0x20 SWAP1 DUP2 PUSH1 0x0 KECCAK256 SWAP4 PUSH1 0x0 SWAP2 JUMPDEST DUP2 DUP4 LT PUSH2 0x827 JUMPI POP POP PUSH2 0x7FA SWAP4 POP DUP3 ADD ADD CODESIZE DUP1 PUSH2 0x7EC JUMP JUMPDEST DUP6 SLOAD DUP9 DUP5 ADD DUP6 ADD MSTORE SWAP5 DUP6 ADD SWAP5 DUP8 SWAP5 POP SWAP2 DUP4 ADD SWAP2 PUSH2 0x80F JUMP JUMPDEST SWAP2 POP POP PUSH2 0x7FA SWAP5 POP PUSH1 0x20 SWAP3 POP PUSH1 0xFF NOT AND DUP3 DUP5 ADD MSTORE ISZERO ISZERO PUSH1 0x5 SHL DUP3 ADD ADD CODESIZE DUP1 PUSH2 0x7EC JUMP JUMPDEST PUSH1 0x40 SWAP2 PUSH1 0x20 DUP3 MSTORE PUSH2 0x882 DUP2 MLOAD DUP1 SWAP3 DUP2 PUSH1 0x20 DUP7 ADD MSTORE PUSH1 0x20 DUP7 DUP7 ADD SWAP2 ADD PUSH2 0x75F JUMP JUMPDEST PUSH1 0x1F ADD PUSH1 0x1F NOT AND ADD ADD SWAP1 JUMP JUMPDEST PUSH1 0x0 SLOAD PUSH1 0x1 PUSH1 0x1 PUSH1 0xA0 SHL SUB AND CALLER SUB PUSH2 0x8A2 JUMPI JUMP JUMPDEST PUSH1 0x64 PUSH1 0x40 MLOAD PUSH3 0x461BCD PUSH1 0xE5 SHL DUP2 MSTORE PUSH1 0x20 PUSH1 0x4 DUP3 ADD MSTORE PUSH1 0x20 PUSH1 0x24 DUP3 ADD MSTORE PUSH32 0x4F776E61626C653A2063616C6C6572206973206E6F7420746865206F776E6572 PUSH1 0x44 DUP3 ADD MSTORE REVERT JUMPDEST DUP2 PUSH1 0x1F DUP3 ADD SLT ISZERO PUSH2 0x75A JUMPI DUP1 MLOAD PUSH2 0x8FC DUP2 PUSH2 0x6D5 JUMP JUMPDEST SWAP3 PUSH2 0x90A PUSH1 0x40 MLOAD SWAP5 DUP6 PUSH2 0x69D JUMP JUMPDEST DUP2 DUP5 MSTORE PUSH1 0x20 DUP3 DUP5 ADD ADD GT PUSH2 0x75A JUMPI PUSH2 0x928 SWAP2 PUSH1 0x20 DUP1 DUP6 ADD SWAP2 ADD PUSH2 0x75F JUMP JUMPDEST SWAP1 JUMP JUMPDEST SWAP1 PUSH1 0x20 DUP3 DUP3 SUB SLT PUSH2 0x75A JUMPI DUP2 MLOAD PUSH8 0xFFFFFFFFFFFFFFFF DUP2 GT PUSH2 0x75A JUMPI PUSH2 0x928 SWAP3 ADD PUSH2 0x8E6 JUMP JUMPDEST ISZERO PUSH2 0x958 JUMPI JUMP JUMPDEST PUSH1 0x40 MLOAD PUSH3 0x461BCD PUSH1 0xE5 SHL DUP2 MSTORE PUSH1 0x20 PUSH1 0x4 DUP3 ADD MSTORE PUSH1 0x12 PUSH1 0x24 DUP3 ADD MSTORE PUSH18 0x496E76616C6964207075626C6963206B6579 PUSH1 0x70 SHL PUSH1 0x44 DUP3 ADD MSTORE PUSH1 0x64 SWAP1 REVERT INVALID LOG2 PUSH5 0x6970667358 0x22 SLT KECCAK256 0xBB 0xD7 0xCC PUSH17 0x7C0BC01D3E96C150F70E66C33B7BDA9BA5 PUSH8 0xC5CAD9D18F2DC547 GASPRICE 0x27 PUSH5 0x736F6C6343 STOP ADDMOD SGT STOP CALLER "},"gasEstimates":{"creation":{"codeDepositCost":"500800","executionCost":"infinite","totalCost":"infinite"},"external":{"encryptedKeys(bytes)":"infinite","getHash(bytes)":"infinite","owner()":"2413","renounceOwnership()":"28166","submitHash(bytes)":"infinite","transferOwnership(address)":"28320","treasury()":"2369","updateUsersContract(address)":"26630","usersContract()":"2289"}},"methodIdentifiers":{"encryptedKeys(bytes)":"4b78896d","getHash(bytes)":"b00140aa","owner()":"8da5cb5b","renounceOwnership()":"715018a6","submitHash(bytes)":"8f903c79","transferOwnership(address)":"f2fde38b","treasury()":"61d027b3","updateUsersContract(address)":"505da9e1","usersContract()":"142ebf3c"}},"storageLayout":{"storage":[{"astId":7,"contract":"contracts/layer/MecenatePay.sol:MecenatePay","label":"_owner","offset":0,"slot":"0","type":"t_address"},{"astId":2379,"contract":"contracts/layer/MecenatePay.sol:MecenatePay","label":"encryptedKeys","offset":0,"slot":"1","type":"t_mapping(t_bytes_memory_ptr,t_bytes_storage)"},{"astId":2381,"contract":"contracts/layer/MecenatePay.sol:MecenatePay","label":"usersContract","offset":0,"slot":"2","type":"t_address"},{"astId":2383,"contract":"contracts/layer/MecenatePay.sol:MecenatePay","label":"treasury","offset":0,"slot":"3","type":"t_address"}],"types":{"t_address":{"encoding":"inplace","label":"address","numberOfBytes":"20"},"t_bytes_memory_ptr":{"encoding":"bytes","label":"bytes","numberOfBytes":"32"},"t_bytes_storage":{"encoding":"bytes","label":"bytes","numberOfBytes":"32"},"t_mapping(t_bytes_memory_ptr,t_bytes_storage)":{"encoding":"mapping","key":"t_bytes_memory_ptr","label":"mapping(bytes => bytes)","numberOfBytes":"32","value":"t_bytes_storage"}}},"userdoc":{"kind":"user","methods":{},"version":1}}}}