{"contracts/factories/MecenateForwarderFactory.sol":{"MecenateForwarderFactory":{"abi":[{"inputs":[{"internalType":"address","name":"_mecenateVault","type":"address"}],"stateMutability":"nonpayable","type":"constructor"},{"anonymous":false,"inputs":[{"indexed":true,"internalType":"address","name":"forwarder","type":"address"},{"indexed":false,"internalType":"bytes32","name":"encryptedVaultId","type":"bytes32"},{"indexed":false,"internalType":"address","name":"vaultContract","type":"address"}],"name":"ForwarderCreated","type":"event"},{"anonymous":false,"inputs":[{"indexed":true,"internalType":"address","name":"previousOwner","type":"address"},{"indexed":true,"internalType":"address","name":"newOwner","type":"address"}],"name":"OwnershipTransferred","type":"event"},{"inputs":[{"internalType":"address","name":"_mecenateVault","type":"address"}],"name":"changeVault","outputs":[],"stateMutability":"nonpayable","type":"function"},{"inputs":[{"internalType":"bytes32","name":"_encryptedVaultId","type":"bytes32"}],"name":"createforwarder","outputs":[{"internalType":"address","name":"","type":"address"}],"stateMutability":"nonpayable","type":"function"},{"inputs":[{"internalType":"bytes32","name":"","type":"bytes32"}],"name":"forwardersMapping","outputs":[{"internalType":"address","name":"","type":"address"}],"stateMutability":"view","type":"function"},{"inputs":[],"name":"getVault","outputs":[{"internalType":"address","name":"","type":"address"}],"stateMutability":"view","type":"function"},{"inputs":[{"internalType":"bytes32","name":"_user","type":"bytes32"}],"name":"getforwarders","outputs":[{"internalType":"address","name":"","type":"address"}],"stateMutability":"view","type":"function"},{"inputs":[],"name":"mecenateVault","outputs":[{"internalType":"address","name":"","type":"address"}],"stateMutability":"view","type":"function"},{"inputs":[],"name":"owner","outputs":[{"internalType":"address","name":"","type":"address"}],"stateMutability":"view","type":"function"},{"inputs":[],"name":"renounceOwnership","outputs":[],"stateMutability":"nonpayable","type":"function"},{"inputs":[{"internalType":"address","name":"newOwner","type":"address"}],"name":"transferOwnership","outputs":[],"stateMutability":"nonpayable","type":"function"}],"devdoc":{"kind":"dev","methods":{"owner()":{"details":"Returns the address of the current owner."},"renounceOwnership()":{"details":"Leaves the contract without owner. It will not be possible to call `onlyOwner` functions. Can only be called by the current owner. NOTE: Renouncing ownership will leave the contract without an owner, thereby disabling any functionality that is only available to the owner."},"transferOwnership(address)":{"details":"Transfers ownership of the contract to a new account (`newOwner`). Can only be called by the current owner."}},"version":1},"evm":{"bytecode":{"linkReferences":{},"object":"6080346100a757601f610d6c38819003918201601f19168301916001600160401b038311848410176100ac578084926020946040528339810103126100a757516001600160a01b0390818116908190036100a75760005460018060a01b0319903382821617600055604051933391167f8be0079c531659141344cd1fd0a4f28419497f9722a3daafe3b4186f6b6457e0600080a36002541617600255610ca990816100c38239f35b600080fd5b634e487b7160e01b600052604160045260246000fdfe608060408181526004908136101561001657600080fd5b600092833560e01c90816305d45fad1461050f5750806307c0e602146104d1578063541886b2146101de57806360e232a9146103d9578063715018a61461035b5780637ef0db66146102135780638d928af8146101de5780638da5cb5b146101a75763f2fde38b1461008757600080fd5b346101a35760206003193601126101a35781359173ffffffffffffffffffffffffffffffffffffffff9182841680940361019f576100c361054a565b831561011c5750508254827fffffffffffffffffffffffff00000000000000000000000000000000000000008216178455167f8be0079c531659141344cd1fd0a4f28419497f9722a3daafe3b4186f6b6457e08380a380f35b90602060849251917f08c379a0000000000000000000000000000000000000000000000000000000008352820152602660248201527f4f776e61626c653a206e6577206f776e657220697320746865207a65726f206160448201527f64647265737300000000000000000000000000000000000000000000000000006064820152fd5b8480fd5b8280fd5b8382346101da57816003193601126101da5773ffffffffffffffffffffffffffffffffffffffff60209254169051908152f35b5080fd5b8382346101da57816003193601126101da5760209073ffffffffffffffffffffffffffffffffffffffff600254169051908152f35b50346101a35760209283600319360112610358578235928382526001855273ffffffffffffffffffffffffffffffffffffffff908184842054166102fc578351906106aa8083019183831067ffffffffffffffff8411176102d05750859183916105ca8339878152308982015203019083f080156102c65790839291169381526001855220827fffffffffffffffffffffffff000000000000000000000000000000000000000082541617905551908152f35b83513d84823e3d90fd5b8560416024927f4e487b7100000000000000000000000000000000000000000000000000000000835252fd5b606490868551917f08c379a0000000000000000000000000000000000000000000000000000000008352820152601960248201527f666f7277617264657220616c72656164792063726561746564000000000000006044820152fd5b80fd5b833461035857806003193601126103585761037461054a565b8073ffffffffffffffffffffffffffffffffffffffff81547fffffffffffffffffffffffff000000000000000000000000000000000000000081168355167f8be0079c531659141344cd1fd0a4f28419497f9722a3daafe3b4186f6b6457e08280a380f35b5090346101a35760206003193601126101a35780359173ffffffffffffffffffffffffffffffffffffffff83168093036104cd5761041561054a565b82330361044a5750507fffffffffffffffffffffffff0000000000000000000000000000000000000000600254161760025580f35b90602060849251917f08c379a0000000000000000000000000000000000000000000000000000000008352820152602760248201527f4f6e6c792074686520666163746f72792063616e206368616e6765207468652060448201527f666163746f7279000000000000000000000000000000000000000000000000006064820152fd5b8380fd5b5090346101a35760206003193601126101a3578160209373ffffffffffffffffffffffffffffffffffffffff92358152600185522054169051908152f35b929050346104cd5760206003193601126104cd573583526001602090815292205473ffffffffffffffffffffffffffffffffffffffff168152f35b73ffffffffffffffffffffffffffffffffffffffff60005416330361056b57565b60646040517f08c379a000000000000000000000000000000000000000000000000000000000815260206004820152602060248201527f4f776e61626c653a2063616c6c6572206973206e6f7420746865206f776e65726044820152fdfe60803461007e57601f6106aa38819003918201601f19168301916001600160401b0383118484101761008357808492604094855283398101031261007e5780516020909101516001600160a01b038116919082900361007e57600055600180546001600160a01b031916919091179055604051610610908161009a8239f35b600080fd5b634e487b7160e01b600052604160045260246000fdfe608060409080825260049081361015610223575b50361561001f57600080fd5b73ffffffffffffffffffffffffffffffffffffffff806001541683519182917f8d928af8000000000000000000000000000000000000000000000000000000008352828560209586935afa918215610218576000926101e9575b50600054855192848401917fd68d9d4e000000000000000000000000000000000000000000000000000000008352602485015260248452606084019367ffffffffffffffff94818110868211176101bb57885251600093849391923491165af1903d156101b5573d9081116101875784519061011c847fffffffffffffffffffffffffffffffffffffffffffffffffffffffffffffffe0601f8401160183610539565b81526000833d92013e5b1561012d57005b60649251917f08c379a0000000000000000000000000000000000000000000000000000000008352820152600e60248201527f4465706f736974206661696c65640000000000000000000000000000000000006044820152fd5b6041847f4e487b71000000000000000000000000000000000000000000000000000000006000525260246000fd5b50610126565b6041887f4e487b71000000000000000000000000000000000000000000000000000000006000525260246000fd5b61020a919250833d8511610211575b6102028183610539565b8101906105a9565b9038610079565b503d6101f8565b85513d6000823e3d90fd5b600090813560e01c9081631a58a6a61461050157508063338b5dea146102a35763c45a01550361001357823461029f57817ffffffffffffffffffffffffffffffffffffffffffffffffffffffffffffffffc36011261029f5760209073ffffffffffffffffffffffffffffffffffffffff600154169051908152f35b5080fd5b5091346104fd57807ffffffffffffffffffffffffffffffffffffffffffffffffffffffffffffffffc3601126104fd5781359173ffffffffffffffffffffffffffffffffffffffff8084168094036104f95760243590806001541684519182917f8d928af8000000000000000000000000000000000000000000000000000000008352828660209485935afa9283156104d05788936104da575b508551927f095ea7b30000000000000000000000000000000000000000000000000000000084521691828582015283602482015281816044818b8b5af19081156104d0578891610496575b501561043a5750908591825495813b156104365783606492875198899586947f84abac9500000000000000000000000000000000000000000000000000000000865289860152602485015260448401525af1801561042c576103e8578380f35b67ffffffffffffffff83116104005750523880808380f35b8360416024927f4e487b7100000000000000000000000000000000000000000000000000000000835252fd5b82513d86823e3d90fd5b8380fd5b836064918651917f08c379a0000000000000000000000000000000000000000000000000000000008352820152600e60248201527f417070726f7665206661696c65640000000000000000000000000000000000006044820152fd5b90508181813d83116104c9575b6104ad8183610539565b810103126104c5575180151581036104c55738610388565b8780fd5b503d6104a3565b86513d8a823e3d90fd5b6104f2919350823d8411610211576102028183610539565b913861033d565b8480fd5b8280fd5b90503461029f57817ffffffffffffffffffffffffffffffffffffffffffffffffffffffffffffffffc36011261029f57602091548152f35b90601f7fffffffffffffffffffffffffffffffffffffffffffffffffffffffffffffffe0910116810190811067ffffffffffffffff82111761057a57604052565b7f4e487b7100000000000000000000000000000000000000000000000000000000600052604160045260246000fd5b908160209103126105d5575173ffffffffffffffffffffffffffffffffffffffff811681036105d55790565b600080fdfea26469706673582212205395f781e6950dce3444b1fcd01bfbcfebb5090977d46cdb614f9b15cb963a7e64736f6c63430008130033a26469706673582212200133ccc7ce58f6d9166eb6ec570fb5f4292270abddc745f8570d74c9b3fd9f1664736f6c63430008130033","opcodes":"PUSH1 0x80 CALLVALUE PUSH2 0xA7 JUMPI PUSH1 0x1F PUSH2 0xD6C CODESIZE DUP2 SWAP1 SUB SWAP2 DUP3 ADD PUSH1 0x1F NOT AND DUP4 ADD SWAP2 PUSH1 0x1 PUSH1 0x1 PUSH1 0x40 SHL SUB DUP4 GT DUP5 DUP5 LT OR PUSH2 0xAC JUMPI DUP1 DUP5 SWAP3 PUSH1 0x20 SWAP5 PUSH1 0x40 MSTORE DUP4 CODECOPY DUP2 ADD SUB SLT PUSH2 0xA7 JUMPI MLOAD PUSH1 0x1 PUSH1 0x1 PUSH1 0xA0 SHL SUB SWAP1 DUP2 DUP2 AND SWAP1 DUP2 SWAP1 SUB PUSH2 0xA7 JUMPI PUSH1 0x0 SLOAD PUSH1 0x1 DUP1 PUSH1 0xA0 SHL SUB NOT SWAP1 CALLER DUP3 DUP3 AND OR PUSH1 0x0 SSTORE PUSH1 0x40 MLOAD SWAP4 CALLER SWAP2 AND PUSH32 0x8BE0079C531659141344CD1FD0A4F28419497F9722A3DAAFE3B4186F6B6457E0 PUSH1 0x0 DUP1 LOG3 PUSH1 0x2 SLOAD AND OR PUSH1 0x2 SSTORE PUSH2 0xCA9 SWAP1 DUP2 PUSH2 0xC3 DUP3 CODECOPY RETURN JUMPDEST PUSH1 0x0 DUP1 REVERT JUMPDEST PUSH4 0x4E487B71 PUSH1 0xE0 SHL PUSH1 0x0 MSTORE PUSH1 0x41 PUSH1 0x4 MSTORE PUSH1 0x24 PUSH1 0x0 REVERT INVALID PUSH1 0x80 PUSH1 0x40 DUP2 DUP2 MSTORE PUSH1 0x4 SWAP1 DUP2 CALLDATASIZE LT ISZERO PUSH2 0x16 JUMPI PUSH1 0x0 DUP1 REVERT JUMPDEST PUSH1 0x0 SWAP3 DUP4 CALLDATALOAD PUSH1 0xE0 SHR SWAP1 DUP2 PUSH4 0x5D45FAD EQ PUSH2 0x50F JUMPI POP DUP1 PUSH4 0x7C0E602 EQ PUSH2 0x4D1 JUMPI DUP1 PUSH4 0x541886B2 EQ PUSH2 0x1DE JUMPI DUP1 PUSH4 0x60E232A9 EQ PUSH2 0x3D9 JUMPI DUP1 PUSH4 0x715018A6 EQ PUSH2 0x35B JUMPI DUP1 PUSH4 0x7EF0DB66 EQ PUSH2 0x213 JUMPI DUP1 PUSH4 0x8D928AF8 EQ PUSH2 0x1DE JUMPI DUP1 PUSH4 0x8DA5CB5B EQ PUSH2 0x1A7 JUMPI PUSH4 0xF2FDE38B EQ PUSH2 0x87 JUMPI PUSH1 0x0 DUP1 REVERT JUMPDEST CALLVALUE PUSH2 0x1A3 JUMPI PUSH1 0x20 PUSH1 0x3 NOT CALLDATASIZE ADD SLT PUSH2 0x1A3 JUMPI DUP2 CALLDATALOAD SWAP2 PUSH20 0xFFFFFFFFFFFFFFFFFFFFFFFFFFFFFFFFFFFFFFFF SWAP2 DUP3 DUP5 AND DUP1 SWAP5 SUB PUSH2 0x19F JUMPI PUSH2 0xC3 PUSH2 0x54A JUMP JUMPDEST DUP4 ISZERO PUSH2 0x11C JUMPI POP POP DUP3 SLOAD DUP3 PUSH32 0xFFFFFFFFFFFFFFFFFFFFFFFF0000000000000000000000000000000000000000 DUP3 AND OR DUP5 SSTORE AND PUSH32 0x8BE0079C531659141344CD1FD0A4F28419497F9722A3DAAFE3B4186F6B6457E0 DUP4 DUP1 LOG3 DUP1 RETURN JUMPDEST SWAP1 PUSH1 0x20 PUSH1 0x84 SWAP3 MLOAD SWAP2 PUSH32 0x8C379A000000000000000000000000000000000000000000000000000000000 DUP4 MSTORE DUP3 ADD MSTORE PUSH1 0x26 PUSH1 0x24 DUP3 ADD MSTORE PUSH32 0x4F776E61626C653A206E6577206F776E657220697320746865207A65726F2061 PUSH1 0x44 DUP3 ADD MSTORE PUSH32 0x6464726573730000000000000000000000000000000000000000000000000000 PUSH1 0x64 DUP3 ADD MSTORE REVERT JUMPDEST DUP5 DUP1 REVERT JUMPDEST DUP3 DUP1 REVERT JUMPDEST DUP4 DUP3 CALLVALUE PUSH2 0x1DA JUMPI DUP2 PUSH1 0x3 NOT CALLDATASIZE ADD SLT PUSH2 0x1DA JUMPI PUSH20 0xFFFFFFFFFFFFFFFFFFFFFFFFFFFFFFFFFFFFFFFF PUSH1 0x20 SWAP3 SLOAD AND SWAP1 MLOAD SWAP1 DUP2 MSTORE RETURN JUMPDEST POP DUP1 REVERT JUMPDEST DUP4 DUP3 CALLVALUE PUSH2 0x1DA JUMPI DUP2 PUSH1 0x3 NOT CALLDATASIZE ADD SLT PUSH2 0x1DA JUMPI PUSH1 0x20 SWAP1 PUSH20 0xFFFFFFFFFFFFFFFFFFFFFFFFFFFFFFFFFFFFFFFF PUSH1 0x2 SLOAD AND SWAP1 MLOAD SWAP1 DUP2 MSTORE RETURN JUMPDEST POP CALLVALUE PUSH2 0x1A3 JUMPI PUSH1 0x20 SWAP3 DUP4 PUSH1 0x3 NOT CALLDATASIZE ADD SLT PUSH2 0x358 JUMPI DUP3 CALLDATALOAD SWAP3 DUP4 DUP3 MSTORE PUSH1 0x1 DUP6 MSTORE PUSH20 0xFFFFFFFFFFFFFFFFFFFFFFFFFFFFFFFFFFFFFFFF SWAP1 DUP2 DUP5 DUP5 KECCAK256 SLOAD AND PUSH2 0x2FC JUMPI DUP4 MLOAD SWAP1 PUSH2 0x6AA DUP1 DUP4 ADD SWAP2 DUP4 DUP4 LT PUSH8 0xFFFFFFFFFFFFFFFF DUP5 GT OR PUSH2 0x2D0 JUMPI POP DUP6 SWAP2 DUP4 SWAP2 PUSH2 0x5CA DUP4 CODECOPY DUP8 DUP2 MSTORE ADDRESS DUP10 DUP3 ADD MSTORE SUB ADD SWAP1 DUP4 CREATE DUP1 ISZERO PUSH2 0x2C6 JUMPI SWAP1 DUP4 SWAP3 SWAP2 AND SWAP4 DUP2 MSTORE PUSH1 0x1 DUP6 MSTORE KECCAK256 DUP3 PUSH32 0xFFFFFFFFFFFFFFFFFFFFFFFF0000000000000000000000000000000000000000 DUP3 SLOAD AND OR SWAP1 SSTORE MLOAD SWAP1 DUP2 MSTORE RETURN JUMPDEST DUP4 MLOAD RETURNDATASIZE DUP5 DUP3 RETURNDATACOPY RETURNDATASIZE SWAP1 REVERT JUMPDEST DUP6 PUSH1 0x41 PUSH1 0x24 SWAP3 PUSH32 0x4E487B7100000000000000000000000000000000000000000000000000000000 DUP4 MSTORE MSTORE REVERT JUMPDEST PUSH1 0x64 SWAP1 DUP7 DUP6 MLOAD SWAP2 PUSH32 0x8C379A000000000000000000000000000000000000000000000000000000000 DUP4 MSTORE DUP3 ADD MSTORE PUSH1 0x19 PUSH1 0x24 DUP3 ADD MSTORE PUSH32 0x666F7277617264657220616C7265616479206372656174656400000000000000 PUSH1 0x44 DUP3 ADD MSTORE REVERT JUMPDEST DUP1 REVERT JUMPDEST DUP4 CALLVALUE PUSH2 0x358 JUMPI DUP1 PUSH1 0x3 NOT CALLDATASIZE ADD SLT PUSH2 0x358 JUMPI PUSH2 0x374 PUSH2 0x54A JUMP JUMPDEST DUP1 PUSH20 0xFFFFFFFFFFFFFFFFFFFFFFFFFFFFFFFFFFFFFFFF DUP2 SLOAD PUSH32 0xFFFFFFFFFFFFFFFFFFFFFFFF0000000000000000000000000000000000000000 DUP2 AND DUP4 SSTORE AND PUSH32 0x8BE0079C531659141344CD1FD0A4F28419497F9722A3DAAFE3B4186F6B6457E0 DUP3 DUP1 LOG3 DUP1 RETURN JUMPDEST POP SWAP1 CALLVALUE PUSH2 0x1A3 JUMPI PUSH1 0x20 PUSH1 0x3 NOT CALLDATASIZE ADD SLT PUSH2 0x1A3 JUMPI DUP1 CALLDATALOAD SWAP2 PUSH20 0xFFFFFFFFFFFFFFFFFFFFFFFFFFFFFFFFFFFFFFFF DUP4 AND DUP1 SWAP4 SUB PUSH2 0x4CD JUMPI PUSH2 0x415 PUSH2 0x54A JUMP JUMPDEST DUP3 CALLER SUB PUSH2 0x44A JUMPI POP POP PUSH32 0xFFFFFFFFFFFFFFFFFFFFFFFF0000000000000000000000000000000000000000 PUSH1 0x2 SLOAD AND OR PUSH1 0x2 SSTORE DUP1 RETURN JUMPDEST SWAP1 PUSH1 0x20 PUSH1 0x84 SWAP3 MLOAD SWAP2 PUSH32 0x8C379A000000000000000000000000000000000000000000000000000000000 DUP4 MSTORE DUP3 ADD MSTORE PUSH1 0x27 PUSH1 0x24 DUP3 ADD MSTORE PUSH32 0x4F6E6C792074686520666163746F72792063616E206368616E67652074686520 PUSH1 0x44 DUP3 ADD MSTORE PUSH32 0x666163746F727900000000000000000000000000000000000000000000000000 PUSH1 0x64 DUP3 ADD MSTORE REVERT JUMPDEST DUP4 DUP1 REVERT JUMPDEST POP SWAP1 CALLVALUE PUSH2 0x1A3 JUMPI PUSH1 0x20 PUSH1 0x3 NOT CALLDATASIZE ADD SLT PUSH2 0x1A3 JUMPI DUP2 PUSH1 0x20 SWAP4 PUSH20 0xFFFFFFFFFFFFFFFFFFFFFFFFFFFFFFFFFFFFFFFF SWAP3 CALLDATALOAD DUP2 MSTORE PUSH1 0x1 DUP6 MSTORE KECCAK256 SLOAD AND SWAP1 MLOAD SWAP1 DUP2 MSTORE RETURN JUMPDEST SWAP3 SWAP1 POP CALLVALUE PUSH2 0x4CD JUMPI PUSH1 0x20 PUSH1 0x3 NOT CALLDATASIZE ADD SLT PUSH2 0x4CD JUMPI CALLDATALOAD DUP4 MSTORE PUSH1 0x1 PUSH1 0x20 SWAP1 DUP2 MSTORE SWAP3 KECCAK256 SLOAD PUSH20 0xFFFFFFFFFFFFFFFFFFFFFFFFFFFFFFFFFFFFFFFF AND DUP2 MSTORE RETURN JUMPDEST PUSH20 0xFFFFFFFFFFFFFFFFFFFFFFFFFFFFFFFFFFFFFFFF PUSH1 0x0 SLOAD AND CALLER SUB PUSH2 0x56B JUMPI JUMP JUMPDEST PUSH1 0x64 PUSH1 0x40 MLOAD PUSH32 0x8C379A000000000000000000000000000000000000000000000000000000000 DUP2 MSTORE PUSH1 0x20 PUSH1 0x4 DUP3 ADD MSTORE PUSH1 0x20 PUSH1 0x24 DUP3 ADD MSTORE PUSH32 0x4F776E61626C653A2063616C6C6572206973206E6F7420746865206F776E6572 PUSH1 0x44 DUP3 ADD MSTORE REVERT INVALID PUSH1 0x80 CALLVALUE PUSH2 0x7E JUMPI PUSH1 0x1F PUSH2 0x6AA CODESIZE DUP2 SWAP1 SUB SWAP2 DUP3 ADD PUSH1 0x1F NOT AND DUP4 ADD SWAP2 PUSH1 0x1 PUSH1 0x1 PUSH1 0x40 SHL SUB DUP4 GT DUP5 DUP5 LT OR PUSH2 0x83 JUMPI DUP1 DUP5 SWAP3 PUSH1 0x40 SWAP5 DUP6 MSTORE DUP4 CODECOPY DUP2 ADD SUB SLT PUSH2 0x7E JUMPI DUP1 MLOAD PUSH1 0x20 SWAP1 SWAP2 ADD MLOAD PUSH1 0x1 PUSH1 0x1 PUSH1 0xA0 SHL SUB DUP2 AND SWAP2 SWAP1 DUP3 SWAP1 SUB PUSH2 0x7E JUMPI PUSH1 0x0 SSTORE PUSH1 0x1 DUP1 SLOAD PUSH1 0x1 PUSH1 0x1 PUSH1 0xA0 SHL SUB NOT AND SWAP2 SWAP1 SWAP2 OR SWAP1 SSTORE PUSH1 0x40 MLOAD PUSH2 0x610 SWAP1 DUP2 PUSH2 0x9A DUP3 CODECOPY RETURN JUMPDEST PUSH1 0x0 DUP1 REVERT JUMPDEST PUSH4 0x4E487B71 PUSH1 0xE0 SHL PUSH1 0x0 MSTORE PUSH1 0x41 PUSH1 0x4 MSTORE PUSH1 0x24 PUSH1 0x0 REVERT INVALID PUSH1 0x80 PUSH1 0x40 SWAP1 DUP1 DUP3 MSTORE PUSH1 0x4 SWAP1 DUP2 CALLDATASIZE LT ISZERO PUSH2 0x223 JUMPI JUMPDEST POP CALLDATASIZE ISZERO PUSH2 0x1F JUMPI PUSH1 0x0 DUP1 REVERT JUMPDEST PUSH20 0xFFFFFFFFFFFFFFFFFFFFFFFFFFFFFFFFFFFFFFFF DUP1 PUSH1 0x1 SLOAD AND DUP4 MLOAD SWAP2 DUP3 SWAP2 PUSH32 0x8D928AF800000000000000000000000000000000000000000000000000000000 DUP4 MSTORE DUP3 DUP6 PUSH1 0x20 SWAP6 DUP7 SWAP4 GAS STATICCALL SWAP2 DUP3 ISZERO PUSH2 0x218 JUMPI PUSH1 0x0 SWAP3 PUSH2 0x1E9 JUMPI JUMPDEST POP PUSH1 0x0 SLOAD DUP6 MLOAD SWAP3 DUP5 DUP5 ADD SWAP2 PUSH32 0xD68D9D4E00000000000000000000000000000000000000000000000000000000 DUP4 MSTORE PUSH1 0x24 DUP6 ADD MSTORE PUSH1 0x24 DUP5 MSTORE PUSH1 0x60 DUP5 ADD SWAP4 PUSH8 0xFFFFFFFFFFFFFFFF SWAP5 DUP2 DUP2 LT DUP7 DUP3 GT OR PUSH2 0x1BB JUMPI DUP9 MSTORE MLOAD PUSH1 0x0 SWAP4 DUP5 SWAP4 SWAP2 SWAP3 CALLVALUE SWAP2 AND GAS CALL SWAP1 RETURNDATASIZE ISZERO PUSH2 0x1B5 JUMPI RETURNDATASIZE SWAP1 DUP2 GT PUSH2 0x187 JUMPI DUP5 MLOAD SWAP1 PUSH2 0x11C DUP5 PUSH32 0xFFFFFFFFFFFFFFFFFFFFFFFFFFFFFFFFFFFFFFFFFFFFFFFFFFFFFFFFFFFFFFE0 PUSH1 0x1F DUP5 ADD AND ADD DUP4 PUSH2 0x539 JUMP JUMPDEST DUP2 MSTORE PUSH1 0x0 DUP4 RETURNDATASIZE SWAP3 ADD RETURNDATACOPY JUMPDEST ISZERO PUSH2 0x12D JUMPI STOP JUMPDEST PUSH1 0x64 SWAP3 MLOAD SWAP2 PUSH32 0x8C379A000000000000000000000000000000000000000000000000000000000 DUP4 MSTORE DUP3 ADD MSTORE PUSH1 0xE PUSH1 0x24 DUP3 ADD MSTORE PUSH32 0x4465706F736974206661696C6564000000000000000000000000000000000000 PUSH1 0x44 DUP3 ADD MSTORE REVERT JUMPDEST PUSH1 0x41 DUP5 PUSH32 0x4E487B7100000000000000000000000000000000000000000000000000000000 PUSH1 0x0 MSTORE MSTORE PUSH1 0x24 PUSH1 0x0 REVERT JUMPDEST POP PUSH2 0x126 JUMP JUMPDEST PUSH1 0x41 DUP9 PUSH32 0x4E487B7100000000000000000000000000000000000000000000000000000000 PUSH1 0x0 MSTORE MSTORE PUSH1 0x24 PUSH1 0x0 REVERT JUMPDEST PUSH2 0x20A SWAP2 SWAP3 POP DUP4 RETURNDATASIZE DUP6 GT PUSH2 0x211 JUMPI JUMPDEST PUSH2 0x202 DUP2 DUP4 PUSH2 0x539 JUMP JUMPDEST DUP2 ADD SWAP1 PUSH2 0x5A9 JUMP JUMPDEST SWAP1 CODESIZE PUSH2 0x79 JUMP JUMPDEST POP RETURNDATASIZE PUSH2 0x1F8 JUMP JUMPDEST DUP6 MLOAD RETURNDATASIZE PUSH1 0x0 DUP3 RETURNDATACOPY RETURNDATASIZE SWAP1 REVERT JUMPDEST PUSH1 0x0 SWAP1 DUP2 CALLDATALOAD PUSH1 0xE0 SHR SWAP1 DUP2 PUSH4 0x1A58A6A6 EQ PUSH2 0x501 JUMPI POP DUP1 PUSH4 0x338B5DEA EQ PUSH2 0x2A3 JUMPI PUSH4 0xC45A0155 SUB PUSH2 0x13 JUMPI DUP3 CALLVALUE PUSH2 0x29F JUMPI DUP2 PUSH32 0xFFFFFFFFFFFFFFFFFFFFFFFFFFFFFFFFFFFFFFFFFFFFFFFFFFFFFFFFFFFFFFFC CALLDATASIZE ADD SLT PUSH2 0x29F JUMPI PUSH1 0x20 SWAP1 PUSH20 0xFFFFFFFFFFFFFFFFFFFFFFFFFFFFFFFFFFFFFFFF PUSH1 0x1 SLOAD AND SWAP1 MLOAD SWAP1 DUP2 MSTORE RETURN JUMPDEST POP DUP1 REVERT JUMPDEST POP SWAP2 CALLVALUE PUSH2 0x4FD JUMPI DUP1 PUSH32 0xFFFFFFFFFFFFFFFFFFFFFFFFFFFFFFFFFFFFFFFFFFFFFFFFFFFFFFFFFFFFFFFC CALLDATASIZE ADD SLT PUSH2 0x4FD JUMPI DUP2 CALLDATALOAD SWAP2 PUSH20 0xFFFFFFFFFFFFFFFFFFFFFFFFFFFFFFFFFFFFFFFF DUP1 DUP5 AND DUP1 SWAP5 SUB PUSH2 0x4F9 JUMPI PUSH1 0x24 CALLDATALOAD SWAP1 DUP1 PUSH1 0x1 SLOAD AND DUP5 MLOAD SWAP2 DUP3 SWAP2 PUSH32 0x8D928AF800000000000000000000000000000000000000000000000000000000 DUP4 MSTORE DUP3 DUP7 PUSH1 0x20 SWAP5 DUP6 SWAP4 GAS STATICCALL SWAP3 DUP4 ISZERO PUSH2 0x4D0 JUMPI DUP9 SWAP4 PUSH2 0x4DA JUMPI JUMPDEST POP DUP6 MLOAD SWAP3 PUSH32 0x95EA7B300000000000000000000000000000000000000000000000000000000 DUP5 MSTORE AND SWAP2 DUP3 DUP6 DUP3 ADD MSTORE DUP4 PUSH1 0x24 DUP3 ADD MSTORE DUP2 DUP2 PUSH1 0x44 DUP2 DUP12 DUP12 GAS CALL SWAP1 DUP2 ISZERO PUSH2 0x4D0 JUMPI DUP9 SWAP2 PUSH2 0x496 JUMPI JUMPDEST POP ISZERO PUSH2 0x43A JUMPI POP SWAP1 DUP6 SWAP2 DUP3 SLOAD SWAP6 DUP2 EXTCODESIZE ISZERO PUSH2 0x436 JUMPI DUP4 PUSH1 0x64 SWAP3 DUP8 MLOAD SWAP9 DUP10 SWAP6 DUP7 SWAP5 PUSH32 0x84ABAC9500000000000000000000000000000000000000000000000000000000 DUP7 MSTORE DUP10 DUP7 ADD MSTORE PUSH1 0x24 DUP6 ADD MSTORE PUSH1 0x44 DUP5 ADD MSTORE GAS CALL DUP1 ISZERO PUSH2 0x42C JUMPI PUSH2 0x3E8 JUMPI DUP4 DUP1 RETURN JUMPDEST PUSH8 0xFFFFFFFFFFFFFFFF DUP4 GT PUSH2 0x400 JUMPI POP MSTORE CODESIZE DUP1 DUP1 DUP4 DUP1 RETURN JUMPDEST DUP4 PUSH1 0x41 PUSH1 0x24 SWAP3 PUSH32 0x4E487B7100000000000000000000000000000000000000000000000000000000 DUP4 MSTORE MSTORE REVERT JUMPDEST DUP3 MLOAD RETURNDATASIZE DUP7 DUP3 RETURNDATACOPY RETURNDATASIZE SWAP1 REVERT JUMPDEST DUP4 DUP1 REVERT JUMPDEST DUP4 PUSH1 0x64 SWAP2 DUP7 MLOAD SWAP2 PUSH32 0x8C379A000000000000000000000000000000000000000000000000000000000 DUP4 MSTORE DUP3 ADD MSTORE PUSH1 0xE PUSH1 0x24 DUP3 ADD MSTORE PUSH32 0x417070726F7665206661696C6564000000000000000000000000000000000000 PUSH1 0x44 DUP3 ADD MSTORE REVERT JUMPDEST SWAP1 POP DUP2 DUP2 DUP2 RETURNDATASIZE DUP4 GT PUSH2 0x4C9 JUMPI JUMPDEST PUSH2 0x4AD DUP2 DUP4 PUSH2 0x539 JUMP JUMPDEST DUP2 ADD SUB SLT PUSH2 0x4C5 JUMPI MLOAD DUP1 ISZERO ISZERO DUP2 SUB PUSH2 0x4C5 JUMPI CODESIZE PUSH2 0x388 JUMP JUMPDEST DUP8 DUP1 REVERT JUMPDEST POP RETURNDATASIZE PUSH2 0x4A3 JUMP JUMPDEST DUP7 MLOAD RETURNDATASIZE DUP11 DUP3 RETURNDATACOPY RETURNDATASIZE SWAP1 REVERT JUMPDEST PUSH2 0x4F2 SWAP2 SWAP4 POP DUP3 RETURNDATASIZE DUP5 GT PUSH2 0x211 JUMPI PUSH2 0x202 DUP2 DUP4 PUSH2 0x539 JUMP JUMPDEST SWAP2 CODESIZE PUSH2 0x33D JUMP JUMPDEST DUP5 DUP1 REVERT JUMPDEST DUP3 DUP1 REVERT JUMPDEST SWAP1 POP CALLVALUE PUSH2 0x29F JUMPI DUP2 PUSH32 0xFFFFFFFFFFFFFFFFFFFFFFFFFFFFFFFFFFFFFFFFFFFFFFFFFFFFFFFFFFFFFFFC CALLDATASIZE ADD SLT PUSH2 0x29F JUMPI PUSH1 0x20 SWAP2 SLOAD DUP2 MSTORE RETURN JUMPDEST SWAP1 PUSH1 0x1F PUSH32 0xFFFFFFFFFFFFFFFFFFFFFFFFFFFFFFFFFFFFFFFFFFFFFFFFFFFFFFFFFFFFFFE0 SWAP2 ADD AND DUP2 ADD SWAP1 DUP2 LT PUSH8 0xFFFFFFFFFFFFFFFF DUP3 GT OR PUSH2 0x57A JUMPI PUSH1 0x40 MSTORE JUMP JUMPDEST PUSH32 0x4E487B7100000000000000000000000000000000000000000000000000000000 PUSH1 0x0 MSTORE PUSH1 0x41 PUSH1 0x4 MSTORE PUSH1 0x24 PUSH1 0x0 REVERT JUMPDEST SWAP1 DUP2 PUSH1 0x20 SWAP2 SUB SLT PUSH2 0x5D5 JUMPI MLOAD PUSH20 0xFFFFFFFFFFFFFFFFFFFFFFFFFFFFFFFFFFFFFFFF DUP2 AND DUP2 SUB PUSH2 0x5D5 JUMPI SWAP1 JUMP JUMPDEST PUSH1 0x0 DUP1 REVERT INVALID LOG2 PUSH5 0x6970667358 0x22 SLT KECCAK256 MSTORE8 SWAP6 0xF7 DUP2 0xE6 SWAP6 0xD 0xCE CALLVALUE PREVRANDAO 0xB1 0xFC 0xD0 SHL 0xFB 0xCF 0xEB 0xB5 MULMOD MULMOD PUSH24 0xD46CDB614F9B15CB963A7E64736F6C63430008130033A264 PUSH10 0x706673582212200133CC 0xC7 0xCE PC 0xF6 0xD9 AND PUSH15 0xB6EC570FB5F4292270ABDDC745F857 0xD PUSH21 0xC9B3FD9F1664736F6C634300081300330000000000 "},"gasEstimates":{"creation":{"codeDepositCost":"648200","executionCost":"infinite","totalCost":"infinite"},"external":{"changeVault(address)":"26651","createforwarder(bytes32)":"infinite","forwardersMapping(bytes32)":"2339","getVault()":"2420","getforwarders(bytes32)":"2372","mecenateVault()":"2332","owner()":"2439","renounceOwnership()":"28124","transferOwnership(address)":"28275"}},"methodIdentifiers":{"changeVault(address)":"60e232a9","createforwarder(bytes32)":"7ef0db66","forwardersMapping(bytes32)":"05d45fad","getVault()":"8d928af8","getforwarders(bytes32)":"07c0e602","mecenateVault()":"541886b2","owner()":"8da5cb5b","renounceOwnership()":"715018a6","transferOwnership(address)":"f2fde38b"}},"storageLayout":{"storage":[{"astId":7,"contract":"contracts/factories/MecenateForwarderFactory.sol:MecenateForwarderFactory","label":"_owner","offset":0,"slot":"0","type":"t_address"},{"astId":1913,"contract":"contracts/factories/MecenateForwarderFactory.sol:MecenateForwarderFactory","label":"forwardersMapping","offset":0,"slot":"1","type":"t_mapping(t_bytes32,t_address)"},{"astId":1915,"contract":"contracts/factories/MecenateForwarderFactory.sol:MecenateForwarderFactory","label":"mecenateVault","offset":0,"slot":"2","type":"t_address"}],"types":{"t_address":{"encoding":"inplace","label":"address","numberOfBytes":"20"},"t_bytes32":{"encoding":"inplace","label":"bytes32","numberOfBytes":"32"},"t_mapping(t_bytes32,t_address)":{"encoding":"mapping","key":"t_bytes32","label":"mapping(bytes32 => address)","numberOfBytes":"32","value":"t_address"}}},"userdoc":{"kind":"user","methods":{},"version":1}}}}