{"contracts/MecenateForwarder.sol":{"MecenateForwarder":{"abi":[{"inputs":[{"internalType":"bytes32","name":"_encryptedVaultId","type":"bytes32"},{"internalType":"address","name":"_factory","type":"address"}],"stateMutability":"nonpayable","type":"constructor"},{"inputs":[{"internalType":"address","name":"token","type":"address"},{"internalType":"uint256","name":"amount","type":"uint256"}],"name":"depositToken","outputs":[],"stateMutability":"nonpayable","type":"function"},{"inputs":[],"name":"encryptedVaultId","outputs":[{"internalType":"bytes32","name":"","type":"bytes32"}],"stateMutability":"view","type":"function"},{"inputs":[],"name":"factory","outputs":[{"internalType":"address","name":"","type":"address"}],"stateMutability":"view","type":"function"},{"stateMutability":"payable","type":"receive"}],"devdoc":{"kind":"dev","methods":{},"version":1},"evm":{"bytecode":{"linkReferences":{},"object":"60803461007e57601f6106aa38819003918201601f19168301916001600160401b0383118484101761008357808492604094855283398101031261007e5780516020909101516001600160a01b038116919082900361007e57600055600180546001600160a01b031916919091179055604051610610908161009a8239f35b600080fd5b634e487b7160e01b600052604160045260246000fdfe608060409080825260049081361015610223575b50361561001f57600080fd5b73ffffffffffffffffffffffffffffffffffffffff806001541683519182917f8d928af8000000000000000000000000000000000000000000000000000000008352828560209586935afa918215610218576000926101e9575b50600054855192848401917fd68d9d4e000000000000000000000000000000000000000000000000000000008352602485015260248452606084019367ffffffffffffffff94818110868211176101bb57885251600093849391923491165af1903d156101b5573d9081116101875784519061011c847fffffffffffffffffffffffffffffffffffffffffffffffffffffffffffffffe0601f8401160183610539565b81526000833d92013e5b1561012d57005b60649251917f08c379a0000000000000000000000000000000000000000000000000000000008352820152600e60248201527f4465706f736974206661696c65640000000000000000000000000000000000006044820152fd5b6041847f4e487b71000000000000000000000000000000000000000000000000000000006000525260246000fd5b50610126565b6041887f4e487b71000000000000000000000000000000000000000000000000000000006000525260246000fd5b61020a919250833d8511610211575b6102028183610539565b8101906105a9565b9038610079565b503d6101f8565b85513d6000823e3d90fd5b600090813560e01c9081631a58a6a61461050157508063338b5dea146102a35763c45a01550361001357823461029f57817ffffffffffffffffffffffffffffffffffffffffffffffffffffffffffffffffc36011261029f5760209073ffffffffffffffffffffffffffffffffffffffff600154169051908152f35b5080fd5b5091346104fd57807ffffffffffffffffffffffffffffffffffffffffffffffffffffffffffffffffc3601126104fd5781359173ffffffffffffffffffffffffffffffffffffffff8084168094036104f95760243590806001541684519182917f8d928af8000000000000000000000000000000000000000000000000000000008352828660209485935afa9283156104d05788936104da575b508551927f095ea7b30000000000000000000000000000000000000000000000000000000084521691828582015283602482015281816044818b8b5af19081156104d0578891610496575b501561043a5750908591825495813b156104365783606492875198899586947f84abac9500000000000000000000000000000000000000000000000000000000865289860152602485015260448401525af1801561042c576103e8578380f35b67ffffffffffffffff83116104005750523880808380f35b8360416024927f4e487b7100000000000000000000000000000000000000000000000000000000835252fd5b82513d86823e3d90fd5b8380fd5b836064918651917f08c379a0000000000000000000000000000000000000000000000000000000008352820152600e60248201527f417070726f7665206661696c65640000000000000000000000000000000000006044820152fd5b90508181813d83116104c9575b6104ad8183610539565b810103126104c5575180151581036104c55738610388565b8780fd5b503d6104a3565b86513d8a823e3d90fd5b6104f2919350823d8411610211576102028183610539565b913861033d565b8480fd5b8280fd5b90503461029f57817ffffffffffffffffffffffffffffffffffffffffffffffffffffffffffffffffc36011261029f57602091548152f35b90601f7fffffffffffffffffffffffffffffffffffffffffffffffffffffffffffffffe0910116810190811067ffffffffffffffff82111761057a57604052565b7f4e487b7100000000000000000000000000000000000000000000000000000000600052604160045260246000fd5b908160209103126105d5575173ffffffffffffffffffffffffffffffffffffffff811681036105d55790565b600080fdfea26469706673582212205395f781e6950dce3444b1fcd01bfbcfebb5090977d46cdb614f9b15cb963a7e64736f6c63430008130033","opcodes":"PUSH1 0x80 CALLVALUE PUSH2 0x7E JUMPI PUSH1 0x1F PUSH2 0x6AA CODESIZE DUP2 SWAP1 SUB SWAP2 DUP3 ADD PUSH1 0x1F NOT AND DUP4 ADD SWAP2 PUSH1 0x1 PUSH1 0x1 PUSH1 0x40 SHL SUB DUP4 GT DUP5 DUP5 LT OR PUSH2 0x83 JUMPI DUP1 DUP5 SWAP3 PUSH1 0x40 SWAP5 DUP6 MSTORE DUP4 CODECOPY DUP2 ADD SUB SLT PUSH2 0x7E JUMPI DUP1 MLOAD PUSH1 0x20 SWAP1 SWAP2 ADD MLOAD PUSH1 0x1 PUSH1 0x1 PUSH1 0xA0 SHL SUB DUP2 AND SWAP2 SWAP1 DUP3 SWAP1 SUB PUSH2 0x7E JUMPI PUSH1 0x0 SSTORE PUSH1 0x1 DUP1 SLOAD PUSH1 0x1 PUSH1 0x1 PUSH1 0xA0 SHL SUB NOT AND SWAP2 SWAP1 SWAP2 OR SWAP1 SSTORE PUSH1 0x40 MLOAD PUSH2 0x610 SWAP1 DUP2 PUSH2 0x9A DUP3 CODECOPY RETURN JUMPDEST PUSH1 0x0 DUP1 REVERT JUMPDEST PUSH4 0x4E487B71 PUSH1 0xE0 SHL PUSH1 0x0 MSTORE PUSH1 0x41 PUSH1 0x4 MSTORE PUSH1 0x24 PUSH1 0x0 REVERT INVALID PUSH1 0x80 PUSH1 0x40 SWAP1 DUP1 DUP3 MSTORE PUSH1 0x4 SWAP1 DUP2 CALLDATASIZE LT ISZERO PUSH2 0x223 JUMPI JUMPDEST POP CALLDATASIZE ISZERO PUSH2 0x1F JUMPI PUSH1 0x0 DUP1 REVERT JUMPDEST PUSH20 0xFFFFFFFFFFFFFFFFFFFFFFFFFFFFFFFFFFFFFFFF DUP1 PUSH1 0x1 SLOAD AND DUP4 MLOAD SWAP2 DUP3 SWAP2 PUSH32 0x8D928AF800000000000000000000000000000000000000000000000000000000 DUP4 MSTORE DUP3 DUP6 PUSH1 0x20 SWAP6 DUP7 SWAP4 GAS STATICCALL SWAP2 DUP3 ISZERO PUSH2 0x218 JUMPI PUSH1 0x0 SWAP3 PUSH2 0x1E9 JUMPI JUMPDEST POP PUSH1 0x0 SLOAD DUP6 MLOAD SWAP3 DUP5 DUP5 ADD SWAP2 PUSH32 0xD68D9D4E00000000000000000000000000000000000000000000000000000000 DUP4 MSTORE PUSH1 0x24 DUP6 ADD MSTORE PUSH1 0x24 DUP5 MSTORE PUSH1 0x60 DUP5 ADD SWAP4 PUSH8 0xFFFFFFFFFFFFFFFF SWAP5 DUP2 DUP2 LT DUP7 DUP3 GT OR PUSH2 0x1BB JUMPI DUP9 MSTORE MLOAD PUSH1 0x0 SWAP4 DUP5 SWAP4 SWAP2 SWAP3 CALLVALUE SWAP2 AND GAS CALL SWAP1 RETURNDATASIZE ISZERO PUSH2 0x1B5 JUMPI RETURNDATASIZE SWAP1 DUP2 GT PUSH2 0x187 JUMPI DUP5 MLOAD SWAP1 PUSH2 0x11C DUP5 PUSH32 0xFFFFFFFFFFFFFFFFFFFFFFFFFFFFFFFFFFFFFFFFFFFFFFFFFFFFFFFFFFFFFFE0 PUSH1 0x1F DUP5 ADD AND ADD DUP4 PUSH2 0x539 JUMP JUMPDEST DUP2 MSTORE PUSH1 0x0 DUP4 RETURNDATASIZE SWAP3 ADD RETURNDATACOPY JUMPDEST ISZERO PUSH2 0x12D JUMPI STOP JUMPDEST PUSH1 0x64 SWAP3 MLOAD SWAP2 PUSH32 0x8C379A000000000000000000000000000000000000000000000000000000000 DUP4 MSTORE DUP3 ADD MSTORE PUSH1 0xE PUSH1 0x24 DUP3 ADD MSTORE PUSH32 0x4465706F736974206661696C6564000000000000000000000000000000000000 PUSH1 0x44 DUP3 ADD MSTORE REVERT JUMPDEST PUSH1 0x41 DUP5 PUSH32 0x4E487B7100000000000000000000000000000000000000000000000000000000 PUSH1 0x0 MSTORE MSTORE PUSH1 0x24 PUSH1 0x0 REVERT JUMPDEST POP PUSH2 0x126 JUMP JUMPDEST PUSH1 0x41 DUP9 PUSH32 0x4E487B7100000000000000000000000000000000000000000000000000000000 PUSH1 0x0 MSTORE MSTORE PUSH1 0x24 PUSH1 0x0 REVERT JUMPDEST PUSH2 0x20A SWAP2 SWAP3 POP DUP4 RETURNDATASIZE DUP6 GT PUSH2 0x211 JUMPI JUMPDEST PUSH2 0x202 DUP2 DUP4 PUSH2 0x539 JUMP JUMPDEST DUP2 ADD SWAP1 PUSH2 0x5A9 JUMP JUMPDEST SWAP1 CODESIZE PUSH2 0x79 JUMP JUMPDEST POP RETURNDATASIZE PUSH2 0x1F8 JUMP JUMPDEST DUP6 MLOAD RETURNDATASIZE PUSH1 0x0 DUP3 RETURNDATACOPY RETURNDATASIZE SWAP1 REVERT JUMPDEST PUSH1 0x0 SWAP1 DUP2 CALLDATALOAD PUSH1 0xE0 SHR SWAP1 DUP2 PUSH4 0x1A58A6A6 EQ PUSH2 0x501 JUMPI POP DUP1 PUSH4 0x338B5DEA EQ PUSH2 0x2A3 JUMPI PUSH4 0xC45A0155 SUB PUSH2 0x13 JUMPI DUP3 CALLVALUE PUSH2 0x29F JUMPI DUP2 PUSH32 0xFFFFFFFFFFFFFFFFFFFFFFFFFFFFFFFFFFFFFFFFFFFFFFFFFFFFFFFFFFFFFFFC CALLDATASIZE ADD SLT PUSH2 0x29F JUMPI PUSH1 0x20 SWAP1 PUSH20 0xFFFFFFFFFFFFFFFFFFFFFFFFFFFFFFFFFFFFFFFF PUSH1 0x1 SLOAD AND SWAP1 MLOAD SWAP1 DUP2 MSTORE RETURN JUMPDEST POP DUP1 REVERT JUMPDEST POP SWAP2 CALLVALUE PUSH2 0x4FD JUMPI DUP1 PUSH32 0xFFFFFFFFFFFFFFFFFFFFFFFFFFFFFFFFFFFFFFFFFFFFFFFFFFFFFFFFFFFFFFFC CALLDATASIZE ADD SLT PUSH2 0x4FD JUMPI DUP2 CALLDATALOAD SWAP2 PUSH20 0xFFFFFFFFFFFFFFFFFFFFFFFFFFFFFFFFFFFFFFFF DUP1 DUP5 AND DUP1 SWAP5 SUB PUSH2 0x4F9 JUMPI PUSH1 0x24 CALLDATALOAD SWAP1 DUP1 PUSH1 0x1 SLOAD AND DUP5 MLOAD SWAP2 DUP3 SWAP2 PUSH32 0x8D928AF800000000000000000000000000000000000000000000000000000000 DUP4 MSTORE DUP3 DUP7 PUSH1 0x20 SWAP5 DUP6 SWAP4 GAS STATICCALL SWAP3 DUP4 ISZERO PUSH2 0x4D0 JUMPI DUP9 SWAP4 PUSH2 0x4DA JUMPI JUMPDEST POP DUP6 MLOAD SWAP3 PUSH32 0x95EA7B300000000000000000000000000000000000000000000000000000000 DUP5 MSTORE AND SWAP2 DUP3 DUP6 DUP3 ADD MSTORE DUP4 PUSH1 0x24 DUP3 ADD MSTORE DUP2 DUP2 PUSH1 0x44 DUP2 DUP12 DUP12 GAS CALL SWAP1 DUP2 ISZERO PUSH2 0x4D0 JUMPI DUP9 SWAP2 PUSH2 0x496 JUMPI JUMPDEST POP ISZERO PUSH2 0x43A JUMPI POP SWAP1 DUP6 SWAP2 DUP3 SLOAD SWAP6 DUP2 EXTCODESIZE ISZERO PUSH2 0x436 JUMPI DUP4 PUSH1 0x64 SWAP3 DUP8 MLOAD SWAP9 DUP10 SWAP6 DUP7 SWAP5 PUSH32 0x84ABAC9500000000000000000000000000000000000000000000000000000000 DUP7 MSTORE DUP10 DUP7 ADD MSTORE PUSH1 0x24 DUP6 ADD MSTORE PUSH1 0x44 DUP5 ADD MSTORE GAS CALL DUP1 ISZERO PUSH2 0x42C JUMPI PUSH2 0x3E8 JUMPI DUP4 DUP1 RETURN JUMPDEST PUSH8 0xFFFFFFFFFFFFFFFF DUP4 GT PUSH2 0x400 JUMPI POP MSTORE CODESIZE DUP1 DUP1 DUP4 DUP1 RETURN JUMPDEST DUP4 PUSH1 0x41 PUSH1 0x24 SWAP3 PUSH32 0x4E487B7100000000000000000000000000000000000000000000000000000000 DUP4 MSTORE MSTORE REVERT JUMPDEST DUP3 MLOAD RETURNDATASIZE DUP7 DUP3 RETURNDATACOPY RETURNDATASIZE SWAP1 REVERT JUMPDEST DUP4 DUP1 REVERT JUMPDEST DUP4 PUSH1 0x64 SWAP2 DUP7 MLOAD SWAP2 PUSH32 0x8C379A000000000000000000000000000000000000000000000000000000000 DUP4 MSTORE DUP3 ADD MSTORE PUSH1 0xE PUSH1 0x24 DUP3 ADD MSTORE PUSH32 0x417070726F7665206661696C6564000000000000000000000000000000000000 PUSH1 0x44 DUP3 ADD MSTORE REVERT JUMPDEST SWAP1 POP DUP2 DUP2 DUP2 RETURNDATASIZE DUP4 GT PUSH2 0x4C9 JUMPI JUMPDEST PUSH2 0x4AD DUP2 DUP4 PUSH2 0x539 JUMP JUMPDEST DUP2 ADD SUB SLT PUSH2 0x4C5 JUMPI MLOAD DUP1 ISZERO ISZERO DUP2 SUB PUSH2 0x4C5 JUMPI CODESIZE PUSH2 0x388 JUMP JUMPDEST DUP8 DUP1 REVERT JUMPDEST POP RETURNDATASIZE PUSH2 0x4A3 JUMP JUMPDEST DUP7 MLOAD RETURNDATASIZE DUP11 DUP3 RETURNDATACOPY RETURNDATASIZE SWAP1 REVERT JUMPDEST PUSH2 0x4F2 SWAP2 SWAP4 POP DUP3 RETURNDATASIZE DUP5 GT PUSH2 0x211 JUMPI PUSH2 0x202 DUP2 DUP4 PUSH2 0x539 JUMP JUMPDEST SWAP2 CODESIZE PUSH2 0x33D JUMP JUMPDEST DUP5 DUP1 REVERT JUMPDEST DUP3 DUP1 REVERT JUMPDEST SWAP1 POP CALLVALUE PUSH2 0x29F JUMPI DUP2 PUSH32 0xFFFFFFFFFFFFFFFFFFFFFFFFFFFFFFFFFFFFFFFFFFFFFFFFFFFFFFFFFFFFFFFC CALLDATASIZE ADD SLT PUSH2 0x29F JUMPI PUSH1 0x20 SWAP2 SLOAD DUP2 MSTORE RETURN JUMPDEST SWAP1 PUSH1 0x1F PUSH32 0xFFFFFFFFFFFFFFFFFFFFFFFFFFFFFFFFFFFFFFFFFFFFFFFFFFFFFFFFFFFFFFE0 SWAP2 ADD AND DUP2 ADD SWAP1 DUP2 LT PUSH8 0xFFFFFFFFFFFFFFFF DUP3 GT OR PUSH2 0x57A JUMPI PUSH1 0x40 MSTORE JUMP JUMPDEST PUSH32 0x4E487B7100000000000000000000000000000000000000000000000000000000 PUSH1 0x0 MSTORE PUSH1 0x41 PUSH1 0x4 MSTORE PUSH1 0x24 PUSH1 0x0 REVERT JUMPDEST SWAP1 DUP2 PUSH1 0x20 SWAP2 SUB SLT PUSH2 0x5D5 JUMPI MLOAD PUSH20 0xFFFFFFFFFFFFFFFFFFFFFFFFFFFFFFFFFFFFFFFF DUP2 AND DUP2 SUB PUSH2 0x5D5 JUMPI SWAP1 JUMP JUMPDEST PUSH1 0x0 DUP1 REVERT INVALID LOG2 PUSH5 0x6970667358 0x22 SLT KECCAK256 MSTORE8 SWAP6 0xF7 DUP2 0xE6 SWAP6 0xD 0xCE CALLVALUE PREVRANDAO 0xB1 0xFC 0xD0 SHL 0xFB 0xCF 0xEB 0xB5 MULMOD MULMOD PUSH24 0xD46CDB614F9B15CB963A7E64736F6C634300081300330000 "},"gasEstimates":{"creation":{"codeDepositCost":"310400","executionCost":"infinite","totalCost":"infinite"},"external":{"depositToken(address,uint256)":"infinite","encryptedVaultId()":"2267","factory()":"2325"}},"methodIdentifiers":{"depositToken(address,uint256)":"338b5dea","encryptedVaultId()":"1a58a6a6","factory()":"c45a0155"}},"storageLayout":{"storage":[{"astId":633,"contract":"contracts/MecenateForwarder.sol:MecenateForwarder","label":"encryptedVaultId","offset":0,"slot":"0","type":"t_bytes32"},{"astId":635,"contract":"contracts/MecenateForwarder.sol:MecenateForwarder","label":"factory","offset":0,"slot":"1","type":"t_address"}],"types":{"t_address":{"encoding":"inplace","label":"address","numberOfBytes":"20"},"t_bytes32":{"encoding":"inplace","label":"bytes32","numberOfBytes":"32"}}},"userdoc":{"kind":"user","methods":{},"version":1}}}}