{"contracts/registry/MecenateUsers.sol":{"MecenateUsers":{"abi":[{"inputs":[{"internalType":"address","name":"verifierContractAddress","type":"address"}],"stateMutability":"nonpayable","type":"constructor"},{"anonymous":false,"inputs":[{"indexed":true,"internalType":"address","name":"oldAddress","type":"address"},{"indexed":false,"internalType":"address","name":"newAddress","type":"address"}],"name":"EVMAddressChanged","type":"event"},{"anonymous":false,"inputs":[{"indexed":true,"internalType":"address","name":"previousOwner","type":"address"},{"indexed":true,"internalType":"address","name":"newOwner","type":"address"}],"name":"OwnershipTransferred","type":"event"},{"anonymous":false,"inputs":[{"indexed":true,"internalType":"address","name":"userAddress","type":"address"},{"indexed":false,"internalType":"bytes","name":"newPublicKey","type":"bytes"}],"name":"PublicKeyChanged","type":"event"},{"anonymous":false,"inputs":[{"indexed":true,"internalType":"address","name":"userAddress","type":"address"}],"name":"UserRegistered","type":"event"},{"inputs":[{"internalType":"bytes","name":"sismoConnectResponse","type":"bytes"},{"internalType":"address","name":"newAddress","type":"address"}],"name":"changeEVMAddress","outputs":[{"components":[{"internalType":"address","name":"evmAddress","type":"address"},{"internalType":"bytes","name":"sismoVaultId","type":"bytes"},{"internalType":"bytes","name":"publicKey","type":"bytes"}],"internalType":"struct Structures.User","name":"","type":"tuple"}],"stateMutability":"nonpayable","type":"function"},{"inputs":[{"internalType":"bytes","name":"sismoConnectResponse","type":"bytes"},{"internalType":"bytes","name":"pubKey","type":"bytes"}],"name":"changePublicKey","outputs":[{"components":[{"internalType":"address","name":"evmAddress","type":"address"},{"internalType":"bytes","name":"sismoVaultId","type":"bytes"},{"internalType":"bytes","name":"publicKey","type":"bytes"}],"internalType":"struct Structures.User","name":"","type":"tuple"}],"stateMutability":"nonpayable","type":"function"},{"inputs":[{"internalType":"address","name":"userAddress","type":"address"}],"name":"checkifUserExist","outputs":[{"internalType":"bool","name":"","type":"bool"}],"stateMutability":"view","type":"function"},{"inputs":[{"internalType":"uint256","name":"startIndex","type":"uint256"},{"internalType":"uint256","name":"endIndex","type":"uint256"}],"name":"getPaginatedUsers","outputs":[{"internalType":"address[]","name":"","type":"address[]"}],"stateMutability":"view","type":"function"},{"inputs":[{"internalType":"uint256","name":"index","type":"uint256"}],"name":"getUserAt","outputs":[{"internalType":"address","name":"","type":"address"}],"stateMutability":"view","type":"function"},{"inputs":[],"name":"getUserCount","outputs":[{"internalType":"uint256","name":"","type":"uint256"}],"stateMutability":"view","type":"function"},{"inputs":[{"internalType":"address","name":"userAddress","type":"address"}],"name":"getUserMetadata","outputs":[{"components":[{"internalType":"address","name":"evmAddress","type":"address"},{"internalType":"bytes","name":"sismoVaultId","type":"bytes"},{"internalType":"bytes","name":"publicKey","type":"bytes"}],"internalType":"struct Structures.User","name":"","type":"tuple"}],"stateMutability":"view","type":"function"},{"inputs":[{"internalType":"address","name":"userAddress","type":"address"}],"name":"getUserPublicKey","outputs":[{"internalType":"bytes","name":"","type":"bytes"}],"stateMutability":"view","type":"function"},{"inputs":[],"name":"getUsers","outputs":[{"internalType":"address[]","name":"","type":"address[]"}],"stateMutability":"view","type":"function"},{"inputs":[],"name":"owner","outputs":[{"internalType":"address","name":"","type":"address"}],"stateMutability":"view","type":"function"},{"inputs":[{"internalType":"bytes","name":"sismoConnectResponse","type":"bytes"},{"internalType":"bytes","name":"pubKey","type":"bytes"}],"name":"registerUser","outputs":[{"components":[{"internalType":"address","name":"evmAddress","type":"address"},{"internalType":"bytes","name":"sismoVaultId","type":"bytes"},{"internalType":"bytes","name":"publicKey","type":"bytes"}],"internalType":"struct Structures.User","name":"","type":"tuple"}],"stateMutability":"nonpayable","type":"function"},{"inputs":[],"name":"renounceOwnership","outputs":[],"stateMutability":"nonpayable","type":"function"},{"inputs":[{"internalType":"address","name":"newOwner","type":"address"}],"name":"transferOwnership","outputs":[],"stateMutability":"nonpayable","type":"function"},{"inputs":[],"name":"verifierContract","outputs":[{"internalType":"address","name":"","type":"address"}],"stateMutability":"view","type":"function"}],"devdoc":{"kind":"dev","methods":{"owner()":{"details":"Returns the address of the current owner."},"renounceOwnership()":{"details":"Leaves the contract without owner. It will not be possible to call `onlyOwner` functions. Can only be called by the current owner. NOTE: Renouncing ownership will leave the contract without an owner, thereby disabling any functionality that is only available to the owner."},"transferOwnership(address)":{"details":"Transfers ownership of the contract to a new account (`newOwner`). Can only be called by the current owner."}},"version":1},"evm":{"bytecode":{"linkReferences":{},"object":"6080346100a757601f61184f38819003918201601f19168301916001600160401b038311848410176100ac578084926020946040528339810103126100a757516001600160a01b0390818116908190036100a75760005460018060a01b0319903382821617600055604051933391167f8be0079c531659141344cd1fd0a4f28419497f9722a3daafe3b4186f6b6457e0600080a3600454161760045561178c90816100c38239f35b600080fd5b634e487b7160e01b600052604160045260246000fdfe6080604081815260048036101561001557600080fd5b600092833560e01c908162ce8e3e14610fe15750806311231fe014610f8f578063470471ef14610b7b57806348990fcc14610b41578063715018a614610ae7578063899915201461072e5780638da5cb5b14610706578063b5cb15f7146106e7578063c6e064ad146106a1578063cf5caa1214610562578063cf6956881461053b578063ebc4bf8414610202578063ef2a8764146101815763f2fde38b146100bc57600080fd5b3461017d57602036600319011261017d576100d56110a4565b906100de61124c565b6001600160a01b0391821692831561012b57505082546001600160a01b0319811683178455167f8be0079c531659141344cd1fd0a4f28419497f9722a3daafe3b4186f6b6457e08380a380f35b906020608492519162461bcd60e51b8352820152602660248201527f4f776e61626c653a206e6577206f776e657220697320746865207a65726f206160448201526564647265737360d01b6064820152fd5b8280fd5b5050346101fe5760203660031901126101fe5790816101ec60026101fa946101a76110a4565b946101b06112a4565b506001600160a01b0395861681526003602052208351946101d086611107565b81541685526101e1600182016114c7565b6020860152016114c7565b8183015251918291826111be565b0390f35b5080fd5b509190346101fe5761021336611208565b61021b6112a4565b5060018060a01b03948581541690858551809363119f099160e01b8252818061024f6020998a8884015260248301906110e2565b03915afa91821561053157869261050d575b5084519661026e88611107565b33885284880192835285880193845233875260038552858720908851166bffffffffffffffffffffffff60a01b825416178155600191828201935180519267ffffffffffffffff958685116104fa576102c78154611323565b948b8a601f97888082116104cd575b50505050898c87831160011461046a57906002958361045f575b5050600019600383901b1c191690871b1790555b01945190815194851161044c575061031c8554611323565b828111610416575b50859184116001146103ac5792806002959381936101fa9998968b946103a1575b50501b916000199060031b1c19161790555b338552526103688184205415611374565b61037133611403565b50519283927f54db7a5cb4735e1aac1f53db512d3390390bb6637bd30ad4bf9fc98667d9b9b9339180a2826111be565b015192503880610345565b8488528588209293929190601f198416895b8181106104015750916101fa9897959391856002989694106103e8575b505050811b019055610357565b015160001960f88460031b161c191690553880806103db565b828401518555938601939288019288016103be565b61043d90868a52878a208480880160051c8201928a8910610443575b0160051c019061135d565b38610324565b92508192610432565b634e487b7160e01b895260419052602488fd5b0151905038806102f0565b889291601f1983168583528d80842093905b8282106104b657505096836002981061049d575b505050811b019055610304565b015160001960f88460031b161c19169055388080610490565b838a015185558c969094019392830192018e61047c565b8284876104f19652209181860160051c8301938610610443570160051c019061135d565b8b8a38886102d6565b634e487b7160e01b8b526041845260248bfd5b61052a9192503d8088833e6105228183611139565b8101906112c4565b9038610261565b85513d88823e3d90fd5b503461017d578260031936011261017d575490516001600160a01b03909116815260209150f35b509190346101fe57806003193601126101fe57823591602480359182851015610654576001956105958754851115611703565b61059f86856115f6565b956105a98761173e565b966105b687519889611139565b8088526105c5601f199161173e565b0160209036828a0137815b8681106105e4578751806101fa8b82611060565b6105ed816113b6565b9054906105fa85846115f6565b918b518310156106425760039190911b1c6001600160a01b031660059190911b8a01830152600019811461062f5789016105d0565b5050634e487b7160e01b83525060119052fd5b634e487b7160e01b8852603287528888fd5b835162461bcd60e51b81526020818801526022818401527f53544152545f494e4445585f475245415445525f5448414e5f454e445f494e4460448201526108ab60f31b6064820152608490fd5b5091346106e45760203660031901126106e457506106ce602092356106c96001548210611703565b6113b6565b905491519160018060a01b039160031b1c168152f35b80fd5b5050346101fe57816003193601126101fe576020906001549051908152f35b5050346101fe57816003193601126101fe57905490516001600160a01b039091168152602090f35b50903461017d5761073e36611208565b936107476112a4565b5060018060a01b03938481541695828551809863119f099160e01b8252818061077b6020998a8984015260248301906110e2565b03915afa968715610add578397610ac1575b50338352600284526107a3858420541515611485565b3383526003918285526001976107d16107bf8a898820016114c7565b8781519101208251888401201461156d565b3385528386526107e56002888720016114c7565b86815191012083518785012014610a8c573385528386528887862001815167ffffffffffffffff92838211610a795781906108208454611323565b601f8111610a4b575b508990601f83116001146109e45789926109d9575b505060001982881b1c1916908b1b1790555b3385528386526002878620019183519182116109c657506108718254611323565b601f811161098d575b5085601f821160011461092057946101fa99946101ec979461090b94848b9560029a8691610915575b5060001982861b1c191690891b1790555b7f52d5d029191f3432a61da6b4abc8709ff24d4b1b39959556bba708cf8f93e5c38451878152806108e933948a8301906110e2565b0390a2338252845220928651976108ff89611107565b845416885283016114c7565b90860152016114c7565b9050830151386108a3565b82865286862090601f198316875b81811061097857509461090b948c8560029a956101fa9f9a958e986101ec9e9b10610960575b5050811b0190556108b4565b85015160001983881b60f8161c191690553880610954565b868301518455928c019291890191890161092e565b6109b690838752878720601f840160051c8101918985106109bc575b601f0160051c019061135d565b3861087a565b90915081906109a9565b634e487b7160e01b865260419052602485fd5b01519050388061083e565b848a528a8a208e94509190601f1984168b5b8d828210610a2c5750508411610a14575b505050811b019055610850565b0151600019838a1b60f8161c19169055388080610a07565b91929395968291958786015181550195019301908f95949392916109f6565b610a7390858b528b8b20601f850160051c8101918d86106109bc57601f0160051c019061135d565b38610829565b634e487b7160e01b885260418552602488fd5b865162461bcd60e51b8152808301879052600f60248201526e53414d455f5055424c49435f4b455960881b6044820152606490fd5b610ad69197503d8085833e6105228183611139565b953861078d565b85513d85823e3d90fd5b83346106e457806003193601126106e457610b0061124c565b80546001600160a01b03198116825581906001600160a01b03167f8be0079c531659141344cd1fd0a4f28419497f9722a3daafe3b4186f6b6457e08280a380f35b5050346101fe5760203660031901126101fe5760209181906001600160a01b03610b696110a4565b16815260028452205415159051908152f35b50903461017d578060031936011261017d5767ffffffffffffffff8235818111610f8b57610bac9036908501611177565b6001600160a01b036024358181169290839003610f8757918693918697610bfd94610bd56112a4565b50828954168851808098819463119f099160e01b835260209e8f9084015260248301906110e2565b03915afa938415610f7d578594610f61575b5033855260028852610c25868620541515611485565b338552600392838952600194610c53610c41878a8a20016114c7565b8b815191012082518c8401201461156d565b338752848a528383898920541614610f2b5783875260028a52610c798888205415611374565b338752848a5260028888200198610ca389519a610c958c611107565b868c528c8c019384526114c7565b93898b01948552858952868c52898920908b51166bffffffffffffffffffffffff60a01b82541617815587810192519283518581116104fa57908a92918e610ceb8354611323565b96601f97888111610eff575b5081888411600114610e8e5750600295919083610e83575b5050600019828c1b1c1916908b1b1790555b01935190815193841161044c5750610d398454611323565b8b838211610e56575b50508a918311600114610de7579360029693838997946101fa9d94610dcc98610dd29c92610ddc575b505060001982871b1c191690861b1790555b610d8681611403565b5088519081527f524387b6c7262c90f5781025bfe7e5af5a981ee878053ffa078b842d32c8ad84823392a2610dba33611619565b503385525285832092835582016115ad565b016115ad565b51918291826111be565b015190503880610d6b565b8388528a88209190601f198416895b818110610e41575097846101fa9d94610dcc9894839894610dd29d9b9860029d10610e29575b505050811b019055610d7d565b015160001983891b60f8161c19169055388080610e1c565b82840151855593890193928d01928d01610df6565b610e7c91868b5284828c209181880160051c8301938810610443570160051c019061135d565b388b610d42565b015190503880610d0f565b84875280872091968e949391601f19851691905b828210610edb575050968360029810610ec3575b505050811b019055610d21565b0151600019838e1b60f8161c19169055388080610eb6565b83968a958294958394989a9b9c0151815501960194018f9593989796949291610ea2565b610f25908588528388208a80870160051c820192868810610443570160051c019061135d565b38610cf7565b875162461bcd60e51b8152808a018b9052601060248201526f53414d455f45564d5f4144445245535360801b6044820152606490fd5b610f769194503d8087833e6105228183611139565b9238610c0f565b86513d87823e3d90fd5b8680fd5b8480fd5b5050346101fe5760203660031901126101fe576101fa91610fce9060029083906001600160a01b03610fbf6110a4565b168152600360205220016114c7565b90519182916020835260208301906110e2565b8490843461017d578260031936011261017d57600180548084528185526020808501957fb10e2d527612073b26eecdfd717e6a320cf44b4afac2b0732d9fcbe2b7fa0cf69392915b82821061104b576101fa8787611041828c0383611139565b5191829182611060565b84548852968701969383019390830190611029565b6020908160408183019282815285518094520193019160005b828110611087575050505090565b83516001600160a01b031685529381019392810192600101611079565b600435906001600160a01b03821682036110ba57565b600080fd5b60005b8381106110d25750506000910152565b81810151838201526020016110c2565b906020916110fb815180928185528580860191016110bf565b601f01601f1916010190565b6060810190811067ffffffffffffffff82111761112357604052565b634e487b7160e01b600052604160045260246000fd5b90601f8019910116810190811067ffffffffffffffff82111761112357604052565b67ffffffffffffffff811161112357601f01601f191660200190565b81601f820112156110ba5780359061118e8261115b565b9261119c6040519485611139565b828452602083830101116110ba57816000926020809301838601378301015290565b90611205916020815260018060a01b03825116602082015260406111f0602084015160608385015260808401906110e2565b920151906060601f19828503019101526110e2565b90565b9060406003198301126110ba5767ffffffffffffffff6004358181116110ba578361123591600401611177565b926024359182116110ba5761120591600401611177565b6000546001600160a01b0316330361126057565b606460405162461bcd60e51b815260206004820152602060248201527f4f776e61626c653a2063616c6c6572206973206e6f7420746865206f776e65726044820152fd5b604051906112b182611107565b6060604083600081528260208201520152565b6020818303126110ba5780519067ffffffffffffffff82116110ba570181601f820112156110ba5780516112f78161115b565b926113056040519485611139565b818452602082840101116110ba5761120591602080850191016110bf565b90600182811c92168015611353575b602083101461133d57565b634e487b7160e01b600052602260045260246000fd5b91607f1691611332565b818110611368575050565b6000815560010161135d565b1561137b57565b60405162461bcd60e51b8152602060048201526013602482015272555345525f414c52454144595f45584953545360681b6044820152606490fd5b6001548110156113ed5760016000527fb10e2d527612073b26eecdfd717e6a320cf44b4afac2b0732d9fcbe2b7fa0cf60190600090565b634e487b7160e01b600052603260045260246000fd5b600081815260026020526040812054611480576001546801000000000000000081101561146c579082611458611441846001604096016001556113b6565b819391549060031b91821b91600019901b19161790565b905560015492815260026020522055600190565b634e487b7160e01b82526041600452602482fd5b905090565b1561148c57565b60405162461bcd60e51b81526020600482015260136024820152721554d15497d113d154d7d393d517d1561254d5606a1b6044820152606490fd5b90604051918260008254926114db84611323565b90818452600194858116908160001461154a5750600114611507575b505061150592500383611139565b565b9093915060005260209081600020936000915b818310611532575050611505935082010138806114f7565b8554888401850152948501948794509183019161151a565b91505061150594506020925060ff191682840152151560051b82010138806114f7565b1561157457565b60405162461bcd60e51b81526020600482015260116024820152700ac82aa98a8be9288be9a92a69a82a8869607b1b6044820152606490fd5b6115b78154611323565b90816115c1575050565b81601f600093116001146115d3575055565b9080839182526115f2601f60208420940160051c84016001850161135d565b5555565b9190820391821161160357565b634e487b7160e01b600052601160045260246000fd5b60008181526002602052604081205490919080156116fe57600019908082018181116116ea57600154908382019182116116d6578082036116a2575b505050600154801561168e5781019061166d826113b6565b909182549160031b1b19169055600155815260026020526040812055600190565b634e487b7160e01b84526031600452602484fd5b6116c06116b1611441936113b6565b90549060031b1c9283926113b6565b9055845260026020526040842055388080611655565b634e487b7160e01b86526011600452602486fd5b634e487b7160e01b85526011600452602485fd5b505090565b1561170a57565b60405162461bcd60e51b815260206004820152600c60248201526b4f55545f4f465f52414e474560a01b6044820152606490fd5b67ffffffffffffffff81116111235760051b6020019056fea264697066735822122090a6b1044e25578d0808f22f8170409d9c8cea01a7ba7d5e33c46721b833501664736f6c63430008130033","opcodes":"PUSH1 0x80 CALLVALUE PUSH2 0xA7 JUMPI PUSH1 0x1F PUSH2 0x184F CODESIZE DUP2 SWAP1 SUB SWAP2 DUP3 ADD PUSH1 0x1F NOT AND DUP4 ADD SWAP2 PUSH1 0x1 PUSH1 0x1 PUSH1 0x40 SHL SUB DUP4 GT DUP5 DUP5 LT OR PUSH2 0xAC JUMPI DUP1 DUP5 SWAP3 PUSH1 0x20 SWAP5 PUSH1 0x40 MSTORE DUP4 CODECOPY DUP2 ADD SUB SLT PUSH2 0xA7 JUMPI MLOAD PUSH1 0x1 PUSH1 0x1 PUSH1 0xA0 SHL SUB SWAP1 DUP2 DUP2 AND SWAP1 DUP2 SWAP1 SUB PUSH2 0xA7 JUMPI PUSH1 0x0 SLOAD PUSH1 0x1 DUP1 PUSH1 0xA0 SHL SUB NOT SWAP1 CALLER DUP3 DUP3 AND OR PUSH1 0x0 SSTORE PUSH1 0x40 MLOAD SWAP4 CALLER SWAP2 AND PUSH32 0x8BE0079C531659141344CD1FD0A4F28419497F9722A3DAAFE3B4186F6B6457E0 PUSH1 0x0 DUP1 LOG3 PUSH1 0x4 SLOAD AND OR PUSH1 0x4 SSTORE PUSH2 0x178C SWAP1 DUP2 PUSH2 0xC3 DUP3 CODECOPY RETURN JUMPDEST PUSH1 0x0 DUP1 REVERT JUMPDEST PUSH4 0x4E487B71 PUSH1 0xE0 SHL PUSH1 0x0 MSTORE PUSH1 0x41 PUSH1 0x4 MSTORE PUSH1 0x24 PUSH1 0x0 REVERT INVALID PUSH1 0x80 PUSH1 0x40 DUP2 DUP2 MSTORE PUSH1 0x4 DUP1 CALLDATASIZE LT ISZERO PUSH2 0x15 JUMPI PUSH1 0x0 DUP1 REVERT JUMPDEST PUSH1 0x0 SWAP3 DUP4 CALLDATALOAD PUSH1 0xE0 SHR SWAP1 DUP2 PUSH3 0xCE8E3E EQ PUSH2 0xFE1 JUMPI POP DUP1 PUSH4 0x11231FE0 EQ PUSH2 0xF8F JUMPI DUP1 PUSH4 0x470471EF EQ PUSH2 0xB7B JUMPI DUP1 PUSH4 0x48990FCC EQ PUSH2 0xB41 JUMPI DUP1 PUSH4 0x715018A6 EQ PUSH2 0xAE7 JUMPI DUP1 PUSH4 0x89991520 EQ PUSH2 0x72E JUMPI DUP1 PUSH4 0x8DA5CB5B EQ PUSH2 0x706 JUMPI DUP1 PUSH4 0xB5CB15F7 EQ PUSH2 0x6E7 JUMPI DUP1 PUSH4 0xC6E064AD EQ PUSH2 0x6A1 JUMPI DUP1 PUSH4 0xCF5CAA12 EQ PUSH2 0x562 JUMPI DUP1 PUSH4 0xCF695688 EQ PUSH2 0x53B JUMPI DUP1 PUSH4 0xEBC4BF84 EQ PUSH2 0x202 JUMPI DUP1 PUSH4 0xEF2A8764 EQ PUSH2 0x181 JUMPI PUSH4 0xF2FDE38B EQ PUSH2 0xBC JUMPI PUSH1 0x0 DUP1 REVERT JUMPDEST CALLVALUE PUSH2 0x17D JUMPI PUSH1 0x20 CALLDATASIZE PUSH1 0x3 NOT ADD SLT PUSH2 0x17D JUMPI PUSH2 0xD5 PUSH2 0x10A4 JUMP JUMPDEST SWAP1 PUSH2 0xDE PUSH2 0x124C JUMP JUMPDEST PUSH1 0x1 PUSH1 0x1 PUSH1 0xA0 SHL SUB SWAP2 DUP3 AND SWAP3 DUP4 ISZERO PUSH2 0x12B JUMPI POP POP DUP3 SLOAD PUSH1 0x1 PUSH1 0x1 PUSH1 0xA0 SHL SUB NOT DUP2 AND DUP4 OR DUP5 SSTORE AND PUSH32 0x8BE0079C531659141344CD1FD0A4F28419497F9722A3DAAFE3B4186F6B6457E0 DUP4 DUP1 LOG3 DUP1 RETURN JUMPDEST SWAP1 PUSH1 0x20 PUSH1 0x84 SWAP3 MLOAD SWAP2 PUSH3 0x461BCD PUSH1 0xE5 SHL DUP4 MSTORE DUP3 ADD MSTORE PUSH1 0x26 PUSH1 0x24 DUP3 ADD MSTORE PUSH32 0x4F776E61626C653A206E6577206F776E657220697320746865207A65726F2061 PUSH1 0x44 DUP3 ADD MSTORE PUSH6 0x646472657373 PUSH1 0xD0 SHL PUSH1 0x64 DUP3 ADD MSTORE REVERT JUMPDEST DUP3 DUP1 REVERT JUMPDEST POP POP CALLVALUE PUSH2 0x1FE JUMPI PUSH1 0x20 CALLDATASIZE PUSH1 0x3 NOT ADD SLT PUSH2 0x1FE JUMPI SWAP1 DUP2 PUSH2 0x1EC PUSH1 0x2 PUSH2 0x1FA SWAP5 PUSH2 0x1A7 PUSH2 0x10A4 JUMP JUMPDEST SWAP5 PUSH2 0x1B0 PUSH2 0x12A4 JUMP JUMPDEST POP PUSH1 0x1 PUSH1 0x1 PUSH1 0xA0 SHL SUB SWAP6 DUP7 AND DUP2 MSTORE PUSH1 0x3 PUSH1 0x20 MSTORE KECCAK256 DUP4 MLOAD SWAP5 PUSH2 0x1D0 DUP7 PUSH2 0x1107 JUMP JUMPDEST DUP2 SLOAD AND DUP6 MSTORE PUSH2 0x1E1 PUSH1 0x1 DUP3 ADD PUSH2 0x14C7 JUMP JUMPDEST PUSH1 0x20 DUP7 ADD MSTORE ADD PUSH2 0x14C7 JUMP JUMPDEST DUP2 DUP4 ADD MSTORE MLOAD SWAP2 DUP3 SWAP2 DUP3 PUSH2 0x11BE JUMP JUMPDEST SUB SWAP1 RETURN JUMPDEST POP DUP1 REVERT JUMPDEST POP SWAP2 SWAP1 CALLVALUE PUSH2 0x1FE JUMPI PUSH2 0x213 CALLDATASIZE PUSH2 0x1208 JUMP JUMPDEST PUSH2 0x21B PUSH2 0x12A4 JUMP JUMPDEST POP PUSH1 0x1 DUP1 PUSH1 0xA0 SHL SUB SWAP5 DUP6 DUP2 SLOAD AND SWAP1 DUP6 DUP6 MLOAD DUP1 SWAP4 PUSH4 0x119F0991 PUSH1 0xE0 SHL DUP3 MSTORE DUP2 DUP1 PUSH2 0x24F PUSH1 0x20 SWAP10 DUP11 DUP9 DUP5 ADD MSTORE PUSH1 0x24 DUP4 ADD SWAP1 PUSH2 0x10E2 JUMP JUMPDEST SUB SWAP2 GAS STATICCALL SWAP2 DUP3 ISZERO PUSH2 0x531 JUMPI DUP7 SWAP3 PUSH2 0x50D JUMPI JUMPDEST POP DUP5 MLOAD SWAP7 PUSH2 0x26E DUP9 PUSH2 0x1107 JUMP JUMPDEST CALLER DUP9 MSTORE DUP5 DUP9 ADD SWAP3 DUP4 MSTORE DUP6 DUP9 ADD SWAP4 DUP5 MSTORE CALLER DUP8 MSTORE PUSH1 0x3 DUP6 MSTORE DUP6 DUP8 KECCAK256 SWAP1 DUP9 MLOAD AND PUSH12 0xFFFFFFFFFFFFFFFFFFFFFFFF PUSH1 0xA0 SHL DUP3 SLOAD AND OR DUP2 SSTORE PUSH1 0x1 SWAP2 DUP3 DUP3 ADD SWAP4 MLOAD DUP1 MLOAD SWAP3 PUSH8 0xFFFFFFFFFFFFFFFF SWAP6 DUP7 DUP6 GT PUSH2 0x4FA JUMPI PUSH2 0x2C7 DUP2 SLOAD PUSH2 0x1323 JUMP JUMPDEST SWAP5 DUP12 DUP11 PUSH1 0x1F SWAP8 DUP9 DUP1 DUP3 GT PUSH2 0x4CD JUMPI JUMPDEST POP POP POP POP DUP10 DUP13 DUP8 DUP4 GT PUSH1 0x1 EQ PUSH2 0x46A JUMPI SWAP1 PUSH1 0x2 SWAP6 DUP4 PUSH2 0x45F JUMPI JUMPDEST POP POP PUSH1 0x0 NOT PUSH1 0x3 DUP4 SWAP1 SHL SHR NOT AND SWAP1 DUP8 SHL OR SWAP1 SSTORE JUMPDEST ADD SWAP5 MLOAD SWAP1 DUP2 MLOAD SWAP5 DUP6 GT PUSH2 0x44C JUMPI POP PUSH2 0x31C DUP6 SLOAD PUSH2 0x1323 JUMP JUMPDEST DUP3 DUP2 GT PUSH2 0x416 JUMPI JUMPDEST POP DUP6 SWAP2 DUP5 GT PUSH1 0x1 EQ PUSH2 0x3AC JUMPI SWAP3 DUP1 PUSH1 0x2 SWAP6 SWAP4 DUP2 SWAP4 PUSH2 0x1FA SWAP10 SWAP9 SWAP7 DUP12 SWAP5 PUSH2 0x3A1 JUMPI JUMPDEST POP POP SHL SWAP2 PUSH1 0x0 NOT SWAP1 PUSH1 0x3 SHL SHR NOT AND OR SWAP1 SSTORE JUMPDEST CALLER DUP6 MSTORE MSTORE PUSH2 0x368 DUP2 DUP5 KECCAK256 SLOAD ISZERO PUSH2 0x1374 JUMP JUMPDEST PUSH2 0x371 CALLER PUSH2 0x1403 JUMP JUMPDEST POP MLOAD SWAP3 DUP4 SWAP3 PUSH32 0x54DB7A5CB4735E1AAC1F53DB512D3390390BB6637BD30AD4BF9FC98667D9B9B9 CALLER SWAP2 DUP1 LOG2 DUP3 PUSH2 0x11BE JUMP JUMPDEST ADD MLOAD SWAP3 POP CODESIZE DUP1 PUSH2 0x345 JUMP JUMPDEST DUP5 DUP9 MSTORE DUP6 DUP9 KECCAK256 SWAP3 SWAP4 SWAP3 SWAP2 SWAP1 PUSH1 0x1F NOT DUP5 AND DUP10 JUMPDEST DUP2 DUP2 LT PUSH2 0x401 JUMPI POP SWAP2 PUSH2 0x1FA SWAP9 SWAP8 SWAP6 SWAP4 SWAP2 DUP6 PUSH1 0x2 SWAP9 SWAP7 SWAP5 LT PUSH2 0x3E8 JUMPI JUMPDEST POP POP POP DUP2 SHL ADD SWAP1 SSTORE PUSH2 0x357 JUMP JUMPDEST ADD MLOAD PUSH1 0x0 NOT PUSH1 0xF8 DUP5 PUSH1 0x3 SHL AND SHR NOT AND SWAP1 SSTORE CODESIZE DUP1 DUP1 PUSH2 0x3DB JUMP JUMPDEST DUP3 DUP5 ADD MLOAD DUP6 SSTORE SWAP4 DUP7 ADD SWAP4 SWAP3 DUP9 ADD SWAP3 DUP9 ADD PUSH2 0x3BE JUMP JUMPDEST PUSH2 0x43D SWAP1 DUP7 DUP11 MSTORE DUP8 DUP11 KECCAK256 DUP5 DUP1 DUP9 ADD PUSH1 0x5 SHR DUP3 ADD SWAP3 DUP11 DUP10 LT PUSH2 0x443 JUMPI JUMPDEST ADD PUSH1 0x5 SHR ADD SWAP1 PUSH2 0x135D JUMP JUMPDEST CODESIZE PUSH2 0x324 JUMP JUMPDEST SWAP3 POP DUP2 SWAP3 PUSH2 0x432 JUMP JUMPDEST PUSH4 0x4E487B71 PUSH1 0xE0 SHL DUP10 MSTORE PUSH1 0x41 SWAP1 MSTORE PUSH1 0x24 DUP9 REVERT JUMPDEST ADD MLOAD SWAP1 POP CODESIZE DUP1 PUSH2 0x2F0 JUMP JUMPDEST DUP9 SWAP3 SWAP2 PUSH1 0x1F NOT DUP4 AND DUP6 DUP4 MSTORE DUP14 DUP1 DUP5 KECCAK256 SWAP4 SWAP1 JUMPDEST DUP3 DUP3 LT PUSH2 0x4B6 JUMPI POP POP SWAP7 DUP4 PUSH1 0x2 SWAP9 LT PUSH2 0x49D JUMPI JUMPDEST POP POP POP DUP2 SHL ADD SWAP1 SSTORE PUSH2 0x304 JUMP JUMPDEST ADD MLOAD PUSH1 0x0 NOT PUSH1 0xF8 DUP5 PUSH1 0x3 SHL AND SHR NOT AND SWAP1 SSTORE CODESIZE DUP1 DUP1 PUSH2 0x490 JUMP JUMPDEST DUP4 DUP11 ADD MLOAD DUP6 SSTORE DUP13 SWAP7 SWAP1 SWAP5 ADD SWAP4 SWAP3 DUP4 ADD SWAP3 ADD DUP15 PUSH2 0x47C JUMP JUMPDEST DUP3 DUP5 DUP8 PUSH2 0x4F1 SWAP7 MSTORE KECCAK256 SWAP2 DUP2 DUP7 ADD PUSH1 0x5 SHR DUP4 ADD SWAP4 DUP7 LT PUSH2 0x443 JUMPI ADD PUSH1 0x5 SHR ADD SWAP1 PUSH2 0x135D JUMP JUMPDEST DUP12 DUP11 CODESIZE DUP9 PUSH2 0x2D6 JUMP JUMPDEST PUSH4 0x4E487B71 PUSH1 0xE0 SHL DUP12 MSTORE PUSH1 0x41 DUP5 MSTORE PUSH1 0x24 DUP12 REVERT JUMPDEST PUSH2 0x52A SWAP2 SWAP3 POP RETURNDATASIZE DUP1 DUP9 DUP4 RETURNDATACOPY PUSH2 0x522 DUP2 DUP4 PUSH2 0x1139 JUMP JUMPDEST DUP2 ADD SWAP1 PUSH2 0x12C4 JUMP JUMPDEST SWAP1 CODESIZE PUSH2 0x261 JUMP JUMPDEST DUP6 MLOAD RETURNDATASIZE DUP9 DUP3 RETURNDATACOPY RETURNDATASIZE SWAP1 REVERT JUMPDEST POP CALLVALUE PUSH2 0x17D JUMPI DUP3 PUSH1 0x3 NOT CALLDATASIZE ADD SLT PUSH2 0x17D JUMPI SLOAD SWAP1 MLOAD PUSH1 0x1 PUSH1 0x1 PUSH1 0xA0 SHL SUB SWAP1 SWAP2 AND DUP2 MSTORE PUSH1 0x20 SWAP2 POP RETURN JUMPDEST POP SWAP2 SWAP1 CALLVALUE PUSH2 0x1FE JUMPI DUP1 PUSH1 0x3 NOT CALLDATASIZE ADD SLT PUSH2 0x1FE JUMPI DUP3 CALLDATALOAD SWAP2 PUSH1 0x24 DUP1 CALLDATALOAD SWAP2 DUP3 DUP6 LT ISZERO PUSH2 0x654 JUMPI PUSH1 0x1 SWAP6 PUSH2 0x595 DUP8 SLOAD DUP6 GT ISZERO PUSH2 0x1703 JUMP JUMPDEST PUSH2 0x59F DUP7 DUP6 PUSH2 0x15F6 JUMP JUMPDEST SWAP6 PUSH2 0x5A9 DUP8 PUSH2 0x173E JUMP JUMPDEST SWAP7 PUSH2 0x5B6 DUP8 MLOAD SWAP9 DUP10 PUSH2 0x1139 JUMP JUMPDEST DUP1 DUP9 MSTORE PUSH2 0x5C5 PUSH1 0x1F NOT SWAP2 PUSH2 0x173E JUMP JUMPDEST ADD PUSH1 0x20 SWAP1 CALLDATASIZE DUP3 DUP11 ADD CALLDATACOPY DUP2 JUMPDEST DUP7 DUP2 LT PUSH2 0x5E4 JUMPI DUP8 MLOAD DUP1 PUSH2 0x1FA DUP12 DUP3 PUSH2 0x1060 JUMP JUMPDEST PUSH2 0x5ED DUP2 PUSH2 0x13B6 JUMP JUMPDEST SWAP1 SLOAD SWAP1 PUSH2 0x5FA DUP6 DUP5 PUSH2 0x15F6 JUMP JUMPDEST SWAP2 DUP12 MLOAD DUP4 LT ISZERO PUSH2 0x642 JUMPI PUSH1 0x3 SWAP2 SWAP1 SWAP2 SHL SHR PUSH1 0x1 PUSH1 0x1 PUSH1 0xA0 SHL SUB AND PUSH1 0x5 SWAP2 SWAP1 SWAP2 SHL DUP11 ADD DUP4 ADD MSTORE PUSH1 0x0 NOT DUP2 EQ PUSH2 0x62F JUMPI DUP10 ADD PUSH2 0x5D0 JUMP JUMPDEST POP POP PUSH4 0x4E487B71 PUSH1 0xE0 SHL DUP4 MSTORE POP PUSH1 0x11 SWAP1 MSTORE REVERT JUMPDEST PUSH4 0x4E487B71 PUSH1 0xE0 SHL DUP9 MSTORE PUSH1 0x32 DUP8 MSTORE DUP9 DUP9 REVERT JUMPDEST DUP4 MLOAD PUSH3 0x461BCD PUSH1 0xE5 SHL DUP2 MSTORE PUSH1 0x20 DUP2 DUP9 ADD MSTORE PUSH1 0x22 DUP2 DUP5 ADD MSTORE PUSH32 0x53544152545F494E4445585F475245415445525F5448414E5F454E445F494E44 PUSH1 0x44 DUP3 ADD MSTORE PUSH2 0x8AB PUSH1 0xF3 SHL PUSH1 0x64 DUP3 ADD MSTORE PUSH1 0x84 SWAP1 REVERT JUMPDEST POP SWAP2 CALLVALUE PUSH2 0x6E4 JUMPI PUSH1 0x20 CALLDATASIZE PUSH1 0x3 NOT ADD SLT PUSH2 0x6E4 JUMPI POP PUSH2 0x6CE PUSH1 0x20 SWAP3 CALLDATALOAD PUSH2 0x6C9 PUSH1 0x1 SLOAD DUP3 LT PUSH2 0x1703 JUMP JUMPDEST PUSH2 0x13B6 JUMP JUMPDEST SWAP1 SLOAD SWAP2 MLOAD SWAP2 PUSH1 0x1 DUP1 PUSH1 0xA0 SHL SUB SWAP2 PUSH1 0x3 SHL SHR AND DUP2 MSTORE RETURN JUMPDEST DUP1 REVERT JUMPDEST POP POP CALLVALUE PUSH2 0x1FE JUMPI DUP2 PUSH1 0x3 NOT CALLDATASIZE ADD SLT PUSH2 0x1FE JUMPI PUSH1 0x20 SWAP1 PUSH1 0x1 SLOAD SWAP1 MLOAD SWAP1 DUP2 MSTORE RETURN JUMPDEST POP POP CALLVALUE PUSH2 0x1FE JUMPI DUP2 PUSH1 0x3 NOT CALLDATASIZE ADD SLT PUSH2 0x1FE JUMPI SWAP1 SLOAD SWAP1 MLOAD PUSH1 0x1 PUSH1 0x1 PUSH1 0xA0 SHL SUB SWAP1 SWAP2 AND DUP2 MSTORE PUSH1 0x20 SWAP1 RETURN JUMPDEST POP SWAP1 CALLVALUE PUSH2 0x17D JUMPI PUSH2 0x73E CALLDATASIZE PUSH2 0x1208 JUMP JUMPDEST SWAP4 PUSH2 0x747 PUSH2 0x12A4 JUMP JUMPDEST POP PUSH1 0x1 DUP1 PUSH1 0xA0 SHL SUB SWAP4 DUP5 DUP2 SLOAD AND SWAP6 DUP3 DUP6 MLOAD DUP1 SWAP9 PUSH4 0x119F0991 PUSH1 0xE0 SHL DUP3 MSTORE DUP2 DUP1 PUSH2 0x77B PUSH1 0x20 SWAP10 DUP11 DUP10 DUP5 ADD MSTORE PUSH1 0x24 DUP4 ADD SWAP1 PUSH2 0x10E2 JUMP JUMPDEST SUB SWAP2 GAS STATICCALL SWAP7 DUP8 ISZERO PUSH2 0xADD JUMPI DUP4 SWAP8 PUSH2 0xAC1 JUMPI JUMPDEST POP CALLER DUP4 MSTORE PUSH1 0x2 DUP5 MSTORE PUSH2 0x7A3 DUP6 DUP5 KECCAK256 SLOAD ISZERO ISZERO PUSH2 0x1485 JUMP JUMPDEST CALLER DUP4 MSTORE PUSH1 0x3 SWAP2 DUP3 DUP6 MSTORE PUSH1 0x1 SWAP8 PUSH2 0x7D1 PUSH2 0x7BF DUP11 DUP10 DUP9 KECCAK256 ADD PUSH2 0x14C7 JUMP JUMPDEST DUP8 DUP2 MLOAD SWAP2 ADD KECCAK256 DUP3 MLOAD DUP9 DUP5 ADD KECCAK256 EQ PUSH2 0x156D JUMP JUMPDEST CALLER DUP6 MSTORE DUP4 DUP7 MSTORE PUSH2 0x7E5 PUSH1 0x2 DUP9 DUP8 KECCAK256 ADD PUSH2 0x14C7 JUMP JUMPDEST DUP7 DUP2 MLOAD SWAP2 ADD KECCAK256 DUP4 MLOAD DUP8 DUP6 ADD KECCAK256 EQ PUSH2 0xA8C JUMPI CALLER DUP6 MSTORE DUP4 DUP7 MSTORE DUP9 DUP8 DUP7 KECCAK256 ADD DUP2 MLOAD PUSH8 0xFFFFFFFFFFFFFFFF SWAP3 DUP4 DUP3 GT PUSH2 0xA79 JUMPI DUP2 SWAP1 PUSH2 0x820 DUP5 SLOAD PUSH2 0x1323 JUMP JUMPDEST PUSH1 0x1F DUP2 GT PUSH2 0xA4B JUMPI JUMPDEST POP DUP10 SWAP1 PUSH1 0x1F DUP4 GT PUSH1 0x1 EQ PUSH2 0x9E4 JUMPI DUP10 SWAP3 PUSH2 0x9D9 JUMPI JUMPDEST POP POP PUSH1 0x0 NOT DUP3 DUP9 SHL SHR NOT AND SWAP1 DUP12 SHL OR SWAP1 SSTORE JUMPDEST CALLER DUP6 MSTORE DUP4 DUP7 MSTORE PUSH1 0x2 DUP8 DUP7 KECCAK256 ADD SWAP2 DUP4 MLOAD SWAP2 DUP3 GT PUSH2 0x9C6 JUMPI POP PUSH2 0x871 DUP3 SLOAD PUSH2 0x1323 JUMP JUMPDEST PUSH1 0x1F DUP2 GT PUSH2 0x98D JUMPI JUMPDEST POP DUP6 PUSH1 0x1F DUP3 GT PUSH1 0x1 EQ PUSH2 0x920 JUMPI SWAP5 PUSH2 0x1FA SWAP10 SWAP5 PUSH2 0x1EC SWAP8 SWAP5 PUSH2 0x90B SWAP5 DUP5 DUP12 SWAP6 PUSH1 0x2 SWAP11 DUP7 SWAP2 PUSH2 0x915 JUMPI JUMPDEST POP PUSH1 0x0 NOT DUP3 DUP7 SHL SHR NOT AND SWAP1 DUP10 SHL OR SWAP1 SSTORE JUMPDEST PUSH32 0x52D5D029191F3432A61DA6B4ABC8709FF24D4B1B39959556BBA708CF8F93E5C3 DUP5 MLOAD DUP8 DUP2 MSTORE DUP1 PUSH2 0x8E9 CALLER SWAP5 DUP11 DUP4 ADD SWAP1 PUSH2 0x10E2 JUMP JUMPDEST SUB SWAP1 LOG2 CALLER DUP3 MSTORE DUP5 MSTORE KECCAK256 SWAP3 DUP7 MLOAD SWAP8 PUSH2 0x8FF DUP10 PUSH2 0x1107 JUMP JUMPDEST DUP5 SLOAD AND DUP9 MSTORE DUP4 ADD PUSH2 0x14C7 JUMP JUMPDEST SWAP1 DUP7 ADD MSTORE ADD PUSH2 0x14C7 JUMP JUMPDEST SWAP1 POP DUP4 ADD MLOAD CODESIZE PUSH2 0x8A3 JUMP JUMPDEST DUP3 DUP7 MSTORE DUP7 DUP7 KECCAK256 SWAP1 PUSH1 0x1F NOT DUP4 AND DUP8 JUMPDEST DUP2 DUP2 LT PUSH2 0x978 JUMPI POP SWAP5 PUSH2 0x90B SWAP5 DUP13 DUP6 PUSH1 0x2 SWAP11 SWAP6 PUSH2 0x1FA SWAP16 SWAP11 SWAP6 DUP15 SWAP9 PUSH2 0x1EC SWAP15 SWAP12 LT PUSH2 0x960 JUMPI JUMPDEST POP POP DUP2 SHL ADD SWAP1 SSTORE PUSH2 0x8B4 JUMP JUMPDEST DUP6 ADD MLOAD PUSH1 0x0 NOT DUP4 DUP9 SHL PUSH1 0xF8 AND SHR NOT AND SWAP1 SSTORE CODESIZE DUP1 PUSH2 0x954 JUMP JUMPDEST DUP7 DUP4 ADD MLOAD DUP5 SSTORE SWAP3 DUP13 ADD SWAP3 SWAP2 DUP10 ADD SWAP2 DUP10 ADD PUSH2 0x92E JUMP JUMPDEST PUSH2 0x9B6 SWAP1 DUP4 DUP8 MSTORE DUP8 DUP8 KECCAK256 PUSH1 0x1F DUP5 ADD PUSH1 0x5 SHR DUP2 ADD SWAP2 DUP10 DUP6 LT PUSH2 0x9BC JUMPI JUMPDEST PUSH1 0x1F ADD PUSH1 0x5 SHR ADD SWAP1 PUSH2 0x135D JUMP JUMPDEST CODESIZE PUSH2 0x87A JUMP JUMPDEST SWAP1 SWAP2 POP DUP2 SWAP1 PUSH2 0x9A9 JUMP JUMPDEST PUSH4 0x4E487B71 PUSH1 0xE0 SHL DUP7 MSTORE PUSH1 0x41 SWAP1 MSTORE PUSH1 0x24 DUP6 REVERT JUMPDEST ADD MLOAD SWAP1 POP CODESIZE DUP1 PUSH2 0x83E JUMP JUMPDEST DUP5 DUP11 MSTORE DUP11 DUP11 KECCAK256 DUP15 SWAP5 POP SWAP2 SWAP1 PUSH1 0x1F NOT DUP5 AND DUP12 JUMPDEST DUP14 DUP3 DUP3 LT PUSH2 0xA2C JUMPI POP POP DUP5 GT PUSH2 0xA14 JUMPI JUMPDEST POP POP POP DUP2 SHL ADD SWAP1 SSTORE PUSH2 0x850 JUMP JUMPDEST ADD MLOAD PUSH1 0x0 NOT DUP4 DUP11 SHL PUSH1 0xF8 AND SHR NOT AND SWAP1 SSTORE CODESIZE DUP1 DUP1 PUSH2 0xA07 JUMP JUMPDEST SWAP2 SWAP3 SWAP4 SWAP6 SWAP7 DUP3 SWAP2 SWAP6 DUP8 DUP7 ADD MLOAD DUP2 SSTORE ADD SWAP6 ADD SWAP4 ADD SWAP1 DUP16 SWAP6 SWAP5 SWAP4 SWAP3 SWAP2 PUSH2 0x9F6 JUMP JUMPDEST PUSH2 0xA73 SWAP1 DUP6 DUP12 MSTORE DUP12 DUP12 KECCAK256 PUSH1 0x1F DUP6 ADD PUSH1 0x5 SHR DUP2 ADD SWAP2 DUP14 DUP7 LT PUSH2 0x9BC JUMPI PUSH1 0x1F ADD PUSH1 0x5 SHR ADD SWAP1 PUSH2 0x135D JUMP JUMPDEST CODESIZE PUSH2 0x829 JUMP JUMPDEST PUSH4 0x4E487B71 PUSH1 0xE0 SHL DUP9 MSTORE PUSH1 0x41 DUP6 MSTORE PUSH1 0x24 DUP9 REVERT JUMPDEST DUP7 MLOAD PUSH3 0x461BCD PUSH1 0xE5 SHL DUP2 MSTORE DUP1 DUP4 ADD DUP8 SWAP1 MSTORE PUSH1 0xF PUSH1 0x24 DUP3 ADD MSTORE PUSH15 0x53414D455F5055424C49435F4B4559 PUSH1 0x88 SHL PUSH1 0x44 DUP3 ADD MSTORE PUSH1 0x64 SWAP1 REVERT JUMPDEST PUSH2 0xAD6 SWAP2 SWAP8 POP RETURNDATASIZE DUP1 DUP6 DUP4 RETURNDATACOPY PUSH2 0x522 DUP2 DUP4 PUSH2 0x1139 JUMP JUMPDEST SWAP6 CODESIZE PUSH2 0x78D JUMP JUMPDEST DUP6 MLOAD RETURNDATASIZE DUP6 DUP3 RETURNDATACOPY RETURNDATASIZE SWAP1 REVERT JUMPDEST DUP4 CALLVALUE PUSH2 0x6E4 JUMPI DUP1 PUSH1 0x3 NOT CALLDATASIZE ADD SLT PUSH2 0x6E4 JUMPI PUSH2 0xB00 PUSH2 0x124C JUMP JUMPDEST DUP1 SLOAD PUSH1 0x1 PUSH1 0x1 PUSH1 0xA0 SHL SUB NOT DUP2 AND DUP3 SSTORE DUP2 SWAP1 PUSH1 0x1 PUSH1 0x1 PUSH1 0xA0 SHL SUB AND PUSH32 0x8BE0079C531659141344CD1FD0A4F28419497F9722A3DAAFE3B4186F6B6457E0 DUP3 DUP1 LOG3 DUP1 RETURN JUMPDEST POP POP CALLVALUE PUSH2 0x1FE JUMPI PUSH1 0x20 CALLDATASIZE PUSH1 0x3 NOT ADD SLT PUSH2 0x1FE JUMPI PUSH1 0x20 SWAP2 DUP2 SWAP1 PUSH1 0x1 PUSH1 0x1 PUSH1 0xA0 SHL SUB PUSH2 0xB69 PUSH2 0x10A4 JUMP JUMPDEST AND DUP2 MSTORE PUSH1 0x2 DUP5 MSTORE KECCAK256 SLOAD ISZERO ISZERO SWAP1 MLOAD SWAP1 DUP2 MSTORE RETURN JUMPDEST POP SWAP1 CALLVALUE PUSH2 0x17D JUMPI DUP1 PUSH1 0x3 NOT CALLDATASIZE ADD SLT PUSH2 0x17D JUMPI PUSH8 0xFFFFFFFFFFFFFFFF DUP3 CALLDATALOAD DUP2 DUP2 GT PUSH2 0xF8B JUMPI PUSH2 0xBAC SWAP1 CALLDATASIZE SWAP1 DUP6 ADD PUSH2 0x1177 JUMP JUMPDEST PUSH1 0x1 PUSH1 0x1 PUSH1 0xA0 SHL SUB PUSH1 0x24 CALLDATALOAD DUP2 DUP2 AND SWAP3 SWAP1 DUP4 SWAP1 SUB PUSH2 0xF87 JUMPI SWAP2 DUP7 SWAP4 SWAP2 DUP7 SWAP8 PUSH2 0xBFD SWAP5 PUSH2 0xBD5 PUSH2 0x12A4 JUMP JUMPDEST POP DUP3 DUP10 SLOAD AND DUP9 MLOAD DUP1 DUP1 SWAP9 DUP2 SWAP5 PUSH4 0x119F0991 PUSH1 0xE0 SHL DUP4 MSTORE PUSH1 0x20 SWAP15 DUP16 SWAP1 DUP5 ADD MSTORE PUSH1 0x24 DUP4 ADD SWAP1 PUSH2 0x10E2 JUMP JUMPDEST SUB SWAP2 GAS STATICCALL SWAP4 DUP5 ISZERO PUSH2 0xF7D JUMPI DUP6 SWAP5 PUSH2 0xF61 JUMPI JUMPDEST POP CALLER DUP6 MSTORE PUSH1 0x2 DUP9 MSTORE PUSH2 0xC25 DUP7 DUP7 KECCAK256 SLOAD ISZERO ISZERO PUSH2 0x1485 JUMP JUMPDEST CALLER DUP6 MSTORE PUSH1 0x3 SWAP3 DUP4 DUP10 MSTORE PUSH1 0x1 SWAP5 PUSH2 0xC53 PUSH2 0xC41 DUP8 DUP11 DUP11 KECCAK256 ADD PUSH2 0x14C7 JUMP JUMPDEST DUP12 DUP2 MLOAD SWAP2 ADD KECCAK256 DUP3 MLOAD DUP13 DUP5 ADD KECCAK256 EQ PUSH2 0x156D JUMP JUMPDEST CALLER DUP8 MSTORE DUP5 DUP11 MSTORE DUP4 DUP4 DUP10 DUP10 KECCAK256 SLOAD AND EQ PUSH2 0xF2B JUMPI DUP4 DUP8 MSTORE PUSH1 0x2 DUP11 MSTORE PUSH2 0xC79 DUP9 DUP9 KECCAK256 SLOAD ISZERO PUSH2 0x1374 JUMP JUMPDEST CALLER DUP8 MSTORE DUP5 DUP11 MSTORE PUSH1 0x2 DUP9 DUP9 KECCAK256 ADD SWAP9 PUSH2 0xCA3 DUP10 MLOAD SWAP11 PUSH2 0xC95 DUP13 PUSH2 0x1107 JUMP JUMPDEST DUP7 DUP13 MSTORE DUP13 DUP13 ADD SWAP4 DUP5 MSTORE PUSH2 0x14C7 JUMP JUMPDEST SWAP4 DUP10 DUP12 ADD SWAP5 DUP6 MSTORE DUP6 DUP10 MSTORE DUP7 DUP13 MSTORE DUP10 DUP10 KECCAK256 SWAP1 DUP12 MLOAD AND PUSH12 0xFFFFFFFFFFFFFFFFFFFFFFFF PUSH1 0xA0 SHL DUP3 SLOAD AND OR DUP2 SSTORE DUP8 DUP2 ADD SWAP3 MLOAD SWAP3 DUP4 MLOAD DUP6 DUP2 GT PUSH2 0x4FA JUMPI SWAP1 DUP11 SWAP3 SWAP2 DUP15 PUSH2 0xCEB DUP4 SLOAD PUSH2 0x1323 JUMP JUMPDEST SWAP7 PUSH1 0x1F SWAP8 DUP9 DUP2 GT PUSH2 0xEFF JUMPI JUMPDEST POP DUP2 DUP9 DUP5 GT PUSH1 0x1 EQ PUSH2 0xE8E JUMPI POP PUSH1 0x2 SWAP6 SWAP2 SWAP1 DUP4 PUSH2 0xE83 JUMPI JUMPDEST POP POP PUSH1 0x0 NOT DUP3 DUP13 SHL SHR NOT AND SWAP1 DUP12 SHL OR SWAP1 SSTORE JUMPDEST ADD SWAP4 MLOAD SWAP1 DUP2 MLOAD SWAP4 DUP5 GT PUSH2 0x44C JUMPI POP PUSH2 0xD39 DUP5 SLOAD PUSH2 0x1323 JUMP JUMPDEST DUP12 DUP4 DUP3 GT PUSH2 0xE56 JUMPI JUMPDEST POP POP DUP11 SWAP2 DUP4 GT PUSH1 0x1 EQ PUSH2 0xDE7 JUMPI SWAP4 PUSH1 0x2 SWAP7 SWAP4 DUP4 DUP10 SWAP8 SWAP5 PUSH2 0x1FA SWAP14 SWAP5 PUSH2 0xDCC SWAP9 PUSH2 0xDD2 SWAP13 SWAP3 PUSH2 0xDDC JUMPI JUMPDEST POP POP PUSH1 0x0 NOT DUP3 DUP8 SHL SHR NOT AND SWAP1 DUP7 SHL OR SWAP1 SSTORE JUMPDEST PUSH2 0xD86 DUP2 PUSH2 0x1403 JUMP JUMPDEST POP DUP9 MLOAD SWAP1 DUP2 MSTORE PUSH32 0x524387B6C7262C90F5781025BFE7E5AF5A981EE878053FFA078B842D32C8AD84 DUP3 CALLER SWAP3 LOG2 PUSH2 0xDBA CALLER PUSH2 0x1619 JUMP JUMPDEST POP CALLER DUP6 MSTORE MSTORE DUP6 DUP4 KECCAK256 SWAP3 DUP4 SSTORE DUP3 ADD PUSH2 0x15AD JUMP JUMPDEST ADD PUSH2 0x15AD JUMP JUMPDEST MLOAD SWAP2 DUP3 SWAP2 DUP3 PUSH2 0x11BE JUMP JUMPDEST ADD MLOAD SWAP1 POP CODESIZE DUP1 PUSH2 0xD6B JUMP JUMPDEST DUP4 DUP9 MSTORE DUP11 DUP9 KECCAK256 SWAP2 SWAP1 PUSH1 0x1F NOT DUP5 AND DUP10 JUMPDEST DUP2 DUP2 LT PUSH2 0xE41 JUMPI POP SWAP8 DUP5 PUSH2 0x1FA SWAP14 SWAP5 PUSH2 0xDCC SWAP9 SWAP5 DUP4 SWAP9 SWAP5 PUSH2 0xDD2 SWAP14 SWAP12 SWAP9 PUSH1 0x2 SWAP14 LT PUSH2 0xE29 JUMPI JUMPDEST POP POP POP DUP2 SHL ADD SWAP1 SSTORE PUSH2 0xD7D JUMP JUMPDEST ADD MLOAD PUSH1 0x0 NOT DUP4 DUP10 SHL PUSH1 0xF8 AND SHR NOT AND SWAP1 SSTORE CODESIZE DUP1 DUP1 PUSH2 0xE1C JUMP JUMPDEST DUP3 DUP5 ADD MLOAD DUP6 SSTORE SWAP4 DUP10 ADD SWAP4 SWAP3 DUP14 ADD SWAP3 DUP14 ADD PUSH2 0xDF6 JUMP JUMPDEST PUSH2 0xE7C SWAP2 DUP7 DUP12 MSTORE DUP5 DUP3 DUP13 KECCAK256 SWAP2 DUP2 DUP9 ADD PUSH1 0x5 SHR DUP4 ADD SWAP4 DUP9 LT PUSH2 0x443 JUMPI ADD PUSH1 0x5 SHR ADD SWAP1 PUSH2 0x135D JUMP JUMPDEST CODESIZE DUP12 PUSH2 0xD42 JUMP JUMPDEST ADD MLOAD SWAP1 POP CODESIZE DUP1 PUSH2 0xD0F JUMP JUMPDEST DUP5 DUP8 MSTORE DUP1 DUP8 KECCAK256 SWAP2 SWAP7 DUP15 SWAP5 SWAP4 SWAP2 PUSH1 0x1F NOT DUP6 AND SWAP2 SWAP1 JUMPDEST DUP3 DUP3 LT PUSH2 0xEDB JUMPI POP POP SWAP7 DUP4 PUSH1 0x2 SWAP9 LT PUSH2 0xEC3 JUMPI JUMPDEST POP POP POP DUP2 SHL ADD SWAP1 SSTORE PUSH2 0xD21 JUMP JUMPDEST ADD MLOAD PUSH1 0x0 NOT DUP4 DUP15 SHL PUSH1 0xF8 AND SHR NOT AND SWAP1 SSTORE CODESIZE DUP1 DUP1 PUSH2 0xEB6 JUMP JUMPDEST DUP4 SWAP7 DUP11 SWAP6 DUP3 SWAP5 SWAP6 DUP4 SWAP5 SWAP9 SWAP11 SWAP12 SWAP13 ADD MLOAD DUP2 SSTORE ADD SWAP7 ADD SWAP5 ADD DUP16 SWAP6 SWAP4 SWAP9 SWAP8 SWAP7 SWAP5 SWAP3 SWAP2 PUSH2 0xEA2 JUMP JUMPDEST PUSH2 0xF25 SWAP1 DUP6 DUP9 MSTORE DUP4 DUP9 KECCAK256 DUP11 DUP1 DUP8 ADD PUSH1 0x5 SHR DUP3 ADD SWAP3 DUP7 DUP9 LT PUSH2 0x443 JUMPI ADD PUSH1 0x5 SHR ADD SWAP1 PUSH2 0x135D JUMP JUMPDEST CODESIZE PUSH2 0xCF7 JUMP JUMPDEST DUP8 MLOAD PUSH3 0x461BCD PUSH1 0xE5 SHL DUP2 MSTORE DUP1 DUP11 ADD DUP12 SWAP1 MSTORE PUSH1 0x10 PUSH1 0x24 DUP3 ADD MSTORE PUSH16 0x53414D455F45564D5F41444452455353 PUSH1 0x80 SHL PUSH1 0x44 DUP3 ADD MSTORE PUSH1 0x64 SWAP1 REVERT JUMPDEST PUSH2 0xF76 SWAP2 SWAP5 POP RETURNDATASIZE DUP1 DUP8 DUP4 RETURNDATACOPY PUSH2 0x522 DUP2 DUP4 PUSH2 0x1139 JUMP JUMPDEST SWAP3 CODESIZE PUSH2 0xC0F JUMP JUMPDEST DUP7 MLOAD RETURNDATASIZE DUP8 DUP3 RETURNDATACOPY RETURNDATASIZE SWAP1 REVERT JUMPDEST DUP7 DUP1 REVERT JUMPDEST DUP5 DUP1 REVERT JUMPDEST POP POP CALLVALUE PUSH2 0x1FE JUMPI PUSH1 0x20 CALLDATASIZE PUSH1 0x3 NOT ADD SLT PUSH2 0x1FE JUMPI PUSH2 0x1FA SWAP2 PUSH2 0xFCE SWAP1 PUSH1 0x2 SWAP1 DUP4 SWAP1 PUSH1 0x1 PUSH1 0x1 PUSH1 0xA0 SHL SUB PUSH2 0xFBF PUSH2 0x10A4 JUMP JUMPDEST AND DUP2 MSTORE PUSH1 0x3 PUSH1 0x20 MSTORE KECCAK256 ADD PUSH2 0x14C7 JUMP JUMPDEST SWAP1 MLOAD SWAP2 DUP3 SWAP2 PUSH1 0x20 DUP4 MSTORE PUSH1 0x20 DUP4 ADD SWAP1 PUSH2 0x10E2 JUMP JUMPDEST DUP5 SWAP1 DUP5 CALLVALUE PUSH2 0x17D JUMPI DUP3 PUSH1 0x3 NOT CALLDATASIZE ADD SLT PUSH2 0x17D JUMPI PUSH1 0x1 DUP1 SLOAD DUP1 DUP5 MSTORE DUP2 DUP6 MSTORE PUSH1 0x20 DUP1 DUP6 ADD SWAP6 PUSH32 0xB10E2D527612073B26EECDFD717E6A320CF44B4AFAC2B0732D9FCBE2B7FA0CF6 SWAP4 SWAP3 SWAP2 JUMPDEST DUP3 DUP3 LT PUSH2 0x104B JUMPI PUSH2 0x1FA DUP8 DUP8 PUSH2 0x1041 DUP3 DUP13 SUB DUP4 PUSH2 0x1139 JUMP JUMPDEST MLOAD SWAP2 DUP3 SWAP2 DUP3 PUSH2 0x1060 JUMP JUMPDEST DUP5 SLOAD DUP9 MSTORE SWAP7 DUP8 ADD SWAP7 SWAP4 DUP4 ADD SWAP4 SWAP1 DUP4 ADD SWAP1 PUSH2 0x1029 JUMP JUMPDEST PUSH1 0x20 SWAP1 DUP2 PUSH1 0x40 DUP2 DUP4 ADD SWAP3 DUP3 DUP2 MSTORE DUP6 MLOAD DUP1 SWAP5 MSTORE ADD SWAP4 ADD SWAP2 PUSH1 0x0 JUMPDEST DUP3 DUP2 LT PUSH2 0x1087 JUMPI POP POP POP POP SWAP1 JUMP JUMPDEST DUP4 MLOAD PUSH1 0x1 PUSH1 0x1 PUSH1 0xA0 SHL SUB AND DUP6 MSTORE SWAP4 DUP2 ADD SWAP4 SWAP3 DUP2 ADD SWAP3 PUSH1 0x1 ADD PUSH2 0x1079 JUMP JUMPDEST PUSH1 0x4 CALLDATALOAD SWAP1 PUSH1 0x1 PUSH1 0x1 PUSH1 0xA0 SHL SUB DUP3 AND DUP3 SUB PUSH2 0x10BA JUMPI JUMP JUMPDEST PUSH1 0x0 DUP1 REVERT JUMPDEST PUSH1 0x0 JUMPDEST DUP4 DUP2 LT PUSH2 0x10D2 JUMPI POP POP PUSH1 0x0 SWAP2 ADD MSTORE JUMP JUMPDEST DUP2 DUP2 ADD MLOAD DUP4 DUP3 ADD MSTORE PUSH1 0x20 ADD PUSH2 0x10C2 JUMP JUMPDEST SWAP1 PUSH1 0x20 SWAP2 PUSH2 0x10FB DUP2 MLOAD DUP1 SWAP3 DUP2 DUP6 MSTORE DUP6 DUP1 DUP7 ADD SWAP2 ADD PUSH2 0x10BF JUMP JUMPDEST PUSH1 0x1F ADD PUSH1 0x1F NOT AND ADD ADD SWAP1 JUMP JUMPDEST PUSH1 0x60 DUP2 ADD SWAP1 DUP2 LT PUSH8 0xFFFFFFFFFFFFFFFF DUP3 GT OR PUSH2 0x1123 JUMPI PUSH1 0x40 MSTORE JUMP JUMPDEST PUSH4 0x4E487B71 PUSH1 0xE0 SHL PUSH1 0x0 MSTORE PUSH1 0x41 PUSH1 0x4 MSTORE PUSH1 0x24 PUSH1 0x0 REVERT JUMPDEST SWAP1 PUSH1 0x1F DUP1 NOT SWAP2 ADD AND DUP2 ADD SWAP1 DUP2 LT PUSH8 0xFFFFFFFFFFFFFFFF DUP3 GT OR PUSH2 0x1123 JUMPI PUSH1 0x40 MSTORE JUMP JUMPDEST PUSH8 0xFFFFFFFFFFFFFFFF DUP2 GT PUSH2 0x1123 JUMPI PUSH1 0x1F ADD PUSH1 0x1F NOT AND PUSH1 0x20 ADD SWAP1 JUMP JUMPDEST DUP2 PUSH1 0x1F DUP3 ADD SLT ISZERO PUSH2 0x10BA JUMPI DUP1 CALLDATALOAD SWAP1 PUSH2 0x118E DUP3 PUSH2 0x115B JUMP JUMPDEST SWAP3 PUSH2 0x119C PUSH1 0x40 MLOAD SWAP5 DUP6 PUSH2 0x1139 JUMP JUMPDEST DUP3 DUP5 MSTORE PUSH1 0x20 DUP4 DUP4 ADD ADD GT PUSH2 0x10BA JUMPI DUP2 PUSH1 0x0 SWAP3 PUSH1 0x20 DUP1 SWAP4 ADD DUP4 DUP7 ADD CALLDATACOPY DUP4 ADD ADD MSTORE SWAP1 JUMP JUMPDEST SWAP1 PUSH2 0x1205 SWAP2 PUSH1 0x20 DUP2 MSTORE PUSH1 0x1 DUP1 PUSH1 0xA0 SHL SUB DUP3 MLOAD AND PUSH1 0x20 DUP3 ADD MSTORE PUSH1 0x40 PUSH2 0x11F0 PUSH1 0x20 DUP5 ADD MLOAD PUSH1 0x60 DUP4 DUP6 ADD MSTORE PUSH1 0x80 DUP5 ADD SWAP1 PUSH2 0x10E2 JUMP JUMPDEST SWAP3 ADD MLOAD SWAP1 PUSH1 0x60 PUSH1 0x1F NOT DUP3 DUP6 SUB ADD SWAP2 ADD MSTORE PUSH2 0x10E2 JUMP JUMPDEST SWAP1 JUMP JUMPDEST SWAP1 PUSH1 0x40 PUSH1 0x3 NOT DUP4 ADD SLT PUSH2 0x10BA JUMPI PUSH8 0xFFFFFFFFFFFFFFFF PUSH1 0x4 CALLDATALOAD DUP2 DUP2 GT PUSH2 0x10BA JUMPI DUP4 PUSH2 0x1235 SWAP2 PUSH1 0x4 ADD PUSH2 0x1177 JUMP JUMPDEST SWAP3 PUSH1 0x24 CALLDATALOAD SWAP2 DUP3 GT PUSH2 0x10BA JUMPI PUSH2 0x1205 SWAP2 PUSH1 0x4 ADD PUSH2 0x1177 JUMP JUMPDEST PUSH1 0x0 SLOAD PUSH1 0x1 PUSH1 0x1 PUSH1 0xA0 SHL SUB AND CALLER SUB PUSH2 0x1260 JUMPI JUMP JUMPDEST PUSH1 0x64 PUSH1 0x40 MLOAD PUSH3 0x461BCD PUSH1 0xE5 SHL DUP2 MSTORE PUSH1 0x20 PUSH1 0x4 DUP3 ADD MSTORE PUSH1 0x20 PUSH1 0x24 DUP3 ADD MSTORE PUSH32 0x4F776E61626C653A2063616C6C6572206973206E6F7420746865206F776E6572 PUSH1 0x44 DUP3 ADD MSTORE REVERT JUMPDEST PUSH1 0x40 MLOAD SWAP1 PUSH2 0x12B1 DUP3 PUSH2 0x1107 JUMP JUMPDEST PUSH1 0x60 PUSH1 0x40 DUP4 PUSH1 0x0 DUP2 MSTORE DUP3 PUSH1 0x20 DUP3 ADD MSTORE ADD MSTORE JUMP JUMPDEST PUSH1 0x20 DUP2 DUP4 SUB SLT PUSH2 0x10BA JUMPI DUP1 MLOAD SWAP1 PUSH8 0xFFFFFFFFFFFFFFFF DUP3 GT PUSH2 0x10BA JUMPI ADD DUP2 PUSH1 0x1F DUP3 ADD SLT ISZERO PUSH2 0x10BA JUMPI DUP1 MLOAD PUSH2 0x12F7 DUP2 PUSH2 0x115B JUMP JUMPDEST SWAP3 PUSH2 0x1305 PUSH1 0x40 MLOAD SWAP5 DUP6 PUSH2 0x1139 JUMP JUMPDEST DUP2 DUP5 MSTORE PUSH1 0x20 DUP3 DUP5 ADD ADD GT PUSH2 0x10BA JUMPI PUSH2 0x1205 SWAP2 PUSH1 0x20 DUP1 DUP6 ADD SWAP2 ADD PUSH2 0x10BF JUMP JUMPDEST SWAP1 PUSH1 0x1 DUP3 DUP2 SHR SWAP3 AND DUP1 ISZERO PUSH2 0x1353 JUMPI JUMPDEST PUSH1 0x20 DUP4 LT EQ PUSH2 0x133D JUMPI JUMP JUMPDEST PUSH4 0x4E487B71 PUSH1 0xE0 SHL PUSH1 0x0 MSTORE PUSH1 0x22 PUSH1 0x4 MSTORE PUSH1 0x24 PUSH1 0x0 REVERT JUMPDEST SWAP2 PUSH1 0x7F AND SWAP2 PUSH2 0x1332 JUMP JUMPDEST DUP2 DUP2 LT PUSH2 0x1368 JUMPI POP POP JUMP JUMPDEST PUSH1 0x0 DUP2 SSTORE PUSH1 0x1 ADD PUSH2 0x135D JUMP JUMPDEST ISZERO PUSH2 0x137B JUMPI JUMP JUMPDEST PUSH1 0x40 MLOAD PUSH3 0x461BCD PUSH1 0xE5 SHL DUP2 MSTORE PUSH1 0x20 PUSH1 0x4 DUP3 ADD MSTORE PUSH1 0x13 PUSH1 0x24 DUP3 ADD MSTORE PUSH19 0x555345525F414C52454144595F455849535453 PUSH1 0x68 SHL PUSH1 0x44 DUP3 ADD MSTORE PUSH1 0x64 SWAP1 REVERT JUMPDEST PUSH1 0x1 SLOAD DUP2 LT ISZERO PUSH2 0x13ED JUMPI PUSH1 0x1 PUSH1 0x0 MSTORE PUSH32 0xB10E2D527612073B26EECDFD717E6A320CF44B4AFAC2B0732D9FCBE2B7FA0CF6 ADD SWAP1 PUSH1 0x0 SWAP1 JUMP JUMPDEST PUSH4 0x4E487B71 PUSH1 0xE0 SHL PUSH1 0x0 MSTORE PUSH1 0x32 PUSH1 0x4 MSTORE PUSH1 0x24 PUSH1 0x0 REVERT JUMPDEST PUSH1 0x0 DUP2 DUP2 MSTORE PUSH1 0x2 PUSH1 0x20 MSTORE PUSH1 0x40 DUP2 KECCAK256 SLOAD PUSH2 0x1480 JUMPI PUSH1 0x1 SLOAD PUSH9 0x10000000000000000 DUP2 LT ISZERO PUSH2 0x146C JUMPI SWAP1 DUP3 PUSH2 0x1458 PUSH2 0x1441 DUP5 PUSH1 0x1 PUSH1 0x40 SWAP7 ADD PUSH1 0x1 SSTORE PUSH2 0x13B6 JUMP JUMPDEST DUP2 SWAP4 SWAP2 SLOAD SWAP1 PUSH1 0x3 SHL SWAP2 DUP3 SHL SWAP2 PUSH1 0x0 NOT SWAP1 SHL NOT AND OR SWAP1 JUMP JUMPDEST SWAP1 SSTORE PUSH1 0x1 SLOAD SWAP3 DUP2 MSTORE PUSH1 0x2 PUSH1 0x20 MSTORE KECCAK256 SSTORE PUSH1 0x1 SWAP1 JUMP JUMPDEST PUSH4 0x4E487B71 PUSH1 0xE0 SHL DUP3 MSTORE PUSH1 0x41 PUSH1 0x4 MSTORE PUSH1 0x24 DUP3 REVERT JUMPDEST SWAP1 POP SWAP1 JUMP JUMPDEST ISZERO PUSH2 0x148C JUMPI JUMP JUMPDEST PUSH1 0x40 MLOAD PUSH3 0x461BCD PUSH1 0xE5 SHL DUP2 MSTORE PUSH1 0x20 PUSH1 0x4 DUP3 ADD MSTORE PUSH1 0x13 PUSH1 0x24 DUP3 ADD MSTORE PUSH19 0x1554D15497D113D154D7D393D517D1561254D5 PUSH1 0x6A SHL PUSH1 0x44 DUP3 ADD MSTORE PUSH1 0x64 SWAP1 REVERT JUMPDEST SWAP1 PUSH1 0x40 MLOAD SWAP2 DUP3 PUSH1 0x0 DUP3 SLOAD SWAP3 PUSH2 0x14DB DUP5 PUSH2 0x1323 JUMP JUMPDEST SWAP1 DUP2 DUP5 MSTORE PUSH1 0x1 SWAP5 DUP6 DUP2 AND SWAP1 DUP2 PUSH1 0x0 EQ PUSH2 0x154A JUMPI POP PUSH1 0x1 EQ PUSH2 0x1507 JUMPI JUMPDEST POP POP PUSH2 0x1505 SWAP3 POP SUB DUP4 PUSH2 0x1139 JUMP JUMPDEST JUMP JUMPDEST SWAP1 SWAP4 SWAP2 POP PUSH1 0x0 MSTORE PUSH1 0x20 SWAP1 DUP2 PUSH1 0x0 KECCAK256 SWAP4 PUSH1 0x0 SWAP2 JUMPDEST DUP2 DUP4 LT PUSH2 0x1532 JUMPI POP POP PUSH2 0x1505 SWAP4 POP DUP3 ADD ADD CODESIZE DUP1 PUSH2 0x14F7 JUMP JUMPDEST DUP6 SLOAD DUP9 DUP5 ADD DUP6 ADD MSTORE SWAP5 DUP6 ADD SWAP5 DUP8 SWAP5 POP SWAP2 DUP4 ADD SWAP2 PUSH2 0x151A JUMP JUMPDEST SWAP2 POP POP PUSH2 0x1505 SWAP5 POP PUSH1 0x20 SWAP3 POP PUSH1 0xFF NOT AND DUP3 DUP5 ADD MSTORE ISZERO ISZERO PUSH1 0x5 SHL DUP3 ADD ADD CODESIZE DUP1 PUSH2 0x14F7 JUMP JUMPDEST ISZERO PUSH2 0x1574 JUMPI JUMP JUMPDEST PUSH1 0x40 MLOAD PUSH3 0x461BCD PUSH1 0xE5 SHL DUP2 MSTORE PUSH1 0x20 PUSH1 0x4 DUP3 ADD MSTORE PUSH1 0x11 PUSH1 0x24 DUP3 ADD MSTORE PUSH17 0xAC82AA98A8BE9288BE9A92A69A82A8869 PUSH1 0x7B SHL PUSH1 0x44 DUP3 ADD MSTORE PUSH1 0x64 SWAP1 REVERT JUMPDEST PUSH2 0x15B7 DUP2 SLOAD PUSH2 0x1323 JUMP JUMPDEST SWAP1 DUP2 PUSH2 0x15C1 JUMPI POP POP JUMP JUMPDEST DUP2 PUSH1 0x1F PUSH1 0x0 SWAP4 GT PUSH1 0x1 EQ PUSH2 0x15D3 JUMPI POP SSTORE JUMP JUMPDEST SWAP1 DUP1 DUP4 SWAP2 DUP3 MSTORE PUSH2 0x15F2 PUSH1 0x1F PUSH1 0x20 DUP5 KECCAK256 SWAP5 ADD PUSH1 0x5 SHR DUP5 ADD PUSH1 0x1 DUP6 ADD PUSH2 0x135D JUMP JUMPDEST SSTORE SSTORE JUMP JUMPDEST SWAP2 SWAP1 DUP3 SUB SWAP2 DUP3 GT PUSH2 0x1603 JUMPI JUMP JUMPDEST PUSH4 0x4E487B71 PUSH1 0xE0 SHL PUSH1 0x0 MSTORE PUSH1 0x11 PUSH1 0x4 MSTORE PUSH1 0x24 PUSH1 0x0 REVERT JUMPDEST PUSH1 0x0 DUP2 DUP2 MSTORE PUSH1 0x2 PUSH1 0x20 MSTORE PUSH1 0x40 DUP2 KECCAK256 SLOAD SWAP1 SWAP2 SWAP1 DUP1 ISZERO PUSH2 0x16FE JUMPI PUSH1 0x0 NOT SWAP1 DUP1 DUP3 ADD DUP2 DUP2 GT PUSH2 0x16EA JUMPI PUSH1 0x1 SLOAD SWAP1 DUP4 DUP3 ADD SWAP2 DUP3 GT PUSH2 0x16D6 JUMPI DUP1 DUP3 SUB PUSH2 0x16A2 JUMPI JUMPDEST POP POP POP PUSH1 0x1 SLOAD DUP1 ISZERO PUSH2 0x168E JUMPI DUP2 ADD SWAP1 PUSH2 0x166D DUP3 PUSH2 0x13B6 JUMP JUMPDEST SWAP1 SWAP2 DUP3 SLOAD SWAP2 PUSH1 0x3 SHL SHL NOT AND SWAP1 SSTORE PUSH1 0x1 SSTORE DUP2 MSTORE PUSH1 0x2 PUSH1 0x20 MSTORE PUSH1 0x40 DUP2 KECCAK256 SSTORE PUSH1 0x1 SWAP1 JUMP JUMPDEST PUSH4 0x4E487B71 PUSH1 0xE0 SHL DUP5 MSTORE PUSH1 0x31 PUSH1 0x4 MSTORE PUSH1 0x24 DUP5 REVERT JUMPDEST PUSH2 0x16C0 PUSH2 0x16B1 PUSH2 0x1441 SWAP4 PUSH2 0x13B6 JUMP JUMPDEST SWAP1 SLOAD SWAP1 PUSH1 0x3 SHL SHR SWAP3 DUP4 SWAP3 PUSH2 0x13B6 JUMP JUMPDEST SWAP1 SSTORE DUP5 MSTORE PUSH1 0x2 PUSH1 0x20 MSTORE PUSH1 0x40 DUP5 KECCAK256 SSTORE CODESIZE DUP1 DUP1 PUSH2 0x1655 JUMP JUMPDEST PUSH4 0x4E487B71 PUSH1 0xE0 SHL DUP7 MSTORE PUSH1 0x11 PUSH1 0x4 MSTORE PUSH1 0x24 DUP7 REVERT JUMPDEST PUSH4 0x4E487B71 PUSH1 0xE0 SHL DUP6 MSTORE PUSH1 0x11 PUSH1 0x4 MSTORE PUSH1 0x24 DUP6 REVERT JUMPDEST POP POP SWAP1 JUMP JUMPDEST ISZERO PUSH2 0x170A JUMPI JUMP JUMPDEST PUSH1 0x40 MLOAD PUSH3 0x461BCD PUSH1 0xE5 SHL DUP2 MSTORE PUSH1 0x20 PUSH1 0x4 DUP3 ADD MSTORE PUSH1 0xC PUSH1 0x24 DUP3 ADD MSTORE PUSH12 0x4F55545F4F465F52414E4745 PUSH1 0xA0 SHL PUSH1 0x44 DUP3 ADD MSTORE PUSH1 0x64 SWAP1 REVERT JUMPDEST PUSH8 0xFFFFFFFFFFFFFFFF DUP2 GT PUSH2 0x1123 JUMPI PUSH1 0x5 SHL PUSH1 0x20 ADD SWAP1 JUMP INVALID LOG2 PUSH5 0x6970667358 0x22 SLT KECCAK256 SWAP1 0xA6 0xB1 DIV 0x4E 0x25 JUMPI DUP14 ADDMOD ADDMOD CALLCODE 0x2F DUP2 PUSH17 0x409D9C8CEA01A7BA7D5E33C46721B83350 AND PUSH5 0x736F6C6343 STOP ADDMOD SGT STOP CALLER "},"gasEstimates":{"creation":{"codeDepositCost":"1205600","executionCost":"infinite","totalCost":"infinite"},"external":{"changeEVMAddress(bytes,address)":"infinite","changePublicKey(bytes,bytes)":"infinite","checkifUserExist(address)":"2500","getPaginatedUsers(uint256,uint256)":"infinite","getUserAt(uint256)":"6811","getUserCount()":"2431","getUserMetadata(address)":"infinite","getUserPublicKey(address)":"infinite","getUsers()":"infinite","owner()":"2430","registerUser(bytes,bytes)":"infinite","renounceOwnership()":"28163","transferOwnership(address)":"28466","verifierContract()":"2515"}},"methodIdentifiers":{"changeEVMAddress(bytes,address)":"470471ef","changePublicKey(bytes,bytes)":"89991520","checkifUserExist(address)":"48990fcc","getPaginatedUsers(uint256,uint256)":"cf5caa12","getUserAt(uint256)":"c6e064ad","getUserCount()":"b5cb15f7","getUserMetadata(address)":"ef2a8764","getUserPublicKey(address)":"11231fe0","getUsers()":"00ce8e3e","owner()":"8da5cb5b","registerUser(bytes,bytes)":"ebc4bf84","renounceOwnership()":"715018a6","transferOwnership(address)":"f2fde38b","verifierContract()":"cf695688"}},"storageLayout":{"storage":[{"astId":7,"contract":"contracts/registry/MecenateUsers.sol:MecenateUsers","label":"_owner","offset":0,"slot":"0","type":"t_address"},{"astId":933,"contract":"contracts/registry/MecenateUsers.sol:MecenateUsers","label":"_users","offset":0,"slot":"1","type":"t_struct(AddressSet)460_storage"},{"astId":938,"contract":"contracts/registry/MecenateUsers.sol:MecenateUsers","label":"_metadata","offset":0,"slot":"3","type":"t_mapping(t_address,t_struct(User)874_storage)"},{"astId":940,"contract":"contracts/registry/MecenateUsers.sol:MecenateUsers","label":"verifierContract","offset":0,"slot":"4","type":"t_address"}],"types":{"t_address":{"encoding":"inplace","label":"address","numberOfBytes":"20"},"t_array(t_bytes32)dyn_storage":{"base":"t_bytes32","encoding":"dynamic_array","label":"bytes32[]","numberOfBytes":"32"},"t_bytes32":{"encoding":"inplace","label":"bytes32","numberOfBytes":"32"},"t_bytes_storage":{"encoding":"bytes","label":"bytes","numberOfBytes":"32"},"t_mapping(t_address,t_struct(User)874_storage)":{"encoding":"mapping","key":"t_address","label":"mapping(address => struct Structures.User)","numberOfBytes":"32","value":"t_struct(User)874_storage"},"t_mapping(t_bytes32,t_uint256)":{"encoding":"mapping","key":"t_bytes32","label":"mapping(bytes32 => uint256)","numberOfBytes":"32","value":"t_uint256"},"t_struct(AddressSet)460_storage":{"encoding":"inplace","label":"struct EnumerableSet.AddressSet","members":[{"astId":459,"contract":"contracts/registry/MecenateUsers.sol:MecenateUsers","label":"_inner","offset":0,"slot":"0","type":"t_struct(Set)145_storage"}],"numberOfBytes":"64"},"t_struct(Set)145_storage":{"encoding":"inplace","label":"struct EnumerableSet.Set","members":[{"astId":140,"contract":"contracts/registry/MecenateUsers.sol:MecenateUsers","label":"_values","offset":0,"slot":"0","type":"t_array(t_bytes32)dyn_storage"},{"astId":144,"contract":"contracts/registry/MecenateUsers.sol:MecenateUsers","label":"_indexes","offset":0,"slot":"1","type":"t_mapping(t_bytes32,t_uint256)"}],"numberOfBytes":"64"},"t_struct(User)874_storage":{"encoding":"inplace","label":"struct Structures.User","members":[{"astId":869,"contract":"contracts/registry/MecenateUsers.sol:MecenateUsers","label":"evmAddress","offset":0,"slot":"0","type":"t_address"},{"astId":871,"contract":"contracts/registry/MecenateUsers.sol:MecenateUsers","label":"sismoVaultId","offset":0,"slot":"1","type":"t_bytes_storage"},{"astId":873,"contract":"contracts/registry/MecenateUsers.sol:MecenateUsers","label":"publicKey","offset":0,"slot":"2","type":"t_bytes_storage"}],"numberOfBytes":"96"},"t_uint256":{"encoding":"inplace","label":"uint256","numberOfBytes":"32"}}},"userdoc":{"kind":"user","methods":{},"version":1}}}}