{"contracts/MecenateVault.sol":{"MecenateVault":{"abi":[{"inputs":[{"internalType":"address","name":"_verifierContract","type":"address"},{"internalType":"address","name":"_factoryContract","type":"address"},{"internalType":"address","name":"_bayContract","type":"address"},{"internalType":"address","name":"_usersContract","type":"address"},{"internalType":"address","name":"_relayer","type":"address"}],"stateMutability":"nonpayable","type":"constructor"},{"anonymous":false,"inputs":[{"indexed":false,"internalType":"address","name":"userAddress","type":"address"},{"indexed":false,"internalType":"address","name":"relayerAddress","type":"address"},{"indexed":false,"internalType":"bytes","name":"functionSignature","type":"bytes"}],"name":"MetaTransactionExecuted","type":"event"},{"anonymous":false,"inputs":[{"indexed":true,"internalType":"address","name":"previousOwner","type":"address"},{"indexed":true,"internalType":"address","name":"newOwner","type":"address"}],"name":"OwnershipTransferred","type":"event"},{"anonymous":false,"inputs":[{"indexed":true,"internalType":"bytes32","name":"commitment","type":"bytes32"},{"indexed":false,"internalType":"uint256","name":"amount","type":"uint256"},{"indexed":false,"internalType":"string","name":"secret","type":"string"},{"indexed":false,"internalType":"address","name":"token","type":"address"}],"name":"Withdrawn","type":"event"},{"stateMutability":"payable","type":"fallback"},{"inputs":[],"name":"DAI","outputs":[{"internalType":"address","name":"","type":"address"}],"stateMutability":"view","type":"function"},{"inputs":[],"name":"MAX_RELAYER_FEE_PERCENTAGE","outputs":[{"internalType":"uint256","name":"","type":"uint256"}],"stateMutability":"view","type":"function"},{"inputs":[],"name":"MUSE","outputs":[{"internalType":"address","name":"","type":"address"}],"stateMutability":"view","type":"function"},{"inputs":[],"name":"USDC","outputs":[{"internalType":"address","name":"","type":"address"}],"stateMutability":"view","type":"function"},{"inputs":[],"name":"WETH","outputs":[{"internalType":"address","name":"","type":"address"}],"stateMutability":"view","type":"function"},{"inputs":[{"internalType":"uint256","name":"_newRelayerFeePercentage","type":"uint256"}],"name":"changeRelayerFee","outputs":[],"stateMutability":"nonpayable","type":"function"},{"inputs":[{"internalType":"bytes32","name":"encryptedVaultId","type":"bytes32"}],"name":"depositETH","outputs":[],"stateMutability":"payable","type":"function"},{"inputs":[{"internalType":"address","name":"_token","type":"address"},{"internalType":"uint256","name":"_amount","type":"uint256"},{"internalType":"bytes32","name":"encryptedVaultId","type":"bytes32"}],"name":"depositToken","outputs":[],"stateMutability":"nonpayable","type":"function"},{"inputs":[{"internalType":"address","name":"_target","type":"address"},{"internalType":"bytes","name":"_data","type":"bytes"},{"internalType":"uint256","name":"_value","type":"uint256"},{"internalType":"bytes32","name":"_encryptedVaultId","type":"bytes32"}],"name":"execute","outputs":[{"internalType":"bool","name":"","type":"bool"}],"stateMutability":"nonpayable","type":"function"},{"inputs":[],"name":"factoryContract","outputs":[{"internalType":"address","name":"","type":"address"}],"stateMutability":"view","type":"function"},{"inputs":[{"internalType":"bytes32","name":"encryptedVaultId","type":"bytes32"}],"name":"getEthDeposit","outputs":[{"internalType":"uint256","name":"","type":"uint256"}],"stateMutability":"view","type":"function"},{"inputs":[{"internalType":"address","name":"_token","type":"address"},{"internalType":"bytes32","name":"encryptedVaultId","type":"bytes32"}],"name":"getTokenDeposit","outputs":[{"internalType":"uint256","name":"","type":"uint256"}],"stateMutability":"view","type":"function"},{"inputs":[],"name":"mecenateBay","outputs":[{"internalType":"address","name":"","type":"address"}],"stateMutability":"view","type":"function"},{"inputs":[],"name":"mecenateUsers","outputs":[{"internalType":"address","name":"","type":"address"}],"stateMutability":"view","type":"function"},{"inputs":[],"name":"owner","outputs":[{"internalType":"address","name":"","type":"address"}],"stateMutability":"view","type":"function"},{"inputs":[],"name":"relayerFeePercentage","outputs":[{"internalType":"uint256","name":"","type":"uint256"}],"stateMutability":"view","type":"function"},{"inputs":[],"name":"renounceOwnership","outputs":[],"stateMutability":"nonpayable","type":"function"},{"inputs":[{"internalType":"address","name":"_factoryContract","type":"address"}],"name":"setFactoryContract","outputs":[],"stateMutability":"nonpayable","type":"function"},{"inputs":[{"internalType":"address","name":"_mecenateBay","type":"address"}],"name":"setMecenateBay","outputs":[],"stateMutability":"nonpayable","type":"function"},{"inputs":[{"internalType":"address","name":"_mecenateUsers","type":"address"}],"name":"setMecenateUsers","outputs":[],"stateMutability":"nonpayable","type":"function"},{"inputs":[{"internalType":"address","name":"_relayer","type":"address"}],"name":"setRelayer","outputs":[],"stateMutability":"nonpayable","type":"function"},{"inputs":[{"internalType":"address","name":"_WETH","type":"address"},{"internalType":"address","name":"_DAI","type":"address"},{"internalType":"address","name":"_USDC","type":"address"},{"internalType":"address","name":"_MUSE","type":"address"}],"name":"setTokens","outputs":[],"stateMutability":"nonpayable","type":"function"},{"inputs":[{"internalType":"address","name":"_verifierContract","type":"address"}],"name":"setVerifierContract","outputs":[],"stateMutability":"nonpayable","type":"function"},{"inputs":[{"internalType":"address","name":"newOwner","type":"address"}],"name":"transferOwnership","outputs":[],"stateMutability":"nonpayable","type":"function"},{"inputs":[],"name":"verifierContract","outputs":[{"internalType":"address","name":"","type":"address"}],"stateMutability":"view","type":"function"},{"inputs":[{"internalType":"uint256","name":"_amount","type":"uint256"},{"internalType":"bytes","name":"sismoConnectResponse","type":"bytes"},{"internalType":"address","name":"_to","type":"address"},{"internalType":"bytes32","name":"_nonce","type":"bytes32"}],"name":"withdrawETH","outputs":[],"stateMutability":"nonpayable","type":"function"},{"inputs":[{"internalType":"address","name":"_token","type":"address"},{"internalType":"uint256","name":"_amount","type":"uint256"},{"internalType":"bytes","name":"sismoConnectResponse","type":"bytes"},{"internalType":"address","name":"_to","type":"address"},{"internalType":"bytes32","name":"_nonce","type":"bytes32"}],"name":"withdrawToken","outputs":[],"stateMutability":"nonpayable","type":"function"},{"inputs":[{"internalType":"string","name":"_secret","type":"string"},{"internalType":"address","name":"_token","type":"address"},{"internalType":"bytes","name":"sismoConnectResponse","type":"bytes"},{"internalType":"address","name":"_to","type":"address"},{"internalType":"bytes32","name":"_nonce","type":"bytes32"}],"name":"withdrawWithSecret","outputs":[],"stateMutability":"nonpayable","type":"function"},{"stateMutability":"payable","type":"receive"}],"devdoc":{"kind":"dev","methods":{"owner()":{"details":"Returns the address of the current owner."},"renounceOwnership()":{"details":"Leaves the contract without owner. It will not be possible to call `onlyOwner` functions. Can only be called by the current owner. NOTE: Renouncing ownership will leave the contract without an owner, thereby disabling any functionality that is only available to the owner."},"transferOwnership(address)":{"details":"Transfers ownership of the contract to a new account (`newOwner`). Can only be called by the current owner."}},"version":1},"evm":{"bytecode":{"linkReferences":{},"object":"6080346200012057601f6200214838819003918201601f19168301916001600160401b03831184841017620001255780849260a09460405283398101031262000120576200004d816200013b565b906200005c602082016200013b565b6200006a604083016200013b565b926200008760806200007f606086016200013b565b94016200013b565b906000549360018060a01b03199433868216176000556040519660018060a01b0380968180968195823391167f8be0079c531659141344cd1fd0a4f28419497f9722a3daafe3b4186f6b6457e0600080a36001805560c8600d5516896008541617600855168760095416176009551685600a541617600a551683600b541617600b551690600c541617600c55611ff79081620001518239f35b600080fd5b634e487b7160e01b600052604160045260246000fd5b51906001600160a01b0382168203620001205756fe604060808152600480361015610083575b361561004157506020361261003c576000356000526002602052600020610038348254611abd565b9055005b600080fd5b6020606492519162461bcd60e51b8352820152601760248201527f557365206465706f7369744554482066756e6374696f6e0000000000000000006044820152fd5b6000803560e01c806310d5700e1461164a5780631378f5d914611298578063139e3c541461126357806317d026e6146111ca57806320491915146111a157806324ebc1451461113d5780632fe4f4c1146110d95780633f16a3bb146110a45780635262712f1461106f578063537820bf14610fcb5780635e0cd92f14610f7d5780636548e9bc14610f195780636961b36114610efc578063715018a614610e7e57806384abac9514610c7957806385e66df414610c5a57806389a3027114610c255780638da5cb5b14610bf25780639926ad871461077b578063a25da83c14610717578063ad5c4648146106e2578063bda7193a14610405578063cf695688146103d0578063d424134114610369578063d68d9d4e14610334578063de11c94a146102ff578063e0bab4c4146102c65763f2fde38b146101c35750610010565b9190346102c25760206003193601126102c2576101de6119ef565b906101e7611a58565b73ffffffffffffffffffffffffffffffffffffffff8092169283156102595750508254827fffffffffffffffffffffffff00000000000000000000000000000000000000008216178455167f8be0079c531659141344cd1fd0a4f28419497f9722a3daafe3b4186f6b6457e08380a380f35b906020608492519162461bcd60e51b8352820152602660248201527f4f776e61626c653a206e6577206f776e657220697320746865207a65726f206160448201527f64647265737300000000000000000000000000000000000000000000000000006064820152fd5b8280fd5b5082346102fb57816003193601126102fb5760209073ffffffffffffffffffffffffffffffffffffffff600554169051908152f35b5080fd5b5082346102fb57816003193601126102fb5760209073ffffffffffffffffffffffffffffffffffffffff600954169051908152f35b50919060206003193601126102c25761034b611af9565b35825260026020528120610360348254611abd565b90556001805580f35b50346103cd5760206003193601126103cd5773ffffffffffffffffffffffffffffffffffffffff6103986119ef565b6103a0611a58565b167fffffffffffffffffffffffff0000000000000000000000000000000000000000600954161760095580f35b80fd5b5082346102fb57816003193601126102fb5760209073ffffffffffffffffffffffffffffffffffffffff600854169051908152f35b5091346102c25760a06003193601126102c25767ffffffffffffffff9082358281116106de57366023820112156106de576104499036906024818701359101611977565b92610452611a35565b926044359081116106da5761046a90369083016119ae565b50610473611a12565b9173ffffffffffffffffffffffffffffffffffffffff9261049984600c54163314611bb1565b6104a1611af9565b81519380876020966104cf8882816104c28183019687815193849201611bfc565b81010380845201826118cd565b5190209616918261059f57868952600286528389205494851561055d5750888086819482948b845260028b5283898120551682f115610553576105457fa5ecd7cf58f2f1e36e387c6442f5dea0a47926654ed49e6d1d9eb06d0406424495965b6060845196879687528601526060850190611caf565b918301520390a26001805580f35b81513d88823e3d90fd5b6064908786519162461bcd60e51b8352820152601e60248201527f4e6f20455448206465706f73697420666f7220746869732073656372657400006044820152fd5b9050858852600385528288208289528552828820549384156106995786895260038652838920838a52865283892089905583517fa9059cbb00000000000000000000000000000000000000000000000000000000815273ffffffffffffffffffffffffffffffffffffffff9092169082019081526020810185905285908290819060400103818b865af1801561068f5796610545917fa5ecd7cf58f2f1e36e387c6442f5dea0a47926654ed49e6d1d9eb06d040642449798610662575b5061052f565b61068190873d8911610688575b61067981836118cd565b810190611b99565b503861065c565b503d61066f565b83513d8a823e3d90fd5b606490868086519262461bcd60e51b845283015260248201527f4e6f20546f6b656e206465706f73697420666f722074686973207365637265746044820152fd5b8580fd5b8480fd5b508290346103cd57806003193601126103cd575073ffffffffffffffffffffffffffffffffffffffff60209254169051908152f35b50346103cd5760206003193601126103cd5773ffffffffffffffffffffffffffffffffffffffff6107466119ef565b61074e611a58565b167fffffffffffffffffffffffff0000000000000000000000000000000000000000600854161760085580f35b5091346102c25760806003193601126102c2576107966119ef565b92602480359367ffffffffffffffff94858111610bee5736602382011215610bee5780820135918683116106de5783820191848436920101116106de57604492833560649182359a73ffffffffffffffffffffffffffffffffffffffff9061080382600c54163314611bb1565b61080b611af9565b8c8a5260209b60028d528b8b20549361082d6108275a3a611df4565b87611abd565b98898610610bac57816109fd575050508347106109bc5789808581948294165af1610856611e5f565b5015610955578161086e61088493610874935b611e07565b95611e07565b61087e5a3a611df4565b90611e07565b93612710610894600d5487611df4565b04956108a08787611abd565b85106108f1575050505092806108d584848a6108c5859861086987996108e69c611e07565b90855260028b5289852055611abd565b335af16108e0611e5f565b50611e8f565b600180555160018152f35b917f496e73756666696369656e742062616c616e636520666f722067617320616e647f206665650000000000000000000000000000000000000000000000000000000092608495948c8c519662461bcd60e51b885287015280860152840152820152fd5b5050907f6563697069656e74206d617920686176652072657665727465640000000000006084927f416464726573733a20756e61626c6520746f2073656e642076616c75652c207286603a898d8d519762461bcd60e51b8952880152860152840152820152fd5b505082847f416464726573733a20696e73756666696369656e742062616c616e636500000088601d8b8f8f519562461bcd60e51b8752860152840152820152fd5b9193509085610aac57610a11913691611977565b8b5192838d0190811184821017610a815793610a7b86948f948f8f6108849a9661086e986108749b839452601e86527f416464726573733a206c6f772d6c6576656c2063616c6c206661696c65640000818701528151910182855af1610a75611e5f565b91611f25565b50611e07565b8a8c60418a7f4e487b7100000000000000000000000000000000000000000000000000000000835252fd5b610ab7913691611977565b8b51926060840190811184821017610a81578c52602983527f416464726573733a206c6f772d6c6576656c2063616c6c20776974682076616c8d8401527f7565206661696c656400000000000000000000000000000000000000000000008c840152844710610b46579361087493610a7b82948f948e808a61086e986108849c51910188855af1610a75611e5f565b8b5162461bcd60e51b81528088018e90526026818c01527f416464726573733a20696e73756666696369656e742062616c616e636520666f818b01527f722063616c6c000000000000000000000000000000000000000000000000000081880152608490fd5b878f8f8d8f6014908e947f496e73756666696369656e742062616c616e636500000000000000000000000094519562461bcd60e51b8752860152840152820152fd5b8380fd5b5082346102fb57816003193601126102fb5773ffffffffffffffffffffffffffffffffffffffff60209254169051908152f35b5082346102fb57816003193601126102fb5760209073ffffffffffffffffffffffffffffffffffffffff600654169051908152f35b5082346102fb57816003193601126102fb57602090600d549051908152f35b5082346102fb5760606003193601126102fb57610c946119ef565b9060243591610ca1611af9565b73ffffffffffffffffffffffffffffffffffffffff809116908115610e3b57610ccb841515611b4e565b808654168214908115610e2d575b8115610e1f575b8115610e11575b5015610dce578151947f23b872dd0000000000000000000000000000000000000000000000000000000086523381870152306024870152836044870152602095868160648189875af1908115610dc4578691610da7575b5015610d655750610360929394604435865260038152828620918652528320918254611abd565b6064908684519162461bcd60e51b8352820152601560248201527f546f6b656e207472616e73666572206661696c656400000000000000000000006044820152fd5b610dbe9150873d89116106885761067981836118cd565b87610d3e565b84513d88823e3d90fd5b606485602084519162461bcd60e51b8352820152601360248201527f546f6b656e206e6f7420737570706f72746564000000000000000000000000006044820152fd5b905060075416811486610ce7565b600654811683149150610ce0565b600554811683149150610cd9565b606486602085519162461bcd60e51b8352820152601960248201527f546f6b656e20616464726573732063616e6e6f742062652030000000000000006044820152fd5b50346103cd57806003193601126103cd57610e97611a58565b8073ffffffffffffffffffffffffffffffffffffffff81547fffffffffffffffffffffffff000000000000000000000000000000000000000081168355167f8be0079c531659141344cd1fd0a4f28419497f9722a3daafe3b4186f6b6457e08280a380f35b5082346102fb57816003193601126102fb57602090516101f48152f35b50346103cd5760206003193601126103cd5773ffffffffffffffffffffffffffffffffffffffff610f486119ef565b610f50611a58565b167fffffffffffffffffffffffff0000000000000000000000000000000000000000600c541617600c5580f35b5082346102fb57806003193601126102fb5780602092610f9b6119ef565b60243582526003855273ffffffffffffffffffffffffffffffffffffffff83832091168252845220549051908152f35b5090346102fb5760806003193601126102fb57610fe66119ef565b90610fef611a35565b90610ff86119cc565b90611001611a12565b9161100a611a58565b73ffffffffffffffffffffffffffffffffffffffff80948193827fffffffffffffffffffffffff000000000000000000000000000000000000000098168882541617905516856005541617600555168360065416176006551690600754161760075580f35b5082346102fb57816003193601126102fb5760209073ffffffffffffffffffffffffffffffffffffffff600754169051908152f35b5082346102fb57816003193601126102fb5760209073ffffffffffffffffffffffffffffffffffffffff600a54169051908152f35b50346103cd5760206003193601126103cd5773ffffffffffffffffffffffffffffffffffffffff6111086119ef565b611110611a58565b167fffffffffffffffffffffffff0000000000000000000000000000000000000000600b541617600b5580f35b50346103cd5760206003193601126103cd5773ffffffffffffffffffffffffffffffffffffffff61116c6119ef565b611174611a58565b167fffffffffffffffffffffffff0000000000000000000000000000000000000000600a541617600a5580f35b509190346102c25760206003193601126102c25760209282913581526002845220549051908152f35b509190346102c25760206003193601126102c2578035916111e9611a58565b6101f483116111fa575050600d5580f35b906020608492519162461bcd60e51b8352820152602660248201527f4e65772072656c61796572206665652070657263656e7461676520697320746f60448201527f6f206869676800000000000000000000000000000000000000000000000000006064820152fd5b5082346102fb57816003193601126102fb5760209073ffffffffffffffffffffffffffffffffffffffff600b54169051908152f35b5091346102c25760a06003193601126102c2576112b36119ef565b906024359060443567ffffffffffffffff81116106da576112d790369086016119ae565b916112e0611a12565b906084359473ffffffffffffffffffffffffffffffffffffffff61130981600c54163314611bb1565b611311611af9565b865a948a81611320883a611df4565b998560085416908d61135e8c519e8f95869485947f7276069d0000000000000000000000000000000000000000000000000000000086528501611cf2565b03915afa978815611640578b809981906115fa575b8a9b50928a94928a8795936113999b9a99989460209c818e808094518301019101611d2a565b961698519f019e8f20815260028c522054106115b857906113c1846113c79493168614611d5e565b14611da9565b875189208b5260038652868b20921691828b52855282868b205410611576579184916114679388518a208c5260038452878c20828d528452878c2061140d848254611e07565b90558b8b8951968795869485937fa9059cbb00000000000000000000000000000000000000000000000000000000855284016020909392919373ffffffffffffffffffffffffffffffffffffffff60408201951681520152565b03925af1801561156c579061148e929161154f575b506114893a915a90611e07565b611df4565b9361271061149e600d5487611df4565b049584518220885260028352838820546114b88888611abd565b1161150d5787611506818080806114f58d8d8d6114ee8e60028f8f6114dd8888611abd565b955190208952528620918254611e07565b9055611abd565b335af1611500611e5f565b50611eda565b6001805580f35b6064908385519162461bcd60e51b8352820152601f60248201527f4e6f7420656e6f7567682062616c616e636520666f72206761732075736564006044820152fd5b61156590843d86116106885761067981836118cd565b503861147c565b84513d8a823e3d90fd5b6064898688519162461bcd60e51b8352820152601860248201527f4e6f7420656e6f75676820746f6b656e2062616c616e636500000000000000006044820152fd5b60648d8a8c519162461bcd60e51b8352820152601f60248201527f4e6f7420656e6f7567682045544820666f7220676173207265717569726564006044820152fd5b509850918361139997969594926116248a9c8c3d8091833e61161c81836118cd565b810190611c61565b97929150509c8d9c8d97939650939798999a5050929450611373565b87513d8d823e3d90fd5b509190346102c25760806003193601126102c25780359060243567ffffffffffffffff81116106de5761168090369083016119ae565b916116896119cc565b91606435936116fd73ffffffffffffffffffffffffffffffffffffffff956116b687600c54163314611bb1565b6116be611af9565b88815a94888a60085416918c51968794859384937f7276069d0000000000000000000000000000000000000000000000000000000085528c8501611cf2565b03915afa9687156118c35789928a9861189b575b5090816113c161173a9361172f60209b8c8082518301019101611d2a565b931699168914611d5e565b858151910120611768611756611750843a611df4565b86611e07565b828a5260028852888a20541015611e14565b80885260028652868820541561185957906117c091611788851515611b4e565b8089526002875261179e85898b20541015611e14565b8852600286528688206117b2858254611e07565b90556114893a915a90611e07565b936127106117d0600d5487611df4565b04956117dc8787611abd565b841061181857505050846114f5858561181384808080809b9a6118086115069e610869849e859e611e07565b905af16108e0611e5f565b611abd565b60649350519162461bcd60e51b8352820152601a60248201527f4e6f7420656e6f7567682062616c616e636520666f72206761730000000000006044820152fd5b6064838789519162461bcd60e51b8352820152601960248201527f436f6d6d69746d656e7420646f6573206e6f74206578697374000000000000006044820152fd5b6118b691985061173a9293503d808c833e61161c81836118cd565b9992949391506117119050565b88513d8b823e3d90fd5b90601f7fffffffffffffffffffffffffffffffffffffffffffffffffffffffffffffffe0910116810190811067ffffffffffffffff82111761190e57604052565b7f4e487b7100000000000000000000000000000000000000000000000000000000600052604160045260246000fd5b67ffffffffffffffff811161190e57601f017fffffffffffffffffffffffffffffffffffffffffffffffffffffffffffffffe01660200190565b9291926119838261193d565b9161199160405193846118cd565b82948184528183011161003c578281602093846000960137010152565b9080601f8301121561003c578160206119c993359101611977565b90565b6044359073ffffffffffffffffffffffffffffffffffffffff8216820361003c57565b6004359073ffffffffffffffffffffffffffffffffffffffff8216820361003c57565b6064359073ffffffffffffffffffffffffffffffffffffffff8216820361003c57565b6024359073ffffffffffffffffffffffffffffffffffffffff8216820361003c57565b73ffffffffffffffffffffffffffffffffffffffff600054163303611a7957565b606460405162461bcd60e51b815260206004820152602060248201527f4f776e61626c653a2063616c6c6572206973206e6f7420746865206f776e65726044820152fd5b91908201809211611aca57565b7f4e487b7100000000000000000000000000000000000000000000000000000000600052601160045260246000fd5b600260015414611b0a576002600155565b606460405162461bcd60e51b815260206004820152601f60248201527f5265656e7472616e637947756172643a207265656e7472616e742063616c6c006044820152fd5b15611b5557565b606460405162461bcd60e51b815260206004820152602060248201527f416d6f756e74206d7573742062652067726561746572207468616e207a65726f6044820152fd5b9081602091031261003c5751801515810361003c5790565b15611bb857565b606460405162461bcd60e51b815260206004820152600b60248201527f4e6f742072656c617965720000000000000000000000000000000000000000006044820152fd5b60005b838110611c0f5750506000910152565b8181015183820152602001611bff565b81601f8201121561003c578051611c358161193d565b92611c4360405194856118cd565b8184526020828401011161003c576119c99160208085019101611bfc565b9160808383031261003c5782519067ffffffffffffffff9182811161003c5783611c8c918601611c1f565b93602081015193604082015193606083015190811161003c576119c99201611c1f565b907fffffffffffffffffffffffffffffffffffffffffffffffffffffffffffffffe0601f602093611ceb81518092818752878088019101611bfc565b0116010190565b73ffffffffffffffffffffffffffffffffffffffff611d1f60409396959496606084526060840190611caf565b951660208201520152565b919082604091031261003c57815173ffffffffffffffffffffffffffffffffffffffff8116810361003c5760209092015190565b15611d6557565b606460405162461bcd60e51b815260206004820152601060248201527f4e6f742053616d652041646472657373000000000000000000000000000000006044820152fd5b15611db057565b606460405162461bcd60e51b815260206004820152600e60248201527f4e6f742053616d65204e6f6e63650000000000000000000000000000000000006044820152fd5b81810292918115918404141715611aca57565b91908203918211611aca57565b15611e1b57565b606460405162461bcd60e51b815260206004820152601260248201527f4e6f7420656e6f7567682062616c616e636500000000000000000000000000006044820152fd5b3d15611e8a573d90611e708261193d565b91611e7e60405193846118cd565b82523d6000602084013e565b606090565b15611e9657565b606460405162461bcd60e51b815260206004820152601360248201527f455448207472616e73666572206661696c6564000000000000000000000000006044820152fd5b15611ee157565b606460405162461bcd60e51b815260206004820152601c60248201527f455448207472616e73666572206661696c6564207769746820676173000000006044820152fd5b91929015611f865750815115611f39575090565b3b15611f425790565b606460405162461bcd60e51b815260206004820152601d60248201527f416464726573733a2063616c6c20746f206e6f6e2d636f6e74726163740000006044820152fd5b825190915015611f995750805190602001fd5b611fbd9060405191829162461bcd60e51b8352602060048401526024830190611caf565b0390fdfea2646970667358221220eb715ecc42141c86baa2d9d07a97a4da1086f4498310ec5981f95e5d17b517a064736f6c63430008130033","opcodes":"PUSH1 0x80 CALLVALUE PUSH3 0x120 JUMPI PUSH1 0x1F PUSH3 0x2148 CODESIZE DUP2 SWAP1 SUB SWAP2 DUP3 ADD PUSH1 0x1F NOT AND DUP4 ADD SWAP2 PUSH1 0x1 PUSH1 0x1 PUSH1 0x40 SHL SUB DUP4 GT DUP5 DUP5 LT OR PUSH3 0x125 JUMPI DUP1 DUP5 SWAP3 PUSH1 0xA0 SWAP5 PUSH1 0x40 MSTORE DUP4 CODECOPY DUP2 ADD SUB SLT PUSH3 0x120 JUMPI PUSH3 0x4D DUP2 PUSH3 0x13B JUMP JUMPDEST SWAP1 PUSH3 0x5C PUSH1 0x20 DUP3 ADD PUSH3 0x13B JUMP JUMPDEST PUSH3 0x6A PUSH1 0x40 DUP4 ADD PUSH3 0x13B JUMP JUMPDEST SWAP3 PUSH3 0x87 PUSH1 0x80 PUSH3 0x7F PUSH1 0x60 DUP7 ADD PUSH3 0x13B JUMP JUMPDEST SWAP5 ADD PUSH3 0x13B JUMP JUMPDEST SWAP1 PUSH1 0x0 SLOAD SWAP4 PUSH1 0x1 DUP1 PUSH1 0xA0 SHL SUB NOT SWAP5 CALLER DUP7 DUP3 AND OR PUSH1 0x0 SSTORE PUSH1 0x40 MLOAD SWAP7 PUSH1 0x1 DUP1 PUSH1 0xA0 SHL SUB DUP1 SWAP7 DUP2 DUP1 SWAP7 DUP2 SWAP6 DUP3 CALLER SWAP2 AND PUSH32 0x8BE0079C531659141344CD1FD0A4F28419497F9722A3DAAFE3B4186F6B6457E0 PUSH1 0x0 DUP1 LOG3 PUSH1 0x1 DUP1 SSTORE PUSH1 0xC8 PUSH1 0xD SSTORE AND DUP10 PUSH1 0x8 SLOAD AND OR PUSH1 0x8 SSTORE AND DUP8 PUSH1 0x9 SLOAD AND OR PUSH1 0x9 SSTORE AND DUP6 PUSH1 0xA SLOAD AND OR PUSH1 0xA SSTORE AND DUP4 PUSH1 0xB SLOAD AND OR PUSH1 0xB SSTORE AND SWAP1 PUSH1 0xC SLOAD AND OR PUSH1 0xC SSTORE PUSH2 0x1FF7 SWAP1 DUP2 PUSH3 0x151 DUP3 CODECOPY RETURN JUMPDEST PUSH1 0x0 DUP1 REVERT JUMPDEST PUSH4 0x4E487B71 PUSH1 0xE0 SHL PUSH1 0x0 MSTORE PUSH1 0x41 PUSH1 0x4 MSTORE PUSH1 0x24 PUSH1 0x0 REVERT JUMPDEST MLOAD SWAP1 PUSH1 0x1 PUSH1 0x1 PUSH1 0xA0 SHL SUB DUP3 AND DUP3 SUB PUSH3 0x120 JUMPI JUMP INVALID PUSH1 0x40 PUSH1 0x80 DUP2 MSTORE PUSH1 0x4 DUP1 CALLDATASIZE LT ISZERO PUSH2 0x83 JUMPI JUMPDEST CALLDATASIZE ISZERO PUSH2 0x41 JUMPI POP PUSH1 0x20 CALLDATASIZE SLT PUSH2 0x3C JUMPI PUSH1 0x0 CALLDATALOAD PUSH1 0x0 MSTORE PUSH1 0x2 PUSH1 0x20 MSTORE PUSH1 0x0 KECCAK256 PUSH2 0x38 CALLVALUE DUP3 SLOAD PUSH2 0x1ABD JUMP JUMPDEST SWAP1 SSTORE STOP JUMPDEST PUSH1 0x0 DUP1 REVERT JUMPDEST PUSH1 0x20 PUSH1 0x64 SWAP3 MLOAD SWAP2 PUSH3 0x461BCD PUSH1 0xE5 SHL DUP4 MSTORE DUP3 ADD MSTORE PUSH1 0x17 PUSH1 0x24 DUP3 ADD MSTORE PUSH32 0x557365206465706F7369744554482066756E6374696F6E000000000000000000 PUSH1 0x44 DUP3 ADD MSTORE REVERT JUMPDEST PUSH1 0x0 DUP1 CALLDATALOAD PUSH1 0xE0 SHR DUP1 PUSH4 0x10D5700E EQ PUSH2 0x164A JUMPI DUP1 PUSH4 0x1378F5D9 EQ PUSH2 0x1298 JUMPI DUP1 PUSH4 0x139E3C54 EQ PUSH2 0x1263 JUMPI DUP1 PUSH4 0x17D026E6 EQ PUSH2 0x11CA JUMPI DUP1 PUSH4 0x20491915 EQ PUSH2 0x11A1 JUMPI DUP1 PUSH4 0x24EBC145 EQ PUSH2 0x113D JUMPI DUP1 PUSH4 0x2FE4F4C1 EQ PUSH2 0x10D9 JUMPI DUP1 PUSH4 0x3F16A3BB EQ PUSH2 0x10A4 JUMPI DUP1 PUSH4 0x5262712F EQ PUSH2 0x106F JUMPI DUP1 PUSH4 0x537820BF EQ PUSH2 0xFCB JUMPI DUP1 PUSH4 0x5E0CD92F EQ PUSH2 0xF7D JUMPI DUP1 PUSH4 0x6548E9BC EQ PUSH2 0xF19 JUMPI DUP1 PUSH4 0x6961B361 EQ PUSH2 0xEFC JUMPI DUP1 PUSH4 0x715018A6 EQ PUSH2 0xE7E JUMPI DUP1 PUSH4 0x84ABAC95 EQ PUSH2 0xC79 JUMPI DUP1 PUSH4 0x85E66DF4 EQ PUSH2 0xC5A JUMPI DUP1 PUSH4 0x89A30271 EQ PUSH2 0xC25 JUMPI DUP1 PUSH4 0x8DA5CB5B EQ PUSH2 0xBF2 JUMPI DUP1 PUSH4 0x9926AD87 EQ PUSH2 0x77B JUMPI DUP1 PUSH4 0xA25DA83C EQ PUSH2 0x717 JUMPI DUP1 PUSH4 0xAD5C4648 EQ PUSH2 0x6E2 JUMPI DUP1 PUSH4 0xBDA7193A EQ PUSH2 0x405 JUMPI DUP1 PUSH4 0xCF695688 EQ PUSH2 0x3D0 JUMPI DUP1 PUSH4 0xD4241341 EQ PUSH2 0x369 JUMPI DUP1 PUSH4 0xD68D9D4E EQ PUSH2 0x334 JUMPI DUP1 PUSH4 0xDE11C94A EQ PUSH2 0x2FF JUMPI DUP1 PUSH4 0xE0BAB4C4 EQ PUSH2 0x2C6 JUMPI PUSH4 0xF2FDE38B EQ PUSH2 0x1C3 JUMPI POP PUSH2 0x10 JUMP JUMPDEST SWAP2 SWAP1 CALLVALUE PUSH2 0x2C2 JUMPI PUSH1 0x20 PUSH1 0x3 NOT CALLDATASIZE ADD SLT PUSH2 0x2C2 JUMPI PUSH2 0x1DE PUSH2 0x19EF JUMP JUMPDEST SWAP1 PUSH2 0x1E7 PUSH2 0x1A58 JUMP JUMPDEST PUSH20 0xFFFFFFFFFFFFFFFFFFFFFFFFFFFFFFFFFFFFFFFF DUP1 SWAP3 AND SWAP3 DUP4 ISZERO PUSH2 0x259 JUMPI POP POP DUP3 SLOAD DUP3 PUSH32 0xFFFFFFFFFFFFFFFFFFFFFFFF0000000000000000000000000000000000000000 DUP3 AND OR DUP5 SSTORE AND PUSH32 0x8BE0079C531659141344CD1FD0A4F28419497F9722A3DAAFE3B4186F6B6457E0 DUP4 DUP1 LOG3 DUP1 RETURN JUMPDEST SWAP1 PUSH1 0x20 PUSH1 0x84 SWAP3 MLOAD SWAP2 PUSH3 0x461BCD PUSH1 0xE5 SHL DUP4 MSTORE DUP3 ADD MSTORE PUSH1 0x26 PUSH1 0x24 DUP3 ADD MSTORE PUSH32 0x4F776E61626C653A206E6577206F776E657220697320746865207A65726F2061 PUSH1 0x44 DUP3 ADD MSTORE PUSH32 0x6464726573730000000000000000000000000000000000000000000000000000 PUSH1 0x64 DUP3 ADD MSTORE REVERT JUMPDEST DUP3 DUP1 REVERT JUMPDEST POP DUP3 CALLVALUE PUSH2 0x2FB JUMPI DUP2 PUSH1 0x3 NOT CALLDATASIZE ADD SLT PUSH2 0x2FB JUMPI PUSH1 0x20 SWAP1 PUSH20 0xFFFFFFFFFFFFFFFFFFFFFFFFFFFFFFFFFFFFFFFF PUSH1 0x5 SLOAD AND SWAP1 MLOAD SWAP1 DUP2 MSTORE RETURN JUMPDEST POP DUP1 REVERT JUMPDEST POP DUP3 CALLVALUE PUSH2 0x2FB JUMPI DUP2 PUSH1 0x3 NOT CALLDATASIZE ADD SLT PUSH2 0x2FB JUMPI PUSH1 0x20 SWAP1 PUSH20 0xFFFFFFFFFFFFFFFFFFFFFFFFFFFFFFFFFFFFFFFF PUSH1 0x9 SLOAD AND SWAP1 MLOAD SWAP1 DUP2 MSTORE RETURN JUMPDEST POP SWAP2 SWAP1 PUSH1 0x20 PUSH1 0x3 NOT CALLDATASIZE ADD SLT PUSH2 0x2C2 JUMPI PUSH2 0x34B PUSH2 0x1AF9 JUMP JUMPDEST CALLDATALOAD DUP3 MSTORE PUSH1 0x2 PUSH1 0x20 MSTORE DUP2 KECCAK256 PUSH2 0x360 CALLVALUE DUP3 SLOAD PUSH2 0x1ABD JUMP JUMPDEST SWAP1 SSTORE PUSH1 0x1 DUP1 SSTORE DUP1 RETURN JUMPDEST POP CALLVALUE PUSH2 0x3CD JUMPI PUSH1 0x20 PUSH1 0x3 NOT CALLDATASIZE ADD SLT PUSH2 0x3CD JUMPI PUSH20 0xFFFFFFFFFFFFFFFFFFFFFFFFFFFFFFFFFFFFFFFF PUSH2 0x398 PUSH2 0x19EF JUMP JUMPDEST PUSH2 0x3A0 PUSH2 0x1A58 JUMP JUMPDEST AND PUSH32 0xFFFFFFFFFFFFFFFFFFFFFFFF0000000000000000000000000000000000000000 PUSH1 0x9 SLOAD AND OR PUSH1 0x9 SSTORE DUP1 RETURN JUMPDEST DUP1 REVERT JUMPDEST POP DUP3 CALLVALUE PUSH2 0x2FB JUMPI DUP2 PUSH1 0x3 NOT CALLDATASIZE ADD SLT PUSH2 0x2FB JUMPI PUSH1 0x20 SWAP1 PUSH20 0xFFFFFFFFFFFFFFFFFFFFFFFFFFFFFFFFFFFFFFFF PUSH1 0x8 SLOAD AND SWAP1 MLOAD SWAP1 DUP2 MSTORE RETURN JUMPDEST POP SWAP2 CALLVALUE PUSH2 0x2C2 JUMPI PUSH1 0xA0 PUSH1 0x3 NOT CALLDATASIZE ADD SLT PUSH2 0x2C2 JUMPI PUSH8 0xFFFFFFFFFFFFFFFF SWAP1 DUP3 CALLDATALOAD DUP3 DUP2 GT PUSH2 0x6DE JUMPI CALLDATASIZE PUSH1 0x23 DUP3 ADD SLT ISZERO PUSH2 0x6DE JUMPI PUSH2 0x449 SWAP1 CALLDATASIZE SWAP1 PUSH1 0x24 DUP2 DUP8 ADD CALLDATALOAD SWAP2 ADD PUSH2 0x1977 JUMP JUMPDEST SWAP3 PUSH2 0x452 PUSH2 0x1A35 JUMP JUMPDEST SWAP3 PUSH1 0x44 CALLDATALOAD SWAP1 DUP2 GT PUSH2 0x6DA JUMPI PUSH2 0x46A SWAP1 CALLDATASIZE SWAP1 DUP4 ADD PUSH2 0x19AE JUMP JUMPDEST POP PUSH2 0x473 PUSH2 0x1A12 JUMP JUMPDEST SWAP2 PUSH20 0xFFFFFFFFFFFFFFFFFFFFFFFFFFFFFFFFFFFFFFFF SWAP3 PUSH2 0x499 DUP5 PUSH1 0xC SLOAD AND CALLER EQ PUSH2 0x1BB1 JUMP JUMPDEST PUSH2 0x4A1 PUSH2 0x1AF9 JUMP JUMPDEST DUP2 MLOAD SWAP4 DUP1 DUP8 PUSH1 0x20 SWAP7 PUSH2 0x4CF DUP9 DUP3 DUP2 PUSH2 0x4C2 DUP2 DUP4 ADD SWAP7 DUP8 DUP2 MLOAD SWAP4 DUP5 SWAP3 ADD PUSH2 0x1BFC JUMP JUMPDEST DUP2 ADD SUB DUP1 DUP5 MSTORE ADD DUP3 PUSH2 0x18CD JUMP JUMPDEST MLOAD SWAP1 KECCAK256 SWAP7 AND SWAP2 DUP3 PUSH2 0x59F JUMPI DUP7 DUP10 MSTORE PUSH1 0x2 DUP7 MSTORE DUP4 DUP10 KECCAK256 SLOAD SWAP5 DUP6 ISZERO PUSH2 0x55D JUMPI POP DUP9 DUP1 DUP7 DUP2 SWAP5 DUP3 SWAP5 DUP12 DUP5 MSTORE PUSH1 0x2 DUP12 MSTORE DUP4 DUP10 DUP2 KECCAK256 SSTORE AND DUP3 CALL ISZERO PUSH2 0x553 JUMPI PUSH2 0x545 PUSH32 0xA5ECD7CF58F2F1E36E387C6442F5DEA0A47926654ED49E6D1D9EB06D04064244 SWAP6 SWAP7 JUMPDEST PUSH1 0x60 DUP5 MLOAD SWAP7 DUP8 SWAP7 DUP8 MSTORE DUP7 ADD MSTORE PUSH1 0x60 DUP6 ADD SWAP1 PUSH2 0x1CAF JUMP JUMPDEST SWAP2 DUP4 ADD MSTORE SUB SWAP1 LOG2 PUSH1 0x1 DUP1 SSTORE DUP1 RETURN JUMPDEST DUP2 MLOAD RETURNDATASIZE DUP9 DUP3 RETURNDATACOPY RETURNDATASIZE SWAP1 REVERT JUMPDEST PUSH1 0x64 SWAP1 DUP8 DUP7 MLOAD SWAP2 PUSH3 0x461BCD PUSH1 0xE5 SHL DUP4 MSTORE DUP3 ADD MSTORE PUSH1 0x1E PUSH1 0x24 DUP3 ADD MSTORE PUSH32 0x4E6F20455448206465706F73697420666F722074686973207365637265740000 PUSH1 0x44 DUP3 ADD MSTORE REVERT JUMPDEST SWAP1 POP DUP6 DUP9 MSTORE PUSH1 0x3 DUP6 MSTORE DUP3 DUP9 KECCAK256 DUP3 DUP10 MSTORE DUP6 MSTORE DUP3 DUP9 KECCAK256 SLOAD SWAP4 DUP5 ISZERO PUSH2 0x699 JUMPI DUP7 DUP10 MSTORE PUSH1 0x3 DUP7 MSTORE DUP4 DUP10 KECCAK256 DUP4 DUP11 MSTORE DUP7 MSTORE DUP4 DUP10 KECCAK256 DUP10 SWAP1 SSTORE DUP4 MLOAD PUSH32 0xA9059CBB00000000000000000000000000000000000000000000000000000000 DUP2 MSTORE PUSH20 0xFFFFFFFFFFFFFFFFFFFFFFFFFFFFFFFFFFFFFFFF SWAP1 SWAP3 AND SWAP1 DUP3 ADD SWAP1 DUP2 MSTORE PUSH1 0x20 DUP2 ADD DUP6 SWAP1 MSTORE DUP6 SWAP1 DUP3 SWAP1 DUP2 SWAP1 PUSH1 0x40 ADD SUB DUP2 DUP12 DUP7 GAS CALL DUP1 ISZERO PUSH2 0x68F JUMPI SWAP7 PUSH2 0x545 SWAP2 PUSH32 0xA5ECD7CF58F2F1E36E387C6442F5DEA0A47926654ED49E6D1D9EB06D04064244 SWAP8 SWAP9 PUSH2 0x662 JUMPI JUMPDEST POP PUSH2 0x52F JUMP JUMPDEST PUSH2 0x681 SWAP1 DUP8 RETURNDATASIZE DUP10 GT PUSH2 0x688 JUMPI JUMPDEST PUSH2 0x679 DUP2 DUP4 PUSH2 0x18CD JUMP JUMPDEST DUP2 ADD SWAP1 PUSH2 0x1B99 JUMP JUMPDEST POP CODESIZE PUSH2 0x65C JUMP JUMPDEST POP RETURNDATASIZE PUSH2 0x66F JUMP JUMPDEST DUP4 MLOAD RETURNDATASIZE DUP11 DUP3 RETURNDATACOPY RETURNDATASIZE SWAP1 REVERT JUMPDEST PUSH1 0x64 SWAP1 DUP7 DUP1 DUP7 MLOAD SWAP3 PUSH3 0x461BCD PUSH1 0xE5 SHL DUP5 MSTORE DUP4 ADD MSTORE PUSH1 0x24 DUP3 ADD MSTORE PUSH32 0x4E6F20546F6B656E206465706F73697420666F72207468697320736563726574 PUSH1 0x44 DUP3 ADD MSTORE REVERT JUMPDEST DUP6 DUP1 REVERT JUMPDEST DUP5 DUP1 REVERT JUMPDEST POP DUP3 SWAP1 CALLVALUE PUSH2 0x3CD JUMPI DUP1 PUSH1 0x3 NOT CALLDATASIZE ADD SLT PUSH2 0x3CD JUMPI POP PUSH20 0xFFFFFFFFFFFFFFFFFFFFFFFFFFFFFFFFFFFFFFFF PUSH1 0x20 SWAP3 SLOAD AND SWAP1 MLOAD SWAP1 DUP2 MSTORE RETURN JUMPDEST POP CALLVALUE PUSH2 0x3CD JUMPI PUSH1 0x20 PUSH1 0x3 NOT CALLDATASIZE ADD SLT PUSH2 0x3CD JUMPI PUSH20 0xFFFFFFFFFFFFFFFFFFFFFFFFFFFFFFFFFFFFFFFF PUSH2 0x746 PUSH2 0x19EF JUMP JUMPDEST PUSH2 0x74E PUSH2 0x1A58 JUMP JUMPDEST AND PUSH32 0xFFFFFFFFFFFFFFFFFFFFFFFF0000000000000000000000000000000000000000 PUSH1 0x8 SLOAD AND OR PUSH1 0x8 SSTORE DUP1 RETURN JUMPDEST POP SWAP2 CALLVALUE PUSH2 0x2C2 JUMPI PUSH1 0x80 PUSH1 0x3 NOT CALLDATASIZE ADD SLT PUSH2 0x2C2 JUMPI PUSH2 0x796 PUSH2 0x19EF JUMP JUMPDEST SWAP3 PUSH1 0x24 DUP1 CALLDATALOAD SWAP4 PUSH8 0xFFFFFFFFFFFFFFFF SWAP5 DUP6 DUP2 GT PUSH2 0xBEE JUMPI CALLDATASIZE PUSH1 0x23 DUP3 ADD SLT ISZERO PUSH2 0xBEE JUMPI DUP1 DUP3 ADD CALLDATALOAD SWAP2 DUP7 DUP4 GT PUSH2 0x6DE JUMPI DUP4 DUP3 ADD SWAP2 DUP5 DUP5 CALLDATASIZE SWAP3 ADD ADD GT PUSH2 0x6DE JUMPI PUSH1 0x44 SWAP3 DUP4 CALLDATALOAD PUSH1 0x64 SWAP2 DUP3 CALLDATALOAD SWAP11 PUSH20 0xFFFFFFFFFFFFFFFFFFFFFFFFFFFFFFFFFFFFFFFF SWAP1 PUSH2 0x803 DUP3 PUSH1 0xC SLOAD AND CALLER EQ PUSH2 0x1BB1 JUMP JUMPDEST PUSH2 0x80B PUSH2 0x1AF9 JUMP JUMPDEST DUP13 DUP11 MSTORE PUSH1 0x20 SWAP12 PUSH1 0x2 DUP14 MSTORE DUP12 DUP12 KECCAK256 SLOAD SWAP4 PUSH2 0x82D PUSH2 0x827 GAS GASPRICE PUSH2 0x1DF4 JUMP JUMPDEST DUP8 PUSH2 0x1ABD JUMP JUMPDEST SWAP9 DUP10 DUP7 LT PUSH2 0xBAC JUMPI DUP2 PUSH2 0x9FD JUMPI POP POP POP DUP4 SELFBALANCE LT PUSH2 0x9BC JUMPI DUP10 DUP1 DUP6 DUP2 SWAP5 DUP3 SWAP5 AND GAS CALL PUSH2 0x856 PUSH2 0x1E5F JUMP JUMPDEST POP ISZERO PUSH2 0x955 JUMPI DUP2 PUSH2 0x86E PUSH2 0x884 SWAP4 PUSH2 0x874 SWAP4 JUMPDEST PUSH2 0x1E07 JUMP JUMPDEST SWAP6 PUSH2 0x1E07 JUMP JUMPDEST PUSH2 0x87E GAS GASPRICE PUSH2 0x1DF4 JUMP JUMPDEST SWAP1 PUSH2 0x1E07 JUMP JUMPDEST SWAP4 PUSH2 0x2710 PUSH2 0x894 PUSH1 0xD SLOAD DUP8 PUSH2 0x1DF4 JUMP JUMPDEST DIV SWAP6 PUSH2 0x8A0 DUP8 DUP8 PUSH2 0x1ABD JUMP JUMPDEST DUP6 LT PUSH2 0x8F1 JUMPI POP POP POP POP SWAP3 DUP1 PUSH2 0x8D5 DUP5 DUP5 DUP11 PUSH2 0x8C5 DUP6 SWAP9 PUSH2 0x869 DUP8 SWAP10 PUSH2 0x8E6 SWAP13 PUSH2 0x1E07 JUMP JUMPDEST SWAP1 DUP6 MSTORE PUSH1 0x2 DUP12 MSTORE DUP10 DUP6 KECCAK256 SSTORE PUSH2 0x1ABD JUMP JUMPDEST CALLER GAS CALL PUSH2 0x8E0 PUSH2 0x1E5F JUMP JUMPDEST POP PUSH2 0x1E8F JUMP JUMPDEST PUSH1 0x1 DUP1 SSTORE MLOAD PUSH1 0x1 DUP2 MSTORE RETURN JUMPDEST SWAP2 PUSH32 0x496E73756666696369656E742062616C616E636520666F722067617320616E64 PUSH32 0x2066656500000000000000000000000000000000000000000000000000000000 SWAP3 PUSH1 0x84 SWAP6 SWAP5 DUP13 DUP13 MLOAD SWAP7 PUSH3 0x461BCD PUSH1 0xE5 SHL DUP9 MSTORE DUP8 ADD MSTORE DUP1 DUP7 ADD MSTORE DUP5 ADD MSTORE DUP3 ADD MSTORE REVERT JUMPDEST POP POP SWAP1 PUSH32 0x6563697069656E74206D61792068617665207265766572746564000000000000 PUSH1 0x84 SWAP3 PUSH32 0x416464726573733A20756E61626C6520746F2073656E642076616C75652C2072 DUP7 PUSH1 0x3A DUP10 DUP14 DUP14 MLOAD SWAP8 PUSH3 0x461BCD PUSH1 0xE5 SHL DUP10 MSTORE DUP9 ADD MSTORE DUP7 ADD MSTORE DUP5 ADD MSTORE DUP3 ADD MSTORE REVERT JUMPDEST POP POP DUP3 DUP5 PUSH32 0x416464726573733A20696E73756666696369656E742062616C616E6365000000 DUP9 PUSH1 0x1D DUP12 DUP16 DUP16 MLOAD SWAP6 PUSH3 0x461BCD PUSH1 0xE5 SHL DUP8 MSTORE DUP7 ADD MSTORE DUP5 ADD MSTORE DUP3 ADD MSTORE REVERT JUMPDEST SWAP2 SWAP4 POP SWAP1 DUP6 PUSH2 0xAAC JUMPI PUSH2 0xA11 SWAP2 CALLDATASIZE SWAP2 PUSH2 0x1977 JUMP JUMPDEST DUP12 MLOAD SWAP3 DUP4 DUP14 ADD SWAP1 DUP2 GT DUP5 DUP3 LT OR PUSH2 0xA81 JUMPI SWAP4 PUSH2 0xA7B DUP7 SWAP5 DUP16 SWAP5 DUP16 DUP16 PUSH2 0x884 SWAP11 SWAP7 PUSH2 0x86E SWAP9 PUSH2 0x874 SWAP12 DUP4 SWAP5 MSTORE PUSH1 0x1E DUP7 MSTORE PUSH32 0x416464726573733A206C6F772D6C6576656C2063616C6C206661696C65640000 DUP2 DUP8 ADD MSTORE DUP2 MLOAD SWAP2 ADD DUP3 DUP6 GAS CALL PUSH2 0xA75 PUSH2 0x1E5F JUMP JUMPDEST SWAP2 PUSH2 0x1F25 JUMP JUMPDEST POP PUSH2 0x1E07 JUMP JUMPDEST DUP11 DUP13 PUSH1 0x41 DUP11 PUSH32 0x4E487B7100000000000000000000000000000000000000000000000000000000 DUP4 MSTORE MSTORE REVERT JUMPDEST PUSH2 0xAB7 SWAP2 CALLDATASIZE SWAP2 PUSH2 0x1977 JUMP JUMPDEST DUP12 MLOAD SWAP3 PUSH1 0x60 DUP5 ADD SWAP1 DUP2 GT DUP5 DUP3 LT OR PUSH2 0xA81 JUMPI DUP13 MSTORE PUSH1 0x29 DUP4 MSTORE PUSH32 0x416464726573733A206C6F772D6C6576656C2063616C6C20776974682076616C DUP14 DUP5 ADD MSTORE PUSH32 0x7565206661696C65640000000000000000000000000000000000000000000000 DUP13 DUP5 ADD MSTORE DUP5 SELFBALANCE LT PUSH2 0xB46 JUMPI SWAP4 PUSH2 0x874 SWAP4 PUSH2 0xA7B DUP3 SWAP5 DUP16 SWAP5 DUP15 DUP1 DUP11 PUSH2 0x86E SWAP9 PUSH2 0x884 SWAP13 MLOAD SWAP2 ADD DUP9 DUP6 GAS CALL PUSH2 0xA75 PUSH2 0x1E5F JUMP JUMPDEST DUP12 MLOAD PUSH3 0x461BCD PUSH1 0xE5 SHL DUP2 MSTORE DUP1 DUP9 ADD DUP15 SWAP1 MSTORE PUSH1 0x26 DUP2 DUP13 ADD MSTORE PUSH32 0x416464726573733A20696E73756666696369656E742062616C616E636520666F DUP2 DUP12 ADD MSTORE PUSH32 0x722063616C6C0000000000000000000000000000000000000000000000000000 DUP2 DUP9 ADD MSTORE PUSH1 0x84 SWAP1 REVERT JUMPDEST DUP8 DUP16 DUP16 DUP14 DUP16 PUSH1 0x14 SWAP1 DUP15 SWAP5 PUSH32 0x496E73756666696369656E742062616C616E6365000000000000000000000000 SWAP5 MLOAD SWAP6 PUSH3 0x461BCD PUSH1 0xE5 SHL DUP8 MSTORE DUP7 ADD MSTORE DUP5 ADD MSTORE DUP3 ADD MSTORE REVERT JUMPDEST DUP4 DUP1 REVERT JUMPDEST POP DUP3 CALLVALUE PUSH2 0x2FB JUMPI DUP2 PUSH1 0x3 NOT CALLDATASIZE ADD SLT PUSH2 0x2FB JUMPI PUSH20 0xFFFFFFFFFFFFFFFFFFFFFFFFFFFFFFFFFFFFFFFF PUSH1 0x20 SWAP3 SLOAD AND SWAP1 MLOAD SWAP1 DUP2 MSTORE RETURN JUMPDEST POP DUP3 CALLVALUE PUSH2 0x2FB JUMPI DUP2 PUSH1 0x3 NOT CALLDATASIZE ADD SLT PUSH2 0x2FB JUMPI PUSH1 0x20 SWAP1 PUSH20 0xFFFFFFFFFFFFFFFFFFFFFFFFFFFFFFFFFFFFFFFF PUSH1 0x6 SLOAD AND SWAP1 MLOAD SWAP1 DUP2 MSTORE RETURN JUMPDEST POP DUP3 CALLVALUE PUSH2 0x2FB JUMPI DUP2 PUSH1 0x3 NOT CALLDATASIZE ADD SLT PUSH2 0x2FB JUMPI PUSH1 0x20 SWAP1 PUSH1 0xD SLOAD SWAP1 MLOAD SWAP1 DUP2 MSTORE RETURN JUMPDEST POP DUP3 CALLVALUE PUSH2 0x2FB JUMPI PUSH1 0x60 PUSH1 0x3 NOT CALLDATASIZE ADD SLT PUSH2 0x2FB JUMPI PUSH2 0xC94 PUSH2 0x19EF JUMP JUMPDEST SWAP1 PUSH1 0x24 CALLDATALOAD SWAP2 PUSH2 0xCA1 PUSH2 0x1AF9 JUMP JUMPDEST PUSH20 0xFFFFFFFFFFFFFFFFFFFFFFFFFFFFFFFFFFFFFFFF DUP1 SWAP2 AND SWAP1 DUP2 ISZERO PUSH2 0xE3B JUMPI PUSH2 0xCCB DUP5 ISZERO ISZERO PUSH2 0x1B4E JUMP JUMPDEST DUP1 DUP7 SLOAD AND DUP3 EQ SWAP1 DUP2 ISZERO PUSH2 0xE2D JUMPI JUMPDEST DUP2 ISZERO PUSH2 0xE1F JUMPI JUMPDEST DUP2 ISZERO PUSH2 0xE11 JUMPI JUMPDEST POP ISZERO PUSH2 0xDCE JUMPI DUP2 MLOAD SWAP5 PUSH32 0x23B872DD00000000000000000000000000000000000000000000000000000000 DUP7 MSTORE CALLER DUP2 DUP8 ADD MSTORE ADDRESS PUSH1 0x24 DUP8 ADD MSTORE DUP4 PUSH1 0x44 DUP8 ADD MSTORE PUSH1 0x20 SWAP6 DUP7 DUP2 PUSH1 0x64 DUP2 DUP10 DUP8 GAS CALL SWAP1 DUP2 ISZERO PUSH2 0xDC4 JUMPI DUP7 SWAP2 PUSH2 0xDA7 JUMPI JUMPDEST POP ISZERO PUSH2 0xD65 JUMPI POP PUSH2 0x360 SWAP3 SWAP4 SWAP5 PUSH1 0x44 CALLDATALOAD DUP7 MSTORE PUSH1 0x3 DUP2 MSTORE DUP3 DUP7 KECCAK256 SWAP2 DUP7 MSTORE MSTORE DUP4 KECCAK256 SWAP2 DUP3 SLOAD PUSH2 0x1ABD JUMP JUMPDEST PUSH1 0x64 SWAP1 DUP7 DUP5 MLOAD SWAP2 PUSH3 0x461BCD PUSH1 0xE5 SHL DUP4 MSTORE DUP3 ADD MSTORE PUSH1 0x15 PUSH1 0x24 DUP3 ADD MSTORE PUSH32 0x546F6B656E207472616E73666572206661696C65640000000000000000000000 PUSH1 0x44 DUP3 ADD MSTORE REVERT JUMPDEST PUSH2 0xDBE SWAP2 POP DUP8 RETURNDATASIZE DUP10 GT PUSH2 0x688 JUMPI PUSH2 0x679 DUP2 DUP4 PUSH2 0x18CD JUMP JUMPDEST DUP8 PUSH2 0xD3E JUMP JUMPDEST DUP5 MLOAD RETURNDATASIZE DUP9 DUP3 RETURNDATACOPY RETURNDATASIZE SWAP1 REVERT JUMPDEST PUSH1 0x64 DUP6 PUSH1 0x20 DUP5 MLOAD SWAP2 PUSH3 0x461BCD PUSH1 0xE5 SHL DUP4 MSTORE DUP3 ADD MSTORE PUSH1 0x13 PUSH1 0x24 DUP3 ADD MSTORE PUSH32 0x546F6B656E206E6F7420737570706F7274656400000000000000000000000000 PUSH1 0x44 DUP3 ADD MSTORE REVERT JUMPDEST SWAP1 POP PUSH1 0x7 SLOAD AND DUP2 EQ DUP7 PUSH2 0xCE7 JUMP JUMPDEST PUSH1 0x6 SLOAD DUP2 AND DUP4 EQ SWAP2 POP PUSH2 0xCE0 JUMP JUMPDEST PUSH1 0x5 SLOAD DUP2 AND DUP4 EQ SWAP2 POP PUSH2 0xCD9 JUMP JUMPDEST PUSH1 0x64 DUP7 PUSH1 0x20 DUP6 MLOAD SWAP2 PUSH3 0x461BCD PUSH1 0xE5 SHL DUP4 MSTORE DUP3 ADD MSTORE PUSH1 0x19 PUSH1 0x24 DUP3 ADD MSTORE PUSH32 0x546F6B656E20616464726573732063616E6E6F74206265203000000000000000 PUSH1 0x44 DUP3 ADD MSTORE REVERT JUMPDEST POP CALLVALUE PUSH2 0x3CD JUMPI DUP1 PUSH1 0x3 NOT CALLDATASIZE ADD SLT PUSH2 0x3CD JUMPI PUSH2 0xE97 PUSH2 0x1A58 JUMP JUMPDEST DUP1 PUSH20 0xFFFFFFFFFFFFFFFFFFFFFFFFFFFFFFFFFFFFFFFF DUP2 SLOAD PUSH32 0xFFFFFFFFFFFFFFFFFFFFFFFF0000000000000000000000000000000000000000 DUP2 AND DUP4 SSTORE AND PUSH32 0x8BE0079C531659141344CD1FD0A4F28419497F9722A3DAAFE3B4186F6B6457E0 DUP3 DUP1 LOG3 DUP1 RETURN JUMPDEST POP DUP3 CALLVALUE PUSH2 0x2FB JUMPI DUP2 PUSH1 0x3 NOT CALLDATASIZE ADD SLT PUSH2 0x2FB JUMPI PUSH1 0x20 SWAP1 MLOAD PUSH2 0x1F4 DUP2 MSTORE RETURN JUMPDEST POP CALLVALUE PUSH2 0x3CD JUMPI PUSH1 0x20 PUSH1 0x3 NOT CALLDATASIZE ADD SLT PUSH2 0x3CD JUMPI PUSH20 0xFFFFFFFFFFFFFFFFFFFFFFFFFFFFFFFFFFFFFFFF PUSH2 0xF48 PUSH2 0x19EF JUMP JUMPDEST PUSH2 0xF50 PUSH2 0x1A58 JUMP JUMPDEST AND PUSH32 0xFFFFFFFFFFFFFFFFFFFFFFFF0000000000000000000000000000000000000000 PUSH1 0xC SLOAD AND OR PUSH1 0xC SSTORE DUP1 RETURN JUMPDEST POP DUP3 CALLVALUE PUSH2 0x2FB JUMPI DUP1 PUSH1 0x3 NOT CALLDATASIZE ADD SLT PUSH2 0x2FB JUMPI DUP1 PUSH1 0x20 SWAP3 PUSH2 0xF9B PUSH2 0x19EF JUMP JUMPDEST PUSH1 0x24 CALLDATALOAD DUP3 MSTORE PUSH1 0x3 DUP6 MSTORE PUSH20 0xFFFFFFFFFFFFFFFFFFFFFFFFFFFFFFFFFFFFFFFF DUP4 DUP4 KECCAK256 SWAP2 AND DUP3 MSTORE DUP5 MSTORE KECCAK256 SLOAD SWAP1 MLOAD SWAP1 DUP2 MSTORE RETURN JUMPDEST POP SWAP1 CALLVALUE PUSH2 0x2FB JUMPI PUSH1 0x80 PUSH1 0x3 NOT CALLDATASIZE ADD SLT PUSH2 0x2FB JUMPI PUSH2 0xFE6 PUSH2 0x19EF JUMP JUMPDEST SWAP1 PUSH2 0xFEF PUSH2 0x1A35 JUMP JUMPDEST SWAP1 PUSH2 0xFF8 PUSH2 0x19CC JUMP JUMPDEST SWAP1 PUSH2 0x1001 PUSH2 0x1A12 JUMP JUMPDEST SWAP2 PUSH2 0x100A PUSH2 0x1A58 JUMP JUMPDEST PUSH20 0xFFFFFFFFFFFFFFFFFFFFFFFFFFFFFFFFFFFFFFFF DUP1 SWAP5 DUP2 SWAP4 DUP3 PUSH32 0xFFFFFFFFFFFFFFFFFFFFFFFF0000000000000000000000000000000000000000 SWAP9 AND DUP9 DUP3 SLOAD AND OR SWAP1 SSTORE AND DUP6 PUSH1 0x5 SLOAD AND OR PUSH1 0x5 SSTORE AND DUP4 PUSH1 0x6 SLOAD AND OR PUSH1 0x6 SSTORE AND SWAP1 PUSH1 0x7 SLOAD AND OR PUSH1 0x7 SSTORE DUP1 RETURN JUMPDEST POP DUP3 CALLVALUE PUSH2 0x2FB JUMPI DUP2 PUSH1 0x3 NOT CALLDATASIZE ADD SLT PUSH2 0x2FB JUMPI PUSH1 0x20 SWAP1 PUSH20 0xFFFFFFFFFFFFFFFFFFFFFFFFFFFFFFFFFFFFFFFF PUSH1 0x7 SLOAD AND SWAP1 MLOAD SWAP1 DUP2 MSTORE RETURN JUMPDEST POP DUP3 CALLVALUE PUSH2 0x2FB JUMPI DUP2 PUSH1 0x3 NOT CALLDATASIZE ADD SLT PUSH2 0x2FB JUMPI PUSH1 0x20 SWAP1 PUSH20 0xFFFFFFFFFFFFFFFFFFFFFFFFFFFFFFFFFFFFFFFF PUSH1 0xA SLOAD AND SWAP1 MLOAD SWAP1 DUP2 MSTORE RETURN JUMPDEST POP CALLVALUE PUSH2 0x3CD JUMPI PUSH1 0x20 PUSH1 0x3 NOT CALLDATASIZE ADD SLT PUSH2 0x3CD JUMPI PUSH20 0xFFFFFFFFFFFFFFFFFFFFFFFFFFFFFFFFFFFFFFFF PUSH2 0x1108 PUSH2 0x19EF JUMP JUMPDEST PUSH2 0x1110 PUSH2 0x1A58 JUMP JUMPDEST AND PUSH32 0xFFFFFFFFFFFFFFFFFFFFFFFF0000000000000000000000000000000000000000 PUSH1 0xB SLOAD AND OR PUSH1 0xB SSTORE DUP1 RETURN JUMPDEST POP CALLVALUE PUSH2 0x3CD JUMPI PUSH1 0x20 PUSH1 0x3 NOT CALLDATASIZE ADD SLT PUSH2 0x3CD JUMPI PUSH20 0xFFFFFFFFFFFFFFFFFFFFFFFFFFFFFFFFFFFFFFFF PUSH2 0x116C PUSH2 0x19EF JUMP JUMPDEST PUSH2 0x1174 PUSH2 0x1A58 JUMP JUMPDEST AND PUSH32 0xFFFFFFFFFFFFFFFFFFFFFFFF0000000000000000000000000000000000000000 PUSH1 0xA SLOAD AND OR PUSH1 0xA SSTORE DUP1 RETURN JUMPDEST POP SWAP2 SWAP1 CALLVALUE PUSH2 0x2C2 JUMPI PUSH1 0x20 PUSH1 0x3 NOT CALLDATASIZE ADD SLT PUSH2 0x2C2 JUMPI PUSH1 0x20 SWAP3 DUP3 SWAP2 CALLDATALOAD DUP2 MSTORE PUSH1 0x2 DUP5 MSTORE KECCAK256 SLOAD SWAP1 MLOAD SWAP1 DUP2 MSTORE RETURN JUMPDEST POP SWAP2 SWAP1 CALLVALUE PUSH2 0x2C2 JUMPI PUSH1 0x20 PUSH1 0x3 NOT CALLDATASIZE ADD SLT PUSH2 0x2C2 JUMPI DUP1 CALLDATALOAD SWAP2 PUSH2 0x11E9 PUSH2 0x1A58 JUMP JUMPDEST PUSH2 0x1F4 DUP4 GT PUSH2 0x11FA JUMPI POP POP PUSH1 0xD SSTORE DUP1 RETURN JUMPDEST SWAP1 PUSH1 0x20 PUSH1 0x84 SWAP3 MLOAD SWAP2 PUSH3 0x461BCD PUSH1 0xE5 SHL DUP4 MSTORE DUP3 ADD MSTORE PUSH1 0x26 PUSH1 0x24 DUP3 ADD MSTORE PUSH32 0x4E65772072656C61796572206665652070657263656E7461676520697320746F PUSH1 0x44 DUP3 ADD MSTORE PUSH32 0x6F20686967680000000000000000000000000000000000000000000000000000 PUSH1 0x64 DUP3 ADD MSTORE REVERT JUMPDEST POP DUP3 CALLVALUE PUSH2 0x2FB JUMPI DUP2 PUSH1 0x3 NOT CALLDATASIZE ADD SLT PUSH2 0x2FB JUMPI PUSH1 0x20 SWAP1 PUSH20 0xFFFFFFFFFFFFFFFFFFFFFFFFFFFFFFFFFFFFFFFF PUSH1 0xB SLOAD AND SWAP1 MLOAD SWAP1 DUP2 MSTORE RETURN JUMPDEST POP SWAP2 CALLVALUE PUSH2 0x2C2 JUMPI PUSH1 0xA0 PUSH1 0x3 NOT CALLDATASIZE ADD SLT PUSH2 0x2C2 JUMPI PUSH2 0x12B3 PUSH2 0x19EF JUMP JUMPDEST SWAP1 PUSH1 0x24 CALLDATALOAD SWAP1 PUSH1 0x44 CALLDATALOAD PUSH8 0xFFFFFFFFFFFFFFFF DUP2 GT PUSH2 0x6DA JUMPI PUSH2 0x12D7 SWAP1 CALLDATASIZE SWAP1 DUP7 ADD PUSH2 0x19AE JUMP JUMPDEST SWAP2 PUSH2 0x12E0 PUSH2 0x1A12 JUMP JUMPDEST SWAP1 PUSH1 0x84 CALLDATALOAD SWAP5 PUSH20 0xFFFFFFFFFFFFFFFFFFFFFFFFFFFFFFFFFFFFFFFF PUSH2 0x1309 DUP2 PUSH1 0xC SLOAD AND CALLER EQ PUSH2 0x1BB1 JUMP JUMPDEST PUSH2 0x1311 PUSH2 0x1AF9 JUMP JUMPDEST DUP7 GAS SWAP5 DUP11 DUP2 PUSH2 0x1320 DUP9 GASPRICE PUSH2 0x1DF4 JUMP JUMPDEST SWAP10 DUP6 PUSH1 0x8 SLOAD AND SWAP1 DUP14 PUSH2 0x135E DUP13 MLOAD SWAP15 DUP16 SWAP6 DUP7 SWAP5 DUP6 SWAP5 PUSH32 0x7276069D00000000000000000000000000000000000000000000000000000000 DUP7 MSTORE DUP6 ADD PUSH2 0x1CF2 JUMP JUMPDEST SUB SWAP2 GAS STATICCALL SWAP8 DUP9 ISZERO PUSH2 0x1640 JUMPI DUP12 DUP1 SWAP10 DUP2 SWAP1 PUSH2 0x15FA JUMPI JUMPDEST DUP11 SWAP12 POP SWAP3 DUP11 SWAP5 SWAP3 DUP11 DUP8 SWAP6 SWAP4 PUSH2 0x1399 SWAP12 SWAP11 SWAP10 SWAP9 SWAP5 PUSH1 0x20 SWAP13 DUP2 DUP15 DUP1 DUP1 SWAP5 MLOAD DUP4 ADD ADD SWAP2 ADD PUSH2 0x1D2A JUMP JUMPDEST SWAP7 AND SWAP9 MLOAD SWAP16 ADD SWAP15 DUP16 KECCAK256 DUP2 MSTORE PUSH1 0x2 DUP13 MSTORE KECCAK256 SLOAD LT PUSH2 0x15B8 JUMPI SWAP1 PUSH2 0x13C1 DUP5 PUSH2 0x13C7 SWAP5 SWAP4 AND DUP7 EQ PUSH2 0x1D5E JUMP JUMPDEST EQ PUSH2 0x1DA9 JUMP JUMPDEST DUP8 MLOAD DUP10 KECCAK256 DUP12 MSTORE PUSH1 0x3 DUP7 MSTORE DUP7 DUP12 KECCAK256 SWAP3 AND SWAP2 DUP3 DUP12 MSTORE DUP6 MSTORE DUP3 DUP7 DUP12 KECCAK256 SLOAD LT PUSH2 0x1576 JUMPI SWAP2 DUP5 SWAP2 PUSH2 0x1467 SWAP4 DUP9 MLOAD DUP11 KECCAK256 DUP13 MSTORE PUSH1 0x3 DUP5 MSTORE DUP8 DUP13 KECCAK256 DUP3 DUP14 MSTORE DUP5 MSTORE DUP8 DUP13 KECCAK256 PUSH2 0x140D DUP5 DUP3 SLOAD PUSH2 0x1E07 JUMP JUMPDEST SWAP1 SSTORE DUP12 DUP12 DUP10 MLOAD SWAP7 DUP8 SWAP6 DUP7 SWAP5 DUP6 SWAP4 PUSH32 0xA9059CBB00000000000000000000000000000000000000000000000000000000 DUP6 MSTORE DUP5 ADD PUSH1 0x20 SWAP1 SWAP4 SWAP3 SWAP2 SWAP4 PUSH20 0xFFFFFFFFFFFFFFFFFFFFFFFFFFFFFFFFFFFFFFFF PUSH1 0x40 DUP3 ADD SWAP6 AND DUP2 MSTORE ADD MSTORE JUMP JUMPDEST SUB SWAP3 GAS CALL DUP1 ISZERO PUSH2 0x156C JUMPI SWAP1 PUSH2 0x148E SWAP3 SWAP2 PUSH2 0x154F JUMPI JUMPDEST POP PUSH2 0x1489 GASPRICE SWAP2 GAS SWAP1 PUSH2 0x1E07 JUMP JUMPDEST PUSH2 0x1DF4 JUMP JUMPDEST SWAP4 PUSH2 0x2710 PUSH2 0x149E PUSH1 0xD SLOAD DUP8 PUSH2 0x1DF4 JUMP JUMPDEST DIV SWAP6 DUP5 MLOAD DUP3 KECCAK256 DUP9 MSTORE PUSH1 0x2 DUP4 MSTORE DUP4 DUP9 KECCAK256 SLOAD PUSH2 0x14B8 DUP9 DUP9 PUSH2 0x1ABD JUMP JUMPDEST GT PUSH2 0x150D JUMPI DUP8 PUSH2 0x1506 DUP2 DUP1 DUP1 DUP1 PUSH2 0x14F5 DUP14 DUP14 DUP14 PUSH2 0x14EE DUP15 PUSH1 0x2 DUP16 DUP16 PUSH2 0x14DD DUP9 DUP9 PUSH2 0x1ABD JUMP JUMPDEST SWAP6 MLOAD SWAP1 KECCAK256 DUP10 MSTORE MSTORE DUP7 KECCAK256 SWAP2 DUP3 SLOAD PUSH2 0x1E07 JUMP JUMPDEST SWAP1 SSTORE PUSH2 0x1ABD JUMP JUMPDEST CALLER GAS CALL PUSH2 0x1500 PUSH2 0x1E5F JUMP JUMPDEST POP PUSH2 0x1EDA JUMP JUMPDEST PUSH1 0x1 DUP1 SSTORE DUP1 RETURN JUMPDEST PUSH1 0x64 SWAP1 DUP4 DUP6 MLOAD SWAP2 PUSH3 0x461BCD PUSH1 0xE5 SHL DUP4 MSTORE DUP3 ADD MSTORE PUSH1 0x1F PUSH1 0x24 DUP3 ADD MSTORE PUSH32 0x4E6F7420656E6F7567682062616C616E636520666F7220676173207573656400 PUSH1 0x44 DUP3 ADD MSTORE REVERT JUMPDEST PUSH2 0x1565 SWAP1 DUP5 RETURNDATASIZE DUP7 GT PUSH2 0x688 JUMPI PUSH2 0x679 DUP2 DUP4 PUSH2 0x18CD JUMP JUMPDEST POP CODESIZE PUSH2 0x147C JUMP JUMPDEST DUP5 MLOAD RETURNDATASIZE DUP11 DUP3 RETURNDATACOPY RETURNDATASIZE SWAP1 REVERT JUMPDEST PUSH1 0x64 DUP10 DUP7 DUP9 MLOAD SWAP2 PUSH3 0x461BCD PUSH1 0xE5 SHL DUP4 MSTORE DUP3 ADD MSTORE PUSH1 0x18 PUSH1 0x24 DUP3 ADD MSTORE PUSH32 0x4E6F7420656E6F75676820746F6B656E2062616C616E63650000000000000000 PUSH1 0x44 DUP3 ADD MSTORE REVERT JUMPDEST PUSH1 0x64 DUP14 DUP11 DUP13 MLOAD SWAP2 PUSH3 0x461BCD PUSH1 0xE5 SHL DUP4 MSTORE DUP3 ADD MSTORE PUSH1 0x1F PUSH1 0x24 DUP3 ADD MSTORE PUSH32 0x4E6F7420656E6F7567682045544820666F722067617320726571756972656400 PUSH1 0x44 DUP3 ADD MSTORE REVERT JUMPDEST POP SWAP9 POP SWAP2 DUP4 PUSH2 0x1399 SWAP8 SWAP7 SWAP6 SWAP5 SWAP3 PUSH2 0x1624 DUP11 SWAP13 DUP13 RETURNDATASIZE DUP1 SWAP2 DUP4 RETURNDATACOPY PUSH2 0x161C DUP2 DUP4 PUSH2 0x18CD JUMP JUMPDEST DUP2 ADD SWAP1 PUSH2 0x1C61 JUMP JUMPDEST SWAP8 SWAP3 SWAP2 POP POP SWAP13 DUP14 SWAP13 DUP14 SWAP8 SWAP4 SWAP7 POP SWAP4 SWAP8 SWAP9 SWAP10 SWAP11 POP POP SWAP3 SWAP5 POP PUSH2 0x1373 JUMP JUMPDEST DUP8 MLOAD RETURNDATASIZE DUP14 DUP3 RETURNDATACOPY RETURNDATASIZE SWAP1 REVERT JUMPDEST POP SWAP2 SWAP1 CALLVALUE PUSH2 0x2C2 JUMPI PUSH1 0x80 PUSH1 0x3 NOT CALLDATASIZE ADD SLT PUSH2 0x2C2 JUMPI DUP1 CALLDATALOAD SWAP1 PUSH1 0x24 CALLDATALOAD PUSH8 0xFFFFFFFFFFFFFFFF DUP2 GT PUSH2 0x6DE JUMPI PUSH2 0x1680 SWAP1 CALLDATASIZE SWAP1 DUP4 ADD PUSH2 0x19AE JUMP JUMPDEST SWAP2 PUSH2 0x1689 PUSH2 0x19CC JUMP JUMPDEST SWAP2 PUSH1 0x64 CALLDATALOAD SWAP4 PUSH2 0x16FD PUSH20 0xFFFFFFFFFFFFFFFFFFFFFFFFFFFFFFFFFFFFFFFF SWAP6 PUSH2 0x16B6 DUP8 PUSH1 0xC SLOAD AND CALLER EQ PUSH2 0x1BB1 JUMP JUMPDEST PUSH2 0x16BE PUSH2 0x1AF9 JUMP JUMPDEST DUP9 DUP2 GAS SWAP5 DUP9 DUP11 PUSH1 0x8 SLOAD AND SWAP2 DUP13 MLOAD SWAP7 DUP8 SWAP5 DUP6 SWAP4 DUP5 SWAP4 PUSH32 0x7276069D00000000000000000000000000000000000000000000000000000000 DUP6 MSTORE DUP13 DUP6 ADD PUSH2 0x1CF2 JUMP JUMPDEST SUB SWAP2 GAS STATICCALL SWAP7 DUP8 ISZERO PUSH2 0x18C3 JUMPI DUP10 SWAP3 DUP11 SWAP9 PUSH2 0x189B JUMPI JUMPDEST POP SWAP1 DUP2 PUSH2 0x13C1 PUSH2 0x173A SWAP4 PUSH2 0x172F PUSH1 0x20 SWAP12 DUP13 DUP1 DUP3 MLOAD DUP4 ADD ADD SWAP2 ADD PUSH2 0x1D2A JUMP JUMPDEST SWAP4 AND SWAP10 AND DUP10 EQ PUSH2 0x1D5E JUMP JUMPDEST DUP6 DUP2 MLOAD SWAP2 ADD KECCAK256 PUSH2 0x1768 PUSH2 0x1756 PUSH2 0x1750 DUP5 GASPRICE PUSH2 0x1DF4 JUMP JUMPDEST DUP7 PUSH2 0x1E07 JUMP JUMPDEST DUP3 DUP11 MSTORE PUSH1 0x2 DUP9 MSTORE DUP9 DUP11 KECCAK256 SLOAD LT ISZERO PUSH2 0x1E14 JUMP JUMPDEST DUP1 DUP9 MSTORE PUSH1 0x2 DUP7 MSTORE DUP7 DUP9 KECCAK256 SLOAD ISZERO PUSH2 0x1859 JUMPI SWAP1 PUSH2 0x17C0 SWAP2 PUSH2 0x1788 DUP6 ISZERO ISZERO PUSH2 0x1B4E JUMP JUMPDEST DUP1 DUP10 MSTORE PUSH1 0x2 DUP8 MSTORE PUSH2 0x179E DUP6 DUP10 DUP12 KECCAK256 SLOAD LT ISZERO PUSH2 0x1E14 JUMP JUMPDEST DUP9 MSTORE PUSH1 0x2 DUP7 MSTORE DUP7 DUP9 KECCAK256 PUSH2 0x17B2 DUP6 DUP3 SLOAD PUSH2 0x1E07 JUMP JUMPDEST SWAP1 SSTORE PUSH2 0x1489 GASPRICE SWAP2 GAS SWAP1 PUSH2 0x1E07 JUMP JUMPDEST SWAP4 PUSH2 0x2710 PUSH2 0x17D0 PUSH1 0xD SLOAD DUP8 PUSH2 0x1DF4 JUMP JUMPDEST DIV SWAP6 PUSH2 0x17DC DUP8 DUP8 PUSH2 0x1ABD JUMP JUMPDEST DUP5 LT PUSH2 0x1818 JUMPI POP POP POP DUP5 PUSH2 0x14F5 DUP6 DUP6 PUSH2 0x1813 DUP5 DUP1 DUP1 DUP1 DUP1 SWAP12 SWAP11 PUSH2 0x1808 PUSH2 0x1506 SWAP15 PUSH2 0x869 DUP5 SWAP15 DUP6 SWAP15 PUSH2 0x1E07 JUMP JUMPDEST SWAP1 GAS CALL PUSH2 0x8E0 PUSH2 0x1E5F JUMP JUMPDEST PUSH2 0x1ABD JUMP JUMPDEST PUSH1 0x64 SWAP4 POP MLOAD SWAP2 PUSH3 0x461BCD PUSH1 0xE5 SHL DUP4 MSTORE DUP3 ADD MSTORE PUSH1 0x1A PUSH1 0x24 DUP3 ADD MSTORE PUSH32 0x4E6F7420656E6F7567682062616C616E636520666F7220676173000000000000 PUSH1 0x44 DUP3 ADD MSTORE REVERT JUMPDEST PUSH1 0x64 DUP4 DUP8 DUP10 MLOAD SWAP2 PUSH3 0x461BCD PUSH1 0xE5 SHL DUP4 MSTORE DUP3 ADD MSTORE PUSH1 0x19 PUSH1 0x24 DUP3 ADD MSTORE PUSH32 0x436F6D6D69746D656E7420646F6573206E6F7420657869737400000000000000 PUSH1 0x44 DUP3 ADD MSTORE REVERT JUMPDEST PUSH2 0x18B6 SWAP2 SWAP9 POP PUSH2 0x173A SWAP3 SWAP4 POP RETURNDATASIZE DUP1 DUP13 DUP4 RETURNDATACOPY PUSH2 0x161C DUP2 DUP4 PUSH2 0x18CD JUMP JUMPDEST SWAP10 SWAP3 SWAP5 SWAP4 SWAP2 POP PUSH2 0x1711 SWAP1 POP JUMP JUMPDEST DUP9 MLOAD RETURNDATASIZE DUP12 DUP3 RETURNDATACOPY RETURNDATASIZE SWAP1 REVERT JUMPDEST SWAP1 PUSH1 0x1F PUSH32 0xFFFFFFFFFFFFFFFFFFFFFFFFFFFFFFFFFFFFFFFFFFFFFFFFFFFFFFFFFFFFFFE0 SWAP2 ADD AND DUP2 ADD SWAP1 DUP2 LT PUSH8 0xFFFFFFFFFFFFFFFF DUP3 GT OR PUSH2 0x190E JUMPI PUSH1 0x40 MSTORE JUMP JUMPDEST PUSH32 0x4E487B7100000000000000000000000000000000000000000000000000000000 PUSH1 0x0 MSTORE PUSH1 0x41 PUSH1 0x4 MSTORE PUSH1 0x24 PUSH1 0x0 REVERT JUMPDEST PUSH8 0xFFFFFFFFFFFFFFFF DUP2 GT PUSH2 0x190E JUMPI PUSH1 0x1F ADD PUSH32 0xFFFFFFFFFFFFFFFFFFFFFFFFFFFFFFFFFFFFFFFFFFFFFFFFFFFFFFFFFFFFFFE0 AND PUSH1 0x20 ADD SWAP1 JUMP JUMPDEST SWAP3 SWAP2 SWAP3 PUSH2 0x1983 DUP3 PUSH2 0x193D JUMP JUMPDEST SWAP2 PUSH2 0x1991 PUSH1 0x40 MLOAD SWAP4 DUP5 PUSH2 0x18CD JUMP JUMPDEST DUP3 SWAP5 DUP2 DUP5 MSTORE DUP2 DUP4 ADD GT PUSH2 0x3C JUMPI DUP3 DUP2 PUSH1 0x20 SWAP4 DUP5 PUSH1 0x0 SWAP7 ADD CALLDATACOPY ADD ADD MSTORE JUMP JUMPDEST SWAP1 DUP1 PUSH1 0x1F DUP4 ADD SLT ISZERO PUSH2 0x3C JUMPI DUP2 PUSH1 0x20 PUSH2 0x19C9 SWAP4 CALLDATALOAD SWAP2 ADD PUSH2 0x1977 JUMP JUMPDEST SWAP1 JUMP JUMPDEST PUSH1 0x44 CALLDATALOAD SWAP1 PUSH20 0xFFFFFFFFFFFFFFFFFFFFFFFFFFFFFFFFFFFFFFFF DUP3 AND DUP3 SUB PUSH2 0x3C JUMPI JUMP JUMPDEST PUSH1 0x4 CALLDATALOAD SWAP1 PUSH20 0xFFFFFFFFFFFFFFFFFFFFFFFFFFFFFFFFFFFFFFFF DUP3 AND DUP3 SUB PUSH2 0x3C JUMPI JUMP JUMPDEST PUSH1 0x64 CALLDATALOAD SWAP1 PUSH20 0xFFFFFFFFFFFFFFFFFFFFFFFFFFFFFFFFFFFFFFFF DUP3 AND DUP3 SUB PUSH2 0x3C JUMPI JUMP JUMPDEST PUSH1 0x24 CALLDATALOAD SWAP1 PUSH20 0xFFFFFFFFFFFFFFFFFFFFFFFFFFFFFFFFFFFFFFFF DUP3 AND DUP3 SUB PUSH2 0x3C JUMPI JUMP JUMPDEST PUSH20 0xFFFFFFFFFFFFFFFFFFFFFFFFFFFFFFFFFFFFFFFF PUSH1 0x0 SLOAD AND CALLER SUB PUSH2 0x1A79 JUMPI JUMP JUMPDEST PUSH1 0x64 PUSH1 0x40 MLOAD PUSH3 0x461BCD PUSH1 0xE5 SHL DUP2 MSTORE PUSH1 0x20 PUSH1 0x4 DUP3 ADD MSTORE PUSH1 0x20 PUSH1 0x24 DUP3 ADD MSTORE PUSH32 0x4F776E61626C653A2063616C6C6572206973206E6F7420746865206F776E6572 PUSH1 0x44 DUP3 ADD MSTORE REVERT JUMPDEST SWAP2 SWAP1 DUP3 ADD DUP1 SWAP3 GT PUSH2 0x1ACA JUMPI JUMP JUMPDEST PUSH32 0x4E487B7100000000000000000000000000000000000000000000000000000000 PUSH1 0x0 MSTORE PUSH1 0x11 PUSH1 0x4 MSTORE PUSH1 0x24 PUSH1 0x0 REVERT JUMPDEST PUSH1 0x2 PUSH1 0x1 SLOAD EQ PUSH2 0x1B0A JUMPI PUSH1 0x2 PUSH1 0x1 SSTORE JUMP JUMPDEST PUSH1 0x64 PUSH1 0x40 MLOAD PUSH3 0x461BCD PUSH1 0xE5 SHL DUP2 MSTORE PUSH1 0x20 PUSH1 0x4 DUP3 ADD MSTORE PUSH1 0x1F PUSH1 0x24 DUP3 ADD MSTORE PUSH32 0x5265656E7472616E637947756172643A207265656E7472616E742063616C6C00 PUSH1 0x44 DUP3 ADD MSTORE REVERT JUMPDEST ISZERO PUSH2 0x1B55 JUMPI JUMP JUMPDEST PUSH1 0x64 PUSH1 0x40 MLOAD PUSH3 0x461BCD PUSH1 0xE5 SHL DUP2 MSTORE PUSH1 0x20 PUSH1 0x4 DUP3 ADD MSTORE PUSH1 0x20 PUSH1 0x24 DUP3 ADD MSTORE PUSH32 0x416D6F756E74206D7573742062652067726561746572207468616E207A65726F PUSH1 0x44 DUP3 ADD MSTORE REVERT JUMPDEST SWAP1 DUP2 PUSH1 0x20 SWAP2 SUB SLT PUSH2 0x3C JUMPI MLOAD DUP1 ISZERO ISZERO DUP2 SUB PUSH2 0x3C JUMPI SWAP1 JUMP JUMPDEST ISZERO PUSH2 0x1BB8 JUMPI JUMP JUMPDEST PUSH1 0x64 PUSH1 0x40 MLOAD PUSH3 0x461BCD PUSH1 0xE5 SHL DUP2 MSTORE PUSH1 0x20 PUSH1 0x4 DUP3 ADD MSTORE PUSH1 0xB PUSH1 0x24 DUP3 ADD MSTORE PUSH32 0x4E6F742072656C61796572000000000000000000000000000000000000000000 PUSH1 0x44 DUP3 ADD MSTORE REVERT JUMPDEST PUSH1 0x0 JUMPDEST DUP4 DUP2 LT PUSH2 0x1C0F JUMPI POP POP PUSH1 0x0 SWAP2 ADD MSTORE JUMP JUMPDEST DUP2 DUP2 ADD MLOAD DUP4 DUP3 ADD MSTORE PUSH1 0x20 ADD PUSH2 0x1BFF JUMP JUMPDEST DUP2 PUSH1 0x1F DUP3 ADD SLT ISZERO PUSH2 0x3C JUMPI DUP1 MLOAD PUSH2 0x1C35 DUP2 PUSH2 0x193D JUMP JUMPDEST SWAP3 PUSH2 0x1C43 PUSH1 0x40 MLOAD SWAP5 DUP6 PUSH2 0x18CD JUMP JUMPDEST DUP2 DUP5 MSTORE PUSH1 0x20 DUP3 DUP5 ADD ADD GT PUSH2 0x3C JUMPI PUSH2 0x19C9 SWAP2 PUSH1 0x20 DUP1 DUP6 ADD SWAP2 ADD PUSH2 0x1BFC JUMP JUMPDEST SWAP2 PUSH1 0x80 DUP4 DUP4 SUB SLT PUSH2 0x3C JUMPI DUP3 MLOAD SWAP1 PUSH8 0xFFFFFFFFFFFFFFFF SWAP2 DUP3 DUP2 GT PUSH2 0x3C JUMPI DUP4 PUSH2 0x1C8C SWAP2 DUP7 ADD PUSH2 0x1C1F JUMP JUMPDEST SWAP4 PUSH1 0x20 DUP2 ADD MLOAD SWAP4 PUSH1 0x40 DUP3 ADD MLOAD SWAP4 PUSH1 0x60 DUP4 ADD MLOAD SWAP1 DUP2 GT PUSH2 0x3C JUMPI PUSH2 0x19C9 SWAP3 ADD PUSH2 0x1C1F JUMP JUMPDEST SWAP1 PUSH32 0xFFFFFFFFFFFFFFFFFFFFFFFFFFFFFFFFFFFFFFFFFFFFFFFFFFFFFFFFFFFFFFE0 PUSH1 0x1F PUSH1 0x20 SWAP4 PUSH2 0x1CEB DUP2 MLOAD DUP1 SWAP3 DUP2 DUP8 MSTORE DUP8 DUP1 DUP9 ADD SWAP2 ADD PUSH2 0x1BFC JUMP JUMPDEST ADD AND ADD ADD SWAP1 JUMP JUMPDEST PUSH20 0xFFFFFFFFFFFFFFFFFFFFFFFFFFFFFFFFFFFFFFFF PUSH2 0x1D1F PUSH1 0x40 SWAP4 SWAP7 SWAP6 SWAP5 SWAP7 PUSH1 0x60 DUP5 MSTORE PUSH1 0x60 DUP5 ADD SWAP1 PUSH2 0x1CAF JUMP JUMPDEST SWAP6 AND PUSH1 0x20 DUP3 ADD MSTORE ADD MSTORE JUMP JUMPDEST SWAP2 SWAP1 DUP3 PUSH1 0x40 SWAP2 SUB SLT PUSH2 0x3C JUMPI DUP2 MLOAD PUSH20 0xFFFFFFFFFFFFFFFFFFFFFFFFFFFFFFFFFFFFFFFF DUP2 AND DUP2 SUB PUSH2 0x3C JUMPI PUSH1 0x20 SWAP1 SWAP3 ADD MLOAD SWAP1 JUMP JUMPDEST ISZERO PUSH2 0x1D65 JUMPI JUMP JUMPDEST PUSH1 0x64 PUSH1 0x40 MLOAD PUSH3 0x461BCD PUSH1 0xE5 SHL DUP2 MSTORE PUSH1 0x20 PUSH1 0x4 DUP3 ADD MSTORE PUSH1 0x10 PUSH1 0x24 DUP3 ADD MSTORE PUSH32 0x4E6F742053616D65204164647265737300000000000000000000000000000000 PUSH1 0x44 DUP3 ADD MSTORE REVERT JUMPDEST ISZERO PUSH2 0x1DB0 JUMPI JUMP JUMPDEST PUSH1 0x64 PUSH1 0x40 MLOAD PUSH3 0x461BCD PUSH1 0xE5 SHL DUP2 MSTORE PUSH1 0x20 PUSH1 0x4 DUP3 ADD MSTORE PUSH1 0xE PUSH1 0x24 DUP3 ADD MSTORE PUSH32 0x4E6F742053616D65204E6F6E6365000000000000000000000000000000000000 PUSH1 0x44 DUP3 ADD MSTORE REVERT JUMPDEST DUP2 DUP2 MUL SWAP3 SWAP2 DUP2 ISZERO SWAP2 DUP5 DIV EQ OR ISZERO PUSH2 0x1ACA JUMPI JUMP JUMPDEST SWAP2 SWAP1 DUP3 SUB SWAP2 DUP3 GT PUSH2 0x1ACA JUMPI JUMP JUMPDEST ISZERO PUSH2 0x1E1B JUMPI JUMP JUMPDEST PUSH1 0x64 PUSH1 0x40 MLOAD PUSH3 0x461BCD PUSH1 0xE5 SHL DUP2 MSTORE PUSH1 0x20 PUSH1 0x4 DUP3 ADD MSTORE PUSH1 0x12 PUSH1 0x24 DUP3 ADD MSTORE PUSH32 0x4E6F7420656E6F7567682062616C616E63650000000000000000000000000000 PUSH1 0x44 DUP3 ADD MSTORE REVERT JUMPDEST RETURNDATASIZE ISZERO PUSH2 0x1E8A JUMPI RETURNDATASIZE SWAP1 PUSH2 0x1E70 DUP3 PUSH2 0x193D JUMP JUMPDEST SWAP2 PUSH2 0x1E7E PUSH1 0x40 MLOAD SWAP4 DUP5 PUSH2 0x18CD JUMP JUMPDEST DUP3 MSTORE RETURNDATASIZE PUSH1 0x0 PUSH1 0x20 DUP5 ADD RETURNDATACOPY JUMP JUMPDEST PUSH1 0x60 SWAP1 JUMP JUMPDEST ISZERO PUSH2 0x1E96 JUMPI JUMP JUMPDEST PUSH1 0x64 PUSH1 0x40 MLOAD PUSH3 0x461BCD PUSH1 0xE5 SHL DUP2 MSTORE PUSH1 0x20 PUSH1 0x4 DUP3 ADD MSTORE PUSH1 0x13 PUSH1 0x24 DUP3 ADD MSTORE PUSH32 0x455448207472616E73666572206661696C656400000000000000000000000000 PUSH1 0x44 DUP3 ADD MSTORE REVERT JUMPDEST ISZERO PUSH2 0x1EE1 JUMPI JUMP JUMPDEST PUSH1 0x64 PUSH1 0x40 MLOAD PUSH3 0x461BCD PUSH1 0xE5 SHL DUP2 MSTORE PUSH1 0x20 PUSH1 0x4 DUP3 ADD MSTORE PUSH1 0x1C PUSH1 0x24 DUP3 ADD MSTORE PUSH32 0x455448207472616E73666572206661696C656420776974682067617300000000 PUSH1 0x44 DUP3 ADD MSTORE REVERT JUMPDEST SWAP2 SWAP3 SWAP1 ISZERO PUSH2 0x1F86 JUMPI POP DUP2 MLOAD ISZERO PUSH2 0x1F39 JUMPI POP SWAP1 JUMP JUMPDEST EXTCODESIZE ISZERO PUSH2 0x1F42 JUMPI SWAP1 JUMP JUMPDEST PUSH1 0x64 PUSH1 0x40 MLOAD PUSH3 0x461BCD PUSH1 0xE5 SHL DUP2 MSTORE PUSH1 0x20 PUSH1 0x4 DUP3 ADD MSTORE PUSH1 0x1D PUSH1 0x24 DUP3 ADD MSTORE PUSH32 0x416464726573733A2063616C6C20746F206E6F6E2D636F6E7472616374000000 PUSH1 0x44 DUP3 ADD MSTORE REVERT JUMPDEST DUP3 MLOAD SWAP1 SWAP2 POP ISZERO PUSH2 0x1F99 JUMPI POP DUP1 MLOAD SWAP1 PUSH1 0x20 ADD REVERT JUMPDEST PUSH2 0x1FBD SWAP1 PUSH1 0x40 MLOAD SWAP2 DUP3 SWAP2 PUSH3 0x461BCD PUSH1 0xE5 SHL DUP4 MSTORE PUSH1 0x20 PUSH1 0x4 DUP5 ADD MSTORE PUSH1 0x24 DUP4 ADD SWAP1 PUSH2 0x1CAF JUMP JUMPDEST SUB SWAP1 REVERT INVALID LOG2 PUSH5 0x6970667358 0x22 SLT KECCAK256 0xEB PUSH18 0x5ECC42141C86BAA2D9D07A97A4DA1086F449 DUP4 LT 0xEC MSIZE DUP2 0xF9 0x5E 0x5D OR 0xB5 OR LOG0 PUSH5 0x736F6C6343 STOP ADDMOD SGT STOP CALLER "},"gasEstimates":{"creation":{"codeDepositCost":"1636600","executionCost":"infinite","totalCost":"infinite"},"external":{"":"25064","DAI()":"2845","MAX_RELAYER_FEE_PERCENTAGE()":"425","MUSE()":"2449","USDC()":"2625","WETH()":"2715","changeRelayerFee(uint256)":"24498","depositETH(bytes32)":"71343","depositToken(address,uint256,bytes32)":"infinite","execute(address,bytes,uint256,bytes32)":"infinite","factoryContract()":"2823","getEthDeposit(bytes32)":"2421","getTokenDeposit(address,bytes32)":"2680","mecenateBay()":"2427","mecenateUsers()":"2317","owner()":"2644","relayerFeePercentage()":"2597","renounceOwnership()":"28307","setFactoryContract(address)":"27076","setMecenateBay(address)":"26680","setMecenateUsers(address)":"26702","setRelayer(address)":"26812","setTokens(address,address,address,address)":"99641","setVerifierContract(address)":"26988","transferOwnership(address)":"28718","verifierContract()":"2757","withdrawETH(uint256,bytes,address,bytes32)":"infinite","withdrawToken(address,uint256,bytes,address,bytes32)":"infinite","withdrawWithSecret(string,address,bytes,address,bytes32)":"infinite"}},"methodIdentifiers":{"DAI()":"e0bab4c4","MAX_RELAYER_FEE_PERCENTAGE()":"6961b361","MUSE()":"5262712f","USDC()":"89a30271","WETH()":"ad5c4648","changeRelayerFee(uint256)":"17d026e6","depositETH(bytes32)":"d68d9d4e","depositToken(address,uint256,bytes32)":"84abac95","execute(address,bytes,uint256,bytes32)":"9926ad87","factoryContract()":"de11c94a","getEthDeposit(bytes32)":"20491915","getTokenDeposit(address,bytes32)":"5e0cd92f","mecenateBay()":"3f16a3bb","mecenateUsers()":"139e3c54","owner()":"8da5cb5b","relayerFeePercentage()":"85e66df4","renounceOwnership()":"715018a6","setFactoryContract(address)":"d4241341","setMecenateBay(address)":"24ebc145","setMecenateUsers(address)":"2fe4f4c1","setRelayer(address)":"6548e9bc","setTokens(address,address,address,address)":"537820bf","setVerifierContract(address)":"a25da83c","transferOwnership(address)":"f2fde38b","verifierContract()":"cf695688","withdrawETH(uint256,bytes,address,bytes32)":"10d5700e","withdrawToken(address,uint256,bytes,address,bytes32)":"1378f5d9","withdrawWithSecret(string,address,bytes,address,bytes32)":"bda7193a"}},"storageLayout":{"storage":[{"astId":7,"contract":"contracts/MecenateVault.sol:MecenateVault","label":"_owner","offset":0,"slot":"0","type":"t_address"},{"astId":123,"contract":"contracts/MecenateVault.sol:MecenateVault","label":"_status","offset":0,"slot":"1","type":"t_uint256"},{"astId":629,"contract":"contracts/MecenateVault.sol:MecenateVault","label":"ethDeposits","offset":0,"slot":"2","type":"t_mapping(t_bytes32,t_uint256)"},{"astId":635,"contract":"contracts/MecenateVault.sol:MecenateVault","label":"tokenDeposits","offset":0,"slot":"3","type":"t_mapping(t_bytes32,t_mapping(t_address,t_uint256))"},{"astId":637,"contract":"contracts/MecenateVault.sol:MecenateVault","label":"WETH","offset":0,"slot":"4","type":"t_address"},{"astId":639,"contract":"contracts/MecenateVault.sol:MecenateVault","label":"DAI","offset":0,"slot":"5","type":"t_address"},{"astId":641,"contract":"contracts/MecenateVault.sol:MecenateVault","label":"USDC","offset":0,"slot":"6","type":"t_address"},{"astId":643,"contract":"contracts/MecenateVault.sol:MecenateVault","label":"MUSE","offset":0,"slot":"7","type":"t_address"},{"astId":645,"contract":"contracts/MecenateVault.sol:MecenateVault","label":"verifierContract","offset":0,"slot":"8","type":"t_address"},{"astId":647,"contract":"contracts/MecenateVault.sol:MecenateVault","label":"factoryContract","offset":0,"slot":"9","type":"t_address"},{"astId":649,"contract":"contracts/MecenateVault.sol:MecenateVault","label":"mecenateBay","offset":0,"slot":"10","type":"t_address"},{"astId":651,"contract":"contracts/MecenateVault.sol:MecenateVault","label":"mecenateUsers","offset":0,"slot":"11","type":"t_address"},{"astId":653,"contract":"contracts/MecenateVault.sol:MecenateVault","label":"relayer","offset":0,"slot":"12","type":"t_address"},{"astId":656,"contract":"contracts/MecenateVault.sol:MecenateVault","label":"relayerFeePercentage","offset":0,"slot":"13","type":"t_uint256"}],"types":{"t_address":{"encoding":"inplace","label":"address","numberOfBytes":"20"},"t_bytes32":{"encoding":"inplace","label":"bytes32","numberOfBytes":"32"},"t_mapping(t_address,t_uint256)":{"encoding":"mapping","key":"t_address","label":"mapping(address => uint256)","numberOfBytes":"32","value":"t_uint256"},"t_mapping(t_bytes32,t_mapping(t_address,t_uint256))":{"encoding":"mapping","key":"t_bytes32","label":"mapping(bytes32 => mapping(address => uint256))","numberOfBytes":"32","value":"t_mapping(t_address,t_uint256)"},"t_mapping(t_bytes32,t_uint256)":{"encoding":"mapping","key":"t_bytes32","label":"mapping(bytes32 => uint256)","numberOfBytes":"32","value":"t_uint256"},"t_uint256":{"encoding":"inplace","label":"uint256","numberOfBytes":"32"}}},"userdoc":{"kind":"user","methods":{},"version":1}}}}