{"contracts/layer/MecenateSend.sol":{"MecenateSend":{"abi":[{"inputs":[{"internalType":"address","name":"_usersContract","type":"address"}],"stateMutability":"nonpayable","type":"constructor"},{"anonymous":false,"inputs":[{"indexed":true,"internalType":"address","name":"previousOwner","type":"address"},{"indexed":true,"internalType":"address","name":"newOwner","type":"address"}],"name":"OwnershipTransferred","type":"event"},{"inputs":[{"internalType":"address","name":"_usersContract","type":"address"}],"name":"changeUsersContract","outputs":[],"stateMutability":"nonpayable","type":"function"},{"inputs":[{"internalType":"bytes","name":"","type":"bytes"}],"name":"encryptedKeys","outputs":[{"internalType":"bytes","name":"","type":"bytes"}],"stateMutability":"view","type":"function"},{"inputs":[],"name":"fixedFee","outputs":[{"internalType":"uint256","name":"","type":"uint256"}],"stateMutability":"view","type":"function"},{"inputs":[{"internalType":"bytes","name":"pubKey","type":"bytes"}],"name":"getHash","outputs":[{"internalType":"bytes","name":"","type":"bytes"}],"stateMutability":"view","type":"function"},{"inputs":[],"name":"owner","outputs":[{"internalType":"address","name":"","type":"address"}],"stateMutability":"view","type":"function"},{"inputs":[],"name":"renounceOwnership","outputs":[],"stateMutability":"nonpayable","type":"function"},{"inputs":[{"internalType":"bytes","name":"encryptedData","type":"bytes"}],"name":"submitHash","outputs":[],"stateMutability":"payable","type":"function"},{"inputs":[{"internalType":"address","name":"newOwner","type":"address"}],"name":"transferOwnership","outputs":[],"stateMutability":"nonpayable","type":"function"},{"inputs":[{"internalType":"address","name":"newUsersContract","type":"address"}],"name":"updateUsersContract","outputs":[],"stateMutability":"nonpayable","type":"function"},{"inputs":[],"name":"usersContract","outputs":[{"internalType":"address","name":"","type":"address"}],"stateMutability":"view","type":"function"},{"inputs":[{"internalType":"address","name":"_receiver","type":"address"}],"name":"withdrawETH","outputs":[],"stateMutability":"nonpayable","type":"function"}],"devdoc":{"kind":"dev","methods":{"owner()":{"details":"Returns the address of the current owner."},"renounceOwnership()":{"details":"Leaves the contract without owner. It will not be possible to call `onlyOwner` functions. Can only be called by the current owner. NOTE: Renouncing ownership will leave the contract without an owner, thereby disabling any functionality that is only available to the owner."},"transferOwnership(address)":{"details":"Transfers ownership of the contract to a new account (`newOwner`). Can only be called by the current owner."}},"version":1},"evm":{"bytecode":{"linkReferences":{},"object":"6080346100b257601f610c9738819003918201601f19168301916001600160401b038311848410176100b7578084926020946040528339810103126100b257516001600160a01b0390818116908190036100b25760005460018060a01b0319903382821617600055604051933391167f8be0079c531659141344cd1fd0a4f28419497f9722a3daafe3b4186f6b6457e0600080a3662386f26fc100006003556002541617600255610bc990816100ce8239f35b600080fd5b634e487b7160e01b600052604160045260246000fdfe608060408181526004908136101561001657600080fd5b600092833560e01c908163142ebf3c1461081e575080634b78896d1461016b578063505da9e11461078357838163690d8320146107d85750806370962dd214610783578063715018a6146107265780638da5cb5b146106fe5780638f903c79146101e257806391792d5b146101c3578063b00140aa1461016b5763f2fde38b1461009f57600080fd5b34610167576020366003190112610167576001600160a01b03823581811693919290849003610163576100d0610a2d565b831561011157505082546001600160a01b0319811683178455167f8be0079c531659141344cd1fd0a4f28419497f9722a3daafe3b4186f6b6457e08380a380f35b906020608492519162461bcd60e51b8352820152602660248201527f4f776e61626c653a206e6577206f776e657220697320746865207a65726f206160448201526564647265737360d01b6064820152fd5b8480fd5b8280fd5b8382346101bf576101bb906101a8610199602061018736610897565b81855193828580945193849201610905565b81016001815203019020610962565b9051918291602083526020830190610a08565b0390f35b5080fd5b8382346101bf57816003193601126101bf576020906003549051908152f35b50906101ed36610897565b80518101602060a0838284019303126106fa57808301519167ffffffffffffffff928381116106f657818361022492870101610a85565b92868501518181116106f25783928361023f92880101610a85565b9361024c60608701610aca565b9060a061025b60808901610aca565b9701519560018060a01b0380809416981692600254168a519687809263122643f360e21b8252338d8301526024998a915afa9081156106e8578c916106bb575b501561068157846102b48b519283815193849201610905565b8101908581600193848152030190209180519085821161066f578c876102da8654610928565b91601f8311610627575b9150505086908d601f84116001146105c857918394918493946105bd575b50501b916000199060031b1c19161790555b806103c0575050600354928381018091116103ae57341061037b57508134039334851161036a5750508480938193829383903414610361575bf115610357575080f35b51903d90823e3d90fd5b506108fc61034d565b634e487b7160e01b87526011905285fd5b600f606492869288519362461bcd60e51b85528401528201526e57726f6e67204665652056616c756560881b6044820152fd5b634e487b7160e01b8852601186528288fd5b919490929596938451636eb1769f60e11b8152338982015230888201528681604481875afa9081156105b3579082918b9161057e575b501061054557845190868201926323b872dd60e01b84523389840152604483015260648201526064815260a0810193818510818611176105335760e08201908111858210176105335785528584527f5361666545524332303a206c6f772d6c6576656c2063616c6c206661696c656460c0820152516104a49392918991829182855af13d1561052b573d9161048a8361087b565b9261049787519485610843565b83523d8a8885013e610af6565b805190838215928315610513575b505050156104c1575050505080f35b5162461bcd60e51b815292830152602a908201527f5361666545524332303a204552433230206f7065726174696f6e20646964206e6044820152691bdd081cdd58d8d9595960b21b6064820152608490fd5b6105239350820181019101610ade565b3883816104b2565b606091610af6565b634e487b7160e01b8a5260418952878afd5b845162461bcd60e51b8152808901879052601481890152734e6f7420656e6f75676820616c6c6f77616e636560601b6044820152606490fd5b809250888092503d83116105ac575b6105978183610843565b810103126105a857819051386103f6565b8980fd5b503d61058d565b86513d8c823e3d90fd5b015192503880610302565b919083601f1981168785528a8520945b8b8883831061061057505050106105f7575b505050811b019055610314565b015160001960f88460031b161c191690553880806105ea565b8686015188559096019594850194879350016105d8565b86815220601f840160051c810191898510610665575b601f0160051c019084908f5b83821061065a5790508991506102e4565b81550184908f610649565b909150819061063d565b634e487b7160e01b8d5260418b52878dfd5b895162461bcd60e51b8152808a018690526015818801527414d95b99195c881b9bdd081c9959da5cdd195c9959605a1b6044820152606490fd5b6106db9150863d88116106e1575b6106d38183610843565b810190610ade565b3861029b565b503d6106c9565b8b513d8e823e3d90fd5b8880fd5b8780fd5b8580fd5b8382346101bf57816003193601126101bf57905490516001600160a01b039091168152602090f35b833461078057806003193601126107805761073f610a2d565b80546001600160a01b03198116825581906001600160a01b03167f8be0079c531659141344cd1fd0a4f28419497f9722a3daafe3b4186f6b6457e08280a380f35b80fd5b5050346101bf5760203660031901126101bf57356001600160a01b03811681036101bf576107d5906107b3610a2d565b60018060a01b03166bffffffffffffffffffffffff60a01b6002541617600255565b80f35b828185346101bf5760203660031901126101bf57356001600160a01b038116908190036101bf578180809261080b610a2d565b479082821561036157f115610357575080f35b8490346101bf57816003193601126101bf576002546001600160a01b03168152602090f35b90601f8019910116810190811067ffffffffffffffff82111761086557604052565b634e487b7160e01b600052604160045260246000fd5b67ffffffffffffffff811161086557601f01601f191660200190565b60206003198201126109005760043567ffffffffffffffff81116109005781602382011215610900578060040135906108cf8261087b565b926108dd6040519485610843565b828452602483830101116109005781600092602460209301838601378301015290565b600080fd5b60005b8381106109185750506000910152565b8181015183820152602001610908565b90600182811c92168015610958575b602083101461094257565b634e487b7160e01b600052602260045260246000fd5b91607f1691610937565b906040519182600082549261097684610928565b9081845260019485811690816000146109e557506001146109a2575b50506109a092500383610843565b565b9093915060005260209081600020936000915b8183106109cd5750506109a093508201013880610992565b855488840185015294850194879450918301916109b5565b9150506109a094506020925060ff191682840152151560051b8201013880610992565b90602091610a2181518092818552858086019101610905565b601f01601f1916010190565b6000546001600160a01b03163303610a4157565b606460405162461bcd60e51b815260206004820152602060248201527f4f776e61626c653a2063616c6c6572206973206e6f7420746865206f776e65726044820152fd5b81601f82011215610900578051610a9b8161087b565b92610aa96040519485610843565b8184526020828401011161090057610ac79160208085019101610905565b90565b51906001600160a01b038216820361090057565b90816020910312610900575180151581036109005790565b91929015610b585750815115610b0a575090565b3b15610b135790565b60405162461bcd60e51b815260206004820152601d60248201527f416464726573733a2063616c6c20746f206e6f6e2d636f6e74726163740000006044820152606490fd5b825190915015610b6b5750805190602001fd5b60405162461bcd60e51b815260206004820152908190610b8f906024830190610a08565b0390fdfea26469706673582212200a8cb58e1d3a9a1b1d61759506e48ac1f393dc0ef9f3988096ed11ac61ba548e64736f6c63430008130033","opcodes":"PUSH1 0x80 CALLVALUE PUSH2 0xB2 JUMPI PUSH1 0x1F PUSH2 0xC97 CODESIZE DUP2 SWAP1 SUB SWAP2 DUP3 ADD PUSH1 0x1F NOT AND DUP4 ADD SWAP2 PUSH1 0x1 PUSH1 0x1 PUSH1 0x40 SHL SUB DUP4 GT DUP5 DUP5 LT OR PUSH2 0xB7 JUMPI DUP1 DUP5 SWAP3 PUSH1 0x20 SWAP5 PUSH1 0x40 MSTORE DUP4 CODECOPY DUP2 ADD SUB SLT PUSH2 0xB2 JUMPI MLOAD PUSH1 0x1 PUSH1 0x1 PUSH1 0xA0 SHL SUB SWAP1 DUP2 DUP2 AND SWAP1 DUP2 SWAP1 SUB PUSH2 0xB2 JUMPI PUSH1 0x0 SLOAD PUSH1 0x1 DUP1 PUSH1 0xA0 SHL SUB NOT SWAP1 CALLER DUP3 DUP3 AND OR PUSH1 0x0 SSTORE PUSH1 0x40 MLOAD SWAP4 CALLER SWAP2 AND PUSH32 0x8BE0079C531659141344CD1FD0A4F28419497F9722A3DAAFE3B4186F6B6457E0 PUSH1 0x0 DUP1 LOG3 PUSH7 0x2386F26FC10000 PUSH1 0x3 SSTORE PUSH1 0x2 SLOAD AND OR PUSH1 0x2 SSTORE PUSH2 0xBC9 SWAP1 DUP2 PUSH2 0xCE DUP3 CODECOPY RETURN JUMPDEST PUSH1 0x0 DUP1 REVERT JUMPDEST PUSH4 0x4E487B71 PUSH1 0xE0 SHL PUSH1 0x0 MSTORE PUSH1 0x41 PUSH1 0x4 MSTORE PUSH1 0x24 PUSH1 0x0 REVERT INVALID PUSH1 0x80 PUSH1 0x40 DUP2 DUP2 MSTORE PUSH1 0x4 SWAP1 DUP2 CALLDATASIZE LT ISZERO PUSH2 0x16 JUMPI PUSH1 0x0 DUP1 REVERT JUMPDEST PUSH1 0x0 SWAP3 DUP4 CALLDATALOAD PUSH1 0xE0 SHR SWAP1 DUP2 PUSH4 0x142EBF3C EQ PUSH2 0x81E JUMPI POP DUP1 PUSH4 0x4B78896D EQ PUSH2 0x16B JUMPI DUP1 PUSH4 0x505DA9E1 EQ PUSH2 0x783 JUMPI DUP4 DUP2 PUSH4 0x690D8320 EQ PUSH2 0x7D8 JUMPI POP DUP1 PUSH4 0x70962DD2 EQ PUSH2 0x783 JUMPI DUP1 PUSH4 0x715018A6 EQ PUSH2 0x726 JUMPI DUP1 PUSH4 0x8DA5CB5B EQ PUSH2 0x6FE JUMPI DUP1 PUSH4 0x8F903C79 EQ PUSH2 0x1E2 JUMPI DUP1 PUSH4 0x91792D5B EQ PUSH2 0x1C3 JUMPI DUP1 PUSH4 0xB00140AA EQ PUSH2 0x16B JUMPI PUSH4 0xF2FDE38B EQ PUSH2 0x9F JUMPI PUSH1 0x0 DUP1 REVERT JUMPDEST CALLVALUE PUSH2 0x167 JUMPI PUSH1 0x20 CALLDATASIZE PUSH1 0x3 NOT ADD SLT PUSH2 0x167 JUMPI PUSH1 0x1 PUSH1 0x1 PUSH1 0xA0 SHL SUB DUP3 CALLDATALOAD DUP2 DUP2 AND SWAP4 SWAP2 SWAP3 SWAP1 DUP5 SWAP1 SUB PUSH2 0x163 JUMPI PUSH2 0xD0 PUSH2 0xA2D JUMP JUMPDEST DUP4 ISZERO PUSH2 0x111 JUMPI POP POP DUP3 SLOAD PUSH1 0x1 PUSH1 0x1 PUSH1 0xA0 SHL SUB NOT DUP2 AND DUP4 OR DUP5 SSTORE AND PUSH32 0x8BE0079C531659141344CD1FD0A4F28419497F9722A3DAAFE3B4186F6B6457E0 DUP4 DUP1 LOG3 DUP1 RETURN JUMPDEST SWAP1 PUSH1 0x20 PUSH1 0x84 SWAP3 MLOAD SWAP2 PUSH3 0x461BCD PUSH1 0xE5 SHL DUP4 MSTORE DUP3 ADD MSTORE PUSH1 0x26 PUSH1 0x24 DUP3 ADD MSTORE PUSH32 0x4F776E61626C653A206E6577206F776E657220697320746865207A65726F2061 PUSH1 0x44 DUP3 ADD MSTORE PUSH6 0x646472657373 PUSH1 0xD0 SHL PUSH1 0x64 DUP3 ADD MSTORE REVERT JUMPDEST DUP5 DUP1 REVERT JUMPDEST DUP3 DUP1 REVERT JUMPDEST DUP4 DUP3 CALLVALUE PUSH2 0x1BF JUMPI PUSH2 0x1BB SWAP1 PUSH2 0x1A8 PUSH2 0x199 PUSH1 0x20 PUSH2 0x187 CALLDATASIZE PUSH2 0x897 JUMP JUMPDEST DUP2 DUP6 MLOAD SWAP4 DUP3 DUP6 DUP1 SWAP5 MLOAD SWAP4 DUP5 SWAP3 ADD PUSH2 0x905 JUMP JUMPDEST DUP2 ADD PUSH1 0x1 DUP2 MSTORE SUB ADD SWAP1 KECCAK256 PUSH2 0x962 JUMP JUMPDEST SWAP1 MLOAD SWAP2 DUP3 SWAP2 PUSH1 0x20 DUP4 MSTORE PUSH1 0x20 DUP4 ADD SWAP1 PUSH2 0xA08 JUMP JUMPDEST SUB SWAP1 RETURN JUMPDEST POP DUP1 REVERT JUMPDEST DUP4 DUP3 CALLVALUE PUSH2 0x1BF JUMPI DUP2 PUSH1 0x3 NOT CALLDATASIZE ADD SLT PUSH2 0x1BF JUMPI PUSH1 0x20 SWAP1 PUSH1 0x3 SLOAD SWAP1 MLOAD SWAP1 DUP2 MSTORE RETURN JUMPDEST POP SWAP1 PUSH2 0x1ED CALLDATASIZE PUSH2 0x897 JUMP JUMPDEST DUP1 MLOAD DUP2 ADD PUSH1 0x20 PUSH1 0xA0 DUP4 DUP3 DUP5 ADD SWAP4 SUB SLT PUSH2 0x6FA JUMPI DUP1 DUP4 ADD MLOAD SWAP2 PUSH8 0xFFFFFFFFFFFFFFFF SWAP3 DUP4 DUP2 GT PUSH2 0x6F6 JUMPI DUP2 DUP4 PUSH2 0x224 SWAP3 DUP8 ADD ADD PUSH2 0xA85 JUMP JUMPDEST SWAP3 DUP7 DUP6 ADD MLOAD DUP2 DUP2 GT PUSH2 0x6F2 JUMPI DUP4 SWAP3 DUP4 PUSH2 0x23F SWAP3 DUP9 ADD ADD PUSH2 0xA85 JUMP JUMPDEST SWAP4 PUSH2 0x24C PUSH1 0x60 DUP8 ADD PUSH2 0xACA JUMP JUMPDEST SWAP1 PUSH1 0xA0 PUSH2 0x25B PUSH1 0x80 DUP10 ADD PUSH2 0xACA JUMP JUMPDEST SWAP8 ADD MLOAD SWAP6 PUSH1 0x1 DUP1 PUSH1 0xA0 SHL SUB DUP1 DUP1 SWAP5 AND SWAP9 AND SWAP3 PUSH1 0x2 SLOAD AND DUP11 MLOAD SWAP7 DUP8 DUP1 SWAP3 PUSH4 0x122643F3 PUSH1 0xE2 SHL DUP3 MSTORE CALLER DUP14 DUP4 ADD MSTORE PUSH1 0x24 SWAP10 DUP11 SWAP2 GAS STATICCALL SWAP1 DUP2 ISZERO PUSH2 0x6E8 JUMPI DUP13 SWAP2 PUSH2 0x6BB JUMPI JUMPDEST POP ISZERO PUSH2 0x681 JUMPI DUP5 PUSH2 0x2B4 DUP12 MLOAD SWAP3 DUP4 DUP2 MLOAD SWAP4 DUP5 SWAP3 ADD PUSH2 0x905 JUMP JUMPDEST DUP2 ADD SWAP1 DUP6 DUP2 PUSH1 0x1 SWAP4 DUP5 DUP2 MSTORE SUB ADD SWAP1 KECCAK256 SWAP2 DUP1 MLOAD SWAP1 DUP6 DUP3 GT PUSH2 0x66F JUMPI DUP13 DUP8 PUSH2 0x2DA DUP7 SLOAD PUSH2 0x928 JUMP JUMPDEST SWAP2 PUSH1 0x1F DUP4 GT PUSH2 0x627 JUMPI JUMPDEST SWAP2 POP POP POP DUP7 SWAP1 DUP14 PUSH1 0x1F DUP5 GT PUSH1 0x1 EQ PUSH2 0x5C8 JUMPI SWAP2 DUP4 SWAP5 SWAP2 DUP5 SWAP4 SWAP5 PUSH2 0x5BD JUMPI JUMPDEST POP POP SHL SWAP2 PUSH1 0x0 NOT SWAP1 PUSH1 0x3 SHL SHR NOT AND OR SWAP1 SSTORE JUMPDEST DUP1 PUSH2 0x3C0 JUMPI POP POP PUSH1 0x3 SLOAD SWAP3 DUP4 DUP2 ADD DUP1 SWAP2 GT PUSH2 0x3AE JUMPI CALLVALUE LT PUSH2 0x37B JUMPI POP DUP2 CALLVALUE SUB SWAP4 CALLVALUE DUP6 GT PUSH2 0x36A JUMPI POP POP DUP5 DUP1 SWAP4 DUP2 SWAP4 DUP3 SWAP4 DUP4 SWAP1 CALLVALUE EQ PUSH2 0x361 JUMPI JUMPDEST CALL ISZERO PUSH2 0x357 JUMPI POP DUP1 RETURN JUMPDEST MLOAD SWAP1 RETURNDATASIZE SWAP1 DUP3 RETURNDATACOPY RETURNDATASIZE SWAP1 REVERT JUMPDEST POP PUSH2 0x8FC PUSH2 0x34D JUMP JUMPDEST PUSH4 0x4E487B71 PUSH1 0xE0 SHL DUP8 MSTORE PUSH1 0x11 SWAP1 MSTORE DUP6 REVERT JUMPDEST PUSH1 0xF PUSH1 0x64 SWAP3 DUP7 SWAP3 DUP9 MLOAD SWAP4 PUSH3 0x461BCD PUSH1 0xE5 SHL DUP6 MSTORE DUP5 ADD MSTORE DUP3 ADD MSTORE PUSH15 0x57726F6E67204665652056616C7565 PUSH1 0x88 SHL PUSH1 0x44 DUP3 ADD MSTORE REVERT JUMPDEST PUSH4 0x4E487B71 PUSH1 0xE0 SHL DUP9 MSTORE PUSH1 0x11 DUP7 MSTORE DUP3 DUP9 REVERT JUMPDEST SWAP2 SWAP5 SWAP1 SWAP3 SWAP6 SWAP7 SWAP4 DUP5 MLOAD PUSH4 0x6EB1769F PUSH1 0xE1 SHL DUP2 MSTORE CALLER DUP10 DUP3 ADD MSTORE ADDRESS DUP9 DUP3 ADD MSTORE DUP7 DUP2 PUSH1 0x44 DUP2 DUP8 GAS STATICCALL SWAP1 DUP2 ISZERO PUSH2 0x5B3 JUMPI SWAP1 DUP3 SWAP2 DUP12 SWAP2 PUSH2 0x57E JUMPI JUMPDEST POP LT PUSH2 0x545 JUMPI DUP5 MLOAD SWAP1 DUP7 DUP3 ADD SWAP3 PUSH4 0x23B872DD PUSH1 0xE0 SHL DUP5 MSTORE CALLER DUP10 DUP5 ADD MSTORE PUSH1 0x44 DUP4 ADD MSTORE PUSH1 0x64 DUP3 ADD MSTORE PUSH1 0x64 DUP2 MSTORE PUSH1 0xA0 DUP2 ADD SWAP4 DUP2 DUP6 LT DUP2 DUP7 GT OR PUSH2 0x533 JUMPI PUSH1 0xE0 DUP3 ADD SWAP1 DUP2 GT DUP6 DUP3 LT OR PUSH2 0x533 JUMPI DUP6 MSTORE DUP6 DUP5 MSTORE PUSH32 0x5361666545524332303A206C6F772D6C6576656C2063616C6C206661696C6564 PUSH1 0xC0 DUP3 ADD MSTORE MLOAD PUSH2 0x4A4 SWAP4 SWAP3 SWAP2 DUP10 SWAP2 DUP3 SWAP2 DUP3 DUP6 GAS CALL RETURNDATASIZE ISZERO PUSH2 0x52B JUMPI RETURNDATASIZE SWAP2 PUSH2 0x48A DUP4 PUSH2 0x87B JUMP JUMPDEST SWAP3 PUSH2 0x497 DUP8 MLOAD SWAP5 DUP6 PUSH2 0x843 JUMP JUMPDEST DUP4 MSTORE RETURNDATASIZE DUP11 DUP9 DUP6 ADD RETURNDATACOPY PUSH2 0xAF6 JUMP JUMPDEST DUP1 MLOAD SWAP1 DUP4 DUP3 ISZERO SWAP3 DUP4 ISZERO PUSH2 0x513 JUMPI JUMPDEST POP POP POP ISZERO PUSH2 0x4C1 JUMPI POP POP POP POP DUP1 RETURN JUMPDEST MLOAD PUSH3 0x461BCD PUSH1 0xE5 SHL DUP2 MSTORE SWAP3 DUP4 ADD MSTORE PUSH1 0x2A SWAP1 DUP3 ADD MSTORE PUSH32 0x5361666545524332303A204552433230206F7065726174696F6E20646964206E PUSH1 0x44 DUP3 ADD MSTORE PUSH10 0x1BDD081CDD58D8D95959 PUSH1 0xB2 SHL PUSH1 0x64 DUP3 ADD MSTORE PUSH1 0x84 SWAP1 REVERT JUMPDEST PUSH2 0x523 SWAP4 POP DUP3 ADD DUP2 ADD SWAP2 ADD PUSH2 0xADE JUMP JUMPDEST CODESIZE DUP4 DUP2 PUSH2 0x4B2 JUMP JUMPDEST PUSH1 0x60 SWAP2 PUSH2 0xAF6 JUMP JUMPDEST PUSH4 0x4E487B71 PUSH1 0xE0 SHL DUP11 MSTORE PUSH1 0x41 DUP10 MSTORE DUP8 DUP11 REVERT JUMPDEST DUP5 MLOAD PUSH3 0x461BCD PUSH1 0xE5 SHL DUP2 MSTORE DUP1 DUP10 ADD DUP8 SWAP1 MSTORE PUSH1 0x14 DUP2 DUP10 ADD MSTORE PUSH20 0x4E6F7420656E6F75676820616C6C6F77616E6365 PUSH1 0x60 SHL PUSH1 0x44 DUP3 ADD MSTORE PUSH1 0x64 SWAP1 REVERT JUMPDEST DUP1 SWAP3 POP DUP9 DUP1 SWAP3 POP RETURNDATASIZE DUP4 GT PUSH2 0x5AC JUMPI JUMPDEST PUSH2 0x597 DUP2 DUP4 PUSH2 0x843 JUMP JUMPDEST DUP2 ADD SUB SLT PUSH2 0x5A8 JUMPI DUP2 SWAP1 MLOAD CODESIZE PUSH2 0x3F6 JUMP JUMPDEST DUP10 DUP1 REVERT JUMPDEST POP RETURNDATASIZE PUSH2 0x58D JUMP JUMPDEST DUP7 MLOAD RETURNDATASIZE DUP13 DUP3 RETURNDATACOPY RETURNDATASIZE SWAP1 REVERT JUMPDEST ADD MLOAD SWAP3 POP CODESIZE DUP1 PUSH2 0x302 JUMP JUMPDEST SWAP2 SWAP1 DUP4 PUSH1 0x1F NOT DUP2 AND DUP8 DUP6 MSTORE DUP11 DUP6 KECCAK256 SWAP5 JUMPDEST DUP12 DUP9 DUP4 DUP4 LT PUSH2 0x610 JUMPI POP POP POP LT PUSH2 0x5F7 JUMPI JUMPDEST POP POP POP DUP2 SHL ADD SWAP1 SSTORE PUSH2 0x314 JUMP JUMPDEST ADD MLOAD PUSH1 0x0 NOT PUSH1 0xF8 DUP5 PUSH1 0x3 SHL AND SHR NOT AND SWAP1 SSTORE CODESIZE DUP1 DUP1 PUSH2 0x5EA JUMP JUMPDEST DUP7 DUP7 ADD MLOAD DUP9 SSTORE SWAP1 SWAP7 ADD SWAP6 SWAP5 DUP6 ADD SWAP5 DUP8 SWAP4 POP ADD PUSH2 0x5D8 JUMP JUMPDEST DUP7 DUP2 MSTORE KECCAK256 PUSH1 0x1F DUP5 ADD PUSH1 0x5 SHR DUP2 ADD SWAP2 DUP10 DUP6 LT PUSH2 0x665 JUMPI JUMPDEST PUSH1 0x1F ADD PUSH1 0x5 SHR ADD SWAP1 DUP5 SWAP1 DUP16 JUMPDEST DUP4 DUP3 LT PUSH2 0x65A JUMPI SWAP1 POP DUP10 SWAP2 POP PUSH2 0x2E4 JUMP JUMPDEST DUP2 SSTORE ADD DUP5 SWAP1 DUP16 PUSH2 0x649 JUMP JUMPDEST SWAP1 SWAP2 POP DUP2 SWAP1 PUSH2 0x63D JUMP JUMPDEST PUSH4 0x4E487B71 PUSH1 0xE0 SHL DUP14 MSTORE PUSH1 0x41 DUP12 MSTORE DUP8 DUP14 REVERT JUMPDEST DUP10 MLOAD PUSH3 0x461BCD PUSH1 0xE5 SHL DUP2 MSTORE DUP1 DUP11 ADD DUP7 SWAP1 MSTORE PUSH1 0x15 DUP2 DUP9 ADD MSTORE PUSH21 0x14D95B99195C881B9BDD081C9959DA5CDD195C9959 PUSH1 0x5A SHL PUSH1 0x44 DUP3 ADD MSTORE PUSH1 0x64 SWAP1 REVERT JUMPDEST PUSH2 0x6DB SWAP2 POP DUP7 RETURNDATASIZE DUP9 GT PUSH2 0x6E1 JUMPI JUMPDEST PUSH2 0x6D3 DUP2 DUP4 PUSH2 0x843 JUMP JUMPDEST DUP2 ADD SWAP1 PUSH2 0xADE JUMP JUMPDEST CODESIZE PUSH2 0x29B JUMP JUMPDEST POP RETURNDATASIZE PUSH2 0x6C9 JUMP JUMPDEST DUP12 MLOAD RETURNDATASIZE DUP15 DUP3 RETURNDATACOPY RETURNDATASIZE SWAP1 REVERT JUMPDEST DUP9 DUP1 REVERT JUMPDEST DUP8 DUP1 REVERT JUMPDEST DUP6 DUP1 REVERT JUMPDEST DUP4 DUP3 CALLVALUE PUSH2 0x1BF JUMPI DUP2 PUSH1 0x3 NOT CALLDATASIZE ADD SLT PUSH2 0x1BF JUMPI SWAP1 SLOAD SWAP1 MLOAD PUSH1 0x1 PUSH1 0x1 PUSH1 0xA0 SHL SUB SWAP1 SWAP2 AND DUP2 MSTORE PUSH1 0x20 SWAP1 RETURN JUMPDEST DUP4 CALLVALUE PUSH2 0x780 JUMPI DUP1 PUSH1 0x3 NOT CALLDATASIZE ADD SLT PUSH2 0x780 JUMPI PUSH2 0x73F PUSH2 0xA2D JUMP JUMPDEST DUP1 SLOAD PUSH1 0x1 PUSH1 0x1 PUSH1 0xA0 SHL SUB NOT DUP2 AND DUP3 SSTORE DUP2 SWAP1 PUSH1 0x1 PUSH1 0x1 PUSH1 0xA0 SHL SUB AND PUSH32 0x8BE0079C531659141344CD1FD0A4F28419497F9722A3DAAFE3B4186F6B6457E0 DUP3 DUP1 LOG3 DUP1 RETURN JUMPDEST DUP1 REVERT JUMPDEST POP POP CALLVALUE PUSH2 0x1BF JUMPI PUSH1 0x20 CALLDATASIZE PUSH1 0x3 NOT ADD SLT PUSH2 0x1BF JUMPI CALLDATALOAD PUSH1 0x1 PUSH1 0x1 PUSH1 0xA0 SHL SUB DUP2 AND DUP2 SUB PUSH2 0x1BF JUMPI PUSH2 0x7D5 SWAP1 PUSH2 0x7B3 PUSH2 0xA2D JUMP JUMPDEST PUSH1 0x1 DUP1 PUSH1 0xA0 SHL SUB AND PUSH12 0xFFFFFFFFFFFFFFFFFFFFFFFF PUSH1 0xA0 SHL PUSH1 0x2 SLOAD AND OR PUSH1 0x2 SSTORE JUMP JUMPDEST DUP1 RETURN JUMPDEST DUP3 DUP2 DUP6 CALLVALUE PUSH2 0x1BF JUMPI PUSH1 0x20 CALLDATASIZE PUSH1 0x3 NOT ADD SLT PUSH2 0x1BF JUMPI CALLDATALOAD PUSH1 0x1 PUSH1 0x1 PUSH1 0xA0 SHL SUB DUP2 AND SWAP1 DUP2 SWAP1 SUB PUSH2 0x1BF JUMPI DUP2 DUP1 DUP1 SWAP3 PUSH2 0x80B PUSH2 0xA2D JUMP JUMPDEST SELFBALANCE SWAP1 DUP3 DUP3 ISZERO PUSH2 0x361 JUMPI CALL ISZERO PUSH2 0x357 JUMPI POP DUP1 RETURN JUMPDEST DUP5 SWAP1 CALLVALUE PUSH2 0x1BF JUMPI DUP2 PUSH1 0x3 NOT CALLDATASIZE ADD SLT PUSH2 0x1BF JUMPI PUSH1 0x2 SLOAD PUSH1 0x1 PUSH1 0x1 PUSH1 0xA0 SHL SUB AND DUP2 MSTORE PUSH1 0x20 SWAP1 RETURN JUMPDEST SWAP1 PUSH1 0x1F DUP1 NOT SWAP2 ADD AND DUP2 ADD SWAP1 DUP2 LT PUSH8 0xFFFFFFFFFFFFFFFF DUP3 GT OR PUSH2 0x865 JUMPI PUSH1 0x40 MSTORE JUMP JUMPDEST PUSH4 0x4E487B71 PUSH1 0xE0 SHL PUSH1 0x0 MSTORE PUSH1 0x41 PUSH1 0x4 MSTORE PUSH1 0x24 PUSH1 0x0 REVERT JUMPDEST PUSH8 0xFFFFFFFFFFFFFFFF DUP2 GT PUSH2 0x865 JUMPI PUSH1 0x1F ADD PUSH1 0x1F NOT AND PUSH1 0x20 ADD SWAP1 JUMP JUMPDEST PUSH1 0x20 PUSH1 0x3 NOT DUP3 ADD SLT PUSH2 0x900 JUMPI PUSH1 0x4 CALLDATALOAD PUSH8 0xFFFFFFFFFFFFFFFF DUP2 GT PUSH2 0x900 JUMPI DUP2 PUSH1 0x23 DUP3 ADD SLT ISZERO PUSH2 0x900 JUMPI DUP1 PUSH1 0x4 ADD CALLDATALOAD SWAP1 PUSH2 0x8CF DUP3 PUSH2 0x87B JUMP JUMPDEST SWAP3 PUSH2 0x8DD PUSH1 0x40 MLOAD SWAP5 DUP6 PUSH2 0x843 JUMP JUMPDEST DUP3 DUP5 MSTORE PUSH1 0x24 DUP4 DUP4 ADD ADD GT PUSH2 0x900 JUMPI DUP2 PUSH1 0x0 SWAP3 PUSH1 0x24 PUSH1 0x20 SWAP4 ADD DUP4 DUP7 ADD CALLDATACOPY DUP4 ADD ADD MSTORE SWAP1 JUMP JUMPDEST PUSH1 0x0 DUP1 REVERT JUMPDEST PUSH1 0x0 JUMPDEST DUP4 DUP2 LT PUSH2 0x918 JUMPI POP POP PUSH1 0x0 SWAP2 ADD MSTORE JUMP JUMPDEST DUP2 DUP2 ADD MLOAD DUP4 DUP3 ADD MSTORE PUSH1 0x20 ADD PUSH2 0x908 JUMP JUMPDEST SWAP1 PUSH1 0x1 DUP3 DUP2 SHR SWAP3 AND DUP1 ISZERO PUSH2 0x958 JUMPI JUMPDEST PUSH1 0x20 DUP4 LT EQ PUSH2 0x942 JUMPI JUMP JUMPDEST PUSH4 0x4E487B71 PUSH1 0xE0 SHL PUSH1 0x0 MSTORE PUSH1 0x22 PUSH1 0x4 MSTORE PUSH1 0x24 PUSH1 0x0 REVERT JUMPDEST SWAP2 PUSH1 0x7F AND SWAP2 PUSH2 0x937 JUMP JUMPDEST SWAP1 PUSH1 0x40 MLOAD SWAP2 DUP3 PUSH1 0x0 DUP3 SLOAD SWAP3 PUSH2 0x976 DUP5 PUSH2 0x928 JUMP JUMPDEST SWAP1 DUP2 DUP5 MSTORE PUSH1 0x1 SWAP5 DUP6 DUP2 AND SWAP1 DUP2 PUSH1 0x0 EQ PUSH2 0x9E5 JUMPI POP PUSH1 0x1 EQ PUSH2 0x9A2 JUMPI JUMPDEST POP POP PUSH2 0x9A0 SWAP3 POP SUB DUP4 PUSH2 0x843 JUMP JUMPDEST JUMP JUMPDEST SWAP1 SWAP4 SWAP2 POP PUSH1 0x0 MSTORE PUSH1 0x20 SWAP1 DUP2 PUSH1 0x0 KECCAK256 SWAP4 PUSH1 0x0 SWAP2 JUMPDEST DUP2 DUP4 LT PUSH2 0x9CD JUMPI POP POP PUSH2 0x9A0 SWAP4 POP DUP3 ADD ADD CODESIZE DUP1 PUSH2 0x992 JUMP JUMPDEST DUP6 SLOAD DUP9 DUP5 ADD DUP6 ADD MSTORE SWAP5 DUP6 ADD SWAP5 DUP8 SWAP5 POP SWAP2 DUP4 ADD SWAP2 PUSH2 0x9B5 JUMP JUMPDEST SWAP2 POP POP PUSH2 0x9A0 SWAP5 POP PUSH1 0x20 SWAP3 POP PUSH1 0xFF NOT AND DUP3 DUP5 ADD MSTORE ISZERO ISZERO PUSH1 0x5 SHL DUP3 ADD ADD CODESIZE DUP1 PUSH2 0x992 JUMP JUMPDEST SWAP1 PUSH1 0x20 SWAP2 PUSH2 0xA21 DUP2 MLOAD DUP1 SWAP3 DUP2 DUP6 MSTORE DUP6 DUP1 DUP7 ADD SWAP2 ADD PUSH2 0x905 JUMP JUMPDEST PUSH1 0x1F ADD PUSH1 0x1F NOT AND ADD ADD SWAP1 JUMP JUMPDEST PUSH1 0x0 SLOAD PUSH1 0x1 PUSH1 0x1 PUSH1 0xA0 SHL SUB AND CALLER SUB PUSH2 0xA41 JUMPI JUMP JUMPDEST PUSH1 0x64 PUSH1 0x40 MLOAD PUSH3 0x461BCD PUSH1 0xE5 SHL DUP2 MSTORE PUSH1 0x20 PUSH1 0x4 DUP3 ADD MSTORE PUSH1 0x20 PUSH1 0x24 DUP3 ADD MSTORE PUSH32 0x4F776E61626C653A2063616C6C6572206973206E6F7420746865206F776E6572 PUSH1 0x44 DUP3 ADD MSTORE REVERT JUMPDEST DUP2 PUSH1 0x1F DUP3 ADD SLT ISZERO PUSH2 0x900 JUMPI DUP1 MLOAD PUSH2 0xA9B DUP2 PUSH2 0x87B JUMP JUMPDEST SWAP3 PUSH2 0xAA9 PUSH1 0x40 MLOAD SWAP5 DUP6 PUSH2 0x843 JUMP JUMPDEST DUP2 DUP5 MSTORE PUSH1 0x20 DUP3 DUP5 ADD ADD GT PUSH2 0x900 JUMPI PUSH2 0xAC7 SWAP2 PUSH1 0x20 DUP1 DUP6 ADD SWAP2 ADD PUSH2 0x905 JUMP JUMPDEST SWAP1 JUMP JUMPDEST MLOAD SWAP1 PUSH1 0x1 PUSH1 0x1 PUSH1 0xA0 SHL SUB DUP3 AND DUP3 SUB PUSH2 0x900 JUMPI JUMP JUMPDEST SWAP1 DUP2 PUSH1 0x20 SWAP2 SUB SLT PUSH2 0x900 JUMPI MLOAD DUP1 ISZERO ISZERO DUP2 SUB PUSH2 0x900 JUMPI SWAP1 JUMP JUMPDEST SWAP2 SWAP3 SWAP1 ISZERO PUSH2 0xB58 JUMPI POP DUP2 MLOAD ISZERO PUSH2 0xB0A JUMPI POP SWAP1 JUMP JUMPDEST EXTCODESIZE ISZERO PUSH2 0xB13 JUMPI SWAP1 JUMP JUMPDEST PUSH1 0x40 MLOAD PUSH3 0x461BCD PUSH1 0xE5 SHL DUP2 MSTORE PUSH1 0x20 PUSH1 0x4 DUP3 ADD MSTORE PUSH1 0x1D PUSH1 0x24 DUP3 ADD MSTORE PUSH32 0x416464726573733A2063616C6C20746F206E6F6E2D636F6E7472616374000000 PUSH1 0x44 DUP3 ADD MSTORE PUSH1 0x64 SWAP1 REVERT JUMPDEST DUP3 MLOAD SWAP1 SWAP2 POP ISZERO PUSH2 0xB6B JUMPI POP DUP1 MLOAD SWAP1 PUSH1 0x20 ADD REVERT JUMPDEST PUSH1 0x40 MLOAD PUSH3 0x461BCD PUSH1 0xE5 SHL DUP2 MSTORE PUSH1 0x20 PUSH1 0x4 DUP3 ADD MSTORE SWAP1 DUP2 SWAP1 PUSH2 0xB8F SWAP1 PUSH1 0x24 DUP4 ADD SWAP1 PUSH2 0xA08 JUMP JUMPDEST SUB SWAP1 REVERT INVALID LOG2 PUSH5 0x6970667358 0x22 SLT KECCAK256 EXP DUP13 0xB5 DUP15 SAR GASPRICE SWAP11 SHL SAR PUSH2 0x7595 MOD 0xE4 DUP11 0xC1 RETURN SWAP4 0xDC 0xE 0xF9 RETURN SWAP9 DUP1 SWAP7 0xED GT 0xAC PUSH2 0xBA54 DUP15 PUSH5 0x736F6C6343 STOP ADDMOD SGT STOP CALLER "},"gasEstimates":{"creation":{"codeDepositCost":"603400","executionCost":"infinite","totalCost":"infinite"},"external":{"changeUsersContract(address)":"26706","encryptedKeys(bytes)":"infinite","fixedFee()":"2463","getHash(bytes)":"infinite","owner()":"2440","renounceOwnership()":"28193","submitHash(bytes)":"infinite","transferOwnership(address)":"28369","updateUsersContract(address)":"26657","usersContract()":"2289","withdrawETH(address)":"infinite"}},"methodIdentifiers":{"changeUsersContract(address)":"70962dd2","encryptedKeys(bytes)":"4b78896d","fixedFee()":"91792d5b","getHash(bytes)":"b00140aa","owner()":"8da5cb5b","renounceOwnership()":"715018a6","submitHash(bytes)":"8f903c79","transferOwnership(address)":"f2fde38b","updateUsersContract(address)":"505da9e1","usersContract()":"142ebf3c","withdrawETH(address)":"690d8320"}},"storageLayout":{"storage":[{"astId":7,"contract":"contracts/layer/MecenateSend.sol:MecenateSend","label":"_owner","offset":0,"slot":"0","type":"t_address"},{"astId":1042,"contract":"contracts/layer/MecenateSend.sol:MecenateSend","label":"encryptedKeys","offset":0,"slot":"1","type":"t_mapping(t_bytes_memory_ptr,t_bytes_storage)"},{"astId":1044,"contract":"contracts/layer/MecenateSend.sol:MecenateSend","label":"usersContract","offset":0,"slot":"2","type":"t_address"},{"astId":1047,"contract":"contracts/layer/MecenateSend.sol:MecenateSend","label":"fixedFee","offset":0,"slot":"3","type":"t_uint256"}],"types":{"t_address":{"encoding":"inplace","label":"address","numberOfBytes":"20"},"t_bytes_memory_ptr":{"encoding":"bytes","label":"bytes","numberOfBytes":"32"},"t_bytes_storage":{"encoding":"bytes","label":"bytes","numberOfBytes":"32"},"t_mapping(t_bytes_memory_ptr,t_bytes_storage)":{"encoding":"mapping","key":"t_bytes_memory_ptr","label":"mapping(bytes => bytes)","numberOfBytes":"32","value":"t_bytes_storage"},"t_uint256":{"encoding":"inplace","label":"uint256","numberOfBytes":"32"}}},"userdoc":{"kind":"user","methods":{},"version":1}}}}