{"contracts/features/MecenateFeed.sol":{"MecenateFeed":{"abi":[{"inputs":[{"internalType":"address","name":"_owner","type":"address"},{"internalType":"address","name":"_usersModuleContract","type":"address"},{"internalType":"address","name":"_factoryContract","type":"address"},{"internalType":"uint256","name":"_major","type":"uint256"},{"internalType":"uint256","name":"_minor","type":"uint256"},{"internalType":"uint256","name":"_patch","type":"uint256"}],"stateMutability":"nonpayable","type":"constructor"},{"anonymous":false,"inputs":[{"components":[{"components":[{"internalType":"address","name":"evmAddress","type":"address"},{"internalType":"bytes","name":"sismoVaultId","type":"bytes"},{"internalType":"bytes","name":"publicKey","type":"bytes"}],"internalType":"struct Structures.User","name":"creator","type":"tuple"},{"components":[{"components":[{"internalType":"enum Structures.PostStatus","name":"status","type":"uint8"},{"internalType":"enum Structures.PostType","name":"postType","type":"uint8"},{"internalType":"uint256","name":"creationTimeStamp","type":"uint256"},{"internalType":"uint256","name":"endTimeStamp","type":"uint256"},{"internalType":"uint256","name":"duration","type":"uint256"},{"internalType":"enum Structures.Tokens","name":"tokenId","type":"uint8"}],"internalType":"struct Structures.PostSettings","name":"settings","type":"tuple"},{"components":[{"internalType":"address","name":"buyer","type":"address"},{"internalType":"address","name":"seller","type":"address"},{"internalType":"uint256","name":"stake","type":"uint256"},{"internalType":"uint256","name":"payment","type":"uint256"},{"internalType":"uint256","name":"punishment","type":"uint256"},{"internalType":"uint256","name":"penalty","type":"uint256"}],"internalType":"struct Structures.PostEscrow","name":"escrow","type":"tuple"},{"components":[{"internalType":"bytes","name":"encryptedData","type":"bytes"},{"internalType":"bytes","name":"encryptedKey","type":"bytes"},{"internalType":"bytes","name":"decryptedData","type":"bytes"}],"internalType":"struct Structures.PostEncryptedData","name":"data","type":"tuple"}],"internalType":"struct Structures.PostData","name":"postdata","type":"tuple"}],"indexed":false,"internalType":"struct Structures.Post","name":"post","type":"tuple"}],"name":"Accepted","type":"event"},{"anonymous":false,"inputs":[{"components":[{"components":[{"internalType":"address","name":"evmAddress","type":"address"},{"internalType":"bytes","name":"sismoVaultId","type":"bytes"},{"internalType":"bytes","name":"publicKey","type":"bytes"}],"internalType":"struct Structures.User","name":"creator","type":"tuple"},{"components":[{"components":[{"internalType":"enum Structures.PostStatus","name":"status","type":"uint8"},{"internalType":"enum Structures.PostType","name":"postType","type":"uint8"},{"internalType":"uint256","name":"creationTimeStamp","type":"uint256"},{"internalType":"uint256","name":"endTimeStamp","type":"uint256"},{"internalType":"uint256","name":"duration","type":"uint256"},{"internalType":"enum Structures.Tokens","name":"tokenId","type":"uint8"}],"internalType":"struct Structures.PostSettings","name":"settings","type":"tuple"},{"components":[{"internalType":"address","name":"buyer","type":"address"},{"internalType":"address","name":"seller","type":"address"},{"internalType":"uint256","name":"stake","type":"uint256"},{"internalType":"uint256","name":"payment","type":"uint256"},{"internalType":"uint256","name":"punishment","type":"uint256"},{"internalType":"uint256","name":"penalty","type":"uint256"}],"internalType":"struct Structures.PostEscrow","name":"escrow","type":"tuple"},{"components":[{"internalType":"bytes","name":"encryptedData","type":"bytes"},{"internalType":"bytes","name":"encryptedKey","type":"bytes"},{"internalType":"bytes","name":"decryptedData","type":"bytes"}],"internalType":"struct Structures.PostEncryptedData","name":"data","type":"tuple"}],"internalType":"struct Structures.PostData","name":"postdata","type":"tuple"}],"indexed":false,"internalType":"struct Structures.Post","name":"post","type":"tuple"}],"name":"Created","type":"event"},{"anonymous":false,"inputs":[{"indexed":false,"internalType":"enum Structures.Tokens","name":"tokenID","type":"uint8"},{"indexed":false,"internalType":"address","name":"user","type":"address"},{"indexed":false,"internalType":"uint256","name":"amount","type":"uint256"},{"indexed":false,"internalType":"uint256","name":"newDeposit","type":"uint256"}],"name":"DepositDecreased","type":"event"},{"anonymous":false,"inputs":[{"indexed":false,"internalType":"enum Structures.Tokens","name":"tokenID","type":"uint8"},{"indexed":false,"internalType":"address","name":"user","type":"address"},{"indexed":false,"internalType":"uint256","name":"amount","type":"uint256"},{"indexed":false,"internalType":"uint256","name":"newDeposit","type":"uint256"}],"name":"DepositIncreased","type":"event"},{"anonymous":false,"inputs":[{"components":[{"components":[{"internalType":"address","name":"evmAddress","type":"address"},{"internalType":"bytes","name":"sismoVaultId","type":"bytes"},{"internalType":"bytes","name":"publicKey","type":"bytes"}],"internalType":"struct Structures.User","name":"creator","type":"tuple"},{"components":[{"components":[{"internalType":"enum Structures.PostStatus","name":"status","type":"uint8"},{"internalType":"enum Structures.PostType","name":"postType","type":"uint8"},{"internalType":"uint256","name":"creationTimeStamp","type":"uint256"},{"internalType":"uint256","name":"endTimeStamp","type":"uint256"},{"internalType":"uint256","name":"duration","type":"uint256"},{"internalType":"enum Structures.Tokens","name":"tokenId","type":"uint8"}],"internalType":"struct Structures.PostSettings","name":"settings","type":"tuple"},{"components":[{"internalType":"address","name":"buyer","type":"address"},{"internalType":"address","name":"seller","type":"address"},{"internalType":"uint256","name":"stake","type":"uint256"},{"internalType":"uint256","name":"payment","type":"uint256"},{"internalType":"uint256","name":"punishment","type":"uint256"},{"internalType":"uint256","name":"penalty","type":"uint256"}],"internalType":"struct Structures.PostEscrow","name":"escrow","type":"tuple"},{"components":[{"internalType":"bytes","name":"encryptedData","type":"bytes"},{"internalType":"bytes","name":"encryptedKey","type":"bytes"},{"internalType":"bytes","name":"decryptedData","type":"bytes"}],"internalType":"struct Structures.PostEncryptedData","name":"data","type":"tuple"}],"internalType":"struct Structures.PostData","name":"postdata","type":"tuple"}],"indexed":false,"internalType":"struct Structures.Post","name":"post","type":"tuple"}],"name":"Finalized","type":"event"},{"anonymous":false,"inputs":[{"components":[{"components":[{"internalType":"address","name":"evmAddress","type":"address"},{"internalType":"bytes","name":"sismoVaultId","type":"bytes"},{"internalType":"bytes","name":"publicKey","type":"bytes"}],"internalType":"struct Structures.User","name":"creator","type":"tuple"},{"components":[{"components":[{"internalType":"enum Structures.PostStatus","name":"status","type":"uint8"},{"internalType":"enum Structures.PostType","name":"postType","type":"uint8"},{"internalType":"uint256","name":"creationTimeStamp","type":"uint256"},{"internalType":"uint256","name":"endTimeStamp","type":"uint256"},{"internalType":"uint256","name":"duration","type":"uint256"},{"internalType":"enum Structures.Tokens","name":"tokenId","type":"uint8"}],"internalType":"struct Structures.PostSettings","name":"settings","type":"tuple"},{"components":[{"internalType":"address","name":"buyer","type":"address"},{"internalType":"address","name":"seller","type":"address"},{"internalType":"uint256","name":"stake","type":"uint256"},{"internalType":"uint256","name":"payment","type":"uint256"},{"internalType":"uint256","name":"punishment","type":"uint256"},{"internalType":"uint256","name":"penalty","type":"uint256"}],"internalType":"struct Structures.PostEscrow","name":"escrow","type":"tuple"},{"components":[{"internalType":"bytes","name":"encryptedData","type":"bytes"},{"internalType":"bytes","name":"encryptedKey","type":"bytes"},{"internalType":"bytes","name":"decryptedData","type":"bytes"}],"internalType":"struct Structures.PostEncryptedData","name":"data","type":"tuple"}],"internalType":"struct Structures.PostData","name":"postdata","type":"tuple"}],"indexed":false,"internalType":"struct Structures.Post","name":"post","type":"tuple"}],"name":"Invalid","type":"event"},{"anonymous":false,"inputs":[{"components":[{"components":[{"internalType":"address","name":"evmAddress","type":"address"},{"internalType":"bytes","name":"sismoVaultId","type":"bytes"},{"internalType":"bytes","name":"publicKey","type":"bytes"}],"internalType":"struct Structures.User","name":"creator","type":"tuple"},{"components":[{"components":[{"internalType":"enum Structures.PostStatus","name":"status","type":"uint8"},{"internalType":"enum Structures.PostType","name":"postType","type":"uint8"},{"internalType":"uint256","name":"creationTimeStamp","type":"uint256"},{"internalType":"uint256","name":"endTimeStamp","type":"uint256"},{"internalType":"uint256","name":"duration","type":"uint256"},{"internalType":"enum Structures.Tokens","name":"tokenId","type":"uint8"}],"internalType":"struct Structures.PostSettings","name":"settings","type":"tuple"},{"components":[{"internalType":"address","name":"buyer","type":"address"},{"internalType":"address","name":"seller","type":"address"},{"internalType":"uint256","name":"stake","type":"uint256"},{"internalType":"uint256","name":"payment","type":"uint256"},{"internalType":"uint256","name":"punishment","type":"uint256"},{"internalType":"uint256","name":"penalty","type":"uint256"}],"internalType":"struct Structures.PostEscrow","name":"escrow","type":"tuple"},{"components":[{"internalType":"bytes","name":"encryptedData","type":"bytes"},{"internalType":"bytes","name":"encryptedKey","type":"bytes"},{"internalType":"bytes","name":"decryptedData","type":"bytes"}],"internalType":"struct Structures.PostEncryptedData","name":"data","type":"tuple"}],"internalType":"struct Structures.PostData","name":"postdata","type":"tuple"}],"indexed":false,"internalType":"struct Structures.Post","name":"post","type":"tuple"}],"name":"MadePublic","type":"event"},{"anonymous":false,"inputs":[{"components":[{"components":[{"internalType":"address","name":"evmAddress","type":"address"},{"internalType":"bytes","name":"sismoVaultId","type":"bytes"},{"internalType":"bytes","name":"publicKey","type":"bytes"}],"internalType":"struct Structures.User","name":"creator","type":"tuple"},{"components":[{"components":[{"internalType":"enum Structures.PostStatus","name":"status","type":"uint8"},{"internalType":"enum Structures.PostType","name":"postType","type":"uint8"},{"internalType":"uint256","name":"creationTimeStamp","type":"uint256"},{"internalType":"uint256","name":"endTimeStamp","type":"uint256"},{"internalType":"uint256","name":"duration","type":"uint256"},{"internalType":"enum Structures.Tokens","name":"tokenId","type":"uint8"}],"internalType":"struct Structures.PostSettings","name":"settings","type":"tuple"},{"components":[{"internalType":"address","name":"buyer","type":"address"},{"internalType":"address","name":"seller","type":"address"},{"internalType":"uint256","name":"stake","type":"uint256"},{"internalType":"uint256","name":"payment","type":"uint256"},{"internalType":"uint256","name":"punishment","type":"uint256"},{"internalType":"uint256","name":"penalty","type":"uint256"}],"internalType":"struct Structures.PostEscrow","name":"escrow","type":"tuple"},{"components":[{"internalType":"bytes","name":"encryptedData","type":"bytes"},{"internalType":"bytes","name":"encryptedKey","type":"bytes"},{"internalType":"bytes","name":"decryptedData","type":"bytes"}],"internalType":"struct Structures.PostEncryptedData","name":"data","type":"tuple"}],"internalType":"struct Structures.PostData","name":"postdata","type":"tuple"}],"indexed":false,"internalType":"struct Structures.Post","name":"post","type":"tuple"}],"name":"Renounced","type":"event"},{"anonymous":false,"inputs":[{"indexed":false,"internalType":"address","name":"staker","type":"address"},{"indexed":false,"internalType":"uint256","name":"amount","type":"uint256"},{"indexed":false,"internalType":"enum Structures.Tokens","name":"tokenId","type":"uint8"}],"name":"StakeAdded","type":"event"},{"anonymous":false,"inputs":[{"indexed":false,"internalType":"address","name":"staker","type":"address"},{"indexed":false,"internalType":"uint256","name":"amount","type":"uint256"}],"name":"StakeBurned","type":"event"},{"anonymous":false,"inputs":[{"indexed":false,"internalType":"address","name":"staker","type":"address"},{"indexed":false,"internalType":"uint256","name":"amount","type":"uint256"},{"indexed":false,"internalType":"enum Structures.Tokens","name":"tokenId","type":"uint8"}],"name":"StakeTaken","type":"event"},{"anonymous":false,"inputs":[{"components":[{"components":[{"internalType":"address","name":"evmAddress","type":"address"},{"internalType":"bytes","name":"sismoVaultId","type":"bytes"},{"internalType":"bytes","name":"publicKey","type":"bytes"}],"internalType":"struct Structures.User","name":"creator","type":"tuple"},{"components":[{"components":[{"internalType":"enum Structures.PostStatus","name":"status","type":"uint8"},{"internalType":"enum Structures.PostType","name":"postType","type":"uint8"},{"internalType":"uint256","name":"creationTimeStamp","type":"uint256"},{"internalType":"uint256","name":"endTimeStamp","type":"uint256"},{"internalType":"uint256","name":"duration","type":"uint256"},{"internalType":"enum Structures.Tokens","name":"tokenId","type":"uint8"}],"internalType":"struct Structures.PostSettings","name":"settings","type":"tuple"},{"components":[{"internalType":"address","name":"buyer","type":"address"},{"internalType":"address","name":"seller","type":"address"},{"internalType":"uint256","name":"stake","type":"uint256"},{"internalType":"uint256","name":"payment","type":"uint256"},{"internalType":"uint256","name":"punishment","type":"uint256"},{"internalType":"uint256","name":"penalty","type":"uint256"}],"internalType":"struct Structures.PostEscrow","name":"escrow","type":"tuple"},{"components":[{"internalType":"bytes","name":"encryptedData","type":"bytes"},{"internalType":"bytes","name":"encryptedKey","type":"bytes"},{"internalType":"bytes","name":"decryptedData","type":"bytes"}],"internalType":"struct Structures.PostEncryptedData","name":"data","type":"tuple"}],"internalType":"struct Structures.PostData","name":"postdata","type":"tuple"}],"indexed":false,"internalType":"struct Structures.Post","name":"post","type":"tuple"}],"name":"Valid","type":"event"},{"inputs":[{"internalType":"enum Structures.Tokens","name":"tokenId","type":"uint8"},{"internalType":"uint256","name":"paymentAmount","type":"uint256"},{"internalType":"address","name":"funder","type":"address"},{"internalType":"address","name":"buyer","type":"address"}],"name":"acceptPost","outputs":[],"stateMutability":"payable","type":"function"},{"inputs":[{"internalType":"enum Structures.Tokens","name":"tokenId","type":"uint8"},{"internalType":"address","name":"_funder","type":"address"},{"internalType":"uint256","name":"amountToAdd","type":"uint256"}],"name":"addStake","outputs":[{"internalType":"uint256","name":"","type":"uint256"}],"stateMutability":"payable","type":"function"},{"inputs":[{"internalType":"bytes","name":"encryptedHash","type":"bytes"},{"internalType":"enum Structures.PostType","name":"postType","type":"uint8"},{"internalType":"enum Structures.PostDuration","name":"postDuration","type":"uint8"},{"internalType":"uint256","name":"payment","type":"uint256"},{"internalType":"uint256","name":"stakeAmount","type":"uint256"},{"internalType":"enum Structures.Tokens","name":"tokenId","type":"uint8"},{"internalType":"address","name":"funder","type":"address"},{"internalType":"address","name":"seller","type":"address"},{"internalType":"bool","name":"useStake","type":"bool"}],"name":"createPost","outputs":[{"components":[{"components":[{"internalType":"address","name":"evmAddress","type":"address"},{"internalType":"bytes","name":"sismoVaultId","type":"bytes"},{"internalType":"bytes","name":"publicKey","type":"bytes"}],"internalType":"struct Structures.User","name":"creator","type":"tuple"},{"components":[{"components":[{"internalType":"enum Structures.PostStatus","name":"status","type":"uint8"},{"internalType":"enum Structures.PostType","name":"postType","type":"uint8"},{"internalType":"uint256","name":"creationTimeStamp","type":"uint256"},{"internalType":"uint256","name":"endTimeStamp","type":"uint256"},{"internalType":"uint256","name":"duration","type":"uint256"},{"internalType":"enum Structures.Tokens","name":"tokenId","type":"uint8"}],"internalType":"struct Structures.PostSettings","name":"settings","type":"tuple"},{"components":[{"internalType":"address","name":"buyer","type":"address"},{"internalType":"address","name":"seller","type":"address"},{"internalType":"uint256","name":"stake","type":"uint256"},{"internalType":"uint256","name":"payment","type":"uint256"},{"internalType":"uint256","name":"punishment","type":"uint256"},{"internalType":"uint256","name":"penalty","type":"uint256"}],"internalType":"struct Structures.PostEscrow","name":"escrow","type":"tuple"},{"components":[{"internalType":"bytes","name":"encryptedData","type":"bytes"},{"internalType":"bytes","name":"encryptedKey","type":"bytes"},{"internalType":"bytes","name":"decryptedData","type":"bytes"}],"internalType":"struct Structures.PostEncryptedData","name":"data","type":"tuple"}],"internalType":"struct Structures.PostData","name":"postdata","type":"tuple"}],"internalType":"struct Structures.Post","name":"","type":"tuple"}],"stateMutability":"payable","type":"function"},{"inputs":[{"internalType":"bool","name":"valid","type":"bool"},{"internalType":"uint256","name":"punishment","type":"uint256"},{"internalType":"bytes32","name":"uid","type":"bytes32"}],"name":"finalizePost","outputs":[],"stateMutability":"nonpayable","type":"function"},{"inputs":[],"name":"getBuyerStake","outputs":[{"internalType":"uint256","name":"amount","type":"uint256"}],"stateMutability":"view","type":"function"},{"inputs":[],"name":"getEncryptedPost","outputs":[{"internalType":"bytes","name":"","type":"bytes"}],"stateMutability":"view","type":"function"},{"inputs":[],"name":"getPaymentRequested","outputs":[{"internalType":"uint256","name":"","type":"uint256"}],"stateMutability":"view","type":"function"},{"inputs":[],"name":"getPost","outputs":[{"components":[{"components":[{"internalType":"address","name":"evmAddress","type":"address"},{"internalType":"bytes","name":"sismoVaultId","type":"bytes"},{"internalType":"bytes","name":"publicKey","type":"bytes"}],"internalType":"struct Structures.User","name":"creator","type":"tuple"},{"components":[{"components":[{"internalType":"enum Structures.PostStatus","name":"status","type":"uint8"},{"internalType":"enum Structures.PostType","name":"postType","type":"uint8"},{"internalType":"uint256","name":"creationTimeStamp","type":"uint256"},{"internalType":"uint256","name":"endTimeStamp","type":"uint256"},{"internalType":"uint256","name":"duration","type":"uint256"},{"internalType":"enum Structures.Tokens","name":"tokenId","type":"uint8"}],"internalType":"struct Structures.PostSettings","name":"settings","type":"tuple"},{"components":[{"internalType":"address","name":"buyer","type":"address"},{"internalType":"address","name":"seller","type":"address"},{"internalType":"uint256","name":"stake","type":"uint256"},{"internalType":"uint256","name":"payment","type":"uint256"},{"internalType":"uint256","name":"punishment","type":"uint256"},{"internalType":"uint256","name":"penalty","type":"uint256"}],"internalType":"struct Structures.PostEscrow","name":"escrow","type":"tuple"},{"components":[{"internalType":"bytes","name":"encryptedData","type":"bytes"},{"internalType":"bytes","name":"encryptedKey","type":"bytes"},{"internalType":"bytes","name":"decryptedData","type":"bytes"}],"internalType":"struct Structures.PostEncryptedData","name":"data","type":"tuple"}],"internalType":"struct Structures.PostData","name":"postdata","type":"tuple"}],"internalType":"struct Structures.Post","name":"","type":"tuple"}],"stateMutability":"view","type":"function"},{"inputs":[],"name":"getSellerStake","outputs":[{"internalType":"uint256","name":"amount","type":"uint256"}],"stateMutability":"view","type":"function"},{"inputs":[{"internalType":"enum Structures.Tokens","name":"tokenId","type":"uint8"},{"internalType":"address","name":"staker","type":"address"}],"name":"getStake","outputs":[{"internalType":"uint256","name":"amount","type":"uint256"}],"stateMutability":"view","type":"function"},{"inputs":[],"name":"getStakeRequested","outputs":[{"internalType":"uint256","name":"","type":"uint256"}],"stateMutability":"view","type":"function"},{"inputs":[],"name":"getStatus","outputs":[{"internalType":"enum Structures.PostStatus","name":"","type":"uint8"}],"stateMutability":"view","type":"function"},{"inputs":[],"name":"getTokenId","outputs":[{"internalType":"enum Structures.Tokens","name":"","type":"uint8"}],"stateMutability":"view","type":"function"},{"inputs":[],"name":"getTokenIdAddress","outputs":[{"internalType":"address","name":"","type":"address"}],"stateMutability":"view","type":"function"},{"inputs":[],"name":"getTotalStaked","outputs":[{"internalType":"uint256","name":"","type":"uint256"}],"stateMutability":"view","type":"function"},{"inputs":[],"name":"owner","outputs":[{"internalType":"address","name":"","type":"address"}],"stateMutability":"view","type":"function"},{"inputs":[],"name":"post","outputs":[{"components":[{"internalType":"address","name":"evmAddress","type":"address"},{"internalType":"bytes","name":"sismoVaultId","type":"bytes"},{"internalType":"bytes","name":"publicKey","type":"bytes"}],"internalType":"struct Structures.User","name":"creator","type":"tuple"},{"components":[{"components":[{"internalType":"enum Structures.PostStatus","name":"status","type":"uint8"},{"internalType":"enum Structures.PostType","name":"postType","type":"uint8"},{"internalType":"uint256","name":"creationTimeStamp","type":"uint256"},{"internalType":"uint256","name":"endTimeStamp","type":"uint256"},{"internalType":"uint256","name":"duration","type":"uint256"},{"internalType":"enum Structures.Tokens","name":"tokenId","type":"uint8"}],"internalType":"struct Structures.PostSettings","name":"settings","type":"tuple"},{"components":[{"internalType":"address","name":"buyer","type":"address"},{"internalType":"address","name":"seller","type":"address"},{"internalType":"uint256","name":"stake","type":"uint256"},{"internalType":"uint256","name":"payment","type":"uint256"},{"internalType":"uint256","name":"punishment","type":"uint256"},{"internalType":"uint256","name":"penalty","type":"uint256"}],"internalType":"struct Structures.PostEscrow","name":"escrow","type":"tuple"},{"components":[{"internalType":"bytes","name":"encryptedData","type":"bytes"},{"internalType":"bytes","name":"encryptedKey","type":"bytes"},{"internalType":"bytes","name":"decryptedData","type":"bytes"}],"internalType":"struct Structures.PostEncryptedData","name":"data","type":"tuple"}],"internalType":"struct Structures.PostData","name":"postdata","type":"tuple"}],"stateMutability":"view","type":"function"},{"inputs":[],"name":"postCount","outputs":[{"internalType":"uint256","name":"","type":"uint256"}],"stateMutability":"view","type":"function"},{"inputs":[],"name":"renouncePost","outputs":[],"stateMutability":"nonpayable","type":"function"},{"inputs":[{"internalType":"bytes","name":"decryptedData","type":"bytes"}],"name":"revealData","outputs":[{"internalType":"bytes","name":"","type":"bytes"}],"stateMutability":"nonpayable","type":"function"},{"inputs":[{"internalType":"bytes","name":"encryptedKey","type":"bytes"}],"name":"submitHash","outputs":[],"stateMutability":"nonpayable","type":"function"},{"inputs":[{"internalType":"enum Structures.Tokens","name":"tokenId","type":"uint8"},{"internalType":"address","name":"receiver","type":"address"}],"name":"takeFullStake","outputs":[{"internalType":"uint256","name":"","type":"uint256"}],"stateMutability":"nonpayable","type":"function"},{"inputs":[{"internalType":"enum Structures.Tokens","name":"tokenId","type":"uint8"},{"internalType":"address","name":"receiver","type":"address"},{"internalType":"uint256","name":"amountToTake","type":"uint256"}],"name":"takeStake","outputs":[{"internalType":"uint256","name":"","type":"uint256"}],"stateMutability":"nonpayable","type":"function"},{"inputs":[],"name":"version","outputs":[{"internalType":"string","name":"","type":"string"}],"stateMutability":"view","type":"function"},{"stateMutability":"payable","type":"receive"}],"devdoc":{"kind":"dev","methods":{"version()":{"returns":{"_0":"Semver contract version as a string."}}},"version":1},"evm":{"bytecode":{"linkReferences":{},"object":"60e060409080825234620003885760c081620059b580380380916200002582856200038d565b83398101031262000388576200003b81620003c7565b60206200004a818401620003c7565b9162000058858501620003c7565b9360608101519060a060808201519101519160805260a05260c05267016345785d8a00006012556000938460135560018060a01b039283918260018060a01b031996168660145416176014553386601554161760155581885180926303e21fa960e61b8252816004968792165afa9081156200037e5790859188916200033a575b501685601654161760165562000124620000f560805162000425565b916200010360a05162000425565b92620001496200011560c05162000425565b8b5194859385850190620003dc565b601760f91b8082526200013e6001988980940190620003dc565b9081520190620003dc565b036200015e601f19918281018552846200038d565b8251906001600160401b03821162000327576017548581811c911680156200031c575b848210146200030957601f8111620002bd575b508290601f831160011462000257575081906019948b926200024b575b5050600019600383901b1c191690841b176017555b60ff199384815416815588805260188252620151808a8a20558389526203f4808a8a20556002895262093a808a8a205560038952621275008a8a2055885262278d0089892055878052528686209182541617905516908254161790555161540f9081620005a682396080518161216c015260a05181612195015260c051816121c40152f35b015190503880620001b1565b60178b52838b2090831694869392908c5b878110620002a5575083601997106200028b575b505050811b01601755620001c6565b015160001960f88460031b161c191690553880806200027c565b82820151845588959093019291860191860162000268565b60178b52838b20601f840160051c810191858510620002fe575b601f0160051c019086905b828110620002f257505062000194565b8c8155018690620002e2565b9091508190620002d7565b634e487b7160e01b8b526022875260248bfd5b90607f169062000181565b634e487b7160e01b8a526041865260248afd5b809250838092503d831162000376575b6200035681836200038d565b8101031262000372576200036b8591620003c7565b38620000d9565b8680fd5b503d6200034a565b88513d89823e3d90fd5b600080fd5b601f909101601f19168101906001600160401b03821190821017620003b157604052565b634e487b7160e01b600052604160045260246000fd5b51906001600160a01b03821682036200038857565b9081519160005b838110620003f5575050016000815290565b8060208092840101518185015201620003e3565b6001600160401b038111620003b157601f01601f191660200190565b806000917a184f03e93ff9f4daa797ed6e38ed64bf6a1f0100000000000000008082101562000596575b506d04ee2d6d415b85acef81000000008083101562000586575b50662386f26fc100008083101562000576575b506305f5e1008083101562000566575b506127108083101562000556575b50606482101562000545575b600a809210156200053a575b60019081602181860195620004c78762000409565b96620004d760405198896200038d565b808852620004e8601f199162000409565b01366020890137860101905b62000501575b5050505090565b600019019083906f181899199a1a9b1b9c1cb0b131b232b360811b8282061a8353049182156200053457919082620004f4565b620004fa565b9160010191620004b2565b9190606460029104910191620004a6565b600491939204910191386200049a565b600891939204910191386200048c565b601091939204910191386200047c565b6020919392049101913862000469565b6040935081049150386200044f56fe608080604052600436101561001d575b50361561001b57600080fd5b005b60003560e01c908163010a38f514612f645750806305c1f50214612f1b57806307388dba14612c435780630917e77614612bfd57806317906c2e14612bdf5780631d0b4af514612b0f5780633d876d5d146122d15780634c38d877146122a15780634e69d5601461227957806352a6cb4a1461226057806354fd4d50146121565780635ad4e170146121295780635c63ed69146120f9578063729e2eb1146120295780637abe914d14611dca5780638c6838ba14611d7e5780638da5cb5b14611d555780638f287dc2146112d05780638f903c7914610fbc578063d24e0c8714610f9e578063d2af47ab146102a8578063ed70d5d5146101ed578063f2d7dbb6146101555763faeb5e1714610132573861000f565b34610150576000366003190112610150576020600b54604051908152f35b600080fd5b3461015057610163366135f3565b9060ff600854169060038210156101d75760038110156101d75760209261018e6101a093831461395f565b6101983383613ad9565b913390614f22565b6009546001600160a01b039033908216036101c3575080600c555b604051908152f35b600a541633036101bb575b80600b556101bb565b634e487b7160e01b600052602160045260246000fd5b34610150576101fb366135c0565b60ff6008939293541660038110156101d75760038310156101d75761022190831461395f565b81600052601a602052604060002033600052602052806040600020541061027057602092610250923390614f22565b600954336001600160a01b03909116036101ce5780600c55604051908152f35b60405162461bcd60e51b815260206004820152601060248201526f4e4f545f454e4f5547485f5354414b4560801b6044820152606490fd5b610120366003190112610150576004356001600160401b038111610150576102d490369060040161363d565b60056024351015610150576005604435101561015057600360a43510156101505760c4356001600160a01b03811690036101505760e4356001600160a01b0381169003610150576101043515156101043503610150576103326138eb565b506000600160a435148015610f8e575b81908015610f7f575b610355915061395f565b6000546001600160a01b031633036101505760145460405163122643f360e21b81526001600160a01b0360e43581166004830152909160209183916024918391165afa908115610e3057600091610f45575b5015610f0f5760ff6004541660088110156101d75760005260196020526103d560ff604060002054166136b9565b60843515610ed65760643515610ea2576101043515610e3c576101d75760a435600052601a602052604060002060018060a01b0360e4351660005260205261042660843560406000205410156136f6565b6084355b610435604435613326565b60ff6044351660005260186020526040600020549160ff600454169160088310156101d757600092835260196020526040808420805460ff1990811690915560018086527ffc941c3961fb6541da34150022cddf959da0fb2353866a6bfbd249c2da0929148054831682179055600480549092161781556014549151633bcaa1d960e21b81526001600160a01b0360e435811692820192909252949185916024918391165afa928315610e3057600093610d7d575b50604051936104f88561324b565b60018552610507602435613326565b602435602086015242604086015260006060860152608085015261053060a43560a08601613330565b6040519061053d8261324b565b6000825260018060a01b0360e4351660208301526040820152606435606082015260006080820152600060a08201526105746139ef565b61057c6139ef565b906040519361058a85613230565b845260208401526040830152604051936105a385613230565b845260208401526040830152604051916105bc83613266565b81835260208301528051600180546001600160a01b0319166001600160a01b039290921691909117905560208101518051906001600160401b0382116109db57610607600254612f90565b601f8111610d14575b50602090601f8311600114610c9b57604093929160009183610c90575b50508160011b916000199060031b1c1916176002555b01518051906001600160401b0382116109db578190610663600354612f90565b601f8111610c19575b50602090601f8311600114610ba157600092610b96575b50508160011b916000199060031b1c1916176003555b6020810151805180519060088210156101d7576106b760a092613782565b60208101516106c581613326565b6106ce81613326565b61ff006004549160081b169061ff0019161760045560408101516005556060810151600655608081015160075501519060038210156101d75760409160ff80196008541691161760085560a06020820151610748600180841b0382511660018060a01b03166001600160601b0360a01b6009541617600955565b610774600180841b0360208301511660018060a01b03166001600160601b0360a01b600a541617600a55565b83810151600b556060810151600c556080810151600d550151600e5501519081519182516001600160401b0381116109db576107b1600f54612f90565b601f8111610b43575b506020601f8211600114610ad15781929394600092610ac6575b50508160011b916000199060031b1c191617600f555b60208101518051906001600160401b0382116109db5761080b601054612f90565b601f8111610a73575b50602090601f83116001146109fc576040939291600091836109f1575b50508160011b916000199060031b1c1916176010555b0151908151906001600160401b0382116109db576011916108688354612f90565b601f8111610989575b506020601f8211600114610919578192939460009261090e575b50508160011b916000199060031b1c19161782555b6013549160001983146108fa575060016108f692016013557f6e8f9f12846cf7ba30acdd742f3eae58c49befeed93f00d60de3bd4f7d09f223604051806108e78482613684565b0390a160405191829182613684565b0390f35b634e487b7160e01b60005260045260246000fd5b01519050848061088b565b601f198216908460005260008051602061537a8339815191529160005b81811061097157509583600195969710610958575b505050811b0182556108a0565b015160001960f88460031b161c1916905584808061094b565b9192602060018192868b015181550194019201610936565b8360005260008051602061537a833981519152601f830160051c810191602084106109d1575b601f0160051c01905b8181106109c55750610871565b600081556001016109b8565b90915081906109af565b634e487b7160e01b600052604160045260246000fd5b015190508580610831565b90601f19831691601060005260008051602061539a8339815191529260005b818110610a5b5750916001939185604097969410610a42575b505050811b01601055610847565b015160001960f88460031b161c19169055858080610a34565b92936020600181928786015181550195019301610a1b565b601060005260008051602061539a833981519152601f840160051c81019160208510610abc575b601f0160051c01905b818110610ab05750610814565b60008155600101610aa3565b9091508190610a9a565b0151905084806107d4565b601f19821690600f6000526000805160206153ba8339815191529160005b818110610b2b57509583600195969710610b12575b505050811b01600f556107ea565b015160001960f88460031b161c19169055848080610b04565b9192602060018192868b015181550194019201610aef565b600f6000526000805160206153ba833981519152601f830160051c81019160208410610b8c575b601f0160051c01905b818110610b8057506107ba565b60008155600101610b73565b9091508190610b6a565b015190508380610683565b9250600360005260008051602061535a833981519152906000935b601f1984168510610bfe576001945083601f19811610610be5575b505050811b01600355610699565b015160001960f88460031b161c19169055838080610bd7565b81810151835560209485019460019093019290910190610bbc565b9091506003600052601f830160051c60008051602061535a833981519152019060208410610c7a575b90601f8493920160051c60008051602061535a83398151915201905b818110610c6b575061066c565b60008155849350600101610c5e565b60008051602061535a8339815191529150610c42565b01519050858061062d565b90600260005260008051602061533a8339815191529160005b601f1985168110610cfc575091839160019360409695601f19811610610ce3575b505050811b01600255610643565b015160001960f88460031b161c19169055858080610cd5565b91926020600181928685015181550194019201610cb4565b6002600052601f830160051c60008051602061533a8339815191520160208410610d68575b601f820160051c60008051602061533a833981519152018110610d5c5750610610565b60008155600101610d39565b5060008051602061533a833981519152610d39565b9092503d806000833e610d9081836132af565b6020828281010312610150578151916001600160401b03831161015057606083820183830103126101505760405192610dc884613230565b610dd3818301613999565b8452602081830101516001600160401b03811161015057610dfb9084840190838501016139ad565b602085015260408183010151906001600160401b03821161015057610e249383019201016139ad565b604082015291846104ea565b6040513d6000823e3d90fd5b6101d75760a43515610e62575b610e5d60843560c43560e43560a435613d7e565b61042a565b3460843514610e495760405162461bcd60e51b815260206004820152600f60248201526e57524f4e475f4d53475f56414c554560881b6044820152606490fd5b60405162461bcd60e51b815260206004820152600c60248201526b5041594d454e545f5a45524f60a01b6044820152606490fd5b60405162461bcd60e51b81526020600482015260116024820152705354414b455f414d4f554e545f5a45524f60781b6044820152606490fd5b60405162461bcd60e51b815260206004820152600e60248201526d1554d15497d393d517d1561254d560921b6044820152606490fd5b90506020813d602011610f77575b81610f60602093836132af565b8101031261015057610f7190613734565b836103a7565b3d9150610f53565b506101d7578060a4351561034b565b506000905060a435600214610342565b34610150576000366003190112610150576020600c54604051908152f35b3461015057602080600319360112610150576001600160401b039060043582811161015057610fef90369060040161363d565b600a5490916001600160a01b039161100a9083163314613b07565b60ff6004541660088110156101d757806000526019825260ff60406000205416806112bc575b156112885760248284601454166040519283809263122643f360e21b82523360048301525afa908115610e3057600091611253575b50156112185761107c600193339085541614613b07565b6000526019815260406000209260ff1993848154169055600360005260406000208385825416179055600384600454161760045580519485116109db576110c4601054612f90565b601f81116111c3575b5081601f8611600114611151575060039492600092849283611146575b50501b9160001990851b1c1916176010555b600454161760045561111060075442613c81565b6006557f61de5b63673167e253173c50abdc3fd45371dc3205496f46fdb05a9f7927b574604051806111418161379b565b0390a1005b0151925086806110ea565b909491601f19831695601060005260008051602061539a833981519152926000905b8882106111ac5750508360039710611194575b505050811b016010556110fc565b015160001983871b60f8161c19169055848080611186565b808785968294968601518155019501930190611173565b601060005260008051602061539a833981519152601f870160051c81019184881061120e575b601f0160051c019084905b8281106112025750506110cd565b600081550184906111f4565b90915081906111e9565b60405162461bcd60e51b8152600481018390526013602482015272155cd95c88191bd95cc81b9bdd08195e1a5cdd606a1b6044820152606490fd5b90508281813d8311611281575b61126a81836132af565b810103126101505761127b90613734565b86611065565b503d611260565b60405162461bcd60e51b815260048101839052600c60248201526b57524f4e475f53544154555360a01b6044820152606490fd5b506002811480611030575060038114611030565b3461015057606036600319011261015057600435151560043503610150576009546001600160a01b0316611305338214613b07565b60ff6004541660088110156101d757600303611d205760155460405163335ded4b60e21b81526001600160a01b0390911690602081600481855afa908115610e3057600091611ce1575b506040516328c44a9960e21b8152604435600482015290600090829060249082906001600160a01b03165afa908115610e3057600091611bbe575b5060e08101516113a4906001600160a01b03168414613b54565b60c0810151600a546001600160a01b03918216911603611b8557602081810151604051633ec4f23d60e01b81529182600481875afa918215610e3057600092611b51575b5003611b1b5761012001519081518201916060818403126101505761140f60208201613734565b9261141c60408301613999565b916060810151916001600160401b038311610150576114429260208092019201016139ad565b90306001600160a01b0390911603611ae75760405161147f81611471602082019460208652604083019061345b565b03601f1981018352826132af565b519020604051602080820152600f5481600061149a83612f90565b92836040840152600181169081600014611ac85750600114611a7b575b6114ca925003601f1981018352826132af565b6020815191012003611a47576020600491604051928380926318da001160e01b82525afa908115610e3057600091611a0d575b50600c54604051634047e10360e11b81529092906020816004816001600160a01b0387165afa908115610e30576000916119d9575b5061271061154361154b9286613b96565b048094613bbf565b93600654421180156119d0575b15611872575061156f901515600435151514613b54565b600854600954600c546115ad92611592926001600160a01b03169060ff16613c8e565b600854600a549195916001600160a01b03169060ff16613bf8565b9160ff600854166003811015806101d757600182148015918183611864575b81908015611857575b6115df915061395f565b601554604051632ee4b68b60e11b815290602090829060049082906001600160a01b03165afa908115610e305760009161181d575b506117d0576101d757826116e4575061164b9360009384935083925082916001600160a01b03165af161164561404c565b5061407c565b600b55600c55600435156116dd5760045b60ff6004541660088110156101d757600052601960205260406000209060ff199182815416905560088110156101d7576116af9160ff821660005260196020526001604060002091825416179055613782565b7f61de5b63673167e253173c50abdc3fd45371dc3205496f46fdb05a9f7927b574604051806111418161379b565b600561165c565b600090916117c3575b81156117b0575b5092602092916117066117549561395f565b6001600160a01b039061171890615123565b60405163a9059cbb60e01b81526001600160a01b0390931660048401526024830193909352909384929190911690829060009082906044820190565b03925af18015610e3057600090611775575b61177091506150e5565b61164b565b506020813d6020116117a8575b8161178f602093836132af565b81010312610150576117a361177091613734565b611766565b3d9150611782565b90509190916101d75790600060206116f4565b50506002811460006116ed565b9150919293506101d757600282036117f35750506117ed906143b8565b5061164b565b1561180257506117ed90614e6a565b1561180d575061164b565b6118169061484f565b50826117ed565b90506020813d60201161184f575b81611838602093836132af565b810103126101505761184990613734565b89611614565b3d915061182b565b506101d7578084156115d5565b5060009050600284146115cc565b93509150506004351561188157005b611892901515600435151514613b54565b600b546024359081116119955760125491670de0b6b3a76400009283811015611958576005936118c56118d39285613b96565b04809260ff600854166140b6565b600c55600854600a546118f49184916001600160a01b03169060ff166140b6565b600b5560ff199183836004541617600455600d55600e55816000526019602052604060002060018282541617905560045416176004557fb0ec4ef3ee1a79effa677af7a82a3a875b4d438307fb7e589a58966e3b913f2f604051806111418161379b565b60405162461bcd60e51b81526020600482015260156024820152740a0aa9c92a6909a8a9ca8bea482a8929ebe90928e9605b1b6044820152606490fd5b60405162461bcd60e51b81526020600482015260136024820152720a0aa9c92a6909a8a9ca8bea89e9ebe90928e9606b1b6044820152606490fd5b50600435611558565b90506020813d602011611a05575b816119f4602093836132af565b810103126101505751612710611532565b3d91506119e7565b90506020813d602011611a3f575b81611a28602093836132af565b8101031261015057611a3990613999565b836114fd565b3d9150611a1b565b60405162461bcd60e51b815260206004820152600c60248201526b1253959053125117d413d4d560a21b6044820152606490fd5b5090600f6000526000805160206153ba833981519152906000915b818310611aae5750509060606114ca928201016114b7565b805460608487010152849350602090920191600101611a96565b606092506114ca94915060ff191682840152151560051b8201016114b7565b60405162461bcd60e51b815260206004820152600c60248201526b1253959053125117d191515160a21b6044820152606490fd5b60405162461bcd60e51b815260206004820152600e60248201526d494e56414c49445f534348454d4160901b6044820152606490fd5b9091506020813d602011611b7d575b81611b6d602093836132af565b81010312610150575190856113e8565b3d9150611b60565b60405162461bcd60e51b81526020600482015260116024820152701253959053125117d49150d25412515395607a1b6044820152606490fd5b90503d806000833e611bd081836132af565b6020828281010312610150578151906001600160401b0382116101505761014082840182850103126101505760405192836101408101106001600160401b03610140860111176109db57610140840160409081528184018051865260208082015190870152611c3f9101613b40565b6040850152611c52606084830101613b40565b6060850152611c65608084830101613b40565b608085015260a0838201015160a0850152611c8460c084830101613999565b60c0850152611c9760e084830101613999565b60e0850152610100611cac8185840101613734565b9085015261012092838183010151906001600160401b03821161015057611cd79383019201016139ad565b908201528361138a565b90506020813d602011611d18575b81611cfc602093836132af565b81010312610150576000611d11602492613999565b915061134f565b3d9150611cef565b60405162461bcd60e51b815260206004820152600d60248201526c1393d517d4d550935255151151609a1b6044820152606490fd5b34610150576000366003190112610150576000546040516001600160a01b039091168152602090f35b3461015057600036600319011261015057611d976138eb565b506108f6604051611da781613266565b611daf6132d0565b8152611db961333c565b602082015260405191829182613684565b3461015057602080600319360112610150576001600160401b039060043582811161015057611dfd90369060040161363d565b9060ff600454166008811015806101d757816000526019835260ff6040600020541680611fed575b611e2e906136b9565b611e4460018060a01b03600a5416331415613741565b6101d757600403611fb95781519283116109db57611e63601154612f90565b601f8111611f67575b508092601f8111600114611ef85780919293600091611eed575b508160011b916000199060031b1c1916176011555b600660ff1960045416176004557f76c6a8f0836a14a631dc3a45fc0c49d4dd3fc4147167329ba4220ba2664ccaf060405180611ed68161379b565b0390a16108f660405192828493845283019061345b565b905083015184611e86565b601f19811693601160005260008051602061537a8339815191529060005b868110611f50575082600194959610611f37575b5050811b01601155611e9b565b85015160001960f88460031b161c191690558480611f2a565b909184600181928589015181550193019101611f16565b601160005260008051602061537a833981519152601f850160051c810191838610611faf575b601f0160051c01905b818110611fa35750611e6c565b60008155600101611f96565b9091508190611f8d565b6064906040519062461bcd60e51b82526004820152600d60248201526c1393d517d19253905312569151609a1b6044820152fd5b5050600060038214801561201b575b8190801561200c575b9050611e25565b506101d7578060048314612005565b506000905060068214611ffc565b34610150576000366003190112610150576040516000600f5461204b81612f90565b808452906001908181169081156120d25750600114612089575b6108f684612075818603826132af565b60405191829160208352602083019061345b565b600f600090815292506000805160206153ba8339815191525b8284106120ba57505050810160200161207582612065565b805460208587018101919091529093019281016120a2565b60ff191660208087019190915292151560051b850190920192506120759150839050612065565b3461015057600036600319011261015057600854600a546020916101bb916001600160a01b03169060ff16613ad9565b34610150576000366003190112610150576020612144613a0f565b6040516001600160a01b039091168152f35b34610150576000366003190112610150576121907f00000000000000000000000000000000000000000000000000000000000000006151b1565b6121b97f00000000000000000000000000000000000000000000000000000000000000006151b1565b9061224c60226121e87f00000000000000000000000000000000000000000000000000000000000000006151b1565b93604051948591855161220381602098898088019101613438565b830190601760f91b918288820152612224825180938a602185019101613438565b0190602182015261223d82518093888785019101613438565b010360028101855201836132af565b6108f660405192828493845283019061345b565b346101505760206101bb612273366135f3565b90613ad9565b3461015057600036600319011261015057602060ff6004541661229f60405180926134bf565bf35b34610150576000366003190112610150576008546009546020916101bb916001600160a01b03169060ff16613ad9565b3461015057600036600319011261015057600a546001600160a01b03906122fb9082163314613b07565b60ff6004541660088110156101d75760005260206019815261232460ff604060002054166136b9565b61232c6139ef565b6123346139ef565b916040519161234283613230565b600083528183019081526040830193845261244f85604051946123648661324b565b60078652600085870152600060408701526000606087015260006080870152600060a08701526040516123968161324b565b60008152600086820152600060408201526000606082015260006080820152600060a0820152604051906123c982613230565b6040516123d581613294565b6000815282526040516123e781613294565b60008152878301526040516123fb81613294565b6000815260408301526040519761241189613230565b88528688015260408701528460405161242981613266565b82815201958652511660018060a01b03166001600160601b0360a01b6001541617600155565b51908151936001600160401b03948581116109db5780612470600254612f90565b94601f95868111612ab4575b508490868311600114612a4057600092612a35575b50508160011b916000199060031b1c1916176002555b519283518581116109db57806003956124c08754612f90565b8681116129db575b50849086831160011461296b57600092612960575b50508160011b9160001990871b1c19161784555b5194855195865160088110156101d75761250a90613782565b8287015161251781613326565b61252081613326565b61ff006004549160081b169061ff0019161760045560a06040880151976005988955606081015160065560808101516007550151858110156101d75760409260a09160ff8019600854169116176008556125be858401519161259c8184511660018060a01b03166001600160601b0360a01b6009541617600955565b868301511660018060a01b03166001600160601b0360a01b600a541617600a55565b83810151600b556060810151600c556080810151600d550151600e55015180518051908682116109db5781906125f5600f54612f90565b868111612907575b50849086831160011461289457600092612889575b50508160011b9160001990871b1c191617600f555b818101518051908682116109db57612640601054612f90565b85811161283c575b5083908583116001146127c6576040939291600091836127bb575b50508160011b9160001990881b1c1916176010555b01519485519485116109db5761268f601154612f90565b90838211612772575b5050809184116001146126fd575082936000936126f2575b50508260011b92600019911b1c1916176011555b7f88c430102eab5dbc235ca367ecd5ffa63164bb311015524ecebed009d4d4b5b6604051806111418161379b565b0151915083806126b0565b9190601f19841694601160005260008051602061537a833981519152936000905b87821061275a5750508460019610612740575b50505050811b016011556126c4565b01519060f884600019921b161c1916905582808080612731565b8060018597829496860151815501960193019061271e565b601160005260008051602061537a8339815191529084808801821c8301938589106127b2575b01901c01905b81811015612698576000815560010161279e565b93508293612798565b015190508980612663565b90601f19831691601060005260008051602061539a8339815191529260005b8782821061282657505091600193918560409796941061280e575b505050811b01601055612678565b0151600019838a1b60f8161c19169055898080612800565b60018596829396860151815501950193016127e5565b601060005260008051602061539a833981519152868085018b1c820192878610612880575b018a1c01905b8181106128745750612648565b60008155600101612867565b92508192612861565b015190508880612612565b600f60009081526000805160206153ba8339815191529350601f198516905b878282106128f15750509084600195949392106128d9575b505050811b01600f55612627565b015160001983891b60f8161c191690558880806128cb565b60018596829396860151815501950193016128b3565b909150600f6000526000805160206153ba833981519152868085018b1c820192878610612957575b908594939291018b1c01905b81811061294857506125fd565b6000815584935060010161293b565b9250819261292f565b0151905088806124dd565b600088815260008051602061535a8339815191529350601f198516905b878282106129c55750509084600195949392106129ad575b505050811b0184556124f1565b015160001983891b60f8161c191690558880806129a0565b6001859682939686015181550195019301612988565b9091508660005260008051602061535a8339815191528680850160051c820192878610612a2c575b9085949392910160051c01905b818110612a1d57506124c8565b60008155849350600101612a10565b92508192612a03565b015190508880612491565b6002600090815260008051602061533a8339815191529350601f198516905b87828210612a9e575050908460019594939210612a85575b505050811b016002556124a7565b015160001960f88460031b161c19169055888080612a77565b6001859682939686015181550195019301612a5f565b909150600260005260008051602061533a8339815191528680850160051c820192878610612b06575b9085949392910160051c01905b818110612af7575061247c565b60008155849350600101612aea565b92508192612add565b612b18366135c0565b60ff6008939293541660038110156101d75760038310156101d757612b3e90831461395f565b6009546001600160a01b039290831633148015612bd2575b15612b9b57602093612b7b9284600a54163314600014612b95575034915b3390613d7e565b906009541633146000146101ce5780600c55604051908152f35b91612b74565b60405162461bcd60e51b815260206004820152600f60248201526e2ba927a723afa6a9a3a9a2a72222a960891b6044820152606490fd5b5082600a54163314612b56565b34610150576000366003190112610150576020601354604051908152f35b346101505760003660031901126101505760206101bb60ff60085416612c3d60018060a01b0391612c3283600a541682613ad9565b926009541690613ad9565b90613c81565b6080366003190112610150576004356003811015610150576024908135906001600160a01b03604435818116810361015057606435928284169485850361015057600160005260209560198752612ca160ff604060002054166136b9565b60ff600854166003811015612f0657612cbb90841461395f565b82612eff5734945b888882600a541692612ce2612cd88589613ad9565b600b5411156136f6565b601454166040519283809263122643f360e21b82528760048301525afa908115610e3057600091612eca575b5015612e94579081612d2c92331491821592612e89575b5050613741565b600c54908115612e015710612dc8576002955091612d4f9184612d6f9594613d7e565b600c5560018060a01b03166001600160601b0360a01b6009541617600955565b601960ff1991838360045416176004558360005252604060002060018282541617905560045416176004557f909d9218f6e1f243c7d9044544c7b03e2e7db27d81653992e9018b8b72f4c20d604051806111418161379b565b60405162461bcd60e51b815260048101869052601281880152711393d517d15393d551d217d410565351539560721b6044820152606490fd5b90503415612e555715612e22576002955091612d4f9184612d6f9594613d7e565b60405162461bcd60e51b815260048101869052600c818801526b16915493d7d410565351539560a21b6044820152606490fd5b60405162461bcd60e51b815260048101879052600d818901526c5a45524f5f4d534756414c554560981b6044820152606490fd5b141590508980612d25565b60405162461bcd60e51b815260048101899052600f818b01526e1554d1549517d393d517d1561254d5608a1b6044820152606490fd5b90508881813d8311612ef8575b612ee181836132af565b8101031261015057612ef290613734565b8a612d0e565b503d612ed7565b8194612cc3565b88634e487b7160e01b60005260216004526000fd5b3461015057600036600319011261015057612f56612f376132d0565b6108f6612f4261333c565b604051938493604085526040850190613480565b9083820360208501526134cc565b34610150576000366003190112610150578061229f60209260ff600854165b9060038210156101d75752565b90600182811c92168015612fc0575b6020831014612faa57565b634e487b7160e01b600052602260045260246000fd5b91607f1691612f9f565b60025460009291612fda82612f90565b8082529160019081811690811561303f5750600114612ff857505050565b91929350600260005260008051602061533a833981519152916000925b84841061302757505060209250010190565b80546020858501810191909152909301928101613015565b915050602093945060ff929192191683830152151560051b010190565b6003546000929161306c82612f90565b8082529160019081811690811561303f575060011461308a57505050565b91929350600360005260008051602061535a833981519152916000925b8484106130b957505060209250010190565b805460208585018101919091529093019281016130a7565b600f54600092916130e182612f90565b8082529160019081811690811561303f57506001146130ff57505050565b91929350600f6000526000805160206153ba833981519152916000925b84841061312e57505060209250010190565b8054602085850181019190915290930192810161311c565b6010546000929161315682612f90565b8082529160019081811690811561303f575060011461317457505050565b91929350601060005260008051602061539a833981519152916000925b8484106131a357505060209250010190565b80546020858501810191909152909301928101613191565b601154600092916131cb82612f90565b8082529160019081811690811561303f57506001146131e957505050565b91929350601160005260008051602061537a833981519152916000925b84841061321857505060209250010190565b80546020858501810191909152909301928101613206565b606081019081106001600160401b038211176109db57604052565b60c081019081106001600160401b038211176109db57604052565b604081019081106001600160401b038211176109db57604052565b6001600160401b0381116109db57604052565b602081019081106001600160401b038211176109db57604052565b90601f801991011681019081106001600160401b038211176109db57604052565b604051906132dd82613230565b6001546001600160a01b031682526040518290613304816132fd81612fca565b03826132af565b602082015260408051916133228361331b8161305c565b03846132af565b0152565b600511156101d757565b60038210156101d75752565b604090815161334a81613230565b809280516133578161324b565b60045460ff81169060088210156101d75760ff91835260081c1661337a81613326565b602082015260055482820152600654606082015260075460808201526133a860ff6008541660a08301613330565b825280516133b58161324b565b60018060a01b0380600954168252600a54166020820152600b5482820152600c546060820152600d546080820152600e5460a082015260208301528051916133fc83613230565b815161340b816132fd816130d1565b8352815161341c816132fd81613146565b60208401528151613430816132fd816131bb565b828401520152565b60005b83811061344b5750506000910152565b818101518382015260200161343b565b9060209161347481518092818552858086019101613438565b601f01601f1916010190565b6134bc9160018060a01b03825116815260406134ab602084015160606020850152606084019061345b565b92015190604081840391015261345b565b90565b9060088210156101d75752565b9060406134bc9261352060a082516134e58682516134bf565b60208101516134f381613326565b602087015284810151858701526060810151606087015260808101516080870152015160a0850190612f83565b60a06020820151600180831b038082511660c087015260208201511660e08601528381015161010086015260608101516101208601526080810151610140860152015161016084015201519061358c6101a080610180840152606084519184015261020083019061345b565b906101e060406135b060208601519461019f199586868303016101c087015261345b565b940151928285030191015261345b565b606090600319011261015057600435600381101561015057906024356001600160a01b0381168103610150579060443590565b604090600319011261015057600435600381101561015057906024356001600160a01b03811681036101505790565b6001600160401b0381116109db57601f01601f191660200190565b81601f820112156101505780359061365482613622565b9261366260405194856132af565b8284526020838301011161015057816000926020809301838601378301015290565b906134bc916020815260206136a483516040838501526060840190613480565b920151906040601f19828503019101526134cc565b156136c057565b60405162461bcd60e51b815260206004820152600e60248201526d494e56414c49445f53544154555360901b6044820152606490fd5b156136fd57565b60405162461bcd60e51b815260206004820152600f60248201526e14d51052d157d25390d3d4949150d5608a1b6044820152606490fd5b5190811515820361015057565b1561374857565b60405162461bcd60e51b81526020600482015260126024820152712ca7aaafa0a922afaa2422afa9a2a62622a960711b6044820152606490fd5b60088110156101d75760ff801960045416911617600455565b6134bc90602081526040602082015260018060a01b0380600154166060830152606060808301526137e26137d160c08401612fca565b838103605f190160a085015261305c565b916040601f198285030191015260ff600454613800848383166134bf565b60081c1661380d81613326565b602083015260055460408301526006546060830152600754608083015261383d60ff6008541660a0840190612f83565b806009541660c0830152600a541660e0820152600b54610100820152600c54610120820152600d54610140820152600e5461016082015260606101a08061018084015282015261389061020082016130d1565b906101e06138ac61019f199384848203016101c0850152613146565b92828403019101526131bb565b604051906138c68261324b565b8160a06000918281528260208201528260408201528260608201528260808201520152565b6040908151916138fa83613266565b602083825161390881613230565b60008152606083820152606084820152815282519261392684613230565b61392e6138b9565b84526139386138b9565b8385015280519061394882613230565b606082526060848301526060818301528401520152565b1561396657565b60405162461bcd60e51b815260206004820152600b60248201526a2ba927a723afaa27a5a2a760a91b6044820152606490fd5b51906001600160a01b038216820361015057565b81601f820112156101505780516139c381613622565b926139d160405194856132af565b81845260208284010111610150576134bc9160208085019101613438565b604051906139fc82613266565b60048252630307830360e41b6020830152565b60ff6008541660038110156101d75760018103613a95575060155460405163f77800e560e01b815290602090829060049082906001600160a01b03165afa908115610e3057600091613a5f575090565b906020823d8211613a8d575b81613a78602093836132af565b81010312613a8a57506134bc90613999565b80fd5b3d9150613a6b565b600203613ad457601554604051635f117aa360e11b815290602090829060049082906001600160a01b03165afa908115610e3057600091613a5f575090565b600090565b60038110156101d757600052601a60205260406000209060018060a01b031660005260205260406000205490565b15613b0e57565b60405162461bcd60e51b815260206004820152600a6024820152692727aa2fa9a2a62622a960b11b6044820152606490fd5b51906001600160401b038216820361015057565b15613b5b57565b60405162461bcd60e51b815260206004820152601360248201527224a72b20a624a22fa0aa2a22a9aa20aa24a7a760691b6044820152606490fd5b81810292918115918404141715613ba957565b634e487b7160e01b600052601160045260246000fd5b91908203918211613ba957565b90949392606092613be1836080810198612f83565b6001600160a01b0316602083015260408201520152565b919060038310156101d757604092613c7b7ffe2caf3897ec3e02a1d458d232d7c62c17809d25dbfe65864ce842162d6c217c93600090838252601a60205286822060018060a01b03861690818452602052613c568289852054613c81565b978389949287869452601a602052828220908252602052205560405194859485613bcc565b0390a190565b91908201809211613ba957565b60038110156101d7576000818152601a60205260409384822060018060a01b0385169081845260205285832054828110613d195791867f9060f8ffc7acd8270abf2337023e6377669ca44d5b2a23f3513a29380940f35796959492613cf683613c7b96613bbf565b98848a959288879452601a60205282822090825260205220555194859485613bcc565b865162461bcd60e51b8152602060048201526014602482015273125394d551919250d251539517d1115413d4d25560621b6044820152606490fd5b6001600160a01b0390911681526020810191909152606081019291613d7c9160400190612f83565b565b9290600460ff8154166008811015613fd657806002613da69214159081614040575b506136b9565b821561400b576003851015613ff65784158015613dfe575b50507f68ffd6ad89c76c56b0b5206ae0c1a14cbffb37023d4e80f635ff7397c56b116b9250613c7b613df1838387613bf8565b9460405193849384613d54565b6001861460008115613feb575b8115613fc6575b50613e1d915061395f565b613e2685615123565b936001600160a01b039081613e3a88615123565b60408051636eb1769f60e11b81526001600160a01b038516878201908152306020808301919091529a9491938b9385939284900301918391165afa8015610e30578791600091613f96575b5010613f595782916000889460649360405197889687956323b872dd60e01b87521690850152306024850152896044850152165af1908115610e3057600091613efd575b507f68ffd6ad89c76c56b0b5206ae0c1a14cbffb37023d4e80f635ff7397c56b116b9350613ef6906150e5565b3880613dbe565b91929382813d8311613f52575b613f1481836132af565b81010312613a8a575090613ef6613f4c7f68ffd6ad89c76c56b0b5206ae0c1a14cbffb37023d4e80f635ff7397c56b116b9493613734565b90613ec9565b503d613f0a565b60405162461bcd60e51b81528085018890526016602482015275494e53554646494349454e545f414c4c4f57414e434560501b6044820152606490fd5b91508882813d8311613fbf575b613fad81836132af565b81010312613a8a575086905138613e85565b503d613fa3565b9050613fd657613e1d9038613e12565b602182634e487b7160e01b6000525260246000fd5b600288149150613e0b565b602190634e487b7160e01b6000525260246000fd5b60649060206040519162461bcd60e51b8352820152600e60248201526d14d51052d157d49154555254915160921b6044820152fd5b60039150141538613da0565b3d15614077573d9061405d82613622565b9161406b60405193846132af565b82523d6000602084013e565b606090565b1561408357565b60405162461bcd60e51b815260206004820152600b60248201526a10d0531317d1905253115160aa1b6044820152606490fd5b91906140c3828285613c8e565b60155460408051632ee4b68b60e11b815292959092916020916001600160a01b039160049190831684868481845afa95861561435857600096614363575b508483918851928380926318da001160e01b82525afa90811561435857908491600091614321575b5016946142c5576003811015613fd6578061418b575050505083929161416b600080808060008051602061531a83398151915299613c7b975af161164561404c565b516001600160a01b03909216825260208201929092529081906040820190565b90839488926000959495600182149081156142ba575b8115614289575b50956141c16000926141bc6141f29961395f565b615123565b169288519687958694859363a9059cbb60e01b8552840160209093929193604081019460018060a01b031681520152565b03925af191821561427e5760009261422a575b505060008051602061531a833981519152939291614225613c7b926150e5565b61416b565b81819392933d8311614277575b61424181836132af565b81010312613a8a575060008051602061531a83398151915293929161422561426b613c7b93613734565b92508193949550614205565b503d614237565b83513d6000823e3d90fd5b92955050919492506142a55790928492889260006141c16141a8565b602184634e487b7160e01b6000525260246000fd5b6002831491506141a1565b93509150506003821015613ff6575060008051602061531a833981519152939291613c7b916002810361430257506142fc846143b8565b5061416b565b6001810361431457506142fc84614e6a565b614225576142fc8461484f565b91508582813d8311614351575b61433881836132af565b81010312613a8a575061434b8491613999565b38614129565b503d61432e565b87513d6000823e3d90fd5b90958582813d8311614396575b61437a81836132af565b81010312613a8a57508461438e8492613734565b969150614101565b503d614370565b90816020910312610150575162ffffff811681036101505790565b60155460408051635f117aa360e11b8082529094936001600160a01b03936020939260049185908990849082908a165afa9788156148445760009861480d575b50601654845163095ea7b360e01b8082529188166001600160a01b031684820190815260208101869052919990918791839182908b9082906040010392165a90600091f1801561465e576147d9575b50856015541692845191825285828481875afa91821561465e576000926147a2575b5084516325abd85f60e11b808252929087818681895afa9081156143585760009161476d575b508651918883602481633488e95960e21b9a8b825260008b8301525afa92831561471557906144c994939291600093614755575b50614c59565b90866015541690855190815286818581855afa9081156146a257600091614720575b5085519063f77800e560e01b9586835288838781875afa928315614715579089916000946146dc575b506024895180968193825260018a8301525afa9283156143585790614543949392916000936146ad5750614c59565b94806015541697845193808552868585818d5afa9485156146a257908791600096614669575b50848751809c819382525afa98891561465e57600099614617575b5084519081526001600160a01b03989098169188019182526020820186905295969584928792839003604001918391600091165af190811561460d57506145d7575b506145d19150614e6a565b50600190565b82813d8311614606575b6145eb81836132af565b81010312610150576145ff6145d192613734565b50386145c6565b503d6145e1565b513d6000823e3d90fd5b90988682813d8311614657575b61462e81836132af565b81010312613a8a5750916000869492614649899a9b95613999565b9a9950929450929092614584565b503d614624565b85513d6000823e3d90fd5b9182819792973d831161469b575b61468181836132af565b81010312613a8a57506146948791613999565b9438614569565b503d614677565b86513d6000823e3d90fd5b6146ce919350893d8b116146d5575b6146c681836132af565b81019061439d565b91386144c3565b503d6146bc565b9182819592953d831161470e575b6146f481836132af565b81010312613a8a57506147078991613999565b9238614514565b503d6146ea565b88513d6000823e3d90fd5b908782813d831161474e575b61473681836132af565b81010312613a8a575061474890613999565b386144eb565b503d61472c565b6146ce9193508a3d8c116146d5576146c681836132af565b908882813d831161479b575b61478381836132af565b81010312613a8a575061479590613999565b3861448f565b503d614779565b90918682813d83116147d2575b6147b981836132af565b81010312613a8a57506147cb90613999565b9038614469565b503d6147af565b8581813d8311614806575b6147ee81836132af565b81010312610150576147ff90613734565b5038614447565b503d6147e4565b90978582813d831161483d575b61482481836132af565b81010312613a8a575061483690613999565b96386143f8565b503d61481a565b84513d6000823e3d90fd5b906015549160006040918251926325abd85f60e11b958685526020926004958481888160018060a01b038097165afa908115614c04579083918791614c21575b5016803b15614bf95785829188865180948193630d0e30db60e41b83525af18015614c04579087939291614c0e575b508482601554168551988980928d82525afa968715614c04578697614bc9575b50601654845163095ea7b360e01b8082529184166001600160a01b031685820190815260208101849052919890918791839182908b90889083906040010393165af18015614ac557614b95575b5081601554168451998a52858a8581845afa998a15614ac557879a614b5e575b50845163f77800e560e01b8082529a87828781865afa918215614b155788908a93614b1f575b508751633488e95960e21b815260018882015293849060249082905afa928315614b1557916149ab9391879695938b936147555750614c59565b96816015541699868b8751968780928582525afa948515614b0b579087918996614acf575b50848751809d819382525afa998a15614ac557879a614a7b575b5084519081526001600160a01b03999099169189019182526020820187905296979596849287928390036040019183918891165af1908115614a725750614a38575b5050506145d190614e6a565b82813d8311614a6b575b614a4c81836132af565b81010312613a8a575090614a626145d192613734565b50903880614a2c565b503d614a42565b513d84823e3d90fd5b9099508581813d8311614abe575b614a9381836132af565b81010312614aba579186869492614aac8a9b9c95613999565b9b9a509294509290926149ea565b8680fd5b503d614a89565b85513d89823e3d90fd5b8281939297503d8311614b04575b614ae781836132af565b81010312614b0057614af98791613999565b94386149d0565b8780fd5b503d614add565b86513d8a823e3d90fd5b87513d8b823e3d90fd5b80929350813d8311614b57575b614b3681836132af565b81010312614b53579087614b4c60249493613999565b9293614971565b8880fd5b503d614b2c565b9099508581813d8311614b8e575b614b7681836132af565b81010312614aba57614b8790613999565b983861494b565b503d614b6c565b8581813d8311614bc2575b614baa81836132af565b81010312614aba57614bbb90613734565b503861492b565b503d614ba0565b9096508481813d8311614bfd575b614be181836132af565b81010312614bf957614bf290613999565b95386148de565b8580fd5b503d614bd7565b84513d88823e3d90fd5b614c1a90969196613281565b94386148be565b809250868092503d8311614c52575b614c3a81836132af565b81010312614bf957614c4c8391613999565b3861488f565b503d614c30565b601654604051636eb1769f60e11b81523060048201526001600160a01b039182166024820181905293959493929091169190602081604481865afa8015610e30578591600091614e35575b5010614dc9575b50603c420193844211613ba9576016546040516101008101916001600160a01b0316906001600160401b038311818410176109db5760409283529384526001600160a01b03928316602085810191825262ffffff9687168685019081523060608801908152608088019a8b5260a08801998a52600060c0890181815260e08a01828152975163414bf38960e01b81529951891660048b01529451881660248a01529151909816604488015296518516606487015297516084860152955160a4850152945160c4840152511660e482015292918391610104918391905af1908115610e3057600091614d9a575090565b906020823d602011614dc1575b81614db4602093836132af565b81010312613a8a57505190565b3d9150614da7565b60405163095ea7b360e01b8152600481019190915260001960248201526020816044816000865af18015610e305715614cab576020813d602011614e2d575b81614e15602093836132af565b8101031261015057614e2690613734565b5038614cab565b3d9150614e08565b91506020823d602011614e62575b81614e50602093836132af565b81010312613a8a575084905138614ca4565b3d9150614e43565b60155460405163f77800e560e01b81526001600160a01b03916020908290600490829086165afa908115610e3057600091614ee9575b501690813b1561015057600091602483926040519485938492630852cd8d60e31b845260048401525af18015610e3057614eda5750600190565b614ee390613281565b386145d1565b906020823d8211614f1a575b81614f02602093836132af565b81010312613a8a5750614f1490613999565b38614ea0565b3d9150614ef5565b92909160ff6004541660088110156101d757806002614f49921415908161404057506136b9565b60038410156101d75783614fb2576000808084819482908215614fa8575b6001600160a01b031690f115610e30577f4a647b1d902051b0ae802f6050c58456d79d826bdf2bbf37a1bf13be97727b2d915b613c7b613df1838387613c8e565b6108fc9150614f67565b9091908260018514600081156150da575b81156150c8575b509061502192614fdb60209361395f565b6001600160a01b03614fec88615123565b1690600060405180968195829463a9059cbb60e01b84526004840160209093929193604081019460018060a01b031681520152565b03925af1908115610e3057600091615066575b50906150617f4a647b1d902051b0ae802f6050c58456d79d826bdf2bbf37a1bf13be97727b2d93926150e5565b614f9a565b906020823d82116150c0575b8161507f602093836132af565b81010312613a8a5750906150616150b77f4a647b1d902051b0ae802f6050c58456d79d826bdf2bbf37a1bf13be97727b2d9493613734565b91929350615034565b3d9150615072565b9150506101d757826000615021614fca565b600287149150614fc3565b156150ec57565b60405162461bcd60e51b815260206004820152600f60248201526e1514905394d1915497d19052531151608a1b6044820152606490fd5b60038110156101d757600281146151785760011461514057600090565b60155460405163f77800e560e01b815290602090829060049082906001600160a01b03165afa908115610e3057600091613a5f575090565b50601554604051635f117aa360e11b815290602090829060049082906001600160a01b03165afa908115610e3057600091613a5f575090565b806000917a184f03e93ff9f4daa797ed6e38ed64bf6a1f0100000000000000008082101561530b575b506d04ee2d6d415b85acef8100000000808310156152fc575b50662386f26fc10000808310156152ed575b506305f5e100808310156152de575b50612710808310156152cf575b5060648210156152bf575b600a809210156152b5575b6001908160218186019561524a87613622565b9661525860405198896132af565b808852615267601f1991613622565b01366020890137860101905b61527f575b5050505090565b600019019083906f181899199a1a9b1b9c1cb0b131b232b360811b8282061a8353049182156152b057919082615273565b615278565b9160010191615237565b919060646002910491019161522c565b60049193920491019138615221565b60089193920491019138615214565b60109193920491019138615205565b602091939204910191386151f3565b6040935081049150386151da56fe659f33fc6677bebf3a9bf3101092792e31f35766d0358e54577bdd91a655f6a0405787fa12a823e0f2b7631cc41b3ba8828b3321ca811111fa75cd3aa3bb5acec2575a0e9e593c00f959f8c92f12db2869c3395a3b0502d05e2516446f71f85b31ecc21a745e3968a04e9570e4425bc18fa8019c68028196b546d1669c200c681b6847dc741a1b0cd08d278845f9d819d87b734759afb55fe2de5cb82a9ae6728d1108e10bcb7c27dddfc02ed9d693a074039d026cf4ea4240b40f7d581ac802a2646970667358221220e4729c8350ed9965e7cfef223f52992187adb08588ff8b889d947c6a8027a67a64736f6c63430008130033","opcodes":"PUSH1 0xE0 PUSH1 0x40 SWAP1 DUP1 DUP3 MSTORE CALLVALUE PUSH3 0x388 JUMPI PUSH1 0xC0 DUP2 PUSH3 0x59B5 DUP1 CODESIZE SUB DUP1 SWAP2 PUSH3 0x25 DUP3 DUP6 PUSH3 0x38D JUMP JUMPDEST DUP4 CODECOPY DUP2 ADD SUB SLT PUSH3 0x388 JUMPI PUSH3 0x3B DUP2 PUSH3 0x3C7 JUMP JUMPDEST PUSH1 0x20 PUSH3 0x4A DUP2 DUP5 ADD PUSH3 0x3C7 JUMP JUMPDEST SWAP2 PUSH3 0x58 DUP6 DUP6 ADD PUSH3 0x3C7 JUMP JUMPDEST SWAP4 PUSH1 0x60 DUP2 ADD MLOAD SWAP1 PUSH1 0xA0 PUSH1 0x80 DUP3 ADD MLOAD SWAP2 ADD MLOAD SWAP2 PUSH1 0x80 MSTORE PUSH1 0xA0 MSTORE PUSH1 0xC0 MSTORE PUSH8 0x16345785D8A0000 PUSH1 0x12 SSTORE PUSH1 0x0 SWAP4 DUP5 PUSH1 0x13 SSTORE PUSH1 0x1 DUP1 PUSH1 0xA0 SHL SUB SWAP3 DUP4 SWAP2 DUP3 PUSH1 0x1 DUP1 PUSH1 0xA0 SHL SUB NOT SWAP7 AND DUP7 PUSH1 0x14 SLOAD AND OR PUSH1 0x14 SSTORE CALLER DUP7 PUSH1 0x15 SLOAD AND OR PUSH1 0x15 SSTORE DUP2 DUP9 MLOAD DUP1 SWAP3 PUSH4 0x3E21FA9 PUSH1 0xE6 SHL DUP3 MSTORE DUP2 PUSH1 0x4 SWAP7 DUP8 SWAP3 AND GAS STATICCALL SWAP1 DUP2 ISZERO PUSH3 0x37E JUMPI SWAP1 DUP6 SWAP2 DUP9 SWAP2 PUSH3 0x33A JUMPI JUMPDEST POP AND DUP6 PUSH1 0x16 SLOAD AND OR PUSH1 0x16 SSTORE PUSH3 0x124 PUSH3 0xF5 PUSH1 0x80 MLOAD PUSH3 0x425 JUMP JUMPDEST SWAP2 PUSH3 0x103 PUSH1 0xA0 MLOAD PUSH3 0x425 JUMP JUMPDEST SWAP3 PUSH3 0x149 PUSH3 0x115 PUSH1 0xC0 MLOAD PUSH3 0x425 JUMP JUMPDEST DUP12 MLOAD SWAP5 DUP6 SWAP4 DUP6 DUP6 ADD SWAP1 PUSH3 0x3DC JUMP JUMPDEST PUSH1 0x17 PUSH1 0xF9 SHL DUP1 DUP3 MSTORE PUSH3 0x13E PUSH1 0x1 SWAP9 DUP10 DUP1 SWAP5 ADD SWAP1 PUSH3 0x3DC JUMP JUMPDEST SWAP1 DUP2 MSTORE ADD SWAP1 PUSH3 0x3DC JUMP JUMPDEST SUB PUSH3 0x15E PUSH1 0x1F NOT SWAP2 DUP3 DUP2 ADD DUP6 MSTORE DUP5 PUSH3 0x38D JUMP JUMPDEST DUP3 MLOAD SWAP1 PUSH1 0x1 PUSH1 0x1 PUSH1 0x40 SHL SUB DUP3 GT PUSH3 0x327 JUMPI PUSH1 0x17 SLOAD DUP6 DUP2 DUP2 SHR SWAP2 AND DUP1 ISZERO PUSH3 0x31C JUMPI JUMPDEST DUP5 DUP3 LT EQ PUSH3 0x309 JUMPI PUSH1 0x1F DUP2 GT PUSH3 0x2BD JUMPI JUMPDEST POP DUP3 SWAP1 PUSH1 0x1F DUP4 GT PUSH1 0x1 EQ PUSH3 0x257 JUMPI POP DUP2 SWAP1 PUSH1 0x19 SWAP5 DUP12 SWAP3 PUSH3 0x24B JUMPI JUMPDEST POP POP PUSH1 0x0 NOT PUSH1 0x3 DUP4 SWAP1 SHL SHR NOT AND SWAP1 DUP5 SHL OR PUSH1 0x17 SSTORE JUMPDEST PUSH1 0xFF NOT SWAP4 DUP5 DUP2 SLOAD AND DUP2 SSTORE DUP9 DUP1 MSTORE PUSH1 0x18 DUP3 MSTORE PUSH3 0x15180 DUP11 DUP11 KECCAK256 SSTORE DUP4 DUP10 MSTORE PUSH3 0x3F480 DUP11 DUP11 KECCAK256 SSTORE PUSH1 0x2 DUP10 MSTORE PUSH3 0x93A80 DUP11 DUP11 KECCAK256 SSTORE PUSH1 0x3 DUP10 MSTORE PUSH3 0x127500 DUP11 DUP11 KECCAK256 SSTORE DUP9 MSTORE PUSH3 0x278D00 DUP10 DUP10 KECCAK256 SSTORE DUP8 DUP1 MSTORE MSTORE DUP7 DUP7 KECCAK256 SWAP2 DUP3 SLOAD AND OR SWAP1 SSTORE AND SWAP1 DUP3 SLOAD AND OR SWAP1 SSTORE MLOAD PUSH2 0x540F SWAP1 DUP2 PUSH3 0x5A6 DUP3 CODECOPY PUSH1 0x80 MLOAD DUP2 PUSH2 0x216C ADD MSTORE PUSH1 0xA0 MLOAD DUP2 PUSH2 0x2195 ADD MSTORE PUSH1 0xC0 MLOAD DUP2 PUSH2 0x21C4 ADD MSTORE RETURN JUMPDEST ADD MLOAD SWAP1 POP CODESIZE DUP1 PUSH3 0x1B1 JUMP JUMPDEST PUSH1 0x17 DUP12 MSTORE DUP4 DUP12 KECCAK256 SWAP1 DUP4 AND SWAP5 DUP7 SWAP4 SWAP3 SWAP1 DUP13 JUMPDEST DUP8 DUP2 LT PUSH3 0x2A5 JUMPI POP DUP4 PUSH1 0x19 SWAP8 LT PUSH3 0x28B JUMPI JUMPDEST POP POP POP DUP2 SHL ADD PUSH1 0x17 SSTORE PUSH3 0x1C6 JUMP JUMPDEST ADD MLOAD PUSH1 0x0 NOT PUSH1 0xF8 DUP5 PUSH1 0x3 SHL AND SHR NOT AND SWAP1 SSTORE CODESIZE DUP1 DUP1 PUSH3 0x27C JUMP JUMPDEST DUP3 DUP3 ADD MLOAD DUP5 SSTORE DUP9 SWAP6 SWAP1 SWAP4 ADD SWAP3 SWAP2 DUP7 ADD SWAP2 DUP7 ADD PUSH3 0x268 JUMP JUMPDEST PUSH1 0x17 DUP12 MSTORE DUP4 DUP12 KECCAK256 PUSH1 0x1F DUP5 ADD PUSH1 0x5 SHR DUP2 ADD SWAP2 DUP6 DUP6 LT PUSH3 0x2FE JUMPI JUMPDEST PUSH1 0x1F ADD PUSH1 0x5 SHR ADD SWAP1 DUP7 SWAP1 JUMPDEST DUP3 DUP2 LT PUSH3 0x2F2 JUMPI POP POP PUSH3 0x194 JUMP JUMPDEST DUP13 DUP2 SSTORE ADD DUP7 SWAP1 PUSH3 0x2E2 JUMP JUMPDEST SWAP1 SWAP2 POP DUP2 SWAP1 PUSH3 0x2D7 JUMP JUMPDEST PUSH4 0x4E487B71 PUSH1 0xE0 SHL DUP12 MSTORE PUSH1 0x22 DUP8 MSTORE PUSH1 0x24 DUP12 REVERT JUMPDEST SWAP1 PUSH1 0x7F AND SWAP1 PUSH3 0x181 JUMP JUMPDEST PUSH4 0x4E487B71 PUSH1 0xE0 SHL DUP11 MSTORE PUSH1 0x41 DUP7 MSTORE PUSH1 0x24 DUP11 REVERT JUMPDEST DUP1 SWAP3 POP DUP4 DUP1 SWAP3 POP RETURNDATASIZE DUP4 GT PUSH3 0x376 JUMPI JUMPDEST PUSH3 0x356 DUP2 DUP4 PUSH3 0x38D JUMP JUMPDEST DUP2 ADD SUB SLT PUSH3 0x372 JUMPI PUSH3 0x36B DUP6 SWAP2 PUSH3 0x3C7 JUMP JUMPDEST CODESIZE PUSH3 0xD9 JUMP JUMPDEST DUP7 DUP1 REVERT JUMPDEST POP RETURNDATASIZE PUSH3 0x34A JUMP JUMPDEST DUP9 MLOAD RETURNDATASIZE DUP10 DUP3 RETURNDATACOPY RETURNDATASIZE SWAP1 REVERT JUMPDEST PUSH1 0x0 DUP1 REVERT JUMPDEST PUSH1 0x1F SWAP1 SWAP2 ADD PUSH1 0x1F NOT AND DUP2 ADD SWAP1 PUSH1 0x1 PUSH1 0x1 PUSH1 0x40 SHL SUB DUP3 GT SWAP1 DUP3 LT OR PUSH3 0x3B1 JUMPI PUSH1 0x40 MSTORE JUMP JUMPDEST PUSH4 0x4E487B71 PUSH1 0xE0 SHL PUSH1 0x0 MSTORE PUSH1 0x41 PUSH1 0x4 MSTORE PUSH1 0x24 PUSH1 0x0 REVERT JUMPDEST MLOAD SWAP1 PUSH1 0x1 PUSH1 0x1 PUSH1 0xA0 SHL SUB DUP3 AND DUP3 SUB PUSH3 0x388 JUMPI JUMP JUMPDEST SWAP1 DUP2 MLOAD SWAP2 PUSH1 0x0 JUMPDEST DUP4 DUP2 LT PUSH3 0x3F5 JUMPI POP POP ADD PUSH1 0x0 DUP2 MSTORE SWAP1 JUMP JUMPDEST DUP1 PUSH1 0x20 DUP1 SWAP3 DUP5 ADD ADD MLOAD DUP2 DUP6 ADD MSTORE ADD PUSH3 0x3E3 JUMP JUMPDEST PUSH1 0x1 PUSH1 0x1 PUSH1 0x40 SHL SUB DUP2 GT PUSH3 0x3B1 JUMPI PUSH1 0x1F ADD PUSH1 0x1F NOT AND PUSH1 0x20 ADD SWAP1 JUMP JUMPDEST DUP1 PUSH1 0x0 SWAP2 PUSH27 0x184F03E93FF9F4DAA797ED6E38ED64BF6A1F010000000000000000 DUP1 DUP3 LT ISZERO PUSH3 0x596 JUMPI JUMPDEST POP PUSH14 0x4EE2D6D415B85ACEF8100000000 DUP1 DUP4 LT ISZERO PUSH3 0x586 JUMPI JUMPDEST POP PUSH7 0x2386F26FC10000 DUP1 DUP4 LT ISZERO PUSH3 0x576 JUMPI JUMPDEST POP PUSH4 0x5F5E100 DUP1 DUP4 LT ISZERO PUSH3 0x566 JUMPI JUMPDEST POP PUSH2 0x2710 DUP1 DUP4 LT ISZERO PUSH3 0x556 JUMPI JUMPDEST POP PUSH1 0x64 DUP3 LT ISZERO PUSH3 0x545 JUMPI JUMPDEST PUSH1 0xA DUP1 SWAP3 LT ISZERO PUSH3 0x53A JUMPI JUMPDEST PUSH1 0x1 SWAP1 DUP2 PUSH1 0x21 DUP2 DUP7 ADD SWAP6 PUSH3 0x4C7 DUP8 PUSH3 0x409 JUMP JUMPDEST SWAP7 PUSH3 0x4D7 PUSH1 0x40 MLOAD SWAP9 DUP10 PUSH3 0x38D JUMP JUMPDEST DUP1 DUP9 MSTORE PUSH3 0x4E8 PUSH1 0x1F NOT SWAP2 PUSH3 0x409 JUMP JUMPDEST ADD CALLDATASIZE PUSH1 0x20 DUP10 ADD CALLDATACOPY DUP7 ADD ADD SWAP1 JUMPDEST PUSH3 0x501 JUMPI JUMPDEST POP POP POP POP SWAP1 JUMP JUMPDEST PUSH1 0x0 NOT ADD SWAP1 DUP4 SWAP1 PUSH16 0x181899199A1A9B1B9C1CB0B131B232B3 PUSH1 0x81 SHL DUP3 DUP3 MOD BYTE DUP4 MSTORE8 DIV SWAP2 DUP3 ISZERO PUSH3 0x534 JUMPI SWAP2 SWAP1 DUP3 PUSH3 0x4F4 JUMP JUMPDEST PUSH3 0x4FA JUMP JUMPDEST SWAP2 PUSH1 0x1 ADD SWAP2 PUSH3 0x4B2 JUMP JUMPDEST SWAP2 SWAP1 PUSH1 0x64 PUSH1 0x2 SWAP2 DIV SWAP2 ADD SWAP2 PUSH3 0x4A6 JUMP JUMPDEST PUSH1 0x4 SWAP2 SWAP4 SWAP3 DIV SWAP2 ADD SWAP2 CODESIZE PUSH3 0x49A JUMP JUMPDEST PUSH1 0x8 SWAP2 SWAP4 SWAP3 DIV SWAP2 ADD SWAP2 CODESIZE PUSH3 0x48C JUMP JUMPDEST PUSH1 0x10 SWAP2 SWAP4 SWAP3 DIV SWAP2 ADD SWAP2 CODESIZE PUSH3 0x47C JUMP JUMPDEST PUSH1 0x20 SWAP2 SWAP4 SWAP3 DIV SWAP2 ADD SWAP2 CODESIZE PUSH3 0x469 JUMP JUMPDEST PUSH1 0x40 SWAP4 POP DUP2 DIV SWAP2 POP CODESIZE PUSH3 0x44F JUMP INVALID PUSH1 0x80 DUP1 PUSH1 0x40 MSTORE PUSH1 0x4 CALLDATASIZE LT ISZERO PUSH2 0x1D JUMPI JUMPDEST POP CALLDATASIZE ISZERO PUSH2 0x1B JUMPI PUSH1 0x0 DUP1 REVERT JUMPDEST STOP JUMPDEST PUSH1 0x0 CALLDATALOAD PUSH1 0xE0 SHR SWAP1 DUP2 PUSH4 0x10A38F5 EQ PUSH2 0x2F64 JUMPI POP DUP1 PUSH4 0x5C1F502 EQ PUSH2 0x2F1B JUMPI DUP1 PUSH4 0x7388DBA EQ PUSH2 0x2C43 JUMPI DUP1 PUSH4 0x917E776 EQ PUSH2 0x2BFD JUMPI DUP1 PUSH4 0x17906C2E EQ PUSH2 0x2BDF JUMPI DUP1 PUSH4 0x1D0B4AF5 EQ PUSH2 0x2B0F JUMPI DUP1 PUSH4 0x3D876D5D EQ PUSH2 0x22D1 JUMPI DUP1 PUSH4 0x4C38D877 EQ PUSH2 0x22A1 JUMPI DUP1 PUSH4 0x4E69D560 EQ PUSH2 0x2279 JUMPI DUP1 PUSH4 0x52A6CB4A EQ PUSH2 0x2260 JUMPI DUP1 PUSH4 0x54FD4D50 EQ PUSH2 0x2156 JUMPI DUP1 PUSH4 0x5AD4E170 EQ PUSH2 0x2129 JUMPI DUP1 PUSH4 0x5C63ED69 EQ PUSH2 0x20F9 JUMPI DUP1 PUSH4 0x729E2EB1 EQ PUSH2 0x2029 JUMPI DUP1 PUSH4 0x7ABE914D EQ PUSH2 0x1DCA JUMPI DUP1 PUSH4 0x8C6838BA EQ PUSH2 0x1D7E JUMPI DUP1 PUSH4 0x8DA5CB5B EQ PUSH2 0x1D55 JUMPI DUP1 PUSH4 0x8F287DC2 EQ PUSH2 0x12D0 JUMPI DUP1 PUSH4 0x8F903C79 EQ PUSH2 0xFBC JUMPI DUP1 PUSH4 0xD24E0C87 EQ PUSH2 0xF9E JUMPI DUP1 PUSH4 0xD2AF47AB EQ PUSH2 0x2A8 JUMPI DUP1 PUSH4 0xED70D5D5 EQ PUSH2 0x1ED JUMPI DUP1 PUSH4 0xF2D7DBB6 EQ PUSH2 0x155 JUMPI PUSH4 0xFAEB5E17 EQ PUSH2 0x132 JUMPI CODESIZE PUSH2 0xF JUMP JUMPDEST CALLVALUE PUSH2 0x150 JUMPI PUSH1 0x0 CALLDATASIZE PUSH1 0x3 NOT ADD SLT PUSH2 0x150 JUMPI PUSH1 0x20 PUSH1 0xB SLOAD PUSH1 0x40 MLOAD SWAP1 DUP2 MSTORE RETURN JUMPDEST PUSH1 0x0 DUP1 REVERT JUMPDEST CALLVALUE PUSH2 0x150 JUMPI PUSH2 0x163 CALLDATASIZE PUSH2 0x35F3 JUMP JUMPDEST SWAP1 PUSH1 0xFF PUSH1 0x8 SLOAD AND SWAP1 PUSH1 0x3 DUP3 LT ISZERO PUSH2 0x1D7 JUMPI PUSH1 0x3 DUP2 LT ISZERO PUSH2 0x1D7 JUMPI PUSH1 0x20 SWAP3 PUSH2 0x18E PUSH2 0x1A0 SWAP4 DUP4 EQ PUSH2 0x395F JUMP JUMPDEST PUSH2 0x198 CALLER DUP4 PUSH2 0x3AD9 JUMP JUMPDEST SWAP2 CALLER SWAP1 PUSH2 0x4F22 JUMP JUMPDEST PUSH1 0x9 SLOAD PUSH1 0x1 PUSH1 0x1 PUSH1 0xA0 SHL SUB SWAP1 CALLER SWAP1 DUP3 AND SUB PUSH2 0x1C3 JUMPI POP DUP1 PUSH1 0xC SSTORE JUMPDEST PUSH1 0x40 MLOAD SWAP1 DUP2 MSTORE RETURN JUMPDEST PUSH1 0xA SLOAD AND CALLER SUB PUSH2 0x1BB JUMPI JUMPDEST DUP1 PUSH1 0xB SSTORE PUSH2 0x1BB JUMP JUMPDEST PUSH4 0x4E487B71 PUSH1 0xE0 SHL PUSH1 0x0 MSTORE PUSH1 0x21 PUSH1 0x4 MSTORE PUSH1 0x24 PUSH1 0x0 REVERT JUMPDEST CALLVALUE PUSH2 0x150 JUMPI PUSH2 0x1FB CALLDATASIZE PUSH2 0x35C0 JUMP JUMPDEST PUSH1 0xFF PUSH1 0x8 SWAP4 SWAP3 SWAP4 SLOAD AND PUSH1 0x3 DUP2 LT ISZERO PUSH2 0x1D7 JUMPI PUSH1 0x3 DUP4 LT ISZERO PUSH2 0x1D7 JUMPI PUSH2 0x221 SWAP1 DUP4 EQ PUSH2 0x395F JUMP JUMPDEST DUP2 PUSH1 0x0 MSTORE PUSH1 0x1A PUSH1 0x20 MSTORE PUSH1 0x40 PUSH1 0x0 KECCAK256 CALLER PUSH1 0x0 MSTORE PUSH1 0x20 MSTORE DUP1 PUSH1 0x40 PUSH1 0x0 KECCAK256 SLOAD LT PUSH2 0x270 JUMPI PUSH1 0x20 SWAP3 PUSH2 0x250 SWAP3 CALLER SWAP1 PUSH2 0x4F22 JUMP JUMPDEST PUSH1 0x9 SLOAD CALLER PUSH1 0x1 PUSH1 0x1 PUSH1 0xA0 SHL SUB SWAP1 SWAP2 AND SUB PUSH2 0x1CE JUMPI DUP1 PUSH1 0xC SSTORE PUSH1 0x40 MLOAD SWAP1 DUP2 MSTORE RETURN JUMPDEST PUSH1 0x40 MLOAD PUSH3 0x461BCD PUSH1 0xE5 SHL DUP2 MSTORE PUSH1 0x20 PUSH1 0x4 DUP3 ADD MSTORE PUSH1 0x10 PUSH1 0x24 DUP3 ADD MSTORE PUSH16 0x4E4F545F454E4F5547485F5354414B45 PUSH1 0x80 SHL PUSH1 0x44 DUP3 ADD MSTORE PUSH1 0x64 SWAP1 REVERT JUMPDEST PUSH2 0x120 CALLDATASIZE PUSH1 0x3 NOT ADD SLT PUSH2 0x150 JUMPI PUSH1 0x4 CALLDATALOAD PUSH1 0x1 PUSH1 0x1 PUSH1 0x40 SHL SUB DUP2 GT PUSH2 0x150 JUMPI PUSH2 0x2D4 SWAP1 CALLDATASIZE SWAP1 PUSH1 0x4 ADD PUSH2 0x363D JUMP JUMPDEST PUSH1 0x5 PUSH1 0x24 CALLDATALOAD LT ISZERO PUSH2 0x150 JUMPI PUSH1 0x5 PUSH1 0x44 CALLDATALOAD LT ISZERO PUSH2 0x150 JUMPI PUSH1 0x3 PUSH1 0xA4 CALLDATALOAD LT ISZERO PUSH2 0x150 JUMPI PUSH1 0xC4 CALLDATALOAD PUSH1 0x1 PUSH1 0x1 PUSH1 0xA0 SHL SUB DUP2 AND SWAP1 SUB PUSH2 0x150 JUMPI PUSH1 0xE4 CALLDATALOAD PUSH1 0x1 PUSH1 0x1 PUSH1 0xA0 SHL SUB DUP2 AND SWAP1 SUB PUSH2 0x150 JUMPI PUSH2 0x104 CALLDATALOAD ISZERO ISZERO PUSH2 0x104 CALLDATALOAD SUB PUSH2 0x150 JUMPI PUSH2 0x332 PUSH2 0x38EB JUMP JUMPDEST POP PUSH1 0x0 PUSH1 0x1 PUSH1 0xA4 CALLDATALOAD EQ DUP1 ISZERO PUSH2 0xF8E JUMPI JUMPDEST DUP2 SWAP1 DUP1 ISZERO PUSH2 0xF7F JUMPI JUMPDEST PUSH2 0x355 SWAP2 POP PUSH2 0x395F JUMP JUMPDEST PUSH1 0x0 SLOAD PUSH1 0x1 PUSH1 0x1 PUSH1 0xA0 SHL SUB AND CALLER SUB PUSH2 0x150 JUMPI PUSH1 0x14 SLOAD PUSH1 0x40 MLOAD PUSH4 0x122643F3 PUSH1 0xE2 SHL DUP2 MSTORE PUSH1 0x1 PUSH1 0x1 PUSH1 0xA0 SHL SUB PUSH1 0xE4 CALLDATALOAD DUP2 AND PUSH1 0x4 DUP4 ADD MSTORE SWAP1 SWAP2 PUSH1 0x20 SWAP2 DUP4 SWAP2 PUSH1 0x24 SWAP2 DUP4 SWAP2 AND GAS STATICCALL SWAP1 DUP2 ISZERO PUSH2 0xE30 JUMPI PUSH1 0x0 SWAP2 PUSH2 0xF45 JUMPI JUMPDEST POP ISZERO PUSH2 0xF0F JUMPI PUSH1 0xFF PUSH1 0x4 SLOAD AND PUSH1 0x8 DUP2 LT ISZERO PUSH2 0x1D7 JUMPI PUSH1 0x0 MSTORE PUSH1 0x19 PUSH1 0x20 MSTORE PUSH2 0x3D5 PUSH1 0xFF PUSH1 0x40 PUSH1 0x0 KECCAK256 SLOAD AND PUSH2 0x36B9 JUMP JUMPDEST PUSH1 0x84 CALLDATALOAD ISZERO PUSH2 0xED6 JUMPI PUSH1 0x64 CALLDATALOAD ISZERO PUSH2 0xEA2 JUMPI PUSH2 0x104 CALLDATALOAD ISZERO PUSH2 0xE3C JUMPI PUSH2 0x1D7 JUMPI PUSH1 0xA4 CALLDATALOAD PUSH1 0x0 MSTORE PUSH1 0x1A PUSH1 0x20 MSTORE PUSH1 0x40 PUSH1 0x0 KECCAK256 PUSH1 0x1 DUP1 PUSH1 0xA0 SHL SUB PUSH1 0xE4 CALLDATALOAD AND PUSH1 0x0 MSTORE PUSH1 0x20 MSTORE PUSH2 0x426 PUSH1 0x84 CALLDATALOAD PUSH1 0x40 PUSH1 0x0 KECCAK256 SLOAD LT ISZERO PUSH2 0x36F6 JUMP JUMPDEST PUSH1 0x84 CALLDATALOAD JUMPDEST PUSH2 0x435 PUSH1 0x44 CALLDATALOAD PUSH2 0x3326 JUMP JUMPDEST PUSH1 0xFF PUSH1 0x44 CALLDATALOAD AND PUSH1 0x0 MSTORE PUSH1 0x18 PUSH1 0x20 MSTORE PUSH1 0x40 PUSH1 0x0 KECCAK256 SLOAD SWAP2 PUSH1 0xFF PUSH1 0x4 SLOAD AND SWAP2 PUSH1 0x8 DUP4 LT ISZERO PUSH2 0x1D7 JUMPI PUSH1 0x0 SWAP3 DUP4 MSTORE PUSH1 0x19 PUSH1 0x20 MSTORE PUSH1 0x40 DUP1 DUP5 KECCAK256 DUP1 SLOAD PUSH1 0xFF NOT SWAP1 DUP2 AND SWAP1 SWAP2 SSTORE PUSH1 0x1 DUP1 DUP7 MSTORE PUSH32 0xFC941C3961FB6541DA34150022CDDF959DA0FB2353866A6BFBD249C2DA092914 DUP1 SLOAD DUP4 AND DUP3 OR SWAP1 SSTORE PUSH1 0x4 DUP1 SLOAD SWAP1 SWAP3 AND OR DUP2 SSTORE PUSH1 0x14 SLOAD SWAP2 MLOAD PUSH4 0x3BCAA1D9 PUSH1 0xE2 SHL DUP2 MSTORE PUSH1 0x1 PUSH1 0x1 PUSH1 0xA0 SHL SUB PUSH1 0xE4 CALLDATALOAD DUP2 AND SWAP3 DUP3 ADD SWAP3 SWAP1 SWAP3 MSTORE SWAP5 SWAP2 DUP6 SWAP2 PUSH1 0x24 SWAP2 DUP4 SWAP2 AND GAS STATICCALL SWAP3 DUP4 ISZERO PUSH2 0xE30 JUMPI PUSH1 0x0 SWAP4 PUSH2 0xD7D JUMPI JUMPDEST POP PUSH1 0x40 MLOAD SWAP4 PUSH2 0x4F8 DUP6 PUSH2 0x324B JUMP JUMPDEST PUSH1 0x1 DUP6 MSTORE PUSH2 0x507 PUSH1 0x24 CALLDATALOAD PUSH2 0x3326 JUMP JUMPDEST PUSH1 0x24 CALLDATALOAD PUSH1 0x20 DUP7 ADD MSTORE TIMESTAMP PUSH1 0x40 DUP7 ADD MSTORE PUSH1 0x0 PUSH1 0x60 DUP7 ADD MSTORE PUSH1 0x80 DUP6 ADD MSTORE PUSH2 0x530 PUSH1 0xA4 CALLDATALOAD PUSH1 0xA0 DUP7 ADD PUSH2 0x3330 JUMP JUMPDEST PUSH1 0x40 MLOAD SWAP1 PUSH2 0x53D DUP3 PUSH2 0x324B JUMP JUMPDEST PUSH1 0x0 DUP3 MSTORE PUSH1 0x1 DUP1 PUSH1 0xA0 SHL SUB PUSH1 0xE4 CALLDATALOAD AND PUSH1 0x20 DUP4 ADD MSTORE PUSH1 0x40 DUP3 ADD MSTORE PUSH1 0x64 CALLDATALOAD PUSH1 0x60 DUP3 ADD MSTORE PUSH1 0x0 PUSH1 0x80 DUP3 ADD MSTORE PUSH1 0x0 PUSH1 0xA0 DUP3 ADD MSTORE PUSH2 0x574 PUSH2 0x39EF JUMP JUMPDEST PUSH2 0x57C PUSH2 0x39EF JUMP JUMPDEST SWAP1 PUSH1 0x40 MLOAD SWAP4 PUSH2 0x58A DUP6 PUSH2 0x3230 JUMP JUMPDEST DUP5 MSTORE PUSH1 0x20 DUP5 ADD MSTORE PUSH1 0x40 DUP4 ADD MSTORE PUSH1 0x40 MLOAD SWAP4 PUSH2 0x5A3 DUP6 PUSH2 0x3230 JUMP JUMPDEST DUP5 MSTORE PUSH1 0x20 DUP5 ADD MSTORE PUSH1 0x40 DUP4 ADD MSTORE PUSH1 0x40 MLOAD SWAP2 PUSH2 0x5BC DUP4 PUSH2 0x3266 JUMP JUMPDEST DUP2 DUP4 MSTORE PUSH1 0x20 DUP4 ADD MSTORE DUP1 MLOAD PUSH1 0x1 DUP1 SLOAD PUSH1 0x1 PUSH1 0x1 PUSH1 0xA0 SHL SUB NOT AND PUSH1 0x1 PUSH1 0x1 PUSH1 0xA0 SHL SUB SWAP3 SWAP1 SWAP3 AND SWAP2 SWAP1 SWAP2 OR SWAP1 SSTORE PUSH1 0x20 DUP2 ADD MLOAD DUP1 MLOAD SWAP1 PUSH1 0x1 PUSH1 0x1 PUSH1 0x40 SHL SUB DUP3 GT PUSH2 0x9DB JUMPI PUSH2 0x607 PUSH1 0x2 SLOAD PUSH2 0x2F90 JUMP JUMPDEST PUSH1 0x1F DUP2 GT PUSH2 0xD14 JUMPI JUMPDEST POP PUSH1 0x20 SWAP1 PUSH1 0x1F DUP4 GT PUSH1 0x1 EQ PUSH2 0xC9B JUMPI PUSH1 0x40 SWAP4 SWAP3 SWAP2 PUSH1 0x0 SWAP2 DUP4 PUSH2 0xC90 JUMPI JUMPDEST POP POP DUP2 PUSH1 0x1 SHL SWAP2 PUSH1 0x0 NOT SWAP1 PUSH1 0x3 SHL SHR NOT AND OR PUSH1 0x2 SSTORE JUMPDEST ADD MLOAD DUP1 MLOAD SWAP1 PUSH1 0x1 PUSH1 0x1 PUSH1 0x40 SHL SUB DUP3 GT PUSH2 0x9DB JUMPI DUP2 SWAP1 PUSH2 0x663 PUSH1 0x3 SLOAD PUSH2 0x2F90 JUMP JUMPDEST PUSH1 0x1F DUP2 GT PUSH2 0xC19 JUMPI JUMPDEST POP PUSH1 0x20 SWAP1 PUSH1 0x1F DUP4 GT PUSH1 0x1 EQ PUSH2 0xBA1 JUMPI PUSH1 0x0 SWAP3 PUSH2 0xB96 JUMPI JUMPDEST POP POP DUP2 PUSH1 0x1 SHL SWAP2 PUSH1 0x0 NOT SWAP1 PUSH1 0x3 SHL SHR NOT AND OR PUSH1 0x3 SSTORE JUMPDEST PUSH1 0x20 DUP2 ADD MLOAD DUP1 MLOAD DUP1 MLOAD SWAP1 PUSH1 0x8 DUP3 LT ISZERO PUSH2 0x1D7 JUMPI PUSH2 0x6B7 PUSH1 0xA0 SWAP3 PUSH2 0x3782 JUMP JUMPDEST PUSH1 0x20 DUP2 ADD MLOAD PUSH2 0x6C5 DUP2 PUSH2 0x3326 JUMP JUMPDEST PUSH2 0x6CE DUP2 PUSH2 0x3326 JUMP JUMPDEST PUSH2 0xFF00 PUSH1 0x4 SLOAD SWAP2 PUSH1 0x8 SHL AND SWAP1 PUSH2 0xFF00 NOT AND OR PUSH1 0x4 SSTORE PUSH1 0x40 DUP2 ADD MLOAD PUSH1 0x5 SSTORE PUSH1 0x60 DUP2 ADD MLOAD PUSH1 0x6 SSTORE PUSH1 0x80 DUP2 ADD MLOAD PUSH1 0x7 SSTORE ADD MLOAD SWAP1 PUSH1 0x3 DUP3 LT ISZERO PUSH2 0x1D7 JUMPI PUSH1 0x40 SWAP2 PUSH1 0xFF DUP1 NOT PUSH1 0x8 SLOAD AND SWAP2 AND OR PUSH1 0x8 SSTORE PUSH1 0xA0 PUSH1 0x20 DUP3 ADD MLOAD PUSH2 0x748 PUSH1 0x1 DUP1 DUP5 SHL SUB DUP3 MLOAD AND PUSH1 0x1 DUP1 PUSH1 0xA0 SHL SUB AND PUSH1 0x1 PUSH1 0x1 PUSH1 0x60 SHL SUB PUSH1 0xA0 SHL PUSH1 0x9 SLOAD AND OR PUSH1 0x9 SSTORE JUMP JUMPDEST PUSH2 0x774 PUSH1 0x1 DUP1 DUP5 SHL SUB PUSH1 0x20 DUP4 ADD MLOAD AND PUSH1 0x1 DUP1 PUSH1 0xA0 SHL SUB AND PUSH1 0x1 PUSH1 0x1 PUSH1 0x60 SHL SUB PUSH1 0xA0 SHL PUSH1 0xA SLOAD AND OR PUSH1 0xA SSTORE JUMP JUMPDEST DUP4 DUP2 ADD MLOAD PUSH1 0xB SSTORE PUSH1 0x60 DUP2 ADD MLOAD PUSH1 0xC SSTORE PUSH1 0x80 DUP2 ADD MLOAD PUSH1 0xD SSTORE ADD MLOAD PUSH1 0xE SSTORE ADD MLOAD SWAP1 DUP2 MLOAD SWAP2 DUP3 MLOAD PUSH1 0x1 PUSH1 0x1 PUSH1 0x40 SHL SUB DUP2 GT PUSH2 0x9DB JUMPI PUSH2 0x7B1 PUSH1 0xF SLOAD PUSH2 0x2F90 JUMP JUMPDEST PUSH1 0x1F DUP2 GT PUSH2 0xB43 JUMPI JUMPDEST POP PUSH1 0x20 PUSH1 0x1F DUP3 GT PUSH1 0x1 EQ PUSH2 0xAD1 JUMPI DUP2 SWAP3 SWAP4 SWAP5 PUSH1 0x0 SWAP3 PUSH2 0xAC6 JUMPI JUMPDEST POP POP DUP2 PUSH1 0x1 SHL SWAP2 PUSH1 0x0 NOT SWAP1 PUSH1 0x3 SHL SHR NOT AND OR PUSH1 0xF SSTORE JUMPDEST PUSH1 0x20 DUP2 ADD MLOAD DUP1 MLOAD SWAP1 PUSH1 0x1 PUSH1 0x1 PUSH1 0x40 SHL SUB DUP3 GT PUSH2 0x9DB JUMPI PUSH2 0x80B PUSH1 0x10 SLOAD PUSH2 0x2F90 JUMP JUMPDEST PUSH1 0x1F DUP2 GT PUSH2 0xA73 JUMPI JUMPDEST POP PUSH1 0x20 SWAP1 PUSH1 0x1F DUP4 GT PUSH1 0x1 EQ PUSH2 0x9FC JUMPI PUSH1 0x40 SWAP4 SWAP3 SWAP2 PUSH1 0x0 SWAP2 DUP4 PUSH2 0x9F1 JUMPI JUMPDEST POP POP DUP2 PUSH1 0x1 SHL SWAP2 PUSH1 0x0 NOT SWAP1 PUSH1 0x3 SHL SHR NOT AND OR PUSH1 0x10 SSTORE JUMPDEST ADD MLOAD SWAP1 DUP2 MLOAD SWAP1 PUSH1 0x1 PUSH1 0x1 PUSH1 0x40 SHL SUB DUP3 GT PUSH2 0x9DB JUMPI PUSH1 0x11 SWAP2 PUSH2 0x868 DUP4 SLOAD PUSH2 0x2F90 JUMP JUMPDEST PUSH1 0x1F DUP2 GT PUSH2 0x989 JUMPI JUMPDEST POP PUSH1 0x20 PUSH1 0x1F DUP3 GT PUSH1 0x1 EQ PUSH2 0x919 JUMPI DUP2 SWAP3 SWAP4 SWAP5 PUSH1 0x0 SWAP3 PUSH2 0x90E JUMPI JUMPDEST POP POP DUP2 PUSH1 0x1 SHL SWAP2 PUSH1 0x0 NOT SWAP1 PUSH1 0x3 SHL SHR NOT AND OR DUP3 SSTORE JUMPDEST PUSH1 0x13 SLOAD SWAP2 PUSH1 0x0 NOT DUP4 EQ PUSH2 0x8FA JUMPI POP PUSH1 0x1 PUSH2 0x8F6 SWAP3 ADD PUSH1 0x13 SSTORE PUSH32 0x6E8F9F12846CF7BA30ACDD742F3EAE58C49BEFEED93F00D60DE3BD4F7D09F223 PUSH1 0x40 MLOAD DUP1 PUSH2 0x8E7 DUP5 DUP3 PUSH2 0x3684 JUMP JUMPDEST SUB SWAP1 LOG1 PUSH1 0x40 MLOAD SWAP2 DUP3 SWAP2 DUP3 PUSH2 0x3684 JUMP JUMPDEST SUB SWAP1 RETURN JUMPDEST PUSH4 0x4E487B71 PUSH1 0xE0 SHL PUSH1 0x0 MSTORE PUSH1 0x4 MSTORE PUSH1 0x24 PUSH1 0x0 REVERT JUMPDEST ADD MLOAD SWAP1 POP DUP5 DUP1 PUSH2 0x88B JUMP JUMPDEST PUSH1 0x1F NOT DUP3 AND SWAP1 DUP5 PUSH1 0x0 MSTORE PUSH1 0x0 DUP1 MLOAD PUSH1 0x20 PUSH2 0x537A DUP4 CODECOPY DUP2 MLOAD SWAP2 MSTORE SWAP2 PUSH1 0x0 JUMPDEST DUP2 DUP2 LT PUSH2 0x971 JUMPI POP SWAP6 DUP4 PUSH1 0x1 SWAP6 SWAP7 SWAP8 LT PUSH2 0x958 JUMPI JUMPDEST POP POP POP DUP2 SHL ADD DUP3 SSTORE PUSH2 0x8A0 JUMP JUMPDEST ADD MLOAD PUSH1 0x0 NOT PUSH1 0xF8 DUP5 PUSH1 0x3 SHL AND SHR NOT AND SWAP1 SSTORE DUP5 DUP1 DUP1 PUSH2 0x94B JUMP JUMPDEST SWAP2 SWAP3 PUSH1 0x20 PUSH1 0x1 DUP2 SWAP3 DUP7 DUP12 ADD MLOAD DUP2 SSTORE ADD SWAP5 ADD SWAP3 ADD PUSH2 0x936 JUMP JUMPDEST DUP4 PUSH1 0x0 MSTORE PUSH1 0x0 DUP1 MLOAD PUSH1 0x20 PUSH2 0x537A DUP4 CODECOPY DUP2 MLOAD SWAP2 MSTORE PUSH1 0x1F DUP4 ADD PUSH1 0x5 SHR DUP2 ADD SWAP2 PUSH1 0x20 DUP5 LT PUSH2 0x9D1 JUMPI JUMPDEST PUSH1 0x1F ADD PUSH1 0x5 SHR ADD SWAP1 JUMPDEST DUP2 DUP2 LT PUSH2 0x9C5 JUMPI POP PUSH2 0x871 JUMP JUMPDEST PUSH1 0x0 DUP2 SSTORE PUSH1 0x1 ADD PUSH2 0x9B8 JUMP JUMPDEST SWAP1 SWAP2 POP DUP2 SWAP1 PUSH2 0x9AF JUMP JUMPDEST PUSH4 0x4E487B71 PUSH1 0xE0 SHL PUSH1 0x0 MSTORE PUSH1 0x41 PUSH1 0x4 MSTORE PUSH1 0x24 PUSH1 0x0 REVERT JUMPDEST ADD MLOAD SWAP1 POP DUP6 DUP1 PUSH2 0x831 JUMP JUMPDEST SWAP1 PUSH1 0x1F NOT DUP4 AND SWAP2 PUSH1 0x10 PUSH1 0x0 MSTORE PUSH1 0x0 DUP1 MLOAD PUSH1 0x20 PUSH2 0x539A DUP4 CODECOPY DUP2 MLOAD SWAP2 MSTORE SWAP3 PUSH1 0x0 JUMPDEST DUP2 DUP2 LT PUSH2 0xA5B JUMPI POP SWAP2 PUSH1 0x1 SWAP4 SWAP2 DUP6 PUSH1 0x40 SWAP8 SWAP7 SWAP5 LT PUSH2 0xA42 JUMPI JUMPDEST POP POP POP DUP2 SHL ADD PUSH1 0x10 SSTORE PUSH2 0x847 JUMP JUMPDEST ADD MLOAD PUSH1 0x0 NOT PUSH1 0xF8 DUP5 PUSH1 0x3 SHL AND SHR NOT AND SWAP1 SSTORE DUP6 DUP1 DUP1 PUSH2 0xA34 JUMP JUMPDEST SWAP3 SWAP4 PUSH1 0x20 PUSH1 0x1 DUP2 SWAP3 DUP8 DUP7 ADD MLOAD DUP2 SSTORE ADD SWAP6 ADD SWAP4 ADD PUSH2 0xA1B JUMP JUMPDEST PUSH1 0x10 PUSH1 0x0 MSTORE PUSH1 0x0 DUP1 MLOAD PUSH1 0x20 PUSH2 0x539A DUP4 CODECOPY DUP2 MLOAD SWAP2 MSTORE PUSH1 0x1F DUP5 ADD PUSH1 0x5 SHR DUP2 ADD SWAP2 PUSH1 0x20 DUP6 LT PUSH2 0xABC JUMPI JUMPDEST PUSH1 0x1F ADD PUSH1 0x5 SHR ADD SWAP1 JUMPDEST DUP2 DUP2 LT PUSH2 0xAB0 JUMPI POP PUSH2 0x814 JUMP JUMPDEST PUSH1 0x0 DUP2 SSTORE PUSH1 0x1 ADD PUSH2 0xAA3 JUMP JUMPDEST SWAP1 SWAP2 POP DUP2 SWAP1 PUSH2 0xA9A JUMP JUMPDEST ADD MLOAD SWAP1 POP DUP5 DUP1 PUSH2 0x7D4 JUMP JUMPDEST PUSH1 0x1F NOT DUP3 AND SWAP1 PUSH1 0xF PUSH1 0x0 MSTORE PUSH1 0x0 DUP1 MLOAD PUSH1 0x20 PUSH2 0x53BA DUP4 CODECOPY DUP2 MLOAD SWAP2 MSTORE SWAP2 PUSH1 0x0 JUMPDEST DUP2 DUP2 LT PUSH2 0xB2B JUMPI POP SWAP6 DUP4 PUSH1 0x1 SWAP6 SWAP7 SWAP8 LT PUSH2 0xB12 JUMPI JUMPDEST POP POP POP DUP2 SHL ADD PUSH1 0xF SSTORE PUSH2 0x7EA JUMP JUMPDEST ADD MLOAD PUSH1 0x0 NOT PUSH1 0xF8 DUP5 PUSH1 0x3 SHL AND SHR NOT AND SWAP1 SSTORE DUP5 DUP1 DUP1 PUSH2 0xB04 JUMP JUMPDEST SWAP2 SWAP3 PUSH1 0x20 PUSH1 0x1 DUP2 SWAP3 DUP7 DUP12 ADD MLOAD DUP2 SSTORE ADD SWAP5 ADD SWAP3 ADD PUSH2 0xAEF JUMP JUMPDEST PUSH1 0xF PUSH1 0x0 MSTORE PUSH1 0x0 DUP1 MLOAD PUSH1 0x20 PUSH2 0x53BA DUP4 CODECOPY DUP2 MLOAD SWAP2 MSTORE PUSH1 0x1F DUP4 ADD PUSH1 0x5 SHR DUP2 ADD SWAP2 PUSH1 0x20 DUP5 LT PUSH2 0xB8C JUMPI JUMPDEST PUSH1 0x1F ADD PUSH1 0x5 SHR ADD SWAP1 JUMPDEST DUP2 DUP2 LT PUSH2 0xB80 JUMPI POP PUSH2 0x7BA JUMP JUMPDEST PUSH1 0x0 DUP2 SSTORE PUSH1 0x1 ADD PUSH2 0xB73 JUMP JUMPDEST SWAP1 SWAP2 POP DUP2 SWAP1 PUSH2 0xB6A JUMP JUMPDEST ADD MLOAD SWAP1 POP DUP4 DUP1 PUSH2 0x683 JUMP JUMPDEST SWAP3 POP PUSH1 0x3 PUSH1 0x0 MSTORE PUSH1 0x0 DUP1 MLOAD PUSH1 0x20 PUSH2 0x535A DUP4 CODECOPY DUP2 MLOAD SWAP2 MSTORE SWAP1 PUSH1 0x0 SWAP4 JUMPDEST PUSH1 0x1F NOT DUP5 AND DUP6 LT PUSH2 0xBFE JUMPI PUSH1 0x1 SWAP5 POP DUP4 PUSH1 0x1F NOT DUP2 AND LT PUSH2 0xBE5 JUMPI JUMPDEST POP POP POP DUP2 SHL ADD PUSH1 0x3 SSTORE PUSH2 0x699 JUMP JUMPDEST ADD MLOAD PUSH1 0x0 NOT PUSH1 0xF8 DUP5 PUSH1 0x3 SHL AND SHR NOT AND SWAP1 SSTORE DUP4 DUP1 DUP1 PUSH2 0xBD7 JUMP JUMPDEST DUP2 DUP2 ADD MLOAD DUP4 SSTORE PUSH1 0x20 SWAP5 DUP6 ADD SWAP5 PUSH1 0x1 SWAP1 SWAP4 ADD SWAP3 SWAP1 SWAP2 ADD SWAP1 PUSH2 0xBBC JUMP JUMPDEST SWAP1 SWAP2 POP PUSH1 0x3 PUSH1 0x0 MSTORE PUSH1 0x1F DUP4 ADD PUSH1 0x5 SHR PUSH1 0x0 DUP1 MLOAD PUSH1 0x20 PUSH2 0x535A DUP4 CODECOPY DUP2 MLOAD SWAP2 MSTORE ADD SWAP1 PUSH1 0x20 DUP5 LT PUSH2 0xC7A JUMPI JUMPDEST SWAP1 PUSH1 0x1F DUP5 SWAP4 SWAP3 ADD PUSH1 0x5 SHR PUSH1 0x0 DUP1 MLOAD PUSH1 0x20 PUSH2 0x535A DUP4 CODECOPY DUP2 MLOAD SWAP2 MSTORE ADD SWAP1 JUMPDEST DUP2 DUP2 LT PUSH2 0xC6B JUMPI POP PUSH2 0x66C JUMP JUMPDEST PUSH1 0x0 DUP2 SSTORE DUP5 SWAP4 POP PUSH1 0x1 ADD PUSH2 0xC5E JUMP JUMPDEST PUSH1 0x0 DUP1 MLOAD PUSH1 0x20 PUSH2 0x535A DUP4 CODECOPY DUP2 MLOAD SWAP2 MSTORE SWAP2 POP PUSH2 0xC42 JUMP JUMPDEST ADD MLOAD SWAP1 POP DUP6 DUP1 PUSH2 0x62D JUMP JUMPDEST SWAP1 PUSH1 0x2 PUSH1 0x0 MSTORE PUSH1 0x0 DUP1 MLOAD PUSH1 0x20 PUSH2 0x533A DUP4 CODECOPY DUP2 MLOAD SWAP2 MSTORE SWAP2 PUSH1 0x0 JUMPDEST PUSH1 0x1F NOT DUP6 AND DUP2 LT PUSH2 0xCFC JUMPI POP SWAP2 DUP4 SWAP2 PUSH1 0x1 SWAP4 PUSH1 0x40 SWAP7 SWAP6 PUSH1 0x1F NOT DUP2 AND LT PUSH2 0xCE3 JUMPI JUMPDEST POP POP POP DUP2 SHL ADD PUSH1 0x2 SSTORE PUSH2 0x643 JUMP JUMPDEST ADD MLOAD PUSH1 0x0 NOT PUSH1 0xF8 DUP5 PUSH1 0x3 SHL AND SHR NOT AND SWAP1 SSTORE DUP6 DUP1 DUP1 PUSH2 0xCD5 JUMP JUMPDEST SWAP2 SWAP3 PUSH1 0x20 PUSH1 0x1 DUP2 SWAP3 DUP7 DUP6 ADD MLOAD DUP2 SSTORE ADD SWAP5 ADD SWAP3 ADD PUSH2 0xCB4 JUMP JUMPDEST PUSH1 0x2 PUSH1 0x0 MSTORE PUSH1 0x1F DUP4 ADD PUSH1 0x5 SHR PUSH1 0x0 DUP1 MLOAD PUSH1 0x20 PUSH2 0x533A DUP4 CODECOPY DUP2 MLOAD SWAP2 MSTORE ADD PUSH1 0x20 DUP5 LT PUSH2 0xD68 JUMPI JUMPDEST PUSH1 0x1F DUP3 ADD PUSH1 0x5 SHR PUSH1 0x0 DUP1 MLOAD PUSH1 0x20 PUSH2 0x533A DUP4 CODECOPY DUP2 MLOAD SWAP2 MSTORE ADD DUP2 LT PUSH2 0xD5C JUMPI POP PUSH2 0x610 JUMP JUMPDEST PUSH1 0x0 DUP2 SSTORE PUSH1 0x1 ADD PUSH2 0xD39 JUMP JUMPDEST POP PUSH1 0x0 DUP1 MLOAD PUSH1 0x20 PUSH2 0x533A DUP4 CODECOPY DUP2 MLOAD SWAP2 MSTORE PUSH2 0xD39 JUMP JUMPDEST SWAP1 SWAP3 POP RETURNDATASIZE DUP1 PUSH1 0x0 DUP4 RETURNDATACOPY PUSH2 0xD90 DUP2 DUP4 PUSH2 0x32AF JUMP JUMPDEST PUSH1 0x20 DUP3 DUP3 DUP2 ADD SUB SLT PUSH2 0x150 JUMPI DUP2 MLOAD SWAP2 PUSH1 0x1 PUSH1 0x1 PUSH1 0x40 SHL SUB DUP4 GT PUSH2 0x150 JUMPI PUSH1 0x60 DUP4 DUP3 ADD DUP4 DUP4 ADD SUB SLT PUSH2 0x150 JUMPI PUSH1 0x40 MLOAD SWAP3 PUSH2 0xDC8 DUP5 PUSH2 0x3230 JUMP JUMPDEST PUSH2 0xDD3 DUP2 DUP4 ADD PUSH2 0x3999 JUMP JUMPDEST DUP5 MSTORE PUSH1 0x20 DUP2 DUP4 ADD ADD MLOAD PUSH1 0x1 PUSH1 0x1 PUSH1 0x40 SHL SUB DUP2 GT PUSH2 0x150 JUMPI PUSH2 0xDFB SWAP1 DUP5 DUP5 ADD SWAP1 DUP4 DUP6 ADD ADD PUSH2 0x39AD JUMP JUMPDEST PUSH1 0x20 DUP6 ADD MSTORE PUSH1 0x40 DUP2 DUP4 ADD ADD MLOAD SWAP1 PUSH1 0x1 PUSH1 0x1 PUSH1 0x40 SHL SUB DUP3 GT PUSH2 0x150 JUMPI PUSH2 0xE24 SWAP4 DUP4 ADD SWAP3 ADD ADD PUSH2 0x39AD JUMP JUMPDEST PUSH1 0x40 DUP3 ADD MSTORE SWAP2 DUP5 PUSH2 0x4EA JUMP JUMPDEST PUSH1 0x40 MLOAD RETURNDATASIZE PUSH1 0x0 DUP3 RETURNDATACOPY RETURNDATASIZE SWAP1 REVERT JUMPDEST PUSH2 0x1D7 JUMPI PUSH1 0xA4 CALLDATALOAD ISZERO PUSH2 0xE62 JUMPI JUMPDEST PUSH2 0xE5D PUSH1 0x84 CALLDATALOAD PUSH1 0xC4 CALLDATALOAD PUSH1 0xE4 CALLDATALOAD PUSH1 0xA4 CALLDATALOAD PUSH2 0x3D7E JUMP JUMPDEST PUSH2 0x42A JUMP JUMPDEST CALLVALUE PUSH1 0x84 CALLDATALOAD EQ PUSH2 0xE49 JUMPI PUSH1 0x40 MLOAD PUSH3 0x461BCD PUSH1 0xE5 SHL DUP2 MSTORE PUSH1 0x20 PUSH1 0x4 DUP3 ADD MSTORE PUSH1 0xF PUSH1 0x24 DUP3 ADD MSTORE PUSH15 0x57524F4E475F4D53475F56414C5545 PUSH1 0x88 SHL PUSH1 0x44 DUP3 ADD MSTORE PUSH1 0x64 SWAP1 REVERT JUMPDEST PUSH1 0x40 MLOAD PUSH3 0x461BCD PUSH1 0xE5 SHL DUP2 MSTORE PUSH1 0x20 PUSH1 0x4 DUP3 ADD MSTORE PUSH1 0xC PUSH1 0x24 DUP3 ADD MSTORE PUSH12 0x5041594D454E545F5A45524F PUSH1 0xA0 SHL PUSH1 0x44 DUP3 ADD MSTORE PUSH1 0x64 SWAP1 REVERT JUMPDEST PUSH1 0x40 MLOAD PUSH3 0x461BCD PUSH1 0xE5 SHL DUP2 MSTORE PUSH1 0x20 PUSH1 0x4 DUP3 ADD MSTORE PUSH1 0x11 PUSH1 0x24 DUP3 ADD MSTORE PUSH17 0x5354414B455F414D4F554E545F5A45524F PUSH1 0x78 SHL PUSH1 0x44 DUP3 ADD MSTORE PUSH1 0x64 SWAP1 REVERT JUMPDEST PUSH1 0x40 MLOAD PUSH3 0x461BCD PUSH1 0xE5 SHL DUP2 MSTORE PUSH1 0x20 PUSH1 0x4 DUP3 ADD MSTORE PUSH1 0xE PUSH1 0x24 DUP3 ADD MSTORE PUSH14 0x1554D15497D393D517D1561254D5 PUSH1 0x92 SHL PUSH1 0x44 DUP3 ADD MSTORE PUSH1 0x64 SWAP1 REVERT JUMPDEST SWAP1 POP PUSH1 0x20 DUP2 RETURNDATASIZE PUSH1 0x20 GT PUSH2 0xF77 JUMPI JUMPDEST DUP2 PUSH2 0xF60 PUSH1 0x20 SWAP4 DUP4 PUSH2 0x32AF JUMP JUMPDEST DUP2 ADD SUB SLT PUSH2 0x150 JUMPI PUSH2 0xF71 SWAP1 PUSH2 0x3734 JUMP JUMPDEST DUP4 PUSH2 0x3A7 JUMP JUMPDEST RETURNDATASIZE SWAP2 POP PUSH2 0xF53 JUMP JUMPDEST POP PUSH2 0x1D7 JUMPI DUP1 PUSH1 0xA4 CALLDATALOAD ISZERO PUSH2 0x34B JUMP JUMPDEST POP PUSH1 0x0 SWAP1 POP PUSH1 0xA4 CALLDATALOAD PUSH1 0x2 EQ PUSH2 0x342 JUMP JUMPDEST CALLVALUE PUSH2 0x150 JUMPI PUSH1 0x0 CALLDATASIZE PUSH1 0x3 NOT ADD SLT PUSH2 0x150 JUMPI PUSH1 0x20 PUSH1 0xC SLOAD PUSH1 0x40 MLOAD SWAP1 DUP2 MSTORE RETURN JUMPDEST CALLVALUE PUSH2 0x150 JUMPI PUSH1 0x20 DUP1 PUSH1 0x3 NOT CALLDATASIZE ADD SLT PUSH2 0x150 JUMPI PUSH1 0x1 PUSH1 0x1 PUSH1 0x40 SHL SUB SWAP1 PUSH1 0x4 CALLDATALOAD DUP3 DUP2 GT PUSH2 0x150 JUMPI PUSH2 0xFEF SWAP1 CALLDATASIZE SWAP1 PUSH1 0x4 ADD PUSH2 0x363D JUMP JUMPDEST PUSH1 0xA SLOAD SWAP1 SWAP2 PUSH1 0x1 PUSH1 0x1 PUSH1 0xA0 SHL SUB SWAP2 PUSH2 0x100A SWAP1 DUP4 AND CALLER EQ PUSH2 0x3B07 JUMP JUMPDEST PUSH1 0xFF PUSH1 0x4 SLOAD AND PUSH1 0x8 DUP2 LT ISZERO PUSH2 0x1D7 JUMPI DUP1 PUSH1 0x0 MSTORE PUSH1 0x19 DUP3 MSTORE PUSH1 0xFF PUSH1 0x40 PUSH1 0x0 KECCAK256 SLOAD AND DUP1 PUSH2 0x12BC JUMPI JUMPDEST ISZERO PUSH2 0x1288 JUMPI PUSH1 0x24 DUP3 DUP5 PUSH1 0x14 SLOAD AND PUSH1 0x40 MLOAD SWAP3 DUP4 DUP1 SWAP3 PUSH4 0x122643F3 PUSH1 0xE2 SHL DUP3 MSTORE CALLER PUSH1 0x4 DUP4 ADD MSTORE GAS STATICCALL SWAP1 DUP2 ISZERO PUSH2 0xE30 JUMPI PUSH1 0x0 SWAP2 PUSH2 0x1253 JUMPI JUMPDEST POP ISZERO PUSH2 0x1218 JUMPI PUSH2 0x107C PUSH1 0x1 SWAP4 CALLER SWAP1 DUP6 SLOAD AND EQ PUSH2 0x3B07 JUMP JUMPDEST PUSH1 0x0 MSTORE PUSH1 0x19 DUP2 MSTORE PUSH1 0x40 PUSH1 0x0 KECCAK256 SWAP3 PUSH1 0xFF NOT SWAP4 DUP5 DUP2 SLOAD AND SWAP1 SSTORE PUSH1 0x3 PUSH1 0x0 MSTORE PUSH1 0x40 PUSH1 0x0 KECCAK256 DUP4 DUP6 DUP3 SLOAD AND OR SWAP1 SSTORE PUSH1 0x3 DUP5 PUSH1 0x4 SLOAD AND OR PUSH1 0x4 SSTORE DUP1 MLOAD SWAP5 DUP6 GT PUSH2 0x9DB JUMPI PUSH2 0x10C4 PUSH1 0x10 SLOAD PUSH2 0x2F90 JUMP JUMPDEST PUSH1 0x1F DUP2 GT PUSH2 0x11C3 JUMPI JUMPDEST POP DUP2 PUSH1 0x1F DUP7 GT PUSH1 0x1 EQ PUSH2 0x1151 JUMPI POP PUSH1 0x3 SWAP5 SWAP3 PUSH1 0x0 SWAP3 DUP5 SWAP3 DUP4 PUSH2 0x1146 JUMPI JUMPDEST POP POP SHL SWAP2 PUSH1 0x0 NOT SWAP1 DUP6 SHL SHR NOT AND OR PUSH1 0x10 SSTORE JUMPDEST PUSH1 0x4 SLOAD AND OR PUSH1 0x4 SSTORE PUSH2 0x1110 PUSH1 0x7 SLOAD TIMESTAMP PUSH2 0x3C81 JUMP JUMPDEST PUSH1 0x6 SSTORE PUSH32 0x61DE5B63673167E253173C50ABDC3FD45371DC3205496F46FDB05A9F7927B574 PUSH1 0x40 MLOAD DUP1 PUSH2 0x1141 DUP2 PUSH2 0x379B JUMP JUMPDEST SUB SWAP1 LOG1 STOP JUMPDEST ADD MLOAD SWAP3 POP DUP7 DUP1 PUSH2 0x10EA JUMP JUMPDEST SWAP1 SWAP5 SWAP2 PUSH1 0x1F NOT DUP4 AND SWAP6 PUSH1 0x10 PUSH1 0x0 MSTORE PUSH1 0x0 DUP1 MLOAD PUSH1 0x20 PUSH2 0x539A DUP4 CODECOPY DUP2 MLOAD SWAP2 MSTORE SWAP3 PUSH1 0x0 SWAP1 JUMPDEST DUP9 DUP3 LT PUSH2 0x11AC JUMPI POP POP DUP4 PUSH1 0x3 SWAP8 LT PUSH2 0x1194 JUMPI JUMPDEST POP POP POP DUP2 SHL ADD PUSH1 0x10 SSTORE PUSH2 0x10FC JUMP JUMPDEST ADD MLOAD PUSH1 0x0 NOT DUP4 DUP8 SHL PUSH1 0xF8 AND SHR NOT AND SWAP1 SSTORE DUP5 DUP1 DUP1 PUSH2 0x1186 JUMP JUMPDEST DUP1 DUP8 DUP6 SWAP7 DUP3 SWAP5 SWAP7 DUP7 ADD MLOAD DUP2 SSTORE ADD SWAP6 ADD SWAP4 ADD SWAP1 PUSH2 0x1173 JUMP JUMPDEST PUSH1 0x10 PUSH1 0x0 MSTORE PUSH1 0x0 DUP1 MLOAD PUSH1 0x20 PUSH2 0x539A DUP4 CODECOPY DUP2 MLOAD SWAP2 MSTORE PUSH1 0x1F DUP8 ADD PUSH1 0x5 SHR DUP2 ADD SWAP2 DUP5 DUP9 LT PUSH2 0x120E JUMPI JUMPDEST PUSH1 0x1F ADD PUSH1 0x5 SHR ADD SWAP1 DUP5 SWAP1 JUMPDEST DUP3 DUP2 LT PUSH2 0x1202 JUMPI POP POP PUSH2 0x10CD JUMP JUMPDEST PUSH1 0x0 DUP2 SSTORE ADD DUP5 SWAP1 PUSH2 0x11F4 JUMP JUMPDEST SWAP1 SWAP2 POP DUP2 SWAP1 PUSH2 0x11E9 JUMP JUMPDEST PUSH1 0x40 MLOAD PUSH3 0x461BCD PUSH1 0xE5 SHL DUP2 MSTORE PUSH1 0x4 DUP2 ADD DUP4 SWAP1 MSTORE PUSH1 0x13 PUSH1 0x24 DUP3 ADD MSTORE PUSH19 0x155CD95C88191BD95CC81B9BDD08195E1A5CDD PUSH1 0x6A SHL PUSH1 0x44 DUP3 ADD MSTORE PUSH1 0x64 SWAP1 REVERT JUMPDEST SWAP1 POP DUP3 DUP2 DUP2 RETURNDATASIZE DUP4 GT PUSH2 0x1281 JUMPI JUMPDEST PUSH2 0x126A DUP2 DUP4 PUSH2 0x32AF JUMP JUMPDEST DUP2 ADD SUB SLT PUSH2 0x150 JUMPI PUSH2 0x127B SWAP1 PUSH2 0x3734 JUMP JUMPDEST DUP7 PUSH2 0x1065 JUMP JUMPDEST POP RETURNDATASIZE PUSH2 0x1260 JUMP JUMPDEST PUSH1 0x40 MLOAD PUSH3 0x461BCD PUSH1 0xE5 SHL DUP2 MSTORE PUSH1 0x4 DUP2 ADD DUP4 SWAP1 MSTORE PUSH1 0xC PUSH1 0x24 DUP3 ADD MSTORE PUSH12 0x57524F4E475F535441545553 PUSH1 0xA0 SHL PUSH1 0x44 DUP3 ADD MSTORE PUSH1 0x64 SWAP1 REVERT JUMPDEST POP PUSH1 0x2 DUP2 EQ DUP1 PUSH2 0x1030 JUMPI POP PUSH1 0x3 DUP2 EQ PUSH2 0x1030 JUMP JUMPDEST CALLVALUE PUSH2 0x150 JUMPI PUSH1 0x60 CALLDATASIZE PUSH1 0x3 NOT ADD SLT PUSH2 0x150 JUMPI PUSH1 0x4 CALLDATALOAD ISZERO ISZERO PUSH1 0x4 CALLDATALOAD SUB PUSH2 0x150 JUMPI PUSH1 0x9 SLOAD PUSH1 0x1 PUSH1 0x1 PUSH1 0xA0 SHL SUB AND PUSH2 0x1305 CALLER DUP3 EQ PUSH2 0x3B07 JUMP JUMPDEST PUSH1 0xFF PUSH1 0x4 SLOAD AND PUSH1 0x8 DUP2 LT ISZERO PUSH2 0x1D7 JUMPI PUSH1 0x3 SUB PUSH2 0x1D20 JUMPI PUSH1 0x15 SLOAD PUSH1 0x40 MLOAD PUSH4 0x335DED4B PUSH1 0xE2 SHL DUP2 MSTORE PUSH1 0x1 PUSH1 0x1 PUSH1 0xA0 SHL SUB SWAP1 SWAP2 AND SWAP1 PUSH1 0x20 DUP2 PUSH1 0x4 DUP2 DUP6 GAS STATICCALL SWAP1 DUP2 ISZERO PUSH2 0xE30 JUMPI PUSH1 0x0 SWAP2 PUSH2 0x1CE1 JUMPI JUMPDEST POP PUSH1 0x40 MLOAD PUSH4 0x28C44A99 PUSH1 0xE2 SHL DUP2 MSTORE PUSH1 0x44 CALLDATALOAD PUSH1 0x4 DUP3 ADD MSTORE SWAP1 PUSH1 0x0 SWAP1 DUP3 SWAP1 PUSH1 0x24 SWAP1 DUP3 SWAP1 PUSH1 0x1 PUSH1 0x1 PUSH1 0xA0 SHL SUB AND GAS STATICCALL SWAP1 DUP2 ISZERO PUSH2 0xE30 JUMPI PUSH1 0x0 SWAP2 PUSH2 0x1BBE JUMPI JUMPDEST POP PUSH1 0xE0 DUP2 ADD MLOAD PUSH2 0x13A4 SWAP1 PUSH1 0x1 PUSH1 0x1 PUSH1 0xA0 SHL SUB AND DUP5 EQ PUSH2 0x3B54 JUMP JUMPDEST PUSH1 0xC0 DUP2 ADD MLOAD PUSH1 0xA SLOAD PUSH1 0x1 PUSH1 0x1 PUSH1 0xA0 SHL SUB SWAP2 DUP3 AND SWAP2 AND SUB PUSH2 0x1B85 JUMPI PUSH1 0x20 DUP2 DUP2 ADD MLOAD PUSH1 0x40 MLOAD PUSH4 0x3EC4F23D PUSH1 0xE0 SHL DUP2 MSTORE SWAP2 DUP3 PUSH1 0x4 DUP2 DUP8 GAS STATICCALL SWAP2 DUP3 ISZERO PUSH2 0xE30 JUMPI PUSH1 0x0 SWAP3 PUSH2 0x1B51 JUMPI JUMPDEST POP SUB PUSH2 0x1B1B JUMPI PUSH2 0x120 ADD MLOAD SWAP1 DUP2 MLOAD DUP3 ADD SWAP2 PUSH1 0x60 DUP2 DUP5 SUB SLT PUSH2 0x150 JUMPI PUSH2 0x140F PUSH1 0x20 DUP3 ADD PUSH2 0x3734 JUMP JUMPDEST SWAP3 PUSH2 0x141C PUSH1 0x40 DUP4 ADD PUSH2 0x3999 JUMP JUMPDEST SWAP2 PUSH1 0x60 DUP2 ADD MLOAD SWAP2 PUSH1 0x1 PUSH1 0x1 PUSH1 0x40 SHL SUB DUP4 GT PUSH2 0x150 JUMPI PUSH2 0x1442 SWAP3 PUSH1 0x20 DUP1 SWAP3 ADD SWAP3 ADD ADD PUSH2 0x39AD JUMP JUMPDEST SWAP1 ADDRESS PUSH1 0x1 PUSH1 0x1 PUSH1 0xA0 SHL SUB SWAP1 SWAP2 AND SUB PUSH2 0x1AE7 JUMPI PUSH1 0x40 MLOAD PUSH2 0x147F DUP2 PUSH2 0x1471 PUSH1 0x20 DUP3 ADD SWAP5 PUSH1 0x20 DUP7 MSTORE PUSH1 0x40 DUP4 ADD SWAP1 PUSH2 0x345B JUMP JUMPDEST SUB PUSH1 0x1F NOT DUP2 ADD DUP4 MSTORE DUP3 PUSH2 0x32AF JUMP JUMPDEST MLOAD SWAP1 KECCAK256 PUSH1 0x40 MLOAD PUSH1 0x20 DUP1 DUP3 ADD MSTORE PUSH1 0xF SLOAD DUP2 PUSH1 0x0 PUSH2 0x149A DUP4 PUSH2 0x2F90 JUMP JUMPDEST SWAP3 DUP4 PUSH1 0x40 DUP5 ADD MSTORE PUSH1 0x1 DUP2 AND SWAP1 DUP2 PUSH1 0x0 EQ PUSH2 0x1AC8 JUMPI POP PUSH1 0x1 EQ PUSH2 0x1A7B JUMPI JUMPDEST PUSH2 0x14CA SWAP3 POP SUB PUSH1 0x1F NOT DUP2 ADD DUP4 MSTORE DUP3 PUSH2 0x32AF JUMP JUMPDEST PUSH1 0x20 DUP2 MLOAD SWAP2 ADD KECCAK256 SUB PUSH2 0x1A47 JUMPI PUSH1 0x20 PUSH1 0x4 SWAP2 PUSH1 0x40 MLOAD SWAP3 DUP4 DUP1 SWAP3 PUSH4 0x18DA0011 PUSH1 0xE0 SHL DUP3 MSTORE GAS STATICCALL SWAP1 DUP2 ISZERO PUSH2 0xE30 JUMPI PUSH1 0x0 SWAP2 PUSH2 0x1A0D JUMPI JUMPDEST POP PUSH1 0xC SLOAD PUSH1 0x40 MLOAD PUSH4 0x4047E103 PUSH1 0xE1 SHL DUP2 MSTORE SWAP1 SWAP3 SWAP1 PUSH1 0x20 DUP2 PUSH1 0x4 DUP2 PUSH1 0x1 PUSH1 0x1 PUSH1 0xA0 SHL SUB DUP8 AND GAS STATICCALL SWAP1 DUP2 ISZERO PUSH2 0xE30 JUMPI PUSH1 0x0 SWAP2 PUSH2 0x19D9 JUMPI JUMPDEST POP PUSH2 0x2710 PUSH2 0x1543 PUSH2 0x154B SWAP3 DUP7 PUSH2 0x3B96 JUMP JUMPDEST DIV DUP1 SWAP5 PUSH2 0x3BBF JUMP JUMPDEST SWAP4 PUSH1 0x6 SLOAD TIMESTAMP GT DUP1 ISZERO PUSH2 0x19D0 JUMPI JUMPDEST ISZERO PUSH2 0x1872 JUMPI POP PUSH2 0x156F SWAP1 ISZERO ISZERO PUSH1 0x4 CALLDATALOAD ISZERO ISZERO EQ PUSH2 0x3B54 JUMP JUMPDEST PUSH1 0x8 SLOAD PUSH1 0x9 SLOAD PUSH1 0xC SLOAD PUSH2 0x15AD SWAP3 PUSH2 0x1592 SWAP3 PUSH1 0x1 PUSH1 0x1 PUSH1 0xA0 SHL SUB AND SWAP1 PUSH1 0xFF AND PUSH2 0x3C8E JUMP JUMPDEST PUSH1 0x8 SLOAD PUSH1 0xA SLOAD SWAP2 SWAP6 SWAP2 PUSH1 0x1 PUSH1 0x1 PUSH1 0xA0 SHL SUB AND SWAP1 PUSH1 0xFF AND PUSH2 0x3BF8 JUMP JUMPDEST SWAP2 PUSH1 0xFF PUSH1 0x8 SLOAD AND PUSH1 0x3 DUP2 LT ISZERO DUP1 PUSH2 0x1D7 JUMPI PUSH1 0x1 DUP3 EQ DUP1 ISZERO SWAP2 DUP2 DUP4 PUSH2 0x1864 JUMPI JUMPDEST DUP2 SWAP1 DUP1 ISZERO PUSH2 0x1857 JUMPI JUMPDEST PUSH2 0x15DF SWAP2 POP PUSH2 0x395F JUMP JUMPDEST PUSH1 0x15 SLOAD PUSH1 0x40 MLOAD PUSH4 0x2EE4B68B PUSH1 0xE1 SHL DUP2 MSTORE SWAP1 PUSH1 0x20 SWAP1 DUP3 SWAP1 PUSH1 0x4 SWAP1 DUP3 SWAP1 PUSH1 0x1 PUSH1 0x1 PUSH1 0xA0 SHL SUB AND GAS STATICCALL SWAP1 DUP2 ISZERO PUSH2 0xE30 JUMPI PUSH1 0x0 SWAP2 PUSH2 0x181D JUMPI JUMPDEST POP PUSH2 0x17D0 JUMPI PUSH2 0x1D7 JUMPI DUP3 PUSH2 0x16E4 JUMPI POP PUSH2 0x164B SWAP4 PUSH1 0x0 SWAP4 DUP5 SWAP4 POP DUP4 SWAP3 POP DUP3 SWAP2 PUSH1 0x1 PUSH1 0x1 PUSH1 0xA0 SHL SUB AND GAS CALL PUSH2 0x1645 PUSH2 0x404C JUMP JUMPDEST POP PUSH2 0x407C JUMP JUMPDEST PUSH1 0xB SSTORE PUSH1 0xC SSTORE PUSH1 0x4 CALLDATALOAD ISZERO PUSH2 0x16DD JUMPI PUSH1 0x4 JUMPDEST PUSH1 0xFF PUSH1 0x4 SLOAD AND PUSH1 0x8 DUP2 LT ISZERO PUSH2 0x1D7 JUMPI PUSH1 0x0 MSTORE PUSH1 0x19 PUSH1 0x20 MSTORE PUSH1 0x40 PUSH1 0x0 KECCAK256 SWAP1 PUSH1 0xFF NOT SWAP2 DUP3 DUP2 SLOAD AND SWAP1 SSTORE PUSH1 0x8 DUP2 LT ISZERO PUSH2 0x1D7 JUMPI PUSH2 0x16AF SWAP2 PUSH1 0xFF DUP3 AND PUSH1 0x0 MSTORE PUSH1 0x19 PUSH1 0x20 MSTORE PUSH1 0x1 PUSH1 0x40 PUSH1 0x0 KECCAK256 SWAP2 DUP3 SLOAD AND OR SWAP1 SSTORE PUSH2 0x3782 JUMP JUMPDEST PUSH32 0x61DE5B63673167E253173C50ABDC3FD45371DC3205496F46FDB05A9F7927B574 PUSH1 0x40 MLOAD DUP1 PUSH2 0x1141 DUP2 PUSH2 0x379B JUMP JUMPDEST PUSH1 0x5 PUSH2 0x165C JUMP JUMPDEST PUSH1 0x0 SWAP1 SWAP2 PUSH2 0x17C3 JUMPI JUMPDEST DUP2 ISZERO PUSH2 0x17B0 JUMPI JUMPDEST POP SWAP3 PUSH1 0x20 SWAP3 SWAP2 PUSH2 0x1706 PUSH2 0x1754 SWAP6 PUSH2 0x395F JUMP JUMPDEST PUSH1 0x1 PUSH1 0x1 PUSH1 0xA0 SHL SUB SWAP1 PUSH2 0x1718 SWAP1 PUSH2 0x5123 JUMP JUMPDEST PUSH1 0x40 MLOAD PUSH4 0xA9059CBB PUSH1 0xE0 SHL DUP2 MSTORE PUSH1 0x1 PUSH1 0x1 PUSH1 0xA0 SHL SUB SWAP1 SWAP4 AND PUSH1 0x4 DUP5 ADD MSTORE PUSH1 0x24 DUP4 ADD SWAP4 SWAP1 SWAP4 MSTORE SWAP1 SWAP4 DUP5 SWAP3 SWAP2 SWAP1 SWAP2 AND SWAP1 DUP3 SWAP1 PUSH1 0x0 SWAP1 DUP3 SWAP1 PUSH1 0x44 DUP3 ADD SWAP1 JUMP JUMPDEST SUB SWAP3 GAS CALL DUP1 ISZERO PUSH2 0xE30 JUMPI PUSH1 0x0 SWAP1 PUSH2 0x1775 JUMPI JUMPDEST PUSH2 0x1770 SWAP2 POP PUSH2 0x50E5 JUMP JUMPDEST PUSH2 0x164B JUMP JUMPDEST POP PUSH1 0x20 DUP2 RETURNDATASIZE PUSH1 0x20 GT PUSH2 0x17A8 JUMPI JUMPDEST DUP2 PUSH2 0x178F PUSH1 0x20 SWAP4 DUP4 PUSH2 0x32AF JUMP JUMPDEST DUP2 ADD SUB SLT PUSH2 0x150 JUMPI PUSH2 0x17A3 PUSH2 0x1770 SWAP2 PUSH2 0x3734 JUMP JUMPDEST PUSH2 0x1766 JUMP JUMPDEST RETURNDATASIZE SWAP2 POP PUSH2 0x1782 JUMP JUMPDEST SWAP1 POP SWAP2 SWAP1 SWAP2 PUSH2 0x1D7 JUMPI SWAP1 PUSH1 0x0 PUSH1 0x20 PUSH2 0x16F4 JUMP JUMPDEST POP POP PUSH1 0x2 DUP2 EQ PUSH1 0x0 PUSH2 0x16ED JUMP JUMPDEST SWAP2 POP SWAP2 SWAP3 SWAP4 POP PUSH2 0x1D7 JUMPI PUSH1 0x2 DUP3 SUB PUSH2 0x17F3 JUMPI POP POP PUSH2 0x17ED SWAP1 PUSH2 0x43B8 JUMP JUMPDEST POP PUSH2 0x164B JUMP JUMPDEST ISZERO PUSH2 0x1802 JUMPI POP PUSH2 0x17ED SWAP1 PUSH2 0x4E6A JUMP JUMPDEST ISZERO PUSH2 0x180D JUMPI POP PUSH2 0x164B JUMP JUMPDEST PUSH2 0x1816 SWAP1 PUSH2 0x484F JUMP JUMPDEST POP DUP3 PUSH2 0x17ED JUMP JUMPDEST SWAP1 POP PUSH1 0x20 DUP2 RETURNDATASIZE PUSH1 0x20 GT PUSH2 0x184F JUMPI JUMPDEST DUP2 PUSH2 0x1838 PUSH1 0x20 SWAP4 DUP4 PUSH2 0x32AF JUMP JUMPDEST DUP2 ADD SUB SLT PUSH2 0x150 JUMPI PUSH2 0x1849 SWAP1 PUSH2 0x3734 JUMP JUMPDEST DUP10 PUSH2 0x1614 JUMP JUMPDEST RETURNDATASIZE SWAP2 POP PUSH2 0x182B JUMP JUMPDEST POP PUSH2 0x1D7 JUMPI DUP1 DUP5 ISZERO PUSH2 0x15D5 JUMP JUMPDEST POP PUSH1 0x0 SWAP1 POP PUSH1 0x2 DUP5 EQ PUSH2 0x15CC JUMP JUMPDEST SWAP4 POP SWAP2 POP POP PUSH1 0x4 CALLDATALOAD ISZERO PUSH2 0x1881 JUMPI STOP JUMPDEST PUSH2 0x1892 SWAP1 ISZERO ISZERO PUSH1 0x4 CALLDATALOAD ISZERO ISZERO EQ PUSH2 0x3B54 JUMP JUMPDEST PUSH1 0xB SLOAD PUSH1 0x24 CALLDATALOAD SWAP1 DUP2 GT PUSH2 0x1995 JUMPI PUSH1 0x12 SLOAD SWAP2 PUSH8 0xDE0B6B3A7640000 SWAP3 DUP4 DUP2 LT ISZERO PUSH2 0x1958 JUMPI PUSH1 0x5 SWAP4 PUSH2 0x18C5 PUSH2 0x18D3 SWAP3 DUP6 PUSH2 0x3B96 JUMP JUMPDEST DIV DUP1 SWAP3 PUSH1 0xFF PUSH1 0x8 SLOAD AND PUSH2 0x40B6 JUMP JUMPDEST PUSH1 0xC SSTORE PUSH1 0x8 SLOAD PUSH1 0xA SLOAD PUSH2 0x18F4 SWAP2 DUP5 SWAP2 PUSH1 0x1 PUSH1 0x1 PUSH1 0xA0 SHL SUB AND SWAP1 PUSH1 0xFF AND PUSH2 0x40B6 JUMP JUMPDEST PUSH1 0xB SSTORE PUSH1 0xFF NOT SWAP2 DUP4 DUP4 PUSH1 0x4 SLOAD AND OR PUSH1 0x4 SSTORE PUSH1 0xD SSTORE PUSH1 0xE SSTORE DUP2 PUSH1 0x0 MSTORE PUSH1 0x19 PUSH1 0x20 MSTORE PUSH1 0x40 PUSH1 0x0 KECCAK256 PUSH1 0x1 DUP3 DUP3 SLOAD AND OR SWAP1 SSTORE PUSH1 0x4 SLOAD AND OR PUSH1 0x4 SSTORE PUSH32 0xB0EC4EF3EE1A79EFFA677AF7A82A3A875B4D438307FB7E589A58966E3B913F2F PUSH1 0x40 MLOAD DUP1 PUSH2 0x1141 DUP2 PUSH2 0x379B JUMP JUMPDEST PUSH1 0x40 MLOAD PUSH3 0x461BCD PUSH1 0xE5 SHL DUP2 MSTORE PUSH1 0x20 PUSH1 0x4 DUP3 ADD MSTORE PUSH1 0x15 PUSH1 0x24 DUP3 ADD MSTORE PUSH21 0xA0AA9C92A6909A8A9CA8BEA482A8929EBE90928E9 PUSH1 0x5B SHL PUSH1 0x44 DUP3 ADD MSTORE PUSH1 0x64 SWAP1 REVERT JUMPDEST PUSH1 0x40 MLOAD PUSH3 0x461BCD PUSH1 0xE5 SHL DUP2 MSTORE PUSH1 0x20 PUSH1 0x4 DUP3 ADD MSTORE PUSH1 0x13 PUSH1 0x24 DUP3 ADD MSTORE PUSH19 0xA0AA9C92A6909A8A9CA8BEA89E9EBE90928E9 PUSH1 0x6B SHL PUSH1 0x44 DUP3 ADD MSTORE PUSH1 0x64 SWAP1 REVERT JUMPDEST POP PUSH1 0x4 CALLDATALOAD PUSH2 0x1558 JUMP JUMPDEST SWAP1 POP PUSH1 0x20 DUP2 RETURNDATASIZE PUSH1 0x20 GT PUSH2 0x1A05 JUMPI JUMPDEST DUP2 PUSH2 0x19F4 PUSH1 0x20 SWAP4 DUP4 PUSH2 0x32AF JUMP JUMPDEST DUP2 ADD SUB SLT PUSH2 0x150 JUMPI MLOAD PUSH2 0x2710 PUSH2 0x1532 JUMP JUMPDEST RETURNDATASIZE SWAP2 POP PUSH2 0x19E7 JUMP JUMPDEST SWAP1 POP PUSH1 0x20 DUP2 RETURNDATASIZE PUSH1 0x20 GT PUSH2 0x1A3F JUMPI JUMPDEST DUP2 PUSH2 0x1A28 PUSH1 0x20 SWAP4 DUP4 PUSH2 0x32AF JUMP JUMPDEST DUP2 ADD SUB SLT PUSH2 0x150 JUMPI PUSH2 0x1A39 SWAP1 PUSH2 0x3999 JUMP JUMPDEST DUP4 PUSH2 0x14FD JUMP JUMPDEST RETURNDATASIZE SWAP2 POP PUSH2 0x1A1B JUMP JUMPDEST PUSH1 0x40 MLOAD PUSH3 0x461BCD PUSH1 0xE5 SHL DUP2 MSTORE PUSH1 0x20 PUSH1 0x4 DUP3 ADD MSTORE PUSH1 0xC PUSH1 0x24 DUP3 ADD MSTORE PUSH12 0x1253959053125117D413D4D5 PUSH1 0xA2 SHL PUSH1 0x44 DUP3 ADD MSTORE PUSH1 0x64 SWAP1 REVERT JUMPDEST POP SWAP1 PUSH1 0xF PUSH1 0x0 MSTORE PUSH1 0x0 DUP1 MLOAD PUSH1 0x20 PUSH2 0x53BA DUP4 CODECOPY DUP2 MLOAD SWAP2 MSTORE SWAP1 PUSH1 0x0 SWAP2 JUMPDEST DUP2 DUP4 LT PUSH2 0x1AAE JUMPI POP POP SWAP1 PUSH1 0x60 PUSH2 0x14CA SWAP3 DUP3 ADD ADD PUSH2 0x14B7 JUMP JUMPDEST DUP1 SLOAD PUSH1 0x60 DUP5 DUP8 ADD ADD MSTORE DUP5 SWAP4 POP PUSH1 0x20 SWAP1 SWAP3 ADD SWAP2 PUSH1 0x1 ADD PUSH2 0x1A96 JUMP JUMPDEST PUSH1 0x60 SWAP3 POP PUSH2 0x14CA SWAP5 SWAP2 POP PUSH1 0xFF NOT AND DUP3 DUP5 ADD MSTORE ISZERO ISZERO PUSH1 0x5 SHL DUP3 ADD ADD PUSH2 0x14B7 JUMP JUMPDEST PUSH1 0x40 MLOAD PUSH3 0x461BCD PUSH1 0xE5 SHL DUP2 MSTORE PUSH1 0x20 PUSH1 0x4 DUP3 ADD MSTORE PUSH1 0xC PUSH1 0x24 DUP3 ADD MSTORE PUSH12 0x1253959053125117D1915151 PUSH1 0xA2 SHL PUSH1 0x44 DUP3 ADD MSTORE PUSH1 0x64 SWAP1 REVERT JUMPDEST PUSH1 0x40 MLOAD PUSH3 0x461BCD PUSH1 0xE5 SHL DUP2 MSTORE PUSH1 0x20 PUSH1 0x4 DUP3 ADD MSTORE PUSH1 0xE PUSH1 0x24 DUP3 ADD MSTORE PUSH14 0x494E56414C49445F534348454D41 PUSH1 0x90 SHL PUSH1 0x44 DUP3 ADD MSTORE PUSH1 0x64 SWAP1 REVERT JUMPDEST SWAP1 SWAP2 POP PUSH1 0x20 DUP2 RETURNDATASIZE PUSH1 0x20 GT PUSH2 0x1B7D JUMPI JUMPDEST DUP2 PUSH2 0x1B6D PUSH1 0x20 SWAP4 DUP4 PUSH2 0x32AF JUMP JUMPDEST DUP2 ADD SUB SLT PUSH2 0x150 JUMPI MLOAD SWAP1 DUP6 PUSH2 0x13E8 JUMP JUMPDEST RETURNDATASIZE SWAP2 POP PUSH2 0x1B60 JUMP JUMPDEST PUSH1 0x40 MLOAD PUSH3 0x461BCD PUSH1 0xE5 SHL DUP2 MSTORE PUSH1 0x20 PUSH1 0x4 DUP3 ADD MSTORE PUSH1 0x11 PUSH1 0x24 DUP3 ADD MSTORE PUSH17 0x1253959053125117D49150D25412515395 PUSH1 0x7A SHL PUSH1 0x44 DUP3 ADD MSTORE PUSH1 0x64 SWAP1 REVERT JUMPDEST SWAP1 POP RETURNDATASIZE DUP1 PUSH1 0x0 DUP4 RETURNDATACOPY PUSH2 0x1BD0 DUP2 DUP4 PUSH2 0x32AF JUMP JUMPDEST PUSH1 0x20 DUP3 DUP3 DUP2 ADD SUB SLT PUSH2 0x150 JUMPI DUP2 MLOAD SWAP1 PUSH1 0x1 PUSH1 0x1 PUSH1 0x40 SHL SUB DUP3 GT PUSH2 0x150 JUMPI PUSH2 0x140 DUP3 DUP5 ADD DUP3 DUP6 ADD SUB SLT PUSH2 0x150 JUMPI PUSH1 0x40 MLOAD SWAP3 DUP4 PUSH2 0x140 DUP2 ADD LT PUSH1 0x1 PUSH1 0x1 PUSH1 0x40 SHL SUB PUSH2 0x140 DUP7 ADD GT OR PUSH2 0x9DB JUMPI PUSH2 0x140 DUP5 ADD PUSH1 0x40 SWAP1 DUP2 MSTORE DUP2 DUP5 ADD DUP1 MLOAD DUP7 MSTORE PUSH1 0x20 DUP1 DUP3 ADD MLOAD SWAP1 DUP8 ADD MSTORE PUSH2 0x1C3F SWAP2 ADD PUSH2 0x3B40 JUMP JUMPDEST PUSH1 0x40 DUP6 ADD MSTORE PUSH2 0x1C52 PUSH1 0x60 DUP5 DUP4 ADD ADD PUSH2 0x3B40 JUMP JUMPDEST PUSH1 0x60 DUP6 ADD MSTORE PUSH2 0x1C65 PUSH1 0x80 DUP5 DUP4 ADD ADD PUSH2 0x3B40 JUMP JUMPDEST PUSH1 0x80 DUP6 ADD MSTORE PUSH1 0xA0 DUP4 DUP3 ADD ADD MLOAD PUSH1 0xA0 DUP6 ADD MSTORE PUSH2 0x1C84 PUSH1 0xC0 DUP5 DUP4 ADD ADD PUSH2 0x3999 JUMP JUMPDEST PUSH1 0xC0 DUP6 ADD MSTORE PUSH2 0x1C97 PUSH1 0xE0 DUP5 DUP4 ADD ADD PUSH2 0x3999 JUMP JUMPDEST PUSH1 0xE0 DUP6 ADD MSTORE PUSH2 0x100 PUSH2 0x1CAC DUP2 DUP6 DUP5 ADD ADD PUSH2 0x3734 JUMP JUMPDEST SWAP1 DUP6 ADD MSTORE PUSH2 0x120 SWAP3 DUP4 DUP2 DUP4 ADD ADD MLOAD SWAP1 PUSH1 0x1 PUSH1 0x1 PUSH1 0x40 SHL SUB DUP3 GT PUSH2 0x150 JUMPI PUSH2 0x1CD7 SWAP4 DUP4 ADD SWAP3 ADD ADD PUSH2 0x39AD JUMP JUMPDEST SWAP1 DUP3 ADD MSTORE DUP4 PUSH2 0x138A JUMP JUMPDEST SWAP1 POP PUSH1 0x20 DUP2 RETURNDATASIZE PUSH1 0x20 GT PUSH2 0x1D18 JUMPI JUMPDEST DUP2 PUSH2 0x1CFC PUSH1 0x20 SWAP4 DUP4 PUSH2 0x32AF JUMP JUMPDEST DUP2 ADD SUB SLT PUSH2 0x150 JUMPI PUSH1 0x0 PUSH2 0x1D11 PUSH1 0x24 SWAP3 PUSH2 0x3999 JUMP JUMPDEST SWAP2 POP PUSH2 0x134F JUMP JUMPDEST RETURNDATASIZE SWAP2 POP PUSH2 0x1CEF JUMP JUMPDEST PUSH1 0x40 MLOAD PUSH3 0x461BCD PUSH1 0xE5 SHL DUP2 MSTORE PUSH1 0x20 PUSH1 0x4 DUP3 ADD MSTORE PUSH1 0xD PUSH1 0x24 DUP3 ADD MSTORE PUSH13 0x1393D517D4D550935255151151 PUSH1 0x9A SHL PUSH1 0x44 DUP3 ADD MSTORE PUSH1 0x64 SWAP1 REVERT JUMPDEST CALLVALUE PUSH2 0x150 JUMPI PUSH1 0x0 CALLDATASIZE PUSH1 0x3 NOT ADD SLT PUSH2 0x150 JUMPI PUSH1 0x0 SLOAD PUSH1 0x40 MLOAD PUSH1 0x1 PUSH1 0x1 PUSH1 0xA0 SHL SUB SWAP1 SWAP2 AND DUP2 MSTORE PUSH1 0x20 SWAP1 RETURN JUMPDEST CALLVALUE PUSH2 0x150 JUMPI PUSH1 0x0 CALLDATASIZE PUSH1 0x3 NOT ADD SLT PUSH2 0x150 JUMPI PUSH2 0x1D97 PUSH2 0x38EB JUMP JUMPDEST POP PUSH2 0x8F6 PUSH1 0x40 MLOAD PUSH2 0x1DA7 DUP2 PUSH2 0x3266 JUMP JUMPDEST PUSH2 0x1DAF PUSH2 0x32D0 JUMP JUMPDEST DUP2 MSTORE PUSH2 0x1DB9 PUSH2 0x333C JUMP JUMPDEST PUSH1 0x20 DUP3 ADD MSTORE PUSH1 0x40 MLOAD SWAP2 DUP3 SWAP2 DUP3 PUSH2 0x3684 JUMP JUMPDEST CALLVALUE PUSH2 0x150 JUMPI PUSH1 0x20 DUP1 PUSH1 0x3 NOT CALLDATASIZE ADD SLT PUSH2 0x150 JUMPI PUSH1 0x1 PUSH1 0x1 PUSH1 0x40 SHL SUB SWAP1 PUSH1 0x4 CALLDATALOAD DUP3 DUP2 GT PUSH2 0x150 JUMPI PUSH2 0x1DFD SWAP1 CALLDATASIZE SWAP1 PUSH1 0x4 ADD PUSH2 0x363D JUMP JUMPDEST SWAP1 PUSH1 0xFF PUSH1 0x4 SLOAD AND PUSH1 0x8 DUP2 LT ISZERO DUP1 PUSH2 0x1D7 JUMPI DUP2 PUSH1 0x0 MSTORE PUSH1 0x19 DUP4 MSTORE PUSH1 0xFF PUSH1 0x40 PUSH1 0x0 KECCAK256 SLOAD AND DUP1 PUSH2 0x1FED JUMPI JUMPDEST PUSH2 0x1E2E SWAP1 PUSH2 0x36B9 JUMP JUMPDEST PUSH2 0x1E44 PUSH1 0x1 DUP1 PUSH1 0xA0 SHL SUB PUSH1 0xA SLOAD AND CALLER EQ ISZERO PUSH2 0x3741 JUMP JUMPDEST PUSH2 0x1D7 JUMPI PUSH1 0x4 SUB PUSH2 0x1FB9 JUMPI DUP2 MLOAD SWAP3 DUP4 GT PUSH2 0x9DB JUMPI PUSH2 0x1E63 PUSH1 0x11 SLOAD PUSH2 0x2F90 JUMP JUMPDEST PUSH1 0x1F DUP2 GT PUSH2 0x1F67 JUMPI JUMPDEST POP DUP1 SWAP3 PUSH1 0x1F DUP2 GT PUSH1 0x1 EQ PUSH2 0x1EF8 JUMPI DUP1 SWAP2 SWAP3 SWAP4 PUSH1 0x0 SWAP2 PUSH2 0x1EED JUMPI JUMPDEST POP DUP2 PUSH1 0x1 SHL SWAP2 PUSH1 0x0 NOT SWAP1 PUSH1 0x3 SHL SHR NOT AND OR PUSH1 0x11 SSTORE JUMPDEST PUSH1 0x6 PUSH1 0xFF NOT PUSH1 0x4 SLOAD AND OR PUSH1 0x4 SSTORE PUSH32 0x76C6A8F0836A14A631DC3A45FC0C49D4DD3FC4147167329BA4220BA2664CCAF0 PUSH1 0x40 MLOAD DUP1 PUSH2 0x1ED6 DUP2 PUSH2 0x379B JUMP JUMPDEST SUB SWAP1 LOG1 PUSH2 0x8F6 PUSH1 0x40 MLOAD SWAP3 DUP3 DUP5 SWAP4 DUP5 MSTORE DUP4 ADD SWAP1 PUSH2 0x345B JUMP JUMPDEST SWAP1 POP DUP4 ADD MLOAD DUP5 PUSH2 0x1E86 JUMP JUMPDEST PUSH1 0x1F NOT DUP2 AND SWAP4 PUSH1 0x11 PUSH1 0x0 MSTORE PUSH1 0x0 DUP1 MLOAD PUSH1 0x20 PUSH2 0x537A DUP4 CODECOPY DUP2 MLOAD SWAP2 MSTORE SWAP1 PUSH1 0x0 JUMPDEST DUP7 DUP2 LT PUSH2 0x1F50 JUMPI POP DUP3 PUSH1 0x1 SWAP5 SWAP6 SWAP7 LT PUSH2 0x1F37 JUMPI JUMPDEST POP POP DUP2 SHL ADD PUSH1 0x11 SSTORE PUSH2 0x1E9B JUMP JUMPDEST DUP6 ADD MLOAD PUSH1 0x0 NOT PUSH1 0xF8 DUP5 PUSH1 0x3 SHL AND SHR NOT AND SWAP1 SSTORE DUP5 DUP1 PUSH2 0x1F2A JUMP JUMPDEST SWAP1 SWAP2 DUP5 PUSH1 0x1 DUP2 SWAP3 DUP6 DUP10 ADD MLOAD DUP2 SSTORE ADD SWAP4 ADD SWAP2 ADD PUSH2 0x1F16 JUMP JUMPDEST PUSH1 0x11 PUSH1 0x0 MSTORE PUSH1 0x0 DUP1 MLOAD PUSH1 0x20 PUSH2 0x537A DUP4 CODECOPY DUP2 MLOAD SWAP2 MSTORE PUSH1 0x1F DUP6 ADD PUSH1 0x5 SHR DUP2 ADD SWAP2 DUP4 DUP7 LT PUSH2 0x1FAF JUMPI JUMPDEST PUSH1 0x1F ADD PUSH1 0x5 SHR ADD SWAP1 JUMPDEST DUP2 DUP2 LT PUSH2 0x1FA3 JUMPI POP PUSH2 0x1E6C JUMP JUMPDEST PUSH1 0x0 DUP2 SSTORE PUSH1 0x1 ADD PUSH2 0x1F96 JUMP JUMPDEST SWAP1 SWAP2 POP DUP2 SWAP1 PUSH2 0x1F8D JUMP JUMPDEST PUSH1 0x64 SWAP1 PUSH1 0x40 MLOAD SWAP1 PUSH3 0x461BCD PUSH1 0xE5 SHL DUP3 MSTORE PUSH1 0x4 DUP3 ADD MSTORE PUSH1 0xD PUSH1 0x24 DUP3 ADD MSTORE PUSH13 0x1393D517D19253905312569151 PUSH1 0x9A SHL PUSH1 0x44 DUP3 ADD MSTORE REVERT JUMPDEST POP POP PUSH1 0x0 PUSH1 0x3 DUP3 EQ DUP1 ISZERO PUSH2 0x201B JUMPI JUMPDEST DUP2 SWAP1 DUP1 ISZERO PUSH2 0x200C JUMPI JUMPDEST SWAP1 POP PUSH2 0x1E25 JUMP JUMPDEST POP PUSH2 0x1D7 JUMPI DUP1 PUSH1 0x4 DUP4 EQ PUSH2 0x2005 JUMP JUMPDEST POP PUSH1 0x0 SWAP1 POP PUSH1 0x6 DUP3 EQ PUSH2 0x1FFC JUMP JUMPDEST CALLVALUE PUSH2 0x150 JUMPI PUSH1 0x0 CALLDATASIZE PUSH1 0x3 NOT ADD SLT PUSH2 0x150 JUMPI PUSH1 0x40 MLOAD PUSH1 0x0 PUSH1 0xF SLOAD PUSH2 0x204B DUP2 PUSH2 0x2F90 JUMP JUMPDEST DUP1 DUP5 MSTORE SWAP1 PUSH1 0x1 SWAP1 DUP2 DUP2 AND SWAP1 DUP2 ISZERO PUSH2 0x20D2 JUMPI POP PUSH1 0x1 EQ PUSH2 0x2089 JUMPI JUMPDEST PUSH2 0x8F6 DUP5 PUSH2 0x2075 DUP2 DUP7 SUB DUP3 PUSH2 0x32AF JUMP JUMPDEST PUSH1 0x40 MLOAD SWAP2 DUP3 SWAP2 PUSH1 0x20 DUP4 MSTORE PUSH1 0x20 DUP4 ADD SWAP1 PUSH2 0x345B JUMP JUMPDEST PUSH1 0xF PUSH1 0x0 SWAP1 DUP2 MSTORE SWAP3 POP PUSH1 0x0 DUP1 MLOAD PUSH1 0x20 PUSH2 0x53BA DUP4 CODECOPY DUP2 MLOAD SWAP2 MSTORE JUMPDEST DUP3 DUP5 LT PUSH2 0x20BA JUMPI POP POP POP DUP2 ADD PUSH1 0x20 ADD PUSH2 0x2075 DUP3 PUSH2 0x2065 JUMP JUMPDEST DUP1 SLOAD PUSH1 0x20 DUP6 DUP8 ADD DUP2 ADD SWAP2 SWAP1 SWAP2 MSTORE SWAP1 SWAP4 ADD SWAP3 DUP2 ADD PUSH2 0x20A2 JUMP JUMPDEST PUSH1 0xFF NOT AND PUSH1 0x20 DUP1 DUP8 ADD SWAP2 SWAP1 SWAP2 MSTORE SWAP3 ISZERO ISZERO PUSH1 0x5 SHL DUP6 ADD SWAP1 SWAP3 ADD SWAP3 POP PUSH2 0x2075 SWAP2 POP DUP4 SWAP1 POP PUSH2 0x2065 JUMP JUMPDEST CALLVALUE PUSH2 0x150 JUMPI PUSH1 0x0 CALLDATASIZE PUSH1 0x3 NOT ADD SLT PUSH2 0x150 JUMPI PUSH1 0x8 SLOAD PUSH1 0xA SLOAD PUSH1 0x20 SWAP2 PUSH2 0x1BB SWAP2 PUSH1 0x1 PUSH1 0x1 PUSH1 0xA0 SHL SUB AND SWAP1 PUSH1 0xFF AND PUSH2 0x3AD9 JUMP JUMPDEST CALLVALUE PUSH2 0x150 JUMPI PUSH1 0x0 CALLDATASIZE PUSH1 0x3 NOT ADD SLT PUSH2 0x150 JUMPI PUSH1 0x20 PUSH2 0x2144 PUSH2 0x3A0F JUMP JUMPDEST PUSH1 0x40 MLOAD PUSH1 0x1 PUSH1 0x1 PUSH1 0xA0 SHL SUB SWAP1 SWAP2 AND DUP2 MSTORE RETURN JUMPDEST CALLVALUE PUSH2 0x150 JUMPI PUSH1 0x0 CALLDATASIZE PUSH1 0x3 NOT ADD SLT PUSH2 0x150 JUMPI PUSH2 0x2190 PUSH32 0x0 PUSH2 0x51B1 JUMP JUMPDEST PUSH2 0x21B9 PUSH32 0x0 PUSH2 0x51B1 JUMP JUMPDEST SWAP1 PUSH2 0x224C PUSH1 0x22 PUSH2 0x21E8 PUSH32 0x0 PUSH2 0x51B1 JUMP JUMPDEST SWAP4 PUSH1 0x40 MLOAD SWAP5 DUP6 SWAP2 DUP6 MLOAD PUSH2 0x2203 DUP2 PUSH1 0x20 SWAP9 DUP10 DUP1 DUP9 ADD SWAP2 ADD PUSH2 0x3438 JUMP JUMPDEST DUP4 ADD SWAP1 PUSH1 0x17 PUSH1 0xF9 SHL SWAP2 DUP3 DUP9 DUP3 ADD MSTORE PUSH2 0x2224 DUP3 MLOAD DUP1 SWAP4 DUP11 PUSH1 0x21 DUP6 ADD SWAP2 ADD PUSH2 0x3438 JUMP JUMPDEST ADD SWAP1 PUSH1 0x21 DUP3 ADD MSTORE PUSH2 0x223D DUP3 MLOAD DUP1 SWAP4 DUP9 DUP8 DUP6 ADD SWAP2 ADD PUSH2 0x3438 JUMP JUMPDEST ADD SUB PUSH1 0x2 DUP2 ADD DUP6 MSTORE ADD DUP4 PUSH2 0x32AF JUMP JUMPDEST PUSH2 0x8F6 PUSH1 0x40 MLOAD SWAP3 DUP3 DUP5 SWAP4 DUP5 MSTORE DUP4 ADD SWAP1 PUSH2 0x345B JUMP JUMPDEST CALLVALUE PUSH2 0x150 JUMPI PUSH1 0x20 PUSH2 0x1BB PUSH2 0x2273 CALLDATASIZE PUSH2 0x35F3 JUMP JUMPDEST SWAP1 PUSH2 0x3AD9 JUMP JUMPDEST CALLVALUE PUSH2 0x150 JUMPI PUSH1 0x0 CALLDATASIZE PUSH1 0x3 NOT ADD SLT PUSH2 0x150 JUMPI PUSH1 0x20 PUSH1 0xFF PUSH1 0x4 SLOAD AND PUSH2 0x229F PUSH1 0x40 MLOAD DUP1 SWAP3 PUSH2 0x34BF JUMP JUMPDEST RETURN JUMPDEST CALLVALUE PUSH2 0x150 JUMPI PUSH1 0x0 CALLDATASIZE PUSH1 0x3 NOT ADD SLT PUSH2 0x150 JUMPI PUSH1 0x8 SLOAD PUSH1 0x9 SLOAD PUSH1 0x20 SWAP2 PUSH2 0x1BB SWAP2 PUSH1 0x1 PUSH1 0x1 PUSH1 0xA0 SHL SUB AND SWAP1 PUSH1 0xFF AND PUSH2 0x3AD9 JUMP JUMPDEST CALLVALUE PUSH2 0x150 JUMPI PUSH1 0x0 CALLDATASIZE PUSH1 0x3 NOT ADD SLT PUSH2 0x150 JUMPI PUSH1 0xA SLOAD PUSH1 0x1 PUSH1 0x1 PUSH1 0xA0 SHL SUB SWAP1 PUSH2 0x22FB SWAP1 DUP3 AND CALLER EQ PUSH2 0x3B07 JUMP JUMPDEST PUSH1 0xFF PUSH1 0x4 SLOAD AND PUSH1 0x8 DUP2 LT ISZERO PUSH2 0x1D7 JUMPI PUSH1 0x0 MSTORE PUSH1 0x20 PUSH1 0x19 DUP2 MSTORE PUSH2 0x2324 PUSH1 0xFF PUSH1 0x40 PUSH1 0x0 KECCAK256 SLOAD AND PUSH2 0x36B9 JUMP JUMPDEST PUSH2 0x232C PUSH2 0x39EF JUMP JUMPDEST PUSH2 0x2334 PUSH2 0x39EF JUMP JUMPDEST SWAP2 PUSH1 0x40 MLOAD SWAP2 PUSH2 0x2342 DUP4 PUSH2 0x3230 JUMP JUMPDEST PUSH1 0x0 DUP4 MSTORE DUP2 DUP4 ADD SWAP1 DUP2 MSTORE PUSH1 0x40 DUP4 ADD SWAP4 DUP5 MSTORE PUSH2 0x244F DUP6 PUSH1 0x40 MLOAD SWAP5 PUSH2 0x2364 DUP7 PUSH2 0x324B JUMP JUMPDEST PUSH1 0x7 DUP7 MSTORE PUSH1 0x0 DUP6 DUP8 ADD MSTORE PUSH1 0x0 PUSH1 0x40 DUP8 ADD MSTORE PUSH1 0x0 PUSH1 0x60 DUP8 ADD MSTORE PUSH1 0x0 PUSH1 0x80 DUP8 ADD MSTORE PUSH1 0x0 PUSH1 0xA0 DUP8 ADD MSTORE PUSH1 0x40 MLOAD PUSH2 0x2396 DUP2 PUSH2 0x324B JUMP JUMPDEST PUSH1 0x0 DUP2 MSTORE PUSH1 0x0 DUP7 DUP3 ADD MSTORE PUSH1 0x0 PUSH1 0x40 DUP3 ADD MSTORE PUSH1 0x0 PUSH1 0x60 DUP3 ADD MSTORE PUSH1 0x0 PUSH1 0x80 DUP3 ADD MSTORE PUSH1 0x0 PUSH1 0xA0 DUP3 ADD MSTORE PUSH1 0x40 MLOAD SWAP1 PUSH2 0x23C9 DUP3 PUSH2 0x3230 JUMP JUMPDEST PUSH1 0x40 MLOAD PUSH2 0x23D5 DUP2 PUSH2 0x3294 JUMP JUMPDEST PUSH1 0x0 DUP2 MSTORE DUP3 MSTORE PUSH1 0x40 MLOAD PUSH2 0x23E7 DUP2 PUSH2 0x3294 JUMP JUMPDEST PUSH1 0x0 DUP2 MSTORE DUP8 DUP4 ADD MSTORE PUSH1 0x40 MLOAD PUSH2 0x23FB DUP2 PUSH2 0x3294 JUMP JUMPDEST PUSH1 0x0 DUP2 MSTORE PUSH1 0x40 DUP4 ADD MSTORE PUSH1 0x40 MLOAD SWAP8 PUSH2 0x2411 DUP10 PUSH2 0x3230 JUMP JUMPDEST DUP9 MSTORE DUP7 DUP9 ADD MSTORE PUSH1 0x40 DUP8 ADD MSTORE DUP5 PUSH1 0x40 MLOAD PUSH2 0x2429 DUP2 PUSH2 0x3266 JUMP JUMPDEST DUP3 DUP2 MSTORE ADD SWAP6 DUP7 MSTORE MLOAD AND PUSH1 0x1 DUP1 PUSH1 0xA0 SHL SUB AND PUSH1 0x1 PUSH1 0x1 PUSH1 0x60 SHL SUB PUSH1 0xA0 SHL PUSH1 0x1 SLOAD AND OR PUSH1 0x1 SSTORE JUMP JUMPDEST MLOAD SWAP1 DUP2 MLOAD SWAP4 PUSH1 0x1 PUSH1 0x1 PUSH1 0x40 SHL SUB SWAP5 DUP6 DUP2 GT PUSH2 0x9DB JUMPI DUP1 PUSH2 0x2470 PUSH1 0x2 SLOAD PUSH2 0x2F90 JUMP JUMPDEST SWAP5 PUSH1 0x1F SWAP6 DUP7 DUP2 GT PUSH2 0x2AB4 JUMPI JUMPDEST POP DUP5 SWAP1 DUP7 DUP4 GT PUSH1 0x1 EQ PUSH2 0x2A40 JUMPI PUSH1 0x0 SWAP3 PUSH2 0x2A35 JUMPI JUMPDEST POP POP DUP2 PUSH1 0x1 SHL SWAP2 PUSH1 0x0 NOT SWAP1 PUSH1 0x3 SHL SHR NOT AND OR PUSH1 0x2 SSTORE JUMPDEST MLOAD SWAP3 DUP4 MLOAD DUP6 DUP2 GT PUSH2 0x9DB JUMPI DUP1 PUSH1 0x3 SWAP6 PUSH2 0x24C0 DUP8 SLOAD PUSH2 0x2F90 JUMP JUMPDEST DUP7 DUP2 GT PUSH2 0x29DB JUMPI JUMPDEST POP DUP5 SWAP1 DUP7 DUP4 GT PUSH1 0x1 EQ PUSH2 0x296B JUMPI PUSH1 0x0 SWAP3 PUSH2 0x2960 JUMPI JUMPDEST POP POP DUP2 PUSH1 0x1 SHL SWAP2 PUSH1 0x0 NOT SWAP1 DUP8 SHL SHR NOT AND OR DUP5 SSTORE JUMPDEST MLOAD SWAP5 DUP6 MLOAD SWAP6 DUP7 MLOAD PUSH1 0x8 DUP2 LT ISZERO PUSH2 0x1D7 JUMPI PUSH2 0x250A SWAP1 PUSH2 0x3782 JUMP JUMPDEST DUP3 DUP8 ADD MLOAD PUSH2 0x2517 DUP2 PUSH2 0x3326 JUMP JUMPDEST PUSH2 0x2520 DUP2 PUSH2 0x3326 JUMP JUMPDEST PUSH2 0xFF00 PUSH1 0x4 SLOAD SWAP2 PUSH1 0x8 SHL AND SWAP1 PUSH2 0xFF00 NOT AND OR PUSH1 0x4 SSTORE PUSH1 0xA0 PUSH1 0x40 DUP9 ADD MLOAD SWAP8 PUSH1 0x5 SWAP9 DUP10 SSTORE PUSH1 0x60 DUP2 ADD MLOAD PUSH1 0x6 SSTORE PUSH1 0x80 DUP2 ADD MLOAD PUSH1 0x7 SSTORE ADD MLOAD DUP6 DUP2 LT ISZERO PUSH2 0x1D7 JUMPI PUSH1 0x40 SWAP3 PUSH1 0xA0 SWAP2 PUSH1 0xFF DUP1 NOT PUSH1 0x8 SLOAD AND SWAP2 AND OR PUSH1 0x8 SSTORE PUSH2 0x25BE DUP6 DUP5 ADD MLOAD SWAP2 PUSH2 0x259C DUP2 DUP5 MLOAD AND PUSH1 0x1 DUP1 PUSH1 0xA0 SHL SUB AND PUSH1 0x1 PUSH1 0x1 PUSH1 0x60 SHL SUB PUSH1 0xA0 SHL PUSH1 0x9 SLOAD AND OR PUSH1 0x9 SSTORE JUMP JUMPDEST DUP7 DUP4 ADD MLOAD AND PUSH1 0x1 DUP1 PUSH1 0xA0 SHL SUB AND PUSH1 0x1 PUSH1 0x1 PUSH1 0x60 SHL SUB PUSH1 0xA0 SHL PUSH1 0xA SLOAD AND OR PUSH1 0xA SSTORE JUMP JUMPDEST DUP4 DUP2 ADD MLOAD PUSH1 0xB SSTORE PUSH1 0x60 DUP2 ADD MLOAD PUSH1 0xC SSTORE PUSH1 0x80 DUP2 ADD MLOAD PUSH1 0xD SSTORE ADD MLOAD PUSH1 0xE SSTORE ADD MLOAD DUP1 MLOAD DUP1 MLOAD SWAP1 DUP7 DUP3 GT PUSH2 0x9DB JUMPI DUP2 SWAP1 PUSH2 0x25F5 PUSH1 0xF SLOAD PUSH2 0x2F90 JUMP JUMPDEST DUP7 DUP2 GT PUSH2 0x2907 JUMPI JUMPDEST POP DUP5 SWAP1 DUP7 DUP4 GT PUSH1 0x1 EQ PUSH2 0x2894 JUMPI PUSH1 0x0 SWAP3 PUSH2 0x2889 JUMPI JUMPDEST POP POP DUP2 PUSH1 0x1 SHL SWAP2 PUSH1 0x0 NOT SWAP1 DUP8 SHL SHR NOT AND OR PUSH1 0xF SSTORE JUMPDEST DUP2 DUP2 ADD MLOAD DUP1 MLOAD SWAP1 DUP7 DUP3 GT PUSH2 0x9DB JUMPI PUSH2 0x2640 PUSH1 0x10 SLOAD PUSH2 0x2F90 JUMP JUMPDEST DUP6 DUP2 GT PUSH2 0x283C JUMPI JUMPDEST POP DUP4 SWAP1 DUP6 DUP4 GT PUSH1 0x1 EQ PUSH2 0x27C6 JUMPI PUSH1 0x40 SWAP4 SWAP3 SWAP2 PUSH1 0x0 SWAP2 DUP4 PUSH2 0x27BB JUMPI JUMPDEST POP POP DUP2 PUSH1 0x1 SHL SWAP2 PUSH1 0x0 NOT SWAP1 DUP9 SHL SHR NOT AND OR PUSH1 0x10 SSTORE JUMPDEST ADD MLOAD SWAP5 DUP6 MLOAD SWAP5 DUP6 GT PUSH2 0x9DB JUMPI PUSH2 0x268F PUSH1 0x11 SLOAD PUSH2 0x2F90 JUMP JUMPDEST SWAP1 DUP4 DUP3 GT PUSH2 0x2772 JUMPI JUMPDEST POP POP DUP1 SWAP2 DUP5 GT PUSH1 0x1 EQ PUSH2 0x26FD JUMPI POP DUP3 SWAP4 PUSH1 0x0 SWAP4 PUSH2 0x26F2 JUMPI JUMPDEST POP POP DUP3 PUSH1 0x1 SHL SWAP3 PUSH1 0x0 NOT SWAP2 SHL SHR NOT AND OR PUSH1 0x11 SSTORE JUMPDEST PUSH32 0x88C430102EAB5DBC235CA367ECD5FFA63164BB311015524ECEBED009D4D4B5B6 PUSH1 0x40 MLOAD DUP1 PUSH2 0x1141 DUP2 PUSH2 0x379B JUMP JUMPDEST ADD MLOAD SWAP2 POP DUP4 DUP1 PUSH2 0x26B0 JUMP JUMPDEST SWAP2 SWAP1 PUSH1 0x1F NOT DUP5 AND SWAP5 PUSH1 0x11 PUSH1 0x0 MSTORE PUSH1 0x0 DUP1 MLOAD PUSH1 0x20 PUSH2 0x537A DUP4 CODECOPY DUP2 MLOAD SWAP2 MSTORE SWAP4 PUSH1 0x0 SWAP1 JUMPDEST DUP8 DUP3 LT PUSH2 0x275A JUMPI POP POP DUP5 PUSH1 0x1 SWAP7 LT PUSH2 0x2740 JUMPI JUMPDEST POP POP POP POP DUP2 SHL ADD PUSH1 0x11 SSTORE PUSH2 0x26C4 JUMP JUMPDEST ADD MLOAD SWAP1 PUSH1 0xF8 DUP5 PUSH1 0x0 NOT SWAP3 SHL AND SHR NOT AND SWAP1 SSTORE DUP3 DUP1 DUP1 DUP1 PUSH2 0x2731 JUMP JUMPDEST DUP1 PUSH1 0x1 DUP6 SWAP8 DUP3 SWAP5 SWAP7 DUP7 ADD MLOAD DUP2 SSTORE ADD SWAP7 ADD SWAP4 ADD SWAP1 PUSH2 0x271E JUMP JUMPDEST PUSH1 0x11 PUSH1 0x0 MSTORE PUSH1 0x0 DUP1 MLOAD PUSH1 0x20 PUSH2 0x537A DUP4 CODECOPY DUP2 MLOAD SWAP2 MSTORE SWAP1 DUP5 DUP1 DUP9 ADD DUP3 SHR DUP4 ADD SWAP4 DUP6 DUP10 LT PUSH2 0x27B2 JUMPI JUMPDEST ADD SWAP1 SHR ADD SWAP1 JUMPDEST DUP2 DUP2 LT ISZERO PUSH2 0x2698 JUMPI PUSH1 0x0 DUP2 SSTORE PUSH1 0x1 ADD PUSH2 0x279E JUMP JUMPDEST SWAP4 POP DUP3 SWAP4 PUSH2 0x2798 JUMP JUMPDEST ADD MLOAD SWAP1 POP DUP10 DUP1 PUSH2 0x2663 JUMP JUMPDEST SWAP1 PUSH1 0x1F NOT DUP4 AND SWAP2 PUSH1 0x10 PUSH1 0x0 MSTORE PUSH1 0x0 DUP1 MLOAD PUSH1 0x20 PUSH2 0x539A DUP4 CODECOPY DUP2 MLOAD SWAP2 MSTORE SWAP3 PUSH1 0x0 JUMPDEST DUP8 DUP3 DUP3 LT PUSH2 0x2826 JUMPI POP POP SWAP2 PUSH1 0x1 SWAP4 SWAP2 DUP6 PUSH1 0x40 SWAP8 SWAP7 SWAP5 LT PUSH2 0x280E JUMPI JUMPDEST POP POP POP DUP2 SHL ADD PUSH1 0x10 SSTORE PUSH2 0x2678 JUMP JUMPDEST ADD MLOAD PUSH1 0x0 NOT DUP4 DUP11 SHL PUSH1 0xF8 AND SHR NOT AND SWAP1 SSTORE DUP10 DUP1 DUP1 PUSH2 0x2800 JUMP JUMPDEST PUSH1 0x1 DUP6 SWAP7 DUP3 SWAP4 SWAP7 DUP7 ADD MLOAD DUP2 SSTORE ADD SWAP6 ADD SWAP4 ADD PUSH2 0x27E5 JUMP JUMPDEST PUSH1 0x10 PUSH1 0x0 MSTORE PUSH1 0x0 DUP1 MLOAD PUSH1 0x20 PUSH2 0x539A DUP4 CODECOPY DUP2 MLOAD SWAP2 MSTORE DUP7 DUP1 DUP6 ADD DUP12 SHR DUP3 ADD SWAP3 DUP8 DUP7 LT PUSH2 0x2880 JUMPI JUMPDEST ADD DUP11 SHR ADD SWAP1 JUMPDEST DUP2 DUP2 LT PUSH2 0x2874 JUMPI POP PUSH2 0x2648 JUMP JUMPDEST PUSH1 0x0 DUP2 SSTORE PUSH1 0x1 ADD PUSH2 0x2867 JUMP JUMPDEST SWAP3 POP DUP2 SWAP3 PUSH2 0x2861 JUMP JUMPDEST ADD MLOAD SWAP1 POP DUP9 DUP1 PUSH2 0x2612 JUMP JUMPDEST PUSH1 0xF PUSH1 0x0 SWAP1 DUP2 MSTORE PUSH1 0x0 DUP1 MLOAD PUSH1 0x20 PUSH2 0x53BA DUP4 CODECOPY DUP2 MLOAD SWAP2 MSTORE SWAP4 POP PUSH1 0x1F NOT DUP6 AND SWAP1 JUMPDEST DUP8 DUP3 DUP3 LT PUSH2 0x28F1 JUMPI POP POP SWAP1 DUP5 PUSH1 0x1 SWAP6 SWAP5 SWAP4 SWAP3 LT PUSH2 0x28D9 JUMPI JUMPDEST POP POP POP DUP2 SHL ADD PUSH1 0xF SSTORE PUSH2 0x2627 JUMP JUMPDEST ADD MLOAD PUSH1 0x0 NOT DUP4 DUP10 SHL PUSH1 0xF8 AND SHR NOT AND SWAP1 SSTORE DUP9 DUP1 DUP1 PUSH2 0x28CB JUMP JUMPDEST PUSH1 0x1 DUP6 SWAP7 DUP3 SWAP4 SWAP7 DUP7 ADD MLOAD DUP2 SSTORE ADD SWAP6 ADD SWAP4 ADD PUSH2 0x28B3 JUMP JUMPDEST SWAP1 SWAP2 POP PUSH1 0xF PUSH1 0x0 MSTORE PUSH1 0x0 DUP1 MLOAD PUSH1 0x20 PUSH2 0x53BA DUP4 CODECOPY DUP2 MLOAD SWAP2 MSTORE DUP7 DUP1 DUP6 ADD DUP12 SHR DUP3 ADD SWAP3 DUP8 DUP7 LT PUSH2 0x2957 JUMPI JUMPDEST SWAP1 DUP6 SWAP5 SWAP4 SWAP3 SWAP2 ADD DUP12 SHR ADD SWAP1 JUMPDEST DUP2 DUP2 LT PUSH2 0x2948 JUMPI POP PUSH2 0x25FD JUMP JUMPDEST PUSH1 0x0 DUP2 SSTORE DUP5 SWAP4 POP PUSH1 0x1 ADD PUSH2 0x293B JUMP JUMPDEST SWAP3 POP DUP2 SWAP3 PUSH2 0x292F JUMP JUMPDEST ADD MLOAD SWAP1 POP DUP9 DUP1 PUSH2 0x24DD JUMP JUMPDEST PUSH1 0x0 DUP9 DUP2 MSTORE PUSH1 0x0 DUP1 MLOAD PUSH1 0x20 PUSH2 0x535A DUP4 CODECOPY DUP2 MLOAD SWAP2 MSTORE SWAP4 POP PUSH1 0x1F NOT DUP6 AND SWAP1 JUMPDEST DUP8 DUP3 DUP3 LT PUSH2 0x29C5 JUMPI POP POP SWAP1 DUP5 PUSH1 0x1 SWAP6 SWAP5 SWAP4 SWAP3 LT PUSH2 0x29AD JUMPI JUMPDEST POP POP POP DUP2 SHL ADD DUP5 SSTORE PUSH2 0x24F1 JUMP JUMPDEST ADD MLOAD PUSH1 0x0 NOT DUP4 DUP10 SHL PUSH1 0xF8 AND SHR NOT AND SWAP1 SSTORE DUP9 DUP1 DUP1 PUSH2 0x29A0 JUMP JUMPDEST PUSH1 0x1 DUP6 SWAP7 DUP3 SWAP4 SWAP7 DUP7 ADD MLOAD DUP2 SSTORE ADD SWAP6 ADD SWAP4 ADD PUSH2 0x2988 JUMP JUMPDEST SWAP1 SWAP2 POP DUP7 PUSH1 0x0 MSTORE PUSH1 0x0 DUP1 MLOAD PUSH1 0x20 PUSH2 0x535A DUP4 CODECOPY DUP2 MLOAD SWAP2 MSTORE DUP7 DUP1 DUP6 ADD PUSH1 0x5 SHR DUP3 ADD SWAP3 DUP8 DUP7 LT PUSH2 0x2A2C JUMPI JUMPDEST SWAP1 DUP6 SWAP5 SWAP4 SWAP3 SWAP2 ADD PUSH1 0x5 SHR ADD SWAP1 JUMPDEST DUP2 DUP2 LT PUSH2 0x2A1D JUMPI POP PUSH2 0x24C8 JUMP JUMPDEST PUSH1 0x0 DUP2 SSTORE DUP5 SWAP4 POP PUSH1 0x1 ADD PUSH2 0x2A10 JUMP JUMPDEST SWAP3 POP DUP2 SWAP3 PUSH2 0x2A03 JUMP JUMPDEST ADD MLOAD SWAP1 POP DUP9 DUP1 PUSH2 0x2491 JUMP JUMPDEST PUSH1 0x2 PUSH1 0x0 SWAP1 DUP2 MSTORE PUSH1 0x0 DUP1 MLOAD PUSH1 0x20 PUSH2 0x533A DUP4 CODECOPY DUP2 MLOAD SWAP2 MSTORE SWAP4 POP PUSH1 0x1F NOT DUP6 AND SWAP1 JUMPDEST DUP8 DUP3 DUP3 LT PUSH2 0x2A9E JUMPI POP POP SWAP1 DUP5 PUSH1 0x1 SWAP6 SWAP5 SWAP4 SWAP3 LT PUSH2 0x2A85 JUMPI JUMPDEST POP POP POP DUP2 SHL ADD PUSH1 0x2 SSTORE PUSH2 0x24A7 JUMP JUMPDEST ADD MLOAD PUSH1 0x0 NOT PUSH1 0xF8 DUP5 PUSH1 0x3 SHL AND SHR NOT AND SWAP1 SSTORE DUP9 DUP1 DUP1 PUSH2 0x2A77 JUMP JUMPDEST PUSH1 0x1 DUP6 SWAP7 DUP3 SWAP4 SWAP7 DUP7 ADD MLOAD DUP2 SSTORE ADD SWAP6 ADD SWAP4 ADD PUSH2 0x2A5F JUMP JUMPDEST SWAP1 SWAP2 POP PUSH1 0x2 PUSH1 0x0 MSTORE PUSH1 0x0 DUP1 MLOAD PUSH1 0x20 PUSH2 0x533A DUP4 CODECOPY DUP2 MLOAD SWAP2 MSTORE DUP7 DUP1 DUP6 ADD PUSH1 0x5 SHR DUP3 ADD SWAP3 DUP8 DUP7 LT PUSH2 0x2B06 JUMPI JUMPDEST SWAP1 DUP6 SWAP5 SWAP4 SWAP3 SWAP2 ADD PUSH1 0x5 SHR ADD SWAP1 JUMPDEST DUP2 DUP2 LT PUSH2 0x2AF7 JUMPI POP PUSH2 0x247C JUMP JUMPDEST PUSH1 0x0 DUP2 SSTORE DUP5 SWAP4 POP PUSH1 0x1 ADD PUSH2 0x2AEA JUMP JUMPDEST SWAP3 POP DUP2 SWAP3 PUSH2 0x2ADD JUMP JUMPDEST PUSH2 0x2B18 CALLDATASIZE PUSH2 0x35C0 JUMP JUMPDEST PUSH1 0xFF PUSH1 0x8 SWAP4 SWAP3 SWAP4 SLOAD AND PUSH1 0x3 DUP2 LT ISZERO PUSH2 0x1D7 JUMPI PUSH1 0x3 DUP4 LT ISZERO PUSH2 0x1D7 JUMPI PUSH2 0x2B3E SWAP1 DUP4 EQ PUSH2 0x395F JUMP JUMPDEST PUSH1 0x9 SLOAD PUSH1 0x1 PUSH1 0x1 PUSH1 0xA0 SHL SUB SWAP3 SWAP1 DUP4 AND CALLER EQ DUP1 ISZERO PUSH2 0x2BD2 JUMPI JUMPDEST ISZERO PUSH2 0x2B9B JUMPI PUSH1 0x20 SWAP4 PUSH2 0x2B7B SWAP3 DUP5 PUSH1 0xA SLOAD AND CALLER EQ PUSH1 0x0 EQ PUSH2 0x2B95 JUMPI POP CALLVALUE SWAP2 JUMPDEST CALLER SWAP1 PUSH2 0x3D7E JUMP JUMPDEST SWAP1 PUSH1 0x9 SLOAD AND CALLER EQ PUSH1 0x0 EQ PUSH2 0x1CE JUMPI DUP1 PUSH1 0xC SSTORE PUSH1 0x40 MLOAD SWAP1 DUP2 MSTORE RETURN JUMPDEST SWAP2 PUSH2 0x2B74 JUMP JUMPDEST PUSH1 0x40 MLOAD PUSH3 0x461BCD PUSH1 0xE5 SHL DUP2 MSTORE PUSH1 0x20 PUSH1 0x4 DUP3 ADD MSTORE PUSH1 0xF PUSH1 0x24 DUP3 ADD MSTORE PUSH15 0x2BA927A723AFA6A9A3A9A2A72222A9 PUSH1 0x89 SHL PUSH1 0x44 DUP3 ADD MSTORE PUSH1 0x64 SWAP1 REVERT JUMPDEST POP DUP3 PUSH1 0xA SLOAD AND CALLER EQ PUSH2 0x2B56 JUMP JUMPDEST CALLVALUE PUSH2 0x150 JUMPI PUSH1 0x0 CALLDATASIZE PUSH1 0x3 NOT ADD SLT PUSH2 0x150 JUMPI PUSH1 0x20 PUSH1 0x13 SLOAD PUSH1 0x40 MLOAD SWAP1 DUP2 MSTORE RETURN JUMPDEST CALLVALUE PUSH2 0x150 JUMPI PUSH1 0x0 CALLDATASIZE PUSH1 0x3 NOT ADD SLT PUSH2 0x150 JUMPI PUSH1 0x20 PUSH2 0x1BB PUSH1 0xFF PUSH1 0x8 SLOAD AND PUSH2 0x2C3D PUSH1 0x1 DUP1 PUSH1 0xA0 SHL SUB SWAP2 PUSH2 0x2C32 DUP4 PUSH1 0xA SLOAD AND DUP3 PUSH2 0x3AD9 JUMP JUMPDEST SWAP3 PUSH1 0x9 SLOAD AND SWAP1 PUSH2 0x3AD9 JUMP JUMPDEST SWAP1 PUSH2 0x3C81 JUMP JUMPDEST PUSH1 0x80 CALLDATASIZE PUSH1 0x3 NOT ADD SLT PUSH2 0x150 JUMPI PUSH1 0x4 CALLDATALOAD PUSH1 0x3 DUP2 LT ISZERO PUSH2 0x150 JUMPI PUSH1 0x24 SWAP1 DUP2 CALLDATALOAD SWAP1 PUSH1 0x1 PUSH1 0x1 PUSH1 0xA0 SHL SUB PUSH1 0x44 CALLDATALOAD DUP2 DUP2 AND DUP2 SUB PUSH2 0x150 JUMPI PUSH1 0x64 CALLDATALOAD SWAP3 DUP3 DUP5 AND SWAP5 DUP6 DUP6 SUB PUSH2 0x150 JUMPI PUSH1 0x1 PUSH1 0x0 MSTORE PUSH1 0x20 SWAP6 PUSH1 0x19 DUP8 MSTORE PUSH2 0x2CA1 PUSH1 0xFF PUSH1 0x40 PUSH1 0x0 KECCAK256 SLOAD AND PUSH2 0x36B9 JUMP JUMPDEST PUSH1 0xFF PUSH1 0x8 SLOAD AND PUSH1 0x3 DUP2 LT ISZERO PUSH2 0x2F06 JUMPI PUSH2 0x2CBB SWAP1 DUP5 EQ PUSH2 0x395F JUMP JUMPDEST DUP3 PUSH2 0x2EFF JUMPI CALLVALUE SWAP5 JUMPDEST DUP9 DUP9 DUP3 PUSH1 0xA SLOAD AND SWAP3 PUSH2 0x2CE2 PUSH2 0x2CD8 DUP6 DUP10 PUSH2 0x3AD9 JUMP JUMPDEST PUSH1 0xB SLOAD GT ISZERO PUSH2 0x36F6 JUMP JUMPDEST PUSH1 0x14 SLOAD AND PUSH1 0x40 MLOAD SWAP3 DUP4 DUP1 SWAP3 PUSH4 0x122643F3 PUSH1 0xE2 SHL DUP3 MSTORE DUP8 PUSH1 0x4 DUP4 ADD MSTORE GAS STATICCALL SWAP1 DUP2 ISZERO PUSH2 0xE30 JUMPI PUSH1 0x0 SWAP2 PUSH2 0x2ECA JUMPI JUMPDEST POP ISZERO PUSH2 0x2E94 JUMPI SWAP1 DUP2 PUSH2 0x2D2C SWAP3 CALLER EQ SWAP2 DUP3 ISZERO SWAP3 PUSH2 0x2E89 JUMPI JUMPDEST POP POP PUSH2 0x3741 JUMP JUMPDEST PUSH1 0xC SLOAD SWAP1 DUP2 ISZERO PUSH2 0x2E01 JUMPI LT PUSH2 0x2DC8 JUMPI PUSH1 0x2 SWAP6 POP SWAP2 PUSH2 0x2D4F SWAP2 DUP5 PUSH2 0x2D6F SWAP6 SWAP5 PUSH2 0x3D7E JUMP JUMPDEST PUSH1 0xC SSTORE PUSH1 0x1 DUP1 PUSH1 0xA0 SHL SUB AND PUSH1 0x1 PUSH1 0x1 PUSH1 0x60 SHL SUB PUSH1 0xA0 SHL PUSH1 0x9 SLOAD AND OR PUSH1 0x9 SSTORE JUMP JUMPDEST PUSH1 0x19 PUSH1 0xFF NOT SWAP2 DUP4 DUP4 PUSH1 0x4 SLOAD AND OR PUSH1 0x4 SSTORE DUP4 PUSH1 0x0 MSTORE MSTORE PUSH1 0x40 PUSH1 0x0 KECCAK256 PUSH1 0x1 DUP3 DUP3 SLOAD AND OR SWAP1 SSTORE PUSH1 0x4 SLOAD AND OR PUSH1 0x4 SSTORE PUSH32 0x909D9218F6E1F243C7D9044544C7B03E2E7DB27D81653992E9018B8B72F4C20D PUSH1 0x40 MLOAD DUP1 PUSH2 0x1141 DUP2 PUSH2 0x379B JUMP JUMPDEST PUSH1 0x40 MLOAD PUSH3 0x461BCD PUSH1 0xE5 SHL DUP2 MSTORE PUSH1 0x4 DUP2 ADD DUP7 SWAP1 MSTORE PUSH1 0x12 DUP2 DUP9 ADD MSTORE PUSH18 0x1393D517D15393D551D217D4105653515395 PUSH1 0x72 SHL PUSH1 0x44 DUP3 ADD MSTORE PUSH1 0x64 SWAP1 REVERT JUMPDEST SWAP1 POP CALLVALUE ISZERO PUSH2 0x2E55 JUMPI ISZERO PUSH2 0x2E22 JUMPI PUSH1 0x2 SWAP6 POP SWAP2 PUSH2 0x2D4F SWAP2 DUP5 PUSH2 0x2D6F SWAP6 SWAP5 PUSH2 0x3D7E JUMP JUMPDEST PUSH1 0x40 MLOAD PUSH3 0x461BCD PUSH1 0xE5 SHL DUP2 MSTORE PUSH1 0x4 DUP2 ADD DUP7 SWAP1 MSTORE PUSH1 0xC DUP2 DUP9 ADD MSTORE PUSH12 0x16915493D7D4105653515395 PUSH1 0xA2 SHL PUSH1 0x44 DUP3 ADD MSTORE PUSH1 0x64 SWAP1 REVERT JUMPDEST PUSH1 0x40 MLOAD PUSH3 0x461BCD PUSH1 0xE5 SHL DUP2 MSTORE PUSH1 0x4 DUP2 ADD DUP8 SWAP1 MSTORE PUSH1 0xD DUP2 DUP10 ADD MSTORE PUSH13 0x5A45524F5F4D534756414C5545 PUSH1 0x98 SHL PUSH1 0x44 DUP3 ADD MSTORE PUSH1 0x64 SWAP1 REVERT JUMPDEST EQ ISZERO SWAP1 POP DUP10 DUP1 PUSH2 0x2D25 JUMP JUMPDEST PUSH1 0x40 MLOAD PUSH3 0x461BCD PUSH1 0xE5 SHL DUP2 MSTORE PUSH1 0x4 DUP2 ADD DUP10 SWAP1 MSTORE PUSH1 0xF DUP2 DUP12 ADD MSTORE PUSH15 0x1554D1549517D393D517D1561254D5 PUSH1 0x8A SHL PUSH1 0x44 DUP3 ADD MSTORE PUSH1 0x64 SWAP1 REVERT JUMPDEST SWAP1 POP DUP9 DUP2 DUP2 RETURNDATASIZE DUP4 GT PUSH2 0x2EF8 JUMPI JUMPDEST PUSH2 0x2EE1 DUP2 DUP4 PUSH2 0x32AF JUMP JUMPDEST DUP2 ADD SUB SLT PUSH2 0x150 JUMPI PUSH2 0x2EF2 SWAP1 PUSH2 0x3734 JUMP JUMPDEST DUP11 PUSH2 0x2D0E JUMP JUMPDEST POP RETURNDATASIZE PUSH2 0x2ED7 JUMP JUMPDEST DUP2 SWAP5 PUSH2 0x2CC3 JUMP JUMPDEST DUP9 PUSH4 0x4E487B71 PUSH1 0xE0 SHL PUSH1 0x0 MSTORE PUSH1 0x21 PUSH1 0x4 MSTORE PUSH1 0x0 REVERT JUMPDEST CALLVALUE PUSH2 0x150 JUMPI PUSH1 0x0 CALLDATASIZE PUSH1 0x3 NOT ADD SLT PUSH2 0x150 JUMPI PUSH2 0x2F56 PUSH2 0x2F37 PUSH2 0x32D0 JUMP JUMPDEST PUSH2 0x8F6 PUSH2 0x2F42 PUSH2 0x333C JUMP JUMPDEST PUSH1 0x40 MLOAD SWAP4 DUP5 SWAP4 PUSH1 0x40 DUP6 MSTORE PUSH1 0x40 DUP6 ADD SWAP1 PUSH2 0x3480 JUMP JUMPDEST SWAP1 DUP4 DUP3 SUB PUSH1 0x20 DUP6 ADD MSTORE PUSH2 0x34CC JUMP JUMPDEST CALLVALUE PUSH2 0x150 JUMPI PUSH1 0x0 CALLDATASIZE PUSH1 0x3 NOT ADD SLT PUSH2 0x150 JUMPI DUP1 PUSH2 0x229F PUSH1 0x20 SWAP3 PUSH1 0xFF PUSH1 0x8 SLOAD AND JUMPDEST SWAP1 PUSH1 0x3 DUP3 LT ISZERO PUSH2 0x1D7 JUMPI MSTORE JUMP JUMPDEST SWAP1 PUSH1 0x1 DUP3 DUP2 SHR SWAP3 AND DUP1 ISZERO PUSH2 0x2FC0 JUMPI JUMPDEST PUSH1 0x20 DUP4 LT EQ PUSH2 0x2FAA JUMPI JUMP JUMPDEST PUSH4 0x4E487B71 PUSH1 0xE0 SHL PUSH1 0x0 MSTORE PUSH1 0x22 PUSH1 0x4 MSTORE PUSH1 0x24 PUSH1 0x0 REVERT JUMPDEST SWAP2 PUSH1 0x7F AND SWAP2 PUSH2 0x2F9F JUMP JUMPDEST PUSH1 0x2 SLOAD PUSH1 0x0 SWAP3 SWAP2 PUSH2 0x2FDA DUP3 PUSH2 0x2F90 JUMP JUMPDEST DUP1 DUP3 MSTORE SWAP2 PUSH1 0x1 SWAP1 DUP2 DUP2 AND SWAP1 DUP2 ISZERO PUSH2 0x303F JUMPI POP PUSH1 0x1 EQ PUSH2 0x2FF8 JUMPI POP POP POP JUMP JUMPDEST SWAP2 SWAP3 SWAP4 POP PUSH1 0x2 PUSH1 0x0 MSTORE PUSH1 0x0 DUP1 MLOAD PUSH1 0x20 PUSH2 0x533A DUP4 CODECOPY DUP2 MLOAD SWAP2 MSTORE SWAP2 PUSH1 0x0 SWAP3 JUMPDEST DUP5 DUP5 LT PUSH2 0x3027 JUMPI POP POP PUSH1 0x20 SWAP3 POP ADD ADD SWAP1 JUMP JUMPDEST DUP1 SLOAD PUSH1 0x20 DUP6 DUP6 ADD DUP2 ADD SWAP2 SWAP1 SWAP2 MSTORE SWAP1 SWAP4 ADD SWAP3 DUP2 ADD PUSH2 0x3015 JUMP JUMPDEST SWAP2 POP POP PUSH1 0x20 SWAP4 SWAP5 POP PUSH1 0xFF SWAP3 SWAP2 SWAP3 NOT AND DUP4 DUP4 ADD MSTORE ISZERO ISZERO PUSH1 0x5 SHL ADD ADD SWAP1 JUMP JUMPDEST PUSH1 0x3 SLOAD PUSH1 0x0 SWAP3 SWAP2 PUSH2 0x306C DUP3 PUSH2 0x2F90 JUMP JUMPDEST DUP1 DUP3 MSTORE SWAP2 PUSH1 0x1 SWAP1 DUP2 DUP2 AND SWAP1 DUP2 ISZERO PUSH2 0x303F JUMPI POP PUSH1 0x1 EQ PUSH2 0x308A JUMPI POP POP POP JUMP JUMPDEST SWAP2 SWAP3 SWAP4 POP PUSH1 0x3 PUSH1 0x0 MSTORE PUSH1 0x0 DUP1 MLOAD PUSH1 0x20 PUSH2 0x535A DUP4 CODECOPY DUP2 MLOAD SWAP2 MSTORE SWAP2 PUSH1 0x0 SWAP3 JUMPDEST DUP5 DUP5 LT PUSH2 0x30B9 JUMPI POP POP PUSH1 0x20 SWAP3 POP ADD ADD SWAP1 JUMP JUMPDEST DUP1 SLOAD PUSH1 0x20 DUP6 DUP6 ADD DUP2 ADD SWAP2 SWAP1 SWAP2 MSTORE SWAP1 SWAP4 ADD SWAP3 DUP2 ADD PUSH2 0x30A7 JUMP JUMPDEST PUSH1 0xF SLOAD PUSH1 0x0 SWAP3 SWAP2 PUSH2 0x30E1 DUP3 PUSH2 0x2F90 JUMP JUMPDEST DUP1 DUP3 MSTORE SWAP2 PUSH1 0x1 SWAP1 DUP2 DUP2 AND SWAP1 DUP2 ISZERO PUSH2 0x303F JUMPI POP PUSH1 0x1 EQ PUSH2 0x30FF JUMPI POP POP POP JUMP JUMPDEST SWAP2 SWAP3 SWAP4 POP PUSH1 0xF PUSH1 0x0 MSTORE PUSH1 0x0 DUP1 MLOAD PUSH1 0x20 PUSH2 0x53BA DUP4 CODECOPY DUP2 MLOAD SWAP2 MSTORE SWAP2 PUSH1 0x0 SWAP3 JUMPDEST DUP5 DUP5 LT PUSH2 0x312E JUMPI POP POP PUSH1 0x20 SWAP3 POP ADD ADD SWAP1 JUMP JUMPDEST DUP1 SLOAD PUSH1 0x20 DUP6 DUP6 ADD DUP2 ADD SWAP2 SWAP1 SWAP2 MSTORE SWAP1 SWAP4 ADD SWAP3 DUP2 ADD PUSH2 0x311C JUMP JUMPDEST PUSH1 0x10 SLOAD PUSH1 0x0 SWAP3 SWAP2 PUSH2 0x3156 DUP3 PUSH2 0x2F90 JUMP JUMPDEST DUP1 DUP3 MSTORE SWAP2 PUSH1 0x1 SWAP1 DUP2 DUP2 AND SWAP1 DUP2 ISZERO PUSH2 0x303F JUMPI POP PUSH1 0x1 EQ PUSH2 0x3174 JUMPI POP POP POP JUMP JUMPDEST SWAP2 SWAP3 SWAP4 POP PUSH1 0x10 PUSH1 0x0 MSTORE PUSH1 0x0 DUP1 MLOAD PUSH1 0x20 PUSH2 0x539A DUP4 CODECOPY DUP2 MLOAD SWAP2 MSTORE SWAP2 PUSH1 0x0 SWAP3 JUMPDEST DUP5 DUP5 LT PUSH2 0x31A3 JUMPI POP POP PUSH1 0x20 SWAP3 POP ADD ADD SWAP1 JUMP JUMPDEST DUP1 SLOAD PUSH1 0x20 DUP6 DUP6 ADD DUP2 ADD SWAP2 SWAP1 SWAP2 MSTORE SWAP1 SWAP4 ADD SWAP3 DUP2 ADD PUSH2 0x3191 JUMP JUMPDEST PUSH1 0x11 SLOAD PUSH1 0x0 SWAP3 SWAP2 PUSH2 0x31CB DUP3 PUSH2 0x2F90 JUMP JUMPDEST DUP1 DUP3 MSTORE SWAP2 PUSH1 0x1 SWAP1 DUP2 DUP2 AND SWAP1 DUP2 ISZERO PUSH2 0x303F JUMPI POP PUSH1 0x1 EQ PUSH2 0x31E9 JUMPI POP POP POP JUMP JUMPDEST SWAP2 SWAP3 SWAP4 POP PUSH1 0x11 PUSH1 0x0 MSTORE PUSH1 0x0 DUP1 MLOAD PUSH1 0x20 PUSH2 0x537A DUP4 CODECOPY DUP2 MLOAD SWAP2 MSTORE SWAP2 PUSH1 0x0 SWAP3 JUMPDEST DUP5 DUP5 LT PUSH2 0x3218 JUMPI POP POP PUSH1 0x20 SWAP3 POP ADD ADD SWAP1 JUMP JUMPDEST DUP1 SLOAD PUSH1 0x20 DUP6 DUP6 ADD DUP2 ADD SWAP2 SWAP1 SWAP2 MSTORE SWAP1 SWAP4 ADD SWAP3 DUP2 ADD PUSH2 0x3206 JUMP JUMPDEST PUSH1 0x60 DUP2 ADD SWAP1 DUP2 LT PUSH1 0x1 PUSH1 0x1 PUSH1 0x40 SHL SUB DUP3 GT OR PUSH2 0x9DB JUMPI PUSH1 0x40 MSTORE JUMP JUMPDEST PUSH1 0xC0 DUP2 ADD SWAP1 DUP2 LT PUSH1 0x1 PUSH1 0x1 PUSH1 0x40 SHL SUB DUP3 GT OR PUSH2 0x9DB JUMPI PUSH1 0x40 MSTORE JUMP JUMPDEST PUSH1 0x40 DUP2 ADD SWAP1 DUP2 LT PUSH1 0x1 PUSH1 0x1 PUSH1 0x40 SHL SUB DUP3 GT OR PUSH2 0x9DB JUMPI PUSH1 0x40 MSTORE JUMP JUMPDEST PUSH1 0x1 PUSH1 0x1 PUSH1 0x40 SHL SUB DUP2 GT PUSH2 0x9DB JUMPI PUSH1 0x40 MSTORE JUMP JUMPDEST PUSH1 0x20 DUP2 ADD SWAP1 DUP2 LT PUSH1 0x1 PUSH1 0x1 PUSH1 0x40 SHL SUB DUP3 GT OR PUSH2 0x9DB JUMPI PUSH1 0x40 MSTORE JUMP JUMPDEST SWAP1 PUSH1 0x1F DUP1 NOT SWAP2 ADD AND DUP2 ADD SWAP1 DUP2 LT PUSH1 0x1 PUSH1 0x1 PUSH1 0x40 SHL SUB DUP3 GT OR PUSH2 0x9DB JUMPI PUSH1 0x40 MSTORE JUMP JUMPDEST PUSH1 0x40 MLOAD SWAP1 PUSH2 0x32DD DUP3 PUSH2 0x3230 JUMP JUMPDEST PUSH1 0x1 SLOAD PUSH1 0x1 PUSH1 0x1 PUSH1 0xA0 SHL SUB AND DUP3 MSTORE PUSH1 0x40 MLOAD DUP3 SWAP1 PUSH2 0x3304 DUP2 PUSH2 0x32FD DUP2 PUSH2 0x2FCA JUMP JUMPDEST SUB DUP3 PUSH2 0x32AF JUMP JUMPDEST PUSH1 0x20 DUP3 ADD MSTORE PUSH1 0x40 DUP1 MLOAD SWAP2 PUSH2 0x3322 DUP4 PUSH2 0x331B DUP2 PUSH2 0x305C JUMP JUMPDEST SUB DUP5 PUSH2 0x32AF JUMP JUMPDEST ADD MSTORE JUMP JUMPDEST PUSH1 0x5 GT ISZERO PUSH2 0x1D7 JUMPI JUMP JUMPDEST PUSH1 0x3 DUP3 LT ISZERO PUSH2 0x1D7 JUMPI MSTORE JUMP JUMPDEST PUSH1 0x40 SWAP1 DUP2 MLOAD PUSH2 0x334A DUP2 PUSH2 0x3230 JUMP JUMPDEST DUP1 SWAP3 DUP1 MLOAD PUSH2 0x3357 DUP2 PUSH2 0x324B JUMP JUMPDEST PUSH1 0x4 SLOAD PUSH1 0xFF DUP2 AND SWAP1 PUSH1 0x8 DUP3 LT ISZERO PUSH2 0x1D7 JUMPI PUSH1 0xFF SWAP2 DUP4 MSTORE PUSH1 0x8 SHR AND PUSH2 0x337A DUP2 PUSH2 0x3326 JUMP JUMPDEST PUSH1 0x20 DUP3 ADD MSTORE PUSH1 0x5 SLOAD DUP3 DUP3 ADD MSTORE PUSH1 0x6 SLOAD PUSH1 0x60 DUP3 ADD MSTORE PUSH1 0x7 SLOAD PUSH1 0x80 DUP3 ADD MSTORE PUSH2 0x33A8 PUSH1 0xFF PUSH1 0x8 SLOAD AND PUSH1 0xA0 DUP4 ADD PUSH2 0x3330 JUMP JUMPDEST DUP3 MSTORE DUP1 MLOAD PUSH2 0x33B5 DUP2 PUSH2 0x324B JUMP JUMPDEST PUSH1 0x1 DUP1 PUSH1 0xA0 SHL SUB DUP1 PUSH1 0x9 SLOAD AND DUP3 MSTORE PUSH1 0xA SLOAD AND PUSH1 0x20 DUP3 ADD MSTORE PUSH1 0xB SLOAD DUP3 DUP3 ADD MSTORE PUSH1 0xC SLOAD PUSH1 0x60 DUP3 ADD MSTORE PUSH1 0xD SLOAD PUSH1 0x80 DUP3 ADD MSTORE PUSH1 0xE SLOAD PUSH1 0xA0 DUP3 ADD MSTORE PUSH1 0x20 DUP4 ADD MSTORE DUP1 MLOAD SWAP2 PUSH2 0x33FC DUP4 PUSH2 0x3230 JUMP JUMPDEST DUP2 MLOAD PUSH2 0x340B DUP2 PUSH2 0x32FD DUP2 PUSH2 0x30D1 JUMP JUMPDEST DUP4 MSTORE DUP2 MLOAD PUSH2 0x341C DUP2 PUSH2 0x32FD DUP2 PUSH2 0x3146 JUMP JUMPDEST PUSH1 0x20 DUP5 ADD MSTORE DUP2 MLOAD PUSH2 0x3430 DUP2 PUSH2 0x32FD DUP2 PUSH2 0x31BB JUMP JUMPDEST DUP3 DUP5 ADD MSTORE ADD MSTORE JUMP JUMPDEST PUSH1 0x0 JUMPDEST DUP4 DUP2 LT PUSH2 0x344B JUMPI POP POP PUSH1 0x0 SWAP2 ADD MSTORE JUMP JUMPDEST DUP2 DUP2 ADD MLOAD DUP4 DUP3 ADD MSTORE PUSH1 0x20 ADD PUSH2 0x343B JUMP JUMPDEST SWAP1 PUSH1 0x20 SWAP2 PUSH2 0x3474 DUP2 MLOAD DUP1 SWAP3 DUP2 DUP6 MSTORE DUP6 DUP1 DUP7 ADD SWAP2 ADD PUSH2 0x3438 JUMP JUMPDEST PUSH1 0x1F ADD PUSH1 0x1F NOT AND ADD ADD SWAP1 JUMP JUMPDEST PUSH2 0x34BC SWAP2 PUSH1 0x1 DUP1 PUSH1 0xA0 SHL SUB DUP3 MLOAD AND DUP2 MSTORE PUSH1 0x40 PUSH2 0x34AB PUSH1 0x20 DUP5 ADD MLOAD PUSH1 0x60 PUSH1 0x20 DUP6 ADD MSTORE PUSH1 0x60 DUP5 ADD SWAP1 PUSH2 0x345B JUMP JUMPDEST SWAP3 ADD MLOAD SWAP1 PUSH1 0x40 DUP2 DUP5 SUB SWAP2 ADD MSTORE PUSH2 0x345B JUMP JUMPDEST SWAP1 JUMP JUMPDEST SWAP1 PUSH1 0x8 DUP3 LT ISZERO PUSH2 0x1D7 JUMPI MSTORE JUMP JUMPDEST SWAP1 PUSH1 0x40 PUSH2 0x34BC SWAP3 PUSH2 0x3520 PUSH1 0xA0 DUP3 MLOAD PUSH2 0x34E5 DUP7 DUP3 MLOAD PUSH2 0x34BF JUMP JUMPDEST PUSH1 0x20 DUP2 ADD MLOAD PUSH2 0x34F3 DUP2 PUSH2 0x3326 JUMP JUMPDEST PUSH1 0x20 DUP8 ADD MSTORE DUP5 DUP2 ADD MLOAD DUP6 DUP8 ADD MSTORE PUSH1 0x60 DUP2 ADD MLOAD PUSH1 0x60 DUP8 ADD MSTORE PUSH1 0x80 DUP2 ADD MLOAD PUSH1 0x80 DUP8 ADD MSTORE ADD MLOAD PUSH1 0xA0 DUP6 ADD SWAP1 PUSH2 0x2F83 JUMP JUMPDEST PUSH1 0xA0 PUSH1 0x20 DUP3 ADD MLOAD PUSH1 0x1 DUP1 DUP4 SHL SUB DUP1 DUP3 MLOAD AND PUSH1 0xC0 DUP8 ADD MSTORE PUSH1 0x20 DUP3 ADD MLOAD AND PUSH1 0xE0 DUP7 ADD MSTORE DUP4 DUP2 ADD MLOAD PUSH2 0x100 DUP7 ADD MSTORE PUSH1 0x60 DUP2 ADD MLOAD PUSH2 0x120 DUP7 ADD MSTORE PUSH1 0x80 DUP2 ADD MLOAD PUSH2 0x140 DUP7 ADD MSTORE ADD MLOAD PUSH2 0x160 DUP5 ADD MSTORE ADD MLOAD SWAP1 PUSH2 0x358C PUSH2 0x1A0 DUP1 PUSH2 0x180 DUP5 ADD MSTORE PUSH1 0x60 DUP5 MLOAD SWAP2 DUP5 ADD MSTORE PUSH2 0x200 DUP4 ADD SWAP1 PUSH2 0x345B JUMP JUMPDEST SWAP1 PUSH2 0x1E0 PUSH1 0x40 PUSH2 0x35B0 PUSH1 0x20 DUP7 ADD MLOAD SWAP5 PUSH2 0x19F NOT SWAP6 DUP7 DUP7 DUP4 SUB ADD PUSH2 0x1C0 DUP8 ADD MSTORE PUSH2 0x345B JUMP JUMPDEST SWAP5 ADD MLOAD SWAP3 DUP3 DUP6 SUB ADD SWAP2 ADD MSTORE PUSH2 0x345B JUMP JUMPDEST PUSH1 0x60 SWAP1 PUSH1 0x3 NOT ADD SLT PUSH2 0x150 JUMPI PUSH1 0x4 CALLDATALOAD PUSH1 0x3 DUP2 LT ISZERO PUSH2 0x150 JUMPI SWAP1 PUSH1 0x24 CALLDATALOAD PUSH1 0x1 PUSH1 0x1 PUSH1 0xA0 SHL SUB DUP2 AND DUP2 SUB PUSH2 0x150 JUMPI SWAP1 PUSH1 0x44 CALLDATALOAD SWAP1 JUMP JUMPDEST PUSH1 0x40 SWAP1 PUSH1 0x3 NOT ADD SLT PUSH2 0x150 JUMPI PUSH1 0x4 CALLDATALOAD PUSH1 0x3 DUP2 LT ISZERO PUSH2 0x150 JUMPI SWAP1 PUSH1 0x24 CALLDATALOAD PUSH1 0x1 PUSH1 0x1 PUSH1 0xA0 SHL SUB DUP2 AND DUP2 SUB PUSH2 0x150 JUMPI SWAP1 JUMP JUMPDEST PUSH1 0x1 PUSH1 0x1 PUSH1 0x40 SHL SUB DUP2 GT PUSH2 0x9DB JUMPI PUSH1 0x1F ADD PUSH1 0x1F NOT AND PUSH1 0x20 ADD SWAP1 JUMP JUMPDEST DUP2 PUSH1 0x1F DUP3 ADD SLT ISZERO PUSH2 0x150 JUMPI DUP1 CALLDATALOAD SWAP1 PUSH2 0x3654 DUP3 PUSH2 0x3622 JUMP JUMPDEST SWAP3 PUSH2 0x3662 PUSH1 0x40 MLOAD SWAP5 DUP6 PUSH2 0x32AF JUMP JUMPDEST DUP3 DUP5 MSTORE PUSH1 0x20 DUP4 DUP4 ADD ADD GT PUSH2 0x150 JUMPI DUP2 PUSH1 0x0 SWAP3 PUSH1 0x20 DUP1 SWAP4 ADD DUP4 DUP7 ADD CALLDATACOPY DUP4 ADD ADD MSTORE SWAP1 JUMP JUMPDEST SWAP1 PUSH2 0x34BC SWAP2 PUSH1 0x20 DUP2 MSTORE PUSH1 0x20 PUSH2 0x36A4 DUP4 MLOAD PUSH1 0x40 DUP4 DUP6 ADD MSTORE PUSH1 0x60 DUP5 ADD SWAP1 PUSH2 0x3480 JUMP JUMPDEST SWAP3 ADD MLOAD SWAP1 PUSH1 0x40 PUSH1 0x1F NOT DUP3 DUP6 SUB ADD SWAP2 ADD MSTORE PUSH2 0x34CC JUMP JUMPDEST ISZERO PUSH2 0x36C0 JUMPI JUMP JUMPDEST PUSH1 0x40 MLOAD PUSH3 0x461BCD PUSH1 0xE5 SHL DUP2 MSTORE PUSH1 0x20 PUSH1 0x4 DUP3 ADD MSTORE PUSH1 0xE PUSH1 0x24 DUP3 ADD MSTORE PUSH14 0x494E56414C49445F535441545553 PUSH1 0x90 SHL PUSH1 0x44 DUP3 ADD MSTORE PUSH1 0x64 SWAP1 REVERT JUMPDEST ISZERO PUSH2 0x36FD JUMPI JUMP JUMPDEST PUSH1 0x40 MLOAD PUSH3 0x461BCD PUSH1 0xE5 SHL DUP2 MSTORE PUSH1 0x20 PUSH1 0x4 DUP3 ADD MSTORE PUSH1 0xF PUSH1 0x24 DUP3 ADD MSTORE PUSH15 0x14D51052D157D25390D3D4949150D5 PUSH1 0x8A SHL PUSH1 0x44 DUP3 ADD MSTORE PUSH1 0x64 SWAP1 REVERT JUMPDEST MLOAD SWAP1 DUP2 ISZERO ISZERO DUP3 SUB PUSH2 0x150 JUMPI JUMP JUMPDEST ISZERO PUSH2 0x3748 JUMPI JUMP JUMPDEST PUSH1 0x40 MLOAD PUSH3 0x461BCD PUSH1 0xE5 SHL DUP2 MSTORE PUSH1 0x20 PUSH1 0x4 DUP3 ADD MSTORE PUSH1 0x12 PUSH1 0x24 DUP3 ADD MSTORE PUSH18 0x2CA7AAAFA0A922AFAA2422AFA9A2A62622A9 PUSH1 0x71 SHL PUSH1 0x44 DUP3 ADD MSTORE PUSH1 0x64 SWAP1 REVERT JUMPDEST PUSH1 0x8 DUP2 LT ISZERO PUSH2 0x1D7 JUMPI PUSH1 0xFF DUP1 NOT PUSH1 0x4 SLOAD AND SWAP2 AND OR PUSH1 0x4 SSTORE JUMP JUMPDEST PUSH2 0x34BC SWAP1 PUSH1 0x20 DUP2 MSTORE PUSH1 0x40 PUSH1 0x20 DUP3 ADD MSTORE PUSH1 0x1 DUP1 PUSH1 0xA0 SHL SUB DUP1 PUSH1 0x1 SLOAD AND PUSH1 0x60 DUP4 ADD MSTORE PUSH1 0x60 PUSH1 0x80 DUP4 ADD MSTORE PUSH2 0x37E2 PUSH2 0x37D1 PUSH1 0xC0 DUP5 ADD PUSH2 0x2FCA JUMP JUMPDEST DUP4 DUP2 SUB PUSH1 0x5F NOT ADD PUSH1 0xA0 DUP6 ADD MSTORE PUSH2 0x305C JUMP JUMPDEST SWAP2 PUSH1 0x40 PUSH1 0x1F NOT DUP3 DUP6 SUB ADD SWAP2 ADD MSTORE PUSH1 0xFF PUSH1 0x4 SLOAD PUSH2 0x3800 DUP5 DUP4 DUP4 AND PUSH2 0x34BF JUMP JUMPDEST PUSH1 0x8 SHR AND PUSH2 0x380D DUP2 PUSH2 0x3326 JUMP JUMPDEST PUSH1 0x20 DUP4 ADD MSTORE PUSH1 0x5 SLOAD PUSH1 0x40 DUP4 ADD MSTORE PUSH1 0x6 SLOAD PUSH1 0x60 DUP4 ADD MSTORE PUSH1 0x7 SLOAD PUSH1 0x80 DUP4 ADD MSTORE PUSH2 0x383D PUSH1 0xFF PUSH1 0x8 SLOAD AND PUSH1 0xA0 DUP5 ADD SWAP1 PUSH2 0x2F83 JUMP JUMPDEST DUP1 PUSH1 0x9 SLOAD AND PUSH1 0xC0 DUP4 ADD MSTORE PUSH1 0xA SLOAD AND PUSH1 0xE0 DUP3 ADD MSTORE PUSH1 0xB SLOAD PUSH2 0x100 DUP3 ADD MSTORE PUSH1 0xC SLOAD PUSH2 0x120 DUP3 ADD MSTORE PUSH1 0xD SLOAD PUSH2 0x140 DUP3 ADD MSTORE PUSH1 0xE SLOAD PUSH2 0x160 DUP3 ADD MSTORE PUSH1 0x60 PUSH2 0x1A0 DUP1 PUSH2 0x180 DUP5 ADD MSTORE DUP3 ADD MSTORE PUSH2 0x3890 PUSH2 0x200 DUP3 ADD PUSH2 0x30D1 JUMP JUMPDEST SWAP1 PUSH2 0x1E0 PUSH2 0x38AC PUSH2 0x19F NOT SWAP4 DUP5 DUP5 DUP3 SUB ADD PUSH2 0x1C0 DUP6 ADD MSTORE PUSH2 0x3146 JUMP JUMPDEST SWAP3 DUP3 DUP5 SUB ADD SWAP2 ADD MSTORE PUSH2 0x31BB JUMP JUMPDEST PUSH1 0x40 MLOAD SWAP1 PUSH2 0x38C6 DUP3 PUSH2 0x324B JUMP JUMPDEST DUP2 PUSH1 0xA0 PUSH1 0x0 SWAP2 DUP3 DUP2 MSTORE DUP3 PUSH1 0x20 DUP3 ADD MSTORE DUP3 PUSH1 0x40 DUP3 ADD MSTORE DUP3 PUSH1 0x60 DUP3 ADD MSTORE DUP3 PUSH1 0x80 DUP3 ADD MSTORE ADD MSTORE JUMP JUMPDEST PUSH1 0x40 SWAP1 DUP2 MLOAD SWAP2 PUSH2 0x38FA DUP4 PUSH2 0x3266 JUMP JUMPDEST PUSH1 0x20 DUP4 DUP3 MLOAD PUSH2 0x3908 DUP2 PUSH2 0x3230 JUMP JUMPDEST PUSH1 0x0 DUP2 MSTORE PUSH1 0x60 DUP4 DUP3 ADD MSTORE PUSH1 0x60 DUP5 DUP3 ADD MSTORE DUP2 MSTORE DUP3 MLOAD SWAP3 PUSH2 0x3926 DUP5 PUSH2 0x3230 JUMP JUMPDEST PUSH2 0x392E PUSH2 0x38B9 JUMP JUMPDEST DUP5 MSTORE PUSH2 0x3938 PUSH2 0x38B9 JUMP JUMPDEST DUP4 DUP6 ADD MSTORE DUP1 MLOAD SWAP1 PUSH2 0x3948 DUP3 PUSH2 0x3230 JUMP JUMPDEST PUSH1 0x60 DUP3 MSTORE PUSH1 0x60 DUP5 DUP4 ADD MSTORE PUSH1 0x60 DUP2 DUP4 ADD MSTORE DUP5 ADD MSTORE ADD MSTORE JUMP JUMPDEST ISZERO PUSH2 0x3966 JUMPI JUMP JUMPDEST PUSH1 0x40 MLOAD PUSH3 0x461BCD PUSH1 0xE5 SHL DUP2 MSTORE PUSH1 0x20 PUSH1 0x4 DUP3 ADD MSTORE PUSH1 0xB PUSH1 0x24 DUP3 ADD MSTORE PUSH11 0x2BA927A723AFAA27A5A2A7 PUSH1 0xA9 SHL PUSH1 0x44 DUP3 ADD MSTORE PUSH1 0x64 SWAP1 REVERT JUMPDEST MLOAD SWAP1 PUSH1 0x1 PUSH1 0x1 PUSH1 0xA0 SHL SUB DUP3 AND DUP3 SUB PUSH2 0x150 JUMPI JUMP JUMPDEST DUP2 PUSH1 0x1F DUP3 ADD SLT ISZERO PUSH2 0x150 JUMPI DUP1 MLOAD PUSH2 0x39C3 DUP2 PUSH2 0x3622 JUMP JUMPDEST SWAP3 PUSH2 0x39D1 PUSH1 0x40 MLOAD SWAP5 DUP6 PUSH2 0x32AF JUMP JUMPDEST DUP2 DUP5 MSTORE PUSH1 0x20 DUP3 DUP5 ADD ADD GT PUSH2 0x150 JUMPI PUSH2 0x34BC SWAP2 PUSH1 0x20 DUP1 DUP6 ADD SWAP2 ADD PUSH2 0x3438 JUMP JUMPDEST PUSH1 0x40 MLOAD SWAP1 PUSH2 0x39FC DUP3 PUSH2 0x3266 JUMP JUMPDEST PUSH1 0x4 DUP3 MSTORE PUSH4 0x3078303 PUSH1 0xE4 SHL PUSH1 0x20 DUP4 ADD MSTORE JUMP JUMPDEST PUSH1 0xFF PUSH1 0x8 SLOAD AND PUSH1 0x3 DUP2 LT ISZERO PUSH2 0x1D7 JUMPI PUSH1 0x1 DUP2 SUB PUSH2 0x3A95 JUMPI POP PUSH1 0x15 SLOAD PUSH1 0x40 MLOAD PUSH4 0xF77800E5 PUSH1 0xE0 SHL DUP2 MSTORE SWAP1 PUSH1 0x20 SWAP1 DUP3 SWAP1 PUSH1 0x4 SWAP1 DUP3 SWAP1 PUSH1 0x1 PUSH1 0x1 PUSH1 0xA0 SHL SUB AND GAS STATICCALL SWAP1 DUP2 ISZERO PUSH2 0xE30 JUMPI PUSH1 0x0 SWAP2 PUSH2 0x3A5F JUMPI POP SWAP1 JUMP JUMPDEST SWAP1 PUSH1 0x20 DUP3 RETURNDATASIZE DUP3 GT PUSH2 0x3A8D JUMPI JUMPDEST DUP2 PUSH2 0x3A78 PUSH1 0x20 SWAP4 DUP4 PUSH2 0x32AF JUMP JUMPDEST DUP2 ADD SUB SLT PUSH2 0x3A8A JUMPI POP PUSH2 0x34BC SWAP1 PUSH2 0x3999 JUMP JUMPDEST DUP1 REVERT JUMPDEST RETURNDATASIZE SWAP2 POP PUSH2 0x3A6B JUMP JUMPDEST PUSH1 0x2 SUB PUSH2 0x3AD4 JUMPI PUSH1 0x15 SLOAD PUSH1 0x40 MLOAD PUSH4 0x5F117AA3 PUSH1 0xE1 SHL DUP2 MSTORE SWAP1 PUSH1 0x20 SWAP1 DUP3 SWAP1 PUSH1 0x4 SWAP1 DUP3 SWAP1 PUSH1 0x1 PUSH1 0x1 PUSH1 0xA0 SHL SUB AND GAS STATICCALL SWAP1 DUP2 ISZERO PUSH2 0xE30 JUMPI PUSH1 0x0 SWAP2 PUSH2 0x3A5F JUMPI POP SWAP1 JUMP JUMPDEST PUSH1 0x0 SWAP1 JUMP JUMPDEST PUSH1 0x3 DUP2 LT ISZERO PUSH2 0x1D7 JUMPI PUSH1 0x0 MSTORE PUSH1 0x1A PUSH1 0x20 MSTORE PUSH1 0x40 PUSH1 0x0 KECCAK256 SWAP1 PUSH1 0x1 DUP1 PUSH1 0xA0 SHL SUB AND PUSH1 0x0 MSTORE PUSH1 0x20 MSTORE PUSH1 0x40 PUSH1 0x0 KECCAK256 SLOAD SWAP1 JUMP JUMPDEST ISZERO PUSH2 0x3B0E JUMPI JUMP JUMPDEST PUSH1 0x40 MLOAD PUSH3 0x461BCD PUSH1 0xE5 SHL DUP2 MSTORE PUSH1 0x20 PUSH1 0x4 DUP3 ADD MSTORE PUSH1 0xA PUSH1 0x24 DUP3 ADD MSTORE PUSH10 0x2727AA2FA9A2A62622A9 PUSH1 0xB1 SHL PUSH1 0x44 DUP3 ADD MSTORE PUSH1 0x64 SWAP1 REVERT JUMPDEST MLOAD SWAP1 PUSH1 0x1 PUSH1 0x1 PUSH1 0x40 SHL SUB DUP3 AND DUP3 SUB PUSH2 0x150 JUMPI JUMP JUMPDEST ISZERO PUSH2 0x3B5B JUMPI JUMP JUMPDEST PUSH1 0x40 MLOAD PUSH3 0x461BCD PUSH1 0xE5 SHL DUP2 MSTORE PUSH1 0x20 PUSH1 0x4 DUP3 ADD MSTORE PUSH1 0x13 PUSH1 0x24 DUP3 ADD MSTORE PUSH19 0x24A72B20A624A22FA0AA2A22A9AA20AA24A7A7 PUSH1 0x69 SHL PUSH1 0x44 DUP3 ADD MSTORE PUSH1 0x64 SWAP1 REVERT JUMPDEST DUP2 DUP2 MUL SWAP3 SWAP2 DUP2 ISZERO SWAP2 DUP5 DIV EQ OR ISZERO PUSH2 0x3BA9 JUMPI JUMP JUMPDEST PUSH4 0x4E487B71 PUSH1 0xE0 SHL PUSH1 0x0 MSTORE PUSH1 0x11 PUSH1 0x4 MSTORE PUSH1 0x24 PUSH1 0x0 REVERT JUMPDEST SWAP2 SWAP1 DUP3 SUB SWAP2 DUP3 GT PUSH2 0x3BA9 JUMPI JUMP JUMPDEST SWAP1 SWAP5 SWAP4 SWAP3 PUSH1 0x60 SWAP3 PUSH2 0x3BE1 DUP4 PUSH1 0x80 DUP2 ADD SWAP9 PUSH2 0x2F83 JUMP JUMPDEST PUSH1 0x1 PUSH1 0x1 PUSH1 0xA0 SHL SUB AND PUSH1 0x20 DUP4 ADD MSTORE PUSH1 0x40 DUP3 ADD MSTORE ADD MSTORE JUMP JUMPDEST SWAP2 SWAP1 PUSH1 0x3 DUP4 LT ISZERO PUSH2 0x1D7 JUMPI PUSH1 0x40 SWAP3 PUSH2 0x3C7B PUSH32 0xFE2CAF3897EC3E02A1D458D232D7C62C17809D25DBFE65864CE842162D6C217C SWAP4 PUSH1 0x0 SWAP1 DUP4 DUP3 MSTORE PUSH1 0x1A PUSH1 0x20 MSTORE DUP7 DUP3 KECCAK256 PUSH1 0x1 DUP1 PUSH1 0xA0 SHL SUB DUP7 AND SWAP1 DUP2 DUP5 MSTORE PUSH1 0x20 MSTORE PUSH2 0x3C56 DUP3 DUP10 DUP6 KECCAK256 SLOAD PUSH2 0x3C81 JUMP JUMPDEST SWAP8 DUP4 DUP10 SWAP5 SWAP3 DUP8 DUP7 SWAP5 MSTORE PUSH1 0x1A PUSH1 0x20 MSTORE DUP3 DUP3 KECCAK256 SWAP1 DUP3 MSTORE PUSH1 0x20 MSTORE KECCAK256 SSTORE PUSH1 0x40 MLOAD SWAP5 DUP6 SWAP5 DUP6 PUSH2 0x3BCC JUMP JUMPDEST SUB SWAP1 LOG1 SWAP1 JUMP JUMPDEST SWAP2 SWAP1 DUP3 ADD DUP1 SWAP3 GT PUSH2 0x3BA9 JUMPI JUMP JUMPDEST PUSH1 0x3 DUP2 LT ISZERO PUSH2 0x1D7 JUMPI PUSH1 0x0 DUP2 DUP2 MSTORE PUSH1 0x1A PUSH1 0x20 MSTORE PUSH1 0x40 SWAP4 DUP5 DUP3 KECCAK256 PUSH1 0x1 DUP1 PUSH1 0xA0 SHL SUB DUP6 AND SWAP1 DUP2 DUP5 MSTORE PUSH1 0x20 MSTORE DUP6 DUP4 KECCAK256 SLOAD DUP3 DUP2 LT PUSH2 0x3D19 JUMPI SWAP2 DUP7 PUSH32 0x9060F8FFC7ACD8270ABF2337023E6377669CA44D5B2A23F3513A29380940F357 SWAP7 SWAP6 SWAP5 SWAP3 PUSH2 0x3CF6 DUP4 PUSH2 0x3C7B SWAP7 PUSH2 0x3BBF JUMP JUMPDEST SWAP9 DUP5 DUP11 SWAP6 SWAP3 DUP9 DUP8 SWAP5 MSTORE PUSH1 0x1A PUSH1 0x20 MSTORE DUP3 DUP3 KECCAK256 SWAP1 DUP3 MSTORE PUSH1 0x20 MSTORE KECCAK256 SSTORE MLOAD SWAP5 DUP6 SWAP5 DUP6 PUSH2 0x3BCC JUMP JUMPDEST DUP7 MLOAD PUSH3 0x461BCD PUSH1 0xE5 SHL DUP2 MSTORE PUSH1 0x20 PUSH1 0x4 DUP3 ADD MSTORE PUSH1 0x14 PUSH1 0x24 DUP3 ADD MSTORE PUSH20 0x125394D551919250D251539517D1115413D4D255 PUSH1 0x62 SHL PUSH1 0x44 DUP3 ADD MSTORE PUSH1 0x64 SWAP1 REVERT JUMPDEST PUSH1 0x1 PUSH1 0x1 PUSH1 0xA0 SHL SUB SWAP1 SWAP2 AND DUP2 MSTORE PUSH1 0x20 DUP2 ADD SWAP2 SWAP1 SWAP2 MSTORE PUSH1 0x60 DUP2 ADD SWAP3 SWAP2 PUSH2 0x3D7C SWAP2 PUSH1 0x40 ADD SWAP1 PUSH2 0x2F83 JUMP JUMPDEST JUMP JUMPDEST SWAP3 SWAP1 PUSH1 0x4 PUSH1 0xFF DUP2 SLOAD AND PUSH1 0x8 DUP2 LT ISZERO PUSH2 0x3FD6 JUMPI DUP1 PUSH1 0x2 PUSH2 0x3DA6 SWAP3 EQ ISZERO SWAP1 DUP2 PUSH2 0x4040 JUMPI JUMPDEST POP PUSH2 0x36B9 JUMP JUMPDEST DUP3 ISZERO PUSH2 0x400B JUMPI PUSH1 0x3 DUP6 LT ISZERO PUSH2 0x3FF6 JUMPI DUP5 ISZERO DUP1 ISZERO PUSH2 0x3DFE JUMPI JUMPDEST POP POP PUSH32 0x68FFD6AD89C76C56B0B5206AE0C1A14CBFFB37023D4E80F635FF7397C56B116B SWAP3 POP PUSH2 0x3C7B PUSH2 0x3DF1 DUP4 DUP4 DUP8 PUSH2 0x3BF8 JUMP JUMPDEST SWAP5 PUSH1 0x40 MLOAD SWAP4 DUP5 SWAP4 DUP5 PUSH2 0x3D54 JUMP JUMPDEST PUSH1 0x1 DUP7 EQ PUSH1 0x0 DUP2 ISZERO PUSH2 0x3FEB JUMPI JUMPDEST DUP2 ISZERO PUSH2 0x3FC6 JUMPI JUMPDEST POP PUSH2 0x3E1D SWAP2 POP PUSH2 0x395F JUMP JUMPDEST PUSH2 0x3E26 DUP6 PUSH2 0x5123 JUMP JUMPDEST SWAP4 PUSH1 0x1 PUSH1 0x1 PUSH1 0xA0 SHL SUB SWAP1 DUP2 PUSH2 0x3E3A DUP9 PUSH2 0x5123 JUMP JUMPDEST PUSH1 0x40 DUP1 MLOAD PUSH4 0x6EB1769F PUSH1 0xE1 SHL DUP2 MSTORE PUSH1 0x1 PUSH1 0x1 PUSH1 0xA0 SHL SUB DUP6 AND DUP8 DUP3 ADD SWAP1 DUP2 MSTORE ADDRESS PUSH1 0x20 DUP1 DUP4 ADD SWAP2 SWAP1 SWAP2 MSTORE SWAP11 SWAP5 SWAP2 SWAP4 DUP12 SWAP4 DUP6 SWAP4 SWAP3 DUP5 SWAP1 SUB ADD SWAP2 DUP4 SWAP2 AND GAS STATICCALL DUP1 ISZERO PUSH2 0xE30 JUMPI DUP8 SWAP2 PUSH1 0x0 SWAP2 PUSH2 0x3F96 JUMPI JUMPDEST POP LT PUSH2 0x3F59 JUMPI DUP3 SWAP2 PUSH1 0x0 DUP9 SWAP5 PUSH1 0x64 SWAP4 PUSH1 0x40 MLOAD SWAP8 DUP9 SWAP7 DUP8 SWAP6 PUSH4 0x23B872DD PUSH1 0xE0 SHL DUP8 MSTORE AND SWAP1 DUP6 ADD MSTORE ADDRESS PUSH1 0x24 DUP6 ADD MSTORE DUP10 PUSH1 0x44 DUP6 ADD MSTORE AND GAS CALL SWAP1 DUP2 ISZERO PUSH2 0xE30 JUMPI PUSH1 0x0 SWAP2 PUSH2 0x3EFD JUMPI JUMPDEST POP PUSH32 0x68FFD6AD89C76C56B0B5206AE0C1A14CBFFB37023D4E80F635FF7397C56B116B SWAP4 POP PUSH2 0x3EF6 SWAP1 PUSH2 0x50E5 JUMP JUMPDEST CODESIZE DUP1 PUSH2 0x3DBE JUMP JUMPDEST SWAP2 SWAP3 SWAP4 DUP3 DUP2 RETURNDATASIZE DUP4 GT PUSH2 0x3F52 JUMPI JUMPDEST PUSH2 0x3F14 DUP2 DUP4 PUSH2 0x32AF JUMP JUMPDEST DUP2 ADD SUB SLT PUSH2 0x3A8A JUMPI POP SWAP1 PUSH2 0x3EF6 PUSH2 0x3F4C PUSH32 0x68FFD6AD89C76C56B0B5206AE0C1A14CBFFB37023D4E80F635FF7397C56B116B SWAP5 SWAP4 PUSH2 0x3734 JUMP JUMPDEST SWAP1 PUSH2 0x3EC9 JUMP JUMPDEST POP RETURNDATASIZE PUSH2 0x3F0A JUMP JUMPDEST PUSH1 0x40 MLOAD PUSH3 0x461BCD PUSH1 0xE5 SHL DUP2 MSTORE DUP1 DUP6 ADD DUP9 SWAP1 MSTORE PUSH1 0x16 PUSH1 0x24 DUP3 ADD MSTORE PUSH22 0x494E53554646494349454E545F414C4C4F57414E4345 PUSH1 0x50 SHL PUSH1 0x44 DUP3 ADD MSTORE PUSH1 0x64 SWAP1 REVERT JUMPDEST SWAP2 POP DUP9 DUP3 DUP2 RETURNDATASIZE DUP4 GT PUSH2 0x3FBF JUMPI JUMPDEST PUSH2 0x3FAD DUP2 DUP4 PUSH2 0x32AF JUMP JUMPDEST DUP2 ADD SUB SLT PUSH2 0x3A8A JUMPI POP DUP7 SWAP1 MLOAD CODESIZE PUSH2 0x3E85 JUMP JUMPDEST POP RETURNDATASIZE PUSH2 0x3FA3 JUMP JUMPDEST SWAP1 POP PUSH2 0x3FD6 JUMPI PUSH2 0x3E1D SWAP1 CODESIZE PUSH2 0x3E12 JUMP JUMPDEST PUSH1 0x21 DUP3 PUSH4 0x4E487B71 PUSH1 0xE0 SHL PUSH1 0x0 MSTORE MSTORE PUSH1 0x24 PUSH1 0x0 REVERT JUMPDEST PUSH1 0x2 DUP9 EQ SWAP2 POP PUSH2 0x3E0B JUMP JUMPDEST PUSH1 0x21 SWAP1 PUSH4 0x4E487B71 PUSH1 0xE0 SHL PUSH1 0x0 MSTORE MSTORE PUSH1 0x24 PUSH1 0x0 REVERT JUMPDEST PUSH1 0x64 SWAP1 PUSH1 0x20 PUSH1 0x40 MLOAD SWAP2 PUSH3 0x461BCD PUSH1 0xE5 SHL DUP4 MSTORE DUP3 ADD MSTORE PUSH1 0xE PUSH1 0x24 DUP3 ADD MSTORE PUSH14 0x14D51052D157D491545552549151 PUSH1 0x92 SHL PUSH1 0x44 DUP3 ADD MSTORE REVERT JUMPDEST PUSH1 0x3 SWAP2 POP EQ ISZERO CODESIZE PUSH2 0x3DA0 JUMP JUMPDEST RETURNDATASIZE ISZERO PUSH2 0x4077 JUMPI RETURNDATASIZE SWAP1 PUSH2 0x405D DUP3 PUSH2 0x3622 JUMP JUMPDEST SWAP2 PUSH2 0x406B PUSH1 0x40 MLOAD SWAP4 DUP5 PUSH2 0x32AF JUMP JUMPDEST DUP3 MSTORE RETURNDATASIZE PUSH1 0x0 PUSH1 0x20 DUP5 ADD RETURNDATACOPY JUMP JUMPDEST PUSH1 0x60 SWAP1 JUMP JUMPDEST ISZERO PUSH2 0x4083 JUMPI JUMP JUMPDEST PUSH1 0x40 MLOAD PUSH3 0x461BCD PUSH1 0xE5 SHL DUP2 MSTORE PUSH1 0x20 PUSH1 0x4 DUP3 ADD MSTORE PUSH1 0xB PUSH1 0x24 DUP3 ADD MSTORE PUSH11 0x10D0531317D19052531151 PUSH1 0xAA SHL PUSH1 0x44 DUP3 ADD MSTORE PUSH1 0x64 SWAP1 REVERT JUMPDEST SWAP2 SWAP1 PUSH2 0x40C3 DUP3 DUP3 DUP6 PUSH2 0x3C8E JUMP JUMPDEST PUSH1 0x15 SLOAD PUSH1 0x40 DUP1 MLOAD PUSH4 0x2EE4B68B PUSH1 0xE1 SHL DUP2 MSTORE SWAP3 SWAP6 SWAP1 SWAP3 SWAP2 PUSH1 0x20 SWAP2 PUSH1 0x1 PUSH1 0x1 PUSH1 0xA0 SHL SUB SWAP2 PUSH1 0x4 SWAP2 SWAP1 DUP4 AND DUP5 DUP7 DUP5 DUP2 DUP5 GAS STATICCALL SWAP6 DUP7 ISZERO PUSH2 0x4358 JUMPI PUSH1 0x0 SWAP7 PUSH2 0x4363 JUMPI JUMPDEST POP DUP5 DUP4 SWAP2 DUP9 MLOAD SWAP3 DUP4 DUP1 SWAP3 PUSH4 0x18DA0011 PUSH1 0xE0 SHL DUP3 MSTORE GAS STATICCALL SWAP1 DUP2 ISZERO PUSH2 0x4358 JUMPI SWAP1 DUP5 SWAP2 PUSH1 0x0 SWAP2 PUSH2 0x4321 JUMPI JUMPDEST POP AND SWAP5 PUSH2 0x42C5 JUMPI PUSH1 0x3 DUP2 LT ISZERO PUSH2 0x3FD6 JUMPI DUP1 PUSH2 0x418B JUMPI POP POP POP POP DUP4 SWAP3 SWAP2 PUSH2 0x416B PUSH1 0x0 DUP1 DUP1 DUP1 PUSH1 0x0 DUP1 MLOAD PUSH1 0x20 PUSH2 0x531A DUP4 CODECOPY DUP2 MLOAD SWAP2 MSTORE SWAP10 PUSH2 0x3C7B SWAP8 GAS CALL PUSH2 0x1645 PUSH2 0x404C JUMP JUMPDEST MLOAD PUSH1 0x1 PUSH1 0x1 PUSH1 0xA0 SHL SUB SWAP1 SWAP3 AND DUP3 MSTORE PUSH1 0x20 DUP3 ADD SWAP3 SWAP1 SWAP3 MSTORE SWAP1 DUP2 SWAP1 PUSH1 0x40 DUP3 ADD SWAP1 JUMP JUMPDEST SWAP1 DUP4 SWAP5 DUP9 SWAP3 PUSH1 0x0 SWAP6 SWAP5 SWAP6 PUSH1 0x1 DUP3 EQ SWAP1 DUP2 ISZERO PUSH2 0x42BA JUMPI JUMPDEST DUP2 ISZERO PUSH2 0x4289 JUMPI JUMPDEST POP SWAP6 PUSH2 0x41C1 PUSH1 0x0 SWAP3 PUSH2 0x41BC PUSH2 0x41F2 SWAP10 PUSH2 0x395F JUMP JUMPDEST PUSH2 0x5123 JUMP JUMPDEST AND SWAP3 DUP9 MLOAD SWAP7 DUP8 SWAP6 DUP7 SWAP5 DUP6 SWAP4 PUSH4 0xA9059CBB PUSH1 0xE0 SHL DUP6 MSTORE DUP5 ADD PUSH1 0x20 SWAP1 SWAP4 SWAP3 SWAP2 SWAP4 PUSH1 0x40 DUP2 ADD SWAP5 PUSH1 0x1 DUP1 PUSH1 0xA0 SHL SUB AND DUP2 MSTORE ADD MSTORE JUMP JUMPDEST SUB SWAP3 GAS CALL SWAP2 DUP3 ISZERO PUSH2 0x427E JUMPI PUSH1 0x0 SWAP3 PUSH2 0x422A JUMPI JUMPDEST POP POP PUSH1 0x0 DUP1 MLOAD PUSH1 0x20 PUSH2 0x531A DUP4 CODECOPY DUP2 MLOAD SWAP2 MSTORE SWAP4 SWAP3 SWAP2 PUSH2 0x4225 PUSH2 0x3C7B SWAP3 PUSH2 0x50E5 JUMP JUMPDEST PUSH2 0x416B JUMP JUMPDEST DUP2 DUP2 SWAP4 SWAP3 SWAP4 RETURNDATASIZE DUP4 GT PUSH2 0x4277 JUMPI JUMPDEST PUSH2 0x4241 DUP2 DUP4 PUSH2 0x32AF JUMP JUMPDEST DUP2 ADD SUB SLT PUSH2 0x3A8A JUMPI POP PUSH1 0x0 DUP1 MLOAD PUSH1 0x20 PUSH2 0x531A DUP4 CODECOPY DUP2 MLOAD SWAP2 MSTORE SWAP4 SWAP3 SWAP2 PUSH2 0x4225 PUSH2 0x426B PUSH2 0x3C7B SWAP4 PUSH2 0x3734 JUMP JUMPDEST SWAP3 POP DUP2 SWAP4 SWAP5 SWAP6 POP PUSH2 0x4205 JUMP JUMPDEST POP RETURNDATASIZE PUSH2 0x4237 JUMP JUMPDEST DUP4 MLOAD RETURNDATASIZE PUSH1 0x0 DUP3 RETURNDATACOPY RETURNDATASIZE SWAP1 REVERT JUMPDEST SWAP3 SWAP6 POP POP SWAP2 SWAP5 SWAP3 POP PUSH2 0x42A5 JUMPI SWAP1 SWAP3 DUP5 SWAP3 DUP9 SWAP3 PUSH1 0x0 PUSH2 0x41C1 PUSH2 0x41A8 JUMP JUMPDEST PUSH1 0x21 DUP5 PUSH4 0x4E487B71 PUSH1 0xE0 SHL PUSH1 0x0 MSTORE MSTORE PUSH1 0x24 PUSH1 0x0 REVERT JUMPDEST PUSH1 0x2 DUP4 EQ SWAP2 POP PUSH2 0x41A1 JUMP JUMPDEST SWAP4 POP SWAP2 POP POP PUSH1 0x3 DUP3 LT ISZERO PUSH2 0x3FF6 JUMPI POP PUSH1 0x0 DUP1 MLOAD PUSH1 0x20 PUSH2 0x531A DUP4 CODECOPY DUP2 MLOAD SWAP2 MSTORE SWAP4 SWAP3 SWAP2 PUSH2 0x3C7B SWAP2 PUSH1 0x2 DUP2 SUB PUSH2 0x4302 JUMPI POP PUSH2 0x42FC DUP5 PUSH2 0x43B8 JUMP JUMPDEST POP PUSH2 0x416B JUMP JUMPDEST PUSH1 0x1 DUP2 SUB PUSH2 0x4314 JUMPI POP PUSH2 0x42FC DUP5 PUSH2 0x4E6A JUMP JUMPDEST PUSH2 0x4225 JUMPI PUSH2 0x42FC DUP5 PUSH2 0x484F JUMP JUMPDEST SWAP2 POP DUP6 DUP3 DUP2 RETURNDATASIZE DUP4 GT PUSH2 0x4351 JUMPI JUMPDEST PUSH2 0x4338 DUP2 DUP4 PUSH2 0x32AF JUMP JUMPDEST DUP2 ADD SUB SLT PUSH2 0x3A8A JUMPI POP PUSH2 0x434B DUP5 SWAP2 PUSH2 0x3999 JUMP JUMPDEST CODESIZE PUSH2 0x4129 JUMP JUMPDEST POP RETURNDATASIZE PUSH2 0x432E JUMP JUMPDEST DUP8 MLOAD RETURNDATASIZE PUSH1 0x0 DUP3 RETURNDATACOPY RETURNDATASIZE SWAP1 REVERT JUMPDEST SWAP1 SWAP6 DUP6 DUP3 DUP2 RETURNDATASIZE DUP4 GT PUSH2 0x4396 JUMPI JUMPDEST PUSH2 0x437A DUP2 DUP4 PUSH2 0x32AF JUMP JUMPDEST DUP2 ADD SUB SLT PUSH2 0x3A8A JUMPI POP DUP5 PUSH2 0x438E DUP5 SWAP3 PUSH2 0x3734 JUMP JUMPDEST SWAP7 SWAP2 POP PUSH2 0x4101 JUMP JUMPDEST POP RETURNDATASIZE PUSH2 0x4370 JUMP JUMPDEST SWAP1 DUP2 PUSH1 0x20 SWAP2 SUB SLT PUSH2 0x150 JUMPI MLOAD PUSH3 0xFFFFFF DUP2 AND DUP2 SUB PUSH2 0x150 JUMPI SWAP1 JUMP JUMPDEST PUSH1 0x15 SLOAD PUSH1 0x40 DUP1 MLOAD PUSH4 0x5F117AA3 PUSH1 0xE1 SHL DUP1 DUP3 MSTORE SWAP1 SWAP5 SWAP4 PUSH1 0x1 PUSH1 0x1 PUSH1 0xA0 SHL SUB SWAP4 PUSH1 0x20 SWAP4 SWAP3 PUSH1 0x4 SWAP2 DUP6 SWAP1 DUP10 SWAP1 DUP5 SWAP1 DUP3 SWAP1 DUP11 AND GAS STATICCALL SWAP8 DUP9 ISZERO PUSH2 0x4844 JUMPI PUSH1 0x0 SWAP9 PUSH2 0x480D JUMPI JUMPDEST POP PUSH1 0x16 SLOAD DUP5 MLOAD PUSH4 0x95EA7B3 PUSH1 0xE0 SHL DUP1 DUP3 MSTORE SWAP2 DUP9 AND PUSH1 0x1 PUSH1 0x1 PUSH1 0xA0 SHL SUB AND DUP5 DUP3 ADD SWAP1 DUP2 MSTORE PUSH1 0x20 DUP2 ADD DUP7 SWAP1 MSTORE SWAP2 SWAP10 SWAP1 SWAP2 DUP8 SWAP2 DUP4 SWAP2 DUP3 SWAP1 DUP12 SWAP1 DUP3 SWAP1 PUSH1 0x40 ADD SUB SWAP3 AND GAS SWAP1 PUSH1 0x0 SWAP2 CALL DUP1 ISZERO PUSH2 0x465E JUMPI PUSH2 0x47D9 JUMPI JUMPDEST POP DUP6 PUSH1 0x15 SLOAD AND SWAP3 DUP5 MLOAD SWAP2 DUP3 MSTORE DUP6 DUP3 DUP5 DUP2 DUP8 GAS STATICCALL SWAP2 DUP3 ISZERO PUSH2 0x465E JUMPI PUSH1 0x0 SWAP3 PUSH2 0x47A2 JUMPI JUMPDEST POP DUP5 MLOAD PUSH4 0x25ABD85F PUSH1 0xE1 SHL DUP1 DUP3 MSTORE SWAP3 SWAP1 DUP8 DUP2 DUP7 DUP2 DUP10 GAS STATICCALL SWAP1 DUP2 ISZERO PUSH2 0x4358 JUMPI PUSH1 0x0 SWAP2 PUSH2 0x476D JUMPI JUMPDEST POP DUP7 MLOAD SWAP2 DUP9 DUP4 PUSH1 0x24 DUP2 PUSH4 0x3488E959 PUSH1 0xE2 SHL SWAP11 DUP12 DUP3 MSTORE PUSH1 0x0 DUP12 DUP4 ADD MSTORE GAS STATICCALL SWAP3 DUP4 ISZERO PUSH2 0x4715 JUMPI SWAP1 PUSH2 0x44C9 SWAP5 SWAP4 SWAP3 SWAP2 PUSH1 0x0 SWAP4 PUSH2 0x4755 JUMPI JUMPDEST POP PUSH2 0x4C59 JUMP JUMPDEST SWAP1 DUP7 PUSH1 0x15 SLOAD AND SWAP1 DUP6 MLOAD SWAP1 DUP2 MSTORE DUP7 DUP2 DUP6 DUP2 DUP6 GAS STATICCALL SWAP1 DUP2 ISZERO PUSH2 0x46A2 JUMPI PUSH1 0x0 SWAP2 PUSH2 0x4720 JUMPI JUMPDEST POP DUP6 MLOAD SWAP1 PUSH4 0xF77800E5 PUSH1 0xE0 SHL SWAP6 DUP7 DUP4 MSTORE DUP9 DUP4 DUP8 DUP2 DUP8 GAS STATICCALL SWAP3 DUP4 ISZERO PUSH2 0x4715 JUMPI SWAP1 DUP10 SWAP2 PUSH1 0x0 SWAP5 PUSH2 0x46DC JUMPI JUMPDEST POP PUSH1 0x24 DUP10 MLOAD DUP1 SWAP7 DUP2 SWAP4 DUP3 MSTORE PUSH1 0x1 DUP11 DUP4 ADD MSTORE GAS STATICCALL SWAP3 DUP4 ISZERO PUSH2 0x4358 JUMPI SWAP1 PUSH2 0x4543 SWAP5 SWAP4 SWAP3 SWAP2 PUSH1 0x0 SWAP4 PUSH2 0x46AD JUMPI POP PUSH2 0x4C59 JUMP JUMPDEST SWAP5 DUP1 PUSH1 0x15 SLOAD AND SWAP8 DUP5 MLOAD SWAP4 DUP1 DUP6 MSTORE DUP7 DUP6 DUP6 DUP2 DUP14 GAS STATICCALL SWAP5 DUP6 ISZERO PUSH2 0x46A2 JUMPI SWAP1 DUP8 SWAP2 PUSH1 0x0 SWAP7 PUSH2 0x4669 JUMPI JUMPDEST POP DUP5 DUP8 MLOAD DUP1 SWAP13 DUP2 SWAP4 DUP3 MSTORE GAS STATICCALL SWAP9 DUP10 ISZERO PUSH2 0x465E JUMPI PUSH1 0x0 SWAP10 PUSH2 0x4617 JUMPI JUMPDEST POP DUP5 MLOAD SWAP1 DUP2 MSTORE PUSH1 0x1 PUSH1 0x1 PUSH1 0xA0 SHL SUB SWAP9 SWAP1 SWAP9 AND SWAP2 DUP9 ADD SWAP2 DUP3 MSTORE PUSH1 0x20 DUP3 ADD DUP7 SWAP1 MSTORE SWAP6 SWAP7 SWAP6 DUP5 SWAP3 DUP8 SWAP3 DUP4 SWAP1 SUB PUSH1 0x40 ADD SWAP2 DUP4 SWAP2 PUSH1 0x0 SWAP2 AND GAS CALL SWAP1 DUP2 ISZERO PUSH2 0x460D JUMPI POP PUSH2 0x45D7 JUMPI JUMPDEST POP PUSH2 0x45D1 SWAP2 POP PUSH2 0x4E6A JUMP JUMPDEST POP PUSH1 0x1 SWAP1 JUMP JUMPDEST DUP3 DUP2 RETURNDATASIZE DUP4 GT PUSH2 0x4606 JUMPI JUMPDEST PUSH2 0x45EB DUP2 DUP4 PUSH2 0x32AF JUMP JUMPDEST DUP2 ADD SUB SLT PUSH2 0x150 JUMPI PUSH2 0x45FF PUSH2 0x45D1 SWAP3 PUSH2 0x3734 JUMP JUMPDEST POP CODESIZE PUSH2 0x45C6 JUMP JUMPDEST POP RETURNDATASIZE PUSH2 0x45E1 JUMP JUMPDEST MLOAD RETURNDATASIZE PUSH1 0x0 DUP3 RETURNDATACOPY RETURNDATASIZE SWAP1 REVERT JUMPDEST SWAP1 SWAP9 DUP7 DUP3 DUP2 RETURNDATASIZE DUP4 GT PUSH2 0x4657 JUMPI JUMPDEST PUSH2 0x462E DUP2 DUP4 PUSH2 0x32AF JUMP JUMPDEST DUP2 ADD SUB SLT PUSH2 0x3A8A JUMPI POP SWAP2 PUSH1 0x0 DUP7 SWAP5 SWAP3 PUSH2 0x4649 DUP10 SWAP11 SWAP12 SWAP6 PUSH2 0x3999 JUMP JUMPDEST SWAP11 SWAP10 POP SWAP3 SWAP5 POP SWAP3 SWAP1 SWAP3 PUSH2 0x4584 JUMP JUMPDEST POP RETURNDATASIZE PUSH2 0x4624 JUMP JUMPDEST DUP6 MLOAD RETURNDATASIZE PUSH1 0x0 DUP3 RETURNDATACOPY RETURNDATASIZE SWAP1 REVERT JUMPDEST SWAP2 DUP3 DUP2 SWAP8 SWAP3 SWAP8 RETURNDATASIZE DUP4 GT PUSH2 0x469B JUMPI JUMPDEST PUSH2 0x4681 DUP2 DUP4 PUSH2 0x32AF JUMP JUMPDEST DUP2 ADD SUB SLT PUSH2 0x3A8A JUMPI POP PUSH2 0x4694 DUP8 SWAP2 PUSH2 0x3999 JUMP JUMPDEST SWAP5 CODESIZE PUSH2 0x4569 JUMP JUMPDEST POP RETURNDATASIZE PUSH2 0x4677 JUMP JUMPDEST DUP7 MLOAD RETURNDATASIZE PUSH1 0x0 DUP3 RETURNDATACOPY RETURNDATASIZE SWAP1 REVERT JUMPDEST PUSH2 0x46CE SWAP2 SWAP4 POP DUP10 RETURNDATASIZE DUP12 GT PUSH2 0x46D5 JUMPI JUMPDEST PUSH2 0x46C6 DUP2 DUP4 PUSH2 0x32AF JUMP JUMPDEST DUP2 ADD SWAP1 PUSH2 0x439D JUMP JUMPDEST SWAP2 CODESIZE PUSH2 0x44C3 JUMP JUMPDEST POP RETURNDATASIZE PUSH2 0x46BC JUMP JUMPDEST SWAP2 DUP3 DUP2 SWAP6 SWAP3 SWAP6 RETURNDATASIZE DUP4 GT PUSH2 0x470E JUMPI JUMPDEST PUSH2 0x46F4 DUP2 DUP4 PUSH2 0x32AF JUMP JUMPDEST DUP2 ADD SUB SLT PUSH2 0x3A8A JUMPI POP PUSH2 0x4707 DUP10 SWAP2 PUSH2 0x3999 JUMP JUMPDEST SWAP3 CODESIZE PUSH2 0x4514 JUMP JUMPDEST POP RETURNDATASIZE PUSH2 0x46EA JUMP JUMPDEST DUP9 MLOAD RETURNDATASIZE PUSH1 0x0 DUP3 RETURNDATACOPY RETURNDATASIZE SWAP1 REVERT JUMPDEST SWAP1 DUP8 DUP3 DUP2 RETURNDATASIZE DUP4 GT PUSH2 0x474E JUMPI JUMPDEST PUSH2 0x4736 DUP2 DUP4 PUSH2 0x32AF JUMP JUMPDEST DUP2 ADD SUB SLT PUSH2 0x3A8A JUMPI POP PUSH2 0x4748 SWAP1 PUSH2 0x3999 JUMP JUMPDEST CODESIZE PUSH2 0x44EB JUMP JUMPDEST POP RETURNDATASIZE PUSH2 0x472C JUMP JUMPDEST PUSH2 0x46CE SWAP2 SWAP4 POP DUP11 RETURNDATASIZE DUP13 GT PUSH2 0x46D5 JUMPI PUSH2 0x46C6 DUP2 DUP4 PUSH2 0x32AF JUMP JUMPDEST SWAP1 DUP9 DUP3 DUP2 RETURNDATASIZE DUP4 GT PUSH2 0x479B JUMPI JUMPDEST PUSH2 0x4783 DUP2 DUP4 PUSH2 0x32AF JUMP JUMPDEST DUP2 ADD SUB SLT PUSH2 0x3A8A JUMPI POP PUSH2 0x4795 SWAP1 PUSH2 0x3999 JUMP JUMPDEST CODESIZE PUSH2 0x448F JUMP JUMPDEST POP RETURNDATASIZE PUSH2 0x4779 JUMP JUMPDEST SWAP1 SWAP2 DUP7 DUP3 DUP2 RETURNDATASIZE DUP4 GT PUSH2 0x47D2 JUMPI JUMPDEST PUSH2 0x47B9 DUP2 DUP4 PUSH2 0x32AF JUMP JUMPDEST DUP2 ADD SUB SLT PUSH2 0x3A8A JUMPI POP PUSH2 0x47CB SWAP1 PUSH2 0x3999 JUMP JUMPDEST SWAP1 CODESIZE PUSH2 0x4469 JUMP JUMPDEST POP RETURNDATASIZE PUSH2 0x47AF JUMP JUMPDEST DUP6 DUP2 DUP2 RETURNDATASIZE DUP4 GT PUSH2 0x4806 JUMPI JUMPDEST PUSH2 0x47EE DUP2 DUP4 PUSH2 0x32AF JUMP JUMPDEST DUP2 ADD SUB SLT PUSH2 0x150 JUMPI PUSH2 0x47FF SWAP1 PUSH2 0x3734 JUMP JUMPDEST POP CODESIZE PUSH2 0x4447 JUMP JUMPDEST POP RETURNDATASIZE PUSH2 0x47E4 JUMP JUMPDEST SWAP1 SWAP8 DUP6 DUP3 DUP2 RETURNDATASIZE DUP4 GT PUSH2 0x483D JUMPI JUMPDEST PUSH2 0x4824 DUP2 DUP4 PUSH2 0x32AF JUMP JUMPDEST DUP2 ADD SUB SLT PUSH2 0x3A8A JUMPI POP PUSH2 0x4836 SWAP1 PUSH2 0x3999 JUMP JUMPDEST SWAP7 CODESIZE PUSH2 0x43F8 JUMP JUMPDEST POP RETURNDATASIZE PUSH2 0x481A JUMP JUMPDEST DUP5 MLOAD RETURNDATASIZE PUSH1 0x0 DUP3 RETURNDATACOPY RETURNDATASIZE SWAP1 REVERT JUMPDEST SWAP1 PUSH1 0x15 SLOAD SWAP2 PUSH1 0x0 PUSH1 0x40 SWAP2 DUP3 MLOAD SWAP3 PUSH4 0x25ABD85F PUSH1 0xE1 SHL SWAP6 DUP7 DUP6 MSTORE PUSH1 0x20 SWAP3 PUSH1 0x4 SWAP6 DUP5 DUP2 DUP9 DUP2 PUSH1 0x1 DUP1 PUSH1 0xA0 SHL SUB DUP1 SWAP8 AND GAS STATICCALL SWAP1 DUP2 ISZERO PUSH2 0x4C04 JUMPI SWAP1 DUP4 SWAP2 DUP8 SWAP2 PUSH2 0x4C21 JUMPI JUMPDEST POP AND DUP1 EXTCODESIZE ISZERO PUSH2 0x4BF9 JUMPI DUP6 DUP3 SWAP2 DUP9 DUP7 MLOAD DUP1 SWAP5 DUP2 SWAP4 PUSH4 0xD0E30DB PUSH1 0xE4 SHL DUP4 MSTORE GAS CALL DUP1 ISZERO PUSH2 0x4C04 JUMPI SWAP1 DUP8 SWAP4 SWAP3 SWAP2 PUSH2 0x4C0E JUMPI JUMPDEST POP DUP5 DUP3 PUSH1 0x15 SLOAD AND DUP6 MLOAD SWAP9 DUP10 DUP1 SWAP3 DUP14 DUP3 MSTORE GAS STATICCALL SWAP7 DUP8 ISZERO PUSH2 0x4C04 JUMPI DUP7 SWAP8 PUSH2 0x4BC9 JUMPI JUMPDEST POP PUSH1 0x16 SLOAD DUP5 MLOAD PUSH4 0x95EA7B3 PUSH1 0xE0 SHL DUP1 DUP3 MSTORE SWAP2 DUP5 AND PUSH1 0x1 PUSH1 0x1 PUSH1 0xA0 SHL SUB AND DUP6 DUP3 ADD SWAP1 DUP2 MSTORE PUSH1 0x20 DUP2 ADD DUP5 SWAP1 MSTORE SWAP2 SWAP9 SWAP1 SWAP2 DUP8 SWAP2 DUP4 SWAP2 DUP3 SWAP1 DUP12 SWAP1 DUP9 SWAP1 DUP4 SWAP1 PUSH1 0x40 ADD SUB SWAP4 AND GAS CALL DUP1 ISZERO PUSH2 0x4AC5 JUMPI PUSH2 0x4B95 JUMPI JUMPDEST POP DUP2 PUSH1 0x15 SLOAD AND DUP5 MLOAD SWAP10 DUP11 MSTORE DUP6 DUP11 DUP6 DUP2 DUP5 GAS STATICCALL SWAP10 DUP11 ISZERO PUSH2 0x4AC5 JUMPI DUP8 SWAP11 PUSH2 0x4B5E JUMPI JUMPDEST POP DUP5 MLOAD PUSH4 0xF77800E5 PUSH1 0xE0 SHL DUP1 DUP3 MSTORE SWAP11 DUP8 DUP3 DUP8 DUP2 DUP7 GAS STATICCALL SWAP2 DUP3 ISZERO PUSH2 0x4B15 JUMPI DUP9 SWAP1 DUP11 SWAP4 PUSH2 0x4B1F JUMPI JUMPDEST POP DUP8 MLOAD PUSH4 0x3488E959 PUSH1 0xE2 SHL DUP2 MSTORE PUSH1 0x1 DUP9 DUP3 ADD MSTORE SWAP4 DUP5 SWAP1 PUSH1 0x24 SWAP1 DUP3 SWAP1 GAS STATICCALL SWAP3 DUP4 ISZERO PUSH2 0x4B15 JUMPI SWAP2 PUSH2 0x49AB SWAP4 SWAP2 DUP8 SWAP7 SWAP6 SWAP4 DUP12 SWAP4 PUSH2 0x4755 JUMPI POP PUSH2 0x4C59 JUMP JUMPDEST SWAP7 DUP2 PUSH1 0x15 SLOAD AND SWAP10 DUP7 DUP12 DUP8 MLOAD SWAP7 DUP8 DUP1 SWAP3 DUP6 DUP3 MSTORE GAS STATICCALL SWAP5 DUP6 ISZERO PUSH2 0x4B0B JUMPI SWAP1 DUP8 SWAP2 DUP10 SWAP7 PUSH2 0x4ACF JUMPI JUMPDEST POP DUP5 DUP8 MLOAD DUP1 SWAP14 DUP2 SWAP4 DUP3 MSTORE GAS STATICCALL SWAP10 DUP11 ISZERO PUSH2 0x4AC5 JUMPI DUP8 SWAP11 PUSH2 0x4A7B JUMPI JUMPDEST POP DUP5 MLOAD SWAP1 DUP2 MSTORE PUSH1 0x1 PUSH1 0x1 PUSH1 0xA0 SHL SUB SWAP10 SWAP1 SWAP10 AND SWAP2 DUP10 ADD SWAP2 DUP3 MSTORE PUSH1 0x20 DUP3 ADD DUP8 SWAP1 MSTORE SWAP7 SWAP8 SWAP6 SWAP7 DUP5 SWAP3 DUP8 SWAP3 DUP4 SWAP1 SUB PUSH1 0x40 ADD SWAP2 DUP4 SWAP2 DUP9 SWAP2 AND GAS CALL SWAP1 DUP2 ISZERO PUSH2 0x4A72 JUMPI POP PUSH2 0x4A38 JUMPI JUMPDEST POP POP POP PUSH2 0x45D1 SWAP1 PUSH2 0x4E6A JUMP JUMPDEST DUP3 DUP2 RETURNDATASIZE DUP4 GT PUSH2 0x4A6B JUMPI JUMPDEST PUSH2 0x4A4C DUP2 DUP4 PUSH2 0x32AF JUMP JUMPDEST DUP2 ADD SUB SLT PUSH2 0x3A8A JUMPI POP SWAP1 PUSH2 0x4A62 PUSH2 0x45D1 SWAP3 PUSH2 0x3734 JUMP JUMPDEST POP SWAP1 CODESIZE DUP1 PUSH2 0x4A2C JUMP JUMPDEST POP RETURNDATASIZE PUSH2 0x4A42 JUMP JUMPDEST MLOAD RETURNDATASIZE DUP5 DUP3 RETURNDATACOPY RETURNDATASIZE SWAP1 REVERT JUMPDEST SWAP1 SWAP10 POP DUP6 DUP2 DUP2 RETURNDATASIZE DUP4 GT PUSH2 0x4ABE JUMPI JUMPDEST PUSH2 0x4A93 DUP2 DUP4 PUSH2 0x32AF JUMP JUMPDEST DUP2 ADD SUB SLT PUSH2 0x4ABA JUMPI SWAP2 DUP7 DUP7 SWAP5 SWAP3 PUSH2 0x4AAC DUP11 SWAP12 SWAP13 SWAP6 PUSH2 0x3999 JUMP JUMPDEST SWAP12 SWAP11 POP SWAP3 SWAP5 POP SWAP3 SWAP1 SWAP3 PUSH2 0x49EA JUMP JUMPDEST DUP7 DUP1 REVERT JUMPDEST POP RETURNDATASIZE PUSH2 0x4A89 JUMP JUMPDEST DUP6 MLOAD RETURNDATASIZE DUP10 DUP3 RETURNDATACOPY RETURNDATASIZE SWAP1 REVERT JUMPDEST DUP3 DUP2 SWAP4 SWAP3 SWAP8 POP RETURNDATASIZE DUP4 GT PUSH2 0x4B04 JUMPI JUMPDEST PUSH2 0x4AE7 DUP2 DUP4 PUSH2 0x32AF JUMP JUMPDEST DUP2 ADD SUB SLT PUSH2 0x4B00 JUMPI PUSH2 0x4AF9 DUP8 SWAP2 PUSH2 0x3999 JUMP JUMPDEST SWAP5 CODESIZE PUSH2 0x49D0 JUMP JUMPDEST DUP8 DUP1 REVERT JUMPDEST POP RETURNDATASIZE PUSH2 0x4ADD JUMP JUMPDEST DUP7 MLOAD RETURNDATASIZE DUP11 DUP3 RETURNDATACOPY RETURNDATASIZE SWAP1 REVERT JUMPDEST DUP8 MLOAD RETURNDATASIZE DUP12 DUP3 RETURNDATACOPY RETURNDATASIZE SWAP1 REVERT JUMPDEST DUP1 SWAP3 SWAP4 POP DUP2 RETURNDATASIZE DUP4 GT PUSH2 0x4B57 JUMPI JUMPDEST PUSH2 0x4B36 DUP2 DUP4 PUSH2 0x32AF JUMP JUMPDEST DUP2 ADD SUB SLT PUSH2 0x4B53 JUMPI SWAP1 DUP8 PUSH2 0x4B4C PUSH1 0x24 SWAP5 SWAP4 PUSH2 0x3999 JUMP JUMPDEST SWAP3 SWAP4 PUSH2 0x4971 JUMP JUMPDEST DUP9 DUP1 REVERT JUMPDEST POP RETURNDATASIZE PUSH2 0x4B2C JUMP JUMPDEST SWAP1 SWAP10 POP DUP6 DUP2 DUP2 RETURNDATASIZE DUP4 GT PUSH2 0x4B8E JUMPI JUMPDEST PUSH2 0x4B76 DUP2 DUP4 PUSH2 0x32AF JUMP JUMPDEST DUP2 ADD SUB SLT PUSH2 0x4ABA JUMPI PUSH2 0x4B87 SWAP1 PUSH2 0x3999 JUMP JUMPDEST SWAP9 CODESIZE PUSH2 0x494B JUMP JUMPDEST POP RETURNDATASIZE PUSH2 0x4B6C JUMP JUMPDEST DUP6 DUP2 DUP2 RETURNDATASIZE DUP4 GT PUSH2 0x4BC2 JUMPI JUMPDEST PUSH2 0x4BAA DUP2 DUP4 PUSH2 0x32AF JUMP JUMPDEST DUP2 ADD SUB SLT PUSH2 0x4ABA JUMPI PUSH2 0x4BBB SWAP1 PUSH2 0x3734 JUMP JUMPDEST POP CODESIZE PUSH2 0x492B JUMP JUMPDEST POP RETURNDATASIZE PUSH2 0x4BA0 JUMP JUMPDEST SWAP1 SWAP7 POP DUP5 DUP2 DUP2 RETURNDATASIZE DUP4 GT PUSH2 0x4BFD JUMPI JUMPDEST PUSH2 0x4BE1 DUP2 DUP4 PUSH2 0x32AF JUMP JUMPDEST DUP2 ADD SUB SLT PUSH2 0x4BF9 JUMPI PUSH2 0x4BF2 SWAP1 PUSH2 0x3999 JUMP JUMPDEST SWAP6 CODESIZE PUSH2 0x48DE JUMP JUMPDEST DUP6 DUP1 REVERT JUMPDEST POP RETURNDATASIZE PUSH2 0x4BD7 JUMP JUMPDEST DUP5 MLOAD RETURNDATASIZE DUP9 DUP3 RETURNDATACOPY RETURNDATASIZE SWAP1 REVERT JUMPDEST PUSH2 0x4C1A SWAP1 SWAP7 SWAP2 SWAP7 PUSH2 0x3281 JUMP JUMPDEST SWAP5 CODESIZE PUSH2 0x48BE JUMP JUMPDEST DUP1 SWAP3 POP DUP7 DUP1 SWAP3 POP RETURNDATASIZE DUP4 GT PUSH2 0x4C52 JUMPI JUMPDEST PUSH2 0x4C3A DUP2 DUP4 PUSH2 0x32AF JUMP JUMPDEST DUP2 ADD SUB SLT PUSH2 0x4BF9 JUMPI PUSH2 0x4C4C DUP4 SWAP2 PUSH2 0x3999 JUMP JUMPDEST CODESIZE PUSH2 0x488F JUMP JUMPDEST POP RETURNDATASIZE PUSH2 0x4C30 JUMP JUMPDEST PUSH1 0x16 SLOAD PUSH1 0x40 MLOAD PUSH4 0x6EB1769F PUSH1 0xE1 SHL DUP2 MSTORE ADDRESS PUSH1 0x4 DUP3 ADD MSTORE PUSH1 0x1 PUSH1 0x1 PUSH1 0xA0 SHL SUB SWAP2 DUP3 AND PUSH1 0x24 DUP3 ADD DUP2 SWAP1 MSTORE SWAP4 SWAP6 SWAP5 SWAP4 SWAP3 SWAP1 SWAP2 AND SWAP2 SWAP1 PUSH1 0x20 DUP2 PUSH1 0x44 DUP2 DUP7 GAS STATICCALL DUP1 ISZERO PUSH2 0xE30 JUMPI DUP6 SWAP2 PUSH1 0x0 SWAP2 PUSH2 0x4E35 JUMPI JUMPDEST POP LT PUSH2 0x4DC9 JUMPI JUMPDEST POP PUSH1 0x3C TIMESTAMP ADD SWAP4 DUP5 TIMESTAMP GT PUSH2 0x3BA9 JUMPI PUSH1 0x16 SLOAD PUSH1 0x40 MLOAD PUSH2 0x100 DUP2 ADD SWAP2 PUSH1 0x1 PUSH1 0x1 PUSH1 0xA0 SHL SUB AND SWAP1 PUSH1 0x1 PUSH1 0x1 PUSH1 0x40 SHL SUB DUP4 GT DUP2 DUP5 LT OR PUSH2 0x9DB JUMPI PUSH1 0x40 SWAP3 DUP4 MSTORE SWAP4 DUP5 MSTORE PUSH1 0x1 PUSH1 0x1 PUSH1 0xA0 SHL SUB SWAP3 DUP4 AND PUSH1 0x20 DUP6 DUP2 ADD SWAP2 DUP3 MSTORE PUSH3 0xFFFFFF SWAP7 DUP8 AND DUP7 DUP6 ADD SWAP1 DUP2 MSTORE ADDRESS PUSH1 0x60 DUP9 ADD SWAP1 DUP2 MSTORE PUSH1 0x80 DUP9 ADD SWAP11 DUP12 MSTORE PUSH1 0xA0 DUP9 ADD SWAP10 DUP11 MSTORE PUSH1 0x0 PUSH1 0xC0 DUP10 ADD DUP2 DUP2 MSTORE PUSH1 0xE0 DUP11 ADD DUP3 DUP2 MSTORE SWAP8 MLOAD PUSH4 0x414BF389 PUSH1 0xE0 SHL DUP2 MSTORE SWAP10 MLOAD DUP10 AND PUSH1 0x4 DUP12 ADD MSTORE SWAP5 MLOAD DUP9 AND PUSH1 0x24 DUP11 ADD MSTORE SWAP2 MLOAD SWAP1 SWAP9 AND PUSH1 0x44 DUP9 ADD MSTORE SWAP7 MLOAD DUP6 AND PUSH1 0x64 DUP8 ADD MSTORE SWAP8 MLOAD PUSH1 0x84 DUP7 ADD MSTORE SWAP6 MLOAD PUSH1 0xA4 DUP6 ADD MSTORE SWAP5 MLOAD PUSH1 0xC4 DUP5 ADD MSTORE MLOAD AND PUSH1 0xE4 DUP3 ADD MSTORE SWAP3 SWAP2 DUP4 SWAP2 PUSH2 0x104 SWAP2 DUP4 SWAP2 SWAP1 GAS CALL SWAP1 DUP2 ISZERO PUSH2 0xE30 JUMPI PUSH1 0x0 SWAP2 PUSH2 0x4D9A JUMPI POP SWAP1 JUMP JUMPDEST SWAP1 PUSH1 0x20 DUP3 RETURNDATASIZE PUSH1 0x20 GT PUSH2 0x4DC1 JUMPI JUMPDEST DUP2 PUSH2 0x4DB4 PUSH1 0x20 SWAP4 DUP4 PUSH2 0x32AF JUMP JUMPDEST DUP2 ADD SUB SLT PUSH2 0x3A8A JUMPI POP MLOAD SWAP1 JUMP JUMPDEST RETURNDATASIZE SWAP2 POP PUSH2 0x4DA7 JUMP JUMPDEST PUSH1 0x40 MLOAD PUSH4 0x95EA7B3 PUSH1 0xE0 SHL DUP2 MSTORE PUSH1 0x4 DUP2 ADD SWAP2 SWAP1 SWAP2 MSTORE PUSH1 0x0 NOT PUSH1 0x24 DUP3 ADD MSTORE PUSH1 0x20 DUP2 PUSH1 0x44 DUP2 PUSH1 0x0 DUP7 GAS CALL DUP1 ISZERO PUSH2 0xE30 JUMPI ISZERO PUSH2 0x4CAB JUMPI PUSH1 0x20 DUP2 RETURNDATASIZE PUSH1 0x20 GT PUSH2 0x4E2D JUMPI JUMPDEST DUP2 PUSH2 0x4E15 PUSH1 0x20 SWAP4 DUP4 PUSH2 0x32AF JUMP JUMPDEST DUP2 ADD SUB SLT PUSH2 0x150 JUMPI PUSH2 0x4E26 SWAP1 PUSH2 0x3734 JUMP JUMPDEST POP CODESIZE PUSH2 0x4CAB JUMP JUMPDEST RETURNDATASIZE SWAP2 POP PUSH2 0x4E08 JUMP JUMPDEST SWAP2 POP PUSH1 0x20 DUP3 RETURNDATASIZE PUSH1 0x20 GT PUSH2 0x4E62 JUMPI JUMPDEST DUP2 PUSH2 0x4E50 PUSH1 0x20 SWAP4 DUP4 PUSH2 0x32AF JUMP JUMPDEST DUP2 ADD SUB SLT PUSH2 0x3A8A JUMPI POP DUP5 SWAP1 MLOAD CODESIZE PUSH2 0x4CA4 JUMP JUMPDEST RETURNDATASIZE SWAP2 POP PUSH2 0x4E43 JUMP JUMPDEST PUSH1 0x15 SLOAD PUSH1 0x40 MLOAD PUSH4 0xF77800E5 PUSH1 0xE0 SHL DUP2 MSTORE PUSH1 0x1 PUSH1 0x1 PUSH1 0xA0 SHL SUB SWAP2 PUSH1 0x20 SWAP1 DUP3 SWAP1 PUSH1 0x4 SWAP1 DUP3 SWAP1 DUP7 AND GAS STATICCALL SWAP1 DUP2 ISZERO PUSH2 0xE30 JUMPI PUSH1 0x0 SWAP2 PUSH2 0x4EE9 JUMPI JUMPDEST POP AND SWAP1 DUP2 EXTCODESIZE ISZERO PUSH2 0x150 JUMPI PUSH1 0x0 SWAP2 PUSH1 0x24 DUP4 SWAP3 PUSH1 0x40 MLOAD SWAP5 DUP6 SWAP4 DUP5 SWAP3 PUSH4 0x852CD8D PUSH1 0xE3 SHL DUP5 MSTORE PUSH1 0x4 DUP5 ADD MSTORE GAS CALL DUP1 ISZERO PUSH2 0xE30 JUMPI PUSH2 0x4EDA JUMPI POP PUSH1 0x1 SWAP1 JUMP JUMPDEST PUSH2 0x4EE3 SWAP1 PUSH2 0x3281 JUMP JUMPDEST CODESIZE PUSH2 0x45D1 JUMP JUMPDEST SWAP1 PUSH1 0x20 DUP3 RETURNDATASIZE DUP3 GT PUSH2 0x4F1A JUMPI JUMPDEST DUP2 PUSH2 0x4F02 PUSH1 0x20 SWAP4 DUP4 PUSH2 0x32AF JUMP JUMPDEST DUP2 ADD SUB SLT PUSH2 0x3A8A JUMPI POP PUSH2 0x4F14 SWAP1 PUSH2 0x3999 JUMP JUMPDEST CODESIZE PUSH2 0x4EA0 JUMP JUMPDEST RETURNDATASIZE SWAP2 POP PUSH2 0x4EF5 JUMP JUMPDEST SWAP3 SWAP1 SWAP2 PUSH1 0xFF PUSH1 0x4 SLOAD AND PUSH1 0x8 DUP2 LT ISZERO PUSH2 0x1D7 JUMPI DUP1 PUSH1 0x2 PUSH2 0x4F49 SWAP3 EQ ISZERO SWAP1 DUP2 PUSH2 0x4040 JUMPI POP PUSH2 0x36B9 JUMP JUMPDEST PUSH1 0x3 DUP5 LT ISZERO PUSH2 0x1D7 JUMPI DUP4 PUSH2 0x4FB2 JUMPI PUSH1 0x0 DUP1 DUP1 DUP5 DUP2 SWAP5 DUP3 SWAP1 DUP3 ISZERO PUSH2 0x4FA8 JUMPI JUMPDEST PUSH1 0x1 PUSH1 0x1 PUSH1 0xA0 SHL SUB AND SWAP1 CALL ISZERO PUSH2 0xE30 JUMPI PUSH32 0x4A647B1D902051B0AE802F6050C58456D79D826BDF2BBF37A1BF13BE97727B2D SWAP2 JUMPDEST PUSH2 0x3C7B PUSH2 0x3DF1 DUP4 DUP4 DUP8 PUSH2 0x3C8E JUMP JUMPDEST PUSH2 0x8FC SWAP2 POP PUSH2 0x4F67 JUMP JUMPDEST SWAP1 SWAP2 SWAP1 DUP3 PUSH1 0x1 DUP6 EQ PUSH1 0x0 DUP2 ISZERO PUSH2 0x50DA JUMPI JUMPDEST DUP2 ISZERO PUSH2 0x50C8 JUMPI JUMPDEST POP SWAP1 PUSH2 0x5021 SWAP3 PUSH2 0x4FDB PUSH1 0x20 SWAP4 PUSH2 0x395F JUMP JUMPDEST PUSH1 0x1 PUSH1 0x1 PUSH1 0xA0 SHL SUB PUSH2 0x4FEC DUP9 PUSH2 0x5123 JUMP JUMPDEST AND SWAP1 PUSH1 0x0 PUSH1 0x40 MLOAD DUP1 SWAP7 DUP2 SWAP6 DUP3 SWAP5 PUSH4 0xA9059CBB PUSH1 0xE0 SHL DUP5 MSTORE PUSH1 0x4 DUP5 ADD PUSH1 0x20 SWAP1 SWAP4 SWAP3 SWAP2 SWAP4 PUSH1 0x40 DUP2 ADD SWAP5 PUSH1 0x1 DUP1 PUSH1 0xA0 SHL SUB AND DUP2 MSTORE ADD MSTORE JUMP JUMPDEST SUB SWAP3 GAS CALL SWAP1 DUP2 ISZERO PUSH2 0xE30 JUMPI PUSH1 0x0 SWAP2 PUSH2 0x5066 JUMPI JUMPDEST POP SWAP1 PUSH2 0x5061 PUSH32 0x4A647B1D902051B0AE802F6050C58456D79D826BDF2BBF37A1BF13BE97727B2D SWAP4 SWAP3 PUSH2 0x50E5 JUMP JUMPDEST PUSH2 0x4F9A JUMP JUMPDEST SWAP1 PUSH1 0x20 DUP3 RETURNDATASIZE DUP3 GT PUSH2 0x50C0 JUMPI JUMPDEST DUP2 PUSH2 0x507F PUSH1 0x20 SWAP4 DUP4 PUSH2 0x32AF JUMP JUMPDEST DUP2 ADD SUB SLT PUSH2 0x3A8A JUMPI POP SWAP1 PUSH2 0x5061 PUSH2 0x50B7 PUSH32 0x4A647B1D902051B0AE802F6050C58456D79D826BDF2BBF37A1BF13BE97727B2D SWAP5 SWAP4 PUSH2 0x3734 JUMP JUMPDEST SWAP2 SWAP3 SWAP4 POP PUSH2 0x5034 JUMP JUMPDEST RETURNDATASIZE SWAP2 POP PUSH2 0x5072 JUMP JUMPDEST SWAP2 POP POP PUSH2 0x1D7 JUMPI DUP3 PUSH1 0x0 PUSH2 0x5021 PUSH2 0x4FCA JUMP JUMPDEST PUSH1 0x2 DUP8 EQ SWAP2 POP PUSH2 0x4FC3 JUMP JUMPDEST ISZERO PUSH2 0x50EC JUMPI JUMP JUMPDEST PUSH1 0x40 MLOAD PUSH3 0x461BCD PUSH1 0xE5 SHL DUP2 MSTORE PUSH1 0x20 PUSH1 0x4 DUP3 ADD MSTORE PUSH1 0xF PUSH1 0x24 DUP3 ADD MSTORE PUSH15 0x1514905394D1915497D19052531151 PUSH1 0x8A SHL PUSH1 0x44 DUP3 ADD MSTORE PUSH1 0x64 SWAP1 REVERT JUMPDEST PUSH1 0x3 DUP2 LT ISZERO PUSH2 0x1D7 JUMPI PUSH1 0x2 DUP2 EQ PUSH2 0x5178 JUMPI PUSH1 0x1 EQ PUSH2 0x5140 JUMPI PUSH1 0x0 SWAP1 JUMP JUMPDEST PUSH1 0x15 SLOAD PUSH1 0x40 MLOAD PUSH4 0xF77800E5 PUSH1 0xE0 SHL DUP2 MSTORE SWAP1 PUSH1 0x20 SWAP1 DUP3 SWAP1 PUSH1 0x4 SWAP1 DUP3 SWAP1 PUSH1 0x1 PUSH1 0x1 PUSH1 0xA0 SHL SUB AND GAS STATICCALL SWAP1 DUP2 ISZERO PUSH2 0xE30 JUMPI PUSH1 0x0 SWAP2 PUSH2 0x3A5F JUMPI POP SWAP1 JUMP JUMPDEST POP PUSH1 0x15 SLOAD PUSH1 0x40 MLOAD PUSH4 0x5F117AA3 PUSH1 0xE1 SHL DUP2 MSTORE SWAP1 PUSH1 0x20 SWAP1 DUP3 SWAP1 PUSH1 0x4 SWAP1 DUP3 SWAP1 PUSH1 0x1 PUSH1 0x1 PUSH1 0xA0 SHL SUB AND GAS STATICCALL SWAP1 DUP2 ISZERO PUSH2 0xE30 JUMPI PUSH1 0x0 SWAP2 PUSH2 0x3A5F JUMPI POP SWAP1 JUMP JUMPDEST DUP1 PUSH1 0x0 SWAP2 PUSH27 0x184F03E93FF9F4DAA797ED6E38ED64BF6A1F010000000000000000 DUP1 DUP3 LT ISZERO PUSH2 0x530B JUMPI JUMPDEST POP PUSH14 0x4EE2D6D415B85ACEF8100000000 DUP1 DUP4 LT ISZERO PUSH2 0x52FC JUMPI JUMPDEST POP PUSH7 0x2386F26FC10000 DUP1 DUP4 LT ISZERO PUSH2 0x52ED JUMPI JUMPDEST POP PUSH4 0x5F5E100 DUP1 DUP4 LT ISZERO PUSH2 0x52DE JUMPI JUMPDEST POP PUSH2 0x2710 DUP1 DUP4 LT ISZERO PUSH2 0x52CF JUMPI JUMPDEST POP PUSH1 0x64 DUP3 LT ISZERO PUSH2 0x52BF JUMPI JUMPDEST PUSH1 0xA DUP1 SWAP3 LT ISZERO PUSH2 0x52B5 JUMPI JUMPDEST PUSH1 0x1 SWAP1 DUP2 PUSH1 0x21 DUP2 DUP7 ADD SWAP6 PUSH2 0x524A DUP8 PUSH2 0x3622 JUMP JUMPDEST SWAP7 PUSH2 0x5258 PUSH1 0x40 MLOAD SWAP9 DUP10 PUSH2 0x32AF JUMP JUMPDEST DUP1 DUP9 MSTORE PUSH2 0x5267 PUSH1 0x1F NOT SWAP2 PUSH2 0x3622 JUMP JUMPDEST ADD CALLDATASIZE PUSH1 0x20 DUP10 ADD CALLDATACOPY DUP7 ADD ADD SWAP1 JUMPDEST PUSH2 0x527F JUMPI JUMPDEST POP POP POP POP SWAP1 JUMP JUMPDEST PUSH1 0x0 NOT ADD SWAP1 DUP4 SWAP1 PUSH16 0x181899199A1A9B1B9C1CB0B131B232B3 PUSH1 0x81 SHL DUP3 DUP3 MOD BYTE DUP4 MSTORE8 DIV SWAP2 DUP3 ISZERO PUSH2 0x52B0 JUMPI SWAP2 SWAP1 DUP3 PUSH2 0x5273 JUMP JUMPDEST PUSH2 0x5278 JUMP JUMPDEST SWAP2 PUSH1 0x1 ADD SWAP2 PUSH2 0x5237 JUMP JUMPDEST SWAP2 SWAP1 PUSH1 0x64 PUSH1 0x2 SWAP2 DIV SWAP2 ADD SWAP2 PUSH2 0x522C JUMP JUMPDEST PUSH1 0x4 SWAP2 SWAP4 SWAP3 DIV SWAP2 ADD SWAP2 CODESIZE PUSH2 0x5221 JUMP JUMPDEST PUSH1 0x8 SWAP2 SWAP4 SWAP3 DIV SWAP2 ADD SWAP2 CODESIZE PUSH2 0x5214 JUMP JUMPDEST PUSH1 0x10 SWAP2 SWAP4 SWAP3 DIV SWAP2 ADD SWAP2 CODESIZE PUSH2 0x5205 JUMP JUMPDEST PUSH1 0x20 SWAP2 SWAP4 SWAP3 DIV SWAP2 ADD SWAP2 CODESIZE PUSH2 0x51F3 JUMP JUMPDEST PUSH1 0x40 SWAP4 POP DUP2 DIV SWAP2 POP CODESIZE PUSH2 0x51DA JUMP INVALID PUSH6 0x9F33FC6677BE 0xBF GASPRICE SWAP12 RETURN LT LT SWAP3 PUSH26 0x2E31F35766D0358E54577BDD91A655F6A0405787FA12A823E0F2 0xB7 PUSH4 0x1CC41B3B 0xA8 DUP3 DUP12 CALLER 0x21 0xCA DUP2 GT GT STATICCALL PUSH22 0xCD3AA3BB5ACEC2575A0E9E593C00F959F8C92F12DB28 PUSH10 0xC3395A3B0502D05E2516 PREVRANDAO PUSH16 0x71F85B31ECC21A745E3968A04E9570E4 TIMESTAMP JUMPDEST 0xC1 DUP16 0xA8 ADD SWAP13 PUSH9 0x28196B546D1669C20 0xC PUSH9 0x1B6847DC741A1B0CD0 DUP14 0x27 DUP9 GASLIMIT 0xF9 0xD8 NOT 0xD8 PUSH28 0x734759AFB55FE2DE5CB82A9AE6728D1108E10BCB7C27DDDFC02ED9D6 SWAP4 LOG0 PUSH21 0x39D026CF4EA4240B40F7D581AC802A26469706673 PC 0x22 SLT KECCAK256 0xE4 PUSH19 0x9C8350ED9965E7CFEF223F52992187ADB08588 SELFDESTRUCT DUP12 DUP9 SWAP14 SWAP5 PUSH29 0x6A8027A67A64736F6C6343000813003300000000000000000000000000 "},"gasEstimates":{"creation":{"codeDepositCost":"4303800","executionCost":"infinite","totalCost":"infinite"},"external":{"acceptPost(uint8,uint256,address,address)":"infinite","addStake(uint8,address,uint256)":"infinite","createPost(bytes,uint8,uint8,uint256,uint256,uint8,address,address,bool)":"infinite","finalizePost(bool,uint256,bytes32)":"infinite","getBuyerStake()":"6844","getEncryptedPost()":"infinite","getPaymentRequested()":"2676","getPost()":"infinite","getSellerStake()":"6954","getStake(uint8,address)":"2762","getStakeRequested()":"2761","getStatus()":"2505","getTokenId()":"2310","getTokenIdAddress()":"infinite","getTotalStaked()":"infinite","owner()":"2634","post()":"infinite","postCount()":"2346","renouncePost()":"infinite","revealData(bytes)":"infinite","submitHash(bytes)":"infinite","takeFullStake(uint8,address)":"infinite","takeStake(uint8,address,uint256)":"infinite","version()":"infinite"}},"methodIdentifiers":{"acceptPost(uint8,uint256,address,address)":"07388dba","addStake(uint8,address,uint256)":"1d0b4af5","createPost(bytes,uint8,uint8,uint256,uint256,uint8,address,address,bool)":"d2af47ab","finalizePost(bool,uint256,bytes32)":"8f287dc2","getBuyerStake()":"4c38d877","getEncryptedPost()":"729e2eb1","getPaymentRequested()":"d24e0c87","getPost()":"8c6838ba","getSellerStake()":"5c63ed69","getStake(uint8,address)":"52a6cb4a","getStakeRequested()":"faeb5e17","getStatus()":"4e69d560","getTokenId()":"010a38f5","getTokenIdAddress()":"5ad4e170","getTotalStaked()":"0917e776","owner()":"8da5cb5b","post()":"05c1f502","postCount()":"17906c2e","renouncePost()":"3d876d5d","revealData(bytes)":"7abe914d","submitHash(bytes)":"8f903c79","takeFullStake(uint8,address)":"f2d7dbb6","takeStake(uint8,address,uint256)":"ed70d5d5","version()":"54fd4d50"}},"storageLayout":{"storage":[{"astId":3523,"contract":"contracts/features/MecenateFeed.sol:MecenateFeed","label":"owner","offset":0,"slot":"0","type":"t_address"},{"astId":3526,"contract":"contracts/features/MecenateFeed.sol:MecenateFeed","label":"post","offset":0,"slot":"1","type":"t_struct(Post)2574_storage"},{"astId":3529,"contract":"contracts/features/MecenateFeed.sol:MecenateFeed","label":"settings","offset":0,"slot":"18","type":"t_struct(FeedSettings)2550_storage"},{"astId":3533,"contract":"contracts/features/MecenateFeed.sol:MecenateFeed","label":"postDurationToDays","offset":0,"slot":"24","type":"t_mapping(t_uint8,t_uint256)"},{"astId":3537,"contract":"contracts/features/MecenateFeed.sol:MecenateFeed","label":"validStatuses","offset":0,"slot":"25","type":"t_mapping(t_uint8,t_bool)"},{"astId":3871,"contract":"contracts/features/MecenateFeed.sol:MecenateFeed","label":"_deposit","offset":0,"slot":"26","type":"t_mapping(t_uint256,t_mapping(t_address,t_uint256))"}],"types":{"t_address":{"encoding":"inplace","label":"address","numberOfBytes":"20"},"t_bool":{"encoding":"inplace","label":"bool","numberOfBytes":"1"},"t_bytes_storage":{"encoding":"bytes","label":"bytes","numberOfBytes":"32"},"t_enum(PostStatus)2521":{"encoding":"inplace","label":"enum Structures.PostStatus","numberOfBytes":"1"},"t_enum(PostType)2531":{"encoding":"inplace","label":"enum Structures.PostType","numberOfBytes":"1"},"t_enum(Tokens)2525":{"encoding":"inplace","label":"enum Structures.Tokens","numberOfBytes":"1"},"t_mapping(t_address,t_uint256)":{"encoding":"mapping","key":"t_address","label":"mapping(address => uint256)","numberOfBytes":"32","value":"t_uint256"},"t_mapping(t_uint256,t_mapping(t_address,t_uint256))":{"encoding":"mapping","key":"t_uint256","label":"mapping(uint256 => mapping(address => uint256))","numberOfBytes":"32","value":"t_mapping(t_address,t_uint256)"},"t_mapping(t_uint8,t_bool)":{"encoding":"mapping","key":"t_uint8","label":"mapping(uint8 => bool)","numberOfBytes":"32","value":"t_bool"},"t_mapping(t_uint8,t_uint256)":{"encoding":"mapping","key":"t_uint8","label":"mapping(uint8 => uint256)","numberOfBytes":"32","value":"t_uint256"},"t_string_storage":{"encoding":"bytes","label":"string","numberOfBytes":"32"},"t_struct(FeedSettings)2550_storage":{"encoding":"inplace","label":"struct Structures.FeedSettings","members":[{"astId":2539,"contract":"contracts/features/MecenateFeed.sol:MecenateFeed","label":"punishmentRatio","offset":0,"slot":"0","type":"t_uint256"},{"astId":2541,"contract":"contracts/features/MecenateFeed.sol:MecenateFeed","label":"postCount","offset":0,"slot":"1","type":"t_uint256"},{"astId":2543,"contract":"contracts/features/MecenateFeed.sol:MecenateFeed","label":"usersModuleContract","offset":0,"slot":"2","type":"t_address"},{"astId":2545,"contract":"contracts/features/MecenateFeed.sol:MecenateFeed","label":"factoryContract","offset":0,"slot":"3","type":"t_address"},{"astId":2547,"contract":"contracts/features/MecenateFeed.sol:MecenateFeed","label":"router","offset":0,"slot":"4","type":"t_address"},{"astId":2549,"contract":"contracts/features/MecenateFeed.sol:MecenateFeed","label":"version","offset":0,"slot":"5","type":"t_string_storage"}],"numberOfBytes":"192"},"t_struct(Post)2574_storage":{"encoding":"inplace","label":"struct Structures.Post","members":[{"astId":2570,"contract":"contracts/features/MecenateFeed.sol:MecenateFeed","label":"creator","offset":0,"slot":"0","type":"t_struct(User)2627_storage"},{"astId":2573,"contract":"contracts/features/MecenateFeed.sol:MecenateFeed","label":"postdata","offset":0,"slot":"3","type":"t_struct(PostData)2584_storage"}],"numberOfBytes":"544"},"t_struct(PostData)2584_storage":{"encoding":"inplace","label":"struct Structures.PostData","members":[{"astId":2577,"contract":"contracts/features/MecenateFeed.sol:MecenateFeed","label":"settings","offset":0,"slot":"0","type":"t_struct(PostSettings)2607_storage"},{"astId":2580,"contract":"contracts/features/MecenateFeed.sol:MecenateFeed","label":"escrow","offset":0,"slot":"5","type":"t_struct(PostEscrow)2620_storage"},{"astId":2583,"contract":"contracts/features/MecenateFeed.sol:MecenateFeed","label":"data","offset":0,"slot":"11","type":"t_struct(PostEncryptedData)2591_storage"}],"numberOfBytes":"448"},"t_struct(PostEncryptedData)2591_storage":{"encoding":"inplace","label":"struct Structures.PostEncryptedData","members":[{"astId":2586,"contract":"contracts/features/MecenateFeed.sol:MecenateFeed","label":"encryptedData","offset":0,"slot":"0","type":"t_bytes_storage"},{"astId":2588,"contract":"contracts/features/MecenateFeed.sol:MecenateFeed","label":"encryptedKey","offset":0,"slot":"1","type":"t_bytes_storage"},{"astId":2590,"contract":"contracts/features/MecenateFeed.sol:MecenateFeed","label":"decryptedData","offset":0,"slot":"2","type":"t_bytes_storage"}],"numberOfBytes":"96"},"t_struct(PostEscrow)2620_storage":{"encoding":"inplace","label":"struct Structures.PostEscrow","members":[{"astId":2609,"contract":"contracts/features/MecenateFeed.sol:MecenateFeed","label":"buyer","offset":0,"slot":"0","type":"t_address"},{"astId":2611,"contract":"contracts/features/MecenateFeed.sol:MecenateFeed","label":"seller","offset":0,"slot":"1","type":"t_address"},{"astId":2613,"contract":"contracts/features/MecenateFeed.sol:MecenateFeed","label":"stake","offset":0,"slot":"2","type":"t_uint256"},{"astId":2615,"contract":"contracts/features/MecenateFeed.sol:MecenateFeed","label":"payment","offset":0,"slot":"3","type":"t_uint256"},{"astId":2617,"contract":"contracts/features/MecenateFeed.sol:MecenateFeed","label":"punishment","offset":0,"slot":"4","type":"t_uint256"},{"astId":2619,"contract":"contracts/features/MecenateFeed.sol:MecenateFeed","label":"penalty","offset":0,"slot":"5","type":"t_uint256"}],"numberOfBytes":"192"},"t_struct(PostSettings)2607_storage":{"encoding":"inplace","label":"struct Structures.PostSettings","members":[{"astId":2594,"contract":"contracts/features/MecenateFeed.sol:MecenateFeed","label":"status","offset":0,"slot":"0","type":"t_enum(PostStatus)2521"},{"astId":2597,"contract":"contracts/features/MecenateFeed.sol:MecenateFeed","label":"postType","offset":1,"slot":"0","type":"t_enum(PostType)2531"},{"astId":2599,"contract":"contracts/features/MecenateFeed.sol:MecenateFeed","label":"creationTimeStamp","offset":0,"slot":"1","type":"t_uint256"},{"astId":2601,"contract":"contracts/features/MecenateFeed.sol:MecenateFeed","label":"endTimeStamp","offset":0,"slot":"2","type":"t_uint256"},{"astId":2603,"contract":"contracts/features/MecenateFeed.sol:MecenateFeed","label":"duration","offset":0,"slot":"3","type":"t_uint256"},{"astId":2606,"contract":"contracts/features/MecenateFeed.sol:MecenateFeed","label":"tokenId","offset":0,"slot":"4","type":"t_enum(Tokens)2525"}],"numberOfBytes":"160"},"t_struct(User)2627_storage":{"encoding":"inplace","label":"struct Structures.User","members":[{"astId":2622,"contract":"contracts/features/MecenateFeed.sol:MecenateFeed","label":"evmAddress","offset":0,"slot":"0","type":"t_address"},{"astId":2624,"contract":"contracts/features/MecenateFeed.sol:MecenateFeed","label":"sismoVaultId","offset":0,"slot":"1","type":"t_bytes_storage"},{"astId":2626,"contract":"contracts/features/MecenateFeed.sol:MecenateFeed","label":"publicKey","offset":0,"slot":"2","type":"t_bytes_storage"}],"numberOfBytes":"96"},"t_uint256":{"encoding":"inplace","label":"uint256","numberOfBytes":"32"},"t_uint8":{"encoding":"inplace","label":"uint8","numberOfBytes":"1"}}},"userdoc":{"kind":"user","methods":{"version()":{"notice":"Returns the full semver contract version."}},"version":1}}}}