{"contracts/stats/MecenateStats.sol":{"MecenateStats":{"abi":[{"inputs":[{"internalType":"address","name":"mecenateUsersAddress","type":"address"},{"internalType":"address","name":"mecenateFeedFactoryAddress","type":"address"},{"internalType":"address","name":"mecenateBayAddress","type":"address"},{"internalType":"address","name":"mecenateTreasuryAddress","type":"address"}],"stateMutability":"nonpayable","type":"constructor"},{"inputs":[],"name":"getStats","outputs":[{"components":[{"internalType":"uint256","name":"totalUsers","type":"uint256"},{"internalType":"uint256","name":"totalBayRequests","type":"uint256"},{"internalType":"uint256","name":"totalFeeds","type":"uint256"},{"internalType":"uint256","name":"globalFee","type":"uint256"},{"internalType":"uint256","name":"fixedFee","type":"uint256"},{"internalType":"uint256","name":"treasuryBalance","type":"uint256"}],"internalType":"struct MecenateStats.Stats","name":"","type":"tuple"}],"stateMutability":"view","type":"function"},{"inputs":[],"name":"mecenateBay","outputs":[{"internalType":"contract IMecenateBay","name":"","type":"address"}],"stateMutability":"view","type":"function"},{"inputs":[],"name":"mecenateFeedFactory","outputs":[{"internalType":"contract IMecenateFeedFactory","name":"","type":"address"}],"stateMutability":"view","type":"function"},{"inputs":[],"name":"mecenateTreasury","outputs":[{"internalType":"contract IMecenateTreasury","name":"","type":"address"}],"stateMutability":"view","type":"function"},{"inputs":[],"name":"mecenateUsers","outputs":[{"internalType":"contract IMecenateUsers","name":"","type":"address"}],"stateMutability":"view","type":"function"}],"devdoc":{"kind":"dev","methods":{},"version":1},"evm":{"bytecode":{"linkReferences":{},"object":"6080346100b957601f6104eb38819003918201601f19168301916001600160401b038311848410176100be578084926080946040528339810103126100b957610047816100d4565b90610054602082016100d4565b61006c6060610065604085016100d4565b93016100d4565b9060018060a01b03928380928160018060a01b0319971687600054161760005516856001541617600155168360025416176002551690600354161760035560405161040290816100e98239f35b600080fd5b634e487b7160e01b600052604160045260246000fd5b51906001600160a01b03821682036100b95756fe6080604081815260048036101561001557600080fd5b600092833560e01c908163139e3c541461035457508063295b7b9a1461032b5780633f16a3bb1461030257806377260151146102d55763c59d48471461005a57600080fd5b346102d157826003193601126102d157815161007581610378565b8381528360a060209282848201528286820152826060820152826080820152015260018060a01b03908160025416938051928284868163019ef4ed60e21b998a82525afa9384156102985787946102a2575b50828160015416968684518099819382525afa9081156102985785968896959692610262575b50838189541684519889809263b5cb15f760e01b82525afa968715610258578897610225575b506003548351634047e10360e11b815294911681858781845afa9485156101ec5789956101f6575b5081845180976391792d5b60e01b825281845afa9586156101ec5789966101b5575b5060c09850319560a0845161017181610378565b8981528381019283528581019485526060810196875260808101978852019687528351978852519087015251908501525160608401525160808301525160a0820152f35b9095508181813d83116101e5575b6101cd81836103aa565b810103126101e15760c0985051943861015d565b8880fd5b503d6101c3565b84513d8b823e3d90fd5b9094508181813d831161021e575b61020e81836103aa565b810103126101e15751933861013b565b503d610204565b9096508381813d8311610251575b61023d81836103aa565b8101031261024d57519538610113565b8780fd5b503d610233565b83513d8a823e3d90fd5b945090508284813d8111610291575b61027b81836103aa565b8101031261028d5785935190386100ed565b8680fd5b503d610271565b82513d89823e3d90fd5b9093508281813d83116102ca575b6102ba81836103aa565b8101031261028d575192386100c7565b503d6102b0565b8280fd5b5050346102fe57816003193601126102fe5760015490516001600160a01b039091168152602090f35b5080fd5b5050346102fe57816003193601126102fe5760025490516001600160a01b039091168152602090f35b5050346102fe57816003193601126102fe5760035490516001600160a01b039091168152602090f35b8490346102fe57816003193601126102fe5790546001600160a01b03168152602090f35b60c0810190811067ffffffffffffffff82111761039457604052565b634e487b7160e01b600052604160045260246000fd5b90601f8019910116810190811067ffffffffffffffff8211176103945760405256fea2646970667358221220c7d085faec6fa10f0f4b436adb3e21cff38bf80323b1e21f705be0047d9fdb9364736f6c63430008130033","opcodes":"PUSH1 0x80 CALLVALUE PUSH2 0xB9 JUMPI PUSH1 0x1F PUSH2 0x4EB CODESIZE DUP2 SWAP1 SUB SWAP2 DUP3 ADD PUSH1 0x1F NOT AND DUP4 ADD SWAP2 PUSH1 0x1 PUSH1 0x1 PUSH1 0x40 SHL SUB DUP4 GT DUP5 DUP5 LT OR PUSH2 0xBE JUMPI DUP1 DUP5 SWAP3 PUSH1 0x80 SWAP5 PUSH1 0x40 MSTORE DUP4 CODECOPY DUP2 ADD SUB SLT PUSH2 0xB9 JUMPI PUSH2 0x47 DUP2 PUSH2 0xD4 JUMP JUMPDEST SWAP1 PUSH2 0x54 PUSH1 0x20 DUP3 ADD PUSH2 0xD4 JUMP JUMPDEST PUSH2 0x6C PUSH1 0x60 PUSH2 0x65 PUSH1 0x40 DUP6 ADD PUSH2 0xD4 JUMP JUMPDEST SWAP4 ADD PUSH2 0xD4 JUMP JUMPDEST SWAP1 PUSH1 0x1 DUP1 PUSH1 0xA0 SHL SUB SWAP3 DUP4 DUP1 SWAP3 DUP2 PUSH1 0x1 DUP1 PUSH1 0xA0 SHL SUB NOT SWAP8 AND DUP8 PUSH1 0x0 SLOAD AND OR PUSH1 0x0 SSTORE AND DUP6 PUSH1 0x1 SLOAD AND OR PUSH1 0x1 SSTORE AND DUP4 PUSH1 0x2 SLOAD AND OR PUSH1 0x2 SSTORE AND SWAP1 PUSH1 0x3 SLOAD AND OR PUSH1 0x3 SSTORE PUSH1 0x40 MLOAD PUSH2 0x402 SWAP1 DUP2 PUSH2 0xE9 DUP3 CODECOPY RETURN JUMPDEST PUSH1 0x0 DUP1 REVERT JUMPDEST PUSH4 0x4E487B71 PUSH1 0xE0 SHL PUSH1 0x0 MSTORE PUSH1 0x41 PUSH1 0x4 MSTORE PUSH1 0x24 PUSH1 0x0 REVERT JUMPDEST MLOAD SWAP1 PUSH1 0x1 PUSH1 0x1 PUSH1 0xA0 SHL SUB DUP3 AND DUP3 SUB PUSH2 0xB9 JUMPI JUMP INVALID PUSH1 0x80 PUSH1 0x40 DUP2 DUP2 MSTORE PUSH1 0x4 DUP1 CALLDATASIZE LT ISZERO PUSH2 0x15 JUMPI PUSH1 0x0 DUP1 REVERT JUMPDEST PUSH1 0x0 SWAP3 DUP4 CALLDATALOAD PUSH1 0xE0 SHR SWAP1 DUP2 PUSH4 0x139E3C54 EQ PUSH2 0x354 JUMPI POP DUP1 PUSH4 0x295B7B9A EQ PUSH2 0x32B JUMPI DUP1 PUSH4 0x3F16A3BB EQ PUSH2 0x302 JUMPI DUP1 PUSH4 0x77260151 EQ PUSH2 0x2D5 JUMPI PUSH4 0xC59D4847 EQ PUSH2 0x5A JUMPI PUSH1 0x0 DUP1 REVERT JUMPDEST CALLVALUE PUSH2 0x2D1 JUMPI DUP3 PUSH1 0x3 NOT CALLDATASIZE ADD SLT PUSH2 0x2D1 JUMPI DUP2 MLOAD PUSH2 0x75 DUP2 PUSH2 0x378 JUMP JUMPDEST DUP4 DUP2 MSTORE DUP4 PUSH1 0xA0 PUSH1 0x20 SWAP3 DUP3 DUP5 DUP3 ADD MSTORE DUP3 DUP7 DUP3 ADD MSTORE DUP3 PUSH1 0x60 DUP3 ADD MSTORE DUP3 PUSH1 0x80 DUP3 ADD MSTORE ADD MSTORE PUSH1 0x1 DUP1 PUSH1 0xA0 SHL SUB SWAP1 DUP2 PUSH1 0x2 SLOAD AND SWAP4 DUP1 MLOAD SWAP3 DUP3 DUP5 DUP7 DUP2 PUSH4 0x19EF4ED PUSH1 0xE2 SHL SWAP10 DUP11 DUP3 MSTORE GAS STATICCALL SWAP4 DUP5 ISZERO PUSH2 0x298 JUMPI DUP8 SWAP5 PUSH2 0x2A2 JUMPI JUMPDEST POP DUP3 DUP2 PUSH1 0x1 SLOAD AND SWAP7 DUP7 DUP5 MLOAD DUP1 SWAP10 DUP2 SWAP4 DUP3 MSTORE GAS STATICCALL SWAP1 DUP2 ISZERO PUSH2 0x298 JUMPI DUP6 SWAP7 DUP9 SWAP7 SWAP6 SWAP7 SWAP3 PUSH2 0x262 JUMPI JUMPDEST POP DUP4 DUP2 DUP10 SLOAD AND DUP5 MLOAD SWAP9 DUP10 DUP1 SWAP3 PUSH4 0xB5CB15F7 PUSH1 0xE0 SHL DUP3 MSTORE GAS STATICCALL SWAP7 DUP8 ISZERO PUSH2 0x258 JUMPI DUP9 SWAP8 PUSH2 0x225 JUMPI JUMPDEST POP PUSH1 0x3 SLOAD DUP4 MLOAD PUSH4 0x4047E103 PUSH1 0xE1 SHL DUP2 MSTORE SWAP5 SWAP2 AND DUP2 DUP6 DUP8 DUP2 DUP5 GAS STATICCALL SWAP5 DUP6 ISZERO PUSH2 0x1EC JUMPI DUP10 SWAP6 PUSH2 0x1F6 JUMPI JUMPDEST POP DUP2 DUP5 MLOAD DUP1 SWAP8 PUSH4 0x91792D5B PUSH1 0xE0 SHL DUP3 MSTORE DUP2 DUP5 GAS STATICCALL SWAP6 DUP7 ISZERO PUSH2 0x1EC JUMPI DUP10 SWAP7 PUSH2 0x1B5 JUMPI JUMPDEST POP PUSH1 0xC0 SWAP9 POP BALANCE SWAP6 PUSH1 0xA0 DUP5 MLOAD PUSH2 0x171 DUP2 PUSH2 0x378 JUMP JUMPDEST DUP10 DUP2 MSTORE DUP4 DUP2 ADD SWAP3 DUP4 MSTORE DUP6 DUP2 ADD SWAP5 DUP6 MSTORE PUSH1 0x60 DUP2 ADD SWAP7 DUP8 MSTORE PUSH1 0x80 DUP2 ADD SWAP8 DUP9 MSTORE ADD SWAP7 DUP8 MSTORE DUP4 MLOAD SWAP8 DUP9 MSTORE MLOAD SWAP1 DUP8 ADD MSTORE MLOAD SWAP1 DUP6 ADD MSTORE MLOAD PUSH1 0x60 DUP5 ADD MSTORE MLOAD PUSH1 0x80 DUP4 ADD MSTORE MLOAD PUSH1 0xA0 DUP3 ADD MSTORE RETURN JUMPDEST SWAP1 SWAP6 POP DUP2 DUP2 DUP2 RETURNDATASIZE DUP4 GT PUSH2 0x1E5 JUMPI JUMPDEST PUSH2 0x1CD DUP2 DUP4 PUSH2 0x3AA JUMP JUMPDEST DUP2 ADD SUB SLT PUSH2 0x1E1 JUMPI PUSH1 0xC0 SWAP9 POP MLOAD SWAP5 CODESIZE PUSH2 0x15D JUMP JUMPDEST DUP9 DUP1 REVERT JUMPDEST POP RETURNDATASIZE PUSH2 0x1C3 JUMP JUMPDEST DUP5 MLOAD RETURNDATASIZE DUP12 DUP3 RETURNDATACOPY RETURNDATASIZE SWAP1 REVERT JUMPDEST SWAP1 SWAP5 POP DUP2 DUP2 DUP2 RETURNDATASIZE DUP4 GT PUSH2 0x21E JUMPI JUMPDEST PUSH2 0x20E DUP2 DUP4 PUSH2 0x3AA JUMP JUMPDEST DUP2 ADD SUB SLT PUSH2 0x1E1 JUMPI MLOAD SWAP4 CODESIZE PUSH2 0x13B JUMP JUMPDEST POP RETURNDATASIZE PUSH2 0x204 JUMP JUMPDEST SWAP1 SWAP7 POP DUP4 DUP2 DUP2 RETURNDATASIZE DUP4 GT PUSH2 0x251 JUMPI JUMPDEST PUSH2 0x23D DUP2 DUP4 PUSH2 0x3AA JUMP JUMPDEST DUP2 ADD SUB SLT PUSH2 0x24D JUMPI MLOAD SWAP6 CODESIZE PUSH2 0x113 JUMP JUMPDEST DUP8 DUP1 REVERT JUMPDEST POP RETURNDATASIZE PUSH2 0x233 JUMP JUMPDEST DUP4 MLOAD RETURNDATASIZE DUP11 DUP3 RETURNDATACOPY RETURNDATASIZE SWAP1 REVERT JUMPDEST SWAP5 POP SWAP1 POP DUP3 DUP5 DUP2 RETURNDATASIZE DUP2 GT PUSH2 0x291 JUMPI JUMPDEST PUSH2 0x27B DUP2 DUP4 PUSH2 0x3AA JUMP JUMPDEST DUP2 ADD SUB SLT PUSH2 0x28D JUMPI DUP6 SWAP4 MLOAD SWAP1 CODESIZE PUSH2 0xED JUMP JUMPDEST DUP7 DUP1 REVERT JUMPDEST POP RETURNDATASIZE PUSH2 0x271 JUMP JUMPDEST DUP3 MLOAD RETURNDATASIZE DUP10 DUP3 RETURNDATACOPY RETURNDATASIZE SWAP1 REVERT JUMPDEST SWAP1 SWAP4 POP DUP3 DUP2 DUP2 RETURNDATASIZE DUP4 GT PUSH2 0x2CA JUMPI JUMPDEST PUSH2 0x2BA DUP2 DUP4 PUSH2 0x3AA JUMP JUMPDEST DUP2 ADD SUB SLT PUSH2 0x28D JUMPI MLOAD SWAP3 CODESIZE PUSH2 0xC7 JUMP JUMPDEST POP RETURNDATASIZE PUSH2 0x2B0 JUMP JUMPDEST DUP3 DUP1 REVERT JUMPDEST POP POP CALLVALUE PUSH2 0x2FE JUMPI DUP2 PUSH1 0x3 NOT CALLDATASIZE ADD SLT PUSH2 0x2FE JUMPI PUSH1 0x1 SLOAD SWAP1 MLOAD PUSH1 0x1 PUSH1 0x1 PUSH1 0xA0 SHL SUB SWAP1 SWAP2 AND DUP2 MSTORE PUSH1 0x20 SWAP1 RETURN JUMPDEST POP DUP1 REVERT JUMPDEST POP POP CALLVALUE PUSH2 0x2FE JUMPI DUP2 PUSH1 0x3 NOT CALLDATASIZE ADD SLT PUSH2 0x2FE JUMPI PUSH1 0x2 SLOAD SWAP1 MLOAD PUSH1 0x1 PUSH1 0x1 PUSH1 0xA0 SHL SUB SWAP1 SWAP2 AND DUP2 MSTORE PUSH1 0x20 SWAP1 RETURN JUMPDEST POP POP CALLVALUE PUSH2 0x2FE JUMPI DUP2 PUSH1 0x3 NOT CALLDATASIZE ADD SLT PUSH2 0x2FE JUMPI PUSH1 0x3 SLOAD SWAP1 MLOAD PUSH1 0x1 PUSH1 0x1 PUSH1 0xA0 SHL SUB SWAP1 SWAP2 AND DUP2 MSTORE PUSH1 0x20 SWAP1 RETURN JUMPDEST DUP5 SWAP1 CALLVALUE PUSH2 0x2FE JUMPI DUP2 PUSH1 0x3 NOT CALLDATASIZE ADD SLT PUSH2 0x2FE JUMPI SWAP1 SLOAD PUSH1 0x1 PUSH1 0x1 PUSH1 0xA0 SHL SUB AND DUP2 MSTORE PUSH1 0x20 SWAP1 RETURN JUMPDEST PUSH1 0xC0 DUP2 ADD SWAP1 DUP2 LT PUSH8 0xFFFFFFFFFFFFFFFF DUP3 GT OR PUSH2 0x394 JUMPI PUSH1 0x40 MSTORE JUMP JUMPDEST PUSH4 0x4E487B71 PUSH1 0xE0 SHL PUSH1 0x0 MSTORE PUSH1 0x41 PUSH1 0x4 MSTORE PUSH1 0x24 PUSH1 0x0 REVERT JUMPDEST SWAP1 PUSH1 0x1F DUP1 NOT SWAP2 ADD AND DUP2 ADD SWAP1 DUP2 LT PUSH8 0xFFFFFFFFFFFFFFFF DUP3 GT OR PUSH2 0x394 JUMPI PUSH1 0x40 MSTORE JUMP INVALID LOG2 PUSH5 0x6970667358 0x22 SLT KECCAK256 0xC7 0xD0 DUP6 STATICCALL 0xEC PUSH16 0xA10F0F4B436ADB3E21CFF38BF80323B1 0xE2 0x1F PUSH17 0x5BE0047D9FDB9364736F6C634300081300 CALLER "},"gasEstimates":{"creation":{"codeDepositCost":"205200","executionCost":"infinite","totalCost":"infinite"},"external":{"getStats()":"infinite","mecenateBay()":"2342","mecenateFeedFactory()":"2364","mecenateTreasury()":"2320","mecenateUsers()":"2286"}},"methodIdentifiers":{"getStats()":"c59d4847","mecenateBay()":"3f16a3bb","mecenateFeedFactory()":"77260151","mecenateTreasury()":"295b7b9a","mecenateUsers()":"139e3c54"}},"storageLayout":{"storage":[{"astId":6152,"contract":"contracts/stats/MecenateStats.sol:MecenateStats","label":"mecenateUsers","offset":0,"slot":"0","type":"t_contract(IMecenateUsers)2490"},{"astId":6155,"contract":"contracts/stats/MecenateStats.sol:MecenateStats","label":"mecenateFeedFactory","offset":0,"slot":"1","type":"t_contract(IMecenateFeedFactory)2419"},{"astId":6158,"contract":"contracts/stats/MecenateStats.sol:MecenateStats","label":"mecenateBay","offset":0,"slot":"2","type":"t_contract(IMecenateBay)2262"},{"astId":6161,"contract":"contracts/stats/MecenateStats.sol:MecenateStats","label":"mecenateTreasury","offset":0,"slot":"3","type":"t_contract(IMecenateTreasury)2432"}],"types":{"t_contract(IMecenateBay)2262":{"encoding":"inplace","label":"contract IMecenateBay","numberOfBytes":"20"},"t_contract(IMecenateFeedFactory)2419":{"encoding":"inplace","label":"contract IMecenateFeedFactory","numberOfBytes":"20"},"t_contract(IMecenateTreasury)2432":{"encoding":"inplace","label":"contract IMecenateTreasury","numberOfBytes":"20"},"t_contract(IMecenateUsers)2490":{"encoding":"inplace","label":"contract IMecenateUsers","numberOfBytes":"20"}}},"userdoc":{"kind":"user","methods":{},"version":1}}}}