{"contracts/modules/Data.sol":{"Data":{"abi":[{"inputs":[{"internalType":"address","name":"usersModuleContract","type":"address"},{"internalType":"address","name":"factoryContract","type":"address"},{"internalType":"uint256","name":"_major","type":"uint256"},{"internalType":"uint256","name":"_minor","type":"uint256"},{"internalType":"uint256","name":"_patch","type":"uint256"}],"stateMutability":"nonpayable","type":"constructor"},{"inputs":[],"name":"getEncryptedPost","outputs":[{"internalType":"bytes","name":"","type":"bytes"}],"stateMutability":"view","type":"function"},{"inputs":[],"name":"getPaymentRequested","outputs":[{"internalType":"uint256","name":"","type":"uint256"}],"stateMutability":"view","type":"function"},{"inputs":[],"name":"getPost","outputs":[{"components":[{"components":[{"internalType":"address","name":"evmAddress","type":"address"},{"internalType":"bytes","name":"sismoVaultId","type":"bytes"},{"internalType":"bytes","name":"publicKey","type":"bytes"}],"internalType":"struct Structures.User","name":"creator","type":"tuple"},{"components":[{"components":[{"internalType":"enum Structures.PostStatus","name":"status","type":"uint8"},{"internalType":"enum Structures.PostType","name":"postType","type":"uint8"},{"internalType":"uint256","name":"creationTimeStamp","type":"uint256"},{"internalType":"uint256","name":"endTimeStamp","type":"uint256"},{"internalType":"uint256","name":"duration","type":"uint256"},{"internalType":"enum Structures.Tokens","name":"tokenId","type":"uint8"}],"internalType":"struct Structures.PostSettings","name":"settings","type":"tuple"},{"components":[{"internalType":"address","name":"buyer","type":"address"},{"internalType":"address","name":"seller","type":"address"},{"internalType":"uint256","name":"stake","type":"uint256"},{"internalType":"uint256","name":"payment","type":"uint256"},{"internalType":"uint256","name":"punishment","type":"uint256"},{"internalType":"uint256","name":"penalty","type":"uint256"}],"internalType":"struct Structures.PostEscrow","name":"escrow","type":"tuple"},{"components":[{"internalType":"bytes","name":"encryptedData","type":"bytes"},{"internalType":"bytes","name":"encryptedKey","type":"bytes"},{"internalType":"bytes","name":"decryptedData","type":"bytes"}],"internalType":"struct Structures.PostEncryptedData","name":"data","type":"tuple"}],"internalType":"struct Structures.PostData","name":"postdata","type":"tuple"}],"internalType":"struct Structures.Post","name":"","type":"tuple"}],"stateMutability":"view","type":"function"},{"inputs":[],"name":"getStakeRequested","outputs":[{"internalType":"uint256","name":"","type":"uint256"}],"stateMutability":"view","type":"function"},{"inputs":[],"name":"getStatus","outputs":[{"internalType":"enum Structures.PostStatus","name":"","type":"uint8"}],"stateMutability":"view","type":"function"},{"inputs":[],"name":"getTokenId","outputs":[{"internalType":"enum Structures.Tokens","name":"","type":"uint8"}],"stateMutability":"view","type":"function"},{"inputs":[],"name":"getTokenIdAddress","outputs":[{"internalType":"address","name":"","type":"address"}],"stateMutability":"view","type":"function"},{"inputs":[],"name":"owner","outputs":[{"internalType":"address","name":"","type":"address"}],"stateMutability":"view","type":"function"},{"inputs":[],"name":"post","outputs":[{"components":[{"internalType":"address","name":"evmAddress","type":"address"},{"internalType":"bytes","name":"sismoVaultId","type":"bytes"},{"internalType":"bytes","name":"publicKey","type":"bytes"}],"internalType":"struct Structures.User","name":"creator","type":"tuple"},{"components":[{"components":[{"internalType":"enum Structures.PostStatus","name":"status","type":"uint8"},{"internalType":"enum Structures.PostType","name":"postType","type":"uint8"},{"internalType":"uint256","name":"creationTimeStamp","type":"uint256"},{"internalType":"uint256","name":"endTimeStamp","type":"uint256"},{"internalType":"uint256","name":"duration","type":"uint256"},{"internalType":"enum Structures.Tokens","name":"tokenId","type":"uint8"}],"internalType":"struct Structures.PostSettings","name":"settings","type":"tuple"},{"components":[{"internalType":"address","name":"buyer","type":"address"},{"internalType":"address","name":"seller","type":"address"},{"internalType":"uint256","name":"stake","type":"uint256"},{"internalType":"uint256","name":"payment","type":"uint256"},{"internalType":"uint256","name":"punishment","type":"uint256"},{"internalType":"uint256","name":"penalty","type":"uint256"}],"internalType":"struct Structures.PostEscrow","name":"escrow","type":"tuple"},{"components":[{"internalType":"bytes","name":"encryptedData","type":"bytes"},{"internalType":"bytes","name":"encryptedKey","type":"bytes"},{"internalType":"bytes","name":"decryptedData","type":"bytes"}],"internalType":"struct Structures.PostEncryptedData","name":"data","type":"tuple"}],"internalType":"struct Structures.PostData","name":"postdata","type":"tuple"}],"stateMutability":"view","type":"function"},{"inputs":[],"name":"postCount","outputs":[{"internalType":"uint256","name":"","type":"uint256"}],"stateMutability":"view","type":"function"},{"inputs":[],"name":"version","outputs":[{"internalType":"string","name":"","type":"string"}],"stateMutability":"view","type":"function"},{"stateMutability":"payable","type":"receive"}],"devdoc":{"details":"This contract stores data related to Mecenate posts and provides functions to interact with it.","kind":"dev","methods":{"version()":{"returns":{"_0":"Semver contract version as a string."}}},"title":"Data","version":1},"evm":{"bytecode":{"linkReferences":{},"object":"60e06040818152346200038a5760a0826200150280380380916200002482856200038f565b8339810103126200038a576200003a82620003c9565b602062000049818501620003c9565b938381015190608060608201519101519160805260a05260c05267016345785d8a000060125560008060135560018060a01b03928360018060a01b03199116816014541617601455338160155416176015558383865180986303e21fa960e61b8252816004988992165afa8015620003805783906200033d575b6200010f975016906016541617601655620000e060805162000427565b91620000ee60a05162000427565b92620001346200010060c05162000427565b875198899385850190620003de565b601760f91b808252620001296001988980940190620003de565b9081520190620003de565b0362000149601f19918281018952886200038f565b8651906001600160401b0382116200032a57601754978589811c991680156200031f575b848a10146200030c5788601f899a9997989911620002ae575b508391601f8411600114620002405750601993929185918362000234575b5050600019600383901b1c191690861b176017555b60ff19958681541681558380526018825262015180858520558584526203f480858520556002845262093a8085852055600384526212750085852055835262278d008484205582805252209182541617905551610f5a9081620005a882396080518161033b015260a05181610367015260c051816103960152f35b015190503880620001a4565b601786528486209084169695949388939092865b8981106200029357508360199798991062000279575b505050811b01601755620001b9565b015160001960f88460031b161c191690553880806200026a565b8183015184558c98508a959093019291860191860162000254565b9091929394955060178652848620601f850160051c81019186861062000301575b8a97969594939291601f8a920160051c01915b828110620002f257505062000186565b8781558b9850899101620002e2565b9091508190620002cf565b634e487b7160e01b855260228752602485fd5b98607f16986200016d565b634e487b7160e01b845260418652602484fd5b508387813d831162000378575b6200035681836200038f565b8101031262000374576200036e6200010f97620003c9565b620000c3565b8280fd5b503d6200034a565b86513d85823e3d90fd5b600080fd5b601f909101601f19168101906001600160401b03821190821017620003b357604052565b634e487b7160e01b600052604160045260246000fd5b51906001600160a01b03821682036200038a57565b9081519160005b838110620003f7575050016000815290565b8060208092840101518185015201620003e5565b6001600160401b038111620003b357601f01601f191660200190565b806000917a184f03e93ff9f4daa797ed6e38ed64bf6a1f0100000000000000008082101562000598575b506d04ee2d6d415b85acef81000000008083101562000588575b50662386f26fc100008083101562000578575b506305f5e1008083101562000568575b506127108083101562000558575b50606482101562000547575b600a809210156200053c575b60019081602181860195620004c9876200040b565b96620004d960405198896200038f565b808852620004ea601f19916200040b565b01366020890137860101905b62000503575b5050505090565b600019019083906f181899199a1a9b1b9c1cb0b131b232b360811b8282061a8353049182156200053657919082620004f6565b620004fc565b9160010191620004b4565b9190606460029104910191620004a8565b600491939204910191386200049c565b600891939204910191386200048e565b601091939204910191386200047e565b602091939204910191386200046b565b6040935081049150386200045156fe60806040818152600436101561001f575b5050361561001d57600080fd5b005b600091823560e01c908163010a38f5146104ab5750806305c1f5021461046357806317906c2e146104455780634e69d5601461041d57806354fd4d50146103235780635ad4e170146102f6578063729e2eb1146101e05780638c6838ba146101075780638da5cb5b146100e0578063d24e0c87146100c25763faeb5e170361001057346100be57816003193601126100be57602090600b549051908152f35b5080fd5b50346100be57816003193601126100be57602090600c549051908152f35b50346100be57816003193601126100be57905490516001600160a01b039091168152602090f35b5090346101dd57806003193601126101dd576101d98251610127816104ee565b83519261013384610520565b83526060906020938285820152828682015281528385519161015483610520565b61015c610d6e565b8352610166610d6e565b82840152865161017581610520565b84815284838201528488820152878401520152836101c6815194610198866104ee565b6101a061057a565b86526101aa610771565b9381870194855283519788978389525192880152860190610b3f565b915190601f198584030190850152610b8b565b0390f35b80fd5b50346100be57816003193601126100be578051908290600f5491600183811c908085169687156102ec575b60209586841089146102d857868899858a98999a5291826000146102b1575050600114610255575b5050506101d99291610246910385610558565b51928284938452830190610b1a565b9190869350600f83527f8d1108e10bcb7c27dddfc02ed9d693a074039d026cf4ea4240b40f7d581ac8025b82841061029957505050820101816102466101d9610233565b8054848a018601528895508794909301928101610280565b60ff19168782015293151560051b8601909301935084925061024691506101d99050610233565b634e487b7160e01b82526022600452602482fd5b91607f169161020b565b50346100be57816003193601126100be57602090610312610ca6565b90516001600160a01b039091168152f35b5090346101dd57806003193601126101dd575061035f7f0000000000000000000000000000000000000000000000000000000000000000610dbc565b6101d961038b7f0000000000000000000000000000000000000000000000000000000000000000610dbc565b9261024660226103ba7f0000000000000000000000000000000000000000000000000000000000000000610dbc565b95835196879187516103d48160209a8b8088019101610af7565b830190601760f91b91828a8201526103f5825180938c602185019101610af7565b0190602182015261040e825180938a8785019101610af7565b01036002810187520185610558565b50346100be57816003193601126100be5760209061044360ff6004541691518092610b7e565bf35b50346100be57816003193601126100be576020906013549051908152f35b5090346101dd57806003193601126101dd575061047e61057a565b906101d961048a610771565b61049d8351948486958652850190610b3f565b908382036020850152610b8b565b8390346100be57816003193601126100be578061044360209260ff600854165b9060038210156104d85752565b634e487b7160e01b600052602160045260246000fd5b6040810190811067ffffffffffffffff82111761050a57604052565b634e487b7160e01b600052604160045260246000fd5b6060810190811067ffffffffffffffff82111761050a57604052565b60c0810190811067ffffffffffffffff82111761050a57604052565b90601f8019910116810190811067ffffffffffffffff82111761050a57604052565b6040519061058782610520565b600180546001600160a01b03168352604051600254808316928592909180831c906000908615610767575b602096878410811461075357838552849291889082156107365750506001146106d8575b6105e292500382610558565b83830152604051926000916003549081811c9181811680156106ce575b84841081146106ba57838852879594939291811561069b5750600114610636575b50505060409291610632910384610558565b0152565b909493925060036000527fc2575a0e9e593c00f959f8c92f12db2869c3395a3b0502d05e2516446f71f85b946000915b818310610683575093945091925090820101816106326040610620565b86548884018501529586019587945091830191610666565b60ff1916848701525050151560051b8301019050816106326040610620565b634e487b7160e01b86526022600452602486fd5b92607f16926105ff565b5050600260005281857f405787fa12a823e0f2b7631cc41b3ba8828b3321ca811111fa75cd3aa3bb5ace856000915b85831061071d5750506105e293508201016105d6565b8091929450548385880101520191018690858593610707565b60ff1916848201526105e294151560051b84010191506105d69050565b634e487b7160e01b83526022600452602483fd5b91607f16916105b2565b604090815161077f81610520565b809280519161078d8361053c565b6004805460ff81166008811015610acd57855260081c60ff16936005851015610ae25760209485820152600554848201526006546060820152600754608082015260ff600854166003811015610acd5760a0820152825282516107ef8161053c565b6009546001600160a01b039081168252600a541685820152600b5484820152600c546060820152600d546080820152600e5460a08201528285015282519361083685610520565b8351600090600f5460019281841c918481168015610ac3575b8684108114610a2b5783855284929187908215610aa6575050600114610a48575b61087c92500382610558565b8652845160006010549081841c918481168015610a3e575b8684108114610a2b5783855284929187908215610a0e5750506001146109b0575b6108c192500382610558565b8287015284519260009160115480821c928282169081156109a6575b86851082146109935750838752869493929181156109735750600114610914575b505061090c92500382610558565b828401520152565b9093915060116000527f31ecc21a745e3968a04e9570e4425bc18fa8019c68028196b546d1669c200c68936000915b81831061095b57505061090c935082010138806108fe565b85548784018501529485019486945091830191610943565b91505061090c94925060ff191682840152151560051b82010138806108fe565b634e487b7160e01b865260229052602485fd5b93607f16936108dd565b5050601060005281847f1b6847dc741a1b0cd08d278845f9d819d87b734759afb55fe2de5cb82a9ae672856000915b8583106109f55750506108c193508201016108b5565b80919294505483858801015201910185908585936109df565b60ff1916848201526108c194151560051b84010191506108b59050565b634e487b7160e01b835260228852602483fd5b92607f1692610894565b5050600f60005281847f8d1108e10bcb7c27dddfc02ed9d693a074039d026cf4ea4240b40f7d581ac802856000915b858310610a8d57505061087c9350820101610870565b8091929450548385880101520191018590858593610a77565b60ff19168482015261087c94151560051b84010191506108709050565b92607f169261084f565b602183634e487b7160e01b6000525260246000fd5b602182634e487b7160e01b6000525260246000fd5b60005b838110610b0a5750506000910152565b8181015183820152602001610afa565b90602091610b3381518092818552858086019101610af7565b601f01601f1916010190565b610b7b9160018060a01b0382511681526040610b6a6020840151606060208501526060840190610b1a565b920151906040818403910152610b1a565b90565b9060088210156104d85752565b90815191610b9a828451610b7e565b60208301519060058210156104d857610be260a0610b7b95604094602087015284810151858701526060810151606087015260808101516080870152015160a08501906104cb565b60a06020820151600180831b038082511660c087015260208201511660e086015283810151610100860152606081015161012086015260808101516101408601520151610160840152015190610c4e6101a0806101808401526060845191840152610200830190610b1a565b906101e06040610c7260208601519461019f199586868303016101c0870152610b1a565b9401519282850301910152610b1a565b90816020910312610ca157516001600160a01b0381168103610ca15790565b600080fd5b60ff6008541660038110156104d85760018103610d2a575060155460405163f77800e560e01b815290602090829060049082906001600160a01b03165afa908115610d1e57600091610cf6575090565b610b7b915060203d8111610d17575b610d0f8183610558565b810190610c82565b503d610d05565b6040513d6000823e3d90fd5b600203610d6957601554604051635f117aa360e11b815290602090829060049082906001600160a01b03165afa908115610d1e57600091610cf6575090565b600090565b60405190610d7b8261053c565b8160a06000918281528260208201528260408201528260608201528260808201520152565b67ffffffffffffffff811161050a57601f01601f191660200190565b806000917a184f03e93ff9f4daa797ed6e38ed64bf6a1f01000000000000000080821015610f16575b506d04ee2d6d415b85acef810000000080831015610f07575b50662386f26fc1000080831015610ef8575b506305f5e10080831015610ee9575b5061271080831015610eda575b506064821015610eca575b600a80921015610ec0575b60019081602181860195610e5587610da0565b96610e636040519889610558565b808852610e72601f1991610da0565b01366020890137860101905b610e8a575b5050505090565b600019019083906f181899199a1a9b1b9c1cb0b131b232b360811b8282061a835304918215610ebb57919082610e7e565b610e83565b9160010191610e42565b9190606460029104910191610e37565b60049193920491019138610e2c565b60089193920491019138610e1f565b60109193920491019138610e10565b60209193920491019138610dfe565b604093508104915038610de556fea2646970667358221220cecb7a680656fc1f33f0ddd0516359eb9141e923738ba34b1f302ed44e433fb164736f6c63430008130033","opcodes":"PUSH1 0xE0 PUSH1 0x40 DUP2 DUP2 MSTORE CALLVALUE PUSH3 0x38A JUMPI PUSH1 0xA0 DUP3 PUSH3 0x1502 DUP1 CODESIZE SUB DUP1 SWAP2 PUSH3 0x24 DUP3 DUP6 PUSH3 0x38F JUMP JUMPDEST DUP4 CODECOPY DUP2 ADD SUB SLT PUSH3 0x38A JUMPI PUSH3 0x3A DUP3 PUSH3 0x3C9 JUMP JUMPDEST PUSH1 0x20 PUSH3 0x49 DUP2 DUP6 ADD PUSH3 0x3C9 JUMP JUMPDEST SWAP4 DUP4 DUP2 ADD MLOAD SWAP1 PUSH1 0x80 PUSH1 0x60 DUP3 ADD MLOAD SWAP2 ADD MLOAD SWAP2 PUSH1 0x80 MSTORE PUSH1 0xA0 MSTORE PUSH1 0xC0 MSTORE PUSH8 0x16345785D8A0000 PUSH1 0x12 SSTORE PUSH1 0x0 DUP1 PUSH1 0x13 SSTORE PUSH1 0x1 DUP1 PUSH1 0xA0 SHL SUB SWAP3 DUP4 PUSH1 0x1 DUP1 PUSH1 0xA0 SHL SUB NOT SWAP2 AND DUP2 PUSH1 0x14 SLOAD AND OR PUSH1 0x14 SSTORE CALLER DUP2 PUSH1 0x15 SLOAD AND OR PUSH1 0x15 SSTORE DUP4 DUP4 DUP7 MLOAD DUP1 SWAP9 PUSH4 0x3E21FA9 PUSH1 0xE6 SHL DUP3 MSTORE DUP2 PUSH1 0x4 SWAP9 DUP10 SWAP3 AND GAS STATICCALL DUP1 ISZERO PUSH3 0x380 JUMPI DUP4 SWAP1 PUSH3 0x33D JUMPI JUMPDEST PUSH3 0x10F SWAP8 POP AND SWAP1 PUSH1 0x16 SLOAD AND OR PUSH1 0x16 SSTORE PUSH3 0xE0 PUSH1 0x80 MLOAD PUSH3 0x427 JUMP JUMPDEST SWAP2 PUSH3 0xEE PUSH1 0xA0 MLOAD PUSH3 0x427 JUMP JUMPDEST SWAP3 PUSH3 0x134 PUSH3 0x100 PUSH1 0xC0 MLOAD PUSH3 0x427 JUMP JUMPDEST DUP8 MLOAD SWAP9 DUP10 SWAP4 DUP6 DUP6 ADD SWAP1 PUSH3 0x3DE JUMP JUMPDEST PUSH1 0x17 PUSH1 0xF9 SHL DUP1 DUP3 MSTORE PUSH3 0x129 PUSH1 0x1 SWAP9 DUP10 DUP1 SWAP5 ADD SWAP1 PUSH3 0x3DE JUMP JUMPDEST SWAP1 DUP2 MSTORE ADD SWAP1 PUSH3 0x3DE JUMP JUMPDEST SUB PUSH3 0x149 PUSH1 0x1F NOT SWAP2 DUP3 DUP2 ADD DUP10 MSTORE DUP9 PUSH3 0x38F JUMP JUMPDEST DUP7 MLOAD SWAP1 PUSH1 0x1 PUSH1 0x1 PUSH1 0x40 SHL SUB DUP3 GT PUSH3 0x32A JUMPI PUSH1 0x17 SLOAD SWAP8 DUP6 DUP10 DUP2 SHR SWAP10 AND DUP1 ISZERO PUSH3 0x31F JUMPI JUMPDEST DUP5 DUP11 LT EQ PUSH3 0x30C JUMPI DUP9 PUSH1 0x1F DUP10 SWAP11 SWAP10 SWAP8 SWAP9 SWAP10 GT PUSH3 0x2AE JUMPI JUMPDEST POP DUP4 SWAP2 PUSH1 0x1F DUP5 GT PUSH1 0x1 EQ PUSH3 0x240 JUMPI POP PUSH1 0x19 SWAP4 SWAP3 SWAP2 DUP6 SWAP2 DUP4 PUSH3 0x234 JUMPI JUMPDEST POP POP PUSH1 0x0 NOT PUSH1 0x3 DUP4 SWAP1 SHL SHR NOT AND SWAP1 DUP7 SHL OR PUSH1 0x17 SSTORE JUMPDEST PUSH1 0xFF NOT SWAP6 DUP7 DUP2 SLOAD AND DUP2 SSTORE DUP4 DUP1 MSTORE PUSH1 0x18 DUP3 MSTORE PUSH3 0x15180 DUP6 DUP6 KECCAK256 SSTORE DUP6 DUP5 MSTORE PUSH3 0x3F480 DUP6 DUP6 KECCAK256 SSTORE PUSH1 0x2 DUP5 MSTORE PUSH3 0x93A80 DUP6 DUP6 KECCAK256 SSTORE PUSH1 0x3 DUP5 MSTORE PUSH3 0x127500 DUP6 DUP6 KECCAK256 SSTORE DUP4 MSTORE PUSH3 0x278D00 DUP5 DUP5 KECCAK256 SSTORE DUP3 DUP1 MSTORE MSTORE KECCAK256 SWAP2 DUP3 SLOAD AND OR SWAP1 SSTORE MLOAD PUSH2 0xF5A SWAP1 DUP2 PUSH3 0x5A8 DUP3 CODECOPY PUSH1 0x80 MLOAD DUP2 PUSH2 0x33B ADD MSTORE PUSH1 0xA0 MLOAD DUP2 PUSH2 0x367 ADD MSTORE PUSH1 0xC0 MLOAD DUP2 PUSH2 0x396 ADD MSTORE RETURN JUMPDEST ADD MLOAD SWAP1 POP CODESIZE DUP1 PUSH3 0x1A4 JUMP JUMPDEST PUSH1 0x17 DUP7 MSTORE DUP5 DUP7 KECCAK256 SWAP1 DUP5 AND SWAP7 SWAP6 SWAP5 SWAP4 DUP9 SWAP4 SWAP1 SWAP3 DUP7 JUMPDEST DUP10 DUP2 LT PUSH3 0x293 JUMPI POP DUP4 PUSH1 0x19 SWAP8 SWAP9 SWAP10 LT PUSH3 0x279 JUMPI JUMPDEST POP POP POP DUP2 SHL ADD PUSH1 0x17 SSTORE PUSH3 0x1B9 JUMP JUMPDEST ADD MLOAD PUSH1 0x0 NOT PUSH1 0xF8 DUP5 PUSH1 0x3 SHL AND SHR NOT AND SWAP1 SSTORE CODESIZE DUP1 DUP1 PUSH3 0x26A JUMP JUMPDEST DUP2 DUP4 ADD MLOAD DUP5 SSTORE DUP13 SWAP9 POP DUP11 SWAP6 SWAP1 SWAP4 ADD SWAP3 SWAP2 DUP7 ADD SWAP2 DUP7 ADD PUSH3 0x254 JUMP JUMPDEST SWAP1 SWAP2 SWAP3 SWAP4 SWAP5 SWAP6 POP PUSH1 0x17 DUP7 MSTORE DUP5 DUP7 KECCAK256 PUSH1 0x1F DUP6 ADD PUSH1 0x5 SHR DUP2 ADD SWAP2 DUP7 DUP7 LT PUSH3 0x301 JUMPI JUMPDEST DUP11 SWAP8 SWAP7 SWAP6 SWAP5 SWAP4 SWAP3 SWAP2 PUSH1 0x1F DUP11 SWAP3 ADD PUSH1 0x5 SHR ADD SWAP2 JUMPDEST DUP3 DUP2 LT PUSH3 0x2F2 JUMPI POP POP PUSH3 0x186 JUMP JUMPDEST DUP8 DUP2 SSTORE DUP12 SWAP9 POP DUP10 SWAP2 ADD PUSH3 0x2E2 JUMP JUMPDEST SWAP1 SWAP2 POP DUP2 SWAP1 PUSH3 0x2CF JUMP JUMPDEST PUSH4 0x4E487B71 PUSH1 0xE0 SHL DUP6 MSTORE PUSH1 0x22 DUP8 MSTORE PUSH1 0x24 DUP6 REVERT JUMPDEST SWAP9 PUSH1 0x7F AND SWAP9 PUSH3 0x16D JUMP JUMPDEST PUSH4 0x4E487B71 PUSH1 0xE0 SHL DUP5 MSTORE PUSH1 0x41 DUP7 MSTORE PUSH1 0x24 DUP5 REVERT JUMPDEST POP DUP4 DUP8 DUP2 RETURNDATASIZE DUP4 GT PUSH3 0x378 JUMPI JUMPDEST PUSH3 0x356 DUP2 DUP4 PUSH3 0x38F JUMP JUMPDEST DUP2 ADD SUB SLT PUSH3 0x374 JUMPI PUSH3 0x36E PUSH3 0x10F SWAP8 PUSH3 0x3C9 JUMP JUMPDEST PUSH3 0xC3 JUMP JUMPDEST DUP3 DUP1 REVERT JUMPDEST POP RETURNDATASIZE PUSH3 0x34A JUMP JUMPDEST DUP7 MLOAD RETURNDATASIZE DUP6 DUP3 RETURNDATACOPY RETURNDATASIZE SWAP1 REVERT JUMPDEST PUSH1 0x0 DUP1 REVERT JUMPDEST PUSH1 0x1F SWAP1 SWAP2 ADD PUSH1 0x1F NOT AND DUP2 ADD SWAP1 PUSH1 0x1 PUSH1 0x1 PUSH1 0x40 SHL SUB DUP3 GT SWAP1 DUP3 LT OR PUSH3 0x3B3 JUMPI PUSH1 0x40 MSTORE JUMP JUMPDEST PUSH4 0x4E487B71 PUSH1 0xE0 SHL PUSH1 0x0 MSTORE PUSH1 0x41 PUSH1 0x4 MSTORE PUSH1 0x24 PUSH1 0x0 REVERT JUMPDEST MLOAD SWAP1 PUSH1 0x1 PUSH1 0x1 PUSH1 0xA0 SHL SUB DUP3 AND DUP3 SUB PUSH3 0x38A JUMPI JUMP JUMPDEST SWAP1 DUP2 MLOAD SWAP2 PUSH1 0x0 JUMPDEST DUP4 DUP2 LT PUSH3 0x3F7 JUMPI POP POP ADD PUSH1 0x0 DUP2 MSTORE SWAP1 JUMP JUMPDEST DUP1 PUSH1 0x20 DUP1 SWAP3 DUP5 ADD ADD MLOAD DUP2 DUP6 ADD MSTORE ADD PUSH3 0x3E5 JUMP JUMPDEST PUSH1 0x1 PUSH1 0x1 PUSH1 0x40 SHL SUB DUP2 GT PUSH3 0x3B3 JUMPI PUSH1 0x1F ADD PUSH1 0x1F NOT AND PUSH1 0x20 ADD SWAP1 JUMP JUMPDEST DUP1 PUSH1 0x0 SWAP2 PUSH27 0x184F03E93FF9F4DAA797ED6E38ED64BF6A1F010000000000000000 DUP1 DUP3 LT ISZERO PUSH3 0x598 JUMPI JUMPDEST POP PUSH14 0x4EE2D6D415B85ACEF8100000000 DUP1 DUP4 LT ISZERO PUSH3 0x588 JUMPI JUMPDEST POP PUSH7 0x2386F26FC10000 DUP1 DUP4 LT ISZERO PUSH3 0x578 JUMPI JUMPDEST POP PUSH4 0x5F5E100 DUP1 DUP4 LT ISZERO PUSH3 0x568 JUMPI JUMPDEST POP PUSH2 0x2710 DUP1 DUP4 LT ISZERO PUSH3 0x558 JUMPI JUMPDEST POP PUSH1 0x64 DUP3 LT ISZERO PUSH3 0x547 JUMPI JUMPDEST PUSH1 0xA DUP1 SWAP3 LT ISZERO PUSH3 0x53C JUMPI JUMPDEST PUSH1 0x1 SWAP1 DUP2 PUSH1 0x21 DUP2 DUP7 ADD SWAP6 PUSH3 0x4C9 DUP8 PUSH3 0x40B JUMP JUMPDEST SWAP7 PUSH3 0x4D9 PUSH1 0x40 MLOAD SWAP9 DUP10 PUSH3 0x38F JUMP JUMPDEST DUP1 DUP9 MSTORE PUSH3 0x4EA PUSH1 0x1F NOT SWAP2 PUSH3 0x40B JUMP JUMPDEST ADD CALLDATASIZE PUSH1 0x20 DUP10 ADD CALLDATACOPY DUP7 ADD ADD SWAP1 JUMPDEST PUSH3 0x503 JUMPI JUMPDEST POP POP POP POP SWAP1 JUMP JUMPDEST PUSH1 0x0 NOT ADD SWAP1 DUP4 SWAP1 PUSH16 0x181899199A1A9B1B9C1CB0B131B232B3 PUSH1 0x81 SHL DUP3 DUP3 MOD BYTE DUP4 MSTORE8 DIV SWAP2 DUP3 ISZERO PUSH3 0x536 JUMPI SWAP2 SWAP1 DUP3 PUSH3 0x4F6 JUMP JUMPDEST PUSH3 0x4FC JUMP JUMPDEST SWAP2 PUSH1 0x1 ADD SWAP2 PUSH3 0x4B4 JUMP JUMPDEST SWAP2 SWAP1 PUSH1 0x64 PUSH1 0x2 SWAP2 DIV SWAP2 ADD SWAP2 PUSH3 0x4A8 JUMP JUMPDEST PUSH1 0x4 SWAP2 SWAP4 SWAP3 DIV SWAP2 ADD SWAP2 CODESIZE PUSH3 0x49C JUMP JUMPDEST PUSH1 0x8 SWAP2 SWAP4 SWAP3 DIV SWAP2 ADD SWAP2 CODESIZE PUSH3 0x48E JUMP JUMPDEST PUSH1 0x10 SWAP2 SWAP4 SWAP3 DIV SWAP2 ADD SWAP2 CODESIZE PUSH3 0x47E JUMP JUMPDEST PUSH1 0x20 SWAP2 SWAP4 SWAP3 DIV SWAP2 ADD SWAP2 CODESIZE PUSH3 0x46B JUMP JUMPDEST PUSH1 0x40 SWAP4 POP DUP2 DIV SWAP2 POP CODESIZE PUSH3 0x451 JUMP INVALID PUSH1 0x80 PUSH1 0x40 DUP2 DUP2 MSTORE PUSH1 0x4 CALLDATASIZE LT ISZERO PUSH2 0x1F JUMPI JUMPDEST POP POP CALLDATASIZE ISZERO PUSH2 0x1D JUMPI PUSH1 0x0 DUP1 REVERT JUMPDEST STOP JUMPDEST PUSH1 0x0 SWAP2 DUP3 CALLDATALOAD PUSH1 0xE0 SHR SWAP1 DUP2 PUSH4 0x10A38F5 EQ PUSH2 0x4AB JUMPI POP DUP1 PUSH4 0x5C1F502 EQ PUSH2 0x463 JUMPI DUP1 PUSH4 0x17906C2E EQ PUSH2 0x445 JUMPI DUP1 PUSH4 0x4E69D560 EQ PUSH2 0x41D JUMPI DUP1 PUSH4 0x54FD4D50 EQ PUSH2 0x323 JUMPI DUP1 PUSH4 0x5AD4E170 EQ PUSH2 0x2F6 JUMPI DUP1 PUSH4 0x729E2EB1 EQ PUSH2 0x1E0 JUMPI DUP1 PUSH4 0x8C6838BA EQ PUSH2 0x107 JUMPI DUP1 PUSH4 0x8DA5CB5B EQ PUSH2 0xE0 JUMPI DUP1 PUSH4 0xD24E0C87 EQ PUSH2 0xC2 JUMPI PUSH4 0xFAEB5E17 SUB PUSH2 0x10 JUMPI CALLVALUE PUSH2 0xBE JUMPI DUP2 PUSH1 0x3 NOT CALLDATASIZE ADD SLT PUSH2 0xBE JUMPI PUSH1 0x20 SWAP1 PUSH1 0xB SLOAD SWAP1 MLOAD SWAP1 DUP2 MSTORE RETURN JUMPDEST POP DUP1 REVERT JUMPDEST POP CALLVALUE PUSH2 0xBE JUMPI DUP2 PUSH1 0x3 NOT CALLDATASIZE ADD SLT PUSH2 0xBE JUMPI PUSH1 0x20 SWAP1 PUSH1 0xC SLOAD SWAP1 MLOAD SWAP1 DUP2 MSTORE RETURN JUMPDEST POP CALLVALUE PUSH2 0xBE JUMPI DUP2 PUSH1 0x3 NOT CALLDATASIZE ADD SLT PUSH2 0xBE JUMPI SWAP1 SLOAD SWAP1 MLOAD PUSH1 0x1 PUSH1 0x1 PUSH1 0xA0 SHL SUB SWAP1 SWAP2 AND DUP2 MSTORE PUSH1 0x20 SWAP1 RETURN JUMPDEST POP SWAP1 CALLVALUE PUSH2 0x1DD JUMPI DUP1 PUSH1 0x3 NOT CALLDATASIZE ADD SLT PUSH2 0x1DD JUMPI PUSH2 0x1D9 DUP3 MLOAD PUSH2 0x127 DUP2 PUSH2 0x4EE JUMP JUMPDEST DUP4 MLOAD SWAP3 PUSH2 0x133 DUP5 PUSH2 0x520 JUMP JUMPDEST DUP4 MSTORE PUSH1 0x60 SWAP1 PUSH1 0x20 SWAP4 DUP3 DUP6 DUP3 ADD MSTORE DUP3 DUP7 DUP3 ADD MSTORE DUP2 MSTORE DUP4 DUP6 MLOAD SWAP2 PUSH2 0x154 DUP4 PUSH2 0x520 JUMP JUMPDEST PUSH2 0x15C PUSH2 0xD6E JUMP JUMPDEST DUP4 MSTORE PUSH2 0x166 PUSH2 0xD6E JUMP JUMPDEST DUP3 DUP5 ADD MSTORE DUP7 MLOAD PUSH2 0x175 DUP2 PUSH2 0x520 JUMP JUMPDEST DUP5 DUP2 MSTORE DUP5 DUP4 DUP3 ADD MSTORE DUP5 DUP9 DUP3 ADD MSTORE DUP8 DUP5 ADD MSTORE ADD MSTORE DUP4 PUSH2 0x1C6 DUP2 MLOAD SWAP5 PUSH2 0x198 DUP7 PUSH2 0x4EE JUMP JUMPDEST PUSH2 0x1A0 PUSH2 0x57A JUMP JUMPDEST DUP7 MSTORE PUSH2 0x1AA PUSH2 0x771 JUMP JUMPDEST SWAP4 DUP2 DUP8 ADD SWAP5 DUP6 MSTORE DUP4 MLOAD SWAP8 DUP9 SWAP8 DUP4 DUP10 MSTORE MLOAD SWAP3 DUP9 ADD MSTORE DUP7 ADD SWAP1 PUSH2 0xB3F JUMP JUMPDEST SWAP2 MLOAD SWAP1 PUSH1 0x1F NOT DUP6 DUP5 SUB ADD SWAP1 DUP6 ADD MSTORE PUSH2 0xB8B JUMP JUMPDEST SUB SWAP1 RETURN JUMPDEST DUP1 REVERT JUMPDEST POP CALLVALUE PUSH2 0xBE JUMPI DUP2 PUSH1 0x3 NOT CALLDATASIZE ADD SLT PUSH2 0xBE JUMPI DUP1 MLOAD SWAP1 DUP3 SWAP1 PUSH1 0xF SLOAD SWAP2 PUSH1 0x1 DUP4 DUP2 SHR SWAP1 DUP1 DUP6 AND SWAP7 DUP8 ISZERO PUSH2 0x2EC JUMPI JUMPDEST PUSH1 0x20 SWAP6 DUP7 DUP5 LT DUP10 EQ PUSH2 0x2D8 JUMPI DUP7 DUP9 SWAP10 DUP6 DUP11 SWAP9 SWAP10 SWAP11 MSTORE SWAP2 DUP3 PUSH1 0x0 EQ PUSH2 0x2B1 JUMPI POP POP PUSH1 0x1 EQ PUSH2 0x255 JUMPI JUMPDEST POP POP POP PUSH2 0x1D9 SWAP3 SWAP2 PUSH2 0x246 SWAP2 SUB DUP6 PUSH2 0x558 JUMP JUMPDEST MLOAD SWAP3 DUP3 DUP5 SWAP4 DUP5 MSTORE DUP4 ADD SWAP1 PUSH2 0xB1A JUMP JUMPDEST SWAP2 SWAP1 DUP7 SWAP4 POP PUSH1 0xF DUP4 MSTORE PUSH32 0x8D1108E10BCB7C27DDDFC02ED9D693A074039D026CF4EA4240B40F7D581AC802 JUMPDEST DUP3 DUP5 LT PUSH2 0x299 JUMPI POP POP POP DUP3 ADD ADD DUP2 PUSH2 0x246 PUSH2 0x1D9 PUSH2 0x233 JUMP JUMPDEST DUP1 SLOAD DUP5 DUP11 ADD DUP7 ADD MSTORE DUP9 SWAP6 POP DUP8 SWAP5 SWAP1 SWAP4 ADD SWAP3 DUP2 ADD PUSH2 0x280 JUMP JUMPDEST PUSH1 0xFF NOT AND DUP8 DUP3 ADD MSTORE SWAP4 ISZERO ISZERO PUSH1 0x5 SHL DUP7 ADD SWAP1 SWAP4 ADD SWAP4 POP DUP5 SWAP3 POP PUSH2 0x246 SWAP2 POP PUSH2 0x1D9 SWAP1 POP PUSH2 0x233 JUMP JUMPDEST PUSH4 0x4E487B71 PUSH1 0xE0 SHL DUP3 MSTORE PUSH1 0x22 PUSH1 0x4 MSTORE PUSH1 0x24 DUP3 REVERT JUMPDEST SWAP2 PUSH1 0x7F AND SWAP2 PUSH2 0x20B JUMP JUMPDEST POP CALLVALUE PUSH2 0xBE JUMPI DUP2 PUSH1 0x3 NOT CALLDATASIZE ADD SLT PUSH2 0xBE JUMPI PUSH1 0x20 SWAP1 PUSH2 0x312 PUSH2 0xCA6 JUMP JUMPDEST SWAP1 MLOAD PUSH1 0x1 PUSH1 0x1 PUSH1 0xA0 SHL SUB SWAP1 SWAP2 AND DUP2 MSTORE RETURN JUMPDEST POP SWAP1 CALLVALUE PUSH2 0x1DD JUMPI DUP1 PUSH1 0x3 NOT CALLDATASIZE ADD SLT PUSH2 0x1DD JUMPI POP PUSH2 0x35F PUSH32 0x0 PUSH2 0xDBC JUMP JUMPDEST PUSH2 0x1D9 PUSH2 0x38B PUSH32 0x0 PUSH2 0xDBC JUMP JUMPDEST SWAP3 PUSH2 0x246 PUSH1 0x22 PUSH2 0x3BA PUSH32 0x0 PUSH2 0xDBC JUMP JUMPDEST SWAP6 DUP4 MLOAD SWAP7 DUP8 SWAP2 DUP8 MLOAD PUSH2 0x3D4 DUP2 PUSH1 0x20 SWAP11 DUP12 DUP1 DUP9 ADD SWAP2 ADD PUSH2 0xAF7 JUMP JUMPDEST DUP4 ADD SWAP1 PUSH1 0x17 PUSH1 0xF9 SHL SWAP2 DUP3 DUP11 DUP3 ADD MSTORE PUSH2 0x3F5 DUP3 MLOAD DUP1 SWAP4 DUP13 PUSH1 0x21 DUP6 ADD SWAP2 ADD PUSH2 0xAF7 JUMP JUMPDEST ADD SWAP1 PUSH1 0x21 DUP3 ADD MSTORE PUSH2 0x40E DUP3 MLOAD DUP1 SWAP4 DUP11 DUP8 DUP6 ADD SWAP2 ADD PUSH2 0xAF7 JUMP JUMPDEST ADD SUB PUSH1 0x2 DUP2 ADD DUP8 MSTORE ADD DUP6 PUSH2 0x558 JUMP JUMPDEST POP CALLVALUE PUSH2 0xBE JUMPI DUP2 PUSH1 0x3 NOT CALLDATASIZE ADD SLT PUSH2 0xBE JUMPI PUSH1 0x20 SWAP1 PUSH2 0x443 PUSH1 0xFF PUSH1 0x4 SLOAD AND SWAP2 MLOAD DUP1 SWAP3 PUSH2 0xB7E JUMP JUMPDEST RETURN JUMPDEST POP CALLVALUE PUSH2 0xBE JUMPI DUP2 PUSH1 0x3 NOT CALLDATASIZE ADD SLT PUSH2 0xBE JUMPI PUSH1 0x20 SWAP1 PUSH1 0x13 SLOAD SWAP1 MLOAD SWAP1 DUP2 MSTORE RETURN JUMPDEST POP SWAP1 CALLVALUE PUSH2 0x1DD JUMPI DUP1 PUSH1 0x3 NOT CALLDATASIZE ADD SLT PUSH2 0x1DD JUMPI POP PUSH2 0x47E PUSH2 0x57A JUMP JUMPDEST SWAP1 PUSH2 0x1D9 PUSH2 0x48A PUSH2 0x771 JUMP JUMPDEST PUSH2 0x49D DUP4 MLOAD SWAP5 DUP5 DUP7 SWAP6 DUP7 MSTORE DUP6 ADD SWAP1 PUSH2 0xB3F JUMP JUMPDEST SWAP1 DUP4 DUP3 SUB PUSH1 0x20 DUP6 ADD MSTORE PUSH2 0xB8B JUMP JUMPDEST DUP4 SWAP1 CALLVALUE PUSH2 0xBE JUMPI DUP2 PUSH1 0x3 NOT CALLDATASIZE ADD SLT PUSH2 0xBE JUMPI DUP1 PUSH2 0x443 PUSH1 0x20 SWAP3 PUSH1 0xFF PUSH1 0x8 SLOAD AND JUMPDEST SWAP1 PUSH1 0x3 DUP3 LT ISZERO PUSH2 0x4D8 JUMPI MSTORE JUMP JUMPDEST PUSH4 0x4E487B71 PUSH1 0xE0 SHL PUSH1 0x0 MSTORE PUSH1 0x21 PUSH1 0x4 MSTORE PUSH1 0x24 PUSH1 0x0 REVERT JUMPDEST PUSH1 0x40 DUP2 ADD SWAP1 DUP2 LT PUSH8 0xFFFFFFFFFFFFFFFF DUP3 GT OR PUSH2 0x50A JUMPI PUSH1 0x40 MSTORE JUMP JUMPDEST PUSH4 0x4E487B71 PUSH1 0xE0 SHL PUSH1 0x0 MSTORE PUSH1 0x41 PUSH1 0x4 MSTORE PUSH1 0x24 PUSH1 0x0 REVERT JUMPDEST PUSH1 0x60 DUP2 ADD SWAP1 DUP2 LT PUSH8 0xFFFFFFFFFFFFFFFF DUP3 GT OR PUSH2 0x50A JUMPI PUSH1 0x40 MSTORE JUMP JUMPDEST PUSH1 0xC0 DUP2 ADD SWAP1 DUP2 LT PUSH8 0xFFFFFFFFFFFFFFFF DUP3 GT OR PUSH2 0x50A JUMPI PUSH1 0x40 MSTORE JUMP JUMPDEST SWAP1 PUSH1 0x1F DUP1 NOT SWAP2 ADD AND DUP2 ADD SWAP1 DUP2 LT PUSH8 0xFFFFFFFFFFFFFFFF DUP3 GT OR PUSH2 0x50A JUMPI PUSH1 0x40 MSTORE JUMP JUMPDEST PUSH1 0x40 MLOAD SWAP1 PUSH2 0x587 DUP3 PUSH2 0x520 JUMP JUMPDEST PUSH1 0x1 DUP1 SLOAD PUSH1 0x1 PUSH1 0x1 PUSH1 0xA0 SHL SUB AND DUP4 MSTORE PUSH1 0x40 MLOAD PUSH1 0x2 SLOAD DUP1 DUP4 AND SWAP3 DUP6 SWAP3 SWAP1 SWAP2 DUP1 DUP4 SHR SWAP1 PUSH1 0x0 SWAP1 DUP7 ISZERO PUSH2 0x767 JUMPI JUMPDEST PUSH1 0x20 SWAP7 DUP8 DUP5 LT DUP2 EQ PUSH2 0x753 JUMPI DUP4 DUP6 MSTORE DUP5 SWAP3 SWAP2 DUP9 SWAP1 DUP3 ISZERO PUSH2 0x736 JUMPI POP POP PUSH1 0x1 EQ PUSH2 0x6D8 JUMPI JUMPDEST PUSH2 0x5E2 SWAP3 POP SUB DUP3 PUSH2 0x558 JUMP JUMPDEST DUP4 DUP4 ADD MSTORE PUSH1 0x40 MLOAD SWAP3 PUSH1 0x0 SWAP2 PUSH1 0x3 SLOAD SWAP1 DUP2 DUP2 SHR SWAP2 DUP2 DUP2 AND DUP1 ISZERO PUSH2 0x6CE JUMPI JUMPDEST DUP5 DUP5 LT DUP2 EQ PUSH2 0x6BA JUMPI DUP4 DUP9 MSTORE DUP8 SWAP6 SWAP5 SWAP4 SWAP3 SWAP2 DUP2 ISZERO PUSH2 0x69B JUMPI POP PUSH1 0x1 EQ PUSH2 0x636 JUMPI JUMPDEST POP POP POP PUSH1 0x40 SWAP3 SWAP2 PUSH2 0x632 SWAP2 SUB DUP5 PUSH2 0x558 JUMP JUMPDEST ADD MSTORE JUMP JUMPDEST SWAP1 SWAP5 SWAP4 SWAP3 POP PUSH1 0x3 PUSH1 0x0 MSTORE PUSH32 0xC2575A0E9E593C00F959F8C92F12DB2869C3395A3B0502D05E2516446F71F85B SWAP5 PUSH1 0x0 SWAP2 JUMPDEST DUP2 DUP4 LT PUSH2 0x683 JUMPI POP SWAP4 SWAP5 POP SWAP2 SWAP3 POP SWAP1 DUP3 ADD ADD DUP2 PUSH2 0x632 PUSH1 0x40 PUSH2 0x620 JUMP JUMPDEST DUP7 SLOAD DUP9 DUP5 ADD DUP6 ADD MSTORE SWAP6 DUP7 ADD SWAP6 DUP8 SWAP5 POP SWAP2 DUP4 ADD SWAP2 PUSH2 0x666 JUMP JUMPDEST PUSH1 0xFF NOT AND DUP5 DUP8 ADD MSTORE POP POP ISZERO ISZERO PUSH1 0x5 SHL DUP4 ADD ADD SWAP1 POP DUP2 PUSH2 0x632 PUSH1 0x40 PUSH2 0x620 JUMP JUMPDEST PUSH4 0x4E487B71 PUSH1 0xE0 SHL DUP7 MSTORE PUSH1 0x22 PUSH1 0x4 MSTORE PUSH1 0x24 DUP7 REVERT JUMPDEST SWAP3 PUSH1 0x7F AND SWAP3 PUSH2 0x5FF JUMP JUMPDEST POP POP PUSH1 0x2 PUSH1 0x0 MSTORE DUP2 DUP6 PUSH32 0x405787FA12A823E0F2B7631CC41B3BA8828B3321CA811111FA75CD3AA3BB5ACE DUP6 PUSH1 0x0 SWAP2 JUMPDEST DUP6 DUP4 LT PUSH2 0x71D JUMPI POP POP PUSH2 0x5E2 SWAP4 POP DUP3 ADD ADD PUSH2 0x5D6 JUMP JUMPDEST DUP1 SWAP2 SWAP3 SWAP5 POP SLOAD DUP4 DUP6 DUP9 ADD ADD MSTORE ADD SWAP2 ADD DUP7 SWAP1 DUP6 DUP6 SWAP4 PUSH2 0x707 JUMP JUMPDEST PUSH1 0xFF NOT AND DUP5 DUP3 ADD MSTORE PUSH2 0x5E2 SWAP5 ISZERO ISZERO PUSH1 0x5 SHL DUP5 ADD ADD SWAP2 POP PUSH2 0x5D6 SWAP1 POP JUMP JUMPDEST PUSH4 0x4E487B71 PUSH1 0xE0 SHL DUP4 MSTORE PUSH1 0x22 PUSH1 0x4 MSTORE PUSH1 0x24 DUP4 REVERT JUMPDEST SWAP2 PUSH1 0x7F AND SWAP2 PUSH2 0x5B2 JUMP JUMPDEST PUSH1 0x40 SWAP1 DUP2 MLOAD PUSH2 0x77F DUP2 PUSH2 0x520 JUMP JUMPDEST DUP1 SWAP3 DUP1 MLOAD SWAP2 PUSH2 0x78D DUP4 PUSH2 0x53C JUMP JUMPDEST PUSH1 0x4 DUP1 SLOAD PUSH1 0xFF DUP2 AND PUSH1 0x8 DUP2 LT ISZERO PUSH2 0xACD JUMPI DUP6 MSTORE PUSH1 0x8 SHR PUSH1 0xFF AND SWAP4 PUSH1 0x5 DUP6 LT ISZERO PUSH2 0xAE2 JUMPI PUSH1 0x20 SWAP5 DUP6 DUP3 ADD MSTORE PUSH1 0x5 SLOAD DUP5 DUP3 ADD MSTORE PUSH1 0x6 SLOAD PUSH1 0x60 DUP3 ADD MSTORE PUSH1 0x7 SLOAD PUSH1 0x80 DUP3 ADD MSTORE PUSH1 0xFF PUSH1 0x8 SLOAD AND PUSH1 0x3 DUP2 LT ISZERO PUSH2 0xACD JUMPI PUSH1 0xA0 DUP3 ADD MSTORE DUP3 MSTORE DUP3 MLOAD PUSH2 0x7EF DUP2 PUSH2 0x53C JUMP JUMPDEST PUSH1 0x9 SLOAD PUSH1 0x1 PUSH1 0x1 PUSH1 0xA0 SHL SUB SWAP1 DUP2 AND DUP3 MSTORE PUSH1 0xA SLOAD AND DUP6 DUP3 ADD MSTORE PUSH1 0xB SLOAD DUP5 DUP3 ADD MSTORE PUSH1 0xC SLOAD PUSH1 0x60 DUP3 ADD MSTORE PUSH1 0xD SLOAD PUSH1 0x80 DUP3 ADD MSTORE PUSH1 0xE SLOAD PUSH1 0xA0 DUP3 ADD MSTORE DUP3 DUP6 ADD MSTORE DUP3 MLOAD SWAP4 PUSH2 0x836 DUP6 PUSH2 0x520 JUMP JUMPDEST DUP4 MLOAD PUSH1 0x0 SWAP1 PUSH1 0xF SLOAD PUSH1 0x1 SWAP3 DUP2 DUP5 SHR SWAP2 DUP5 DUP2 AND DUP1 ISZERO PUSH2 0xAC3 JUMPI JUMPDEST DUP7 DUP5 LT DUP2 EQ PUSH2 0xA2B JUMPI DUP4 DUP6 MSTORE DUP5 SWAP3 SWAP2 DUP8 SWAP1 DUP3 ISZERO PUSH2 0xAA6 JUMPI POP POP PUSH1 0x1 EQ PUSH2 0xA48 JUMPI JUMPDEST PUSH2 0x87C SWAP3 POP SUB DUP3 PUSH2 0x558 JUMP JUMPDEST DUP7 MSTORE DUP5 MLOAD PUSH1 0x0 PUSH1 0x10 SLOAD SWAP1 DUP2 DUP5 SHR SWAP2 DUP5 DUP2 AND DUP1 ISZERO PUSH2 0xA3E JUMPI JUMPDEST DUP7 DUP5 LT DUP2 EQ PUSH2 0xA2B JUMPI DUP4 DUP6 MSTORE DUP5 SWAP3 SWAP2 DUP8 SWAP1 DUP3 ISZERO PUSH2 0xA0E JUMPI POP POP PUSH1 0x1 EQ PUSH2 0x9B0 JUMPI JUMPDEST PUSH2 0x8C1 SWAP3 POP SUB DUP3 PUSH2 0x558 JUMP JUMPDEST DUP3 DUP8 ADD MSTORE DUP5 MLOAD SWAP3 PUSH1 0x0 SWAP2 PUSH1 0x11 SLOAD DUP1 DUP3 SHR SWAP3 DUP3 DUP3 AND SWAP1 DUP2 ISZERO PUSH2 0x9A6 JUMPI JUMPDEST DUP7 DUP6 LT DUP3 EQ PUSH2 0x993 JUMPI POP DUP4 DUP8 MSTORE DUP7 SWAP5 SWAP4 SWAP3 SWAP2 DUP2 ISZERO PUSH2 0x973 JUMPI POP PUSH1 0x1 EQ PUSH2 0x914 JUMPI JUMPDEST POP POP PUSH2 0x90C SWAP3 POP SUB DUP3 PUSH2 0x558 JUMP JUMPDEST DUP3 DUP5 ADD MSTORE ADD MSTORE JUMP JUMPDEST SWAP1 SWAP4 SWAP2 POP PUSH1 0x11 PUSH1 0x0 MSTORE PUSH32 0x31ECC21A745E3968A04E9570E4425BC18FA8019C68028196B546D1669C200C68 SWAP4 PUSH1 0x0 SWAP2 JUMPDEST DUP2 DUP4 LT PUSH2 0x95B JUMPI POP POP PUSH2 0x90C SWAP4 POP DUP3 ADD ADD CODESIZE DUP1 PUSH2 0x8FE JUMP JUMPDEST DUP6 SLOAD DUP8 DUP5 ADD DUP6 ADD MSTORE SWAP5 DUP6 ADD SWAP5 DUP7 SWAP5 POP SWAP2 DUP4 ADD SWAP2 PUSH2 0x943 JUMP JUMPDEST SWAP2 POP POP PUSH2 0x90C SWAP5 SWAP3 POP PUSH1 0xFF NOT AND DUP3 DUP5 ADD MSTORE ISZERO ISZERO PUSH1 0x5 SHL DUP3 ADD ADD CODESIZE DUP1 PUSH2 0x8FE JUMP JUMPDEST PUSH4 0x4E487B71 PUSH1 0xE0 SHL DUP7 MSTORE PUSH1 0x22 SWAP1 MSTORE PUSH1 0x24 DUP6 REVERT JUMPDEST SWAP4 PUSH1 0x7F AND SWAP4 PUSH2 0x8DD JUMP JUMPDEST POP POP PUSH1 0x10 PUSH1 0x0 MSTORE DUP2 DUP5 PUSH32 0x1B6847DC741A1B0CD08D278845F9D819D87B734759AFB55FE2DE5CB82A9AE672 DUP6 PUSH1 0x0 SWAP2 JUMPDEST DUP6 DUP4 LT PUSH2 0x9F5 JUMPI POP POP PUSH2 0x8C1 SWAP4 POP DUP3 ADD ADD PUSH2 0x8B5 JUMP JUMPDEST DUP1 SWAP2 SWAP3 SWAP5 POP SLOAD DUP4 DUP6 DUP9 ADD ADD MSTORE ADD SWAP2 ADD DUP6 SWAP1 DUP6 DUP6 SWAP4 PUSH2 0x9DF JUMP JUMPDEST PUSH1 0xFF NOT AND DUP5 DUP3 ADD MSTORE PUSH2 0x8C1 SWAP5 ISZERO ISZERO PUSH1 0x5 SHL DUP5 ADD ADD SWAP2 POP PUSH2 0x8B5 SWAP1 POP JUMP JUMPDEST PUSH4 0x4E487B71 PUSH1 0xE0 SHL DUP4 MSTORE PUSH1 0x22 DUP9 MSTORE PUSH1 0x24 DUP4 REVERT JUMPDEST SWAP3 PUSH1 0x7F AND SWAP3 PUSH2 0x894 JUMP JUMPDEST POP POP PUSH1 0xF PUSH1 0x0 MSTORE DUP2 DUP5 PUSH32 0x8D1108E10BCB7C27DDDFC02ED9D693A074039D026CF4EA4240B40F7D581AC802 DUP6 PUSH1 0x0 SWAP2 JUMPDEST DUP6 DUP4 LT PUSH2 0xA8D JUMPI POP POP PUSH2 0x87C SWAP4 POP DUP3 ADD ADD PUSH2 0x870 JUMP JUMPDEST DUP1 SWAP2 SWAP3 SWAP5 POP SLOAD DUP4 DUP6 DUP9 ADD ADD MSTORE ADD SWAP2 ADD DUP6 SWAP1 DUP6 DUP6 SWAP4 PUSH2 0xA77 JUMP JUMPDEST PUSH1 0xFF NOT AND DUP5 DUP3 ADD MSTORE PUSH2 0x87C SWAP5 ISZERO ISZERO PUSH1 0x5 SHL DUP5 ADD ADD SWAP2 POP PUSH2 0x870 SWAP1 POP JUMP JUMPDEST SWAP3 PUSH1 0x7F AND SWAP3 PUSH2 0x84F JUMP JUMPDEST PUSH1 0x21 DUP4 PUSH4 0x4E487B71 PUSH1 0xE0 SHL PUSH1 0x0 MSTORE MSTORE PUSH1 0x24 PUSH1 0x0 REVERT JUMPDEST PUSH1 0x21 DUP3 PUSH4 0x4E487B71 PUSH1 0xE0 SHL PUSH1 0x0 MSTORE MSTORE PUSH1 0x24 PUSH1 0x0 REVERT JUMPDEST PUSH1 0x0 JUMPDEST DUP4 DUP2 LT PUSH2 0xB0A JUMPI POP POP PUSH1 0x0 SWAP2 ADD MSTORE JUMP JUMPDEST DUP2 DUP2 ADD MLOAD DUP4 DUP3 ADD MSTORE PUSH1 0x20 ADD PUSH2 0xAFA JUMP JUMPDEST SWAP1 PUSH1 0x20 SWAP2 PUSH2 0xB33 DUP2 MLOAD DUP1 SWAP3 DUP2 DUP6 MSTORE DUP6 DUP1 DUP7 ADD SWAP2 ADD PUSH2 0xAF7 JUMP JUMPDEST PUSH1 0x1F ADD PUSH1 0x1F NOT AND ADD ADD SWAP1 JUMP JUMPDEST PUSH2 0xB7B SWAP2 PUSH1 0x1 DUP1 PUSH1 0xA0 SHL SUB DUP3 MLOAD AND DUP2 MSTORE PUSH1 0x40 PUSH2 0xB6A PUSH1 0x20 DUP5 ADD MLOAD PUSH1 0x60 PUSH1 0x20 DUP6 ADD MSTORE PUSH1 0x60 DUP5 ADD SWAP1 PUSH2 0xB1A JUMP JUMPDEST SWAP3 ADD MLOAD SWAP1 PUSH1 0x40 DUP2 DUP5 SUB SWAP2 ADD MSTORE PUSH2 0xB1A JUMP JUMPDEST SWAP1 JUMP JUMPDEST SWAP1 PUSH1 0x8 DUP3 LT ISZERO PUSH2 0x4D8 JUMPI MSTORE JUMP JUMPDEST SWAP1 DUP2 MLOAD SWAP2 PUSH2 0xB9A DUP3 DUP5 MLOAD PUSH2 0xB7E JUMP JUMPDEST PUSH1 0x20 DUP4 ADD MLOAD SWAP1 PUSH1 0x5 DUP3 LT ISZERO PUSH2 0x4D8 JUMPI PUSH2 0xBE2 PUSH1 0xA0 PUSH2 0xB7B SWAP6 PUSH1 0x40 SWAP5 PUSH1 0x20 DUP8 ADD MSTORE DUP5 DUP2 ADD MLOAD DUP6 DUP8 ADD MSTORE PUSH1 0x60 DUP2 ADD MLOAD PUSH1 0x60 DUP8 ADD MSTORE PUSH1 0x80 DUP2 ADD MLOAD PUSH1 0x80 DUP8 ADD MSTORE ADD MLOAD PUSH1 0xA0 DUP6 ADD SWAP1 PUSH2 0x4CB JUMP JUMPDEST PUSH1 0xA0 PUSH1 0x20 DUP3 ADD MLOAD PUSH1 0x1 DUP1 DUP4 SHL SUB DUP1 DUP3 MLOAD AND PUSH1 0xC0 DUP8 ADD MSTORE PUSH1 0x20 DUP3 ADD MLOAD AND PUSH1 0xE0 DUP7 ADD MSTORE DUP4 DUP2 ADD MLOAD PUSH2 0x100 DUP7 ADD MSTORE PUSH1 0x60 DUP2 ADD MLOAD PUSH2 0x120 DUP7 ADD MSTORE PUSH1 0x80 DUP2 ADD MLOAD PUSH2 0x140 DUP7 ADD MSTORE ADD MLOAD PUSH2 0x160 DUP5 ADD MSTORE ADD MLOAD SWAP1 PUSH2 0xC4E PUSH2 0x1A0 DUP1 PUSH2 0x180 DUP5 ADD MSTORE PUSH1 0x60 DUP5 MLOAD SWAP2 DUP5 ADD MSTORE PUSH2 0x200 DUP4 ADD SWAP1 PUSH2 0xB1A JUMP JUMPDEST SWAP1 PUSH2 0x1E0 PUSH1 0x40 PUSH2 0xC72 PUSH1 0x20 DUP7 ADD MLOAD SWAP5 PUSH2 0x19F NOT SWAP6 DUP7 DUP7 DUP4 SUB ADD PUSH2 0x1C0 DUP8 ADD MSTORE PUSH2 0xB1A JUMP JUMPDEST SWAP5 ADD MLOAD SWAP3 DUP3 DUP6 SUB ADD SWAP2 ADD MSTORE PUSH2 0xB1A JUMP JUMPDEST SWAP1 DUP2 PUSH1 0x20 SWAP2 SUB SLT PUSH2 0xCA1 JUMPI MLOAD PUSH1 0x1 PUSH1 0x1 PUSH1 0xA0 SHL SUB DUP2 AND DUP2 SUB PUSH2 0xCA1 JUMPI SWAP1 JUMP JUMPDEST PUSH1 0x0 DUP1 REVERT JUMPDEST PUSH1 0xFF PUSH1 0x8 SLOAD AND PUSH1 0x3 DUP2 LT ISZERO PUSH2 0x4D8 JUMPI PUSH1 0x1 DUP2 SUB PUSH2 0xD2A JUMPI POP PUSH1 0x15 SLOAD PUSH1 0x40 MLOAD PUSH4 0xF77800E5 PUSH1 0xE0 SHL DUP2 MSTORE SWAP1 PUSH1 0x20 SWAP1 DUP3 SWAP1 PUSH1 0x4 SWAP1 DUP3 SWAP1 PUSH1 0x1 PUSH1 0x1 PUSH1 0xA0 SHL SUB AND GAS STATICCALL SWAP1 DUP2 ISZERO PUSH2 0xD1E JUMPI PUSH1 0x0 SWAP2 PUSH2 0xCF6 JUMPI POP SWAP1 JUMP JUMPDEST PUSH2 0xB7B SWAP2 POP PUSH1 0x20 RETURNDATASIZE DUP2 GT PUSH2 0xD17 JUMPI JUMPDEST PUSH2 0xD0F DUP2 DUP4 PUSH2 0x558 JUMP JUMPDEST DUP2 ADD SWAP1 PUSH2 0xC82 JUMP JUMPDEST POP RETURNDATASIZE PUSH2 0xD05 JUMP JUMPDEST PUSH1 0x40 MLOAD RETURNDATASIZE PUSH1 0x0 DUP3 RETURNDATACOPY RETURNDATASIZE SWAP1 REVERT JUMPDEST PUSH1 0x2 SUB PUSH2 0xD69 JUMPI PUSH1 0x15 SLOAD PUSH1 0x40 MLOAD PUSH4 0x5F117AA3 PUSH1 0xE1 SHL DUP2 MSTORE SWAP1 PUSH1 0x20 SWAP1 DUP3 SWAP1 PUSH1 0x4 SWAP1 DUP3 SWAP1 PUSH1 0x1 PUSH1 0x1 PUSH1 0xA0 SHL SUB AND GAS STATICCALL SWAP1 DUP2 ISZERO PUSH2 0xD1E JUMPI PUSH1 0x0 SWAP2 PUSH2 0xCF6 JUMPI POP SWAP1 JUMP JUMPDEST PUSH1 0x0 SWAP1 JUMP JUMPDEST PUSH1 0x40 MLOAD SWAP1 PUSH2 0xD7B DUP3 PUSH2 0x53C JUMP JUMPDEST DUP2 PUSH1 0xA0 PUSH1 0x0 SWAP2 DUP3 DUP2 MSTORE DUP3 PUSH1 0x20 DUP3 ADD MSTORE DUP3 PUSH1 0x40 DUP3 ADD MSTORE DUP3 PUSH1 0x60 DUP3 ADD MSTORE DUP3 PUSH1 0x80 DUP3 ADD MSTORE ADD MSTORE JUMP JUMPDEST PUSH8 0xFFFFFFFFFFFFFFFF DUP2 GT PUSH2 0x50A JUMPI PUSH1 0x1F ADD PUSH1 0x1F NOT AND PUSH1 0x20 ADD SWAP1 JUMP JUMPDEST DUP1 PUSH1 0x0 SWAP2 PUSH27 0x184F03E93FF9F4DAA797ED6E38ED64BF6A1F010000000000000000 DUP1 DUP3 LT ISZERO PUSH2 0xF16 JUMPI JUMPDEST POP PUSH14 0x4EE2D6D415B85ACEF8100000000 DUP1 DUP4 LT ISZERO PUSH2 0xF07 JUMPI JUMPDEST POP PUSH7 0x2386F26FC10000 DUP1 DUP4 LT ISZERO PUSH2 0xEF8 JUMPI JUMPDEST POP PUSH4 0x5F5E100 DUP1 DUP4 LT ISZERO PUSH2 0xEE9 JUMPI JUMPDEST POP PUSH2 0x2710 DUP1 DUP4 LT ISZERO PUSH2 0xEDA JUMPI JUMPDEST POP PUSH1 0x64 DUP3 LT ISZERO PUSH2 0xECA JUMPI JUMPDEST PUSH1 0xA DUP1 SWAP3 LT ISZERO PUSH2 0xEC0 JUMPI JUMPDEST PUSH1 0x1 SWAP1 DUP2 PUSH1 0x21 DUP2 DUP7 ADD SWAP6 PUSH2 0xE55 DUP8 PUSH2 0xDA0 JUMP JUMPDEST SWAP7 PUSH2 0xE63 PUSH1 0x40 MLOAD SWAP9 DUP10 PUSH2 0x558 JUMP JUMPDEST DUP1 DUP9 MSTORE PUSH2 0xE72 PUSH1 0x1F NOT SWAP2 PUSH2 0xDA0 JUMP JUMPDEST ADD CALLDATASIZE PUSH1 0x20 DUP10 ADD CALLDATACOPY DUP7 ADD ADD SWAP1 JUMPDEST PUSH2 0xE8A JUMPI JUMPDEST POP POP POP POP SWAP1 JUMP JUMPDEST PUSH1 0x0 NOT ADD SWAP1 DUP4 SWAP1 PUSH16 0x181899199A1A9B1B9C1CB0B131B232B3 PUSH1 0x81 SHL DUP3 DUP3 MOD BYTE DUP4 MSTORE8 DIV SWAP2 DUP3 ISZERO PUSH2 0xEBB JUMPI SWAP2 SWAP1 DUP3 PUSH2 0xE7E JUMP JUMPDEST PUSH2 0xE83 JUMP JUMPDEST SWAP2 PUSH1 0x1 ADD SWAP2 PUSH2 0xE42 JUMP JUMPDEST SWAP2 SWAP1 PUSH1 0x64 PUSH1 0x2 SWAP2 DIV SWAP2 ADD SWAP2 PUSH2 0xE37 JUMP JUMPDEST PUSH1 0x4 SWAP2 SWAP4 SWAP3 DIV SWAP2 ADD SWAP2 CODESIZE PUSH2 0xE2C JUMP JUMPDEST PUSH1 0x8 SWAP2 SWAP4 SWAP3 DIV SWAP2 ADD SWAP2 CODESIZE PUSH2 0xE1F JUMP JUMPDEST PUSH1 0x10 SWAP2 SWAP4 SWAP3 DIV SWAP2 ADD SWAP2 CODESIZE PUSH2 0xE10 JUMP JUMPDEST PUSH1 0x20 SWAP2 SWAP4 SWAP3 DIV SWAP2 ADD SWAP2 CODESIZE PUSH2 0xDFE JUMP JUMPDEST PUSH1 0x40 SWAP4 POP DUP2 DIV SWAP2 POP CODESIZE PUSH2 0xDE5 JUMP INVALID LOG2 PUSH5 0x6970667358 0x22 SLT KECCAK256 0xCE 0xCB PUSH27 0x680656FC1F33F0DDD0516359EB9141E923738BA34B1F302ED44E43 EXTCODEHASH 0xB1 PUSH5 0x736F6C6343 STOP ADDMOD SGT STOP CALLER "},"gasEstimates":{"creation":{"codeDepositCost":"786000","executionCost":"infinite","totalCost":"infinite"},"external":{"getEncryptedPost()":"infinite","getPaymentRequested()":"2470","getPost()":"infinite","getStakeRequested()":"2486","getStatus()":"2409","getTokenId()":"2325","getTokenIdAddress()":"infinite","owner()":"2469","post()":"infinite","postCount()":"2316","version()":"infinite"},"internal":{"_changeStatus(enum Structures.PostStatus)":"infinite","_checkToken(enum Structures.Tokens)":"infinite"}},"methodIdentifiers":{"getEncryptedPost()":"729e2eb1","getPaymentRequested()":"d24e0c87","getPost()":"8c6838ba","getStakeRequested()":"faeb5e17","getStatus()":"4e69d560","getTokenId()":"010a38f5","getTokenIdAddress()":"5ad4e170","owner()":"8da5cb5b","post()":"05c1f502","postCount()":"17906c2e","version()":"54fd4d50"}},"storageLayout":{"storage":[{"astId":3523,"contract":"contracts/modules/Data.sol:Data","label":"owner","offset":0,"slot":"0","type":"t_address"},{"astId":3526,"contract":"contracts/modules/Data.sol:Data","label":"post","offset":0,"slot":"1","type":"t_struct(Post)2574_storage"},{"astId":3529,"contract":"contracts/modules/Data.sol:Data","label":"settings","offset":0,"slot":"18","type":"t_struct(FeedSettings)2550_storage"},{"astId":3533,"contract":"contracts/modules/Data.sol:Data","label":"postDurationToDays","offset":0,"slot":"24","type":"t_mapping(t_uint8,t_uint256)"},{"astId":3537,"contract":"contracts/modules/Data.sol:Data","label":"validStatuses","offset":0,"slot":"25","type":"t_mapping(t_uint8,t_bool)"}],"types":{"t_address":{"encoding":"inplace","label":"address","numberOfBytes":"20"},"t_bool":{"encoding":"inplace","label":"bool","numberOfBytes":"1"},"t_bytes_storage":{"encoding":"bytes","label":"bytes","numberOfBytes":"32"},"t_enum(PostStatus)2521":{"encoding":"inplace","label":"enum Structures.PostStatus","numberOfBytes":"1"},"t_enum(PostType)2531":{"encoding":"inplace","label":"enum Structures.PostType","numberOfBytes":"1"},"t_enum(Tokens)2525":{"encoding":"inplace","label":"enum Structures.Tokens","numberOfBytes":"1"},"t_mapping(t_uint8,t_bool)":{"encoding":"mapping","key":"t_uint8","label":"mapping(uint8 => bool)","numberOfBytes":"32","value":"t_bool"},"t_mapping(t_uint8,t_uint256)":{"encoding":"mapping","key":"t_uint8","label":"mapping(uint8 => uint256)","numberOfBytes":"32","value":"t_uint256"},"t_string_storage":{"encoding":"bytes","label":"string","numberOfBytes":"32"},"t_struct(FeedSettings)2550_storage":{"encoding":"inplace","label":"struct Structures.FeedSettings","members":[{"astId":2539,"contract":"contracts/modules/Data.sol:Data","label":"punishmentRatio","offset":0,"slot":"0","type":"t_uint256"},{"astId":2541,"contract":"contracts/modules/Data.sol:Data","label":"postCount","offset":0,"slot":"1","type":"t_uint256"},{"astId":2543,"contract":"contracts/modules/Data.sol:Data","label":"usersModuleContract","offset":0,"slot":"2","type":"t_address"},{"astId":2545,"contract":"contracts/modules/Data.sol:Data","label":"factoryContract","offset":0,"slot":"3","type":"t_address"},{"astId":2547,"contract":"contracts/modules/Data.sol:Data","label":"router","offset":0,"slot":"4","type":"t_address"},{"astId":2549,"contract":"contracts/modules/Data.sol:Data","label":"version","offset":0,"slot":"5","type":"t_string_storage"}],"numberOfBytes":"192"},"t_struct(Post)2574_storage":{"encoding":"inplace","label":"struct Structures.Post","members":[{"astId":2570,"contract":"contracts/modules/Data.sol:Data","label":"creator","offset":0,"slot":"0","type":"t_struct(User)2627_storage"},{"astId":2573,"contract":"contracts/modules/Data.sol:Data","label":"postdata","offset":0,"slot":"3","type":"t_struct(PostData)2584_storage"}],"numberOfBytes":"544"},"t_struct(PostData)2584_storage":{"encoding":"inplace","label":"struct Structures.PostData","members":[{"astId":2577,"contract":"contracts/modules/Data.sol:Data","label":"settings","offset":0,"slot":"0","type":"t_struct(PostSettings)2607_storage"},{"astId":2580,"contract":"contracts/modules/Data.sol:Data","label":"escrow","offset":0,"slot":"5","type":"t_struct(PostEscrow)2620_storage"},{"astId":2583,"contract":"contracts/modules/Data.sol:Data","label":"data","offset":0,"slot":"11","type":"t_struct(PostEncryptedData)2591_storage"}],"numberOfBytes":"448"},"t_struct(PostEncryptedData)2591_storage":{"encoding":"inplace","label":"struct Structures.PostEncryptedData","members":[{"astId":2586,"contract":"contracts/modules/Data.sol:Data","label":"encryptedData","offset":0,"slot":"0","type":"t_bytes_storage"},{"astId":2588,"contract":"contracts/modules/Data.sol:Data","label":"encryptedKey","offset":0,"slot":"1","type":"t_bytes_storage"},{"astId":2590,"contract":"contracts/modules/Data.sol:Data","label":"decryptedData","offset":0,"slot":"2","type":"t_bytes_storage"}],"numberOfBytes":"96"},"t_struct(PostEscrow)2620_storage":{"encoding":"inplace","label":"struct Structures.PostEscrow","members":[{"astId":2609,"contract":"contracts/modules/Data.sol:Data","label":"buyer","offset":0,"slot":"0","type":"t_address"},{"astId":2611,"contract":"contracts/modules/Data.sol:Data","label":"seller","offset":0,"slot":"1","type":"t_address"},{"astId":2613,"contract":"contracts/modules/Data.sol:Data","label":"stake","offset":0,"slot":"2","type":"t_uint256"},{"astId":2615,"contract":"contracts/modules/Data.sol:Data","label":"payment","offset":0,"slot":"3","type":"t_uint256"},{"astId":2617,"contract":"contracts/modules/Data.sol:Data","label":"punishment","offset":0,"slot":"4","type":"t_uint256"},{"astId":2619,"contract":"contracts/modules/Data.sol:Data","label":"penalty","offset":0,"slot":"5","type":"t_uint256"}],"numberOfBytes":"192"},"t_struct(PostSettings)2607_storage":{"encoding":"inplace","label":"struct Structures.PostSettings","members":[{"astId":2594,"contract":"contracts/modules/Data.sol:Data","label":"status","offset":0,"slot":"0","type":"t_enum(PostStatus)2521"},{"astId":2597,"contract":"contracts/modules/Data.sol:Data","label":"postType","offset":1,"slot":"0","type":"t_enum(PostType)2531"},{"astId":2599,"contract":"contracts/modules/Data.sol:Data","label":"creationTimeStamp","offset":0,"slot":"1","type":"t_uint256"},{"astId":2601,"contract":"contracts/modules/Data.sol:Data","label":"endTimeStamp","offset":0,"slot":"2","type":"t_uint256"},{"astId":2603,"contract":"contracts/modules/Data.sol:Data","label":"duration","offset":0,"slot":"3","type":"t_uint256"},{"astId":2606,"contract":"contracts/modules/Data.sol:Data","label":"tokenId","offset":0,"slot":"4","type":"t_enum(Tokens)2525"}],"numberOfBytes":"160"},"t_struct(User)2627_storage":{"encoding":"inplace","label":"struct Structures.User","members":[{"astId":2622,"contract":"contracts/modules/Data.sol:Data","label":"evmAddress","offset":0,"slot":"0","type":"t_address"},{"astId":2624,"contract":"contracts/modules/Data.sol:Data","label":"sismoVaultId","offset":0,"slot":"1","type":"t_bytes_storage"},{"astId":2626,"contract":"contracts/modules/Data.sol:Data","label":"publicKey","offset":0,"slot":"2","type":"t_bytes_storage"}],"numberOfBytes":"96"},"t_uint256":{"encoding":"inplace","label":"uint256","numberOfBytes":"32"},"t_uint8":{"encoding":"inplace","label":"uint8","numberOfBytes":"1"}}},"userdoc":{"kind":"user","methods":{"version()":{"notice":"Returns the full semver contract version."}},"version":1}}}}