{"contracts/treasury/MecenateTreasury.sol":{"MecenateTreasury":{"abi":[{"anonymous":false,"inputs":[{"indexed":true,"internalType":"address","name":"previousOwner","type":"address"},{"indexed":true,"internalType":"address","name":"newOwner","type":"address"}],"name":"OwnershipTransferred","type":"event"},{"inputs":[{"internalType":"address","name":"token","type":"address"},{"internalType":"uint256","name":"amount","type":"uint256"}],"name":"addERC20Funds","outputs":[],"stateMutability":"nonpayable","type":"function"},{"inputs":[],"name":"addFunds","outputs":[],"stateMutability":"payable","type":"function"},{"inputs":[{"internalType":"address","name":"tokenA","type":"address"},{"internalType":"address","name":"tokenB","type":"address"},{"internalType":"uint24","name":"fee","type":"uint24"},{"internalType":"uint256","name":"amountA","type":"uint256"},{"internalType":"uint256","name":"amountB","type":"uint256"},{"internalType":"int24","name":"tickLower","type":"int24"},{"internalType":"int24","name":"tickUpper","type":"int24"}],"name":"addLiquidity","outputs":[],"stateMutability":"nonpayable","type":"function"},{"inputs":[{"internalType":"address","name":"nativeAddr","type":"address"},{"internalType":"contract ISwapRouter","name":"swapRouterAddr","type":"address"}],"name":"configLiquidityProvider","outputs":[],"stateMutability":"nonpayable","type":"function"},{"inputs":[{"internalType":"address","name":"token","type":"address"},{"internalType":"uint256","name":"amount","type":"uint256"}],"name":"customApprove","outputs":[],"stateMutability":"nonpayable","type":"function"},{"inputs":[],"name":"distributableBalance","outputs":[{"internalType":"uint256","name":"","type":"uint256"}],"stateMutability":"view","type":"function"},{"inputs":[{"internalType":"address","name":"","type":"address"}],"name":"distributableERC20Balance","outputs":[{"internalType":"uint256","name":"","type":"uint256"}],"stateMutability":"view","type":"function"},{"inputs":[{"internalType":"address","name":"usersContract","type":"address"}],"name":"distribute","outputs":[],"stateMutability":"nonpayable","type":"function"},{"inputs":[{"internalType":"address","name":"token","type":"address"},{"internalType":"address","name":"usersContract","type":"address"}],"name":"distributeERC20","outputs":[],"stateMutability":"nonpayable","type":"function"},{"inputs":[],"name":"fixedFee","outputs":[{"internalType":"uint256","name":"","type":"uint256"}],"stateMutability":"view","type":"function"},{"inputs":[],"name":"getDistributionBalance","outputs":[{"internalType":"uint256","name":"","type":"uint256"}],"stateMutability":"view","type":"function"},{"inputs":[{"internalType":"address","name":"token","type":"address"}],"name":"getDistributionERC20Balance","outputs":[{"internalType":"uint256","name":"","type":"uint256"}],"stateMutability":"view","type":"function"},{"inputs":[{"internalType":"address","name":"user","type":"address"}],"name":"getReward","outputs":[{"internalType":"uint256","name":"","type":"uint256"}],"stateMutability":"view","type":"function"},{"inputs":[{"internalType":"address","name":"token","type":"address"},{"internalType":"address","name":"user","type":"address"}],"name":"getRewardERC20","outputs":[{"internalType":"uint256","name":"","type":"uint256"}],"stateMutability":"view","type":"function"},{"inputs":[],"name":"globalFee","outputs":[{"internalType":"uint256","name":"","type":"uint256"}],"stateMutability":"view","type":"function"},{"inputs":[],"name":"lastDistributed","outputs":[{"internalType":"uint256","name":"","type":"uint256"}],"stateMutability":"view","type":"function"},{"inputs":[],"name":"native","outputs":[{"internalType":"address","name":"","type":"address"}],"stateMutability":"view","type":"function"},{"inputs":[],"name":"owner","outputs":[{"internalType":"address","name":"","type":"address"}],"stateMutability":"view","type":"function"},{"inputs":[],"name":"ownerFee","outputs":[{"internalType":"uint256","name":"","type":"uint256"}],"stateMutability":"view","type":"function"},{"inputs":[],"name":"positionManager","outputs":[{"internalType":"contract INonfungiblePositionManager","name":"","type":"address"}],"stateMutability":"view","type":"function"},{"inputs":[],"name":"renounceOwnership","outputs":[],"stateMutability":"nonpayable","type":"function"},{"inputs":[{"internalType":"uint256","name":"_fixedFee","type":"uint256"}],"name":"setFixedFee","outputs":[],"stateMutability":"nonpayable","type":"function"},{"inputs":[{"internalType":"uint256","name":"_globalFee","type":"uint256"}],"name":"setGlobalFee","outputs":[],"stateMutability":"nonpayable","type":"function"},{"inputs":[{"internalType":"bool","name":"_splitLiquidity","type":"bool"}],"name":"setSplitLiqudity","outputs":[{"internalType":"bool","name":"","type":"bool"}],"stateMutability":"nonpayable","type":"function"},{"inputs":[{"internalType":"contract ISwapRouter","name":"swapRouterAddress","type":"address"}],"name":"setSwapRouter","outputs":[],"stateMutability":"nonpayable","type":"function"},{"inputs":[],"name":"splitLiquidity","outputs":[{"internalType":"bool","name":"","type":"bool"}],"stateMutability":"view","type":"function"},{"inputs":[{"internalType":"address","name":"token0","type":"address"},{"internalType":"address","name":"token1","type":"address"},{"internalType":"address","name":"token2","type":"address"},{"internalType":"uint24","name":"fee","type":"uint24"},{"internalType":"uint24","name":"fee2","type":"uint24"}],"name":"swapAndBurn","outputs":[],"stateMutability":"nonpayable","type":"function"},{"inputs":[],"name":"swapRouter","outputs":[{"internalType":"contract ISwapRouter","name":"","type":"address"}],"stateMutability":"view","type":"function"},{"inputs":[{"internalType":"address","name":"token1","type":"address"},{"internalType":"address","name":"token2","type":"address"},{"internalType":"uint256","name":"amount","type":"uint256"},{"internalType":"uint24","name":"fee","type":"uint24"},{"internalType":"address","name":"receiver","type":"address"}],"name":"swapTokensForTokens","outputs":[{"internalType":"uint256","name":"","type":"uint256"}],"stateMutability":"nonpayable","type":"function"},{"inputs":[{"internalType":"address","name":"token1","type":"address"},{"internalType":"address","name":"token2","type":"address"},{"internalType":"uint256","name":"amount","type":"uint256"},{"internalType":"address","name":"receiver","type":"address"}],"name":"swapTxT","outputs":[{"internalType":"uint256","name":"","type":"uint256"}],"stateMutability":"nonpayable","type":"function"},{"inputs":[{"internalType":"address","name":"receiver","type":"address"}],"name":"takeReward","outputs":[{"internalType":"uint256","name":"","type":"uint256"}],"stateMutability":"nonpayable","type":"function"},{"inputs":[{"internalType":"address","name":"token","type":"address"},{"internalType":"address","name":"receiver","type":"address"}],"name":"takeRewardERC20","outputs":[{"internalType":"uint256","name":"","type":"uint256"}],"stateMutability":"nonpayable","type":"function"},{"inputs":[{"internalType":"address","name":"newOwner","type":"address"}],"name":"transferOwnership","outputs":[],"stateMutability":"nonpayable","type":"function"},{"inputs":[{"internalType":"address","name":"","type":"address"}],"name":"userReward","outputs":[{"internalType":"uint256","name":"","type":"uint256"}],"stateMutability":"view","type":"function"},{"inputs":[{"internalType":"address","name":"","type":"address"},{"internalType":"address","name":"","type":"address"}],"name":"userRewardERC20","outputs":[{"internalType":"uint256","name":"","type":"uint256"}],"stateMutability":"view","type":"function"},{"stateMutability":"payable","type":"receive"}],"devdoc":{"kind":"dev","methods":{"owner()":{"details":"Returns the address of the current owner."},"renounceOwnership()":{"details":"Leaves the contract without owner. It will not be possible to call `onlyOwner` functions. Can only be called by the current owner. NOTE: Renouncing ownership will leave the contract without an owner, thereby disabling any functionality that is only available to the owner."},"transferOwnership(address)":{"details":"Transfers ownership of the contract to a new account (`newOwner`). Can only be called by the current owner."}},"version":1},"evm":{"bytecode":{"linkReferences":{},"object":"6080806040523461006b5760008054336001600160a01b0319821681178355916001600160a01b03909116907f8be0079c531659141344cd1fd0a4f28419497f9722a3daafe3b4186f6b6457e09080a36064600455662386f26fc10000600555611ac190816100718239f35b600080fdfe608080604052600436101561002c575b50361561001b57600080fd5b610027346007546116a8565b600755005b600090813560e01c9081620a74be146115855750806305f6059d1461156057806310027a28146113cd57806311b0b42d146115375780631fce07d514611519578063291206f6146114f65780632ad2e08c1461146957806337de8106146114465780634127365714611406578063568dbccf146113cd57806363453ae11461122a578063674ee49d146111df5780636962a86314610f7d578063715018a614610f235780637450bce914610d5b578063791b98bc14610efa578063808fc20614610edc57806385258b4b14610e095780638da5cb5b14610de25780638f3a899a14610d9757806391792d5b14610d79578063932f9f8a14610d5b578063a26759cb14610d3d578063af2c15c414610b75578063afbce84e146108c2578063bba5f3b1146106ea578063bcb7557f14610699578063c00007b014610660578063c31c9c0714610637578063d1a06cf814610486578063d5b2a01a14610468578063e26629431461032b578063f0c3b912146102c7578063f2fde38b146102015763ffdf2bcb0361000f57346101fe5760403660031901126101fe576101ce6115bb565b6101d66115f9565b6001600160a01b03168152600b6020526040812080546101f990602435906116a8565b905580f35b80fd5b50346101fe5760203660031901126101fe5761021b6115bb565b6102236115f9565b6001600160a01b0390811690811561027357600054826001600160601b0360a01b821617600055167f8be0079c531659141344cd1fd0a4f28419497f9722a3daafe3b4186f6b6457e0600080a380f35b60405162461bcd60e51b815260206004820152602660248201527f4f776e61626c653a206e6577206f776e657220697320746865207a65726f206160448201526564647265737360d01b6064820152608490fd5b50346101fe5760a03660031901126101fe576102e16115bb565b6102e96115d1565b6102f16115e7565b91608435906001600160a01b03821682036103265760209361031e936103156115f9565b604435926116b5565b604051908152f35b600080fd5b50346101fe5760403660031901126101fe57806103466115bb565b8161034f6115d1565b6103576115f9565b60018060a01b03809316600354906044856001600160601b0360a01b948386861617600355168060015495861617600155600160a01b60ff60a01b1987541617865560405195869384928263095ea7b360e01b98898652161760048401528160248401526020998a9616175af191821561045d578492610440575b50604483600354169360015416918660405195869485938452600484015260001960248401525af1801561043557610408578280f35b8161042792903d1061042e575b61041f818361166e565b810190611690565b5038808280f35b503d610415565b6040513d85823e3d90fd5b61045690833d851161042e5761041f818361166e565b50386103d2565b6040513d87823e3d90fd5b50346101fe57806003193601126101fe576020600854604051908152f35b50346101fe5760403660031901126101fe576104a06115bb565b6104a86115d1565b9060018060a01b03809116808452602091600b83526104cc60408620541515611841565b818552600b83528061050c6127106104eb60408920546004549061188d565b046104f8816008546116a8565b600855848852600b86526040882054611834565b9416906040519463b5cb15f760e01b86528486600481865afa95861561062c5787966105fb575b5085610549916105448215156118c0565b6118a0565b91865b8681106105645787600b878783525280604081205580f35b60405163c6e064ad60e01b815260048101829052908682602481865afa9182156105f0576105be9285918b916105c3575b50168952600a87526040892086600052875260406000206105b78682546116a8565b905561190c565b61054c565b6105e39150893d8b116105e9575b6105db818361166e565b81019061191b565b38610595565b503d6105d1565b6040513d8b823e3d90fd5b9095508481813d8311610625575b610613818361166e565b81010312610326575194610549610533565b503d610609565b6040513d89823e3d90fd5b50346101fe57806003193601126101fe576001546040516001600160a01b039091168152602090f35b50346101fe5760203660031901126101fe576020906040906001600160a01b036106886115bb565b168152600983522054604051908152f35b50346101fe5760403660031901126101fe576106b36115bb565b906001600160a01b0390604090826106c96115d1565b168152600a6020522091166000526020526020604060002054604051908152f35b50346101fe5760803660031901126101fe576107046115bb565b61070c6115d1565b6064356001600160a01b03811692604435918490036103265761072d6115f9565b60015460405163095ea7b360e01b81526001600160a01b03918216600482015260248101849052911691906020816044816000875af18015610881576108a3575b50600a420180421161088d576000946020946040519461078d86611651565b85526001600160a01b03908116868601908152610bb86040808801918252606088019485526080880195865260a0880196875260c088018a815260e089018b8152600154925163414bf38960e01b81529951861660048b01529351851660248a0152915162ffffff16604489015293518316606488015293516084870152935160a4860152915160c48501529151811660e48401529193849261010492849291165af19081156108815760009161084a575b602082604051908152f35b6020813d602011610879575b816108636020938361166e565b8101031261087557519050602061083f565b5080fd5b3d9150610856565b6040513d6000823e3d90fd5b634e487b7160e01b600052601160045260246000fd5b6108bb9060203d60201161042e5761041f818361166e565b508461076e565b50346101fe5760e03660031901126101fe576108dc6115bb565b6108e46115d1565b6044359062ffffff82168092036103265760a4358060020b8091036103265760c435918260020b8093036103265761091a6115f9565b60025460405163095ea7b360e01b81526001600160a01b03918216600482015260643560248201529516946020816044818a8a5af1801561062c57610b56575b5060025460405163095ea7b360e01b81526001600160a01b039182166004820152608435602482018190529592909116906020816044818b865af18015610b4b57610b2c575b5060405195610160870187811067ffffffffffffffff821117610b16576040528652602086015260408501526060840152608083015260643560a083015260c08201528160e0820152816101008201523061012082015242610140820152608061014061016460018060a01b036002541693856040519586948593634418b22b60e11b855260018060a01b03815116600486015260018060a01b03602082015116602486015262ffffff6040820151166044860152606081015160020b60648601528781015160020b608486015260a081015160a486015260c081015160c486015260e081015160e486015261010081015161010486015260018060a01b036101208201511661012486015201516101448401525af18015610b0b57610ac4575080f35b6080813d8211610b03575b81610adc6080938361166e565b8101031261087557602001516fffffffffffffffffffffffffffffffff8116036101fe5780f35b3d9150610acf565b6040513d84823e3d90fd5b634e487b7160e01b600052604160045260246000fd5b610b449060203d60201161042e5761041f818361166e565b50386109a0565b6040513d8a823e3d90fd5b610b6e9060203d60201161042e5761041f818361166e565b503861095a565b50346101fe5760403660031901126101fe57610b8f6115bb565b610b976115d1565b91338152602092600a8452604082209260018060a01b031692836000528452604060002054928315610d0257338352600a8552604080842060008381529087528190208490555163a9059cbb60e01b8187019081526001600160a01b039390931660248201526044808201869052815292610c1360648561166e565b60405192604084019084821067ffffffffffffffff831117610b1657610c749583926040528886527f5361666545524332303a206c6f772d6c6576656c2063616c6c206661696c656489870152519082855af1610c6e61193a565b9161197a565b805190838215928315610cea575b50505015610c9257604051908152f35b60405162461bcd60e51b815260048101839052602a60248201527f5361666545524332303a204552433230206f7065726174696f6e20646964206e6044820152691bdd081cdd58d8d9595960b21b6064820152608490fd5b610cfa9350820181019101611690565b388381610c82565b60405162461bcd60e51b81526004810186905260136024820152724e6f2072657761726420617661696c61626c6560681b6044820152606490fd5b50806003193601126101fe57610d55346007546116a8565b60075580f35b50346101fe57806003193601126101fe576020600754604051908152f35b50346101fe57806003193601126101fe576020600554604051908152f35b50346101fe5760203660031901126101fe5760043580151580910361087557610dbe6115f9565b815460ff60a01b191660a09190911b60ff60a01b1617905560405160018152602090f35b50346101fe57806003193601126101fe57546040516001600160a01b039091168152602090f35b50346101fe5760403660031901126101fe57610e6f610e266115bb565b610e2e6115f9565b60015460405163095ea7b360e01b8082526001600160a01b039283166004830152602480359083015260209493831693919290918590849081906044820190565b038189885af1908115610ed1578593604492610eb4575b5060015416918660405195869485938452600484015260001960248401525af1801561043557610408578280f35b610eca90853d871161042e5761041f818361166e565b5038610e86565b6040513d88823e3d90fd5b50346101fe57806003193601126101fe576020600454604051908152f35b50346101fe57806003193601126101fe576002546040516001600160a01b039091168152602090f35b50346101fe57806003193601126101fe57610f3c6115f9565b600080546001600160a01b0319811682556001600160a01b03167f8be0079c531659141344cd1fd0a4f28419497f9722a3daafe3b4186f6b6457e08280a380f35b50346101fe5760a03660031901126101fe57610f976115bb565b90610fa06115d1565b6001600160a01b0360443581811692918382036111db57610fbf6115e7565b916084359162ffffff831683036111d757610fd86115f9565b6040516370a0823160e01b81523060048201526020989089816024818686165afa9081156105f05789916111a6575b5060015460405163095ea7b360e01b8082529185166001600160a01b03166004820152602481018390529096908b816044818e888a165af190811561119b5761106894939291611060918e8e9261117e575b5050611a4e565b8830936116b5565b9384156111465760015460405191825282166001600160a01b03166004820152602481018590529697889795949392918190879060449082908c908a165af18015610b4b576110c9966110c2928a92611129575050611a4e565b30936116b5565b90803b1561112557602483926040519485938492630852cd8d60e31b845260048401525af18015610b0b576110fc575080f35b67ffffffffffffffff81116111115760405280f35b634e487b7160e01b82526041600452602482fd5b5050fd5b61113f9250803d1061042e5761041f818361166e565b3880611059565b60405162461bcd60e51b8152600481018a9052601060248201526f139bc81d1bdad95b9cc8189bdd59da1d60821b6044820152606490fd5b6111949250803d1061042e5761041f818361166e565b388e611059565b6040513d8d823e3d90fd5b90508981813d83116111d0575b6111bd818361166e565b810103126111cc575138611007565b8880fd5b503d6111b3565b8680fd5b8480fd5b50346101fe5760403660031901126101fe5760406020916111fe6115bb565b6112066115d1565b6001600160a01b039182168352600a85528383209116825283522054604051908152f35b50346101fe57602080600319360112610875576112456115bb565b6201518061125560065442611834565b106113885761129060075461126b811515611841565b61271061127a6004548361188d565b0490611288826008546116a8565b600855611834565b60405163b5cb15f760e01b8152926001600160a01b039283169290918285600481875afa948515610ed1578695611353575b50846112d3916105448215156118c0565b92855b8581106112e95786426006558060075580f35b60405163c6e064ad60e01b815260048101829052908482602481865afa918215610b4b576113319285918a91611336575b5016885260098552604088206105b78782546116a8565b6112d6565b61134d9150873d89116105e9576105db818361166e565b3861131a565b9094508281813d8311611381575b61136b818361166e565b8101031261137d5751936112d36112c2565b8580fd5b503d611361565b60405162461bcd60e51b815260048101839052601e60248201527f43616e206f6e6c792064697374726962757465206f6e636520612064617900006044820152606490fd5b50346101fe5760203660031901126101fe576020906040906001600160a01b036113f56115bb565b168152600b83522054604051908152f35b50346101fe5760203660031901126101fe576114206115bb565b6114286115f9565b60018060a01b03166001600160601b0360a01b600154161760015580f35b50346101fe5760203660031901126101fe576114606115f9565b60043560055580f35b50346101fe5760203660031901126101fe57808080806114876115bb565b338252600960205260408220805496905585906001600160a01b03165af16114ad61193a565b50156114be57602090604051908152f35b60405162461bcd60e51b815260206004820152601060248201526f2a3930b739b332b9103330b4b632b21760811b6044820152606490fd5b50346101fe5760203660031901126101fe576115106115f9565b60043560045580f35b50346101fe57806003193601126101fe576020600654604051908152f35b50346101fe57806003193601126101fe576003546040516001600160a01b039091168152602090f35b50346101fe57806003193601126101fe5760ff6020915460a01c166040519015158152f35b905034610875576020366003190112610875576020916040906001600160a01b036115ae6115bb565b1681526009845220548152f35b600435906001600160a01b038216820361032657565b602435906001600160a01b038216820361032657565b6064359062ffffff8216820361032657565b6000546001600160a01b0316330361160d57565b606460405162461bcd60e51b815260206004820152602060248201527f4f776e61626c653a2063616c6c6572206973206e6f7420746865206f776e65726044820152fd5b610100810190811067ffffffffffffffff821117610b1657604052565b90601f8019910116810190811067ffffffffffffffff821117610b1657604052565b90816020910312610326575180151581036103265790565b9190820180921161088d57565b6001546040805163095ea7b360e01b81526001600160a01b039283166004820152602481018790529096949592909116906020816044816000865af180156118295761180a575b50600a42019182421161088d576020946101049360009289519461171f86611651565b85526001600160a01b0396871688860190815262ffffff998a168b8701908152938816606087019081526080870193845260a0870192835260c0870186815260e088018781526001548e5163414bf38960e01b815299518c1660048b015293518b1660248a01529551909b1660448801525188166064870152915160848601525160a4850152965160c484015251841660e483015290948593849291165af191821561180057506000916117d1575090565b90506020813d6020116117f8575b816117ec6020938361166e565b81010312610326575190565b3d91506117df565b513d6000823e3d90fd5b6118229060203d60201161042e5761041f818361166e565b50386116fc565b87513d6000823e3d90fd5b9190820391821161088d57565b1561184857565b60405162461bcd60e51b815260206004820152601860248201527f4e6f2064697374726962757461626c652062616c616e636500000000000000006044820152606490fd5b8181029291811591840414171561088d57565b81156118aa570490565b634e487b7160e01b600052601260045260246000fd5b156118c757565b60405162461bcd60e51b815260206004820152601960248201527f4e6f20757365727320746f206469737472696275746520746f000000000000006044820152606490fd5b600019811461088d5760010190565b9081602091031261032657516001600160a01b03811681036103265790565b3d15611975573d9067ffffffffffffffff8211610b165760405191611969601f8201601f19166020018461166e565b82523d6000602084013e565b606090565b919290156119dc575081511561198e575090565b3b156119975790565b60405162461bcd60e51b815260206004820152601d60248201527f416464726573733a2063616c6c20746f206e6f6e2d636f6e74726163740000006044820152606490fd5b8251909150156119ef5750805190602001fd5b6040519062461bcd60e51b82528160208060048301528251908160248401526000935b828510611a35575050604492506000838284010152601f80199101168101030190fd5b8481018201518686016044015293810193859350611a12565b15611a5557565b60405162461bcd60e51b815260206004820152600e60248201526d105c1c1c9bdd994819985a5b195960921b6044820152606490fdfea2646970667358221220d2f446584dbcb307926417b37448aa709a393b5b2ef240542e764214d94d7a6d64736f6c63430008130033","opcodes":"PUSH1 0x80 DUP1 PUSH1 0x40 MSTORE CALLVALUE PUSH2 0x6B JUMPI PUSH1 0x0 DUP1 SLOAD CALLER PUSH1 0x1 PUSH1 0x1 PUSH1 0xA0 SHL SUB NOT DUP3 AND DUP2 OR DUP4 SSTORE SWAP2 PUSH1 0x1 PUSH1 0x1 PUSH1 0xA0 SHL SUB SWAP1 SWAP2 AND SWAP1 PUSH32 0x8BE0079C531659141344CD1FD0A4F28419497F9722A3DAAFE3B4186F6B6457E0 SWAP1 DUP1 LOG3 PUSH1 0x64 PUSH1 0x4 SSTORE PUSH7 0x2386F26FC10000 PUSH1 0x5 SSTORE PUSH2 0x1AC1 SWAP1 DUP2 PUSH2 0x71 DUP3 CODECOPY RETURN JUMPDEST PUSH1 0x0 DUP1 REVERT INVALID PUSH1 0x80 DUP1 PUSH1 0x40 MSTORE PUSH1 0x4 CALLDATASIZE LT ISZERO PUSH2 0x2C JUMPI JUMPDEST POP CALLDATASIZE ISZERO PUSH2 0x1B JUMPI PUSH1 0x0 DUP1 REVERT JUMPDEST PUSH2 0x27 CALLVALUE PUSH1 0x7 SLOAD PUSH2 0x16A8 JUMP JUMPDEST PUSH1 0x7 SSTORE STOP JUMPDEST PUSH1 0x0 SWAP1 DUP2 CALLDATALOAD PUSH1 0xE0 SHR SWAP1 DUP2 PUSH3 0xA74BE EQ PUSH2 0x1585 JUMPI POP DUP1 PUSH4 0x5F6059D EQ PUSH2 0x1560 JUMPI DUP1 PUSH4 0x10027A28 EQ PUSH2 0x13CD JUMPI DUP1 PUSH4 0x11B0B42D EQ PUSH2 0x1537 JUMPI DUP1 PUSH4 0x1FCE07D5 EQ PUSH2 0x1519 JUMPI DUP1 PUSH4 0x291206F6 EQ PUSH2 0x14F6 JUMPI DUP1 PUSH4 0x2AD2E08C EQ PUSH2 0x1469 JUMPI DUP1 PUSH4 0x37DE8106 EQ PUSH2 0x1446 JUMPI DUP1 PUSH4 0x41273657 EQ PUSH2 0x1406 JUMPI DUP1 PUSH4 0x568DBCCF EQ PUSH2 0x13CD JUMPI DUP1 PUSH4 0x63453AE1 EQ PUSH2 0x122A JUMPI DUP1 PUSH4 0x674EE49D EQ PUSH2 0x11DF JUMPI DUP1 PUSH4 0x6962A863 EQ PUSH2 0xF7D JUMPI DUP1 PUSH4 0x715018A6 EQ PUSH2 0xF23 JUMPI DUP1 PUSH4 0x7450BCE9 EQ PUSH2 0xD5B JUMPI DUP1 PUSH4 0x791B98BC EQ PUSH2 0xEFA JUMPI DUP1 PUSH4 0x808FC206 EQ PUSH2 0xEDC JUMPI DUP1 PUSH4 0x85258B4B EQ PUSH2 0xE09 JUMPI DUP1 PUSH4 0x8DA5CB5B EQ PUSH2 0xDE2 JUMPI DUP1 PUSH4 0x8F3A899A EQ PUSH2 0xD97 JUMPI DUP1 PUSH4 0x91792D5B EQ PUSH2 0xD79 JUMPI DUP1 PUSH4 0x932F9F8A EQ PUSH2 0xD5B JUMPI DUP1 PUSH4 0xA26759CB EQ PUSH2 0xD3D JUMPI DUP1 PUSH4 0xAF2C15C4 EQ PUSH2 0xB75 JUMPI DUP1 PUSH4 0xAFBCE84E EQ PUSH2 0x8C2 JUMPI DUP1 PUSH4 0xBBA5F3B1 EQ PUSH2 0x6EA JUMPI DUP1 PUSH4 0xBCB7557F EQ PUSH2 0x699 JUMPI DUP1 PUSH4 0xC00007B0 EQ PUSH2 0x660 JUMPI DUP1 PUSH4 0xC31C9C07 EQ PUSH2 0x637 JUMPI DUP1 PUSH4 0xD1A06CF8 EQ PUSH2 0x486 JUMPI DUP1 PUSH4 0xD5B2A01A EQ PUSH2 0x468 JUMPI DUP1 PUSH4 0xE2662943 EQ PUSH2 0x32B JUMPI DUP1 PUSH4 0xF0C3B912 EQ PUSH2 0x2C7 JUMPI DUP1 PUSH4 0xF2FDE38B EQ PUSH2 0x201 JUMPI PUSH4 0xFFDF2BCB SUB PUSH2 0xF JUMPI CALLVALUE PUSH2 0x1FE JUMPI PUSH1 0x40 CALLDATASIZE PUSH1 0x3 NOT ADD SLT PUSH2 0x1FE JUMPI PUSH2 0x1CE PUSH2 0x15BB JUMP JUMPDEST PUSH2 0x1D6 PUSH2 0x15F9 JUMP JUMPDEST PUSH1 0x1 PUSH1 0x1 PUSH1 0xA0 SHL SUB AND DUP2 MSTORE PUSH1 0xB PUSH1 0x20 MSTORE PUSH1 0x40 DUP2 KECCAK256 DUP1 SLOAD PUSH2 0x1F9 SWAP1 PUSH1 0x24 CALLDATALOAD SWAP1 PUSH2 0x16A8 JUMP JUMPDEST SWAP1 SSTORE DUP1 RETURN JUMPDEST DUP1 REVERT JUMPDEST POP CALLVALUE PUSH2 0x1FE JUMPI PUSH1 0x20 CALLDATASIZE PUSH1 0x3 NOT ADD SLT PUSH2 0x1FE JUMPI PUSH2 0x21B PUSH2 0x15BB JUMP JUMPDEST PUSH2 0x223 PUSH2 0x15F9 JUMP JUMPDEST PUSH1 0x1 PUSH1 0x1 PUSH1 0xA0 SHL SUB SWAP1 DUP2 AND SWAP1 DUP2 ISZERO PUSH2 0x273 JUMPI PUSH1 0x0 SLOAD DUP3 PUSH1 0x1 PUSH1 0x1 PUSH1 0x60 SHL SUB PUSH1 0xA0 SHL DUP3 AND OR PUSH1 0x0 SSTORE AND PUSH32 0x8BE0079C531659141344CD1FD0A4F28419497F9722A3DAAFE3B4186F6B6457E0 PUSH1 0x0 DUP1 LOG3 DUP1 RETURN JUMPDEST PUSH1 0x40 MLOAD PUSH3 0x461BCD PUSH1 0xE5 SHL DUP2 MSTORE PUSH1 0x20 PUSH1 0x4 DUP3 ADD MSTORE PUSH1 0x26 PUSH1 0x24 DUP3 ADD MSTORE PUSH32 0x4F776E61626C653A206E6577206F776E657220697320746865207A65726F2061 PUSH1 0x44 DUP3 ADD MSTORE PUSH6 0x646472657373 PUSH1 0xD0 SHL PUSH1 0x64 DUP3 ADD MSTORE PUSH1 0x84 SWAP1 REVERT JUMPDEST POP CALLVALUE PUSH2 0x1FE JUMPI PUSH1 0xA0 CALLDATASIZE PUSH1 0x3 NOT ADD SLT PUSH2 0x1FE JUMPI PUSH2 0x2E1 PUSH2 0x15BB JUMP JUMPDEST PUSH2 0x2E9 PUSH2 0x15D1 JUMP JUMPDEST PUSH2 0x2F1 PUSH2 0x15E7 JUMP JUMPDEST SWAP2 PUSH1 0x84 CALLDATALOAD SWAP1 PUSH1 0x1 PUSH1 0x1 PUSH1 0xA0 SHL SUB DUP3 AND DUP3 SUB PUSH2 0x326 JUMPI PUSH1 0x20 SWAP4 PUSH2 0x31E SWAP4 PUSH2 0x315 PUSH2 0x15F9 JUMP JUMPDEST PUSH1 0x44 CALLDATALOAD SWAP3 PUSH2 0x16B5 JUMP JUMPDEST PUSH1 0x40 MLOAD SWAP1 DUP2 MSTORE RETURN JUMPDEST PUSH1 0x0 DUP1 REVERT JUMPDEST POP CALLVALUE PUSH2 0x1FE JUMPI PUSH1 0x40 CALLDATASIZE PUSH1 0x3 NOT ADD SLT PUSH2 0x1FE JUMPI DUP1 PUSH2 0x346 PUSH2 0x15BB JUMP JUMPDEST DUP2 PUSH2 0x34F PUSH2 0x15D1 JUMP JUMPDEST PUSH2 0x357 PUSH2 0x15F9 JUMP JUMPDEST PUSH1 0x1 DUP1 PUSH1 0xA0 SHL SUB DUP1 SWAP4 AND PUSH1 0x3 SLOAD SWAP1 PUSH1 0x44 DUP6 PUSH1 0x1 PUSH1 0x1 PUSH1 0x60 SHL SUB PUSH1 0xA0 SHL SWAP5 DUP4 DUP7 DUP7 AND OR PUSH1 0x3 SSTORE AND DUP1 PUSH1 0x1 SLOAD SWAP6 DUP7 AND OR PUSH1 0x1 SSTORE PUSH1 0x1 PUSH1 0xA0 SHL PUSH1 0xFF PUSH1 0xA0 SHL NOT DUP8 SLOAD AND OR DUP7 SSTORE PUSH1 0x40 MLOAD SWAP6 DUP7 SWAP4 DUP5 SWAP3 DUP3 PUSH4 0x95EA7B3 PUSH1 0xE0 SHL SWAP9 DUP10 DUP7 MSTORE AND OR PUSH1 0x4 DUP5 ADD MSTORE DUP2 PUSH1 0x24 DUP5 ADD MSTORE PUSH1 0x20 SWAP10 DUP11 SWAP7 AND OR GAS CALL SWAP2 DUP3 ISZERO PUSH2 0x45D JUMPI DUP5 SWAP3 PUSH2 0x440 JUMPI JUMPDEST POP PUSH1 0x44 DUP4 PUSH1 0x3 SLOAD AND SWAP4 PUSH1 0x1 SLOAD AND SWAP2 DUP7 PUSH1 0x40 MLOAD SWAP6 DUP7 SWAP5 DUP6 SWAP4 DUP5 MSTORE PUSH1 0x4 DUP5 ADD MSTORE PUSH1 0x0 NOT PUSH1 0x24 DUP5 ADD MSTORE GAS CALL DUP1 ISZERO PUSH2 0x435 JUMPI PUSH2 0x408 JUMPI DUP3 DUP1 RETURN JUMPDEST DUP2 PUSH2 0x427 SWAP3 SWAP1 RETURNDATASIZE LT PUSH2 0x42E JUMPI JUMPDEST PUSH2 0x41F DUP2 DUP4 PUSH2 0x166E JUMP JUMPDEST DUP2 ADD SWAP1 PUSH2 0x1690 JUMP JUMPDEST POP CODESIZE DUP1 DUP3 DUP1 RETURN JUMPDEST POP RETURNDATASIZE PUSH2 0x415 JUMP JUMPDEST PUSH1 0x40 MLOAD RETURNDATASIZE DUP6 DUP3 RETURNDATACOPY RETURNDATASIZE SWAP1 REVERT JUMPDEST PUSH2 0x456 SWAP1 DUP4 RETURNDATASIZE DUP6 GT PUSH2 0x42E JUMPI PUSH2 0x41F DUP2 DUP4 PUSH2 0x166E JUMP JUMPDEST POP CODESIZE PUSH2 0x3D2 JUMP JUMPDEST PUSH1 0x40 MLOAD RETURNDATASIZE DUP8 DUP3 RETURNDATACOPY RETURNDATASIZE SWAP1 REVERT JUMPDEST POP CALLVALUE PUSH2 0x1FE JUMPI DUP1 PUSH1 0x3 NOT CALLDATASIZE ADD SLT PUSH2 0x1FE JUMPI PUSH1 0x20 PUSH1 0x8 SLOAD PUSH1 0x40 MLOAD SWAP1 DUP2 MSTORE RETURN JUMPDEST POP CALLVALUE PUSH2 0x1FE JUMPI PUSH1 0x40 CALLDATASIZE PUSH1 0x3 NOT ADD SLT PUSH2 0x1FE JUMPI PUSH2 0x4A0 PUSH2 0x15BB JUMP JUMPDEST PUSH2 0x4A8 PUSH2 0x15D1 JUMP JUMPDEST SWAP1 PUSH1 0x1 DUP1 PUSH1 0xA0 SHL SUB DUP1 SWAP2 AND DUP1 DUP5 MSTORE PUSH1 0x20 SWAP2 PUSH1 0xB DUP4 MSTORE PUSH2 0x4CC PUSH1 0x40 DUP7 KECCAK256 SLOAD ISZERO ISZERO PUSH2 0x1841 JUMP JUMPDEST DUP2 DUP6 MSTORE PUSH1 0xB DUP4 MSTORE DUP1 PUSH2 0x50C PUSH2 0x2710 PUSH2 0x4EB PUSH1 0x40 DUP10 KECCAK256 SLOAD PUSH1 0x4 SLOAD SWAP1 PUSH2 0x188D JUMP JUMPDEST DIV PUSH2 0x4F8 DUP2 PUSH1 0x8 SLOAD PUSH2 0x16A8 JUMP JUMPDEST PUSH1 0x8 SSTORE DUP5 DUP9 MSTORE PUSH1 0xB DUP7 MSTORE PUSH1 0x40 DUP9 KECCAK256 SLOAD PUSH2 0x1834 JUMP JUMPDEST SWAP5 AND SWAP1 PUSH1 0x40 MLOAD SWAP5 PUSH4 0xB5CB15F7 PUSH1 0xE0 SHL DUP7 MSTORE DUP5 DUP7 PUSH1 0x4 DUP2 DUP7 GAS STATICCALL SWAP6 DUP7 ISZERO PUSH2 0x62C JUMPI DUP8 SWAP7 PUSH2 0x5FB JUMPI JUMPDEST POP DUP6 PUSH2 0x549 SWAP2 PUSH2 0x544 DUP3 ISZERO ISZERO PUSH2 0x18C0 JUMP JUMPDEST PUSH2 0x18A0 JUMP JUMPDEST SWAP2 DUP7 JUMPDEST DUP7 DUP2 LT PUSH2 0x564 JUMPI DUP8 PUSH1 0xB DUP8 DUP8 DUP4 MSTORE MSTORE DUP1 PUSH1 0x40 DUP2 KECCAK256 SSTORE DUP1 RETURN JUMPDEST PUSH1 0x40 MLOAD PUSH4 0xC6E064AD PUSH1 0xE0 SHL DUP2 MSTORE PUSH1 0x4 DUP2 ADD DUP3 SWAP1 MSTORE SWAP1 DUP7 DUP3 PUSH1 0x24 DUP2 DUP7 GAS STATICCALL SWAP2 DUP3 ISZERO PUSH2 0x5F0 JUMPI PUSH2 0x5BE SWAP3 DUP6 SWAP2 DUP12 SWAP2 PUSH2 0x5C3 JUMPI JUMPDEST POP AND DUP10 MSTORE PUSH1 0xA DUP8 MSTORE PUSH1 0x40 DUP10 KECCAK256 DUP7 PUSH1 0x0 MSTORE DUP8 MSTORE PUSH1 0x40 PUSH1 0x0 KECCAK256 PUSH2 0x5B7 DUP7 DUP3 SLOAD PUSH2 0x16A8 JUMP JUMPDEST SWAP1 SSTORE PUSH2 0x190C JUMP JUMPDEST PUSH2 0x54C JUMP JUMPDEST PUSH2 0x5E3 SWAP2 POP DUP10 RETURNDATASIZE DUP12 GT PUSH2 0x5E9 JUMPI JUMPDEST PUSH2 0x5DB DUP2 DUP4 PUSH2 0x166E JUMP JUMPDEST DUP2 ADD SWAP1 PUSH2 0x191B JUMP JUMPDEST CODESIZE PUSH2 0x595 JUMP JUMPDEST POP RETURNDATASIZE PUSH2 0x5D1 JUMP JUMPDEST PUSH1 0x40 MLOAD RETURNDATASIZE DUP12 DUP3 RETURNDATACOPY RETURNDATASIZE SWAP1 REVERT JUMPDEST SWAP1 SWAP6 POP DUP5 DUP2 DUP2 RETURNDATASIZE DUP4 GT PUSH2 0x625 JUMPI JUMPDEST PUSH2 0x613 DUP2 DUP4 PUSH2 0x166E JUMP JUMPDEST DUP2 ADD SUB SLT PUSH2 0x326 JUMPI MLOAD SWAP5 PUSH2 0x549 PUSH2 0x533 JUMP JUMPDEST POP RETURNDATASIZE PUSH2 0x609 JUMP JUMPDEST PUSH1 0x40 MLOAD RETURNDATASIZE DUP10 DUP3 RETURNDATACOPY RETURNDATASIZE SWAP1 REVERT JUMPDEST POP CALLVALUE PUSH2 0x1FE JUMPI DUP1 PUSH1 0x3 NOT CALLDATASIZE ADD SLT PUSH2 0x1FE JUMPI PUSH1 0x1 SLOAD PUSH1 0x40 MLOAD PUSH1 0x1 PUSH1 0x1 PUSH1 0xA0 SHL SUB SWAP1 SWAP2 AND DUP2 MSTORE PUSH1 0x20 SWAP1 RETURN JUMPDEST POP CALLVALUE PUSH2 0x1FE JUMPI PUSH1 0x20 CALLDATASIZE PUSH1 0x3 NOT ADD SLT PUSH2 0x1FE JUMPI PUSH1 0x20 SWAP1 PUSH1 0x40 SWAP1 PUSH1 0x1 PUSH1 0x1 PUSH1 0xA0 SHL SUB PUSH2 0x688 PUSH2 0x15BB JUMP JUMPDEST AND DUP2 MSTORE PUSH1 0x9 DUP4 MSTORE KECCAK256 SLOAD PUSH1 0x40 MLOAD SWAP1 DUP2 MSTORE RETURN JUMPDEST POP CALLVALUE PUSH2 0x1FE JUMPI PUSH1 0x40 CALLDATASIZE PUSH1 0x3 NOT ADD SLT PUSH2 0x1FE JUMPI PUSH2 0x6B3 PUSH2 0x15BB JUMP JUMPDEST SWAP1 PUSH1 0x1 PUSH1 0x1 PUSH1 0xA0 SHL SUB SWAP1 PUSH1 0x40 SWAP1 DUP3 PUSH2 0x6C9 PUSH2 0x15D1 JUMP JUMPDEST AND DUP2 MSTORE PUSH1 0xA PUSH1 0x20 MSTORE KECCAK256 SWAP2 AND PUSH1 0x0 MSTORE PUSH1 0x20 MSTORE PUSH1 0x20 PUSH1 0x40 PUSH1 0x0 KECCAK256 SLOAD PUSH1 0x40 MLOAD SWAP1 DUP2 MSTORE RETURN JUMPDEST POP CALLVALUE PUSH2 0x1FE JUMPI PUSH1 0x80 CALLDATASIZE PUSH1 0x3 NOT ADD SLT PUSH2 0x1FE JUMPI PUSH2 0x704 PUSH2 0x15BB JUMP JUMPDEST PUSH2 0x70C PUSH2 0x15D1 JUMP JUMPDEST PUSH1 0x64 CALLDATALOAD PUSH1 0x1 PUSH1 0x1 PUSH1 0xA0 SHL SUB DUP2 AND SWAP3 PUSH1 0x44 CALLDATALOAD SWAP2 DUP5 SWAP1 SUB PUSH2 0x326 JUMPI PUSH2 0x72D PUSH2 0x15F9 JUMP JUMPDEST PUSH1 0x1 SLOAD PUSH1 0x40 MLOAD PUSH4 0x95EA7B3 PUSH1 0xE0 SHL DUP2 MSTORE PUSH1 0x1 PUSH1 0x1 PUSH1 0xA0 SHL SUB SWAP2 DUP3 AND PUSH1 0x4 DUP3 ADD MSTORE PUSH1 0x24 DUP2 ADD DUP5 SWAP1 MSTORE SWAP2 AND SWAP2 SWAP1 PUSH1 0x20 DUP2 PUSH1 0x44 DUP2 PUSH1 0x0 DUP8 GAS CALL DUP1 ISZERO PUSH2 0x881 JUMPI PUSH2 0x8A3 JUMPI JUMPDEST POP PUSH1 0xA TIMESTAMP ADD DUP1 TIMESTAMP GT PUSH2 0x88D JUMPI PUSH1 0x0 SWAP5 PUSH1 0x20 SWAP5 PUSH1 0x40 MLOAD SWAP5 PUSH2 0x78D DUP7 PUSH2 0x1651 JUMP JUMPDEST DUP6 MSTORE PUSH1 0x1 PUSH1 0x1 PUSH1 0xA0 SHL SUB SWAP1 DUP2 AND DUP7 DUP7 ADD SWAP1 DUP2 MSTORE PUSH2 0xBB8 PUSH1 0x40 DUP1 DUP9 ADD SWAP2 DUP3 MSTORE PUSH1 0x60 DUP9 ADD SWAP5 DUP6 MSTORE PUSH1 0x80 DUP9 ADD SWAP6 DUP7 MSTORE PUSH1 0xA0 DUP9 ADD SWAP7 DUP8 MSTORE PUSH1 0xC0 DUP9 ADD DUP11 DUP2 MSTORE PUSH1 0xE0 DUP10 ADD DUP12 DUP2 MSTORE PUSH1 0x1 SLOAD SWAP3 MLOAD PUSH4 0x414BF389 PUSH1 0xE0 SHL DUP2 MSTORE SWAP10 MLOAD DUP7 AND PUSH1 0x4 DUP12 ADD MSTORE SWAP4 MLOAD DUP6 AND PUSH1 0x24 DUP11 ADD MSTORE SWAP2 MLOAD PUSH3 0xFFFFFF AND PUSH1 0x44 DUP10 ADD MSTORE SWAP4 MLOAD DUP4 AND PUSH1 0x64 DUP9 ADD MSTORE SWAP4 MLOAD PUSH1 0x84 DUP8 ADD MSTORE SWAP4 MLOAD PUSH1 0xA4 DUP7 ADD MSTORE SWAP2 MLOAD PUSH1 0xC4 DUP6 ADD MSTORE SWAP2 MLOAD DUP2 AND PUSH1 0xE4 DUP5 ADD MSTORE SWAP2 SWAP4 DUP5 SWAP3 PUSH2 0x104 SWAP3 DUP5 SWAP3 SWAP2 AND GAS CALL SWAP1 DUP2 ISZERO PUSH2 0x881 JUMPI PUSH1 0x0 SWAP2 PUSH2 0x84A JUMPI JUMPDEST PUSH1 0x20 DUP3 PUSH1 0x40 MLOAD SWAP1 DUP2 MSTORE RETURN JUMPDEST PUSH1 0x20 DUP2 RETURNDATASIZE PUSH1 0x20 GT PUSH2 0x879 JUMPI JUMPDEST DUP2 PUSH2 0x863 PUSH1 0x20 SWAP4 DUP4 PUSH2 0x166E JUMP JUMPDEST DUP2 ADD SUB SLT PUSH2 0x875 JUMPI MLOAD SWAP1 POP PUSH1 0x20 PUSH2 0x83F JUMP JUMPDEST POP DUP1 REVERT JUMPDEST RETURNDATASIZE SWAP2 POP PUSH2 0x856 JUMP JUMPDEST PUSH1 0x40 MLOAD RETURNDATASIZE PUSH1 0x0 DUP3 RETURNDATACOPY RETURNDATASIZE SWAP1 REVERT JUMPDEST PUSH4 0x4E487B71 PUSH1 0xE0 SHL PUSH1 0x0 MSTORE PUSH1 0x11 PUSH1 0x4 MSTORE PUSH1 0x24 PUSH1 0x0 REVERT JUMPDEST PUSH2 0x8BB SWAP1 PUSH1 0x20 RETURNDATASIZE PUSH1 0x20 GT PUSH2 0x42E JUMPI PUSH2 0x41F DUP2 DUP4 PUSH2 0x166E JUMP JUMPDEST POP DUP5 PUSH2 0x76E JUMP JUMPDEST POP CALLVALUE PUSH2 0x1FE JUMPI PUSH1 0xE0 CALLDATASIZE PUSH1 0x3 NOT ADD SLT PUSH2 0x1FE JUMPI PUSH2 0x8DC PUSH2 0x15BB JUMP JUMPDEST PUSH2 0x8E4 PUSH2 0x15D1 JUMP JUMPDEST PUSH1 0x44 CALLDATALOAD SWAP1 PUSH3 0xFFFFFF DUP3 AND DUP1 SWAP3 SUB PUSH2 0x326 JUMPI PUSH1 0xA4 CALLDATALOAD DUP1 PUSH1 0x2 SIGNEXTEND DUP1 SWAP2 SUB PUSH2 0x326 JUMPI PUSH1 0xC4 CALLDATALOAD SWAP2 DUP3 PUSH1 0x2 SIGNEXTEND DUP1 SWAP4 SUB PUSH2 0x326 JUMPI PUSH2 0x91A PUSH2 0x15F9 JUMP JUMPDEST PUSH1 0x2 SLOAD PUSH1 0x40 MLOAD PUSH4 0x95EA7B3 PUSH1 0xE0 SHL DUP2 MSTORE PUSH1 0x1 PUSH1 0x1 PUSH1 0xA0 SHL SUB SWAP2 DUP3 AND PUSH1 0x4 DUP3 ADD MSTORE PUSH1 0x64 CALLDATALOAD PUSH1 0x24 DUP3 ADD MSTORE SWAP6 AND SWAP5 PUSH1 0x20 DUP2 PUSH1 0x44 DUP2 DUP11 DUP11 GAS CALL DUP1 ISZERO PUSH2 0x62C JUMPI PUSH2 0xB56 JUMPI JUMPDEST POP PUSH1 0x2 SLOAD PUSH1 0x40 MLOAD PUSH4 0x95EA7B3 PUSH1 0xE0 SHL DUP2 MSTORE PUSH1 0x1 PUSH1 0x1 PUSH1 0xA0 SHL SUB SWAP2 DUP3 AND PUSH1 0x4 DUP3 ADD MSTORE PUSH1 0x84 CALLDATALOAD PUSH1 0x24 DUP3 ADD DUP2 SWAP1 MSTORE SWAP6 SWAP3 SWAP1 SWAP2 AND SWAP1 PUSH1 0x20 DUP2 PUSH1 0x44 DUP2 DUP12 DUP7 GAS CALL DUP1 ISZERO PUSH2 0xB4B JUMPI PUSH2 0xB2C JUMPI JUMPDEST POP PUSH1 0x40 MLOAD SWAP6 PUSH2 0x160 DUP8 ADD DUP8 DUP2 LT PUSH8 0xFFFFFFFFFFFFFFFF DUP3 GT OR PUSH2 0xB16 JUMPI PUSH1 0x40 MSTORE DUP7 MSTORE PUSH1 0x20 DUP7 ADD MSTORE PUSH1 0x40 DUP6 ADD MSTORE PUSH1 0x60 DUP5 ADD MSTORE PUSH1 0x80 DUP4 ADD MSTORE PUSH1 0x64 CALLDATALOAD PUSH1 0xA0 DUP4 ADD MSTORE PUSH1 0xC0 DUP3 ADD MSTORE DUP2 PUSH1 0xE0 DUP3 ADD MSTORE DUP2 PUSH2 0x100 DUP3 ADD MSTORE ADDRESS PUSH2 0x120 DUP3 ADD MSTORE TIMESTAMP PUSH2 0x140 DUP3 ADD MSTORE PUSH1 0x80 PUSH2 0x140 PUSH2 0x164 PUSH1 0x1 DUP1 PUSH1 0xA0 SHL SUB PUSH1 0x2 SLOAD AND SWAP4 DUP6 PUSH1 0x40 MLOAD SWAP6 DUP7 SWAP5 DUP6 SWAP4 PUSH4 0x4418B22B PUSH1 0xE1 SHL DUP6 MSTORE PUSH1 0x1 DUP1 PUSH1 0xA0 SHL SUB DUP2 MLOAD AND PUSH1 0x4 DUP7 ADD MSTORE PUSH1 0x1 DUP1 PUSH1 0xA0 SHL SUB PUSH1 0x20 DUP3 ADD MLOAD AND PUSH1 0x24 DUP7 ADD MSTORE PUSH3 0xFFFFFF PUSH1 0x40 DUP3 ADD MLOAD AND PUSH1 0x44 DUP7 ADD MSTORE PUSH1 0x60 DUP2 ADD MLOAD PUSH1 0x2 SIGNEXTEND PUSH1 0x64 DUP7 ADD MSTORE DUP8 DUP2 ADD MLOAD PUSH1 0x2 SIGNEXTEND PUSH1 0x84 DUP7 ADD MSTORE PUSH1 0xA0 DUP2 ADD MLOAD PUSH1 0xA4 DUP7 ADD MSTORE PUSH1 0xC0 DUP2 ADD MLOAD PUSH1 0xC4 DUP7 ADD MSTORE PUSH1 0xE0 DUP2 ADD MLOAD PUSH1 0xE4 DUP7 ADD MSTORE PUSH2 0x100 DUP2 ADD MLOAD PUSH2 0x104 DUP7 ADD MSTORE PUSH1 0x1 DUP1 PUSH1 0xA0 SHL SUB PUSH2 0x120 DUP3 ADD MLOAD AND PUSH2 0x124 DUP7 ADD MSTORE ADD MLOAD PUSH2 0x144 DUP5 ADD MSTORE GAS CALL DUP1 ISZERO PUSH2 0xB0B JUMPI PUSH2 0xAC4 JUMPI POP DUP1 RETURN JUMPDEST PUSH1 0x80 DUP2 RETURNDATASIZE DUP3 GT PUSH2 0xB03 JUMPI JUMPDEST DUP2 PUSH2 0xADC PUSH1 0x80 SWAP4 DUP4 PUSH2 0x166E JUMP JUMPDEST DUP2 ADD SUB SLT PUSH2 0x875 JUMPI PUSH1 0x20 ADD MLOAD PUSH16 0xFFFFFFFFFFFFFFFFFFFFFFFFFFFFFFFF DUP2 AND SUB PUSH2 0x1FE JUMPI DUP1 RETURN JUMPDEST RETURNDATASIZE SWAP2 POP PUSH2 0xACF JUMP JUMPDEST PUSH1 0x40 MLOAD RETURNDATASIZE DUP5 DUP3 RETURNDATACOPY RETURNDATASIZE SWAP1 REVERT JUMPDEST PUSH4 0x4E487B71 PUSH1 0xE0 SHL PUSH1 0x0 MSTORE PUSH1 0x41 PUSH1 0x4 MSTORE PUSH1 0x24 PUSH1 0x0 REVERT JUMPDEST PUSH2 0xB44 SWAP1 PUSH1 0x20 RETURNDATASIZE PUSH1 0x20 GT PUSH2 0x42E JUMPI PUSH2 0x41F DUP2 DUP4 PUSH2 0x166E JUMP JUMPDEST POP CODESIZE PUSH2 0x9A0 JUMP JUMPDEST PUSH1 0x40 MLOAD RETURNDATASIZE DUP11 DUP3 RETURNDATACOPY RETURNDATASIZE SWAP1 REVERT JUMPDEST PUSH2 0xB6E SWAP1 PUSH1 0x20 RETURNDATASIZE PUSH1 0x20 GT PUSH2 0x42E JUMPI PUSH2 0x41F DUP2 DUP4 PUSH2 0x166E JUMP JUMPDEST POP CODESIZE PUSH2 0x95A JUMP JUMPDEST POP CALLVALUE PUSH2 0x1FE JUMPI PUSH1 0x40 CALLDATASIZE PUSH1 0x3 NOT ADD SLT PUSH2 0x1FE JUMPI PUSH2 0xB8F PUSH2 0x15BB JUMP JUMPDEST PUSH2 0xB97 PUSH2 0x15D1 JUMP JUMPDEST SWAP2 CALLER DUP2 MSTORE PUSH1 0x20 SWAP3 PUSH1 0xA DUP5 MSTORE PUSH1 0x40 DUP3 KECCAK256 SWAP3 PUSH1 0x1 DUP1 PUSH1 0xA0 SHL SUB AND SWAP3 DUP4 PUSH1 0x0 MSTORE DUP5 MSTORE PUSH1 0x40 PUSH1 0x0 KECCAK256 SLOAD SWAP3 DUP4 ISZERO PUSH2 0xD02 JUMPI CALLER DUP4 MSTORE PUSH1 0xA DUP6 MSTORE PUSH1 0x40 DUP1 DUP5 KECCAK256 PUSH1 0x0 DUP4 DUP2 MSTORE SWAP1 DUP8 MSTORE DUP2 SWAP1 KECCAK256 DUP5 SWAP1 SSTORE MLOAD PUSH4 0xA9059CBB PUSH1 0xE0 SHL DUP2 DUP8 ADD SWAP1 DUP2 MSTORE PUSH1 0x1 PUSH1 0x1 PUSH1 0xA0 SHL SUB SWAP4 SWAP1 SWAP4 AND PUSH1 0x24 DUP3 ADD MSTORE PUSH1 0x44 DUP1 DUP3 ADD DUP7 SWAP1 MSTORE DUP2 MSTORE SWAP3 PUSH2 0xC13 PUSH1 0x64 DUP6 PUSH2 0x166E JUMP JUMPDEST PUSH1 0x40 MLOAD SWAP3 PUSH1 0x40 DUP5 ADD SWAP1 DUP5 DUP3 LT PUSH8 0xFFFFFFFFFFFFFFFF DUP4 GT OR PUSH2 0xB16 JUMPI PUSH2 0xC74 SWAP6 DUP4 SWAP3 PUSH1 0x40 MSTORE DUP9 DUP7 MSTORE PUSH32 0x5361666545524332303A206C6F772D6C6576656C2063616C6C206661696C6564 DUP10 DUP8 ADD MSTORE MLOAD SWAP1 DUP3 DUP6 GAS CALL PUSH2 0xC6E PUSH2 0x193A JUMP JUMPDEST SWAP2 PUSH2 0x197A JUMP JUMPDEST DUP1 MLOAD SWAP1 DUP4 DUP3 ISZERO SWAP3 DUP4 ISZERO PUSH2 0xCEA JUMPI JUMPDEST POP POP POP ISZERO PUSH2 0xC92 JUMPI PUSH1 0x40 MLOAD SWAP1 DUP2 MSTORE RETURN JUMPDEST PUSH1 0x40 MLOAD PUSH3 0x461BCD PUSH1 0xE5 SHL DUP2 MSTORE PUSH1 0x4 DUP2 ADD DUP4 SWAP1 MSTORE PUSH1 0x2A PUSH1 0x24 DUP3 ADD MSTORE PUSH32 0x5361666545524332303A204552433230206F7065726174696F6E20646964206E PUSH1 0x44 DUP3 ADD MSTORE PUSH10 0x1BDD081CDD58D8D95959 PUSH1 0xB2 SHL PUSH1 0x64 DUP3 ADD MSTORE PUSH1 0x84 SWAP1 REVERT JUMPDEST PUSH2 0xCFA SWAP4 POP DUP3 ADD DUP2 ADD SWAP2 ADD PUSH2 0x1690 JUMP JUMPDEST CODESIZE DUP4 DUP2 PUSH2 0xC82 JUMP JUMPDEST PUSH1 0x40 MLOAD PUSH3 0x461BCD PUSH1 0xE5 SHL DUP2 MSTORE PUSH1 0x4 DUP2 ADD DUP7 SWAP1 MSTORE PUSH1 0x13 PUSH1 0x24 DUP3 ADD MSTORE PUSH19 0x4E6F2072657761726420617661696C61626C65 PUSH1 0x68 SHL PUSH1 0x44 DUP3 ADD MSTORE PUSH1 0x64 SWAP1 REVERT JUMPDEST POP DUP1 PUSH1 0x3 NOT CALLDATASIZE ADD SLT PUSH2 0x1FE JUMPI PUSH2 0xD55 CALLVALUE PUSH1 0x7 SLOAD PUSH2 0x16A8 JUMP JUMPDEST PUSH1 0x7 SSTORE DUP1 RETURN JUMPDEST POP CALLVALUE PUSH2 0x1FE JUMPI DUP1 PUSH1 0x3 NOT CALLDATASIZE ADD SLT PUSH2 0x1FE JUMPI PUSH1 0x20 PUSH1 0x7 SLOAD PUSH1 0x40 MLOAD SWAP1 DUP2 MSTORE RETURN JUMPDEST POP CALLVALUE PUSH2 0x1FE JUMPI DUP1 PUSH1 0x3 NOT CALLDATASIZE ADD SLT PUSH2 0x1FE JUMPI PUSH1 0x20 PUSH1 0x5 SLOAD PUSH1 0x40 MLOAD SWAP1 DUP2 MSTORE RETURN JUMPDEST POP CALLVALUE PUSH2 0x1FE JUMPI PUSH1 0x20 CALLDATASIZE PUSH1 0x3 NOT ADD SLT PUSH2 0x1FE JUMPI PUSH1 0x4 CALLDATALOAD DUP1 ISZERO ISZERO DUP1 SWAP2 SUB PUSH2 0x875 JUMPI PUSH2 0xDBE PUSH2 0x15F9 JUMP JUMPDEST DUP2 SLOAD PUSH1 0xFF PUSH1 0xA0 SHL NOT AND PUSH1 0xA0 SWAP2 SWAP1 SWAP2 SHL PUSH1 0xFF PUSH1 0xA0 SHL AND OR SWAP1 SSTORE PUSH1 0x40 MLOAD PUSH1 0x1 DUP2 MSTORE PUSH1 0x20 SWAP1 RETURN JUMPDEST POP CALLVALUE PUSH2 0x1FE JUMPI DUP1 PUSH1 0x3 NOT CALLDATASIZE ADD SLT PUSH2 0x1FE JUMPI SLOAD PUSH1 0x40 MLOAD PUSH1 0x1 PUSH1 0x1 PUSH1 0xA0 SHL SUB SWAP1 SWAP2 AND DUP2 MSTORE PUSH1 0x20 SWAP1 RETURN JUMPDEST POP CALLVALUE PUSH2 0x1FE JUMPI PUSH1 0x40 CALLDATASIZE PUSH1 0x3 NOT ADD SLT PUSH2 0x1FE JUMPI PUSH2 0xE6F PUSH2 0xE26 PUSH2 0x15BB JUMP JUMPDEST PUSH2 0xE2E PUSH2 0x15F9 JUMP JUMPDEST PUSH1 0x1 SLOAD PUSH1 0x40 MLOAD PUSH4 0x95EA7B3 PUSH1 0xE0 SHL DUP1 DUP3 MSTORE PUSH1 0x1 PUSH1 0x1 PUSH1 0xA0 SHL SUB SWAP3 DUP4 AND PUSH1 0x4 DUP4 ADD MSTORE PUSH1 0x24 DUP1 CALLDATALOAD SWAP1 DUP4 ADD MSTORE PUSH1 0x20 SWAP5 SWAP4 DUP4 AND SWAP4 SWAP2 SWAP3 SWAP1 SWAP2 DUP6 SWAP1 DUP5 SWAP1 DUP2 SWAP1 PUSH1 0x44 DUP3 ADD SWAP1 JUMP JUMPDEST SUB DUP2 DUP10 DUP9 GAS CALL SWAP1 DUP2 ISZERO PUSH2 0xED1 JUMPI DUP6 SWAP4 PUSH1 0x44 SWAP3 PUSH2 0xEB4 JUMPI JUMPDEST POP PUSH1 0x1 SLOAD AND SWAP2 DUP7 PUSH1 0x40 MLOAD SWAP6 DUP7 SWAP5 DUP6 SWAP4 DUP5 MSTORE PUSH1 0x4 DUP5 ADD MSTORE PUSH1 0x0 NOT PUSH1 0x24 DUP5 ADD MSTORE GAS CALL DUP1 ISZERO PUSH2 0x435 JUMPI PUSH2 0x408 JUMPI DUP3 DUP1 RETURN JUMPDEST PUSH2 0xECA SWAP1 DUP6 RETURNDATASIZE DUP8 GT PUSH2 0x42E JUMPI PUSH2 0x41F DUP2 DUP4 PUSH2 0x166E JUMP JUMPDEST POP CODESIZE PUSH2 0xE86 JUMP JUMPDEST PUSH1 0x40 MLOAD RETURNDATASIZE DUP9 DUP3 RETURNDATACOPY RETURNDATASIZE SWAP1 REVERT JUMPDEST POP CALLVALUE PUSH2 0x1FE JUMPI DUP1 PUSH1 0x3 NOT CALLDATASIZE ADD SLT PUSH2 0x1FE JUMPI PUSH1 0x20 PUSH1 0x4 SLOAD PUSH1 0x40 MLOAD SWAP1 DUP2 MSTORE RETURN JUMPDEST POP CALLVALUE PUSH2 0x1FE JUMPI DUP1 PUSH1 0x3 NOT CALLDATASIZE ADD SLT PUSH2 0x1FE JUMPI PUSH1 0x2 SLOAD PUSH1 0x40 MLOAD PUSH1 0x1 PUSH1 0x1 PUSH1 0xA0 SHL SUB SWAP1 SWAP2 AND DUP2 MSTORE PUSH1 0x20 SWAP1 RETURN JUMPDEST POP CALLVALUE PUSH2 0x1FE JUMPI DUP1 PUSH1 0x3 NOT CALLDATASIZE ADD SLT PUSH2 0x1FE JUMPI PUSH2 0xF3C PUSH2 0x15F9 JUMP JUMPDEST PUSH1 0x0 DUP1 SLOAD PUSH1 0x1 PUSH1 0x1 PUSH1 0xA0 SHL SUB NOT DUP2 AND DUP3 SSTORE PUSH1 0x1 PUSH1 0x1 PUSH1 0xA0 SHL SUB AND PUSH32 0x8BE0079C531659141344CD1FD0A4F28419497F9722A3DAAFE3B4186F6B6457E0 DUP3 DUP1 LOG3 DUP1 RETURN JUMPDEST POP CALLVALUE PUSH2 0x1FE JUMPI PUSH1 0xA0 CALLDATASIZE PUSH1 0x3 NOT ADD SLT PUSH2 0x1FE JUMPI PUSH2 0xF97 PUSH2 0x15BB JUMP JUMPDEST SWAP1 PUSH2 0xFA0 PUSH2 0x15D1 JUMP JUMPDEST PUSH1 0x1 PUSH1 0x1 PUSH1 0xA0 SHL SUB PUSH1 0x44 CALLDATALOAD DUP2 DUP2 AND SWAP3 SWAP2 DUP4 DUP3 SUB PUSH2 0x11DB JUMPI PUSH2 0xFBF PUSH2 0x15E7 JUMP JUMPDEST SWAP2 PUSH1 0x84 CALLDATALOAD SWAP2 PUSH3 0xFFFFFF DUP4 AND DUP4 SUB PUSH2 0x11D7 JUMPI PUSH2 0xFD8 PUSH2 0x15F9 JUMP JUMPDEST PUSH1 0x40 MLOAD PUSH4 0x70A08231 PUSH1 0xE0 SHL DUP2 MSTORE ADDRESS PUSH1 0x4 DUP3 ADD MSTORE PUSH1 0x20 SWAP9 SWAP1 DUP10 DUP2 PUSH1 0x24 DUP2 DUP7 DUP7 AND GAS STATICCALL SWAP1 DUP2 ISZERO PUSH2 0x5F0 JUMPI DUP10 SWAP2 PUSH2 0x11A6 JUMPI JUMPDEST POP PUSH1 0x1 SLOAD PUSH1 0x40 MLOAD PUSH4 0x95EA7B3 PUSH1 0xE0 SHL DUP1 DUP3 MSTORE SWAP2 DUP6 AND PUSH1 0x1 PUSH1 0x1 PUSH1 0xA0 SHL SUB AND PUSH1 0x4 DUP3 ADD MSTORE PUSH1 0x24 DUP2 ADD DUP4 SWAP1 MSTORE SWAP1 SWAP7 SWAP1 DUP12 DUP2 PUSH1 0x44 DUP2 DUP15 DUP9 DUP11 AND GAS CALL SWAP1 DUP2 ISZERO PUSH2 0x119B JUMPI PUSH2 0x1068 SWAP5 SWAP4 SWAP3 SWAP2 PUSH2 0x1060 SWAP2 DUP15 DUP15 SWAP3 PUSH2 0x117E JUMPI JUMPDEST POP POP PUSH2 0x1A4E JUMP JUMPDEST DUP9 ADDRESS SWAP4 PUSH2 0x16B5 JUMP JUMPDEST SWAP4 DUP5 ISZERO PUSH2 0x1146 JUMPI PUSH1 0x1 SLOAD PUSH1 0x40 MLOAD SWAP2 DUP3 MSTORE DUP3 AND PUSH1 0x1 PUSH1 0x1 PUSH1 0xA0 SHL SUB AND PUSH1 0x4 DUP3 ADD MSTORE PUSH1 0x24 DUP2 ADD DUP6 SWAP1 MSTORE SWAP7 SWAP8 DUP9 SWAP8 SWAP6 SWAP5 SWAP4 SWAP3 SWAP2 DUP2 SWAP1 DUP8 SWAP1 PUSH1 0x44 SWAP1 DUP3 SWAP1 DUP13 SWAP1 DUP11 AND GAS CALL DUP1 ISZERO PUSH2 0xB4B JUMPI PUSH2 0x10C9 SWAP7 PUSH2 0x10C2 SWAP3 DUP11 SWAP3 PUSH2 0x1129 JUMPI POP POP PUSH2 0x1A4E JUMP JUMPDEST ADDRESS SWAP4 PUSH2 0x16B5 JUMP JUMPDEST SWAP1 DUP1 EXTCODESIZE ISZERO PUSH2 0x1125 JUMPI PUSH1 0x24 DUP4 SWAP3 PUSH1 0x40 MLOAD SWAP5 DUP6 SWAP4 DUP5 SWAP3 PUSH4 0x852CD8D PUSH1 0xE3 SHL DUP5 MSTORE PUSH1 0x4 DUP5 ADD MSTORE GAS CALL DUP1 ISZERO PUSH2 0xB0B JUMPI PUSH2 0x10FC JUMPI POP DUP1 RETURN JUMPDEST PUSH8 0xFFFFFFFFFFFFFFFF DUP2 GT PUSH2 0x1111 JUMPI PUSH1 0x40 MSTORE DUP1 RETURN JUMPDEST PUSH4 0x4E487B71 PUSH1 0xE0 SHL DUP3 MSTORE PUSH1 0x41 PUSH1 0x4 MSTORE PUSH1 0x24 DUP3 REVERT JUMPDEST POP POP REVERT JUMPDEST PUSH2 0x113F SWAP3 POP DUP1 RETURNDATASIZE LT PUSH2 0x42E JUMPI PUSH2 0x41F DUP2 DUP4 PUSH2 0x166E JUMP JUMPDEST CODESIZE DUP1 PUSH2 0x1059 JUMP JUMPDEST PUSH1 0x40 MLOAD PUSH3 0x461BCD PUSH1 0xE5 SHL DUP2 MSTORE PUSH1 0x4 DUP2 ADD DUP11 SWAP1 MSTORE PUSH1 0x10 PUSH1 0x24 DUP3 ADD MSTORE PUSH16 0x139BC81D1BDAD95B9CC8189BDD59DA1D PUSH1 0x82 SHL PUSH1 0x44 DUP3 ADD MSTORE PUSH1 0x64 SWAP1 REVERT JUMPDEST PUSH2 0x1194 SWAP3 POP DUP1 RETURNDATASIZE LT PUSH2 0x42E JUMPI PUSH2 0x41F DUP2 DUP4 PUSH2 0x166E JUMP JUMPDEST CODESIZE DUP15 PUSH2 0x1059 JUMP JUMPDEST PUSH1 0x40 MLOAD RETURNDATASIZE DUP14 DUP3 RETURNDATACOPY RETURNDATASIZE SWAP1 REVERT JUMPDEST SWAP1 POP DUP10 DUP2 DUP2 RETURNDATASIZE DUP4 GT PUSH2 0x11D0 JUMPI JUMPDEST PUSH2 0x11BD DUP2 DUP4 PUSH2 0x166E JUMP JUMPDEST DUP2 ADD SUB SLT PUSH2 0x11CC JUMPI MLOAD CODESIZE PUSH2 0x1007 JUMP JUMPDEST DUP9 DUP1 REVERT JUMPDEST POP RETURNDATASIZE PUSH2 0x11B3 JUMP JUMPDEST DUP7 DUP1 REVERT JUMPDEST DUP5 DUP1 REVERT JUMPDEST POP CALLVALUE PUSH2 0x1FE JUMPI PUSH1 0x40 CALLDATASIZE PUSH1 0x3 NOT ADD SLT PUSH2 0x1FE JUMPI PUSH1 0x40 PUSH1 0x20 SWAP2 PUSH2 0x11FE PUSH2 0x15BB JUMP JUMPDEST PUSH2 0x1206 PUSH2 0x15D1 JUMP JUMPDEST PUSH1 0x1 PUSH1 0x1 PUSH1 0xA0 SHL SUB SWAP2 DUP3 AND DUP4 MSTORE PUSH1 0xA DUP6 MSTORE DUP4 DUP4 KECCAK256 SWAP2 AND DUP3 MSTORE DUP4 MSTORE KECCAK256 SLOAD PUSH1 0x40 MLOAD SWAP1 DUP2 MSTORE RETURN JUMPDEST POP CALLVALUE PUSH2 0x1FE JUMPI PUSH1 0x20 DUP1 PUSH1 0x3 NOT CALLDATASIZE ADD SLT PUSH2 0x875 JUMPI PUSH2 0x1245 PUSH2 0x15BB JUMP JUMPDEST PUSH3 0x15180 PUSH2 0x1255 PUSH1 0x6 SLOAD TIMESTAMP PUSH2 0x1834 JUMP JUMPDEST LT PUSH2 0x1388 JUMPI PUSH2 0x1290 PUSH1 0x7 SLOAD PUSH2 0x126B DUP2 ISZERO ISZERO PUSH2 0x1841 JUMP JUMPDEST PUSH2 0x2710 PUSH2 0x127A PUSH1 0x4 SLOAD DUP4 PUSH2 0x188D JUMP JUMPDEST DIV SWAP1 PUSH2 0x1288 DUP3 PUSH1 0x8 SLOAD PUSH2 0x16A8 JUMP JUMPDEST PUSH1 0x8 SSTORE PUSH2 0x1834 JUMP JUMPDEST PUSH1 0x40 MLOAD PUSH4 0xB5CB15F7 PUSH1 0xE0 SHL DUP2 MSTORE SWAP3 PUSH1 0x1 PUSH1 0x1 PUSH1 0xA0 SHL SUB SWAP3 DUP4 AND SWAP3 SWAP1 SWAP2 DUP3 DUP6 PUSH1 0x4 DUP2 DUP8 GAS STATICCALL SWAP5 DUP6 ISZERO PUSH2 0xED1 JUMPI DUP7 SWAP6 PUSH2 0x1353 JUMPI JUMPDEST POP DUP5 PUSH2 0x12D3 SWAP2 PUSH2 0x544 DUP3 ISZERO ISZERO PUSH2 0x18C0 JUMP JUMPDEST SWAP3 DUP6 JUMPDEST DUP6 DUP2 LT PUSH2 0x12E9 JUMPI DUP7 TIMESTAMP PUSH1 0x6 SSTORE DUP1 PUSH1 0x7 SSTORE DUP1 RETURN JUMPDEST PUSH1 0x40 MLOAD PUSH4 0xC6E064AD PUSH1 0xE0 SHL DUP2 MSTORE PUSH1 0x4 DUP2 ADD DUP3 SWAP1 MSTORE SWAP1 DUP5 DUP3 PUSH1 0x24 DUP2 DUP7 GAS STATICCALL SWAP2 DUP3 ISZERO PUSH2 0xB4B JUMPI PUSH2 0x1331 SWAP3 DUP6 SWAP2 DUP11 SWAP2 PUSH2 0x1336 JUMPI JUMPDEST POP AND DUP9 MSTORE PUSH1 0x9 DUP6 MSTORE PUSH1 0x40 DUP9 KECCAK256 PUSH2 0x5B7 DUP8 DUP3 SLOAD PUSH2 0x16A8 JUMP JUMPDEST PUSH2 0x12D6 JUMP JUMPDEST PUSH2 0x134D SWAP2 POP DUP8 RETURNDATASIZE DUP10 GT PUSH2 0x5E9 JUMPI PUSH2 0x5DB DUP2 DUP4 PUSH2 0x166E JUMP JUMPDEST CODESIZE PUSH2 0x131A JUMP JUMPDEST SWAP1 SWAP5 POP DUP3 DUP2 DUP2 RETURNDATASIZE DUP4 GT PUSH2 0x1381 JUMPI JUMPDEST PUSH2 0x136B DUP2 DUP4 PUSH2 0x166E JUMP JUMPDEST DUP2 ADD SUB SLT PUSH2 0x137D JUMPI MLOAD SWAP4 PUSH2 0x12D3 PUSH2 0x12C2 JUMP JUMPDEST DUP6 DUP1 REVERT JUMPDEST POP RETURNDATASIZE PUSH2 0x1361 JUMP JUMPDEST PUSH1 0x40 MLOAD PUSH3 0x461BCD PUSH1 0xE5 SHL DUP2 MSTORE PUSH1 0x4 DUP2 ADD DUP4 SWAP1 MSTORE PUSH1 0x1E PUSH1 0x24 DUP3 ADD MSTORE PUSH32 0x43616E206F6E6C792064697374726962757465206F6E63652061206461790000 PUSH1 0x44 DUP3 ADD MSTORE PUSH1 0x64 SWAP1 REVERT JUMPDEST POP CALLVALUE PUSH2 0x1FE JUMPI PUSH1 0x20 CALLDATASIZE PUSH1 0x3 NOT ADD SLT PUSH2 0x1FE JUMPI PUSH1 0x20 SWAP1 PUSH1 0x40 SWAP1 PUSH1 0x1 PUSH1 0x1 PUSH1 0xA0 SHL SUB PUSH2 0x13F5 PUSH2 0x15BB JUMP JUMPDEST AND DUP2 MSTORE PUSH1 0xB DUP4 MSTORE KECCAK256 SLOAD PUSH1 0x40 MLOAD SWAP1 DUP2 MSTORE RETURN JUMPDEST POP CALLVALUE PUSH2 0x1FE JUMPI PUSH1 0x20 CALLDATASIZE PUSH1 0x3 NOT ADD SLT PUSH2 0x1FE JUMPI PUSH2 0x1420 PUSH2 0x15BB JUMP JUMPDEST PUSH2 0x1428 PUSH2 0x15F9 JUMP JUMPDEST PUSH1 0x1 DUP1 PUSH1 0xA0 SHL SUB AND PUSH1 0x1 PUSH1 0x1 PUSH1 0x60 SHL SUB PUSH1 0xA0 SHL PUSH1 0x1 SLOAD AND OR PUSH1 0x1 SSTORE DUP1 RETURN JUMPDEST POP CALLVALUE PUSH2 0x1FE JUMPI PUSH1 0x20 CALLDATASIZE PUSH1 0x3 NOT ADD SLT PUSH2 0x1FE JUMPI PUSH2 0x1460 PUSH2 0x15F9 JUMP JUMPDEST PUSH1 0x4 CALLDATALOAD PUSH1 0x5 SSTORE DUP1 RETURN JUMPDEST POP CALLVALUE PUSH2 0x1FE JUMPI PUSH1 0x20 CALLDATASIZE PUSH1 0x3 NOT ADD SLT PUSH2 0x1FE JUMPI DUP1 DUP1 DUP1 DUP1 PUSH2 0x1487 PUSH2 0x15BB JUMP JUMPDEST CALLER DUP3 MSTORE PUSH1 0x9 PUSH1 0x20 MSTORE PUSH1 0x40 DUP3 KECCAK256 DUP1 SLOAD SWAP7 SWAP1 SSTORE DUP6 SWAP1 PUSH1 0x1 PUSH1 0x1 PUSH1 0xA0 SHL SUB AND GAS CALL PUSH2 0x14AD PUSH2 0x193A JUMP JUMPDEST POP ISZERO PUSH2 0x14BE JUMPI PUSH1 0x20 SWAP1 PUSH1 0x40 MLOAD SWAP1 DUP2 MSTORE RETURN JUMPDEST PUSH1 0x40 MLOAD PUSH3 0x461BCD PUSH1 0xE5 SHL DUP2 MSTORE PUSH1 0x20 PUSH1 0x4 DUP3 ADD MSTORE PUSH1 0x10 PUSH1 0x24 DUP3 ADD MSTORE PUSH16 0x2A3930B739B332B9103330B4B632B217 PUSH1 0x81 SHL PUSH1 0x44 DUP3 ADD MSTORE PUSH1 0x64 SWAP1 REVERT JUMPDEST POP CALLVALUE PUSH2 0x1FE JUMPI PUSH1 0x20 CALLDATASIZE PUSH1 0x3 NOT ADD SLT PUSH2 0x1FE JUMPI PUSH2 0x1510 PUSH2 0x15F9 JUMP JUMPDEST PUSH1 0x4 CALLDATALOAD PUSH1 0x4 SSTORE DUP1 RETURN JUMPDEST POP CALLVALUE PUSH2 0x1FE JUMPI DUP1 PUSH1 0x3 NOT CALLDATASIZE ADD SLT PUSH2 0x1FE JUMPI PUSH1 0x20 PUSH1 0x6 SLOAD PUSH1 0x40 MLOAD SWAP1 DUP2 MSTORE RETURN JUMPDEST POP CALLVALUE PUSH2 0x1FE JUMPI DUP1 PUSH1 0x3 NOT CALLDATASIZE ADD SLT PUSH2 0x1FE JUMPI PUSH1 0x3 SLOAD PUSH1 0x40 MLOAD PUSH1 0x1 PUSH1 0x1 PUSH1 0xA0 SHL SUB SWAP1 SWAP2 AND DUP2 MSTORE PUSH1 0x20 SWAP1 RETURN JUMPDEST POP CALLVALUE PUSH2 0x1FE JUMPI DUP1 PUSH1 0x3 NOT CALLDATASIZE ADD SLT PUSH2 0x1FE JUMPI PUSH1 0xFF PUSH1 0x20 SWAP2 SLOAD PUSH1 0xA0 SHR AND PUSH1 0x40 MLOAD SWAP1 ISZERO ISZERO DUP2 MSTORE RETURN JUMPDEST SWAP1 POP CALLVALUE PUSH2 0x875 JUMPI PUSH1 0x20 CALLDATASIZE PUSH1 0x3 NOT ADD SLT PUSH2 0x875 JUMPI PUSH1 0x20 SWAP2 PUSH1 0x40 SWAP1 PUSH1 0x1 PUSH1 0x1 PUSH1 0xA0 SHL SUB PUSH2 0x15AE PUSH2 0x15BB JUMP JUMPDEST AND DUP2 MSTORE PUSH1 0x9 DUP5 MSTORE KECCAK256 SLOAD DUP2 MSTORE RETURN JUMPDEST PUSH1 0x4 CALLDATALOAD SWAP1 PUSH1 0x1 PUSH1 0x1 PUSH1 0xA0 SHL SUB DUP3 AND DUP3 SUB PUSH2 0x326 JUMPI JUMP JUMPDEST PUSH1 0x24 CALLDATALOAD SWAP1 PUSH1 0x1 PUSH1 0x1 PUSH1 0xA0 SHL SUB DUP3 AND DUP3 SUB PUSH2 0x326 JUMPI JUMP JUMPDEST PUSH1 0x64 CALLDATALOAD SWAP1 PUSH3 0xFFFFFF DUP3 AND DUP3 SUB PUSH2 0x326 JUMPI JUMP JUMPDEST PUSH1 0x0 SLOAD PUSH1 0x1 PUSH1 0x1 PUSH1 0xA0 SHL SUB AND CALLER SUB PUSH2 0x160D JUMPI JUMP JUMPDEST PUSH1 0x64 PUSH1 0x40 MLOAD PUSH3 0x461BCD PUSH1 0xE5 SHL DUP2 MSTORE PUSH1 0x20 PUSH1 0x4 DUP3 ADD MSTORE PUSH1 0x20 PUSH1 0x24 DUP3 ADD MSTORE PUSH32 0x4F776E61626C653A2063616C6C6572206973206E6F7420746865206F776E6572 PUSH1 0x44 DUP3 ADD MSTORE REVERT JUMPDEST PUSH2 0x100 DUP2 ADD SWAP1 DUP2 LT PUSH8 0xFFFFFFFFFFFFFFFF DUP3 GT OR PUSH2 0xB16 JUMPI PUSH1 0x40 MSTORE JUMP JUMPDEST SWAP1 PUSH1 0x1F DUP1 NOT SWAP2 ADD AND DUP2 ADD SWAP1 DUP2 LT PUSH8 0xFFFFFFFFFFFFFFFF DUP3 GT OR PUSH2 0xB16 JUMPI PUSH1 0x40 MSTORE JUMP JUMPDEST SWAP1 DUP2 PUSH1 0x20 SWAP2 SUB SLT PUSH2 0x326 JUMPI MLOAD DUP1 ISZERO ISZERO DUP2 SUB PUSH2 0x326 JUMPI SWAP1 JUMP JUMPDEST SWAP2 SWAP1 DUP3 ADD DUP1 SWAP3 GT PUSH2 0x88D JUMPI JUMP JUMPDEST PUSH1 0x1 SLOAD PUSH1 0x40 DUP1 MLOAD PUSH4 0x95EA7B3 PUSH1 0xE0 SHL DUP2 MSTORE PUSH1 0x1 PUSH1 0x1 PUSH1 0xA0 SHL SUB SWAP3 DUP4 AND PUSH1 0x4 DUP3 ADD MSTORE PUSH1 0x24 DUP2 ADD DUP8 SWAP1 MSTORE SWAP1 SWAP7 SWAP5 SWAP6 SWAP3 SWAP1 SWAP2 AND SWAP1 PUSH1 0x20 DUP2 PUSH1 0x44 DUP2 PUSH1 0x0 DUP7 GAS CALL DUP1 ISZERO PUSH2 0x1829 JUMPI PUSH2 0x180A JUMPI JUMPDEST POP PUSH1 0xA TIMESTAMP ADD SWAP2 DUP3 TIMESTAMP GT PUSH2 0x88D JUMPI PUSH1 0x20 SWAP5 PUSH2 0x104 SWAP4 PUSH1 0x0 SWAP3 DUP10 MLOAD SWAP5 PUSH2 0x171F DUP7 PUSH2 0x1651 JUMP JUMPDEST DUP6 MSTORE PUSH1 0x1 PUSH1 0x1 PUSH1 0xA0 SHL SUB SWAP7 DUP8 AND DUP9 DUP7 ADD SWAP1 DUP2 MSTORE PUSH3 0xFFFFFF SWAP10 DUP11 AND DUP12 DUP8 ADD SWAP1 DUP2 MSTORE SWAP4 DUP9 AND PUSH1 0x60 DUP8 ADD SWAP1 DUP2 MSTORE PUSH1 0x80 DUP8 ADD SWAP4 DUP5 MSTORE PUSH1 0xA0 DUP8 ADD SWAP3 DUP4 MSTORE PUSH1 0xC0 DUP8 ADD DUP7 DUP2 MSTORE PUSH1 0xE0 DUP9 ADD DUP8 DUP2 MSTORE PUSH1 0x1 SLOAD DUP15 MLOAD PUSH4 0x414BF389 PUSH1 0xE0 SHL DUP2 MSTORE SWAP10 MLOAD DUP13 AND PUSH1 0x4 DUP12 ADD MSTORE SWAP4 MLOAD DUP12 AND PUSH1 0x24 DUP11 ADD MSTORE SWAP6 MLOAD SWAP1 SWAP12 AND PUSH1 0x44 DUP9 ADD MSTORE MLOAD DUP9 AND PUSH1 0x64 DUP8 ADD MSTORE SWAP2 MLOAD PUSH1 0x84 DUP7 ADD MSTORE MLOAD PUSH1 0xA4 DUP6 ADD MSTORE SWAP7 MLOAD PUSH1 0xC4 DUP5 ADD MSTORE MLOAD DUP5 AND PUSH1 0xE4 DUP4 ADD MSTORE SWAP1 SWAP5 DUP6 SWAP4 DUP5 SWAP3 SWAP2 AND GAS CALL SWAP2 DUP3 ISZERO PUSH2 0x1800 JUMPI POP PUSH1 0x0 SWAP2 PUSH2 0x17D1 JUMPI POP SWAP1 JUMP JUMPDEST SWAP1 POP PUSH1 0x20 DUP2 RETURNDATASIZE PUSH1 0x20 GT PUSH2 0x17F8 JUMPI JUMPDEST DUP2 PUSH2 0x17EC PUSH1 0x20 SWAP4 DUP4 PUSH2 0x166E JUMP JUMPDEST DUP2 ADD SUB SLT PUSH2 0x326 JUMPI MLOAD SWAP1 JUMP JUMPDEST RETURNDATASIZE SWAP2 POP PUSH2 0x17DF JUMP JUMPDEST MLOAD RETURNDATASIZE PUSH1 0x0 DUP3 RETURNDATACOPY RETURNDATASIZE SWAP1 REVERT JUMPDEST PUSH2 0x1822 SWAP1 PUSH1 0x20 RETURNDATASIZE PUSH1 0x20 GT PUSH2 0x42E JUMPI PUSH2 0x41F DUP2 DUP4 PUSH2 0x166E JUMP JUMPDEST POP CODESIZE PUSH2 0x16FC JUMP JUMPDEST DUP8 MLOAD RETURNDATASIZE PUSH1 0x0 DUP3 RETURNDATACOPY RETURNDATASIZE SWAP1 REVERT JUMPDEST SWAP2 SWAP1 DUP3 SUB SWAP2 DUP3 GT PUSH2 0x88D JUMPI JUMP JUMPDEST ISZERO PUSH2 0x1848 JUMPI JUMP JUMPDEST PUSH1 0x40 MLOAD PUSH3 0x461BCD PUSH1 0xE5 SHL DUP2 MSTORE PUSH1 0x20 PUSH1 0x4 DUP3 ADD MSTORE PUSH1 0x18 PUSH1 0x24 DUP3 ADD MSTORE PUSH32 0x4E6F2064697374726962757461626C652062616C616E63650000000000000000 PUSH1 0x44 DUP3 ADD MSTORE PUSH1 0x64 SWAP1 REVERT JUMPDEST DUP2 DUP2 MUL SWAP3 SWAP2 DUP2 ISZERO SWAP2 DUP5 DIV EQ OR ISZERO PUSH2 0x88D JUMPI JUMP JUMPDEST DUP2 ISZERO PUSH2 0x18AA JUMPI DIV SWAP1 JUMP JUMPDEST PUSH4 0x4E487B71 PUSH1 0xE0 SHL PUSH1 0x0 MSTORE PUSH1 0x12 PUSH1 0x4 MSTORE PUSH1 0x24 PUSH1 0x0 REVERT JUMPDEST ISZERO PUSH2 0x18C7 JUMPI JUMP JUMPDEST PUSH1 0x40 MLOAD PUSH3 0x461BCD PUSH1 0xE5 SHL DUP2 MSTORE PUSH1 0x20 PUSH1 0x4 DUP3 ADD MSTORE PUSH1 0x19 PUSH1 0x24 DUP3 ADD MSTORE PUSH32 0x4E6F20757365727320746F206469737472696275746520746F00000000000000 PUSH1 0x44 DUP3 ADD MSTORE PUSH1 0x64 SWAP1 REVERT JUMPDEST PUSH1 0x0 NOT DUP2 EQ PUSH2 0x88D JUMPI PUSH1 0x1 ADD SWAP1 JUMP JUMPDEST SWAP1 DUP2 PUSH1 0x20 SWAP2 SUB SLT PUSH2 0x326 JUMPI MLOAD PUSH1 0x1 PUSH1 0x1 PUSH1 0xA0 SHL SUB DUP2 AND DUP2 SUB PUSH2 0x326 JUMPI SWAP1 JUMP JUMPDEST RETURNDATASIZE ISZERO PUSH2 0x1975 JUMPI RETURNDATASIZE SWAP1 PUSH8 0xFFFFFFFFFFFFFFFF DUP3 GT PUSH2 0xB16 JUMPI PUSH1 0x40 MLOAD SWAP2 PUSH2 0x1969 PUSH1 0x1F DUP3 ADD PUSH1 0x1F NOT AND PUSH1 0x20 ADD DUP5 PUSH2 0x166E JUMP JUMPDEST DUP3 MSTORE RETURNDATASIZE PUSH1 0x0 PUSH1 0x20 DUP5 ADD RETURNDATACOPY JUMP JUMPDEST PUSH1 0x60 SWAP1 JUMP JUMPDEST SWAP2 SWAP3 SWAP1 ISZERO PUSH2 0x19DC JUMPI POP DUP2 MLOAD ISZERO PUSH2 0x198E JUMPI POP SWAP1 JUMP JUMPDEST EXTCODESIZE ISZERO PUSH2 0x1997 JUMPI SWAP1 JUMP JUMPDEST PUSH1 0x40 MLOAD PUSH3 0x461BCD PUSH1 0xE5 SHL DUP2 MSTORE PUSH1 0x20 PUSH1 0x4 DUP3 ADD MSTORE PUSH1 0x1D PUSH1 0x24 DUP3 ADD MSTORE PUSH32 0x416464726573733A2063616C6C20746F206E6F6E2D636F6E7472616374000000 PUSH1 0x44 DUP3 ADD MSTORE PUSH1 0x64 SWAP1 REVERT JUMPDEST DUP3 MLOAD SWAP1 SWAP2 POP ISZERO PUSH2 0x19EF JUMPI POP DUP1 MLOAD SWAP1 PUSH1 0x20 ADD REVERT JUMPDEST PUSH1 0x40 MLOAD SWAP1 PUSH3 0x461BCD PUSH1 0xE5 SHL DUP3 MSTORE DUP2 PUSH1 0x20 DUP1 PUSH1 0x4 DUP4 ADD MSTORE DUP3 MLOAD SWAP1 DUP2 PUSH1 0x24 DUP5 ADD MSTORE PUSH1 0x0 SWAP4 JUMPDEST DUP3 DUP6 LT PUSH2 0x1A35 JUMPI POP POP PUSH1 0x44 SWAP3 POP PUSH1 0x0 DUP4 DUP3 DUP5 ADD ADD MSTORE PUSH1 0x1F DUP1 NOT SWAP2 ADD AND DUP2 ADD SUB ADD SWAP1 REVERT JUMPDEST DUP5 DUP2 ADD DUP3 ADD MLOAD DUP7 DUP7 ADD PUSH1 0x44 ADD MSTORE SWAP4 DUP2 ADD SWAP4 DUP6 SWAP4 POP PUSH2 0x1A12 JUMP JUMPDEST ISZERO PUSH2 0x1A55 JUMPI JUMP JUMPDEST PUSH1 0x40 MLOAD PUSH3 0x461BCD PUSH1 0xE5 SHL DUP2 MSTORE PUSH1 0x20 PUSH1 0x4 DUP3 ADD MSTORE PUSH1 0xE PUSH1 0x24 DUP3 ADD MSTORE PUSH14 0x105C1C1C9BDD994819985A5B1959 PUSH1 0x92 SHL PUSH1 0x44 DUP3 ADD MSTORE PUSH1 0x64 SWAP1 REVERT INVALID LOG2 PUSH5 0x6970667358 0x22 SLT KECCAK256 0xD2 DELEGATECALL CHAINID PC 0x4D 0xBC 0xB3 SMOD SWAP3 PUSH5 0x17B37448AA PUSH17 0x9A393B5B2EF240542E764214D94D7A6D64 PUSH20 0x6F6C634300081300330000000000000000000000 "},"gasEstimates":{"creation":{"codeDepositCost":"1369800","executionCost":"71432","totalCost":"1441232"},"external":{"addERC20Funds(address,uint256)":"27477","addFunds()":"24877","addLiquidity(address,address,uint24,uint256,uint256,int24,int24)":"infinite","configLiquidityProvider(address,address)":"infinite","customApprove(address,uint256)":"infinite","distributableBalance()":"2574","distributableERC20Balance(address)":"2618","distribute(address)":"infinite","distributeERC20(address,address)":"infinite","fixedFee()":"2706","getDistributionBalance()":"2728","getDistributionERC20Balance(address)":"2464","getReward(address)":"3014","getRewardERC20(address,address)":"3137","globalFee()":"2618","lastDistributed()":"2354","native()":"2356","owner()":"2683","ownerFee()":"2926","positionManager()":"2620","renounceOwnership()":"28351","setFixedFee(uint256)":"24568","setGlobalFee(uint256)":"24524","setSplitLiqudity(bool)":"27035","setSwapRouter(address)":"26805","splitLiquidity()":"2306","swapAndBurn(address,address,address,uint24,uint24)":"infinite","swapRouter()":"2906","swapTokensForTokens(address,address,uint256,uint24,address)":"infinite","swapTxT(address,address,uint256,address)":"infinite","takeReward(address)":"infinite","takeRewardERC20(address,address)":"infinite","transferOwnership(address)":"28901","userReward(address)":"2412","userRewardERC20(address,address)":"2804"}},"methodIdentifiers":{"addERC20Funds(address,uint256)":"ffdf2bcb","addFunds()":"a26759cb","addLiquidity(address,address,uint24,uint256,uint256,int24,int24)":"afbce84e","configLiquidityProvider(address,address)":"e2662943","customApprove(address,uint256)":"85258b4b","distributableBalance()":"7450bce9","distributableERC20Balance(address)":"568dbccf","distribute(address)":"63453ae1","distributeERC20(address,address)":"d1a06cf8","fixedFee()":"91792d5b","getDistributionBalance()":"932f9f8a","getDistributionERC20Balance(address)":"10027a28","getReward(address)":"c00007b0","getRewardERC20(address,address)":"bcb7557f","globalFee()":"808fc206","lastDistributed()":"1fce07d5","native()":"11b0b42d","owner()":"8da5cb5b","ownerFee()":"d5b2a01a","positionManager()":"791b98bc","renounceOwnership()":"715018a6","setFixedFee(uint256)":"37de8106","setGlobalFee(uint256)":"291206f6","setSplitLiqudity(bool)":"8f3a899a","setSwapRouter(address)":"41273657","splitLiquidity()":"05f6059d","swapAndBurn(address,address,address,uint24,uint24)":"6962a863","swapRouter()":"c31c9c07","swapTokensForTokens(address,address,uint256,uint24,address)":"f0c3b912","swapTxT(address,address,uint256,address)":"bba5f3b1","takeReward(address)":"2ad2e08c","takeRewardERC20(address,address)":"af2c15c4","transferOwnership(address)":"f2fde38b","userReward(address)":"000a74be","userRewardERC20(address,address)":"674ee49d"}},"storageLayout":{"storage":[{"astId":7,"contract":"contracts/treasury/MecenateTreasury.sol:MecenateTreasury","label":"_owner","offset":0,"slot":"0","type":"t_address"},{"astId":3932,"contract":"contracts/treasury/MecenateTreasury.sol:MecenateTreasury","label":"splitLiquidity","offset":20,"slot":"0","type":"t_bool"},{"astId":3935,"contract":"contracts/treasury/MecenateTreasury.sol:MecenateTreasury","label":"swapRouter","offset":0,"slot":"1","type":"t_contract(ISwapRouter)2774"},{"astId":3938,"contract":"contracts/treasury/MecenateTreasury.sol:MecenateTreasury","label":"positionManager","offset":0,"slot":"2","type":"t_contract(INonfungiblePositionManager)2613"},{"astId":3940,"contract":"contracts/treasury/MecenateTreasury.sol:MecenateTreasury","label":"native","offset":0,"slot":"3","type":"t_address"},{"astId":4344,"contract":"contracts/treasury/MecenateTreasury.sol:MecenateTreasury","label":"globalFee","offset":0,"slot":"4","type":"t_uint256"},{"astId":4347,"contract":"contracts/treasury/MecenateTreasury.sol:MecenateTreasury","label":"fixedFee","offset":0,"slot":"5","type":"t_uint256"},{"astId":4349,"contract":"contracts/treasury/MecenateTreasury.sol:MecenateTreasury","label":"lastDistributed","offset":0,"slot":"6","type":"t_uint256"},{"astId":4351,"contract":"contracts/treasury/MecenateTreasury.sol:MecenateTreasury","label":"distributableBalance","offset":0,"slot":"7","type":"t_uint256"},{"astId":4353,"contract":"contracts/treasury/MecenateTreasury.sol:MecenateTreasury","label":"ownerFee","offset":0,"slot":"8","type":"t_uint256"},{"astId":4357,"contract":"contracts/treasury/MecenateTreasury.sol:MecenateTreasury","label":"userReward","offset":0,"slot":"9","type":"t_mapping(t_address,t_uint256)"},{"astId":4363,"contract":"contracts/treasury/MecenateTreasury.sol:MecenateTreasury","label":"userRewardERC20","offset":0,"slot":"10","type":"t_mapping(t_address,t_mapping(t_address,t_uint256))"},{"astId":4367,"contract":"contracts/treasury/MecenateTreasury.sol:MecenateTreasury","label":"distributableERC20Balance","offset":0,"slot":"11","type":"t_mapping(t_address,t_uint256)"}],"types":{"t_address":{"encoding":"inplace","label":"address","numberOfBytes":"20"},"t_bool":{"encoding":"inplace","label":"bool","numberOfBytes":"1"},"t_contract(INonfungiblePositionManager)2613":{"encoding":"inplace","label":"contract INonfungiblePositionManager","numberOfBytes":"20"},"t_contract(ISwapRouter)2774":{"encoding":"inplace","label":"contract ISwapRouter","numberOfBytes":"20"},"t_mapping(t_address,t_mapping(t_address,t_uint256))":{"encoding":"mapping","key":"t_address","label":"mapping(address => mapping(address => uint256))","numberOfBytes":"32","value":"t_mapping(t_address,t_uint256)"},"t_mapping(t_address,t_uint256)":{"encoding":"mapping","key":"t_address","label":"mapping(address => uint256)","numberOfBytes":"32","value":"t_uint256"},"t_uint256":{"encoding":"inplace","label":"uint256","numberOfBytes":"32"}}},"userdoc":{"kind":"user","methods":{},"version":1}}}}