{"contracts/factories/MecenateFeedFactory.sol":{"MecenateFeedFactory":{"abi":[{"anonymous":false,"inputs":[{"indexed":true,"internalType":"address","name":"addr","type":"address"}],"name":"FeedCreated","type":"event"},{"anonymous":false,"inputs":[{"indexed":true,"internalType":"address","name":"previousOwner","type":"address"},{"indexed":true,"internalType":"address","name":"newOwner","type":"address"}],"name":"OwnershipTransferred","type":"event"},{"inputs":[],"name":"buildFeed","outputs":[{"internalType":"address","name":"","type":"address"}],"stateMutability":"payable","type":"function"},{"inputs":[],"name":"burnEnabled","outputs":[{"internalType":"bool","name":"","type":"bool"}],"stateMutability":"view","type":"function"},{"inputs":[{"internalType":"address","name":"treasury","type":"address"},{"internalType":"address","name":"usersModule","type":"address"},{"internalType":"address","name":"newEasContract","type":"address"},{"internalType":"bytes32","name":"newEasSchema","type":"bytes32"},{"internalType":"address","name":"wethTokenAddr","type":"address"},{"internalType":"address","name":"museTokenAddr","type":"address"},{"internalType":"address","name":"daiTokenAddr","type":"address"},{"internalType":"address","name":"routerAddr","type":"address"}],"name":"changeMultipleSettings","outputs":[],"stateMutability":"nonpayable","type":"function"},{"inputs":[],"name":"contractCounter","outputs":[{"internalType":"uint256","name":"","type":"uint256"}],"stateMutability":"view","type":"function"},{"inputs":[],"name":"daiToken","outputs":[{"internalType":"address","name":"","type":"address"}],"stateMutability":"view","type":"function"},{"inputs":[],"name":"easContract","outputs":[{"internalType":"address","name":"","type":"address"}],"stateMutability":"view","type":"function"},{"inputs":[],"name":"easSchema","outputs":[{"internalType":"bytes32","name":"","type":"bytes32"}],"stateMutability":"view","type":"function"},{"inputs":[{"internalType":"address","name":"user","type":"address"}],"name":"getFeedInfo","outputs":[{"components":[{"internalType":"address","name":"contractAddress","type":"address"},{"internalType":"address","name":"owner","type":"address"},{"internalType":"uint256","name":"sellerStake","type":"uint256"},{"internalType":"uint256","name":"buyerStake","type":"uint256"},{"internalType":"uint256","name":"totalStake","type":"uint256"},{"internalType":"uint256","name":"postCount","type":"uint256"},{"internalType":"uint256","name":"paymentRequested","type":"uint256"},{"internalType":"uint256","name":"stakeRequested","type":"uint256"},{"internalType":"enum Structures.PostStatus","name":"status","type":"uint8"},{"internalType":"enum Structures.Tokens","name":"tokenId","type":"uint8"},{"internalType":"string","name":"version","type":"string"},{"internalType":"bytes32","name":"postId","type":"bytes32"}],"internalType":"struct Structures.Feed","name":"","type":"tuple"}],"stateMutability":"view","type":"function"},{"inputs":[],"name":"getFeeds","outputs":[{"internalType":"address[]","name":"","type":"address[]"}],"stateMutability":"view","type":"function"},{"inputs":[],"name":"getFeedsInfo","outputs":[{"components":[{"internalType":"address","name":"contractAddress","type":"address"},{"internalType":"address","name":"owner","type":"address"},{"internalType":"uint256","name":"sellerStake","type":"uint256"},{"internalType":"uint256","name":"buyerStake","type":"uint256"},{"internalType":"uint256","name":"totalStake","type":"uint256"},{"internalType":"uint256","name":"postCount","type":"uint256"},{"internalType":"uint256","name":"paymentRequested","type":"uint256"},{"internalType":"uint256","name":"stakeRequested","type":"uint256"},{"internalType":"enum Structures.PostStatus","name":"status","type":"uint8"},{"internalType":"enum Structures.Tokens","name":"tokenId","type":"uint8"},{"internalType":"string","name":"version","type":"string"},{"internalType":"bytes32","name":"postId","type":"bytes32"}],"internalType":"struct Structures.Feed[]","name":"","type":"tuple[]"}],"stateMutability":"view","type":"function"},{"inputs":[{"internalType":"address","name":"user","type":"address"}],"name":"getFeedsInfoOwned","outputs":[{"components":[{"internalType":"address","name":"contractAddress","type":"address"},{"internalType":"address","name":"owner","type":"address"},{"internalType":"uint256","name":"sellerStake","type":"uint256"},{"internalType":"uint256","name":"buyerStake","type":"uint256"},{"internalType":"uint256","name":"totalStake","type":"uint256"},{"internalType":"uint256","name":"postCount","type":"uint256"},{"internalType":"uint256","name":"paymentRequested","type":"uint256"},{"internalType":"uint256","name":"stakeRequested","type":"uint256"},{"internalType":"enum Structures.PostStatus","name":"status","type":"uint8"},{"internalType":"enum Structures.Tokens","name":"tokenId","type":"uint8"},{"internalType":"string","name":"version","type":"string"},{"internalType":"bytes32","name":"postId","type":"bytes32"}],"internalType":"struct Structures.Feed[]","name":"","type":"tuple[]"}],"stateMutability":"view","type":"function"},{"inputs":[{"internalType":"address","name":"user","type":"address"}],"name":"getFeedsOwned","outputs":[{"internalType":"address[]","name":"","type":"address[]"}],"stateMutability":"view","type":"function"},{"inputs":[{"internalType":"uint8","name":"tokenId","type":"uint8"}],"name":"getRouterFee","outputs":[{"internalType":"uint24","name":"","type":"uint24"}],"stateMutability":"view","type":"function"},{"inputs":[{"internalType":"address","name":"contractAddress","type":"address"}],"name":"isContractCreated","outputs":[{"internalType":"bool","name":"","type":"bool"}],"stateMutability":"view","type":"function"},{"inputs":[{"internalType":"address","name":"newFeed","type":"address"}],"name":"isFeed","outputs":[{"internalType":"bool","name":"","type":"bool"}],"stateMutability":"view","type":"function"},{"inputs":[],"name":"major","outputs":[{"internalType":"uint8","name":"","type":"uint8"}],"stateMutability":"view","type":"function"},{"inputs":[],"name":"minor","outputs":[{"internalType":"uint8","name":"","type":"uint8"}],"stateMutability":"view","type":"function"},{"inputs":[],"name":"museToken","outputs":[{"internalType":"address","name":"","type":"address"}],"stateMutability":"view","type":"function"},{"inputs":[],"name":"owner","outputs":[{"internalType":"address","name":"","type":"address"}],"stateMutability":"view","type":"function"},{"inputs":[],"name":"patch","outputs":[{"internalType":"uint8","name":"","type":"uint8"}],"stateMutability":"view","type":"function"},{"inputs":[],"name":"renounceOwnership","outputs":[],"stateMutability":"nonpayable","type":"function"},{"inputs":[],"name":"router","outputs":[{"internalType":"address","name":"","type":"address"}],"stateMutability":"view","type":"function"},{"inputs":[{"internalType":"bool","name":"newBurnEnabled","type":"bool"}],"name":"setBurnEnabled","outputs":[],"stateMutability":"nonpayable","type":"function"},{"inputs":[{"internalType":"bytes","name":"newByteCode","type":"bytes"},{"internalType":"uint8","name":"newMajor","type":"uint8"},{"internalType":"uint8","name":"newMinor","type":"uint8"},{"internalType":"uint8","name":"newPatch","type":"uint8"}],"name":"setFeedByteCode","outputs":[],"stateMutability":"nonpayable","type":"function"},{"inputs":[{"internalType":"uint8","name":"tokenId","type":"uint8"},{"internalType":"uint24","name":"fee","type":"uint24"}],"name":"setRouterFee","outputs":[],"stateMutability":"nonpayable","type":"function"},{"inputs":[{"internalType":"address","name":"newOwner","type":"address"}],"name":"transferOwnership","outputs":[],"stateMutability":"nonpayable","type":"function"},{"inputs":[],"name":"treasuryContract","outputs":[{"internalType":"address","name":"","type":"address"}],"stateMutability":"view","type":"function"},{"inputs":[],"name":"wethToken","outputs":[{"internalType":"address","name":"","type":"address"}],"stateMutability":"view","type":"function"}],"devdoc":{"kind":"dev","methods":{"owner()":{"details":"Returns the address of the current owner."},"renounceOwnership()":{"details":"Leaves the contract without owner. It will not be possible to call `onlyOwner` functions. Can only be called by the current owner. NOTE: Renouncing ownership will leave the contract without an owner, thereby disabling any functionality that is only available to the owner."},"transferOwnership(address)":{"details":"Transfers ownership of the contract to a new account (`newOwner`). Can only be called by the current owner."}},"version":1},"evm":{"bytecode":{"linkReferences":{},"object":"608080604052346100655760008054336001600160a01b0319821681178355916001600160a01b03909116907f8be0079c531659141344cd1fd0a4f28419497f9722a3daafe3b4186f6b6457e09080a360ff19600f5416600f55611997908161006b8239f35b600080fdfe6080604052600436101561001257600080fd5b60003560e01c8063067bd3b4146101d257806318da0011146101cd5780633ec4f23d146101c857806349975235146101c35780634b57b0be146101be5780635dc96d16146101b9578063715018a6146101b45780637b2c835f146101af5780637fe955d4146101aa5780638da5cb5b146101a55780639407aeea146101a05780639496d7f11461019b578063ad86132414610196578063b2a2e9ca14610191578063bb834b0e1461018c578063be22f54614610187578063ca5b4e5c14610182578063cd77b52c1461017d578063cedf3ba21461016e578063d223a56414610178578063d570a66d14610173578063e58fdd041461016e578063e86ef35314610169578063e9318b4714610164578063f2fde38b1461015f578063f77800e51461015a578063f86d0b38146101555763f887ea401461015057600080fd5b610e40565b610e1f565b610df6565b610d2f565b610cdb565b610c5e565b610b9e565b610c19565b610be0565b610b75565b610958565b61092f565b61090b565b610891565b610803565b61057e565b6104de565b61041c565b610392565b610314565b6102ac565b610289565b610260565b61023c565b61021e565b6101f5565b346101f05760003660031901126101f0576020601054604051908152f35b600080fd5b346101f05760003660031901126101f0576003546040516001600160a01b039091168152602090f35b346101f05760003660031901126101f0576020600654604051908152f35b346101f05760003660031901126101f057602060ff60115460101c16604051908152f35b346101f05760003660031901126101f0576009546040516001600160a01b039091168152602090f35b346101f05760003660031901126101f057602060ff600f54166040519015158152f35b346101f057600080600319360112610307576102c6610e69565b80546001600160a01b03198116825581906001600160a01b03167f8be0079c531659141344cd1fd0a4f28419497f9722a3daafe3b4186f6b6457e08280a380f35b80fd5b801515036101f057565b346101f05760203660031901126101f0576004356103318161030a565b610339610e69565b60ff8019600f54169115151617600f55600080f35b6020908160408183019282815285518094520193019160005b828110610375575050505090565b83516001600160a01b031685529381019392810192600101610367565b346101f05760003660031901126101f05760405180600191825492838252602080920193816000527fb10e2d527612073b26eecdfd717e6a320cf44b4afac2b0732d9fcbe2b7fa0cf6926000905b82821061040757610403866103f7818a038261045b565b6040519182918261034e565b0390f35b845487529586019593830193908301906103e0565b346101f05760003660031901126101f0576000546040516001600160a01b039091168152602090f35b634e487b7160e01b600052604160045260246000fd5b90601f8019910116810190811067ffffffffffffffff82111761047d57604052565b610445565b67ffffffffffffffff811161047d57601f01601f191660200190565b6024359060ff821682036101f057565b6044359060ff821682036101f057565b6064359060ff821682036101f057565b6004359060ff821682036101f057565b346101f05760803660031901126101f05760043567ffffffffffffffff81116101f057366023820112156101f057806004013561051a81610482565b90610528604051928361045b565b80825236602482850101116101f057602081600092602461056b9601838601378301015261055461049e565b61055c6104ae565b906105656104be565b92610ec1565b005b6001600160a01b038116036101f057565b346101f0576101003660031901126101f05761056b60043561059f8161056d565b602435906105ac8261056d565b6044356105b88161056d565b608435906105c58261056d565b60a435906105d28261056d565b60c435916105df8361056d565b60e435956105ec8761056d565b6105f4610e69565b60018060a01b0394858094818094816bffffffffffffffffffffffff60a01b9b168b6003541617600355168960045416176004551687600554161760055560643560065516856009541617600955168360075416176007551690600854161760085560018060a01b03166bffffffffffffffffffffffff60a01b600a541617600a55565b634e487b7160e01b600052602160045260246000fd5b90600882101561069b5752565b610678565b90600382101561069b5752565b60005b8381106106c05750506000910152565b81810151838201526020016106b0565b906020916106e9815180928185528580860191016106ad565b601f01601f1916010190565b80516001600160a01b03168252906020828101516001600160a01b03169082015260408201516040820152606082015160608201526080820151608082015260a082015160a082015260c082015160c082015260e082015160e0820152610765610100808401519083019061068e565b61077861012080840151908301906106a0565b610793610140808401519061018080918501528301906106d0565b916101608091015191015290565b602080820190808352835180925260408301928160408460051b8301019501936000915b8483106107d55750505050505090565b90919293949584806107f3600193603f198682030187528a516106f5565b98019301930191949392906107c5565b346101f0576020806003193601126101f0576004356108218161056d565b60018060a01b0316600052600d81526040600020604051918281835491828152019260005281600020916000905b82821061087a5761040361086e876108698189038261045b565b6118c5565b604051918291826107a1565b83548552938401936001938401939091019061084f565b346101f0576020806003193601126101f0576004356108af8161056d565b6001600160a01b03166000908152600d82526040808220905181548082529183528383208185019491939092915b8282106108f457610403856103f78189038261045b565b8354865294850194600193840193909101906108dd565b346101f05760003660031901126101f057602060ff60115460081c16604051908152f35b346101f05760003660031901126101f0576008546040516001600160a01b039091168152602090f35b60008060031936011261030757600454601154604080513360208201526001600160a01b0390931690830181905230606084015260ff8083166080850152600883901c811660a085015260109290921c90911660c080840191909152825290601f196109c560e08361045b565b60405163122643f360e21b81523360048201526001600160a01b03939091906020908390602490829088165afa908115610b7057610a11610aa192610a95948891610b42575b506110ac565b610a24610a1c611406565b3410156110ee565b610a5f8680808034610a4f610a43610a4360035460018060a01b031690565b6001600160a01b031690565b5af1610a5961112b565b5061115b565b610a72610a6d601054611195565b601055565b610a7a6111ba565b93604051938491610a8f602084018098611278565b90611278565b0390810183528261045b565b519083f090813b15610b3e5781610403917fb658664a46408e6670a38ec7ea8b7614c9e2916184dff2fad99d3a7a3491ca7d949316610adf816112b8565b50336000908152600d60205260409020610afa90839061128f565b506001600160a01b0382166000908152600e60205260409020610b2490805460ff19166001179055565b60405194848695a26001600160a01b031682526020820190565b8280fd5b610b63915060203d8111610b69575b610b5b818361045b565b810190611088565b38610a0b565b503d610b51565b6110a0565b346101f05760003660031901126101f0576005546040516001600160a01b039091168152602090f35b346101f05760203660031901126101f057600435610bbb8161056d565b60018060a01b0316600052600e602052602060ff604060002054166040519015158152f35b346101f05760203660031901126101f05760ff610bfb6104ce565b16600052600c602052602062ffffff60406000205416604051908152f35b346101f05760203660031901126101f057610403610c4a600435610c3c8161056d565b610c4461138a565b50611522565b6040519182916020835260208301906106f5565b346101f05760003660031901126101f05760405180600190815491828252602080920192816000527fb10e2d527612073b26eecdfd717e6a320cf44b4afac2b0732d9fcbe2b7fa0cf6926000905b828210610cc65761040361086e88610869818a038261045b565b84548652948501949383019390830190610cac565b346101f05760403660031901126101f057610cf46104ce565b6024359062ffffff82168092036101f05760ff90610d10610e69565b16600052600c60205260406000209062ffffff19825416179055600080f35b346101f05760203660031901126101f057600435610d4c8161056d565b610d54610e69565b6001600160a01b039081168015610da257600080546001600160a01b03198116831782559092167f8be0079c531659141344cd1fd0a4f28419497f9722a3daafe3b4186f6b6457e08380a380f35b60405162461bcd60e51b815260206004820152602660248201527f4f776e61626c653a206e6577206f776e657220697320746865207a65726f206160448201526564647265737360d01b6064820152608490fd5b346101f05760003660031901126101f0576007546040516001600160a01b039091168152602090f35b346101f05760003660031901126101f057602060ff60115416604051908152f35b346101f05760003660031901126101f057600a546040516001600160a01b039091168152602090f35b6000546001600160a01b03163303610e7d57565b606460405162461bcd60e51b815260206004820152602060248201527f4f776e61626c653a2063616c6c6572206973206e6f7420746865206f776e65726044820152fd5b939261ff0090929192610ed2610e69565b60ff62ff00006011549260101b1694169062ffffff1916179160081b161717601155815167ffffffffffffffff811161047d57610f1981610f14600b54610fdd565b611017565b602080601f8311600114610f555750819293600092610f4a575b50508160011b916000199060031b1c191617600b55565b015190503880610f33565b90601f19831694610f88600b6000527f0175b7a638427703f0dbe7bb9bbf987a2551717b34e79f33b5b1008d1fa01db990565b926000905b878210610fc5575050836001959610610fac575b505050811b01600b55565b015160001960f88460031b161c19169055388080610fa1565b80600185968294968601518155019501930190610f8d565b90600182811c9216801561100d575b6020831014610ff757565b634e487b7160e01b600052602260045260246000fd5b91607f1691610fec565b601f8111611023575050565b600090600b82527f0175b7a638427703f0dbe7bb9bbf987a2551717b34e79f33b5b1008d1fa01db9906020601f850160051c8301941061107e575b601f0160051c01915b82811061107357505050565b818155600101611067565b909250829061105e565b908160209103126101f0575161109d8161030a565b90565b6040513d6000823e3d90fd5b156110b357565b60405162461bcd60e51b81526020600482015260136024820152721d5cd95c88191bd95cc81b9bdd08195e1a5cdd606a1b6044820152606490fd5b156110f557565b60405162461bcd60e51b815260206004820152600e60248201526d4e4f545f454e4f5547485f46454560901b6044820152606490fd5b3d15611156573d9061113c82610482565b9161114a604051938461045b565b82523d6000602084013e565b606090565b1561116257565b60405162461bcd60e51b815260206004820152600b60248201526a10d0531317d1905253115160aa1b6044820152606490fd5b60001981146111a45760010190565b634e487b7160e01b600052601160045260246000fd5b60405190600082600b54916111ce83610fdd565b8083529260019081811690811561125657506001146111f7575b506111f59250038361045b565b565b600b600090815291507f0175b7a638427703f0dbe7bb9bbf987a2551717b34e79f33b5b1008d1fa01db95b84831061123b57506111f59350508101602001386111e8565b81935090816020925483858a01015201910190918592611222565b9050602092506111f594915060ff191682840152151560051b820101386111e8565b9061128b602092828151948592016106ad565b0190565b61109d916001600160a01b031690611334565b634e487b7160e01b600052603260045260246000fd5b8060005260026020526040600020541560001461132e57600154600160401b81101561047d5760018101806001558110156113295781907fb10e2d527612073b26eecdfd717e6a320cf44b4afac2b0732d9fcbe2b7fa0cf60155600154906000526002602052604060002055600190565b6112a2565b50600090565b6000828152600182016020819052604082205461138357825492600160401b84101561047d57600184018082558410156113295784604094828552602085200155549382526020522055600190565b5091505090565b60405190610180820182811067ffffffffffffffff82111761047d57604052816101606000918281528260208201528260408201528260608201528260808201528260a08201528260c08201528260e0820152826101008201528261012082015260606101408201520152565b908160209103126101f0575190565b6003546040516391792d5b60e01b815290602090829060049082906001600160a01b03165afa908115610b705760009161143e575090565b61109d915060203d811161145f575b611457818361045b565b8101906113f7565b503d61144d565b908160209103126101f0575161109d8161056d565b908160209103126101f0575160088110156101f05790565b600882101561069b5752565b908160209103126101f0575160038110156101f05790565b600382101561069b5752565b6020818303126101f05780519067ffffffffffffffff82116101f0570181601f820112156101f05780516114f681610482565b92611504604051948561045b565b818452602082840101116101f05761109d91602080850191016106ad565b61152a61138a565b5061153361138a565b6001600160a01b0390911680825260408051638da5cb5b60e01b81526020926004929184818581855afa8015610b705761157f9160009161186c575b506001600160a01b031686860152565b8151635c63ed6960e01b815284818581855afa908115610b705760009161184f575b50858301528151634c38d87760e01b815284818581855afa908115610b7057600091611832575b506060860152815163048bf3bb60e11b815284818581855afa908115610b7057600091611815575b5060808601528151630bc8361760e11b815284818581855afa908115610b70576000916117f8575b5060a0860152815163d24e0c8760e01b815284818581855afa908115610b70576000916117db575b5060c0860152815163faeb5e1760e01b815284818581855afa908115610b70576000916117be575b5060e086015281516302734eab60e51b815284818581855afa8015610b705761169e91600091611791575b506101008701611493565b815163010a38f560e01b815284818581855afa8015610b70576116ce91600091611764575b5061012087016114b7565b815163054fd4d560e41b8152916000838581855afa8015610b70578593600091611743575b50610140870152516332946a8760e01b815292839182905afa918215610b7057600092611726575b505061016082015290565b61173c9250803d1061145f57611457818361045b565b388061171b565b61175e913d8091833e611756818361045b565b8101906114c3565b386116f3565b6117849150863d881161178a575b61177c818361045b565b81019061149f565b386116c3565b503d611772565b6117b19150863d88116117b7575b6117a9818361045b565b81019061147b565b38611693565b503d61179f565b6117d59150853d871161145f57611457818361045b565b38611668565b6117f29150853d871161145f57611457818361045b565b38611640565b61180f9150853d871161145f57611457818361045b565b38611618565b61182c9150853d871161145f57611457818361045b565b386115f0565b6118499150853d871161145f57611457818361045b565b386115c8565b6118669150853d871161145f57611457818361045b565b386115a1565b61188c9150863d8811611892575b611884818361045b565b810190611466565b3861156f565b503d61187a565b67ffffffffffffffff811161047d5760051b60200190565b80518210156113295760209160051b010190565b80516118d081611899565b916118de604051938461045b565b818352601f196118ed83611899565b0160005b81811061194a57505060005b82811061190a5750505090565b6119459061192a6001600160a01b0361192383866118b1565b5116611522565b61193482876118b1565b5261193f81866118b1565b50611195565b6118fd565b60209061195561138a565b828288010152016118f156fea26469706673582212200c4e9408b785702a4c89bbcaa3db2a2cbe885657983ef63d3d307406b0bc247764736f6c63430008130033","opcodes":"PUSH1 0x80 DUP1 PUSH1 0x40 MSTORE CALLVALUE PUSH2 0x65 JUMPI PUSH1 0x0 DUP1 SLOAD CALLER PUSH1 0x1 PUSH1 0x1 PUSH1 0xA0 SHL SUB NOT DUP3 AND DUP2 OR DUP4 SSTORE SWAP2 PUSH1 0x1 PUSH1 0x1 PUSH1 0xA0 SHL SUB SWAP1 SWAP2 AND SWAP1 PUSH32 0x8BE0079C531659141344CD1FD0A4F28419497F9722A3DAAFE3B4186F6B6457E0 SWAP1 DUP1 LOG3 PUSH1 0xFF NOT PUSH1 0xF SLOAD AND PUSH1 0xF SSTORE PUSH2 0x1997 SWAP1 DUP2 PUSH2 0x6B DUP3 CODECOPY RETURN JUMPDEST PUSH1 0x0 DUP1 REVERT INVALID PUSH1 0x80 PUSH1 0x40 MSTORE PUSH1 0x4 CALLDATASIZE LT ISZERO PUSH2 0x12 JUMPI PUSH1 0x0 DUP1 REVERT JUMPDEST PUSH1 0x0 CALLDATALOAD PUSH1 0xE0 SHR DUP1 PUSH4 0x67BD3B4 EQ PUSH2 0x1D2 JUMPI DUP1 PUSH4 0x18DA0011 EQ PUSH2 0x1CD JUMPI DUP1 PUSH4 0x3EC4F23D EQ PUSH2 0x1C8 JUMPI DUP1 PUSH4 0x49975235 EQ PUSH2 0x1C3 JUMPI DUP1 PUSH4 0x4B57B0BE EQ PUSH2 0x1BE JUMPI DUP1 PUSH4 0x5DC96D16 EQ PUSH2 0x1B9 JUMPI DUP1 PUSH4 0x715018A6 EQ PUSH2 0x1B4 JUMPI DUP1 PUSH4 0x7B2C835F EQ PUSH2 0x1AF JUMPI DUP1 PUSH4 0x7FE955D4 EQ PUSH2 0x1AA JUMPI DUP1 PUSH4 0x8DA5CB5B EQ PUSH2 0x1A5 JUMPI DUP1 PUSH4 0x9407AEEA EQ PUSH2 0x1A0 JUMPI DUP1 PUSH4 0x9496D7F1 EQ PUSH2 0x19B JUMPI DUP1 PUSH4 0xAD861324 EQ PUSH2 0x196 JUMPI DUP1 PUSH4 0xB2A2E9CA EQ PUSH2 0x191 JUMPI DUP1 PUSH4 0xBB834B0E EQ PUSH2 0x18C JUMPI DUP1 PUSH4 0xBE22F546 EQ PUSH2 0x187 JUMPI DUP1 PUSH4 0xCA5B4E5C EQ PUSH2 0x182 JUMPI DUP1 PUSH4 0xCD77B52C EQ PUSH2 0x17D JUMPI DUP1 PUSH4 0xCEDF3BA2 EQ PUSH2 0x16E JUMPI DUP1 PUSH4 0xD223A564 EQ PUSH2 0x178 JUMPI DUP1 PUSH4 0xD570A66D EQ PUSH2 0x173 JUMPI DUP1 PUSH4 0xE58FDD04 EQ PUSH2 0x16E JUMPI DUP1 PUSH4 0xE86EF353 EQ PUSH2 0x169 JUMPI DUP1 PUSH4 0xE9318B47 EQ PUSH2 0x164 JUMPI DUP1 PUSH4 0xF2FDE38B EQ PUSH2 0x15F JUMPI DUP1 PUSH4 0xF77800E5 EQ PUSH2 0x15A JUMPI DUP1 PUSH4 0xF86D0B38 EQ PUSH2 0x155 JUMPI PUSH4 0xF887EA40 EQ PUSH2 0x150 JUMPI PUSH1 0x0 DUP1 REVERT JUMPDEST PUSH2 0xE40 JUMP JUMPDEST PUSH2 0xE1F JUMP JUMPDEST PUSH2 0xDF6 JUMP JUMPDEST PUSH2 0xD2F JUMP JUMPDEST PUSH2 0xCDB JUMP JUMPDEST PUSH2 0xC5E JUMP JUMPDEST PUSH2 0xB9E JUMP JUMPDEST PUSH2 0xC19 JUMP JUMPDEST PUSH2 0xBE0 JUMP JUMPDEST PUSH2 0xB75 JUMP JUMPDEST PUSH2 0x958 JUMP JUMPDEST PUSH2 0x92F JUMP JUMPDEST PUSH2 0x90B JUMP JUMPDEST PUSH2 0x891 JUMP JUMPDEST PUSH2 0x803 JUMP JUMPDEST PUSH2 0x57E JUMP JUMPDEST PUSH2 0x4DE JUMP JUMPDEST PUSH2 0x41C JUMP JUMPDEST PUSH2 0x392 JUMP JUMPDEST PUSH2 0x314 JUMP JUMPDEST PUSH2 0x2AC JUMP JUMPDEST PUSH2 0x289 JUMP JUMPDEST PUSH2 0x260 JUMP JUMPDEST PUSH2 0x23C JUMP JUMPDEST PUSH2 0x21E JUMP JUMPDEST PUSH2 0x1F5 JUMP JUMPDEST CALLVALUE PUSH2 0x1F0 JUMPI PUSH1 0x0 CALLDATASIZE PUSH1 0x3 NOT ADD SLT PUSH2 0x1F0 JUMPI PUSH1 0x20 PUSH1 0x10 SLOAD PUSH1 0x40 MLOAD SWAP1 DUP2 MSTORE RETURN JUMPDEST PUSH1 0x0 DUP1 REVERT JUMPDEST CALLVALUE PUSH2 0x1F0 JUMPI PUSH1 0x0 CALLDATASIZE PUSH1 0x3 NOT ADD SLT PUSH2 0x1F0 JUMPI PUSH1 0x3 SLOAD PUSH1 0x40 MLOAD PUSH1 0x1 PUSH1 0x1 PUSH1 0xA0 SHL SUB SWAP1 SWAP2 AND DUP2 MSTORE PUSH1 0x20 SWAP1 RETURN JUMPDEST CALLVALUE PUSH2 0x1F0 JUMPI PUSH1 0x0 CALLDATASIZE PUSH1 0x3 NOT ADD SLT PUSH2 0x1F0 JUMPI PUSH1 0x20 PUSH1 0x6 SLOAD PUSH1 0x40 MLOAD SWAP1 DUP2 MSTORE RETURN JUMPDEST CALLVALUE PUSH2 0x1F0 JUMPI PUSH1 0x0 CALLDATASIZE PUSH1 0x3 NOT ADD SLT PUSH2 0x1F0 JUMPI PUSH1 0x20 PUSH1 0xFF PUSH1 0x11 SLOAD PUSH1 0x10 SHR AND PUSH1 0x40 MLOAD SWAP1 DUP2 MSTORE RETURN JUMPDEST CALLVALUE PUSH2 0x1F0 JUMPI PUSH1 0x0 CALLDATASIZE PUSH1 0x3 NOT ADD SLT PUSH2 0x1F0 JUMPI PUSH1 0x9 SLOAD PUSH1 0x40 MLOAD PUSH1 0x1 PUSH1 0x1 PUSH1 0xA0 SHL SUB SWAP1 SWAP2 AND DUP2 MSTORE PUSH1 0x20 SWAP1 RETURN JUMPDEST CALLVALUE PUSH2 0x1F0 JUMPI PUSH1 0x0 CALLDATASIZE PUSH1 0x3 NOT ADD SLT PUSH2 0x1F0 JUMPI PUSH1 0x20 PUSH1 0xFF PUSH1 0xF SLOAD AND PUSH1 0x40 MLOAD SWAP1 ISZERO ISZERO DUP2 MSTORE RETURN JUMPDEST CALLVALUE PUSH2 0x1F0 JUMPI PUSH1 0x0 DUP1 PUSH1 0x3 NOT CALLDATASIZE ADD SLT PUSH2 0x307 JUMPI PUSH2 0x2C6 PUSH2 0xE69 JUMP JUMPDEST DUP1 SLOAD PUSH1 0x1 PUSH1 0x1 PUSH1 0xA0 SHL SUB NOT DUP2 AND DUP3 SSTORE DUP2 SWAP1 PUSH1 0x1 PUSH1 0x1 PUSH1 0xA0 SHL SUB AND PUSH32 0x8BE0079C531659141344CD1FD0A4F28419497F9722A3DAAFE3B4186F6B6457E0 DUP3 DUP1 LOG3 DUP1 RETURN JUMPDEST DUP1 REVERT JUMPDEST DUP1 ISZERO ISZERO SUB PUSH2 0x1F0 JUMPI JUMP JUMPDEST CALLVALUE PUSH2 0x1F0 JUMPI PUSH1 0x20 CALLDATASIZE PUSH1 0x3 NOT ADD SLT PUSH2 0x1F0 JUMPI PUSH1 0x4 CALLDATALOAD PUSH2 0x331 DUP2 PUSH2 0x30A JUMP JUMPDEST PUSH2 0x339 PUSH2 0xE69 JUMP JUMPDEST PUSH1 0xFF DUP1 NOT PUSH1 0xF SLOAD AND SWAP2 ISZERO ISZERO AND OR PUSH1 0xF SSTORE PUSH1 0x0 DUP1 RETURN JUMPDEST PUSH1 0x20 SWAP1 DUP2 PUSH1 0x40 DUP2 DUP4 ADD SWAP3 DUP3 DUP2 MSTORE DUP6 MLOAD DUP1 SWAP5 MSTORE ADD SWAP4 ADD SWAP2 PUSH1 0x0 JUMPDEST DUP3 DUP2 LT PUSH2 0x375 JUMPI POP POP POP POP SWAP1 JUMP JUMPDEST DUP4 MLOAD PUSH1 0x1 PUSH1 0x1 PUSH1 0xA0 SHL SUB AND DUP6 MSTORE SWAP4 DUP2 ADD SWAP4 SWAP3 DUP2 ADD SWAP3 PUSH1 0x1 ADD PUSH2 0x367 JUMP JUMPDEST CALLVALUE PUSH2 0x1F0 JUMPI PUSH1 0x0 CALLDATASIZE PUSH1 0x3 NOT ADD SLT PUSH2 0x1F0 JUMPI PUSH1 0x40 MLOAD DUP1 PUSH1 0x1 SWAP2 DUP3 SLOAD SWAP3 DUP4 DUP3 MSTORE PUSH1 0x20 DUP1 SWAP3 ADD SWAP4 DUP2 PUSH1 0x0 MSTORE PUSH32 0xB10E2D527612073B26EECDFD717E6A320CF44B4AFAC2B0732D9FCBE2B7FA0CF6 SWAP3 PUSH1 0x0 SWAP1 JUMPDEST DUP3 DUP3 LT PUSH2 0x407 JUMPI PUSH2 0x403 DUP7 PUSH2 0x3F7 DUP2 DUP11 SUB DUP3 PUSH2 0x45B JUMP JUMPDEST PUSH1 0x40 MLOAD SWAP2 DUP3 SWAP2 DUP3 PUSH2 0x34E JUMP JUMPDEST SUB SWAP1 RETURN JUMPDEST DUP5 SLOAD DUP8 MSTORE SWAP6 DUP7 ADD SWAP6 SWAP4 DUP4 ADD SWAP4 SWAP1 DUP4 ADD SWAP1 PUSH2 0x3E0 JUMP JUMPDEST CALLVALUE PUSH2 0x1F0 JUMPI PUSH1 0x0 CALLDATASIZE PUSH1 0x3 NOT ADD SLT PUSH2 0x1F0 JUMPI PUSH1 0x0 SLOAD PUSH1 0x40 MLOAD PUSH1 0x1 PUSH1 0x1 PUSH1 0xA0 SHL SUB SWAP1 SWAP2 AND DUP2 MSTORE PUSH1 0x20 SWAP1 RETURN JUMPDEST PUSH4 0x4E487B71 PUSH1 0xE0 SHL PUSH1 0x0 MSTORE PUSH1 0x41 PUSH1 0x4 MSTORE PUSH1 0x24 PUSH1 0x0 REVERT JUMPDEST SWAP1 PUSH1 0x1F DUP1 NOT SWAP2 ADD AND DUP2 ADD SWAP1 DUP2 LT PUSH8 0xFFFFFFFFFFFFFFFF DUP3 GT OR PUSH2 0x47D JUMPI PUSH1 0x40 MSTORE JUMP JUMPDEST PUSH2 0x445 JUMP JUMPDEST PUSH8 0xFFFFFFFFFFFFFFFF DUP2 GT PUSH2 0x47D JUMPI PUSH1 0x1F ADD PUSH1 0x1F NOT AND PUSH1 0x20 ADD SWAP1 JUMP JUMPDEST PUSH1 0x24 CALLDATALOAD SWAP1 PUSH1 0xFF DUP3 AND DUP3 SUB PUSH2 0x1F0 JUMPI JUMP JUMPDEST PUSH1 0x44 CALLDATALOAD SWAP1 PUSH1 0xFF DUP3 AND DUP3 SUB PUSH2 0x1F0 JUMPI JUMP JUMPDEST PUSH1 0x64 CALLDATALOAD SWAP1 PUSH1 0xFF DUP3 AND DUP3 SUB PUSH2 0x1F0 JUMPI JUMP JUMPDEST PUSH1 0x4 CALLDATALOAD SWAP1 PUSH1 0xFF DUP3 AND DUP3 SUB PUSH2 0x1F0 JUMPI JUMP JUMPDEST CALLVALUE PUSH2 0x1F0 JUMPI PUSH1 0x80 CALLDATASIZE PUSH1 0x3 NOT ADD SLT PUSH2 0x1F0 JUMPI PUSH1 0x4 CALLDATALOAD PUSH8 0xFFFFFFFFFFFFFFFF DUP2 GT PUSH2 0x1F0 JUMPI CALLDATASIZE PUSH1 0x23 DUP3 ADD SLT ISZERO PUSH2 0x1F0 JUMPI DUP1 PUSH1 0x4 ADD CALLDATALOAD PUSH2 0x51A DUP2 PUSH2 0x482 JUMP JUMPDEST SWAP1 PUSH2 0x528 PUSH1 0x40 MLOAD SWAP3 DUP4 PUSH2 0x45B JUMP JUMPDEST DUP1 DUP3 MSTORE CALLDATASIZE PUSH1 0x24 DUP3 DUP6 ADD ADD GT PUSH2 0x1F0 JUMPI PUSH1 0x20 DUP2 PUSH1 0x0 SWAP3 PUSH1 0x24 PUSH2 0x56B SWAP7 ADD DUP4 DUP7 ADD CALLDATACOPY DUP4 ADD ADD MSTORE PUSH2 0x554 PUSH2 0x49E JUMP JUMPDEST PUSH2 0x55C PUSH2 0x4AE JUMP JUMPDEST SWAP1 PUSH2 0x565 PUSH2 0x4BE JUMP JUMPDEST SWAP3 PUSH2 0xEC1 JUMP JUMPDEST STOP JUMPDEST PUSH1 0x1 PUSH1 0x1 PUSH1 0xA0 SHL SUB DUP2 AND SUB PUSH2 0x1F0 JUMPI JUMP JUMPDEST CALLVALUE PUSH2 0x1F0 JUMPI PUSH2 0x100 CALLDATASIZE PUSH1 0x3 NOT ADD SLT PUSH2 0x1F0 JUMPI PUSH2 0x56B PUSH1 0x4 CALLDATALOAD PUSH2 0x59F DUP2 PUSH2 0x56D JUMP JUMPDEST PUSH1 0x24 CALLDATALOAD SWAP1 PUSH2 0x5AC DUP3 PUSH2 0x56D JUMP JUMPDEST PUSH1 0x44 CALLDATALOAD PUSH2 0x5B8 DUP2 PUSH2 0x56D JUMP JUMPDEST PUSH1 0x84 CALLDATALOAD SWAP1 PUSH2 0x5C5 DUP3 PUSH2 0x56D JUMP JUMPDEST PUSH1 0xA4 CALLDATALOAD SWAP1 PUSH2 0x5D2 DUP3 PUSH2 0x56D JUMP JUMPDEST PUSH1 0xC4 CALLDATALOAD SWAP2 PUSH2 0x5DF DUP4 PUSH2 0x56D JUMP JUMPDEST PUSH1 0xE4 CALLDATALOAD SWAP6 PUSH2 0x5EC DUP8 PUSH2 0x56D JUMP JUMPDEST PUSH2 0x5F4 PUSH2 0xE69 JUMP JUMPDEST PUSH1 0x1 DUP1 PUSH1 0xA0 SHL SUB SWAP5 DUP6 DUP1 SWAP5 DUP2 DUP1 SWAP5 DUP2 PUSH12 0xFFFFFFFFFFFFFFFFFFFFFFFF PUSH1 0xA0 SHL SWAP12 AND DUP12 PUSH1 0x3 SLOAD AND OR PUSH1 0x3 SSTORE AND DUP10 PUSH1 0x4 SLOAD AND OR PUSH1 0x4 SSTORE AND DUP8 PUSH1 0x5 SLOAD AND OR PUSH1 0x5 SSTORE PUSH1 0x64 CALLDATALOAD PUSH1 0x6 SSTORE AND DUP6 PUSH1 0x9 SLOAD AND OR PUSH1 0x9 SSTORE AND DUP4 PUSH1 0x7 SLOAD AND OR PUSH1 0x7 SSTORE AND SWAP1 PUSH1 0x8 SLOAD AND OR PUSH1 0x8 SSTORE PUSH1 0x1 DUP1 PUSH1 0xA0 SHL SUB AND PUSH12 0xFFFFFFFFFFFFFFFFFFFFFFFF PUSH1 0xA0 SHL PUSH1 0xA SLOAD AND OR PUSH1 0xA SSTORE JUMP JUMPDEST PUSH4 0x4E487B71 PUSH1 0xE0 SHL PUSH1 0x0 MSTORE PUSH1 0x21 PUSH1 0x4 MSTORE PUSH1 0x24 PUSH1 0x0 REVERT JUMPDEST SWAP1 PUSH1 0x8 DUP3 LT ISZERO PUSH2 0x69B JUMPI MSTORE JUMP JUMPDEST PUSH2 0x678 JUMP JUMPDEST SWAP1 PUSH1 0x3 DUP3 LT ISZERO PUSH2 0x69B JUMPI MSTORE JUMP JUMPDEST PUSH1 0x0 JUMPDEST DUP4 DUP2 LT PUSH2 0x6C0 JUMPI POP POP PUSH1 0x0 SWAP2 ADD MSTORE JUMP JUMPDEST DUP2 DUP2 ADD MLOAD DUP4 DUP3 ADD MSTORE PUSH1 0x20 ADD PUSH2 0x6B0 JUMP JUMPDEST SWAP1 PUSH1 0x20 SWAP2 PUSH2 0x6E9 DUP2 MLOAD DUP1 SWAP3 DUP2 DUP6 MSTORE DUP6 DUP1 DUP7 ADD SWAP2 ADD PUSH2 0x6AD JUMP JUMPDEST PUSH1 0x1F ADD PUSH1 0x1F NOT AND ADD ADD SWAP1 JUMP JUMPDEST DUP1 MLOAD PUSH1 0x1 PUSH1 0x1 PUSH1 0xA0 SHL SUB AND DUP3 MSTORE SWAP1 PUSH1 0x20 DUP3 DUP2 ADD MLOAD PUSH1 0x1 PUSH1 0x1 PUSH1 0xA0 SHL SUB AND SWAP1 DUP3 ADD MSTORE PUSH1 0x40 DUP3 ADD MLOAD PUSH1 0x40 DUP3 ADD MSTORE PUSH1 0x60 DUP3 ADD MLOAD PUSH1 0x60 DUP3 ADD MSTORE PUSH1 0x80 DUP3 ADD MLOAD PUSH1 0x80 DUP3 ADD MSTORE PUSH1 0xA0 DUP3 ADD MLOAD PUSH1 0xA0 DUP3 ADD MSTORE PUSH1 0xC0 DUP3 ADD MLOAD PUSH1 0xC0 DUP3 ADD MSTORE PUSH1 0xE0 DUP3 ADD MLOAD PUSH1 0xE0 DUP3 ADD MSTORE PUSH2 0x765 PUSH2 0x100 DUP1 DUP5 ADD MLOAD SWAP1 DUP4 ADD SWAP1 PUSH2 0x68E JUMP JUMPDEST PUSH2 0x778 PUSH2 0x120 DUP1 DUP5 ADD MLOAD SWAP1 DUP4 ADD SWAP1 PUSH2 0x6A0 JUMP JUMPDEST PUSH2 0x793 PUSH2 0x140 DUP1 DUP5 ADD MLOAD SWAP1 PUSH2 0x180 DUP1 SWAP2 DUP6 ADD MSTORE DUP4 ADD SWAP1 PUSH2 0x6D0 JUMP JUMPDEST SWAP2 PUSH2 0x160 DUP1 SWAP2 ADD MLOAD SWAP2 ADD MSTORE SWAP1 JUMP JUMPDEST PUSH1 0x20 DUP1 DUP3 ADD SWAP1 DUP1 DUP4 MSTORE DUP4 MLOAD DUP1 SWAP3 MSTORE PUSH1 0x40 DUP4 ADD SWAP3 DUP2 PUSH1 0x40 DUP5 PUSH1 0x5 SHL DUP4 ADD ADD SWAP6 ADD SWAP4 PUSH1 0x0 SWAP2 JUMPDEST DUP5 DUP4 LT PUSH2 0x7D5 JUMPI POP POP POP POP POP POP SWAP1 JUMP JUMPDEST SWAP1 SWAP2 SWAP3 SWAP4 SWAP5 SWAP6 DUP5 DUP1 PUSH2 0x7F3 PUSH1 0x1 SWAP4 PUSH1 0x3F NOT DUP7 DUP3 SUB ADD DUP8 MSTORE DUP11 MLOAD PUSH2 0x6F5 JUMP JUMPDEST SWAP9 ADD SWAP4 ADD SWAP4 ADD SWAP2 SWAP5 SWAP4 SWAP3 SWAP1 PUSH2 0x7C5 JUMP JUMPDEST CALLVALUE PUSH2 0x1F0 JUMPI PUSH1 0x20 DUP1 PUSH1 0x3 NOT CALLDATASIZE ADD SLT PUSH2 0x1F0 JUMPI PUSH1 0x4 CALLDATALOAD PUSH2 0x821 DUP2 PUSH2 0x56D JUMP JUMPDEST PUSH1 0x1 DUP1 PUSH1 0xA0 SHL SUB AND PUSH1 0x0 MSTORE PUSH1 0xD DUP2 MSTORE PUSH1 0x40 PUSH1 0x0 KECCAK256 PUSH1 0x40 MLOAD SWAP2 DUP3 DUP2 DUP4 SLOAD SWAP2 DUP3 DUP2 MSTORE ADD SWAP3 PUSH1 0x0 MSTORE DUP2 PUSH1 0x0 KECCAK256 SWAP2 PUSH1 0x0 SWAP1 JUMPDEST DUP3 DUP3 LT PUSH2 0x87A JUMPI PUSH2 0x403 PUSH2 0x86E DUP8 PUSH2 0x869 DUP2 DUP10 SUB DUP3 PUSH2 0x45B JUMP JUMPDEST PUSH2 0x18C5 JUMP JUMPDEST PUSH1 0x40 MLOAD SWAP2 DUP3 SWAP2 DUP3 PUSH2 0x7A1 JUMP JUMPDEST DUP4 SLOAD DUP6 MSTORE SWAP4 DUP5 ADD SWAP4 PUSH1 0x1 SWAP4 DUP5 ADD SWAP4 SWAP1 SWAP2 ADD SWAP1 PUSH2 0x84F JUMP JUMPDEST CALLVALUE PUSH2 0x1F0 JUMPI PUSH1 0x20 DUP1 PUSH1 0x3 NOT CALLDATASIZE ADD SLT PUSH2 0x1F0 JUMPI PUSH1 0x4 CALLDATALOAD PUSH2 0x8AF DUP2 PUSH2 0x56D JUMP JUMPDEST PUSH1 0x1 PUSH1 0x1 PUSH1 0xA0 SHL SUB AND PUSH1 0x0 SWAP1 DUP2 MSTORE PUSH1 0xD DUP3 MSTORE PUSH1 0x40 DUP1 DUP3 KECCAK256 SWAP1 MLOAD DUP2 SLOAD DUP1 DUP3 MSTORE SWAP2 DUP4 MSTORE DUP4 DUP4 KECCAK256 DUP2 DUP6 ADD SWAP5 SWAP2 SWAP4 SWAP1 SWAP3 SWAP2 JUMPDEST DUP3 DUP3 LT PUSH2 0x8F4 JUMPI PUSH2 0x403 DUP6 PUSH2 0x3F7 DUP2 DUP10 SUB DUP3 PUSH2 0x45B JUMP JUMPDEST DUP4 SLOAD DUP7 MSTORE SWAP5 DUP6 ADD SWAP5 PUSH1 0x1 SWAP4 DUP5 ADD SWAP4 SWAP1 SWAP2 ADD SWAP1 PUSH2 0x8DD JUMP JUMPDEST CALLVALUE PUSH2 0x1F0 JUMPI PUSH1 0x0 CALLDATASIZE PUSH1 0x3 NOT ADD SLT PUSH2 0x1F0 JUMPI PUSH1 0x20 PUSH1 0xFF PUSH1 0x11 SLOAD PUSH1 0x8 SHR AND PUSH1 0x40 MLOAD SWAP1 DUP2 MSTORE RETURN JUMPDEST CALLVALUE PUSH2 0x1F0 JUMPI PUSH1 0x0 CALLDATASIZE PUSH1 0x3 NOT ADD SLT PUSH2 0x1F0 JUMPI PUSH1 0x8 SLOAD PUSH1 0x40 MLOAD PUSH1 0x1 PUSH1 0x1 PUSH1 0xA0 SHL SUB SWAP1 SWAP2 AND DUP2 MSTORE PUSH1 0x20 SWAP1 RETURN JUMPDEST PUSH1 0x0 DUP1 PUSH1 0x3 NOT CALLDATASIZE ADD SLT PUSH2 0x307 JUMPI PUSH1 0x4 SLOAD PUSH1 0x11 SLOAD PUSH1 0x40 DUP1 MLOAD CALLER PUSH1 0x20 DUP3 ADD MSTORE PUSH1 0x1 PUSH1 0x1 PUSH1 0xA0 SHL SUB SWAP1 SWAP4 AND SWAP1 DUP4 ADD DUP2 SWAP1 MSTORE ADDRESS PUSH1 0x60 DUP5 ADD MSTORE PUSH1 0xFF DUP1 DUP4 AND PUSH1 0x80 DUP6 ADD MSTORE PUSH1 0x8 DUP4 SWAP1 SHR DUP2 AND PUSH1 0xA0 DUP6 ADD MSTORE PUSH1 0x10 SWAP3 SWAP1 SWAP3 SHR SWAP1 SWAP2 AND PUSH1 0xC0 DUP1 DUP5 ADD SWAP2 SWAP1 SWAP2 MSTORE DUP3 MSTORE SWAP1 PUSH1 0x1F NOT PUSH2 0x9C5 PUSH1 0xE0 DUP4 PUSH2 0x45B JUMP JUMPDEST PUSH1 0x40 MLOAD PUSH4 0x122643F3 PUSH1 0xE2 SHL DUP2 MSTORE CALLER PUSH1 0x4 DUP3 ADD MSTORE PUSH1 0x1 PUSH1 0x1 PUSH1 0xA0 SHL SUB SWAP4 SWAP1 SWAP2 SWAP1 PUSH1 0x20 SWAP1 DUP4 SWAP1 PUSH1 0x24 SWAP1 DUP3 SWAP1 DUP9 AND GAS STATICCALL SWAP1 DUP2 ISZERO PUSH2 0xB70 JUMPI PUSH2 0xA11 PUSH2 0xAA1 SWAP3 PUSH2 0xA95 SWAP5 DUP9 SWAP2 PUSH2 0xB42 JUMPI JUMPDEST POP PUSH2 0x10AC JUMP JUMPDEST PUSH2 0xA24 PUSH2 0xA1C PUSH2 0x1406 JUMP JUMPDEST CALLVALUE LT ISZERO PUSH2 0x10EE JUMP JUMPDEST PUSH2 0xA5F DUP7 DUP1 DUP1 DUP1 CALLVALUE PUSH2 0xA4F PUSH2 0xA43 PUSH2 0xA43 PUSH1 0x3 SLOAD PUSH1 0x1 DUP1 PUSH1 0xA0 SHL SUB AND SWAP1 JUMP JUMPDEST PUSH1 0x1 PUSH1 0x1 PUSH1 0xA0 SHL SUB AND SWAP1 JUMP JUMPDEST GAS CALL PUSH2 0xA59 PUSH2 0x112B JUMP JUMPDEST POP PUSH2 0x115B JUMP JUMPDEST PUSH2 0xA72 PUSH2 0xA6D PUSH1 0x10 SLOAD PUSH2 0x1195 JUMP JUMPDEST PUSH1 0x10 SSTORE JUMP JUMPDEST PUSH2 0xA7A PUSH2 0x11BA JUMP JUMPDEST SWAP4 PUSH1 0x40 MLOAD SWAP4 DUP5 SWAP2 PUSH2 0xA8F PUSH1 0x20 DUP5 ADD DUP1 SWAP9 PUSH2 0x1278 JUMP JUMPDEST SWAP1 PUSH2 0x1278 JUMP JUMPDEST SUB SWAP1 DUP2 ADD DUP4 MSTORE DUP3 PUSH2 0x45B JUMP JUMPDEST MLOAD SWAP1 DUP4 CREATE SWAP1 DUP2 EXTCODESIZE ISZERO PUSH2 0xB3E JUMPI DUP2 PUSH2 0x403 SWAP2 PUSH32 0xB658664A46408E6670A38EC7EA8B7614C9E2916184DFF2FAD99D3A7A3491CA7D SWAP5 SWAP4 AND PUSH2 0xADF DUP2 PUSH2 0x12B8 JUMP JUMPDEST POP CALLER PUSH1 0x0 SWAP1 DUP2 MSTORE PUSH1 0xD PUSH1 0x20 MSTORE PUSH1 0x40 SWAP1 KECCAK256 PUSH2 0xAFA SWAP1 DUP4 SWAP1 PUSH2 0x128F JUMP JUMPDEST POP PUSH1 0x1 PUSH1 0x1 PUSH1 0xA0 SHL SUB DUP3 AND PUSH1 0x0 SWAP1 DUP2 MSTORE PUSH1 0xE PUSH1 0x20 MSTORE PUSH1 0x40 SWAP1 KECCAK256 PUSH2 0xB24 SWAP1 DUP1 SLOAD PUSH1 0xFF NOT AND PUSH1 0x1 OR SWAP1 SSTORE JUMP JUMPDEST PUSH1 0x40 MLOAD SWAP5 DUP5 DUP7 SWAP6 LOG2 PUSH1 0x1 PUSH1 0x1 PUSH1 0xA0 SHL SUB AND DUP3 MSTORE PUSH1 0x20 DUP3 ADD SWAP1 JUMP JUMPDEST DUP3 DUP1 REVERT JUMPDEST PUSH2 0xB63 SWAP2 POP PUSH1 0x20 RETURNDATASIZE DUP2 GT PUSH2 0xB69 JUMPI JUMPDEST PUSH2 0xB5B DUP2 DUP4 PUSH2 0x45B JUMP JUMPDEST DUP2 ADD SWAP1 PUSH2 0x1088 JUMP JUMPDEST CODESIZE PUSH2 0xA0B JUMP JUMPDEST POP RETURNDATASIZE PUSH2 0xB51 JUMP JUMPDEST PUSH2 0x10A0 JUMP JUMPDEST CALLVALUE PUSH2 0x1F0 JUMPI PUSH1 0x0 CALLDATASIZE PUSH1 0x3 NOT ADD SLT PUSH2 0x1F0 JUMPI PUSH1 0x5 SLOAD PUSH1 0x40 MLOAD PUSH1 0x1 PUSH1 0x1 PUSH1 0xA0 SHL SUB SWAP1 SWAP2 AND DUP2 MSTORE PUSH1 0x20 SWAP1 RETURN JUMPDEST CALLVALUE PUSH2 0x1F0 JUMPI PUSH1 0x20 CALLDATASIZE PUSH1 0x3 NOT ADD SLT PUSH2 0x1F0 JUMPI PUSH1 0x4 CALLDATALOAD PUSH2 0xBBB DUP2 PUSH2 0x56D JUMP JUMPDEST PUSH1 0x1 DUP1 PUSH1 0xA0 SHL SUB AND PUSH1 0x0 MSTORE PUSH1 0xE PUSH1 0x20 MSTORE PUSH1 0x20 PUSH1 0xFF PUSH1 0x40 PUSH1 0x0 KECCAK256 SLOAD AND PUSH1 0x40 MLOAD SWAP1 ISZERO ISZERO DUP2 MSTORE RETURN JUMPDEST CALLVALUE PUSH2 0x1F0 JUMPI PUSH1 0x20 CALLDATASIZE PUSH1 0x3 NOT ADD SLT PUSH2 0x1F0 JUMPI PUSH1 0xFF PUSH2 0xBFB PUSH2 0x4CE JUMP JUMPDEST AND PUSH1 0x0 MSTORE PUSH1 0xC PUSH1 0x20 MSTORE PUSH1 0x20 PUSH3 0xFFFFFF PUSH1 0x40 PUSH1 0x0 KECCAK256 SLOAD AND PUSH1 0x40 MLOAD SWAP1 DUP2 MSTORE RETURN JUMPDEST CALLVALUE PUSH2 0x1F0 JUMPI PUSH1 0x20 CALLDATASIZE PUSH1 0x3 NOT ADD SLT PUSH2 0x1F0 JUMPI PUSH2 0x403 PUSH2 0xC4A PUSH1 0x4 CALLDATALOAD PUSH2 0xC3C DUP2 PUSH2 0x56D JUMP JUMPDEST PUSH2 0xC44 PUSH2 0x138A JUMP JUMPDEST POP PUSH2 0x1522 JUMP JUMPDEST PUSH1 0x40 MLOAD SWAP2 DUP3 SWAP2 PUSH1 0x20 DUP4 MSTORE PUSH1 0x20 DUP4 ADD SWAP1 PUSH2 0x6F5 JUMP JUMPDEST CALLVALUE PUSH2 0x1F0 JUMPI PUSH1 0x0 CALLDATASIZE PUSH1 0x3 NOT ADD SLT PUSH2 0x1F0 JUMPI PUSH1 0x40 MLOAD DUP1 PUSH1 0x1 SWAP1 DUP2 SLOAD SWAP2 DUP3 DUP3 MSTORE PUSH1 0x20 DUP1 SWAP3 ADD SWAP3 DUP2 PUSH1 0x0 MSTORE PUSH32 0xB10E2D527612073B26EECDFD717E6A320CF44B4AFAC2B0732D9FCBE2B7FA0CF6 SWAP3 PUSH1 0x0 SWAP1 JUMPDEST DUP3 DUP3 LT PUSH2 0xCC6 JUMPI PUSH2 0x403 PUSH2 0x86E DUP9 PUSH2 0x869 DUP2 DUP11 SUB DUP3 PUSH2 0x45B JUMP JUMPDEST DUP5 SLOAD DUP7 MSTORE SWAP5 DUP6 ADD SWAP5 SWAP4 DUP4 ADD SWAP4 SWAP1 DUP4 ADD SWAP1 PUSH2 0xCAC JUMP JUMPDEST CALLVALUE PUSH2 0x1F0 JUMPI PUSH1 0x40 CALLDATASIZE PUSH1 0x3 NOT ADD SLT PUSH2 0x1F0 JUMPI PUSH2 0xCF4 PUSH2 0x4CE JUMP JUMPDEST PUSH1 0x24 CALLDATALOAD SWAP1 PUSH3 0xFFFFFF DUP3 AND DUP1 SWAP3 SUB PUSH2 0x1F0 JUMPI PUSH1 0xFF SWAP1 PUSH2 0xD10 PUSH2 0xE69 JUMP JUMPDEST AND PUSH1 0x0 MSTORE PUSH1 0xC PUSH1 0x20 MSTORE PUSH1 0x40 PUSH1 0x0 KECCAK256 SWAP1 PUSH3 0xFFFFFF NOT DUP3 SLOAD AND OR SWAP1 SSTORE PUSH1 0x0 DUP1 RETURN JUMPDEST CALLVALUE PUSH2 0x1F0 JUMPI PUSH1 0x20 CALLDATASIZE PUSH1 0x3 NOT ADD SLT PUSH2 0x1F0 JUMPI PUSH1 0x4 CALLDATALOAD PUSH2 0xD4C DUP2 PUSH2 0x56D JUMP JUMPDEST PUSH2 0xD54 PUSH2 0xE69 JUMP JUMPDEST PUSH1 0x1 PUSH1 0x1 PUSH1 0xA0 SHL SUB SWAP1 DUP2 AND DUP1 ISZERO PUSH2 0xDA2 JUMPI PUSH1 0x0 DUP1 SLOAD PUSH1 0x1 PUSH1 0x1 PUSH1 0xA0 SHL SUB NOT DUP2 AND DUP4 OR DUP3 SSTORE SWAP1 SWAP3 AND PUSH32 0x8BE0079C531659141344CD1FD0A4F28419497F9722A3DAAFE3B4186F6B6457E0 DUP4 DUP1 LOG3 DUP1 RETURN JUMPDEST PUSH1 0x40 MLOAD PUSH3 0x461BCD PUSH1 0xE5 SHL DUP2 MSTORE PUSH1 0x20 PUSH1 0x4 DUP3 ADD MSTORE PUSH1 0x26 PUSH1 0x24 DUP3 ADD MSTORE PUSH32 0x4F776E61626C653A206E6577206F776E657220697320746865207A65726F2061 PUSH1 0x44 DUP3 ADD MSTORE PUSH6 0x646472657373 PUSH1 0xD0 SHL PUSH1 0x64 DUP3 ADD MSTORE PUSH1 0x84 SWAP1 REVERT JUMPDEST CALLVALUE PUSH2 0x1F0 JUMPI PUSH1 0x0 CALLDATASIZE PUSH1 0x3 NOT ADD SLT PUSH2 0x1F0 JUMPI PUSH1 0x7 SLOAD PUSH1 0x40 MLOAD PUSH1 0x1 PUSH1 0x1 PUSH1 0xA0 SHL SUB SWAP1 SWAP2 AND DUP2 MSTORE PUSH1 0x20 SWAP1 RETURN JUMPDEST CALLVALUE PUSH2 0x1F0 JUMPI PUSH1 0x0 CALLDATASIZE PUSH1 0x3 NOT ADD SLT PUSH2 0x1F0 JUMPI PUSH1 0x20 PUSH1 0xFF PUSH1 0x11 SLOAD AND PUSH1 0x40 MLOAD SWAP1 DUP2 MSTORE RETURN JUMPDEST CALLVALUE PUSH2 0x1F0 JUMPI PUSH1 0x0 CALLDATASIZE PUSH1 0x3 NOT ADD SLT PUSH2 0x1F0 JUMPI PUSH1 0xA SLOAD PUSH1 0x40 MLOAD PUSH1 0x1 PUSH1 0x1 PUSH1 0xA0 SHL SUB SWAP1 SWAP2 AND DUP2 MSTORE PUSH1 0x20 SWAP1 RETURN JUMPDEST PUSH1 0x0 SLOAD PUSH1 0x1 PUSH1 0x1 PUSH1 0xA0 SHL SUB AND CALLER SUB PUSH2 0xE7D JUMPI JUMP JUMPDEST PUSH1 0x64 PUSH1 0x40 MLOAD PUSH3 0x461BCD PUSH1 0xE5 SHL DUP2 MSTORE PUSH1 0x20 PUSH1 0x4 DUP3 ADD MSTORE PUSH1 0x20 PUSH1 0x24 DUP3 ADD MSTORE PUSH32 0x4F776E61626C653A2063616C6C6572206973206E6F7420746865206F776E6572 PUSH1 0x44 DUP3 ADD MSTORE REVERT JUMPDEST SWAP4 SWAP3 PUSH2 0xFF00 SWAP1 SWAP3 SWAP2 SWAP3 PUSH2 0xED2 PUSH2 0xE69 JUMP JUMPDEST PUSH1 0xFF PUSH3 0xFF0000 PUSH1 0x11 SLOAD SWAP3 PUSH1 0x10 SHL AND SWAP5 AND SWAP1 PUSH3 0xFFFFFF NOT AND OR SWAP2 PUSH1 0x8 SHL AND OR OR PUSH1 0x11 SSTORE DUP2 MLOAD PUSH8 0xFFFFFFFFFFFFFFFF DUP2 GT PUSH2 0x47D JUMPI PUSH2 0xF19 DUP2 PUSH2 0xF14 PUSH1 0xB SLOAD PUSH2 0xFDD JUMP JUMPDEST PUSH2 0x1017 JUMP JUMPDEST PUSH1 0x20 DUP1 PUSH1 0x1F DUP4 GT PUSH1 0x1 EQ PUSH2 0xF55 JUMPI POP DUP2 SWAP3 SWAP4 PUSH1 0x0 SWAP3 PUSH2 0xF4A JUMPI JUMPDEST POP POP DUP2 PUSH1 0x1 SHL SWAP2 PUSH1 0x0 NOT SWAP1 PUSH1 0x3 SHL SHR NOT AND OR PUSH1 0xB SSTORE JUMP JUMPDEST ADD MLOAD SWAP1 POP CODESIZE DUP1 PUSH2 0xF33 JUMP JUMPDEST SWAP1 PUSH1 0x1F NOT DUP4 AND SWAP5 PUSH2 0xF88 PUSH1 0xB PUSH1 0x0 MSTORE PUSH32 0x175B7A638427703F0DBE7BB9BBF987A2551717B34E79F33B5B1008D1FA01DB9 SWAP1 JUMP JUMPDEST SWAP3 PUSH1 0x0 SWAP1 JUMPDEST DUP8 DUP3 LT PUSH2 0xFC5 JUMPI POP POP DUP4 PUSH1 0x1 SWAP6 SWAP7 LT PUSH2 0xFAC JUMPI JUMPDEST POP POP POP DUP2 SHL ADD PUSH1 0xB SSTORE JUMP JUMPDEST ADD MLOAD PUSH1 0x0 NOT PUSH1 0xF8 DUP5 PUSH1 0x3 SHL AND SHR NOT AND SWAP1 SSTORE CODESIZE DUP1 DUP1 PUSH2 0xFA1 JUMP JUMPDEST DUP1 PUSH1 0x1 DUP6 SWAP7 DUP3 SWAP5 SWAP7 DUP7 ADD MLOAD DUP2 SSTORE ADD SWAP6 ADD SWAP4 ADD SWAP1 PUSH2 0xF8D JUMP JUMPDEST SWAP1 PUSH1 0x1 DUP3 DUP2 SHR SWAP3 AND DUP1 ISZERO PUSH2 0x100D JUMPI JUMPDEST PUSH1 0x20 DUP4 LT EQ PUSH2 0xFF7 JUMPI JUMP JUMPDEST PUSH4 0x4E487B71 PUSH1 0xE0 SHL PUSH1 0x0 MSTORE PUSH1 0x22 PUSH1 0x4 MSTORE PUSH1 0x24 PUSH1 0x0 REVERT JUMPDEST SWAP2 PUSH1 0x7F AND SWAP2 PUSH2 0xFEC JUMP JUMPDEST PUSH1 0x1F DUP2 GT PUSH2 0x1023 JUMPI POP POP JUMP JUMPDEST PUSH1 0x0 SWAP1 PUSH1 0xB DUP3 MSTORE PUSH32 0x175B7A638427703F0DBE7BB9BBF987A2551717B34E79F33B5B1008D1FA01DB9 SWAP1 PUSH1 0x20 PUSH1 0x1F DUP6 ADD PUSH1 0x5 SHR DUP4 ADD SWAP5 LT PUSH2 0x107E JUMPI JUMPDEST PUSH1 0x1F ADD PUSH1 0x5 SHR ADD SWAP2 JUMPDEST DUP3 DUP2 LT PUSH2 0x1073 JUMPI POP POP POP JUMP JUMPDEST DUP2 DUP2 SSTORE PUSH1 0x1 ADD PUSH2 0x1067 JUMP JUMPDEST SWAP1 SWAP3 POP DUP3 SWAP1 PUSH2 0x105E JUMP JUMPDEST SWAP1 DUP2 PUSH1 0x20 SWAP2 SUB SLT PUSH2 0x1F0 JUMPI MLOAD PUSH2 0x109D DUP2 PUSH2 0x30A JUMP JUMPDEST SWAP1 JUMP JUMPDEST PUSH1 0x40 MLOAD RETURNDATASIZE PUSH1 0x0 DUP3 RETURNDATACOPY RETURNDATASIZE SWAP1 REVERT JUMPDEST ISZERO PUSH2 0x10B3 JUMPI JUMP JUMPDEST PUSH1 0x40 MLOAD PUSH3 0x461BCD PUSH1 0xE5 SHL DUP2 MSTORE PUSH1 0x20 PUSH1 0x4 DUP3 ADD MSTORE PUSH1 0x13 PUSH1 0x24 DUP3 ADD MSTORE PUSH19 0x1D5CD95C88191BD95CC81B9BDD08195E1A5CDD PUSH1 0x6A SHL PUSH1 0x44 DUP3 ADD MSTORE PUSH1 0x64 SWAP1 REVERT JUMPDEST ISZERO PUSH2 0x10F5 JUMPI JUMP JUMPDEST PUSH1 0x40 MLOAD PUSH3 0x461BCD PUSH1 0xE5 SHL DUP2 MSTORE PUSH1 0x20 PUSH1 0x4 DUP3 ADD MSTORE PUSH1 0xE PUSH1 0x24 DUP3 ADD MSTORE PUSH14 0x4E4F545F454E4F5547485F464545 PUSH1 0x90 SHL PUSH1 0x44 DUP3 ADD MSTORE PUSH1 0x64 SWAP1 REVERT JUMPDEST RETURNDATASIZE ISZERO PUSH2 0x1156 JUMPI RETURNDATASIZE SWAP1 PUSH2 0x113C DUP3 PUSH2 0x482 JUMP JUMPDEST SWAP2 PUSH2 0x114A PUSH1 0x40 MLOAD SWAP4 DUP5 PUSH2 0x45B JUMP JUMPDEST DUP3 MSTORE RETURNDATASIZE PUSH1 0x0 PUSH1 0x20 DUP5 ADD RETURNDATACOPY JUMP JUMPDEST PUSH1 0x60 SWAP1 JUMP JUMPDEST ISZERO PUSH2 0x1162 JUMPI JUMP JUMPDEST PUSH1 0x40 MLOAD PUSH3 0x461BCD PUSH1 0xE5 SHL DUP2 MSTORE PUSH1 0x20 PUSH1 0x4 DUP3 ADD MSTORE PUSH1 0xB PUSH1 0x24 DUP3 ADD MSTORE PUSH11 0x10D0531317D19052531151 PUSH1 0xAA SHL PUSH1 0x44 DUP3 ADD MSTORE PUSH1 0x64 SWAP1 REVERT JUMPDEST PUSH1 0x0 NOT DUP2 EQ PUSH2 0x11A4 JUMPI PUSH1 0x1 ADD SWAP1 JUMP JUMPDEST PUSH4 0x4E487B71 PUSH1 0xE0 SHL PUSH1 0x0 MSTORE PUSH1 0x11 PUSH1 0x4 MSTORE PUSH1 0x24 PUSH1 0x0 REVERT JUMPDEST PUSH1 0x40 MLOAD SWAP1 PUSH1 0x0 DUP3 PUSH1 0xB SLOAD SWAP2 PUSH2 0x11CE DUP4 PUSH2 0xFDD JUMP JUMPDEST DUP1 DUP4 MSTORE SWAP3 PUSH1 0x1 SWAP1 DUP2 DUP2 AND SWAP1 DUP2 ISZERO PUSH2 0x1256 JUMPI POP PUSH1 0x1 EQ PUSH2 0x11F7 JUMPI JUMPDEST POP PUSH2 0x11F5 SWAP3 POP SUB DUP4 PUSH2 0x45B JUMP JUMPDEST JUMP JUMPDEST PUSH1 0xB PUSH1 0x0 SWAP1 DUP2 MSTORE SWAP2 POP PUSH32 0x175B7A638427703F0DBE7BB9BBF987A2551717B34E79F33B5B1008D1FA01DB9 JUMPDEST DUP5 DUP4 LT PUSH2 0x123B JUMPI POP PUSH2 0x11F5 SWAP4 POP POP DUP2 ADD PUSH1 0x20 ADD CODESIZE PUSH2 0x11E8 JUMP JUMPDEST DUP2 SWAP4 POP SWAP1 DUP2 PUSH1 0x20 SWAP3 SLOAD DUP4 DUP6 DUP11 ADD ADD MSTORE ADD SWAP2 ADD SWAP1 SWAP2 DUP6 SWAP3 PUSH2 0x1222 JUMP JUMPDEST SWAP1 POP PUSH1 0x20 SWAP3 POP PUSH2 0x11F5 SWAP5 SWAP2 POP PUSH1 0xFF NOT AND DUP3 DUP5 ADD MSTORE ISZERO ISZERO PUSH1 0x5 SHL DUP3 ADD ADD CODESIZE PUSH2 0x11E8 JUMP JUMPDEST SWAP1 PUSH2 0x128B PUSH1 0x20 SWAP3 DUP3 DUP2 MLOAD SWAP5 DUP6 SWAP3 ADD PUSH2 0x6AD JUMP JUMPDEST ADD SWAP1 JUMP JUMPDEST PUSH2 0x109D SWAP2 PUSH1 0x1 PUSH1 0x1 PUSH1 0xA0 SHL SUB AND SWAP1 PUSH2 0x1334 JUMP JUMPDEST PUSH4 0x4E487B71 PUSH1 0xE0 SHL PUSH1 0x0 MSTORE PUSH1 0x32 PUSH1 0x4 MSTORE PUSH1 0x24 PUSH1 0x0 REVERT JUMPDEST DUP1 PUSH1 0x0 MSTORE PUSH1 0x2 PUSH1 0x20 MSTORE PUSH1 0x40 PUSH1 0x0 KECCAK256 SLOAD ISZERO PUSH1 0x0 EQ PUSH2 0x132E JUMPI PUSH1 0x1 SLOAD PUSH1 0x1 PUSH1 0x40 SHL DUP2 LT ISZERO PUSH2 0x47D JUMPI PUSH1 0x1 DUP2 ADD DUP1 PUSH1 0x1 SSTORE DUP2 LT ISZERO PUSH2 0x1329 JUMPI DUP2 SWAP1 PUSH32 0xB10E2D527612073B26EECDFD717E6A320CF44B4AFAC2B0732D9FCBE2B7FA0CF6 ADD SSTORE PUSH1 0x1 SLOAD SWAP1 PUSH1 0x0 MSTORE PUSH1 0x2 PUSH1 0x20 MSTORE PUSH1 0x40 PUSH1 0x0 KECCAK256 SSTORE PUSH1 0x1 SWAP1 JUMP JUMPDEST PUSH2 0x12A2 JUMP JUMPDEST POP PUSH1 0x0 SWAP1 JUMP JUMPDEST PUSH1 0x0 DUP3 DUP2 MSTORE PUSH1 0x1 DUP3 ADD PUSH1 0x20 DUP2 SWAP1 MSTORE PUSH1 0x40 DUP3 KECCAK256 SLOAD PUSH2 0x1383 JUMPI DUP3 SLOAD SWAP3 PUSH1 0x1 PUSH1 0x40 SHL DUP5 LT ISZERO PUSH2 0x47D JUMPI PUSH1 0x1 DUP5 ADD DUP1 DUP3 SSTORE DUP5 LT ISZERO PUSH2 0x1329 JUMPI DUP5 PUSH1 0x40 SWAP5 DUP3 DUP6 MSTORE PUSH1 0x20 DUP6 KECCAK256 ADD SSTORE SLOAD SWAP4 DUP3 MSTORE PUSH1 0x20 MSTORE KECCAK256 SSTORE PUSH1 0x1 SWAP1 JUMP JUMPDEST POP SWAP2 POP POP SWAP1 JUMP JUMPDEST PUSH1 0x40 MLOAD SWAP1 PUSH2 0x180 DUP3 ADD DUP3 DUP2 LT PUSH8 0xFFFFFFFFFFFFFFFF DUP3 GT OR PUSH2 0x47D JUMPI PUSH1 0x40 MSTORE DUP2 PUSH2 0x160 PUSH1 0x0 SWAP2 DUP3 DUP2 MSTORE DUP3 PUSH1 0x20 DUP3 ADD MSTORE DUP3 PUSH1 0x40 DUP3 ADD MSTORE DUP3 PUSH1 0x60 DUP3 ADD MSTORE DUP3 PUSH1 0x80 DUP3 ADD MSTORE DUP3 PUSH1 0xA0 DUP3 ADD MSTORE DUP3 PUSH1 0xC0 DUP3 ADD MSTORE DUP3 PUSH1 0xE0 DUP3 ADD MSTORE DUP3 PUSH2 0x100 DUP3 ADD MSTORE DUP3 PUSH2 0x120 DUP3 ADD MSTORE PUSH1 0x60 PUSH2 0x140 DUP3 ADD MSTORE ADD MSTORE JUMP JUMPDEST SWAP1 DUP2 PUSH1 0x20 SWAP2 SUB SLT PUSH2 0x1F0 JUMPI MLOAD SWAP1 JUMP JUMPDEST PUSH1 0x3 SLOAD PUSH1 0x40 MLOAD PUSH4 0x91792D5B PUSH1 0xE0 SHL DUP2 MSTORE SWAP1 PUSH1 0x20 SWAP1 DUP3 SWAP1 PUSH1 0x4 SWAP1 DUP3 SWAP1 PUSH1 0x1 PUSH1 0x1 PUSH1 0xA0 SHL SUB AND GAS STATICCALL SWAP1 DUP2 ISZERO PUSH2 0xB70 JUMPI PUSH1 0x0 SWAP2 PUSH2 0x143E JUMPI POP SWAP1 JUMP JUMPDEST PUSH2 0x109D SWAP2 POP PUSH1 0x20 RETURNDATASIZE DUP2 GT PUSH2 0x145F JUMPI JUMPDEST PUSH2 0x1457 DUP2 DUP4 PUSH2 0x45B JUMP JUMPDEST DUP2 ADD SWAP1 PUSH2 0x13F7 JUMP JUMPDEST POP RETURNDATASIZE PUSH2 0x144D JUMP JUMPDEST SWAP1 DUP2 PUSH1 0x20 SWAP2 SUB SLT PUSH2 0x1F0 JUMPI MLOAD PUSH2 0x109D DUP2 PUSH2 0x56D JUMP JUMPDEST SWAP1 DUP2 PUSH1 0x20 SWAP2 SUB SLT PUSH2 0x1F0 JUMPI MLOAD PUSH1 0x8 DUP2 LT ISZERO PUSH2 0x1F0 JUMPI SWAP1 JUMP JUMPDEST PUSH1 0x8 DUP3 LT ISZERO PUSH2 0x69B JUMPI MSTORE JUMP JUMPDEST SWAP1 DUP2 PUSH1 0x20 SWAP2 SUB SLT PUSH2 0x1F0 JUMPI MLOAD PUSH1 0x3 DUP2 LT ISZERO PUSH2 0x1F0 JUMPI SWAP1 JUMP JUMPDEST PUSH1 0x3 DUP3 LT ISZERO PUSH2 0x69B JUMPI MSTORE JUMP JUMPDEST PUSH1 0x20 DUP2 DUP4 SUB SLT PUSH2 0x1F0 JUMPI DUP1 MLOAD SWAP1 PUSH8 0xFFFFFFFFFFFFFFFF DUP3 GT PUSH2 0x1F0 JUMPI ADD DUP2 PUSH1 0x1F DUP3 ADD SLT ISZERO PUSH2 0x1F0 JUMPI DUP1 MLOAD PUSH2 0x14F6 DUP2 PUSH2 0x482 JUMP JUMPDEST SWAP3 PUSH2 0x1504 PUSH1 0x40 MLOAD SWAP5 DUP6 PUSH2 0x45B JUMP JUMPDEST DUP2 DUP5 MSTORE PUSH1 0x20 DUP3 DUP5 ADD ADD GT PUSH2 0x1F0 JUMPI PUSH2 0x109D SWAP2 PUSH1 0x20 DUP1 DUP6 ADD SWAP2 ADD PUSH2 0x6AD JUMP JUMPDEST PUSH2 0x152A PUSH2 0x138A JUMP JUMPDEST POP PUSH2 0x1533 PUSH2 0x138A JUMP JUMPDEST PUSH1 0x1 PUSH1 0x1 PUSH1 0xA0 SHL SUB SWAP1 SWAP2 AND DUP1 DUP3 MSTORE PUSH1 0x40 DUP1 MLOAD PUSH4 0x8DA5CB5B PUSH1 0xE0 SHL DUP2 MSTORE PUSH1 0x20 SWAP3 PUSH1 0x4 SWAP3 SWAP2 DUP5 DUP2 DUP6 DUP2 DUP6 GAS STATICCALL DUP1 ISZERO PUSH2 0xB70 JUMPI PUSH2 0x157F SWAP2 PUSH1 0x0 SWAP2 PUSH2 0x186C JUMPI JUMPDEST POP PUSH1 0x1 PUSH1 0x1 PUSH1 0xA0 SHL SUB AND DUP7 DUP7 ADD MSTORE JUMP JUMPDEST DUP2 MLOAD PUSH4 0x5C63ED69 PUSH1 0xE0 SHL DUP2 MSTORE DUP5 DUP2 DUP6 DUP2 DUP6 GAS STATICCALL SWAP1 DUP2 ISZERO PUSH2 0xB70 JUMPI PUSH1 0x0 SWAP2 PUSH2 0x184F JUMPI JUMPDEST POP DUP6 DUP4 ADD MSTORE DUP2 MLOAD PUSH4 0x4C38D877 PUSH1 0xE0 SHL DUP2 MSTORE DUP5 DUP2 DUP6 DUP2 DUP6 GAS STATICCALL SWAP1 DUP2 ISZERO PUSH2 0xB70 JUMPI PUSH1 0x0 SWAP2 PUSH2 0x1832 JUMPI JUMPDEST POP PUSH1 0x60 DUP7 ADD MSTORE DUP2 MLOAD PUSH4 0x48BF3BB PUSH1 0xE1 SHL DUP2 MSTORE DUP5 DUP2 DUP6 DUP2 DUP6 GAS STATICCALL SWAP1 DUP2 ISZERO PUSH2 0xB70 JUMPI PUSH1 0x0 SWAP2 PUSH2 0x1815 JUMPI JUMPDEST POP PUSH1 0x80 DUP7 ADD MSTORE DUP2 MLOAD PUSH4 0xBC83617 PUSH1 0xE1 SHL DUP2 MSTORE DUP5 DUP2 DUP6 DUP2 DUP6 GAS STATICCALL SWAP1 DUP2 ISZERO PUSH2 0xB70 JUMPI PUSH1 0x0 SWAP2 PUSH2 0x17F8 JUMPI JUMPDEST POP PUSH1 0xA0 DUP7 ADD MSTORE DUP2 MLOAD PUSH4 0xD24E0C87 PUSH1 0xE0 SHL DUP2 MSTORE DUP5 DUP2 DUP6 DUP2 DUP6 GAS STATICCALL SWAP1 DUP2 ISZERO PUSH2 0xB70 JUMPI PUSH1 0x0 SWAP2 PUSH2 0x17DB JUMPI JUMPDEST POP PUSH1 0xC0 DUP7 ADD MSTORE DUP2 MLOAD PUSH4 0xFAEB5E17 PUSH1 0xE0 SHL DUP2 MSTORE DUP5 DUP2 DUP6 DUP2 DUP6 GAS STATICCALL SWAP1 DUP2 ISZERO PUSH2 0xB70 JUMPI PUSH1 0x0 SWAP2 PUSH2 0x17BE JUMPI JUMPDEST POP PUSH1 0xE0 DUP7 ADD MSTORE DUP2 MLOAD PUSH4 0x2734EAB PUSH1 0xE5 SHL DUP2 MSTORE DUP5 DUP2 DUP6 DUP2 DUP6 GAS STATICCALL DUP1 ISZERO PUSH2 0xB70 JUMPI PUSH2 0x169E SWAP2 PUSH1 0x0 SWAP2 PUSH2 0x1791 JUMPI JUMPDEST POP PUSH2 0x100 DUP8 ADD PUSH2 0x1493 JUMP JUMPDEST DUP2 MLOAD PUSH4 0x10A38F5 PUSH1 0xE0 SHL DUP2 MSTORE DUP5 DUP2 DUP6 DUP2 DUP6 GAS STATICCALL DUP1 ISZERO PUSH2 0xB70 JUMPI PUSH2 0x16CE SWAP2 PUSH1 0x0 SWAP2 PUSH2 0x1764 JUMPI JUMPDEST POP PUSH2 0x120 DUP8 ADD PUSH2 0x14B7 JUMP JUMPDEST DUP2 MLOAD PUSH4 0x54FD4D5 PUSH1 0xE4 SHL DUP2 MSTORE SWAP2 PUSH1 0x0 DUP4 DUP6 DUP2 DUP6 GAS STATICCALL DUP1 ISZERO PUSH2 0xB70 JUMPI DUP6 SWAP4 PUSH1 0x0 SWAP2 PUSH2 0x1743 JUMPI JUMPDEST POP PUSH2 0x140 DUP8 ADD MSTORE MLOAD PUSH4 0x32946A87 PUSH1 0xE0 SHL DUP2 MSTORE SWAP3 DUP4 SWAP2 DUP3 SWAP1 GAS STATICCALL SWAP2 DUP3 ISZERO PUSH2 0xB70 JUMPI PUSH1 0x0 SWAP3 PUSH2 0x1726 JUMPI JUMPDEST POP POP PUSH2 0x160 DUP3 ADD MSTORE SWAP1 JUMP JUMPDEST PUSH2 0x173C SWAP3 POP DUP1 RETURNDATASIZE LT PUSH2 0x145F JUMPI PUSH2 0x1457 DUP2 DUP4 PUSH2 0x45B JUMP JUMPDEST CODESIZE DUP1 PUSH2 0x171B JUMP JUMPDEST PUSH2 0x175E SWAP2 RETURNDATASIZE DUP1 SWAP2 DUP4 RETURNDATACOPY PUSH2 0x1756 DUP2 DUP4 PUSH2 0x45B JUMP JUMPDEST DUP2 ADD SWAP1 PUSH2 0x14C3 JUMP JUMPDEST CODESIZE PUSH2 0x16F3 JUMP JUMPDEST PUSH2 0x1784 SWAP2 POP DUP7 RETURNDATASIZE DUP9 GT PUSH2 0x178A JUMPI JUMPDEST PUSH2 0x177C DUP2 DUP4 PUSH2 0x45B JUMP JUMPDEST DUP2 ADD SWAP1 PUSH2 0x149F JUMP JUMPDEST CODESIZE PUSH2 0x16C3 JUMP JUMPDEST POP RETURNDATASIZE PUSH2 0x1772 JUMP JUMPDEST PUSH2 0x17B1 SWAP2 POP DUP7 RETURNDATASIZE DUP9 GT PUSH2 0x17B7 JUMPI JUMPDEST PUSH2 0x17A9 DUP2 DUP4 PUSH2 0x45B JUMP JUMPDEST DUP2 ADD SWAP1 PUSH2 0x147B JUMP JUMPDEST CODESIZE PUSH2 0x1693 JUMP JUMPDEST POP RETURNDATASIZE PUSH2 0x179F JUMP JUMPDEST PUSH2 0x17D5 SWAP2 POP DUP6 RETURNDATASIZE DUP8 GT PUSH2 0x145F JUMPI PUSH2 0x1457 DUP2 DUP4 PUSH2 0x45B JUMP JUMPDEST CODESIZE PUSH2 0x1668 JUMP JUMPDEST PUSH2 0x17F2 SWAP2 POP DUP6 RETURNDATASIZE DUP8 GT PUSH2 0x145F JUMPI PUSH2 0x1457 DUP2 DUP4 PUSH2 0x45B JUMP JUMPDEST CODESIZE PUSH2 0x1640 JUMP JUMPDEST PUSH2 0x180F SWAP2 POP DUP6 RETURNDATASIZE DUP8 GT PUSH2 0x145F JUMPI PUSH2 0x1457 DUP2 DUP4 PUSH2 0x45B JUMP JUMPDEST CODESIZE PUSH2 0x1618 JUMP JUMPDEST PUSH2 0x182C SWAP2 POP DUP6 RETURNDATASIZE DUP8 GT PUSH2 0x145F JUMPI PUSH2 0x1457 DUP2 DUP4 PUSH2 0x45B JUMP JUMPDEST CODESIZE PUSH2 0x15F0 JUMP JUMPDEST PUSH2 0x1849 SWAP2 POP DUP6 RETURNDATASIZE DUP8 GT PUSH2 0x145F JUMPI PUSH2 0x1457 DUP2 DUP4 PUSH2 0x45B JUMP JUMPDEST CODESIZE PUSH2 0x15C8 JUMP JUMPDEST PUSH2 0x1866 SWAP2 POP DUP6 RETURNDATASIZE DUP8 GT PUSH2 0x145F JUMPI PUSH2 0x1457 DUP2 DUP4 PUSH2 0x45B JUMP JUMPDEST CODESIZE PUSH2 0x15A1 JUMP JUMPDEST PUSH2 0x188C SWAP2 POP DUP7 RETURNDATASIZE DUP9 GT PUSH2 0x1892 JUMPI JUMPDEST PUSH2 0x1884 DUP2 DUP4 PUSH2 0x45B JUMP JUMPDEST DUP2 ADD SWAP1 PUSH2 0x1466 JUMP JUMPDEST CODESIZE PUSH2 0x156F JUMP JUMPDEST POP RETURNDATASIZE PUSH2 0x187A JUMP JUMPDEST PUSH8 0xFFFFFFFFFFFFFFFF DUP2 GT PUSH2 0x47D JUMPI PUSH1 0x5 SHL PUSH1 0x20 ADD SWAP1 JUMP JUMPDEST DUP1 MLOAD DUP3 LT ISZERO PUSH2 0x1329 JUMPI PUSH1 0x20 SWAP2 PUSH1 0x5 SHL ADD ADD SWAP1 JUMP JUMPDEST DUP1 MLOAD PUSH2 0x18D0 DUP2 PUSH2 0x1899 JUMP JUMPDEST SWAP2 PUSH2 0x18DE PUSH1 0x40 MLOAD SWAP4 DUP5 PUSH2 0x45B JUMP JUMPDEST DUP2 DUP4 MSTORE PUSH1 0x1F NOT PUSH2 0x18ED DUP4 PUSH2 0x1899 JUMP JUMPDEST ADD PUSH1 0x0 JUMPDEST DUP2 DUP2 LT PUSH2 0x194A JUMPI POP POP PUSH1 0x0 JUMPDEST DUP3 DUP2 LT PUSH2 0x190A JUMPI POP POP POP SWAP1 JUMP JUMPDEST PUSH2 0x1945 SWAP1 PUSH2 0x192A PUSH1 0x1 PUSH1 0x1 PUSH1 0xA0 SHL SUB PUSH2 0x1923 DUP4 DUP7 PUSH2 0x18B1 JUMP JUMPDEST MLOAD AND PUSH2 0x1522 JUMP JUMPDEST PUSH2 0x1934 DUP3 DUP8 PUSH2 0x18B1 JUMP JUMPDEST MSTORE PUSH2 0x193F DUP2 DUP7 PUSH2 0x18B1 JUMP JUMPDEST POP PUSH2 0x1195 JUMP JUMPDEST PUSH2 0x18FD JUMP JUMPDEST PUSH1 0x20 SWAP1 PUSH2 0x1955 PUSH2 0x138A JUMP JUMPDEST DUP3 DUP3 DUP9 ADD ADD MSTORE ADD PUSH2 0x18F1 JUMP INVALID LOG2 PUSH5 0x6970667358 0x22 SLT KECCAK256 0xC 0x4E SWAP5 ADDMOD 0xB7 DUP6 PUSH17 0x2A4C89BBCAA3DB2A2CBE885657983EF63D RETURNDATASIZE ADDRESS PUSH21 0x6B0BC247764736F6C634300081300330000000000 "},"gasEstimates":{"creation":{"codeDepositCost":"1310200","executionCost":"51367","totalCost":"1361567"},"external":{"buildFeed()":"infinite","burnEnabled()":"2384","changeMultipleSettings(address,address,address,bytes32,address,address,address,address)":"infinite","contractCounter()":"2250","daiToken()":"2616","easContract()":"2660","easSchema()":"2306","getFeedInfo(address)":"infinite","getFeeds()":"infinite","getFeedsInfo()":"infinite","getFeedsInfoOwned(address)":"infinite","getFeedsOwned(address)":"infinite","getRouterFee(uint8)":"2813","isContractCreated(address)":"2818","isFeed(address)":"2884","major()":"2840","minor()":"2582","museToken()":"2836","owner()":"2484","patch()":"2340","renounceOwnership()":"28199","router()":"2877","setBurnEnabled(bool)":"26749","setFeedByteCode(bytes,uint8,uint8,uint8)":"infinite","setRouterFee(uint8,uint24)":"27204","transferOwnership(address)":"28699","treasuryContract()":"2308","wethToken()":"2374"},"internal":{"getCreationFee()":"infinite"}},"methodIdentifiers":{"buildFeed()":"ca5b4e5c","burnEnabled()":"5dc96d16","changeMultipleSettings(address,address,address,bytes32,address,address,address,address)":"9496d7f1","contractCounter()":"067bd3b4","daiToken()":"be22f546","easContract()":"cd77b52c","easSchema()":"3ec4f23d","getFeedInfo(address)":"d570a66d","getFeeds()":"7fe955d4","getFeedsInfo()":"e86ef353","getFeedsInfoOwned(address)":"ad861324","getFeedsOwned(address)":"b2a2e9ca","getRouterFee(uint8)":"d223a564","isContractCreated(address)":"cedf3ba2","isFeed(address)":"e58fdd04","major()":"f86d0b38","minor()":"bb834b0e","museToken()":"f77800e5","owner()":"8da5cb5b","patch()":"49975235","renounceOwnership()":"715018a6","router()":"f887ea40","setBurnEnabled(bool)":"7b2c835f","setFeedByteCode(bytes,uint8,uint8,uint8)":"9407aeea","setRouterFee(uint8,uint24)":"e9318b47","transferOwnership(address)":"f2fde38b","treasuryContract()":"18da0011","wethToken()":"4b57b0be"}},"storageLayout":{"storage":[{"astId":7,"contract":"contracts/factories/MecenateFeedFactory.sol:MecenateFeedFactory","label":"_owner","offset":0,"slot":"0","type":"t_address"},{"astId":2892,"contract":"contracts/factories/MecenateFeedFactory.sol:MecenateFeedFactory","label":"feeds","offset":0,"slot":"1","type":"t_struct(AddressSet)2078_storage"},{"astId":2895,"contract":"contracts/factories/MecenateFeedFactory.sol:MecenateFeedFactory","label":"settings","offset":0,"slot":"3","type":"t_struct(FactorySettings)3636_storage"},{"astId":2897,"contract":"contracts/factories/MecenateFeedFactory.sol:MecenateFeedFactory","label":"feedByteCode","offset":0,"slot":"11","type":"t_bytes_storage"},{"astId":2901,"contract":"contracts/factories/MecenateFeedFactory.sol:MecenateFeedFactory","label":"routerFee","offset":0,"slot":"12","type":"t_mapping(t_uint8,t_uint24)"},{"astId":2906,"contract":"contracts/factories/MecenateFeedFactory.sol:MecenateFeedFactory","label":"feedStore","offset":0,"slot":"13","type":"t_mapping(t_address,t_struct(AddressSet)2078_storage)"},{"astId":2910,"contract":"contracts/factories/MecenateFeedFactory.sol:MecenateFeedFactory","label":"createdContracts","offset":0,"slot":"14","type":"t_mapping(t_address,t_bool)"},{"astId":2913,"contract":"contracts/factories/MecenateFeedFactory.sol:MecenateFeedFactory","label":"burnEnabled","offset":0,"slot":"15","type":"t_bool"},{"astId":2915,"contract":"contracts/factories/MecenateFeedFactory.sol:MecenateFeedFactory","label":"contractCounter","offset":0,"slot":"16","type":"t_uint256"},{"astId":2921,"contract":"contracts/factories/MecenateFeedFactory.sol:MecenateFeedFactory","label":"major","offset":0,"slot":"17","type":"t_uint8"},{"astId":2923,"contract":"contracts/factories/MecenateFeedFactory.sol:MecenateFeedFactory","label":"minor","offset":1,"slot":"17","type":"t_uint8"},{"astId":2925,"contract":"contracts/factories/MecenateFeedFactory.sol:MecenateFeedFactory","label":"patch","offset":2,"slot":"17","type":"t_uint8"}],"types":{"t_address":{"encoding":"inplace","label":"address","numberOfBytes":"20"},"t_array(t_bytes32)dyn_storage":{"base":"t_bytes32","encoding":"dynamic_array","label":"bytes32[]","numberOfBytes":"32"},"t_bool":{"encoding":"inplace","label":"bool","numberOfBytes":"1"},"t_bytes32":{"encoding":"inplace","label":"bytes32","numberOfBytes":"32"},"t_bytes_storage":{"encoding":"bytes","label":"bytes","numberOfBytes":"32"},"t_mapping(t_address,t_bool)":{"encoding":"mapping","key":"t_address","label":"mapping(address => bool)","numberOfBytes":"32","value":"t_bool"},"t_mapping(t_address,t_struct(AddressSet)2078_storage)":{"encoding":"mapping","key":"t_address","label":"mapping(address => struct EnumerableSet.AddressSet)","numberOfBytes":"32","value":"t_struct(AddressSet)2078_storage"},"t_mapping(t_bytes32,t_uint256)":{"encoding":"mapping","key":"t_bytes32","label":"mapping(bytes32 => uint256)","numberOfBytes":"32","value":"t_uint256"},"t_mapping(t_uint8,t_uint24)":{"encoding":"mapping","key":"t_uint8","label":"mapping(uint8 => uint24)","numberOfBytes":"32","value":"t_uint24"},"t_struct(AddressSet)2078_storage":{"encoding":"inplace","label":"struct EnumerableSet.AddressSet","members":[{"astId":2077,"contract":"contracts/factories/MecenateFeedFactory.sol:MecenateFeedFactory","label":"_inner","offset":0,"slot":"0","type":"t_struct(Set)1763_storage"}],"numberOfBytes":"64"},"t_struct(FactorySettings)3636_storage":{"encoding":"inplace","label":"struct Structures.FactorySettings","members":[{"astId":3621,"contract":"contracts/factories/MecenateFeedFactory.sol:MecenateFeedFactory","label":"treasuryContract","offset":0,"slot":"0","type":"t_address"},{"astId":3623,"contract":"contracts/factories/MecenateFeedFactory.sol:MecenateFeedFactory","label":"usersModuleContract","offset":0,"slot":"1","type":"t_address"},{"astId":3625,"contract":"contracts/factories/MecenateFeedFactory.sol:MecenateFeedFactory","label":"easContract","offset":0,"slot":"2","type":"t_address"},{"astId":3627,"contract":"contracts/factories/MecenateFeedFactory.sol:MecenateFeedFactory","label":"easSchema","offset":0,"slot":"3","type":"t_bytes32"},{"astId":3629,"contract":"contracts/factories/MecenateFeedFactory.sol:MecenateFeedFactory","label":"museToken","offset":0,"slot":"4","type":"t_address"},{"astId":3631,"contract":"contracts/factories/MecenateFeedFactory.sol:MecenateFeedFactory","label":"daiToken","offset":0,"slot":"5","type":"t_address"},{"astId":3633,"contract":"contracts/factories/MecenateFeedFactory.sol:MecenateFeedFactory","label":"wethToken","offset":0,"slot":"6","type":"t_address"},{"astId":3635,"contract":"contracts/factories/MecenateFeedFactory.sol:MecenateFeedFactory","label":"router","offset":0,"slot":"7","type":"t_address"}],"numberOfBytes":"256"},"t_struct(Set)1763_storage":{"encoding":"inplace","label":"struct EnumerableSet.Set","members":[{"astId":1758,"contract":"contracts/factories/MecenateFeedFactory.sol:MecenateFeedFactory","label":"_values","offset":0,"slot":"0","type":"t_array(t_bytes32)dyn_storage"},{"astId":1762,"contract":"contracts/factories/MecenateFeedFactory.sol:MecenateFeedFactory","label":"_indexes","offset":0,"slot":"1","type":"t_mapping(t_bytes32,t_uint256)"}],"numberOfBytes":"64"},"t_uint24":{"encoding":"inplace","label":"uint24","numberOfBytes":"3"},"t_uint256":{"encoding":"inplace","label":"uint256","numberOfBytes":"32"},"t_uint8":{"encoding":"inplace","label":"uint8","numberOfBytes":"1"}}},"userdoc":{"kind":"user","methods":{},"version":1}}}}