{"contracts/MecenateTreasury.sol":{"MecenateTreasury":{"abi":[{"anonymous":false,"inputs":[{"indexed":true,"internalType":"address","name":"previousOwner","type":"address"},{"indexed":true,"internalType":"address","name":"newOwner","type":"address"}],"name":"OwnershipTransferred","type":"event"},{"inputs":[],"name":"addFunds","outputs":[],"stateMutability":"payable","type":"function"},{"inputs":[{"internalType":"address","name":"tokenA","type":"address"},{"internalType":"address","name":"tokenB","type":"address"},{"internalType":"uint24","name":"fee","type":"uint24"},{"internalType":"uint256","name":"amountA","type":"uint256"},{"internalType":"uint256","name":"amountB","type":"uint256"},{"internalType":"int24","name":"tickLower","type":"int24"},{"internalType":"int24","name":"tickUpper","type":"int24"}],"name":"addLiquidity","outputs":[],"stateMutability":"nonpayable","type":"function"},{"inputs":[{"internalType":"address","name":"_native","type":"address"},{"internalType":"contract ISwapRouter","name":"_swapRouter","type":"address"}],"name":"configLiquidityProvider","outputs":[],"stateMutability":"nonpayable","type":"function"},{"inputs":[{"internalType":"address","name":"_token","type":"address"},{"internalType":"uint256","name":"_amount","type":"uint256"}],"name":"customApprove","outputs":[],"stateMutability":"nonpayable","type":"function"},{"inputs":[],"name":"distributableBalance","outputs":[{"internalType":"uint256","name":"","type":"uint256"}],"stateMutability":"view","type":"function"},{"inputs":[{"internalType":"address","name":"_usersContract","type":"address"}],"name":"distribute","outputs":[],"stateMutability":"nonpayable","type":"function"},{"inputs":[],"name":"fixedFee","outputs":[{"internalType":"uint256","name":"","type":"uint256"}],"stateMutability":"view","type":"function"},{"inputs":[{"internalType":"address","name":"_verifierContract","type":"address"},{"internalType":"bytes32","name":"encryptedVaultId","type":"bytes32"}],"name":"getReward","outputs":[{"internalType":"uint256","name":"","type":"uint256"}],"stateMutability":"view","type":"function"},{"inputs":[],"name":"globalFee","outputs":[{"internalType":"uint256","name":"","type":"uint256"}],"stateMutability":"view","type":"function"},{"inputs":[],"name":"lastDistributed","outputs":[{"internalType":"uint256","name":"","type":"uint256"}],"stateMutability":"view","type":"function"},{"inputs":[],"name":"native","outputs":[{"internalType":"address","name":"","type":"address"}],"stateMutability":"view","type":"function"},{"inputs":[],"name":"owner","outputs":[{"internalType":"address","name":"","type":"address"}],"stateMutability":"view","type":"function"},{"inputs":[],"name":"ownerFee","outputs":[{"internalType":"uint256","name":"","type":"uint256"}],"stateMutability":"view","type":"function"},{"inputs":[],"name":"positionManager","outputs":[{"internalType":"contract INonfungiblePositionManager","name":"","type":"address"}],"stateMutability":"view","type":"function"},{"inputs":[],"name":"renounceOwnership","outputs":[],"stateMutability":"nonpayable","type":"function"},{"inputs":[{"internalType":"uint256","name":"_fixedFee","type":"uint256"}],"name":"setFixedFee","outputs":[],"stateMutability":"nonpayable","type":"function"},{"inputs":[{"internalType":"uint256","name":"_globalFee","type":"uint256"}],"name":"setGlobalFee","outputs":[],"stateMutability":"nonpayable","type":"function"},{"inputs":[{"internalType":"bool","name":"_splitLiquidity","type":"bool"}],"name":"setSplitLiqudity","outputs":[{"internalType":"bool","name":"","type":"bool"}],"stateMutability":"nonpayable","type":"function"},{"inputs":[{"internalType":"contract ISwapRouter","name":"_swapRouter","type":"address"}],"name":"setSwapRouter","outputs":[],"stateMutability":"nonpayable","type":"function"},{"inputs":[],"name":"splitLiquidity","outputs":[{"internalType":"bool","name":"","type":"bool"}],"stateMutability":"view","type":"function"},{"inputs":[{"internalType":"address","name":"_token0","type":"address"},{"internalType":"address","name":"_token1","type":"address"},{"internalType":"address","name":"_token2","type":"address"},{"internalType":"uint24","name":"_fee","type":"uint24"},{"internalType":"uint24","name":"_fee2","type":"uint24"}],"name":"swapAndBurn","outputs":[],"stateMutability":"nonpayable","type":"function"},{"inputs":[],"name":"swapRouter","outputs":[{"internalType":"contract ISwapRouter","name":"","type":"address"}],"stateMutability":"view","type":"function"},{"inputs":[{"internalType":"address","name":"token1","type":"address"},{"internalType":"address","name":"token2","type":"address"},{"internalType":"uint256","name":"amount","type":"uint256"},{"internalType":"uint24","name":"fee","type":"uint24"}],"name":"swapTokensForTokens","outputs":[{"internalType":"uint256","name":"","type":"uint256"}],"stateMutability":"nonpayable","type":"function"},{"inputs":[{"internalType":"address","name":"_receiver","type":"address"},{"internalType":"address","name":"_verifierContract","type":"address"},{"internalType":"bytes","name":"sismoConnectResponse","type":"bytes"},{"internalType":"address","name":"_to","type":"address"},{"internalType":"bytes32","name":"_nonce","type":"bytes32"}],"name":"takeReward","outputs":[{"internalType":"uint256","name":"","type":"uint256"}],"stateMutability":"nonpayable","type":"function"},{"inputs":[{"internalType":"address","name":"newOwner","type":"address"}],"name":"transferOwnership","outputs":[],"stateMutability":"nonpayable","type":"function"},{"inputs":[{"internalType":"bytes32","name":"","type":"bytes32"}],"name":"userReward","outputs":[{"internalType":"uint256","name":"","type":"uint256"}],"stateMutability":"view","type":"function"},{"inputs":[{"internalType":"address payable","name":"_to","type":"address"},{"internalType":"uint256","name":"_amount","type":"uint256"}],"name":"withdrawNative","outputs":[],"stateMutability":"nonpayable","type":"function"},{"inputs":[{"internalType":"address","name":"_token","type":"address"},{"internalType":"address","name":"_to","type":"address"},{"internalType":"uint256","name":"_amount","type":"uint256"}],"name":"withdrawTokens","outputs":[],"stateMutability":"nonpayable","type":"function"},{"stateMutability":"payable","type":"receive"}],"devdoc":{"kind":"dev","methods":{"owner()":{"details":"Returns the address of the current owner."},"renounceOwnership()":{"details":"Leaves the contract without owner. It will not be possible to call `onlyOwner` functions. Can only be called by the current owner. NOTE: Renouncing ownership will leave the contract without an owner, thereby disabling any functionality that is only available to the owner."},"transferOwnership(address)":{"details":"Transfers ownership of the contract to a new account (`newOwner`). Can only be called by the current owner."}},"version":1},"evm":{"bytecode":{"linkReferences":{},"object":"6080806040523461006b5760008054336001600160a01b0319821681178355916001600160a01b03909116907f8be0079c531659141344cd1fd0a4f28419497f9722a3daafe3b4186f6b6457e09080a36064600455662386f26fc10000600555611c8d90816100718239f35b600080fdfe608080604052600436101561002c575b50361561001b57600080fd5b610027346007546117db565b600755005b60003560e01c90816305f6059d146116665750806307b18bde1461160957806311b0b42d146115d55780631fce07d5146115b7578063291206f61461159657806337d8af2b1461137957806337de81061461135857806341273657146112f35780635e35359e1461113b57806363453ae114610e2f5780636962a86314610b825780636c8d424f14610b4d578063715018a614610acf5780637450bce914610ab1578063791b98bc14610a7d578063808fc20614610a5f57806385258b4b146109545780638da5cb5b146109205780638f3a899a146108aa57806391792d5b1461088c578063a26759cb14610874578063afbce84e146104f9578063b51ed1f4146104cd578063c31c9c0714610499578063d5b2a01a1461047b578063e2662943146102d1578063f2fde38b146101ba5763fc99d28f1461016d573861000f565b346101b55760806003193601126101b55760206101ad61018b611689565b6101936116ac565b61019b61174a565b906101a461175c565b60443592611a1d565b604051908152f35b600080fd5b346101b55760206003193601126101b5576101d3611689565b6101db61175c565b73ffffffffffffffffffffffffffffffffffffffff80911690811561024d57600054827fffffffffffffffffffffffff0000000000000000000000000000000000000000821617600055167f8be0079c531659141344cd1fd0a4f28419497f9722a3daafe3b4186f6b6457e0600080a3005b60846040517f08c379a000000000000000000000000000000000000000000000000000000000815260206004820152602660248201527f4f776e61626c653a206e6577206f776e657220697320746865207a65726f206160448201527f64647265737300000000000000000000000000000000000000000000000000006064820152fd5b346101b55760406003193601126101b55760006102ec611689565b6102f46116ac565b6102fc61175c565b73ffffffffffffffffffffffffffffffffffffffff80921690827fffffffffffffffffffffffff000000000000000000000000000000000000000091838360035416176003551680916001541617600155740100000000000000000000000000000000000000007fffffffffffffffffffffff00ffffffffffffffffffffffffffffffffffffffff855416178455604051917f095ea7b3000000000000000000000000000000000000000000000000000000009182845260048401528460248401528260448160209788945af191821561045257849261045e575b506044836003541693600154169160006040519586948593845260048401527fffffffffffffffffffffffffffffffffffffffffffffffffffffffffffffffff60248401525af180156104525761042a57005b8161044992903d1061044b575b61044181836116cf565b8101906117e8565b005b503d610437565b6040513d6000823e3d90fd5b61047490833d851161044b5761044181836116cf565b50846103d7565b346101b55760006003193601126101b5576020600854604051908152f35b346101b55760006003193601126101b557602073ffffffffffffffffffffffffffffffffffffffff60015416604051908152f35b346101b55760206003193601126101b55760043560005260096020526020604060002054604051908152f35b346101b55760e06003193601126101b557610512611689565b61051a6116ac565b6044359062ffffff82168092036101b55760a4358060020b8091036101b55760c435918260020b8093036101b5576105b19061055461175c565b6002546040517f095ea7b300000000000000000000000000000000000000000000000000000000815273ffffffffffffffffffffffffffffffffffffffff9182166004820152606435602482015292602091849182906044820190565b039816978160008a5af19182156104525773ffffffffffffffffffffffffffffffffffffffff92610855575b506002546040517f095ea7b300000000000000000000000000000000000000000000000000000000815273ffffffffffffffffffffffffffffffffffffffff909116600482015260843560248201819052959291909116906020816044816000865af1801561045257610836575b5060405195610160870187811067ffffffffffffffff821117610807576040528652602086015260408501526060840152608083015260643560a083015260c0820152600060e082015260006101008201523061012082015242610140820152608061014061016473ffffffffffffffffffffffffffffffffffffffff6002541693600060405195869485937f8831645600000000000000000000000000000000000000000000000000000000855273ffffffffffffffffffffffffffffffffffffffff815116600486015273ffffffffffffffffffffffffffffffffffffffff602082015116602486015262ffffff6040820151166044860152606081015160020b60648601528781015160020b608486015260a081015160a486015260c081015160c486015260e081015160e486015261010081015161010486015273ffffffffffffffffffffffffffffffffffffffff6101208201511661012486015201516101448401525af18015610452576107c157005b6080813d82116107ff575b816107d9608093836116cf565b810103126101b557602001516fffffffffffffffffffffffffffffffff8116036101b557005b3d91506107cc565b7f4e487b7100000000000000000000000000000000000000000000000000000000600052604160045260246000fd5b61084e9060203d60201161044b5761044181836116cf565b508661064b565b61086d9060203d60201161044b5761044181836116cf565b50866105dd565b60006003193601126101b557610027346007546117db565b346101b55760006003193601126101b5576020600554604051908152f35b346101b55760206003193601126101b5576004358015158091036101b5576108d061175c565b7fffffffffffffffffffffff00ffffffffffffffffffffffffffffffffffffffff74ff00000000000000000000000000000000000000006000549260a01b16911617600055602060405160018152f35b346101b55760006003193601126101b557602073ffffffffffffffffffffffffffffffffffffffff60005416604051908152f35b346101b55760406003193601126101b5576109df610970611689565b61097861175c565b6001546040517f095ea7b30000000000000000000000000000000000000000000000000000000080825273ffffffffffffffffffffffffffffffffffffffff9283166004830152602480359083015260209493831693919290918590849081906044820190565b03816000885af1908115610452578593604492610a42575b50600154169160006040519586948593845260048401527fffffffffffffffffffffffffffffffffffffffffffffffffffffffffffffffff60248401525af180156104525761042a57005b610a5890853d871161044b5761044181836116cf565b50866109f7565b346101b55760006003193601126101b5576020600454604051908152f35b346101b55760006003193601126101b557602073ffffffffffffffffffffffffffffffffffffffff60025416604051908152f35b346101b55760006003193601126101b5576020600754604051908152f35b346101b55760006003193601126101b557610ae861175c565b600073ffffffffffffffffffffffffffffffffffffffff81547fffffffffffffffffffffffff000000000000000000000000000000000000000081168355167f8be0079c531659141344cd1fd0a4f28419497f9722a3daafe3b4186f6b6457e08280a3005b346101b55760406003193601126101b557610b66611689565b5060243560005260096020526020604060002054604051908152f35b346101b55760a06003193601126101b557610b9b611689565b610ba36116ac565b6044359073ffffffffffffffffffffffffffffffffffffffff808316908184036101b557610bcf61174a565b946084359162ffffff831683036101b557610be861175c565b8082166040517f70a082310000000000000000000000000000000000000000000000000000000081523060048201526020988982602481865afa91821561045257600092610e00575b508360015416948a604051809581600081610c97897f095ea7b3000000000000000000000000000000000000000000000000000000009d8e8452600484016020909392919373ffffffffffffffffffffffffffffffffffffffff60408201951681520152565b03925af190811561045257610cbb8a92610cc0968e600092610de3575b50506119b8565b611a1d565b918215610d8557600154604051918252821673ffffffffffffffffffffffffffffffffffffffff166004820152602481018390529291908790849060449082906000908a165af1918215610452576000968896610cbb610d2a956024978b91610d68575b506119b8565b60405194859384927f42966c6800000000000000000000000000000000000000000000000000000000845260048401525af180156104525761042a57005b610d7f91508a3d8c1161044b5761044181836116cf565b8c610d24565b606488604051907f08c379a00000000000000000000000000000000000000000000000000000000082526004820152601060248201527f4e6f20746f6b656e7320626f75676874000000000000000000000000000000006044820152fd5b610df99250803d1061044b5761044181836116cf565b8e8e610cb4565b9091508981813d8311610e28575b610e1881836116cf565b810103126101b55751908a610c31565b503d610e0e565b346101b5576020806003193601126101b557610e49611689565b9062015180610e5a60065442611966565b106110dd57600754801561107f576004548082029082820403610f965773ffffffffffffffffffffffffffffffffffffffff91612710610eaa920490610ea2826008546117db565b600855611966565b9216604051927fb5cb15f70000000000000000000000000000000000000000000000000000000084528284600481855afa93841561045257600094611050575b508315610ff2578390049160005b848110610f0a57426006556000600755005b6040517f5b5cf50a0000000000000000000000000000000000000000000000000000000081528160048201528281602481875afa90811561045257600091610fc5575b50600052600982526040600020610f658582546117db565b90557fffffffffffffffffffffffffffffffffffffffffffffffffffffffffffffffff8114610f9657600101610ef8565b7f4e487b7100000000000000000000000000000000000000000000000000000000600052601160045260246000fd5b90508281813d8311610feb575b610fdc81836116cf565b810103126101b5575186610f4d565b503d610fd2565b606483604051907f08c379a00000000000000000000000000000000000000000000000000000000082526004820152601960248201527f4e6f20757365727320746f206469737472696275746520746f000000000000006044820152fd5b9093508281813d8311611078575b61106881836116cf565b810103126101b557519284610eea565b503d61105e565b606482604051907f08c379a00000000000000000000000000000000000000000000000000000000082526004820152601860248201527f4e6f2064697374726962757461626c652062616c616e636500000000000000006044820152fd5b606490604051907f08c379a00000000000000000000000000000000000000000000000000000000082526004820152601e60248201527f43616e206f6e6c792064697374726962757465206f6e636520612064617900006044820152fd5b346101b55760606003193601126101b557611154611689565b73ffffffffffffffffffffffffffffffffffffffff6111716116ac565b9161117a61175c565b6040517fa9059cbb00000000000000000000000000000000000000000000000000000000602080830191825273ffffffffffffffffffffffffffffffffffffffff95909516602483015260448035818401528252929091166111dd6064836116cf565b604051916040830183811067ffffffffffffffff821117610807576040528483527f5361666545524332303a206c6f772d6c6576656c2063616c6c206661696c6564838601525161123f93600091829182855af1611239611800565b91611830565b8051908282159283156112db575b5050501561125757005b608490604051907f08c379a00000000000000000000000000000000000000000000000000000000082526004820152602a60248201527f5361666545524332303a204552433230206f7065726174696f6e20646964206e60448201527f6f742073756363656564000000000000000000000000000000000000000000006064820152fd5b6112eb93508201810191016117e8565b82828161124d565b346101b55760206003193601126101b55773ffffffffffffffffffffffffffffffffffffffff611321611689565b61132961175c565b167fffffffffffffffffffffffff00000000000000000000000000000000000000006001541617600155600080f35b346101b55760206003193601126101b55761137161175c565b600435600555005b346101b55760a06003193601126101b557611392611689565b5061139b6116ac565b67ffffffffffffffff6044358181116101b557366023820112156101b5578060040135926113c884611710565b906113d660405192836116cf565b8482526020948583019336602483830101116101b5578160009260248993018737840101526064359073ffffffffffffffffffffffffffffffffffffffff948583168093036101b557600086936084359360405180968180947f7276069d00000000000000000000000000000000000000000000000000000000825260606004830152611466606483018c611923565b9060248301528860448301520392165afa90811561045257600093600092611543575b50506040818051810103126101b557868101519586168096036101b55760400151036114e557849360009384938387869551910120845260098752604084209081549687925551925af1506114dc611800565b50604051908152f35b606485604051907f08c379a00000000000000000000000000000000000000000000000000000000082526004820152600e60248201527f4e6f742053616d65204e6f6e63650000000000000000000000000000000000006044820152fd5b915092503d806000833e61155781836116cf565b81016080828203126101b55781518481116101b55781611578918401611973565b9360608301519081116101b55761158f9201611973565b8780611489565b346101b55760206003193601126101b5576115af61175c565b600480359055005b346101b55760006003193601126101b5576020600654604051908152f35b346101b55760006003193601126101b557602073ffffffffffffffffffffffffffffffffffffffff60035416604051908152f35b346101b55760406003193601126101b55760043573ffffffffffffffffffffffffffffffffffffffff81168091036101b5576000808080936024359061164d61175c565b82821561165d575bf11561045257005b506108fc611655565b346101b55760006003193601126101b55760209060ff60005460a01c1615158152f35b6004359073ffffffffffffffffffffffffffffffffffffffff821682036101b557565b6024359073ffffffffffffffffffffffffffffffffffffffff821682036101b557565b90601f7fffffffffffffffffffffffffffffffffffffffffffffffffffffffffffffffe0910116810190811067ffffffffffffffff82111761080757604052565b67ffffffffffffffff811161080757601f017fffffffffffffffffffffffffffffffffffffffffffffffffffffffffffffffe01660200190565b6064359062ffffff821682036101b557565b73ffffffffffffffffffffffffffffffffffffffff60005416330361177d57565b60646040517f08c379a000000000000000000000000000000000000000000000000000000000815260206004820152602060248201527f4f776e61626c653a2063616c6c6572206973206e6f7420746865206f776e65726044820152fd5b91908201809211610f9657565b908160209103126101b5575180151581036101b55790565b3d1561182b573d9061181182611710565b9161181f60405193846116cf565b82523d6000602084013e565b606090565b919290156118ab5750815115611844575090565b3b1561184d5790565b60646040517f08c379a000000000000000000000000000000000000000000000000000000000815260206004820152601d60248201527f416464726573733a2063616c6c20746f206e6f6e2d636f6e74726163740000006044820152fd5b8251909150156118be5750805190602001fd5b6118fc906040519182917f08c379a0000000000000000000000000000000000000000000000000000000008352602060048401526024830190611923565b0390fd5b60005b8381106119135750506000910152565b8181015183820152602001611903565b907fffffffffffffffffffffffffffffffffffffffffffffffffffffffffffffffe0601f60209361195f81518092818752878088019101611900565b0116010190565b91908203918211610f9657565b81601f820112156101b557805161198981611710565b9261199760405194856116cf565b818452602082840101116101b5576119b59160208085019101611900565b90565b156119bf57565b60646040517f08c379a000000000000000000000000000000000000000000000000000000000815260206004820152600e60248201527f417070726f7665206661696c65640000000000000000000000000000000000006044820152fd5b600154604080517f095ea7b300000000000000000000000000000000000000000000000000000000815273ffffffffffffffffffffffffffffffffffffffff92831660048201526024810187905290959290911691906020816044816000875af18015611c4c57611c2d575b50600a4201804211610f9657855192610100840184811067ffffffffffffffff8211176108075787528352602083019373ffffffffffffffffffffffffffffffffffffffff1684528583019462ffffff16855260608301913083526080840191825260a0840190815260c08401906000825260e08501926000845260015473ffffffffffffffffffffffffffffffffffffffff1694895198899889987f414bf389000000000000000000000000000000000000000000000000000000008a525173ffffffffffffffffffffffffffffffffffffffff1660048a01525173ffffffffffffffffffffffffffffffffffffffff1660248901525162ffffff1660448801525173ffffffffffffffffffffffffffffffffffffffff1660648701525160848601525160a48501525160c48401525173ffffffffffffffffffffffffffffffffffffffff1660e48301525a92600061010492602095f1918215611c235750600091611bf4575090565b90506020813d602011611c1b575b81611c0f602093836116cf565b810103126101b5575190565b3d9150611c02565b513d6000823e3d90fd5b611c459060203d60201161044b5761044181836116cf565b5038611a89565b86513d6000823e3d90fdfea2646970667358221220d010b79f34f74b06ecc2dc4b6f953e4ef5c1f4dd194c7d903e06b0aac1727bad64736f6c63430008130033","opcodes":"PUSH1 0x80 DUP1 PUSH1 0x40 MSTORE CALLVALUE PUSH2 0x6B JUMPI PUSH1 0x0 DUP1 SLOAD CALLER PUSH1 0x1 PUSH1 0x1 PUSH1 0xA0 SHL SUB NOT DUP3 AND DUP2 OR DUP4 SSTORE SWAP2 PUSH1 0x1 PUSH1 0x1 PUSH1 0xA0 SHL SUB SWAP1 SWAP2 AND SWAP1 PUSH32 0x8BE0079C531659141344CD1FD0A4F28419497F9722A3DAAFE3B4186F6B6457E0 SWAP1 DUP1 LOG3 PUSH1 0x64 PUSH1 0x4 SSTORE PUSH7 0x2386F26FC10000 PUSH1 0x5 SSTORE PUSH2 0x1C8D SWAP1 DUP2 PUSH2 0x71 DUP3 CODECOPY RETURN JUMPDEST PUSH1 0x0 DUP1 REVERT INVALID PUSH1 0x80 DUP1 PUSH1 0x40 MSTORE PUSH1 0x4 CALLDATASIZE LT ISZERO PUSH2 0x2C JUMPI JUMPDEST POP CALLDATASIZE ISZERO PUSH2 0x1B JUMPI PUSH1 0x0 DUP1 REVERT JUMPDEST PUSH2 0x27 CALLVALUE PUSH1 0x7 SLOAD PUSH2 0x17DB JUMP JUMPDEST PUSH1 0x7 SSTORE STOP JUMPDEST PUSH1 0x0 CALLDATALOAD PUSH1 0xE0 SHR SWAP1 DUP2 PUSH4 0x5F6059D EQ PUSH2 0x1666 JUMPI POP DUP1 PUSH4 0x7B18BDE EQ PUSH2 0x1609 JUMPI DUP1 PUSH4 0x11B0B42D EQ PUSH2 0x15D5 JUMPI DUP1 PUSH4 0x1FCE07D5 EQ PUSH2 0x15B7 JUMPI DUP1 PUSH4 0x291206F6 EQ PUSH2 0x1596 JUMPI DUP1 PUSH4 0x37D8AF2B EQ PUSH2 0x1379 JUMPI DUP1 PUSH4 0x37DE8106 EQ PUSH2 0x1358 JUMPI DUP1 PUSH4 0x41273657 EQ PUSH2 0x12F3 JUMPI DUP1 PUSH4 0x5E35359E EQ PUSH2 0x113B JUMPI DUP1 PUSH4 0x63453AE1 EQ PUSH2 0xE2F JUMPI DUP1 PUSH4 0x6962A863 EQ PUSH2 0xB82 JUMPI DUP1 PUSH4 0x6C8D424F EQ PUSH2 0xB4D JUMPI DUP1 PUSH4 0x715018A6 EQ PUSH2 0xACF JUMPI DUP1 PUSH4 0x7450BCE9 EQ PUSH2 0xAB1 JUMPI DUP1 PUSH4 0x791B98BC EQ PUSH2 0xA7D JUMPI DUP1 PUSH4 0x808FC206 EQ PUSH2 0xA5F JUMPI DUP1 PUSH4 0x85258B4B EQ PUSH2 0x954 JUMPI DUP1 PUSH4 0x8DA5CB5B EQ PUSH2 0x920 JUMPI DUP1 PUSH4 0x8F3A899A EQ PUSH2 0x8AA JUMPI DUP1 PUSH4 0x91792D5B EQ PUSH2 0x88C JUMPI DUP1 PUSH4 0xA26759CB EQ PUSH2 0x874 JUMPI DUP1 PUSH4 0xAFBCE84E EQ PUSH2 0x4F9 JUMPI DUP1 PUSH4 0xB51ED1F4 EQ PUSH2 0x4CD JUMPI DUP1 PUSH4 0xC31C9C07 EQ PUSH2 0x499 JUMPI DUP1 PUSH4 0xD5B2A01A EQ PUSH2 0x47B JUMPI DUP1 PUSH4 0xE2662943 EQ PUSH2 0x2D1 JUMPI DUP1 PUSH4 0xF2FDE38B EQ PUSH2 0x1BA JUMPI PUSH4 0xFC99D28F EQ PUSH2 0x16D JUMPI CODESIZE PUSH2 0xF JUMP JUMPDEST CALLVALUE PUSH2 0x1B5 JUMPI PUSH1 0x80 PUSH1 0x3 NOT CALLDATASIZE ADD SLT PUSH2 0x1B5 JUMPI PUSH1 0x20 PUSH2 0x1AD PUSH2 0x18B PUSH2 0x1689 JUMP JUMPDEST PUSH2 0x193 PUSH2 0x16AC JUMP JUMPDEST PUSH2 0x19B PUSH2 0x174A JUMP JUMPDEST SWAP1 PUSH2 0x1A4 PUSH2 0x175C JUMP JUMPDEST PUSH1 0x44 CALLDATALOAD SWAP3 PUSH2 0x1A1D JUMP JUMPDEST PUSH1 0x40 MLOAD SWAP1 DUP2 MSTORE RETURN JUMPDEST PUSH1 0x0 DUP1 REVERT JUMPDEST CALLVALUE PUSH2 0x1B5 JUMPI PUSH1 0x20 PUSH1 0x3 NOT CALLDATASIZE ADD SLT PUSH2 0x1B5 JUMPI PUSH2 0x1D3 PUSH2 0x1689 JUMP JUMPDEST PUSH2 0x1DB PUSH2 0x175C JUMP JUMPDEST PUSH20 0xFFFFFFFFFFFFFFFFFFFFFFFFFFFFFFFFFFFFFFFF DUP1 SWAP2 AND SWAP1 DUP2 ISZERO PUSH2 0x24D JUMPI PUSH1 0x0 SLOAD DUP3 PUSH32 0xFFFFFFFFFFFFFFFFFFFFFFFF0000000000000000000000000000000000000000 DUP3 AND OR PUSH1 0x0 SSTORE AND PUSH32 0x8BE0079C531659141344CD1FD0A4F28419497F9722A3DAAFE3B4186F6B6457E0 PUSH1 0x0 DUP1 LOG3 STOP JUMPDEST PUSH1 0x84 PUSH1 0x40 MLOAD PUSH32 0x8C379A000000000000000000000000000000000000000000000000000000000 DUP2 MSTORE PUSH1 0x20 PUSH1 0x4 DUP3 ADD MSTORE PUSH1 0x26 PUSH1 0x24 DUP3 ADD MSTORE PUSH32 0x4F776E61626C653A206E6577206F776E657220697320746865207A65726F2061 PUSH1 0x44 DUP3 ADD MSTORE PUSH32 0x6464726573730000000000000000000000000000000000000000000000000000 PUSH1 0x64 DUP3 ADD MSTORE REVERT JUMPDEST CALLVALUE PUSH2 0x1B5 JUMPI PUSH1 0x40 PUSH1 0x3 NOT CALLDATASIZE ADD SLT PUSH2 0x1B5 JUMPI PUSH1 0x0 PUSH2 0x2EC PUSH2 0x1689 JUMP JUMPDEST PUSH2 0x2F4 PUSH2 0x16AC JUMP JUMPDEST PUSH2 0x2FC PUSH2 0x175C JUMP JUMPDEST PUSH20 0xFFFFFFFFFFFFFFFFFFFFFFFFFFFFFFFFFFFFFFFF DUP1 SWAP3 AND SWAP1 DUP3 PUSH32 0xFFFFFFFFFFFFFFFFFFFFFFFF0000000000000000000000000000000000000000 SWAP2 DUP4 DUP4 PUSH1 0x3 SLOAD AND OR PUSH1 0x3 SSTORE AND DUP1 SWAP2 PUSH1 0x1 SLOAD AND OR PUSH1 0x1 SSTORE PUSH21 0x10000000000000000000000000000000000000000 PUSH32 0xFFFFFFFFFFFFFFFFFFFFFF00FFFFFFFFFFFFFFFFFFFFFFFFFFFFFFFFFFFFFFFF DUP6 SLOAD AND OR DUP5 SSTORE PUSH1 0x40 MLOAD SWAP2 PUSH32 0x95EA7B300000000000000000000000000000000000000000000000000000000 SWAP2 DUP3 DUP5 MSTORE PUSH1 0x4 DUP5 ADD MSTORE DUP5 PUSH1 0x24 DUP5 ADD MSTORE DUP3 PUSH1 0x44 DUP2 PUSH1 0x20 SWAP8 DUP9 SWAP5 GAS CALL SWAP2 DUP3 ISZERO PUSH2 0x452 JUMPI DUP5 SWAP3 PUSH2 0x45E JUMPI JUMPDEST POP PUSH1 0x44 DUP4 PUSH1 0x3 SLOAD AND SWAP4 PUSH1 0x1 SLOAD AND SWAP2 PUSH1 0x0 PUSH1 0x40 MLOAD SWAP6 DUP7 SWAP5 DUP6 SWAP4 DUP5 MSTORE PUSH1 0x4 DUP5 ADD MSTORE PUSH32 0xFFFFFFFFFFFFFFFFFFFFFFFFFFFFFFFFFFFFFFFFFFFFFFFFFFFFFFFFFFFFFFFF PUSH1 0x24 DUP5 ADD MSTORE GAS CALL DUP1 ISZERO PUSH2 0x452 JUMPI PUSH2 0x42A JUMPI STOP JUMPDEST DUP2 PUSH2 0x449 SWAP3 SWAP1 RETURNDATASIZE LT PUSH2 0x44B JUMPI JUMPDEST PUSH2 0x441 DUP2 DUP4 PUSH2 0x16CF JUMP JUMPDEST DUP2 ADD SWAP1 PUSH2 0x17E8 JUMP JUMPDEST STOP JUMPDEST POP RETURNDATASIZE PUSH2 0x437 JUMP JUMPDEST PUSH1 0x40 MLOAD RETURNDATASIZE PUSH1 0x0 DUP3 RETURNDATACOPY RETURNDATASIZE SWAP1 REVERT JUMPDEST PUSH2 0x474 SWAP1 DUP4 RETURNDATASIZE DUP6 GT PUSH2 0x44B JUMPI PUSH2 0x441 DUP2 DUP4 PUSH2 0x16CF JUMP JUMPDEST POP DUP5 PUSH2 0x3D7 JUMP JUMPDEST CALLVALUE PUSH2 0x1B5 JUMPI PUSH1 0x0 PUSH1 0x3 NOT CALLDATASIZE ADD SLT PUSH2 0x1B5 JUMPI PUSH1 0x20 PUSH1 0x8 SLOAD PUSH1 0x40 MLOAD SWAP1 DUP2 MSTORE RETURN JUMPDEST CALLVALUE PUSH2 0x1B5 JUMPI PUSH1 0x0 PUSH1 0x3 NOT CALLDATASIZE ADD SLT PUSH2 0x1B5 JUMPI PUSH1 0x20 PUSH20 0xFFFFFFFFFFFFFFFFFFFFFFFFFFFFFFFFFFFFFFFF PUSH1 0x1 SLOAD AND PUSH1 0x40 MLOAD SWAP1 DUP2 MSTORE RETURN JUMPDEST CALLVALUE PUSH2 0x1B5 JUMPI PUSH1 0x20 PUSH1 0x3 NOT CALLDATASIZE ADD SLT PUSH2 0x1B5 JUMPI PUSH1 0x4 CALLDATALOAD PUSH1 0x0 MSTORE PUSH1 0x9 PUSH1 0x20 MSTORE PUSH1 0x20 PUSH1 0x40 PUSH1 0x0 KECCAK256 SLOAD PUSH1 0x40 MLOAD SWAP1 DUP2 MSTORE RETURN JUMPDEST CALLVALUE PUSH2 0x1B5 JUMPI PUSH1 0xE0 PUSH1 0x3 NOT CALLDATASIZE ADD SLT PUSH2 0x1B5 JUMPI PUSH2 0x512 PUSH2 0x1689 JUMP JUMPDEST PUSH2 0x51A PUSH2 0x16AC JUMP JUMPDEST PUSH1 0x44 CALLDATALOAD SWAP1 PUSH3 0xFFFFFF DUP3 AND DUP1 SWAP3 SUB PUSH2 0x1B5 JUMPI PUSH1 0xA4 CALLDATALOAD DUP1 PUSH1 0x2 SIGNEXTEND DUP1 SWAP2 SUB PUSH2 0x1B5 JUMPI PUSH1 0xC4 CALLDATALOAD SWAP2 DUP3 PUSH1 0x2 SIGNEXTEND DUP1 SWAP4 SUB PUSH2 0x1B5 JUMPI PUSH2 0x5B1 SWAP1 PUSH2 0x554 PUSH2 0x175C JUMP JUMPDEST PUSH1 0x2 SLOAD PUSH1 0x40 MLOAD PUSH32 0x95EA7B300000000000000000000000000000000000000000000000000000000 DUP2 MSTORE PUSH20 0xFFFFFFFFFFFFFFFFFFFFFFFFFFFFFFFFFFFFFFFF SWAP2 DUP3 AND PUSH1 0x4 DUP3 ADD MSTORE PUSH1 0x64 CALLDATALOAD PUSH1 0x24 DUP3 ADD MSTORE SWAP3 PUSH1 0x20 SWAP2 DUP5 SWAP2 DUP3 SWAP1 PUSH1 0x44 DUP3 ADD SWAP1 JUMP JUMPDEST SUB SWAP9 AND SWAP8 DUP2 PUSH1 0x0 DUP11 GAS CALL SWAP2 DUP3 ISZERO PUSH2 0x452 JUMPI PUSH20 0xFFFFFFFFFFFFFFFFFFFFFFFFFFFFFFFFFFFFFFFF SWAP3 PUSH2 0x855 JUMPI JUMPDEST POP PUSH1 0x2 SLOAD PUSH1 0x40 MLOAD PUSH32 0x95EA7B300000000000000000000000000000000000000000000000000000000 DUP2 MSTORE PUSH20 0xFFFFFFFFFFFFFFFFFFFFFFFFFFFFFFFFFFFFFFFF SWAP1 SWAP2 AND PUSH1 0x4 DUP3 ADD MSTORE PUSH1 0x84 CALLDATALOAD PUSH1 0x24 DUP3 ADD DUP2 SWAP1 MSTORE SWAP6 SWAP3 SWAP2 SWAP1 SWAP2 AND SWAP1 PUSH1 0x20 DUP2 PUSH1 0x44 DUP2 PUSH1 0x0 DUP7 GAS CALL DUP1 ISZERO PUSH2 0x452 JUMPI PUSH2 0x836 JUMPI JUMPDEST POP PUSH1 0x40 MLOAD SWAP6 PUSH2 0x160 DUP8 ADD DUP8 DUP2 LT PUSH8 0xFFFFFFFFFFFFFFFF DUP3 GT OR PUSH2 0x807 JUMPI PUSH1 0x40 MSTORE DUP7 MSTORE PUSH1 0x20 DUP7 ADD MSTORE PUSH1 0x40 DUP6 ADD MSTORE PUSH1 0x60 DUP5 ADD MSTORE PUSH1 0x80 DUP4 ADD MSTORE PUSH1 0x64 CALLDATALOAD PUSH1 0xA0 DUP4 ADD MSTORE PUSH1 0xC0 DUP3 ADD MSTORE PUSH1 0x0 PUSH1 0xE0 DUP3 ADD MSTORE PUSH1 0x0 PUSH2 0x100 DUP3 ADD MSTORE ADDRESS PUSH2 0x120 DUP3 ADD MSTORE TIMESTAMP PUSH2 0x140 DUP3 ADD MSTORE PUSH1 0x80 PUSH2 0x140 PUSH2 0x164 PUSH20 0xFFFFFFFFFFFFFFFFFFFFFFFFFFFFFFFFFFFFFFFF PUSH1 0x2 SLOAD AND SWAP4 PUSH1 0x0 PUSH1 0x40 MLOAD SWAP6 DUP7 SWAP5 DUP6 SWAP4 PUSH32 0x8831645600000000000000000000000000000000000000000000000000000000 DUP6 MSTORE PUSH20 0xFFFFFFFFFFFFFFFFFFFFFFFFFFFFFFFFFFFFFFFF DUP2 MLOAD AND PUSH1 0x4 DUP7 ADD MSTORE PUSH20 0xFFFFFFFFFFFFFFFFFFFFFFFFFFFFFFFFFFFFFFFF PUSH1 0x20 DUP3 ADD MLOAD AND PUSH1 0x24 DUP7 ADD MSTORE PUSH3 0xFFFFFF PUSH1 0x40 DUP3 ADD MLOAD AND PUSH1 0x44 DUP7 ADD MSTORE PUSH1 0x60 DUP2 ADD MLOAD PUSH1 0x2 SIGNEXTEND PUSH1 0x64 DUP7 ADD MSTORE DUP8 DUP2 ADD MLOAD PUSH1 0x2 SIGNEXTEND PUSH1 0x84 DUP7 ADD MSTORE PUSH1 0xA0 DUP2 ADD MLOAD PUSH1 0xA4 DUP7 ADD MSTORE PUSH1 0xC0 DUP2 ADD MLOAD PUSH1 0xC4 DUP7 ADD MSTORE PUSH1 0xE0 DUP2 ADD MLOAD PUSH1 0xE4 DUP7 ADD MSTORE PUSH2 0x100 DUP2 ADD MLOAD PUSH2 0x104 DUP7 ADD MSTORE PUSH20 0xFFFFFFFFFFFFFFFFFFFFFFFFFFFFFFFFFFFFFFFF PUSH2 0x120 DUP3 ADD MLOAD AND PUSH2 0x124 DUP7 ADD MSTORE ADD MLOAD PUSH2 0x144 DUP5 ADD MSTORE GAS CALL DUP1 ISZERO PUSH2 0x452 JUMPI PUSH2 0x7C1 JUMPI STOP JUMPDEST PUSH1 0x80 DUP2 RETURNDATASIZE DUP3 GT PUSH2 0x7FF JUMPI JUMPDEST DUP2 PUSH2 0x7D9 PUSH1 0x80 SWAP4 DUP4 PUSH2 0x16CF JUMP JUMPDEST DUP2 ADD SUB SLT PUSH2 0x1B5 JUMPI PUSH1 0x20 ADD MLOAD PUSH16 0xFFFFFFFFFFFFFFFFFFFFFFFFFFFFFFFF DUP2 AND SUB PUSH2 0x1B5 JUMPI STOP JUMPDEST RETURNDATASIZE SWAP2 POP PUSH2 0x7CC JUMP JUMPDEST PUSH32 0x4E487B7100000000000000000000000000000000000000000000000000000000 PUSH1 0x0 MSTORE PUSH1 0x41 PUSH1 0x4 MSTORE PUSH1 0x24 PUSH1 0x0 REVERT JUMPDEST PUSH2 0x84E SWAP1 PUSH1 0x20 RETURNDATASIZE PUSH1 0x20 GT PUSH2 0x44B JUMPI PUSH2 0x441 DUP2 DUP4 PUSH2 0x16CF JUMP JUMPDEST POP DUP7 PUSH2 0x64B JUMP JUMPDEST PUSH2 0x86D SWAP1 PUSH1 0x20 RETURNDATASIZE PUSH1 0x20 GT PUSH2 0x44B JUMPI PUSH2 0x441 DUP2 DUP4 PUSH2 0x16CF JUMP JUMPDEST POP DUP7 PUSH2 0x5DD JUMP JUMPDEST PUSH1 0x0 PUSH1 0x3 NOT CALLDATASIZE ADD SLT PUSH2 0x1B5 JUMPI PUSH2 0x27 CALLVALUE PUSH1 0x7 SLOAD PUSH2 0x17DB JUMP JUMPDEST CALLVALUE PUSH2 0x1B5 JUMPI PUSH1 0x0 PUSH1 0x3 NOT CALLDATASIZE ADD SLT PUSH2 0x1B5 JUMPI PUSH1 0x20 PUSH1 0x5 SLOAD PUSH1 0x40 MLOAD SWAP1 DUP2 MSTORE RETURN JUMPDEST CALLVALUE PUSH2 0x1B5 JUMPI PUSH1 0x20 PUSH1 0x3 NOT CALLDATASIZE ADD SLT PUSH2 0x1B5 JUMPI PUSH1 0x4 CALLDATALOAD DUP1 ISZERO ISZERO DUP1 SWAP2 SUB PUSH2 0x1B5 JUMPI PUSH2 0x8D0 PUSH2 0x175C JUMP JUMPDEST PUSH32 0xFFFFFFFFFFFFFFFFFFFFFF00FFFFFFFFFFFFFFFFFFFFFFFFFFFFFFFFFFFFFFFF PUSH21 0xFF0000000000000000000000000000000000000000 PUSH1 0x0 SLOAD SWAP3 PUSH1 0xA0 SHL AND SWAP2 AND OR PUSH1 0x0 SSTORE PUSH1 0x20 PUSH1 0x40 MLOAD PUSH1 0x1 DUP2 MSTORE RETURN JUMPDEST CALLVALUE PUSH2 0x1B5 JUMPI PUSH1 0x0 PUSH1 0x3 NOT CALLDATASIZE ADD SLT PUSH2 0x1B5 JUMPI PUSH1 0x20 PUSH20 0xFFFFFFFFFFFFFFFFFFFFFFFFFFFFFFFFFFFFFFFF PUSH1 0x0 SLOAD AND PUSH1 0x40 MLOAD SWAP1 DUP2 MSTORE RETURN JUMPDEST CALLVALUE PUSH2 0x1B5 JUMPI PUSH1 0x40 PUSH1 0x3 NOT CALLDATASIZE ADD SLT PUSH2 0x1B5 JUMPI PUSH2 0x9DF PUSH2 0x970 PUSH2 0x1689 JUMP JUMPDEST PUSH2 0x978 PUSH2 0x175C JUMP JUMPDEST PUSH1 0x1 SLOAD PUSH1 0x40 MLOAD PUSH32 0x95EA7B300000000000000000000000000000000000000000000000000000000 DUP1 DUP3 MSTORE PUSH20 0xFFFFFFFFFFFFFFFFFFFFFFFFFFFFFFFFFFFFFFFF SWAP3 DUP4 AND PUSH1 0x4 DUP4 ADD MSTORE PUSH1 0x24 DUP1 CALLDATALOAD SWAP1 DUP4 ADD MSTORE PUSH1 0x20 SWAP5 SWAP4 DUP4 AND SWAP4 SWAP2 SWAP3 SWAP1 SWAP2 DUP6 SWAP1 DUP5 SWAP1 DUP2 SWAP1 PUSH1 0x44 DUP3 ADD SWAP1 JUMP JUMPDEST SUB DUP2 PUSH1 0x0 DUP9 GAS CALL SWAP1 DUP2 ISZERO PUSH2 0x452 JUMPI DUP6 SWAP4 PUSH1 0x44 SWAP3 PUSH2 0xA42 JUMPI JUMPDEST POP PUSH1 0x1 SLOAD AND SWAP2 PUSH1 0x0 PUSH1 0x40 MLOAD SWAP6 DUP7 SWAP5 DUP6 SWAP4 DUP5 MSTORE PUSH1 0x4 DUP5 ADD MSTORE PUSH32 0xFFFFFFFFFFFFFFFFFFFFFFFFFFFFFFFFFFFFFFFFFFFFFFFFFFFFFFFFFFFFFFFF PUSH1 0x24 DUP5 ADD MSTORE GAS CALL DUP1 ISZERO PUSH2 0x452 JUMPI PUSH2 0x42A JUMPI STOP JUMPDEST PUSH2 0xA58 SWAP1 DUP6 RETURNDATASIZE DUP8 GT PUSH2 0x44B JUMPI PUSH2 0x441 DUP2 DUP4 PUSH2 0x16CF JUMP JUMPDEST POP DUP7 PUSH2 0x9F7 JUMP JUMPDEST CALLVALUE PUSH2 0x1B5 JUMPI PUSH1 0x0 PUSH1 0x3 NOT CALLDATASIZE ADD SLT PUSH2 0x1B5 JUMPI PUSH1 0x20 PUSH1 0x4 SLOAD PUSH1 0x40 MLOAD SWAP1 DUP2 MSTORE RETURN JUMPDEST CALLVALUE PUSH2 0x1B5 JUMPI PUSH1 0x0 PUSH1 0x3 NOT CALLDATASIZE ADD SLT PUSH2 0x1B5 JUMPI PUSH1 0x20 PUSH20 0xFFFFFFFFFFFFFFFFFFFFFFFFFFFFFFFFFFFFFFFF PUSH1 0x2 SLOAD AND PUSH1 0x40 MLOAD SWAP1 DUP2 MSTORE RETURN JUMPDEST CALLVALUE PUSH2 0x1B5 JUMPI PUSH1 0x0 PUSH1 0x3 NOT CALLDATASIZE ADD SLT PUSH2 0x1B5 JUMPI PUSH1 0x20 PUSH1 0x7 SLOAD PUSH1 0x40 MLOAD SWAP1 DUP2 MSTORE RETURN JUMPDEST CALLVALUE PUSH2 0x1B5 JUMPI PUSH1 0x0 PUSH1 0x3 NOT CALLDATASIZE ADD SLT PUSH2 0x1B5 JUMPI PUSH2 0xAE8 PUSH2 0x175C JUMP JUMPDEST PUSH1 0x0 PUSH20 0xFFFFFFFFFFFFFFFFFFFFFFFFFFFFFFFFFFFFFFFF DUP2 SLOAD PUSH32 0xFFFFFFFFFFFFFFFFFFFFFFFF0000000000000000000000000000000000000000 DUP2 AND DUP4 SSTORE AND PUSH32 0x8BE0079C531659141344CD1FD0A4F28419497F9722A3DAAFE3B4186F6B6457E0 DUP3 DUP1 LOG3 STOP JUMPDEST CALLVALUE PUSH2 0x1B5 JUMPI PUSH1 0x40 PUSH1 0x3 NOT CALLDATASIZE ADD SLT PUSH2 0x1B5 JUMPI PUSH2 0xB66 PUSH2 0x1689 JUMP JUMPDEST POP PUSH1 0x24 CALLDATALOAD PUSH1 0x0 MSTORE PUSH1 0x9 PUSH1 0x20 MSTORE PUSH1 0x20 PUSH1 0x40 PUSH1 0x0 KECCAK256 SLOAD PUSH1 0x40 MLOAD SWAP1 DUP2 MSTORE RETURN JUMPDEST CALLVALUE PUSH2 0x1B5 JUMPI PUSH1 0xA0 PUSH1 0x3 NOT CALLDATASIZE ADD SLT PUSH2 0x1B5 JUMPI PUSH2 0xB9B PUSH2 0x1689 JUMP JUMPDEST PUSH2 0xBA3 PUSH2 0x16AC JUMP JUMPDEST PUSH1 0x44 CALLDATALOAD SWAP1 PUSH20 0xFFFFFFFFFFFFFFFFFFFFFFFFFFFFFFFFFFFFFFFF DUP1 DUP4 AND SWAP1 DUP2 DUP5 SUB PUSH2 0x1B5 JUMPI PUSH2 0xBCF PUSH2 0x174A JUMP JUMPDEST SWAP5 PUSH1 0x84 CALLDATALOAD SWAP2 PUSH3 0xFFFFFF DUP4 AND DUP4 SUB PUSH2 0x1B5 JUMPI PUSH2 0xBE8 PUSH2 0x175C JUMP JUMPDEST DUP1 DUP3 AND PUSH1 0x40 MLOAD PUSH32 0x70A0823100000000000000000000000000000000000000000000000000000000 DUP2 MSTORE ADDRESS PUSH1 0x4 DUP3 ADD MSTORE PUSH1 0x20 SWAP9 DUP10 DUP3 PUSH1 0x24 DUP2 DUP7 GAS STATICCALL SWAP2 DUP3 ISZERO PUSH2 0x452 JUMPI PUSH1 0x0 SWAP3 PUSH2 0xE00 JUMPI JUMPDEST POP DUP4 PUSH1 0x1 SLOAD AND SWAP5 DUP11 PUSH1 0x40 MLOAD DUP1 SWAP6 DUP2 PUSH1 0x0 DUP2 PUSH2 0xC97 DUP10 PUSH32 0x95EA7B300000000000000000000000000000000000000000000000000000000 SWAP14 DUP15 DUP5 MSTORE PUSH1 0x4 DUP5 ADD PUSH1 0x20 SWAP1 SWAP4 SWAP3 SWAP2 SWAP4 PUSH20 0xFFFFFFFFFFFFFFFFFFFFFFFFFFFFFFFFFFFFFFFF PUSH1 0x40 DUP3 ADD SWAP6 AND DUP2 MSTORE ADD MSTORE JUMP JUMPDEST SUB SWAP3 GAS CALL SWAP1 DUP2 ISZERO PUSH2 0x452 JUMPI PUSH2 0xCBB DUP11 SWAP3 PUSH2 0xCC0 SWAP7 DUP15 PUSH1 0x0 SWAP3 PUSH2 0xDE3 JUMPI JUMPDEST POP POP PUSH2 0x19B8 JUMP JUMPDEST PUSH2 0x1A1D JUMP JUMPDEST SWAP2 DUP3 ISZERO PUSH2 0xD85 JUMPI PUSH1 0x1 SLOAD PUSH1 0x40 MLOAD SWAP2 DUP3 MSTORE DUP3 AND PUSH20 0xFFFFFFFFFFFFFFFFFFFFFFFFFFFFFFFFFFFFFFFF AND PUSH1 0x4 DUP3 ADD MSTORE PUSH1 0x24 DUP2 ADD DUP4 SWAP1 MSTORE SWAP3 SWAP2 SWAP1 DUP8 SWAP1 DUP5 SWAP1 PUSH1 0x44 SWAP1 DUP3 SWAP1 PUSH1 0x0 SWAP1 DUP11 AND GAS CALL SWAP2 DUP3 ISZERO PUSH2 0x452 JUMPI PUSH1 0x0 SWAP7 DUP9 SWAP7 PUSH2 0xCBB PUSH2 0xD2A SWAP6 PUSH1 0x24 SWAP8 DUP12 SWAP2 PUSH2 0xD68 JUMPI JUMPDEST POP PUSH2 0x19B8 JUMP JUMPDEST PUSH1 0x40 MLOAD SWAP5 DUP6 SWAP4 DUP5 SWAP3 PUSH32 0x42966C6800000000000000000000000000000000000000000000000000000000 DUP5 MSTORE PUSH1 0x4 DUP5 ADD MSTORE GAS CALL DUP1 ISZERO PUSH2 0x452 JUMPI PUSH2 0x42A JUMPI STOP JUMPDEST PUSH2 0xD7F SWAP2 POP DUP11 RETURNDATASIZE DUP13 GT PUSH2 0x44B JUMPI PUSH2 0x441 DUP2 DUP4 PUSH2 0x16CF JUMP JUMPDEST DUP13 PUSH2 0xD24 JUMP JUMPDEST PUSH1 0x64 DUP9 PUSH1 0x40 MLOAD SWAP1 PUSH32 0x8C379A000000000000000000000000000000000000000000000000000000000 DUP3 MSTORE PUSH1 0x4 DUP3 ADD MSTORE PUSH1 0x10 PUSH1 0x24 DUP3 ADD MSTORE PUSH32 0x4E6F20746F6B656E7320626F7567687400000000000000000000000000000000 PUSH1 0x44 DUP3 ADD MSTORE REVERT JUMPDEST PUSH2 0xDF9 SWAP3 POP DUP1 RETURNDATASIZE LT PUSH2 0x44B JUMPI PUSH2 0x441 DUP2 DUP4 PUSH2 0x16CF JUMP JUMPDEST DUP15 DUP15 PUSH2 0xCB4 JUMP JUMPDEST SWAP1 SWAP2 POP DUP10 DUP2 DUP2 RETURNDATASIZE DUP4 GT PUSH2 0xE28 JUMPI JUMPDEST PUSH2 0xE18 DUP2 DUP4 PUSH2 0x16CF JUMP JUMPDEST DUP2 ADD SUB SLT PUSH2 0x1B5 JUMPI MLOAD SWAP1 DUP11 PUSH2 0xC31 JUMP JUMPDEST POP RETURNDATASIZE PUSH2 0xE0E JUMP JUMPDEST CALLVALUE PUSH2 0x1B5 JUMPI PUSH1 0x20 DUP1 PUSH1 0x3 NOT CALLDATASIZE ADD SLT PUSH2 0x1B5 JUMPI PUSH2 0xE49 PUSH2 0x1689 JUMP JUMPDEST SWAP1 PUSH3 0x15180 PUSH2 0xE5A PUSH1 0x6 SLOAD TIMESTAMP PUSH2 0x1966 JUMP JUMPDEST LT PUSH2 0x10DD JUMPI PUSH1 0x7 SLOAD DUP1 ISZERO PUSH2 0x107F JUMPI PUSH1 0x4 SLOAD DUP1 DUP3 MUL SWAP1 DUP3 DUP3 DIV SUB PUSH2 0xF96 JUMPI PUSH20 0xFFFFFFFFFFFFFFFFFFFFFFFFFFFFFFFFFFFFFFFF SWAP2 PUSH2 0x2710 PUSH2 0xEAA SWAP3 DIV SWAP1 PUSH2 0xEA2 DUP3 PUSH1 0x8 SLOAD PUSH2 0x17DB JUMP JUMPDEST PUSH1 0x8 SSTORE PUSH2 0x1966 JUMP JUMPDEST SWAP3 AND PUSH1 0x40 MLOAD SWAP3 PUSH32 0xB5CB15F700000000000000000000000000000000000000000000000000000000 DUP5 MSTORE DUP3 DUP5 PUSH1 0x4 DUP2 DUP6 GAS STATICCALL SWAP4 DUP5 ISZERO PUSH2 0x452 JUMPI PUSH1 0x0 SWAP5 PUSH2 0x1050 JUMPI JUMPDEST POP DUP4 ISZERO PUSH2 0xFF2 JUMPI DUP4 SWAP1 DIV SWAP2 PUSH1 0x0 JUMPDEST DUP5 DUP2 LT PUSH2 0xF0A JUMPI TIMESTAMP PUSH1 0x6 SSTORE PUSH1 0x0 PUSH1 0x7 SSTORE STOP JUMPDEST PUSH1 0x40 MLOAD PUSH32 0x5B5CF50A00000000000000000000000000000000000000000000000000000000 DUP2 MSTORE DUP2 PUSH1 0x4 DUP3 ADD MSTORE DUP3 DUP2 PUSH1 0x24 DUP2 DUP8 GAS STATICCALL SWAP1 DUP2 ISZERO PUSH2 0x452 JUMPI PUSH1 0x0 SWAP2 PUSH2 0xFC5 JUMPI JUMPDEST POP PUSH1 0x0 MSTORE PUSH1 0x9 DUP3 MSTORE PUSH1 0x40 PUSH1 0x0 KECCAK256 PUSH2 0xF65 DUP6 DUP3 SLOAD PUSH2 0x17DB JUMP JUMPDEST SWAP1 SSTORE PUSH32 0xFFFFFFFFFFFFFFFFFFFFFFFFFFFFFFFFFFFFFFFFFFFFFFFFFFFFFFFFFFFFFFFF DUP2 EQ PUSH2 0xF96 JUMPI PUSH1 0x1 ADD PUSH2 0xEF8 JUMP JUMPDEST PUSH32 0x4E487B7100000000000000000000000000000000000000000000000000000000 PUSH1 0x0 MSTORE PUSH1 0x11 PUSH1 0x4 MSTORE PUSH1 0x24 PUSH1 0x0 REVERT JUMPDEST SWAP1 POP DUP3 DUP2 DUP2 RETURNDATASIZE DUP4 GT PUSH2 0xFEB JUMPI JUMPDEST PUSH2 0xFDC DUP2 DUP4 PUSH2 0x16CF JUMP JUMPDEST DUP2 ADD SUB SLT PUSH2 0x1B5 JUMPI MLOAD DUP7 PUSH2 0xF4D JUMP JUMPDEST POP RETURNDATASIZE PUSH2 0xFD2 JUMP JUMPDEST PUSH1 0x64 DUP4 PUSH1 0x40 MLOAD SWAP1 PUSH32 0x8C379A000000000000000000000000000000000000000000000000000000000 DUP3 MSTORE PUSH1 0x4 DUP3 ADD MSTORE PUSH1 0x19 PUSH1 0x24 DUP3 ADD MSTORE PUSH32 0x4E6F20757365727320746F206469737472696275746520746F00000000000000 PUSH1 0x44 DUP3 ADD MSTORE REVERT JUMPDEST SWAP1 SWAP4 POP DUP3 DUP2 DUP2 RETURNDATASIZE DUP4 GT PUSH2 0x1078 JUMPI JUMPDEST PUSH2 0x1068 DUP2 DUP4 PUSH2 0x16CF JUMP JUMPDEST DUP2 ADD SUB SLT PUSH2 0x1B5 JUMPI MLOAD SWAP3 DUP5 PUSH2 0xEEA JUMP JUMPDEST POP RETURNDATASIZE PUSH2 0x105E JUMP JUMPDEST PUSH1 0x64 DUP3 PUSH1 0x40 MLOAD SWAP1 PUSH32 0x8C379A000000000000000000000000000000000000000000000000000000000 DUP3 MSTORE PUSH1 0x4 DUP3 ADD MSTORE PUSH1 0x18 PUSH1 0x24 DUP3 ADD MSTORE PUSH32 0x4E6F2064697374726962757461626C652062616C616E63650000000000000000 PUSH1 0x44 DUP3 ADD MSTORE REVERT JUMPDEST PUSH1 0x64 SWAP1 PUSH1 0x40 MLOAD SWAP1 PUSH32 0x8C379A000000000000000000000000000000000000000000000000000000000 DUP3 MSTORE PUSH1 0x4 DUP3 ADD MSTORE PUSH1 0x1E PUSH1 0x24 DUP3 ADD MSTORE PUSH32 0x43616E206F6E6C792064697374726962757465206F6E63652061206461790000 PUSH1 0x44 DUP3 ADD MSTORE REVERT JUMPDEST CALLVALUE PUSH2 0x1B5 JUMPI PUSH1 0x60 PUSH1 0x3 NOT CALLDATASIZE ADD SLT PUSH2 0x1B5 JUMPI PUSH2 0x1154 PUSH2 0x1689 JUMP JUMPDEST PUSH20 0xFFFFFFFFFFFFFFFFFFFFFFFFFFFFFFFFFFFFFFFF PUSH2 0x1171 PUSH2 0x16AC JUMP JUMPDEST SWAP2 PUSH2 0x117A PUSH2 0x175C JUMP JUMPDEST PUSH1 0x40 MLOAD PUSH32 0xA9059CBB00000000000000000000000000000000000000000000000000000000 PUSH1 0x20 DUP1 DUP4 ADD SWAP2 DUP3 MSTORE PUSH20 0xFFFFFFFFFFFFFFFFFFFFFFFFFFFFFFFFFFFFFFFF SWAP6 SWAP1 SWAP6 AND PUSH1 0x24 DUP4 ADD MSTORE PUSH1 0x44 DUP1 CALLDATALOAD DUP2 DUP5 ADD MSTORE DUP3 MSTORE SWAP3 SWAP1 SWAP2 AND PUSH2 0x11DD PUSH1 0x64 DUP4 PUSH2 0x16CF JUMP JUMPDEST PUSH1 0x40 MLOAD SWAP2 PUSH1 0x40 DUP4 ADD DUP4 DUP2 LT PUSH8 0xFFFFFFFFFFFFFFFF DUP3 GT OR PUSH2 0x807 JUMPI PUSH1 0x40 MSTORE DUP5 DUP4 MSTORE PUSH32 0x5361666545524332303A206C6F772D6C6576656C2063616C6C206661696C6564 DUP4 DUP7 ADD MSTORE MLOAD PUSH2 0x123F SWAP4 PUSH1 0x0 SWAP2 DUP3 SWAP2 DUP3 DUP6 GAS CALL PUSH2 0x1239 PUSH2 0x1800 JUMP JUMPDEST SWAP2 PUSH2 0x1830 JUMP JUMPDEST DUP1 MLOAD SWAP1 DUP3 DUP3 ISZERO SWAP3 DUP4 ISZERO PUSH2 0x12DB JUMPI JUMPDEST POP POP POP ISZERO PUSH2 0x1257 JUMPI STOP JUMPDEST PUSH1 0x84 SWAP1 PUSH1 0x40 MLOAD SWAP1 PUSH32 0x8C379A000000000000000000000000000000000000000000000000000000000 DUP3 MSTORE PUSH1 0x4 DUP3 ADD MSTORE PUSH1 0x2A PUSH1 0x24 DUP3 ADD MSTORE PUSH32 0x5361666545524332303A204552433230206F7065726174696F6E20646964206E PUSH1 0x44 DUP3 ADD MSTORE PUSH32 0x6F74207375636365656400000000000000000000000000000000000000000000 PUSH1 0x64 DUP3 ADD MSTORE REVERT JUMPDEST PUSH2 0x12EB SWAP4 POP DUP3 ADD DUP2 ADD SWAP2 ADD PUSH2 0x17E8 JUMP JUMPDEST DUP3 DUP3 DUP2 PUSH2 0x124D JUMP JUMPDEST CALLVALUE PUSH2 0x1B5 JUMPI PUSH1 0x20 PUSH1 0x3 NOT CALLDATASIZE ADD SLT PUSH2 0x1B5 JUMPI PUSH20 0xFFFFFFFFFFFFFFFFFFFFFFFFFFFFFFFFFFFFFFFF PUSH2 0x1321 PUSH2 0x1689 JUMP JUMPDEST PUSH2 0x1329 PUSH2 0x175C JUMP JUMPDEST AND PUSH32 0xFFFFFFFFFFFFFFFFFFFFFFFF0000000000000000000000000000000000000000 PUSH1 0x1 SLOAD AND OR PUSH1 0x1 SSTORE PUSH1 0x0 DUP1 RETURN JUMPDEST CALLVALUE PUSH2 0x1B5 JUMPI PUSH1 0x20 PUSH1 0x3 NOT CALLDATASIZE ADD SLT PUSH2 0x1B5 JUMPI PUSH2 0x1371 PUSH2 0x175C JUMP JUMPDEST PUSH1 0x4 CALLDATALOAD PUSH1 0x5 SSTORE STOP JUMPDEST CALLVALUE PUSH2 0x1B5 JUMPI PUSH1 0xA0 PUSH1 0x3 NOT CALLDATASIZE ADD SLT PUSH2 0x1B5 JUMPI PUSH2 0x1392 PUSH2 0x1689 JUMP JUMPDEST POP PUSH2 0x139B PUSH2 0x16AC JUMP JUMPDEST PUSH8 0xFFFFFFFFFFFFFFFF PUSH1 0x44 CALLDATALOAD DUP2 DUP2 GT PUSH2 0x1B5 JUMPI CALLDATASIZE PUSH1 0x23 DUP3 ADD SLT ISZERO PUSH2 0x1B5 JUMPI DUP1 PUSH1 0x4 ADD CALLDATALOAD SWAP3 PUSH2 0x13C8 DUP5 PUSH2 0x1710 JUMP JUMPDEST SWAP1 PUSH2 0x13D6 PUSH1 0x40 MLOAD SWAP3 DUP4 PUSH2 0x16CF JUMP JUMPDEST DUP5 DUP3 MSTORE PUSH1 0x20 SWAP5 DUP6 DUP4 ADD SWAP4 CALLDATASIZE PUSH1 0x24 DUP4 DUP4 ADD ADD GT PUSH2 0x1B5 JUMPI DUP2 PUSH1 0x0 SWAP3 PUSH1 0x24 DUP10 SWAP4 ADD DUP8 CALLDATACOPY DUP5 ADD ADD MSTORE PUSH1 0x64 CALLDATALOAD SWAP1 PUSH20 0xFFFFFFFFFFFFFFFFFFFFFFFFFFFFFFFFFFFFFFFF SWAP5 DUP6 DUP4 AND DUP1 SWAP4 SUB PUSH2 0x1B5 JUMPI PUSH1 0x0 DUP7 SWAP4 PUSH1 0x84 CALLDATALOAD SWAP4 PUSH1 0x40 MLOAD DUP1 SWAP7 DUP2 DUP1 SWAP5 PUSH32 0x7276069D00000000000000000000000000000000000000000000000000000000 DUP3 MSTORE PUSH1 0x60 PUSH1 0x4 DUP4 ADD MSTORE PUSH2 0x1466 PUSH1 0x64 DUP4 ADD DUP13 PUSH2 0x1923 JUMP JUMPDEST SWAP1 PUSH1 0x24 DUP4 ADD MSTORE DUP9 PUSH1 0x44 DUP4 ADD MSTORE SUB SWAP3 AND GAS STATICCALL SWAP1 DUP2 ISZERO PUSH2 0x452 JUMPI PUSH1 0x0 SWAP4 PUSH1 0x0 SWAP3 PUSH2 0x1543 JUMPI JUMPDEST POP POP PUSH1 0x40 DUP2 DUP1 MLOAD DUP2 ADD SUB SLT PUSH2 0x1B5 JUMPI DUP7 DUP2 ADD MLOAD SWAP6 DUP7 AND DUP1 SWAP7 SUB PUSH2 0x1B5 JUMPI PUSH1 0x40 ADD MLOAD SUB PUSH2 0x14E5 JUMPI DUP5 SWAP4 PUSH1 0x0 SWAP4 DUP5 SWAP4 DUP4 DUP8 DUP7 SWAP6 MLOAD SWAP2 ADD KECCAK256 DUP5 MSTORE PUSH1 0x9 DUP8 MSTORE PUSH1 0x40 DUP5 KECCAK256 SWAP1 DUP2 SLOAD SWAP7 DUP8 SWAP3 SSTORE MLOAD SWAP3 GAS CALL POP PUSH2 0x14DC PUSH2 0x1800 JUMP JUMPDEST POP PUSH1 0x40 MLOAD SWAP1 DUP2 MSTORE RETURN JUMPDEST PUSH1 0x64 DUP6 PUSH1 0x40 MLOAD SWAP1 PUSH32 0x8C379A000000000000000000000000000000000000000000000000000000000 DUP3 MSTORE PUSH1 0x4 DUP3 ADD MSTORE PUSH1 0xE PUSH1 0x24 DUP3 ADD MSTORE PUSH32 0x4E6F742053616D65204E6F6E6365000000000000000000000000000000000000 PUSH1 0x44 DUP3 ADD MSTORE REVERT JUMPDEST SWAP2 POP SWAP3 POP RETURNDATASIZE DUP1 PUSH1 0x0 DUP4 RETURNDATACOPY PUSH2 0x1557 DUP2 DUP4 PUSH2 0x16CF JUMP JUMPDEST DUP2 ADD PUSH1 0x80 DUP3 DUP3 SUB SLT PUSH2 0x1B5 JUMPI DUP2 MLOAD DUP5 DUP2 GT PUSH2 0x1B5 JUMPI DUP2 PUSH2 0x1578 SWAP2 DUP5 ADD PUSH2 0x1973 JUMP JUMPDEST SWAP4 PUSH1 0x60 DUP4 ADD MLOAD SWAP1 DUP2 GT PUSH2 0x1B5 JUMPI PUSH2 0x158F SWAP3 ADD PUSH2 0x1973 JUMP JUMPDEST DUP8 DUP1 PUSH2 0x1489 JUMP JUMPDEST CALLVALUE PUSH2 0x1B5 JUMPI PUSH1 0x20 PUSH1 0x3 NOT CALLDATASIZE ADD SLT PUSH2 0x1B5 JUMPI PUSH2 0x15AF PUSH2 0x175C JUMP JUMPDEST PUSH1 0x4 DUP1 CALLDATALOAD SWAP1 SSTORE STOP JUMPDEST CALLVALUE PUSH2 0x1B5 JUMPI PUSH1 0x0 PUSH1 0x3 NOT CALLDATASIZE ADD SLT PUSH2 0x1B5 JUMPI PUSH1 0x20 PUSH1 0x6 SLOAD PUSH1 0x40 MLOAD SWAP1 DUP2 MSTORE RETURN JUMPDEST CALLVALUE PUSH2 0x1B5 JUMPI PUSH1 0x0 PUSH1 0x3 NOT CALLDATASIZE ADD SLT PUSH2 0x1B5 JUMPI PUSH1 0x20 PUSH20 0xFFFFFFFFFFFFFFFFFFFFFFFFFFFFFFFFFFFFFFFF PUSH1 0x3 SLOAD AND PUSH1 0x40 MLOAD SWAP1 DUP2 MSTORE RETURN JUMPDEST CALLVALUE PUSH2 0x1B5 JUMPI PUSH1 0x40 PUSH1 0x3 NOT CALLDATASIZE ADD SLT PUSH2 0x1B5 JUMPI PUSH1 0x4 CALLDATALOAD PUSH20 0xFFFFFFFFFFFFFFFFFFFFFFFFFFFFFFFFFFFFFFFF DUP2 AND DUP1 SWAP2 SUB PUSH2 0x1B5 JUMPI PUSH1 0x0 DUP1 DUP1 DUP1 SWAP4 PUSH1 0x24 CALLDATALOAD SWAP1 PUSH2 0x164D PUSH2 0x175C JUMP JUMPDEST DUP3 DUP3 ISZERO PUSH2 0x165D JUMPI JUMPDEST CALL ISZERO PUSH2 0x452 JUMPI STOP JUMPDEST POP PUSH2 0x8FC PUSH2 0x1655 JUMP JUMPDEST CALLVALUE PUSH2 0x1B5 JUMPI PUSH1 0x0 PUSH1 0x3 NOT CALLDATASIZE ADD SLT PUSH2 0x1B5 JUMPI PUSH1 0x20 SWAP1 PUSH1 0xFF PUSH1 0x0 SLOAD PUSH1 0xA0 SHR AND ISZERO ISZERO DUP2 MSTORE RETURN JUMPDEST PUSH1 0x4 CALLDATALOAD SWAP1 PUSH20 0xFFFFFFFFFFFFFFFFFFFFFFFFFFFFFFFFFFFFFFFF DUP3 AND DUP3 SUB PUSH2 0x1B5 JUMPI JUMP JUMPDEST PUSH1 0x24 CALLDATALOAD SWAP1 PUSH20 0xFFFFFFFFFFFFFFFFFFFFFFFFFFFFFFFFFFFFFFFF DUP3 AND DUP3 SUB PUSH2 0x1B5 JUMPI JUMP JUMPDEST SWAP1 PUSH1 0x1F PUSH32 0xFFFFFFFFFFFFFFFFFFFFFFFFFFFFFFFFFFFFFFFFFFFFFFFFFFFFFFFFFFFFFFE0 SWAP2 ADD AND DUP2 ADD SWAP1 DUP2 LT PUSH8 0xFFFFFFFFFFFFFFFF DUP3 GT OR PUSH2 0x807 JUMPI PUSH1 0x40 MSTORE JUMP JUMPDEST PUSH8 0xFFFFFFFFFFFFFFFF DUP2 GT PUSH2 0x807 JUMPI PUSH1 0x1F ADD PUSH32 0xFFFFFFFFFFFFFFFFFFFFFFFFFFFFFFFFFFFFFFFFFFFFFFFFFFFFFFFFFFFFFFE0 AND PUSH1 0x20 ADD SWAP1 JUMP JUMPDEST PUSH1 0x64 CALLDATALOAD SWAP1 PUSH3 0xFFFFFF DUP3 AND DUP3 SUB PUSH2 0x1B5 JUMPI JUMP JUMPDEST PUSH20 0xFFFFFFFFFFFFFFFFFFFFFFFFFFFFFFFFFFFFFFFF PUSH1 0x0 SLOAD AND CALLER SUB PUSH2 0x177D JUMPI JUMP JUMPDEST PUSH1 0x64 PUSH1 0x40 MLOAD PUSH32 0x8C379A000000000000000000000000000000000000000000000000000000000 DUP2 MSTORE PUSH1 0x20 PUSH1 0x4 DUP3 ADD MSTORE PUSH1 0x20 PUSH1 0x24 DUP3 ADD MSTORE PUSH32 0x4F776E61626C653A2063616C6C6572206973206E6F7420746865206F776E6572 PUSH1 0x44 DUP3 ADD MSTORE REVERT JUMPDEST SWAP2 SWAP1 DUP3 ADD DUP1 SWAP3 GT PUSH2 0xF96 JUMPI JUMP JUMPDEST SWAP1 DUP2 PUSH1 0x20 SWAP2 SUB SLT PUSH2 0x1B5 JUMPI MLOAD DUP1 ISZERO ISZERO DUP2 SUB PUSH2 0x1B5 JUMPI SWAP1 JUMP JUMPDEST RETURNDATASIZE ISZERO PUSH2 0x182B JUMPI RETURNDATASIZE SWAP1 PUSH2 0x1811 DUP3 PUSH2 0x1710 JUMP JUMPDEST SWAP2 PUSH2 0x181F PUSH1 0x40 MLOAD SWAP4 DUP5 PUSH2 0x16CF JUMP JUMPDEST DUP3 MSTORE RETURNDATASIZE PUSH1 0x0 PUSH1 0x20 DUP5 ADD RETURNDATACOPY JUMP JUMPDEST PUSH1 0x60 SWAP1 JUMP JUMPDEST SWAP2 SWAP3 SWAP1 ISZERO PUSH2 0x18AB JUMPI POP DUP2 MLOAD ISZERO PUSH2 0x1844 JUMPI POP SWAP1 JUMP JUMPDEST EXTCODESIZE ISZERO PUSH2 0x184D JUMPI SWAP1 JUMP JUMPDEST PUSH1 0x64 PUSH1 0x40 MLOAD PUSH32 0x8C379A000000000000000000000000000000000000000000000000000000000 DUP2 MSTORE PUSH1 0x20 PUSH1 0x4 DUP3 ADD MSTORE PUSH1 0x1D PUSH1 0x24 DUP3 ADD MSTORE PUSH32 0x416464726573733A2063616C6C20746F206E6F6E2D636F6E7472616374000000 PUSH1 0x44 DUP3 ADD MSTORE REVERT JUMPDEST DUP3 MLOAD SWAP1 SWAP2 POP ISZERO PUSH2 0x18BE JUMPI POP DUP1 MLOAD SWAP1 PUSH1 0x20 ADD REVERT JUMPDEST PUSH2 0x18FC SWAP1 PUSH1 0x40 MLOAD SWAP2 DUP3 SWAP2 PUSH32 0x8C379A000000000000000000000000000000000000000000000000000000000 DUP4 MSTORE PUSH1 0x20 PUSH1 0x4 DUP5 ADD MSTORE PUSH1 0x24 DUP4 ADD SWAP1 PUSH2 0x1923 JUMP JUMPDEST SUB SWAP1 REVERT JUMPDEST PUSH1 0x0 JUMPDEST DUP4 DUP2 LT PUSH2 0x1913 JUMPI POP POP PUSH1 0x0 SWAP2 ADD MSTORE JUMP JUMPDEST DUP2 DUP2 ADD MLOAD DUP4 DUP3 ADD MSTORE PUSH1 0x20 ADD PUSH2 0x1903 JUMP JUMPDEST SWAP1 PUSH32 0xFFFFFFFFFFFFFFFFFFFFFFFFFFFFFFFFFFFFFFFFFFFFFFFFFFFFFFFFFFFFFFE0 PUSH1 0x1F PUSH1 0x20 SWAP4 PUSH2 0x195F DUP2 MLOAD DUP1 SWAP3 DUP2 DUP8 MSTORE DUP8 DUP1 DUP9 ADD SWAP2 ADD PUSH2 0x1900 JUMP JUMPDEST ADD AND ADD ADD SWAP1 JUMP JUMPDEST SWAP2 SWAP1 DUP3 SUB SWAP2 DUP3 GT PUSH2 0xF96 JUMPI JUMP JUMPDEST DUP2 PUSH1 0x1F DUP3 ADD SLT ISZERO PUSH2 0x1B5 JUMPI DUP1 MLOAD PUSH2 0x1989 DUP2 PUSH2 0x1710 JUMP JUMPDEST SWAP3 PUSH2 0x1997 PUSH1 0x40 MLOAD SWAP5 DUP6 PUSH2 0x16CF JUMP JUMPDEST DUP2 DUP5 MSTORE PUSH1 0x20 DUP3 DUP5 ADD ADD GT PUSH2 0x1B5 JUMPI PUSH2 0x19B5 SWAP2 PUSH1 0x20 DUP1 DUP6 ADD SWAP2 ADD PUSH2 0x1900 JUMP JUMPDEST SWAP1 JUMP JUMPDEST ISZERO PUSH2 0x19BF JUMPI JUMP JUMPDEST PUSH1 0x64 PUSH1 0x40 MLOAD PUSH32 0x8C379A000000000000000000000000000000000000000000000000000000000 DUP2 MSTORE PUSH1 0x20 PUSH1 0x4 DUP3 ADD MSTORE PUSH1 0xE PUSH1 0x24 DUP3 ADD MSTORE PUSH32 0x417070726F7665206661696C6564000000000000000000000000000000000000 PUSH1 0x44 DUP3 ADD MSTORE REVERT JUMPDEST PUSH1 0x1 SLOAD PUSH1 0x40 DUP1 MLOAD PUSH32 0x95EA7B300000000000000000000000000000000000000000000000000000000 DUP2 MSTORE PUSH20 0xFFFFFFFFFFFFFFFFFFFFFFFFFFFFFFFFFFFFFFFF SWAP3 DUP4 AND PUSH1 0x4 DUP3 ADD MSTORE PUSH1 0x24 DUP2 ADD DUP8 SWAP1 MSTORE SWAP1 SWAP6 SWAP3 SWAP1 SWAP2 AND SWAP2 SWAP1 PUSH1 0x20 DUP2 PUSH1 0x44 DUP2 PUSH1 0x0 DUP8 GAS CALL DUP1 ISZERO PUSH2 0x1C4C JUMPI PUSH2 0x1C2D JUMPI JUMPDEST POP PUSH1 0xA TIMESTAMP ADD DUP1 TIMESTAMP GT PUSH2 0xF96 JUMPI DUP6 MLOAD SWAP3 PUSH2 0x100 DUP5 ADD DUP5 DUP2 LT PUSH8 0xFFFFFFFFFFFFFFFF DUP3 GT OR PUSH2 0x807 JUMPI DUP8 MSTORE DUP4 MSTORE PUSH1 0x20 DUP4 ADD SWAP4 PUSH20 0xFFFFFFFFFFFFFFFFFFFFFFFFFFFFFFFFFFFFFFFF AND DUP5 MSTORE DUP6 DUP4 ADD SWAP5 PUSH3 0xFFFFFF AND DUP6 MSTORE PUSH1 0x60 DUP4 ADD SWAP2 ADDRESS DUP4 MSTORE PUSH1 0x80 DUP5 ADD SWAP2 DUP3 MSTORE PUSH1 0xA0 DUP5 ADD SWAP1 DUP2 MSTORE PUSH1 0xC0 DUP5 ADD SWAP1 PUSH1 0x0 DUP3 MSTORE PUSH1 0xE0 DUP6 ADD SWAP3 PUSH1 0x0 DUP5 MSTORE PUSH1 0x1 SLOAD PUSH20 0xFFFFFFFFFFFFFFFFFFFFFFFFFFFFFFFFFFFFFFFF AND SWAP5 DUP10 MLOAD SWAP9 DUP10 SWAP9 DUP10 SWAP9 PUSH32 0x414BF38900000000000000000000000000000000000000000000000000000000 DUP11 MSTORE MLOAD PUSH20 0xFFFFFFFFFFFFFFFFFFFFFFFFFFFFFFFFFFFFFFFF AND PUSH1 0x4 DUP11 ADD MSTORE MLOAD PUSH20 0xFFFFFFFFFFFFFFFFFFFFFFFFFFFFFFFFFFFFFFFF AND PUSH1 0x24 DUP10 ADD MSTORE MLOAD PUSH3 0xFFFFFF AND PUSH1 0x44 DUP9 ADD MSTORE MLOAD PUSH20 0xFFFFFFFFFFFFFFFFFFFFFFFFFFFFFFFFFFFFFFFF AND PUSH1 0x64 DUP8 ADD MSTORE MLOAD PUSH1 0x84 DUP7 ADD MSTORE MLOAD PUSH1 0xA4 DUP6 ADD MSTORE MLOAD PUSH1 0xC4 DUP5 ADD MSTORE MLOAD PUSH20 0xFFFFFFFFFFFFFFFFFFFFFFFFFFFFFFFFFFFFFFFF AND PUSH1 0xE4 DUP4 ADD MSTORE GAS SWAP3 PUSH1 0x0 PUSH2 0x104 SWAP3 PUSH1 0x20 SWAP6 CALL SWAP2 DUP3 ISZERO PUSH2 0x1C23 JUMPI POP PUSH1 0x0 SWAP2 PUSH2 0x1BF4 JUMPI POP SWAP1 JUMP JUMPDEST SWAP1 POP PUSH1 0x20 DUP2 RETURNDATASIZE PUSH1 0x20 GT PUSH2 0x1C1B JUMPI JUMPDEST DUP2 PUSH2 0x1C0F PUSH1 0x20 SWAP4 DUP4 PUSH2 0x16CF JUMP JUMPDEST DUP2 ADD SUB SLT PUSH2 0x1B5 JUMPI MLOAD SWAP1 JUMP JUMPDEST RETURNDATASIZE SWAP2 POP PUSH2 0x1C02 JUMP JUMPDEST MLOAD RETURNDATASIZE PUSH1 0x0 DUP3 RETURNDATACOPY RETURNDATASIZE SWAP1 REVERT JUMPDEST PUSH2 0x1C45 SWAP1 PUSH1 0x20 RETURNDATASIZE PUSH1 0x20 GT PUSH2 0x44B JUMPI PUSH2 0x441 DUP2 DUP4 PUSH2 0x16CF JUMP JUMPDEST POP CODESIZE PUSH2 0x1A89 JUMP JUMPDEST DUP7 MLOAD RETURNDATASIZE PUSH1 0x0 DUP3 RETURNDATACOPY RETURNDATASIZE SWAP1 REVERT INVALID LOG2 PUSH5 0x6970667358 0x22 SLT KECCAK256 0xD0 LT 0xB7 SWAP16 CALLVALUE 0xF7 0x4B MOD 0xEC 0xC2 0xDC 0x4B PUSH16 0x953E4EF5C1F4DD194C7D903E06B0AAC1 PUSH19 0x7BAD64736F6C63430008130033000000000000 "},"gasEstimates":{"creation":{"codeDepositCost":"1461800","executionCost":"71529","totalCost":"1533329"},"external":{"addFunds()":"24822","addLiquidity(address,address,uint24,uint256,uint256,int24,int24)":"infinite","configLiquidityProvider(address,address)":"infinite","customApprove(address,uint256)":"infinite","distributableBalance()":"2544","distribute(address)":"infinite","fixedFee()":"2676","getReward(address,bytes32)":"2629","globalFee()":"2588","lastDistributed()":"2324","native()":"2308","owner()":"2638","ownerFee()":"2786","positionManager()":"2572","renounceOwnership()":"28279","setFixedFee(uint256)":"24523","setGlobalFee(uint256)":"24482","setSplitLiqudity(bool)":"26972","setSwapRouter(address)":"26724","splitLiquidity()":"2268","swapAndBurn(address,address,address,uint24,uint24)":"infinite","swapRouter()":"2770","swapTokensForTokens(address,address,uint256,uint24)":"infinite","takeReward(address,address,bytes,address,bytes32)":"infinite","transferOwnership(address)":"28682","userReward(bytes32)":"2808","withdrawNative(address,uint256)":"infinite","withdrawTokens(address,address,uint256)":"infinite"}},"methodIdentifiers":{"addFunds()":"a26759cb","addLiquidity(address,address,uint24,uint256,uint256,int24,int24)":"afbce84e","configLiquidityProvider(address,address)":"e2662943","customApprove(address,uint256)":"85258b4b","distributableBalance()":"7450bce9","distribute(address)":"63453ae1","fixedFee()":"91792d5b","getReward(address,bytes32)":"6c8d424f","globalFee()":"808fc206","lastDistributed()":"1fce07d5","native()":"11b0b42d","owner()":"8da5cb5b","ownerFee()":"d5b2a01a","positionManager()":"791b98bc","renounceOwnership()":"715018a6","setFixedFee(uint256)":"37de8106","setGlobalFee(uint256)":"291206f6","setSplitLiqudity(bool)":"8f3a899a","setSwapRouter(address)":"41273657","splitLiquidity()":"05f6059d","swapAndBurn(address,address,address,uint24,uint24)":"6962a863","swapRouter()":"c31c9c07","swapTokensForTokens(address,address,uint256,uint24)":"fc99d28f","takeReward(address,address,bytes,address,bytes32)":"37d8af2b","transferOwnership(address)":"f2fde38b","userReward(bytes32)":"b51ed1f4","withdrawNative(address,uint256)":"07b18bde","withdrawTokens(address,address,uint256)":"5e35359e"}},"storageLayout":{"storage":[{"astId":7,"contract":"contracts/MecenateTreasury.sol:MecenateTreasury","label":"_owner","offset":0,"slot":"0","type":"t_address"},{"astId":2957,"contract":"contracts/MecenateTreasury.sol:MecenateTreasury","label":"splitLiquidity","offset":20,"slot":"0","type":"t_bool"},{"astId":2960,"contract":"contracts/MecenateTreasury.sol:MecenateTreasury","label":"swapRouter","offset":0,"slot":"1","type":"t_contract(ISwapRouter)2161"},{"astId":2963,"contract":"contracts/MecenateTreasury.sol:MecenateTreasury","label":"positionManager","offset":0,"slot":"2","type":"t_contract(INonfungiblePositionManager)2000"},{"astId":2965,"contract":"contracts/MecenateTreasury.sol:MecenateTreasury","label":"native","offset":0,"slot":"3","type":"t_address"},{"astId":2278,"contract":"contracts/MecenateTreasury.sol:MecenateTreasury","label":"globalFee","offset":0,"slot":"4","type":"t_uint256"},{"astId":2281,"contract":"contracts/MecenateTreasury.sol:MecenateTreasury","label":"fixedFee","offset":0,"slot":"5","type":"t_uint256"},{"astId":2283,"contract":"contracts/MecenateTreasury.sol:MecenateTreasury","label":"lastDistributed","offset":0,"slot":"6","type":"t_uint256"},{"astId":2285,"contract":"contracts/MecenateTreasury.sol:MecenateTreasury","label":"distributableBalance","offset":0,"slot":"7","type":"t_uint256"},{"astId":2287,"contract":"contracts/MecenateTreasury.sol:MecenateTreasury","label":"ownerFee","offset":0,"slot":"8","type":"t_uint256"},{"astId":2291,"contract":"contracts/MecenateTreasury.sol:MecenateTreasury","label":"userReward","offset":0,"slot":"9","type":"t_mapping(t_bytes32,t_uint256)"}],"types":{"t_address":{"encoding":"inplace","label":"address","numberOfBytes":"20"},"t_bool":{"encoding":"inplace","label":"bool","numberOfBytes":"1"},"t_bytes32":{"encoding":"inplace","label":"bytes32","numberOfBytes":"32"},"t_contract(INonfungiblePositionManager)2000":{"encoding":"inplace","label":"contract INonfungiblePositionManager","numberOfBytes":"20"},"t_contract(ISwapRouter)2161":{"encoding":"inplace","label":"contract ISwapRouter","numberOfBytes":"20"},"t_mapping(t_bytes32,t_uint256)":{"encoding":"mapping","key":"t_bytes32","label":"mapping(bytes32 => uint256)","numberOfBytes":"32","value":"t_uint256"},"t_uint256":{"encoding":"inplace","label":"uint256","numberOfBytes":"32"}}},"userdoc":{"kind":"user","methods":{},"version":1}}}}