{"contracts/factories/MecenateFeedFactory.sol":{"MecenateFeedFactory":{"abi":[{"anonymous":false,"inputs":[{"indexed":true,"internalType":"address","name":"addr","type":"address"}],"name":"FeedCreated","type":"event"},{"anonymous":false,"inputs":[{"indexed":true,"internalType":"address","name":"implementation","type":"address"},{"indexed":true,"internalType":"uint256","name":"version","type":"uint256"}],"name":"ImplementationUpdated","type":"event"},{"anonymous":false,"inputs":[{"indexed":false,"internalType":"uint8","name":"version","type":"uint8"}],"name":"Initialized","type":"event"},{"anonymous":false,"inputs":[{"indexed":true,"internalType":"address","name":"previousOwner","type":"address"},{"indexed":true,"internalType":"address","name":"newOwner","type":"address"}],"name":"OwnershipTransferred","type":"event"},{"anonymous":false,"inputs":[{"indexed":true,"internalType":"address","name":"_proxyCallContract","type":"address"}],"name":"ProxyCallContractUpdated","type":"event"},{"inputs":[{"internalType":"address","name":"_implementation","type":"address"},{"internalType":"uint256","name":"major","type":"uint256"},{"internalType":"uint256","name":"minor","type":"uint256"},{"internalType":"uint256","name":"patch","type":"uint256"}],"name":"adminUpdateImplementation","outputs":[],"stateMutability":"nonpayable","type":"function"},{"inputs":[{"internalType":"address","name":"_proxyCallContract","type":"address"}],"name":"adminUpdateProxyCallContract","outputs":[],"stateMutability":"nonpayable","type":"function"},{"inputs":[],"name":"buildFeed","outputs":[{"internalType":"address","name":"ctx","type":"address"}],"stateMutability":"payable","type":"function"},{"inputs":[],"name":"burnEnabled","outputs":[{"internalType":"bool","name":"","type":"bool"}],"stateMutability":"view","type":"function"},{"inputs":[{"internalType":"address","name":"treasury","type":"address"},{"internalType":"address","name":"usersModule","type":"address"},{"internalType":"address","name":"newEasContract","type":"address"},{"internalType":"bytes32","name":"newEasSchema","type":"bytes32"},{"internalType":"address","name":"wethTokenAddr","type":"address"},{"internalType":"address","name":"museTokenAddr","type":"address"},{"internalType":"address","name":"daiTokenAddr","type":"address"},{"internalType":"address","name":"routerAddr","type":"address"}],"name":"changeMultipleSettings","outputs":[],"stateMutability":"nonpayable","type":"function"},{"inputs":[],"name":"contractCounter","outputs":[{"internalType":"uint256","name":"","type":"uint256"}],"stateMutability":"view","type":"function"},{"inputs":[],"name":"daiToken","outputs":[{"internalType":"address","name":"","type":"address"}],"stateMutability":"view","type":"function"},{"inputs":[],"name":"defaultOperator","outputs":[{"internalType":"address","name":"","type":"address"}],"stateMutability":"view","type":"function"},{"inputs":[],"name":"easContract","outputs":[{"internalType":"address","name":"","type":"address"}],"stateMutability":"view","type":"function"},{"inputs":[],"name":"easSchema","outputs":[{"internalType":"bytes32","name":"","type":"bytes32"}],"stateMutability":"view","type":"function"},{"inputs":[{"internalType":"address","name":"user","type":"address"}],"name":"getFeedInfo","outputs":[{"components":[{"internalType":"address","name":"contractAddress","type":"address"},{"internalType":"address","name":"owner","type":"address"},{"internalType":"uint256","name":"sellerStake","type":"uint256"},{"internalType":"uint256","name":"buyerStake","type":"uint256"},{"internalType":"uint256","name":"totalStake","type":"uint256"},{"internalType":"uint256","name":"postCount","type":"uint256"},{"internalType":"uint256","name":"paymentRequested","type":"uint256"},{"internalType":"uint256","name":"stakeRequested","type":"uint256"},{"internalType":"enum Structures.PostStatus","name":"status","type":"uint8"},{"internalType":"enum Structures.Tokens","name":"tokenId","type":"uint8"},{"internalType":"string","name":"version","type":"string"},{"internalType":"bytes32","name":"postId","type":"bytes32"}],"internalType":"struct Structures.Feed","name":"","type":"tuple"}],"stateMutability":"view","type":"function"},{"inputs":[],"name":"getFeeds","outputs":[{"internalType":"address[]","name":"","type":"address[]"}],"stateMutability":"view","type":"function"},{"inputs":[],"name":"getFeedsInfo","outputs":[{"components":[{"internalType":"address","name":"contractAddress","type":"address"},{"internalType":"address","name":"owner","type":"address"},{"internalType":"uint256","name":"sellerStake","type":"uint256"},{"internalType":"uint256","name":"buyerStake","type":"uint256"},{"internalType":"uint256","name":"totalStake","type":"uint256"},{"internalType":"uint256","name":"postCount","type":"uint256"},{"internalType":"uint256","name":"paymentRequested","type":"uint256"},{"internalType":"uint256","name":"stakeRequested","type":"uint256"},{"internalType":"enum Structures.PostStatus","name":"status","type":"uint8"},{"internalType":"enum Structures.Tokens","name":"tokenId","type":"uint8"},{"internalType":"string","name":"version","type":"string"},{"internalType":"bytes32","name":"postId","type":"bytes32"}],"internalType":"struct Structures.Feed[]","name":"","type":"tuple[]"}],"stateMutability":"view","type":"function"},{"inputs":[{"internalType":"address","name":"user","type":"address"}],"name":"getFeedsInfoOwned","outputs":[{"components":[{"internalType":"address","name":"contractAddress","type":"address"},{"internalType":"address","name":"owner","type":"address"},{"internalType":"uint256","name":"sellerStake","type":"uint256"},{"internalType":"uint256","name":"buyerStake","type":"uint256"},{"internalType":"uint256","name":"totalStake","type":"uint256"},{"internalType":"uint256","name":"postCount","type":"uint256"},{"internalType":"uint256","name":"paymentRequested","type":"uint256"},{"internalType":"uint256","name":"stakeRequested","type":"uint256"},{"internalType":"enum Structures.PostStatus","name":"status","type":"uint8"},{"internalType":"enum Structures.Tokens","name":"tokenId","type":"uint8"},{"internalType":"string","name":"version","type":"string"},{"internalType":"bytes32","name":"postId","type":"bytes32"}],"internalType":"struct Structures.Feed[]","name":"","type":"tuple[]"}],"stateMutability":"view","type":"function"},{"inputs":[{"internalType":"address","name":"user","type":"address"}],"name":"getFeedsOwned","outputs":[{"internalType":"address[]","name":"","type":"address[]"}],"stateMutability":"view","type":"function"},{"inputs":[{"internalType":"uint256","name":"tokenId","type":"uint256"}],"name":"getRouterFee","outputs":[{"internalType":"uint24","name":"","type":"uint24"}],"stateMutability":"view","type":"function"},{"inputs":[],"name":"implementation","outputs":[{"internalType":"address","name":"","type":"address"}],"stateMutability":"view","type":"function"},{"inputs":[{"internalType":"address","name":"_proxyCallContract","type":"address"},{"internalType":"address","name":"_usersModuleContract","type":"address"},{"internalType":"address","name":"_treasuryContract","type":"address"},{"internalType":"address","name":"_easContract","type":"address"},{"internalType":"bytes32","name":"_easSchema","type":"bytes32"},{"internalType":"address","name":"_wethToken","type":"address"},{"internalType":"address","name":"_museToken","type":"address"},{"internalType":"address","name":"_daiToken","type":"address"},{"internalType":"address","name":"_router","type":"address"}],"name":"initialize","outputs":[],"stateMutability":"nonpayable","type":"function"},{"inputs":[{"internalType":"address","name":"contractAddress","type":"address"}],"name":"isContractCreated","outputs":[{"internalType":"bool","name":"","type":"bool"}],"stateMutability":"view","type":"function"},{"inputs":[{"internalType":"address","name":"newFeed","type":"address"}],"name":"isFeed","outputs":[{"internalType":"bool","name":"","type":"bool"}],"stateMutability":"view","type":"function"},{"inputs":[],"name":"major","outputs":[{"internalType":"uint256","name":"","type":"uint256"}],"stateMutability":"view","type":"function"},{"inputs":[],"name":"minor","outputs":[{"internalType":"uint256","name":"","type":"uint256"}],"stateMutability":"view","type":"function"},{"inputs":[],"name":"museToken","outputs":[{"internalType":"address","name":"","type":"address"}],"stateMutability":"view","type":"function"},{"inputs":[],"name":"owner","outputs":[{"internalType":"address","name":"","type":"address"}],"stateMutability":"view","type":"function"},{"inputs":[],"name":"patch","outputs":[{"internalType":"uint256","name":"","type":"uint256"}],"stateMutability":"view","type":"function"},{"inputs":[],"name":"proxyCallContract","outputs":[{"internalType":"contract IProxyCall","name":"","type":"address"}],"stateMutability":"view","type":"function"},{"inputs":[],"name":"renounceOwnership","outputs":[],"stateMutability":"nonpayable","type":"function"},{"inputs":[],"name":"router","outputs":[{"internalType":"address","name":"","type":"address"}],"stateMutability":"view","type":"function"},{"inputs":[{"internalType":"bool","name":"newBurnEnabled","type":"bool"}],"name":"setBurnEnabled","outputs":[],"stateMutability":"nonpayable","type":"function"},{"inputs":[{"internalType":"uint256","name":"tokenId","type":"uint256"},{"internalType":"uint24","name":"fee","type":"uint24"}],"name":"setRouterFee","outputs":[],"stateMutability":"nonpayable","type":"function"},{"inputs":[{"internalType":"address","name":"newOwner","type":"address"}],"name":"transferOwnership","outputs":[],"stateMutability":"nonpayable","type":"function"},{"inputs":[],"name":"treasuryContract","outputs":[{"internalType":"address","name":"","type":"address"}],"stateMutability":"view","type":"function"},{"inputs":[],"name":"wethToken","outputs":[{"internalType":"address","name":"","type":"address"}],"stateMutability":"view","type":"function"}],"devdoc":{"events":{"Initialized(uint8)":{"details":"Triggered when the contract has been initialized or reinitialized."}},"kind":"dev","methods":{"owner()":{"details":"Returns the address of the current owner."},"renounceOwnership()":{"details":"Leaves the contract without owner. It will not be possible to call `onlyOwner` functions. Can only be called by the current owner. NOTE: Renouncing ownership will leave the contract without an owner, thereby disabling any functionality that is only available to the owner."},"transferOwnership(address)":{"details":"Transfers ownership of the contract to a new account (`newOwner`). Can only be called by the current owner."}},"version":1},"evm":{"bytecode":{"linkReferences":{},"object":"608080604052346100205760ff1960755416607555611cd690816100268239f35b600080fdfe608060408181526004918236101561001657600080fd5b600092833560e01c918263067bd3b4146110d95750816318da0011146110b05781633ec4f23d1461109157816349975235146110725781634b57b0be146110495781635978e9b01461101c5781635c60da1b14610ff35781635dc96d1614610fcf5781636a3f9c3014610f86578163715018a614610f295781637b2c835f14610ef25781637fe955d414610e7857816380ca11fc14610e4f5781638da5cb5b14610e265781639496d7f114610d5f578163a17bb19914610d35578163ad86132414610cbb578163b19bcb5814610b0c578163b2a2e9ca14610a8e578163bb7e364814610a65578163bb834b0e14610a46578163be22f54614610a1d578163ca5b4e5c14610638578163cd77b52c1461060f578163cedf3ba214610327578163d024dda81461036f578163d570a66d1461032c578163e58fdd0414610327578163e86ef35314610297578163f2fde38b1461020157508063f77800e5146101d9578063f86d0b38146101bb5763f887ea401461019057600080fd5b346101b757816003193601126101b75760715490516001600160a01b039091168152602090f35b5080fd5b50346101b757816003193601126101b7576020906077549051908152f35b50346101b757816003193601126101b757606e5490516001600160a01b039091168152602090f35b9050346102935760203660031901126102935761021c611139565b91610225611353565b6001600160a01b03831615610241578361023e846113ab565b80f35b906020608492519162461bcd60e51b8352820152602660248201527f4f776e61626c653a206e6577206f776e657220697320746865207a65726f206160448201526564647265737360d01b6064820152fd5b8280fd5b5050346101b757816003193601126101b75780518092606854808352602080930192606883527fa2153420d844928b4421650203c77babc8b33d7f2e7b450e2966db0c2209775392905b8282106103105761030c86610301896102fc818a038261147e565b611c04565b9051918291826112b5565b0390f35b8354855293840193600193840193909101906102e1565b611317565b5050346101b75760203660031901126101b75761030c9061035c61034e611139565b61035661160b565b50611730565b90519182916020835260208301906111e0565b905034610293576101203660031901126102935761038b611139565b61039361114f565b9061039c611165565b6001600160a01b0391906064358381169081900361060a576103bc61117b565b6103c4611191565b906103cd6111a7565b92610104359487861680960361060a578b549960ff8b60081c16159a8b809c6105fd575b80156105e6575b1561058c5760ff8e61043f928e60018419831617835561057b575b5061042c82825460081c16610427816113f4565b6113f4565b610435336113ab565b5460081c166113f4565b610448336113ab565b610450611353565b331561052957508794939192859384809361046a336113ab565b6104738b611678565b816001600160601b0360a01b9d168d606b541617606b55168b606a541617606a558a606c541617606c55608435606d55168860705416176070551686606e541617606e551684606f541617606f558360715416176071551681606554161760655533906067541617606755600260775582607855826079556104f3575080f35b60207f7f26b83ff96e1f2b6a682f133852f6798a09c465da95921460cefb38474024989161ff001984541684555160018152a180f35b60849060208d519162461bcd60e51b8352820152602660248201527f4f776e61626c653a206e6577206f776e657220697320746865207a65726f206160448201526564647265737360d01b6064820152fd5b61ffff191661010117815538610413565b8c5162461bcd60e51b8152602081840152602e60248201527f496e697469616c697a61626c653a20636f6e747261637420697320616c72656160448201526d191e481a5b9a5d1a585b1a5e995960921b6064820152608490fd5b50303b1580156103f85750600160ff8216146103f8565b50600160ff8216106103f1565b600080fd5b5050346101b757816003193601126101b757606c5490516001600160a01b039091168152602090f35b8383816003193601126101b75780516bffffffffffffffffffffffff193360601b16602080830191825242603480850191909152835294601f19939290919061068260548261147e565b5190206066549360018201809211610a0a5783513360601b6bffffffffffffffffffffffff191688820190815260148101939093526e5af43d82803e903d91602b57fd5bf392916106de9082603485010390810183528261147e565b519020608885901c62ffffff16763d602d80600a3d3981f3363d3d373d3d3d363d7300000017865260789490941b6effffffffffffffffffffffffffffff19161785526001600160a01b039283906037600987f5169283156109c85780606b541660775460785491607954873b156109c45786516339466de560e11b8152338782019081523060208201526001600160a01b0390931660408401526060830193909352608082019390935260a08101929092529086908290819060c001038183895af18015610930579086916109ac575b505060248682606b541685519283809263122643f360e21b825233888301525afa908115610930578691610972575b501561093a57606a541682516391792d5b60e01b815286818481855afa908115610930578691610903575b5034106108d057848080809334905af13d156108cb573d610829816114c3565b906108368551928361147e565b815285873d92013e5b1561089c57507fb658664a46408e6670a38ec7ea8b7614c9e2916184dff2fad99d3a7a3491ca7d82916108736076546114df565b60765561087f836114ee565b503385526074865261089383828720611586565b50519380a28152f35b84606492519162461bcd60e51b8352820152600b60248201526a10d0531317d1905253115160aa1b6044820152fd5b61083f565b5084606492519162461bcd60e51b8352820152600e60248201526d4e4f545f454e4f5547485f46454560901b6044820152fd5b90508681813d8311610929575b61091a818361147e565b8101031261060a575187610809565b503d610910565b84513d88823e3d90fd5b5084606492519162461bcd60e51b835282015260136024820152721d5cd95c88191bd95cc81b9bdd08195e1a5cdd606a1b6044820152fd5b90508681813d83116109a5575b610989818361147e565b810103126109a1575180151581036109a157876107de565b8580fd5b503d61097f565b6109b590611454565b6109c05784876107af565b8480fd5b8880fd5b5084606492519162461bcd60e51b8352820152601760248201527f455243313136373a2063726561746532206661696c65640000000000000000006044820152fd5b634e487b7160e01b865260118352602486fd5b5050346101b757816003193601126101b757606f5490516001600160a01b039091168152602090f35b5050346101b757816003193601126101b7576020906078549051908152f35b5050346101b757816003193601126101b75760655490516001600160a01b039091168152602090f35b5050346101b75760209081600319360112610293576001600160a01b03610ab3611139565b168352607482528083209281518093808654928381520195835280832092905b828210610af55761030c8686610aeb828b038361147e565b51918291826110f5565b835487529586019560019384019390910190610ad3565b8383346101b75760803660031901126101b757610b27611139565b906024356044359060643592610b3b611353565b843b15610c6a5760018060a01b0380951694856001600160601b0360a01b6066541617606655826077558360785584607955606b5416853b15610c665781516339466de560e11b815233818a019081523060208201526001600160a01b039092166040830152606082018490526080820185905260a08201869052919087908390819060c0010381838a5af1908115610c5d5750610c4a575b5061271090818102918183041490151715610c3757606482029180830460641490151715610c3757610c0f9291610c0a916114a0565b6114a0565b907f5678af47993f4856157dd819bee3183b87c10ee1b3575a5128fe25896c073a288380a380f35b634e487b7160e01b855260118652602485fd5b610c5690959195611454565b9386610bd4565b513d88823e3d90fd5b8680fd5b5162461bcd60e51b8152602081880152602660248201527f6e616c693a20696d706c656d656e746174696f6e206973206e6f74206120636f6044820152651b9d1c9858dd60d21b6064820152608490fd5b5050346101b75760209182600319360112610d32576001600160a01b03610ce0611139565b168152607483528181209082518094808454928381520193835280832092905b828210610d1b5761030c86610301896102fc818a038261147e565b835485529384019360019384019390910190610d00565b80fd5b8334610d32576020366003190112610d325761023e610d52611139565b610d5a611353565b611678565b8334610d3257610100366003190112610d3257610d7a611139565b610d8261114f565b610d8a611165565b6001600160a01b03919060843583811691908290036109a157838092610dae61117b565b9082610db8611191565b9481610dc26111a7565b98610dcb611353565b816001600160601b0360a01b9c168c606a541617606a55168a606b541617606b551688606c541617606c55606435606d558760705416176070551685606e541617606e551683606f541617606f551690607154161760715580f35b5050346101b757816003193601126101b75760335490516001600160a01b039091168152602090f35b5050346101b757816003193601126101b75760675490516001600160a01b039091168152602090f35b828434610d325780600319360112610d32578151918291606854808552602080950194606883527fa2153420d844928b4421650203c77babc8b33d7f2e7b450e2966db0c2209775392905b828210610edb5761030c8686610aeb828b038361147e565b835487529586019560019384019390910190610ec3565b8390346101b75760203660031901126101b757358015158091036101b757610f18611353565b60ff80196075541691161760755580f35b8334610d325780600319360112610d3257610f42611353565b603380546001600160a01b0319811690915581906001600160a01b03167f8be0079c531659141344cd1fd0a4f28419497f9722a3daafe3b4186f6b6457e08280a380f35b919050346102935780600319360112610293576024359162ffffff8316809303610fcb57610fb2611353565b358352607360205282209062ffffff1982541617905580f35b8380fd5b5050346101b757816003193601126101b75760209060ff6075541690519015158152f35b5050346101b757816003193601126101b75760665490516001600160a01b039091168152602090f35b905034610293576020366003190112610293578160209362ffffff92358152607385522054169051908152f35b5050346101b757816003193601126101b75760705490516001600160a01b039091168152602090f35b5050346101b757816003193601126101b7576020906079549051908152f35b5050346101b757816003193601126101b757602090606d549051908152f35b5050346101b757816003193601126101b757606a5490516001600160a01b039091168152602090f35b8490346101b757816003193601126101b7576020906076548152f35b6020908160408183019282815285518094520193019160005b82811061111c575050505090565b83516001600160a01b03168552938101939281019260010161110e565b600435906001600160a01b038216820361060a57565b602435906001600160a01b038216820361060a57565b604435906001600160a01b038216820361060a57565b60a435906001600160a01b038216820361060a57565b60c435906001600160a01b038216820361060a57565b60e435906001600160a01b038216820361060a57565b60005b8381106111d05750506000910152565b81810151838201526020016111c0565b9060018060a01b03808351168252602083015116602082015260408201516040820152606082015160608201526080820151608082015260a082015160a082015260c082015160c082015260e082015160e08201526101008083015190600882101561129f578201526101208083015190600382101561129f578201526101408083015192610180809284015283518092840152611288826101a095602087870191016111bd565b6101609081015190830152601f01601f1916010190565b634e487b7160e01b600052602160045260246000fd5b602080820190808352835180925260408301928160408460051b8301019501936000915b8483106112e95750505050505090565b9091929394958480611307600193603f198682030187528a516111e0565b98019301930191949392906112d9565b3461060a57602036600319011261060a576001600160a01b03611338611139565b16600052606960205260206040600020541515604051908152f35b6033546001600160a01b0316330361136757565b606460405162461bcd60e51b815260206004820152602060248201527f4f776e61626c653a2063616c6c6572206973206e6f7420746865206f776e65726044820152fd5b603380546001600160a01b039283166001600160a01b0319821681179092559091167f8be0079c531659141344cd1fd0a4f28419497f9722a3daafe3b4186f6b6457e0600080a3565b156113fb57565b60405162461bcd60e51b815260206004820152602b60248201527f496e697469616c697a61626c653a20636f6e7472616374206973206e6f74206960448201526a6e697469616c697a696e6760a81b6064820152608490fd5b67ffffffffffffffff811161146857604052565b634e487b7160e01b600052604160045260246000fd5b90601f8019910116810190811067ffffffffffffffff82111761146857604052565b919082018092116114ad57565b634e487b7160e01b600052601160045260246000fd5b67ffffffffffffffff811161146857601f01601f191660200190565b60001981146114ad5760010190565b60008181526069602052604081205461158157606854600160401b81101561156d5760018101806068558110156115595790826040927fa2153420d844928b4421650203c77babc8b33d7f2e7b450e2966db0c22097753015560685492815260696020522055600190565b634e487b7160e01b82526032600452602482fd5b634e487b7160e01b82526041600452602482fd5b905090565b9190600183016000908282528060205260408220541560001461160557845494600160401b8610156115f157600186018082558610156115dd57836040949596828552602085200155549382526020522055600190565b634e487b7160e01b83526032600452602483fd5b634e487b7160e01b83526041600452602483fd5b50925050565b60405190610180820182811067ffffffffffffffff82111761146857604052816101606000918281528260208201528260408201528260608201528260808201528260a08201528260c08201528260e0820152826101008201528261012082015260606101408201520152565b803b156116c557606580546001600160a01b0319166001600160a01b039290921691821790557f7213e3d637e4ef4968f947d5f602103307355f708bfd5bfce9d87da7c78f8521600080a2565b60405162461bcd60e51b815260206004820152603a60248201527f464e44436f6c6c656374696f6e466163746f72793a2050726f78792063616c6c60448201527f2061646472657373206973206e6f74206120636f6e74726163740000000000006064820152608490fd5b61173861160b565b5061174161160b565b6001600160a01b0391821680825260408051638da5cb5b60e01b81529293600493919260209290919083818781865afa908115611bb757600091611b81575b5016858301528251635c63ed6960e01b815282818681855afa9081156119e757600091611b54575b50858401528251634c38d87760e01b815282818681855afa9081156119e757600091611b27575b506060860152825163048bf3bb60e11b815282818681855afa9081156119e757600091611afa575b5060808601528251630bc8361760e11b815282818681855afa9081156119e757600091611acd575b5060a0860152825163d24e0c8760e01b815282818681855afa9081156119e757600091611aa0575b5060c0860152825163faeb5e1760e01b815282818681855afa9081156119e757600091611a73575b5060e086015282516302734eab60e51b815282818681855afa9081156119e757600091611a3d575b5060088110156119f257610100860152825163010a38f560e01b815282818681855afa9081156119e757600091611a07575b5060038110156119f257610120860152825163054fd4d560e41b81526000818681855afa9081156119e7579083929160009161196b575b5061014087015283516332946a8760e01b815294859182905afa9182156119615750600091611935575b506101608301525090565b82813d831161195a575b611949818361147e565b81010312610d32575051803861192a565b503d61193f565b513d6000823e3d90fd5b9192503d8082843e61197d818461147e565b82019184818403126101b75780519067ffffffffffffffff8211610293570182601f820112156101b7578051916119b3836114c3565b936119c08851958661147e565b838552868484010111610d32575082916119e19186808097960191016111bd565b38611900565b84513d6000823e3d90fd5b602185634e487b7160e01b6000525260246000fd5b8381813d8311611a36575b611a1c818361147e565b810103126101b75751906003821015610d325750386118c9565b503d611a12565b8381813d8311611a6c575b611a52818361147e565b810103126101b75751906008821015610d32575038611897565b503d611a48565b908382813d8311611a99575b611a89818361147e565b81010312610d325750513861186f565b503d611a7f565b908382813d8311611ac6575b611ab6818361147e565b81010312610d3257505138611847565b503d611aac565b908382813d8311611af3575b611ae3818361147e565b81010312610d325750513861181f565b503d611ad9565b908382813d8311611b20575b611b10818361147e565b81010312610d32575051386117f7565b503d611b06565b908382813d8311611b4d575b611b3d818361147e565b81010312610d32575051386117cf565b503d611b33565b908382813d8311611b7a575b611b6a818361147e565b81010312610d32575051386117a8565b503d611b60565b8481813d8311611bb0575b611b96818361147e565b810103126101b75751908282168203610d32575038611780565b503d611b8c565b85513d6000823e3d90fd5b67ffffffffffffffff81116114685760051b60200190565b8051821015611bee5760209160051b010190565b634e487b7160e01b600052603260045260246000fd5b8051611c0f81611bc2565b91611c1d604051938461147e565b818352601f19611c2c83611bc2565b0160005b818110611c8957505060005b828110611c495750505090565b611c8490611c696001600160a01b03611c628386611bda565b5116611730565b611c738287611bda565b52611c7e8186611bda565b506114df565b611c3c565b602090611c9461160b565b82828801015201611c3056fea26469706673582212201550a7d1c3183f82d266fea7c3ca83126c5ee7f08f120aecb1e8cf8d492f2a2a64736f6c63430008130033","opcodes":"PUSH1 0x80 DUP1 PUSH1 0x40 MSTORE CALLVALUE PUSH2 0x20 JUMPI PUSH1 0xFF NOT PUSH1 0x75 SLOAD AND PUSH1 0x75 SSTORE PUSH2 0x1CD6 SWAP1 DUP2 PUSH2 0x26 DUP3 CODECOPY RETURN JUMPDEST PUSH1 0x0 DUP1 REVERT INVALID PUSH1 0x80 PUSH1 0x40 DUP2 DUP2 MSTORE PUSH1 0x4 SWAP2 DUP3 CALLDATASIZE LT ISZERO PUSH2 0x16 JUMPI PUSH1 0x0 DUP1 REVERT JUMPDEST PUSH1 0x0 SWAP3 DUP4 CALLDATALOAD PUSH1 0xE0 SHR SWAP2 DUP3 PUSH4 0x67BD3B4 EQ PUSH2 0x10D9 JUMPI POP DUP2 PUSH4 0x18DA0011 EQ PUSH2 0x10B0 JUMPI DUP2 PUSH4 0x3EC4F23D EQ PUSH2 0x1091 JUMPI DUP2 PUSH4 0x49975235 EQ PUSH2 0x1072 JUMPI DUP2 PUSH4 0x4B57B0BE EQ PUSH2 0x1049 JUMPI DUP2 PUSH4 0x5978E9B0 EQ PUSH2 0x101C JUMPI DUP2 PUSH4 0x5C60DA1B EQ PUSH2 0xFF3 JUMPI DUP2 PUSH4 0x5DC96D16 EQ PUSH2 0xFCF JUMPI DUP2 PUSH4 0x6A3F9C30 EQ PUSH2 0xF86 JUMPI DUP2 PUSH4 0x715018A6 EQ PUSH2 0xF29 JUMPI DUP2 PUSH4 0x7B2C835F EQ PUSH2 0xEF2 JUMPI DUP2 PUSH4 0x7FE955D4 EQ PUSH2 0xE78 JUMPI DUP2 PUSH4 0x80CA11FC EQ PUSH2 0xE4F JUMPI DUP2 PUSH4 0x8DA5CB5B EQ PUSH2 0xE26 JUMPI DUP2 PUSH4 0x9496D7F1 EQ PUSH2 0xD5F JUMPI DUP2 PUSH4 0xA17BB199 EQ PUSH2 0xD35 JUMPI DUP2 PUSH4 0xAD861324 EQ PUSH2 0xCBB JUMPI DUP2 PUSH4 0xB19BCB58 EQ PUSH2 0xB0C JUMPI DUP2 PUSH4 0xB2A2E9CA EQ PUSH2 0xA8E JUMPI DUP2 PUSH4 0xBB7E3648 EQ PUSH2 0xA65 JUMPI DUP2 PUSH4 0xBB834B0E EQ PUSH2 0xA46 JUMPI DUP2 PUSH4 0xBE22F546 EQ PUSH2 0xA1D JUMPI DUP2 PUSH4 0xCA5B4E5C EQ PUSH2 0x638 JUMPI DUP2 PUSH4 0xCD77B52C EQ PUSH2 0x60F JUMPI DUP2 PUSH4 0xCEDF3BA2 EQ PUSH2 0x327 JUMPI DUP2 PUSH4 0xD024DDA8 EQ PUSH2 0x36F JUMPI DUP2 PUSH4 0xD570A66D EQ PUSH2 0x32C JUMPI DUP2 PUSH4 0xE58FDD04 EQ PUSH2 0x327 JUMPI DUP2 PUSH4 0xE86EF353 EQ PUSH2 0x297 JUMPI DUP2 PUSH4 0xF2FDE38B EQ PUSH2 0x201 JUMPI POP DUP1 PUSH4 0xF77800E5 EQ PUSH2 0x1D9 JUMPI DUP1 PUSH4 0xF86D0B38 EQ PUSH2 0x1BB JUMPI PUSH4 0xF887EA40 EQ PUSH2 0x190 JUMPI PUSH1 0x0 DUP1 REVERT JUMPDEST CALLVALUE PUSH2 0x1B7 JUMPI DUP2 PUSH1 0x3 NOT CALLDATASIZE ADD SLT PUSH2 0x1B7 JUMPI PUSH1 0x71 SLOAD SWAP1 MLOAD PUSH1 0x1 PUSH1 0x1 PUSH1 0xA0 SHL SUB SWAP1 SWAP2 AND DUP2 MSTORE PUSH1 0x20 SWAP1 RETURN JUMPDEST POP DUP1 REVERT JUMPDEST POP CALLVALUE PUSH2 0x1B7 JUMPI DUP2 PUSH1 0x3 NOT CALLDATASIZE ADD SLT PUSH2 0x1B7 JUMPI PUSH1 0x20 SWAP1 PUSH1 0x77 SLOAD SWAP1 MLOAD SWAP1 DUP2 MSTORE RETURN JUMPDEST POP CALLVALUE PUSH2 0x1B7 JUMPI DUP2 PUSH1 0x3 NOT CALLDATASIZE ADD SLT PUSH2 0x1B7 JUMPI PUSH1 0x6E SLOAD SWAP1 MLOAD PUSH1 0x1 PUSH1 0x1 PUSH1 0xA0 SHL SUB SWAP1 SWAP2 AND DUP2 MSTORE PUSH1 0x20 SWAP1 RETURN JUMPDEST SWAP1 POP CALLVALUE PUSH2 0x293 JUMPI PUSH1 0x20 CALLDATASIZE PUSH1 0x3 NOT ADD SLT PUSH2 0x293 JUMPI PUSH2 0x21C PUSH2 0x1139 JUMP JUMPDEST SWAP2 PUSH2 0x225 PUSH2 0x1353 JUMP JUMPDEST PUSH1 0x1 PUSH1 0x1 PUSH1 0xA0 SHL SUB DUP4 AND ISZERO PUSH2 0x241 JUMPI DUP4 PUSH2 0x23E DUP5 PUSH2 0x13AB JUMP JUMPDEST DUP1 RETURN JUMPDEST SWAP1 PUSH1 0x20 PUSH1 0x84 SWAP3 MLOAD SWAP2 PUSH3 0x461BCD PUSH1 0xE5 SHL DUP4 MSTORE DUP3 ADD MSTORE PUSH1 0x26 PUSH1 0x24 DUP3 ADD MSTORE PUSH32 0x4F776E61626C653A206E6577206F776E657220697320746865207A65726F2061 PUSH1 0x44 DUP3 ADD MSTORE PUSH6 0x646472657373 PUSH1 0xD0 SHL PUSH1 0x64 DUP3 ADD MSTORE REVERT JUMPDEST DUP3 DUP1 REVERT JUMPDEST POP POP CALLVALUE PUSH2 0x1B7 JUMPI DUP2 PUSH1 0x3 NOT CALLDATASIZE ADD SLT PUSH2 0x1B7 JUMPI DUP1 MLOAD DUP1 SWAP3 PUSH1 0x68 SLOAD DUP1 DUP4 MSTORE PUSH1 0x20 DUP1 SWAP4 ADD SWAP3 PUSH1 0x68 DUP4 MSTORE PUSH32 0xA2153420D844928B4421650203C77BABC8B33D7F2E7B450E2966DB0C22097753 SWAP3 SWAP1 JUMPDEST DUP3 DUP3 LT PUSH2 0x310 JUMPI PUSH2 0x30C DUP7 PUSH2 0x301 DUP10 PUSH2 0x2FC DUP2 DUP11 SUB DUP3 PUSH2 0x147E JUMP JUMPDEST PUSH2 0x1C04 JUMP JUMPDEST SWAP1 MLOAD SWAP2 DUP3 SWAP2 DUP3 PUSH2 0x12B5 JUMP JUMPDEST SUB SWAP1 RETURN JUMPDEST DUP4 SLOAD DUP6 MSTORE SWAP4 DUP5 ADD SWAP4 PUSH1 0x1 SWAP4 DUP5 ADD SWAP4 SWAP1 SWAP2 ADD SWAP1 PUSH2 0x2E1 JUMP JUMPDEST PUSH2 0x1317 JUMP JUMPDEST POP POP CALLVALUE PUSH2 0x1B7 JUMPI PUSH1 0x20 CALLDATASIZE PUSH1 0x3 NOT ADD SLT PUSH2 0x1B7 JUMPI PUSH2 0x30C SWAP1 PUSH2 0x35C PUSH2 0x34E PUSH2 0x1139 JUMP JUMPDEST PUSH2 0x356 PUSH2 0x160B JUMP JUMPDEST POP PUSH2 0x1730 JUMP JUMPDEST SWAP1 MLOAD SWAP2 DUP3 SWAP2 PUSH1 0x20 DUP4 MSTORE PUSH1 0x20 DUP4 ADD SWAP1 PUSH2 0x11E0 JUMP JUMPDEST SWAP1 POP CALLVALUE PUSH2 0x293 JUMPI PUSH2 0x120 CALLDATASIZE PUSH1 0x3 NOT ADD SLT PUSH2 0x293 JUMPI PUSH2 0x38B PUSH2 0x1139 JUMP JUMPDEST PUSH2 0x393 PUSH2 0x114F JUMP JUMPDEST SWAP1 PUSH2 0x39C PUSH2 0x1165 JUMP JUMPDEST PUSH1 0x1 PUSH1 0x1 PUSH1 0xA0 SHL SUB SWAP2 SWAP1 PUSH1 0x64 CALLDATALOAD DUP4 DUP2 AND SWAP1 DUP2 SWAP1 SUB PUSH2 0x60A JUMPI PUSH2 0x3BC PUSH2 0x117B JUMP JUMPDEST PUSH2 0x3C4 PUSH2 0x1191 JUMP JUMPDEST SWAP1 PUSH2 0x3CD PUSH2 0x11A7 JUMP JUMPDEST SWAP3 PUSH2 0x104 CALLDATALOAD SWAP5 DUP8 DUP7 AND DUP1 SWAP7 SUB PUSH2 0x60A JUMPI DUP12 SLOAD SWAP10 PUSH1 0xFF DUP12 PUSH1 0x8 SHR AND ISZERO SWAP11 DUP12 DUP1 SWAP13 PUSH2 0x5FD JUMPI JUMPDEST DUP1 ISZERO PUSH2 0x5E6 JUMPI JUMPDEST ISZERO PUSH2 0x58C JUMPI PUSH1 0xFF DUP15 PUSH2 0x43F SWAP3 DUP15 PUSH1 0x1 DUP5 NOT DUP4 AND OR DUP4 SSTORE PUSH2 0x57B JUMPI JUMPDEST POP PUSH2 0x42C DUP3 DUP3 SLOAD PUSH1 0x8 SHR AND PUSH2 0x427 DUP2 PUSH2 0x13F4 JUMP JUMPDEST PUSH2 0x13F4 JUMP JUMPDEST PUSH2 0x435 CALLER PUSH2 0x13AB JUMP JUMPDEST SLOAD PUSH1 0x8 SHR AND PUSH2 0x13F4 JUMP JUMPDEST PUSH2 0x448 CALLER PUSH2 0x13AB JUMP JUMPDEST PUSH2 0x450 PUSH2 0x1353 JUMP JUMPDEST CALLER ISZERO PUSH2 0x529 JUMPI POP DUP8 SWAP5 SWAP4 SWAP2 SWAP3 DUP6 SWAP4 DUP5 DUP1 SWAP4 PUSH2 0x46A CALLER PUSH2 0x13AB JUMP JUMPDEST PUSH2 0x473 DUP12 PUSH2 0x1678 JUMP JUMPDEST DUP2 PUSH1 0x1 PUSH1 0x1 PUSH1 0x60 SHL SUB PUSH1 0xA0 SHL SWAP14 AND DUP14 PUSH1 0x6B SLOAD AND OR PUSH1 0x6B SSTORE AND DUP12 PUSH1 0x6A SLOAD AND OR PUSH1 0x6A SSTORE DUP11 PUSH1 0x6C SLOAD AND OR PUSH1 0x6C SSTORE PUSH1 0x84 CALLDATALOAD PUSH1 0x6D SSTORE AND DUP9 PUSH1 0x70 SLOAD AND OR PUSH1 0x70 SSTORE AND DUP7 PUSH1 0x6E SLOAD AND OR PUSH1 0x6E SSTORE AND DUP5 PUSH1 0x6F SLOAD AND OR PUSH1 0x6F SSTORE DUP4 PUSH1 0x71 SLOAD AND OR PUSH1 0x71 SSTORE AND DUP2 PUSH1 0x65 SLOAD AND OR PUSH1 0x65 SSTORE CALLER SWAP1 PUSH1 0x67 SLOAD AND OR PUSH1 0x67 SSTORE PUSH1 0x2 PUSH1 0x77 SSTORE DUP3 PUSH1 0x78 SSTORE DUP3 PUSH1 0x79 SSTORE PUSH2 0x4F3 JUMPI POP DUP1 RETURN JUMPDEST PUSH1 0x20 PUSH32 0x7F26B83FF96E1F2B6A682F133852F6798A09C465DA95921460CEFB3847402498 SWAP2 PUSH2 0xFF00 NOT DUP5 SLOAD AND DUP5 SSTORE MLOAD PUSH1 0x1 DUP2 MSTORE LOG1 DUP1 RETURN JUMPDEST PUSH1 0x84 SWAP1 PUSH1 0x20 DUP14 MLOAD SWAP2 PUSH3 0x461BCD PUSH1 0xE5 SHL DUP4 MSTORE DUP3 ADD MSTORE PUSH1 0x26 PUSH1 0x24 DUP3 ADD MSTORE PUSH32 0x4F776E61626C653A206E6577206F776E657220697320746865207A65726F2061 PUSH1 0x44 DUP3 ADD MSTORE PUSH6 0x646472657373 PUSH1 0xD0 SHL PUSH1 0x64 DUP3 ADD MSTORE REVERT JUMPDEST PUSH2 0xFFFF NOT AND PUSH2 0x101 OR DUP2 SSTORE CODESIZE PUSH2 0x413 JUMP JUMPDEST DUP13 MLOAD PUSH3 0x461BCD PUSH1 0xE5 SHL DUP2 MSTORE PUSH1 0x20 DUP2 DUP5 ADD MSTORE PUSH1 0x2E PUSH1 0x24 DUP3 ADD MSTORE PUSH32 0x496E697469616C697A61626C653A20636F6E747261637420697320616C726561 PUSH1 0x44 DUP3 ADD MSTORE PUSH14 0x191E481A5B9A5D1A585B1A5E9959 PUSH1 0x92 SHL PUSH1 0x64 DUP3 ADD MSTORE PUSH1 0x84 SWAP1 REVERT JUMPDEST POP ADDRESS EXTCODESIZE ISZERO DUP1 ISZERO PUSH2 0x3F8 JUMPI POP PUSH1 0x1 PUSH1 0xFF DUP3 AND EQ PUSH2 0x3F8 JUMP JUMPDEST POP PUSH1 0x1 PUSH1 0xFF DUP3 AND LT PUSH2 0x3F1 JUMP JUMPDEST PUSH1 0x0 DUP1 REVERT JUMPDEST POP POP CALLVALUE PUSH2 0x1B7 JUMPI DUP2 PUSH1 0x3 NOT CALLDATASIZE ADD SLT PUSH2 0x1B7 JUMPI PUSH1 0x6C SLOAD SWAP1 MLOAD PUSH1 0x1 PUSH1 0x1 PUSH1 0xA0 SHL SUB SWAP1 SWAP2 AND DUP2 MSTORE PUSH1 0x20 SWAP1 RETURN JUMPDEST DUP4 DUP4 DUP2 PUSH1 0x3 NOT CALLDATASIZE ADD SLT PUSH2 0x1B7 JUMPI DUP1 MLOAD PUSH12 0xFFFFFFFFFFFFFFFFFFFFFFFF NOT CALLER PUSH1 0x60 SHL AND PUSH1 0x20 DUP1 DUP4 ADD SWAP2 DUP3 MSTORE TIMESTAMP PUSH1 0x34 DUP1 DUP6 ADD SWAP2 SWAP1 SWAP2 MSTORE DUP4 MSTORE SWAP5 PUSH1 0x1F NOT SWAP4 SWAP3 SWAP1 SWAP2 SWAP1 PUSH2 0x682 PUSH1 0x54 DUP3 PUSH2 0x147E JUMP JUMPDEST MLOAD SWAP1 KECCAK256 PUSH1 0x66 SLOAD SWAP4 PUSH1 0x1 DUP3 ADD DUP1 SWAP3 GT PUSH2 0xA0A JUMPI DUP4 MLOAD CALLER PUSH1 0x60 SHL PUSH12 0xFFFFFFFFFFFFFFFFFFFFFFFF NOT AND DUP9 DUP3 ADD SWAP1 DUP2 MSTORE PUSH1 0x14 DUP2 ADD SWAP4 SWAP1 SWAP4 MSTORE PUSH15 0x5AF43D82803E903D91602B57FD5BF3 SWAP3 SWAP2 PUSH2 0x6DE SWAP1 DUP3 PUSH1 0x34 DUP6 ADD SUB SWAP1 DUP2 ADD DUP4 MSTORE DUP3 PUSH2 0x147E JUMP JUMPDEST MLOAD SWAP1 KECCAK256 PUSH1 0x88 DUP6 SWAP1 SHR PUSH3 0xFFFFFF AND PUSH23 0x3D602D80600A3D3981F3363D3D373D3D3D363D73000000 OR DUP7 MSTORE PUSH1 0x78 SWAP5 SWAP1 SWAP5 SHL PUSH15 0xFFFFFFFFFFFFFFFFFFFFFFFFFFFFFF NOT AND OR DUP6 MSTORE PUSH1 0x1 PUSH1 0x1 PUSH1 0xA0 SHL SUB SWAP3 DUP4 SWAP1 PUSH1 0x37 PUSH1 0x9 DUP8 CREATE2 AND SWAP3 DUP4 ISZERO PUSH2 0x9C8 JUMPI DUP1 PUSH1 0x6B SLOAD AND PUSH1 0x77 SLOAD PUSH1 0x78 SLOAD SWAP2 PUSH1 0x79 SLOAD DUP8 EXTCODESIZE ISZERO PUSH2 0x9C4 JUMPI DUP7 MLOAD PUSH4 0x39466DE5 PUSH1 0xE1 SHL DUP2 MSTORE CALLER DUP8 DUP3 ADD SWAP1 DUP2 MSTORE ADDRESS PUSH1 0x20 DUP3 ADD MSTORE PUSH1 0x1 PUSH1 0x1 PUSH1 0xA0 SHL SUB SWAP1 SWAP4 AND PUSH1 0x40 DUP5 ADD MSTORE PUSH1 0x60 DUP4 ADD SWAP4 SWAP1 SWAP4 MSTORE PUSH1 0x80 DUP3 ADD SWAP4 SWAP1 SWAP4 MSTORE PUSH1 0xA0 DUP2 ADD SWAP3 SWAP1 SWAP3 MSTORE SWAP1 DUP7 SWAP1 DUP3 SWAP1 DUP2 SWAP1 PUSH1 0xC0 ADD SUB DUP2 DUP4 DUP10 GAS CALL DUP1 ISZERO PUSH2 0x930 JUMPI SWAP1 DUP7 SWAP2 PUSH2 0x9AC JUMPI JUMPDEST POP POP PUSH1 0x24 DUP7 DUP3 PUSH1 0x6B SLOAD AND DUP6 MLOAD SWAP3 DUP4 DUP1 SWAP3 PUSH4 0x122643F3 PUSH1 0xE2 SHL DUP3 MSTORE CALLER DUP9 DUP4 ADD MSTORE GAS STATICCALL SWAP1 DUP2 ISZERO PUSH2 0x930 JUMPI DUP7 SWAP2 PUSH2 0x972 JUMPI JUMPDEST POP ISZERO PUSH2 0x93A JUMPI PUSH1 0x6A SLOAD AND DUP3 MLOAD PUSH4 0x91792D5B PUSH1 0xE0 SHL DUP2 MSTORE DUP7 DUP2 DUP5 DUP2 DUP6 GAS STATICCALL SWAP1 DUP2 ISZERO PUSH2 0x930 JUMPI DUP7 SWAP2 PUSH2 0x903 JUMPI JUMPDEST POP CALLVALUE LT PUSH2 0x8D0 JUMPI DUP5 DUP1 DUP1 DUP1 SWAP4 CALLVALUE SWAP1 GAS CALL RETURNDATASIZE ISZERO PUSH2 0x8CB JUMPI RETURNDATASIZE PUSH2 0x829 DUP2 PUSH2 0x14C3 JUMP JUMPDEST SWAP1 PUSH2 0x836 DUP6 MLOAD SWAP3 DUP4 PUSH2 0x147E JUMP JUMPDEST DUP2 MSTORE DUP6 DUP8 RETURNDATASIZE SWAP3 ADD RETURNDATACOPY JUMPDEST ISZERO PUSH2 0x89C JUMPI POP PUSH32 0xB658664A46408E6670A38EC7EA8B7614C9E2916184DFF2FAD99D3A7A3491CA7D DUP3 SWAP2 PUSH2 0x873 PUSH1 0x76 SLOAD PUSH2 0x14DF JUMP JUMPDEST PUSH1 0x76 SSTORE PUSH2 0x87F DUP4 PUSH2 0x14EE JUMP JUMPDEST POP CALLER DUP6 MSTORE PUSH1 0x74 DUP7 MSTORE PUSH2 0x893 DUP4 DUP3 DUP8 KECCAK256 PUSH2 0x1586 JUMP JUMPDEST POP MLOAD SWAP4 DUP1 LOG2 DUP2 MSTORE RETURN JUMPDEST DUP5 PUSH1 0x64 SWAP3 MLOAD SWAP2 PUSH3 0x461BCD PUSH1 0xE5 SHL DUP4 MSTORE DUP3 ADD MSTORE PUSH1 0xB PUSH1 0x24 DUP3 ADD MSTORE PUSH11 0x10D0531317D19052531151 PUSH1 0xAA SHL PUSH1 0x44 DUP3 ADD MSTORE REVERT JUMPDEST PUSH2 0x83F JUMP JUMPDEST POP DUP5 PUSH1 0x64 SWAP3 MLOAD SWAP2 PUSH3 0x461BCD PUSH1 0xE5 SHL DUP4 MSTORE DUP3 ADD MSTORE PUSH1 0xE PUSH1 0x24 DUP3 ADD MSTORE PUSH14 0x4E4F545F454E4F5547485F464545 PUSH1 0x90 SHL PUSH1 0x44 DUP3 ADD MSTORE REVERT JUMPDEST SWAP1 POP DUP7 DUP2 DUP2 RETURNDATASIZE DUP4 GT PUSH2 0x929 JUMPI JUMPDEST PUSH2 0x91A DUP2 DUP4 PUSH2 0x147E JUMP JUMPDEST DUP2 ADD SUB SLT PUSH2 0x60A JUMPI MLOAD DUP8 PUSH2 0x809 JUMP JUMPDEST POP RETURNDATASIZE PUSH2 0x910 JUMP JUMPDEST DUP5 MLOAD RETURNDATASIZE DUP9 DUP3 RETURNDATACOPY RETURNDATASIZE SWAP1 REVERT JUMPDEST POP DUP5 PUSH1 0x64 SWAP3 MLOAD SWAP2 PUSH3 0x461BCD PUSH1 0xE5 SHL DUP4 MSTORE DUP3 ADD MSTORE PUSH1 0x13 PUSH1 0x24 DUP3 ADD MSTORE PUSH19 0x1D5CD95C88191BD95CC81B9BDD08195E1A5CDD PUSH1 0x6A SHL PUSH1 0x44 DUP3 ADD MSTORE REVERT JUMPDEST SWAP1 POP DUP7 DUP2 DUP2 RETURNDATASIZE DUP4 GT PUSH2 0x9A5 JUMPI JUMPDEST PUSH2 0x989 DUP2 DUP4 PUSH2 0x147E JUMP JUMPDEST DUP2 ADD SUB SLT PUSH2 0x9A1 JUMPI MLOAD DUP1 ISZERO ISZERO DUP2 SUB PUSH2 0x9A1 JUMPI DUP8 PUSH2 0x7DE JUMP JUMPDEST DUP6 DUP1 REVERT JUMPDEST POP RETURNDATASIZE PUSH2 0x97F JUMP JUMPDEST PUSH2 0x9B5 SWAP1 PUSH2 0x1454 JUMP JUMPDEST PUSH2 0x9C0 JUMPI DUP5 DUP8 PUSH2 0x7AF JUMP JUMPDEST DUP5 DUP1 REVERT JUMPDEST DUP9 DUP1 REVERT JUMPDEST POP DUP5 PUSH1 0x64 SWAP3 MLOAD SWAP2 PUSH3 0x461BCD PUSH1 0xE5 SHL DUP4 MSTORE DUP3 ADD MSTORE PUSH1 0x17 PUSH1 0x24 DUP3 ADD MSTORE PUSH32 0x455243313136373A2063726561746532206661696C6564000000000000000000 PUSH1 0x44 DUP3 ADD MSTORE REVERT JUMPDEST PUSH4 0x4E487B71 PUSH1 0xE0 SHL DUP7 MSTORE PUSH1 0x11 DUP4 MSTORE PUSH1 0x24 DUP7 REVERT JUMPDEST POP POP CALLVALUE PUSH2 0x1B7 JUMPI DUP2 PUSH1 0x3 NOT CALLDATASIZE ADD SLT PUSH2 0x1B7 JUMPI PUSH1 0x6F SLOAD SWAP1 MLOAD PUSH1 0x1 PUSH1 0x1 PUSH1 0xA0 SHL SUB SWAP1 SWAP2 AND DUP2 MSTORE PUSH1 0x20 SWAP1 RETURN JUMPDEST POP POP CALLVALUE PUSH2 0x1B7 JUMPI DUP2 PUSH1 0x3 NOT CALLDATASIZE ADD SLT PUSH2 0x1B7 JUMPI PUSH1 0x20 SWAP1 PUSH1 0x78 SLOAD SWAP1 MLOAD SWAP1 DUP2 MSTORE RETURN JUMPDEST POP POP CALLVALUE PUSH2 0x1B7 JUMPI DUP2 PUSH1 0x3 NOT CALLDATASIZE ADD SLT PUSH2 0x1B7 JUMPI PUSH1 0x65 SLOAD SWAP1 MLOAD PUSH1 0x1 PUSH1 0x1 PUSH1 0xA0 SHL SUB SWAP1 SWAP2 AND DUP2 MSTORE PUSH1 0x20 SWAP1 RETURN JUMPDEST POP POP CALLVALUE PUSH2 0x1B7 JUMPI PUSH1 0x20 SWAP1 DUP2 PUSH1 0x3 NOT CALLDATASIZE ADD SLT PUSH2 0x293 JUMPI PUSH1 0x1 PUSH1 0x1 PUSH1 0xA0 SHL SUB PUSH2 0xAB3 PUSH2 0x1139 JUMP JUMPDEST AND DUP4 MSTORE PUSH1 0x74 DUP3 MSTORE DUP1 DUP4 KECCAK256 SWAP3 DUP2 MLOAD DUP1 SWAP4 DUP1 DUP7 SLOAD SWAP3 DUP4 DUP2 MSTORE ADD SWAP6 DUP4 MSTORE DUP1 DUP4 KECCAK256 SWAP3 SWAP1 JUMPDEST DUP3 DUP3 LT PUSH2 0xAF5 JUMPI PUSH2 0x30C DUP7 DUP7 PUSH2 0xAEB DUP3 DUP12 SUB DUP4 PUSH2 0x147E JUMP JUMPDEST MLOAD SWAP2 DUP3 SWAP2 DUP3 PUSH2 0x10F5 JUMP JUMPDEST DUP4 SLOAD DUP8 MSTORE SWAP6 DUP7 ADD SWAP6 PUSH1 0x1 SWAP4 DUP5 ADD SWAP4 SWAP1 SWAP2 ADD SWAP1 PUSH2 0xAD3 JUMP JUMPDEST DUP4 DUP4 CALLVALUE PUSH2 0x1B7 JUMPI PUSH1 0x80 CALLDATASIZE PUSH1 0x3 NOT ADD SLT PUSH2 0x1B7 JUMPI PUSH2 0xB27 PUSH2 0x1139 JUMP JUMPDEST SWAP1 PUSH1 0x24 CALLDATALOAD PUSH1 0x44 CALLDATALOAD SWAP1 PUSH1 0x64 CALLDATALOAD SWAP3 PUSH2 0xB3B PUSH2 0x1353 JUMP JUMPDEST DUP5 EXTCODESIZE ISZERO PUSH2 0xC6A JUMPI PUSH1 0x1 DUP1 PUSH1 0xA0 SHL SUB DUP1 SWAP6 AND SWAP5 DUP6 PUSH1 0x1 PUSH1 0x1 PUSH1 0x60 SHL SUB PUSH1 0xA0 SHL PUSH1 0x66 SLOAD AND OR PUSH1 0x66 SSTORE DUP3 PUSH1 0x77 SSTORE DUP4 PUSH1 0x78 SSTORE DUP5 PUSH1 0x79 SSTORE PUSH1 0x6B SLOAD AND DUP6 EXTCODESIZE ISZERO PUSH2 0xC66 JUMPI DUP2 MLOAD PUSH4 0x39466DE5 PUSH1 0xE1 SHL DUP2 MSTORE CALLER DUP2 DUP11 ADD SWAP1 DUP2 MSTORE ADDRESS PUSH1 0x20 DUP3 ADD MSTORE PUSH1 0x1 PUSH1 0x1 PUSH1 0xA0 SHL SUB SWAP1 SWAP3 AND PUSH1 0x40 DUP4 ADD MSTORE PUSH1 0x60 DUP3 ADD DUP5 SWAP1 MSTORE PUSH1 0x80 DUP3 ADD DUP6 SWAP1 MSTORE PUSH1 0xA0 DUP3 ADD DUP7 SWAP1 MSTORE SWAP2 SWAP1 DUP8 SWAP1 DUP4 SWAP1 DUP2 SWAP1 PUSH1 0xC0 ADD SUB DUP2 DUP4 DUP11 GAS CALL SWAP1 DUP2 ISZERO PUSH2 0xC5D JUMPI POP PUSH2 0xC4A JUMPI JUMPDEST POP PUSH2 0x2710 SWAP1 DUP2 DUP2 MUL SWAP2 DUP2 DUP4 DIV EQ SWAP1 ISZERO OR ISZERO PUSH2 0xC37 JUMPI PUSH1 0x64 DUP3 MUL SWAP2 DUP1 DUP4 DIV PUSH1 0x64 EQ SWAP1 ISZERO OR ISZERO PUSH2 0xC37 JUMPI PUSH2 0xC0F SWAP3 SWAP2 PUSH2 0xC0A SWAP2 PUSH2 0x14A0 JUMP JUMPDEST PUSH2 0x14A0 JUMP JUMPDEST SWAP1 PUSH32 0x5678AF47993F4856157DD819BEE3183B87C10EE1B3575A5128FE25896C073A28 DUP4 DUP1 LOG3 DUP1 RETURN JUMPDEST PUSH4 0x4E487B71 PUSH1 0xE0 SHL DUP6 MSTORE PUSH1 0x11 DUP7 MSTORE PUSH1 0x24 DUP6 REVERT JUMPDEST PUSH2 0xC56 SWAP1 SWAP6 SWAP2 SWAP6 PUSH2 0x1454 JUMP JUMPDEST SWAP4 DUP7 PUSH2 0xBD4 JUMP JUMPDEST MLOAD RETURNDATASIZE DUP9 DUP3 RETURNDATACOPY RETURNDATASIZE SWAP1 REVERT JUMPDEST DUP7 DUP1 REVERT JUMPDEST MLOAD PUSH3 0x461BCD PUSH1 0xE5 SHL DUP2 MSTORE PUSH1 0x20 DUP2 DUP9 ADD MSTORE PUSH1 0x26 PUSH1 0x24 DUP3 ADD MSTORE PUSH32 0x6E616C693A20696D706C656D656E746174696F6E206973206E6F74206120636F PUSH1 0x44 DUP3 ADD MSTORE PUSH6 0x1B9D1C9858DD PUSH1 0xD2 SHL PUSH1 0x64 DUP3 ADD MSTORE PUSH1 0x84 SWAP1 REVERT JUMPDEST POP POP CALLVALUE PUSH2 0x1B7 JUMPI PUSH1 0x20 SWAP2 DUP3 PUSH1 0x3 NOT CALLDATASIZE ADD SLT PUSH2 0xD32 JUMPI PUSH1 0x1 PUSH1 0x1 PUSH1 0xA0 SHL SUB PUSH2 0xCE0 PUSH2 0x1139 JUMP JUMPDEST AND DUP2 MSTORE PUSH1 0x74 DUP4 MSTORE DUP2 DUP2 KECCAK256 SWAP1 DUP3 MLOAD DUP1 SWAP5 DUP1 DUP5 SLOAD SWAP3 DUP4 DUP2 MSTORE ADD SWAP4 DUP4 MSTORE DUP1 DUP4 KECCAK256 SWAP3 SWAP1 JUMPDEST DUP3 DUP3 LT PUSH2 0xD1B JUMPI PUSH2 0x30C DUP7 PUSH2 0x301 DUP10 PUSH2 0x2FC DUP2 DUP11 SUB DUP3 PUSH2 0x147E JUMP JUMPDEST DUP4 SLOAD DUP6 MSTORE SWAP4 DUP5 ADD SWAP4 PUSH1 0x1 SWAP4 DUP5 ADD SWAP4 SWAP1 SWAP2 ADD SWAP1 PUSH2 0xD00 JUMP JUMPDEST DUP1 REVERT JUMPDEST DUP4 CALLVALUE PUSH2 0xD32 JUMPI PUSH1 0x20 CALLDATASIZE PUSH1 0x3 NOT ADD SLT PUSH2 0xD32 JUMPI PUSH2 0x23E PUSH2 0xD52 PUSH2 0x1139 JUMP JUMPDEST PUSH2 0xD5A PUSH2 0x1353 JUMP JUMPDEST PUSH2 0x1678 JUMP JUMPDEST DUP4 CALLVALUE PUSH2 0xD32 JUMPI PUSH2 0x100 CALLDATASIZE PUSH1 0x3 NOT ADD SLT PUSH2 0xD32 JUMPI PUSH2 0xD7A PUSH2 0x1139 JUMP JUMPDEST PUSH2 0xD82 PUSH2 0x114F JUMP JUMPDEST PUSH2 0xD8A PUSH2 0x1165 JUMP JUMPDEST PUSH1 0x1 PUSH1 0x1 PUSH1 0xA0 SHL SUB SWAP2 SWAP1 PUSH1 0x84 CALLDATALOAD DUP4 DUP2 AND SWAP2 SWAP1 DUP3 SWAP1 SUB PUSH2 0x9A1 JUMPI DUP4 DUP1 SWAP3 PUSH2 0xDAE PUSH2 0x117B JUMP JUMPDEST SWAP1 DUP3 PUSH2 0xDB8 PUSH2 0x1191 JUMP JUMPDEST SWAP5 DUP2 PUSH2 0xDC2 PUSH2 0x11A7 JUMP JUMPDEST SWAP9 PUSH2 0xDCB PUSH2 0x1353 JUMP JUMPDEST DUP2 PUSH1 0x1 PUSH1 0x1 PUSH1 0x60 SHL SUB PUSH1 0xA0 SHL SWAP13 AND DUP13 PUSH1 0x6A SLOAD AND OR PUSH1 0x6A SSTORE AND DUP11 PUSH1 0x6B SLOAD AND OR PUSH1 0x6B SSTORE AND DUP9 PUSH1 0x6C SLOAD AND OR PUSH1 0x6C SSTORE PUSH1 0x64 CALLDATALOAD PUSH1 0x6D SSTORE DUP8 PUSH1 0x70 SLOAD AND OR PUSH1 0x70 SSTORE AND DUP6 PUSH1 0x6E SLOAD AND OR PUSH1 0x6E SSTORE AND DUP4 PUSH1 0x6F SLOAD AND OR PUSH1 0x6F SSTORE AND SWAP1 PUSH1 0x71 SLOAD AND OR PUSH1 0x71 SSTORE DUP1 RETURN JUMPDEST POP POP CALLVALUE PUSH2 0x1B7 JUMPI DUP2 PUSH1 0x3 NOT CALLDATASIZE ADD SLT PUSH2 0x1B7 JUMPI PUSH1 0x33 SLOAD SWAP1 MLOAD PUSH1 0x1 PUSH1 0x1 PUSH1 0xA0 SHL SUB SWAP1 SWAP2 AND DUP2 MSTORE PUSH1 0x20 SWAP1 RETURN JUMPDEST POP POP CALLVALUE PUSH2 0x1B7 JUMPI DUP2 PUSH1 0x3 NOT CALLDATASIZE ADD SLT PUSH2 0x1B7 JUMPI PUSH1 0x67 SLOAD SWAP1 MLOAD PUSH1 0x1 PUSH1 0x1 PUSH1 0xA0 SHL SUB SWAP1 SWAP2 AND DUP2 MSTORE PUSH1 0x20 SWAP1 RETURN JUMPDEST DUP3 DUP5 CALLVALUE PUSH2 0xD32 JUMPI DUP1 PUSH1 0x3 NOT CALLDATASIZE ADD SLT PUSH2 0xD32 JUMPI DUP2 MLOAD SWAP2 DUP3 SWAP2 PUSH1 0x68 SLOAD DUP1 DUP6 MSTORE PUSH1 0x20 DUP1 SWAP6 ADD SWAP5 PUSH1 0x68 DUP4 MSTORE PUSH32 0xA2153420D844928B4421650203C77BABC8B33D7F2E7B450E2966DB0C22097753 SWAP3 SWAP1 JUMPDEST DUP3 DUP3 LT PUSH2 0xEDB JUMPI PUSH2 0x30C DUP7 DUP7 PUSH2 0xAEB DUP3 DUP12 SUB DUP4 PUSH2 0x147E JUMP JUMPDEST DUP4 SLOAD DUP8 MSTORE SWAP6 DUP7 ADD SWAP6 PUSH1 0x1 SWAP4 DUP5 ADD SWAP4 SWAP1 SWAP2 ADD SWAP1 PUSH2 0xEC3 JUMP JUMPDEST DUP4 SWAP1 CALLVALUE PUSH2 0x1B7 JUMPI PUSH1 0x20 CALLDATASIZE PUSH1 0x3 NOT ADD SLT PUSH2 0x1B7 JUMPI CALLDATALOAD DUP1 ISZERO ISZERO DUP1 SWAP2 SUB PUSH2 0x1B7 JUMPI PUSH2 0xF18 PUSH2 0x1353 JUMP JUMPDEST PUSH1 0xFF DUP1 NOT PUSH1 0x75 SLOAD AND SWAP2 AND OR PUSH1 0x75 SSTORE DUP1 RETURN JUMPDEST DUP4 CALLVALUE PUSH2 0xD32 JUMPI DUP1 PUSH1 0x3 NOT CALLDATASIZE ADD SLT PUSH2 0xD32 JUMPI PUSH2 0xF42 PUSH2 0x1353 JUMP JUMPDEST PUSH1 0x33 DUP1 SLOAD PUSH1 0x1 PUSH1 0x1 PUSH1 0xA0 SHL SUB NOT DUP2 AND SWAP1 SWAP2 SSTORE DUP2 SWAP1 PUSH1 0x1 PUSH1 0x1 PUSH1 0xA0 SHL SUB AND PUSH32 0x8BE0079C531659141344CD1FD0A4F28419497F9722A3DAAFE3B4186F6B6457E0 DUP3 DUP1 LOG3 DUP1 RETURN JUMPDEST SWAP2 SWAP1 POP CALLVALUE PUSH2 0x293 JUMPI DUP1 PUSH1 0x3 NOT CALLDATASIZE ADD SLT PUSH2 0x293 JUMPI PUSH1 0x24 CALLDATALOAD SWAP2 PUSH3 0xFFFFFF DUP4 AND DUP1 SWAP4 SUB PUSH2 0xFCB JUMPI PUSH2 0xFB2 PUSH2 0x1353 JUMP JUMPDEST CALLDATALOAD DUP4 MSTORE PUSH1 0x73 PUSH1 0x20 MSTORE DUP3 KECCAK256 SWAP1 PUSH3 0xFFFFFF NOT DUP3 SLOAD AND OR SWAP1 SSTORE DUP1 RETURN JUMPDEST DUP4 DUP1 REVERT JUMPDEST POP POP CALLVALUE PUSH2 0x1B7 JUMPI DUP2 PUSH1 0x3 NOT CALLDATASIZE ADD SLT PUSH2 0x1B7 JUMPI PUSH1 0x20 SWAP1 PUSH1 0xFF PUSH1 0x75 SLOAD AND SWAP1 MLOAD SWAP1 ISZERO ISZERO DUP2 MSTORE RETURN JUMPDEST POP POP CALLVALUE PUSH2 0x1B7 JUMPI DUP2 PUSH1 0x3 NOT CALLDATASIZE ADD SLT PUSH2 0x1B7 JUMPI PUSH1 0x66 SLOAD SWAP1 MLOAD PUSH1 0x1 PUSH1 0x1 PUSH1 0xA0 SHL SUB SWAP1 SWAP2 AND DUP2 MSTORE PUSH1 0x20 SWAP1 RETURN JUMPDEST SWAP1 POP CALLVALUE PUSH2 0x293 JUMPI PUSH1 0x20 CALLDATASIZE PUSH1 0x3 NOT ADD SLT PUSH2 0x293 JUMPI DUP2 PUSH1 0x20 SWAP4 PUSH3 0xFFFFFF SWAP3 CALLDATALOAD DUP2 MSTORE PUSH1 0x73 DUP6 MSTORE KECCAK256 SLOAD AND SWAP1 MLOAD SWAP1 DUP2 MSTORE RETURN JUMPDEST POP POP CALLVALUE PUSH2 0x1B7 JUMPI DUP2 PUSH1 0x3 NOT CALLDATASIZE ADD SLT PUSH2 0x1B7 JUMPI PUSH1 0x70 SLOAD SWAP1 MLOAD PUSH1 0x1 PUSH1 0x1 PUSH1 0xA0 SHL SUB SWAP1 SWAP2 AND DUP2 MSTORE PUSH1 0x20 SWAP1 RETURN JUMPDEST POP POP CALLVALUE PUSH2 0x1B7 JUMPI DUP2 PUSH1 0x3 NOT CALLDATASIZE ADD SLT PUSH2 0x1B7 JUMPI PUSH1 0x20 SWAP1 PUSH1 0x79 SLOAD SWAP1 MLOAD SWAP1 DUP2 MSTORE RETURN JUMPDEST POP POP CALLVALUE PUSH2 0x1B7 JUMPI DUP2 PUSH1 0x3 NOT CALLDATASIZE ADD SLT PUSH2 0x1B7 JUMPI PUSH1 0x20 SWAP1 PUSH1 0x6D SLOAD SWAP1 MLOAD SWAP1 DUP2 MSTORE RETURN JUMPDEST POP POP CALLVALUE PUSH2 0x1B7 JUMPI DUP2 PUSH1 0x3 NOT CALLDATASIZE ADD SLT PUSH2 0x1B7 JUMPI PUSH1 0x6A SLOAD SWAP1 MLOAD PUSH1 0x1 PUSH1 0x1 PUSH1 0xA0 SHL SUB SWAP1 SWAP2 AND DUP2 MSTORE PUSH1 0x20 SWAP1 RETURN JUMPDEST DUP5 SWAP1 CALLVALUE PUSH2 0x1B7 JUMPI DUP2 PUSH1 0x3 NOT CALLDATASIZE ADD SLT PUSH2 0x1B7 JUMPI PUSH1 0x20 SWAP1 PUSH1 0x76 SLOAD DUP2 MSTORE RETURN JUMPDEST PUSH1 0x20 SWAP1 DUP2 PUSH1 0x40 DUP2 DUP4 ADD SWAP3 DUP3 DUP2 MSTORE DUP6 MLOAD DUP1 SWAP5 MSTORE ADD SWAP4 ADD SWAP2 PUSH1 0x0 JUMPDEST DUP3 DUP2 LT PUSH2 0x111C JUMPI POP POP POP POP SWAP1 JUMP JUMPDEST DUP4 MLOAD PUSH1 0x1 PUSH1 0x1 PUSH1 0xA0 SHL SUB AND DUP6 MSTORE SWAP4 DUP2 ADD SWAP4 SWAP3 DUP2 ADD SWAP3 PUSH1 0x1 ADD PUSH2 0x110E JUMP JUMPDEST PUSH1 0x4 CALLDATALOAD SWAP1 PUSH1 0x1 PUSH1 0x1 PUSH1 0xA0 SHL SUB DUP3 AND DUP3 SUB PUSH2 0x60A JUMPI JUMP JUMPDEST PUSH1 0x24 CALLDATALOAD SWAP1 PUSH1 0x1 PUSH1 0x1 PUSH1 0xA0 SHL SUB DUP3 AND DUP3 SUB PUSH2 0x60A JUMPI JUMP JUMPDEST PUSH1 0x44 CALLDATALOAD SWAP1 PUSH1 0x1 PUSH1 0x1 PUSH1 0xA0 SHL SUB DUP3 AND DUP3 SUB PUSH2 0x60A JUMPI JUMP JUMPDEST PUSH1 0xA4 CALLDATALOAD SWAP1 PUSH1 0x1 PUSH1 0x1 PUSH1 0xA0 SHL SUB DUP3 AND DUP3 SUB PUSH2 0x60A JUMPI JUMP JUMPDEST PUSH1 0xC4 CALLDATALOAD SWAP1 PUSH1 0x1 PUSH1 0x1 PUSH1 0xA0 SHL SUB DUP3 AND DUP3 SUB PUSH2 0x60A JUMPI JUMP JUMPDEST PUSH1 0xE4 CALLDATALOAD SWAP1 PUSH1 0x1 PUSH1 0x1 PUSH1 0xA0 SHL SUB DUP3 AND DUP3 SUB PUSH2 0x60A JUMPI JUMP JUMPDEST PUSH1 0x0 JUMPDEST DUP4 DUP2 LT PUSH2 0x11D0 JUMPI POP POP PUSH1 0x0 SWAP2 ADD MSTORE JUMP JUMPDEST DUP2 DUP2 ADD MLOAD DUP4 DUP3 ADD MSTORE PUSH1 0x20 ADD PUSH2 0x11C0 JUMP JUMPDEST SWAP1 PUSH1 0x1 DUP1 PUSH1 0xA0 SHL SUB DUP1 DUP4 MLOAD AND DUP3 MSTORE PUSH1 0x20 DUP4 ADD MLOAD AND PUSH1 0x20 DUP3 ADD MSTORE PUSH1 0x40 DUP3 ADD MLOAD PUSH1 0x40 DUP3 ADD MSTORE PUSH1 0x60 DUP3 ADD MLOAD PUSH1 0x60 DUP3 ADD MSTORE PUSH1 0x80 DUP3 ADD MLOAD PUSH1 0x80 DUP3 ADD MSTORE PUSH1 0xA0 DUP3 ADD MLOAD PUSH1 0xA0 DUP3 ADD MSTORE PUSH1 0xC0 DUP3 ADD MLOAD PUSH1 0xC0 DUP3 ADD MSTORE PUSH1 0xE0 DUP3 ADD MLOAD PUSH1 0xE0 DUP3 ADD MSTORE PUSH2 0x100 DUP1 DUP4 ADD MLOAD SWAP1 PUSH1 0x8 DUP3 LT ISZERO PUSH2 0x129F JUMPI DUP3 ADD MSTORE PUSH2 0x120 DUP1 DUP4 ADD MLOAD SWAP1 PUSH1 0x3 DUP3 LT ISZERO PUSH2 0x129F JUMPI DUP3 ADD MSTORE PUSH2 0x140 DUP1 DUP4 ADD MLOAD SWAP3 PUSH2 0x180 DUP1 SWAP3 DUP5 ADD MSTORE DUP4 MLOAD DUP1 SWAP3 DUP5 ADD MSTORE PUSH2 0x1288 DUP3 PUSH2 0x1A0 SWAP6 PUSH1 0x20 DUP8 DUP8 ADD SWAP2 ADD PUSH2 0x11BD JUMP JUMPDEST PUSH2 0x160 SWAP1 DUP2 ADD MLOAD SWAP1 DUP4 ADD MSTORE PUSH1 0x1F ADD PUSH1 0x1F NOT AND ADD ADD SWAP1 JUMP JUMPDEST PUSH4 0x4E487B71 PUSH1 0xE0 SHL PUSH1 0x0 MSTORE PUSH1 0x21 PUSH1 0x4 MSTORE PUSH1 0x24 PUSH1 0x0 REVERT JUMPDEST PUSH1 0x20 DUP1 DUP3 ADD SWAP1 DUP1 DUP4 MSTORE DUP4 MLOAD DUP1 SWAP3 MSTORE PUSH1 0x40 DUP4 ADD SWAP3 DUP2 PUSH1 0x40 DUP5 PUSH1 0x5 SHL DUP4 ADD ADD SWAP6 ADD SWAP4 PUSH1 0x0 SWAP2 JUMPDEST DUP5 DUP4 LT PUSH2 0x12E9 JUMPI POP POP POP POP POP POP SWAP1 JUMP JUMPDEST SWAP1 SWAP2 SWAP3 SWAP4 SWAP5 SWAP6 DUP5 DUP1 PUSH2 0x1307 PUSH1 0x1 SWAP4 PUSH1 0x3F NOT DUP7 DUP3 SUB ADD DUP8 MSTORE DUP11 MLOAD PUSH2 0x11E0 JUMP JUMPDEST SWAP9 ADD SWAP4 ADD SWAP4 ADD SWAP2 SWAP5 SWAP4 SWAP3 SWAP1 PUSH2 0x12D9 JUMP JUMPDEST CALLVALUE PUSH2 0x60A JUMPI PUSH1 0x20 CALLDATASIZE PUSH1 0x3 NOT ADD SLT PUSH2 0x60A JUMPI PUSH1 0x1 PUSH1 0x1 PUSH1 0xA0 SHL SUB PUSH2 0x1338 PUSH2 0x1139 JUMP JUMPDEST AND PUSH1 0x0 MSTORE PUSH1 0x69 PUSH1 0x20 MSTORE PUSH1 0x20 PUSH1 0x40 PUSH1 0x0 KECCAK256 SLOAD ISZERO ISZERO PUSH1 0x40 MLOAD SWAP1 DUP2 MSTORE RETURN JUMPDEST PUSH1 0x33 SLOAD PUSH1 0x1 PUSH1 0x1 PUSH1 0xA0 SHL SUB AND CALLER SUB PUSH2 0x1367 JUMPI JUMP JUMPDEST PUSH1 0x64 PUSH1 0x40 MLOAD PUSH3 0x461BCD PUSH1 0xE5 SHL DUP2 MSTORE PUSH1 0x20 PUSH1 0x4 DUP3 ADD MSTORE PUSH1 0x20 PUSH1 0x24 DUP3 ADD MSTORE PUSH32 0x4F776E61626C653A2063616C6C6572206973206E6F7420746865206F776E6572 PUSH1 0x44 DUP3 ADD MSTORE REVERT JUMPDEST PUSH1 0x33 DUP1 SLOAD PUSH1 0x1 PUSH1 0x1 PUSH1 0xA0 SHL SUB SWAP3 DUP4 AND PUSH1 0x1 PUSH1 0x1 PUSH1 0xA0 SHL SUB NOT DUP3 AND DUP2 OR SWAP1 SWAP3 SSTORE SWAP1 SWAP2 AND PUSH32 0x8BE0079C531659141344CD1FD0A4F28419497F9722A3DAAFE3B4186F6B6457E0 PUSH1 0x0 DUP1 LOG3 JUMP JUMPDEST ISZERO PUSH2 0x13FB JUMPI JUMP JUMPDEST PUSH1 0x40 MLOAD PUSH3 0x461BCD PUSH1 0xE5 SHL DUP2 MSTORE PUSH1 0x20 PUSH1 0x4 DUP3 ADD MSTORE PUSH1 0x2B PUSH1 0x24 DUP3 ADD MSTORE PUSH32 0x496E697469616C697A61626C653A20636F6E7472616374206973206E6F742069 PUSH1 0x44 DUP3 ADD MSTORE PUSH11 0x6E697469616C697A696E67 PUSH1 0xA8 SHL PUSH1 0x64 DUP3 ADD MSTORE PUSH1 0x84 SWAP1 REVERT JUMPDEST PUSH8 0xFFFFFFFFFFFFFFFF DUP2 GT PUSH2 0x1468 JUMPI PUSH1 0x40 MSTORE JUMP JUMPDEST PUSH4 0x4E487B71 PUSH1 0xE0 SHL PUSH1 0x0 MSTORE PUSH1 0x41 PUSH1 0x4 MSTORE PUSH1 0x24 PUSH1 0x0 REVERT JUMPDEST SWAP1 PUSH1 0x1F DUP1 NOT SWAP2 ADD AND DUP2 ADD SWAP1 DUP2 LT PUSH8 0xFFFFFFFFFFFFFFFF DUP3 GT OR PUSH2 0x1468 JUMPI PUSH1 0x40 MSTORE JUMP JUMPDEST SWAP2 SWAP1 DUP3 ADD DUP1 SWAP3 GT PUSH2 0x14AD JUMPI JUMP JUMPDEST PUSH4 0x4E487B71 PUSH1 0xE0 SHL PUSH1 0x0 MSTORE PUSH1 0x11 PUSH1 0x4 MSTORE PUSH1 0x24 PUSH1 0x0 REVERT JUMPDEST PUSH8 0xFFFFFFFFFFFFFFFF DUP2 GT PUSH2 0x1468 JUMPI PUSH1 0x1F ADD PUSH1 0x1F NOT AND PUSH1 0x20 ADD SWAP1 JUMP JUMPDEST PUSH1 0x0 NOT DUP2 EQ PUSH2 0x14AD JUMPI PUSH1 0x1 ADD SWAP1 JUMP JUMPDEST PUSH1 0x0 DUP2 DUP2 MSTORE PUSH1 0x69 PUSH1 0x20 MSTORE PUSH1 0x40 DUP2 KECCAK256 SLOAD PUSH2 0x1581 JUMPI PUSH1 0x68 SLOAD PUSH1 0x1 PUSH1 0x40 SHL DUP2 LT ISZERO PUSH2 0x156D JUMPI PUSH1 0x1 DUP2 ADD DUP1 PUSH1 0x68 SSTORE DUP2 LT ISZERO PUSH2 0x1559 JUMPI SWAP1 DUP3 PUSH1 0x40 SWAP3 PUSH32 0xA2153420D844928B4421650203C77BABC8B33D7F2E7B450E2966DB0C22097753 ADD SSTORE PUSH1 0x68 SLOAD SWAP3 DUP2 MSTORE PUSH1 0x69 PUSH1 0x20 MSTORE KECCAK256 SSTORE PUSH1 0x1 SWAP1 JUMP JUMPDEST PUSH4 0x4E487B71 PUSH1 0xE0 SHL DUP3 MSTORE PUSH1 0x32 PUSH1 0x4 MSTORE PUSH1 0x24 DUP3 REVERT JUMPDEST PUSH4 0x4E487B71 PUSH1 0xE0 SHL DUP3 MSTORE PUSH1 0x41 PUSH1 0x4 MSTORE PUSH1 0x24 DUP3 REVERT JUMPDEST SWAP1 POP SWAP1 JUMP JUMPDEST SWAP2 SWAP1 PUSH1 0x1 DUP4 ADD PUSH1 0x0 SWAP1 DUP3 DUP3 MSTORE DUP1 PUSH1 0x20 MSTORE PUSH1 0x40 DUP3 KECCAK256 SLOAD ISZERO PUSH1 0x0 EQ PUSH2 0x1605 JUMPI DUP5 SLOAD SWAP5 PUSH1 0x1 PUSH1 0x40 SHL DUP7 LT ISZERO PUSH2 0x15F1 JUMPI PUSH1 0x1 DUP7 ADD DUP1 DUP3 SSTORE DUP7 LT ISZERO PUSH2 0x15DD JUMPI DUP4 PUSH1 0x40 SWAP5 SWAP6 SWAP7 DUP3 DUP6 MSTORE PUSH1 0x20 DUP6 KECCAK256 ADD SSTORE SLOAD SWAP4 DUP3 MSTORE PUSH1 0x20 MSTORE KECCAK256 SSTORE PUSH1 0x1 SWAP1 JUMP JUMPDEST PUSH4 0x4E487B71 PUSH1 0xE0 SHL DUP4 MSTORE PUSH1 0x32 PUSH1 0x4 MSTORE PUSH1 0x24 DUP4 REVERT JUMPDEST PUSH4 0x4E487B71 PUSH1 0xE0 SHL DUP4 MSTORE PUSH1 0x41 PUSH1 0x4 MSTORE PUSH1 0x24 DUP4 REVERT JUMPDEST POP SWAP3 POP POP JUMP JUMPDEST PUSH1 0x40 MLOAD SWAP1 PUSH2 0x180 DUP3 ADD DUP3 DUP2 LT PUSH8 0xFFFFFFFFFFFFFFFF DUP3 GT OR PUSH2 0x1468 JUMPI PUSH1 0x40 MSTORE DUP2 PUSH2 0x160 PUSH1 0x0 SWAP2 DUP3 DUP2 MSTORE DUP3 PUSH1 0x20 DUP3 ADD MSTORE DUP3 PUSH1 0x40 DUP3 ADD MSTORE DUP3 PUSH1 0x60 DUP3 ADD MSTORE DUP3 PUSH1 0x80 DUP3 ADD MSTORE DUP3 PUSH1 0xA0 DUP3 ADD MSTORE DUP3 PUSH1 0xC0 DUP3 ADD MSTORE DUP3 PUSH1 0xE0 DUP3 ADD MSTORE DUP3 PUSH2 0x100 DUP3 ADD MSTORE DUP3 PUSH2 0x120 DUP3 ADD MSTORE PUSH1 0x60 PUSH2 0x140 DUP3 ADD MSTORE ADD MSTORE JUMP JUMPDEST DUP1 EXTCODESIZE ISZERO PUSH2 0x16C5 JUMPI PUSH1 0x65 DUP1 SLOAD PUSH1 0x1 PUSH1 0x1 PUSH1 0xA0 SHL SUB NOT AND PUSH1 0x1 PUSH1 0x1 PUSH1 0xA0 SHL SUB SWAP3 SWAP1 SWAP3 AND SWAP2 DUP3 OR SWAP1 SSTORE PUSH32 0x7213E3D637E4EF4968F947D5F602103307355F708BFD5BFCE9D87DA7C78F8521 PUSH1 0x0 DUP1 LOG2 JUMP JUMPDEST PUSH1 0x40 MLOAD PUSH3 0x461BCD PUSH1 0xE5 SHL DUP2 MSTORE PUSH1 0x20 PUSH1 0x4 DUP3 ADD MSTORE PUSH1 0x3A PUSH1 0x24 DUP3 ADD MSTORE PUSH32 0x464E44436F6C6C656374696F6E466163746F72793A2050726F78792063616C6C PUSH1 0x44 DUP3 ADD MSTORE PUSH32 0x2061646472657373206973206E6F74206120636F6E7472616374000000000000 PUSH1 0x64 DUP3 ADD MSTORE PUSH1 0x84 SWAP1 REVERT JUMPDEST PUSH2 0x1738 PUSH2 0x160B JUMP JUMPDEST POP PUSH2 0x1741 PUSH2 0x160B JUMP JUMPDEST PUSH1 0x1 PUSH1 0x1 PUSH1 0xA0 SHL SUB SWAP2 DUP3 AND DUP1 DUP3 MSTORE PUSH1 0x40 DUP1 MLOAD PUSH4 0x8DA5CB5B PUSH1 0xE0 SHL DUP2 MSTORE SWAP3 SWAP4 PUSH1 0x4 SWAP4 SWAP2 SWAP3 PUSH1 0x20 SWAP3 SWAP1 SWAP2 SWAP1 DUP4 DUP2 DUP8 DUP2 DUP7 GAS STATICCALL SWAP1 DUP2 ISZERO PUSH2 0x1BB7 JUMPI PUSH1 0x0 SWAP2 PUSH2 0x1B81 JUMPI JUMPDEST POP AND DUP6 DUP4 ADD MSTORE DUP3 MLOAD PUSH4 0x5C63ED69 PUSH1 0xE0 SHL DUP2 MSTORE DUP3 DUP2 DUP7 DUP2 DUP6 GAS STATICCALL SWAP1 DUP2 ISZERO PUSH2 0x19E7 JUMPI PUSH1 0x0 SWAP2 PUSH2 0x1B54 JUMPI JUMPDEST POP DUP6 DUP5 ADD MSTORE DUP3 MLOAD PUSH4 0x4C38D877 PUSH1 0xE0 SHL DUP2 MSTORE DUP3 DUP2 DUP7 DUP2 DUP6 GAS STATICCALL SWAP1 DUP2 ISZERO PUSH2 0x19E7 JUMPI PUSH1 0x0 SWAP2 PUSH2 0x1B27 JUMPI JUMPDEST POP PUSH1 0x60 DUP7 ADD MSTORE DUP3 MLOAD PUSH4 0x48BF3BB PUSH1 0xE1 SHL DUP2 MSTORE DUP3 DUP2 DUP7 DUP2 DUP6 GAS STATICCALL SWAP1 DUP2 ISZERO PUSH2 0x19E7 JUMPI PUSH1 0x0 SWAP2 PUSH2 0x1AFA JUMPI JUMPDEST POP PUSH1 0x80 DUP7 ADD MSTORE DUP3 MLOAD PUSH4 0xBC83617 PUSH1 0xE1 SHL DUP2 MSTORE DUP3 DUP2 DUP7 DUP2 DUP6 GAS STATICCALL SWAP1 DUP2 ISZERO PUSH2 0x19E7 JUMPI PUSH1 0x0 SWAP2 PUSH2 0x1ACD JUMPI JUMPDEST POP PUSH1 0xA0 DUP7 ADD MSTORE DUP3 MLOAD PUSH4 0xD24E0C87 PUSH1 0xE0 SHL DUP2 MSTORE DUP3 DUP2 DUP7 DUP2 DUP6 GAS STATICCALL SWAP1 DUP2 ISZERO PUSH2 0x19E7 JUMPI PUSH1 0x0 SWAP2 PUSH2 0x1AA0 JUMPI JUMPDEST POP PUSH1 0xC0 DUP7 ADD MSTORE DUP3 MLOAD PUSH4 0xFAEB5E17 PUSH1 0xE0 SHL DUP2 MSTORE DUP3 DUP2 DUP7 DUP2 DUP6 GAS STATICCALL SWAP1 DUP2 ISZERO PUSH2 0x19E7 JUMPI PUSH1 0x0 SWAP2 PUSH2 0x1A73 JUMPI JUMPDEST POP PUSH1 0xE0 DUP7 ADD MSTORE DUP3 MLOAD PUSH4 0x2734EAB PUSH1 0xE5 SHL DUP2 MSTORE DUP3 DUP2 DUP7 DUP2 DUP6 GAS STATICCALL SWAP1 DUP2 ISZERO PUSH2 0x19E7 JUMPI PUSH1 0x0 SWAP2 PUSH2 0x1A3D JUMPI JUMPDEST POP PUSH1 0x8 DUP2 LT ISZERO PUSH2 0x19F2 JUMPI PUSH2 0x100 DUP7 ADD MSTORE DUP3 MLOAD PUSH4 0x10A38F5 PUSH1 0xE0 SHL DUP2 MSTORE DUP3 DUP2 DUP7 DUP2 DUP6 GAS STATICCALL SWAP1 DUP2 ISZERO PUSH2 0x19E7 JUMPI PUSH1 0x0 SWAP2 PUSH2 0x1A07 JUMPI JUMPDEST POP PUSH1 0x3 DUP2 LT ISZERO PUSH2 0x19F2 JUMPI PUSH2 0x120 DUP7 ADD MSTORE DUP3 MLOAD PUSH4 0x54FD4D5 PUSH1 0xE4 SHL DUP2 MSTORE PUSH1 0x0 DUP2 DUP7 DUP2 DUP6 GAS STATICCALL SWAP1 DUP2 ISZERO PUSH2 0x19E7 JUMPI SWAP1 DUP4 SWAP3 SWAP2 PUSH1 0x0 SWAP2 PUSH2 0x196B JUMPI JUMPDEST POP PUSH2 0x140 DUP8 ADD MSTORE DUP4 MLOAD PUSH4 0x32946A87 PUSH1 0xE0 SHL DUP2 MSTORE SWAP5 DUP6 SWAP2 DUP3 SWAP1 GAS STATICCALL SWAP2 DUP3 ISZERO PUSH2 0x1961 JUMPI POP PUSH1 0x0 SWAP2 PUSH2 0x1935 JUMPI JUMPDEST POP PUSH2 0x160 DUP4 ADD MSTORE POP SWAP1 JUMP JUMPDEST DUP3 DUP2 RETURNDATASIZE DUP4 GT PUSH2 0x195A JUMPI JUMPDEST PUSH2 0x1949 DUP2 DUP4 PUSH2 0x147E JUMP JUMPDEST DUP2 ADD SUB SLT PUSH2 0xD32 JUMPI POP MLOAD DUP1 CODESIZE PUSH2 0x192A JUMP JUMPDEST POP RETURNDATASIZE PUSH2 0x193F JUMP JUMPDEST MLOAD RETURNDATASIZE PUSH1 0x0 DUP3 RETURNDATACOPY RETURNDATASIZE SWAP1 REVERT JUMPDEST SWAP2 SWAP3 POP RETURNDATASIZE DUP1 DUP3 DUP5 RETURNDATACOPY PUSH2 0x197D DUP2 DUP5 PUSH2 0x147E JUMP JUMPDEST DUP3 ADD SWAP2 DUP5 DUP2 DUP5 SUB SLT PUSH2 0x1B7 JUMPI DUP1 MLOAD SWAP1 PUSH8 0xFFFFFFFFFFFFFFFF DUP3 GT PUSH2 0x293 JUMPI ADD DUP3 PUSH1 0x1F DUP3 ADD SLT ISZERO PUSH2 0x1B7 JUMPI DUP1 MLOAD SWAP2 PUSH2 0x19B3 DUP4 PUSH2 0x14C3 JUMP JUMPDEST SWAP4 PUSH2 0x19C0 DUP9 MLOAD SWAP6 DUP7 PUSH2 0x147E JUMP JUMPDEST DUP4 DUP6 MSTORE DUP7 DUP5 DUP5 ADD ADD GT PUSH2 0xD32 JUMPI POP DUP3 SWAP2 PUSH2 0x19E1 SWAP2 DUP7 DUP1 DUP1 SWAP8 SWAP7 ADD SWAP2 ADD PUSH2 0x11BD JUMP JUMPDEST CODESIZE PUSH2 0x1900 JUMP JUMPDEST DUP5 MLOAD RETURNDATASIZE PUSH1 0x0 DUP3 RETURNDATACOPY RETURNDATASIZE SWAP1 REVERT JUMPDEST PUSH1 0x21 DUP6 PUSH4 0x4E487B71 PUSH1 0xE0 SHL PUSH1 0x0 MSTORE MSTORE PUSH1 0x24 PUSH1 0x0 REVERT JUMPDEST DUP4 DUP2 DUP2 RETURNDATASIZE DUP4 GT PUSH2 0x1A36 JUMPI JUMPDEST PUSH2 0x1A1C DUP2 DUP4 PUSH2 0x147E JUMP JUMPDEST DUP2 ADD SUB SLT PUSH2 0x1B7 JUMPI MLOAD SWAP1 PUSH1 0x3 DUP3 LT ISZERO PUSH2 0xD32 JUMPI POP CODESIZE PUSH2 0x18C9 JUMP JUMPDEST POP RETURNDATASIZE PUSH2 0x1A12 JUMP JUMPDEST DUP4 DUP2 DUP2 RETURNDATASIZE DUP4 GT PUSH2 0x1A6C JUMPI JUMPDEST PUSH2 0x1A52 DUP2 DUP4 PUSH2 0x147E JUMP JUMPDEST DUP2 ADD SUB SLT PUSH2 0x1B7 JUMPI MLOAD SWAP1 PUSH1 0x8 DUP3 LT ISZERO PUSH2 0xD32 JUMPI POP CODESIZE PUSH2 0x1897 JUMP JUMPDEST POP RETURNDATASIZE PUSH2 0x1A48 JUMP JUMPDEST SWAP1 DUP4 DUP3 DUP2 RETURNDATASIZE DUP4 GT PUSH2 0x1A99 JUMPI JUMPDEST PUSH2 0x1A89 DUP2 DUP4 PUSH2 0x147E JUMP JUMPDEST DUP2 ADD SUB SLT PUSH2 0xD32 JUMPI POP MLOAD CODESIZE PUSH2 0x186F JUMP JUMPDEST POP RETURNDATASIZE PUSH2 0x1A7F JUMP JUMPDEST SWAP1 DUP4 DUP3 DUP2 RETURNDATASIZE DUP4 GT PUSH2 0x1AC6 JUMPI JUMPDEST PUSH2 0x1AB6 DUP2 DUP4 PUSH2 0x147E JUMP JUMPDEST DUP2 ADD SUB SLT PUSH2 0xD32 JUMPI POP MLOAD CODESIZE PUSH2 0x1847 JUMP JUMPDEST POP RETURNDATASIZE PUSH2 0x1AAC JUMP JUMPDEST SWAP1 DUP4 DUP3 DUP2 RETURNDATASIZE DUP4 GT PUSH2 0x1AF3 JUMPI JUMPDEST PUSH2 0x1AE3 DUP2 DUP4 PUSH2 0x147E JUMP JUMPDEST DUP2 ADD SUB SLT PUSH2 0xD32 JUMPI POP MLOAD CODESIZE PUSH2 0x181F JUMP JUMPDEST POP RETURNDATASIZE PUSH2 0x1AD9 JUMP JUMPDEST SWAP1 DUP4 DUP3 DUP2 RETURNDATASIZE DUP4 GT PUSH2 0x1B20 JUMPI JUMPDEST PUSH2 0x1B10 DUP2 DUP4 PUSH2 0x147E JUMP JUMPDEST DUP2 ADD SUB SLT PUSH2 0xD32 JUMPI POP MLOAD CODESIZE PUSH2 0x17F7 JUMP JUMPDEST POP RETURNDATASIZE PUSH2 0x1B06 JUMP JUMPDEST SWAP1 DUP4 DUP3 DUP2 RETURNDATASIZE DUP4 GT PUSH2 0x1B4D JUMPI JUMPDEST PUSH2 0x1B3D DUP2 DUP4 PUSH2 0x147E JUMP JUMPDEST DUP2 ADD SUB SLT PUSH2 0xD32 JUMPI POP MLOAD CODESIZE PUSH2 0x17CF JUMP JUMPDEST POP RETURNDATASIZE PUSH2 0x1B33 JUMP JUMPDEST SWAP1 DUP4 DUP3 DUP2 RETURNDATASIZE DUP4 GT PUSH2 0x1B7A JUMPI JUMPDEST PUSH2 0x1B6A DUP2 DUP4 PUSH2 0x147E JUMP JUMPDEST DUP2 ADD SUB SLT PUSH2 0xD32 JUMPI POP MLOAD CODESIZE PUSH2 0x17A8 JUMP JUMPDEST POP RETURNDATASIZE PUSH2 0x1B60 JUMP JUMPDEST DUP5 DUP2 DUP2 RETURNDATASIZE DUP4 GT PUSH2 0x1BB0 JUMPI JUMPDEST PUSH2 0x1B96 DUP2 DUP4 PUSH2 0x147E JUMP JUMPDEST DUP2 ADD SUB SLT PUSH2 0x1B7 JUMPI MLOAD SWAP1 DUP3 DUP3 AND DUP3 SUB PUSH2 0xD32 JUMPI POP CODESIZE PUSH2 0x1780 JUMP JUMPDEST POP RETURNDATASIZE PUSH2 0x1B8C JUMP JUMPDEST DUP6 MLOAD RETURNDATASIZE PUSH1 0x0 DUP3 RETURNDATACOPY RETURNDATASIZE SWAP1 REVERT JUMPDEST PUSH8 0xFFFFFFFFFFFFFFFF DUP2 GT PUSH2 0x1468 JUMPI PUSH1 0x5 SHL PUSH1 0x20 ADD SWAP1 JUMP JUMPDEST DUP1 MLOAD DUP3 LT ISZERO PUSH2 0x1BEE JUMPI PUSH1 0x20 SWAP2 PUSH1 0x5 SHL ADD ADD SWAP1 JUMP JUMPDEST PUSH4 0x4E487B71 PUSH1 0xE0 SHL PUSH1 0x0 MSTORE PUSH1 0x32 PUSH1 0x4 MSTORE PUSH1 0x24 PUSH1 0x0 REVERT JUMPDEST DUP1 MLOAD PUSH2 0x1C0F DUP2 PUSH2 0x1BC2 JUMP JUMPDEST SWAP2 PUSH2 0x1C1D PUSH1 0x40 MLOAD SWAP4 DUP5 PUSH2 0x147E JUMP JUMPDEST DUP2 DUP4 MSTORE PUSH1 0x1F NOT PUSH2 0x1C2C DUP4 PUSH2 0x1BC2 JUMP JUMPDEST ADD PUSH1 0x0 JUMPDEST DUP2 DUP2 LT PUSH2 0x1C89 JUMPI POP POP PUSH1 0x0 JUMPDEST DUP3 DUP2 LT PUSH2 0x1C49 JUMPI POP POP POP SWAP1 JUMP JUMPDEST PUSH2 0x1C84 SWAP1 PUSH2 0x1C69 PUSH1 0x1 PUSH1 0x1 PUSH1 0xA0 SHL SUB PUSH2 0x1C62 DUP4 DUP7 PUSH2 0x1BDA JUMP JUMPDEST MLOAD AND PUSH2 0x1730 JUMP JUMPDEST PUSH2 0x1C73 DUP3 DUP8 PUSH2 0x1BDA JUMP JUMPDEST MSTORE PUSH2 0x1C7E DUP2 DUP7 PUSH2 0x1BDA JUMP JUMPDEST POP PUSH2 0x14DF JUMP JUMPDEST PUSH2 0x1C3C JUMP JUMPDEST PUSH1 0x20 SWAP1 PUSH2 0x1C94 PUSH2 0x160B JUMP JUMPDEST DUP3 DUP3 DUP9 ADD ADD MSTORE ADD PUSH2 0x1C30 JUMP INVALID LOG2 PUSH5 0x6970667358 0x22 SLT KECCAK256 ISZERO POP 0xA7 0xD1 0xC3 XOR EXTCODEHASH DUP3 0xD2 PUSH7 0xFEA7C3CA83126C 0x5E 0xE7 CREATE DUP16 SLT EXP 0xEC 0xB1 0xE8 0xCF DUP14 0x49 0x2F 0x2A 0x2A PUSH5 0x736F6C6343 STOP ADDMOD SGT STOP CALLER "},"gasEstimates":{"creation":{"codeDepositCost":"1476400","executionCost":"25765","totalCost":"1502165"},"external":{"adminUpdateImplementation(address,uint256,uint256,uint256)":"infinite","adminUpdateProxyCallContract(address)":"30761","buildFeed()":"infinite","burnEnabled()":"2446","changeMultipleSettings(address,address,address,bytes32,address,address,address,address)":"194808","contractCounter()":"2271","daiToken()":"2763","defaultOperator()":"2565","easContract()":"2807","easSchema()":"2324","getFeedInfo(address)":"infinite","getFeeds()":"infinite","getFeedsInfo()":"infinite","getFeedsInfoOwned(address)":"infinite","getFeedsOwned(address)":"infinite","getRouterFee(uint256)":"2460","implementation()":"2433","initialize(address,address,address,address,bytes32,address,address,address,address)":"infinite","isContractCreated(address)":"2970","isFeed(address)":"3036","major()":"2962","minor()":"2720","museToken()":"2961","owner()":"2587","patch()":"2346","proxyCallContract()":"2719","renounceOwnership()":"28282","router()":"3000","setBurnEnabled(bool)":"26799","setRouterFee(uint256,uint24)":"26820","transferOwnership(address)":"28882","treasuryContract()":"2323","wethToken()":"2389"},"internal":{"_getSalt(address,uint256)":"infinite","_updateImplementation(address,uint256,uint256,uint256)":"infinite","_updateProxyCallContract(address)":"infinite","getCreationFee()":"infinite"}},"methodIdentifiers":{"adminUpdateImplementation(address,uint256,uint256,uint256)":"b19bcb58","adminUpdateProxyCallContract(address)":"a17bb199","buildFeed()":"ca5b4e5c","burnEnabled()":"5dc96d16","changeMultipleSettings(address,address,address,bytes32,address,address,address,address)":"9496d7f1","contractCounter()":"067bd3b4","daiToken()":"be22f546","defaultOperator()":"80ca11fc","easContract()":"cd77b52c","easSchema()":"3ec4f23d","getFeedInfo(address)":"d570a66d","getFeeds()":"7fe955d4","getFeedsInfo()":"e86ef353","getFeedsInfoOwned(address)":"ad861324","getFeedsOwned(address)":"b2a2e9ca","getRouterFee(uint256)":"5978e9b0","implementation()":"5c60da1b","initialize(address,address,address,address,bytes32,address,address,address,address)":"d024dda8","isContractCreated(address)":"cedf3ba2","isFeed(address)":"e58fdd04","major()":"f86d0b38","minor()":"bb834b0e","museToken()":"f77800e5","owner()":"8da5cb5b","patch()":"49975235","proxyCallContract()":"bb7e3648","renounceOwnership()":"715018a6","router()":"f887ea40","setBurnEnabled(bool)":"7b2c835f","setRouterFee(uint256,uint24)":"6a3f9c30","transferOwnership(address)":"f2fde38b","treasuryContract()":"18da0011","wethToken()":"4b57b0be"}},"storageLayout":{"storage":[{"astId":218,"contract":"contracts/factories/MecenateFeedFactory.sol:MecenateFeedFactory","label":"_initialized","offset":0,"slot":"0","type":"t_uint8"},{"astId":221,"contract":"contracts/factories/MecenateFeedFactory.sol:MecenateFeedFactory","label":"_initializing","offset":1,"slot":"0","type":"t_bool"},{"astId":751,"contract":"contracts/factories/MecenateFeedFactory.sol:MecenateFeedFactory","label":"__gap","offset":0,"slot":"1","type":"t_array(t_uint256)50_storage"},{"astId":10,"contract":"contracts/factories/MecenateFeedFactory.sol:MecenateFeedFactory","label":"_owner","offset":0,"slot":"51","type":"t_address"},{"astId":130,"contract":"contracts/factories/MecenateFeedFactory.sol:MecenateFeedFactory","label":"__gap","offset":0,"slot":"52","type":"t_array(t_uint256)49_storage"},{"astId":2603,"contract":"contracts/factories/MecenateFeedFactory.sol:MecenateFeedFactory","label":"proxyCallContract","offset":0,"slot":"101","type":"t_contract(IProxyCall)3546"},{"astId":2605,"contract":"contracts/factories/MecenateFeedFactory.sol:MecenateFeedFactory","label":"implementation","offset":0,"slot":"102","type":"t_address"},{"astId":2607,"contract":"contracts/factories/MecenateFeedFactory.sol:MecenateFeedFactory","label":"defaultOperator","offset":0,"slot":"103","type":"t_address"},{"astId":2610,"contract":"contracts/factories/MecenateFeedFactory.sol:MecenateFeedFactory","label":"feeds","offset":0,"slot":"104","type":"t_struct(AddressSet)2278_storage"},{"astId":2613,"contract":"contracts/factories/MecenateFeedFactory.sol:MecenateFeedFactory","label":"settings","offset":0,"slot":"106","type":"t_struct(FactorySettings)3615_storage"},{"astId":2615,"contract":"contracts/factories/MecenateFeedFactory.sol:MecenateFeedFactory","label":"feedByteCode","offset":0,"slot":"114","type":"t_bytes_storage"},{"astId":2619,"contract":"contracts/factories/MecenateFeedFactory.sol:MecenateFeedFactory","label":"routerFee","offset":0,"slot":"115","type":"t_mapping(t_uint256,t_uint24)"},{"astId":2624,"contract":"contracts/factories/MecenateFeedFactory.sol:MecenateFeedFactory","label":"feedStore","offset":0,"slot":"116","type":"t_mapping(t_address,t_struct(AddressSet)2278_storage)"},{"astId":2627,"contract":"contracts/factories/MecenateFeedFactory.sol:MecenateFeedFactory","label":"burnEnabled","offset":0,"slot":"117","type":"t_bool"},{"astId":2629,"contract":"contracts/factories/MecenateFeedFactory.sol:MecenateFeedFactory","label":"contractCounter","offset":0,"slot":"118","type":"t_uint256"},{"astId":2631,"contract":"contracts/factories/MecenateFeedFactory.sol:MecenateFeedFactory","label":"major","offset":0,"slot":"119","type":"t_uint256"},{"astId":2633,"contract":"contracts/factories/MecenateFeedFactory.sol:MecenateFeedFactory","label":"minor","offset":0,"slot":"120","type":"t_uint256"},{"astId":2635,"contract":"contracts/factories/MecenateFeedFactory.sol:MecenateFeedFactory","label":"patch","offset":0,"slot":"121","type":"t_uint256"}],"types":{"t_address":{"encoding":"inplace","label":"address","numberOfBytes":"20"},"t_array(t_bytes32)dyn_storage":{"base":"t_bytes32","encoding":"dynamic_array","label":"bytes32[]","numberOfBytes":"32"},"t_array(t_uint256)49_storage":{"base":"t_uint256","encoding":"inplace","label":"uint256[49]","numberOfBytes":"1568"},"t_array(t_uint256)50_storage":{"base":"t_uint256","encoding":"inplace","label":"uint256[50]","numberOfBytes":"1600"},"t_bool":{"encoding":"inplace","label":"bool","numberOfBytes":"1"},"t_bytes32":{"encoding":"inplace","label":"bytes32","numberOfBytes":"32"},"t_bytes_storage":{"encoding":"bytes","label":"bytes","numberOfBytes":"32"},"t_contract(IProxyCall)3546":{"encoding":"inplace","label":"contract IProxyCall","numberOfBytes":"20"},"t_mapping(t_address,t_struct(AddressSet)2278_storage)":{"encoding":"mapping","key":"t_address","label":"mapping(address => struct EnumerableSetUpgradeable.AddressSet)","numberOfBytes":"32","value":"t_struct(AddressSet)2278_storage"},"t_mapping(t_bytes32,t_uint256)":{"encoding":"mapping","key":"t_bytes32","label":"mapping(bytes32 => uint256)","numberOfBytes":"32","value":"t_uint256"},"t_mapping(t_uint256,t_uint24)":{"encoding":"mapping","key":"t_uint256","label":"mapping(uint256 => uint24)","numberOfBytes":"32","value":"t_uint24"},"t_struct(AddressSet)2278_storage":{"encoding":"inplace","label":"struct EnumerableSetUpgradeable.AddressSet","members":[{"astId":2277,"contract":"contracts/factories/MecenateFeedFactory.sol:MecenateFeedFactory","label":"_inner","offset":0,"slot":"0","type":"t_struct(Set)1963_storage"}],"numberOfBytes":"64"},"t_struct(FactorySettings)3615_storage":{"encoding":"inplace","label":"struct Structures.FactorySettings","members":[{"astId":3600,"contract":"contracts/factories/MecenateFeedFactory.sol:MecenateFeedFactory","label":"treasuryContract","offset":0,"slot":"0","type":"t_address"},{"astId":3602,"contract":"contracts/factories/MecenateFeedFactory.sol:MecenateFeedFactory","label":"usersModuleContract","offset":0,"slot":"1","type":"t_address"},{"astId":3604,"contract":"contracts/factories/MecenateFeedFactory.sol:MecenateFeedFactory","label":"easContract","offset":0,"slot":"2","type":"t_address"},{"astId":3606,"contract":"contracts/factories/MecenateFeedFactory.sol:MecenateFeedFactory","label":"easSchema","offset":0,"slot":"3","type":"t_bytes32"},{"astId":3608,"contract":"contracts/factories/MecenateFeedFactory.sol:MecenateFeedFactory","label":"museToken","offset":0,"slot":"4","type":"t_address"},{"astId":3610,"contract":"contracts/factories/MecenateFeedFactory.sol:MecenateFeedFactory","label":"daiToken","offset":0,"slot":"5","type":"t_address"},{"astId":3612,"contract":"contracts/factories/MecenateFeedFactory.sol:MecenateFeedFactory","label":"wethToken","offset":0,"slot":"6","type":"t_address"},{"astId":3614,"contract":"contracts/factories/MecenateFeedFactory.sol:MecenateFeedFactory","label":"router","offset":0,"slot":"7","type":"t_address"}],"numberOfBytes":"256"},"t_struct(Set)1963_storage":{"encoding":"inplace","label":"struct EnumerableSetUpgradeable.Set","members":[{"astId":1958,"contract":"contracts/factories/MecenateFeedFactory.sol:MecenateFeedFactory","label":"_values","offset":0,"slot":"0","type":"t_array(t_bytes32)dyn_storage"},{"astId":1962,"contract":"contracts/factories/MecenateFeedFactory.sol:MecenateFeedFactory","label":"_indexes","offset":0,"slot":"1","type":"t_mapping(t_bytes32,t_uint256)"}],"numberOfBytes":"64"},"t_uint24":{"encoding":"inplace","label":"uint24","numberOfBytes":"3"},"t_uint256":{"encoding":"inplace","label":"uint256","numberOfBytes":"32"},"t_uint8":{"encoding":"inplace","label":"uint8","numberOfBytes":"1"}}},"userdoc":{"kind":"user","methods":{},"version":1}}}}