{"contracts/helpers/ExternalProxyCall.sol":{"ExternalProxyCall":{"abi":[{"inputs":[{"internalType":"address","name":"externalContract","type":"address"},{"internalType":"bytes","name":"callData","type":"bytes"}],"name":"proxyCallAndReturnAddress","outputs":[{"internalType":"address payable","name":"result","type":"address"}],"stateMutability":"nonpayable","type":"function"}],"devdoc":{"details":"This is used so that the from address of the calling contract does not have any special permissions (e.g. ERC-20 transfer). Other return types and call structures may be added in the future.","kind":"dev","methods":{},"title":"Forwards arbitrary calls to an external contract.","version":1},"evm":{"bytecode":{"linkReferences":{},"object":"60808060405234610016576102d9908161001c8239f35b600080fdfe6080604052600436101561001257600080fd5b6000803560e01c63a1453b0e1461002857600080fd5b346100db5760403660031901126100db576004356001600160a01b03811681036100d7576024359067ffffffffffffffff82116100d357366023830112156100d357816004013561008061007b8261011f565b6100f4565b9281845236602483830101116100cf57916100cb9460208381969460246100af9701838701378401015261013b565b01516040516001600160a01b0390911681529081906020820190565b0390f35b8480fd5b8280fd5b5080fd5b80fd5b634e487b7160e01b600052604160045260246000fd5b6040519190601f01601f1916820167ffffffffffffffff81118382101761011a57604052565b6100de565b67ffffffffffffffff811161011a57601f01601f191660200190565b60405190604082019282841067ffffffffffffffff85111761011a57600080916101ba95604052601e85527f416464726573733a206c6f772d6c6576656c2063616c6c206661696c65640000602086015260208151910182855af13d156101bd573d916101aa61007b8461011f565b9283523d6000602085013e610211565b90565b606091610211565b156101cc57565b60405162461bcd60e51b815260206004820152601d60248201527f416464726573733a2063616c6c20746f206e6f6e2d636f6e74726163740000006044820152606490fd5b919290156102315750815115610225575090565b6101ba903b15156101c5565b8251909150156102445750805190602001fd5b6040519062461bcd60e51b82528160208060048301528251908160248401526000935b82851061028a575050604492506000838284010152601f80199101168101030190fd5b848101820151868601604401529381019385935061026756fea26469706673582212205166b4cf3ba78e656933ebd9a0d05f07b68447521405f99c896a591fb551a22464736f6c63430008130033","opcodes":"PUSH1 0x80 DUP1 PUSH1 0x40 MSTORE CALLVALUE PUSH2 0x16 JUMPI PUSH2 0x2D9 SWAP1 DUP2 PUSH2 0x1C DUP3 CODECOPY RETURN JUMPDEST PUSH1 0x0 DUP1 REVERT INVALID PUSH1 0x80 PUSH1 0x40 MSTORE PUSH1 0x4 CALLDATASIZE LT ISZERO PUSH2 0x12 JUMPI PUSH1 0x0 DUP1 REVERT JUMPDEST PUSH1 0x0 DUP1 CALLDATALOAD PUSH1 0xE0 SHR PUSH4 0xA1453B0E EQ PUSH2 0x28 JUMPI PUSH1 0x0 DUP1 REVERT JUMPDEST CALLVALUE PUSH2 0xDB JUMPI PUSH1 0x40 CALLDATASIZE PUSH1 0x3 NOT ADD SLT PUSH2 0xDB JUMPI PUSH1 0x4 CALLDATALOAD PUSH1 0x1 PUSH1 0x1 PUSH1 0xA0 SHL SUB DUP2 AND DUP2 SUB PUSH2 0xD7 JUMPI PUSH1 0x24 CALLDATALOAD SWAP1 PUSH8 0xFFFFFFFFFFFFFFFF DUP3 GT PUSH2 0xD3 JUMPI CALLDATASIZE PUSH1 0x23 DUP4 ADD SLT ISZERO PUSH2 0xD3 JUMPI DUP2 PUSH1 0x4 ADD CALLDATALOAD PUSH2 0x80 PUSH2 0x7B DUP3 PUSH2 0x11F JUMP JUMPDEST PUSH2 0xF4 JUMP JUMPDEST SWAP3 DUP2 DUP5 MSTORE CALLDATASIZE PUSH1 0x24 DUP4 DUP4 ADD ADD GT PUSH2 0xCF JUMPI SWAP2 PUSH2 0xCB SWAP5 PUSH1 0x20 DUP4 DUP2 SWAP7 SWAP5 PUSH1 0x24 PUSH2 0xAF SWAP8 ADD DUP4 DUP8 ADD CALLDATACOPY DUP5 ADD ADD MSTORE PUSH2 0x13B JUMP JUMPDEST ADD MLOAD PUSH1 0x40 MLOAD PUSH1 0x1 PUSH1 0x1 PUSH1 0xA0 SHL SUB SWAP1 SWAP2 AND DUP2 MSTORE SWAP1 DUP2 SWAP1 PUSH1 0x20 DUP3 ADD SWAP1 JUMP JUMPDEST SUB SWAP1 RETURN JUMPDEST DUP5 DUP1 REVERT JUMPDEST DUP3 DUP1 REVERT JUMPDEST POP DUP1 REVERT JUMPDEST DUP1 REVERT JUMPDEST PUSH4 0x4E487B71 PUSH1 0xE0 SHL PUSH1 0x0 MSTORE PUSH1 0x41 PUSH1 0x4 MSTORE PUSH1 0x24 PUSH1 0x0 REVERT JUMPDEST PUSH1 0x40 MLOAD SWAP2 SWAP1 PUSH1 0x1F ADD PUSH1 0x1F NOT AND DUP3 ADD PUSH8 0xFFFFFFFFFFFFFFFF DUP2 GT DUP4 DUP3 LT OR PUSH2 0x11A JUMPI PUSH1 0x40 MSTORE JUMP JUMPDEST PUSH2 0xDE JUMP JUMPDEST PUSH8 0xFFFFFFFFFFFFFFFF DUP2 GT PUSH2 0x11A JUMPI PUSH1 0x1F ADD PUSH1 0x1F NOT AND PUSH1 0x20 ADD SWAP1 JUMP JUMPDEST PUSH1 0x40 MLOAD SWAP1 PUSH1 0x40 DUP3 ADD SWAP3 DUP3 DUP5 LT PUSH8 0xFFFFFFFFFFFFFFFF DUP6 GT OR PUSH2 0x11A JUMPI PUSH1 0x0 DUP1 SWAP2 PUSH2 0x1BA SWAP6 PUSH1 0x40 MSTORE PUSH1 0x1E DUP6 MSTORE PUSH32 0x416464726573733A206C6F772D6C6576656C2063616C6C206661696C65640000 PUSH1 0x20 DUP7 ADD MSTORE PUSH1 0x20 DUP2 MLOAD SWAP2 ADD DUP3 DUP6 GAS CALL RETURNDATASIZE ISZERO PUSH2 0x1BD JUMPI RETURNDATASIZE SWAP2 PUSH2 0x1AA PUSH2 0x7B DUP5 PUSH2 0x11F JUMP JUMPDEST SWAP3 DUP4 MSTORE RETURNDATASIZE PUSH1 0x0 PUSH1 0x20 DUP6 ADD RETURNDATACOPY PUSH2 0x211 JUMP JUMPDEST SWAP1 JUMP JUMPDEST PUSH1 0x60 SWAP2 PUSH2 0x211 JUMP JUMPDEST ISZERO PUSH2 0x1CC JUMPI JUMP JUMPDEST PUSH1 0x40 MLOAD PUSH3 0x461BCD PUSH1 0xE5 SHL DUP2 MSTORE PUSH1 0x20 PUSH1 0x4 DUP3 ADD MSTORE PUSH1 0x1D PUSH1 0x24 DUP3 ADD MSTORE PUSH32 0x416464726573733A2063616C6C20746F206E6F6E2D636F6E7472616374000000 PUSH1 0x44 DUP3 ADD MSTORE PUSH1 0x64 SWAP1 REVERT JUMPDEST SWAP2 SWAP3 SWAP1 ISZERO PUSH2 0x231 JUMPI POP DUP2 MLOAD ISZERO PUSH2 0x225 JUMPI POP SWAP1 JUMP JUMPDEST PUSH2 0x1BA SWAP1 EXTCODESIZE ISZERO ISZERO PUSH2 0x1C5 JUMP JUMPDEST DUP3 MLOAD SWAP1 SWAP2 POP ISZERO PUSH2 0x244 JUMPI POP DUP1 MLOAD SWAP1 PUSH1 0x20 ADD REVERT JUMPDEST PUSH1 0x40 MLOAD SWAP1 PUSH3 0x461BCD PUSH1 0xE5 SHL DUP3 MSTORE DUP2 PUSH1 0x20 DUP1 PUSH1 0x4 DUP4 ADD MSTORE DUP3 MLOAD SWAP1 DUP2 PUSH1 0x24 DUP5 ADD MSTORE PUSH1 0x0 SWAP4 JUMPDEST DUP3 DUP6 LT PUSH2 0x28A JUMPI POP POP PUSH1 0x44 SWAP3 POP PUSH1 0x0 DUP4 DUP3 DUP5 ADD ADD MSTORE PUSH1 0x1F DUP1 NOT SWAP2 ADD AND DUP2 ADD SUB ADD SWAP1 REVERT JUMPDEST DUP5 DUP2 ADD DUP3 ADD MLOAD DUP7 DUP7 ADD PUSH1 0x44 ADD MSTORE SWAP4 DUP2 ADD SWAP4 DUP6 SWAP4 POP PUSH2 0x267 JUMP INVALID LOG2 PUSH5 0x6970667358 0x22 SLT KECCAK256 MLOAD PUSH7 0xB4CF3BA78E6569 CALLER 0xEB 0xD9 LOG0 0xD0 0x5F SMOD 0xB6 DUP5 SELFBALANCE MSTORE EQ SDIV 0xF9 SWAP13 DUP10 PUSH11 0x591FB551A22464736F6C63 NUMBER STOP ADDMOD SGT STOP CALLER "},"gasEstimates":{"creation":{"codeDepositCost":"145800","executionCost":"196","totalCost":"145996"},"external":{"proxyCallAndReturnAddress(address,bytes)":"infinite"}},"methodIdentifiers":{"proxyCallAndReturnAddress(address,bytes)":"a1453b0e"}},"storageLayout":{"storage":[],"types":null},"userdoc":{"kind":"user","methods":{},"notice":"DO NOT approve this contract to transfer any ERC-20 or ERC-721, or grant any other permissions for another contract.","version":1}}}}