{"contracts/layer/MecenatePay.sol":{"MecenatePay":{"abi":[{"inputs":[{"internalType":"address","name":"_usersContract","type":"address"},{"internalType":"address","name":"_treasury","type":"address"}],"stateMutability":"nonpayable","type":"constructor"},{"anonymous":false,"inputs":[{"indexed":true,"internalType":"address","name":"user","type":"address"},{"indexed":false,"internalType":"bytes","name":"pubKey","type":"bytes"}],"name":"KeySubmitted","type":"event"},{"anonymous":false,"inputs":[{"indexed":true,"internalType":"address","name":"previousOwner","type":"address"},{"indexed":true,"internalType":"address","name":"newOwner","type":"address"}],"name":"OwnershipTransferred","type":"event"},{"inputs":[{"internalType":"bytes","name":"","type":"bytes"}],"name":"encryptedKeys","outputs":[{"internalType":"bytes","name":"","type":"bytes"}],"stateMutability":"view","type":"function"},{"inputs":[{"internalType":"bytes","name":"pubKey","type":"bytes"}],"name":"getHash","outputs":[{"internalType":"bytes","name":"","type":"bytes"}],"stateMutability":"view","type":"function"},{"inputs":[],"name":"owner","outputs":[{"internalType":"address","name":"","type":"address"}],"stateMutability":"view","type":"function"},{"inputs":[],"name":"renounceOwnership","outputs":[],"stateMutability":"nonpayable","type":"function"},{"inputs":[{"internalType":"bytes","name":"encryptedData","type":"bytes"}],"name":"submitHash","outputs":[],"stateMutability":"payable","type":"function"},{"inputs":[{"internalType":"address","name":"newOwner","type":"address"}],"name":"transferOwnership","outputs":[],"stateMutability":"nonpayable","type":"function"},{"inputs":[],"name":"treasury","outputs":[{"internalType":"address","name":"","type":"address"}],"stateMutability":"view","type":"function"},{"inputs":[{"internalType":"address","name":"newUsersContract","type":"address"}],"name":"updateUsersContract","outputs":[],"stateMutability":"nonpayable","type":"function"},{"inputs":[],"name":"usersContract","outputs":[{"internalType":"address","name":"","type":"address"}],"stateMutability":"view","type":"function"}],"devdoc":{"kind":"dev","methods":{"owner()":{"details":"Returns the address of the current owner."},"renounceOwnership()":{"details":"Leaves the contract without owner. It will not be possible to call `onlyOwner` functions. Can only be called by the current owner. NOTE: Renouncing ownership will leave the contract without an owner, thereby disabling any functionality that is only available to the owner."},"transferOwnership(address)":{"details":"Transfers ownership of the contract to a new account (`newOwner`). Can only be called by the current owner."}},"version":1},"evm":{"bytecode":{"linkReferences":{},"object":"6080346100c357601f61097338819003918201601f19168301916001600160401b038311848410176100c85780849260409485528339810103126100c357610052602061004b836100de565b92016100de565b60008054336001600160a01b0319808316821784556040519590946001600160a01b03949093859391908416907f8be0079c531659141344cd1fd0a4f28419497f9722a3daafe3b4186f6b6457e09080a3168360025416176002551690600354161760035561088090816100f38239f35b600080fd5b634e487b7160e01b600052604160045260246000fd5b51906001600160a01b03821682036100c35756fe608060408181526004908136101561001657600080fd5b600092833560e01c908163142ebf3c14610597575080634b78896d14610153578063505da9e11461054e57806361d027b314610525578063715018a6146104c85780638da5cb5b146104a05780638f903c79146101a3578063b00140aa146101535763f2fde38b1461008757600080fd5b3461014f57602036600319011261014f576001600160a01b0382358181169391929084900361014b576100b86107ad565b83156100f957505082546001600160a01b0319811683178455167f8be0079c531659141344cd1fd0a4f28419497f9722a3daafe3b4186f6b6457e08380a380f35b906020608492519162461bcd60e51b8352820152602660248201527f4f776e61626c653a206e6577206f776e657220697320746865207a65726f206160448201526564647265737360d01b6064820152fd5b8480fd5b8280fd5b83823461019f5761019b90610190610181602061016f36610610565b8185519382858094519384920161067e565b810160018152030190206106db565b905191829182610781565b0390f35b5080fd5b5082906101af36610610565b908151820193602092828185880197031261014b57838101519567ffffffffffffffff9687811161049c5781866101e892850101610805565b918481015190888211610487576102029291018601610805565b9360018060a01b036003541684516391792d5b60e01b815282818681855afa908115610492578891610461575b50340361042c57868080809334905af13d15610427573d61024f816105f4565b9061025c875192836105bc565b815287833d92013e5b156103f257835191855161027c8185858a0161067e565b8301928281600195868152030190209381519889116103df57506102a084546106a1565b601f8111610399575b5081601f89116001146103165750968092819288997ef0a6069b4fee3a287b0f6e73983c9654d21d13810d914d14adc2393028cca498999461030b575b50501b916000199060031b1c19161790555b5180610305339482610781565b0390a280f35b0151925089806102e6565b909791601f198316988589528289209289905b8b8210610382575050837ef0a6069b4fee3a287b0f6e73983c9654d21d13810d914d14adc2393028cca498999a10610369575b505050811b0190556102f8565b015160001960f88460031b161c1916905587808061035c565b808785968294968601518155019501930190610329565b848852828820601f8a0160051c810191848b106103d5575b601f0160051c019084905b8281106103ca5750506102a9565b8981550184906103bc565b90915081906103b1565b634e487b7160e01b885260419052602487fd5b9050606492519162461bcd60e51b8352820152601060248201526f2a3930b739b332b9103330b4b632b21760811b6044820152fd5b610265565b845162461bcd60e51b8152808501839052600f60248201526e57726f6e67204665652056616c756560881b6044820152606490fd5b90508281813d831161048b575b61047881836105bc565b8101031261048757518961022f565b8780fd5b503d61046e565b86513d8a823e3d90fd5b8680fd5b83823461019f578160031936011261019f57905490516001600160a01b039091168152602090f35b83346105225780600319360112610522576104e16107ad565b80546001600160a01b03198116825581906001600160a01b03167f8be0079c531659141344cd1fd0a4f28419497f9722a3daafe3b4186f6b6457e08280a380f35b80fd5b83823461019f578160031936011261019f5760035490516001600160a01b039091168152602090f35b50503461019f57602036600319011261019f57356001600160a01b0381169081900361019f5761057c6107ad565b6bffffffffffffffffffffffff60a01b600254161760025580f35b84903461019f578160031936011261019f576002546001600160a01b03168152602090f35b90601f8019910116810190811067ffffffffffffffff8211176105de57604052565b634e487b7160e01b600052604160045260246000fd5b67ffffffffffffffff81116105de57601f01601f191660200190565b60206003198201126106795760043567ffffffffffffffff8111610679578160238201121561067957806004013590610648826105f4565b9261065660405194856105bc565b828452602483830101116106795781600092602460209301838601378301015290565b600080fd5b60005b8381106106915750506000910152565b8181015183820152602001610681565b90600182811c921680156106d1575b60208310146106bb57565b634e487b7160e01b600052602260045260246000fd5b91607f16916106b0565b90604051918260008254926106ef846106a1565b90818452600194858116908160001461075e575060011461071b575b5050610719925003836105bc565b565b9093915060005260209081600020936000915b8183106107465750506107199350820101388061070b565b8554888401850152948501948794509183019161072e565b91505061071994506020925060ff191682840152151560051b820101388061070b565b604091602082526107a1815180928160208601526020868601910161067e565b601f01601f1916010190565b6000546001600160a01b031633036107c157565b606460405162461bcd60e51b815260206004820152602060248201527f4f776e61626c653a2063616c6c6572206973206e6f7420746865206f776e65726044820152fd5b81601f8201121561067957805161081b816105f4565b9261082960405194856105bc565b8184526020828401011161067957610847916020808501910161067e565b9056fea2646970667358221220f78b7b6b1b741baccf5c7fbfb7077b29e8cb4921d3a69680200c1891845a08d764736f6c63430008130033","opcodes":"PUSH1 0x80 CALLVALUE PUSH2 0xC3 JUMPI PUSH1 0x1F PUSH2 0x973 CODESIZE DUP2 SWAP1 SUB SWAP2 DUP3 ADD PUSH1 0x1F NOT AND DUP4 ADD SWAP2 PUSH1 0x1 PUSH1 0x1 PUSH1 0x40 SHL SUB DUP4 GT DUP5 DUP5 LT OR PUSH2 0xC8 JUMPI DUP1 DUP5 SWAP3 PUSH1 0x40 SWAP5 DUP6 MSTORE DUP4 CODECOPY DUP2 ADD SUB SLT PUSH2 0xC3 JUMPI PUSH2 0x52 PUSH1 0x20 PUSH2 0x4B DUP4 PUSH2 0xDE JUMP JUMPDEST SWAP3 ADD PUSH2 0xDE JUMP JUMPDEST PUSH1 0x0 DUP1 SLOAD CALLER PUSH1 0x1 PUSH1 0x1 PUSH1 0xA0 SHL SUB NOT DUP1 DUP4 AND DUP3 OR DUP5 SSTORE PUSH1 0x40 MLOAD SWAP6 SWAP1 SWAP5 PUSH1 0x1 PUSH1 0x1 PUSH1 0xA0 SHL SUB SWAP5 SWAP1 SWAP4 DUP6 SWAP4 SWAP2 SWAP1 DUP5 AND SWAP1 PUSH32 0x8BE0079C531659141344CD1FD0A4F28419497F9722A3DAAFE3B4186F6B6457E0 SWAP1 DUP1 LOG3 AND DUP4 PUSH1 0x2 SLOAD AND OR PUSH1 0x2 SSTORE AND SWAP1 PUSH1 0x3 SLOAD AND OR PUSH1 0x3 SSTORE PUSH2 0x880 SWAP1 DUP2 PUSH2 0xF3 DUP3 CODECOPY RETURN JUMPDEST PUSH1 0x0 DUP1 REVERT JUMPDEST PUSH4 0x4E487B71 PUSH1 0xE0 SHL PUSH1 0x0 MSTORE PUSH1 0x41 PUSH1 0x4 MSTORE PUSH1 0x24 PUSH1 0x0 REVERT JUMPDEST MLOAD SWAP1 PUSH1 0x1 PUSH1 0x1 PUSH1 0xA0 SHL SUB DUP3 AND DUP3 SUB PUSH2 0xC3 JUMPI JUMP INVALID PUSH1 0x80 PUSH1 0x40 DUP2 DUP2 MSTORE PUSH1 0x4 SWAP1 DUP2 CALLDATASIZE LT ISZERO PUSH2 0x16 JUMPI PUSH1 0x0 DUP1 REVERT JUMPDEST PUSH1 0x0 SWAP3 DUP4 CALLDATALOAD PUSH1 0xE0 SHR SWAP1 DUP2 PUSH4 0x142EBF3C EQ PUSH2 0x597 JUMPI POP DUP1 PUSH4 0x4B78896D EQ PUSH2 0x153 JUMPI DUP1 PUSH4 0x505DA9E1 EQ PUSH2 0x54E JUMPI DUP1 PUSH4 0x61D027B3 EQ PUSH2 0x525 JUMPI DUP1 PUSH4 0x715018A6 EQ PUSH2 0x4C8 JUMPI DUP1 PUSH4 0x8DA5CB5B EQ PUSH2 0x4A0 JUMPI DUP1 PUSH4 0x8F903C79 EQ PUSH2 0x1A3 JUMPI DUP1 PUSH4 0xB00140AA EQ PUSH2 0x153 JUMPI PUSH4 0xF2FDE38B EQ PUSH2 0x87 JUMPI PUSH1 0x0 DUP1 REVERT JUMPDEST CALLVALUE PUSH2 0x14F JUMPI PUSH1 0x20 CALLDATASIZE PUSH1 0x3 NOT ADD SLT PUSH2 0x14F JUMPI PUSH1 0x1 PUSH1 0x1 PUSH1 0xA0 SHL SUB DUP3 CALLDATALOAD DUP2 DUP2 AND SWAP4 SWAP2 SWAP3 SWAP1 DUP5 SWAP1 SUB PUSH2 0x14B JUMPI PUSH2 0xB8 PUSH2 0x7AD JUMP JUMPDEST DUP4 ISZERO PUSH2 0xF9 JUMPI POP POP DUP3 SLOAD PUSH1 0x1 PUSH1 0x1 PUSH1 0xA0 SHL SUB NOT DUP2 AND DUP4 OR DUP5 SSTORE AND PUSH32 0x8BE0079C531659141344CD1FD0A4F28419497F9722A3DAAFE3B4186F6B6457E0 DUP4 DUP1 LOG3 DUP1 RETURN JUMPDEST SWAP1 PUSH1 0x20 PUSH1 0x84 SWAP3 MLOAD SWAP2 PUSH3 0x461BCD PUSH1 0xE5 SHL DUP4 MSTORE DUP3 ADD MSTORE PUSH1 0x26 PUSH1 0x24 DUP3 ADD MSTORE PUSH32 0x4F776E61626C653A206E6577206F776E657220697320746865207A65726F2061 PUSH1 0x44 DUP3 ADD MSTORE PUSH6 0x646472657373 PUSH1 0xD0 SHL PUSH1 0x64 DUP3 ADD MSTORE REVERT JUMPDEST DUP5 DUP1 REVERT JUMPDEST DUP3 DUP1 REVERT JUMPDEST DUP4 DUP3 CALLVALUE PUSH2 0x19F JUMPI PUSH2 0x19B SWAP1 PUSH2 0x190 PUSH2 0x181 PUSH1 0x20 PUSH2 0x16F CALLDATASIZE PUSH2 0x610 JUMP JUMPDEST DUP2 DUP6 MLOAD SWAP4 DUP3 DUP6 DUP1 SWAP5 MLOAD SWAP4 DUP5 SWAP3 ADD PUSH2 0x67E JUMP JUMPDEST DUP2 ADD PUSH1 0x1 DUP2 MSTORE SUB ADD SWAP1 KECCAK256 PUSH2 0x6DB JUMP JUMPDEST SWAP1 MLOAD SWAP2 DUP3 SWAP2 DUP3 PUSH2 0x781 JUMP JUMPDEST SUB SWAP1 RETURN JUMPDEST POP DUP1 REVERT JUMPDEST POP DUP3 SWAP1 PUSH2 0x1AF CALLDATASIZE PUSH2 0x610 JUMP JUMPDEST SWAP1 DUP2 MLOAD DUP3 ADD SWAP4 PUSH1 0x20 SWAP3 DUP3 DUP2 DUP6 DUP9 ADD SWAP8 SUB SLT PUSH2 0x14B JUMPI DUP4 DUP2 ADD MLOAD SWAP6 PUSH8 0xFFFFFFFFFFFFFFFF SWAP7 DUP8 DUP2 GT PUSH2 0x49C JUMPI DUP2 DUP7 PUSH2 0x1E8 SWAP3 DUP6 ADD ADD PUSH2 0x805 JUMP JUMPDEST SWAP2 DUP5 DUP2 ADD MLOAD SWAP1 DUP9 DUP3 GT PUSH2 0x487 JUMPI PUSH2 0x202 SWAP3 SWAP2 ADD DUP7 ADD PUSH2 0x805 JUMP JUMPDEST SWAP4 PUSH1 0x1 DUP1 PUSH1 0xA0 SHL SUB PUSH1 0x3 SLOAD AND DUP5 MLOAD PUSH4 0x91792D5B PUSH1 0xE0 SHL DUP2 MSTORE DUP3 DUP2 DUP7 DUP2 DUP6 GAS STATICCALL SWAP1 DUP2 ISZERO PUSH2 0x492 JUMPI DUP9 SWAP2 PUSH2 0x461 JUMPI JUMPDEST POP CALLVALUE SUB PUSH2 0x42C JUMPI DUP7 DUP1 DUP1 DUP1 SWAP4 CALLVALUE SWAP1 GAS CALL RETURNDATASIZE ISZERO PUSH2 0x427 JUMPI RETURNDATASIZE PUSH2 0x24F DUP2 PUSH2 0x5F4 JUMP JUMPDEST SWAP1 PUSH2 0x25C DUP8 MLOAD SWAP3 DUP4 PUSH2 0x5BC JUMP JUMPDEST DUP2 MSTORE DUP8 DUP4 RETURNDATASIZE SWAP3 ADD RETURNDATACOPY JUMPDEST ISZERO PUSH2 0x3F2 JUMPI DUP4 MLOAD SWAP2 DUP6 MLOAD PUSH2 0x27C DUP2 DUP6 DUP6 DUP11 ADD PUSH2 0x67E JUMP JUMPDEST DUP4 ADD SWAP3 DUP3 DUP2 PUSH1 0x1 SWAP6 DUP7 DUP2 MSTORE SUB ADD SWAP1 KECCAK256 SWAP4 DUP2 MLOAD SWAP9 DUP10 GT PUSH2 0x3DF JUMPI POP PUSH2 0x2A0 DUP5 SLOAD PUSH2 0x6A1 JUMP JUMPDEST PUSH1 0x1F DUP2 GT PUSH2 0x399 JUMPI JUMPDEST POP DUP2 PUSH1 0x1F DUP10 GT PUSH1 0x1 EQ PUSH2 0x316 JUMPI POP SWAP7 DUP1 SWAP3 DUP2 SWAP3 DUP9 SWAP10 PUSH31 0xF0A6069B4FEE3A287B0F6E73983C9654D21D13810D914D14ADC2393028CCA4 SWAP9 SWAP10 SWAP5 PUSH2 0x30B JUMPI JUMPDEST POP POP SHL SWAP2 PUSH1 0x0 NOT SWAP1 PUSH1 0x3 SHL SHR NOT AND OR SWAP1 SSTORE JUMPDEST MLOAD DUP1 PUSH2 0x305 CALLER SWAP5 DUP3 PUSH2 0x781 JUMP JUMPDEST SUB SWAP1 LOG2 DUP1 RETURN JUMPDEST ADD MLOAD SWAP3 POP DUP10 DUP1 PUSH2 0x2E6 JUMP JUMPDEST SWAP1 SWAP8 SWAP2 PUSH1 0x1F NOT DUP4 AND SWAP9 DUP6 DUP10 MSTORE DUP3 DUP10 KECCAK256 SWAP3 DUP10 SWAP1 JUMPDEST DUP12 DUP3 LT PUSH2 0x382 JUMPI POP POP DUP4 PUSH31 0xF0A6069B4FEE3A287B0F6E73983C9654D21D13810D914D14ADC2393028CCA4 SWAP9 SWAP10 SWAP11 LT PUSH2 0x369 JUMPI JUMPDEST POP POP POP DUP2 SHL ADD SWAP1 SSTORE PUSH2 0x2F8 JUMP JUMPDEST ADD MLOAD PUSH1 0x0 NOT PUSH1 0xF8 DUP5 PUSH1 0x3 SHL AND SHR NOT AND SWAP1 SSTORE DUP8 DUP1 DUP1 PUSH2 0x35C JUMP JUMPDEST DUP1 DUP8 DUP6 SWAP7 DUP3 SWAP5 SWAP7 DUP7 ADD MLOAD DUP2 SSTORE ADD SWAP6 ADD SWAP4 ADD SWAP1 PUSH2 0x329 JUMP JUMPDEST DUP5 DUP9 MSTORE DUP3 DUP9 KECCAK256 PUSH1 0x1F DUP11 ADD PUSH1 0x5 SHR DUP2 ADD SWAP2 DUP5 DUP12 LT PUSH2 0x3D5 JUMPI JUMPDEST PUSH1 0x1F ADD PUSH1 0x5 SHR ADD SWAP1 DUP5 SWAP1 JUMPDEST DUP3 DUP2 LT PUSH2 0x3CA JUMPI POP POP PUSH2 0x2A9 JUMP JUMPDEST DUP10 DUP2 SSTORE ADD DUP5 SWAP1 PUSH2 0x3BC JUMP JUMPDEST SWAP1 SWAP2 POP DUP2 SWAP1 PUSH2 0x3B1 JUMP JUMPDEST PUSH4 0x4E487B71 PUSH1 0xE0 SHL DUP9 MSTORE PUSH1 0x41 SWAP1 MSTORE PUSH1 0x24 DUP8 REVERT JUMPDEST SWAP1 POP PUSH1 0x64 SWAP3 MLOAD SWAP2 PUSH3 0x461BCD PUSH1 0xE5 SHL DUP4 MSTORE DUP3 ADD MSTORE PUSH1 0x10 PUSH1 0x24 DUP3 ADD MSTORE PUSH16 0x2A3930B739B332B9103330B4B632B217 PUSH1 0x81 SHL PUSH1 0x44 DUP3 ADD MSTORE REVERT JUMPDEST PUSH2 0x265 JUMP JUMPDEST DUP5 MLOAD PUSH3 0x461BCD PUSH1 0xE5 SHL DUP2 MSTORE DUP1 DUP6 ADD DUP4 SWAP1 MSTORE PUSH1 0xF PUSH1 0x24 DUP3 ADD MSTORE PUSH15 0x57726F6E67204665652056616C7565 PUSH1 0x88 SHL PUSH1 0x44 DUP3 ADD MSTORE PUSH1 0x64 SWAP1 REVERT JUMPDEST SWAP1 POP DUP3 DUP2 DUP2 RETURNDATASIZE DUP4 GT PUSH2 0x48B JUMPI JUMPDEST PUSH2 0x478 DUP2 DUP4 PUSH2 0x5BC JUMP JUMPDEST DUP2 ADD SUB SLT PUSH2 0x487 JUMPI MLOAD DUP10 PUSH2 0x22F JUMP JUMPDEST DUP8 DUP1 REVERT JUMPDEST POP RETURNDATASIZE PUSH2 0x46E JUMP JUMPDEST DUP7 MLOAD RETURNDATASIZE DUP11 DUP3 RETURNDATACOPY RETURNDATASIZE SWAP1 REVERT JUMPDEST DUP7 DUP1 REVERT JUMPDEST DUP4 DUP3 CALLVALUE PUSH2 0x19F JUMPI DUP2 PUSH1 0x3 NOT CALLDATASIZE ADD SLT PUSH2 0x19F JUMPI SWAP1 SLOAD SWAP1 MLOAD PUSH1 0x1 PUSH1 0x1 PUSH1 0xA0 SHL SUB SWAP1 SWAP2 AND DUP2 MSTORE PUSH1 0x20 SWAP1 RETURN JUMPDEST DUP4 CALLVALUE PUSH2 0x522 JUMPI DUP1 PUSH1 0x3 NOT CALLDATASIZE ADD SLT PUSH2 0x522 JUMPI PUSH2 0x4E1 PUSH2 0x7AD JUMP JUMPDEST DUP1 SLOAD PUSH1 0x1 PUSH1 0x1 PUSH1 0xA0 SHL SUB NOT DUP2 AND DUP3 SSTORE DUP2 SWAP1 PUSH1 0x1 PUSH1 0x1 PUSH1 0xA0 SHL SUB AND PUSH32 0x8BE0079C531659141344CD1FD0A4F28419497F9722A3DAAFE3B4186F6B6457E0 DUP3 DUP1 LOG3 DUP1 RETURN JUMPDEST DUP1 REVERT JUMPDEST DUP4 DUP3 CALLVALUE PUSH2 0x19F JUMPI DUP2 PUSH1 0x3 NOT CALLDATASIZE ADD SLT PUSH2 0x19F JUMPI PUSH1 0x3 SLOAD SWAP1 MLOAD PUSH1 0x1 PUSH1 0x1 PUSH1 0xA0 SHL SUB SWAP1 SWAP2 AND DUP2 MSTORE PUSH1 0x20 SWAP1 RETURN JUMPDEST POP POP CALLVALUE PUSH2 0x19F JUMPI PUSH1 0x20 CALLDATASIZE PUSH1 0x3 NOT ADD SLT PUSH2 0x19F JUMPI CALLDATALOAD PUSH1 0x1 PUSH1 0x1 PUSH1 0xA0 SHL SUB DUP2 AND SWAP1 DUP2 SWAP1 SUB PUSH2 0x19F JUMPI PUSH2 0x57C PUSH2 0x7AD JUMP JUMPDEST PUSH12 0xFFFFFFFFFFFFFFFFFFFFFFFF PUSH1 0xA0 SHL PUSH1 0x2 SLOAD AND OR PUSH1 0x2 SSTORE DUP1 RETURN JUMPDEST DUP5 SWAP1 CALLVALUE PUSH2 0x19F JUMPI DUP2 PUSH1 0x3 NOT CALLDATASIZE ADD SLT PUSH2 0x19F JUMPI PUSH1 0x2 SLOAD PUSH1 0x1 PUSH1 0x1 PUSH1 0xA0 SHL SUB AND DUP2 MSTORE PUSH1 0x20 SWAP1 RETURN JUMPDEST SWAP1 PUSH1 0x1F DUP1 NOT SWAP2 ADD AND DUP2 ADD SWAP1 DUP2 LT PUSH8 0xFFFFFFFFFFFFFFFF DUP3 GT OR PUSH2 0x5DE JUMPI PUSH1 0x40 MSTORE JUMP JUMPDEST PUSH4 0x4E487B71 PUSH1 0xE0 SHL PUSH1 0x0 MSTORE PUSH1 0x41 PUSH1 0x4 MSTORE PUSH1 0x24 PUSH1 0x0 REVERT JUMPDEST PUSH8 0xFFFFFFFFFFFFFFFF DUP2 GT PUSH2 0x5DE JUMPI PUSH1 0x1F ADD PUSH1 0x1F NOT AND PUSH1 0x20 ADD SWAP1 JUMP JUMPDEST PUSH1 0x20 PUSH1 0x3 NOT DUP3 ADD SLT PUSH2 0x679 JUMPI PUSH1 0x4 CALLDATALOAD PUSH8 0xFFFFFFFFFFFFFFFF DUP2 GT PUSH2 0x679 JUMPI DUP2 PUSH1 0x23 DUP3 ADD SLT ISZERO PUSH2 0x679 JUMPI DUP1 PUSH1 0x4 ADD CALLDATALOAD SWAP1 PUSH2 0x648 DUP3 PUSH2 0x5F4 JUMP JUMPDEST SWAP3 PUSH2 0x656 PUSH1 0x40 MLOAD SWAP5 DUP6 PUSH2 0x5BC JUMP JUMPDEST DUP3 DUP5 MSTORE PUSH1 0x24 DUP4 DUP4 ADD ADD GT PUSH2 0x679 JUMPI DUP2 PUSH1 0x0 SWAP3 PUSH1 0x24 PUSH1 0x20 SWAP4 ADD DUP4 DUP7 ADD CALLDATACOPY DUP4 ADD ADD MSTORE SWAP1 JUMP JUMPDEST PUSH1 0x0 DUP1 REVERT JUMPDEST PUSH1 0x0 JUMPDEST DUP4 DUP2 LT PUSH2 0x691 JUMPI POP POP PUSH1 0x0 SWAP2 ADD MSTORE JUMP JUMPDEST DUP2 DUP2 ADD MLOAD DUP4 DUP3 ADD MSTORE PUSH1 0x20 ADD PUSH2 0x681 JUMP JUMPDEST SWAP1 PUSH1 0x1 DUP3 DUP2 SHR SWAP3 AND DUP1 ISZERO PUSH2 0x6D1 JUMPI JUMPDEST PUSH1 0x20 DUP4 LT EQ PUSH2 0x6BB JUMPI JUMP JUMPDEST PUSH4 0x4E487B71 PUSH1 0xE0 SHL PUSH1 0x0 MSTORE PUSH1 0x22 PUSH1 0x4 MSTORE PUSH1 0x24 PUSH1 0x0 REVERT JUMPDEST SWAP2 PUSH1 0x7F AND SWAP2 PUSH2 0x6B0 JUMP JUMPDEST SWAP1 PUSH1 0x40 MLOAD SWAP2 DUP3 PUSH1 0x0 DUP3 SLOAD SWAP3 PUSH2 0x6EF DUP5 PUSH2 0x6A1 JUMP JUMPDEST SWAP1 DUP2 DUP5 MSTORE PUSH1 0x1 SWAP5 DUP6 DUP2 AND SWAP1 DUP2 PUSH1 0x0 EQ PUSH2 0x75E JUMPI POP PUSH1 0x1 EQ PUSH2 0x71B JUMPI JUMPDEST POP POP PUSH2 0x719 SWAP3 POP SUB DUP4 PUSH2 0x5BC JUMP JUMPDEST JUMP JUMPDEST SWAP1 SWAP4 SWAP2 POP PUSH1 0x0 MSTORE PUSH1 0x20 SWAP1 DUP2 PUSH1 0x0 KECCAK256 SWAP4 PUSH1 0x0 SWAP2 JUMPDEST DUP2 DUP4 LT PUSH2 0x746 JUMPI POP POP PUSH2 0x719 SWAP4 POP DUP3 ADD ADD CODESIZE DUP1 PUSH2 0x70B JUMP JUMPDEST DUP6 SLOAD DUP9 DUP5 ADD DUP6 ADD MSTORE SWAP5 DUP6 ADD SWAP5 DUP8 SWAP5 POP SWAP2 DUP4 ADD SWAP2 PUSH2 0x72E JUMP JUMPDEST SWAP2 POP POP PUSH2 0x719 SWAP5 POP PUSH1 0x20 SWAP3 POP PUSH1 0xFF NOT AND DUP3 DUP5 ADD MSTORE ISZERO ISZERO PUSH1 0x5 SHL DUP3 ADD ADD CODESIZE DUP1 PUSH2 0x70B JUMP JUMPDEST PUSH1 0x40 SWAP2 PUSH1 0x20 DUP3 MSTORE PUSH2 0x7A1 DUP2 MLOAD DUP1 SWAP3 DUP2 PUSH1 0x20 DUP7 ADD MSTORE PUSH1 0x20 DUP7 DUP7 ADD SWAP2 ADD PUSH2 0x67E JUMP JUMPDEST PUSH1 0x1F ADD PUSH1 0x1F NOT AND ADD ADD SWAP1 JUMP JUMPDEST PUSH1 0x0 SLOAD PUSH1 0x1 PUSH1 0x1 PUSH1 0xA0 SHL SUB AND CALLER SUB PUSH2 0x7C1 JUMPI JUMP JUMPDEST PUSH1 0x64 PUSH1 0x40 MLOAD PUSH3 0x461BCD PUSH1 0xE5 SHL DUP2 MSTORE PUSH1 0x20 PUSH1 0x4 DUP3 ADD MSTORE PUSH1 0x20 PUSH1 0x24 DUP3 ADD MSTORE PUSH32 0x4F776E61626C653A2063616C6C6572206973206E6F7420746865206F776E6572 PUSH1 0x44 DUP3 ADD MSTORE REVERT JUMPDEST DUP2 PUSH1 0x1F DUP3 ADD SLT ISZERO PUSH2 0x679 JUMPI DUP1 MLOAD PUSH2 0x81B DUP2 PUSH2 0x5F4 JUMP JUMPDEST SWAP3 PUSH2 0x829 PUSH1 0x40 MLOAD SWAP5 DUP6 PUSH2 0x5BC JUMP JUMPDEST DUP2 DUP5 MSTORE PUSH1 0x20 DUP3 DUP5 ADD ADD GT PUSH2 0x679 JUMPI PUSH2 0x847 SWAP2 PUSH1 0x20 DUP1 DUP6 ADD SWAP2 ADD PUSH2 0x67E JUMP JUMPDEST SWAP1 JUMP INVALID LOG2 PUSH5 0x6970667358 0x22 SLT KECCAK256 0xF7 DUP12 PUSH28 0x6B1B741BACCF5C7FBFB7077B29E8CB4921D3A69680200C1891845A08 0xD7 PUSH5 0x736F6C6343 STOP ADDMOD SGT STOP CALLER "},"gasEstimates":{"creation":{"codeDepositCost":"435200","executionCost":"infinite","totalCost":"infinite"},"external":{"encryptedKeys(bytes)":"infinite","getHash(bytes)":"infinite","owner()":"2413","renounceOwnership()":"28166","submitHash(bytes)":"infinite","transferOwnership(address)":"28320","treasury()":"2369","updateUsersContract(address)":"26630","usersContract()":"2289"}},"methodIdentifiers":{"encryptedKeys(bytes)":"4b78896d","getHash(bytes)":"b00140aa","owner()":"8da5cb5b","renounceOwnership()":"715018a6","submitHash(bytes)":"8f903c79","transferOwnership(address)":"f2fde38b","treasury()":"61d027b3","updateUsersContract(address)":"505da9e1","usersContract()":"142ebf3c"}},"storageLayout":{"storage":[{"astId":7,"contract":"contracts/layer/MecenatePay.sol:MecenatePay","label":"_owner","offset":0,"slot":"0","type":"t_address"},{"astId":216,"contract":"contracts/layer/MecenatePay.sol:MecenatePay","label":"encryptedKeys","offset":0,"slot":"1","type":"t_mapping(t_bytes_memory_ptr,t_bytes_storage)"},{"astId":218,"contract":"contracts/layer/MecenatePay.sol:MecenatePay","label":"usersContract","offset":0,"slot":"2","type":"t_address"},{"astId":220,"contract":"contracts/layer/MecenatePay.sol:MecenatePay","label":"treasury","offset":0,"slot":"3","type":"t_address"}],"types":{"t_address":{"encoding":"inplace","label":"address","numberOfBytes":"20"},"t_bytes_memory_ptr":{"encoding":"bytes","label":"bytes","numberOfBytes":"32"},"t_bytes_storage":{"encoding":"bytes","label":"bytes","numberOfBytes":"32"},"t_mapping(t_bytes_memory_ptr,t_bytes_storage)":{"encoding":"mapping","key":"t_bytes_memory_ptr","label":"mapping(bytes => bytes)","numberOfBytes":"32","value":"t_bytes_storage"}}},"userdoc":{"kind":"user","methods":{},"version":1}}}}