{"contracts/MecenateVault.sol":{"MecenateVault":{"abi":[{"inputs":[{"internalType":"address","name":"_verifierContract","type":"address"},{"internalType":"address","name":"_factoryContract","type":"address"},{"internalType":"address","name":"_bayContract","type":"address"},{"internalType":"address","name":"_usersContract","type":"address"},{"internalType":"address","name":"_relayer","type":"address"}],"stateMutability":"nonpayable","type":"constructor"},{"anonymous":false,"inputs":[{"indexed":false,"internalType":"address","name":"userAddress","type":"address"},{"indexed":false,"internalType":"address","name":"relayerAddress","type":"address"},{"indexed":false,"internalType":"bytes","name":"functionSignature","type":"bytes"}],"name":"MetaTransactionExecuted","type":"event"},{"anonymous":false,"inputs":[{"indexed":true,"internalType":"address","name":"previousOwner","type":"address"},{"indexed":true,"internalType":"address","name":"newOwner","type":"address"}],"name":"OwnershipTransferred","type":"event"},{"anonymous":false,"inputs":[{"indexed":true,"internalType":"bytes32","name":"commitment","type":"bytes32"},{"indexed":false,"internalType":"uint256","name":"amount","type":"uint256"},{"indexed":false,"internalType":"string","name":"secret","type":"string"},{"indexed":false,"internalType":"address","name":"token","type":"address"}],"name":"Withdrawn","type":"event"},{"stateMutability":"payable","type":"fallback"},{"inputs":[],"name":"DAI","outputs":[{"internalType":"address","name":"","type":"address"}],"stateMutability":"view","type":"function"},{"inputs":[],"name":"MAX_RELAYER_FEE_PERCENTAGE","outputs":[{"internalType":"uint256","name":"","type":"uint256"}],"stateMutability":"view","type":"function"},{"inputs":[],"name":"MUSE","outputs":[{"internalType":"address","name":"","type":"address"}],"stateMutability":"view","type":"function"},{"inputs":[],"name":"USDC","outputs":[{"internalType":"address","name":"","type":"address"}],"stateMutability":"view","type":"function"},{"inputs":[],"name":"WETH","outputs":[{"internalType":"address","name":"","type":"address"}],"stateMutability":"view","type":"function"},{"inputs":[{"internalType":"address","name":"_token","type":"address"},{"internalType":"uint256","name":"_amount","type":"uint256"},{"internalType":"address","name":"_feed","type":"address"},{"internalType":"bytes32","name":"encryptedVaultId","type":"bytes32"}],"name":"approveTokenToFeed","outputs":[],"stateMutability":"nonpayable","type":"function"},{"inputs":[{"internalType":"uint256","name":"_newRelayerFeePercentage","type":"uint256"}],"name":"changeRelayerFee","outputs":[],"stateMutability":"nonpayable","type":"function"},{"inputs":[{"internalType":"bytes32","name":"encryptedVaultId","type":"bytes32"}],"name":"depositETH","outputs":[],"stateMutability":"payable","type":"function"},{"inputs":[{"internalType":"address","name":"_token","type":"address"},{"internalType":"uint256","name":"_amount","type":"uint256"},{"internalType":"bytes32","name":"encryptedVaultId","type":"bytes32"}],"name":"depositToken","outputs":[],"stateMutability":"nonpayable","type":"function"},{"inputs":[{"internalType":"address","name":"_target","type":"address"},{"internalType":"bytes","name":"_data","type":"bytes"},{"internalType":"uint256","name":"_value","type":"uint256"},{"internalType":"bytes32","name":"_encryptedVaultId","type":"bytes32"}],"name":"execute","outputs":[{"internalType":"bool","name":"","type":"bool"}],"stateMutability":"nonpayable","type":"function"},{"inputs":[],"name":"factoryContract","outputs":[{"internalType":"address","name":"","type":"address"}],"stateMutability":"view","type":"function"},{"inputs":[{"internalType":"bytes32","name":"encryptedVaultId","type":"bytes32"}],"name":"getEthDeposit","outputs":[{"internalType":"uint256","name":"","type":"uint256"}],"stateMutability":"view","type":"function"},{"inputs":[{"internalType":"address","name":"_token","type":"address"},{"internalType":"bytes32","name":"encryptedVaultId","type":"bytes32"}],"name":"getTokenDeposit","outputs":[{"internalType":"uint256","name":"","type":"uint256"}],"stateMutability":"view","type":"function"},{"inputs":[],"name":"mecenateBay","outputs":[{"internalType":"address","name":"","type":"address"}],"stateMutability":"view","type":"function"},{"inputs":[],"name":"mecenateUsers","outputs":[{"internalType":"address","name":"","type":"address"}],"stateMutability":"view","type":"function"},{"inputs":[],"name":"owner","outputs":[{"internalType":"address","name":"","type":"address"}],"stateMutability":"view","type":"function"},{"inputs":[],"name":"relayerFeePercentage","outputs":[{"internalType":"uint256","name":"","type":"uint256"}],"stateMutability":"view","type":"function"},{"inputs":[],"name":"renounceOwnership","outputs":[],"stateMutability":"nonpayable","type":"function"},{"inputs":[{"internalType":"address","name":"_factoryContract","type":"address"}],"name":"setFactoryContract","outputs":[],"stateMutability":"nonpayable","type":"function"},{"inputs":[{"internalType":"address","name":"_mecenateBay","type":"address"}],"name":"setMecenateBay","outputs":[],"stateMutability":"nonpayable","type":"function"},{"inputs":[{"internalType":"address","name":"_mecenateUsers","type":"address"}],"name":"setMecenateUsers","outputs":[],"stateMutability":"nonpayable","type":"function"},{"inputs":[{"internalType":"address","name":"_relayer","type":"address"}],"name":"setRelayer","outputs":[],"stateMutability":"nonpayable","type":"function"},{"inputs":[{"internalType":"address","name":"_WETH","type":"address"},{"internalType":"address","name":"_DAI","type":"address"},{"internalType":"address","name":"_USDC","type":"address"},{"internalType":"address","name":"_MUSE","type":"address"}],"name":"setTokens","outputs":[],"stateMutability":"nonpayable","type":"function"},{"inputs":[{"internalType":"address","name":"_verifierContract","type":"address"}],"name":"setVerifierContract","outputs":[],"stateMutability":"nonpayable","type":"function"},{"inputs":[{"internalType":"address","name":"newOwner","type":"address"}],"name":"transferOwnership","outputs":[],"stateMutability":"nonpayable","type":"function"},{"inputs":[],"name":"verifierContract","outputs":[{"internalType":"address","name":"","type":"address"}],"stateMutability":"view","type":"function"},{"inputs":[{"internalType":"uint256","name":"_amount","type":"uint256"},{"internalType":"bytes","name":"sismoConnectResponse","type":"bytes"},{"internalType":"address","name":"_to","type":"address"},{"internalType":"bytes32","name":"_nonce","type":"bytes32"}],"name":"withdrawETH","outputs":[],"stateMutability":"nonpayable","type":"function"},{"inputs":[{"internalType":"address","name":"_token","type":"address"},{"internalType":"uint256","name":"_amount","type":"uint256"},{"internalType":"bytes","name":"sismoConnectResponse","type":"bytes"},{"internalType":"address","name":"_to","type":"address"},{"internalType":"bytes32","name":"_nonce","type":"bytes32"}],"name":"withdrawToken","outputs":[],"stateMutability":"nonpayable","type":"function"},{"inputs":[{"internalType":"string","name":"_secret","type":"string"},{"internalType":"address","name":"_token","type":"address"},{"internalType":"bytes","name":"sismoConnectResponse","type":"bytes"},{"internalType":"address","name":"_to","type":"address"},{"internalType":"bytes32","name":"_nonce","type":"bytes32"}],"name":"withdrawWithSecret","outputs":[],"stateMutability":"nonpayable","type":"function"},{"stateMutability":"payable","type":"receive"}],"devdoc":{"kind":"dev","methods":{"owner()":{"details":"Returns the address of the current owner."},"renounceOwnership()":{"details":"Leaves the contract without owner. It will not be possible to call `onlyOwner` functions. Can only be called by the current owner. NOTE: Renouncing ownership will leave the contract without an owner, thereby disabling any functionality that is only available to the owner."},"transferOwnership(address)":{"details":"Transfers ownership of the contract to a new account (`newOwner`). Can only be called by the current owner."}},"version":1},"evm":{"bytecode":{"linkReferences":{},"object":"6080346200012057601f620023a838819003918201601f19168301916001600160401b03831184841017620001255780849260a09460405283398101031262000120576200004d816200013b565b906200005c602082016200013b565b6200006a604083016200013b565b926200008760806200007f606086016200013b565b94016200013b565b906000549360018060a01b03199433868216176000556040519660018060a01b0380968180968195823391167f8be0079c531659141344cd1fd0a4f28419497f9722a3daafe3b4186f6b6457e0600080a36001805560c8600d5516896008541617600855168760095416176009551685600a541617600a551683600b541617600b551690600c541617600c556122579081620001518239f35b600080fd5b634e487b7160e01b600052604160045260246000fd5b51906001600160a01b0382168203620001205756fe604060808152600480361015610083575b361561004157506020361261003c576000356000526002602052600020610038348254611d23565b9055005b600080fd5b6020606492519162461bcd60e51b8352820152601760248201527f557365206465706f7369744554482066756e6374696f6e0000000000000000006044820152fd5b6000803560e01c806310d5700e146118b05780631378f5d9146114fe578063139e3c54146114c957806317d026e614611430578063204919151461140757806324ebc145146113a35780632fe4f4c11461133f5780633f16a3bb1461130a5780635262712f146112d5578063537820bf146112315780635e0cd92f146111e35780636548e9bc1461117f5780636961b361146111625780636ff6158514610f4c578063715018a614610ece57806384abac9514610d4a57806385e66df414610d2b57806389a3027114610cf65780638da5cb5b14610cc35780639926ad8714610786578063a25da83c14610722578063ad5c4648146106ed578063bda7193a14610410578063cf695688146103db578063d424134114610374578063d68d9d4e1461033f578063de11c94a1461030a578063e0bab4c4146102d15763f2fde38b146101ce5750610010565b9190346102cd5760206003193601126102cd576101e9611c55565b906101f2611cbe565b73ffffffffffffffffffffffffffffffffffffffff8092169283156102645750508254827fffffffffffffffffffffffff00000000000000000000000000000000000000008216178455167f8be0079c531659141344cd1fd0a4f28419497f9722a3daafe3b4186f6b6457e08380a380f35b906020608492519162461bcd60e51b8352820152602660248201527f4f776e61626c653a206e6577206f776e657220697320746865207a65726f206160448201527f64647265737300000000000000000000000000000000000000000000000000006064820152fd5b8280fd5b50823461030657816003193601126103065760209073ffffffffffffffffffffffffffffffffffffffff600554169051908152f35b5080fd5b50823461030657816003193601126103065760209073ffffffffffffffffffffffffffffffffffffffff600954169051908152f35b50919060206003193601126102cd57610356611d5f565b3582526002602052812061036b348254611d23565b90556001805580f35b50346103d85760206003193601126103d85773ffffffffffffffffffffffffffffffffffffffff6103a3611c55565b6103ab611cbe565b167fffffffffffffffffffffffff0000000000000000000000000000000000000000600954161760095580f35b80fd5b50823461030657816003193601126103065760209073ffffffffffffffffffffffffffffffffffffffff600854169051908152f35b5091346102cd5760a06003193601126102cd5767ffffffffffffffff9082358281116106e957366023820112156106e9576104549036906024818701359101611bdd565b9261045d611c9b565b926044359081116106e5576104759036908301611c14565b5061047e611c78565b9173ffffffffffffffffffffffffffffffffffffffff926104a484600c54163314611ef8565b6104ac611d5f565b81519380876020966104da8882816104cd8183019687815193849201611f43565b8101038084520182611b33565b519020961691826105aa5786895260028652838920549485156105685750888086819482948b845260028b5283898120551682f11561055e576105507fa5ecd7cf58f2f1e36e387c6442f5dea0a47926654ed49e6d1d9eb06d0406424495965b6060845196879687528601526060850190611ff6565b918301520390a26001805580f35b81513d88823e3d90fd5b6064908786519162461bcd60e51b8352820152601e60248201527f4e6f20455448206465706f73697420666f7220746869732073656372657400006044820152fd5b9050858852600385528288208289528552828820549384156106a45786895260038652838920838a52865283892089905583517fa9059cbb00000000000000000000000000000000000000000000000000000000815273ffffffffffffffffffffffffffffffffffffffff9092169082019081526020810185905285908290819060400103818b865af1801561069a5796610550917fa5ecd7cf58f2f1e36e387c6442f5dea0a47926654ed49e6d1d9eb06d04064244979861066d575b5061053a565b61068c90873d8911610693575b6106848183611b33565b810190611ee0565b5038610667565b503d61067a565b83513d8a823e3d90fd5b606490868086519262461bcd60e51b845283015260248201527f4e6f20546f6b656e206465706f73697420666f722074686973207365637265746044820152fd5b8580fd5b8480fd5b508290346103d857806003193601126103d8575073ffffffffffffffffffffffffffffffffffffffff60209254169051908152f35b50346103d85760206003193601126103d85773ffffffffffffffffffffffffffffffffffffffff610751611c55565b610759611cbe565b167fffffffffffffffffffffffff0000000000000000000000000000000000000000600854161760085580f35b508290346103d85760806003193601126103d8576107a2611c55565b92602491823567ffffffffffffffff958682116102cd57366023830112156102cd57818401359687116102cd5784820191858836920101116102cd57604435966064359473ffffffffffffffffffffffffffffffffffffffff9361080b85600c54163314611ef8565b610813611d5f565b86865260209960028b5289872054918660055416958b51958d878d817f70a08231000000000000000000000000000000000000000000000000000000009b8c8252308b8301525afa968715610cb957908e8e8e97969594938d9a610c75575b508b6007541690519e8f80928d8252308c8301525afa9c8d15610c6b578f8c9e610c37575b50506108ac6108a65a3a61213b565b85611d23565b92838610610bf457918b8f8c829594839589938215600014610bae575050508293165af16108d861215b565b505b15610b6c576108fc916108ec9161214e565b6108f65a3a61213b565b9061214e565b61271061090b600d548361213b565b04916109178383611d23565b8110610b0657888061094f8f958f958e849760026109609a6109438661093e878b9d61214e565b61214e565b93885252852055611d23565b335af161095a61215b565b5061218b565b84600554169189519185835230828401528b838281875afa928315610afc57908c92918994610ac5575b508760075416968c519788938492835230908301525afa938415610abb57908695949392918a9794610a7f575b50808311610a2e575b5050508086116109d8575b8784600180555160018152f35b6109e2908661214e565b948515159081610a24575b506109f9575b806109cb565b610a18938252600387528282209060075416825286522091825461214e565b905582808281806109f3565b90501515886109ed565b610a38908361214e565b918215159081610a75575b50610a4f575b806109c0565b86855260038a528585209085528952610a6c85852091825461214e565b90558880610a49565b905015158b610a43565b8b80929697985081939495503d8311610ab4575b610a9d8183611b33565b810103126106e5579088959493929151928b6109b7565b503d610a93565b89513d88823e3d90fd5b838193949295503d8311610af5575b610ade8183611b33565b81010312610af157908b9151928d61098a565b8780fd5b503d610ad4565b8b513d8a823e3d90fd5b608485858f8f519262461bcd60e51b8452830152808201527f496e73756666696369656e742062616c616e636520666f722067617320616e6460448201527f20666565000000000000000000000000000000000000000000000000000000006064820152fd5b506064846012858f8f519362461bcd60e51b85528401528201527f5472616e73616374696f6e206661696c656400000000000000000000000000006044820152fd5b9092508382959415600014610bdb5750519384928337810182815203925af1610bd561215b565b506108da565b9350519384928337810185815203925af1610bd561215b565b8f8f6018896064938c93519362461bcd60e51b85528401528201527f496e73756666696369656e74204554482062616c616e636500000000000000006044820152fd5b9080929e50813d8311610c64575b610c4f8183611b33565b81010312610c6057519b8f8f610897565b8a80fd5b503d610c45565b8e513d8d823e3d90fd5b939597505090929496975081813d8311610cb2575b610c948183611b33565b81010312610cae57918c969593918e8d9694519838610872565b8980fd5b503d610c8a565b8d513d8c823e3d90fd5b50823461030657816003193601126103065773ffffffffffffffffffffffffffffffffffffffff60209254169051908152f35b50823461030657816003193601126103065760209073ffffffffffffffffffffffffffffffffffffffff600654169051908152f35b508234610306578160031936011261030657602090600d549051908152f35b50823461030657606060031936011261030657610d65611c55565b9060243591610dbe73ffffffffffffffffffffffffffffffffffffffff80921691610d91831515611db4565b610d9c851515611dff565b808754168314908115610ec0575b8115610eb2575b8115610ea4575b50611e4a565b8151947f23b872dd0000000000000000000000000000000000000000000000000000000086523381870152306024870152836044870152602095868160648189875af1908115610e9a578691610e7d575b5015610e3b5750610e36929394604435865260038152828620918652528320918254611d23565b905580f35b6064908684519162461bcd60e51b8352820152601560248201527f546f6b656e207472616e73666572206661696c656400000000000000000000006044820152fd5b610e949150873d8911610693576106848183611b33565b87610e0f565b84513d88823e3d90fd5b905060075416821487610db8565b600654811684149150610db1565b600554811684149150610daa565b50346103d857806003193601126103d857610ee7611cbe565b8073ffffffffffffffffffffffffffffffffffffffff81547fffffffffffffffffffffffff000000000000000000000000000000000000000081168355167f8be0079c531659141344cd1fd0a4f28419497f9722a3daafe3b4186f6b6457e08280a380f35b50823461030657608060031936011261030657610f67611c55565b9060243593610f74611c32565b73ffffffffffffffffffffffffffffffffffffffff80941691610f98831515611db4565b610fa3871515611dff565b8481541683148015611155575b8015611148575b801561113b575b610fc790611e4a565b6064358652602094600386528487208488528652610fea88868920541015611e95565b8581600954169160248751809481937fe58fdd040000000000000000000000000000000000000000000000000000000083528816878301525afa908115611131578791611114575b50156110d257839285928789936110989751978895869485937f095ea7b300000000000000000000000000000000000000000000000000000000855284016020909392919373ffffffffffffffffffffffffffffffffffffffff60408201951681520152565b03925af19081156110c957506110ac578280f35b816110c292903d10610693576106848183611b33565b5081808280f35b513d85823e3d90fd5b6064908585519162461bcd60e51b8352820152600a60248201527f4e6f7420612066656564000000000000000000000000000000000000000000006044820152fd5b61112b9150863d8811610693576106848183611b33565b88611032565b85513d89823e3d90fd5b5060075485168314610fbe565b5084600654168314610fb7565b5084600554168314610fb0565b508234610306578160031936011261030657602090516101f48152f35b50346103d85760206003193601126103d85773ffffffffffffffffffffffffffffffffffffffff6111ae611c55565b6111b6611cbe565b167fffffffffffffffffffffffff0000000000000000000000000000000000000000600c541617600c5580f35b50823461030657806003193601126103065780602092611201611c55565b60243582526003855273ffffffffffffffffffffffffffffffffffffffff83832091168252845220549051908152f35b5090346103065760806003193601126103065761124c611c55565b90611255611c9b565b9061125e611c32565b90611267611c78565b91611270611cbe565b73ffffffffffffffffffffffffffffffffffffffff80948193827fffffffffffffffffffffffff000000000000000000000000000000000000000098168882541617905516856005541617600555168360065416176006551690600754161760075580f35b50823461030657816003193601126103065760209073ffffffffffffffffffffffffffffffffffffffff600754169051908152f35b50823461030657816003193601126103065760209073ffffffffffffffffffffffffffffffffffffffff600a54169051908152f35b50346103d85760206003193601126103d85773ffffffffffffffffffffffffffffffffffffffff61136e611c55565b611376611cbe565b167fffffffffffffffffffffffff0000000000000000000000000000000000000000600b541617600b5580f35b50346103d85760206003193601126103d85773ffffffffffffffffffffffffffffffffffffffff6113d2611c55565b6113da611cbe565b167fffffffffffffffffffffffff0000000000000000000000000000000000000000600a541617600a5580f35b509190346102cd5760206003193601126102cd5760209282913581526002845220549051908152f35b509190346102cd5760206003193601126102cd5780359161144f611cbe565b6101f48311611460575050600d5580f35b906020608492519162461bcd60e51b8352820152602660248201527f4e65772072656c61796572206665652070657263656e7461676520697320746f60448201527f6f206869676800000000000000000000000000000000000000000000000000006064820152fd5b50823461030657816003193601126103065760209073ffffffffffffffffffffffffffffffffffffffff600b54169051908152f35b5091346102cd5760a06003193601126102cd57611519611c55565b906024359060443567ffffffffffffffff81116106e55761153d9036908601611c14565b91611546611c78565b906084359473ffffffffffffffffffffffffffffffffffffffff61156f81600c54163314611ef8565b611577611d5f565b865a948a81611586883a61213b565b998560085416908d6115c48c519e8f95869485947f7276069d0000000000000000000000000000000000000000000000000000000086528501612039565b03915afa9788156118a6578b80998190611860575b8a9b50928a94928a8795936115ff9b9a99989460209c818e808094518301019101612071565b961698519f019e8f20815260028c5220541061181e57906116278461162d94931686146120a5565b146120f0565b875189208b5260038652868b20921691828b52855282868b2054106117dc579184916116cd9388518a208c5260038452878c20828d528452878c2061167384825461214e565b90558b8b8951968795869485937fa9059cbb00000000000000000000000000000000000000000000000000000000855284016020909392919373ffffffffffffffffffffffffffffffffffffffff60408201951681520152565b03925af180156117d257906116f492916117b5575b506116ef3a915a9061214e565b61213b565b93612710611704600d548761213b565b0495845182208852600283528388205461171e8888611d23565b11611773578761176c8180808061175b8d8d8d6117548e60028f8f6117438888611d23565b95519020895252862091825461214e565b9055611d23565b335af161176661215b565b506121d6565b6001805580f35b6064908385519162461bcd60e51b8352820152601f60248201527f4e6f7420656e6f7567682062616c616e636520666f72206761732075736564006044820152fd5b6117cb90843d8611610693576106848183611b33565b50386116e2565b84513d8a823e3d90fd5b6064898688519162461bcd60e51b8352820152601860248201527f4e6f7420656e6f75676820746f6b656e2062616c616e636500000000000000006044820152fd5b60648d8a8c519162461bcd60e51b8352820152601f60248201527f4e6f7420656e6f7567682045544820666f7220676173207265717569726564006044820152fd5b50985091836115ff979695949261188a8a9c8c3d8091833e6118828183611b33565b810190611fa8565b97929150509c8d9c8d97939650939798999a50509294506115d9565b87513d8d823e3d90fd5b509190346102cd5760806003193601126102cd5780359060243567ffffffffffffffff81116106e9576118e69036908301611c14565b916118ef611c32565b916064359361196373ffffffffffffffffffffffffffffffffffffffff9561191c87600c54163314611ef8565b611924611d5f565b88815a94888a60085416918c51968794859384937f7276069d0000000000000000000000000000000000000000000000000000000085528c8501612039565b03915afa968715611b295789928a98611b01575b5090816116276119a09361199560209b8c8082518301019101612071565b9316991689146120a5565b8581519101206119ce6119bc6119b6843a61213b565b8661214e565b828a5260028852888a20541015611e95565b808852600286528688205415611abf5790611a26916119ee851515611dff565b80895260028752611a0485898b20541015611e95565b885260028652868820611a1885825461214e565b90556116ef3a915a9061214e565b93612710611a36600d548761213b565b0495611a428787611d23565b8410611a7e575050508461175b8585611a7984808080809b9a611a6e61176c9e61093e849e859e61214e565b905af161095a61215b565b611d23565b60649350519162461bcd60e51b8352820152601a60248201527f4e6f7420656e6f7567682062616c616e636520666f72206761730000000000006044820152fd5b6064838789519162461bcd60e51b8352820152601960248201527f436f6d6d69746d656e7420646f6573206e6f74206578697374000000000000006044820152fd5b611b1c9198506119a09293503d808c833e6118828183611b33565b9992949391506119779050565b88513d8b823e3d90fd5b90601f7fffffffffffffffffffffffffffffffffffffffffffffffffffffffffffffffe0910116810190811067ffffffffffffffff821117611b7457604052565b7f4e487b7100000000000000000000000000000000000000000000000000000000600052604160045260246000fd5b67ffffffffffffffff8111611b7457601f017fffffffffffffffffffffffffffffffffffffffffffffffffffffffffffffffe01660200190565b929192611be982611ba3565b91611bf76040519384611b33565b82948184528183011161003c578281602093846000960137010152565b9080601f8301121561003c57816020611c2f93359101611bdd565b90565b6044359073ffffffffffffffffffffffffffffffffffffffff8216820361003c57565b6004359073ffffffffffffffffffffffffffffffffffffffff8216820361003c57565b6064359073ffffffffffffffffffffffffffffffffffffffff8216820361003c57565b6024359073ffffffffffffffffffffffffffffffffffffffff8216820361003c57565b73ffffffffffffffffffffffffffffffffffffffff600054163303611cdf57565b606460405162461bcd60e51b815260206004820152602060248201527f4f776e61626c653a2063616c6c6572206973206e6f7420746865206f776e65726044820152fd5b91908201809211611d3057565b7f4e487b7100000000000000000000000000000000000000000000000000000000600052601160045260246000fd5b600260015414611d70576002600155565b606460405162461bcd60e51b815260206004820152601f60248201527f5265656e7472616e637947756172643a207265656e7472616e742063616c6c006044820152fd5b15611dbb57565b606460405162461bcd60e51b815260206004820152601960248201527f546f6b656e20616464726573732063616e6e6f742062652030000000000000006044820152fd5b15611e0657565b606460405162461bcd60e51b815260206004820152602060248201527f416d6f756e74206d7573742062652067726561746572207468616e207a65726f6044820152fd5b15611e5157565b606460405162461bcd60e51b815260206004820152601360248201527f546f6b656e206e6f7420737570706f72746564000000000000000000000000006044820152fd5b15611e9c57565b606460405162461bcd60e51b815260206004820152601260248201527f4e6f7420656e6f7567682062616c616e636500000000000000000000000000006044820152fd5b9081602091031261003c5751801515810361003c5790565b15611eff57565b606460405162461bcd60e51b815260206004820152600b60248201527f4e6f742072656c617965720000000000000000000000000000000000000000006044820152fd5b60005b838110611f565750506000910152565b8181015183820152602001611f46565b81601f8201121561003c578051611f7c81611ba3565b92611f8a6040519485611b33565b8184526020828401011161003c57611c2f9160208085019101611f43565b9160808383031261003c5782519067ffffffffffffffff9182811161003c5783611fd3918601611f66565b93602081015193604082015193606083015190811161003c57611c2f9201611f66565b907fffffffffffffffffffffffffffffffffffffffffffffffffffffffffffffffe0601f60209361203281518092818752878088019101611f43565b0116010190565b73ffffffffffffffffffffffffffffffffffffffff61206660409396959496606084526060840190611ff6565b951660208201520152565b919082604091031261003c57815173ffffffffffffffffffffffffffffffffffffffff8116810361003c5760209092015190565b156120ac57565b606460405162461bcd60e51b815260206004820152601060248201527f4e6f742053616d652041646472657373000000000000000000000000000000006044820152fd5b156120f757565b606460405162461bcd60e51b815260206004820152600e60248201527f4e6f742053616d65204e6f6e63650000000000000000000000000000000000006044820152fd5b81810292918115918404141715611d3057565b91908203918211611d3057565b3d15612186573d9061216c82611ba3565b9161217a6040519384611b33565b82523d6000602084013e565b606090565b1561219257565b606460405162461bcd60e51b815260206004820152601360248201527f455448207472616e73666572206661696c6564000000000000000000000000006044820152fd5b156121dd57565b606460405162461bcd60e51b815260206004820152601c60248201527f455448207472616e73666572206661696c6564207769746820676173000000006044820152fdfea26469706673582212207a91edb712bea2a11883b2cb63c05348c796222cedbd9ab2ceaad43f26b5531d64736f6c63430008130033","opcodes":"PUSH1 0x80 CALLVALUE PUSH3 0x120 JUMPI PUSH1 0x1F PUSH3 0x23A8 CODESIZE DUP2 SWAP1 SUB SWAP2 DUP3 ADD PUSH1 0x1F NOT AND DUP4 ADD SWAP2 PUSH1 0x1 PUSH1 0x1 PUSH1 0x40 SHL SUB DUP4 GT DUP5 DUP5 LT OR PUSH3 0x125 JUMPI DUP1 DUP5 SWAP3 PUSH1 0xA0 SWAP5 PUSH1 0x40 MSTORE DUP4 CODECOPY DUP2 ADD SUB SLT PUSH3 0x120 JUMPI PUSH3 0x4D DUP2 PUSH3 0x13B JUMP JUMPDEST SWAP1 PUSH3 0x5C PUSH1 0x20 DUP3 ADD PUSH3 0x13B JUMP JUMPDEST PUSH3 0x6A PUSH1 0x40 DUP4 ADD PUSH3 0x13B JUMP JUMPDEST SWAP3 PUSH3 0x87 PUSH1 0x80 PUSH3 0x7F PUSH1 0x60 DUP7 ADD PUSH3 0x13B JUMP JUMPDEST SWAP5 ADD PUSH3 0x13B JUMP JUMPDEST SWAP1 PUSH1 0x0 SLOAD SWAP4 PUSH1 0x1 DUP1 PUSH1 0xA0 SHL SUB NOT SWAP5 CALLER DUP7 DUP3 AND OR PUSH1 0x0 SSTORE PUSH1 0x40 MLOAD SWAP7 PUSH1 0x1 DUP1 PUSH1 0xA0 SHL SUB DUP1 SWAP7 DUP2 DUP1 SWAP7 DUP2 SWAP6 DUP3 CALLER SWAP2 AND PUSH32 0x8BE0079C531659141344CD1FD0A4F28419497F9722A3DAAFE3B4186F6B6457E0 PUSH1 0x0 DUP1 LOG3 PUSH1 0x1 DUP1 SSTORE PUSH1 0xC8 PUSH1 0xD SSTORE AND DUP10 PUSH1 0x8 SLOAD AND OR PUSH1 0x8 SSTORE AND DUP8 PUSH1 0x9 SLOAD AND OR PUSH1 0x9 SSTORE AND DUP6 PUSH1 0xA SLOAD AND OR PUSH1 0xA SSTORE AND DUP4 PUSH1 0xB SLOAD AND OR PUSH1 0xB SSTORE AND SWAP1 PUSH1 0xC SLOAD AND OR PUSH1 0xC SSTORE PUSH2 0x2257 SWAP1 DUP2 PUSH3 0x151 DUP3 CODECOPY RETURN JUMPDEST PUSH1 0x0 DUP1 REVERT JUMPDEST PUSH4 0x4E487B71 PUSH1 0xE0 SHL PUSH1 0x0 MSTORE PUSH1 0x41 PUSH1 0x4 MSTORE PUSH1 0x24 PUSH1 0x0 REVERT JUMPDEST MLOAD SWAP1 PUSH1 0x1 PUSH1 0x1 PUSH1 0xA0 SHL SUB DUP3 AND DUP3 SUB PUSH3 0x120 JUMPI JUMP INVALID PUSH1 0x40 PUSH1 0x80 DUP2 MSTORE PUSH1 0x4 DUP1 CALLDATASIZE LT ISZERO PUSH2 0x83 JUMPI JUMPDEST CALLDATASIZE ISZERO PUSH2 0x41 JUMPI POP PUSH1 0x20 CALLDATASIZE SLT PUSH2 0x3C JUMPI PUSH1 0x0 CALLDATALOAD PUSH1 0x0 MSTORE PUSH1 0x2 PUSH1 0x20 MSTORE PUSH1 0x0 KECCAK256 PUSH2 0x38 CALLVALUE DUP3 SLOAD PUSH2 0x1D23 JUMP JUMPDEST SWAP1 SSTORE STOP JUMPDEST PUSH1 0x0 DUP1 REVERT JUMPDEST PUSH1 0x20 PUSH1 0x64 SWAP3 MLOAD SWAP2 PUSH3 0x461BCD PUSH1 0xE5 SHL DUP4 MSTORE DUP3 ADD MSTORE PUSH1 0x17 PUSH1 0x24 DUP3 ADD MSTORE PUSH32 0x557365206465706F7369744554482066756E6374696F6E000000000000000000 PUSH1 0x44 DUP3 ADD MSTORE REVERT JUMPDEST PUSH1 0x0 DUP1 CALLDATALOAD PUSH1 0xE0 SHR DUP1 PUSH4 0x10D5700E EQ PUSH2 0x18B0 JUMPI DUP1 PUSH4 0x1378F5D9 EQ PUSH2 0x14FE JUMPI DUP1 PUSH4 0x139E3C54 EQ PUSH2 0x14C9 JUMPI DUP1 PUSH4 0x17D026E6 EQ PUSH2 0x1430 JUMPI DUP1 PUSH4 0x20491915 EQ PUSH2 0x1407 JUMPI DUP1 PUSH4 0x24EBC145 EQ PUSH2 0x13A3 JUMPI DUP1 PUSH4 0x2FE4F4C1 EQ PUSH2 0x133F JUMPI DUP1 PUSH4 0x3F16A3BB EQ PUSH2 0x130A JUMPI DUP1 PUSH4 0x5262712F EQ PUSH2 0x12D5 JUMPI DUP1 PUSH4 0x537820BF EQ PUSH2 0x1231 JUMPI DUP1 PUSH4 0x5E0CD92F EQ PUSH2 0x11E3 JUMPI DUP1 PUSH4 0x6548E9BC EQ PUSH2 0x117F JUMPI DUP1 PUSH4 0x6961B361 EQ PUSH2 0x1162 JUMPI DUP1 PUSH4 0x6FF61585 EQ PUSH2 0xF4C JUMPI DUP1 PUSH4 0x715018A6 EQ PUSH2 0xECE JUMPI DUP1 PUSH4 0x84ABAC95 EQ PUSH2 0xD4A JUMPI DUP1 PUSH4 0x85E66DF4 EQ PUSH2 0xD2B JUMPI DUP1 PUSH4 0x89A30271 EQ PUSH2 0xCF6 JUMPI DUP1 PUSH4 0x8DA5CB5B EQ PUSH2 0xCC3 JUMPI DUP1 PUSH4 0x9926AD87 EQ PUSH2 0x786 JUMPI DUP1 PUSH4 0xA25DA83C EQ PUSH2 0x722 JUMPI DUP1 PUSH4 0xAD5C4648 EQ PUSH2 0x6ED JUMPI DUP1 PUSH4 0xBDA7193A EQ PUSH2 0x410 JUMPI DUP1 PUSH4 0xCF695688 EQ PUSH2 0x3DB JUMPI DUP1 PUSH4 0xD4241341 EQ PUSH2 0x374 JUMPI DUP1 PUSH4 0xD68D9D4E EQ PUSH2 0x33F JUMPI DUP1 PUSH4 0xDE11C94A EQ PUSH2 0x30A JUMPI DUP1 PUSH4 0xE0BAB4C4 EQ PUSH2 0x2D1 JUMPI PUSH4 0xF2FDE38B EQ PUSH2 0x1CE JUMPI POP PUSH2 0x10 JUMP JUMPDEST SWAP2 SWAP1 CALLVALUE PUSH2 0x2CD JUMPI PUSH1 0x20 PUSH1 0x3 NOT CALLDATASIZE ADD SLT PUSH2 0x2CD JUMPI PUSH2 0x1E9 PUSH2 0x1C55 JUMP JUMPDEST SWAP1 PUSH2 0x1F2 PUSH2 0x1CBE JUMP JUMPDEST PUSH20 0xFFFFFFFFFFFFFFFFFFFFFFFFFFFFFFFFFFFFFFFF DUP1 SWAP3 AND SWAP3 DUP4 ISZERO PUSH2 0x264 JUMPI POP POP DUP3 SLOAD DUP3 PUSH32 0xFFFFFFFFFFFFFFFFFFFFFFFF0000000000000000000000000000000000000000 DUP3 AND OR DUP5 SSTORE AND PUSH32 0x8BE0079C531659141344CD1FD0A4F28419497F9722A3DAAFE3B4186F6B6457E0 DUP4 DUP1 LOG3 DUP1 RETURN JUMPDEST SWAP1 PUSH1 0x20 PUSH1 0x84 SWAP3 MLOAD SWAP2 PUSH3 0x461BCD PUSH1 0xE5 SHL DUP4 MSTORE DUP3 ADD MSTORE PUSH1 0x26 PUSH1 0x24 DUP3 ADD MSTORE PUSH32 0x4F776E61626C653A206E6577206F776E657220697320746865207A65726F2061 PUSH1 0x44 DUP3 ADD MSTORE PUSH32 0x6464726573730000000000000000000000000000000000000000000000000000 PUSH1 0x64 DUP3 ADD MSTORE REVERT JUMPDEST DUP3 DUP1 REVERT JUMPDEST POP DUP3 CALLVALUE PUSH2 0x306 JUMPI DUP2 PUSH1 0x3 NOT CALLDATASIZE ADD SLT PUSH2 0x306 JUMPI PUSH1 0x20 SWAP1 PUSH20 0xFFFFFFFFFFFFFFFFFFFFFFFFFFFFFFFFFFFFFFFF PUSH1 0x5 SLOAD AND SWAP1 MLOAD SWAP1 DUP2 MSTORE RETURN JUMPDEST POP DUP1 REVERT JUMPDEST POP DUP3 CALLVALUE PUSH2 0x306 JUMPI DUP2 PUSH1 0x3 NOT CALLDATASIZE ADD SLT PUSH2 0x306 JUMPI PUSH1 0x20 SWAP1 PUSH20 0xFFFFFFFFFFFFFFFFFFFFFFFFFFFFFFFFFFFFFFFF PUSH1 0x9 SLOAD AND SWAP1 MLOAD SWAP1 DUP2 MSTORE RETURN JUMPDEST POP SWAP2 SWAP1 PUSH1 0x20 PUSH1 0x3 NOT CALLDATASIZE ADD SLT PUSH2 0x2CD JUMPI PUSH2 0x356 PUSH2 0x1D5F JUMP JUMPDEST CALLDATALOAD DUP3 MSTORE PUSH1 0x2 PUSH1 0x20 MSTORE DUP2 KECCAK256 PUSH2 0x36B CALLVALUE DUP3 SLOAD PUSH2 0x1D23 JUMP JUMPDEST SWAP1 SSTORE PUSH1 0x1 DUP1 SSTORE DUP1 RETURN JUMPDEST POP CALLVALUE PUSH2 0x3D8 JUMPI PUSH1 0x20 PUSH1 0x3 NOT CALLDATASIZE ADD SLT PUSH2 0x3D8 JUMPI PUSH20 0xFFFFFFFFFFFFFFFFFFFFFFFFFFFFFFFFFFFFFFFF PUSH2 0x3A3 PUSH2 0x1C55 JUMP JUMPDEST PUSH2 0x3AB PUSH2 0x1CBE JUMP JUMPDEST AND PUSH32 0xFFFFFFFFFFFFFFFFFFFFFFFF0000000000000000000000000000000000000000 PUSH1 0x9 SLOAD AND OR PUSH1 0x9 SSTORE DUP1 RETURN JUMPDEST DUP1 REVERT JUMPDEST POP DUP3 CALLVALUE PUSH2 0x306 JUMPI DUP2 PUSH1 0x3 NOT CALLDATASIZE ADD SLT PUSH2 0x306 JUMPI PUSH1 0x20 SWAP1 PUSH20 0xFFFFFFFFFFFFFFFFFFFFFFFFFFFFFFFFFFFFFFFF PUSH1 0x8 SLOAD AND SWAP1 MLOAD SWAP1 DUP2 MSTORE RETURN JUMPDEST POP SWAP2 CALLVALUE PUSH2 0x2CD JUMPI PUSH1 0xA0 PUSH1 0x3 NOT CALLDATASIZE ADD SLT PUSH2 0x2CD JUMPI PUSH8 0xFFFFFFFFFFFFFFFF SWAP1 DUP3 CALLDATALOAD DUP3 DUP2 GT PUSH2 0x6E9 JUMPI CALLDATASIZE PUSH1 0x23 DUP3 ADD SLT ISZERO PUSH2 0x6E9 JUMPI PUSH2 0x454 SWAP1 CALLDATASIZE SWAP1 PUSH1 0x24 DUP2 DUP8 ADD CALLDATALOAD SWAP2 ADD PUSH2 0x1BDD JUMP JUMPDEST SWAP3 PUSH2 0x45D PUSH2 0x1C9B JUMP JUMPDEST SWAP3 PUSH1 0x44 CALLDATALOAD SWAP1 DUP2 GT PUSH2 0x6E5 JUMPI PUSH2 0x475 SWAP1 CALLDATASIZE SWAP1 DUP4 ADD PUSH2 0x1C14 JUMP JUMPDEST POP PUSH2 0x47E PUSH2 0x1C78 JUMP JUMPDEST SWAP2 PUSH20 0xFFFFFFFFFFFFFFFFFFFFFFFFFFFFFFFFFFFFFFFF SWAP3 PUSH2 0x4A4 DUP5 PUSH1 0xC SLOAD AND CALLER EQ PUSH2 0x1EF8 JUMP JUMPDEST PUSH2 0x4AC PUSH2 0x1D5F JUMP JUMPDEST DUP2 MLOAD SWAP4 DUP1 DUP8 PUSH1 0x20 SWAP7 PUSH2 0x4DA DUP9 DUP3 DUP2 PUSH2 0x4CD DUP2 DUP4 ADD SWAP7 DUP8 DUP2 MLOAD SWAP4 DUP5 SWAP3 ADD PUSH2 0x1F43 JUMP JUMPDEST DUP2 ADD SUB DUP1 DUP5 MSTORE ADD DUP3 PUSH2 0x1B33 JUMP JUMPDEST MLOAD SWAP1 KECCAK256 SWAP7 AND SWAP2 DUP3 PUSH2 0x5AA JUMPI DUP7 DUP10 MSTORE PUSH1 0x2 DUP7 MSTORE DUP4 DUP10 KECCAK256 SLOAD SWAP5 DUP6 ISZERO PUSH2 0x568 JUMPI POP DUP9 DUP1 DUP7 DUP2 SWAP5 DUP3 SWAP5 DUP12 DUP5 MSTORE PUSH1 0x2 DUP12 MSTORE DUP4 DUP10 DUP2 KECCAK256 SSTORE AND DUP3 CALL ISZERO PUSH2 0x55E JUMPI PUSH2 0x550 PUSH32 0xA5ECD7CF58F2F1E36E387C6442F5DEA0A47926654ED49E6D1D9EB06D04064244 SWAP6 SWAP7 JUMPDEST PUSH1 0x60 DUP5 MLOAD SWAP7 DUP8 SWAP7 DUP8 MSTORE DUP7 ADD MSTORE PUSH1 0x60 DUP6 ADD SWAP1 PUSH2 0x1FF6 JUMP JUMPDEST SWAP2 DUP4 ADD MSTORE SUB SWAP1 LOG2 PUSH1 0x1 DUP1 SSTORE DUP1 RETURN JUMPDEST DUP2 MLOAD RETURNDATASIZE DUP9 DUP3 RETURNDATACOPY RETURNDATASIZE SWAP1 REVERT JUMPDEST PUSH1 0x64 SWAP1 DUP8 DUP7 MLOAD SWAP2 PUSH3 0x461BCD PUSH1 0xE5 SHL DUP4 MSTORE DUP3 ADD MSTORE PUSH1 0x1E PUSH1 0x24 DUP3 ADD MSTORE PUSH32 0x4E6F20455448206465706F73697420666F722074686973207365637265740000 PUSH1 0x44 DUP3 ADD MSTORE REVERT JUMPDEST SWAP1 POP DUP6 DUP9 MSTORE PUSH1 0x3 DUP6 MSTORE DUP3 DUP9 KECCAK256 DUP3 DUP10 MSTORE DUP6 MSTORE DUP3 DUP9 KECCAK256 SLOAD SWAP4 DUP5 ISZERO PUSH2 0x6A4 JUMPI DUP7 DUP10 MSTORE PUSH1 0x3 DUP7 MSTORE DUP4 DUP10 KECCAK256 DUP4 DUP11 MSTORE DUP7 MSTORE DUP4 DUP10 KECCAK256 DUP10 SWAP1 SSTORE DUP4 MLOAD PUSH32 0xA9059CBB00000000000000000000000000000000000000000000000000000000 DUP2 MSTORE PUSH20 0xFFFFFFFFFFFFFFFFFFFFFFFFFFFFFFFFFFFFFFFF SWAP1 SWAP3 AND SWAP1 DUP3 ADD SWAP1 DUP2 MSTORE PUSH1 0x20 DUP2 ADD DUP6 SWAP1 MSTORE DUP6 SWAP1 DUP3 SWAP1 DUP2 SWAP1 PUSH1 0x40 ADD SUB DUP2 DUP12 DUP7 GAS CALL DUP1 ISZERO PUSH2 0x69A JUMPI SWAP7 PUSH2 0x550 SWAP2 PUSH32 0xA5ECD7CF58F2F1E36E387C6442F5DEA0A47926654ED49E6D1D9EB06D04064244 SWAP8 SWAP9 PUSH2 0x66D JUMPI JUMPDEST POP PUSH2 0x53A JUMP JUMPDEST PUSH2 0x68C SWAP1 DUP8 RETURNDATASIZE DUP10 GT PUSH2 0x693 JUMPI JUMPDEST PUSH2 0x684 DUP2 DUP4 PUSH2 0x1B33 JUMP JUMPDEST DUP2 ADD SWAP1 PUSH2 0x1EE0 JUMP JUMPDEST POP CODESIZE PUSH2 0x667 JUMP JUMPDEST POP RETURNDATASIZE PUSH2 0x67A JUMP JUMPDEST DUP4 MLOAD RETURNDATASIZE DUP11 DUP3 RETURNDATACOPY RETURNDATASIZE SWAP1 REVERT JUMPDEST PUSH1 0x64 SWAP1 DUP7 DUP1 DUP7 MLOAD SWAP3 PUSH3 0x461BCD PUSH1 0xE5 SHL DUP5 MSTORE DUP4 ADD MSTORE PUSH1 0x24 DUP3 ADD MSTORE PUSH32 0x4E6F20546F6B656E206465706F73697420666F72207468697320736563726574 PUSH1 0x44 DUP3 ADD MSTORE REVERT JUMPDEST DUP6 DUP1 REVERT JUMPDEST DUP5 DUP1 REVERT JUMPDEST POP DUP3 SWAP1 CALLVALUE PUSH2 0x3D8 JUMPI DUP1 PUSH1 0x3 NOT CALLDATASIZE ADD SLT PUSH2 0x3D8 JUMPI POP PUSH20 0xFFFFFFFFFFFFFFFFFFFFFFFFFFFFFFFFFFFFFFFF PUSH1 0x20 SWAP3 SLOAD AND SWAP1 MLOAD SWAP1 DUP2 MSTORE RETURN JUMPDEST POP CALLVALUE PUSH2 0x3D8 JUMPI PUSH1 0x20 PUSH1 0x3 NOT CALLDATASIZE ADD SLT PUSH2 0x3D8 JUMPI PUSH20 0xFFFFFFFFFFFFFFFFFFFFFFFFFFFFFFFFFFFFFFFF PUSH2 0x751 PUSH2 0x1C55 JUMP JUMPDEST PUSH2 0x759 PUSH2 0x1CBE JUMP JUMPDEST AND PUSH32 0xFFFFFFFFFFFFFFFFFFFFFFFF0000000000000000000000000000000000000000 PUSH1 0x8 SLOAD AND OR PUSH1 0x8 SSTORE DUP1 RETURN JUMPDEST POP DUP3 SWAP1 CALLVALUE PUSH2 0x3D8 JUMPI PUSH1 0x80 PUSH1 0x3 NOT CALLDATASIZE ADD SLT PUSH2 0x3D8 JUMPI PUSH2 0x7A2 PUSH2 0x1C55 JUMP JUMPDEST SWAP3 PUSH1 0x24 SWAP2 DUP3 CALLDATALOAD PUSH8 0xFFFFFFFFFFFFFFFF SWAP6 DUP7 DUP3 GT PUSH2 0x2CD JUMPI CALLDATASIZE PUSH1 0x23 DUP4 ADD SLT ISZERO PUSH2 0x2CD JUMPI DUP2 DUP5 ADD CALLDATALOAD SWAP7 DUP8 GT PUSH2 0x2CD JUMPI DUP5 DUP3 ADD SWAP2 DUP6 DUP9 CALLDATASIZE SWAP3 ADD ADD GT PUSH2 0x2CD JUMPI PUSH1 0x44 CALLDATALOAD SWAP7 PUSH1 0x64 CALLDATALOAD SWAP5 PUSH20 0xFFFFFFFFFFFFFFFFFFFFFFFFFFFFFFFFFFFFFFFF SWAP4 PUSH2 0x80B DUP6 PUSH1 0xC SLOAD AND CALLER EQ PUSH2 0x1EF8 JUMP JUMPDEST PUSH2 0x813 PUSH2 0x1D5F JUMP JUMPDEST DUP7 DUP7 MSTORE PUSH1 0x20 SWAP10 PUSH1 0x2 DUP12 MSTORE DUP10 DUP8 KECCAK256 SLOAD SWAP2 DUP7 PUSH1 0x5 SLOAD AND SWAP6 DUP12 MLOAD SWAP6 DUP14 DUP8 DUP14 DUP2 PUSH32 0x70A0823100000000000000000000000000000000000000000000000000000000 SWAP12 DUP13 DUP3 MSTORE ADDRESS DUP12 DUP4 ADD MSTORE GAS STATICCALL SWAP7 DUP8 ISZERO PUSH2 0xCB9 JUMPI SWAP1 DUP15 DUP15 DUP15 SWAP8 SWAP7 SWAP6 SWAP5 SWAP4 DUP14 SWAP11 PUSH2 0xC75 JUMPI JUMPDEST POP DUP12 PUSH1 0x7 SLOAD AND SWAP1 MLOAD SWAP15 DUP16 DUP1 SWAP3 DUP14 DUP3 MSTORE ADDRESS DUP13 DUP4 ADD MSTORE GAS STATICCALL SWAP13 DUP14 ISZERO PUSH2 0xC6B JUMPI DUP16 DUP13 SWAP15 PUSH2 0xC37 JUMPI JUMPDEST POP POP PUSH2 0x8AC PUSH2 0x8A6 GAS GASPRICE PUSH2 0x213B JUMP JUMPDEST DUP6 PUSH2 0x1D23 JUMP JUMPDEST SWAP3 DUP4 DUP7 LT PUSH2 0xBF4 JUMPI SWAP2 DUP12 DUP16 DUP13 DUP3 SWAP6 SWAP5 DUP4 SWAP6 DUP10 SWAP4 DUP3 ISZERO PUSH1 0x0 EQ PUSH2 0xBAE JUMPI POP POP POP DUP3 SWAP4 AND GAS CALL PUSH2 0x8D8 PUSH2 0x215B JUMP JUMPDEST POP JUMPDEST ISZERO PUSH2 0xB6C JUMPI PUSH2 0x8FC SWAP2 PUSH2 0x8EC SWAP2 PUSH2 0x214E JUMP JUMPDEST PUSH2 0x8F6 GAS GASPRICE PUSH2 0x213B JUMP JUMPDEST SWAP1 PUSH2 0x214E JUMP JUMPDEST PUSH2 0x2710 PUSH2 0x90B PUSH1 0xD SLOAD DUP4 PUSH2 0x213B JUMP JUMPDEST DIV SWAP2 PUSH2 0x917 DUP4 DUP4 PUSH2 0x1D23 JUMP JUMPDEST DUP2 LT PUSH2 0xB06 JUMPI DUP9 DUP1 PUSH2 0x94F DUP16 SWAP6 DUP16 SWAP6 DUP15 DUP5 SWAP8 PUSH1 0x2 PUSH2 0x960 SWAP11 PUSH2 0x943 DUP7 PUSH2 0x93E DUP8 DUP12 SWAP14 PUSH2 0x214E JUMP JUMPDEST PUSH2 0x214E JUMP JUMPDEST SWAP4 DUP9 MSTORE MSTORE DUP6 KECCAK256 SSTORE PUSH2 0x1D23 JUMP JUMPDEST CALLER GAS CALL PUSH2 0x95A PUSH2 0x215B JUMP JUMPDEST POP PUSH2 0x218B JUMP JUMPDEST DUP5 PUSH1 0x5 SLOAD AND SWAP2 DUP10 MLOAD SWAP2 DUP6 DUP4 MSTORE ADDRESS DUP3 DUP5 ADD MSTORE DUP12 DUP4 DUP3 DUP2 DUP8 GAS STATICCALL SWAP3 DUP4 ISZERO PUSH2 0xAFC JUMPI SWAP1 DUP13 SWAP3 SWAP2 DUP10 SWAP5 PUSH2 0xAC5 JUMPI JUMPDEST POP DUP8 PUSH1 0x7 SLOAD AND SWAP7 DUP13 MLOAD SWAP8 DUP9 SWAP4 DUP5 SWAP3 DUP4 MSTORE ADDRESS SWAP1 DUP4 ADD MSTORE GAS STATICCALL SWAP4 DUP5 ISZERO PUSH2 0xABB JUMPI SWAP1 DUP7 SWAP6 SWAP5 SWAP4 SWAP3 SWAP2 DUP11 SWAP8 SWAP5 PUSH2 0xA7F JUMPI JUMPDEST POP DUP1 DUP4 GT PUSH2 0xA2E JUMPI JUMPDEST POP POP POP DUP1 DUP7 GT PUSH2 0x9D8 JUMPI JUMPDEST DUP8 DUP5 PUSH1 0x1 DUP1 SSTORE MLOAD PUSH1 0x1 DUP2 MSTORE RETURN JUMPDEST PUSH2 0x9E2 SWAP1 DUP7 PUSH2 0x214E JUMP JUMPDEST SWAP5 DUP6 ISZERO ISZERO SWAP1 DUP2 PUSH2 0xA24 JUMPI JUMPDEST POP PUSH2 0x9F9 JUMPI JUMPDEST DUP1 PUSH2 0x9CB JUMP JUMPDEST PUSH2 0xA18 SWAP4 DUP3 MSTORE PUSH1 0x3 DUP8 MSTORE DUP3 DUP3 KECCAK256 SWAP1 PUSH1 0x7 SLOAD AND DUP3 MSTORE DUP7 MSTORE KECCAK256 SWAP2 DUP3 SLOAD PUSH2 0x214E JUMP JUMPDEST SWAP1 SSTORE DUP3 DUP1 DUP3 DUP2 DUP1 PUSH2 0x9F3 JUMP JUMPDEST SWAP1 POP ISZERO ISZERO DUP9 PUSH2 0x9ED JUMP JUMPDEST PUSH2 0xA38 SWAP1 DUP4 PUSH2 0x214E JUMP JUMPDEST SWAP2 DUP3 ISZERO ISZERO SWAP1 DUP2 PUSH2 0xA75 JUMPI JUMPDEST POP PUSH2 0xA4F JUMPI JUMPDEST DUP1 PUSH2 0x9C0 JUMP JUMPDEST DUP7 DUP6 MSTORE PUSH1 0x3 DUP11 MSTORE DUP6 DUP6 KECCAK256 SWAP1 DUP6 MSTORE DUP10 MSTORE PUSH2 0xA6C DUP6 DUP6 KECCAK256 SWAP2 DUP3 SLOAD PUSH2 0x214E JUMP JUMPDEST SWAP1 SSTORE DUP9 DUP1 PUSH2 0xA49 JUMP JUMPDEST SWAP1 POP ISZERO ISZERO DUP12 PUSH2 0xA43 JUMP JUMPDEST DUP12 DUP1 SWAP3 SWAP7 SWAP8 SWAP9 POP DUP2 SWAP4 SWAP5 SWAP6 POP RETURNDATASIZE DUP4 GT PUSH2 0xAB4 JUMPI JUMPDEST PUSH2 0xA9D DUP2 DUP4 PUSH2 0x1B33 JUMP JUMPDEST DUP2 ADD SUB SLT PUSH2 0x6E5 JUMPI SWAP1 DUP9 SWAP6 SWAP5 SWAP4 SWAP3 SWAP2 MLOAD SWAP3 DUP12 PUSH2 0x9B7 JUMP JUMPDEST POP RETURNDATASIZE PUSH2 0xA93 JUMP JUMPDEST DUP10 MLOAD RETURNDATASIZE DUP9 DUP3 RETURNDATACOPY RETURNDATASIZE SWAP1 REVERT JUMPDEST DUP4 DUP2 SWAP4 SWAP5 SWAP3 SWAP6 POP RETURNDATASIZE DUP4 GT PUSH2 0xAF5 JUMPI JUMPDEST PUSH2 0xADE DUP2 DUP4 PUSH2 0x1B33 JUMP JUMPDEST DUP2 ADD SUB SLT PUSH2 0xAF1 JUMPI SWAP1 DUP12 SWAP2 MLOAD SWAP3 DUP14 PUSH2 0x98A JUMP JUMPDEST DUP8 DUP1 REVERT JUMPDEST POP RETURNDATASIZE PUSH2 0xAD4 JUMP JUMPDEST DUP12 MLOAD RETURNDATASIZE DUP11 DUP3 RETURNDATACOPY RETURNDATASIZE SWAP1 REVERT JUMPDEST PUSH1 0x84 DUP6 DUP6 DUP16 DUP16 MLOAD SWAP3 PUSH3 0x461BCD PUSH1 0xE5 SHL DUP5 MSTORE DUP4 ADD MSTORE DUP1 DUP3 ADD MSTORE PUSH32 0x496E73756666696369656E742062616C616E636520666F722067617320616E64 PUSH1 0x44 DUP3 ADD MSTORE PUSH32 0x2066656500000000000000000000000000000000000000000000000000000000 PUSH1 0x64 DUP3 ADD MSTORE REVERT JUMPDEST POP PUSH1 0x64 DUP5 PUSH1 0x12 DUP6 DUP16 DUP16 MLOAD SWAP4 PUSH3 0x461BCD PUSH1 0xE5 SHL DUP6 MSTORE DUP5 ADD MSTORE DUP3 ADD MSTORE PUSH32 0x5472616E73616374696F6E206661696C65640000000000000000000000000000 PUSH1 0x44 DUP3 ADD MSTORE REVERT JUMPDEST SWAP1 SWAP3 POP DUP4 DUP3 SWAP6 SWAP5 ISZERO PUSH1 0x0 EQ PUSH2 0xBDB JUMPI POP MLOAD SWAP4 DUP5 SWAP3 DUP4 CALLDATACOPY DUP2 ADD DUP3 DUP2 MSTORE SUB SWAP3 GAS CALL PUSH2 0xBD5 PUSH2 0x215B JUMP JUMPDEST POP PUSH2 0x8DA JUMP JUMPDEST SWAP4 POP MLOAD SWAP4 DUP5 SWAP3 DUP4 CALLDATACOPY DUP2 ADD DUP6 DUP2 MSTORE SUB SWAP3 GAS CALL PUSH2 0xBD5 PUSH2 0x215B JUMP JUMPDEST DUP16 DUP16 PUSH1 0x18 DUP10 PUSH1 0x64 SWAP4 DUP13 SWAP4 MLOAD SWAP4 PUSH3 0x461BCD PUSH1 0xE5 SHL DUP6 MSTORE DUP5 ADD MSTORE DUP3 ADD MSTORE PUSH32 0x496E73756666696369656E74204554482062616C616E63650000000000000000 PUSH1 0x44 DUP3 ADD MSTORE REVERT JUMPDEST SWAP1 DUP1 SWAP3 SWAP15 POP DUP2 RETURNDATASIZE DUP4 GT PUSH2 0xC64 JUMPI JUMPDEST PUSH2 0xC4F DUP2 DUP4 PUSH2 0x1B33 JUMP JUMPDEST DUP2 ADD SUB SLT PUSH2 0xC60 JUMPI MLOAD SWAP12 DUP16 DUP16 PUSH2 0x897 JUMP JUMPDEST DUP11 DUP1 REVERT JUMPDEST POP RETURNDATASIZE PUSH2 0xC45 JUMP JUMPDEST DUP15 MLOAD RETURNDATASIZE DUP14 DUP3 RETURNDATACOPY RETURNDATASIZE SWAP1 REVERT JUMPDEST SWAP4 SWAP6 SWAP8 POP POP SWAP1 SWAP3 SWAP5 SWAP7 SWAP8 POP DUP2 DUP2 RETURNDATASIZE DUP4 GT PUSH2 0xCB2 JUMPI JUMPDEST PUSH2 0xC94 DUP2 DUP4 PUSH2 0x1B33 JUMP JUMPDEST DUP2 ADD SUB SLT PUSH2 0xCAE JUMPI SWAP2 DUP13 SWAP7 SWAP6 SWAP4 SWAP2 DUP15 DUP14 SWAP7 SWAP5 MLOAD SWAP9 CODESIZE PUSH2 0x872 JUMP JUMPDEST DUP10 DUP1 REVERT JUMPDEST POP RETURNDATASIZE PUSH2 0xC8A JUMP JUMPDEST DUP14 MLOAD RETURNDATASIZE DUP13 DUP3 RETURNDATACOPY RETURNDATASIZE SWAP1 REVERT JUMPDEST POP DUP3 CALLVALUE PUSH2 0x306 JUMPI DUP2 PUSH1 0x3 NOT CALLDATASIZE ADD SLT PUSH2 0x306 JUMPI PUSH20 0xFFFFFFFFFFFFFFFFFFFFFFFFFFFFFFFFFFFFFFFF PUSH1 0x20 SWAP3 SLOAD AND SWAP1 MLOAD SWAP1 DUP2 MSTORE RETURN JUMPDEST POP DUP3 CALLVALUE PUSH2 0x306 JUMPI DUP2 PUSH1 0x3 NOT CALLDATASIZE ADD SLT PUSH2 0x306 JUMPI PUSH1 0x20 SWAP1 PUSH20 0xFFFFFFFFFFFFFFFFFFFFFFFFFFFFFFFFFFFFFFFF PUSH1 0x6 SLOAD AND SWAP1 MLOAD SWAP1 DUP2 MSTORE RETURN JUMPDEST POP DUP3 CALLVALUE PUSH2 0x306 JUMPI DUP2 PUSH1 0x3 NOT CALLDATASIZE ADD SLT PUSH2 0x306 JUMPI PUSH1 0x20 SWAP1 PUSH1 0xD SLOAD SWAP1 MLOAD SWAP1 DUP2 MSTORE RETURN JUMPDEST POP DUP3 CALLVALUE PUSH2 0x306 JUMPI PUSH1 0x60 PUSH1 0x3 NOT CALLDATASIZE ADD SLT PUSH2 0x306 JUMPI PUSH2 0xD65 PUSH2 0x1C55 JUMP JUMPDEST SWAP1 PUSH1 0x24 CALLDATALOAD SWAP2 PUSH2 0xDBE PUSH20 0xFFFFFFFFFFFFFFFFFFFFFFFFFFFFFFFFFFFFFFFF DUP1 SWAP3 AND SWAP2 PUSH2 0xD91 DUP4 ISZERO ISZERO PUSH2 0x1DB4 JUMP JUMPDEST PUSH2 0xD9C DUP6 ISZERO ISZERO PUSH2 0x1DFF JUMP JUMPDEST DUP1 DUP8 SLOAD AND DUP4 EQ SWAP1 DUP2 ISZERO PUSH2 0xEC0 JUMPI JUMPDEST DUP2 ISZERO PUSH2 0xEB2 JUMPI JUMPDEST DUP2 ISZERO PUSH2 0xEA4 JUMPI JUMPDEST POP PUSH2 0x1E4A JUMP JUMPDEST DUP2 MLOAD SWAP5 PUSH32 0x23B872DD00000000000000000000000000000000000000000000000000000000 DUP7 MSTORE CALLER DUP2 DUP8 ADD MSTORE ADDRESS PUSH1 0x24 DUP8 ADD MSTORE DUP4 PUSH1 0x44 DUP8 ADD MSTORE PUSH1 0x20 SWAP6 DUP7 DUP2 PUSH1 0x64 DUP2 DUP10 DUP8 GAS CALL SWAP1 DUP2 ISZERO PUSH2 0xE9A JUMPI DUP7 SWAP2 PUSH2 0xE7D JUMPI JUMPDEST POP ISZERO PUSH2 0xE3B JUMPI POP PUSH2 0xE36 SWAP3 SWAP4 SWAP5 PUSH1 0x44 CALLDATALOAD DUP7 MSTORE PUSH1 0x3 DUP2 MSTORE DUP3 DUP7 KECCAK256 SWAP2 DUP7 MSTORE MSTORE DUP4 KECCAK256 SWAP2 DUP3 SLOAD PUSH2 0x1D23 JUMP JUMPDEST SWAP1 SSTORE DUP1 RETURN JUMPDEST PUSH1 0x64 SWAP1 DUP7 DUP5 MLOAD SWAP2 PUSH3 0x461BCD PUSH1 0xE5 SHL DUP4 MSTORE DUP3 ADD MSTORE PUSH1 0x15 PUSH1 0x24 DUP3 ADD MSTORE PUSH32 0x546F6B656E207472616E73666572206661696C65640000000000000000000000 PUSH1 0x44 DUP3 ADD MSTORE REVERT JUMPDEST PUSH2 0xE94 SWAP2 POP DUP8 RETURNDATASIZE DUP10 GT PUSH2 0x693 JUMPI PUSH2 0x684 DUP2 DUP4 PUSH2 0x1B33 JUMP JUMPDEST DUP8 PUSH2 0xE0F JUMP JUMPDEST DUP5 MLOAD RETURNDATASIZE DUP9 DUP3 RETURNDATACOPY RETURNDATASIZE SWAP1 REVERT JUMPDEST SWAP1 POP PUSH1 0x7 SLOAD AND DUP3 EQ DUP8 PUSH2 0xDB8 JUMP JUMPDEST PUSH1 0x6 SLOAD DUP2 AND DUP5 EQ SWAP2 POP PUSH2 0xDB1 JUMP JUMPDEST PUSH1 0x5 SLOAD DUP2 AND DUP5 EQ SWAP2 POP PUSH2 0xDAA JUMP JUMPDEST POP CALLVALUE PUSH2 0x3D8 JUMPI DUP1 PUSH1 0x3 NOT CALLDATASIZE ADD SLT PUSH2 0x3D8 JUMPI PUSH2 0xEE7 PUSH2 0x1CBE JUMP JUMPDEST DUP1 PUSH20 0xFFFFFFFFFFFFFFFFFFFFFFFFFFFFFFFFFFFFFFFF DUP2 SLOAD PUSH32 0xFFFFFFFFFFFFFFFFFFFFFFFF0000000000000000000000000000000000000000 DUP2 AND DUP4 SSTORE AND PUSH32 0x8BE0079C531659141344CD1FD0A4F28419497F9722A3DAAFE3B4186F6B6457E0 DUP3 DUP1 LOG3 DUP1 RETURN JUMPDEST POP DUP3 CALLVALUE PUSH2 0x306 JUMPI PUSH1 0x80 PUSH1 0x3 NOT CALLDATASIZE ADD SLT PUSH2 0x306 JUMPI PUSH2 0xF67 PUSH2 0x1C55 JUMP JUMPDEST SWAP1 PUSH1 0x24 CALLDATALOAD SWAP4 PUSH2 0xF74 PUSH2 0x1C32 JUMP JUMPDEST PUSH20 0xFFFFFFFFFFFFFFFFFFFFFFFFFFFFFFFFFFFFFFFF DUP1 SWAP5 AND SWAP2 PUSH2 0xF98 DUP4 ISZERO ISZERO PUSH2 0x1DB4 JUMP JUMPDEST PUSH2 0xFA3 DUP8 ISZERO ISZERO PUSH2 0x1DFF JUMP JUMPDEST DUP5 DUP2 SLOAD AND DUP4 EQ DUP1 ISZERO PUSH2 0x1155 JUMPI JUMPDEST DUP1 ISZERO PUSH2 0x1148 JUMPI JUMPDEST DUP1 ISZERO PUSH2 0x113B JUMPI JUMPDEST PUSH2 0xFC7 SWAP1 PUSH2 0x1E4A JUMP JUMPDEST PUSH1 0x64 CALLDATALOAD DUP7 MSTORE PUSH1 0x20 SWAP5 PUSH1 0x3 DUP7 MSTORE DUP5 DUP8 KECCAK256 DUP5 DUP9 MSTORE DUP7 MSTORE PUSH2 0xFEA DUP9 DUP7 DUP10 KECCAK256 SLOAD LT ISZERO PUSH2 0x1E95 JUMP JUMPDEST DUP6 DUP2 PUSH1 0x9 SLOAD AND SWAP2 PUSH1 0x24 DUP8 MLOAD DUP1 SWAP5 DUP2 SWAP4 PUSH32 0xE58FDD0400000000000000000000000000000000000000000000000000000000 DUP4 MSTORE DUP9 AND DUP8 DUP4 ADD MSTORE GAS STATICCALL SWAP1 DUP2 ISZERO PUSH2 0x1131 JUMPI DUP8 SWAP2 PUSH2 0x1114 JUMPI JUMPDEST POP ISZERO PUSH2 0x10D2 JUMPI DUP4 SWAP3 DUP6 SWAP3 DUP8 DUP10 SWAP4 PUSH2 0x1098 SWAP8 MLOAD SWAP8 DUP9 SWAP6 DUP7 SWAP5 DUP6 SWAP4 PUSH32 0x95EA7B300000000000000000000000000000000000000000000000000000000 DUP6 MSTORE DUP5 ADD PUSH1 0x20 SWAP1 SWAP4 SWAP3 SWAP2 SWAP4 PUSH20 0xFFFFFFFFFFFFFFFFFFFFFFFFFFFFFFFFFFFFFFFF PUSH1 0x40 DUP3 ADD SWAP6 AND DUP2 MSTORE ADD MSTORE JUMP JUMPDEST SUB SWAP3 GAS CALL SWAP1 DUP2 ISZERO PUSH2 0x10C9 JUMPI POP PUSH2 0x10AC JUMPI DUP3 DUP1 RETURN JUMPDEST DUP2 PUSH2 0x10C2 SWAP3 SWAP1 RETURNDATASIZE LT PUSH2 0x693 JUMPI PUSH2 0x684 DUP2 DUP4 PUSH2 0x1B33 JUMP JUMPDEST POP DUP2 DUP1 DUP3 DUP1 RETURN JUMPDEST MLOAD RETURNDATASIZE DUP6 DUP3 RETURNDATACOPY RETURNDATASIZE SWAP1 REVERT JUMPDEST PUSH1 0x64 SWAP1 DUP6 DUP6 MLOAD SWAP2 PUSH3 0x461BCD PUSH1 0xE5 SHL DUP4 MSTORE DUP3 ADD MSTORE PUSH1 0xA PUSH1 0x24 DUP3 ADD MSTORE PUSH32 0x4E6F742061206665656400000000000000000000000000000000000000000000 PUSH1 0x44 DUP3 ADD MSTORE REVERT JUMPDEST PUSH2 0x112B SWAP2 POP DUP7 RETURNDATASIZE DUP9 GT PUSH2 0x693 JUMPI PUSH2 0x684 DUP2 DUP4 PUSH2 0x1B33 JUMP JUMPDEST DUP9 PUSH2 0x1032 JUMP JUMPDEST DUP6 MLOAD RETURNDATASIZE DUP10 DUP3 RETURNDATACOPY RETURNDATASIZE SWAP1 REVERT JUMPDEST POP PUSH1 0x7 SLOAD DUP6 AND DUP4 EQ PUSH2 0xFBE JUMP JUMPDEST POP DUP5 PUSH1 0x6 SLOAD AND DUP4 EQ PUSH2 0xFB7 JUMP JUMPDEST POP DUP5 PUSH1 0x5 SLOAD AND DUP4 EQ PUSH2 0xFB0 JUMP JUMPDEST POP DUP3 CALLVALUE PUSH2 0x306 JUMPI DUP2 PUSH1 0x3 NOT CALLDATASIZE ADD SLT PUSH2 0x306 JUMPI PUSH1 0x20 SWAP1 MLOAD PUSH2 0x1F4 DUP2 MSTORE RETURN JUMPDEST POP CALLVALUE PUSH2 0x3D8 JUMPI PUSH1 0x20 PUSH1 0x3 NOT CALLDATASIZE ADD SLT PUSH2 0x3D8 JUMPI PUSH20 0xFFFFFFFFFFFFFFFFFFFFFFFFFFFFFFFFFFFFFFFF PUSH2 0x11AE PUSH2 0x1C55 JUMP JUMPDEST PUSH2 0x11B6 PUSH2 0x1CBE JUMP JUMPDEST AND PUSH32 0xFFFFFFFFFFFFFFFFFFFFFFFF0000000000000000000000000000000000000000 PUSH1 0xC SLOAD AND OR PUSH1 0xC SSTORE DUP1 RETURN JUMPDEST POP DUP3 CALLVALUE PUSH2 0x306 JUMPI DUP1 PUSH1 0x3 NOT CALLDATASIZE ADD SLT PUSH2 0x306 JUMPI DUP1 PUSH1 0x20 SWAP3 PUSH2 0x1201 PUSH2 0x1C55 JUMP JUMPDEST PUSH1 0x24 CALLDATALOAD DUP3 MSTORE PUSH1 0x3 DUP6 MSTORE PUSH20 0xFFFFFFFFFFFFFFFFFFFFFFFFFFFFFFFFFFFFFFFF DUP4 DUP4 KECCAK256 SWAP2 AND DUP3 MSTORE DUP5 MSTORE KECCAK256 SLOAD SWAP1 MLOAD SWAP1 DUP2 MSTORE RETURN JUMPDEST POP SWAP1 CALLVALUE PUSH2 0x306 JUMPI PUSH1 0x80 PUSH1 0x3 NOT CALLDATASIZE ADD SLT PUSH2 0x306 JUMPI PUSH2 0x124C PUSH2 0x1C55 JUMP JUMPDEST SWAP1 PUSH2 0x1255 PUSH2 0x1C9B JUMP JUMPDEST SWAP1 PUSH2 0x125E PUSH2 0x1C32 JUMP JUMPDEST SWAP1 PUSH2 0x1267 PUSH2 0x1C78 JUMP JUMPDEST SWAP2 PUSH2 0x1270 PUSH2 0x1CBE JUMP JUMPDEST PUSH20 0xFFFFFFFFFFFFFFFFFFFFFFFFFFFFFFFFFFFFFFFF DUP1 SWAP5 DUP2 SWAP4 DUP3 PUSH32 0xFFFFFFFFFFFFFFFFFFFFFFFF0000000000000000000000000000000000000000 SWAP9 AND DUP9 DUP3 SLOAD AND OR SWAP1 SSTORE AND DUP6 PUSH1 0x5 SLOAD AND OR PUSH1 0x5 SSTORE AND DUP4 PUSH1 0x6 SLOAD AND OR PUSH1 0x6 SSTORE AND SWAP1 PUSH1 0x7 SLOAD AND OR PUSH1 0x7 SSTORE DUP1 RETURN JUMPDEST POP DUP3 CALLVALUE PUSH2 0x306 JUMPI DUP2 PUSH1 0x3 NOT CALLDATASIZE ADD SLT PUSH2 0x306 JUMPI PUSH1 0x20 SWAP1 PUSH20 0xFFFFFFFFFFFFFFFFFFFFFFFFFFFFFFFFFFFFFFFF PUSH1 0x7 SLOAD AND SWAP1 MLOAD SWAP1 DUP2 MSTORE RETURN JUMPDEST POP DUP3 CALLVALUE PUSH2 0x306 JUMPI DUP2 PUSH1 0x3 NOT CALLDATASIZE ADD SLT PUSH2 0x306 JUMPI PUSH1 0x20 SWAP1 PUSH20 0xFFFFFFFFFFFFFFFFFFFFFFFFFFFFFFFFFFFFFFFF PUSH1 0xA SLOAD AND SWAP1 MLOAD SWAP1 DUP2 MSTORE RETURN JUMPDEST POP CALLVALUE PUSH2 0x3D8 JUMPI PUSH1 0x20 PUSH1 0x3 NOT CALLDATASIZE ADD SLT PUSH2 0x3D8 JUMPI PUSH20 0xFFFFFFFFFFFFFFFFFFFFFFFFFFFFFFFFFFFFFFFF PUSH2 0x136E PUSH2 0x1C55 JUMP JUMPDEST PUSH2 0x1376 PUSH2 0x1CBE JUMP JUMPDEST AND PUSH32 0xFFFFFFFFFFFFFFFFFFFFFFFF0000000000000000000000000000000000000000 PUSH1 0xB SLOAD AND OR PUSH1 0xB SSTORE DUP1 RETURN JUMPDEST POP CALLVALUE PUSH2 0x3D8 JUMPI PUSH1 0x20 PUSH1 0x3 NOT CALLDATASIZE ADD SLT PUSH2 0x3D8 JUMPI PUSH20 0xFFFFFFFFFFFFFFFFFFFFFFFFFFFFFFFFFFFFFFFF PUSH2 0x13D2 PUSH2 0x1C55 JUMP JUMPDEST PUSH2 0x13DA PUSH2 0x1CBE JUMP JUMPDEST AND PUSH32 0xFFFFFFFFFFFFFFFFFFFFFFFF0000000000000000000000000000000000000000 PUSH1 0xA SLOAD AND OR PUSH1 0xA SSTORE DUP1 RETURN JUMPDEST POP SWAP2 SWAP1 CALLVALUE PUSH2 0x2CD JUMPI PUSH1 0x20 PUSH1 0x3 NOT CALLDATASIZE ADD SLT PUSH2 0x2CD JUMPI PUSH1 0x20 SWAP3 DUP3 SWAP2 CALLDATALOAD DUP2 MSTORE PUSH1 0x2 DUP5 MSTORE KECCAK256 SLOAD SWAP1 MLOAD SWAP1 DUP2 MSTORE RETURN JUMPDEST POP SWAP2 SWAP1 CALLVALUE PUSH2 0x2CD JUMPI PUSH1 0x20 PUSH1 0x3 NOT CALLDATASIZE ADD SLT PUSH2 0x2CD JUMPI DUP1 CALLDATALOAD SWAP2 PUSH2 0x144F PUSH2 0x1CBE JUMP JUMPDEST PUSH2 0x1F4 DUP4 GT PUSH2 0x1460 JUMPI POP POP PUSH1 0xD SSTORE DUP1 RETURN JUMPDEST SWAP1 PUSH1 0x20 PUSH1 0x84 SWAP3 MLOAD SWAP2 PUSH3 0x461BCD PUSH1 0xE5 SHL DUP4 MSTORE DUP3 ADD MSTORE PUSH1 0x26 PUSH1 0x24 DUP3 ADD MSTORE PUSH32 0x4E65772072656C61796572206665652070657263656E7461676520697320746F PUSH1 0x44 DUP3 ADD MSTORE PUSH32 0x6F20686967680000000000000000000000000000000000000000000000000000 PUSH1 0x64 DUP3 ADD MSTORE REVERT JUMPDEST POP DUP3 CALLVALUE PUSH2 0x306 JUMPI DUP2 PUSH1 0x3 NOT CALLDATASIZE ADD SLT PUSH2 0x306 JUMPI PUSH1 0x20 SWAP1 PUSH20 0xFFFFFFFFFFFFFFFFFFFFFFFFFFFFFFFFFFFFFFFF PUSH1 0xB SLOAD AND SWAP1 MLOAD SWAP1 DUP2 MSTORE RETURN JUMPDEST POP SWAP2 CALLVALUE PUSH2 0x2CD JUMPI PUSH1 0xA0 PUSH1 0x3 NOT CALLDATASIZE ADD SLT PUSH2 0x2CD JUMPI PUSH2 0x1519 PUSH2 0x1C55 JUMP JUMPDEST SWAP1 PUSH1 0x24 CALLDATALOAD SWAP1 PUSH1 0x44 CALLDATALOAD PUSH8 0xFFFFFFFFFFFFFFFF DUP2 GT PUSH2 0x6E5 JUMPI PUSH2 0x153D SWAP1 CALLDATASIZE SWAP1 DUP7 ADD PUSH2 0x1C14 JUMP JUMPDEST SWAP2 PUSH2 0x1546 PUSH2 0x1C78 JUMP JUMPDEST SWAP1 PUSH1 0x84 CALLDATALOAD SWAP5 PUSH20 0xFFFFFFFFFFFFFFFFFFFFFFFFFFFFFFFFFFFFFFFF PUSH2 0x156F DUP2 PUSH1 0xC SLOAD AND CALLER EQ PUSH2 0x1EF8 JUMP JUMPDEST PUSH2 0x1577 PUSH2 0x1D5F JUMP JUMPDEST DUP7 GAS SWAP5 DUP11 DUP2 PUSH2 0x1586 DUP9 GASPRICE PUSH2 0x213B JUMP JUMPDEST SWAP10 DUP6 PUSH1 0x8 SLOAD AND SWAP1 DUP14 PUSH2 0x15C4 DUP13 MLOAD SWAP15 DUP16 SWAP6 DUP7 SWAP5 DUP6 SWAP5 PUSH32 0x7276069D00000000000000000000000000000000000000000000000000000000 DUP7 MSTORE DUP6 ADD PUSH2 0x2039 JUMP JUMPDEST SUB SWAP2 GAS STATICCALL SWAP8 DUP9 ISZERO PUSH2 0x18A6 JUMPI DUP12 DUP1 SWAP10 DUP2 SWAP1 PUSH2 0x1860 JUMPI JUMPDEST DUP11 SWAP12 POP SWAP3 DUP11 SWAP5 SWAP3 DUP11 DUP8 SWAP6 SWAP4 PUSH2 0x15FF SWAP12 SWAP11 SWAP10 SWAP9 SWAP5 PUSH1 0x20 SWAP13 DUP2 DUP15 DUP1 DUP1 SWAP5 MLOAD DUP4 ADD ADD SWAP2 ADD PUSH2 0x2071 JUMP JUMPDEST SWAP7 AND SWAP9 MLOAD SWAP16 ADD SWAP15 DUP16 KECCAK256 DUP2 MSTORE PUSH1 0x2 DUP13 MSTORE KECCAK256 SLOAD LT PUSH2 0x181E JUMPI SWAP1 PUSH2 0x1627 DUP5 PUSH2 0x162D SWAP5 SWAP4 AND DUP7 EQ PUSH2 0x20A5 JUMP JUMPDEST EQ PUSH2 0x20F0 JUMP JUMPDEST DUP8 MLOAD DUP10 KECCAK256 DUP12 MSTORE PUSH1 0x3 DUP7 MSTORE DUP7 DUP12 KECCAK256 SWAP3 AND SWAP2 DUP3 DUP12 MSTORE DUP6 MSTORE DUP3 DUP7 DUP12 KECCAK256 SLOAD LT PUSH2 0x17DC JUMPI SWAP2 DUP5 SWAP2 PUSH2 0x16CD SWAP4 DUP9 MLOAD DUP11 KECCAK256 DUP13 MSTORE PUSH1 0x3 DUP5 MSTORE DUP8 DUP13 KECCAK256 DUP3 DUP14 MSTORE DUP5 MSTORE DUP8 DUP13 KECCAK256 PUSH2 0x1673 DUP5 DUP3 SLOAD PUSH2 0x214E JUMP JUMPDEST SWAP1 SSTORE DUP12 DUP12 DUP10 MLOAD SWAP7 DUP8 SWAP6 DUP7 SWAP5 DUP6 SWAP4 PUSH32 0xA9059CBB00000000000000000000000000000000000000000000000000000000 DUP6 MSTORE DUP5 ADD PUSH1 0x20 SWAP1 SWAP4 SWAP3 SWAP2 SWAP4 PUSH20 0xFFFFFFFFFFFFFFFFFFFFFFFFFFFFFFFFFFFFFFFF PUSH1 0x40 DUP3 ADD SWAP6 AND DUP2 MSTORE ADD MSTORE JUMP JUMPDEST SUB SWAP3 GAS CALL DUP1 ISZERO PUSH2 0x17D2 JUMPI SWAP1 PUSH2 0x16F4 SWAP3 SWAP2 PUSH2 0x17B5 JUMPI JUMPDEST POP PUSH2 0x16EF GASPRICE SWAP2 GAS SWAP1 PUSH2 0x214E JUMP JUMPDEST PUSH2 0x213B JUMP JUMPDEST SWAP4 PUSH2 0x2710 PUSH2 0x1704 PUSH1 0xD SLOAD DUP8 PUSH2 0x213B JUMP JUMPDEST DIV SWAP6 DUP5 MLOAD DUP3 KECCAK256 DUP9 MSTORE PUSH1 0x2 DUP4 MSTORE DUP4 DUP9 KECCAK256 SLOAD PUSH2 0x171E DUP9 DUP9 PUSH2 0x1D23 JUMP JUMPDEST GT PUSH2 0x1773 JUMPI DUP8 PUSH2 0x176C DUP2 DUP1 DUP1 DUP1 PUSH2 0x175B DUP14 DUP14 DUP14 PUSH2 0x1754 DUP15 PUSH1 0x2 DUP16 DUP16 PUSH2 0x1743 DUP9 DUP9 PUSH2 0x1D23 JUMP JUMPDEST SWAP6 MLOAD SWAP1 KECCAK256 DUP10 MSTORE MSTORE DUP7 KECCAK256 SWAP2 DUP3 SLOAD PUSH2 0x214E JUMP JUMPDEST SWAP1 SSTORE PUSH2 0x1D23 JUMP JUMPDEST CALLER GAS CALL PUSH2 0x1766 PUSH2 0x215B JUMP JUMPDEST POP PUSH2 0x21D6 JUMP JUMPDEST PUSH1 0x1 DUP1 SSTORE DUP1 RETURN JUMPDEST PUSH1 0x64 SWAP1 DUP4 DUP6 MLOAD SWAP2 PUSH3 0x461BCD PUSH1 0xE5 SHL DUP4 MSTORE DUP3 ADD MSTORE PUSH1 0x1F PUSH1 0x24 DUP3 ADD MSTORE PUSH32 0x4E6F7420656E6F7567682062616C616E636520666F7220676173207573656400 PUSH1 0x44 DUP3 ADD MSTORE REVERT JUMPDEST PUSH2 0x17CB SWAP1 DUP5 RETURNDATASIZE DUP7 GT PUSH2 0x693 JUMPI PUSH2 0x684 DUP2 DUP4 PUSH2 0x1B33 JUMP JUMPDEST POP CODESIZE PUSH2 0x16E2 JUMP JUMPDEST DUP5 MLOAD RETURNDATASIZE DUP11 DUP3 RETURNDATACOPY RETURNDATASIZE SWAP1 REVERT JUMPDEST PUSH1 0x64 DUP10 DUP7 DUP9 MLOAD SWAP2 PUSH3 0x461BCD PUSH1 0xE5 SHL DUP4 MSTORE DUP3 ADD MSTORE PUSH1 0x18 PUSH1 0x24 DUP3 ADD MSTORE PUSH32 0x4E6F7420656E6F75676820746F6B656E2062616C616E63650000000000000000 PUSH1 0x44 DUP3 ADD MSTORE REVERT JUMPDEST PUSH1 0x64 DUP14 DUP11 DUP13 MLOAD SWAP2 PUSH3 0x461BCD PUSH1 0xE5 SHL DUP4 MSTORE DUP3 ADD MSTORE PUSH1 0x1F PUSH1 0x24 DUP3 ADD MSTORE PUSH32 0x4E6F7420656E6F7567682045544820666F722067617320726571756972656400 PUSH1 0x44 DUP3 ADD MSTORE REVERT JUMPDEST POP SWAP9 POP SWAP2 DUP4 PUSH2 0x15FF SWAP8 SWAP7 SWAP6 SWAP5 SWAP3 PUSH2 0x188A DUP11 SWAP13 DUP13 RETURNDATASIZE DUP1 SWAP2 DUP4 RETURNDATACOPY PUSH2 0x1882 DUP2 DUP4 PUSH2 0x1B33 JUMP JUMPDEST DUP2 ADD SWAP1 PUSH2 0x1FA8 JUMP JUMPDEST SWAP8 SWAP3 SWAP2 POP POP SWAP13 DUP14 SWAP13 DUP14 SWAP8 SWAP4 SWAP7 POP SWAP4 SWAP8 SWAP9 SWAP10 SWAP11 POP POP SWAP3 SWAP5 POP PUSH2 0x15D9 JUMP JUMPDEST DUP8 MLOAD RETURNDATASIZE DUP14 DUP3 RETURNDATACOPY RETURNDATASIZE SWAP1 REVERT JUMPDEST POP SWAP2 SWAP1 CALLVALUE PUSH2 0x2CD JUMPI PUSH1 0x80 PUSH1 0x3 NOT CALLDATASIZE ADD SLT PUSH2 0x2CD JUMPI DUP1 CALLDATALOAD SWAP1 PUSH1 0x24 CALLDATALOAD PUSH8 0xFFFFFFFFFFFFFFFF DUP2 GT PUSH2 0x6E9 JUMPI PUSH2 0x18E6 SWAP1 CALLDATASIZE SWAP1 DUP4 ADD PUSH2 0x1C14 JUMP JUMPDEST SWAP2 PUSH2 0x18EF PUSH2 0x1C32 JUMP JUMPDEST SWAP2 PUSH1 0x64 CALLDATALOAD SWAP4 PUSH2 0x1963 PUSH20 0xFFFFFFFFFFFFFFFFFFFFFFFFFFFFFFFFFFFFFFFF SWAP6 PUSH2 0x191C DUP8 PUSH1 0xC SLOAD AND CALLER EQ PUSH2 0x1EF8 JUMP JUMPDEST PUSH2 0x1924 PUSH2 0x1D5F JUMP JUMPDEST DUP9 DUP2 GAS SWAP5 DUP9 DUP11 PUSH1 0x8 SLOAD AND SWAP2 DUP13 MLOAD SWAP7 DUP8 SWAP5 DUP6 SWAP4 DUP5 SWAP4 PUSH32 0x7276069D00000000000000000000000000000000000000000000000000000000 DUP6 MSTORE DUP13 DUP6 ADD PUSH2 0x2039 JUMP JUMPDEST SUB SWAP2 GAS STATICCALL SWAP7 DUP8 ISZERO PUSH2 0x1B29 JUMPI DUP10 SWAP3 DUP11 SWAP9 PUSH2 0x1B01 JUMPI JUMPDEST POP SWAP1 DUP2 PUSH2 0x1627 PUSH2 0x19A0 SWAP4 PUSH2 0x1995 PUSH1 0x20 SWAP12 DUP13 DUP1 DUP3 MLOAD DUP4 ADD ADD SWAP2 ADD PUSH2 0x2071 JUMP JUMPDEST SWAP4 AND SWAP10 AND DUP10 EQ PUSH2 0x20A5 JUMP JUMPDEST DUP6 DUP2 MLOAD SWAP2 ADD KECCAK256 PUSH2 0x19CE PUSH2 0x19BC PUSH2 0x19B6 DUP5 GASPRICE PUSH2 0x213B JUMP JUMPDEST DUP7 PUSH2 0x214E JUMP JUMPDEST DUP3 DUP11 MSTORE PUSH1 0x2 DUP9 MSTORE DUP9 DUP11 KECCAK256 SLOAD LT ISZERO PUSH2 0x1E95 JUMP JUMPDEST DUP1 DUP9 MSTORE PUSH1 0x2 DUP7 MSTORE DUP7 DUP9 KECCAK256 SLOAD ISZERO PUSH2 0x1ABF JUMPI SWAP1 PUSH2 0x1A26 SWAP2 PUSH2 0x19EE DUP6 ISZERO ISZERO PUSH2 0x1DFF JUMP JUMPDEST DUP1 DUP10 MSTORE PUSH1 0x2 DUP8 MSTORE PUSH2 0x1A04 DUP6 DUP10 DUP12 KECCAK256 SLOAD LT ISZERO PUSH2 0x1E95 JUMP JUMPDEST DUP9 MSTORE PUSH1 0x2 DUP7 MSTORE DUP7 DUP9 KECCAK256 PUSH2 0x1A18 DUP6 DUP3 SLOAD PUSH2 0x214E JUMP JUMPDEST SWAP1 SSTORE PUSH2 0x16EF GASPRICE SWAP2 GAS SWAP1 PUSH2 0x214E JUMP JUMPDEST SWAP4 PUSH2 0x2710 PUSH2 0x1A36 PUSH1 0xD SLOAD DUP8 PUSH2 0x213B JUMP JUMPDEST DIV SWAP6 PUSH2 0x1A42 DUP8 DUP8 PUSH2 0x1D23 JUMP JUMPDEST DUP5 LT PUSH2 0x1A7E JUMPI POP POP POP DUP5 PUSH2 0x175B DUP6 DUP6 PUSH2 0x1A79 DUP5 DUP1 DUP1 DUP1 DUP1 SWAP12 SWAP11 PUSH2 0x1A6E PUSH2 0x176C SWAP15 PUSH2 0x93E DUP5 SWAP15 DUP6 SWAP15 PUSH2 0x214E JUMP JUMPDEST SWAP1 GAS CALL PUSH2 0x95A PUSH2 0x215B JUMP JUMPDEST PUSH2 0x1D23 JUMP JUMPDEST PUSH1 0x64 SWAP4 POP MLOAD SWAP2 PUSH3 0x461BCD PUSH1 0xE5 SHL DUP4 MSTORE DUP3 ADD MSTORE PUSH1 0x1A PUSH1 0x24 DUP3 ADD MSTORE PUSH32 0x4E6F7420656E6F7567682062616C616E636520666F7220676173000000000000 PUSH1 0x44 DUP3 ADD MSTORE REVERT JUMPDEST PUSH1 0x64 DUP4 DUP8 DUP10 MLOAD SWAP2 PUSH3 0x461BCD PUSH1 0xE5 SHL DUP4 MSTORE DUP3 ADD MSTORE PUSH1 0x19 PUSH1 0x24 DUP3 ADD MSTORE PUSH32 0x436F6D6D69746D656E7420646F6573206E6F7420657869737400000000000000 PUSH1 0x44 DUP3 ADD MSTORE REVERT JUMPDEST PUSH2 0x1B1C SWAP2 SWAP9 POP PUSH2 0x19A0 SWAP3 SWAP4 POP RETURNDATASIZE DUP1 DUP13 DUP4 RETURNDATACOPY PUSH2 0x1882 DUP2 DUP4 PUSH2 0x1B33 JUMP JUMPDEST SWAP10 SWAP3 SWAP5 SWAP4 SWAP2 POP PUSH2 0x1977 SWAP1 POP JUMP JUMPDEST DUP9 MLOAD RETURNDATASIZE DUP12 DUP3 RETURNDATACOPY RETURNDATASIZE SWAP1 REVERT JUMPDEST SWAP1 PUSH1 0x1F PUSH32 0xFFFFFFFFFFFFFFFFFFFFFFFFFFFFFFFFFFFFFFFFFFFFFFFFFFFFFFFFFFFFFFE0 SWAP2 ADD AND DUP2 ADD SWAP1 DUP2 LT PUSH8 0xFFFFFFFFFFFFFFFF DUP3 GT OR PUSH2 0x1B74 JUMPI PUSH1 0x40 MSTORE JUMP JUMPDEST PUSH32 0x4E487B7100000000000000000000000000000000000000000000000000000000 PUSH1 0x0 MSTORE PUSH1 0x41 PUSH1 0x4 MSTORE PUSH1 0x24 PUSH1 0x0 REVERT JUMPDEST PUSH8 0xFFFFFFFFFFFFFFFF DUP2 GT PUSH2 0x1B74 JUMPI PUSH1 0x1F ADD PUSH32 0xFFFFFFFFFFFFFFFFFFFFFFFFFFFFFFFFFFFFFFFFFFFFFFFFFFFFFFFFFFFFFFE0 AND PUSH1 0x20 ADD SWAP1 JUMP JUMPDEST SWAP3 SWAP2 SWAP3 PUSH2 0x1BE9 DUP3 PUSH2 0x1BA3 JUMP JUMPDEST SWAP2 PUSH2 0x1BF7 PUSH1 0x40 MLOAD SWAP4 DUP5 PUSH2 0x1B33 JUMP JUMPDEST DUP3 SWAP5 DUP2 DUP5 MSTORE DUP2 DUP4 ADD GT PUSH2 0x3C JUMPI DUP3 DUP2 PUSH1 0x20 SWAP4 DUP5 PUSH1 0x0 SWAP7 ADD CALLDATACOPY ADD ADD MSTORE JUMP JUMPDEST SWAP1 DUP1 PUSH1 0x1F DUP4 ADD SLT ISZERO PUSH2 0x3C JUMPI DUP2 PUSH1 0x20 PUSH2 0x1C2F SWAP4 CALLDATALOAD SWAP2 ADD PUSH2 0x1BDD JUMP JUMPDEST SWAP1 JUMP JUMPDEST PUSH1 0x44 CALLDATALOAD SWAP1 PUSH20 0xFFFFFFFFFFFFFFFFFFFFFFFFFFFFFFFFFFFFFFFF DUP3 AND DUP3 SUB PUSH2 0x3C JUMPI JUMP JUMPDEST PUSH1 0x4 CALLDATALOAD SWAP1 PUSH20 0xFFFFFFFFFFFFFFFFFFFFFFFFFFFFFFFFFFFFFFFF DUP3 AND DUP3 SUB PUSH2 0x3C JUMPI JUMP JUMPDEST PUSH1 0x64 CALLDATALOAD SWAP1 PUSH20 0xFFFFFFFFFFFFFFFFFFFFFFFFFFFFFFFFFFFFFFFF DUP3 AND DUP3 SUB PUSH2 0x3C JUMPI JUMP JUMPDEST PUSH1 0x24 CALLDATALOAD SWAP1 PUSH20 0xFFFFFFFFFFFFFFFFFFFFFFFFFFFFFFFFFFFFFFFF DUP3 AND DUP3 SUB PUSH2 0x3C JUMPI JUMP JUMPDEST PUSH20 0xFFFFFFFFFFFFFFFFFFFFFFFFFFFFFFFFFFFFFFFF PUSH1 0x0 SLOAD AND CALLER SUB PUSH2 0x1CDF JUMPI JUMP JUMPDEST PUSH1 0x64 PUSH1 0x40 MLOAD PUSH3 0x461BCD PUSH1 0xE5 SHL DUP2 MSTORE PUSH1 0x20 PUSH1 0x4 DUP3 ADD MSTORE PUSH1 0x20 PUSH1 0x24 DUP3 ADD MSTORE PUSH32 0x4F776E61626C653A2063616C6C6572206973206E6F7420746865206F776E6572 PUSH1 0x44 DUP3 ADD MSTORE REVERT JUMPDEST SWAP2 SWAP1 DUP3 ADD DUP1 SWAP3 GT PUSH2 0x1D30 JUMPI JUMP JUMPDEST PUSH32 0x4E487B7100000000000000000000000000000000000000000000000000000000 PUSH1 0x0 MSTORE PUSH1 0x11 PUSH1 0x4 MSTORE PUSH1 0x24 PUSH1 0x0 REVERT JUMPDEST PUSH1 0x2 PUSH1 0x1 SLOAD EQ PUSH2 0x1D70 JUMPI PUSH1 0x2 PUSH1 0x1 SSTORE JUMP JUMPDEST PUSH1 0x64 PUSH1 0x40 MLOAD PUSH3 0x461BCD PUSH1 0xE5 SHL DUP2 MSTORE PUSH1 0x20 PUSH1 0x4 DUP3 ADD MSTORE PUSH1 0x1F PUSH1 0x24 DUP3 ADD MSTORE PUSH32 0x5265656E7472616E637947756172643A207265656E7472616E742063616C6C00 PUSH1 0x44 DUP3 ADD MSTORE REVERT JUMPDEST ISZERO PUSH2 0x1DBB JUMPI JUMP JUMPDEST PUSH1 0x64 PUSH1 0x40 MLOAD PUSH3 0x461BCD PUSH1 0xE5 SHL DUP2 MSTORE PUSH1 0x20 PUSH1 0x4 DUP3 ADD MSTORE PUSH1 0x19 PUSH1 0x24 DUP3 ADD MSTORE PUSH32 0x546F6B656E20616464726573732063616E6E6F74206265203000000000000000 PUSH1 0x44 DUP3 ADD MSTORE REVERT JUMPDEST ISZERO PUSH2 0x1E06 JUMPI JUMP JUMPDEST PUSH1 0x64 PUSH1 0x40 MLOAD PUSH3 0x461BCD PUSH1 0xE5 SHL DUP2 MSTORE PUSH1 0x20 PUSH1 0x4 DUP3 ADD MSTORE PUSH1 0x20 PUSH1 0x24 DUP3 ADD MSTORE PUSH32 0x416D6F756E74206D7573742062652067726561746572207468616E207A65726F PUSH1 0x44 DUP3 ADD MSTORE REVERT JUMPDEST ISZERO PUSH2 0x1E51 JUMPI JUMP JUMPDEST PUSH1 0x64 PUSH1 0x40 MLOAD PUSH3 0x461BCD PUSH1 0xE5 SHL DUP2 MSTORE PUSH1 0x20 PUSH1 0x4 DUP3 ADD MSTORE PUSH1 0x13 PUSH1 0x24 DUP3 ADD MSTORE PUSH32 0x546F6B656E206E6F7420737570706F7274656400000000000000000000000000 PUSH1 0x44 DUP3 ADD MSTORE REVERT JUMPDEST ISZERO PUSH2 0x1E9C JUMPI JUMP JUMPDEST PUSH1 0x64 PUSH1 0x40 MLOAD PUSH3 0x461BCD PUSH1 0xE5 SHL DUP2 MSTORE PUSH1 0x20 PUSH1 0x4 DUP3 ADD MSTORE PUSH1 0x12 PUSH1 0x24 DUP3 ADD MSTORE PUSH32 0x4E6F7420656E6F7567682062616C616E63650000000000000000000000000000 PUSH1 0x44 DUP3 ADD MSTORE REVERT JUMPDEST SWAP1 DUP2 PUSH1 0x20 SWAP2 SUB SLT PUSH2 0x3C JUMPI MLOAD DUP1 ISZERO ISZERO DUP2 SUB PUSH2 0x3C JUMPI SWAP1 JUMP JUMPDEST ISZERO PUSH2 0x1EFF JUMPI JUMP JUMPDEST PUSH1 0x64 PUSH1 0x40 MLOAD PUSH3 0x461BCD PUSH1 0xE5 SHL DUP2 MSTORE PUSH1 0x20 PUSH1 0x4 DUP3 ADD MSTORE PUSH1 0xB PUSH1 0x24 DUP3 ADD MSTORE PUSH32 0x4E6F742072656C61796572000000000000000000000000000000000000000000 PUSH1 0x44 DUP3 ADD MSTORE REVERT JUMPDEST PUSH1 0x0 JUMPDEST DUP4 DUP2 LT PUSH2 0x1F56 JUMPI POP POP PUSH1 0x0 SWAP2 ADD MSTORE JUMP JUMPDEST DUP2 DUP2 ADD MLOAD DUP4 DUP3 ADD MSTORE PUSH1 0x20 ADD PUSH2 0x1F46 JUMP JUMPDEST DUP2 PUSH1 0x1F DUP3 ADD SLT ISZERO PUSH2 0x3C JUMPI DUP1 MLOAD PUSH2 0x1F7C DUP2 PUSH2 0x1BA3 JUMP JUMPDEST SWAP3 PUSH2 0x1F8A PUSH1 0x40 MLOAD SWAP5 DUP6 PUSH2 0x1B33 JUMP JUMPDEST DUP2 DUP5 MSTORE PUSH1 0x20 DUP3 DUP5 ADD ADD GT PUSH2 0x3C JUMPI PUSH2 0x1C2F SWAP2 PUSH1 0x20 DUP1 DUP6 ADD SWAP2 ADD PUSH2 0x1F43 JUMP JUMPDEST SWAP2 PUSH1 0x80 DUP4 DUP4 SUB SLT PUSH2 0x3C JUMPI DUP3 MLOAD SWAP1 PUSH8 0xFFFFFFFFFFFFFFFF SWAP2 DUP3 DUP2 GT PUSH2 0x3C JUMPI DUP4 PUSH2 0x1FD3 SWAP2 DUP7 ADD PUSH2 0x1F66 JUMP JUMPDEST SWAP4 PUSH1 0x20 DUP2 ADD MLOAD SWAP4 PUSH1 0x40 DUP3 ADD MLOAD SWAP4 PUSH1 0x60 DUP4 ADD MLOAD SWAP1 DUP2 GT PUSH2 0x3C JUMPI PUSH2 0x1C2F SWAP3 ADD PUSH2 0x1F66 JUMP JUMPDEST SWAP1 PUSH32 0xFFFFFFFFFFFFFFFFFFFFFFFFFFFFFFFFFFFFFFFFFFFFFFFFFFFFFFFFFFFFFFE0 PUSH1 0x1F PUSH1 0x20 SWAP4 PUSH2 0x2032 DUP2 MLOAD DUP1 SWAP3 DUP2 DUP8 MSTORE DUP8 DUP1 DUP9 ADD SWAP2 ADD PUSH2 0x1F43 JUMP JUMPDEST ADD AND ADD ADD SWAP1 JUMP JUMPDEST PUSH20 0xFFFFFFFFFFFFFFFFFFFFFFFFFFFFFFFFFFFFFFFF PUSH2 0x2066 PUSH1 0x40 SWAP4 SWAP7 SWAP6 SWAP5 SWAP7 PUSH1 0x60 DUP5 MSTORE PUSH1 0x60 DUP5 ADD SWAP1 PUSH2 0x1FF6 JUMP JUMPDEST SWAP6 AND PUSH1 0x20 DUP3 ADD MSTORE ADD MSTORE JUMP JUMPDEST SWAP2 SWAP1 DUP3 PUSH1 0x40 SWAP2 SUB SLT PUSH2 0x3C JUMPI DUP2 MLOAD PUSH20 0xFFFFFFFFFFFFFFFFFFFFFFFFFFFFFFFFFFFFFFFF DUP2 AND DUP2 SUB PUSH2 0x3C JUMPI PUSH1 0x20 SWAP1 SWAP3 ADD MLOAD SWAP1 JUMP JUMPDEST ISZERO PUSH2 0x20AC JUMPI JUMP JUMPDEST PUSH1 0x64 PUSH1 0x40 MLOAD PUSH3 0x461BCD PUSH1 0xE5 SHL DUP2 MSTORE PUSH1 0x20 PUSH1 0x4 DUP3 ADD MSTORE PUSH1 0x10 PUSH1 0x24 DUP3 ADD MSTORE PUSH32 0x4E6F742053616D65204164647265737300000000000000000000000000000000 PUSH1 0x44 DUP3 ADD MSTORE REVERT JUMPDEST ISZERO PUSH2 0x20F7 JUMPI JUMP JUMPDEST PUSH1 0x64 PUSH1 0x40 MLOAD PUSH3 0x461BCD PUSH1 0xE5 SHL DUP2 MSTORE PUSH1 0x20 PUSH1 0x4 DUP3 ADD MSTORE PUSH1 0xE PUSH1 0x24 DUP3 ADD MSTORE PUSH32 0x4E6F742053616D65204E6F6E6365000000000000000000000000000000000000 PUSH1 0x44 DUP3 ADD MSTORE REVERT JUMPDEST DUP2 DUP2 MUL SWAP3 SWAP2 DUP2 ISZERO SWAP2 DUP5 DIV EQ OR ISZERO PUSH2 0x1D30 JUMPI JUMP JUMPDEST SWAP2 SWAP1 DUP3 SUB SWAP2 DUP3 GT PUSH2 0x1D30 JUMPI JUMP JUMPDEST RETURNDATASIZE ISZERO PUSH2 0x2186 JUMPI RETURNDATASIZE SWAP1 PUSH2 0x216C DUP3 PUSH2 0x1BA3 JUMP JUMPDEST SWAP2 PUSH2 0x217A PUSH1 0x40 MLOAD SWAP4 DUP5 PUSH2 0x1B33 JUMP JUMPDEST DUP3 MSTORE RETURNDATASIZE PUSH1 0x0 PUSH1 0x20 DUP5 ADD RETURNDATACOPY JUMP JUMPDEST PUSH1 0x60 SWAP1 JUMP JUMPDEST ISZERO PUSH2 0x2192 JUMPI JUMP JUMPDEST PUSH1 0x64 PUSH1 0x40 MLOAD PUSH3 0x461BCD PUSH1 0xE5 SHL DUP2 MSTORE PUSH1 0x20 PUSH1 0x4 DUP3 ADD MSTORE PUSH1 0x13 PUSH1 0x24 DUP3 ADD MSTORE PUSH32 0x455448207472616E73666572206661696C656400000000000000000000000000 PUSH1 0x44 DUP3 ADD MSTORE REVERT JUMPDEST ISZERO PUSH2 0x21DD JUMPI JUMP JUMPDEST PUSH1 0x64 PUSH1 0x40 MLOAD PUSH3 0x461BCD PUSH1 0xE5 SHL DUP2 MSTORE PUSH1 0x20 PUSH1 0x4 DUP3 ADD MSTORE PUSH1 0x1C PUSH1 0x24 DUP3 ADD MSTORE PUSH32 0x455448207472616E73666572206661696C656420776974682067617300000000 PUSH1 0x44 DUP3 ADD MSTORE REVERT INVALID LOG2 PUSH5 0x6970667358 0x22 SLT KECCAK256 PUSH27 0x91EDB712BEA2A11883B2CB63C05348C796222CEDBD9AB2CEAAD43F 0x26 0xB5 MSTORE8 SAR PUSH5 0x736F6C6343 STOP ADDMOD SGT STOP CALLER "},"gasEstimates":{"creation":{"codeDepositCost":"1758200","executionCost":"infinite","totalCost":"infinite"},"external":{"":"25086","DAI()":"2867","MAX_RELAYER_FEE_PERCENTAGE()":"425","MUSE()":"2449","USDC()":"2647","WETH()":"2737","approveTokenToFeed(address,uint256,address,bytes32)":"infinite","changeRelayerFee(uint256)":"24498","depositETH(bytes32)":"71365","depositToken(address,uint256,bytes32)":"infinite","execute(address,bytes,uint256,bytes32)":"infinite","factoryContract()":"2845","getEthDeposit(bytes32)":"2421","getTokenDeposit(address,bytes32)":"2680","mecenateBay()":"2427","mecenateUsers()":"2317","owner()":"2666","relayerFeePercentage()":"2619","renounceOwnership()":"28329","setFactoryContract(address)":"27098","setMecenateBay(address)":"26680","setMecenateUsers(address)":"26702","setRelayer(address)":"26812","setTokens(address,address,address,address)":"99641","setVerifierContract(address)":"27010","transferOwnership(address)":"28740","verifierContract()":"2779","withdrawETH(uint256,bytes,address,bytes32)":"infinite","withdrawToken(address,uint256,bytes,address,bytes32)":"infinite","withdrawWithSecret(string,address,bytes,address,bytes32)":"infinite"}},"methodIdentifiers":{"DAI()":"e0bab4c4","MAX_RELAYER_FEE_PERCENTAGE()":"6961b361","MUSE()":"5262712f","USDC()":"89a30271","WETH()":"ad5c4648","approveTokenToFeed(address,uint256,address,bytes32)":"6ff61585","changeRelayerFee(uint256)":"17d026e6","depositETH(bytes32)":"d68d9d4e","depositToken(address,uint256,bytes32)":"84abac95","execute(address,bytes,uint256,bytes32)":"9926ad87","factoryContract()":"de11c94a","getEthDeposit(bytes32)":"20491915","getTokenDeposit(address,bytes32)":"5e0cd92f","mecenateBay()":"3f16a3bb","mecenateUsers()":"139e3c54","owner()":"8da5cb5b","relayerFeePercentage()":"85e66df4","renounceOwnership()":"715018a6","setFactoryContract(address)":"d4241341","setMecenateBay(address)":"24ebc145","setMecenateUsers(address)":"2fe4f4c1","setRelayer(address)":"6548e9bc","setTokens(address,address,address,address)":"537820bf","setVerifierContract(address)":"a25da83c","transferOwnership(address)":"f2fde38b","verifierContract()":"cf695688","withdrawETH(uint256,bytes,address,bytes32)":"10d5700e","withdrawToken(address,uint256,bytes,address,bytes32)":"1378f5d9","withdrawWithSecret(string,address,bytes,address,bytes32)":"bda7193a"}},"storageLayout":{"storage":[{"astId":7,"contract":"contracts/MecenateVault.sol:MecenateVault","label":"_owner","offset":0,"slot":"0","type":"t_address"},{"astId":123,"contract":"contracts/MecenateVault.sol:MecenateVault","label":"_status","offset":0,"slot":"1","type":"t_uint256"},{"astId":629,"contract":"contracts/MecenateVault.sol:MecenateVault","label":"ethDeposits","offset":0,"slot":"2","type":"t_mapping(t_bytes32,t_uint256)"},{"astId":635,"contract":"contracts/MecenateVault.sol:MecenateVault","label":"tokenDeposits","offset":0,"slot":"3","type":"t_mapping(t_bytes32,t_mapping(t_address,t_uint256))"},{"astId":637,"contract":"contracts/MecenateVault.sol:MecenateVault","label":"WETH","offset":0,"slot":"4","type":"t_address"},{"astId":639,"contract":"contracts/MecenateVault.sol:MecenateVault","label":"DAI","offset":0,"slot":"5","type":"t_address"},{"astId":641,"contract":"contracts/MecenateVault.sol:MecenateVault","label":"USDC","offset":0,"slot":"6","type":"t_address"},{"astId":643,"contract":"contracts/MecenateVault.sol:MecenateVault","label":"MUSE","offset":0,"slot":"7","type":"t_address"},{"astId":645,"contract":"contracts/MecenateVault.sol:MecenateVault","label":"verifierContract","offset":0,"slot":"8","type":"t_address"},{"astId":647,"contract":"contracts/MecenateVault.sol:MecenateVault","label":"factoryContract","offset":0,"slot":"9","type":"t_address"},{"astId":649,"contract":"contracts/MecenateVault.sol:MecenateVault","label":"mecenateBay","offset":0,"slot":"10","type":"t_address"},{"astId":651,"contract":"contracts/MecenateVault.sol:MecenateVault","label":"mecenateUsers","offset":0,"slot":"11","type":"t_address"},{"astId":653,"contract":"contracts/MecenateVault.sol:MecenateVault","label":"relayer","offset":0,"slot":"12","type":"t_address"},{"astId":656,"contract":"contracts/MecenateVault.sol:MecenateVault","label":"relayerFeePercentage","offset":0,"slot":"13","type":"t_uint256"}],"types":{"t_address":{"encoding":"inplace","label":"address","numberOfBytes":"20"},"t_bytes32":{"encoding":"inplace","label":"bytes32","numberOfBytes":"32"},"t_mapping(t_address,t_uint256)":{"encoding":"mapping","key":"t_address","label":"mapping(address => uint256)","numberOfBytes":"32","value":"t_uint256"},"t_mapping(t_bytes32,t_mapping(t_address,t_uint256))":{"encoding":"mapping","key":"t_bytes32","label":"mapping(bytes32 => mapping(address => uint256))","numberOfBytes":"32","value":"t_mapping(t_address,t_uint256)"},"t_mapping(t_bytes32,t_uint256)":{"encoding":"mapping","key":"t_bytes32","label":"mapping(bytes32 => uint256)","numberOfBytes":"32","value":"t_uint256"},"t_uint256":{"encoding":"inplace","label":"uint256","numberOfBytes":"32"}}},"userdoc":{"kind":"user","methods":{},"version":1}}}}