{"contracts/factories/MecenateForwarderFactory.sol":{"MecenateForwarderFactory":{"abi":[{"inputs":[{"internalType":"address","name":"_mecenateVault","type":"address"}],"stateMutability":"nonpayable","type":"constructor"},{"anonymous":false,"inputs":[{"indexed":true,"internalType":"address","name":"forwarder","type":"address"},{"indexed":false,"internalType":"bytes32","name":"encryptedVaultId","type":"bytes32"},{"indexed":false,"internalType":"address","name":"vaultContract","type":"address"}],"name":"ForwarderCreated","type":"event"},{"anonymous":false,"inputs":[{"indexed":true,"internalType":"address","name":"previousOwner","type":"address"},{"indexed":true,"internalType":"address","name":"newOwner","type":"address"}],"name":"OwnershipTransferred","type":"event"},{"inputs":[{"internalType":"address","name":"_mecenateVault","type":"address"}],"name":"changeVault","outputs":[],"stateMutability":"nonpayable","type":"function"},{"inputs":[{"internalType":"bytes32","name":"_encryptedVaultId","type":"bytes32"},{"internalType":"address","name":"_vaultContract","type":"address"}],"name":"createforwarder","outputs":[{"internalType":"address","name":"","type":"address"}],"stateMutability":"nonpayable","type":"function"},{"inputs":[{"internalType":"bytes32","name":"","type":"bytes32"}],"name":"forwardersMapping","outputs":[{"internalType":"address","name":"","type":"address"}],"stateMutability":"view","type":"function"},{"inputs":[],"name":"getVault","outputs":[{"internalType":"address","name":"","type":"address"}],"stateMutability":"view","type":"function"},{"inputs":[{"internalType":"bytes32","name":"_user","type":"bytes32"}],"name":"getforwarders","outputs":[{"internalType":"address","name":"","type":"address"}],"stateMutability":"view","type":"function"},{"inputs":[],"name":"mecenateVault","outputs":[{"internalType":"address","name":"","type":"address"}],"stateMutability":"view","type":"function"},{"inputs":[],"name":"owner","outputs":[{"internalType":"address","name":"","type":"address"}],"stateMutability":"view","type":"function"},{"inputs":[],"name":"renounceOwnership","outputs":[],"stateMutability":"nonpayable","type":"function"},{"inputs":[{"internalType":"address","name":"newOwner","type":"address"}],"name":"transferOwnership","outputs":[],"stateMutability":"nonpayable","type":"function"}],"devdoc":{"kind":"dev","methods":{"owner()":{"details":"Returns the address of the current owner."},"renounceOwnership()":{"details":"Leaves the contract without owner. It will not be possible to call `onlyOwner` functions. Can only be called by the current owner. NOTE: Renouncing ownership will leave the contract without an owner, thereby disabling any functionality that is only available to the owner."},"transferOwnership(address)":{"details":"Transfers ownership of the contract to a new account (`newOwner`). Can only be called by the current owner."}},"version":1},"evm":{"bytecode":{"linkReferences":{},"object":"6080346100a757601f610d6138819003918201601f19168301916001600160401b038311848410176100ac578084926020946040528339810103126100a757516001600160a01b0390818116908190036100a75760005460018060a01b0319903382821617600055604051933391167f8be0079c531659141344cd1fd0a4f28419497f9722a3daafe3b4186f6b6457e0600080a36002541617600255610c9e90816100c38239f35b600080fd5b634e487b7160e01b600052604160045260246000fdfe6080604081815260048036101561001557600080fd5b600092833560e01c90816305d45fad1461053e5750806307c0e6021461050157806348a7c45b1461037f578063541886b2146101d857806360e232a91461028e578063715018a61461020d5780638d928af8146101d85780638da5cb5b146101a15763f2fde38b1461008657600080fd5b3461019d57602060031936011261019d5761009f61057a565b906100a86105a2565b73ffffffffffffffffffffffffffffffffffffffff80921692831561011a5750508254827fffffffffffffffffffffffff00000000000000000000000000000000000000008216178455167f8be0079c531659141344cd1fd0a4f28419497f9722a3daafe3b4186f6b6457e08380a380f35b90602060849251917f08c379a0000000000000000000000000000000000000000000000000000000008352820152602660248201527f4f776e61626c653a206e6577206f776e657220697320746865207a65726f206160448201527f64647265737300000000000000000000000000000000000000000000000000006064820152fd5b8280fd5b5050346101d457816003193601126101d45773ffffffffffffffffffffffffffffffffffffffff60209254169051908152f35b5080fd5b5050346101d457816003193601126101d45760209073ffffffffffffffffffffffffffffffffffffffff600254169051908152f35b833461028b578060031936011261028b576102266105a2565b8073ffffffffffffffffffffffffffffffffffffffff81547fffffffffffffffffffffffff000000000000000000000000000000000000000081168355167f8be0079c531659141344cd1fd0a4f28419497f9722a3daafe3b4186f6b6457e08280a380f35b80fd5b503461019d57602060031936011261019d5773ffffffffffffffffffffffffffffffffffffffff6102bd61057a565b6102c56105a2565b16918233036102fc5750507fffffffffffffffffffffffff0000000000000000000000000000000000000000600254161760025580f35b90602060849251917f08c379a0000000000000000000000000000000000000000000000000000000008352820152602760248201527f4f6e6c792074686520666163746f72792063616e206368616e6765207468652060448201527f666163746f7279000000000000000000000000000000000000000000000000006064820152fd5b50913461028b578160031936011261028b57823560243573ffffffffffffffffffffffffffffffffffffffff8082168092036104fd57828452602095600187528186862054166104a1578551906106478083019183831067ffffffffffffffff841117610475575088918391610622833986815203019085f0801561046b57927fd20b14a4eb13758b273b5380a229e4cbc58e9ccc277f94fc221c0578e0a7bcb9928695949286931696858389975260018a5220857fffffffffffffffffffffffff0000000000000000000000000000000000000000825416179055825191825287820152a251908152f35b85513d86823e3d90fd5b8760416024927f4e487b7100000000000000000000000000000000000000000000000000000000835252fd5b606490878751917f08c379a0000000000000000000000000000000000000000000000000000000008352820152601960248201527f666f7277617264657220616c72656164792063726561746564000000000000006044820152fd5b8380fd5b503461019d57602060031936011261019d578160209373ffffffffffffffffffffffffffffffffffffffff92358152600185522054169051908152f35b92919050346104fd5760206003193601126104fd573583526001602090815292205473ffffffffffffffffffffffffffffffffffffffff168152f35b6004359073ffffffffffffffffffffffffffffffffffffffff8216820361059d57565b600080fd5b73ffffffffffffffffffffffffffffffffffffffff6000541633036105c357565b60646040517f08c379a000000000000000000000000000000000000000000000000000000000815260206004820152602060248201527f4f776e61626c653a2063616c6c6572206973206e6f7420746865206f776e65726044820152fdfe60803461006357601f61064738819003918201601f19168301916001600160401b03831184841017610068578084926020946040528339810103126100635751600055600180546001600160a01b031916331790556040516105c8908161007f8239f35b600080fd5b634e487b7160e01b600052604160045260246000fdfe608060409080825260049081361015610223575b50361561001f57600080fd5b73ffffffffffffffffffffffffffffffffffffffff806001541683519182917f8d928af8000000000000000000000000000000000000000000000000000000008352828560209586935afa918215610218576000926101e9575b50600054855192848401917fd68d9d4e000000000000000000000000000000000000000000000000000000008352602485015260248452606084019367ffffffffffffffff94818110868211176101bb57885251600093849391923491165af1903d156101b5573d9081116101875784519061011c847fffffffffffffffffffffffffffffffffffffffffffffffffffffffffffffffe0601f84011601836104f1565b81526000833d92013e5b1561012d57005b60649251917f08c379a0000000000000000000000000000000000000000000000000000000008352820152600e60248201527f4465706f736974206661696c65640000000000000000000000000000000000006044820152fd5b6041847f4e487b71000000000000000000000000000000000000000000000000000000006000525260246000fd5b50610126565b6041887f4e487b71000000000000000000000000000000000000000000000000000000006000525260246000fd5b61020a919250833d8511610211575b61020281836104f1565b810190610561565b9038610079565b503d6101f8565b85513d6000823e3d90fd5b600090813560e01c908163338b5dea14610298575063c45a01550361001357823461029457817ffffffffffffffffffffffffffffffffffffffffffffffffffffffffffffffffc3601126102945760209073ffffffffffffffffffffffffffffffffffffffff600154169051908152f35b5080fd5b905083833461042a57817ffffffffffffffffffffffffffffffffffffffffffffffffffffffffffffffffc36011261042a5780359273ffffffffffffffffffffffffffffffffffffffff908185168095036104ed57806024359280600154167f8d928af8000000000000000000000000000000000000000000000000000000008352828660209485935afa9283156104c45788936104ce575b508551927f095ea7b30000000000000000000000000000000000000000000000000000000084521691828582015283602482015281816044818b8b5af19081156104c457889161048a575b501561042e5750908591825495813b1561042a5783606492875198899586947f84abac9500000000000000000000000000000000000000000000000000000000865289860152602485015260448401525af18015610420576103dc578380f35b67ffffffffffffffff83116103f45750528180808380f35b8360416024927f4e487b7100000000000000000000000000000000000000000000000000000000835252fd5b82513d86823e3d90fd5b8380fd5b836064918651917f08c379a0000000000000000000000000000000000000000000000000000000008352820152600e60248201527f417070726f7665206661696c65640000000000000000000000000000000000006044820152fd5b90508181813d83116104bd575b6104a181836104f1565b810103126104b9575180151581036104b9578861037c565b8780fd5b503d610497565b86513d8a823e3d90fd5b6104e6919350823d84116102115761020281836104f1565b9188610331565b8580fd5b90601f7fffffffffffffffffffffffffffffffffffffffffffffffffffffffffffffffe0910116810190811067ffffffffffffffff82111761053257604052565b7f4e487b7100000000000000000000000000000000000000000000000000000000600052604160045260246000fd5b9081602091031261058d575173ffffffffffffffffffffffffffffffffffffffff8116810361058d5790565b600080fdfea264697066735822122099081a7175736b42cf9cb10cdcdcdbfb16abd6e6fcb1a2e90121b6a5b679039764736f6c63430008130033a2646970667358221220409bc610783af714774d24d56d4056baebe78ee401c0c407deb43332dc62448664736f6c63430008130033","opcodes":"PUSH1 0x80 CALLVALUE PUSH2 0xA7 JUMPI PUSH1 0x1F PUSH2 0xD61 CODESIZE DUP2 SWAP1 SUB SWAP2 DUP3 ADD PUSH1 0x1F NOT AND DUP4 ADD SWAP2 PUSH1 0x1 PUSH1 0x1 PUSH1 0x40 SHL SUB DUP4 GT DUP5 DUP5 LT OR PUSH2 0xAC JUMPI DUP1 DUP5 SWAP3 PUSH1 0x20 SWAP5 PUSH1 0x40 MSTORE DUP4 CODECOPY DUP2 ADD SUB SLT PUSH2 0xA7 JUMPI MLOAD PUSH1 0x1 PUSH1 0x1 PUSH1 0xA0 SHL SUB SWAP1 DUP2 DUP2 AND SWAP1 DUP2 SWAP1 SUB PUSH2 0xA7 JUMPI PUSH1 0x0 SLOAD PUSH1 0x1 DUP1 PUSH1 0xA0 SHL SUB NOT SWAP1 CALLER DUP3 DUP3 AND OR PUSH1 0x0 SSTORE PUSH1 0x40 MLOAD SWAP4 CALLER SWAP2 AND PUSH32 0x8BE0079C531659141344CD1FD0A4F28419497F9722A3DAAFE3B4186F6B6457E0 PUSH1 0x0 DUP1 LOG3 PUSH1 0x2 SLOAD AND OR PUSH1 0x2 SSTORE PUSH2 0xC9E SWAP1 DUP2 PUSH2 0xC3 DUP3 CODECOPY RETURN JUMPDEST PUSH1 0x0 DUP1 REVERT JUMPDEST PUSH4 0x4E487B71 PUSH1 0xE0 SHL PUSH1 0x0 MSTORE PUSH1 0x41 PUSH1 0x4 MSTORE PUSH1 0x24 PUSH1 0x0 REVERT INVALID PUSH1 0x80 PUSH1 0x40 DUP2 DUP2 MSTORE PUSH1 0x4 DUP1 CALLDATASIZE LT ISZERO PUSH2 0x15 JUMPI PUSH1 0x0 DUP1 REVERT JUMPDEST PUSH1 0x0 SWAP3 DUP4 CALLDATALOAD PUSH1 0xE0 SHR SWAP1 DUP2 PUSH4 0x5D45FAD EQ PUSH2 0x53E JUMPI POP DUP1 PUSH4 0x7C0E602 EQ PUSH2 0x501 JUMPI DUP1 PUSH4 0x48A7C45B EQ PUSH2 0x37F JUMPI DUP1 PUSH4 0x541886B2 EQ PUSH2 0x1D8 JUMPI DUP1 PUSH4 0x60E232A9 EQ PUSH2 0x28E JUMPI DUP1 PUSH4 0x715018A6 EQ PUSH2 0x20D JUMPI DUP1 PUSH4 0x8D928AF8 EQ PUSH2 0x1D8 JUMPI DUP1 PUSH4 0x8DA5CB5B EQ PUSH2 0x1A1 JUMPI PUSH4 0xF2FDE38B EQ PUSH2 0x86 JUMPI PUSH1 0x0 DUP1 REVERT JUMPDEST CALLVALUE PUSH2 0x19D JUMPI PUSH1 0x20 PUSH1 0x3 NOT CALLDATASIZE ADD SLT PUSH2 0x19D JUMPI PUSH2 0x9F PUSH2 0x57A JUMP JUMPDEST SWAP1 PUSH2 0xA8 PUSH2 0x5A2 JUMP JUMPDEST PUSH20 0xFFFFFFFFFFFFFFFFFFFFFFFFFFFFFFFFFFFFFFFF DUP1 SWAP3 AND SWAP3 DUP4 ISZERO PUSH2 0x11A JUMPI POP POP DUP3 SLOAD DUP3 PUSH32 0xFFFFFFFFFFFFFFFFFFFFFFFF0000000000000000000000000000000000000000 DUP3 AND OR DUP5 SSTORE AND PUSH32 0x8BE0079C531659141344CD1FD0A4F28419497F9722A3DAAFE3B4186F6B6457E0 DUP4 DUP1 LOG3 DUP1 RETURN JUMPDEST SWAP1 PUSH1 0x20 PUSH1 0x84 SWAP3 MLOAD SWAP2 PUSH32 0x8C379A000000000000000000000000000000000000000000000000000000000 DUP4 MSTORE DUP3 ADD MSTORE PUSH1 0x26 PUSH1 0x24 DUP3 ADD MSTORE PUSH32 0x4F776E61626C653A206E6577206F776E657220697320746865207A65726F2061 PUSH1 0x44 DUP3 ADD MSTORE PUSH32 0x6464726573730000000000000000000000000000000000000000000000000000 PUSH1 0x64 DUP3 ADD MSTORE REVERT JUMPDEST DUP3 DUP1 REVERT JUMPDEST POP POP CALLVALUE PUSH2 0x1D4 JUMPI DUP2 PUSH1 0x3 NOT CALLDATASIZE ADD SLT PUSH2 0x1D4 JUMPI PUSH20 0xFFFFFFFFFFFFFFFFFFFFFFFFFFFFFFFFFFFFFFFF PUSH1 0x20 SWAP3 SLOAD AND SWAP1 MLOAD SWAP1 DUP2 MSTORE RETURN JUMPDEST POP DUP1 REVERT JUMPDEST POP POP CALLVALUE PUSH2 0x1D4 JUMPI DUP2 PUSH1 0x3 NOT CALLDATASIZE ADD SLT PUSH2 0x1D4 JUMPI PUSH1 0x20 SWAP1 PUSH20 0xFFFFFFFFFFFFFFFFFFFFFFFFFFFFFFFFFFFFFFFF PUSH1 0x2 SLOAD AND SWAP1 MLOAD SWAP1 DUP2 MSTORE RETURN JUMPDEST DUP4 CALLVALUE PUSH2 0x28B JUMPI DUP1 PUSH1 0x3 NOT CALLDATASIZE ADD SLT PUSH2 0x28B JUMPI PUSH2 0x226 PUSH2 0x5A2 JUMP JUMPDEST DUP1 PUSH20 0xFFFFFFFFFFFFFFFFFFFFFFFFFFFFFFFFFFFFFFFF DUP2 SLOAD PUSH32 0xFFFFFFFFFFFFFFFFFFFFFFFF0000000000000000000000000000000000000000 DUP2 AND DUP4 SSTORE AND PUSH32 0x8BE0079C531659141344CD1FD0A4F28419497F9722A3DAAFE3B4186F6B6457E0 DUP3 DUP1 LOG3 DUP1 RETURN JUMPDEST DUP1 REVERT JUMPDEST POP CALLVALUE PUSH2 0x19D JUMPI PUSH1 0x20 PUSH1 0x3 NOT CALLDATASIZE ADD SLT PUSH2 0x19D JUMPI PUSH20 0xFFFFFFFFFFFFFFFFFFFFFFFFFFFFFFFFFFFFFFFF PUSH2 0x2BD PUSH2 0x57A JUMP JUMPDEST PUSH2 0x2C5 PUSH2 0x5A2 JUMP JUMPDEST AND SWAP2 DUP3 CALLER SUB PUSH2 0x2FC JUMPI POP POP PUSH32 0xFFFFFFFFFFFFFFFFFFFFFFFF0000000000000000000000000000000000000000 PUSH1 0x2 SLOAD AND OR PUSH1 0x2 SSTORE DUP1 RETURN JUMPDEST SWAP1 PUSH1 0x20 PUSH1 0x84 SWAP3 MLOAD SWAP2 PUSH32 0x8C379A000000000000000000000000000000000000000000000000000000000 DUP4 MSTORE DUP3 ADD MSTORE PUSH1 0x27 PUSH1 0x24 DUP3 ADD MSTORE PUSH32 0x4F6E6C792074686520666163746F72792063616E206368616E67652074686520 PUSH1 0x44 DUP3 ADD MSTORE PUSH32 0x666163746F727900000000000000000000000000000000000000000000000000 PUSH1 0x64 DUP3 ADD MSTORE REVERT JUMPDEST POP SWAP2 CALLVALUE PUSH2 0x28B JUMPI DUP2 PUSH1 0x3 NOT CALLDATASIZE ADD SLT PUSH2 0x28B JUMPI DUP3 CALLDATALOAD PUSH1 0x24 CALLDATALOAD PUSH20 0xFFFFFFFFFFFFFFFFFFFFFFFFFFFFFFFFFFFFFFFF DUP1 DUP3 AND DUP1 SWAP3 SUB PUSH2 0x4FD JUMPI DUP3 DUP5 MSTORE PUSH1 0x20 SWAP6 PUSH1 0x1 DUP8 MSTORE DUP2 DUP7 DUP7 KECCAK256 SLOAD AND PUSH2 0x4A1 JUMPI DUP6 MLOAD SWAP1 PUSH2 0x647 DUP1 DUP4 ADD SWAP2 DUP4 DUP4 LT PUSH8 0xFFFFFFFFFFFFFFFF DUP5 GT OR PUSH2 0x475 JUMPI POP DUP9 SWAP2 DUP4 SWAP2 PUSH2 0x622 DUP4 CODECOPY DUP7 DUP2 MSTORE SUB ADD SWAP1 DUP6 CREATE DUP1 ISZERO PUSH2 0x46B JUMPI SWAP3 PUSH32 0xD20B14A4EB13758B273B5380A229E4CBC58E9CCC277F94FC221C0578E0A7BCB9 SWAP3 DUP7 SWAP6 SWAP5 SWAP3 DUP7 SWAP4 AND SWAP7 DUP6 DUP4 DUP10 SWAP8 MSTORE PUSH1 0x1 DUP11 MSTORE KECCAK256 DUP6 PUSH32 0xFFFFFFFFFFFFFFFFFFFFFFFF0000000000000000000000000000000000000000 DUP3 SLOAD AND OR SWAP1 SSTORE DUP3 MLOAD SWAP2 DUP3 MSTORE DUP8 DUP3 ADD MSTORE LOG2 MLOAD SWAP1 DUP2 MSTORE RETURN JUMPDEST DUP6 MLOAD RETURNDATASIZE DUP7 DUP3 RETURNDATACOPY RETURNDATASIZE SWAP1 REVERT JUMPDEST DUP8 PUSH1 0x41 PUSH1 0x24 SWAP3 PUSH32 0x4E487B7100000000000000000000000000000000000000000000000000000000 DUP4 MSTORE MSTORE REVERT JUMPDEST PUSH1 0x64 SWAP1 DUP8 DUP8 MLOAD SWAP2 PUSH32 0x8C379A000000000000000000000000000000000000000000000000000000000 DUP4 MSTORE DUP3 ADD MSTORE PUSH1 0x19 PUSH1 0x24 DUP3 ADD MSTORE PUSH32 0x666F7277617264657220616C7265616479206372656174656400000000000000 PUSH1 0x44 DUP3 ADD MSTORE REVERT JUMPDEST DUP4 DUP1 REVERT JUMPDEST POP CALLVALUE PUSH2 0x19D JUMPI PUSH1 0x20 PUSH1 0x3 NOT CALLDATASIZE ADD SLT PUSH2 0x19D JUMPI DUP2 PUSH1 0x20 SWAP4 PUSH20 0xFFFFFFFFFFFFFFFFFFFFFFFFFFFFFFFFFFFFFFFF SWAP3 CALLDATALOAD DUP2 MSTORE PUSH1 0x1 DUP6 MSTORE KECCAK256 SLOAD AND SWAP1 MLOAD SWAP1 DUP2 MSTORE RETURN JUMPDEST SWAP3 SWAP2 SWAP1 POP CALLVALUE PUSH2 0x4FD JUMPI PUSH1 0x20 PUSH1 0x3 NOT CALLDATASIZE ADD SLT PUSH2 0x4FD JUMPI CALLDATALOAD DUP4 MSTORE PUSH1 0x1 PUSH1 0x20 SWAP1 DUP2 MSTORE SWAP3 KECCAK256 SLOAD PUSH20 0xFFFFFFFFFFFFFFFFFFFFFFFFFFFFFFFFFFFFFFFF AND DUP2 MSTORE RETURN JUMPDEST PUSH1 0x4 CALLDATALOAD SWAP1 PUSH20 0xFFFFFFFFFFFFFFFFFFFFFFFFFFFFFFFFFFFFFFFF DUP3 AND DUP3 SUB PUSH2 0x59D JUMPI JUMP JUMPDEST PUSH1 0x0 DUP1 REVERT JUMPDEST PUSH20 0xFFFFFFFFFFFFFFFFFFFFFFFFFFFFFFFFFFFFFFFF PUSH1 0x0 SLOAD AND CALLER SUB PUSH2 0x5C3 JUMPI JUMP JUMPDEST PUSH1 0x64 PUSH1 0x40 MLOAD PUSH32 0x8C379A000000000000000000000000000000000000000000000000000000000 DUP2 MSTORE PUSH1 0x20 PUSH1 0x4 DUP3 ADD MSTORE PUSH1 0x20 PUSH1 0x24 DUP3 ADD MSTORE PUSH32 0x4F776E61626C653A2063616C6C6572206973206E6F7420746865206F776E6572 PUSH1 0x44 DUP3 ADD MSTORE REVERT INVALID PUSH1 0x80 CALLVALUE PUSH2 0x63 JUMPI PUSH1 0x1F PUSH2 0x647 CODESIZE DUP2 SWAP1 SUB SWAP2 DUP3 ADD PUSH1 0x1F NOT AND DUP4 ADD SWAP2 PUSH1 0x1 PUSH1 0x1 PUSH1 0x40 SHL SUB DUP4 GT DUP5 DUP5 LT OR PUSH2 0x68 JUMPI DUP1 DUP5 SWAP3 PUSH1 0x20 SWAP5 PUSH1 0x40 MSTORE DUP4 CODECOPY DUP2 ADD SUB SLT PUSH2 0x63 JUMPI MLOAD PUSH1 0x0 SSTORE PUSH1 0x1 DUP1 SLOAD PUSH1 0x1 PUSH1 0x1 PUSH1 0xA0 SHL SUB NOT AND CALLER OR SWAP1 SSTORE PUSH1 0x40 MLOAD PUSH2 0x5C8 SWAP1 DUP2 PUSH2 0x7F DUP3 CODECOPY RETURN JUMPDEST PUSH1 0x0 DUP1 REVERT JUMPDEST PUSH4 0x4E487B71 PUSH1 0xE0 SHL PUSH1 0x0 MSTORE PUSH1 0x41 PUSH1 0x4 MSTORE PUSH1 0x24 PUSH1 0x0 REVERT INVALID PUSH1 0x80 PUSH1 0x40 SWAP1 DUP1 DUP3 MSTORE PUSH1 0x4 SWAP1 DUP2 CALLDATASIZE LT ISZERO PUSH2 0x223 JUMPI JUMPDEST POP CALLDATASIZE ISZERO PUSH2 0x1F JUMPI PUSH1 0x0 DUP1 REVERT JUMPDEST PUSH20 0xFFFFFFFFFFFFFFFFFFFFFFFFFFFFFFFFFFFFFFFF DUP1 PUSH1 0x1 SLOAD AND DUP4 MLOAD SWAP2 DUP3 SWAP2 PUSH32 0x8D928AF800000000000000000000000000000000000000000000000000000000 DUP4 MSTORE DUP3 DUP6 PUSH1 0x20 SWAP6 DUP7 SWAP4 GAS STATICCALL SWAP2 DUP3 ISZERO PUSH2 0x218 JUMPI PUSH1 0x0 SWAP3 PUSH2 0x1E9 JUMPI JUMPDEST POP PUSH1 0x0 SLOAD DUP6 MLOAD SWAP3 DUP5 DUP5 ADD SWAP2 PUSH32 0xD68D9D4E00000000000000000000000000000000000000000000000000000000 DUP4 MSTORE PUSH1 0x24 DUP6 ADD MSTORE PUSH1 0x24 DUP5 MSTORE PUSH1 0x60 DUP5 ADD SWAP4 PUSH8 0xFFFFFFFFFFFFFFFF SWAP5 DUP2 DUP2 LT DUP7 DUP3 GT OR PUSH2 0x1BB JUMPI DUP9 MSTORE MLOAD PUSH1 0x0 SWAP4 DUP5 SWAP4 SWAP2 SWAP3 CALLVALUE SWAP2 AND GAS CALL SWAP1 RETURNDATASIZE ISZERO PUSH2 0x1B5 JUMPI RETURNDATASIZE SWAP1 DUP2 GT PUSH2 0x187 JUMPI DUP5 MLOAD SWAP1 PUSH2 0x11C DUP5 PUSH32 0xFFFFFFFFFFFFFFFFFFFFFFFFFFFFFFFFFFFFFFFFFFFFFFFFFFFFFFFFFFFFFFE0 PUSH1 0x1F DUP5 ADD AND ADD DUP4 PUSH2 0x4F1 JUMP JUMPDEST DUP2 MSTORE PUSH1 0x0 DUP4 RETURNDATASIZE SWAP3 ADD RETURNDATACOPY JUMPDEST ISZERO PUSH2 0x12D JUMPI STOP JUMPDEST PUSH1 0x64 SWAP3 MLOAD SWAP2 PUSH32 0x8C379A000000000000000000000000000000000000000000000000000000000 DUP4 MSTORE DUP3 ADD MSTORE PUSH1 0xE PUSH1 0x24 DUP3 ADD MSTORE PUSH32 0x4465706F736974206661696C6564000000000000000000000000000000000000 PUSH1 0x44 DUP3 ADD MSTORE REVERT JUMPDEST PUSH1 0x41 DUP5 PUSH32 0x4E487B7100000000000000000000000000000000000000000000000000000000 PUSH1 0x0 MSTORE MSTORE PUSH1 0x24 PUSH1 0x0 REVERT JUMPDEST POP PUSH2 0x126 JUMP JUMPDEST PUSH1 0x41 DUP9 PUSH32 0x4E487B7100000000000000000000000000000000000000000000000000000000 PUSH1 0x0 MSTORE MSTORE PUSH1 0x24 PUSH1 0x0 REVERT JUMPDEST PUSH2 0x20A SWAP2 SWAP3 POP DUP4 RETURNDATASIZE DUP6 GT PUSH2 0x211 JUMPI JUMPDEST PUSH2 0x202 DUP2 DUP4 PUSH2 0x4F1 JUMP JUMPDEST DUP2 ADD SWAP1 PUSH2 0x561 JUMP JUMPDEST SWAP1 CODESIZE PUSH2 0x79 JUMP JUMPDEST POP RETURNDATASIZE PUSH2 0x1F8 JUMP JUMPDEST DUP6 MLOAD RETURNDATASIZE PUSH1 0x0 DUP3 RETURNDATACOPY RETURNDATASIZE SWAP1 REVERT JUMPDEST PUSH1 0x0 SWAP1 DUP2 CALLDATALOAD PUSH1 0xE0 SHR SWAP1 DUP2 PUSH4 0x338B5DEA EQ PUSH2 0x298 JUMPI POP PUSH4 0xC45A0155 SUB PUSH2 0x13 JUMPI DUP3 CALLVALUE PUSH2 0x294 JUMPI DUP2 PUSH32 0xFFFFFFFFFFFFFFFFFFFFFFFFFFFFFFFFFFFFFFFFFFFFFFFFFFFFFFFFFFFFFFFC CALLDATASIZE ADD SLT PUSH2 0x294 JUMPI PUSH1 0x20 SWAP1 PUSH20 0xFFFFFFFFFFFFFFFFFFFFFFFFFFFFFFFFFFFFFFFF PUSH1 0x1 SLOAD AND SWAP1 MLOAD SWAP1 DUP2 MSTORE RETURN JUMPDEST POP DUP1 REVERT JUMPDEST SWAP1 POP DUP4 DUP4 CALLVALUE PUSH2 0x42A JUMPI DUP2 PUSH32 0xFFFFFFFFFFFFFFFFFFFFFFFFFFFFFFFFFFFFFFFFFFFFFFFFFFFFFFFFFFFFFFFC CALLDATASIZE ADD SLT PUSH2 0x42A JUMPI DUP1 CALLDATALOAD SWAP3 PUSH20 0xFFFFFFFFFFFFFFFFFFFFFFFFFFFFFFFFFFFFFFFF SWAP1 DUP2 DUP6 AND DUP1 SWAP6 SUB PUSH2 0x4ED JUMPI DUP1 PUSH1 0x24 CALLDATALOAD SWAP3 DUP1 PUSH1 0x1 SLOAD AND PUSH32 0x8D928AF800000000000000000000000000000000000000000000000000000000 DUP4 MSTORE DUP3 DUP7 PUSH1 0x20 SWAP5 DUP6 SWAP4 GAS STATICCALL SWAP3 DUP4 ISZERO PUSH2 0x4C4 JUMPI DUP9 SWAP4 PUSH2 0x4CE JUMPI JUMPDEST POP DUP6 MLOAD SWAP3 PUSH32 0x95EA7B300000000000000000000000000000000000000000000000000000000 DUP5 MSTORE AND SWAP2 DUP3 DUP6 DUP3 ADD MSTORE DUP4 PUSH1 0x24 DUP3 ADD MSTORE DUP2 DUP2 PUSH1 0x44 DUP2 DUP12 DUP12 GAS CALL SWAP1 DUP2 ISZERO PUSH2 0x4C4 JUMPI DUP9 SWAP2 PUSH2 0x48A JUMPI JUMPDEST POP ISZERO PUSH2 0x42E JUMPI POP SWAP1 DUP6 SWAP2 DUP3 SLOAD SWAP6 DUP2 EXTCODESIZE ISZERO PUSH2 0x42A JUMPI DUP4 PUSH1 0x64 SWAP3 DUP8 MLOAD SWAP9 DUP10 SWAP6 DUP7 SWAP5 PUSH32 0x84ABAC9500000000000000000000000000000000000000000000000000000000 DUP7 MSTORE DUP10 DUP7 ADD MSTORE PUSH1 0x24 DUP6 ADD MSTORE PUSH1 0x44 DUP5 ADD MSTORE GAS CALL DUP1 ISZERO PUSH2 0x420 JUMPI PUSH2 0x3DC JUMPI DUP4 DUP1 RETURN JUMPDEST PUSH8 0xFFFFFFFFFFFFFFFF DUP4 GT PUSH2 0x3F4 JUMPI POP MSTORE DUP2 DUP1 DUP1 DUP4 DUP1 RETURN JUMPDEST DUP4 PUSH1 0x41 PUSH1 0x24 SWAP3 PUSH32 0x4E487B7100000000000000000000000000000000000000000000000000000000 DUP4 MSTORE MSTORE REVERT JUMPDEST DUP3 MLOAD RETURNDATASIZE DUP7 DUP3 RETURNDATACOPY RETURNDATASIZE SWAP1 REVERT JUMPDEST DUP4 DUP1 REVERT JUMPDEST DUP4 PUSH1 0x64 SWAP2 DUP7 MLOAD SWAP2 PUSH32 0x8C379A000000000000000000000000000000000000000000000000000000000 DUP4 MSTORE DUP3 ADD MSTORE PUSH1 0xE PUSH1 0x24 DUP3 ADD MSTORE PUSH32 0x417070726F7665206661696C6564000000000000000000000000000000000000 PUSH1 0x44 DUP3 ADD MSTORE REVERT JUMPDEST SWAP1 POP DUP2 DUP2 DUP2 RETURNDATASIZE DUP4 GT PUSH2 0x4BD JUMPI JUMPDEST PUSH2 0x4A1 DUP2 DUP4 PUSH2 0x4F1 JUMP JUMPDEST DUP2 ADD SUB SLT PUSH2 0x4B9 JUMPI MLOAD DUP1 ISZERO ISZERO DUP2 SUB PUSH2 0x4B9 JUMPI DUP9 PUSH2 0x37C JUMP JUMPDEST DUP8 DUP1 REVERT JUMPDEST POP RETURNDATASIZE PUSH2 0x497 JUMP JUMPDEST DUP7 MLOAD RETURNDATASIZE DUP11 DUP3 RETURNDATACOPY RETURNDATASIZE SWAP1 REVERT JUMPDEST PUSH2 0x4E6 SWAP2 SWAP4 POP DUP3 RETURNDATASIZE DUP5 GT PUSH2 0x211 JUMPI PUSH2 0x202 DUP2 DUP4 PUSH2 0x4F1 JUMP JUMPDEST SWAP2 DUP9 PUSH2 0x331 JUMP JUMPDEST DUP6 DUP1 REVERT JUMPDEST SWAP1 PUSH1 0x1F PUSH32 0xFFFFFFFFFFFFFFFFFFFFFFFFFFFFFFFFFFFFFFFFFFFFFFFFFFFFFFFFFFFFFFE0 SWAP2 ADD AND DUP2 ADD SWAP1 DUP2 LT PUSH8 0xFFFFFFFFFFFFFFFF DUP3 GT OR PUSH2 0x532 JUMPI PUSH1 0x40 MSTORE JUMP JUMPDEST PUSH32 0x4E487B7100000000000000000000000000000000000000000000000000000000 PUSH1 0x0 MSTORE PUSH1 0x41 PUSH1 0x4 MSTORE PUSH1 0x24 PUSH1 0x0 REVERT JUMPDEST SWAP1 DUP2 PUSH1 0x20 SWAP2 SUB SLT PUSH2 0x58D JUMPI MLOAD PUSH20 0xFFFFFFFFFFFFFFFFFFFFFFFFFFFFFFFFFFFFFFFF DUP2 AND DUP2 SUB PUSH2 0x58D JUMPI SWAP1 JUMP JUMPDEST PUSH1 0x0 DUP1 REVERT INVALID LOG2 PUSH5 0x6970667358 0x22 SLT KECCAK256 SWAP10 ADDMOD BYTE PUSH18 0x75736B42CF9CB10CDCDCDBFB16ABD6E6FCB1 LOG2 0xE9 ADD 0x21 0xB6 0xA5 0xB6 PUSH26 0x39764736F6C63430008130033A2646970667358221220409BC6 LT PUSH25 0x3AF714774D24D56D4056BAEBE78EE401C0C407DEB43332DC62 PREVRANDAO DUP7 PUSH5 0x736F6C6343 STOP ADDMOD SGT STOP CALLER "},"gasEstimates":{"creation":{"codeDepositCost":"646000","executionCost":"infinite","totalCost":"infinite"},"external":{"changeVault(address)":"26697","createforwarder(bytes32,address)":"infinite","forwardersMapping(bytes32)":"2339","getVault()":"2415","getforwarders(bytes32)":"2366","mecenateVault()":"2349","owner()":"2434","renounceOwnership()":"28143","transferOwnership(address)":"28305"}},"methodIdentifiers":{"changeVault(address)":"60e232a9","createforwarder(bytes32,address)":"48a7c45b","forwardersMapping(bytes32)":"05d45fad","getVault()":"8d928af8","getforwarders(bytes32)":"07c0e602","mecenateVault()":"541886b2","owner()":"8da5cb5b","renounceOwnership()":"715018a6","transferOwnership(address)":"f2fde38b"}},"storageLayout":{"storage":[{"astId":7,"contract":"contracts/factories/MecenateForwarderFactory.sol:MecenateForwarderFactory","label":"_owner","offset":0,"slot":"0","type":"t_address"},{"astId":335,"contract":"contracts/factories/MecenateForwarderFactory.sol:MecenateForwarderFactory","label":"forwardersMapping","offset":0,"slot":"1","type":"t_mapping(t_bytes32,t_address)"},{"astId":337,"contract":"contracts/factories/MecenateForwarderFactory.sol:MecenateForwarderFactory","label":"mecenateVault","offset":0,"slot":"2","type":"t_address"}],"types":{"t_address":{"encoding":"inplace","label":"address","numberOfBytes":"20"},"t_bytes32":{"encoding":"inplace","label":"bytes32","numberOfBytes":"32"},"t_mapping(t_bytes32,t_address)":{"encoding":"mapping","key":"t_bytes32","label":"mapping(bytes32 => address)","numberOfBytes":"32","value":"t_address"}}},"userdoc":{"kind":"user","methods":{},"version":1}}}}