{"contracts/MecenateForwarder.sol":{"MecenateForwarder":{"abi":[{"inputs":[{"internalType":"bytes32","name":"_encryptedVaultId","type":"bytes32"}],"stateMutability":"nonpayable","type":"constructor"},{"inputs":[{"internalType":"address","name":"token","type":"address"},{"internalType":"uint256","name":"amount","type":"uint256"}],"name":"depositToken","outputs":[],"stateMutability":"nonpayable","type":"function"},{"inputs":[],"name":"factory","outputs":[{"internalType":"address","name":"","type":"address"}],"stateMutability":"view","type":"function"},{"stateMutability":"payable","type":"receive"}],"devdoc":{"kind":"dev","methods":{},"version":1},"evm":{"bytecode":{"linkReferences":{},"object":"60803461006357601f61064738819003918201601f19168301916001600160401b03831184841017610068578084926020946040528339810103126100635751600055600180546001600160a01b031916331790556040516105c8908161007f8239f35b600080fd5b634e487b7160e01b600052604160045260246000fdfe608060409080825260049081361015610223575b50361561001f57600080fd5b73ffffffffffffffffffffffffffffffffffffffff806001541683519182917f8d928af8000000000000000000000000000000000000000000000000000000008352828560209586935afa918215610218576000926101e9575b50600054855192848401917fd68d9d4e000000000000000000000000000000000000000000000000000000008352602485015260248452606084019367ffffffffffffffff94818110868211176101bb57885251600093849391923491165af1903d156101b5573d9081116101875784519061011c847fffffffffffffffffffffffffffffffffffffffffffffffffffffffffffffffe0601f84011601836104f1565b81526000833d92013e5b1561012d57005b60649251917f08c379a0000000000000000000000000000000000000000000000000000000008352820152600e60248201527f4465706f736974206661696c65640000000000000000000000000000000000006044820152fd5b6041847f4e487b71000000000000000000000000000000000000000000000000000000006000525260246000fd5b50610126565b6041887f4e487b71000000000000000000000000000000000000000000000000000000006000525260246000fd5b61020a919250833d8511610211575b61020281836104f1565b810190610561565b9038610079565b503d6101f8565b85513d6000823e3d90fd5b600090813560e01c908163338b5dea14610298575063c45a01550361001357823461029457817ffffffffffffffffffffffffffffffffffffffffffffffffffffffffffffffffc3601126102945760209073ffffffffffffffffffffffffffffffffffffffff600154169051908152f35b5080fd5b905083833461042a57817ffffffffffffffffffffffffffffffffffffffffffffffffffffffffffffffffc36011261042a5780359273ffffffffffffffffffffffffffffffffffffffff908185168095036104ed57806024359280600154167f8d928af8000000000000000000000000000000000000000000000000000000008352828660209485935afa9283156104c45788936104ce575b508551927f095ea7b30000000000000000000000000000000000000000000000000000000084521691828582015283602482015281816044818b8b5af19081156104c457889161048a575b501561042e5750908591825495813b1561042a5783606492875198899586947f84abac9500000000000000000000000000000000000000000000000000000000865289860152602485015260448401525af18015610420576103dc578380f35b67ffffffffffffffff83116103f45750528180808380f35b8360416024927f4e487b7100000000000000000000000000000000000000000000000000000000835252fd5b82513d86823e3d90fd5b8380fd5b836064918651917f08c379a0000000000000000000000000000000000000000000000000000000008352820152600e60248201527f417070726f7665206661696c65640000000000000000000000000000000000006044820152fd5b90508181813d83116104bd575b6104a181836104f1565b810103126104b9575180151581036104b9578861037c565b8780fd5b503d610497565b86513d8a823e3d90fd5b6104e6919350823d84116102115761020281836104f1565b9188610331565b8580fd5b90601f7fffffffffffffffffffffffffffffffffffffffffffffffffffffffffffffffe0910116810190811067ffffffffffffffff82111761053257604052565b7f4e487b7100000000000000000000000000000000000000000000000000000000600052604160045260246000fd5b9081602091031261058d575173ffffffffffffffffffffffffffffffffffffffff8116810361058d5790565b600080fdfea264697066735822122099081a7175736b42cf9cb10cdcdcdbfb16abd6e6fcb1a2e90121b6a5b679039764736f6c63430008130033","opcodes":"PUSH1 0x80 CALLVALUE PUSH2 0x63 JUMPI PUSH1 0x1F PUSH2 0x647 CODESIZE DUP2 SWAP1 SUB SWAP2 DUP3 ADD PUSH1 0x1F NOT AND DUP4 ADD SWAP2 PUSH1 0x1 PUSH1 0x1 PUSH1 0x40 SHL SUB DUP4 GT DUP5 DUP5 LT OR PUSH2 0x68 JUMPI DUP1 DUP5 SWAP3 PUSH1 0x20 SWAP5 PUSH1 0x40 MSTORE DUP4 CODECOPY DUP2 ADD SUB SLT PUSH2 0x63 JUMPI MLOAD PUSH1 0x0 SSTORE PUSH1 0x1 DUP1 SLOAD PUSH1 0x1 PUSH1 0x1 PUSH1 0xA0 SHL SUB NOT AND CALLER OR SWAP1 SSTORE PUSH1 0x40 MLOAD PUSH2 0x5C8 SWAP1 DUP2 PUSH2 0x7F DUP3 CODECOPY RETURN JUMPDEST PUSH1 0x0 DUP1 REVERT JUMPDEST PUSH4 0x4E487B71 PUSH1 0xE0 SHL PUSH1 0x0 MSTORE PUSH1 0x41 PUSH1 0x4 MSTORE PUSH1 0x24 PUSH1 0x0 REVERT INVALID PUSH1 0x80 PUSH1 0x40 SWAP1 DUP1 DUP3 MSTORE PUSH1 0x4 SWAP1 DUP2 CALLDATASIZE LT ISZERO PUSH2 0x223 JUMPI JUMPDEST POP CALLDATASIZE ISZERO PUSH2 0x1F JUMPI PUSH1 0x0 DUP1 REVERT JUMPDEST PUSH20 0xFFFFFFFFFFFFFFFFFFFFFFFFFFFFFFFFFFFFFFFF DUP1 PUSH1 0x1 SLOAD AND DUP4 MLOAD SWAP2 DUP3 SWAP2 PUSH32 0x8D928AF800000000000000000000000000000000000000000000000000000000 DUP4 MSTORE DUP3 DUP6 PUSH1 0x20 SWAP6 DUP7 SWAP4 GAS STATICCALL SWAP2 DUP3 ISZERO PUSH2 0x218 JUMPI PUSH1 0x0 SWAP3 PUSH2 0x1E9 JUMPI JUMPDEST POP PUSH1 0x0 SLOAD DUP6 MLOAD SWAP3 DUP5 DUP5 ADD SWAP2 PUSH32 0xD68D9D4E00000000000000000000000000000000000000000000000000000000 DUP4 MSTORE PUSH1 0x24 DUP6 ADD MSTORE PUSH1 0x24 DUP5 MSTORE PUSH1 0x60 DUP5 ADD SWAP4 PUSH8 0xFFFFFFFFFFFFFFFF SWAP5 DUP2 DUP2 LT DUP7 DUP3 GT OR PUSH2 0x1BB JUMPI DUP9 MSTORE MLOAD PUSH1 0x0 SWAP4 DUP5 SWAP4 SWAP2 SWAP3 CALLVALUE SWAP2 AND GAS CALL SWAP1 RETURNDATASIZE ISZERO PUSH2 0x1B5 JUMPI RETURNDATASIZE SWAP1 DUP2 GT PUSH2 0x187 JUMPI DUP5 MLOAD SWAP1 PUSH2 0x11C DUP5 PUSH32 0xFFFFFFFFFFFFFFFFFFFFFFFFFFFFFFFFFFFFFFFFFFFFFFFFFFFFFFFFFFFFFFE0 PUSH1 0x1F DUP5 ADD AND ADD DUP4 PUSH2 0x4F1 JUMP JUMPDEST DUP2 MSTORE PUSH1 0x0 DUP4 RETURNDATASIZE SWAP3 ADD RETURNDATACOPY JUMPDEST ISZERO PUSH2 0x12D JUMPI STOP JUMPDEST PUSH1 0x64 SWAP3 MLOAD SWAP2 PUSH32 0x8C379A000000000000000000000000000000000000000000000000000000000 DUP4 MSTORE DUP3 ADD MSTORE PUSH1 0xE PUSH1 0x24 DUP3 ADD MSTORE PUSH32 0x4465706F736974206661696C6564000000000000000000000000000000000000 PUSH1 0x44 DUP3 ADD MSTORE REVERT JUMPDEST PUSH1 0x41 DUP5 PUSH32 0x4E487B7100000000000000000000000000000000000000000000000000000000 PUSH1 0x0 MSTORE MSTORE PUSH1 0x24 PUSH1 0x0 REVERT JUMPDEST POP PUSH2 0x126 JUMP JUMPDEST PUSH1 0x41 DUP9 PUSH32 0x4E487B7100000000000000000000000000000000000000000000000000000000 PUSH1 0x0 MSTORE MSTORE PUSH1 0x24 PUSH1 0x0 REVERT JUMPDEST PUSH2 0x20A SWAP2 SWAP3 POP DUP4 RETURNDATASIZE DUP6 GT PUSH2 0x211 JUMPI JUMPDEST PUSH2 0x202 DUP2 DUP4 PUSH2 0x4F1 JUMP JUMPDEST DUP2 ADD SWAP1 PUSH2 0x561 JUMP JUMPDEST SWAP1 CODESIZE PUSH2 0x79 JUMP JUMPDEST POP RETURNDATASIZE PUSH2 0x1F8 JUMP JUMPDEST DUP6 MLOAD RETURNDATASIZE PUSH1 0x0 DUP3 RETURNDATACOPY RETURNDATASIZE SWAP1 REVERT JUMPDEST PUSH1 0x0 SWAP1 DUP2 CALLDATALOAD PUSH1 0xE0 SHR SWAP1 DUP2 PUSH4 0x338B5DEA EQ PUSH2 0x298 JUMPI POP PUSH4 0xC45A0155 SUB PUSH2 0x13 JUMPI DUP3 CALLVALUE PUSH2 0x294 JUMPI DUP2 PUSH32 0xFFFFFFFFFFFFFFFFFFFFFFFFFFFFFFFFFFFFFFFFFFFFFFFFFFFFFFFFFFFFFFFC CALLDATASIZE ADD SLT PUSH2 0x294 JUMPI PUSH1 0x20 SWAP1 PUSH20 0xFFFFFFFFFFFFFFFFFFFFFFFFFFFFFFFFFFFFFFFF PUSH1 0x1 SLOAD AND SWAP1 MLOAD SWAP1 DUP2 MSTORE RETURN JUMPDEST POP DUP1 REVERT JUMPDEST SWAP1 POP DUP4 DUP4 CALLVALUE PUSH2 0x42A JUMPI DUP2 PUSH32 0xFFFFFFFFFFFFFFFFFFFFFFFFFFFFFFFFFFFFFFFFFFFFFFFFFFFFFFFFFFFFFFFC CALLDATASIZE ADD SLT PUSH2 0x42A JUMPI DUP1 CALLDATALOAD SWAP3 PUSH20 0xFFFFFFFFFFFFFFFFFFFFFFFFFFFFFFFFFFFFFFFF SWAP1 DUP2 DUP6 AND DUP1 SWAP6 SUB PUSH2 0x4ED JUMPI DUP1 PUSH1 0x24 CALLDATALOAD SWAP3 DUP1 PUSH1 0x1 SLOAD AND PUSH32 0x8D928AF800000000000000000000000000000000000000000000000000000000 DUP4 MSTORE DUP3 DUP7 PUSH1 0x20 SWAP5 DUP6 SWAP4 GAS STATICCALL SWAP3 DUP4 ISZERO PUSH2 0x4C4 JUMPI DUP9 SWAP4 PUSH2 0x4CE JUMPI JUMPDEST POP DUP6 MLOAD SWAP3 PUSH32 0x95EA7B300000000000000000000000000000000000000000000000000000000 DUP5 MSTORE AND SWAP2 DUP3 DUP6 DUP3 ADD MSTORE DUP4 PUSH1 0x24 DUP3 ADD MSTORE DUP2 DUP2 PUSH1 0x44 DUP2 DUP12 DUP12 GAS CALL SWAP1 DUP2 ISZERO PUSH2 0x4C4 JUMPI DUP9 SWAP2 PUSH2 0x48A JUMPI JUMPDEST POP ISZERO PUSH2 0x42E JUMPI POP SWAP1 DUP6 SWAP2 DUP3 SLOAD SWAP6 DUP2 EXTCODESIZE ISZERO PUSH2 0x42A JUMPI DUP4 PUSH1 0x64 SWAP3 DUP8 MLOAD SWAP9 DUP10 SWAP6 DUP7 SWAP5 PUSH32 0x84ABAC9500000000000000000000000000000000000000000000000000000000 DUP7 MSTORE DUP10 DUP7 ADD MSTORE PUSH1 0x24 DUP6 ADD MSTORE PUSH1 0x44 DUP5 ADD MSTORE GAS CALL DUP1 ISZERO PUSH2 0x420 JUMPI PUSH2 0x3DC JUMPI DUP4 DUP1 RETURN JUMPDEST PUSH8 0xFFFFFFFFFFFFFFFF DUP4 GT PUSH2 0x3F4 JUMPI POP MSTORE DUP2 DUP1 DUP1 DUP4 DUP1 RETURN JUMPDEST DUP4 PUSH1 0x41 PUSH1 0x24 SWAP3 PUSH32 0x4E487B7100000000000000000000000000000000000000000000000000000000 DUP4 MSTORE MSTORE REVERT JUMPDEST DUP3 MLOAD RETURNDATASIZE DUP7 DUP3 RETURNDATACOPY RETURNDATASIZE SWAP1 REVERT JUMPDEST DUP4 DUP1 REVERT JUMPDEST DUP4 PUSH1 0x64 SWAP2 DUP7 MLOAD SWAP2 PUSH32 0x8C379A000000000000000000000000000000000000000000000000000000000 DUP4 MSTORE DUP3 ADD MSTORE PUSH1 0xE PUSH1 0x24 DUP3 ADD MSTORE PUSH32 0x417070726F7665206661696C6564000000000000000000000000000000000000 PUSH1 0x44 DUP3 ADD MSTORE REVERT JUMPDEST SWAP1 POP DUP2 DUP2 DUP2 RETURNDATASIZE DUP4 GT PUSH2 0x4BD JUMPI JUMPDEST PUSH2 0x4A1 DUP2 DUP4 PUSH2 0x4F1 JUMP JUMPDEST DUP2 ADD SUB SLT PUSH2 0x4B9 JUMPI MLOAD DUP1 ISZERO ISZERO DUP2 SUB PUSH2 0x4B9 JUMPI DUP9 PUSH2 0x37C JUMP JUMPDEST DUP8 DUP1 REVERT JUMPDEST POP RETURNDATASIZE PUSH2 0x497 JUMP JUMPDEST DUP7 MLOAD RETURNDATASIZE DUP11 DUP3 RETURNDATACOPY RETURNDATASIZE SWAP1 REVERT JUMPDEST PUSH2 0x4E6 SWAP2 SWAP4 POP DUP3 RETURNDATASIZE DUP5 GT PUSH2 0x211 JUMPI PUSH2 0x202 DUP2 DUP4 PUSH2 0x4F1 JUMP JUMPDEST SWAP2 DUP9 PUSH2 0x331 JUMP JUMPDEST DUP6 DUP1 REVERT JUMPDEST SWAP1 PUSH1 0x1F PUSH32 0xFFFFFFFFFFFFFFFFFFFFFFFFFFFFFFFFFFFFFFFFFFFFFFFFFFFFFFFFFFFFFFE0 SWAP2 ADD AND DUP2 ADD SWAP1 DUP2 LT PUSH8 0xFFFFFFFFFFFFFFFF DUP3 GT OR PUSH2 0x532 JUMPI PUSH1 0x40 MSTORE JUMP JUMPDEST PUSH32 0x4E487B7100000000000000000000000000000000000000000000000000000000 PUSH1 0x0 MSTORE PUSH1 0x41 PUSH1 0x4 MSTORE PUSH1 0x24 PUSH1 0x0 REVERT JUMPDEST SWAP1 DUP2 PUSH1 0x20 SWAP2 SUB SLT PUSH2 0x58D JUMPI MLOAD PUSH20 0xFFFFFFFFFFFFFFFFFFFFFFFFFFFFFFFFFFFFFFFF DUP2 AND DUP2 SUB PUSH2 0x58D JUMPI SWAP1 JUMP JUMPDEST PUSH1 0x0 DUP1 REVERT INVALID LOG2 PUSH5 0x6970667358 0x22 SLT KECCAK256 SWAP10 ADDMOD BYTE PUSH18 0x75736B42CF9CB10CDCDCDBFB16ABD6E6FCB1 LOG2 0xE9 ADD 0x21 0xB6 0xA5 0xB6 PUSH26 0x39764736F6C6343000813003300000000000000000000000000 "},"gasEstimates":{"creation":{"codeDepositCost":"296000","executionCost":"infinite","totalCost":"infinite"},"external":{"depositToken(address,uint256)":"infinite","factory()":"2303"}},"methodIdentifiers":{"depositToken(address,uint256)":"338b5dea","factory()":"c45a0155"}},"storageLayout":{"storage":[{"astId":238,"contract":"contracts/MecenateForwarder.sol:MecenateForwarder","label":"encryptedVaultId","offset":0,"slot":"0","type":"t_bytes32"},{"astId":240,"contract":"contracts/MecenateForwarder.sol:MecenateForwarder","label":"factory","offset":0,"slot":"1","type":"t_address"}],"types":{"t_address":{"encoding":"inplace","label":"address","numberOfBytes":"20"},"t_bytes32":{"encoding":"inplace","label":"bytes32","numberOfBytes":"32"}}},"userdoc":{"kind":"user","methods":{},"version":1}}}}