{"contracts/registry/MecenateUsers.sol":{"MecenateUsers":{"abi":[{"inputs":[{"internalType":"address","name":"verifierContractAddress","type":"address"}],"stateMutability":"nonpayable","type":"constructor"},{"anonymous":false,"inputs":[{"indexed":true,"internalType":"address","name":"oldAddress","type":"address"},{"indexed":false,"internalType":"address","name":"newAddress","type":"address"}],"name":"EVMAddressChanged","type":"event"},{"anonymous":false,"inputs":[{"indexed":true,"internalType":"address","name":"previousOwner","type":"address"},{"indexed":true,"internalType":"address","name":"newOwner","type":"address"}],"name":"OwnershipTransferred","type":"event"},{"anonymous":false,"inputs":[{"indexed":true,"internalType":"address","name":"userAddress","type":"address"},{"indexed":false,"internalType":"bytes","name":"newPublicKey","type":"bytes"}],"name":"PublicKeyChanged","type":"event"},{"anonymous":false,"inputs":[{"indexed":true,"internalType":"address","name":"userAddress","type":"address"}],"name":"UserRegistered","type":"event"},{"inputs":[{"internalType":"address","name":"userAddress","type":"address"}],"name":"checkifUserExist","outputs":[{"internalType":"bool","name":"","type":"bool"}],"stateMutability":"view","type":"function"},{"inputs":[{"internalType":"uint256","name":"startIndex","type":"uint256"},{"internalType":"uint256","name":"endIndex","type":"uint256"}],"name":"getPaginatedUsers","outputs":[{"internalType":"address[]","name":"","type":"address[]"}],"stateMutability":"view","type":"function"},{"inputs":[{"internalType":"uint256","name":"index","type":"uint256"}],"name":"getUserAt","outputs":[{"internalType":"address","name":"","type":"address"}],"stateMutability":"view","type":"function"},{"inputs":[],"name":"getUserCount","outputs":[{"internalType":"uint256","name":"","type":"uint256"}],"stateMutability":"view","type":"function"},{"inputs":[{"internalType":"address","name":"userAddress","type":"address"}],"name":"getUserMetadata","outputs":[{"components":[{"internalType":"address","name":"evmAddress","type":"address"},{"internalType":"bytes","name":"sismoVaultId","type":"bytes"},{"internalType":"bytes","name":"publicKey","type":"bytes"}],"internalType":"struct Structures.User","name":"","type":"tuple"}],"stateMutability":"view","type":"function"},{"inputs":[{"internalType":"address","name":"userAddress","type":"address"}],"name":"getUserPublicKey","outputs":[{"internalType":"bytes","name":"","type":"bytes"}],"stateMutability":"view","type":"function"},{"inputs":[],"name":"getUsers","outputs":[{"internalType":"address[]","name":"","type":"address[]"}],"stateMutability":"view","type":"function"},{"inputs":[],"name":"owner","outputs":[{"internalType":"address","name":"","type":"address"}],"stateMutability":"view","type":"function"},{"inputs":[{"internalType":"bytes","name":"sismoConnectResponse","type":"bytes"},{"internalType":"bytes","name":"pubKey","type":"bytes"}],"name":"registerUser","outputs":[{"components":[{"internalType":"address","name":"evmAddress","type":"address"},{"internalType":"bytes","name":"sismoVaultId","type":"bytes"},{"internalType":"bytes","name":"publicKey","type":"bytes"}],"internalType":"struct Structures.User","name":"","type":"tuple"}],"stateMutability":"nonpayable","type":"function"},{"inputs":[],"name":"renounceOwnership","outputs":[],"stateMutability":"nonpayable","type":"function"},{"inputs":[{"internalType":"address","name":"newOwner","type":"address"}],"name":"transferOwnership","outputs":[],"stateMutability":"nonpayable","type":"function"},{"inputs":[],"name":"verifierContract","outputs":[{"internalType":"address","name":"","type":"address"}],"stateMutability":"view","type":"function"}],"devdoc":{"kind":"dev","methods":{"owner()":{"details":"Returns the address of the current owner."},"renounceOwnership()":{"details":"Leaves the contract without owner. It will not be possible to call `onlyOwner` functions. Can only be called by the current owner. NOTE: Renouncing ownership will leave the contract without an owner, thereby disabling any functionality that is only available to the owner."},"transferOwnership(address)":{"details":"Transfers ownership of the contract to a new account (`newOwner`). Can only be called by the current owner."}},"version":1},"evm":{"bytecode":{"linkReferences":{},"object":"6080346100a757601f610e9738819003918201601f19168301916001600160401b038311848410176100ac578084926020946040528339810103126100a757516001600160a01b0390818116908190036100a75760005460018060a01b0319903382821617600055604051933391167f8be0079c531659141344cd1fd0a4f28419497f9722a3daafe3b4186f6b6457e0600080a36004541617600455610dd490816100c38239f35b600080fd5b634e487b7160e01b600052604160045260246000fdfe608060408181526004908136101561001657600080fd5b600092833560e01c908162ce8e3e146108d55750806311231fe01461088357806348990fcc14610847578063715018a6146107ed5780638da5cb5b146107c5578063b5cb15f7146107a6578063c6e064ad14610760578063cf5caa1214610621578063cf695688146105f9578063ebc4bf84146101f6578063ef2a8764146101735763f2fde38b146100a757600080fd5b3461016f57602036600319011261016f576001600160a01b0382358181169391929084900361016b576100d8610ae6565b831561011957505082546001600160a01b0319811683178455167f8be0079c531659141344cd1fd0a4f28419497f9722a3daafe3b4186f6b6457e08380a380f35b906020608492519162461bcd60e51b8352820152602660248201527f4f776e61626c653a206e6577206f776e657220697320746865207a65726f206160448201526564647265737360d01b6064820152fd5b8480fd5b8280fd5b50903461016f57602036600319011261016f576001600160a01b03919035828116908190036101f2576002826101ee956101e0936101af610b3e565b5081526003602052208351946101c4866109e0565b81541685526101d560018201610cf8565b602086015201610cf8565b818301525191829182610a9c565b0390f35b8380fd5b508290346105f557806003193601126105f55767ffffffffffffffff9280358481116101f2576102299036908301610a50565b60243585811161016b576102409036908401610a50565b610248610b3e565b5060018060a01b038084541696868651809963119f099160e01b8252818061027b6020998a8c84015260248301906109bb565b03915afa9788156105eb578798610572575b5085519761029a896109e0565b33895284890190815286890193845233885260038552868820928951166bffffffffffffffffffffffff60a01b84541617835560019283810191519081519284841161055f576102ea8154610b5e565b93601f9485811161051a575b50888c8683116001146104b95790600295836104ae575b5050600019600383901b1c191690871b1790555b019351805192831161049b576103378554610b5e565b828111610458575b50859183116001146103f9579282939183928a946103ee575b50501b916000199060031b1c19161790555b33845260028152828420546103b85750506101ee9061038833610be5565b50519283927f54db7a5cb4735e1aac1f53db512d3390390bb6637bd30ad4bf9fc98667d9b9b9339180a282610a9c565b606492519162461bcd60e51b83528201526013602482015272555345525f414c52454144595f45584953545360681b6044820152fd5b015192508a80610358565b848952858920919083601f1981168b5b89888383106104415750505010610428575b505050811b01905561036a565b015160001960f88460031b161c1916905588808061041b565b868601518855909601959485019487935001610409565b858a52868a208380860160051c820192898710610492575b0160051c019085905b82811061048757505061033f565b8b8155018590610479565b92508192610470565b634e487b7160e01b895260418752602489fd5b015190508e8061030d565b889291601f1983168583528c8320925b8d8282106105045750509683600298106104eb575b505050811b019055610321565b015160001960f88460031b161c191690558e80806104de565b838a015185558c969094019392830192016104c9565b828d52898d208680840160051c8201928c8510610556575b0160051c019088908e5b83821061054b575050506102f6565b81550188908e61053c565b92508192610532565b634e487b7160e01b8b526041895260248bfd5b9097503d8088833e6105848183610a12565b81019084818303126105e7578051908982116105e3570181601f820112156105e7578051906105b282610a34565b926105bf89519485610a12565b8284528683830101116105e357906105dc91868085019101610998565b968861028d565b8880fd5b8780fd5b86513d89823e3d90fd5b5080fd5b50903461016f578260031936011261016f575490516001600160a01b03909116815260209150f35b508290346105f557806003193601126105f557823591602480359182851015610713576001956106548754851115610c82565b61065e8685610cbd565b9561066887610ce0565b9661067587519889610a12565b808852610684601f1991610ce0565b0160209036828a0137815b8681106106a3578751806101ee8b82610954565b6106ac81610b98565b9054906106b98584610cbd565b918b518310156107015760039190911b1c6001600160a01b031660059190911b8a0183015260001981146106ee57890161068f565b5050634e487b7160e01b83525060119052fd5b634e487b7160e01b8852603287528888fd5b835162461bcd60e51b81526020818801526022818401527f53544152545f494e4445585f475245415445525f5448414e5f454e445f494e4460448201526108ab60f31b6064820152608490fd5b5082346107a35760203660031901126107a3575061078d602092356107886001548210610c82565b610b98565b905491519160018060a01b039160031b1c168152f35b80fd5b8382346105f557816003193601126105f5576020906001549051908152f35b8382346105f557816003193601126105f557905490516001600160a01b039091168152602090f35b83346107a357806003193601126107a357610806610ae6565b80546001600160a01b03198116825581906001600160a01b03167f8be0079c531659141344cd1fd0a4f28419497f9722a3daafe3b4186f6b6457e08280a380f35b50903461016f57602036600319011261016f57356001600160a01b0381169081900361016f578282916020945260028452205415159051908152f35b50903461016f57602036600319011261016f57356001600160a01b0381169081900361016f57600282846108c2936101ee965260036020522001610cf8565b90519182916020835260208301906109bb565b9250503461016f578260031936011261016f57600180548084528185526020808501957fb10e2d527612073b26eecdfd717e6a320cf44b4afac2b0732d9fcbe2b7fa0cf69392915b82821061093f576101ee8787610935828c0383610a12565b5191829182610954565b8454885296870196938301939083019061091d565b6020908160408183019282815285518094520193019160005b82811061097b575050505090565b83516001600160a01b03168552938101939281019260010161096d565b60005b8381106109ab5750506000910152565b818101518382015260200161099b565b906020916109d481518092818552858086019101610998565b601f01601f1916010190565b6060810190811067ffffffffffffffff8211176109fc57604052565b634e487b7160e01b600052604160045260246000fd5b90601f8019910116810190811067ffffffffffffffff8211176109fc57604052565b67ffffffffffffffff81116109fc57601f01601f191660200190565b81601f82011215610a9757803590610a6782610a34565b92610a756040519485610a12565b82845260208383010111610a9757816000926020809301838601378301015290565b600080fd5b90610ae3916020815260018060a01b0382511660208201526040610ace602084015160608385015260808401906109bb565b920151906060601f19828503019101526109bb565b90565b6000546001600160a01b03163303610afa57565b606460405162461bcd60e51b815260206004820152602060248201527f4f776e61626c653a2063616c6c6572206973206e6f7420746865206f776e65726044820152fd5b60405190610b4b826109e0565b6060604083600081528260208201520152565b90600182811c92168015610b8e575b6020831014610b7857565b634e487b7160e01b600052602260045260246000fd5b91607f1691610b6d565b600154811015610bcf5760016000527fb10e2d527612073b26eecdfd717e6a320cf44b4afac2b0732d9fcbe2b7fa0cf60190600090565b634e487b7160e01b600052603260045260246000fd5b600081815260026020526040812054610c7d5760015468010000000000000000811015610c69576001810180600155811015610c555790826040927fb10e2d527612073b26eecdfd717e6a320cf44b4afac2b0732d9fcbe2b7fa0cf6015560015492815260026020522055600190565b634e487b7160e01b82526032600452602482fd5b634e487b7160e01b82526041600452602482fd5b905090565b15610c8957565b60405162461bcd60e51b815260206004820152600c60248201526b4f55545f4f465f52414e474560a01b6044820152606490fd5b91908203918211610cca57565b634e487b7160e01b600052601160045260246000fd5b67ffffffffffffffff81116109fc5760051b60200190565b9060405191826000825492610d0c84610b5e565b908184526001948581169081600014610d7b5750600114610d38575b5050610d3692500383610a12565b565b9093915060005260209081600020936000915b818310610d63575050610d3693508201013880610d28565b85548884018501529485019487945091830191610d4b565b915050610d3694506020925060ff191682840152151560051b8201013880610d2856fea26469706673582212202cdff8aa0abc647cdcd01b9d7deb9407c2200689ede6d9904baac008b0360a2464736f6c63430008130033","opcodes":"PUSH1 0x80 CALLVALUE PUSH2 0xA7 JUMPI PUSH1 0x1F PUSH2 0xE97 CODESIZE DUP2 SWAP1 SUB SWAP2 DUP3 ADD PUSH1 0x1F NOT AND DUP4 ADD SWAP2 PUSH1 0x1 PUSH1 0x1 PUSH1 0x40 SHL SUB DUP4 GT DUP5 DUP5 LT OR PUSH2 0xAC JUMPI DUP1 DUP5 SWAP3 PUSH1 0x20 SWAP5 PUSH1 0x40 MSTORE DUP4 CODECOPY DUP2 ADD SUB SLT PUSH2 0xA7 JUMPI MLOAD PUSH1 0x1 PUSH1 0x1 PUSH1 0xA0 SHL SUB SWAP1 DUP2 DUP2 AND SWAP1 DUP2 SWAP1 SUB PUSH2 0xA7 JUMPI PUSH1 0x0 SLOAD PUSH1 0x1 DUP1 PUSH1 0xA0 SHL SUB NOT SWAP1 CALLER DUP3 DUP3 AND OR PUSH1 0x0 SSTORE PUSH1 0x40 MLOAD SWAP4 CALLER SWAP2 AND PUSH32 0x8BE0079C531659141344CD1FD0A4F28419497F9722A3DAAFE3B4186F6B6457E0 PUSH1 0x0 DUP1 LOG3 PUSH1 0x4 SLOAD AND OR PUSH1 0x4 SSTORE PUSH2 0xDD4 SWAP1 DUP2 PUSH2 0xC3 DUP3 CODECOPY RETURN JUMPDEST PUSH1 0x0 DUP1 REVERT JUMPDEST PUSH4 0x4E487B71 PUSH1 0xE0 SHL PUSH1 0x0 MSTORE PUSH1 0x41 PUSH1 0x4 MSTORE PUSH1 0x24 PUSH1 0x0 REVERT INVALID PUSH1 0x80 PUSH1 0x40 DUP2 DUP2 MSTORE PUSH1 0x4 SWAP1 DUP2 CALLDATASIZE LT ISZERO PUSH2 0x16 JUMPI PUSH1 0x0 DUP1 REVERT JUMPDEST PUSH1 0x0 SWAP3 DUP4 CALLDATALOAD PUSH1 0xE0 SHR SWAP1 DUP2 PUSH3 0xCE8E3E EQ PUSH2 0x8D5 JUMPI POP DUP1 PUSH4 0x11231FE0 EQ PUSH2 0x883 JUMPI DUP1 PUSH4 0x48990FCC EQ PUSH2 0x847 JUMPI DUP1 PUSH4 0x715018A6 EQ PUSH2 0x7ED JUMPI DUP1 PUSH4 0x8DA5CB5B EQ PUSH2 0x7C5 JUMPI DUP1 PUSH4 0xB5CB15F7 EQ PUSH2 0x7A6 JUMPI DUP1 PUSH4 0xC6E064AD EQ PUSH2 0x760 JUMPI DUP1 PUSH4 0xCF5CAA12 EQ PUSH2 0x621 JUMPI DUP1 PUSH4 0xCF695688 EQ PUSH2 0x5F9 JUMPI DUP1 PUSH4 0xEBC4BF84 EQ PUSH2 0x1F6 JUMPI DUP1 PUSH4 0xEF2A8764 EQ PUSH2 0x173 JUMPI PUSH4 0xF2FDE38B EQ PUSH2 0xA7 JUMPI PUSH1 0x0 DUP1 REVERT JUMPDEST CALLVALUE PUSH2 0x16F JUMPI PUSH1 0x20 CALLDATASIZE PUSH1 0x3 NOT ADD SLT PUSH2 0x16F JUMPI PUSH1 0x1 PUSH1 0x1 PUSH1 0xA0 SHL SUB DUP3 CALLDATALOAD DUP2 DUP2 AND SWAP4 SWAP2 SWAP3 SWAP1 DUP5 SWAP1 SUB PUSH2 0x16B JUMPI PUSH2 0xD8 PUSH2 0xAE6 JUMP JUMPDEST DUP4 ISZERO PUSH2 0x119 JUMPI POP POP DUP3 SLOAD PUSH1 0x1 PUSH1 0x1 PUSH1 0xA0 SHL SUB NOT DUP2 AND DUP4 OR DUP5 SSTORE AND PUSH32 0x8BE0079C531659141344CD1FD0A4F28419497F9722A3DAAFE3B4186F6B6457E0 DUP4 DUP1 LOG3 DUP1 RETURN JUMPDEST SWAP1 PUSH1 0x20 PUSH1 0x84 SWAP3 MLOAD SWAP2 PUSH3 0x461BCD PUSH1 0xE5 SHL DUP4 MSTORE DUP3 ADD MSTORE PUSH1 0x26 PUSH1 0x24 DUP3 ADD MSTORE PUSH32 0x4F776E61626C653A206E6577206F776E657220697320746865207A65726F2061 PUSH1 0x44 DUP3 ADD MSTORE PUSH6 0x646472657373 PUSH1 0xD0 SHL PUSH1 0x64 DUP3 ADD MSTORE REVERT JUMPDEST DUP5 DUP1 REVERT JUMPDEST DUP3 DUP1 REVERT JUMPDEST POP SWAP1 CALLVALUE PUSH2 0x16F JUMPI PUSH1 0x20 CALLDATASIZE PUSH1 0x3 NOT ADD SLT PUSH2 0x16F JUMPI PUSH1 0x1 PUSH1 0x1 PUSH1 0xA0 SHL SUB SWAP2 SWAP1 CALLDATALOAD DUP3 DUP2 AND SWAP1 DUP2 SWAP1 SUB PUSH2 0x1F2 JUMPI PUSH1 0x2 DUP3 PUSH2 0x1EE SWAP6 PUSH2 0x1E0 SWAP4 PUSH2 0x1AF PUSH2 0xB3E JUMP JUMPDEST POP DUP2 MSTORE PUSH1 0x3 PUSH1 0x20 MSTORE KECCAK256 DUP4 MLOAD SWAP5 PUSH2 0x1C4 DUP7 PUSH2 0x9E0 JUMP JUMPDEST DUP2 SLOAD AND DUP6 MSTORE PUSH2 0x1D5 PUSH1 0x1 DUP3 ADD PUSH2 0xCF8 JUMP JUMPDEST PUSH1 0x20 DUP7 ADD MSTORE ADD PUSH2 0xCF8 JUMP JUMPDEST DUP2 DUP4 ADD MSTORE MLOAD SWAP2 DUP3 SWAP2 DUP3 PUSH2 0xA9C JUMP JUMPDEST SUB SWAP1 RETURN JUMPDEST DUP4 DUP1 REVERT JUMPDEST POP DUP3 SWAP1 CALLVALUE PUSH2 0x5F5 JUMPI DUP1 PUSH1 0x3 NOT CALLDATASIZE ADD SLT PUSH2 0x5F5 JUMPI PUSH8 0xFFFFFFFFFFFFFFFF SWAP3 DUP1 CALLDATALOAD DUP5 DUP2 GT PUSH2 0x1F2 JUMPI PUSH2 0x229 SWAP1 CALLDATASIZE SWAP1 DUP4 ADD PUSH2 0xA50 JUMP JUMPDEST PUSH1 0x24 CALLDATALOAD DUP6 DUP2 GT PUSH2 0x16B JUMPI PUSH2 0x240 SWAP1 CALLDATASIZE SWAP1 DUP5 ADD PUSH2 0xA50 JUMP JUMPDEST PUSH2 0x248 PUSH2 0xB3E JUMP JUMPDEST POP PUSH1 0x1 DUP1 PUSH1 0xA0 SHL SUB DUP1 DUP5 SLOAD AND SWAP7 DUP7 DUP7 MLOAD DUP1 SWAP10 PUSH4 0x119F0991 PUSH1 0xE0 SHL DUP3 MSTORE DUP2 DUP1 PUSH2 0x27B PUSH1 0x20 SWAP10 DUP11 DUP13 DUP5 ADD MSTORE PUSH1 0x24 DUP4 ADD SWAP1 PUSH2 0x9BB JUMP JUMPDEST SUB SWAP2 GAS STATICCALL SWAP8 DUP9 ISZERO PUSH2 0x5EB JUMPI DUP8 SWAP9 PUSH2 0x572 JUMPI JUMPDEST POP DUP6 MLOAD SWAP8 PUSH2 0x29A DUP10 PUSH2 0x9E0 JUMP JUMPDEST CALLER DUP10 MSTORE DUP5 DUP10 ADD SWAP1 DUP2 MSTORE DUP7 DUP10 ADD SWAP4 DUP5 MSTORE CALLER DUP9 MSTORE PUSH1 0x3 DUP6 MSTORE DUP7 DUP9 KECCAK256 SWAP3 DUP10 MLOAD AND PUSH12 0xFFFFFFFFFFFFFFFFFFFFFFFF PUSH1 0xA0 SHL DUP5 SLOAD AND OR DUP4 SSTORE PUSH1 0x1 SWAP3 DUP4 DUP2 ADD SWAP2 MLOAD SWAP1 DUP2 MLOAD SWAP3 DUP5 DUP5 GT PUSH2 0x55F JUMPI PUSH2 0x2EA DUP2 SLOAD PUSH2 0xB5E JUMP JUMPDEST SWAP4 PUSH1 0x1F SWAP5 DUP6 DUP2 GT PUSH2 0x51A JUMPI JUMPDEST POP DUP9 DUP13 DUP7 DUP4 GT PUSH1 0x1 EQ PUSH2 0x4B9 JUMPI SWAP1 PUSH1 0x2 SWAP6 DUP4 PUSH2 0x4AE JUMPI JUMPDEST POP POP PUSH1 0x0 NOT PUSH1 0x3 DUP4 SWAP1 SHL SHR NOT AND SWAP1 DUP8 SHL OR SWAP1 SSTORE JUMPDEST ADD SWAP4 MLOAD DUP1 MLOAD SWAP3 DUP4 GT PUSH2 0x49B JUMPI PUSH2 0x337 DUP6 SLOAD PUSH2 0xB5E JUMP JUMPDEST DUP3 DUP2 GT PUSH2 0x458 JUMPI JUMPDEST POP DUP6 SWAP2 DUP4 GT PUSH1 0x1 EQ PUSH2 0x3F9 JUMPI SWAP3 DUP3 SWAP4 SWAP2 DUP4 SWAP3 DUP11 SWAP5 PUSH2 0x3EE JUMPI JUMPDEST POP POP SHL SWAP2 PUSH1 0x0 NOT SWAP1 PUSH1 0x3 SHL SHR NOT AND OR SWAP1 SSTORE JUMPDEST CALLER DUP5 MSTORE PUSH1 0x2 DUP2 MSTORE DUP3 DUP5 KECCAK256 SLOAD PUSH2 0x3B8 JUMPI POP POP PUSH2 0x1EE SWAP1 PUSH2 0x388 CALLER PUSH2 0xBE5 JUMP JUMPDEST POP MLOAD SWAP3 DUP4 SWAP3 PUSH32 0x54DB7A5CB4735E1AAC1F53DB512D3390390BB6637BD30AD4BF9FC98667D9B9B9 CALLER SWAP2 DUP1 LOG2 DUP3 PUSH2 0xA9C JUMP JUMPDEST PUSH1 0x64 SWAP3 MLOAD SWAP2 PUSH3 0x461BCD PUSH1 0xE5 SHL DUP4 MSTORE DUP3 ADD MSTORE PUSH1 0x13 PUSH1 0x24 DUP3 ADD MSTORE PUSH19 0x555345525F414C52454144595F455849535453 PUSH1 0x68 SHL PUSH1 0x44 DUP3 ADD MSTORE REVERT JUMPDEST ADD MLOAD SWAP3 POP DUP11 DUP1 PUSH2 0x358 JUMP JUMPDEST DUP5 DUP10 MSTORE DUP6 DUP10 KECCAK256 SWAP2 SWAP1 DUP4 PUSH1 0x1F NOT DUP2 AND DUP12 JUMPDEST DUP10 DUP9 DUP4 DUP4 LT PUSH2 0x441 JUMPI POP POP POP LT PUSH2 0x428 JUMPI JUMPDEST POP POP POP DUP2 SHL ADD SWAP1 SSTORE PUSH2 0x36A JUMP JUMPDEST ADD MLOAD PUSH1 0x0 NOT PUSH1 0xF8 DUP5 PUSH1 0x3 SHL AND SHR NOT AND SWAP1 SSTORE DUP9 DUP1 DUP1 PUSH2 0x41B JUMP JUMPDEST DUP7 DUP7 ADD MLOAD DUP9 SSTORE SWAP1 SWAP7 ADD SWAP6 SWAP5 DUP6 ADD SWAP5 DUP8 SWAP4 POP ADD PUSH2 0x409 JUMP JUMPDEST DUP6 DUP11 MSTORE DUP7 DUP11 KECCAK256 DUP4 DUP1 DUP7 ADD PUSH1 0x5 SHR DUP3 ADD SWAP3 DUP10 DUP8 LT PUSH2 0x492 JUMPI JUMPDEST ADD PUSH1 0x5 SHR ADD SWAP1 DUP6 SWAP1 JUMPDEST DUP3 DUP2 LT PUSH2 0x487 JUMPI POP POP PUSH2 0x33F JUMP JUMPDEST DUP12 DUP2 SSTORE ADD DUP6 SWAP1 PUSH2 0x479 JUMP JUMPDEST SWAP3 POP DUP2 SWAP3 PUSH2 0x470 JUMP JUMPDEST PUSH4 0x4E487B71 PUSH1 0xE0 SHL DUP10 MSTORE PUSH1 0x41 DUP8 MSTORE PUSH1 0x24 DUP10 REVERT JUMPDEST ADD MLOAD SWAP1 POP DUP15 DUP1 PUSH2 0x30D JUMP JUMPDEST DUP9 SWAP3 SWAP2 PUSH1 0x1F NOT DUP4 AND DUP6 DUP4 MSTORE DUP13 DUP4 KECCAK256 SWAP3 JUMPDEST DUP14 DUP3 DUP3 LT PUSH2 0x504 JUMPI POP POP SWAP7 DUP4 PUSH1 0x2 SWAP9 LT PUSH2 0x4EB JUMPI JUMPDEST POP POP POP DUP2 SHL ADD SWAP1 SSTORE PUSH2 0x321 JUMP JUMPDEST ADD MLOAD PUSH1 0x0 NOT PUSH1 0xF8 DUP5 PUSH1 0x3 SHL AND SHR NOT AND SWAP1 SSTORE DUP15 DUP1 DUP1 PUSH2 0x4DE JUMP JUMPDEST DUP4 DUP11 ADD MLOAD DUP6 SSTORE DUP13 SWAP7 SWAP1 SWAP5 ADD SWAP4 SWAP3 DUP4 ADD SWAP3 ADD PUSH2 0x4C9 JUMP JUMPDEST DUP3 DUP14 MSTORE DUP10 DUP14 KECCAK256 DUP7 DUP1 DUP5 ADD PUSH1 0x5 SHR DUP3 ADD SWAP3 DUP13 DUP6 LT PUSH2 0x556 JUMPI JUMPDEST ADD PUSH1 0x5 SHR ADD SWAP1 DUP9 SWAP1 DUP15 JUMPDEST DUP4 DUP3 LT PUSH2 0x54B JUMPI POP POP POP PUSH2 0x2F6 JUMP JUMPDEST DUP2 SSTORE ADD DUP9 SWAP1 DUP15 PUSH2 0x53C JUMP JUMPDEST SWAP3 POP DUP2 SWAP3 PUSH2 0x532 JUMP JUMPDEST PUSH4 0x4E487B71 PUSH1 0xE0 SHL DUP12 MSTORE PUSH1 0x41 DUP10 MSTORE PUSH1 0x24 DUP12 REVERT JUMPDEST SWAP1 SWAP8 POP RETURNDATASIZE DUP1 DUP9 DUP4 RETURNDATACOPY PUSH2 0x584 DUP2 DUP4 PUSH2 0xA12 JUMP JUMPDEST DUP2 ADD SWAP1 DUP5 DUP2 DUP4 SUB SLT PUSH2 0x5E7 JUMPI DUP1 MLOAD SWAP1 DUP10 DUP3 GT PUSH2 0x5E3 JUMPI ADD DUP2 PUSH1 0x1F DUP3 ADD SLT ISZERO PUSH2 0x5E7 JUMPI DUP1 MLOAD SWAP1 PUSH2 0x5B2 DUP3 PUSH2 0xA34 JUMP JUMPDEST SWAP3 PUSH2 0x5BF DUP10 MLOAD SWAP5 DUP6 PUSH2 0xA12 JUMP JUMPDEST DUP3 DUP5 MSTORE DUP7 DUP4 DUP4 ADD ADD GT PUSH2 0x5E3 JUMPI SWAP1 PUSH2 0x5DC SWAP2 DUP7 DUP1 DUP6 ADD SWAP2 ADD PUSH2 0x998 JUMP JUMPDEST SWAP7 DUP9 PUSH2 0x28D JUMP JUMPDEST DUP9 DUP1 REVERT JUMPDEST DUP8 DUP1 REVERT JUMPDEST DUP7 MLOAD RETURNDATASIZE DUP10 DUP3 RETURNDATACOPY RETURNDATASIZE SWAP1 REVERT JUMPDEST POP DUP1 REVERT JUMPDEST POP SWAP1 CALLVALUE PUSH2 0x16F JUMPI DUP3 PUSH1 0x3 NOT CALLDATASIZE ADD SLT PUSH2 0x16F JUMPI SLOAD SWAP1 MLOAD PUSH1 0x1 PUSH1 0x1 PUSH1 0xA0 SHL SUB SWAP1 SWAP2 AND DUP2 MSTORE PUSH1 0x20 SWAP2 POP RETURN JUMPDEST POP DUP3 SWAP1 CALLVALUE PUSH2 0x5F5 JUMPI DUP1 PUSH1 0x3 NOT CALLDATASIZE ADD SLT PUSH2 0x5F5 JUMPI DUP3 CALLDATALOAD SWAP2 PUSH1 0x24 DUP1 CALLDATALOAD SWAP2 DUP3 DUP6 LT ISZERO PUSH2 0x713 JUMPI PUSH1 0x1 SWAP6 PUSH2 0x654 DUP8 SLOAD DUP6 GT ISZERO PUSH2 0xC82 JUMP JUMPDEST PUSH2 0x65E DUP7 DUP6 PUSH2 0xCBD JUMP JUMPDEST SWAP6 PUSH2 0x668 DUP8 PUSH2 0xCE0 JUMP JUMPDEST SWAP7 PUSH2 0x675 DUP8 MLOAD SWAP9 DUP10 PUSH2 0xA12 JUMP JUMPDEST DUP1 DUP9 MSTORE PUSH2 0x684 PUSH1 0x1F NOT SWAP2 PUSH2 0xCE0 JUMP JUMPDEST ADD PUSH1 0x20 SWAP1 CALLDATASIZE DUP3 DUP11 ADD CALLDATACOPY DUP2 JUMPDEST DUP7 DUP2 LT PUSH2 0x6A3 JUMPI DUP8 MLOAD DUP1 PUSH2 0x1EE DUP12 DUP3 PUSH2 0x954 JUMP JUMPDEST PUSH2 0x6AC DUP2 PUSH2 0xB98 JUMP JUMPDEST SWAP1 SLOAD SWAP1 PUSH2 0x6B9 DUP6 DUP5 PUSH2 0xCBD JUMP JUMPDEST SWAP2 DUP12 MLOAD DUP4 LT ISZERO PUSH2 0x701 JUMPI PUSH1 0x3 SWAP2 SWAP1 SWAP2 SHL SHR PUSH1 0x1 PUSH1 0x1 PUSH1 0xA0 SHL SUB AND PUSH1 0x5 SWAP2 SWAP1 SWAP2 SHL DUP11 ADD DUP4 ADD MSTORE PUSH1 0x0 NOT DUP2 EQ PUSH2 0x6EE JUMPI DUP10 ADD PUSH2 0x68F JUMP JUMPDEST POP POP PUSH4 0x4E487B71 PUSH1 0xE0 SHL DUP4 MSTORE POP PUSH1 0x11 SWAP1 MSTORE REVERT JUMPDEST PUSH4 0x4E487B71 PUSH1 0xE0 SHL DUP9 MSTORE PUSH1 0x32 DUP8 MSTORE DUP9 DUP9 REVERT JUMPDEST DUP4 MLOAD PUSH3 0x461BCD PUSH1 0xE5 SHL DUP2 MSTORE PUSH1 0x20 DUP2 DUP9 ADD MSTORE PUSH1 0x22 DUP2 DUP5 ADD MSTORE PUSH32 0x53544152545F494E4445585F475245415445525F5448414E5F454E445F494E44 PUSH1 0x44 DUP3 ADD MSTORE PUSH2 0x8AB PUSH1 0xF3 SHL PUSH1 0x64 DUP3 ADD MSTORE PUSH1 0x84 SWAP1 REVERT JUMPDEST POP DUP3 CALLVALUE PUSH2 0x7A3 JUMPI PUSH1 0x20 CALLDATASIZE PUSH1 0x3 NOT ADD SLT PUSH2 0x7A3 JUMPI POP PUSH2 0x78D PUSH1 0x20 SWAP3 CALLDATALOAD PUSH2 0x788 PUSH1 0x1 SLOAD DUP3 LT PUSH2 0xC82 JUMP JUMPDEST PUSH2 0xB98 JUMP JUMPDEST SWAP1 SLOAD SWAP2 MLOAD SWAP2 PUSH1 0x1 DUP1 PUSH1 0xA0 SHL SUB SWAP2 PUSH1 0x3 SHL SHR AND DUP2 MSTORE RETURN JUMPDEST DUP1 REVERT JUMPDEST DUP4 DUP3 CALLVALUE PUSH2 0x5F5 JUMPI DUP2 PUSH1 0x3 NOT CALLDATASIZE ADD SLT PUSH2 0x5F5 JUMPI PUSH1 0x20 SWAP1 PUSH1 0x1 SLOAD SWAP1 MLOAD SWAP1 DUP2 MSTORE RETURN JUMPDEST DUP4 DUP3 CALLVALUE PUSH2 0x5F5 JUMPI DUP2 PUSH1 0x3 NOT CALLDATASIZE ADD SLT PUSH2 0x5F5 JUMPI SWAP1 SLOAD SWAP1 MLOAD PUSH1 0x1 PUSH1 0x1 PUSH1 0xA0 SHL SUB SWAP1 SWAP2 AND DUP2 MSTORE PUSH1 0x20 SWAP1 RETURN JUMPDEST DUP4 CALLVALUE PUSH2 0x7A3 JUMPI DUP1 PUSH1 0x3 NOT CALLDATASIZE ADD SLT PUSH2 0x7A3 JUMPI PUSH2 0x806 PUSH2 0xAE6 JUMP JUMPDEST DUP1 SLOAD PUSH1 0x1 PUSH1 0x1 PUSH1 0xA0 SHL SUB NOT DUP2 AND DUP3 SSTORE DUP2 SWAP1 PUSH1 0x1 PUSH1 0x1 PUSH1 0xA0 SHL SUB AND PUSH32 0x8BE0079C531659141344CD1FD0A4F28419497F9722A3DAAFE3B4186F6B6457E0 DUP3 DUP1 LOG3 DUP1 RETURN JUMPDEST POP SWAP1 CALLVALUE PUSH2 0x16F JUMPI PUSH1 0x20 CALLDATASIZE PUSH1 0x3 NOT ADD SLT PUSH2 0x16F JUMPI CALLDATALOAD PUSH1 0x1 PUSH1 0x1 PUSH1 0xA0 SHL SUB DUP2 AND SWAP1 DUP2 SWAP1 SUB PUSH2 0x16F JUMPI DUP3 DUP3 SWAP2 PUSH1 0x20 SWAP5 MSTORE PUSH1 0x2 DUP5 MSTORE KECCAK256 SLOAD ISZERO ISZERO SWAP1 MLOAD SWAP1 DUP2 MSTORE RETURN JUMPDEST POP SWAP1 CALLVALUE PUSH2 0x16F JUMPI PUSH1 0x20 CALLDATASIZE PUSH1 0x3 NOT ADD SLT PUSH2 0x16F JUMPI CALLDATALOAD PUSH1 0x1 PUSH1 0x1 PUSH1 0xA0 SHL SUB DUP2 AND SWAP1 DUP2 SWAP1 SUB PUSH2 0x16F JUMPI PUSH1 0x2 DUP3 DUP5 PUSH2 0x8C2 SWAP4 PUSH2 0x1EE SWAP7 MSTORE PUSH1 0x3 PUSH1 0x20 MSTORE KECCAK256 ADD PUSH2 0xCF8 JUMP JUMPDEST SWAP1 MLOAD SWAP2 DUP3 SWAP2 PUSH1 0x20 DUP4 MSTORE PUSH1 0x20 DUP4 ADD SWAP1 PUSH2 0x9BB JUMP JUMPDEST SWAP3 POP POP CALLVALUE PUSH2 0x16F JUMPI DUP3 PUSH1 0x3 NOT CALLDATASIZE ADD SLT PUSH2 0x16F JUMPI PUSH1 0x1 DUP1 SLOAD DUP1 DUP5 MSTORE DUP2 DUP6 MSTORE PUSH1 0x20 DUP1 DUP6 ADD SWAP6 PUSH32 0xB10E2D527612073B26EECDFD717E6A320CF44B4AFAC2B0732D9FCBE2B7FA0CF6 SWAP4 SWAP3 SWAP2 JUMPDEST DUP3 DUP3 LT PUSH2 0x93F JUMPI PUSH2 0x1EE DUP8 DUP8 PUSH2 0x935 DUP3 DUP13 SUB DUP4 PUSH2 0xA12 JUMP JUMPDEST MLOAD SWAP2 DUP3 SWAP2 DUP3 PUSH2 0x954 JUMP JUMPDEST DUP5 SLOAD DUP9 MSTORE SWAP7 DUP8 ADD SWAP7 SWAP4 DUP4 ADD SWAP4 SWAP1 DUP4 ADD SWAP1 PUSH2 0x91D JUMP JUMPDEST PUSH1 0x20 SWAP1 DUP2 PUSH1 0x40 DUP2 DUP4 ADD SWAP3 DUP3 DUP2 MSTORE DUP6 MLOAD DUP1 SWAP5 MSTORE ADD SWAP4 ADD SWAP2 PUSH1 0x0 JUMPDEST DUP3 DUP2 LT PUSH2 0x97B JUMPI POP POP POP POP SWAP1 JUMP JUMPDEST DUP4 MLOAD PUSH1 0x1 PUSH1 0x1 PUSH1 0xA0 SHL SUB AND DUP6 MSTORE SWAP4 DUP2 ADD SWAP4 SWAP3 DUP2 ADD SWAP3 PUSH1 0x1 ADD PUSH2 0x96D JUMP JUMPDEST PUSH1 0x0 JUMPDEST DUP4 DUP2 LT PUSH2 0x9AB JUMPI POP POP PUSH1 0x0 SWAP2 ADD MSTORE JUMP JUMPDEST DUP2 DUP2 ADD MLOAD DUP4 DUP3 ADD MSTORE PUSH1 0x20 ADD PUSH2 0x99B JUMP JUMPDEST SWAP1 PUSH1 0x20 SWAP2 PUSH2 0x9D4 DUP2 MLOAD DUP1 SWAP3 DUP2 DUP6 MSTORE DUP6 DUP1 DUP7 ADD SWAP2 ADD PUSH2 0x998 JUMP JUMPDEST PUSH1 0x1F ADD PUSH1 0x1F NOT AND ADD ADD SWAP1 JUMP JUMPDEST PUSH1 0x60 DUP2 ADD SWAP1 DUP2 LT PUSH8 0xFFFFFFFFFFFFFFFF DUP3 GT OR PUSH2 0x9FC JUMPI PUSH1 0x40 MSTORE JUMP JUMPDEST PUSH4 0x4E487B71 PUSH1 0xE0 SHL PUSH1 0x0 MSTORE PUSH1 0x41 PUSH1 0x4 MSTORE PUSH1 0x24 PUSH1 0x0 REVERT JUMPDEST SWAP1 PUSH1 0x1F DUP1 NOT SWAP2 ADD AND DUP2 ADD SWAP1 DUP2 LT PUSH8 0xFFFFFFFFFFFFFFFF DUP3 GT OR PUSH2 0x9FC JUMPI PUSH1 0x40 MSTORE JUMP JUMPDEST PUSH8 0xFFFFFFFFFFFFFFFF DUP2 GT PUSH2 0x9FC JUMPI PUSH1 0x1F ADD PUSH1 0x1F NOT AND PUSH1 0x20 ADD SWAP1 JUMP JUMPDEST DUP2 PUSH1 0x1F DUP3 ADD SLT ISZERO PUSH2 0xA97 JUMPI DUP1 CALLDATALOAD SWAP1 PUSH2 0xA67 DUP3 PUSH2 0xA34 JUMP JUMPDEST SWAP3 PUSH2 0xA75 PUSH1 0x40 MLOAD SWAP5 DUP6 PUSH2 0xA12 JUMP JUMPDEST DUP3 DUP5 MSTORE PUSH1 0x20 DUP4 DUP4 ADD ADD GT PUSH2 0xA97 JUMPI DUP2 PUSH1 0x0 SWAP3 PUSH1 0x20 DUP1 SWAP4 ADD DUP4 DUP7 ADD CALLDATACOPY DUP4 ADD ADD MSTORE SWAP1 JUMP JUMPDEST PUSH1 0x0 DUP1 REVERT JUMPDEST SWAP1 PUSH2 0xAE3 SWAP2 PUSH1 0x20 DUP2 MSTORE PUSH1 0x1 DUP1 PUSH1 0xA0 SHL SUB DUP3 MLOAD AND PUSH1 0x20 DUP3 ADD MSTORE PUSH1 0x40 PUSH2 0xACE PUSH1 0x20 DUP5 ADD MLOAD PUSH1 0x60 DUP4 DUP6 ADD MSTORE PUSH1 0x80 DUP5 ADD SWAP1 PUSH2 0x9BB JUMP JUMPDEST SWAP3 ADD MLOAD SWAP1 PUSH1 0x60 PUSH1 0x1F NOT DUP3 DUP6 SUB ADD SWAP2 ADD MSTORE PUSH2 0x9BB JUMP JUMPDEST SWAP1 JUMP JUMPDEST PUSH1 0x0 SLOAD PUSH1 0x1 PUSH1 0x1 PUSH1 0xA0 SHL SUB AND CALLER SUB PUSH2 0xAFA JUMPI JUMP JUMPDEST PUSH1 0x64 PUSH1 0x40 MLOAD PUSH3 0x461BCD PUSH1 0xE5 SHL DUP2 MSTORE PUSH1 0x20 PUSH1 0x4 DUP3 ADD MSTORE PUSH1 0x20 PUSH1 0x24 DUP3 ADD MSTORE PUSH32 0x4F776E61626C653A2063616C6C6572206973206E6F7420746865206F776E6572 PUSH1 0x44 DUP3 ADD MSTORE REVERT JUMPDEST PUSH1 0x40 MLOAD SWAP1 PUSH2 0xB4B DUP3 PUSH2 0x9E0 JUMP JUMPDEST PUSH1 0x60 PUSH1 0x40 DUP4 PUSH1 0x0 DUP2 MSTORE DUP3 PUSH1 0x20 DUP3 ADD MSTORE ADD MSTORE JUMP JUMPDEST SWAP1 PUSH1 0x1 DUP3 DUP2 SHR SWAP3 AND DUP1 ISZERO PUSH2 0xB8E JUMPI JUMPDEST PUSH1 0x20 DUP4 LT EQ PUSH2 0xB78 JUMPI JUMP JUMPDEST PUSH4 0x4E487B71 PUSH1 0xE0 SHL PUSH1 0x0 MSTORE PUSH1 0x22 PUSH1 0x4 MSTORE PUSH1 0x24 PUSH1 0x0 REVERT JUMPDEST SWAP2 PUSH1 0x7F AND SWAP2 PUSH2 0xB6D JUMP JUMPDEST PUSH1 0x1 SLOAD DUP2 LT ISZERO PUSH2 0xBCF JUMPI PUSH1 0x1 PUSH1 0x0 MSTORE PUSH32 0xB10E2D527612073B26EECDFD717E6A320CF44B4AFAC2B0732D9FCBE2B7FA0CF6 ADD SWAP1 PUSH1 0x0 SWAP1 JUMP JUMPDEST PUSH4 0x4E487B71 PUSH1 0xE0 SHL PUSH1 0x0 MSTORE PUSH1 0x32 PUSH1 0x4 MSTORE PUSH1 0x24 PUSH1 0x0 REVERT JUMPDEST PUSH1 0x0 DUP2 DUP2 MSTORE PUSH1 0x2 PUSH1 0x20 MSTORE PUSH1 0x40 DUP2 KECCAK256 SLOAD PUSH2 0xC7D JUMPI PUSH1 0x1 SLOAD PUSH9 0x10000000000000000 DUP2 LT ISZERO PUSH2 0xC69 JUMPI PUSH1 0x1 DUP2 ADD DUP1 PUSH1 0x1 SSTORE DUP2 LT ISZERO PUSH2 0xC55 JUMPI SWAP1 DUP3 PUSH1 0x40 SWAP3 PUSH32 0xB10E2D527612073B26EECDFD717E6A320CF44B4AFAC2B0732D9FCBE2B7FA0CF6 ADD SSTORE PUSH1 0x1 SLOAD SWAP3 DUP2 MSTORE PUSH1 0x2 PUSH1 0x20 MSTORE KECCAK256 SSTORE PUSH1 0x1 SWAP1 JUMP JUMPDEST PUSH4 0x4E487B71 PUSH1 0xE0 SHL DUP3 MSTORE PUSH1 0x32 PUSH1 0x4 MSTORE PUSH1 0x24 DUP3 REVERT JUMPDEST PUSH4 0x4E487B71 PUSH1 0xE0 SHL DUP3 MSTORE PUSH1 0x41 PUSH1 0x4 MSTORE PUSH1 0x24 DUP3 REVERT JUMPDEST SWAP1 POP SWAP1 JUMP JUMPDEST ISZERO PUSH2 0xC89 JUMPI JUMP JUMPDEST PUSH1 0x40 MLOAD PUSH3 0x461BCD PUSH1 0xE5 SHL DUP2 MSTORE PUSH1 0x20 PUSH1 0x4 DUP3 ADD MSTORE PUSH1 0xC PUSH1 0x24 DUP3 ADD MSTORE PUSH12 0x4F55545F4F465F52414E4745 PUSH1 0xA0 SHL PUSH1 0x44 DUP3 ADD MSTORE PUSH1 0x64 SWAP1 REVERT JUMPDEST SWAP2 SWAP1 DUP3 SUB SWAP2 DUP3 GT PUSH2 0xCCA JUMPI JUMP JUMPDEST PUSH4 0x4E487B71 PUSH1 0xE0 SHL PUSH1 0x0 MSTORE PUSH1 0x11 PUSH1 0x4 MSTORE PUSH1 0x24 PUSH1 0x0 REVERT JUMPDEST PUSH8 0xFFFFFFFFFFFFFFFF DUP2 GT PUSH2 0x9FC JUMPI PUSH1 0x5 SHL PUSH1 0x20 ADD SWAP1 JUMP JUMPDEST SWAP1 PUSH1 0x40 MLOAD SWAP2 DUP3 PUSH1 0x0 DUP3 SLOAD SWAP3 PUSH2 0xD0C DUP5 PUSH2 0xB5E JUMP JUMPDEST SWAP1 DUP2 DUP5 MSTORE PUSH1 0x1 SWAP5 DUP6 DUP2 AND SWAP1 DUP2 PUSH1 0x0 EQ PUSH2 0xD7B JUMPI POP PUSH1 0x1 EQ PUSH2 0xD38 JUMPI JUMPDEST POP POP PUSH2 0xD36 SWAP3 POP SUB DUP4 PUSH2 0xA12 JUMP JUMPDEST JUMP JUMPDEST SWAP1 SWAP4 SWAP2 POP PUSH1 0x0 MSTORE PUSH1 0x20 SWAP1 DUP2 PUSH1 0x0 KECCAK256 SWAP4 PUSH1 0x0 SWAP2 JUMPDEST DUP2 DUP4 LT PUSH2 0xD63 JUMPI POP POP PUSH2 0xD36 SWAP4 POP DUP3 ADD ADD CODESIZE DUP1 PUSH2 0xD28 JUMP JUMPDEST DUP6 SLOAD DUP9 DUP5 ADD DUP6 ADD MSTORE SWAP5 DUP6 ADD SWAP5 DUP8 SWAP5 POP SWAP2 DUP4 ADD SWAP2 PUSH2 0xD4B JUMP JUMPDEST SWAP2 POP POP PUSH2 0xD36 SWAP5 POP PUSH1 0x20 SWAP3 POP PUSH1 0xFF NOT AND DUP3 DUP5 ADD MSTORE ISZERO ISZERO PUSH1 0x5 SHL DUP3 ADD ADD CODESIZE DUP1 PUSH2 0xD28 JUMP INVALID LOG2 PUSH5 0x6970667358 0x22 SLT KECCAK256 0x2C 0xDF 0xF8 0xAA EXP 0xBC PUSH5 0x7CDCD01B9D PUSH30 0xEB9407C2200689EDE6D9904BAAC008B0360A2464736F6C63430008130033 "},"gasEstimates":{"creation":{"codeDepositCost":"708000","executionCost":"infinite","totalCost":"infinite"},"external":{"checkifUserExist(address)":"2440","getPaginatedUsers(uint256,uint256)":"infinite","getUserAt(uint256)":"6770","getUserCount()":"2392","getUserMetadata(address)":"infinite","getUserPublicKey(address)":"infinite","getUsers()":"infinite","owner()":"2391","registerUser(bytes,bytes)":"infinite","renounceOwnership()":"28144","transferOwnership(address)":"28386","verifierContract()":"2477"}},"methodIdentifiers":{"checkifUserExist(address)":"48990fcc","getPaginatedUsers(uint256,uint256)":"cf5caa12","getUserAt(uint256)":"c6e064ad","getUserCount()":"b5cb15f7","getUserMetadata(address)":"ef2a8764","getUserPublicKey(address)":"11231fe0","getUsers()":"00ce8e3e","owner()":"8da5cb5b","registerUser(bytes,bytes)":"ebc4bf84","renounceOwnership()":"715018a6","transferOwnership(address)":"f2fde38b","verifierContract()":"cf695688"}},"storageLayout":{"storage":[{"astId":7,"contract":"contracts/registry/MecenateUsers.sol:MecenateUsers","label":"_owner","offset":0,"slot":"0","type":"t_address"},{"astId":2058,"contract":"contracts/registry/MecenateUsers.sol:MecenateUsers","label":"_users","offset":0,"slot":"1","type":"t_struct(AddressSet)1280_storage"},{"astId":2063,"contract":"contracts/registry/MecenateUsers.sol:MecenateUsers","label":"_metadata","offset":0,"slot":"3","type":"t_mapping(t_address,t_struct(User)1995_storage)"},{"astId":2065,"contract":"contracts/registry/MecenateUsers.sol:MecenateUsers","label":"verifierContract","offset":0,"slot":"4","type":"t_address"}],"types":{"t_address":{"encoding":"inplace","label":"address","numberOfBytes":"20"},"t_array(t_bytes32)dyn_storage":{"base":"t_bytes32","encoding":"dynamic_array","label":"bytes32[]","numberOfBytes":"32"},"t_bytes32":{"encoding":"inplace","label":"bytes32","numberOfBytes":"32"},"t_bytes_storage":{"encoding":"bytes","label":"bytes","numberOfBytes":"32"},"t_mapping(t_address,t_struct(User)1995_storage)":{"encoding":"mapping","key":"t_address","label":"mapping(address => struct Structures.User)","numberOfBytes":"32","value":"t_struct(User)1995_storage"},"t_mapping(t_bytes32,t_uint256)":{"encoding":"mapping","key":"t_bytes32","label":"mapping(bytes32 => uint256)","numberOfBytes":"32","value":"t_uint256"},"t_struct(AddressSet)1280_storage":{"encoding":"inplace","label":"struct EnumerableSet.AddressSet","members":[{"astId":1279,"contract":"contracts/registry/MecenateUsers.sol:MecenateUsers","label":"_inner","offset":0,"slot":"0","type":"t_struct(Set)965_storage"}],"numberOfBytes":"64"},"t_struct(Set)965_storage":{"encoding":"inplace","label":"struct EnumerableSet.Set","members":[{"astId":960,"contract":"contracts/registry/MecenateUsers.sol:MecenateUsers","label":"_values","offset":0,"slot":"0","type":"t_array(t_bytes32)dyn_storage"},{"astId":964,"contract":"contracts/registry/MecenateUsers.sol:MecenateUsers","label":"_indexes","offset":0,"slot":"1","type":"t_mapping(t_bytes32,t_uint256)"}],"numberOfBytes":"64"},"t_struct(User)1995_storage":{"encoding":"inplace","label":"struct Structures.User","members":[{"astId":1990,"contract":"contracts/registry/MecenateUsers.sol:MecenateUsers","label":"evmAddress","offset":0,"slot":"0","type":"t_address"},{"astId":1992,"contract":"contracts/registry/MecenateUsers.sol:MecenateUsers","label":"sismoVaultId","offset":0,"slot":"1","type":"t_bytes_storage"},{"astId":1994,"contract":"contracts/registry/MecenateUsers.sol:MecenateUsers","label":"publicKey","offset":0,"slot":"2","type":"t_bytes_storage"}],"numberOfBytes":"96"},"t_uint256":{"encoding":"inplace","label":"uint256","numberOfBytes":"32"}}},"userdoc":{"kind":"user","methods":{},"version":1}}}}