{"contracts/layer/MecenateSend.sol":{"MecenateSend":{"abi":[{"inputs":[{"internalType":"address","name":"_usersContract","type":"address"},{"internalType":"address","name":"_treasuryContract","type":"address"}],"stateMutability":"nonpayable","type":"constructor"},{"anonymous":false,"inputs":[{"indexed":false,"internalType":"address","name":"sender","type":"address"},{"indexed":false,"internalType":"address","name":"receiver","type":"address"},{"indexed":false,"internalType":"address","name":"token","type":"address"},{"indexed":false,"internalType":"uint256","name":"amount","type":"uint256"},{"indexed":false,"internalType":"bytes","name":"ipfsHash","type":"bytes"},{"indexed":false,"internalType":"bytes","name":"pubKey","type":"bytes"}],"name":"HashSubmitted","type":"event"},{"anonymous":false,"inputs":[{"indexed":true,"internalType":"address","name":"previousOwner","type":"address"},{"indexed":true,"internalType":"address","name":"newOwner","type":"address"}],"name":"OwnershipTransferred","type":"event"},{"inputs":[{"internalType":"address","name":"_treasuryContract","type":"address"}],"name":"changeTreasuryContract","outputs":[],"stateMutability":"nonpayable","type":"function"},{"inputs":[{"internalType":"address","name":"_usersContract","type":"address"}],"name":"changeUsersContract","outputs":[],"stateMutability":"nonpayable","type":"function"},{"inputs":[{"internalType":"bytes","name":"","type":"bytes"}],"name":"encryptedKeys","outputs":[{"internalType":"bytes","name":"","type":"bytes"}],"stateMutability":"view","type":"function"},{"inputs":[],"name":"fixedFee","outputs":[{"internalType":"uint256","name":"","type":"uint256"}],"stateMutability":"view","type":"function"},{"inputs":[{"internalType":"bytes","name":"pubKey","type":"bytes"}],"name":"getHash","outputs":[{"internalType":"bytes","name":"","type":"bytes"}],"stateMutability":"view","type":"function"},{"inputs":[],"name":"globalFee","outputs":[{"internalType":"uint256","name":"","type":"uint256"}],"stateMutability":"view","type":"function"},{"inputs":[],"name":"owner","outputs":[{"internalType":"address","name":"","type":"address"}],"stateMutability":"view","type":"function"},{"inputs":[],"name":"renounceOwnership","outputs":[],"stateMutability":"nonpayable","type":"function"},{"inputs":[{"internalType":"bytes","name":"encryptedData","type":"bytes"}],"name":"submitHash","outputs":[],"stateMutability":"payable","type":"function"},{"inputs":[{"internalType":"address","name":"newOwner","type":"address"}],"name":"transferOwnership","outputs":[],"stateMutability":"nonpayable","type":"function"},{"inputs":[],"name":"treasuryContract","outputs":[{"internalType":"address","name":"","type":"address"}],"stateMutability":"view","type":"function"},{"inputs":[],"name":"usersContract","outputs":[{"internalType":"address","name":"","type":"address"}],"stateMutability":"view","type":"function"},{"inputs":[{"internalType":"address","name":"_receiver","type":"address"}],"name":"withdrawETH","outputs":[],"stateMutability":"nonpayable","type":"function"}],"devdoc":{"kind":"dev","methods":{"owner()":{"details":"Returns the address of the current owner."},"renounceOwnership()":{"details":"Leaves the contract without owner. It will not be possible to call `onlyOwner` functions. Can only be called by the current owner. NOTE: Renouncing ownership will leave the contract without an owner, thereby disabling any functionality that is only available to the owner."},"transferOwnership(address)":{"details":"Transfers ownership of the contract to a new account (`newOwner`). Can only be called by the current owner."}},"version":1},"evm":{"bytecode":{"linkReferences":{},"object":"6080346100ce57601f610eb438819003918201601f19168301916001600160401b038311848410176100d35780849260409485528339810103126100ce57610052602061004b836100e9565b92016100e9565b60008054336001600160a01b0319808316821784556040519590946001600160a01b03949093859391908416907f8be0079c531659141344cd1fd0a4f28419497f9722a3daafe3b4186f6b6457e09080a3662386f26fc100006004551683600254161760025516906003541617600355610db690816100fe8239f35b600080fd5b634e487b7160e01b600052604160045260246000fd5b51906001600160a01b03821682036100ce5756fe608080604052600436101561001357600080fd5b60003560e01c908163142ebf3c14610a275750806318da0011146109fe5780634b78896d146101bf578063690d8320146109af57806370962dd214610969578063715018a614610910578063808fc2061461088e5780638da5cb5b146108655780638f903c791461023057806391792d5b14610212578063b00140aa146101bf578063bd87e0c9146101795763f2fde38b146100ae57600080fd5b34610174576020366003190112610174576004356001600160a01b0381811691829003610174576100dd610c1a565b811561012057600054826001600160601b0360a01b821617600055167f8be0079c531659141344cd1fd0a4f28419497f9722a3daafe3b4186f6b6457e0600080a3005b60405162461bcd60e51b815260206004820152602660248201527f4f776e61626c653a206e6577206f776e657220697320746865207a65726f206160448201526564647265737360d01b6064820152608490fd5b600080fd5b34610174576020366003190112610174576004356001600160a01b03811690819003610174576101a7610c1a565b6001600160601b0360a01b6003541617600355600080f35b346101745761020e6101fa6101eb60206101d836610a89565b8160405193828580945193849201610af2565b81016001815203019020610b4f565b604051918291602083526020830190610bf5565b0390f35b34610174576000366003190112610174576020600454604051908152f35b61023936610a89565b805181019060a0816020840193031261017457602081015167ffffffffffffffff81116101745782602061026f92840101610c72565b9160408201519067ffffffffffffffff821161017457602061029392840101610c72565b916102a060608301610cb7565b9060a06102af60808501610cb7565b93015160025460405163122643f360e21b815233600482015291959190602090829060249082906001600160a01b03165afa90811561046a57600091610836575b50156107f957604051602081835161030b8183858801610af2565b81016001815203019020825167ffffffffffffffff811161068d576103308254610b15565b601f81116107b5575b50806020601f821160011461075157600091610746575b508160011b916000199060031b1c19161790555b600354604051634047e10360e11b815290602090829060049082906001600160a01b03165afa90811561046a57600091610714575b5080860290868204148615171561047f576001600160a01b03909416936127109004846104cc5780860180871161047f573410610495578034039034821161047f576000808093819382903414610476575b6001600160a01b03891690f11561046a57610457610465927f954bf59b64e01f6e7b8a4c837cd19e9d1ee041fe4683298995b980c3d1aeebaf965b60405196879633885260018060a01b031660208801526040870152606086015260c0608086015260c0850190610bf5565b9083820360a0850152610bf5565b0390a1005b6040513d6000823e3d90fd5b506108fc6103eb565b634e487b7160e01b600052601160045260246000fd5b60405162461bcd60e51b815260206004820152600f60248201526e57726f6e67204665652056616c756560881b6044820152606490fd5b50604051636eb1769f60e11b8152336004820152306024820152602081604481885afa801561046a5786916000916106df575b50106106a3576040516323b872dd60e01b602082019081523360248301526001600160a01b0385166044830152606480830188905282529060a081019067ffffffffffffffff82118183101761068d5760e0810182811067ffffffffffffffff82111761068d57604052602082527f5361666545524332303a206c6f772d6c6576656c2063616c6c206661696c656460c0820152516105d1926000918291828a5af13d15610685573d906105b282610a6d565b916105c06040519384610a4b565b82523d6000602084013e5b87610ce3565b805190811591821561066b575b50501561061357610457610465927f954bf59b64e01f6e7b8a4c837cd19e9d1ee041fe4683298995b980c3d1aeebaf96610426565b60405162461bcd60e51b815260206004820152602a60248201527f5361666545524332303a204552433230206f7065726174696f6e20646964206e6044820152691bdd081cdd58d8d9595960b21b6064820152608490fd5b61067e9250602080918301019101610ccb565b86806105de565b6060906105cb565b634e487b7160e01b600052604160045260246000fd5b60405162461bcd60e51b81526020600482015260146024820152734e6f7420656e6f75676820616c6c6f77616e636560601b6044820152606490fd5b9150506020813d60201161070c575b816106fb60209383610a4b565b8101031261017457859051876104ff565b3d91506106ee565b90506020813d60201161073e575b8161072f60209383610a4b565b81010312610174575186610399565b3d9150610722565b905084015188610350565b6000848152602081209250601f198416905b81811061079d57509083600194939210610784575b5050811b019055610364565b86015160001960f88460031b161c191690558880610778565b9192602060018192868b015181550194019201610763565b826000526020600020601f830160051c8101602084106107f2575b601f830160051c820181106107e6575050610339565b600081556001016107d0565b50806107d0565b60405162461bcd60e51b815260206004820152601560248201527414d95b99195c881b9bdd081c9959da5cdd195c9959605a1b6044820152606490fd5b610858915060203d60201161085e575b6108508183610a4b565b810190610ccb565b866102f0565b503d610846565b34610174576000366003190112610174576000546040516001600160a01b039091168152602090f35b3461017457600036600319011261017457600354604051634047e10360e11b815290602090829060049082906001600160a01b03165afa801561046a576000906108de575b602090604051908152f35b506020813d8211610908575b816108f760209383610a4b565b8101031261017457602090516108d3565b3d91506108ea565b3461017457600036600319011261017457610929610c1a565b600080546001600160a01b0319811682556001600160a01b03167f8be0079c531659141344cd1fd0a4f28419497f9722a3daafe3b4186f6b6457e08280a3005b34610174576020366003190112610174576004356001600160a01b0381169081900361017457610997610c1a565b6001600160601b0360a01b6002541617600255600080f35b34610174576020366003190112610174576004356001600160a01b03811690819003610174576000808080936109e3610c1a565b47908282156109f5575bf11561046a57005b506108fc6109ed565b34610174576000366003190112610174576003546040516001600160a01b039091168152602090f35b34610174576000366003190112610174576002546001600160a01b03168152602090f35b90601f8019910116810190811067ffffffffffffffff82111761068d57604052565b67ffffffffffffffff811161068d57601f01601f191660200190565b60206003198201126101745760043567ffffffffffffffff8111610174578160238201121561017457806004013590610ac182610a6d565b92610acf6040519485610a4b565b828452602483830101116101745781600092602460209301838601378301015290565b60005b838110610b055750506000910152565b8181015183820152602001610af5565b90600182811c92168015610b45575b6020831014610b2f57565b634e487b7160e01b600052602260045260246000fd5b91607f1691610b24565b9060405191826000825492610b6384610b15565b908184526001948581169081600014610bd25750600114610b8f575b5050610b8d92500383610a4b565b565b9093915060005260209081600020936000915b818310610bba575050610b8d93508201013880610b7f565b85548884018501529485019487945091830191610ba2565b915050610b8d94506020925060ff191682840152151560051b8201013880610b7f565b90602091610c0e81518092818552858086019101610af2565b601f01601f1916010190565b6000546001600160a01b03163303610c2e57565b606460405162461bcd60e51b815260206004820152602060248201527f4f776e61626c653a2063616c6c6572206973206e6f7420746865206f776e65726044820152fd5b81601f82011215610174578051610c8881610a6d565b92610c966040519485610a4b565b8184526020828401011161017457610cb49160208085019101610af2565b90565b51906001600160a01b038216820361017457565b90816020910312610174575180151581036101745790565b91929015610d455750815115610cf7575090565b3b15610d005790565b60405162461bcd60e51b815260206004820152601d60248201527f416464726573733a2063616c6c20746f206e6f6e2d636f6e74726163740000006044820152606490fd5b825190915015610d585750805190602001fd5b60405162461bcd60e51b815260206004820152908190610d7c906024830190610bf5565b0390fdfea26469706673582212200da01f56d02f158cec99cdb30b92a9e6a91555cea35e98dba10c72866fa9168964736f6c63430008130033","opcodes":"PUSH1 0x80 CALLVALUE PUSH2 0xCE JUMPI PUSH1 0x1F PUSH2 0xEB4 CODESIZE DUP2 SWAP1 SUB SWAP2 DUP3 ADD PUSH1 0x1F NOT AND DUP4 ADD SWAP2 PUSH1 0x1 PUSH1 0x1 PUSH1 0x40 SHL SUB DUP4 GT DUP5 DUP5 LT OR PUSH2 0xD3 JUMPI DUP1 DUP5 SWAP3 PUSH1 0x40 SWAP5 DUP6 MSTORE DUP4 CODECOPY DUP2 ADD SUB SLT PUSH2 0xCE JUMPI PUSH2 0x52 PUSH1 0x20 PUSH2 0x4B DUP4 PUSH2 0xE9 JUMP JUMPDEST SWAP3 ADD PUSH2 0xE9 JUMP JUMPDEST PUSH1 0x0 DUP1 SLOAD CALLER PUSH1 0x1 PUSH1 0x1 PUSH1 0xA0 SHL SUB NOT DUP1 DUP4 AND DUP3 OR DUP5 SSTORE PUSH1 0x40 MLOAD SWAP6 SWAP1 SWAP5 PUSH1 0x1 PUSH1 0x1 PUSH1 0xA0 SHL SUB SWAP5 SWAP1 SWAP4 DUP6 SWAP4 SWAP2 SWAP1 DUP5 AND SWAP1 PUSH32 0x8BE0079C531659141344CD1FD0A4F28419497F9722A3DAAFE3B4186F6B6457E0 SWAP1 DUP1 LOG3 PUSH7 0x2386F26FC10000 PUSH1 0x4 SSTORE AND DUP4 PUSH1 0x2 SLOAD AND OR PUSH1 0x2 SSTORE AND SWAP1 PUSH1 0x3 SLOAD AND OR PUSH1 0x3 SSTORE PUSH2 0xDB6 SWAP1 DUP2 PUSH2 0xFE DUP3 CODECOPY RETURN JUMPDEST PUSH1 0x0 DUP1 REVERT JUMPDEST PUSH4 0x4E487B71 PUSH1 0xE0 SHL PUSH1 0x0 MSTORE PUSH1 0x41 PUSH1 0x4 MSTORE PUSH1 0x24 PUSH1 0x0 REVERT JUMPDEST MLOAD SWAP1 PUSH1 0x1 PUSH1 0x1 PUSH1 0xA0 SHL SUB DUP3 AND DUP3 SUB PUSH2 0xCE JUMPI JUMP INVALID PUSH1 0x80 DUP1 PUSH1 0x40 MSTORE PUSH1 0x4 CALLDATASIZE LT ISZERO PUSH2 0x13 JUMPI PUSH1 0x0 DUP1 REVERT JUMPDEST PUSH1 0x0 CALLDATALOAD PUSH1 0xE0 SHR SWAP1 DUP2 PUSH4 0x142EBF3C EQ PUSH2 0xA27 JUMPI POP DUP1 PUSH4 0x18DA0011 EQ PUSH2 0x9FE JUMPI DUP1 PUSH4 0x4B78896D EQ PUSH2 0x1BF JUMPI DUP1 PUSH4 0x690D8320 EQ PUSH2 0x9AF JUMPI DUP1 PUSH4 0x70962DD2 EQ PUSH2 0x969 JUMPI DUP1 PUSH4 0x715018A6 EQ PUSH2 0x910 JUMPI DUP1 PUSH4 0x808FC206 EQ PUSH2 0x88E JUMPI DUP1 PUSH4 0x8DA5CB5B EQ PUSH2 0x865 JUMPI DUP1 PUSH4 0x8F903C79 EQ PUSH2 0x230 JUMPI DUP1 PUSH4 0x91792D5B EQ PUSH2 0x212 JUMPI DUP1 PUSH4 0xB00140AA EQ PUSH2 0x1BF JUMPI DUP1 PUSH4 0xBD87E0C9 EQ PUSH2 0x179 JUMPI PUSH4 0xF2FDE38B EQ PUSH2 0xAE JUMPI PUSH1 0x0 DUP1 REVERT JUMPDEST CALLVALUE PUSH2 0x174 JUMPI PUSH1 0x20 CALLDATASIZE PUSH1 0x3 NOT ADD SLT PUSH2 0x174 JUMPI PUSH1 0x4 CALLDATALOAD PUSH1 0x1 PUSH1 0x1 PUSH1 0xA0 SHL SUB DUP2 DUP2 AND SWAP2 DUP3 SWAP1 SUB PUSH2 0x174 JUMPI PUSH2 0xDD PUSH2 0xC1A JUMP JUMPDEST DUP2 ISZERO PUSH2 0x120 JUMPI PUSH1 0x0 SLOAD DUP3 PUSH1 0x1 PUSH1 0x1 PUSH1 0x60 SHL SUB PUSH1 0xA0 SHL DUP3 AND OR PUSH1 0x0 SSTORE AND PUSH32 0x8BE0079C531659141344CD1FD0A4F28419497F9722A3DAAFE3B4186F6B6457E0 PUSH1 0x0 DUP1 LOG3 STOP JUMPDEST PUSH1 0x40 MLOAD PUSH3 0x461BCD PUSH1 0xE5 SHL DUP2 MSTORE PUSH1 0x20 PUSH1 0x4 DUP3 ADD MSTORE PUSH1 0x26 PUSH1 0x24 DUP3 ADD MSTORE PUSH32 0x4F776E61626C653A206E6577206F776E657220697320746865207A65726F2061 PUSH1 0x44 DUP3 ADD MSTORE PUSH6 0x646472657373 PUSH1 0xD0 SHL PUSH1 0x64 DUP3 ADD MSTORE PUSH1 0x84 SWAP1 REVERT JUMPDEST PUSH1 0x0 DUP1 REVERT JUMPDEST CALLVALUE PUSH2 0x174 JUMPI PUSH1 0x20 CALLDATASIZE PUSH1 0x3 NOT ADD SLT PUSH2 0x174 JUMPI PUSH1 0x4 CALLDATALOAD PUSH1 0x1 PUSH1 0x1 PUSH1 0xA0 SHL SUB DUP2 AND SWAP1 DUP2 SWAP1 SUB PUSH2 0x174 JUMPI PUSH2 0x1A7 PUSH2 0xC1A JUMP JUMPDEST PUSH1 0x1 PUSH1 0x1 PUSH1 0x60 SHL SUB PUSH1 0xA0 SHL PUSH1 0x3 SLOAD AND OR PUSH1 0x3 SSTORE PUSH1 0x0 DUP1 RETURN JUMPDEST CALLVALUE PUSH2 0x174 JUMPI PUSH2 0x20E PUSH2 0x1FA PUSH2 0x1EB PUSH1 0x20 PUSH2 0x1D8 CALLDATASIZE PUSH2 0xA89 JUMP JUMPDEST DUP2 PUSH1 0x40 MLOAD SWAP4 DUP3 DUP6 DUP1 SWAP5 MLOAD SWAP4 DUP5 SWAP3 ADD PUSH2 0xAF2 JUMP JUMPDEST DUP2 ADD PUSH1 0x1 DUP2 MSTORE SUB ADD SWAP1 KECCAK256 PUSH2 0xB4F JUMP JUMPDEST PUSH1 0x40 MLOAD SWAP2 DUP3 SWAP2 PUSH1 0x20 DUP4 MSTORE PUSH1 0x20 DUP4 ADD SWAP1 PUSH2 0xBF5 JUMP JUMPDEST SUB SWAP1 RETURN JUMPDEST CALLVALUE PUSH2 0x174 JUMPI PUSH1 0x0 CALLDATASIZE PUSH1 0x3 NOT ADD SLT PUSH2 0x174 JUMPI PUSH1 0x20 PUSH1 0x4 SLOAD PUSH1 0x40 MLOAD SWAP1 DUP2 MSTORE RETURN JUMPDEST PUSH2 0x239 CALLDATASIZE PUSH2 0xA89 JUMP JUMPDEST DUP1 MLOAD DUP2 ADD SWAP1 PUSH1 0xA0 DUP2 PUSH1 0x20 DUP5 ADD SWAP4 SUB SLT PUSH2 0x174 JUMPI PUSH1 0x20 DUP2 ADD MLOAD PUSH8 0xFFFFFFFFFFFFFFFF DUP2 GT PUSH2 0x174 JUMPI DUP3 PUSH1 0x20 PUSH2 0x26F SWAP3 DUP5 ADD ADD PUSH2 0xC72 JUMP JUMPDEST SWAP2 PUSH1 0x40 DUP3 ADD MLOAD SWAP1 PUSH8 0xFFFFFFFFFFFFFFFF DUP3 GT PUSH2 0x174 JUMPI PUSH1 0x20 PUSH2 0x293 SWAP3 DUP5 ADD ADD PUSH2 0xC72 JUMP JUMPDEST SWAP2 PUSH2 0x2A0 PUSH1 0x60 DUP4 ADD PUSH2 0xCB7 JUMP JUMPDEST SWAP1 PUSH1 0xA0 PUSH2 0x2AF PUSH1 0x80 DUP6 ADD PUSH2 0xCB7 JUMP JUMPDEST SWAP4 ADD MLOAD PUSH1 0x2 SLOAD PUSH1 0x40 MLOAD PUSH4 0x122643F3 PUSH1 0xE2 SHL DUP2 MSTORE CALLER PUSH1 0x4 DUP3 ADD MSTORE SWAP2 SWAP6 SWAP2 SWAP1 PUSH1 0x20 SWAP1 DUP3 SWAP1 PUSH1 0x24 SWAP1 DUP3 SWAP1 PUSH1 0x1 PUSH1 0x1 PUSH1 0xA0 SHL SUB AND GAS STATICCALL SWAP1 DUP2 ISZERO PUSH2 0x46A JUMPI PUSH1 0x0 SWAP2 PUSH2 0x836 JUMPI JUMPDEST POP ISZERO PUSH2 0x7F9 JUMPI PUSH1 0x40 MLOAD PUSH1 0x20 DUP2 DUP4 MLOAD PUSH2 0x30B DUP2 DUP4 DUP6 DUP9 ADD PUSH2 0xAF2 JUMP JUMPDEST DUP2 ADD PUSH1 0x1 DUP2 MSTORE SUB ADD SWAP1 KECCAK256 DUP3 MLOAD PUSH8 0xFFFFFFFFFFFFFFFF DUP2 GT PUSH2 0x68D JUMPI PUSH2 0x330 DUP3 SLOAD PUSH2 0xB15 JUMP JUMPDEST PUSH1 0x1F DUP2 GT PUSH2 0x7B5 JUMPI JUMPDEST POP DUP1 PUSH1 0x20 PUSH1 0x1F DUP3 GT PUSH1 0x1 EQ PUSH2 0x751 JUMPI PUSH1 0x0 SWAP2 PUSH2 0x746 JUMPI JUMPDEST POP DUP2 PUSH1 0x1 SHL SWAP2 PUSH1 0x0 NOT SWAP1 PUSH1 0x3 SHL SHR NOT AND OR SWAP1 SSTORE JUMPDEST PUSH1 0x3 SLOAD PUSH1 0x40 MLOAD PUSH4 0x4047E103 PUSH1 0xE1 SHL DUP2 MSTORE SWAP1 PUSH1 0x20 SWAP1 DUP3 SWAP1 PUSH1 0x4 SWAP1 DUP3 SWAP1 PUSH1 0x1 PUSH1 0x1 PUSH1 0xA0 SHL SUB AND GAS STATICCALL SWAP1 DUP2 ISZERO PUSH2 0x46A JUMPI PUSH1 0x0 SWAP2 PUSH2 0x714 JUMPI JUMPDEST POP DUP1 DUP7 MUL SWAP1 DUP7 DUP3 DIV EQ DUP7 ISZERO OR ISZERO PUSH2 0x47F JUMPI PUSH1 0x1 PUSH1 0x1 PUSH1 0xA0 SHL SUB SWAP1 SWAP5 AND SWAP4 PUSH2 0x2710 SWAP1 DIV DUP5 PUSH2 0x4CC JUMPI DUP1 DUP7 ADD DUP1 DUP8 GT PUSH2 0x47F JUMPI CALLVALUE LT PUSH2 0x495 JUMPI DUP1 CALLVALUE SUB SWAP1 CALLVALUE DUP3 GT PUSH2 0x47F JUMPI PUSH1 0x0 DUP1 DUP1 SWAP4 DUP2 SWAP4 DUP3 SWAP1 CALLVALUE EQ PUSH2 0x476 JUMPI JUMPDEST PUSH1 0x1 PUSH1 0x1 PUSH1 0xA0 SHL SUB DUP10 AND SWAP1 CALL ISZERO PUSH2 0x46A JUMPI PUSH2 0x457 PUSH2 0x465 SWAP3 PUSH32 0x954BF59B64E01F6E7B8A4C837CD19E9D1EE041FE4683298995B980C3D1AEEBAF SWAP7 JUMPDEST PUSH1 0x40 MLOAD SWAP7 DUP8 SWAP7 CALLER DUP9 MSTORE PUSH1 0x1 DUP1 PUSH1 0xA0 SHL SUB AND PUSH1 0x20 DUP9 ADD MSTORE PUSH1 0x40 DUP8 ADD MSTORE PUSH1 0x60 DUP7 ADD MSTORE PUSH1 0xC0 PUSH1 0x80 DUP7 ADD MSTORE PUSH1 0xC0 DUP6 ADD SWAP1 PUSH2 0xBF5 JUMP JUMPDEST SWAP1 DUP4 DUP3 SUB PUSH1 0xA0 DUP6 ADD MSTORE PUSH2 0xBF5 JUMP JUMPDEST SUB SWAP1 LOG1 STOP JUMPDEST PUSH1 0x40 MLOAD RETURNDATASIZE PUSH1 0x0 DUP3 RETURNDATACOPY RETURNDATASIZE SWAP1 REVERT JUMPDEST POP PUSH2 0x8FC PUSH2 0x3EB JUMP JUMPDEST PUSH4 0x4E487B71 PUSH1 0xE0 SHL PUSH1 0x0 MSTORE PUSH1 0x11 PUSH1 0x4 MSTORE PUSH1 0x24 PUSH1 0x0 REVERT JUMPDEST PUSH1 0x40 MLOAD PUSH3 0x461BCD PUSH1 0xE5 SHL DUP2 MSTORE PUSH1 0x20 PUSH1 0x4 DUP3 ADD MSTORE PUSH1 0xF PUSH1 0x24 DUP3 ADD MSTORE PUSH15 0x57726F6E67204665652056616C7565 PUSH1 0x88 SHL PUSH1 0x44 DUP3 ADD MSTORE PUSH1 0x64 SWAP1 REVERT JUMPDEST POP PUSH1 0x40 MLOAD PUSH4 0x6EB1769F PUSH1 0xE1 SHL DUP2 MSTORE CALLER PUSH1 0x4 DUP3 ADD MSTORE ADDRESS PUSH1 0x24 DUP3 ADD MSTORE PUSH1 0x20 DUP2 PUSH1 0x44 DUP2 DUP9 GAS STATICCALL DUP1 ISZERO PUSH2 0x46A JUMPI DUP7 SWAP2 PUSH1 0x0 SWAP2 PUSH2 0x6DF JUMPI JUMPDEST POP LT PUSH2 0x6A3 JUMPI PUSH1 0x40 MLOAD PUSH4 0x23B872DD PUSH1 0xE0 SHL PUSH1 0x20 DUP3 ADD SWAP1 DUP2 MSTORE CALLER PUSH1 0x24 DUP4 ADD MSTORE PUSH1 0x1 PUSH1 0x1 PUSH1 0xA0 SHL SUB DUP6 AND PUSH1 0x44 DUP4 ADD MSTORE PUSH1 0x64 DUP1 DUP4 ADD DUP9 SWAP1 MSTORE DUP3 MSTORE SWAP1 PUSH1 0xA0 DUP2 ADD SWAP1 PUSH8 0xFFFFFFFFFFFFFFFF DUP3 GT DUP2 DUP4 LT OR PUSH2 0x68D JUMPI PUSH1 0xE0 DUP2 ADD DUP3 DUP2 LT PUSH8 0xFFFFFFFFFFFFFFFF DUP3 GT OR PUSH2 0x68D JUMPI PUSH1 0x40 MSTORE PUSH1 0x20 DUP3 MSTORE PUSH32 0x5361666545524332303A206C6F772D6C6576656C2063616C6C206661696C6564 PUSH1 0xC0 DUP3 ADD MSTORE MLOAD PUSH2 0x5D1 SWAP3 PUSH1 0x0 SWAP2 DUP3 SWAP2 DUP3 DUP11 GAS CALL RETURNDATASIZE ISZERO PUSH2 0x685 JUMPI RETURNDATASIZE SWAP1 PUSH2 0x5B2 DUP3 PUSH2 0xA6D JUMP JUMPDEST SWAP2 PUSH2 0x5C0 PUSH1 0x40 MLOAD SWAP4 DUP5 PUSH2 0xA4B JUMP JUMPDEST DUP3 MSTORE RETURNDATASIZE PUSH1 0x0 PUSH1 0x20 DUP5 ADD RETURNDATACOPY JUMPDEST DUP8 PUSH2 0xCE3 JUMP JUMPDEST DUP1 MLOAD SWAP1 DUP2 ISZERO SWAP2 DUP3 ISZERO PUSH2 0x66B JUMPI JUMPDEST POP POP ISZERO PUSH2 0x613 JUMPI PUSH2 0x457 PUSH2 0x465 SWAP3 PUSH32 0x954BF59B64E01F6E7B8A4C837CD19E9D1EE041FE4683298995B980C3D1AEEBAF SWAP7 PUSH2 0x426 JUMP JUMPDEST PUSH1 0x40 MLOAD PUSH3 0x461BCD PUSH1 0xE5 SHL DUP2 MSTORE PUSH1 0x20 PUSH1 0x4 DUP3 ADD MSTORE PUSH1 0x2A PUSH1 0x24 DUP3 ADD MSTORE PUSH32 0x5361666545524332303A204552433230206F7065726174696F6E20646964206E PUSH1 0x44 DUP3 ADD MSTORE PUSH10 0x1BDD081CDD58D8D95959 PUSH1 0xB2 SHL PUSH1 0x64 DUP3 ADD MSTORE PUSH1 0x84 SWAP1 REVERT JUMPDEST PUSH2 0x67E SWAP3 POP PUSH1 0x20 DUP1 SWAP2 DUP4 ADD ADD SWAP2 ADD PUSH2 0xCCB JUMP JUMPDEST DUP7 DUP1 PUSH2 0x5DE JUMP JUMPDEST PUSH1 0x60 SWAP1 PUSH2 0x5CB JUMP JUMPDEST PUSH4 0x4E487B71 PUSH1 0xE0 SHL PUSH1 0x0 MSTORE PUSH1 0x41 PUSH1 0x4 MSTORE PUSH1 0x24 PUSH1 0x0 REVERT JUMPDEST PUSH1 0x40 MLOAD PUSH3 0x461BCD PUSH1 0xE5 SHL DUP2 MSTORE PUSH1 0x20 PUSH1 0x4 DUP3 ADD MSTORE PUSH1 0x14 PUSH1 0x24 DUP3 ADD MSTORE PUSH20 0x4E6F7420656E6F75676820616C6C6F77616E6365 PUSH1 0x60 SHL PUSH1 0x44 DUP3 ADD MSTORE PUSH1 0x64 SWAP1 REVERT JUMPDEST SWAP2 POP POP PUSH1 0x20 DUP2 RETURNDATASIZE PUSH1 0x20 GT PUSH2 0x70C JUMPI JUMPDEST DUP2 PUSH2 0x6FB PUSH1 0x20 SWAP4 DUP4 PUSH2 0xA4B JUMP JUMPDEST DUP2 ADD SUB SLT PUSH2 0x174 JUMPI DUP6 SWAP1 MLOAD DUP8 PUSH2 0x4FF JUMP JUMPDEST RETURNDATASIZE SWAP2 POP PUSH2 0x6EE JUMP JUMPDEST SWAP1 POP PUSH1 0x20 DUP2 RETURNDATASIZE PUSH1 0x20 GT PUSH2 0x73E JUMPI JUMPDEST DUP2 PUSH2 0x72F PUSH1 0x20 SWAP4 DUP4 PUSH2 0xA4B JUMP JUMPDEST DUP2 ADD SUB SLT PUSH2 0x174 JUMPI MLOAD DUP7 PUSH2 0x399 JUMP JUMPDEST RETURNDATASIZE SWAP2 POP PUSH2 0x722 JUMP JUMPDEST SWAP1 POP DUP5 ADD MLOAD DUP9 PUSH2 0x350 JUMP JUMPDEST PUSH1 0x0 DUP5 DUP2 MSTORE PUSH1 0x20 DUP2 KECCAK256 SWAP3 POP PUSH1 0x1F NOT DUP5 AND SWAP1 JUMPDEST DUP2 DUP2 LT PUSH2 0x79D JUMPI POP SWAP1 DUP4 PUSH1 0x1 SWAP5 SWAP4 SWAP3 LT PUSH2 0x784 JUMPI JUMPDEST POP POP DUP2 SHL ADD SWAP1 SSTORE PUSH2 0x364 JUMP JUMPDEST DUP7 ADD MLOAD PUSH1 0x0 NOT PUSH1 0xF8 DUP5 PUSH1 0x3 SHL AND SHR NOT AND SWAP1 SSTORE DUP9 DUP1 PUSH2 0x778 JUMP JUMPDEST SWAP2 SWAP3 PUSH1 0x20 PUSH1 0x1 DUP2 SWAP3 DUP7 DUP12 ADD MLOAD DUP2 SSTORE ADD SWAP5 ADD SWAP3 ADD PUSH2 0x763 JUMP JUMPDEST DUP3 PUSH1 0x0 MSTORE PUSH1 0x20 PUSH1 0x0 KECCAK256 PUSH1 0x1F DUP4 ADD PUSH1 0x5 SHR DUP2 ADD PUSH1 0x20 DUP5 LT PUSH2 0x7F2 JUMPI JUMPDEST PUSH1 0x1F DUP4 ADD PUSH1 0x5 SHR DUP3 ADD DUP2 LT PUSH2 0x7E6 JUMPI POP POP PUSH2 0x339 JUMP JUMPDEST PUSH1 0x0 DUP2 SSTORE PUSH1 0x1 ADD PUSH2 0x7D0 JUMP JUMPDEST POP DUP1 PUSH2 0x7D0 JUMP JUMPDEST PUSH1 0x40 MLOAD PUSH3 0x461BCD PUSH1 0xE5 SHL DUP2 MSTORE PUSH1 0x20 PUSH1 0x4 DUP3 ADD MSTORE PUSH1 0x15 PUSH1 0x24 DUP3 ADD MSTORE PUSH21 0x14D95B99195C881B9BDD081C9959DA5CDD195C9959 PUSH1 0x5A SHL PUSH1 0x44 DUP3 ADD MSTORE PUSH1 0x64 SWAP1 REVERT JUMPDEST PUSH2 0x858 SWAP2 POP PUSH1 0x20 RETURNDATASIZE PUSH1 0x20 GT PUSH2 0x85E JUMPI JUMPDEST PUSH2 0x850 DUP2 DUP4 PUSH2 0xA4B JUMP JUMPDEST DUP2 ADD SWAP1 PUSH2 0xCCB JUMP JUMPDEST DUP7 PUSH2 0x2F0 JUMP JUMPDEST POP RETURNDATASIZE PUSH2 0x846 JUMP JUMPDEST CALLVALUE PUSH2 0x174 JUMPI PUSH1 0x0 CALLDATASIZE PUSH1 0x3 NOT ADD SLT PUSH2 0x174 JUMPI PUSH1 0x0 SLOAD PUSH1 0x40 MLOAD PUSH1 0x1 PUSH1 0x1 PUSH1 0xA0 SHL SUB SWAP1 SWAP2 AND DUP2 MSTORE PUSH1 0x20 SWAP1 RETURN JUMPDEST CALLVALUE PUSH2 0x174 JUMPI PUSH1 0x0 CALLDATASIZE PUSH1 0x3 NOT ADD SLT PUSH2 0x174 JUMPI PUSH1 0x3 SLOAD PUSH1 0x40 MLOAD PUSH4 0x4047E103 PUSH1 0xE1 SHL DUP2 MSTORE SWAP1 PUSH1 0x20 SWAP1 DUP3 SWAP1 PUSH1 0x4 SWAP1 DUP3 SWAP1 PUSH1 0x1 PUSH1 0x1 PUSH1 0xA0 SHL SUB AND GAS STATICCALL DUP1 ISZERO PUSH2 0x46A JUMPI PUSH1 0x0 SWAP1 PUSH2 0x8DE JUMPI JUMPDEST PUSH1 0x20 SWAP1 PUSH1 0x40 MLOAD SWAP1 DUP2 MSTORE RETURN JUMPDEST POP PUSH1 0x20 DUP2 RETURNDATASIZE DUP3 GT PUSH2 0x908 JUMPI JUMPDEST DUP2 PUSH2 0x8F7 PUSH1 0x20 SWAP4 DUP4 PUSH2 0xA4B JUMP JUMPDEST DUP2 ADD SUB SLT PUSH2 0x174 JUMPI PUSH1 0x20 SWAP1 MLOAD PUSH2 0x8D3 JUMP JUMPDEST RETURNDATASIZE SWAP2 POP PUSH2 0x8EA JUMP JUMPDEST CALLVALUE PUSH2 0x174 JUMPI PUSH1 0x0 CALLDATASIZE PUSH1 0x3 NOT ADD SLT PUSH2 0x174 JUMPI PUSH2 0x929 PUSH2 0xC1A JUMP JUMPDEST PUSH1 0x0 DUP1 SLOAD PUSH1 0x1 PUSH1 0x1 PUSH1 0xA0 SHL SUB NOT DUP2 AND DUP3 SSTORE PUSH1 0x1 PUSH1 0x1 PUSH1 0xA0 SHL SUB AND PUSH32 0x8BE0079C531659141344CD1FD0A4F28419497F9722A3DAAFE3B4186F6B6457E0 DUP3 DUP1 LOG3 STOP JUMPDEST CALLVALUE PUSH2 0x174 JUMPI PUSH1 0x20 CALLDATASIZE PUSH1 0x3 NOT ADD SLT PUSH2 0x174 JUMPI PUSH1 0x4 CALLDATALOAD PUSH1 0x1 PUSH1 0x1 PUSH1 0xA0 SHL SUB DUP2 AND SWAP1 DUP2 SWAP1 SUB PUSH2 0x174 JUMPI PUSH2 0x997 PUSH2 0xC1A JUMP JUMPDEST PUSH1 0x1 PUSH1 0x1 PUSH1 0x60 SHL SUB PUSH1 0xA0 SHL PUSH1 0x2 SLOAD AND OR PUSH1 0x2 SSTORE PUSH1 0x0 DUP1 RETURN JUMPDEST CALLVALUE PUSH2 0x174 JUMPI PUSH1 0x20 CALLDATASIZE PUSH1 0x3 NOT ADD SLT PUSH2 0x174 JUMPI PUSH1 0x4 CALLDATALOAD PUSH1 0x1 PUSH1 0x1 PUSH1 0xA0 SHL SUB DUP2 AND SWAP1 DUP2 SWAP1 SUB PUSH2 0x174 JUMPI PUSH1 0x0 DUP1 DUP1 DUP1 SWAP4 PUSH2 0x9E3 PUSH2 0xC1A JUMP JUMPDEST SELFBALANCE SWAP1 DUP3 DUP3 ISZERO PUSH2 0x9F5 JUMPI JUMPDEST CALL ISZERO PUSH2 0x46A JUMPI STOP JUMPDEST POP PUSH2 0x8FC PUSH2 0x9ED JUMP JUMPDEST CALLVALUE PUSH2 0x174 JUMPI PUSH1 0x0 CALLDATASIZE PUSH1 0x3 NOT ADD SLT PUSH2 0x174 JUMPI PUSH1 0x3 SLOAD PUSH1 0x40 MLOAD PUSH1 0x1 PUSH1 0x1 PUSH1 0xA0 SHL SUB SWAP1 SWAP2 AND DUP2 MSTORE PUSH1 0x20 SWAP1 RETURN JUMPDEST CALLVALUE PUSH2 0x174 JUMPI PUSH1 0x0 CALLDATASIZE PUSH1 0x3 NOT ADD SLT PUSH2 0x174 JUMPI PUSH1 0x2 SLOAD PUSH1 0x1 PUSH1 0x1 PUSH1 0xA0 SHL SUB AND DUP2 MSTORE PUSH1 0x20 SWAP1 RETURN JUMPDEST SWAP1 PUSH1 0x1F DUP1 NOT SWAP2 ADD AND DUP2 ADD SWAP1 DUP2 LT PUSH8 0xFFFFFFFFFFFFFFFF DUP3 GT OR PUSH2 0x68D JUMPI PUSH1 0x40 MSTORE JUMP JUMPDEST PUSH8 0xFFFFFFFFFFFFFFFF DUP2 GT PUSH2 0x68D JUMPI PUSH1 0x1F ADD PUSH1 0x1F NOT AND PUSH1 0x20 ADD SWAP1 JUMP JUMPDEST PUSH1 0x20 PUSH1 0x3 NOT DUP3 ADD SLT PUSH2 0x174 JUMPI PUSH1 0x4 CALLDATALOAD PUSH8 0xFFFFFFFFFFFFFFFF DUP2 GT PUSH2 0x174 JUMPI DUP2 PUSH1 0x23 DUP3 ADD SLT ISZERO PUSH2 0x174 JUMPI DUP1 PUSH1 0x4 ADD CALLDATALOAD SWAP1 PUSH2 0xAC1 DUP3 PUSH2 0xA6D JUMP JUMPDEST SWAP3 PUSH2 0xACF PUSH1 0x40 MLOAD SWAP5 DUP6 PUSH2 0xA4B JUMP JUMPDEST DUP3 DUP5 MSTORE PUSH1 0x24 DUP4 DUP4 ADD ADD GT PUSH2 0x174 JUMPI DUP2 PUSH1 0x0 SWAP3 PUSH1 0x24 PUSH1 0x20 SWAP4 ADD DUP4 DUP7 ADD CALLDATACOPY DUP4 ADD ADD MSTORE SWAP1 JUMP JUMPDEST PUSH1 0x0 JUMPDEST DUP4 DUP2 LT PUSH2 0xB05 JUMPI POP POP PUSH1 0x0 SWAP2 ADD MSTORE JUMP JUMPDEST DUP2 DUP2 ADD MLOAD DUP4 DUP3 ADD MSTORE PUSH1 0x20 ADD PUSH2 0xAF5 JUMP JUMPDEST SWAP1 PUSH1 0x1 DUP3 DUP2 SHR SWAP3 AND DUP1 ISZERO PUSH2 0xB45 JUMPI JUMPDEST PUSH1 0x20 DUP4 LT EQ PUSH2 0xB2F JUMPI JUMP JUMPDEST PUSH4 0x4E487B71 PUSH1 0xE0 SHL PUSH1 0x0 MSTORE PUSH1 0x22 PUSH1 0x4 MSTORE PUSH1 0x24 PUSH1 0x0 REVERT JUMPDEST SWAP2 PUSH1 0x7F AND SWAP2 PUSH2 0xB24 JUMP JUMPDEST SWAP1 PUSH1 0x40 MLOAD SWAP2 DUP3 PUSH1 0x0 DUP3 SLOAD SWAP3 PUSH2 0xB63 DUP5 PUSH2 0xB15 JUMP JUMPDEST SWAP1 DUP2 DUP5 MSTORE PUSH1 0x1 SWAP5 DUP6 DUP2 AND SWAP1 DUP2 PUSH1 0x0 EQ PUSH2 0xBD2 JUMPI POP PUSH1 0x1 EQ PUSH2 0xB8F JUMPI JUMPDEST POP POP PUSH2 0xB8D SWAP3 POP SUB DUP4 PUSH2 0xA4B JUMP JUMPDEST JUMP JUMPDEST SWAP1 SWAP4 SWAP2 POP PUSH1 0x0 MSTORE PUSH1 0x20 SWAP1 DUP2 PUSH1 0x0 KECCAK256 SWAP4 PUSH1 0x0 SWAP2 JUMPDEST DUP2 DUP4 LT PUSH2 0xBBA JUMPI POP POP PUSH2 0xB8D SWAP4 POP DUP3 ADD ADD CODESIZE DUP1 PUSH2 0xB7F JUMP JUMPDEST DUP6 SLOAD DUP9 DUP5 ADD DUP6 ADD MSTORE SWAP5 DUP6 ADD SWAP5 DUP8 SWAP5 POP SWAP2 DUP4 ADD SWAP2 PUSH2 0xBA2 JUMP JUMPDEST SWAP2 POP POP PUSH2 0xB8D SWAP5 POP PUSH1 0x20 SWAP3 POP PUSH1 0xFF NOT AND DUP3 DUP5 ADD MSTORE ISZERO ISZERO PUSH1 0x5 SHL DUP3 ADD ADD CODESIZE DUP1 PUSH2 0xB7F JUMP JUMPDEST SWAP1 PUSH1 0x20 SWAP2 PUSH2 0xC0E DUP2 MLOAD DUP1 SWAP3 DUP2 DUP6 MSTORE DUP6 DUP1 DUP7 ADD SWAP2 ADD PUSH2 0xAF2 JUMP JUMPDEST PUSH1 0x1F ADD PUSH1 0x1F NOT AND ADD ADD SWAP1 JUMP JUMPDEST PUSH1 0x0 SLOAD PUSH1 0x1 PUSH1 0x1 PUSH1 0xA0 SHL SUB AND CALLER SUB PUSH2 0xC2E JUMPI JUMP JUMPDEST PUSH1 0x64 PUSH1 0x40 MLOAD PUSH3 0x461BCD PUSH1 0xE5 SHL DUP2 MSTORE PUSH1 0x20 PUSH1 0x4 DUP3 ADD MSTORE PUSH1 0x20 PUSH1 0x24 DUP3 ADD MSTORE PUSH32 0x4F776E61626C653A2063616C6C6572206973206E6F7420746865206F776E6572 PUSH1 0x44 DUP3 ADD MSTORE REVERT JUMPDEST DUP2 PUSH1 0x1F DUP3 ADD SLT ISZERO PUSH2 0x174 JUMPI DUP1 MLOAD PUSH2 0xC88 DUP2 PUSH2 0xA6D JUMP JUMPDEST SWAP3 PUSH2 0xC96 PUSH1 0x40 MLOAD SWAP5 DUP6 PUSH2 0xA4B JUMP JUMPDEST DUP2 DUP5 MSTORE PUSH1 0x20 DUP3 DUP5 ADD ADD GT PUSH2 0x174 JUMPI PUSH2 0xCB4 SWAP2 PUSH1 0x20 DUP1 DUP6 ADD SWAP2 ADD PUSH2 0xAF2 JUMP JUMPDEST SWAP1 JUMP JUMPDEST MLOAD SWAP1 PUSH1 0x1 PUSH1 0x1 PUSH1 0xA0 SHL SUB DUP3 AND DUP3 SUB PUSH2 0x174 JUMPI JUMP JUMPDEST SWAP1 DUP2 PUSH1 0x20 SWAP2 SUB SLT PUSH2 0x174 JUMPI MLOAD DUP1 ISZERO ISZERO DUP2 SUB PUSH2 0x174 JUMPI SWAP1 JUMP JUMPDEST SWAP2 SWAP3 SWAP1 ISZERO PUSH2 0xD45 JUMPI POP DUP2 MLOAD ISZERO PUSH2 0xCF7 JUMPI POP SWAP1 JUMP JUMPDEST EXTCODESIZE ISZERO PUSH2 0xD00 JUMPI SWAP1 JUMP JUMPDEST PUSH1 0x40 MLOAD PUSH3 0x461BCD PUSH1 0xE5 SHL DUP2 MSTORE PUSH1 0x20 PUSH1 0x4 DUP3 ADD MSTORE PUSH1 0x1D PUSH1 0x24 DUP3 ADD MSTORE PUSH32 0x416464726573733A2063616C6C20746F206E6F6E2D636F6E7472616374000000 PUSH1 0x44 DUP3 ADD MSTORE PUSH1 0x64 SWAP1 REVERT JUMPDEST DUP3 MLOAD SWAP1 SWAP2 POP ISZERO PUSH2 0xD58 JUMPI POP DUP1 MLOAD SWAP1 PUSH1 0x20 ADD REVERT JUMPDEST PUSH1 0x40 MLOAD PUSH3 0x461BCD PUSH1 0xE5 SHL DUP2 MSTORE PUSH1 0x20 PUSH1 0x4 DUP3 ADD MSTORE SWAP1 DUP2 SWAP1 PUSH2 0xD7C SWAP1 PUSH1 0x24 DUP4 ADD SWAP1 PUSH2 0xBF5 JUMP JUMPDEST SUB SWAP1 REVERT INVALID LOG2 PUSH5 0x6970667358 0x22 SLT KECCAK256 0xD LOG0 0x1F JUMP 0xD0 0x2F ISZERO DUP13 0xEC SWAP10 0xCD 0xB3 SIGNEXTEND SWAP3 0xA9 0xE6 0xA9 ISZERO SSTORE 0xCE LOG3 0x5E SWAP9 0xDB LOG1 0xC PUSH19 0x866FA9168964736F6C63430008130033000000 "},"gasEstimates":{"creation":{"codeDepositCost":"702000","executionCost":"infinite","totalCost":"infinite"},"external":{"changeTreasuryContract(address)":"26827","changeUsersContract(address)":"26673","encryptedKeys(bytes)":"infinite","fixedFee()":"2456","getHash(bytes)":"infinite","globalFee()":"infinite","owner()":"2436","renounceOwnership()":"28164","submitHash(bytes)":"infinite","transferOwnership(address)":"28380","treasuryContract()":"2304","usersContract()":"2268","withdrawETH(address)":"infinite"}},"methodIdentifiers":{"changeTreasuryContract(address)":"bd87e0c9","changeUsersContract(address)":"70962dd2","encryptedKeys(bytes)":"4b78896d","fixedFee()":"91792d5b","getHash(bytes)":"b00140aa","globalFee()":"808fc206","owner()":"8da5cb5b","renounceOwnership()":"715018a6","submitHash(bytes)":"8f903c79","transferOwnership(address)":"f2fde38b","treasuryContract()":"18da0011","usersContract()":"142ebf3c","withdrawETH(address)":"690d8320"}},"storageLayout":{"storage":[{"astId":7,"contract":"contracts/layer/MecenateSend.sol:MecenateSend","label":"_owner","offset":0,"slot":"0","type":"t_address"},{"astId":1042,"contract":"contracts/layer/MecenateSend.sol:MecenateSend","label":"encryptedKeys","offset":0,"slot":"1","type":"t_mapping(t_bytes_memory_ptr,t_bytes_storage)"},{"astId":1044,"contract":"contracts/layer/MecenateSend.sol:MecenateSend","label":"usersContract","offset":0,"slot":"2","type":"t_address"},{"astId":1046,"contract":"contracts/layer/MecenateSend.sol:MecenateSend","label":"treasuryContract","offset":0,"slot":"3","type":"t_address"},{"astId":1049,"contract":"contracts/layer/MecenateSend.sol:MecenateSend","label":"fixedFee","offset":0,"slot":"4","type":"t_uint256"}],"types":{"t_address":{"encoding":"inplace","label":"address","numberOfBytes":"20"},"t_bytes_memory_ptr":{"encoding":"bytes","label":"bytes","numberOfBytes":"32"},"t_bytes_storage":{"encoding":"bytes","label":"bytes","numberOfBytes":"32"},"t_mapping(t_bytes_memory_ptr,t_bytes_storage)":{"encoding":"mapping","key":"t_bytes_memory_ptr","label":"mapping(bytes => bytes)","numberOfBytes":"32","value":"t_bytes_storage"},"t_uint256":{"encoding":"inplace","label":"uint256","numberOfBytes":"32"}}},"userdoc":{"kind":"user","methods":{},"version":1}}}}