{"contracts/SismoPKP.sol":{"SismoPKP":{"abi":[{"inputs":[],"stateMutability":"nonpayable","type":"constructor"},{"inputs":[],"name":"exportAllData","outputs":[{"internalType":"bytes32[]","name":"","type":"bytes32[]"},{"internalType":"address[]","name":"","type":"address[]"},{"internalType":"string[]","name":"","type":"string[]"},{"internalType":"string[]","name":"","type":"string[]"}],"stateMutability":"view","type":"function"},{"inputs":[{"internalType":"bytes32","name":"encryptedVaultId","type":"bytes32"}],"name":"getWalletInfo","outputs":[{"internalType":"address","name":"","type":"address"},{"internalType":"string","name":"","type":"string"},{"internalType":"string","name":"","type":"string"}],"stateMutability":"view","type":"function"},{"inputs":[{"internalType":"bytes32[]","name":"importedVaultIds","type":"bytes32[]"},{"internalType":"address[]","name":"importedAddresses","type":"address[]"},{"internalType":"string[]","name":"importedPublicKeys","type":"string[]"},{"internalType":"string[]","name":"importedEncryptedPrivateKeys","type":"string[]"}],"name":"importAllData","outputs":[],"stateMutability":"nonpayable","type":"function"},{"inputs":[],"name":"owner","outputs":[{"internalType":"address","name":"","type":"address"}],"stateMutability":"view","type":"function"},{"inputs":[{"internalType":"bytes32","name":"encryptedVaultId","type":"bytes32"},{"internalType":"address","name":"walletAddress","type":"address"},{"internalType":"string","name":"publicKey","type":"string"},{"internalType":"string","name":"encryptedPrivateKey","type":"string"}],"name":"setWalletInfo","outputs":[],"stateMutability":"nonpayable","type":"function"},{"inputs":[{"internalType":"bytes32","name":"","type":"bytes32"}],"name":"vaults","outputs":[{"internalType":"address","name":"walletAddress","type":"address"},{"internalType":"string","name":"publicKey","type":"string"},{"internalType":"string","name":"encryptedPrivateKey","type":"string"}],"stateMutability":"view","type":"function"}],"devdoc":{"kind":"dev","methods":{},"version":1},"evm":{"bytecode":{"linkReferences":{},"object":"6080806040523461002857600080546001600160a01b03191633179055610eb0908161002e8239f35b600080fdfe604060808152600436101561001357600080fd5b60003560e01c806338b66b59146108e35780633bb50d7c146108715780633e557c0f146103b4578063756fe124146100e35780638da5cb5b146100ba5763cca23bf21461005f57600080fd5b346100b55760203660031901126100b557600435600052600160205280600020906100b160018060a01b03835416916100a6600261009f60018701610ce1565b9501610ce1565b905193849384610b45565b0390f35b600080fd5b50346100b55760003660031901126100b55760005490516001600160a01b039091168152602090f35b50346100b55760803660031901126100b5576024356001600160a01b0381811692918390036100b5576001600160401b03906044358281116100b55761012d903690600401610bd1565b906064358381116100b557610146903690600401610bd1565b9484519061015382610b7e565b81526020918282019384528582019687526004356000526001958684526000209151166bffffffffffffffffffffffff60a01b82541617815584810192519283518581116102e5576101a58254610ca7565b94601f9586811161036e575b50849086831160011461030657600294939291600091836102fb575b5050600019600383901b1c191690881b1790555b0194519081519384116102e5576101f88654610ca7565b83811161029f575b508092841160011461023c5750928293918392600094610231575b50501b916000199060031b1c1916179055600080f35b01519250388061021b565b919083601f1981168760005284600020946000905b88838310610285575050501061026c575b505050811b019055005b015160001960f88460031b161c19169055388080610262565b858701518855909601959485019487935090810190610251565b86600052816000208480870160051c8201928488106102dc575b0160051c019086905b8281106102d0575050610200565b600081550186906102c2565b925081926102b9565b634e487b7160e01b600052604160045260246000fd5b0151905038806101cd565b9392918891601f1982169084600052876000209160005b8982821061035857505096836002981061033f575b505050811b0190556101e1565b015160001960f88460031b161c19169055388080610332565b838a015185558d9690940193928301920161031d565b83600052856000208780850160051c8201928886106103ab575b0160051c019089905b82811061039f5750506101b1565b60008155018990610391565b92508192610388565b50346100b55760803660031901126100b557600435906001600160401b0382116100b557366023830112156100b5578160040135916103f283610bba565b926103ff83519485610b99565b8084526024602085019160051b830101913683116100b557602401905b82821061086157505050602435906001600160401b0382116100b557366023830112156100b557816004013561045181610bba565b9261045e83519485610b99565b8184526024602085019260051b820101903682116100b557602401915b818310610841575050506044356001600160401b0381116100b5576104a4903690600401610c27565b926064356001600160401b0381116100b5576104c4903690600401610c27565b906104da60018060a01b03600054163314610d87565b8051845181149081610836575b8161082b575b50156107db5760005b81518110156107d9576001600160a01b036105118287610e50565b511661051d8288610e50565b516105288386610e50565b5186519261053584610b7e565b8352602083019182528683015261054c8385610e50565b516000526001602052856000209060018060a01b038351166bffffffffffffffffffffffff60a01b835416178255519081516001600160401b0381116102e557879261059b6001840154610ca7565b601f8111610782575b50602090601f8311600114610709576002939291600091836106fe575b50508160011b916000199060031b1c19161760018201555b019101518051906001600160401b0382116102e5576105f88354610ca7565b601f81116106b6575b50602090601f831160011461064957610639949392916000918361063e575b50508160011b916000199060031b1c1916179055610e2b565b6104f6565b015190503880610620565b90601f198316918460005260206000209260005b81811061069e57509160019391856106399897969410610685575b505050811b019055610e2b565b015160001960f88460031b161c19169055388080610678565b9293602060018192878601518155019501930161065d565b836000526020600020601f840160051c810191602085106106f4575b601f0160051c01905b8181106106e85750610601565b600081556001016106db565b90915081906106d2565b0151905038806105c1565b939291906001830160005260206000209460005b601f1984168110610767575094829160029596600194601f1981161061074e575b505050811b0160018201556105d9565b015160001960f88460031b161c1916905538808061073e565b8282015187556001909601958b95506020928301920161071d565b9091929350600184016000526020600020601f840160051c8101602085106107d2575b908a95949392915b601f830160051c820181106107c35750506105a4565b600081558b96506001016107ad565b50806107a5565b005b825162461bcd60e51b8152602060048201526024808201527f416c6c20617272617973206d7573742068617665207468652073616d65206c656044820152630dccee8d60e31b6064820152608490fd5b9050825114386104ed565b8651811491506104e7565b82356001600160a01b03811681036100b55781526020928301920161047b565b813581526020918201910161041c565b50346100b55760203660031901126100b5576004356000526001602052806000206100b182516108a081610b7e565b82546001600160a01b0390811682526108ce60026108c060018701610ce1565b956020850196875201610ce1565b91828682015251169251935193849384610b45565b50346100b55760003660031901126100b5576000546001600160a01b03919061090f9083163314610d87565b805190602091828101926001600160401b0394828510868611176102e5578484526000835283519082820196828810908811176102e557868552600082526109578451610de1565b936109628151610de1565b9760005b8251811015610a06578061097d610a019285610e50565b51600052600180885289866109ba60026109ad846000209451956109a087610b7e565b8486541687528501610ce1565b938c860194855201610ce1565b928c810193845251166109cd848a610e50565b52516109d9838b610e50565b526109e4828a610e50565b50516109f0828d610e50565b526109fb818c610e50565b50610e2b565b610966565b50949397959297969096835198899860808a019060808b525180915260a08a01939060005b818110610a9257505050888303898301525180835291810195926000905b838210610a7557898803868b015289806100b18b610a678c8c610ae9565b908382036060850152610ae9565b8451811688528a9950968201969382019360019190910190610a49565b825186528c9b509484019491840191600101610a2b565b919082519283825260005b848110610ad5575050826000602080949584010152601f8019910116010190565b602081830181015184830182015201610ab4565b908082519081815260208091019281808460051b8301019501936000915b848310610b175750505050505090565b9091929394958480610b35600193601f198682030187528a51610aa9565b9801930193019194939290610b07565b6001600160a01b039091168152606060208201819052610b7b939192610b6d91840190610aa9565b916040818403910152610aa9565b90565b606081019081106001600160401b038211176102e557604052565b90601f801991011681019081106001600160401b038211176102e557604052565b6001600160401b0381116102e55760051b60200190565b81601f820112156100b5578035906001600160401b0382116102e55760405192610c05601f8401601f191660200185610b99565b828452602083830101116100b557816000926020809301838601378301015290565b9080601f830112156100b557813590610c3f82610bba565b92610c4d6040519485610b99565b828452602092838086019160051b830101928084116100b557848301915b848310610c7b5750505050505090565b82356001600160401b0381116100b5578691610c9c84848094890101610bd1565b815201920191610c6b565b90600182811c92168015610cd7575b6020831014610cc157565b634e487b7160e01b600052602260045260246000fd5b91607f1691610cb6565b9060405191826000825492610cf584610ca7565b908184526001948581169081600014610d645750600114610d21575b5050610d1f92500383610b99565b565b9093915060005260209081600020936000915b818310610d4c575050610d1f93508201013880610d11565b85548884018501529485019487945091830191610d34565b915050610d1f94506020925060ff191682840152151560051b8201013880610d11565b15610d8e57565b60405162461bcd60e51b815260206004820152602560248201527f4f6e6c7920746865206f776e65722063616e2063616c6c20746869732066756e60448201526431ba34b7b760d91b6064820152608490fd5b90610deb82610bba565b610df86040519182610b99565b8281528092610e09601f1991610bba565b019060005b828110610e1a57505050565b806060602080938501015201610e0e565b6000198114610e3a5760010190565b634e487b7160e01b600052601160045260246000fd5b8051821015610e645760209160051b010190565b634e487b7160e01b600052603260045260246000fdfea264697066735822122094d53e8bd6db4d6cca8af1f0d5834a3ee9bdb70f69f2ae3b66517313e7a9013464736f6c63430008130033","opcodes":"PUSH1 0x80 DUP1 PUSH1 0x40 MSTORE CALLVALUE PUSH2 0x28 JUMPI PUSH1 0x0 DUP1 SLOAD PUSH1 0x1 PUSH1 0x1 PUSH1 0xA0 SHL SUB NOT AND CALLER OR SWAP1 SSTORE PUSH2 0xEB0 SWAP1 DUP2 PUSH2 0x2E DUP3 CODECOPY RETURN JUMPDEST PUSH1 0x0 DUP1 REVERT INVALID PUSH1 0x40 PUSH1 0x80 DUP2 MSTORE PUSH1 0x4 CALLDATASIZE LT ISZERO PUSH2 0x13 JUMPI PUSH1 0x0 DUP1 REVERT JUMPDEST PUSH1 0x0 CALLDATALOAD PUSH1 0xE0 SHR DUP1 PUSH4 0x38B66B59 EQ PUSH2 0x8E3 JUMPI DUP1 PUSH4 0x3BB50D7C EQ PUSH2 0x871 JUMPI DUP1 PUSH4 0x3E557C0F EQ PUSH2 0x3B4 JUMPI DUP1 PUSH4 0x756FE124 EQ PUSH2 0xE3 JUMPI DUP1 PUSH4 0x8DA5CB5B EQ PUSH2 0xBA JUMPI PUSH4 0xCCA23BF2 EQ PUSH2 0x5F JUMPI PUSH1 0x0 DUP1 REVERT JUMPDEST CALLVALUE PUSH2 0xB5 JUMPI PUSH1 0x20 CALLDATASIZE PUSH1 0x3 NOT ADD SLT PUSH2 0xB5 JUMPI PUSH1 0x4 CALLDATALOAD PUSH1 0x0 MSTORE PUSH1 0x1 PUSH1 0x20 MSTORE DUP1 PUSH1 0x0 KECCAK256 SWAP1 PUSH2 0xB1 PUSH1 0x1 DUP1 PUSH1 0xA0 SHL SUB DUP4 SLOAD AND SWAP2 PUSH2 0xA6 PUSH1 0x2 PUSH2 0x9F PUSH1 0x1 DUP8 ADD PUSH2 0xCE1 JUMP JUMPDEST SWAP6 ADD PUSH2 0xCE1 JUMP JUMPDEST SWAP1 MLOAD SWAP4 DUP5 SWAP4 DUP5 PUSH2 0xB45 JUMP JUMPDEST SUB SWAP1 RETURN JUMPDEST PUSH1 0x0 DUP1 REVERT JUMPDEST POP CALLVALUE PUSH2 0xB5 JUMPI PUSH1 0x0 CALLDATASIZE PUSH1 0x3 NOT ADD SLT PUSH2 0xB5 JUMPI PUSH1 0x0 SLOAD SWAP1 MLOAD PUSH1 0x1 PUSH1 0x1 PUSH1 0xA0 SHL SUB SWAP1 SWAP2 AND DUP2 MSTORE PUSH1 0x20 SWAP1 RETURN JUMPDEST POP CALLVALUE PUSH2 0xB5 JUMPI PUSH1 0x80 CALLDATASIZE PUSH1 0x3 NOT ADD SLT PUSH2 0xB5 JUMPI PUSH1 0x24 CALLDATALOAD PUSH1 0x1 PUSH1 0x1 PUSH1 0xA0 SHL SUB DUP2 DUP2 AND SWAP3 SWAP2 DUP4 SWAP1 SUB PUSH2 0xB5 JUMPI PUSH1 0x1 PUSH1 0x1 PUSH1 0x40 SHL SUB SWAP1 PUSH1 0x44 CALLDATALOAD DUP3 DUP2 GT PUSH2 0xB5 JUMPI PUSH2 0x12D SWAP1 CALLDATASIZE SWAP1 PUSH1 0x4 ADD PUSH2 0xBD1 JUMP JUMPDEST SWAP1 PUSH1 0x64 CALLDATALOAD DUP4 DUP2 GT PUSH2 0xB5 JUMPI PUSH2 0x146 SWAP1 CALLDATASIZE SWAP1 PUSH1 0x4 ADD PUSH2 0xBD1 JUMP JUMPDEST SWAP5 DUP5 MLOAD SWAP1 PUSH2 0x153 DUP3 PUSH2 0xB7E JUMP JUMPDEST DUP2 MSTORE PUSH1 0x20 SWAP2 DUP3 DUP3 ADD SWAP4 DUP5 MSTORE DUP6 DUP3 ADD SWAP7 DUP8 MSTORE PUSH1 0x4 CALLDATALOAD PUSH1 0x0 MSTORE PUSH1 0x1 SWAP6 DUP7 DUP5 MSTORE PUSH1 0x0 KECCAK256 SWAP2 MLOAD AND PUSH12 0xFFFFFFFFFFFFFFFFFFFFFFFF PUSH1 0xA0 SHL DUP3 SLOAD AND OR DUP2 SSTORE DUP5 DUP2 ADD SWAP3 MLOAD SWAP3 DUP4 MLOAD DUP6 DUP2 GT PUSH2 0x2E5 JUMPI PUSH2 0x1A5 DUP3 SLOAD PUSH2 0xCA7 JUMP JUMPDEST SWAP5 PUSH1 0x1F SWAP6 DUP7 DUP2 GT PUSH2 0x36E JUMPI JUMPDEST POP DUP5 SWAP1 DUP7 DUP4 GT PUSH1 0x1 EQ PUSH2 0x306 JUMPI PUSH1 0x2 SWAP5 SWAP4 SWAP3 SWAP2 PUSH1 0x0 SWAP2 DUP4 PUSH2 0x2FB JUMPI JUMPDEST POP POP PUSH1 0x0 NOT PUSH1 0x3 DUP4 SWAP1 SHL SHR NOT AND SWAP1 DUP9 SHL OR SWAP1 SSTORE JUMPDEST ADD SWAP5 MLOAD SWAP1 DUP2 MLOAD SWAP4 DUP5 GT PUSH2 0x2E5 JUMPI PUSH2 0x1F8 DUP7 SLOAD PUSH2 0xCA7 JUMP JUMPDEST DUP4 DUP2 GT PUSH2 0x29F JUMPI JUMPDEST POP DUP1 SWAP3 DUP5 GT PUSH1 0x1 EQ PUSH2 0x23C JUMPI POP SWAP3 DUP3 SWAP4 SWAP2 DUP4 SWAP3 PUSH1 0x0 SWAP5 PUSH2 0x231 JUMPI JUMPDEST POP POP SHL SWAP2 PUSH1 0x0 NOT SWAP1 PUSH1 0x3 SHL SHR NOT AND OR SWAP1 SSTORE PUSH1 0x0 DUP1 RETURN JUMPDEST ADD MLOAD SWAP3 POP CODESIZE DUP1 PUSH2 0x21B JUMP JUMPDEST SWAP2 SWAP1 DUP4 PUSH1 0x1F NOT DUP2 AND DUP8 PUSH1 0x0 MSTORE DUP5 PUSH1 0x0 KECCAK256 SWAP5 PUSH1 0x0 SWAP1 JUMPDEST DUP9 DUP4 DUP4 LT PUSH2 0x285 JUMPI POP POP POP LT PUSH2 0x26C JUMPI JUMPDEST POP POP POP DUP2 SHL ADD SWAP1 SSTORE STOP JUMPDEST ADD MLOAD PUSH1 0x0 NOT PUSH1 0xF8 DUP5 PUSH1 0x3 SHL AND SHR NOT AND SWAP1 SSTORE CODESIZE DUP1 DUP1 PUSH2 0x262 JUMP JUMPDEST DUP6 DUP8 ADD MLOAD DUP9 SSTORE SWAP1 SWAP7 ADD SWAP6 SWAP5 DUP6 ADD SWAP5 DUP8 SWAP4 POP SWAP1 DUP2 ADD SWAP1 PUSH2 0x251 JUMP JUMPDEST DUP7 PUSH1 0x0 MSTORE DUP2 PUSH1 0x0 KECCAK256 DUP5 DUP1 DUP8 ADD PUSH1 0x5 SHR DUP3 ADD SWAP3 DUP5 DUP9 LT PUSH2 0x2DC JUMPI JUMPDEST ADD PUSH1 0x5 SHR ADD SWAP1 DUP7 SWAP1 JUMPDEST DUP3 DUP2 LT PUSH2 0x2D0 JUMPI POP POP PUSH2 0x200 JUMP JUMPDEST PUSH1 0x0 DUP2 SSTORE ADD DUP7 SWAP1 PUSH2 0x2C2 JUMP JUMPDEST SWAP3 POP DUP2 SWAP3 PUSH2 0x2B9 JUMP JUMPDEST PUSH4 0x4E487B71 PUSH1 0xE0 SHL PUSH1 0x0 MSTORE PUSH1 0x41 PUSH1 0x4 MSTORE PUSH1 0x24 PUSH1 0x0 REVERT JUMPDEST ADD MLOAD SWAP1 POP CODESIZE DUP1 PUSH2 0x1CD JUMP JUMPDEST SWAP4 SWAP3 SWAP2 DUP9 SWAP2 PUSH1 0x1F NOT DUP3 AND SWAP1 DUP5 PUSH1 0x0 MSTORE DUP8 PUSH1 0x0 KECCAK256 SWAP2 PUSH1 0x0 JUMPDEST DUP10 DUP3 DUP3 LT PUSH2 0x358 JUMPI POP POP SWAP7 DUP4 PUSH1 0x2 SWAP9 LT PUSH2 0x33F JUMPI JUMPDEST POP POP POP DUP2 SHL ADD SWAP1 SSTORE PUSH2 0x1E1 JUMP JUMPDEST ADD MLOAD PUSH1 0x0 NOT PUSH1 0xF8 DUP5 PUSH1 0x3 SHL AND SHR NOT AND SWAP1 SSTORE CODESIZE DUP1 DUP1 PUSH2 0x332 JUMP JUMPDEST DUP4 DUP11 ADD MLOAD DUP6 SSTORE DUP14 SWAP7 SWAP1 SWAP5 ADD SWAP4 SWAP3 DUP4 ADD SWAP3 ADD PUSH2 0x31D JUMP JUMPDEST DUP4 PUSH1 0x0 MSTORE DUP6 PUSH1 0x0 KECCAK256 DUP8 DUP1 DUP6 ADD PUSH1 0x5 SHR DUP3 ADD SWAP3 DUP9 DUP7 LT PUSH2 0x3AB JUMPI JUMPDEST ADD PUSH1 0x5 SHR ADD SWAP1 DUP10 SWAP1 JUMPDEST DUP3 DUP2 LT PUSH2 0x39F JUMPI POP POP PUSH2 0x1B1 JUMP JUMPDEST PUSH1 0x0 DUP2 SSTORE ADD DUP10 SWAP1 PUSH2 0x391 JUMP JUMPDEST SWAP3 POP DUP2 SWAP3 PUSH2 0x388 JUMP JUMPDEST POP CALLVALUE PUSH2 0xB5 JUMPI PUSH1 0x80 CALLDATASIZE PUSH1 0x3 NOT ADD SLT PUSH2 0xB5 JUMPI PUSH1 0x4 CALLDATALOAD SWAP1 PUSH1 0x1 PUSH1 0x1 PUSH1 0x40 SHL SUB DUP3 GT PUSH2 0xB5 JUMPI CALLDATASIZE PUSH1 0x23 DUP4 ADD SLT ISZERO PUSH2 0xB5 JUMPI DUP2 PUSH1 0x4 ADD CALLDATALOAD SWAP2 PUSH2 0x3F2 DUP4 PUSH2 0xBBA JUMP JUMPDEST SWAP3 PUSH2 0x3FF DUP4 MLOAD SWAP5 DUP6 PUSH2 0xB99 JUMP JUMPDEST DUP1 DUP5 MSTORE PUSH1 0x24 PUSH1 0x20 DUP6 ADD SWAP2 PUSH1 0x5 SHL DUP4 ADD ADD SWAP2 CALLDATASIZE DUP4 GT PUSH2 0xB5 JUMPI PUSH1 0x24 ADD SWAP1 JUMPDEST DUP3 DUP3 LT PUSH2 0x861 JUMPI POP POP POP PUSH1 0x24 CALLDATALOAD SWAP1 PUSH1 0x1 PUSH1 0x1 PUSH1 0x40 SHL SUB DUP3 GT PUSH2 0xB5 JUMPI CALLDATASIZE PUSH1 0x23 DUP4 ADD SLT ISZERO PUSH2 0xB5 JUMPI DUP2 PUSH1 0x4 ADD CALLDATALOAD PUSH2 0x451 DUP2 PUSH2 0xBBA JUMP JUMPDEST SWAP3 PUSH2 0x45E DUP4 MLOAD SWAP5 DUP6 PUSH2 0xB99 JUMP JUMPDEST DUP2 DUP5 MSTORE PUSH1 0x24 PUSH1 0x20 DUP6 ADD SWAP3 PUSH1 0x5 SHL DUP3 ADD ADD SWAP1 CALLDATASIZE DUP3 GT PUSH2 0xB5 JUMPI PUSH1 0x24 ADD SWAP2 JUMPDEST DUP2 DUP4 LT PUSH2 0x841 JUMPI POP POP POP PUSH1 0x44 CALLDATALOAD PUSH1 0x1 PUSH1 0x1 PUSH1 0x40 SHL SUB DUP2 GT PUSH2 0xB5 JUMPI PUSH2 0x4A4 SWAP1 CALLDATASIZE SWAP1 PUSH1 0x4 ADD PUSH2 0xC27 JUMP JUMPDEST SWAP3 PUSH1 0x64 CALLDATALOAD PUSH1 0x1 PUSH1 0x1 PUSH1 0x40 SHL SUB DUP2 GT PUSH2 0xB5 JUMPI PUSH2 0x4C4 SWAP1 CALLDATASIZE SWAP1 PUSH1 0x4 ADD PUSH2 0xC27 JUMP JUMPDEST SWAP1 PUSH2 0x4DA PUSH1 0x1 DUP1 PUSH1 0xA0 SHL SUB PUSH1 0x0 SLOAD AND CALLER EQ PUSH2 0xD87 JUMP JUMPDEST DUP1 MLOAD DUP5 MLOAD DUP2 EQ SWAP1 DUP2 PUSH2 0x836 JUMPI JUMPDEST DUP2 PUSH2 0x82B JUMPI JUMPDEST POP ISZERO PUSH2 0x7DB JUMPI PUSH1 0x0 JUMPDEST DUP2 MLOAD DUP2 LT ISZERO PUSH2 0x7D9 JUMPI PUSH1 0x1 PUSH1 0x1 PUSH1 0xA0 SHL SUB PUSH2 0x511 DUP3 DUP8 PUSH2 0xE50 JUMP JUMPDEST MLOAD AND PUSH2 0x51D DUP3 DUP9 PUSH2 0xE50 JUMP JUMPDEST MLOAD PUSH2 0x528 DUP4 DUP7 PUSH2 0xE50 JUMP JUMPDEST MLOAD DUP7 MLOAD SWAP3 PUSH2 0x535 DUP5 PUSH2 0xB7E JUMP JUMPDEST DUP4 MSTORE PUSH1 0x20 DUP4 ADD SWAP2 DUP3 MSTORE DUP7 DUP4 ADD MSTORE PUSH2 0x54C DUP4 DUP6 PUSH2 0xE50 JUMP JUMPDEST MLOAD PUSH1 0x0 MSTORE PUSH1 0x1 PUSH1 0x20 MSTORE DUP6 PUSH1 0x0 KECCAK256 SWAP1 PUSH1 0x1 DUP1 PUSH1 0xA0 SHL SUB DUP4 MLOAD AND PUSH12 0xFFFFFFFFFFFFFFFFFFFFFFFF PUSH1 0xA0 SHL DUP4 SLOAD AND OR DUP3 SSTORE MLOAD SWAP1 DUP2 MLOAD PUSH1 0x1 PUSH1 0x1 PUSH1 0x40 SHL SUB DUP2 GT PUSH2 0x2E5 JUMPI DUP8 SWAP3 PUSH2 0x59B PUSH1 0x1 DUP5 ADD SLOAD PUSH2 0xCA7 JUMP JUMPDEST PUSH1 0x1F DUP2 GT PUSH2 0x782 JUMPI JUMPDEST POP PUSH1 0x20 SWAP1 PUSH1 0x1F DUP4 GT PUSH1 0x1 EQ PUSH2 0x709 JUMPI PUSH1 0x2 SWAP4 SWAP3 SWAP2 PUSH1 0x0 SWAP2 DUP4 PUSH2 0x6FE JUMPI JUMPDEST POP POP DUP2 PUSH1 0x1 SHL SWAP2 PUSH1 0x0 NOT SWAP1 PUSH1 0x3 SHL SHR NOT AND OR PUSH1 0x1 DUP3 ADD SSTORE JUMPDEST ADD SWAP2 ADD MLOAD DUP1 MLOAD SWAP1 PUSH1 0x1 PUSH1 0x1 PUSH1 0x40 SHL SUB DUP3 GT PUSH2 0x2E5 JUMPI PUSH2 0x5F8 DUP4 SLOAD PUSH2 0xCA7 JUMP JUMPDEST PUSH1 0x1F DUP2 GT PUSH2 0x6B6 JUMPI JUMPDEST POP PUSH1 0x20 SWAP1 PUSH1 0x1F DUP4 GT PUSH1 0x1 EQ PUSH2 0x649 JUMPI PUSH2 0x639 SWAP5 SWAP4 SWAP3 SWAP2 PUSH1 0x0 SWAP2 DUP4 PUSH2 0x63E JUMPI JUMPDEST POP POP DUP2 PUSH1 0x1 SHL SWAP2 PUSH1 0x0 NOT SWAP1 PUSH1 0x3 SHL SHR NOT AND OR SWAP1 SSTORE PUSH2 0xE2B JUMP JUMPDEST PUSH2 0x4F6 JUMP JUMPDEST ADD MLOAD SWAP1 POP CODESIZE DUP1 PUSH2 0x620 JUMP JUMPDEST SWAP1 PUSH1 0x1F NOT DUP4 AND SWAP2 DUP5 PUSH1 0x0 MSTORE PUSH1 0x20 PUSH1 0x0 KECCAK256 SWAP3 PUSH1 0x0 JUMPDEST DUP2 DUP2 LT PUSH2 0x69E JUMPI POP SWAP2 PUSH1 0x1 SWAP4 SWAP2 DUP6 PUSH2 0x639 SWAP9 SWAP8 SWAP7 SWAP5 LT PUSH2 0x685 JUMPI JUMPDEST POP POP POP DUP2 SHL ADD SWAP1 SSTORE PUSH2 0xE2B JUMP JUMPDEST ADD MLOAD PUSH1 0x0 NOT PUSH1 0xF8 DUP5 PUSH1 0x3 SHL AND SHR NOT AND SWAP1 SSTORE CODESIZE DUP1 DUP1 PUSH2 0x678 JUMP JUMPDEST SWAP3 SWAP4 PUSH1 0x20 PUSH1 0x1 DUP2 SWAP3 DUP8 DUP7 ADD MLOAD DUP2 SSTORE ADD SWAP6 ADD SWAP4 ADD PUSH2 0x65D JUMP JUMPDEST DUP4 PUSH1 0x0 MSTORE PUSH1 0x20 PUSH1 0x0 KECCAK256 PUSH1 0x1F DUP5 ADD PUSH1 0x5 SHR DUP2 ADD SWAP2 PUSH1 0x20 DUP6 LT PUSH2 0x6F4 JUMPI JUMPDEST PUSH1 0x1F ADD PUSH1 0x5 SHR ADD SWAP1 JUMPDEST DUP2 DUP2 LT PUSH2 0x6E8 JUMPI POP PUSH2 0x601 JUMP JUMPDEST PUSH1 0x0 DUP2 SSTORE PUSH1 0x1 ADD PUSH2 0x6DB JUMP JUMPDEST SWAP1 SWAP2 POP DUP2 SWAP1 PUSH2 0x6D2 JUMP JUMPDEST ADD MLOAD SWAP1 POP CODESIZE DUP1 PUSH2 0x5C1 JUMP JUMPDEST SWAP4 SWAP3 SWAP2 SWAP1 PUSH1 0x1 DUP4 ADD PUSH1 0x0 MSTORE PUSH1 0x20 PUSH1 0x0 KECCAK256 SWAP5 PUSH1 0x0 JUMPDEST PUSH1 0x1F NOT DUP5 AND DUP2 LT PUSH2 0x767 JUMPI POP SWAP5 DUP3 SWAP2 PUSH1 0x2 SWAP6 SWAP7 PUSH1 0x1 SWAP5 PUSH1 0x1F NOT DUP2 AND LT PUSH2 0x74E JUMPI JUMPDEST POP POP POP DUP2 SHL ADD PUSH1 0x1 DUP3 ADD SSTORE PUSH2 0x5D9 JUMP JUMPDEST ADD MLOAD PUSH1 0x0 NOT PUSH1 0xF8 DUP5 PUSH1 0x3 SHL AND SHR NOT AND SWAP1 SSTORE CODESIZE DUP1 DUP1 PUSH2 0x73E JUMP JUMPDEST DUP3 DUP3 ADD MLOAD DUP8 SSTORE PUSH1 0x1 SWAP1 SWAP7 ADD SWAP6 DUP12 SWAP6 POP PUSH1 0x20 SWAP3 DUP4 ADD SWAP3 ADD PUSH2 0x71D JUMP JUMPDEST SWAP1 SWAP2 SWAP3 SWAP4 POP PUSH1 0x1 DUP5 ADD PUSH1 0x0 MSTORE PUSH1 0x20 PUSH1 0x0 KECCAK256 PUSH1 0x1F DUP5 ADD PUSH1 0x5 SHR DUP2 ADD PUSH1 0x20 DUP6 LT PUSH2 0x7D2 JUMPI JUMPDEST SWAP1 DUP11 SWAP6 SWAP5 SWAP4 SWAP3 SWAP2 JUMPDEST PUSH1 0x1F DUP4 ADD PUSH1 0x5 SHR DUP3 ADD DUP2 LT PUSH2 0x7C3 JUMPI POP POP PUSH2 0x5A4 JUMP JUMPDEST PUSH1 0x0 DUP2 SSTORE DUP12 SWAP7 POP PUSH1 0x1 ADD PUSH2 0x7AD JUMP JUMPDEST POP DUP1 PUSH2 0x7A5 JUMP JUMPDEST STOP JUMPDEST DUP3 MLOAD PUSH3 0x461BCD PUSH1 0xE5 SHL DUP2 MSTORE PUSH1 0x20 PUSH1 0x4 DUP3 ADD MSTORE PUSH1 0x24 DUP1 DUP3 ADD MSTORE PUSH32 0x416C6C20617272617973206D7573742068617665207468652073616D65206C65 PUSH1 0x44 DUP3 ADD MSTORE PUSH4 0xDCCEE8D PUSH1 0xE3 SHL PUSH1 0x64 DUP3 ADD MSTORE PUSH1 0x84 SWAP1 REVERT JUMPDEST SWAP1 POP DUP3 MLOAD EQ CODESIZE PUSH2 0x4ED JUMP JUMPDEST DUP7 MLOAD DUP2 EQ SWAP2 POP PUSH2 0x4E7 JUMP JUMPDEST DUP3 CALLDATALOAD PUSH1 0x1 PUSH1 0x1 PUSH1 0xA0 SHL SUB DUP2 AND DUP2 SUB PUSH2 0xB5 JUMPI DUP2 MSTORE PUSH1 0x20 SWAP3 DUP4 ADD SWAP3 ADD PUSH2 0x47B JUMP JUMPDEST DUP2 CALLDATALOAD DUP2 MSTORE PUSH1 0x20 SWAP2 DUP3 ADD SWAP2 ADD PUSH2 0x41C JUMP JUMPDEST POP CALLVALUE PUSH2 0xB5 JUMPI PUSH1 0x20 CALLDATASIZE PUSH1 0x3 NOT ADD SLT PUSH2 0xB5 JUMPI PUSH1 0x4 CALLDATALOAD PUSH1 0x0 MSTORE PUSH1 0x1 PUSH1 0x20 MSTORE DUP1 PUSH1 0x0 KECCAK256 PUSH2 0xB1 DUP3 MLOAD PUSH2 0x8A0 DUP2 PUSH2 0xB7E JUMP JUMPDEST DUP3 SLOAD PUSH1 0x1 PUSH1 0x1 PUSH1 0xA0 SHL SUB SWAP1 DUP2 AND DUP3 MSTORE PUSH2 0x8CE PUSH1 0x2 PUSH2 0x8C0 PUSH1 0x1 DUP8 ADD PUSH2 0xCE1 JUMP JUMPDEST SWAP6 PUSH1 0x20 DUP6 ADD SWAP7 DUP8 MSTORE ADD PUSH2 0xCE1 JUMP JUMPDEST SWAP2 DUP3 DUP7 DUP3 ADD MSTORE MLOAD AND SWAP3 MLOAD SWAP4 MLOAD SWAP4 DUP5 SWAP4 DUP5 PUSH2 0xB45 JUMP JUMPDEST POP CALLVALUE PUSH2 0xB5 JUMPI PUSH1 0x0 CALLDATASIZE PUSH1 0x3 NOT ADD SLT PUSH2 0xB5 JUMPI PUSH1 0x0 SLOAD PUSH1 0x1 PUSH1 0x1 PUSH1 0xA0 SHL SUB SWAP2 SWAP1 PUSH2 0x90F SWAP1 DUP4 AND CALLER EQ PUSH2 0xD87 JUMP JUMPDEST DUP1 MLOAD SWAP1 PUSH1 0x20 SWAP2 DUP3 DUP2 ADD SWAP3 PUSH1 0x1 PUSH1 0x1 PUSH1 0x40 SHL SUB SWAP5 DUP3 DUP6 LT DUP7 DUP7 GT OR PUSH2 0x2E5 JUMPI DUP5 DUP5 MSTORE PUSH1 0x0 DUP4 MSTORE DUP4 MLOAD SWAP1 DUP3 DUP3 ADD SWAP7 DUP3 DUP9 LT SWAP1 DUP9 GT OR PUSH2 0x2E5 JUMPI DUP7 DUP6 MSTORE PUSH1 0x0 DUP3 MSTORE PUSH2 0x957 DUP5 MLOAD PUSH2 0xDE1 JUMP JUMPDEST SWAP4 PUSH2 0x962 DUP2 MLOAD PUSH2 0xDE1 JUMP JUMPDEST SWAP8 PUSH1 0x0 JUMPDEST DUP3 MLOAD DUP2 LT ISZERO PUSH2 0xA06 JUMPI DUP1 PUSH2 0x97D PUSH2 0xA01 SWAP3 DUP6 PUSH2 0xE50 JUMP JUMPDEST MLOAD PUSH1 0x0 MSTORE PUSH1 0x1 DUP1 DUP9 MSTORE DUP10 DUP7 PUSH2 0x9BA PUSH1 0x2 PUSH2 0x9AD DUP5 PUSH1 0x0 KECCAK256 SWAP5 MLOAD SWAP6 PUSH2 0x9A0 DUP8 PUSH2 0xB7E JUMP JUMPDEST DUP5 DUP7 SLOAD AND DUP8 MSTORE DUP6 ADD PUSH2 0xCE1 JUMP JUMPDEST SWAP4 DUP13 DUP7 ADD SWAP5 DUP6 MSTORE ADD PUSH2 0xCE1 JUMP JUMPDEST SWAP3 DUP13 DUP2 ADD SWAP4 DUP5 MSTORE MLOAD AND PUSH2 0x9CD DUP5 DUP11 PUSH2 0xE50 JUMP JUMPDEST MSTORE MLOAD PUSH2 0x9D9 DUP4 DUP12 PUSH2 0xE50 JUMP JUMPDEST MSTORE PUSH2 0x9E4 DUP3 DUP11 PUSH2 0xE50 JUMP JUMPDEST POP MLOAD PUSH2 0x9F0 DUP3 DUP14 PUSH2 0xE50 JUMP JUMPDEST MSTORE PUSH2 0x9FB DUP2 DUP13 PUSH2 0xE50 JUMP JUMPDEST POP PUSH2 0xE2B JUMP JUMPDEST PUSH2 0x966 JUMP JUMPDEST POP SWAP5 SWAP4 SWAP8 SWAP6 SWAP3 SWAP8 SWAP7 SWAP1 SWAP7 DUP4 MLOAD SWAP9 DUP10 SWAP9 PUSH1 0x80 DUP11 ADD SWAP1 PUSH1 0x80 DUP12 MSTORE MLOAD DUP1 SWAP2 MSTORE PUSH1 0xA0 DUP11 ADD SWAP4 SWAP1 PUSH1 0x0 JUMPDEST DUP2 DUP2 LT PUSH2 0xA92 JUMPI POP POP POP DUP9 DUP4 SUB DUP10 DUP4 ADD MSTORE MLOAD DUP1 DUP4 MSTORE SWAP2 DUP2 ADD SWAP6 SWAP3 PUSH1 0x0 SWAP1 JUMPDEST DUP4 DUP3 LT PUSH2 0xA75 JUMPI DUP10 DUP9 SUB DUP7 DUP12 ADD MSTORE DUP10 DUP1 PUSH2 0xB1 DUP12 PUSH2 0xA67 DUP13 DUP13 PUSH2 0xAE9 JUMP JUMPDEST SWAP1 DUP4 DUP3 SUB PUSH1 0x60 DUP6 ADD MSTORE PUSH2 0xAE9 JUMP JUMPDEST DUP5 MLOAD DUP2 AND DUP9 MSTORE DUP11 SWAP10 POP SWAP7 DUP3 ADD SWAP7 SWAP4 DUP3 ADD SWAP4 PUSH1 0x1 SWAP2 SWAP1 SWAP2 ADD SWAP1 PUSH2 0xA49 JUMP JUMPDEST DUP3 MLOAD DUP7 MSTORE DUP13 SWAP12 POP SWAP5 DUP5 ADD SWAP5 SWAP2 DUP5 ADD SWAP2 PUSH1 0x1 ADD PUSH2 0xA2B JUMP JUMPDEST SWAP2 SWAP1 DUP3 MLOAD SWAP3 DUP4 DUP3 MSTORE PUSH1 0x0 JUMPDEST DUP5 DUP2 LT PUSH2 0xAD5 JUMPI POP POP DUP3 PUSH1 0x0 PUSH1 0x20 DUP1 SWAP5 SWAP6 DUP5 ADD ADD MSTORE PUSH1 0x1F DUP1 NOT SWAP2 ADD AND ADD ADD SWAP1 JUMP JUMPDEST PUSH1 0x20 DUP2 DUP4 ADD DUP2 ADD MLOAD DUP5 DUP4 ADD DUP3 ADD MSTORE ADD PUSH2 0xAB4 JUMP JUMPDEST SWAP1 DUP1 DUP3 MLOAD SWAP1 DUP2 DUP2 MSTORE PUSH1 0x20 DUP1 SWAP2 ADD SWAP3 DUP2 DUP1 DUP5 PUSH1 0x5 SHL DUP4 ADD ADD SWAP6 ADD SWAP4 PUSH1 0x0 SWAP2 JUMPDEST DUP5 DUP4 LT PUSH2 0xB17 JUMPI POP POP POP POP POP POP SWAP1 JUMP JUMPDEST SWAP1 SWAP2 SWAP3 SWAP4 SWAP5 SWAP6 DUP5 DUP1 PUSH2 0xB35 PUSH1 0x1 SWAP4 PUSH1 0x1F NOT DUP7 DUP3 SUB ADD DUP8 MSTORE DUP11 MLOAD PUSH2 0xAA9 JUMP JUMPDEST SWAP9 ADD SWAP4 ADD SWAP4 ADD SWAP2 SWAP5 SWAP4 SWAP3 SWAP1 PUSH2 0xB07 JUMP JUMPDEST PUSH1 0x1 PUSH1 0x1 PUSH1 0xA0 SHL SUB SWAP1 SWAP2 AND DUP2 MSTORE PUSH1 0x60 PUSH1 0x20 DUP3 ADD DUP2 SWAP1 MSTORE PUSH2 0xB7B SWAP4 SWAP2 SWAP3 PUSH2 0xB6D SWAP2 DUP5 ADD SWAP1 PUSH2 0xAA9 JUMP JUMPDEST SWAP2 PUSH1 0x40 DUP2 DUP5 SUB SWAP2 ADD MSTORE PUSH2 0xAA9 JUMP JUMPDEST SWAP1 JUMP JUMPDEST PUSH1 0x60 DUP2 ADD SWAP1 DUP2 LT PUSH1 0x1 PUSH1 0x1 PUSH1 0x40 SHL SUB DUP3 GT OR PUSH2 0x2E5 JUMPI PUSH1 0x40 MSTORE JUMP JUMPDEST SWAP1 PUSH1 0x1F DUP1 NOT SWAP2 ADD AND DUP2 ADD SWAP1 DUP2 LT PUSH1 0x1 PUSH1 0x1 PUSH1 0x40 SHL SUB DUP3 GT OR PUSH2 0x2E5 JUMPI PUSH1 0x40 MSTORE JUMP JUMPDEST PUSH1 0x1 PUSH1 0x1 PUSH1 0x40 SHL SUB DUP2 GT PUSH2 0x2E5 JUMPI PUSH1 0x5 SHL PUSH1 0x20 ADD SWAP1 JUMP JUMPDEST DUP2 PUSH1 0x1F DUP3 ADD SLT ISZERO PUSH2 0xB5 JUMPI DUP1 CALLDATALOAD SWAP1 PUSH1 0x1 PUSH1 0x1 PUSH1 0x40 SHL SUB DUP3 GT PUSH2 0x2E5 JUMPI PUSH1 0x40 MLOAD SWAP3 PUSH2 0xC05 PUSH1 0x1F DUP5 ADD PUSH1 0x1F NOT AND PUSH1 0x20 ADD DUP6 PUSH2 0xB99 JUMP JUMPDEST DUP3 DUP5 MSTORE PUSH1 0x20 DUP4 DUP4 ADD ADD GT PUSH2 0xB5 JUMPI DUP2 PUSH1 0x0 SWAP3 PUSH1 0x20 DUP1 SWAP4 ADD DUP4 DUP7 ADD CALLDATACOPY DUP4 ADD ADD MSTORE SWAP1 JUMP JUMPDEST SWAP1 DUP1 PUSH1 0x1F DUP4 ADD SLT ISZERO PUSH2 0xB5 JUMPI DUP2 CALLDATALOAD SWAP1 PUSH2 0xC3F DUP3 PUSH2 0xBBA JUMP JUMPDEST SWAP3 PUSH2 0xC4D PUSH1 0x40 MLOAD SWAP5 DUP6 PUSH2 0xB99 JUMP JUMPDEST DUP3 DUP5 MSTORE PUSH1 0x20 SWAP3 DUP4 DUP1 DUP7 ADD SWAP2 PUSH1 0x5 SHL DUP4 ADD ADD SWAP3 DUP1 DUP5 GT PUSH2 0xB5 JUMPI DUP5 DUP4 ADD SWAP2 JUMPDEST DUP5 DUP4 LT PUSH2 0xC7B JUMPI POP POP POP POP POP POP SWAP1 JUMP JUMPDEST DUP3 CALLDATALOAD PUSH1 0x1 PUSH1 0x1 PUSH1 0x40 SHL SUB DUP2 GT PUSH2 0xB5 JUMPI DUP7 SWAP2 PUSH2 0xC9C DUP5 DUP5 DUP1 SWAP5 DUP10 ADD ADD PUSH2 0xBD1 JUMP JUMPDEST DUP2 MSTORE ADD SWAP3 ADD SWAP2 PUSH2 0xC6B JUMP JUMPDEST SWAP1 PUSH1 0x1 DUP3 DUP2 SHR SWAP3 AND DUP1 ISZERO PUSH2 0xCD7 JUMPI JUMPDEST PUSH1 0x20 DUP4 LT EQ PUSH2 0xCC1 JUMPI JUMP JUMPDEST PUSH4 0x4E487B71 PUSH1 0xE0 SHL PUSH1 0x0 MSTORE PUSH1 0x22 PUSH1 0x4 MSTORE PUSH1 0x24 PUSH1 0x0 REVERT JUMPDEST SWAP2 PUSH1 0x7F AND SWAP2 PUSH2 0xCB6 JUMP JUMPDEST SWAP1 PUSH1 0x40 MLOAD SWAP2 DUP3 PUSH1 0x0 DUP3 SLOAD SWAP3 PUSH2 0xCF5 DUP5 PUSH2 0xCA7 JUMP JUMPDEST SWAP1 DUP2 DUP5 MSTORE PUSH1 0x1 SWAP5 DUP6 DUP2 AND SWAP1 DUP2 PUSH1 0x0 EQ PUSH2 0xD64 JUMPI POP PUSH1 0x1 EQ PUSH2 0xD21 JUMPI JUMPDEST POP POP PUSH2 0xD1F SWAP3 POP SUB DUP4 PUSH2 0xB99 JUMP JUMPDEST JUMP JUMPDEST SWAP1 SWAP4 SWAP2 POP PUSH1 0x0 MSTORE PUSH1 0x20 SWAP1 DUP2 PUSH1 0x0 KECCAK256 SWAP4 PUSH1 0x0 SWAP2 JUMPDEST DUP2 DUP4 LT PUSH2 0xD4C JUMPI POP POP PUSH2 0xD1F SWAP4 POP DUP3 ADD ADD CODESIZE DUP1 PUSH2 0xD11 JUMP JUMPDEST DUP6 SLOAD DUP9 DUP5 ADD DUP6 ADD MSTORE SWAP5 DUP6 ADD SWAP5 DUP8 SWAP5 POP SWAP2 DUP4 ADD SWAP2 PUSH2 0xD34 JUMP JUMPDEST SWAP2 POP POP PUSH2 0xD1F SWAP5 POP PUSH1 0x20 SWAP3 POP PUSH1 0xFF NOT AND DUP3 DUP5 ADD MSTORE ISZERO ISZERO PUSH1 0x5 SHL DUP3 ADD ADD CODESIZE DUP1 PUSH2 0xD11 JUMP JUMPDEST ISZERO PUSH2 0xD8E JUMPI JUMP JUMPDEST PUSH1 0x40 MLOAD PUSH3 0x461BCD PUSH1 0xE5 SHL DUP2 MSTORE PUSH1 0x20 PUSH1 0x4 DUP3 ADD MSTORE PUSH1 0x25 PUSH1 0x24 DUP3 ADD MSTORE PUSH32 0x4F6E6C7920746865206F776E65722063616E2063616C6C20746869732066756E PUSH1 0x44 DUP3 ADD MSTORE PUSH5 0x31BA34B7B7 PUSH1 0xD9 SHL PUSH1 0x64 DUP3 ADD MSTORE PUSH1 0x84 SWAP1 REVERT JUMPDEST SWAP1 PUSH2 0xDEB DUP3 PUSH2 0xBBA JUMP JUMPDEST PUSH2 0xDF8 PUSH1 0x40 MLOAD SWAP2 DUP3 PUSH2 0xB99 JUMP JUMPDEST DUP3 DUP2 MSTORE DUP1 SWAP3 PUSH2 0xE09 PUSH1 0x1F NOT SWAP2 PUSH2 0xBBA JUMP JUMPDEST ADD SWAP1 PUSH1 0x0 JUMPDEST DUP3 DUP2 LT PUSH2 0xE1A JUMPI POP POP POP JUMP JUMPDEST DUP1 PUSH1 0x60 PUSH1 0x20 DUP1 SWAP4 DUP6 ADD ADD MSTORE ADD PUSH2 0xE0E JUMP JUMPDEST PUSH1 0x0 NOT DUP2 EQ PUSH2 0xE3A JUMPI PUSH1 0x1 ADD SWAP1 JUMP JUMPDEST PUSH4 0x4E487B71 PUSH1 0xE0 SHL PUSH1 0x0 MSTORE PUSH1 0x11 PUSH1 0x4 MSTORE PUSH1 0x24 PUSH1 0x0 REVERT JUMPDEST DUP1 MLOAD DUP3 LT ISZERO PUSH2 0xE64 JUMPI PUSH1 0x20 SWAP2 PUSH1 0x5 SHL ADD ADD SWAP1 JUMP JUMPDEST PUSH4 0x4E487B71 PUSH1 0xE0 SHL PUSH1 0x0 MSTORE PUSH1 0x32 PUSH1 0x4 MSTORE PUSH1 0x24 PUSH1 0x0 REVERT INVALID LOG2 PUSH5 0x6970667358 0x22 SLT KECCAK256 SWAP5 0xD5 RETURNDATACOPY DUP12 0xD6 0xDB 0x4D PUSH13 0xCA8AF1F0D5834A3EE9BDB70F69 CALLCODE 0xAE EXTCODESIZE PUSH7 0x517313E7A90134 PUSH5 0x736F6C6343 STOP ADDMOD SGT STOP CALLER "},"gasEstimates":{"creation":{"codeDepositCost":"752000","executionCost":"25029","totalCost":"777029"},"external":{"exportAllData()":"infinite","getWalletInfo(bytes32)":"infinite","importAllData(bytes32[],address[],string[],string[])":"infinite","owner()":"2367","setWalletInfo(bytes32,address,string,string)":"infinite","vaults(bytes32)":"infinite"},"internal":{"getAllVaultIds()":"infinite"}},"methodIdentifiers":{"exportAllData()":"38b66b59","getWalletInfo(bytes32)":"3bb50d7c","importAllData(bytes32[],address[],string[],string[])":"3e557c0f","owner()":"8da5cb5b","setWalletInfo(bytes32,address,string,string)":"756fe124","vaults(bytes32)":"cca23bf2"}},"storageLayout":{"storage":[{"astId":3,"contract":"contracts/SismoPKP.sol:SismoPKP","label":"owner","offset":0,"slot":"0","type":"t_address"},{"astId":15,"contract":"contracts/SismoPKP.sol:SismoPKP","label":"vaults","offset":0,"slot":"1","type":"t_mapping(t_bytes32,t_struct(WalletInfo)10_storage)"}],"types":{"t_address":{"encoding":"inplace","label":"address","numberOfBytes":"20"},"t_bytes32":{"encoding":"inplace","label":"bytes32","numberOfBytes":"32"},"t_mapping(t_bytes32,t_struct(WalletInfo)10_storage)":{"encoding":"mapping","key":"t_bytes32","label":"mapping(bytes32 => struct SismoPKP.WalletInfo)","numberOfBytes":"32","value":"t_struct(WalletInfo)10_storage"},"t_string_storage":{"encoding":"bytes","label":"string","numberOfBytes":"32"},"t_struct(WalletInfo)10_storage":{"encoding":"inplace","label":"struct SismoPKP.WalletInfo","members":[{"astId":5,"contract":"contracts/SismoPKP.sol:SismoPKP","label":"walletAddress","offset":0,"slot":"0","type":"t_address"},{"astId":7,"contract":"contracts/SismoPKP.sol:SismoPKP","label":"publicKey","offset":0,"slot":"1","type":"t_string_storage"},{"astId":9,"contract":"contracts/SismoPKP.sol:SismoPKP","label":"encryptedPrivateKey","offset":0,"slot":"2","type":"t_string_storage"}],"numberOfBytes":"96"}}},"userdoc":{"kind":"user","methods":{},"version":1}}}}