{"contracts/evm/factories/MecenateFeedFactory.sol":{"MecenateFeedFactory":{"abi":[{"inputs":[{"internalType":"address","name":"newUsersModuleContract","type":"address"},{"internalType":"address","name":"newTreasuryContract","type":"address"}],"stateMutability":"nonpayable","type":"constructor"},{"anonymous":false,"inputs":[{"indexed":true,"internalType":"address","name":"addr","type":"address"}],"name":"FeedCreated","type":"event"},{"anonymous":false,"inputs":[{"indexed":true,"internalType":"address","name":"previousOwner","type":"address"},{"indexed":true,"internalType":"address","name":"newOwner","type":"address"}],"name":"OwnershipTransferred","type":"event"},{"inputs":[],"name":"buildFeed","outputs":[{"internalType":"address","name":"","type":"address"}],"stateMutability":"payable","type":"function"},{"inputs":[],"name":"burnEnabled","outputs":[{"internalType":"bool","name":"","type":"bool"}],"stateMutability":"view","type":"function"},{"inputs":[{"internalType":"address","name":"treasury","type":"address"},{"internalType":"address","name":"usersModule","type":"address"},{"internalType":"address","name":"wethTokenAddr","type":"address"},{"internalType":"address","name":"museTokenAddr","type":"address"},{"internalType":"address","name":"daiTokenAddr","type":"address"},{"internalType":"address","name":"routerAddr","type":"address"}],"name":"changeMultipleSettings","outputs":[],"stateMutability":"nonpayable","type":"function"},{"inputs":[],"name":"contractCounter","outputs":[{"internalType":"uint256","name":"","type":"uint256"}],"stateMutability":"view","type":"function"},{"inputs":[],"name":"daiToken","outputs":[{"internalType":"address","name":"","type":"address"}],"stateMutability":"view","type":"function"},{"inputs":[{"internalType":"address","name":"user","type":"address"}],"name":"getFeedInfo","outputs":[{"components":[{"internalType":"address","name":"contractAddress","type":"address"},{"internalType":"address","name":"owner","type":"address"},{"internalType":"uint256","name":"sellerStake","type":"uint256"},{"internalType":"uint256","name":"buyerStake","type":"uint256"},{"internalType":"uint256","name":"totalStake","type":"uint256"},{"internalType":"uint256","name":"postCount","type":"uint256"},{"internalType":"uint256","name":"paymentRequested","type":"uint256"},{"internalType":"uint256","name":"stakeRequested","type":"uint256"},{"internalType":"enum Structures.PostStatus","name":"status","type":"uint8"},{"internalType":"enum Structures.Tokens","name":"tokenId","type":"uint8"},{"internalType":"string","name":"version","type":"string"}],"internalType":"struct Structures.Feed","name":"","type":"tuple"}],"stateMutability":"view","type":"function"},{"inputs":[],"name":"getFeeds","outputs":[{"internalType":"address[]","name":"","type":"address[]"}],"stateMutability":"view","type":"function"},{"inputs":[],"name":"getFeedsInfo","outputs":[{"components":[{"internalType":"address","name":"contractAddress","type":"address"},{"internalType":"address","name":"owner","type":"address"},{"internalType":"uint256","name":"sellerStake","type":"uint256"},{"internalType":"uint256","name":"buyerStake","type":"uint256"},{"internalType":"uint256","name":"totalStake","type":"uint256"},{"internalType":"uint256","name":"postCount","type":"uint256"},{"internalType":"uint256","name":"paymentRequested","type":"uint256"},{"internalType":"uint256","name":"stakeRequested","type":"uint256"},{"internalType":"enum Structures.PostStatus","name":"status","type":"uint8"},{"internalType":"enum Structures.Tokens","name":"tokenId","type":"uint8"},{"internalType":"string","name":"version","type":"string"}],"internalType":"struct Structures.Feed[]","name":"","type":"tuple[]"}],"stateMutability":"view","type":"function"},{"inputs":[{"internalType":"address","name":"user","type":"address"}],"name":"getFeedsInfoOwned","outputs":[{"components":[{"internalType":"address","name":"contractAddress","type":"address"},{"internalType":"address","name":"owner","type":"address"},{"internalType":"uint256","name":"sellerStake","type":"uint256"},{"internalType":"uint256","name":"buyerStake","type":"uint256"},{"internalType":"uint256","name":"totalStake","type":"uint256"},{"internalType":"uint256","name":"postCount","type":"uint256"},{"internalType":"uint256","name":"paymentRequested","type":"uint256"},{"internalType":"uint256","name":"stakeRequested","type":"uint256"},{"internalType":"enum Structures.PostStatus","name":"status","type":"uint8"},{"internalType":"enum Structures.Tokens","name":"tokenId","type":"uint8"},{"internalType":"string","name":"version","type":"string"}],"internalType":"struct Structures.Feed[]","name":"","type":"tuple[]"}],"stateMutability":"view","type":"function"},{"inputs":[{"internalType":"address","name":"user","type":"address"}],"name":"getFeedsOwned","outputs":[{"internalType":"address[]","name":"","type":"address[]"}],"stateMutability":"view","type":"function"},{"inputs":[{"internalType":"uint8","name":"tokenId","type":"uint8"}],"name":"getRouterFee","outputs":[{"internalType":"uint24","name":"","type":"uint24"}],"stateMutability":"view","type":"function"},{"inputs":[{"internalType":"address","name":"contractAddress","type":"address"}],"name":"isContractCreated","outputs":[{"internalType":"bool","name":"","type":"bool"}],"stateMutability":"view","type":"function"},{"inputs":[{"internalType":"address","name":"newFeed","type":"address"}],"name":"isFeed","outputs":[{"internalType":"bool","name":"","type":"bool"}],"stateMutability":"view","type":"function"},{"inputs":[],"name":"museToken","outputs":[{"internalType":"address","name":"","type":"address"}],"stateMutability":"view","type":"function"},{"inputs":[],"name":"owner","outputs":[{"internalType":"address","name":"","type":"address"}],"stateMutability":"view","type":"function"},{"inputs":[],"name":"renounceOwnership","outputs":[],"stateMutability":"nonpayable","type":"function"},{"inputs":[],"name":"router","outputs":[{"internalType":"address","name":"","type":"address"}],"stateMutability":"view","type":"function"},{"inputs":[{"internalType":"bool","name":"newBurnEnabled","type":"bool"}],"name":"setBurnEnabled","outputs":[],"stateMutability":"nonpayable","type":"function"},{"inputs":[{"internalType":"bytes","name":"newByteCode","type":"bytes"},{"internalType":"string","name":"newVersion","type":"string"}],"name":"setFeedByteCode","outputs":[],"stateMutability":"nonpayable","type":"function"},{"inputs":[{"internalType":"uint8","name":"tokenId","type":"uint8"},{"internalType":"uint24","name":"fee","type":"uint24"}],"name":"setRouterFee","outputs":[],"stateMutability":"nonpayable","type":"function"},{"inputs":[{"internalType":"address","name":"newOwner","type":"address"}],"name":"transferOwnership","outputs":[],"stateMutability":"nonpayable","type":"function"},{"inputs":[],"name":"treasuryContract","outputs":[{"internalType":"address","name":"","type":"address"}],"stateMutability":"view","type":"function"},{"inputs":[],"name":"version","outputs":[{"internalType":"string","name":"","type":"string"}],"stateMutability":"view","type":"function"},{"inputs":[],"name":"wethToken","outputs":[{"internalType":"address","name":"","type":"address"}],"stateMutability":"view","type":"function"}],"devdoc":{"kind":"dev","methods":{"owner()":{"details":"Returns the address of the current owner."},"renounceOwnership()":{"details":"Leaves the contract without owner. It will not be possible to call `onlyOwner` functions. Can only be called by the current owner. NOTE: Renouncing ownership will leave the contract without an owner, thereby disabling any functionality that is only available to the owner."},"transferOwnership(address)":{"details":"Transfers ownership of the contract to a new account (`newOwner`). Can only be called by the current owner."}},"version":1},"evm":{"bytecode":{"linkReferences":{},"object":"6080346200016457601f62001c5738819003918201601f19168301916001600160401b038311848410176200016957808492604094855283398101031262000164576200005a602062000052836200017f565b92016200017f565b600080546001600160a01b03198082163390811784556040519591946001600160a01b0394909390919085167f8be0079c531659141344cd1fd0a4f28419497f9722a3daafe3b4186f6b6457e08380a3600e546001918282811c9216801562000159575b602083101462000145579085939291601f821162000115575b505050600c65076322e302e360d41b01600e5560ff19600f5416600f551683600454161760045516906003541617600355611ac29081620001958239f35b600e8152601f60208220920160051c8201915b828110620001375750620000d7565b818155879550830162000128565b634e487b7160e01b81526022600452602490fd5b91607f1691620000be565b600080fd5b634e487b7160e01b600052604160045260246000fd5b51906001600160a01b0382168203620001645756fe6080604052600436101561001257600080fd5b60003560e01c8063067bd3b41461019257806318da00111461018d5780632ae219b9146101885780634b57b0be1461018357806354a12c9b1461017e57806354fd4d50146101795780635dc96d1614610174578063715018a61461016f5780637b2c835f1461016a5780637fe955d4146101655780638da5cb5b14610160578063ad8613241461015b578063b2a2e9ca14610156578063be22f54614610151578063ca5b4e5c1461014c578063cedf3ba21461013d578063d223a56414610147578063d570a66d14610142578063e58fdd041461013d578063e86ef35314610138578063e9318b4714610133578063f2fde38b1461012e578063f77800e5146101295763f887ea401461012457600080fd5b610e09565b610de0565b610d19565b610cc5565b610c48565b610b78565b610c03565b610bca565b610989565b610960565b6108e6565b610858565b6106fa565b610674565b6105f6565b610591565b61056e565b61049b565b610390565b6102d7565b6101ef565b6101b5565b346101b05760003660031901126101b0576020601054604051908152f35b600080fd5b346101b05760003660031901126101b0576003546040516001600160a01b039091168152602090f35b6001600160a01b038116036101b057565b346101b05760c03660031901126101b0576102d560043561020f816101de565b6102b86024359161021f836101de565b6044359061022c826101de565b60643591610239836101de565b60843592610246846101de565b60a43595610253876101de565b61025b610e32565b60018060a01b0392838092816001600160601b0360a01b971687600354161760035516856004541617600455168360085416176008551690600654161760065560018060a01b03166001600160601b0360a01b6007541617600755565b60018060a01b03166001600160601b0360a01b6009541617600955565b005b346101b05760003660031901126101b0576008546040516001600160a01b039091168152602090f35b634e487b7160e01b600052604160045260246000fd5b90601f8019910116810190811067ffffffffffffffff82111761033857604052565b610300565b67ffffffffffffffff811161033857601f01601f191660200190565b9291926103658261033d565b916103736040519384610316565b8294818452818301116101b0578281602093846000960137010152565b346101b05760403660031901126101b05767ffffffffffffffff6004358181116101b057366023820112156101b0576103d3903690602481600401359101610359565b6024359182116101b057366023830112156101b0576103ff6102d5923690602481600401359101610359565b90610e8a565b90600182811c92168015610435575b602083101461041f57565b634e487b7160e01b600052602260045260246000fd5b91607f1691610414565b60005b8381106104525750506000910152565b8181015183820152602001610442565b9060209161047b8151809281855285808601910161043f565b601f01601f1916010190565b906020610498928181520190610462565b90565b346101b05760008060031936011261056b576040519080600e546104be81610405565b8085529160019180831690811561054157506001146104f8575b6104f4856104e881870382610316565b60405191829182610487565b0390f35b9250600e8352600080516020611a6d8339815191525b8284106105295750505081016020016104e8826104f46104d8565b8054602085870181019190915290930192810161050e565b8695506104f4969350602092506104e894915060ff191682840152151560051b82010192936104d8565b80fd5b346101b05760003660031901126101b057602060ff600f54166040519015158152f35b346101b05760008060031936011261056b576105ab610e32565b80546001600160a01b03198116825581906001600160a01b03167f8be0079c531659141344cd1fd0a4f28419497f9722a3daafe3b4186f6b6457e08280a380f35b801515036101b057565b346101b05760203660031901126101b057600435610613816105ec565b61061b610e32565b60ff8019600f54169115151617600f55600080f35b6020908160408183019282815285518094520193019160005b828110610657575050505090565b83516001600160a01b031685529381019392810192600101610649565b346101b05760003660031901126101b05760405180600191825492838252602080920193816000527fb10e2d527612073b26eecdfd717e6a320cf44b4afac2b0732d9fcbe2b7fa0cf6926000905b8282106106e5576104f4866106d9818a0382610316565b60405191829182610630565b845487529586019593830193908301906106c2565b346101b05760003660031901126101b0576000546040516001600160a01b039091168152602090f35b634e487b7160e01b600052602160045260246000fd5b9060088210156107465752565b610723565b9060038210156107465752565b80516001600160a01b0316825261049891906020818101516001600160a01b03169083015260408101516040830152606081015160608301526080810151608083015260a081015160a083015260c081015160c083015260e081015160e08301526107cc6101008083015190840190610739565b6107df610120808301519084019061074b565b610140809101519161016080928201520190610462565b602080820190808352835180925260408301928160408460051b8301019501936000915b84831061082a5750505050505090565b9091929394958480610848600193603f198682030187528a51610758565b980193019301919493929061081a565b346101b0576020806003193601126101b057600435610876816101de565b60018060a01b0316600052600c81526040600020604051918281835491828152019260005281600020916000905b8282106108cf576104f46108c3876108be81890382610316565b6119d0565b604051918291826107f6565b8354855293840193600193840193909101906108a4565b346101b0576020806003193601126101b057600435610904816101de565b6001600160a01b03166000908152600c82526040808220905181548082529183528383208185019491939092915b828210610949576104f4856106d981890382610316565b835486529485019460019384019390910190610932565b346101b05760003660031901126101b0576007546040516001600160a01b039091168152602090f35b60008060031936011261056b576004546001600160a01b0316604051806109b530843360208501611123565b036109c8601f1991828101845283610316565b60405163122643f360e21b81523360048201526001600160a01b03939091906020908390602490829088165afa908115610b7357610a14610aa492610a98948891610b45575b50611207565b610a27610a1f611556565b341015611249565b610a628680808034610a52610a46610a4660035460018060a01b031690565b6001600160a01b031690565b5af1610a5c611286565b506112b6565b610a75610a706010546112f0565b601055565b610a7d611315565b93604051938491610a926020840180986113d1565b906113d1565b03908101835282610316565b519083f090813b15610b4157816104f4917fb658664a46408e6670a38ec7ea8b7614c9e2916184dff2fad99d3a7a3491ca7d949316610ae281611411565b50336000908152600c60205260409020610afd9083906113e8565b506001600160a01b0382166000908152600d60205260409020610b2790805460ff19166001179055565b60405194848695a26001600160a01b031682526020820190565b8280fd5b610b66915060203d8111610b6c575b610b5e8183610316565b8101906111e6565b38610a0e565b503d610b54565b6111fb565b346101b05760203660031901126101b057600435610b95816101de565b60018060a01b0316600052600d602052602060ff604060002054166040519015158152f35b6004359060ff821682036101b057565b346101b05760203660031901126101b05760ff610be5610bba565b16600052600b602052602062ffffff60406000205416604051908152f35b346101b05760203660031901126101b0576104f4610c34600435610c26816101de565b610c2e6114e3565b50611672565b604051918291602083526020830190610758565b346101b05760003660031901126101b05760405180600190815491828252602080920192816000527fb10e2d527612073b26eecdfd717e6a320cf44b4afac2b0732d9fcbe2b7fa0cf6926000905b828210610cb0576104f46108c3886108be818a0382610316565b84548652948501949383019390830190610c96565b346101b05760403660031901126101b057610cde610bba565b6024359062ffffff82168092036101b05760ff90610cfa610e32565b16600052600b60205260406000209062ffffff19825416179055600080f35b346101b05760203660031901126101b057600435610d36816101de565b610d3e610e32565b6001600160a01b039081168015610d8c57600080546001600160a01b03198116831782559092167f8be0079c531659141344cd1fd0a4f28419497f9722a3daafe3b4186f6b6457e08380a380f35b60405162461bcd60e51b815260206004820152602660248201527f4f776e61626c653a206e6577206f776e657220697320746865207a65726f206160448201526564647265737360d01b6064820152608490fd5b346101b05760003660031901126101b0576006546040516001600160a01b039091168152602090f35b346101b05760003660031901126101b0576009546040516001600160a01b039091168152602090f35b6000546001600160a01b03163303610e4657565b606460405162461bcd60e51b815260206004820152602060248201527f4f776e61626c653a2063616c6c6572206973206e6f7420746865206f776e65726044820152fd5b90610e93610e32565b815167ffffffffffffffff811161033857610eb881610eb3600a54610405565b610fa6565b602080601f8311600114610efc57508190610eef94600092610ef1575b50508160011b916000199060031b1c191617600a5561104b565b565b015190503880610ed5565b919293601f198416610f30600a6000527fc65a7bb8d6351c1cf70c95a316cc6a92839c986682d98bc35f958f4883f9d2a890565b936000905b828210610f77575050916001939185610eef97969410610f5e575b505050811b01600a5561104b565b015160001960f88460031b161c19169055388080610f50565b80600186978294978701518155019601940190610f35565b818110610f9a575050565b60008155600101610f8f565b90601f8211610fb3575050565b610eef91600a6000527fc65a7bb8d6351c1cf70c95a316cc6a92839c986682d98bc35f958f4883f9d2a8906020601f840160051c83019310610ffd575b601f0160051c0190610f8f565b9091508190610ff0565b90601f8211611014575050565b610eef91600e600052600080516020611a6d833981519152906020601f840160051c83019310610ffd57601f0160051c0190610f8f565b90815167ffffffffffffffff8111610338576110718161106c600e54610405565b611007565b602080601f83116001146110ad57508192936000926110a2575b50508160011b916000199060031b1c191617600e55565b01519050388061108b565b90601f198316946110ce600e600052600080516020611a6d83398151915290565b926000905b87821061110b5750508360019596106110f2575b505050811b01600e55565b015160001960f88460031b161c191690553880806110e7565b806001859682949686015181550195019301906110d3565b9260018060a01b03809216845281602093168385015216604083015260806060830152600091600e549161115683610405565b9283608084015260019081811690816000146111c3575060011461117c575b5050505090565b600e6000908152939450600080516020611a6d8339815191525b8585106111af5750505060a09250010138808080611175565b805485850160a00152938201938101611196565b9250505060a0935060ff929192191683830152151560051b010138808080611175565b908160209103126101b05751610498816105ec565b6040513d6000823e3d90fd5b1561120e57565b60405162461bcd60e51b81526020600482015260136024820152721d5cd95c88191bd95cc81b9bdd08195e1a5cdd606a1b6044820152606490fd5b1561125057565b60405162461bcd60e51b815260206004820152600e60248201526d4e4f545f454e4f5547485f46454560901b6044820152606490fd5b3d156112b1573d906112978261033d565b916112a56040519384610316565b82523d6000602084013e565b606090565b156112bd57565b60405162461bcd60e51b815260206004820152600b60248201526a10d0531317d1905253115160aa1b6044820152606490fd5b60001981146112ff5760010190565b634e487b7160e01b600052601160045260246000fd5b60405190600082600a549161132983610405565b808352926001908181169081156113af5750600114611350575b50610eef92500383610316565b600a600090815291507fc65a7bb8d6351c1cf70c95a316cc6a92839c986682d98bc35f958f4883f9d2a85b8483106113945750610eef935050810160200138611343565b81935090816020925483858a0101520191019091859261137b565b905060209250610eef94915060ff191682840152151560051b82010138611343565b906113e46020928281519485920161043f565b0190565b610498916001600160a01b03169061148d565b634e487b7160e01b600052603260045260246000fd5b8060005260026020526040600020541560001461148757600154600160401b8110156103385760018101806001558110156114825781907fb10e2d527612073b26eecdfd717e6a320cf44b4afac2b0732d9fcbe2b7fa0cf60155600154906000526002602052604060002055600190565b6113fb565b50600090565b600082815260018201602081905260408220546114dc57825492600160401b84101561033857600184018082558410156114825784604094828552602085200155549382526020522055600190565b5091505090565b60405190610160820182811067ffffffffffffffff82111761033857604052606061014083600080825280602083015280604083015280848301528060808301528060a08301528060c08301528060e0830152806101008301526101208201520152565b908160209103126101b0575190565b6003546040516391792d5b60e01b815290602090829060049082906001600160a01b03165afa908115610b735760009161158e575090565b610498915060203d81116115af575b6115a78183610316565b810190611547565b503d61159d565b908160209103126101b05751610498816101de565b908160209103126101b0575160088110156101b05790565b60088210156107465752565b908160209103126101b0575160038110156101b05790565b60038210156107465752565b6020818303126101b05780519067ffffffffffffffff82116101b0570181601f820112156101b05780516116468161033d565b926116546040519485610316565b818452602082840101116101b057610498916020808501910161043f565b61167a6114e3565b506116836114e3565b6001600160a01b0390911680825260408051638da5cb5b60e01b8152600492602092909183818681865afa8015610b73576116d091600091611977575b506001600160a01b031686850152565b8051635c63ed6960e01b815283818681865afa908115610b735760009161195a575b50858201528051634c38d87760e01b815283818681865afa908115610b735760009161193d575b506060860152805163048bf3bb60e11b815283818681865afa908115610b7357600091611920575b5060808601528051630bc8361760e11b815283818681865afa908115610b7357600091611903575b5060a0860152805163d24e0c8760e01b815283818681865afa908115610b73576000916118e6575b5060c0860152805163faeb5e1760e01b815283818681865afa908115610b73576000916118c9575b5060e086015280516302734eab60e51b815283818681865afa8015610b73576117ef9160009161189c575b5061010087016115e3565b805163010a38f560e01b81529280848681865afa8015610b735760009461182392869261186f575b50506101208701611607565b5163054fd4d560e41b815292839182905afa908115610b735760009161184e575b5061014082015290565b611869913d8091833e6118618183610316565b810190611613565b38611844565b61188e9250803d10611895575b6118868183610316565b8101906115ef565b3880611817565b503d61187c565b6118bc9150853d87116118c2575b6118b48183610316565b8101906115cb565b386117e4565b503d6118aa565b6118e09150843d86116115af576115a78183610316565b386117b9565b6118fd9150843d86116115af576115a78183610316565b38611791565b61191a9150843d86116115af576115a78183610316565b38611769565b6119379150843d86116115af576115a78183610316565b38611741565b6119549150843d86116115af576115a78183610316565b38611719565b6119719150843d86116115af576115a78183610316565b386116f2565b6119979150853d871161199d575b61198f8183610316565b8101906115b6565b386116c0565b503d611985565b67ffffffffffffffff81116103385760051b60200190565b80518210156114825760209160051b010190565b80516119db816119a4565b916119e96040519384610316565b818352601f196119f8836119a4565b0160005b818110611a5557505060005b828110611a155750505090565b611a5090611a356001600160a01b03611a2e83866119bc565b5116611672565b611a3f82876119bc565b52611a4a81866119bc565b506112f0565b611a08565b602090611a606114e3565b828288010152016119fc56febb7b4a454dc3493923482f07822329ed19e8244eff582cc204f8554c3620c3fda26469706673582212201f601b6ada260b8240cca2388d612f134ff28f93612cfed93f830619f3ee8b0664736f6c63430008130033","opcodes":"PUSH1 0x80 CALLVALUE PUSH3 0x164 JUMPI PUSH1 0x1F PUSH3 0x1C57 CODESIZE DUP2 SWAP1 SUB SWAP2 DUP3 ADD PUSH1 0x1F NOT AND DUP4 ADD SWAP2 PUSH1 0x1 PUSH1 0x1 PUSH1 0x40 SHL SUB DUP4 GT DUP5 DUP5 LT OR PUSH3 0x169 JUMPI DUP1 DUP5 SWAP3 PUSH1 0x40 SWAP5 DUP6 MSTORE DUP4 CODECOPY DUP2 ADD SUB SLT PUSH3 0x164 JUMPI PUSH3 0x5A PUSH1 0x20 PUSH3 0x52 DUP4 PUSH3 0x17F JUMP JUMPDEST SWAP3 ADD PUSH3 0x17F JUMP JUMPDEST PUSH1 0x0 DUP1 SLOAD PUSH1 0x1 PUSH1 0x1 PUSH1 0xA0 SHL SUB NOT DUP1 DUP3 AND CALLER SWAP1 DUP2 OR DUP5 SSTORE PUSH1 0x40 MLOAD SWAP6 SWAP2 SWAP5 PUSH1 0x1 PUSH1 0x1 PUSH1 0xA0 SHL SUB SWAP5 SWAP1 SWAP4 SWAP1 SWAP2 SWAP1 DUP6 AND PUSH32 0x8BE0079C531659141344CD1FD0A4F28419497F9722A3DAAFE3B4186F6B6457E0 DUP4 DUP1 LOG3 PUSH1 0xE SLOAD PUSH1 0x1 SWAP2 DUP3 DUP3 DUP2 SHR SWAP3 AND DUP1 ISZERO PUSH3 0x159 JUMPI JUMPDEST PUSH1 0x20 DUP4 LT EQ PUSH3 0x145 JUMPI SWAP1 DUP6 SWAP4 SWAP3 SWAP2 PUSH1 0x1F DUP3 GT PUSH3 0x115 JUMPI JUMPDEST POP POP POP PUSH1 0xC PUSH6 0x76322E302E3 PUSH1 0xD4 SHL ADD PUSH1 0xE SSTORE PUSH1 0xFF NOT PUSH1 0xF SLOAD AND PUSH1 0xF SSTORE AND DUP4 PUSH1 0x4 SLOAD AND OR PUSH1 0x4 SSTORE AND SWAP1 PUSH1 0x3 SLOAD AND OR PUSH1 0x3 SSTORE PUSH2 0x1AC2 SWAP1 DUP2 PUSH3 0x195 DUP3 CODECOPY RETURN JUMPDEST PUSH1 0xE DUP2 MSTORE PUSH1 0x1F PUSH1 0x20 DUP3 KECCAK256 SWAP3 ADD PUSH1 0x5 SHR DUP3 ADD SWAP2 JUMPDEST DUP3 DUP2 LT PUSH3 0x137 JUMPI POP PUSH3 0xD7 JUMP JUMPDEST DUP2 DUP2 SSTORE DUP8 SWAP6 POP DUP4 ADD PUSH3 0x128 JUMP JUMPDEST PUSH4 0x4E487B71 PUSH1 0xE0 SHL DUP2 MSTORE PUSH1 0x22 PUSH1 0x4 MSTORE PUSH1 0x24 SWAP1 REVERT JUMPDEST SWAP2 PUSH1 0x7F AND SWAP2 PUSH3 0xBE JUMP JUMPDEST PUSH1 0x0 DUP1 REVERT JUMPDEST PUSH4 0x4E487B71 PUSH1 0xE0 SHL PUSH1 0x0 MSTORE PUSH1 0x41 PUSH1 0x4 MSTORE PUSH1 0x24 PUSH1 0x0 REVERT JUMPDEST MLOAD SWAP1 PUSH1 0x1 PUSH1 0x1 PUSH1 0xA0 SHL SUB DUP3 AND DUP3 SUB PUSH3 0x164 JUMPI JUMP INVALID PUSH1 0x80 PUSH1 0x40 MSTORE PUSH1 0x4 CALLDATASIZE LT ISZERO PUSH2 0x12 JUMPI PUSH1 0x0 DUP1 REVERT JUMPDEST PUSH1 0x0 CALLDATALOAD PUSH1 0xE0 SHR DUP1 PUSH4 0x67BD3B4 EQ PUSH2 0x192 JUMPI DUP1 PUSH4 0x18DA0011 EQ PUSH2 0x18D JUMPI DUP1 PUSH4 0x2AE219B9 EQ PUSH2 0x188 JUMPI DUP1 PUSH4 0x4B57B0BE EQ PUSH2 0x183 JUMPI DUP1 PUSH4 0x54A12C9B EQ PUSH2 0x17E JUMPI DUP1 PUSH4 0x54FD4D50 EQ PUSH2 0x179 JUMPI DUP1 PUSH4 0x5DC96D16 EQ PUSH2 0x174 JUMPI DUP1 PUSH4 0x715018A6 EQ PUSH2 0x16F JUMPI DUP1 PUSH4 0x7B2C835F EQ PUSH2 0x16A JUMPI DUP1 PUSH4 0x7FE955D4 EQ PUSH2 0x165 JUMPI DUP1 PUSH4 0x8DA5CB5B EQ PUSH2 0x160 JUMPI DUP1 PUSH4 0xAD861324 EQ PUSH2 0x15B JUMPI DUP1 PUSH4 0xB2A2E9CA EQ PUSH2 0x156 JUMPI DUP1 PUSH4 0xBE22F546 EQ PUSH2 0x151 JUMPI DUP1 PUSH4 0xCA5B4E5C EQ PUSH2 0x14C JUMPI DUP1 PUSH4 0xCEDF3BA2 EQ PUSH2 0x13D JUMPI DUP1 PUSH4 0xD223A564 EQ PUSH2 0x147 JUMPI DUP1 PUSH4 0xD570A66D EQ PUSH2 0x142 JUMPI DUP1 PUSH4 0xE58FDD04 EQ PUSH2 0x13D JUMPI DUP1 PUSH4 0xE86EF353 EQ PUSH2 0x138 JUMPI DUP1 PUSH4 0xE9318B47 EQ PUSH2 0x133 JUMPI DUP1 PUSH4 0xF2FDE38B EQ PUSH2 0x12E JUMPI DUP1 PUSH4 0xF77800E5 EQ PUSH2 0x129 JUMPI PUSH4 0xF887EA40 EQ PUSH2 0x124 JUMPI PUSH1 0x0 DUP1 REVERT JUMPDEST PUSH2 0xE09 JUMP JUMPDEST PUSH2 0xDE0 JUMP JUMPDEST PUSH2 0xD19 JUMP JUMPDEST PUSH2 0xCC5 JUMP JUMPDEST PUSH2 0xC48 JUMP JUMPDEST PUSH2 0xB78 JUMP JUMPDEST PUSH2 0xC03 JUMP JUMPDEST PUSH2 0xBCA JUMP JUMPDEST PUSH2 0x989 JUMP JUMPDEST PUSH2 0x960 JUMP JUMPDEST PUSH2 0x8E6 JUMP JUMPDEST PUSH2 0x858 JUMP JUMPDEST PUSH2 0x6FA JUMP JUMPDEST PUSH2 0x674 JUMP JUMPDEST PUSH2 0x5F6 JUMP JUMPDEST PUSH2 0x591 JUMP JUMPDEST PUSH2 0x56E JUMP JUMPDEST PUSH2 0x49B JUMP JUMPDEST PUSH2 0x390 JUMP JUMPDEST PUSH2 0x2D7 JUMP JUMPDEST PUSH2 0x1EF JUMP JUMPDEST PUSH2 0x1B5 JUMP JUMPDEST CALLVALUE PUSH2 0x1B0 JUMPI PUSH1 0x0 CALLDATASIZE PUSH1 0x3 NOT ADD SLT PUSH2 0x1B0 JUMPI PUSH1 0x20 PUSH1 0x10 SLOAD PUSH1 0x40 MLOAD SWAP1 DUP2 MSTORE RETURN JUMPDEST PUSH1 0x0 DUP1 REVERT JUMPDEST CALLVALUE PUSH2 0x1B0 JUMPI PUSH1 0x0 CALLDATASIZE PUSH1 0x3 NOT ADD SLT PUSH2 0x1B0 JUMPI PUSH1 0x3 SLOAD PUSH1 0x40 MLOAD PUSH1 0x1 PUSH1 0x1 PUSH1 0xA0 SHL SUB SWAP1 SWAP2 AND DUP2 MSTORE PUSH1 0x20 SWAP1 RETURN JUMPDEST PUSH1 0x1 PUSH1 0x1 PUSH1 0xA0 SHL SUB DUP2 AND SUB PUSH2 0x1B0 JUMPI JUMP JUMPDEST CALLVALUE PUSH2 0x1B0 JUMPI PUSH1 0xC0 CALLDATASIZE PUSH1 0x3 NOT ADD SLT PUSH2 0x1B0 JUMPI PUSH2 0x2D5 PUSH1 0x4 CALLDATALOAD PUSH2 0x20F DUP2 PUSH2 0x1DE JUMP JUMPDEST PUSH2 0x2B8 PUSH1 0x24 CALLDATALOAD SWAP2 PUSH2 0x21F DUP4 PUSH2 0x1DE JUMP JUMPDEST PUSH1 0x44 CALLDATALOAD SWAP1 PUSH2 0x22C DUP3 PUSH2 0x1DE JUMP JUMPDEST PUSH1 0x64 CALLDATALOAD SWAP2 PUSH2 0x239 DUP4 PUSH2 0x1DE JUMP JUMPDEST PUSH1 0x84 CALLDATALOAD SWAP3 PUSH2 0x246 DUP5 PUSH2 0x1DE JUMP JUMPDEST PUSH1 0xA4 CALLDATALOAD SWAP6 PUSH2 0x253 DUP8 PUSH2 0x1DE JUMP JUMPDEST PUSH2 0x25B PUSH2 0xE32 JUMP JUMPDEST PUSH1 0x1 DUP1 PUSH1 0xA0 SHL SUB SWAP3 DUP4 DUP1 SWAP3 DUP2 PUSH1 0x1 PUSH1 0x1 PUSH1 0x60 SHL SUB PUSH1 0xA0 SHL SWAP8 AND DUP8 PUSH1 0x3 SLOAD AND OR PUSH1 0x3 SSTORE AND DUP6 PUSH1 0x4 SLOAD AND OR PUSH1 0x4 SSTORE AND DUP4 PUSH1 0x8 SLOAD AND OR PUSH1 0x8 SSTORE AND SWAP1 PUSH1 0x6 SLOAD AND OR PUSH1 0x6 SSTORE PUSH1 0x1 DUP1 PUSH1 0xA0 SHL SUB AND PUSH1 0x1 PUSH1 0x1 PUSH1 0x60 SHL SUB PUSH1 0xA0 SHL PUSH1 0x7 SLOAD AND OR PUSH1 0x7 SSTORE JUMP JUMPDEST PUSH1 0x1 DUP1 PUSH1 0xA0 SHL SUB AND PUSH1 0x1 PUSH1 0x1 PUSH1 0x60 SHL SUB PUSH1 0xA0 SHL PUSH1 0x9 SLOAD AND OR PUSH1 0x9 SSTORE JUMP JUMPDEST STOP JUMPDEST CALLVALUE PUSH2 0x1B0 JUMPI PUSH1 0x0 CALLDATASIZE PUSH1 0x3 NOT ADD SLT PUSH2 0x1B0 JUMPI PUSH1 0x8 SLOAD PUSH1 0x40 MLOAD PUSH1 0x1 PUSH1 0x1 PUSH1 0xA0 SHL SUB SWAP1 SWAP2 AND DUP2 MSTORE PUSH1 0x20 SWAP1 RETURN JUMPDEST PUSH4 0x4E487B71 PUSH1 0xE0 SHL PUSH1 0x0 MSTORE PUSH1 0x41 PUSH1 0x4 MSTORE PUSH1 0x24 PUSH1 0x0 REVERT JUMPDEST SWAP1 PUSH1 0x1F DUP1 NOT SWAP2 ADD AND DUP2 ADD SWAP1 DUP2 LT PUSH8 0xFFFFFFFFFFFFFFFF DUP3 GT OR PUSH2 0x338 JUMPI PUSH1 0x40 MSTORE JUMP JUMPDEST PUSH2 0x300 JUMP JUMPDEST PUSH8 0xFFFFFFFFFFFFFFFF DUP2 GT PUSH2 0x338 JUMPI PUSH1 0x1F ADD PUSH1 0x1F NOT AND PUSH1 0x20 ADD SWAP1 JUMP JUMPDEST SWAP3 SWAP2 SWAP3 PUSH2 0x365 DUP3 PUSH2 0x33D JUMP JUMPDEST SWAP2 PUSH2 0x373 PUSH1 0x40 MLOAD SWAP4 DUP5 PUSH2 0x316 JUMP JUMPDEST DUP3 SWAP5 DUP2 DUP5 MSTORE DUP2 DUP4 ADD GT PUSH2 0x1B0 JUMPI DUP3 DUP2 PUSH1 0x20 SWAP4 DUP5 PUSH1 0x0 SWAP7 ADD CALLDATACOPY ADD ADD MSTORE JUMP JUMPDEST CALLVALUE PUSH2 0x1B0 JUMPI PUSH1 0x40 CALLDATASIZE PUSH1 0x3 NOT ADD SLT PUSH2 0x1B0 JUMPI PUSH8 0xFFFFFFFFFFFFFFFF PUSH1 0x4 CALLDATALOAD DUP2 DUP2 GT PUSH2 0x1B0 JUMPI CALLDATASIZE PUSH1 0x23 DUP3 ADD SLT ISZERO PUSH2 0x1B0 JUMPI PUSH2 0x3D3 SWAP1 CALLDATASIZE SWAP1 PUSH1 0x24 DUP2 PUSH1 0x4 ADD CALLDATALOAD SWAP2 ADD PUSH2 0x359 JUMP JUMPDEST PUSH1 0x24 CALLDATALOAD SWAP2 DUP3 GT PUSH2 0x1B0 JUMPI CALLDATASIZE PUSH1 0x23 DUP4 ADD SLT ISZERO PUSH2 0x1B0 JUMPI PUSH2 0x3FF PUSH2 0x2D5 SWAP3 CALLDATASIZE SWAP1 PUSH1 0x24 DUP2 PUSH1 0x4 ADD CALLDATALOAD SWAP2 ADD PUSH2 0x359 JUMP JUMPDEST SWAP1 PUSH2 0xE8A JUMP JUMPDEST SWAP1 PUSH1 0x1 DUP3 DUP2 SHR SWAP3 AND DUP1 ISZERO PUSH2 0x435 JUMPI JUMPDEST PUSH1 0x20 DUP4 LT EQ PUSH2 0x41F JUMPI JUMP JUMPDEST PUSH4 0x4E487B71 PUSH1 0xE0 SHL PUSH1 0x0 MSTORE PUSH1 0x22 PUSH1 0x4 MSTORE PUSH1 0x24 PUSH1 0x0 REVERT JUMPDEST SWAP2 PUSH1 0x7F AND SWAP2 PUSH2 0x414 JUMP JUMPDEST PUSH1 0x0 JUMPDEST DUP4 DUP2 LT PUSH2 0x452 JUMPI POP POP PUSH1 0x0 SWAP2 ADD MSTORE JUMP JUMPDEST DUP2 DUP2 ADD MLOAD DUP4 DUP3 ADD MSTORE PUSH1 0x20 ADD PUSH2 0x442 JUMP JUMPDEST SWAP1 PUSH1 0x20 SWAP2 PUSH2 0x47B DUP2 MLOAD DUP1 SWAP3 DUP2 DUP6 MSTORE DUP6 DUP1 DUP7 ADD SWAP2 ADD PUSH2 0x43F JUMP JUMPDEST PUSH1 0x1F ADD PUSH1 0x1F NOT AND ADD ADD SWAP1 JUMP JUMPDEST SWAP1 PUSH1 0x20 PUSH2 0x498 SWAP3 DUP2 DUP2 MSTORE ADD SWAP1 PUSH2 0x462 JUMP JUMPDEST SWAP1 JUMP JUMPDEST CALLVALUE PUSH2 0x1B0 JUMPI PUSH1 0x0 DUP1 PUSH1 0x3 NOT CALLDATASIZE ADD SLT PUSH2 0x56B JUMPI PUSH1 0x40 MLOAD SWAP1 DUP1 PUSH1 0xE SLOAD PUSH2 0x4BE DUP2 PUSH2 0x405 JUMP JUMPDEST DUP1 DUP6 MSTORE SWAP2 PUSH1 0x1 SWAP2 DUP1 DUP4 AND SWAP1 DUP2 ISZERO PUSH2 0x541 JUMPI POP PUSH1 0x1 EQ PUSH2 0x4F8 JUMPI JUMPDEST PUSH2 0x4F4 DUP6 PUSH2 0x4E8 DUP2 DUP8 SUB DUP3 PUSH2 0x316 JUMP JUMPDEST PUSH1 0x40 MLOAD SWAP2 DUP3 SWAP2 DUP3 PUSH2 0x487 JUMP JUMPDEST SUB SWAP1 RETURN JUMPDEST SWAP3 POP PUSH1 0xE DUP4 MSTORE PUSH1 0x0 DUP1 MLOAD PUSH1 0x20 PUSH2 0x1A6D DUP4 CODECOPY DUP2 MLOAD SWAP2 MSTORE JUMPDEST DUP3 DUP5 LT PUSH2 0x529 JUMPI POP POP POP DUP2 ADD PUSH1 0x20 ADD PUSH2 0x4E8 DUP3 PUSH2 0x4F4 PUSH2 0x4D8 JUMP JUMPDEST DUP1 SLOAD PUSH1 0x20 DUP6 DUP8 ADD DUP2 ADD SWAP2 SWAP1 SWAP2 MSTORE SWAP1 SWAP4 ADD SWAP3 DUP2 ADD PUSH2 0x50E JUMP JUMPDEST DUP7 SWAP6 POP PUSH2 0x4F4 SWAP7 SWAP4 POP PUSH1 0x20 SWAP3 POP PUSH2 0x4E8 SWAP5 SWAP2 POP PUSH1 0xFF NOT AND DUP3 DUP5 ADD MSTORE ISZERO ISZERO PUSH1 0x5 SHL DUP3 ADD ADD SWAP3 SWAP4 PUSH2 0x4D8 JUMP JUMPDEST DUP1 REVERT JUMPDEST CALLVALUE PUSH2 0x1B0 JUMPI PUSH1 0x0 CALLDATASIZE PUSH1 0x3 NOT ADD SLT PUSH2 0x1B0 JUMPI PUSH1 0x20 PUSH1 0xFF PUSH1 0xF SLOAD AND PUSH1 0x40 MLOAD SWAP1 ISZERO ISZERO DUP2 MSTORE RETURN JUMPDEST CALLVALUE PUSH2 0x1B0 JUMPI PUSH1 0x0 DUP1 PUSH1 0x3 NOT CALLDATASIZE ADD SLT PUSH2 0x56B JUMPI PUSH2 0x5AB PUSH2 0xE32 JUMP JUMPDEST DUP1 SLOAD PUSH1 0x1 PUSH1 0x1 PUSH1 0xA0 SHL SUB NOT DUP2 AND DUP3 SSTORE DUP2 SWAP1 PUSH1 0x1 PUSH1 0x1 PUSH1 0xA0 SHL SUB AND PUSH32 0x8BE0079C531659141344CD1FD0A4F28419497F9722A3DAAFE3B4186F6B6457E0 DUP3 DUP1 LOG3 DUP1 RETURN JUMPDEST DUP1 ISZERO ISZERO SUB PUSH2 0x1B0 JUMPI JUMP JUMPDEST CALLVALUE PUSH2 0x1B0 JUMPI PUSH1 0x20 CALLDATASIZE PUSH1 0x3 NOT ADD SLT PUSH2 0x1B0 JUMPI PUSH1 0x4 CALLDATALOAD PUSH2 0x613 DUP2 PUSH2 0x5EC JUMP JUMPDEST PUSH2 0x61B PUSH2 0xE32 JUMP JUMPDEST PUSH1 0xFF DUP1 NOT PUSH1 0xF SLOAD AND SWAP2 ISZERO ISZERO AND OR PUSH1 0xF SSTORE PUSH1 0x0 DUP1 RETURN JUMPDEST PUSH1 0x20 SWAP1 DUP2 PUSH1 0x40 DUP2 DUP4 ADD SWAP3 DUP3 DUP2 MSTORE DUP6 MLOAD DUP1 SWAP5 MSTORE ADD SWAP4 ADD SWAP2 PUSH1 0x0 JUMPDEST DUP3 DUP2 LT PUSH2 0x657 JUMPI POP POP POP POP SWAP1 JUMP JUMPDEST DUP4 MLOAD PUSH1 0x1 PUSH1 0x1 PUSH1 0xA0 SHL SUB AND DUP6 MSTORE SWAP4 DUP2 ADD SWAP4 SWAP3 DUP2 ADD SWAP3 PUSH1 0x1 ADD PUSH2 0x649 JUMP JUMPDEST CALLVALUE PUSH2 0x1B0 JUMPI PUSH1 0x0 CALLDATASIZE PUSH1 0x3 NOT ADD SLT PUSH2 0x1B0 JUMPI PUSH1 0x40 MLOAD DUP1 PUSH1 0x1 SWAP2 DUP3 SLOAD SWAP3 DUP4 DUP3 MSTORE PUSH1 0x20 DUP1 SWAP3 ADD SWAP4 DUP2 PUSH1 0x0 MSTORE PUSH32 0xB10E2D527612073B26EECDFD717E6A320CF44B4AFAC2B0732D9FCBE2B7FA0CF6 SWAP3 PUSH1 0x0 SWAP1 JUMPDEST DUP3 DUP3 LT PUSH2 0x6E5 JUMPI PUSH2 0x4F4 DUP7 PUSH2 0x6D9 DUP2 DUP11 SUB DUP3 PUSH2 0x316 JUMP JUMPDEST PUSH1 0x40 MLOAD SWAP2 DUP3 SWAP2 DUP3 PUSH2 0x630 JUMP JUMPDEST DUP5 SLOAD DUP8 MSTORE SWAP6 DUP7 ADD SWAP6 SWAP4 DUP4 ADD SWAP4 SWAP1 DUP4 ADD SWAP1 PUSH2 0x6C2 JUMP JUMPDEST CALLVALUE PUSH2 0x1B0 JUMPI PUSH1 0x0 CALLDATASIZE PUSH1 0x3 NOT ADD SLT PUSH2 0x1B0 JUMPI PUSH1 0x0 SLOAD PUSH1 0x40 MLOAD PUSH1 0x1 PUSH1 0x1 PUSH1 0xA0 SHL SUB SWAP1 SWAP2 AND DUP2 MSTORE PUSH1 0x20 SWAP1 RETURN JUMPDEST PUSH4 0x4E487B71 PUSH1 0xE0 SHL PUSH1 0x0 MSTORE PUSH1 0x21 PUSH1 0x4 MSTORE PUSH1 0x24 PUSH1 0x0 REVERT JUMPDEST SWAP1 PUSH1 0x8 DUP3 LT ISZERO PUSH2 0x746 JUMPI MSTORE JUMP JUMPDEST PUSH2 0x723 JUMP JUMPDEST SWAP1 PUSH1 0x3 DUP3 LT ISZERO PUSH2 0x746 JUMPI MSTORE JUMP JUMPDEST DUP1 MLOAD PUSH1 0x1 PUSH1 0x1 PUSH1 0xA0 SHL SUB AND DUP3 MSTORE PUSH2 0x498 SWAP2 SWAP1 PUSH1 0x20 DUP2 DUP2 ADD MLOAD PUSH1 0x1 PUSH1 0x1 PUSH1 0xA0 SHL SUB AND SWAP1 DUP4 ADD MSTORE PUSH1 0x40 DUP2 ADD MLOAD PUSH1 0x40 DUP4 ADD MSTORE PUSH1 0x60 DUP2 ADD MLOAD PUSH1 0x60 DUP4 ADD MSTORE PUSH1 0x80 DUP2 ADD MLOAD PUSH1 0x80 DUP4 ADD MSTORE PUSH1 0xA0 DUP2 ADD MLOAD PUSH1 0xA0 DUP4 ADD MSTORE PUSH1 0xC0 DUP2 ADD MLOAD PUSH1 0xC0 DUP4 ADD MSTORE PUSH1 0xE0 DUP2 ADD MLOAD PUSH1 0xE0 DUP4 ADD MSTORE PUSH2 0x7CC PUSH2 0x100 DUP1 DUP4 ADD MLOAD SWAP1 DUP5 ADD SWAP1 PUSH2 0x739 JUMP JUMPDEST PUSH2 0x7DF PUSH2 0x120 DUP1 DUP4 ADD MLOAD SWAP1 DUP5 ADD SWAP1 PUSH2 0x74B JUMP JUMPDEST PUSH2 0x140 DUP1 SWAP2 ADD MLOAD SWAP2 PUSH2 0x160 DUP1 SWAP3 DUP3 ADD MSTORE ADD SWAP1 PUSH2 0x462 JUMP JUMPDEST PUSH1 0x20 DUP1 DUP3 ADD SWAP1 DUP1 DUP4 MSTORE DUP4 MLOAD DUP1 SWAP3 MSTORE PUSH1 0x40 DUP4 ADD SWAP3 DUP2 PUSH1 0x40 DUP5 PUSH1 0x5 SHL DUP4 ADD ADD SWAP6 ADD SWAP4 PUSH1 0x0 SWAP2 JUMPDEST DUP5 DUP4 LT PUSH2 0x82A JUMPI POP POP POP POP POP POP SWAP1 JUMP JUMPDEST SWAP1 SWAP2 SWAP3 SWAP4 SWAP5 SWAP6 DUP5 DUP1 PUSH2 0x848 PUSH1 0x1 SWAP4 PUSH1 0x3F NOT DUP7 DUP3 SUB ADD DUP8 MSTORE DUP11 MLOAD PUSH2 0x758 JUMP JUMPDEST SWAP9 ADD SWAP4 ADD SWAP4 ADD SWAP2 SWAP5 SWAP4 SWAP3 SWAP1 PUSH2 0x81A JUMP JUMPDEST CALLVALUE PUSH2 0x1B0 JUMPI PUSH1 0x20 DUP1 PUSH1 0x3 NOT CALLDATASIZE ADD SLT PUSH2 0x1B0 JUMPI PUSH1 0x4 CALLDATALOAD PUSH2 0x876 DUP2 PUSH2 0x1DE JUMP JUMPDEST PUSH1 0x1 DUP1 PUSH1 0xA0 SHL SUB AND PUSH1 0x0 MSTORE PUSH1 0xC DUP2 MSTORE PUSH1 0x40 PUSH1 0x0 KECCAK256 PUSH1 0x40 MLOAD SWAP2 DUP3 DUP2 DUP4 SLOAD SWAP2 DUP3 DUP2 MSTORE ADD SWAP3 PUSH1 0x0 MSTORE DUP2 PUSH1 0x0 KECCAK256 SWAP2 PUSH1 0x0 SWAP1 JUMPDEST DUP3 DUP3 LT PUSH2 0x8CF JUMPI PUSH2 0x4F4 PUSH2 0x8C3 DUP8 PUSH2 0x8BE DUP2 DUP10 SUB DUP3 PUSH2 0x316 JUMP JUMPDEST PUSH2 0x19D0 JUMP JUMPDEST PUSH1 0x40 MLOAD SWAP2 DUP3 SWAP2 DUP3 PUSH2 0x7F6 JUMP JUMPDEST DUP4 SLOAD DUP6 MSTORE SWAP4 DUP5 ADD SWAP4 PUSH1 0x1 SWAP4 DUP5 ADD SWAP4 SWAP1 SWAP2 ADD SWAP1 PUSH2 0x8A4 JUMP JUMPDEST CALLVALUE PUSH2 0x1B0 JUMPI PUSH1 0x20 DUP1 PUSH1 0x3 NOT CALLDATASIZE ADD SLT PUSH2 0x1B0 JUMPI PUSH1 0x4 CALLDATALOAD PUSH2 0x904 DUP2 PUSH2 0x1DE JUMP JUMPDEST PUSH1 0x1 PUSH1 0x1 PUSH1 0xA0 SHL SUB AND PUSH1 0x0 SWAP1 DUP2 MSTORE PUSH1 0xC DUP3 MSTORE PUSH1 0x40 DUP1 DUP3 KECCAK256 SWAP1 MLOAD DUP2 SLOAD DUP1 DUP3 MSTORE SWAP2 DUP4 MSTORE DUP4 DUP4 KECCAK256 DUP2 DUP6 ADD SWAP5 SWAP2 SWAP4 SWAP1 SWAP3 SWAP2 JUMPDEST DUP3 DUP3 LT PUSH2 0x949 JUMPI PUSH2 0x4F4 DUP6 PUSH2 0x6D9 DUP2 DUP10 SUB DUP3 PUSH2 0x316 JUMP JUMPDEST DUP4 SLOAD DUP7 MSTORE SWAP5 DUP6 ADD SWAP5 PUSH1 0x1 SWAP4 DUP5 ADD SWAP4 SWAP1 SWAP2 ADD SWAP1 PUSH2 0x932 JUMP JUMPDEST CALLVALUE PUSH2 0x1B0 JUMPI PUSH1 0x0 CALLDATASIZE PUSH1 0x3 NOT ADD SLT PUSH2 0x1B0 JUMPI PUSH1 0x7 SLOAD PUSH1 0x40 MLOAD PUSH1 0x1 PUSH1 0x1 PUSH1 0xA0 SHL SUB SWAP1 SWAP2 AND DUP2 MSTORE PUSH1 0x20 SWAP1 RETURN JUMPDEST PUSH1 0x0 DUP1 PUSH1 0x3 NOT CALLDATASIZE ADD SLT PUSH2 0x56B JUMPI PUSH1 0x4 SLOAD PUSH1 0x1 PUSH1 0x1 PUSH1 0xA0 SHL SUB AND PUSH1 0x40 MLOAD DUP1 PUSH2 0x9B5 ADDRESS DUP5 CALLER PUSH1 0x20 DUP6 ADD PUSH2 0x1123 JUMP JUMPDEST SUB PUSH2 0x9C8 PUSH1 0x1F NOT SWAP2 DUP3 DUP2 ADD DUP5 MSTORE DUP4 PUSH2 0x316 JUMP JUMPDEST PUSH1 0x40 MLOAD PUSH4 0x122643F3 PUSH1 0xE2 SHL DUP2 MSTORE CALLER PUSH1 0x4 DUP3 ADD MSTORE PUSH1 0x1 PUSH1 0x1 PUSH1 0xA0 SHL SUB SWAP4 SWAP1 SWAP2 SWAP1 PUSH1 0x20 SWAP1 DUP4 SWAP1 PUSH1 0x24 SWAP1 DUP3 SWAP1 DUP9 AND GAS STATICCALL SWAP1 DUP2 ISZERO PUSH2 0xB73 JUMPI PUSH2 0xA14 PUSH2 0xAA4 SWAP3 PUSH2 0xA98 SWAP5 DUP9 SWAP2 PUSH2 0xB45 JUMPI JUMPDEST POP PUSH2 0x1207 JUMP JUMPDEST PUSH2 0xA27 PUSH2 0xA1F PUSH2 0x1556 JUMP JUMPDEST CALLVALUE LT ISZERO PUSH2 0x1249 JUMP JUMPDEST PUSH2 0xA62 DUP7 DUP1 DUP1 DUP1 CALLVALUE PUSH2 0xA52 PUSH2 0xA46 PUSH2 0xA46 PUSH1 0x3 SLOAD PUSH1 0x1 DUP1 PUSH1 0xA0 SHL SUB AND SWAP1 JUMP JUMPDEST PUSH1 0x1 PUSH1 0x1 PUSH1 0xA0 SHL SUB AND SWAP1 JUMP JUMPDEST GAS CALL PUSH2 0xA5C PUSH2 0x1286 JUMP JUMPDEST POP PUSH2 0x12B6 JUMP JUMPDEST PUSH2 0xA75 PUSH2 0xA70 PUSH1 0x10 SLOAD PUSH2 0x12F0 JUMP JUMPDEST PUSH1 0x10 SSTORE JUMP JUMPDEST PUSH2 0xA7D PUSH2 0x1315 JUMP JUMPDEST SWAP4 PUSH1 0x40 MLOAD SWAP4 DUP5 SWAP2 PUSH2 0xA92 PUSH1 0x20 DUP5 ADD DUP1 SWAP9 PUSH2 0x13D1 JUMP JUMPDEST SWAP1 PUSH2 0x13D1 JUMP JUMPDEST SUB SWAP1 DUP2 ADD DUP4 MSTORE DUP3 PUSH2 0x316 JUMP JUMPDEST MLOAD SWAP1 DUP4 CREATE SWAP1 DUP2 EXTCODESIZE ISZERO PUSH2 0xB41 JUMPI DUP2 PUSH2 0x4F4 SWAP2 PUSH32 0xB658664A46408E6670A38EC7EA8B7614C9E2916184DFF2FAD99D3A7A3491CA7D SWAP5 SWAP4 AND PUSH2 0xAE2 DUP2 PUSH2 0x1411 JUMP JUMPDEST POP CALLER PUSH1 0x0 SWAP1 DUP2 MSTORE PUSH1 0xC PUSH1 0x20 MSTORE PUSH1 0x40 SWAP1 KECCAK256 PUSH2 0xAFD SWAP1 DUP4 SWAP1 PUSH2 0x13E8 JUMP JUMPDEST POP PUSH1 0x1 PUSH1 0x1 PUSH1 0xA0 SHL SUB DUP3 AND PUSH1 0x0 SWAP1 DUP2 MSTORE PUSH1 0xD PUSH1 0x20 MSTORE PUSH1 0x40 SWAP1 KECCAK256 PUSH2 0xB27 SWAP1 DUP1 SLOAD PUSH1 0xFF NOT AND PUSH1 0x1 OR SWAP1 SSTORE JUMP JUMPDEST PUSH1 0x40 MLOAD SWAP5 DUP5 DUP7 SWAP6 LOG2 PUSH1 0x1 PUSH1 0x1 PUSH1 0xA0 SHL SUB AND DUP3 MSTORE PUSH1 0x20 DUP3 ADD SWAP1 JUMP JUMPDEST DUP3 DUP1 REVERT JUMPDEST PUSH2 0xB66 SWAP2 POP PUSH1 0x20 RETURNDATASIZE DUP2 GT PUSH2 0xB6C JUMPI JUMPDEST PUSH2 0xB5E DUP2 DUP4 PUSH2 0x316 JUMP JUMPDEST DUP2 ADD SWAP1 PUSH2 0x11E6 JUMP JUMPDEST CODESIZE PUSH2 0xA0E JUMP JUMPDEST POP RETURNDATASIZE PUSH2 0xB54 JUMP JUMPDEST PUSH2 0x11FB JUMP JUMPDEST CALLVALUE PUSH2 0x1B0 JUMPI PUSH1 0x20 CALLDATASIZE PUSH1 0x3 NOT ADD SLT PUSH2 0x1B0 JUMPI PUSH1 0x4 CALLDATALOAD PUSH2 0xB95 DUP2 PUSH2 0x1DE JUMP JUMPDEST PUSH1 0x1 DUP1 PUSH1 0xA0 SHL SUB AND PUSH1 0x0 MSTORE PUSH1 0xD PUSH1 0x20 MSTORE PUSH1 0x20 PUSH1 0xFF PUSH1 0x40 PUSH1 0x0 KECCAK256 SLOAD AND PUSH1 0x40 MLOAD SWAP1 ISZERO ISZERO DUP2 MSTORE RETURN JUMPDEST PUSH1 0x4 CALLDATALOAD SWAP1 PUSH1 0xFF DUP3 AND DUP3 SUB PUSH2 0x1B0 JUMPI JUMP JUMPDEST CALLVALUE PUSH2 0x1B0 JUMPI PUSH1 0x20 CALLDATASIZE PUSH1 0x3 NOT ADD SLT PUSH2 0x1B0 JUMPI PUSH1 0xFF PUSH2 0xBE5 PUSH2 0xBBA JUMP JUMPDEST AND PUSH1 0x0 MSTORE PUSH1 0xB PUSH1 0x20 MSTORE PUSH1 0x20 PUSH3 0xFFFFFF PUSH1 0x40 PUSH1 0x0 KECCAK256 SLOAD AND PUSH1 0x40 MLOAD SWAP1 DUP2 MSTORE RETURN JUMPDEST CALLVALUE PUSH2 0x1B0 JUMPI PUSH1 0x20 CALLDATASIZE PUSH1 0x3 NOT ADD SLT PUSH2 0x1B0 JUMPI PUSH2 0x4F4 PUSH2 0xC34 PUSH1 0x4 CALLDATALOAD PUSH2 0xC26 DUP2 PUSH2 0x1DE JUMP JUMPDEST PUSH2 0xC2E PUSH2 0x14E3 JUMP JUMPDEST POP PUSH2 0x1672 JUMP JUMPDEST PUSH1 0x40 MLOAD SWAP2 DUP3 SWAP2 PUSH1 0x20 DUP4 MSTORE PUSH1 0x20 DUP4 ADD SWAP1 PUSH2 0x758 JUMP JUMPDEST CALLVALUE PUSH2 0x1B0 JUMPI PUSH1 0x0 CALLDATASIZE PUSH1 0x3 NOT ADD SLT PUSH2 0x1B0 JUMPI PUSH1 0x40 MLOAD DUP1 PUSH1 0x1 SWAP1 DUP2 SLOAD SWAP2 DUP3 DUP3 MSTORE PUSH1 0x20 DUP1 SWAP3 ADD SWAP3 DUP2 PUSH1 0x0 MSTORE PUSH32 0xB10E2D527612073B26EECDFD717E6A320CF44B4AFAC2B0732D9FCBE2B7FA0CF6 SWAP3 PUSH1 0x0 SWAP1 JUMPDEST DUP3 DUP3 LT PUSH2 0xCB0 JUMPI PUSH2 0x4F4 PUSH2 0x8C3 DUP9 PUSH2 0x8BE DUP2 DUP11 SUB DUP3 PUSH2 0x316 JUMP JUMPDEST DUP5 SLOAD DUP7 MSTORE SWAP5 DUP6 ADD SWAP5 SWAP4 DUP4 ADD SWAP4 SWAP1 DUP4 ADD SWAP1 PUSH2 0xC96 JUMP JUMPDEST CALLVALUE PUSH2 0x1B0 JUMPI PUSH1 0x40 CALLDATASIZE PUSH1 0x3 NOT ADD SLT PUSH2 0x1B0 JUMPI PUSH2 0xCDE PUSH2 0xBBA JUMP JUMPDEST PUSH1 0x24 CALLDATALOAD SWAP1 PUSH3 0xFFFFFF DUP3 AND DUP1 SWAP3 SUB PUSH2 0x1B0 JUMPI PUSH1 0xFF SWAP1 PUSH2 0xCFA PUSH2 0xE32 JUMP JUMPDEST AND PUSH1 0x0 MSTORE PUSH1 0xB PUSH1 0x20 MSTORE PUSH1 0x40 PUSH1 0x0 KECCAK256 SWAP1 PUSH3 0xFFFFFF NOT DUP3 SLOAD AND OR SWAP1 SSTORE PUSH1 0x0 DUP1 RETURN JUMPDEST CALLVALUE PUSH2 0x1B0 JUMPI PUSH1 0x20 CALLDATASIZE PUSH1 0x3 NOT ADD SLT PUSH2 0x1B0 JUMPI PUSH1 0x4 CALLDATALOAD PUSH2 0xD36 DUP2 PUSH2 0x1DE JUMP JUMPDEST PUSH2 0xD3E PUSH2 0xE32 JUMP JUMPDEST PUSH1 0x1 PUSH1 0x1 PUSH1 0xA0 SHL SUB SWAP1 DUP2 AND DUP1 ISZERO PUSH2 0xD8C JUMPI PUSH1 0x0 DUP1 SLOAD PUSH1 0x1 PUSH1 0x1 PUSH1 0xA0 SHL SUB NOT DUP2 AND DUP4 OR DUP3 SSTORE SWAP1 SWAP3 AND PUSH32 0x8BE0079C531659141344CD1FD0A4F28419497F9722A3DAAFE3B4186F6B6457E0 DUP4 DUP1 LOG3 DUP1 RETURN JUMPDEST PUSH1 0x40 MLOAD PUSH3 0x461BCD PUSH1 0xE5 SHL DUP2 MSTORE PUSH1 0x20 PUSH1 0x4 DUP3 ADD MSTORE PUSH1 0x26 PUSH1 0x24 DUP3 ADD MSTORE PUSH32 0x4F776E61626C653A206E6577206F776E657220697320746865207A65726F2061 PUSH1 0x44 DUP3 ADD MSTORE PUSH6 0x646472657373 PUSH1 0xD0 SHL PUSH1 0x64 DUP3 ADD MSTORE PUSH1 0x84 SWAP1 REVERT JUMPDEST CALLVALUE PUSH2 0x1B0 JUMPI PUSH1 0x0 CALLDATASIZE PUSH1 0x3 NOT ADD SLT PUSH2 0x1B0 JUMPI PUSH1 0x6 SLOAD PUSH1 0x40 MLOAD PUSH1 0x1 PUSH1 0x1 PUSH1 0xA0 SHL SUB SWAP1 SWAP2 AND DUP2 MSTORE PUSH1 0x20 SWAP1 RETURN JUMPDEST CALLVALUE PUSH2 0x1B0 JUMPI PUSH1 0x0 CALLDATASIZE PUSH1 0x3 NOT ADD SLT PUSH2 0x1B0 JUMPI PUSH1 0x9 SLOAD PUSH1 0x40 MLOAD PUSH1 0x1 PUSH1 0x1 PUSH1 0xA0 SHL SUB SWAP1 SWAP2 AND DUP2 MSTORE PUSH1 0x20 SWAP1 RETURN JUMPDEST PUSH1 0x0 SLOAD PUSH1 0x1 PUSH1 0x1 PUSH1 0xA0 SHL SUB AND CALLER SUB PUSH2 0xE46 JUMPI JUMP JUMPDEST PUSH1 0x64 PUSH1 0x40 MLOAD PUSH3 0x461BCD PUSH1 0xE5 SHL DUP2 MSTORE PUSH1 0x20 PUSH1 0x4 DUP3 ADD MSTORE PUSH1 0x20 PUSH1 0x24 DUP3 ADD MSTORE PUSH32 0x4F776E61626C653A2063616C6C6572206973206E6F7420746865206F776E6572 PUSH1 0x44 DUP3 ADD MSTORE REVERT JUMPDEST SWAP1 PUSH2 0xE93 PUSH2 0xE32 JUMP JUMPDEST DUP2 MLOAD PUSH8 0xFFFFFFFFFFFFFFFF DUP2 GT PUSH2 0x338 JUMPI PUSH2 0xEB8 DUP2 PUSH2 0xEB3 PUSH1 0xA SLOAD PUSH2 0x405 JUMP JUMPDEST PUSH2 0xFA6 JUMP JUMPDEST PUSH1 0x20 DUP1 PUSH1 0x1F DUP4 GT PUSH1 0x1 EQ PUSH2 0xEFC JUMPI POP DUP2 SWAP1 PUSH2 0xEEF SWAP5 PUSH1 0x0 SWAP3 PUSH2 0xEF1 JUMPI JUMPDEST POP POP DUP2 PUSH1 0x1 SHL SWAP2 PUSH1 0x0 NOT SWAP1 PUSH1 0x3 SHL SHR NOT AND OR PUSH1 0xA SSTORE PUSH2 0x104B JUMP JUMPDEST JUMP JUMPDEST ADD MLOAD SWAP1 POP CODESIZE DUP1 PUSH2 0xED5 JUMP JUMPDEST SWAP2 SWAP3 SWAP4 PUSH1 0x1F NOT DUP5 AND PUSH2 0xF30 PUSH1 0xA PUSH1 0x0 MSTORE PUSH32 0xC65A7BB8D6351C1CF70C95A316CC6A92839C986682D98BC35F958F4883F9D2A8 SWAP1 JUMP JUMPDEST SWAP4 PUSH1 0x0 SWAP1 JUMPDEST DUP3 DUP3 LT PUSH2 0xF77 JUMPI POP POP SWAP2 PUSH1 0x1 SWAP4 SWAP2 DUP6 PUSH2 0xEEF SWAP8 SWAP7 SWAP5 LT PUSH2 0xF5E JUMPI JUMPDEST POP POP POP DUP2 SHL ADD PUSH1 0xA SSTORE PUSH2 0x104B JUMP JUMPDEST ADD MLOAD PUSH1 0x0 NOT PUSH1 0xF8 DUP5 PUSH1 0x3 SHL AND SHR NOT AND SWAP1 SSTORE CODESIZE DUP1 DUP1 PUSH2 0xF50 JUMP JUMPDEST DUP1 PUSH1 0x1 DUP7 SWAP8 DUP3 SWAP5 SWAP8 DUP8 ADD MLOAD DUP2 SSTORE ADD SWAP7 ADD SWAP5 ADD SWAP1 PUSH2 0xF35 JUMP JUMPDEST DUP2 DUP2 LT PUSH2 0xF9A JUMPI POP POP JUMP JUMPDEST PUSH1 0x0 DUP2 SSTORE PUSH1 0x1 ADD PUSH2 0xF8F JUMP JUMPDEST SWAP1 PUSH1 0x1F DUP3 GT PUSH2 0xFB3 JUMPI POP POP JUMP JUMPDEST PUSH2 0xEEF SWAP2 PUSH1 0xA PUSH1 0x0 MSTORE PUSH32 0xC65A7BB8D6351C1CF70C95A316CC6A92839C986682D98BC35F958F4883F9D2A8 SWAP1 PUSH1 0x20 PUSH1 0x1F DUP5 ADD PUSH1 0x5 SHR DUP4 ADD SWAP4 LT PUSH2 0xFFD JUMPI JUMPDEST PUSH1 0x1F ADD PUSH1 0x5 SHR ADD SWAP1 PUSH2 0xF8F JUMP JUMPDEST SWAP1 SWAP2 POP DUP2 SWAP1 PUSH2 0xFF0 JUMP JUMPDEST SWAP1 PUSH1 0x1F DUP3 GT PUSH2 0x1014 JUMPI POP POP JUMP JUMPDEST PUSH2 0xEEF SWAP2 PUSH1 0xE PUSH1 0x0 MSTORE PUSH1 0x0 DUP1 MLOAD PUSH1 0x20 PUSH2 0x1A6D DUP4 CODECOPY DUP2 MLOAD SWAP2 MSTORE SWAP1 PUSH1 0x20 PUSH1 0x1F DUP5 ADD PUSH1 0x5 SHR DUP4 ADD SWAP4 LT PUSH2 0xFFD JUMPI PUSH1 0x1F ADD PUSH1 0x5 SHR ADD SWAP1 PUSH2 0xF8F JUMP JUMPDEST SWAP1 DUP2 MLOAD PUSH8 0xFFFFFFFFFFFFFFFF DUP2 GT PUSH2 0x338 JUMPI PUSH2 0x1071 DUP2 PUSH2 0x106C PUSH1 0xE SLOAD PUSH2 0x405 JUMP JUMPDEST PUSH2 0x1007 JUMP JUMPDEST PUSH1 0x20 DUP1 PUSH1 0x1F DUP4 GT PUSH1 0x1 EQ PUSH2 0x10AD JUMPI POP DUP2 SWAP3 SWAP4 PUSH1 0x0 SWAP3 PUSH2 0x10A2 JUMPI JUMPDEST POP POP DUP2 PUSH1 0x1 SHL SWAP2 PUSH1 0x0 NOT SWAP1 PUSH1 0x3 SHL SHR NOT AND OR PUSH1 0xE SSTORE JUMP JUMPDEST ADD MLOAD SWAP1 POP CODESIZE DUP1 PUSH2 0x108B JUMP JUMPDEST SWAP1 PUSH1 0x1F NOT DUP4 AND SWAP5 PUSH2 0x10CE PUSH1 0xE PUSH1 0x0 MSTORE PUSH1 0x0 DUP1 MLOAD PUSH1 0x20 PUSH2 0x1A6D DUP4 CODECOPY DUP2 MLOAD SWAP2 MSTORE SWAP1 JUMP JUMPDEST SWAP3 PUSH1 0x0 SWAP1 JUMPDEST DUP8 DUP3 LT PUSH2 0x110B JUMPI POP POP DUP4 PUSH1 0x1 SWAP6 SWAP7 LT PUSH2 0x10F2 JUMPI JUMPDEST POP POP POP DUP2 SHL ADD PUSH1 0xE SSTORE JUMP JUMPDEST ADD MLOAD PUSH1 0x0 NOT PUSH1 0xF8 DUP5 PUSH1 0x3 SHL AND SHR NOT AND SWAP1 SSTORE CODESIZE DUP1 DUP1 PUSH2 0x10E7 JUMP JUMPDEST DUP1 PUSH1 0x1 DUP6 SWAP7 DUP3 SWAP5 SWAP7 DUP7 ADD MLOAD DUP2 SSTORE ADD SWAP6 ADD SWAP4 ADD SWAP1 PUSH2 0x10D3 JUMP JUMPDEST SWAP3 PUSH1 0x1 DUP1 PUSH1 0xA0 SHL SUB DUP1 SWAP3 AND DUP5 MSTORE DUP2 PUSH1 0x20 SWAP4 AND DUP4 DUP6 ADD MSTORE AND PUSH1 0x40 DUP4 ADD MSTORE PUSH1 0x80 PUSH1 0x60 DUP4 ADD MSTORE PUSH1 0x0 SWAP2 PUSH1 0xE SLOAD SWAP2 PUSH2 0x1156 DUP4 PUSH2 0x405 JUMP JUMPDEST SWAP3 DUP4 PUSH1 0x80 DUP5 ADD MSTORE PUSH1 0x1 SWAP1 DUP2 DUP2 AND SWAP1 DUP2 PUSH1 0x0 EQ PUSH2 0x11C3 JUMPI POP PUSH1 0x1 EQ PUSH2 0x117C JUMPI JUMPDEST POP POP POP POP SWAP1 JUMP JUMPDEST PUSH1 0xE PUSH1 0x0 SWAP1 DUP2 MSTORE SWAP4 SWAP5 POP PUSH1 0x0 DUP1 MLOAD PUSH1 0x20 PUSH2 0x1A6D DUP4 CODECOPY DUP2 MLOAD SWAP2 MSTORE JUMPDEST DUP6 DUP6 LT PUSH2 0x11AF JUMPI POP POP POP PUSH1 0xA0 SWAP3 POP ADD ADD CODESIZE DUP1 DUP1 DUP1 PUSH2 0x1175 JUMP JUMPDEST DUP1 SLOAD DUP6 DUP6 ADD PUSH1 0xA0 ADD MSTORE SWAP4 DUP3 ADD SWAP4 DUP2 ADD PUSH2 0x1196 JUMP JUMPDEST SWAP3 POP POP POP PUSH1 0xA0 SWAP4 POP PUSH1 0xFF SWAP3 SWAP2 SWAP3 NOT AND DUP4 DUP4 ADD MSTORE ISZERO ISZERO PUSH1 0x5 SHL ADD ADD CODESIZE DUP1 DUP1 DUP1 PUSH2 0x1175 JUMP JUMPDEST SWAP1 DUP2 PUSH1 0x20 SWAP2 SUB SLT PUSH2 0x1B0 JUMPI MLOAD PUSH2 0x498 DUP2 PUSH2 0x5EC JUMP JUMPDEST PUSH1 0x40 MLOAD RETURNDATASIZE PUSH1 0x0 DUP3 RETURNDATACOPY RETURNDATASIZE SWAP1 REVERT JUMPDEST ISZERO PUSH2 0x120E JUMPI JUMP JUMPDEST PUSH1 0x40 MLOAD PUSH3 0x461BCD PUSH1 0xE5 SHL DUP2 MSTORE PUSH1 0x20 PUSH1 0x4 DUP3 ADD MSTORE PUSH1 0x13 PUSH1 0x24 DUP3 ADD MSTORE PUSH19 0x1D5CD95C88191BD95CC81B9BDD08195E1A5CDD PUSH1 0x6A SHL PUSH1 0x44 DUP3 ADD MSTORE PUSH1 0x64 SWAP1 REVERT JUMPDEST ISZERO PUSH2 0x1250 JUMPI JUMP JUMPDEST PUSH1 0x40 MLOAD PUSH3 0x461BCD PUSH1 0xE5 SHL DUP2 MSTORE PUSH1 0x20 PUSH1 0x4 DUP3 ADD MSTORE PUSH1 0xE PUSH1 0x24 DUP3 ADD MSTORE PUSH14 0x4E4F545F454E4F5547485F464545 PUSH1 0x90 SHL PUSH1 0x44 DUP3 ADD MSTORE PUSH1 0x64 SWAP1 REVERT JUMPDEST RETURNDATASIZE ISZERO PUSH2 0x12B1 JUMPI RETURNDATASIZE SWAP1 PUSH2 0x1297 DUP3 PUSH2 0x33D JUMP JUMPDEST SWAP2 PUSH2 0x12A5 PUSH1 0x40 MLOAD SWAP4 DUP5 PUSH2 0x316 JUMP JUMPDEST DUP3 MSTORE RETURNDATASIZE PUSH1 0x0 PUSH1 0x20 DUP5 ADD RETURNDATACOPY JUMP JUMPDEST PUSH1 0x60 SWAP1 JUMP JUMPDEST ISZERO PUSH2 0x12BD JUMPI JUMP JUMPDEST PUSH1 0x40 MLOAD PUSH3 0x461BCD PUSH1 0xE5 SHL DUP2 MSTORE PUSH1 0x20 PUSH1 0x4 DUP3 ADD MSTORE PUSH1 0xB PUSH1 0x24 DUP3 ADD MSTORE PUSH11 0x10D0531317D19052531151 PUSH1 0xAA SHL PUSH1 0x44 DUP3 ADD MSTORE PUSH1 0x64 SWAP1 REVERT JUMPDEST PUSH1 0x0 NOT DUP2 EQ PUSH2 0x12FF JUMPI PUSH1 0x1 ADD SWAP1 JUMP JUMPDEST PUSH4 0x4E487B71 PUSH1 0xE0 SHL PUSH1 0x0 MSTORE PUSH1 0x11 PUSH1 0x4 MSTORE PUSH1 0x24 PUSH1 0x0 REVERT JUMPDEST PUSH1 0x40 MLOAD SWAP1 PUSH1 0x0 DUP3 PUSH1 0xA SLOAD SWAP2 PUSH2 0x1329 DUP4 PUSH2 0x405 JUMP JUMPDEST DUP1 DUP4 MSTORE SWAP3 PUSH1 0x1 SWAP1 DUP2 DUP2 AND SWAP1 DUP2 ISZERO PUSH2 0x13AF JUMPI POP PUSH1 0x1 EQ PUSH2 0x1350 JUMPI JUMPDEST POP PUSH2 0xEEF SWAP3 POP SUB DUP4 PUSH2 0x316 JUMP JUMPDEST PUSH1 0xA PUSH1 0x0 SWAP1 DUP2 MSTORE SWAP2 POP PUSH32 0xC65A7BB8D6351C1CF70C95A316CC6A92839C986682D98BC35F958F4883F9D2A8 JUMPDEST DUP5 DUP4 LT PUSH2 0x1394 JUMPI POP PUSH2 0xEEF SWAP4 POP POP DUP2 ADD PUSH1 0x20 ADD CODESIZE PUSH2 0x1343 JUMP JUMPDEST DUP2 SWAP4 POP SWAP1 DUP2 PUSH1 0x20 SWAP3 SLOAD DUP4 DUP6 DUP11 ADD ADD MSTORE ADD SWAP2 ADD SWAP1 SWAP2 DUP6 SWAP3 PUSH2 0x137B JUMP JUMPDEST SWAP1 POP PUSH1 0x20 SWAP3 POP PUSH2 0xEEF SWAP5 SWAP2 POP PUSH1 0xFF NOT AND DUP3 DUP5 ADD MSTORE ISZERO ISZERO PUSH1 0x5 SHL DUP3 ADD ADD CODESIZE PUSH2 0x1343 JUMP JUMPDEST SWAP1 PUSH2 0x13E4 PUSH1 0x20 SWAP3 DUP3 DUP2 MLOAD SWAP5 DUP6 SWAP3 ADD PUSH2 0x43F JUMP JUMPDEST ADD SWAP1 JUMP JUMPDEST PUSH2 0x498 SWAP2 PUSH1 0x1 PUSH1 0x1 PUSH1 0xA0 SHL SUB AND SWAP1 PUSH2 0x148D JUMP JUMPDEST PUSH4 0x4E487B71 PUSH1 0xE0 SHL PUSH1 0x0 MSTORE PUSH1 0x32 PUSH1 0x4 MSTORE PUSH1 0x24 PUSH1 0x0 REVERT JUMPDEST DUP1 PUSH1 0x0 MSTORE PUSH1 0x2 PUSH1 0x20 MSTORE PUSH1 0x40 PUSH1 0x0 KECCAK256 SLOAD ISZERO PUSH1 0x0 EQ PUSH2 0x1487 JUMPI PUSH1 0x1 SLOAD PUSH1 0x1 PUSH1 0x40 SHL DUP2 LT ISZERO PUSH2 0x338 JUMPI PUSH1 0x1 DUP2 ADD DUP1 PUSH1 0x1 SSTORE DUP2 LT ISZERO PUSH2 0x1482 JUMPI DUP2 SWAP1 PUSH32 0xB10E2D527612073B26EECDFD717E6A320CF44B4AFAC2B0732D9FCBE2B7FA0CF6 ADD SSTORE PUSH1 0x1 SLOAD SWAP1 PUSH1 0x0 MSTORE PUSH1 0x2 PUSH1 0x20 MSTORE PUSH1 0x40 PUSH1 0x0 KECCAK256 SSTORE PUSH1 0x1 SWAP1 JUMP JUMPDEST PUSH2 0x13FB JUMP JUMPDEST POP PUSH1 0x0 SWAP1 JUMP JUMPDEST PUSH1 0x0 DUP3 DUP2 MSTORE PUSH1 0x1 DUP3 ADD PUSH1 0x20 DUP2 SWAP1 MSTORE PUSH1 0x40 DUP3 KECCAK256 SLOAD PUSH2 0x14DC JUMPI DUP3 SLOAD SWAP3 PUSH1 0x1 PUSH1 0x40 SHL DUP5 LT ISZERO PUSH2 0x338 JUMPI PUSH1 0x1 DUP5 ADD DUP1 DUP3 SSTORE DUP5 LT ISZERO PUSH2 0x1482 JUMPI DUP5 PUSH1 0x40 SWAP5 DUP3 DUP6 MSTORE PUSH1 0x20 DUP6 KECCAK256 ADD SSTORE SLOAD SWAP4 DUP3 MSTORE PUSH1 0x20 MSTORE KECCAK256 SSTORE PUSH1 0x1 SWAP1 JUMP JUMPDEST POP SWAP2 POP POP SWAP1 JUMP JUMPDEST PUSH1 0x40 MLOAD SWAP1 PUSH2 0x160 DUP3 ADD DUP3 DUP2 LT PUSH8 0xFFFFFFFFFFFFFFFF DUP3 GT OR PUSH2 0x338 JUMPI PUSH1 0x40 MSTORE PUSH1 0x60 PUSH2 0x140 DUP4 PUSH1 0x0 DUP1 DUP3 MSTORE DUP1 PUSH1 0x20 DUP4 ADD MSTORE DUP1 PUSH1 0x40 DUP4 ADD MSTORE DUP1 DUP5 DUP4 ADD MSTORE DUP1 PUSH1 0x80 DUP4 ADD MSTORE DUP1 PUSH1 0xA0 DUP4 ADD MSTORE DUP1 PUSH1 0xC0 DUP4 ADD MSTORE DUP1 PUSH1 0xE0 DUP4 ADD MSTORE DUP1 PUSH2 0x100 DUP4 ADD MSTORE PUSH2 0x120 DUP3 ADD MSTORE ADD MSTORE JUMP JUMPDEST SWAP1 DUP2 PUSH1 0x20 SWAP2 SUB SLT PUSH2 0x1B0 JUMPI MLOAD SWAP1 JUMP JUMPDEST PUSH1 0x3 SLOAD PUSH1 0x40 MLOAD PUSH4 0x91792D5B PUSH1 0xE0 SHL DUP2 MSTORE SWAP1 PUSH1 0x20 SWAP1 DUP3 SWAP1 PUSH1 0x4 SWAP1 DUP3 SWAP1 PUSH1 0x1 PUSH1 0x1 PUSH1 0xA0 SHL SUB AND GAS STATICCALL SWAP1 DUP2 ISZERO PUSH2 0xB73 JUMPI PUSH1 0x0 SWAP2 PUSH2 0x158E JUMPI POP SWAP1 JUMP JUMPDEST PUSH2 0x498 SWAP2 POP PUSH1 0x20 RETURNDATASIZE DUP2 GT PUSH2 0x15AF JUMPI JUMPDEST PUSH2 0x15A7 DUP2 DUP4 PUSH2 0x316 JUMP JUMPDEST DUP2 ADD SWAP1 PUSH2 0x1547 JUMP JUMPDEST POP RETURNDATASIZE PUSH2 0x159D JUMP JUMPDEST SWAP1 DUP2 PUSH1 0x20 SWAP2 SUB SLT PUSH2 0x1B0 JUMPI MLOAD PUSH2 0x498 DUP2 PUSH2 0x1DE JUMP JUMPDEST SWAP1 DUP2 PUSH1 0x20 SWAP2 SUB SLT PUSH2 0x1B0 JUMPI MLOAD PUSH1 0x8 DUP2 LT ISZERO PUSH2 0x1B0 JUMPI SWAP1 JUMP JUMPDEST PUSH1 0x8 DUP3 LT ISZERO PUSH2 0x746 JUMPI MSTORE JUMP JUMPDEST SWAP1 DUP2 PUSH1 0x20 SWAP2 SUB SLT PUSH2 0x1B0 JUMPI MLOAD PUSH1 0x3 DUP2 LT ISZERO PUSH2 0x1B0 JUMPI SWAP1 JUMP JUMPDEST PUSH1 0x3 DUP3 LT ISZERO PUSH2 0x746 JUMPI MSTORE JUMP JUMPDEST PUSH1 0x20 DUP2 DUP4 SUB SLT PUSH2 0x1B0 JUMPI DUP1 MLOAD SWAP1 PUSH8 0xFFFFFFFFFFFFFFFF DUP3 GT PUSH2 0x1B0 JUMPI ADD DUP2 PUSH1 0x1F DUP3 ADD SLT ISZERO PUSH2 0x1B0 JUMPI DUP1 MLOAD PUSH2 0x1646 DUP2 PUSH2 0x33D JUMP JUMPDEST SWAP3 PUSH2 0x1654 PUSH1 0x40 MLOAD SWAP5 DUP6 PUSH2 0x316 JUMP JUMPDEST DUP2 DUP5 MSTORE PUSH1 0x20 DUP3 DUP5 ADD ADD GT PUSH2 0x1B0 JUMPI PUSH2 0x498 SWAP2 PUSH1 0x20 DUP1 DUP6 ADD SWAP2 ADD PUSH2 0x43F JUMP JUMPDEST PUSH2 0x167A PUSH2 0x14E3 JUMP JUMPDEST POP PUSH2 0x1683 PUSH2 0x14E3 JUMP JUMPDEST PUSH1 0x1 PUSH1 0x1 PUSH1 0xA0 SHL SUB SWAP1 SWAP2 AND DUP1 DUP3 MSTORE PUSH1 0x40 DUP1 MLOAD PUSH4 0x8DA5CB5B PUSH1 0xE0 SHL DUP2 MSTORE PUSH1 0x4 SWAP3 PUSH1 0x20 SWAP3 SWAP1 SWAP2 DUP4 DUP2 DUP7 DUP2 DUP7 GAS STATICCALL DUP1 ISZERO PUSH2 0xB73 JUMPI PUSH2 0x16D0 SWAP2 PUSH1 0x0 SWAP2 PUSH2 0x1977 JUMPI JUMPDEST POP PUSH1 0x1 PUSH1 0x1 PUSH1 0xA0 SHL SUB AND DUP7 DUP6 ADD MSTORE JUMP JUMPDEST DUP1 MLOAD PUSH4 0x5C63ED69 PUSH1 0xE0 SHL DUP2 MSTORE DUP4 DUP2 DUP7 DUP2 DUP7 GAS STATICCALL SWAP1 DUP2 ISZERO PUSH2 0xB73 JUMPI PUSH1 0x0 SWAP2 PUSH2 0x195A JUMPI JUMPDEST POP DUP6 DUP3 ADD MSTORE DUP1 MLOAD PUSH4 0x4C38D877 PUSH1 0xE0 SHL DUP2 MSTORE DUP4 DUP2 DUP7 DUP2 DUP7 GAS STATICCALL SWAP1 DUP2 ISZERO PUSH2 0xB73 JUMPI PUSH1 0x0 SWAP2 PUSH2 0x193D JUMPI JUMPDEST POP PUSH1 0x60 DUP7 ADD MSTORE DUP1 MLOAD PUSH4 0x48BF3BB PUSH1 0xE1 SHL DUP2 MSTORE DUP4 DUP2 DUP7 DUP2 DUP7 GAS STATICCALL SWAP1 DUP2 ISZERO PUSH2 0xB73 JUMPI PUSH1 0x0 SWAP2 PUSH2 0x1920 JUMPI JUMPDEST POP PUSH1 0x80 DUP7 ADD MSTORE DUP1 MLOAD PUSH4 0xBC83617 PUSH1 0xE1 SHL DUP2 MSTORE DUP4 DUP2 DUP7 DUP2 DUP7 GAS STATICCALL SWAP1 DUP2 ISZERO PUSH2 0xB73 JUMPI PUSH1 0x0 SWAP2 PUSH2 0x1903 JUMPI JUMPDEST POP PUSH1 0xA0 DUP7 ADD MSTORE DUP1 MLOAD PUSH4 0xD24E0C87 PUSH1 0xE0 SHL DUP2 MSTORE DUP4 DUP2 DUP7 DUP2 DUP7 GAS STATICCALL SWAP1 DUP2 ISZERO PUSH2 0xB73 JUMPI PUSH1 0x0 SWAP2 PUSH2 0x18E6 JUMPI JUMPDEST POP PUSH1 0xC0 DUP7 ADD MSTORE DUP1 MLOAD PUSH4 0xFAEB5E17 PUSH1 0xE0 SHL DUP2 MSTORE DUP4 DUP2 DUP7 DUP2 DUP7 GAS STATICCALL SWAP1 DUP2 ISZERO PUSH2 0xB73 JUMPI PUSH1 0x0 SWAP2 PUSH2 0x18C9 JUMPI JUMPDEST POP PUSH1 0xE0 DUP7 ADD MSTORE DUP1 MLOAD PUSH4 0x2734EAB PUSH1 0xE5 SHL DUP2 MSTORE DUP4 DUP2 DUP7 DUP2 DUP7 GAS STATICCALL DUP1 ISZERO PUSH2 0xB73 JUMPI PUSH2 0x17EF SWAP2 PUSH1 0x0 SWAP2 PUSH2 0x189C JUMPI JUMPDEST POP PUSH2 0x100 DUP8 ADD PUSH2 0x15E3 JUMP JUMPDEST DUP1 MLOAD PUSH4 0x10A38F5 PUSH1 0xE0 SHL DUP2 MSTORE SWAP3 DUP1 DUP5 DUP7 DUP2 DUP7 GAS STATICCALL DUP1 ISZERO PUSH2 0xB73 JUMPI PUSH1 0x0 SWAP5 PUSH2 0x1823 SWAP3 DUP7 SWAP3 PUSH2 0x186F JUMPI JUMPDEST POP POP PUSH2 0x120 DUP8 ADD PUSH2 0x1607 JUMP JUMPDEST MLOAD PUSH4 0x54FD4D5 PUSH1 0xE4 SHL DUP2 MSTORE SWAP3 DUP4 SWAP2 DUP3 SWAP1 GAS STATICCALL SWAP1 DUP2 ISZERO PUSH2 0xB73 JUMPI PUSH1 0x0 SWAP2 PUSH2 0x184E JUMPI JUMPDEST POP PUSH2 0x140 DUP3 ADD MSTORE SWAP1 JUMP JUMPDEST PUSH2 0x1869 SWAP2 RETURNDATASIZE DUP1 SWAP2 DUP4 RETURNDATACOPY PUSH2 0x1861 DUP2 DUP4 PUSH2 0x316 JUMP JUMPDEST DUP2 ADD SWAP1 PUSH2 0x1613 JUMP JUMPDEST CODESIZE PUSH2 0x1844 JUMP JUMPDEST PUSH2 0x188E SWAP3 POP DUP1 RETURNDATASIZE LT PUSH2 0x1895 JUMPI JUMPDEST PUSH2 0x1886 DUP2 DUP4 PUSH2 0x316 JUMP JUMPDEST DUP2 ADD SWAP1 PUSH2 0x15EF JUMP JUMPDEST CODESIZE DUP1 PUSH2 0x1817 JUMP JUMPDEST POP RETURNDATASIZE PUSH2 0x187C JUMP JUMPDEST PUSH2 0x18BC SWAP2 POP DUP6 RETURNDATASIZE DUP8 GT PUSH2 0x18C2 JUMPI JUMPDEST PUSH2 0x18B4 DUP2 DUP4 PUSH2 0x316 JUMP JUMPDEST DUP2 ADD SWAP1 PUSH2 0x15CB JUMP JUMPDEST CODESIZE PUSH2 0x17E4 JUMP JUMPDEST POP RETURNDATASIZE PUSH2 0x18AA JUMP JUMPDEST PUSH2 0x18E0 SWAP2 POP DUP5 RETURNDATASIZE DUP7 GT PUSH2 0x15AF JUMPI PUSH2 0x15A7 DUP2 DUP4 PUSH2 0x316 JUMP JUMPDEST CODESIZE PUSH2 0x17B9 JUMP JUMPDEST PUSH2 0x18FD SWAP2 POP DUP5 RETURNDATASIZE DUP7 GT PUSH2 0x15AF JUMPI PUSH2 0x15A7 DUP2 DUP4 PUSH2 0x316 JUMP JUMPDEST CODESIZE PUSH2 0x1791 JUMP JUMPDEST PUSH2 0x191A SWAP2 POP DUP5 RETURNDATASIZE DUP7 GT PUSH2 0x15AF JUMPI PUSH2 0x15A7 DUP2 DUP4 PUSH2 0x316 JUMP JUMPDEST CODESIZE PUSH2 0x1769 JUMP JUMPDEST PUSH2 0x1937 SWAP2 POP DUP5 RETURNDATASIZE DUP7 GT PUSH2 0x15AF JUMPI PUSH2 0x15A7 DUP2 DUP4 PUSH2 0x316 JUMP JUMPDEST CODESIZE PUSH2 0x1741 JUMP JUMPDEST PUSH2 0x1954 SWAP2 POP DUP5 RETURNDATASIZE DUP7 GT PUSH2 0x15AF JUMPI PUSH2 0x15A7 DUP2 DUP4 PUSH2 0x316 JUMP JUMPDEST CODESIZE PUSH2 0x1719 JUMP JUMPDEST PUSH2 0x1971 SWAP2 POP DUP5 RETURNDATASIZE DUP7 GT PUSH2 0x15AF JUMPI PUSH2 0x15A7 DUP2 DUP4 PUSH2 0x316 JUMP JUMPDEST CODESIZE PUSH2 0x16F2 JUMP JUMPDEST PUSH2 0x1997 SWAP2 POP DUP6 RETURNDATASIZE DUP8 GT PUSH2 0x199D JUMPI JUMPDEST PUSH2 0x198F DUP2 DUP4 PUSH2 0x316 JUMP JUMPDEST DUP2 ADD SWAP1 PUSH2 0x15B6 JUMP JUMPDEST CODESIZE PUSH2 0x16C0 JUMP JUMPDEST POP RETURNDATASIZE PUSH2 0x1985 JUMP JUMPDEST PUSH8 0xFFFFFFFFFFFFFFFF DUP2 GT PUSH2 0x338 JUMPI PUSH1 0x5 SHL PUSH1 0x20 ADD SWAP1 JUMP JUMPDEST DUP1 MLOAD DUP3 LT ISZERO PUSH2 0x1482 JUMPI PUSH1 0x20 SWAP2 PUSH1 0x5 SHL ADD ADD SWAP1 JUMP JUMPDEST DUP1 MLOAD PUSH2 0x19DB DUP2 PUSH2 0x19A4 JUMP JUMPDEST SWAP2 PUSH2 0x19E9 PUSH1 0x40 MLOAD SWAP4 DUP5 PUSH2 0x316 JUMP JUMPDEST DUP2 DUP4 MSTORE PUSH1 0x1F NOT PUSH2 0x19F8 DUP4 PUSH2 0x19A4 JUMP JUMPDEST ADD PUSH1 0x0 JUMPDEST DUP2 DUP2 LT PUSH2 0x1A55 JUMPI POP POP PUSH1 0x0 JUMPDEST DUP3 DUP2 LT PUSH2 0x1A15 JUMPI POP POP POP SWAP1 JUMP JUMPDEST PUSH2 0x1A50 SWAP1 PUSH2 0x1A35 PUSH1 0x1 PUSH1 0x1 PUSH1 0xA0 SHL SUB PUSH2 0x1A2E DUP4 DUP7 PUSH2 0x19BC JUMP JUMPDEST MLOAD AND PUSH2 0x1672 JUMP JUMPDEST PUSH2 0x1A3F DUP3 DUP8 PUSH2 0x19BC JUMP JUMPDEST MSTORE PUSH2 0x1A4A DUP2 DUP7 PUSH2 0x19BC JUMP JUMPDEST POP PUSH2 0x12F0 JUMP JUMPDEST PUSH2 0x1A08 JUMP JUMPDEST PUSH1 0x20 SWAP1 PUSH2 0x1A60 PUSH2 0x14E3 JUMP JUMPDEST DUP3 DUP3 DUP9 ADD ADD MSTORE ADD PUSH2 0x19FC JUMP INVALID 0xBB PUSH28 0x4A454DC3493923482F07822329ED19E8244EFF582CC204F8554C3620 0xC3 REVERT LOG2 PUSH5 0x6970667358 0x22 SLT KECCAK256 0x1F PUSH1 0x1B PUSH11 0xDA260B8240CCA2388D612F SGT 0x4F CALLCODE DUP16 SWAP4 PUSH2 0x2CFE 0xD9 EXTCODEHASH DUP4 MOD NOT RETURN 0xEE DUP12 MOD PUSH5 0x736F6C6343 STOP ADDMOD SGT STOP CALLER "},"gasEstimates":{"creation":{"codeDepositCost":"1370000","executionCost":"infinite","totalCost":"infinite"},"external":{"buildFeed()":"infinite","burnEnabled()":"2406","changeMultipleSettings(address,address,address,address,address,address)":"infinite","contractCounter()":"2250","daiToken()":"2572","getFeedInfo(address)":"infinite","getFeeds()":"infinite","getFeedsInfo()":"infinite","getFeedsInfoOwned(address)":"infinite","getFeedsOwned(address)":"infinite","getRouterFee(uint8)":"2747","isContractCreated(address)":"2752","isFeed(address)":"2818","museToken()":"2770","owner()":"2506","renounceOwnership()":"28221","router()":"2789","setBurnEnabled(bool)":"26771","setFeedByteCode(bytes,string)":"infinite","setRouterFee(uint8,uint24)":"27138","transferOwnership(address)":"28633","treasuryContract()":"2308","version()":"infinite","wethToken()":"2352"},"internal":{"_changeVersion(string memory)":"infinite","getCreationFee()":"infinite"}},"methodIdentifiers":{"buildFeed()":"ca5b4e5c","burnEnabled()":"5dc96d16","changeMultipleSettings(address,address,address,address,address,address)":"2ae219b9","contractCounter()":"067bd3b4","daiToken()":"be22f546","getFeedInfo(address)":"d570a66d","getFeeds()":"7fe955d4","getFeedsInfo()":"e86ef353","getFeedsInfoOwned(address)":"ad861324","getFeedsOwned(address)":"b2a2e9ca","getRouterFee(uint8)":"d223a564","isContractCreated(address)":"cedf3ba2","isFeed(address)":"e58fdd04","museToken()":"f77800e5","owner()":"8da5cb5b","renounceOwnership()":"715018a6","router()":"f887ea40","setBurnEnabled(bool)":"7b2c835f","setFeedByteCode(bytes,string)":"54a12c9b","setRouterFee(uint8,uint24)":"e9318b47","transferOwnership(address)":"f2fde38b","treasuryContract()":"18da0011","version()":"54fd4d50","wethToken()":"4b57b0be"}},"storageLayout":{"storage":[{"astId":7,"contract":"contracts/evm/factories/MecenateFeedFactory.sol:MecenateFeedFactory","label":"_owner","offset":0,"slot":"0","type":"t_address"},{"astId":765,"contract":"contracts/evm/factories/MecenateFeedFactory.sol:MecenateFeedFactory","label":"feeds","offset":0,"slot":"1","type":"t_struct(AddressSet)460_storage"},{"astId":768,"contract":"contracts/evm/factories/MecenateFeedFactory.sol:MecenateFeedFactory","label":"settings","offset":0,"slot":"3","type":"t_struct(FactorySettings)1408_storage"},{"astId":770,"contract":"contracts/evm/factories/MecenateFeedFactory.sol:MecenateFeedFactory","label":"feedByteCode","offset":0,"slot":"10","type":"t_bytes_storage"},{"astId":774,"contract":"contracts/evm/factories/MecenateFeedFactory.sol:MecenateFeedFactory","label":"routerFee","offset":0,"slot":"11","type":"t_mapping(t_uint8,t_uint24)"},{"astId":779,"contract":"contracts/evm/factories/MecenateFeedFactory.sol:MecenateFeedFactory","label":"feedStore","offset":0,"slot":"12","type":"t_mapping(t_address,t_struct(AddressSet)460_storage)"},{"astId":783,"contract":"contracts/evm/factories/MecenateFeedFactory.sol:MecenateFeedFactory","label":"createdContracts","offset":0,"slot":"13","type":"t_mapping(t_address,t_bool)"},{"astId":786,"contract":"contracts/evm/factories/MecenateFeedFactory.sol:MecenateFeedFactory","label":"version","offset":0,"slot":"14","type":"t_string_storage"},{"astId":789,"contract":"contracts/evm/factories/MecenateFeedFactory.sol:MecenateFeedFactory","label":"burnEnabled","offset":0,"slot":"15","type":"t_bool"},{"astId":791,"contract":"contracts/evm/factories/MecenateFeedFactory.sol:MecenateFeedFactory","label":"contractCounter","offset":0,"slot":"16","type":"t_uint256"}],"types":{"t_address":{"encoding":"inplace","label":"address","numberOfBytes":"20"},"t_array(t_bytes32)dyn_storage":{"base":"t_bytes32","encoding":"dynamic_array","label":"bytes32[]","numberOfBytes":"32"},"t_bool":{"encoding":"inplace","label":"bool","numberOfBytes":"1"},"t_bytes32":{"encoding":"inplace","label":"bytes32","numberOfBytes":"32"},"t_bytes_storage":{"encoding":"bytes","label":"bytes","numberOfBytes":"32"},"t_mapping(t_address,t_bool)":{"encoding":"mapping","key":"t_address","label":"mapping(address => bool)","numberOfBytes":"32","value":"t_bool"},"t_mapping(t_address,t_struct(AddressSet)460_storage)":{"encoding":"mapping","key":"t_address","label":"mapping(address => struct EnumerableSet.AddressSet)","numberOfBytes":"32","value":"t_struct(AddressSet)460_storage"},"t_mapping(t_bytes32,t_uint256)":{"encoding":"mapping","key":"t_bytes32","label":"mapping(bytes32 => uint256)","numberOfBytes":"32","value":"t_uint256"},"t_mapping(t_uint8,t_uint24)":{"encoding":"mapping","key":"t_uint8","label":"mapping(uint8 => uint24)","numberOfBytes":"32","value":"t_uint24"},"t_string_storage":{"encoding":"bytes","label":"string","numberOfBytes":"32"},"t_struct(AddressSet)460_storage":{"encoding":"inplace","label":"struct EnumerableSet.AddressSet","members":[{"astId":459,"contract":"contracts/evm/factories/MecenateFeedFactory.sol:MecenateFeedFactory","label":"_inner","offset":0,"slot":"0","type":"t_struct(Set)145_storage"}],"numberOfBytes":"64"},"t_struct(FactorySettings)1408_storage":{"encoding":"inplace","label":"struct Structures.FactorySettings","members":[{"astId":1395,"contract":"contracts/evm/factories/MecenateFeedFactory.sol:MecenateFeedFactory","label":"treasuryContract","offset":0,"slot":"0","type":"t_address"},{"astId":1397,"contract":"contracts/evm/factories/MecenateFeedFactory.sol:MecenateFeedFactory","label":"usersModuleContract","offset":0,"slot":"1","type":"t_address"},{"astId":1399,"contract":"contracts/evm/factories/MecenateFeedFactory.sol:MecenateFeedFactory","label":"easContract","offset":0,"slot":"2","type":"t_address"},{"astId":1401,"contract":"contracts/evm/factories/MecenateFeedFactory.sol:MecenateFeedFactory","label":"museToken","offset":0,"slot":"3","type":"t_address"},{"astId":1403,"contract":"contracts/evm/factories/MecenateFeedFactory.sol:MecenateFeedFactory","label":"daiToken","offset":0,"slot":"4","type":"t_address"},{"astId":1405,"contract":"contracts/evm/factories/MecenateFeedFactory.sol:MecenateFeedFactory","label":"wethToken","offset":0,"slot":"5","type":"t_address"},{"astId":1407,"contract":"contracts/evm/factories/MecenateFeedFactory.sol:MecenateFeedFactory","label":"router","offset":0,"slot":"6","type":"t_address"}],"numberOfBytes":"224"},"t_struct(Set)145_storage":{"encoding":"inplace","label":"struct EnumerableSet.Set","members":[{"astId":140,"contract":"contracts/evm/factories/MecenateFeedFactory.sol:MecenateFeedFactory","label":"_values","offset":0,"slot":"0","type":"t_array(t_bytes32)dyn_storage"},{"astId":144,"contract":"contracts/evm/factories/MecenateFeedFactory.sol:MecenateFeedFactory","label":"_indexes","offset":0,"slot":"1","type":"t_mapping(t_bytes32,t_uint256)"}],"numberOfBytes":"64"},"t_uint24":{"encoding":"inplace","label":"uint24","numberOfBytes":"3"},"t_uint256":{"encoding":"inplace","label":"uint256","numberOfBytes":"32"},"t_uint8":{"encoding":"inplace","label":"uint8","numberOfBytes":"1"}}},"userdoc":{"kind":"user","methods":{},"version":1}}}}