{"contracts/helpers/utils/RequestBuilder.sol":{"RequestBuilder":{"abi":[{"inputs":[],"name":"DEFAULT_NAMESPACE","outputs":[{"internalType":"bytes16","name":"","type":"bytes16"}],"stateMutability":"view","type":"function"},{"inputs":[{"components":[{"internalType":"enum ClaimType","name":"claimType","type":"uint8"},{"internalType":"bytes16","name":"groupId","type":"bytes16"},{"internalType":"bytes16","name":"groupTimestamp","type":"bytes16"},{"internalType":"uint256","name":"value","type":"uint256"},{"internalType":"bool","name":"isOptional","type":"bool"},{"internalType":"bool","name":"isSelectableByUser","type":"bool"},{"internalType":"bytes","name":"extraData","type":"bytes"}],"internalType":"struct ClaimRequest","name":"claim","type":"tuple"},{"internalType":"bytes16","name":"namespace","type":"bytes16"}],"name":"build","outputs":[{"components":[{"internalType":"bytes16","name":"namespace","type":"bytes16"},{"components":[{"internalType":"enum AuthType","name":"authType","type":"uint8"},{"internalType":"uint256","name":"userId","type":"uint256"},{"internalType":"bool","name":"isAnon","type":"bool"},{"internalType":"bool","name":"isOptional","type":"bool"},{"internalType":"bool","name":"isSelectableByUser","type":"bool"},{"internalType":"bytes","name":"extraData","type":"bytes"}],"internalType":"struct AuthRequest[]","name":"auths","type":"tuple[]"},{"components":[{"internalType":"enum ClaimType","name":"claimType","type":"uint8"},{"internalType":"bytes16","name":"groupId","type":"bytes16"},{"internalType":"bytes16","name":"groupTimestamp","type":"bytes16"},{"internalType":"uint256","name":"value","type":"uint256"},{"internalType":"bool","name":"isOptional","type":"bool"},{"internalType":"bool","name":"isSelectableByUser","type":"bool"},{"internalType":"bytes","name":"extraData","type":"bytes"}],"internalType":"struct ClaimRequest[]","name":"claims","type":"tuple[]"},{"components":[{"internalType":"bytes","name":"message","type":"bytes"},{"internalType":"bool","name":"isSelectableByUser","type":"bool"},{"internalType":"bytes","name":"extraData","type":"bytes"}],"internalType":"struct SignatureRequest","name":"signature","type":"tuple"}],"internalType":"struct SismoConnectRequest","name":"","type":"tuple"}],"stateMutability":"view","type":"function"},{"inputs":[{"components":[{"internalType":"enum ClaimType","name":"claimType","type":"uint8"},{"internalType":"bytes16","name":"groupId","type":"bytes16"},{"internalType":"bytes16","name":"groupTimestamp","type":"bytes16"},{"internalType":"uint256","name":"value","type":"uint256"},{"internalType":"bool","name":"isOptional","type":"bool"},{"internalType":"bool","name":"isSelectableByUser","type":"bool"},{"internalType":"bytes","name":"extraData","type":"bytes"}],"internalType":"struct ClaimRequest","name":"claim","type":"tuple"}],"name":"build","outputs":[{"components":[{"internalType":"bytes16","name":"namespace","type":"bytes16"},{"components":[{"internalType":"enum AuthType","name":"authType","type":"uint8"},{"internalType":"uint256","name":"userId","type":"uint256"},{"internalType":"bool","name":"isAnon","type":"bool"},{"internalType":"bool","name":"isOptional","type":"bool"},{"internalType":"bool","name":"isSelectableByUser","type":"bool"},{"internalType":"bytes","name":"extraData","type":"bytes"}],"internalType":"struct AuthRequest[]","name":"auths","type":"tuple[]"},{"components":[{"internalType":"enum ClaimType","name":"claimType","type":"uint8"},{"internalType":"bytes16","name":"groupId","type":"bytes16"},{"internalType":"bytes16","name":"groupTimestamp","type":"bytes16"},{"internalType":"uint256","name":"value","type":"uint256"},{"internalType":"bool","name":"isOptional","type":"bool"},{"internalType":"bool","name":"isSelectableByUser","type":"bool"},{"internalType":"bytes","name":"extraData","type":"bytes"}],"internalType":"struct ClaimRequest[]","name":"claims","type":"tuple[]"},{"components":[{"internalType":"bytes","name":"message","type":"bytes"},{"internalType":"bool","name":"isSelectableByUser","type":"bool"},{"internalType":"bytes","name":"extraData","type":"bytes"}],"internalType":"struct SignatureRequest","name":"signature","type":"tuple"}],"internalType":"struct SismoConnectRequest","name":"","type":"tuple"}],"stateMutability":"view","type":"function"},{"inputs":[{"components":[{"internalType":"enum AuthType","name":"authType","type":"uint8"},{"internalType":"uint256","name":"userId","type":"uint256"},{"internalType":"bool","name":"isAnon","type":"bool"},{"internalType":"bool","name":"isOptional","type":"bool"},{"internalType":"bool","name":"isSelectableByUser","type":"bool"},{"internalType":"bytes","name":"extraData","type":"bytes"}],"internalType":"struct AuthRequest","name":"auth","type":"tuple"},{"components":[{"internalType":"bytes","name":"message","type":"bytes"},{"internalType":"bool","name":"isSelectableByUser","type":"bool"},{"internalType":"bytes","name":"extraData","type":"bytes"}],"internalType":"struct SignatureRequest","name":"signature","type":"tuple"},{"internalType":"bytes16","name":"namespace","type":"bytes16"}],"name":"build","outputs":[{"components":[{"internalType":"bytes16","name":"namespace","type":"bytes16"},{"components":[{"internalType":"enum AuthType","name":"authType","type":"uint8"},{"internalType":"uint256","name":"userId","type":"uint256"},{"internalType":"bool","name":"isAnon","type":"bool"},{"internalType":"bool","name":"isOptional","type":"bool"},{"internalType":"bool","name":"isSelectableByUser","type":"bool"},{"internalType":"bytes","name":"extraData","type":"bytes"}],"internalType":"struct AuthRequest[]","name":"auths","type":"tuple[]"},{"components":[{"internalType":"enum ClaimType","name":"claimType","type":"uint8"},{"internalType":"bytes16","name":"groupId","type":"bytes16"},{"internalType":"bytes16","name":"groupTimestamp","type":"bytes16"},{"internalType":"uint256","name":"value","type":"uint256"},{"internalType":"bool","name":"isOptional","type":"bool"},{"internalType":"bool","name":"isSelectableByUser","type":"bool"},{"internalType":"bytes","name":"extraData","type":"bytes"}],"internalType":"struct ClaimRequest[]","name":"claims","type":"tuple[]"},{"components":[{"internalType":"bytes","name":"message","type":"bytes"},{"internalType":"bool","name":"isSelectableByUser","type":"bool"},{"internalType":"bytes","name":"extraData","type":"bytes"}],"internalType":"struct SignatureRequest","name":"signature","type":"tuple"}],"internalType":"struct SismoConnectRequest","name":"","type":"tuple"}],"stateMutability":"pure","type":"function"},{"inputs":[{"components":[{"internalType":"enum AuthType","name":"authType","type":"uint8"},{"internalType":"uint256","name":"userId","type":"uint256"},{"internalType":"bool","name":"isAnon","type":"bool"},{"internalType":"bool","name":"isOptional","type":"bool"},{"internalType":"bool","name":"isSelectableByUser","type":"bool"},{"internalType":"bytes","name":"extraData","type":"bytes"}],"internalType":"struct AuthRequest[]","name":"auths","type":"tuple[]"}],"name":"build","outputs":[{"components":[{"internalType":"bytes16","name":"namespace","type":"bytes16"},{"components":[{"internalType":"enum AuthType","name":"authType","type":"uint8"},{"internalType":"uint256","name":"userId","type":"uint256"},{"internalType":"bool","name":"isAnon","type":"bool"},{"internalType":"bool","name":"isOptional","type":"bool"},{"internalType":"bool","name":"isSelectableByUser","type":"bool"},{"internalType":"bytes","name":"extraData","type":"bytes"}],"internalType":"struct AuthRequest[]","name":"auths","type":"tuple[]"},{"components":[{"internalType":"enum ClaimType","name":"claimType","type":"uint8"},{"internalType":"bytes16","name":"groupId","type":"bytes16"},{"internalType":"bytes16","name":"groupTimestamp","type":"bytes16"},{"internalType":"uint256","name":"value","type":"uint256"},{"internalType":"bool","name":"isOptional","type":"bool"},{"internalType":"bool","name":"isSelectableByUser","type":"bool"},{"internalType":"bytes","name":"extraData","type":"bytes"}],"internalType":"struct ClaimRequest[]","name":"claims","type":"tuple[]"},{"components":[{"internalType":"bytes","name":"message","type":"bytes"},{"internalType":"bool","name":"isSelectableByUser","type":"bool"},{"internalType":"bytes","name":"extraData","type":"bytes"}],"internalType":"struct SignatureRequest","name":"signature","type":"tuple"}],"internalType":"struct SismoConnectRequest","name":"","type":"tuple"}],"stateMutability":"view","type":"function"},{"inputs":[{"components":[{"internalType":"enum ClaimType","name":"claimType","type":"uint8"},{"internalType":"bytes16","name":"groupId","type":"bytes16"},{"internalType":"bytes16","name":"groupTimestamp","type":"bytes16"},{"internalType":"uint256","name":"value","type":"uint256"},{"internalType":"bool","name":"isOptional","type":"bool"},{"internalType":"bool","name":"isSelectableByUser","type":"bool"},{"internalType":"bytes","name":"extraData","type":"bytes"}],"internalType":"struct ClaimRequest[]","name":"claims","type":"tuple[]"},{"components":[{"internalType":"bytes","name":"message","type":"bytes"},{"internalType":"bool","name":"isSelectableByUser","type":"bool"},{"internalType":"bytes","name":"extraData","type":"bytes"}],"internalType":"struct SignatureRequest","name":"signature","type":"tuple"},{"internalType":"bytes16","name":"namespace","type":"bytes16"}],"name":"build","outputs":[{"components":[{"internalType":"bytes16","name":"namespace","type":"bytes16"},{"components":[{"internalType":"enum AuthType","name":"authType","type":"uint8"},{"internalType":"uint256","name":"userId","type":"uint256"},{"internalType":"bool","name":"isAnon","type":"bool"},{"internalType":"bool","name":"isOptional","type":"bool"},{"internalType":"bool","name":"isSelectableByUser","type":"bool"},{"internalType":"bytes","name":"extraData","type":"bytes"}],"internalType":"struct AuthRequest[]","name":"auths","type":"tuple[]"},{"components":[{"internalType":"enum ClaimType","name":"claimType","type":"uint8"},{"internalType":"bytes16","name":"groupId","type":"bytes16"},{"internalType":"bytes16","name":"groupTimestamp","type":"bytes16"},{"internalType":"uint256","name":"value","type":"uint256"},{"internalType":"bool","name":"isOptional","type":"bool"},{"internalType":"bool","name":"isSelectableByUser","type":"bool"},{"internalType":"bytes","name":"extraData","type":"bytes"}],"internalType":"struct ClaimRequest[]","name":"claims","type":"tuple[]"},{"components":[{"internalType":"bytes","name":"message","type":"bytes"},{"internalType":"bool","name":"isSelectableByUser","type":"bool"},{"internalType":"bytes","name":"extraData","type":"bytes"}],"internalType":"struct SignatureRequest","name":"signature","type":"tuple"}],"internalType":"struct SismoConnectRequest","name":"","type":"tuple"}],"stateMutability":"pure","type":"function"},{"inputs":[{"components":[{"internalType":"enum AuthType","name":"authType","type":"uint8"},{"internalType":"uint256","name":"userId","type":"uint256"},{"internalType":"bool","name":"isAnon","type":"bool"},{"internalType":"bool","name":"isOptional","type":"bool"},{"internalType":"bool","name":"isSelectableByUser","type":"bool"},{"internalType":"bytes","name":"extraData","type":"bytes"}],"internalType":"struct AuthRequest[]","name":"auths","type":"tuple[]"},{"internalType":"bytes16","name":"namespace","type":"bytes16"}],"name":"build","outputs":[{"components":[{"internalType":"bytes16","name":"namespace","type":"bytes16"},{"components":[{"internalType":"enum AuthType","name":"authType","type":"uint8"},{"internalType":"uint256","name":"userId","type":"uint256"},{"internalType":"bool","name":"isAnon","type":"bool"},{"internalType":"bool","name":"isOptional","type":"bool"},{"internalType":"bool","name":"isSelectableByUser","type":"bool"},{"internalType":"bytes","name":"extraData","type":"bytes"}],"internalType":"struct AuthRequest[]","name":"auths","type":"tuple[]"},{"components":[{"internalType":"enum ClaimType","name":"claimType","type":"uint8"},{"internalType":"bytes16","name":"groupId","type":"bytes16"},{"internalType":"bytes16","name":"groupTimestamp","type":"bytes16"},{"internalType":"uint256","name":"value","type":"uint256"},{"internalType":"bool","name":"isOptional","type":"bool"},{"internalType":"bool","name":"isSelectableByUser","type":"bool"},{"internalType":"bytes","name":"extraData","type":"bytes"}],"internalType":"struct ClaimRequest[]","name":"claims","type":"tuple[]"},{"components":[{"internalType":"bytes","name":"message","type":"bytes"},{"internalType":"bool","name":"isSelectableByUser","type":"bool"},{"internalType":"bytes","name":"extraData","type":"bytes"}],"internalType":"struct SignatureRequest","name":"signature","type":"tuple"}],"internalType":"struct SismoConnectRequest","name":"","type":"tuple"}],"stateMutability":"view","type":"function"},{"inputs":[{"components":[{"internalType":"enum AuthType","name":"authType","type":"uint8"},{"internalType":"uint256","name":"userId","type":"uint256"},{"internalType":"bool","name":"isAnon","type":"bool"},{"internalType":"bool","name":"isOptional","type":"bool"},{"internalType":"bool","name":"isSelectableByUser","type":"bool"},{"internalType":"bytes","name":"extraData","type":"bytes"}],"internalType":"struct AuthRequest[]","name":"auths","type":"tuple[]"},{"components":[{"internalType":"bytes","name":"message","type":"bytes"},{"internalType":"bool","name":"isSelectableByUser","type":"bool"},{"internalType":"bytes","name":"extraData","type":"bytes"}],"internalType":"struct SignatureRequest","name":"signature","type":"tuple"}],"name":"build","outputs":[{"components":[{"internalType":"bytes16","name":"namespace","type":"bytes16"},{"components":[{"internalType":"enum AuthType","name":"authType","type":"uint8"},{"internalType":"uint256","name":"userId","type":"uint256"},{"internalType":"bool","name":"isAnon","type":"bool"},{"internalType":"bool","name":"isOptional","type":"bool"},{"internalType":"bool","name":"isSelectableByUser","type":"bool"},{"internalType":"bytes","name":"extraData","type":"bytes"}],"internalType":"struct AuthRequest[]","name":"auths","type":"tuple[]"},{"components":[{"internalType":"enum ClaimType","name":"claimType","type":"uint8"},{"internalType":"bytes16","name":"groupId","type":"bytes16"},{"internalType":"bytes16","name":"groupTimestamp","type":"bytes16"},{"internalType":"uint256","name":"value","type":"uint256"},{"internalType":"bool","name":"isOptional","type":"bool"},{"internalType":"bool","name":"isSelectableByUser","type":"bool"},{"internalType":"bytes","name":"extraData","type":"bytes"}],"internalType":"struct ClaimRequest[]","name":"claims","type":"tuple[]"},{"components":[{"internalType":"bytes","name":"message","type":"bytes"},{"internalType":"bool","name":"isSelectableByUser","type":"bool"},{"internalType":"bytes","name":"extraData","type":"bytes"}],"internalType":"struct SignatureRequest","name":"signature","type":"tuple"}],"internalType":"struct SismoConnectRequest","name":"","type":"tuple"}],"stateMutability":"pure","type":"function"},{"inputs":[{"components":[{"internalType":"enum AuthType","name":"authType","type":"uint8"},{"internalType":"uint256","name":"userId","type":"uint256"},{"internalType":"bool","name":"isAnon","type":"bool"},{"internalType":"bool","name":"isOptional","type":"bool"},{"internalType":"bool","name":"isSelectableByUser","type":"bool"},{"internalType":"bytes","name":"extraData","type":"bytes"}],"internalType":"struct AuthRequest","name":"auth","type":"tuple"},{"components":[{"internalType":"enum ClaimType","name":"claimType","type":"uint8"},{"internalType":"bytes16","name":"groupId","type":"bytes16"},{"internalType":"bytes16","name":"groupTimestamp","type":"bytes16"},{"internalType":"uint256","name":"value","type":"uint256"},{"internalType":"bool","name":"isOptional","type":"bool"},{"internalType":"bool","name":"isSelectableByUser","type":"bool"},{"internalType":"bytes","name":"extraData","type":"bytes"}],"internalType":"struct ClaimRequest","name":"claim","type":"tuple"},{"internalType":"bytes16","name":"namespace","type":"bytes16"}],"name":"build","outputs":[{"components":[{"internalType":"bytes16","name":"namespace","type":"bytes16"},{"components":[{"internalType":"enum AuthType","name":"authType","type":"uint8"},{"internalType":"uint256","name":"userId","type":"uint256"},{"internalType":"bool","name":"isAnon","type":"bool"},{"internalType":"bool","name":"isOptional","type":"bool"},{"internalType":"bool","name":"isSelectableByUser","type":"bool"},{"internalType":"bytes","name":"extraData","type":"bytes"}],"internalType":"struct AuthRequest[]","name":"auths","type":"tuple[]"},{"components":[{"internalType":"enum ClaimType","name":"claimType","type":"uint8"},{"internalType":"bytes16","name":"groupId","type":"bytes16"},{"internalType":"bytes16","name":"groupTimestamp","type":"bytes16"},{"internalType":"uint256","name":"value","type":"uint256"},{"internalType":"bool","name":"isOptional","type":"bool"},{"internalType":"bool","name":"isSelectableByUser","type":"bool"},{"internalType":"bytes","name":"extraData","type":"bytes"}],"internalType":"struct ClaimRequest[]","name":"claims","type":"tuple[]"},{"components":[{"internalType":"bytes","name":"message","type":"bytes"},{"internalType":"bool","name":"isSelectableByUser","type":"bool"},{"internalType":"bytes","name":"extraData","type":"bytes"}],"internalType":"struct SignatureRequest","name":"signature","type":"tuple"}],"internalType":"struct SismoConnectRequest","name":"","type":"tuple"}],"stateMutability":"view","type":"function"},{"inputs":[{"components":[{"internalType":"enum AuthType","name":"authType","type":"uint8"},{"internalType":"uint256","name":"userId","type":"uint256"},{"internalType":"bool","name":"isAnon","type":"bool"},{"internalType":"bool","name":"isOptional","type":"bool"},{"internalType":"bool","name":"isSelectableByUser","type":"bool"},{"internalType":"bytes","name":"extraData","type":"bytes"}],"internalType":"struct AuthRequest","name":"auth","type":"tuple"},{"components":[{"internalType":"bytes","name":"message","type":"bytes"},{"internalType":"bool","name":"isSelectableByUser","type":"bool"},{"internalType":"bytes","name":"extraData","type":"bytes"}],"internalType":"struct SignatureRequest","name":"signature","type":"tuple"}],"name":"build","outputs":[{"components":[{"internalType":"bytes16","name":"namespace","type":"bytes16"},{"components":[{"internalType":"enum AuthType","name":"authType","type":"uint8"},{"internalType":"uint256","name":"userId","type":"uint256"},{"internalType":"bool","name":"isAnon","type":"bool"},{"internalType":"bool","name":"isOptional","type":"bool"},{"internalType":"bool","name":"isSelectableByUser","type":"bool"},{"internalType":"bytes","name":"extraData","type":"bytes"}],"internalType":"struct AuthRequest[]","name":"auths","type":"tuple[]"},{"components":[{"internalType":"enum ClaimType","name":"claimType","type":"uint8"},{"internalType":"bytes16","name":"groupId","type":"bytes16"},{"internalType":"bytes16","name":"groupTimestamp","type":"bytes16"},{"internalType":"uint256","name":"value","type":"uint256"},{"internalType":"bool","name":"isOptional","type":"bool"},{"internalType":"bool","name":"isSelectableByUser","type":"bool"},{"internalType":"bytes","name":"extraData","type":"bytes"}],"internalType":"struct ClaimRequest[]","name":"claims","type":"tuple[]"},{"components":[{"internalType":"bytes","name":"message","type":"bytes"},{"internalType":"bool","name":"isSelectableByUser","type":"bool"},{"internalType":"bytes","name":"extraData","type":"bytes"}],"internalType":"struct SignatureRequest","name":"signature","type":"tuple"}],"internalType":"struct SismoConnectRequest","name":"","type":"tuple"}],"stateMutability":"pure","type":"function"},{"inputs":[{"components":[{"internalType":"enum ClaimType","name":"claimType","type":"uint8"},{"internalType":"bytes16","name":"groupId","type":"bytes16"},{"internalType":"bytes16","name":"groupTimestamp","type":"bytes16"},{"internalType":"uint256","name":"value","type":"uint256"},{"internalType":"bool","name":"isOptional","type":"bool"},{"internalType":"bool","name":"isSelectableByUser","type":"bool"},{"internalType":"bytes","name":"extraData","type":"bytes"}],"internalType":"struct ClaimRequest","name":"claim","type":"tuple"},{"components":[{"internalType":"bytes","name":"message","type":"bytes"},{"internalType":"bool","name":"isSelectableByUser","type":"bool"},{"internalType":"bytes","name":"extraData","type":"bytes"}],"internalType":"struct SignatureRequest","name":"signature","type":"tuple"},{"internalType":"bytes16","name":"namespace","type":"bytes16"}],"name":"build","outputs":[{"components":[{"internalType":"bytes16","name":"namespace","type":"bytes16"},{"components":[{"internalType":"enum AuthType","name":"authType","type":"uint8"},{"internalType":"uint256","name":"userId","type":"uint256"},{"internalType":"bool","name":"isAnon","type":"bool"},{"internalType":"bool","name":"isOptional","type":"bool"},{"internalType":"bool","name":"isSelectableByUser","type":"bool"},{"internalType":"bytes","name":"extraData","type":"bytes"}],"internalType":"struct AuthRequest[]","name":"auths","type":"tuple[]"},{"components":[{"internalType":"enum ClaimType","name":"claimType","type":"uint8"},{"internalType":"bytes16","name":"groupId","type":"bytes16"},{"internalType":"bytes16","name":"groupTimestamp","type":"bytes16"},{"internalType":"uint256","name":"value","type":"uint256"},{"internalType":"bool","name":"isOptional","type":"bool"},{"internalType":"bool","name":"isSelectableByUser","type":"bool"},{"internalType":"bytes","name":"extraData","type":"bytes"}],"internalType":"struct ClaimRequest[]","name":"claims","type":"tuple[]"},{"components":[{"internalType":"bytes","name":"message","type":"bytes"},{"internalType":"bool","name":"isSelectableByUser","type":"bool"},{"internalType":"bytes","name":"extraData","type":"bytes"}],"internalType":"struct SignatureRequest","name":"signature","type":"tuple"}],"internalType":"struct SismoConnectRequest","name":"","type":"tuple"}],"stateMutability":"pure","type":"function"},{"inputs":[{"components":[{"internalType":"enum AuthType","name":"authType","type":"uint8"},{"internalType":"uint256","name":"userId","type":"uint256"},{"internalType":"bool","name":"isAnon","type":"bool"},{"internalType":"bool","name":"isOptional","type":"bool"},{"internalType":"bool","name":"isSelectableByUser","type":"bool"},{"internalType":"bytes","name":"extraData","type":"bytes"}],"internalType":"struct AuthRequest","name":"auth","type":"tuple"},{"internalType":"bytes16","name":"namespace","type":"bytes16"}],"name":"build","outputs":[{"components":[{"internalType":"bytes16","name":"namespace","type":"bytes16"},{"components":[{"internalType":"enum AuthType","name":"authType","type":"uint8"},{"internalType":"uint256","name":"userId","type":"uint256"},{"internalType":"bool","name":"isAnon","type":"bool"},{"internalType":"bool","name":"isOptional","type":"bool"},{"internalType":"bool","name":"isSelectableByUser","type":"bool"},{"internalType":"bytes","name":"extraData","type":"bytes"}],"internalType":"struct AuthRequest[]","name":"auths","type":"tuple[]"},{"components":[{"internalType":"enum ClaimType","name":"claimType","type":"uint8"},{"internalType":"bytes16","name":"groupId","type":"bytes16"},{"internalType":"bytes16","name":"groupTimestamp","type":"bytes16"},{"internalType":"uint256","name":"value","type":"uint256"},{"internalType":"bool","name":"isOptional","type":"bool"},{"internalType":"bool","name":"isSelectableByUser","type":"bool"},{"internalType":"bytes","name":"extraData","type":"bytes"}],"internalType":"struct ClaimRequest[]","name":"claims","type":"tuple[]"},{"components":[{"internalType":"bytes","name":"message","type":"bytes"},{"internalType":"bool","name":"isSelectableByUser","type":"bool"},{"internalType":"bytes","name":"extraData","type":"bytes"}],"internalType":"struct SignatureRequest","name":"signature","type":"tuple"}],"internalType":"struct SismoConnectRequest","name":"","type":"tuple"}],"stateMutability":"view","type":"function"},{"inputs":[{"components":[{"internalType":"enum AuthType","name":"authType","type":"uint8"},{"internalType":"uint256","name":"userId","type":"uint256"},{"internalType":"bool","name":"isAnon","type":"bool"},{"internalType":"bool","name":"isOptional","type":"bool"},{"internalType":"bool","name":"isSelectableByUser","type":"bool"},{"internalType":"bytes","name":"extraData","type":"bytes"}],"internalType":"struct AuthRequest[]","name":"auths","type":"tuple[]"},{"components":[{"internalType":"enum ClaimType","name":"claimType","type":"uint8"},{"internalType":"bytes16","name":"groupId","type":"bytes16"},{"internalType":"bytes16","name":"groupTimestamp","type":"bytes16"},{"internalType":"uint256","name":"value","type":"uint256"},{"internalType":"bool","name":"isOptional","type":"bool"},{"internalType":"bool","name":"isSelectableByUser","type":"bool"},{"internalType":"bytes","name":"extraData","type":"bytes"}],"internalType":"struct ClaimRequest[]","name":"claims","type":"tuple[]"},{"internalType":"bytes16","name":"namespace","type":"bytes16"}],"name":"build","outputs":[{"components":[{"internalType":"bytes16","name":"namespace","type":"bytes16"},{"components":[{"internalType":"enum AuthType","name":"authType","type":"uint8"},{"internalType":"uint256","name":"userId","type":"uint256"},{"internalType":"bool","name":"isAnon","type":"bool"},{"internalType":"bool","name":"isOptional","type":"bool"},{"internalType":"bool","name":"isSelectableByUser","type":"bool"},{"internalType":"bytes","name":"extraData","type":"bytes"}],"internalType":"struct AuthRequest[]","name":"auths","type":"tuple[]"},{"components":[{"internalType":"enum ClaimType","name":"claimType","type":"uint8"},{"internalType":"bytes16","name":"groupId","type":"bytes16"},{"internalType":"bytes16","name":"groupTimestamp","type":"bytes16"},{"internalType":"uint256","name":"value","type":"uint256"},{"internalType":"bool","name":"isOptional","type":"bool"},{"internalType":"bool","name":"isSelectableByUser","type":"bool"},{"internalType":"bytes","name":"extraData","type":"bytes"}],"internalType":"struct ClaimRequest[]","name":"claims","type":"tuple[]"},{"components":[{"internalType":"bytes","name":"message","type":"bytes"},{"internalType":"bool","name":"isSelectableByUser","type":"bool"},{"internalType":"bytes","name":"extraData","type":"bytes"}],"internalType":"struct SignatureRequest","name":"signature","type":"tuple"}],"internalType":"struct SismoConnectRequest","name":"","type":"tuple"}],"stateMutability":"view","type":"function"},{"inputs":[{"components":[{"internalType":"enum AuthType","name":"authType","type":"uint8"},{"internalType":"uint256","name":"userId","type":"uint256"},{"internalType":"bool","name":"isAnon","type":"bool"},{"internalType":"bool","name":"isOptional","type":"bool"},{"internalType":"bool","name":"isSelectableByUser","type":"bool"},{"internalType":"bytes","name":"extraData","type":"bytes"}],"internalType":"struct AuthRequest[]","name":"auths","type":"tuple[]"},{"components":[{"internalType":"enum ClaimType","name":"claimType","type":"uint8"},{"internalType":"bytes16","name":"groupId","type":"bytes16"},{"internalType":"bytes16","name":"groupTimestamp","type":"bytes16"},{"internalType":"uint256","name":"value","type":"uint256"},{"internalType":"bool","name":"isOptional","type":"bool"},{"internalType":"bool","name":"isSelectableByUser","type":"bool"},{"internalType":"bytes","name":"extraData","type":"bytes"}],"internalType":"struct ClaimRequest[]","name":"claims","type":"tuple[]"},{"components":[{"internalType":"bytes","name":"message","type":"bytes"},{"internalType":"bool","name":"isSelectableByUser","type":"bool"},{"internalType":"bytes","name":"extraData","type":"bytes"}],"internalType":"struct SignatureRequest","name":"signature","type":"tuple"}],"name":"build","outputs":[{"components":[{"internalType":"bytes16","name":"namespace","type":"bytes16"},{"components":[{"internalType":"enum AuthType","name":"authType","type":"uint8"},{"internalType":"uint256","name":"userId","type":"uint256"},{"internalType":"bool","name":"isAnon","type":"bool"},{"internalType":"bool","name":"isOptional","type":"bool"},{"internalType":"bool","name":"isSelectableByUser","type":"bool"},{"internalType":"bytes","name":"extraData","type":"bytes"}],"internalType":"struct AuthRequest[]","name":"auths","type":"tuple[]"},{"components":[{"internalType":"enum ClaimType","name":"claimType","type":"uint8"},{"internalType":"bytes16","name":"groupId","type":"bytes16"},{"internalType":"bytes16","name":"groupTimestamp","type":"bytes16"},{"internalType":"uint256","name":"value","type":"uint256"},{"internalType":"bool","name":"isOptional","type":"bool"},{"internalType":"bool","name":"isSelectableByUser","type":"bool"},{"internalType":"bytes","name":"extraData","type":"bytes"}],"internalType":"struct ClaimRequest[]","name":"claims","type":"tuple[]"},{"components":[{"internalType":"bytes","name":"message","type":"bytes"},{"internalType":"bool","name":"isSelectableByUser","type":"bool"},{"internalType":"bytes","name":"extraData","type":"bytes"}],"internalType":"struct SignatureRequest","name":"signature","type":"tuple"}],"internalType":"struct SismoConnectRequest","name":"","type":"tuple"}],"stateMutability":"pure","type":"function"},{"inputs":[{"components":[{"internalType":"enum AuthType","name":"authType","type":"uint8"},{"internalType":"uint256","name":"userId","type":"uint256"},{"internalType":"bool","name":"isAnon","type":"bool"},{"internalType":"bool","name":"isOptional","type":"bool"},{"internalType":"bool","name":"isSelectableByUser","type":"bool"},{"internalType":"bytes","name":"extraData","type":"bytes"}],"internalType":"struct AuthRequest[]","name":"auths","type":"tuple[]"},{"components":[{"internalType":"enum ClaimType","name":"claimType","type":"uint8"},{"internalType":"bytes16","name":"groupId","type":"bytes16"},{"internalType":"bytes16","name":"groupTimestamp","type":"bytes16"},{"internalType":"uint256","name":"value","type":"uint256"},{"internalType":"bool","name":"isOptional","type":"bool"},{"internalType":"bool","name":"isSelectableByUser","type":"bool"},{"internalType":"bytes","name":"extraData","type":"bytes"}],"internalType":"struct ClaimRequest[]","name":"claims","type":"tuple[]"}],"name":"build","outputs":[{"components":[{"internalType":"bytes16","name":"namespace","type":"bytes16"},{"components":[{"internalType":"enum AuthType","name":"authType","type":"uint8"},{"internalType":"uint256","name":"userId","type":"uint256"},{"internalType":"bool","name":"isAnon","type":"bool"},{"internalType":"bool","name":"isOptional","type":"bool"},{"internalType":"bool","name":"isSelectableByUser","type":"bool"},{"internalType":"bytes","name":"extraData","type":"bytes"}],"internalType":"struct AuthRequest[]","name":"auths","type":"tuple[]"},{"components":[{"internalType":"enum ClaimType","name":"claimType","type":"uint8"},{"internalType":"bytes16","name":"groupId","type":"bytes16"},{"internalType":"bytes16","name":"groupTimestamp","type":"bytes16"},{"internalType":"uint256","name":"value","type":"uint256"},{"internalType":"bool","name":"isOptional","type":"bool"},{"internalType":"bool","name":"isSelectableByUser","type":"bool"},{"internalType":"bytes","name":"extraData","type":"bytes"}],"internalType":"struct ClaimRequest[]","name":"claims","type":"tuple[]"},{"components":[{"internalType":"bytes","name":"message","type":"bytes"},{"internalType":"bool","name":"isSelectableByUser","type":"bool"},{"internalType":"bytes","name":"extraData","type":"bytes"}],"internalType":"struct SignatureRequest","name":"signature","type":"tuple"}],"internalType":"struct SismoConnectRequest","name":"","type":"tuple"}],"stateMutability":"view","type":"function"},{"inputs":[{"components":[{"internalType":"enum ClaimType","name":"claimType","type":"uint8"},{"internalType":"bytes16","name":"groupId","type":"bytes16"},{"internalType":"bytes16","name":"groupTimestamp","type":"bytes16"},{"internalType":"uint256","name":"value","type":"uint256"},{"internalType":"bool","name":"isOptional","type":"bool"},{"internalType":"bool","name":"isSelectableByUser","type":"bool"},{"internalType":"bytes","name":"extraData","type":"bytes"}],"internalType":"struct ClaimRequest[]","name":"claims","type":"tuple[]"}],"name":"build","outputs":[{"components":[{"internalType":"bytes16","name":"namespace","type":"bytes16"},{"components":[{"internalType":"enum AuthType","name":"authType","type":"uint8"},{"internalType":"uint256","name":"userId","type":"uint256"},{"internalType":"bool","name":"isAnon","type":"bool"},{"internalType":"bool","name":"isOptional","type":"bool"},{"internalType":"bool","name":"isSelectableByUser","type":"bool"},{"internalType":"bytes","name":"extraData","type":"bytes"}],"internalType":"struct AuthRequest[]","name":"auths","type":"tuple[]"},{"components":[{"internalType":"enum ClaimType","name":"claimType","type":"uint8"},{"internalType":"bytes16","name":"groupId","type":"bytes16"},{"internalType":"bytes16","name":"groupTimestamp","type":"bytes16"},{"internalType":"uint256","name":"value","type":"uint256"},{"internalType":"bool","name":"isOptional","type":"bool"},{"internalType":"bool","name":"isSelectableByUser","type":"bool"},{"internalType":"bytes","name":"extraData","type":"bytes"}],"internalType":"struct ClaimRequest[]","name":"claims","type":"tuple[]"},{"components":[{"internalType":"bytes","name":"message","type":"bytes"},{"internalType":"bool","name":"isSelectableByUser","type":"bool"},{"internalType":"bytes","name":"extraData","type":"bytes"}],"internalType":"struct SignatureRequest","name":"signature","type":"tuple"}],"internalType":"struct SismoConnectRequest","name":"","type":"tuple"}],"stateMutability":"view","type":"function"},{"inputs":[{"components":[{"internalType":"enum ClaimType","name":"claimType","type":"uint8"},{"internalType":"bytes16","name":"groupId","type":"bytes16"},{"internalType":"bytes16","name":"groupTimestamp","type":"bytes16"},{"internalType":"uint256","name":"value","type":"uint256"},{"internalType":"bool","name":"isOptional","type":"bool"},{"internalType":"bool","name":"isSelectableByUser","type":"bool"},{"internalType":"bytes","name":"extraData","type":"bytes"}],"internalType":"struct ClaimRequest[]","name":"claims","type":"tuple[]"},{"components":[{"internalType":"bytes","name":"message","type":"bytes"},{"internalType":"bool","name":"isSelectableByUser","type":"bool"},{"internalType":"bytes","name":"extraData","type":"bytes"}],"internalType":"struct SignatureRequest","name":"signature","type":"tuple"}],"name":"build","outputs":[{"components":[{"internalType":"bytes16","name":"namespace","type":"bytes16"},{"components":[{"internalType":"enum AuthType","name":"authType","type":"uint8"},{"internalType":"uint256","name":"userId","type":"uint256"},{"internalType":"bool","name":"isAnon","type":"bool"},{"internalType":"bool","name":"isOptional","type":"bool"},{"internalType":"bool","name":"isSelectableByUser","type":"bool"},{"internalType":"bytes","name":"extraData","type":"bytes"}],"internalType":"struct AuthRequest[]","name":"auths","type":"tuple[]"},{"components":[{"internalType":"enum ClaimType","name":"claimType","type":"uint8"},{"internalType":"bytes16","name":"groupId","type":"bytes16"},{"internalType":"bytes16","name":"groupTimestamp","type":"bytes16"},{"internalType":"uint256","name":"value","type":"uint256"},{"internalType":"bool","name":"isOptional","type":"bool"},{"internalType":"bool","name":"isSelectableByUser","type":"bool"},{"internalType":"bytes","name":"extraData","type":"bytes"}],"internalType":"struct ClaimRequest[]","name":"claims","type":"tuple[]"},{"components":[{"internalType":"bytes","name":"message","type":"bytes"},{"internalType":"bool","name":"isSelectableByUser","type":"bool"},{"internalType":"bytes","name":"extraData","type":"bytes"}],"internalType":"struct SignatureRequest","name":"signature","type":"tuple"}],"internalType":"struct SismoConnectRequest","name":"","type":"tuple"}],"stateMutability":"pure","type":"function"},{"inputs":[{"components":[{"internalType":"enum ClaimType","name":"claimType","type":"uint8"},{"internalType":"bytes16","name":"groupId","type":"bytes16"},{"internalType":"bytes16","name":"groupTimestamp","type":"bytes16"},{"internalType":"uint256","name":"value","type":"uint256"},{"internalType":"bool","name":"isOptional","type":"bool"},{"internalType":"bool","name":"isSelectableByUser","type":"bool"},{"internalType":"bytes","name":"extraData","type":"bytes"}],"internalType":"struct ClaimRequest","name":"claim","type":"tuple"},{"components":[{"internalType":"bytes","name":"message","type":"bytes"},{"internalType":"bool","name":"isSelectableByUser","type":"bool"},{"internalType":"bytes","name":"extraData","type":"bytes"}],"internalType":"struct SignatureRequest","name":"signature","type":"tuple"}],"name":"build","outputs":[{"components":[{"internalType":"bytes16","name":"namespace","type":"bytes16"},{"components":[{"internalType":"enum AuthType","name":"authType","type":"uint8"},{"internalType":"uint256","name":"userId","type":"uint256"},{"internalType":"bool","name":"isAnon","type":"bool"},{"internalType":"bool","name":"isOptional","type":"bool"},{"internalType":"bool","name":"isSelectableByUser","type":"bool"},{"internalType":"bytes","name":"extraData","type":"bytes"}],"internalType":"struct AuthRequest[]","name":"auths","type":"tuple[]"},{"components":[{"internalType":"enum ClaimType","name":"claimType","type":"uint8"},{"internalType":"bytes16","name":"groupId","type":"bytes16"},{"internalType":"bytes16","name":"groupTimestamp","type":"bytes16"},{"internalType":"uint256","name":"value","type":"uint256"},{"internalType":"bool","name":"isOptional","type":"bool"},{"internalType":"bool","name":"isSelectableByUser","type":"bool"},{"internalType":"bytes","name":"extraData","type":"bytes"}],"internalType":"struct ClaimRequest[]","name":"claims","type":"tuple[]"},{"components":[{"internalType":"bytes","name":"message","type":"bytes"},{"internalType":"bool","name":"isSelectableByUser","type":"bool"},{"internalType":"bytes","name":"extraData","type":"bytes"}],"internalType":"struct SignatureRequest","name":"signature","type":"tuple"}],"internalType":"struct SismoConnectRequest","name":"","type":"tuple"}],"stateMutability":"pure","type":"function"},{"inputs":[{"components":[{"internalType":"enum AuthType","name":"authType","type":"uint8"},{"internalType":"uint256","name":"userId","type":"uint256"},{"internalType":"bool","name":"isAnon","type":"bool"},{"internalType":"bool","name":"isOptional","type":"bool"},{"internalType":"bool","name":"isSelectableByUser","type":"bool"},{"internalType":"bytes","name":"extraData","type":"bytes"}],"internalType":"struct AuthRequest","name":"auth","type":"tuple"}],"name":"build","outputs":[{"components":[{"internalType":"bytes16","name":"namespace","type":"bytes16"},{"components":[{"internalType":"enum AuthType","name":"authType","type":"uint8"},{"internalType":"uint256","name":"userId","type":"uint256"},{"internalType":"bool","name":"isAnon","type":"bool"},{"internalType":"bool","name":"isOptional","type":"bool"},{"internalType":"bool","name":"isSelectableByUser","type":"bool"},{"internalType":"bytes","name":"extraData","type":"bytes"}],"internalType":"struct AuthRequest[]","name":"auths","type":"tuple[]"},{"components":[{"internalType":"enum ClaimType","name":"claimType","type":"uint8"},{"internalType":"bytes16","name":"groupId","type":"bytes16"},{"internalType":"bytes16","name":"groupTimestamp","type":"bytes16"},{"internalType":"uint256","name":"value","type":"uint256"},{"internalType":"bool","name":"isOptional","type":"bool"},{"internalType":"bool","name":"isSelectableByUser","type":"bool"},{"internalType":"bytes","name":"extraData","type":"bytes"}],"internalType":"struct ClaimRequest[]","name":"claims","type":"tuple[]"},{"components":[{"internalType":"bytes","name":"message","type":"bytes"},{"internalType":"bool","name":"isSelectableByUser","type":"bool"},{"internalType":"bytes","name":"extraData","type":"bytes"}],"internalType":"struct SignatureRequest","name":"signature","type":"tuple"}],"internalType":"struct SismoConnectRequest","name":"","type":"tuple"}],"stateMutability":"view","type":"function"},{"inputs":[{"components":[{"internalType":"enum AuthType","name":"authType","type":"uint8"},{"internalType":"uint256","name":"userId","type":"uint256"},{"internalType":"bool","name":"isAnon","type":"bool"},{"internalType":"bool","name":"isOptional","type":"bool"},{"internalType":"bool","name":"isSelectableByUser","type":"bool"},{"internalType":"bytes","name":"extraData","type":"bytes"}],"internalType":"struct AuthRequest[]","name":"auths","type":"tuple[]"},{"components":[{"internalType":"bytes","name":"message","type":"bytes"},{"internalType":"bool","name":"isSelectableByUser","type":"bool"},{"internalType":"bytes","name":"extraData","type":"bytes"}],"internalType":"struct SignatureRequest","name":"signature","type":"tuple"},{"internalType":"bytes16","name":"namespace","type":"bytes16"}],"name":"build","outputs":[{"components":[{"internalType":"bytes16","name":"namespace","type":"bytes16"},{"components":[{"internalType":"enum AuthType","name":"authType","type":"uint8"},{"internalType":"uint256","name":"userId","type":"uint256"},{"internalType":"bool","name":"isAnon","type":"bool"},{"internalType":"bool","name":"isOptional","type":"bool"},{"internalType":"bool","name":"isSelectableByUser","type":"bool"},{"internalType":"bytes","name":"extraData","type":"bytes"}],"internalType":"struct AuthRequest[]","name":"auths","type":"tuple[]"},{"components":[{"internalType":"enum ClaimType","name":"claimType","type":"uint8"},{"internalType":"bytes16","name":"groupId","type":"bytes16"},{"internalType":"bytes16","name":"groupTimestamp","type":"bytes16"},{"internalType":"uint256","name":"value","type":"uint256"},{"internalType":"bool","name":"isOptional","type":"bool"},{"internalType":"bool","name":"isSelectableByUser","type":"bool"},{"internalType":"bytes","name":"extraData","type":"bytes"}],"internalType":"struct ClaimRequest[]","name":"claims","type":"tuple[]"},{"components":[{"internalType":"bytes","name":"message","type":"bytes"},{"internalType":"bool","name":"isSelectableByUser","type":"bool"},{"internalType":"bytes","name":"extraData","type":"bytes"}],"internalType":"struct SignatureRequest","name":"signature","type":"tuple"}],"internalType":"struct SismoConnectRequest","name":"","type":"tuple"}],"stateMutability":"pure","type":"function"},{"inputs":[{"components":[{"internalType":"enum AuthType","name":"authType","type":"uint8"},{"internalType":"uint256","name":"userId","type":"uint256"},{"internalType":"bool","name":"isAnon","type":"bool"},{"internalType":"bool","name":"isOptional","type":"bool"},{"internalType":"bool","name":"isSelectableByUser","type":"bool"},{"internalType":"bytes","name":"extraData","type":"bytes"}],"internalType":"struct AuthRequest","name":"auth","type":"tuple"},{"components":[{"internalType":"enum ClaimType","name":"claimType","type":"uint8"},{"internalType":"bytes16","name":"groupId","type":"bytes16"},{"internalType":"bytes16","name":"groupTimestamp","type":"bytes16"},{"internalType":"uint256","name":"value","type":"uint256"},{"internalType":"bool","name":"isOptional","type":"bool"},{"internalType":"bool","name":"isSelectableByUser","type":"bool"},{"internalType":"bytes","name":"extraData","type":"bytes"}],"internalType":"struct ClaimRequest","name":"claim","type":"tuple"}],"name":"build","outputs":[{"components":[{"internalType":"bytes16","name":"namespace","type":"bytes16"},{"components":[{"internalType":"enum AuthType","name":"authType","type":"uint8"},{"internalType":"uint256","name":"userId","type":"uint256"},{"internalType":"bool","name":"isAnon","type":"bool"},{"internalType":"bool","name":"isOptional","type":"bool"},{"internalType":"bool","name":"isSelectableByUser","type":"bool"},{"internalType":"bytes","name":"extraData","type":"bytes"}],"internalType":"struct AuthRequest[]","name":"auths","type":"tuple[]"},{"components":[{"internalType":"enum ClaimType","name":"claimType","type":"uint8"},{"internalType":"bytes16","name":"groupId","type":"bytes16"},{"internalType":"bytes16","name":"groupTimestamp","type":"bytes16"},{"internalType":"uint256","name":"value","type":"uint256"},{"internalType":"bool","name":"isOptional","type":"bool"},{"internalType":"bool","name":"isSelectableByUser","type":"bool"},{"internalType":"bytes","name":"extraData","type":"bytes"}],"internalType":"struct ClaimRequest[]","name":"claims","type":"tuple[]"},{"components":[{"internalType":"bytes","name":"message","type":"bytes"},{"internalType":"bool","name":"isSelectableByUser","type":"bool"},{"internalType":"bytes","name":"extraData","type":"bytes"}],"internalType":"struct SignatureRequest","name":"signature","type":"tuple"}],"internalType":"struct SismoConnectRequest","name":"","type":"tuple"}],"stateMutability":"view","type":"function"},{"inputs":[{"components":[{"internalType":"enum AuthType","name":"authType","type":"uint8"},{"internalType":"uint256","name":"userId","type":"uint256"},{"internalType":"bool","name":"isAnon","type":"bool"},{"internalType":"bool","name":"isOptional","type":"bool"},{"internalType":"bool","name":"isSelectableByUser","type":"bool"},{"internalType":"bytes","name":"extraData","type":"bytes"}],"internalType":"struct AuthRequest[]","name":"auths","type":"tuple[]"},{"components":[{"internalType":"enum ClaimType","name":"claimType","type":"uint8"},{"internalType":"bytes16","name":"groupId","type":"bytes16"},{"internalType":"bytes16","name":"groupTimestamp","type":"bytes16"},{"internalType":"uint256","name":"value","type":"uint256"},{"internalType":"bool","name":"isOptional","type":"bool"},{"internalType":"bool","name":"isSelectableByUser","type":"bool"},{"internalType":"bytes","name":"extraData","type":"bytes"}],"internalType":"struct ClaimRequest[]","name":"claims","type":"tuple[]"},{"components":[{"internalType":"bytes","name":"message","type":"bytes"},{"internalType":"bool","name":"isSelectableByUser","type":"bool"},{"internalType":"bytes","name":"extraData","type":"bytes"}],"internalType":"struct SignatureRequest","name":"signature","type":"tuple"},{"internalType":"bytes16","name":"namespace","type":"bytes16"}],"name":"build","outputs":[{"components":[{"internalType":"bytes16","name":"namespace","type":"bytes16"},{"components":[{"internalType":"enum AuthType","name":"authType","type":"uint8"},{"internalType":"uint256","name":"userId","type":"uint256"},{"internalType":"bool","name":"isAnon","type":"bool"},{"internalType":"bool","name":"isOptional","type":"bool"},{"internalType":"bool","name":"isSelectableByUser","type":"bool"},{"internalType":"bytes","name":"extraData","type":"bytes"}],"internalType":"struct AuthRequest[]","name":"auths","type":"tuple[]"},{"components":[{"internalType":"enum ClaimType","name":"claimType","type":"uint8"},{"internalType":"bytes16","name":"groupId","type":"bytes16"},{"internalType":"bytes16","name":"groupTimestamp","type":"bytes16"},{"internalType":"uint256","name":"value","type":"uint256"},{"internalType":"bool","name":"isOptional","type":"bool"},{"internalType":"bool","name":"isSelectableByUser","type":"bool"},{"internalType":"bytes","name":"extraData","type":"bytes"}],"internalType":"struct ClaimRequest[]","name":"claims","type":"tuple[]"},{"components":[{"internalType":"bytes","name":"message","type":"bytes"},{"internalType":"bool","name":"isSelectableByUser","type":"bool"},{"internalType":"bytes","name":"extraData","type":"bytes"}],"internalType":"struct SignatureRequest","name":"signature","type":"tuple"}],"internalType":"struct SismoConnectRequest","name":"","type":"tuple"}],"stateMutability":"pure","type":"function"},{"inputs":[{"components":[{"internalType":"enum AuthType","name":"authType","type":"uint8"},{"internalType":"uint256","name":"userId","type":"uint256"},{"internalType":"bool","name":"isAnon","type":"bool"},{"internalType":"bool","name":"isOptional","type":"bool"},{"internalType":"bool","name":"isSelectableByUser","type":"bool"},{"internalType":"bytes","name":"extraData","type":"bytes"}],"internalType":"struct AuthRequest","name":"auth","type":"tuple"},{"components":[{"internalType":"enum ClaimType","name":"claimType","type":"uint8"},{"internalType":"bytes16","name":"groupId","type":"bytes16"},{"internalType":"bytes16","name":"groupTimestamp","type":"bytes16"},{"internalType":"uint256","name":"value","type":"uint256"},{"internalType":"bool","name":"isOptional","type":"bool"},{"internalType":"bool","name":"isSelectableByUser","type":"bool"},{"internalType":"bytes","name":"extraData","type":"bytes"}],"internalType":"struct ClaimRequest","name":"claim","type":"tuple"},{"components":[{"internalType":"bytes","name":"message","type":"bytes"},{"internalType":"bool","name":"isSelectableByUser","type":"bool"},{"internalType":"bytes","name":"extraData","type":"bytes"}],"internalType":"struct SignatureRequest","name":"signature","type":"tuple"},{"internalType":"bytes16","name":"namespace","type":"bytes16"}],"name":"build","outputs":[{"components":[{"internalType":"bytes16","name":"namespace","type":"bytes16"},{"components":[{"internalType":"enum AuthType","name":"authType","type":"uint8"},{"internalType":"uint256","name":"userId","type":"uint256"},{"internalType":"bool","name":"isAnon","type":"bool"},{"internalType":"bool","name":"isOptional","type":"bool"},{"internalType":"bool","name":"isSelectableByUser","type":"bool"},{"internalType":"bytes","name":"extraData","type":"bytes"}],"internalType":"struct AuthRequest[]","name":"auths","type":"tuple[]"},{"components":[{"internalType":"enum ClaimType","name":"claimType","type":"uint8"},{"internalType":"bytes16","name":"groupId","type":"bytes16"},{"internalType":"bytes16","name":"groupTimestamp","type":"bytes16"},{"internalType":"uint256","name":"value","type":"uint256"},{"internalType":"bool","name":"isOptional","type":"bool"},{"internalType":"bool","name":"isSelectableByUser","type":"bool"},{"internalType":"bytes","name":"extraData","type":"bytes"}],"internalType":"struct ClaimRequest[]","name":"claims","type":"tuple[]"},{"components":[{"internalType":"bytes","name":"message","type":"bytes"},{"internalType":"bool","name":"isSelectableByUser","type":"bool"},{"internalType":"bytes","name":"extraData","type":"bytes"}],"internalType":"struct SignatureRequest","name":"signature","type":"tuple"}],"internalType":"struct SismoConnectRequest","name":"","type":"tuple"}],"stateMutability":"pure","type":"function"},{"inputs":[{"components":[{"internalType":"enum ClaimType","name":"claimType","type":"uint8"},{"internalType":"bytes16","name":"groupId","type":"bytes16"},{"internalType":"bytes16","name":"groupTimestamp","type":"bytes16"},{"internalType":"uint256","name":"value","type":"uint256"},{"internalType":"bool","name":"isOptional","type":"bool"},{"internalType":"bool","name":"isSelectableByUser","type":"bool"},{"internalType":"bytes","name":"extraData","type":"bytes"}],"internalType":"struct ClaimRequest[]","name":"claims","type":"tuple[]"},{"internalType":"bytes16","name":"namespace","type":"bytes16"}],"name":"build","outputs":[{"components":[{"internalType":"bytes16","name":"namespace","type":"bytes16"},{"components":[{"internalType":"enum AuthType","name":"authType","type":"uint8"},{"internalType":"uint256","name":"userId","type":"uint256"},{"internalType":"bool","name":"isAnon","type":"bool"},{"internalType":"bool","name":"isOptional","type":"bool"},{"internalType":"bool","name":"isSelectableByUser","type":"bool"},{"internalType":"bytes","name":"extraData","type":"bytes"}],"internalType":"struct AuthRequest[]","name":"auths","type":"tuple[]"},{"components":[{"internalType":"enum ClaimType","name":"claimType","type":"uint8"},{"internalType":"bytes16","name":"groupId","type":"bytes16"},{"internalType":"bytes16","name":"groupTimestamp","type":"bytes16"},{"internalType":"uint256","name":"value","type":"uint256"},{"internalType":"bool","name":"isOptional","type":"bool"},{"internalType":"bool","name":"isSelectableByUser","type":"bool"},{"internalType":"bytes","name":"extraData","type":"bytes"}],"internalType":"struct ClaimRequest[]","name":"claims","type":"tuple[]"},{"components":[{"internalType":"bytes","name":"message","type":"bytes"},{"internalType":"bool","name":"isSelectableByUser","type":"bool"},{"internalType":"bytes","name":"extraData","type":"bytes"}],"internalType":"struct SignatureRequest","name":"signature","type":"tuple"}],"internalType":"struct SismoConnectRequest","name":"","type":"tuple"}],"stateMutability":"view","type":"function"},{"inputs":[{"components":[{"internalType":"enum AuthType","name":"authType","type":"uint8"},{"internalType":"uint256","name":"userId","type":"uint256"},{"internalType":"bool","name":"isAnon","type":"bool"},{"internalType":"bool","name":"isOptional","type":"bool"},{"internalType":"bool","name":"isSelectableByUser","type":"bool"},{"internalType":"bytes","name":"extraData","type":"bytes"}],"internalType":"struct AuthRequest","name":"auth","type":"tuple"},{"components":[{"internalType":"enum ClaimType","name":"claimType","type":"uint8"},{"internalType":"bytes16","name":"groupId","type":"bytes16"},{"internalType":"bytes16","name":"groupTimestamp","type":"bytes16"},{"internalType":"uint256","name":"value","type":"uint256"},{"internalType":"bool","name":"isOptional","type":"bool"},{"internalType":"bool","name":"isSelectableByUser","type":"bool"},{"internalType":"bytes","name":"extraData","type":"bytes"}],"internalType":"struct ClaimRequest","name":"claim","type":"tuple"},{"components":[{"internalType":"bytes","name":"message","type":"bytes"},{"internalType":"bool","name":"isSelectableByUser","type":"bool"},{"internalType":"bytes","name":"extraData","type":"bytes"}],"internalType":"struct SignatureRequest","name":"signature","type":"tuple"}],"name":"build","outputs":[{"components":[{"internalType":"bytes16","name":"namespace","type":"bytes16"},{"components":[{"internalType":"enum AuthType","name":"authType","type":"uint8"},{"internalType":"uint256","name":"userId","type":"uint256"},{"internalType":"bool","name":"isAnon","type":"bool"},{"internalType":"bool","name":"isOptional","type":"bool"},{"internalType":"bool","name":"isSelectableByUser","type":"bool"},{"internalType":"bytes","name":"extraData","type":"bytes"}],"internalType":"struct AuthRequest[]","name":"auths","type":"tuple[]"},{"components":[{"internalType":"enum ClaimType","name":"claimType","type":"uint8"},{"internalType":"bytes16","name":"groupId","type":"bytes16"},{"internalType":"bytes16","name":"groupTimestamp","type":"bytes16"},{"internalType":"uint256","name":"value","type":"uint256"},{"internalType":"bool","name":"isOptional","type":"bool"},{"internalType":"bool","name":"isSelectableByUser","type":"bool"},{"internalType":"bytes","name":"extraData","type":"bytes"}],"internalType":"struct ClaimRequest[]","name":"claims","type":"tuple[]"},{"components":[{"internalType":"bytes","name":"message","type":"bytes"},{"internalType":"bool","name":"isSelectableByUser","type":"bool"},{"internalType":"bytes","name":"extraData","type":"bytes"}],"internalType":"struct SignatureRequest","name":"signature","type":"tuple"}],"internalType":"struct SismoConnectRequest","name":"","type":"tuple"}],"stateMutability":"pure","type":"function"}],"devdoc":{"kind":"dev","methods":{},"version":1},"evm":{"bytecode":{"linkReferences":{},"object":"60803462000364576001600160401b0360608201818111838210176200034e5760a08301818110838211176200034e57604052601881527f4d4553534147455f53454c45435445445f42595f55534552000000000000000060808401528252602091828101600080825260405192858401848110868211176200033a576040528184526040810193845251928351928584116200033a578254936001958686811c961680156200032f575b898710146200031b578190601f96878111620002c8575b5089908783116001146200026457869262000258575b5050600019600383901b1c191690861b1783555b51151560ff801986541691161784555190815194851162000244576002548481811c9116801562000239575b878210146200022557838111620001dc575b50859285116001146200017357939450849291908362000167575b50501b916000199060031b1c1916176002555b60405161169590816200036a8239f35b01519250388062000144565b6002815285812093958591601f198316915b88838310620001c15750505010620001a7575b505050811b0160025562000157565b015160001960f88460031b161c1916905538808062000198565b85870151885590960195948501948793509081019062000185565b600282528682208480880160051c8201928989106200021b575b0160051c019085905b8281106200020f57505062000129565b838155018590620001ff565b92508192620001f6565b634e487b7160e01b82526022600452602482fd5b90607f169062000117565b634e487b7160e01b81526041600452602490fd5b015190503880620000d7565b8680528a87208994509190601f198416885b8d828210620002b1575050841162000297575b505050811b018355620000eb565b015160001960f88460031b161c1916905538808062000289565b8385015186558c9790950194938401930162000276565b9091508580528986208780850160051c8201928c861062000311575b918a91869594930160051c01915b82811062000302575050620000c1565b8881558594508a9101620002f2565b92508192620002e4565b634e487b7160e01b85526022600452602485fd5b95607f1695620000aa565b634e487b7160e01b83526041600452602483fd5b634e487b7160e01b600052604160045260246000fd5b600080fdfe6040608081526004908136101561001557600080fd5b600090813560e01c8063080b53f814610c755780630e58be0514610c2457806310c5d31b14610ba657806311f83e2014610b6b57806314ddafa314610af35780631b399c9914610ac657806327b5b7c314610a835780632ceb1e8d14610a2c57806331560e751461099557806348fd24cc14610906578063548525771461089257806391ba07f3146108175780639266f47c146107ad578063992403361461073f578063a156e2d8146106ec578063b33cd32314610697578063b5ae258714610629578063c9f97f53146105bf578063d7ccd8da1461054c578063dd108267146104cc578063dde11c7c14610407578063e48cd72114610390578063e93f38b8146102ae578063f1c1e209146102255763f2d3f1f61461013457600080fd5b34610221576060366003190112610221576001600160401b03918335838111610221576101649036908601611137565b9260243581811161021d5761017c9036908701610e69565b9160443591821161021a575061021694610198913691016111bd565b906101a161133a565b506101aa61137d565b936101b4856113e5565b526101be846113e5565b506101c7611408565b906101d1826113e5565b526101db816113e5565b508251936101e885610cce565b6fb8e2054f8a912367e38a22ce773328ff60801b855260208501528284015260608301525191829182610f45565b0390f35b80fd5b8280fd5b5080fd5b503461022157806003193601126102215782356001600160401b03811161021d5761021693610256913691016112ba565b61025e610da7565b9261026761133a565b5082519061027482610d50565b815282519361028285610cce565b6001600160801b031916845260208401528183015261029f61146f565b60608301525191829182610f45565b5034610221576080366003190112610221576001600160401b03918335838111610221576102df9036908601611137565b9260243581811161021d576102f79036908701610e69565b9160443591821161021a575061021694610313913691016111bd565b9061031c610dda565b9361032561133a565b5061032e61137d565b90610338826113e5565b52610342816113e5565b5061034b611408565b91610355836113e5565b5261035f826113e5565b5083519461036c86610cce565b6001600160801b031916855260208501528284015260608301525191829182610f45565b5034610221576080366003190112610221576001600160401b03918335838111610221576103c1903690860161123a565b9260243581811161021d576103d990369087016112ba565b9160443591821161021a5750610216946103f5913691016111bd565b906103fe610dda565b9361035f61133a565b50346102215780600319360112610221576001600160401b0383358181116104c8576104369036908601611137565b9260243591821161021a57506102169361045291369101610e69565b61045a61133a565b5061046361137d565b9261046d846113e5565b52610477836113e5565b50610480611408565b9061048a826113e5565b52610494816113e5565b508151926104a184610cce565b6fb8e2054f8a912367e38a22ce773328ff60801b845260208401528183015261029f61146f565b8380fd5b5082903461021d57606036600319011261021d576001600160401b03918035838111610548576104ff903690830161123a565b9260243590811161054857610216949161051b913691016111bd565b90610524610dc3565b9361052d61133a565b5083519161053a83610d50565b825283519461036c86610cce565b8480fd5b50346102215760203660031901126102215782356001600160401b03811161021d576102169361057e91369101611137565b9161058761133a565b5061059061137d565b9261059a846113e5565b526105a4836113e5565b508151906105b182610d50565b81528151926104a184610cce565b50346102215780600319360112610221576001600160401b0383358181116104c8576105ee9036908601610e69565b906024359081116104c85761021694610609913691016111bd565b9061061261133a565b5082519361061f85610d50565b84526101c7611408565b50346102215780600319360112610221576001600160401b0383358181116104c85761065890369086016112ba565b906024359081116104c85761021694610673913691016111bd565b9061067c61133a565b5082519361068985610d50565b84528251936101e885610cce565b50346102215760203660031901126102215782356001600160401b03811161021d57610216936106c9913691016112ba565b6106d161133a565b508151926106de84610d50565b83528151926104a184610cce565b50346102215780600319360112610221576001600160401b0383358181116104c85761071b903690860161123a565b9260243591821161021a575061021693610737913691016112ba565b61049461133a565b5034610221576060366003190112610221576001600160401b0391833583811161022157610770903690860161123a565b9260243581811161021d5761078890369087016112ba565b9160443591821161021a5750610216946107a4913691016111bd565b906101db61133a565b5034610221576060366003190112610221576001600160401b0383358181116104c8576107dd903690860161123a565b9260243591821161021a5750610216936107f9913691016112ba565b610801610dc3565b9261080a61133a565b5082519361028285610cce565b503461022157806003193601126102215782356001600160401b03811161021d576102169361084891369101611137565b91610851610da7565b9261085a61133a565b5061086361137d565b9061086d826113e5565b52610877816113e5565b5082519161088483610d50565b825282519361028285610cce565b5034610221576060366003190112610221576001600160401b0383358181116104c8576108c29036908601610e69565b906024359081116104c857610216946108dd913691016111bd565b906108e6610dc3565b936108ef61133a565b508351906108fc82610d50565b815261034b611408565b5082903461021d578060031936011261021d576001600160401b03918035838111610548576109389036908301611137565b92602435908111610548576102169491610954913691016111bd565b9061095d61133a565b5061096661137d565b93610970856113e5565b5261097a846113e5565b5082519061098782610d50565b81528251936101e885610cce565b5034610221576060366003190112610221576001600160401b0383358181116104c8576109c59036908601611137565b9260243591821161021a5750610216936109e191369101610e69565b6109e9610dc3565b926109f261133a565b506109fb61137d565b90610a05826113e5565b52610a0f816113e5565b50610a18611408565b91610a22836113e5565b5261080a826113e5565b5082903461021d578060031936011261021d576001600160401b0391803583811161054857610a5e903690830161123a565b92602435908111610548576102169491610a7a913691016111bd565b9061097a61133a565b503461022157806003193601126102215782356001600160401b03811161021d5761021693610ab49136910161123a565b91610abd610da7565b9261087761133a565b5034610221578160031936011261022157516fb8e2054f8a912367e38a22ce773328ff60801b8152602090f35b5034610221576060366003190112610221576001600160401b0383358181116104c857610b2390369086016112ba565b906024359081116104c85761021694610b3e913691016111bd565b90610b47610dc3565b93610b5061133a565b50835190610b5d82610d50565b815283519461036c86610cce565b50346102215760203660031901126102215782356001600160401b03811161021d5761021693610b9d9136910161123a565b916105a461133a565b5082903461021d57606036600319011261021d576001600160401b0391803583811161054857610bd99036908301611137565b92602435908111610548576102169491610bf5913691016111bd565b90610bfe610dc3565b93610c0761133a565b50610c1061137d565b90610c1a826113e5565b5261052d816113e5565b50346102215760203660031901126102215782356001600160401b03811161021d5761021693610c5691369101610e69565b610c5e61133a565b50815192610c6b84610d50565b8352610480611408565b503461022157806003193601126102215782356001600160401b03811161021d5761021693610ca691369101610e69565b610cae610da7565b92610cb761133a565b50825190610cc482610d50565b8152610a18611408565b608081019081106001600160401b03821117610ce957604052565b634e487b7160e01b600052604160045260246000fd5b60e081019081106001600160401b03821117610ce957604052565b60c081019081106001600160401b03821117610ce957604052565b606081019081106001600160401b03821117610ce957604052565b602081019081106001600160401b03821117610ce957604052565b604081019081106001600160401b03821117610ce957604052565b90601f801991011681019081106001600160401b03821117610ce957604052565b602435906001600160801b031982168203610dbe57565b600080fd5b604435906001600160801b031982168203610dbe57565b606435906001600160801b031982168203610dbe57565b35906001600160801b031982168203610dbe57565b35908115158203610dbe57565b81601f82011215610dbe578035906001600160401b038211610ce95760405192610e47601f8401601f191660200185610d86565b82845260208383010111610dbe57816000926020809301838601378301015290565b919060e083820312610dbe5760405190610e8282610cff565b819380356005811015610dbe578352610e9d60208201610df1565b6020840152610eae60408201610df1565b604084015260608101356060840152610ec960808201610e06565b6080840152610eda60a08201610e06565b60a084015260c0810135916001600160401b038311610dbe5760c092610f009201610e13565b910152565b919082519283825260005b848110610f31575050826000602080949584010152601f8019910116010190565b602081830181015184830182015201610f10565b906020825260a08201906001600160801b0319815116602084015260208101519160806040850152825180915260c08401602060c08360051b87010194019160005b8181106110c15750505050604081015191601f19848203016060850152825180825260208201906020808260051b8501019501926000905b82821061101757505050505090606061101493920151916080601f19828403019101526040610ff78351606084526060840190610f05565b926020810151151560208401520151906040818403910152610f05565b90565b9091929395601f19828203018552865190815160058110156110ab5761109e8260c0600195602095948695526001600160801b03198582015116858401526001600160801b031960408201511660408401526060810151606084015260808101511515608084015260a0810151151560a084015201519060e0908160c08201520190610f05565b9801950193920190610fbf565b634e487b7160e01b600052602160045260246000fd5b9091929460bf1987820301845285519081519160068310156110ab5761112b8260c060a06020959460019787965285810151868501526040810151151560408501526060808201511515908501526080810151151560808501520151918160a08201520190610f05565b97019401929101610f87565b919060c083820312610dbe576040519061115082610d1a565b819380356006811015610dbe5783526020810135602084015261117560408201610e06565b604084015261118660608201610e06565b606084015261119760808201610e06565b608084015260a0810135916001600160401b038311610dbe5760a092610f009201610e13565b9190606083820312610dbe57604051906111d682610d35565b81938035916001600160401b0392838111610dbe57816111f7918401610e13565b845261120560208301610e06565b60208501526040820135928311610dbe57604092610f009201610e13565b6001600160401b038111610ce95760051b60200190565b9080601f83011215610dbe5781359061125282611223565b926112606040519485610d86565b828452602092838086019160051b83010192808411610dbe57848301915b84831061128e5750505050505090565b82356001600160401b038111610dbe5786916112af84848094890101611137565b81520192019161127e565b9080601f83011215610dbe578135906112d282611223565b926112e06040519485610d86565b828452602092838086019160051b83010192808411610dbe57848301915b84831061130e5750505050505090565b82356001600160401b038111610dbe57869161132f84848094890101610e69565b8152019201916112fe565b6040519061134782610cce565b8160008152606060208201526060604082015260606040519161136983610d35565b818352600060208401528160408401520152565b60409081519161138c83610d6b565b60018352829160005b6020808210156113dd578351602092916113ae82610d1a565b6000825260008183015260008683015260606000818401526000608084015260a0830152828801015201611395565b505091925050565b8051156113f25760200190565b634e487b7160e01b600052603260045260246000fd5b60409081519161141783610d6b565b60018352829160005b6020808210156113dd5783516020929161143982610cff565b60008252600081830152600086830152606060008184015260006080840152600060a084015260c0830152828801015201611420565b6040519061147c82610d35565b8160405190600080549260019184831c90838616958615611655575b602096878410811461164157838552849291889082156116245750506001146115c7575b6114c892500382610d86565b825260ff815416151583830152604051926000916002549081811c9181811680156115bd575b84841081146115a957838852879594939291811561158a5750600114611525575b50505060409291611521910384610d86565b0152565b909493925060026000527f405787fa12a823e0f2b7631cc41b3ba8828b3321ca811111fa75cd3aa3bb5ace946000915b81831061157257509394509192509082010181611521604061150f565b86548884018501529586019587945091830191611555565b60ff1916848701525050151560051b830101905081611521604061150f565b634e487b7160e01b86526022600452602486fd5b92607f16926114ee565b50506000805281857f290decd9548b62a8d60345a988386fc84ba6bc95484008f6362f93160ef3e563856000915b85831061160b5750506114c893508201016114bc565b80919294505483858801015201910186908585936115f5565b60ff1916848201526114c894151560051b84010191506114bc9050565b634e487b7160e01b83526022600452602483fd5b91607f169161149856fea2646970667358221220cfd6f803b656a42968fc5176156b7f9844f411c03eb00580cb6a50d03e8c287864736f6c63430008130033","opcodes":"PUSH1 0x80 CALLVALUE PUSH3 0x364 JUMPI PUSH1 0x1 PUSH1 0x1 PUSH1 0x40 SHL SUB PUSH1 0x60 DUP3 ADD DUP2 DUP2 GT DUP4 DUP3 LT OR PUSH3 0x34E JUMPI PUSH1 0xA0 DUP4 ADD DUP2 DUP2 LT DUP4 DUP3 GT OR PUSH3 0x34E JUMPI PUSH1 0x40 MSTORE PUSH1 0x18 DUP2 MSTORE PUSH32 0x4D4553534147455F53454C45435445445F42595F555345520000000000000000 PUSH1 0x80 DUP5 ADD MSTORE DUP3 MSTORE PUSH1 0x20 SWAP2 DUP3 DUP2 ADD PUSH1 0x0 DUP1 DUP3 MSTORE PUSH1 0x40 MLOAD SWAP3 DUP6 DUP5 ADD DUP5 DUP2 LT DUP7 DUP3 GT OR PUSH3 0x33A JUMPI PUSH1 0x40 MSTORE DUP2 DUP5 MSTORE PUSH1 0x40 DUP2 ADD SWAP4 DUP5 MSTORE MLOAD SWAP3 DUP4 MLOAD SWAP3 DUP6 DUP5 GT PUSH3 0x33A JUMPI DUP3 SLOAD SWAP4 PUSH1 0x1 SWAP6 DUP7 DUP7 DUP2 SHR SWAP7 AND DUP1 ISZERO PUSH3 0x32F JUMPI JUMPDEST DUP10 DUP8 LT EQ PUSH3 0x31B JUMPI DUP2 SWAP1 PUSH1 0x1F SWAP7 DUP8 DUP2 GT PUSH3 0x2C8 JUMPI JUMPDEST POP DUP10 SWAP1 DUP8 DUP4 GT PUSH1 0x1 EQ PUSH3 0x264 JUMPI DUP7 SWAP3 PUSH3 0x258 JUMPI JUMPDEST POP POP PUSH1 0x0 NOT PUSH1 0x3 DUP4 SWAP1 SHL SHR NOT AND SWAP1 DUP7 SHL OR DUP4 SSTORE JUMPDEST MLOAD ISZERO ISZERO PUSH1 0xFF DUP1 NOT DUP7 SLOAD AND SWAP2 AND OR DUP5 SSTORE MLOAD SWAP1 DUP2 MLOAD SWAP5 DUP6 GT PUSH3 0x244 JUMPI PUSH1 0x2 SLOAD DUP5 DUP2 DUP2 SHR SWAP2 AND DUP1 ISZERO PUSH3 0x239 JUMPI JUMPDEST DUP8 DUP3 LT EQ PUSH3 0x225 JUMPI DUP4 DUP2 GT PUSH3 0x1DC JUMPI JUMPDEST POP DUP6 SWAP3 DUP6 GT PUSH1 0x1 EQ PUSH3 0x173 JUMPI SWAP4 SWAP5 POP DUP5 SWAP3 SWAP2 SWAP1 DUP4 PUSH3 0x167 JUMPI JUMPDEST POP POP SHL SWAP2 PUSH1 0x0 NOT SWAP1 PUSH1 0x3 SHL SHR NOT AND OR PUSH1 0x2 SSTORE JUMPDEST PUSH1 0x40 MLOAD PUSH2 0x1695 SWAP1 DUP2 PUSH3 0x36A DUP3 CODECOPY RETURN JUMPDEST ADD MLOAD SWAP3 POP CODESIZE DUP1 PUSH3 0x144 JUMP JUMPDEST PUSH1 0x2 DUP2 MSTORE DUP6 DUP2 KECCAK256 SWAP4 SWAP6 DUP6 SWAP2 PUSH1 0x1F NOT DUP4 AND SWAP2 JUMPDEST DUP9 DUP4 DUP4 LT PUSH3 0x1C1 JUMPI POP POP POP LT PUSH3 0x1A7 JUMPI JUMPDEST POP POP POP DUP2 SHL ADD PUSH1 0x2 SSTORE PUSH3 0x157 JUMP JUMPDEST ADD MLOAD PUSH1 0x0 NOT PUSH1 0xF8 DUP5 PUSH1 0x3 SHL AND SHR NOT AND SWAP1 SSTORE CODESIZE DUP1 DUP1 PUSH3 0x198 JUMP JUMPDEST DUP6 DUP8 ADD MLOAD DUP9 SSTORE SWAP1 SWAP7 ADD SWAP6 SWAP5 DUP6 ADD SWAP5 DUP8 SWAP4 POP SWAP1 DUP2 ADD SWAP1 PUSH3 0x185 JUMP JUMPDEST PUSH1 0x2 DUP3 MSTORE DUP7 DUP3 KECCAK256 DUP5 DUP1 DUP9 ADD PUSH1 0x5 SHR DUP3 ADD SWAP3 DUP10 DUP10 LT PUSH3 0x21B JUMPI JUMPDEST ADD PUSH1 0x5 SHR ADD SWAP1 DUP6 SWAP1 JUMPDEST DUP3 DUP2 LT PUSH3 0x20F JUMPI POP POP PUSH3 0x129 JUMP JUMPDEST DUP4 DUP2 SSTORE ADD DUP6 SWAP1 PUSH3 0x1FF JUMP JUMPDEST SWAP3 POP DUP2 SWAP3 PUSH3 0x1F6 JUMP JUMPDEST PUSH4 0x4E487B71 PUSH1 0xE0 SHL DUP3 MSTORE PUSH1 0x22 PUSH1 0x4 MSTORE PUSH1 0x24 DUP3 REVERT JUMPDEST SWAP1 PUSH1 0x7F AND SWAP1 PUSH3 0x117 JUMP JUMPDEST PUSH4 0x4E487B71 PUSH1 0xE0 SHL DUP2 MSTORE PUSH1 0x41 PUSH1 0x4 MSTORE PUSH1 0x24 SWAP1 REVERT JUMPDEST ADD MLOAD SWAP1 POP CODESIZE DUP1 PUSH3 0xD7 JUMP JUMPDEST DUP7 DUP1 MSTORE DUP11 DUP8 KECCAK256 DUP10 SWAP5 POP SWAP2 SWAP1 PUSH1 0x1F NOT DUP5 AND DUP9 JUMPDEST DUP14 DUP3 DUP3 LT PUSH3 0x2B1 JUMPI POP POP DUP5 GT PUSH3 0x297 JUMPI JUMPDEST POP POP POP DUP2 SHL ADD DUP4 SSTORE PUSH3 0xEB JUMP JUMPDEST ADD MLOAD PUSH1 0x0 NOT PUSH1 0xF8 DUP5 PUSH1 0x3 SHL AND SHR NOT AND SWAP1 SSTORE CODESIZE DUP1 DUP1 PUSH3 0x289 JUMP JUMPDEST DUP4 DUP6 ADD MLOAD DUP7 SSTORE DUP13 SWAP8 SWAP1 SWAP6 ADD SWAP5 SWAP4 DUP5 ADD SWAP4 ADD PUSH3 0x276 JUMP JUMPDEST SWAP1 SWAP2 POP DUP6 DUP1 MSTORE DUP10 DUP7 KECCAK256 DUP8 DUP1 DUP6 ADD PUSH1 0x5 SHR DUP3 ADD SWAP3 DUP13 DUP7 LT PUSH3 0x311 JUMPI JUMPDEST SWAP2 DUP11 SWAP2 DUP7 SWAP6 SWAP5 SWAP4 ADD PUSH1 0x5 SHR ADD SWAP2 JUMPDEST DUP3 DUP2 LT PUSH3 0x302 JUMPI POP POP PUSH3 0xC1 JUMP JUMPDEST DUP9 DUP2 SSTORE DUP6 SWAP5 POP DUP11 SWAP2 ADD PUSH3 0x2F2 JUMP JUMPDEST SWAP3 POP DUP2 SWAP3 PUSH3 0x2E4 JUMP JUMPDEST PUSH4 0x4E487B71 PUSH1 0xE0 SHL DUP6 MSTORE PUSH1 0x22 PUSH1 0x4 MSTORE PUSH1 0x24 DUP6 REVERT JUMPDEST SWAP6 PUSH1 0x7F AND SWAP6 PUSH3 0xAA JUMP JUMPDEST PUSH4 0x4E487B71 PUSH1 0xE0 SHL DUP4 MSTORE PUSH1 0x41 PUSH1 0x4 MSTORE PUSH1 0x24 DUP4 REVERT JUMPDEST PUSH4 0x4E487B71 PUSH1 0xE0 SHL PUSH1 0x0 MSTORE PUSH1 0x41 PUSH1 0x4 MSTORE PUSH1 0x24 PUSH1 0x0 REVERT JUMPDEST PUSH1 0x0 DUP1 REVERT INVALID PUSH1 0x40 PUSH1 0x80 DUP2 MSTORE PUSH1 0x4 SWAP1 DUP2 CALLDATASIZE LT ISZERO PUSH2 0x15 JUMPI PUSH1 0x0 DUP1 REVERT JUMPDEST PUSH1 0x0 SWAP1 DUP2 CALLDATALOAD PUSH1 0xE0 SHR DUP1 PUSH4 0x80B53F8 EQ PUSH2 0xC75 JUMPI DUP1 PUSH4 0xE58BE05 EQ PUSH2 0xC24 JUMPI DUP1 PUSH4 0x10C5D31B EQ PUSH2 0xBA6 JUMPI DUP1 PUSH4 0x11F83E20 EQ PUSH2 0xB6B JUMPI DUP1 PUSH4 0x14DDAFA3 EQ PUSH2 0xAF3 JUMPI DUP1 PUSH4 0x1B399C99 EQ PUSH2 0xAC6 JUMPI DUP1 PUSH4 0x27B5B7C3 EQ PUSH2 0xA83 JUMPI DUP1 PUSH4 0x2CEB1E8D EQ PUSH2 0xA2C JUMPI DUP1 PUSH4 0x31560E75 EQ PUSH2 0x995 JUMPI DUP1 PUSH4 0x48FD24CC EQ PUSH2 0x906 JUMPI DUP1 PUSH4 0x54852577 EQ PUSH2 0x892 JUMPI DUP1 PUSH4 0x91BA07F3 EQ PUSH2 0x817 JUMPI DUP1 PUSH4 0x9266F47C EQ PUSH2 0x7AD JUMPI DUP1 PUSH4 0x99240336 EQ PUSH2 0x73F JUMPI DUP1 PUSH4 0xA156E2D8 EQ PUSH2 0x6EC JUMPI DUP1 PUSH4 0xB33CD323 EQ PUSH2 0x697 JUMPI DUP1 PUSH4 0xB5AE2587 EQ PUSH2 0x629 JUMPI DUP1 PUSH4 0xC9F97F53 EQ PUSH2 0x5BF JUMPI DUP1 PUSH4 0xD7CCD8DA EQ PUSH2 0x54C JUMPI DUP1 PUSH4 0xDD108267 EQ PUSH2 0x4CC JUMPI DUP1 PUSH4 0xDDE11C7C EQ PUSH2 0x407 JUMPI DUP1 PUSH4 0xE48CD721 EQ PUSH2 0x390 JUMPI DUP1 PUSH4 0xE93F38B8 EQ PUSH2 0x2AE JUMPI DUP1 PUSH4 0xF1C1E209 EQ PUSH2 0x225 JUMPI PUSH4 0xF2D3F1F6 EQ PUSH2 0x134 JUMPI PUSH1 0x0 DUP1 REVERT JUMPDEST CALLVALUE PUSH2 0x221 JUMPI PUSH1 0x60 CALLDATASIZE PUSH1 0x3 NOT ADD SLT PUSH2 0x221 JUMPI PUSH1 0x1 PUSH1 0x1 PUSH1 0x40 SHL SUB SWAP2 DUP4 CALLDATALOAD DUP4 DUP2 GT PUSH2 0x221 JUMPI PUSH2 0x164 SWAP1 CALLDATASIZE SWAP1 DUP7 ADD PUSH2 0x1137 JUMP JUMPDEST SWAP3 PUSH1 0x24 CALLDATALOAD DUP2 DUP2 GT PUSH2 0x21D JUMPI PUSH2 0x17C SWAP1 CALLDATASIZE SWAP1 DUP8 ADD PUSH2 0xE69 JUMP JUMPDEST SWAP2 PUSH1 0x44 CALLDATALOAD SWAP2 DUP3 GT PUSH2 0x21A JUMPI POP PUSH2 0x216 SWAP5 PUSH2 0x198 SWAP2 CALLDATASIZE SWAP2 ADD PUSH2 0x11BD JUMP JUMPDEST SWAP1 PUSH2 0x1A1 PUSH2 0x133A JUMP JUMPDEST POP PUSH2 0x1AA PUSH2 0x137D JUMP JUMPDEST SWAP4 PUSH2 0x1B4 DUP6 PUSH2 0x13E5 JUMP JUMPDEST MSTORE PUSH2 0x1BE DUP5 PUSH2 0x13E5 JUMP JUMPDEST POP PUSH2 0x1C7 PUSH2 0x1408 JUMP JUMPDEST SWAP1 PUSH2 0x1D1 DUP3 PUSH2 0x13E5 JUMP JUMPDEST MSTORE PUSH2 0x1DB DUP2 PUSH2 0x13E5 JUMP JUMPDEST POP DUP3 MLOAD SWAP4 PUSH2 0x1E8 DUP6 PUSH2 0xCCE JUMP JUMPDEST PUSH16 0xB8E2054F8A912367E38A22CE773328FF PUSH1 0x80 SHL DUP6 MSTORE PUSH1 0x20 DUP6 ADD MSTORE DUP3 DUP5 ADD MSTORE PUSH1 0x60 DUP4 ADD MSTORE MLOAD SWAP2 DUP3 SWAP2 DUP3 PUSH2 0xF45 JUMP JUMPDEST SUB SWAP1 RETURN JUMPDEST DUP1 REVERT JUMPDEST DUP3 DUP1 REVERT JUMPDEST POP DUP1 REVERT JUMPDEST POP CALLVALUE PUSH2 0x221 JUMPI DUP1 PUSH1 0x3 NOT CALLDATASIZE ADD SLT PUSH2 0x221 JUMPI DUP3 CALLDATALOAD PUSH1 0x1 PUSH1 0x1 PUSH1 0x40 SHL SUB DUP2 GT PUSH2 0x21D JUMPI PUSH2 0x216 SWAP4 PUSH2 0x256 SWAP2 CALLDATASIZE SWAP2 ADD PUSH2 0x12BA JUMP JUMPDEST PUSH2 0x25E PUSH2 0xDA7 JUMP JUMPDEST SWAP3 PUSH2 0x267 PUSH2 0x133A JUMP JUMPDEST POP DUP3 MLOAD SWAP1 PUSH2 0x274 DUP3 PUSH2 0xD50 JUMP JUMPDEST DUP2 MSTORE DUP3 MLOAD SWAP4 PUSH2 0x282 DUP6 PUSH2 0xCCE JUMP JUMPDEST PUSH1 0x1 PUSH1 0x1 PUSH1 0x80 SHL SUB NOT AND DUP5 MSTORE PUSH1 0x20 DUP5 ADD MSTORE DUP2 DUP4 ADD MSTORE PUSH2 0x29F PUSH2 0x146F JUMP JUMPDEST PUSH1 0x60 DUP4 ADD MSTORE MLOAD SWAP2 DUP3 SWAP2 DUP3 PUSH2 0xF45 JUMP JUMPDEST POP CALLVALUE PUSH2 0x221 JUMPI PUSH1 0x80 CALLDATASIZE PUSH1 0x3 NOT ADD SLT PUSH2 0x221 JUMPI PUSH1 0x1 PUSH1 0x1 PUSH1 0x40 SHL SUB SWAP2 DUP4 CALLDATALOAD DUP4 DUP2 GT PUSH2 0x221 JUMPI PUSH2 0x2DF SWAP1 CALLDATASIZE SWAP1 DUP7 ADD PUSH2 0x1137 JUMP JUMPDEST SWAP3 PUSH1 0x24 CALLDATALOAD DUP2 DUP2 GT PUSH2 0x21D JUMPI PUSH2 0x2F7 SWAP1 CALLDATASIZE SWAP1 DUP8 ADD PUSH2 0xE69 JUMP JUMPDEST SWAP2 PUSH1 0x44 CALLDATALOAD SWAP2 DUP3 GT PUSH2 0x21A JUMPI POP PUSH2 0x216 SWAP5 PUSH2 0x313 SWAP2 CALLDATASIZE SWAP2 ADD PUSH2 0x11BD JUMP JUMPDEST SWAP1 PUSH2 0x31C PUSH2 0xDDA JUMP JUMPDEST SWAP4 PUSH2 0x325 PUSH2 0x133A JUMP JUMPDEST POP PUSH2 0x32E PUSH2 0x137D JUMP JUMPDEST SWAP1 PUSH2 0x338 DUP3 PUSH2 0x13E5 JUMP JUMPDEST MSTORE PUSH2 0x342 DUP2 PUSH2 0x13E5 JUMP JUMPDEST POP PUSH2 0x34B PUSH2 0x1408 JUMP JUMPDEST SWAP2 PUSH2 0x355 DUP4 PUSH2 0x13E5 JUMP JUMPDEST MSTORE PUSH2 0x35F DUP3 PUSH2 0x13E5 JUMP JUMPDEST POP DUP4 MLOAD SWAP5 PUSH2 0x36C DUP7 PUSH2 0xCCE JUMP JUMPDEST PUSH1 0x1 PUSH1 0x1 PUSH1 0x80 SHL SUB NOT AND DUP6 MSTORE PUSH1 0x20 DUP6 ADD MSTORE DUP3 DUP5 ADD MSTORE PUSH1 0x60 DUP4 ADD MSTORE MLOAD SWAP2 DUP3 SWAP2 DUP3 PUSH2 0xF45 JUMP JUMPDEST POP CALLVALUE PUSH2 0x221 JUMPI PUSH1 0x80 CALLDATASIZE PUSH1 0x3 NOT ADD SLT PUSH2 0x221 JUMPI PUSH1 0x1 PUSH1 0x1 PUSH1 0x40 SHL SUB SWAP2 DUP4 CALLDATALOAD DUP4 DUP2 GT PUSH2 0x221 JUMPI PUSH2 0x3C1 SWAP1 CALLDATASIZE SWAP1 DUP7 ADD PUSH2 0x123A JUMP JUMPDEST SWAP3 PUSH1 0x24 CALLDATALOAD DUP2 DUP2 GT PUSH2 0x21D JUMPI PUSH2 0x3D9 SWAP1 CALLDATASIZE SWAP1 DUP8 ADD PUSH2 0x12BA JUMP JUMPDEST SWAP2 PUSH1 0x44 CALLDATALOAD SWAP2 DUP3 GT PUSH2 0x21A JUMPI POP PUSH2 0x216 SWAP5 PUSH2 0x3F5 SWAP2 CALLDATASIZE SWAP2 ADD PUSH2 0x11BD JUMP JUMPDEST SWAP1 PUSH2 0x3FE PUSH2 0xDDA JUMP JUMPDEST SWAP4 PUSH2 0x35F PUSH2 0x133A JUMP JUMPDEST POP CALLVALUE PUSH2 0x221 JUMPI DUP1 PUSH1 0x3 NOT CALLDATASIZE ADD SLT PUSH2 0x221 JUMPI PUSH1 0x1 PUSH1 0x1 PUSH1 0x40 SHL SUB DUP4 CALLDATALOAD DUP2 DUP2 GT PUSH2 0x4C8 JUMPI PUSH2 0x436 SWAP1 CALLDATASIZE SWAP1 DUP7 ADD PUSH2 0x1137 JUMP JUMPDEST SWAP3 PUSH1 0x24 CALLDATALOAD SWAP2 DUP3 GT PUSH2 0x21A JUMPI POP PUSH2 0x216 SWAP4 PUSH2 0x452 SWAP2 CALLDATASIZE SWAP2 ADD PUSH2 0xE69 JUMP JUMPDEST PUSH2 0x45A PUSH2 0x133A JUMP JUMPDEST POP PUSH2 0x463 PUSH2 0x137D JUMP JUMPDEST SWAP3 PUSH2 0x46D DUP5 PUSH2 0x13E5 JUMP JUMPDEST MSTORE PUSH2 0x477 DUP4 PUSH2 0x13E5 JUMP JUMPDEST POP PUSH2 0x480 PUSH2 0x1408 JUMP JUMPDEST SWAP1 PUSH2 0x48A DUP3 PUSH2 0x13E5 JUMP JUMPDEST MSTORE PUSH2 0x494 DUP2 PUSH2 0x13E5 JUMP JUMPDEST POP DUP2 MLOAD SWAP3 PUSH2 0x4A1 DUP5 PUSH2 0xCCE JUMP JUMPDEST PUSH16 0xB8E2054F8A912367E38A22CE773328FF PUSH1 0x80 SHL DUP5 MSTORE PUSH1 0x20 DUP5 ADD MSTORE DUP2 DUP4 ADD MSTORE PUSH2 0x29F PUSH2 0x146F JUMP JUMPDEST DUP4 DUP1 REVERT JUMPDEST POP DUP3 SWAP1 CALLVALUE PUSH2 0x21D JUMPI PUSH1 0x60 CALLDATASIZE PUSH1 0x3 NOT ADD SLT PUSH2 0x21D JUMPI PUSH1 0x1 PUSH1 0x1 PUSH1 0x40 SHL SUB SWAP2 DUP1 CALLDATALOAD DUP4 DUP2 GT PUSH2 0x548 JUMPI PUSH2 0x4FF SWAP1 CALLDATASIZE SWAP1 DUP4 ADD PUSH2 0x123A JUMP JUMPDEST SWAP3 PUSH1 0x24 CALLDATALOAD SWAP1 DUP2 GT PUSH2 0x548 JUMPI PUSH2 0x216 SWAP5 SWAP2 PUSH2 0x51B SWAP2 CALLDATASIZE SWAP2 ADD PUSH2 0x11BD JUMP JUMPDEST SWAP1 PUSH2 0x524 PUSH2 0xDC3 JUMP JUMPDEST SWAP4 PUSH2 0x52D PUSH2 0x133A JUMP JUMPDEST POP DUP4 MLOAD SWAP2 PUSH2 0x53A DUP4 PUSH2 0xD50 JUMP JUMPDEST DUP3 MSTORE DUP4 MLOAD SWAP5 PUSH2 0x36C DUP7 PUSH2 0xCCE JUMP JUMPDEST DUP5 DUP1 REVERT JUMPDEST POP CALLVALUE PUSH2 0x221 JUMPI PUSH1 0x20 CALLDATASIZE PUSH1 0x3 NOT ADD SLT PUSH2 0x221 JUMPI DUP3 CALLDATALOAD PUSH1 0x1 PUSH1 0x1 PUSH1 0x40 SHL SUB DUP2 GT PUSH2 0x21D JUMPI PUSH2 0x216 SWAP4 PUSH2 0x57E SWAP2 CALLDATASIZE SWAP2 ADD PUSH2 0x1137 JUMP JUMPDEST SWAP2 PUSH2 0x587 PUSH2 0x133A JUMP JUMPDEST POP PUSH2 0x590 PUSH2 0x137D JUMP JUMPDEST SWAP3 PUSH2 0x59A DUP5 PUSH2 0x13E5 JUMP JUMPDEST MSTORE PUSH2 0x5A4 DUP4 PUSH2 0x13E5 JUMP JUMPDEST POP DUP2 MLOAD SWAP1 PUSH2 0x5B1 DUP3 PUSH2 0xD50 JUMP JUMPDEST DUP2 MSTORE DUP2 MLOAD SWAP3 PUSH2 0x4A1 DUP5 PUSH2 0xCCE JUMP JUMPDEST POP CALLVALUE PUSH2 0x221 JUMPI DUP1 PUSH1 0x3 NOT CALLDATASIZE ADD SLT PUSH2 0x221 JUMPI PUSH1 0x1 PUSH1 0x1 PUSH1 0x40 SHL SUB DUP4 CALLDATALOAD DUP2 DUP2 GT PUSH2 0x4C8 JUMPI PUSH2 0x5EE SWAP1 CALLDATASIZE SWAP1 DUP7 ADD PUSH2 0xE69 JUMP JUMPDEST SWAP1 PUSH1 0x24 CALLDATALOAD SWAP1 DUP2 GT PUSH2 0x4C8 JUMPI PUSH2 0x216 SWAP5 PUSH2 0x609 SWAP2 CALLDATASIZE SWAP2 ADD PUSH2 0x11BD JUMP JUMPDEST SWAP1 PUSH2 0x612 PUSH2 0x133A JUMP JUMPDEST POP DUP3 MLOAD SWAP4 PUSH2 0x61F DUP6 PUSH2 0xD50 JUMP JUMPDEST DUP5 MSTORE PUSH2 0x1C7 PUSH2 0x1408 JUMP JUMPDEST POP CALLVALUE PUSH2 0x221 JUMPI DUP1 PUSH1 0x3 NOT CALLDATASIZE ADD SLT PUSH2 0x221 JUMPI PUSH1 0x1 PUSH1 0x1 PUSH1 0x40 SHL SUB DUP4 CALLDATALOAD DUP2 DUP2 GT PUSH2 0x4C8 JUMPI PUSH2 0x658 SWAP1 CALLDATASIZE SWAP1 DUP7 ADD PUSH2 0x12BA JUMP JUMPDEST SWAP1 PUSH1 0x24 CALLDATALOAD SWAP1 DUP2 GT PUSH2 0x4C8 JUMPI PUSH2 0x216 SWAP5 PUSH2 0x673 SWAP2 CALLDATASIZE SWAP2 ADD PUSH2 0x11BD JUMP JUMPDEST SWAP1 PUSH2 0x67C PUSH2 0x133A JUMP JUMPDEST POP DUP3 MLOAD SWAP4 PUSH2 0x689 DUP6 PUSH2 0xD50 JUMP JUMPDEST DUP5 MSTORE DUP3 MLOAD SWAP4 PUSH2 0x1E8 DUP6 PUSH2 0xCCE JUMP JUMPDEST POP CALLVALUE PUSH2 0x221 JUMPI PUSH1 0x20 CALLDATASIZE PUSH1 0x3 NOT ADD SLT PUSH2 0x221 JUMPI DUP3 CALLDATALOAD PUSH1 0x1 PUSH1 0x1 PUSH1 0x40 SHL SUB DUP2 GT PUSH2 0x21D JUMPI PUSH2 0x216 SWAP4 PUSH2 0x6C9 SWAP2 CALLDATASIZE SWAP2 ADD PUSH2 0x12BA JUMP JUMPDEST PUSH2 0x6D1 PUSH2 0x133A JUMP JUMPDEST POP DUP2 MLOAD SWAP3 PUSH2 0x6DE DUP5 PUSH2 0xD50 JUMP JUMPDEST DUP4 MSTORE DUP2 MLOAD SWAP3 PUSH2 0x4A1 DUP5 PUSH2 0xCCE JUMP JUMPDEST POP CALLVALUE PUSH2 0x221 JUMPI DUP1 PUSH1 0x3 NOT CALLDATASIZE ADD SLT PUSH2 0x221 JUMPI PUSH1 0x1 PUSH1 0x1 PUSH1 0x40 SHL SUB DUP4 CALLDATALOAD DUP2 DUP2 GT PUSH2 0x4C8 JUMPI PUSH2 0x71B SWAP1 CALLDATASIZE SWAP1 DUP7 ADD PUSH2 0x123A JUMP JUMPDEST SWAP3 PUSH1 0x24 CALLDATALOAD SWAP2 DUP3 GT PUSH2 0x21A JUMPI POP PUSH2 0x216 SWAP4 PUSH2 0x737 SWAP2 CALLDATASIZE SWAP2 ADD PUSH2 0x12BA JUMP JUMPDEST PUSH2 0x494 PUSH2 0x133A JUMP JUMPDEST POP CALLVALUE PUSH2 0x221 JUMPI PUSH1 0x60 CALLDATASIZE PUSH1 0x3 NOT ADD SLT PUSH2 0x221 JUMPI PUSH1 0x1 PUSH1 0x1 PUSH1 0x40 SHL SUB SWAP2 DUP4 CALLDATALOAD DUP4 DUP2 GT PUSH2 0x221 JUMPI PUSH2 0x770 SWAP1 CALLDATASIZE SWAP1 DUP7 ADD PUSH2 0x123A JUMP JUMPDEST SWAP3 PUSH1 0x24 CALLDATALOAD DUP2 DUP2 GT PUSH2 0x21D JUMPI PUSH2 0x788 SWAP1 CALLDATASIZE SWAP1 DUP8 ADD PUSH2 0x12BA JUMP JUMPDEST SWAP2 PUSH1 0x44 CALLDATALOAD SWAP2 DUP3 GT PUSH2 0x21A JUMPI POP PUSH2 0x216 SWAP5 PUSH2 0x7A4 SWAP2 CALLDATASIZE SWAP2 ADD PUSH2 0x11BD JUMP JUMPDEST SWAP1 PUSH2 0x1DB PUSH2 0x133A JUMP JUMPDEST POP CALLVALUE PUSH2 0x221 JUMPI PUSH1 0x60 CALLDATASIZE PUSH1 0x3 NOT ADD SLT PUSH2 0x221 JUMPI PUSH1 0x1 PUSH1 0x1 PUSH1 0x40 SHL SUB DUP4 CALLDATALOAD DUP2 DUP2 GT PUSH2 0x4C8 JUMPI PUSH2 0x7DD SWAP1 CALLDATASIZE SWAP1 DUP7 ADD PUSH2 0x123A JUMP JUMPDEST SWAP3 PUSH1 0x24 CALLDATALOAD SWAP2 DUP3 GT PUSH2 0x21A JUMPI POP PUSH2 0x216 SWAP4 PUSH2 0x7F9 SWAP2 CALLDATASIZE SWAP2 ADD PUSH2 0x12BA JUMP JUMPDEST PUSH2 0x801 PUSH2 0xDC3 JUMP JUMPDEST SWAP3 PUSH2 0x80A PUSH2 0x133A JUMP JUMPDEST POP DUP3 MLOAD SWAP4 PUSH2 0x282 DUP6 PUSH2 0xCCE JUMP JUMPDEST POP CALLVALUE PUSH2 0x221 JUMPI DUP1 PUSH1 0x3 NOT CALLDATASIZE ADD SLT PUSH2 0x221 JUMPI DUP3 CALLDATALOAD PUSH1 0x1 PUSH1 0x1 PUSH1 0x40 SHL SUB DUP2 GT PUSH2 0x21D JUMPI PUSH2 0x216 SWAP4 PUSH2 0x848 SWAP2 CALLDATASIZE SWAP2 ADD PUSH2 0x1137 JUMP JUMPDEST SWAP2 PUSH2 0x851 PUSH2 0xDA7 JUMP JUMPDEST SWAP3 PUSH2 0x85A PUSH2 0x133A JUMP JUMPDEST POP PUSH2 0x863 PUSH2 0x137D JUMP JUMPDEST SWAP1 PUSH2 0x86D DUP3 PUSH2 0x13E5 JUMP JUMPDEST MSTORE PUSH2 0x877 DUP2 PUSH2 0x13E5 JUMP JUMPDEST POP DUP3 MLOAD SWAP2 PUSH2 0x884 DUP4 PUSH2 0xD50 JUMP JUMPDEST DUP3 MSTORE DUP3 MLOAD SWAP4 PUSH2 0x282 DUP6 PUSH2 0xCCE JUMP JUMPDEST POP CALLVALUE PUSH2 0x221 JUMPI PUSH1 0x60 CALLDATASIZE PUSH1 0x3 NOT ADD SLT PUSH2 0x221 JUMPI PUSH1 0x1 PUSH1 0x1 PUSH1 0x40 SHL SUB DUP4 CALLDATALOAD DUP2 DUP2 GT PUSH2 0x4C8 JUMPI PUSH2 0x8C2 SWAP1 CALLDATASIZE SWAP1 DUP7 ADD PUSH2 0xE69 JUMP JUMPDEST SWAP1 PUSH1 0x24 CALLDATALOAD SWAP1 DUP2 GT PUSH2 0x4C8 JUMPI PUSH2 0x216 SWAP5 PUSH2 0x8DD SWAP2 CALLDATASIZE SWAP2 ADD PUSH2 0x11BD JUMP JUMPDEST SWAP1 PUSH2 0x8E6 PUSH2 0xDC3 JUMP JUMPDEST SWAP4 PUSH2 0x8EF PUSH2 0x133A JUMP JUMPDEST POP DUP4 MLOAD SWAP1 PUSH2 0x8FC DUP3 PUSH2 0xD50 JUMP JUMPDEST DUP2 MSTORE PUSH2 0x34B PUSH2 0x1408 JUMP JUMPDEST POP DUP3 SWAP1 CALLVALUE PUSH2 0x21D JUMPI DUP1 PUSH1 0x3 NOT CALLDATASIZE ADD SLT PUSH2 0x21D JUMPI PUSH1 0x1 PUSH1 0x1 PUSH1 0x40 SHL SUB SWAP2 DUP1 CALLDATALOAD DUP4 DUP2 GT PUSH2 0x548 JUMPI PUSH2 0x938 SWAP1 CALLDATASIZE SWAP1 DUP4 ADD PUSH2 0x1137 JUMP JUMPDEST SWAP3 PUSH1 0x24 CALLDATALOAD SWAP1 DUP2 GT PUSH2 0x548 JUMPI PUSH2 0x216 SWAP5 SWAP2 PUSH2 0x954 SWAP2 CALLDATASIZE SWAP2 ADD PUSH2 0x11BD JUMP JUMPDEST SWAP1 PUSH2 0x95D PUSH2 0x133A JUMP JUMPDEST POP PUSH2 0x966 PUSH2 0x137D JUMP JUMPDEST SWAP4 PUSH2 0x970 DUP6 PUSH2 0x13E5 JUMP JUMPDEST MSTORE PUSH2 0x97A DUP5 PUSH2 0x13E5 JUMP JUMPDEST POP DUP3 MLOAD SWAP1 PUSH2 0x987 DUP3 PUSH2 0xD50 JUMP JUMPDEST DUP2 MSTORE DUP3 MLOAD SWAP4 PUSH2 0x1E8 DUP6 PUSH2 0xCCE JUMP JUMPDEST POP CALLVALUE PUSH2 0x221 JUMPI PUSH1 0x60 CALLDATASIZE PUSH1 0x3 NOT ADD SLT PUSH2 0x221 JUMPI PUSH1 0x1 PUSH1 0x1 PUSH1 0x40 SHL SUB DUP4 CALLDATALOAD DUP2 DUP2 GT PUSH2 0x4C8 JUMPI PUSH2 0x9C5 SWAP1 CALLDATASIZE SWAP1 DUP7 ADD PUSH2 0x1137 JUMP JUMPDEST SWAP3 PUSH1 0x24 CALLDATALOAD SWAP2 DUP3 GT PUSH2 0x21A JUMPI POP PUSH2 0x216 SWAP4 PUSH2 0x9E1 SWAP2 CALLDATASIZE SWAP2 ADD PUSH2 0xE69 JUMP JUMPDEST PUSH2 0x9E9 PUSH2 0xDC3 JUMP JUMPDEST SWAP3 PUSH2 0x9F2 PUSH2 0x133A JUMP JUMPDEST POP PUSH2 0x9FB PUSH2 0x137D JUMP JUMPDEST SWAP1 PUSH2 0xA05 DUP3 PUSH2 0x13E5 JUMP JUMPDEST MSTORE PUSH2 0xA0F DUP2 PUSH2 0x13E5 JUMP JUMPDEST POP PUSH2 0xA18 PUSH2 0x1408 JUMP JUMPDEST SWAP2 PUSH2 0xA22 DUP4 PUSH2 0x13E5 JUMP JUMPDEST MSTORE PUSH2 0x80A DUP3 PUSH2 0x13E5 JUMP JUMPDEST POP DUP3 SWAP1 CALLVALUE PUSH2 0x21D JUMPI DUP1 PUSH1 0x3 NOT CALLDATASIZE ADD SLT PUSH2 0x21D JUMPI PUSH1 0x1 PUSH1 0x1 PUSH1 0x40 SHL SUB SWAP2 DUP1 CALLDATALOAD DUP4 DUP2 GT PUSH2 0x548 JUMPI PUSH2 0xA5E SWAP1 CALLDATASIZE SWAP1 DUP4 ADD PUSH2 0x123A JUMP JUMPDEST SWAP3 PUSH1 0x24 CALLDATALOAD SWAP1 DUP2 GT PUSH2 0x548 JUMPI PUSH2 0x216 SWAP5 SWAP2 PUSH2 0xA7A SWAP2 CALLDATASIZE SWAP2 ADD PUSH2 0x11BD JUMP JUMPDEST SWAP1 PUSH2 0x97A PUSH2 0x133A JUMP JUMPDEST POP CALLVALUE PUSH2 0x221 JUMPI DUP1 PUSH1 0x3 NOT CALLDATASIZE ADD SLT PUSH2 0x221 JUMPI DUP3 CALLDATALOAD PUSH1 0x1 PUSH1 0x1 PUSH1 0x40 SHL SUB DUP2 GT PUSH2 0x21D JUMPI PUSH2 0x216 SWAP4 PUSH2 0xAB4 SWAP2 CALLDATASIZE SWAP2 ADD PUSH2 0x123A JUMP JUMPDEST SWAP2 PUSH2 0xABD PUSH2 0xDA7 JUMP JUMPDEST SWAP3 PUSH2 0x877 PUSH2 0x133A JUMP JUMPDEST POP CALLVALUE PUSH2 0x221 JUMPI DUP2 PUSH1 0x3 NOT CALLDATASIZE ADD SLT PUSH2 0x221 JUMPI MLOAD PUSH16 0xB8E2054F8A912367E38A22CE773328FF PUSH1 0x80 SHL DUP2 MSTORE PUSH1 0x20 SWAP1 RETURN JUMPDEST POP CALLVALUE PUSH2 0x221 JUMPI PUSH1 0x60 CALLDATASIZE PUSH1 0x3 NOT ADD SLT PUSH2 0x221 JUMPI PUSH1 0x1 PUSH1 0x1 PUSH1 0x40 SHL SUB DUP4 CALLDATALOAD DUP2 DUP2 GT PUSH2 0x4C8 JUMPI PUSH2 0xB23 SWAP1 CALLDATASIZE SWAP1 DUP7 ADD PUSH2 0x12BA JUMP JUMPDEST SWAP1 PUSH1 0x24 CALLDATALOAD SWAP1 DUP2 GT PUSH2 0x4C8 JUMPI PUSH2 0x216 SWAP5 PUSH2 0xB3E SWAP2 CALLDATASIZE SWAP2 ADD PUSH2 0x11BD JUMP JUMPDEST SWAP1 PUSH2 0xB47 PUSH2 0xDC3 JUMP JUMPDEST SWAP4 PUSH2 0xB50 PUSH2 0x133A JUMP JUMPDEST POP DUP4 MLOAD SWAP1 PUSH2 0xB5D DUP3 PUSH2 0xD50 JUMP JUMPDEST DUP2 MSTORE DUP4 MLOAD SWAP5 PUSH2 0x36C DUP7 PUSH2 0xCCE JUMP JUMPDEST POP CALLVALUE PUSH2 0x221 JUMPI PUSH1 0x20 CALLDATASIZE PUSH1 0x3 NOT ADD SLT PUSH2 0x221 JUMPI DUP3 CALLDATALOAD PUSH1 0x1 PUSH1 0x1 PUSH1 0x40 SHL SUB DUP2 GT PUSH2 0x21D JUMPI PUSH2 0x216 SWAP4 PUSH2 0xB9D SWAP2 CALLDATASIZE SWAP2 ADD PUSH2 0x123A JUMP JUMPDEST SWAP2 PUSH2 0x5A4 PUSH2 0x133A JUMP JUMPDEST POP DUP3 SWAP1 CALLVALUE PUSH2 0x21D JUMPI PUSH1 0x60 CALLDATASIZE PUSH1 0x3 NOT ADD SLT PUSH2 0x21D JUMPI PUSH1 0x1 PUSH1 0x1 PUSH1 0x40 SHL SUB SWAP2 DUP1 CALLDATALOAD DUP4 DUP2 GT PUSH2 0x548 JUMPI PUSH2 0xBD9 SWAP1 CALLDATASIZE SWAP1 DUP4 ADD PUSH2 0x1137 JUMP JUMPDEST SWAP3 PUSH1 0x24 CALLDATALOAD SWAP1 DUP2 GT PUSH2 0x548 JUMPI PUSH2 0x216 SWAP5 SWAP2 PUSH2 0xBF5 SWAP2 CALLDATASIZE SWAP2 ADD PUSH2 0x11BD JUMP JUMPDEST SWAP1 PUSH2 0xBFE PUSH2 0xDC3 JUMP JUMPDEST SWAP4 PUSH2 0xC07 PUSH2 0x133A JUMP JUMPDEST POP PUSH2 0xC10 PUSH2 0x137D JUMP JUMPDEST SWAP1 PUSH2 0xC1A DUP3 PUSH2 0x13E5 JUMP JUMPDEST MSTORE PUSH2 0x52D DUP2 PUSH2 0x13E5 JUMP JUMPDEST POP CALLVALUE PUSH2 0x221 JUMPI PUSH1 0x20 CALLDATASIZE PUSH1 0x3 NOT ADD SLT PUSH2 0x221 JUMPI DUP3 CALLDATALOAD PUSH1 0x1 PUSH1 0x1 PUSH1 0x40 SHL SUB DUP2 GT PUSH2 0x21D JUMPI PUSH2 0x216 SWAP4 PUSH2 0xC56 SWAP2 CALLDATASIZE SWAP2 ADD PUSH2 0xE69 JUMP JUMPDEST PUSH2 0xC5E PUSH2 0x133A JUMP JUMPDEST POP DUP2 MLOAD SWAP3 PUSH2 0xC6B DUP5 PUSH2 0xD50 JUMP JUMPDEST DUP4 MSTORE PUSH2 0x480 PUSH2 0x1408 JUMP JUMPDEST POP CALLVALUE PUSH2 0x221 JUMPI DUP1 PUSH1 0x3 NOT CALLDATASIZE ADD SLT PUSH2 0x221 JUMPI DUP3 CALLDATALOAD PUSH1 0x1 PUSH1 0x1 PUSH1 0x40 SHL SUB DUP2 GT PUSH2 0x21D JUMPI PUSH2 0x216 SWAP4 PUSH2 0xCA6 SWAP2 CALLDATASIZE SWAP2 ADD PUSH2 0xE69 JUMP JUMPDEST PUSH2 0xCAE PUSH2 0xDA7 JUMP JUMPDEST SWAP3 PUSH2 0xCB7 PUSH2 0x133A JUMP JUMPDEST POP DUP3 MLOAD SWAP1 PUSH2 0xCC4 DUP3 PUSH2 0xD50 JUMP JUMPDEST DUP2 MSTORE PUSH2 0xA18 PUSH2 0x1408 JUMP JUMPDEST PUSH1 0x80 DUP2 ADD SWAP1 DUP2 LT PUSH1 0x1 PUSH1 0x1 PUSH1 0x40 SHL SUB DUP3 GT OR PUSH2 0xCE9 JUMPI PUSH1 0x40 MSTORE JUMP JUMPDEST PUSH4 0x4E487B71 PUSH1 0xE0 SHL PUSH1 0x0 MSTORE PUSH1 0x41 PUSH1 0x4 MSTORE PUSH1 0x24 PUSH1 0x0 REVERT JUMPDEST PUSH1 0xE0 DUP2 ADD SWAP1 DUP2 LT PUSH1 0x1 PUSH1 0x1 PUSH1 0x40 SHL SUB DUP3 GT OR PUSH2 0xCE9 JUMPI PUSH1 0x40 MSTORE JUMP JUMPDEST PUSH1 0xC0 DUP2 ADD SWAP1 DUP2 LT PUSH1 0x1 PUSH1 0x1 PUSH1 0x40 SHL SUB DUP3 GT OR PUSH2 0xCE9 JUMPI PUSH1 0x40 MSTORE JUMP JUMPDEST PUSH1 0x60 DUP2 ADD SWAP1 DUP2 LT PUSH1 0x1 PUSH1 0x1 PUSH1 0x40 SHL SUB DUP3 GT OR PUSH2 0xCE9 JUMPI PUSH1 0x40 MSTORE JUMP JUMPDEST PUSH1 0x20 DUP2 ADD SWAP1 DUP2 LT PUSH1 0x1 PUSH1 0x1 PUSH1 0x40 SHL SUB DUP3 GT OR PUSH2 0xCE9 JUMPI PUSH1 0x40 MSTORE JUMP JUMPDEST PUSH1 0x40 DUP2 ADD SWAP1 DUP2 LT PUSH1 0x1 PUSH1 0x1 PUSH1 0x40 SHL SUB DUP3 GT OR PUSH2 0xCE9 JUMPI PUSH1 0x40 MSTORE JUMP JUMPDEST SWAP1 PUSH1 0x1F DUP1 NOT SWAP2 ADD AND DUP2 ADD SWAP1 DUP2 LT PUSH1 0x1 PUSH1 0x1 PUSH1 0x40 SHL SUB DUP3 GT OR PUSH2 0xCE9 JUMPI PUSH1 0x40 MSTORE JUMP JUMPDEST PUSH1 0x24 CALLDATALOAD SWAP1 PUSH1 0x1 PUSH1 0x1 PUSH1 0x80 SHL SUB NOT DUP3 AND DUP3 SUB PUSH2 0xDBE JUMPI JUMP JUMPDEST PUSH1 0x0 DUP1 REVERT JUMPDEST PUSH1 0x44 CALLDATALOAD SWAP1 PUSH1 0x1 PUSH1 0x1 PUSH1 0x80 SHL SUB NOT DUP3 AND DUP3 SUB PUSH2 0xDBE JUMPI JUMP JUMPDEST PUSH1 0x64 CALLDATALOAD SWAP1 PUSH1 0x1 PUSH1 0x1 PUSH1 0x80 SHL SUB NOT DUP3 AND DUP3 SUB PUSH2 0xDBE JUMPI JUMP JUMPDEST CALLDATALOAD SWAP1 PUSH1 0x1 PUSH1 0x1 PUSH1 0x80 SHL SUB NOT DUP3 AND DUP3 SUB PUSH2 0xDBE JUMPI JUMP JUMPDEST CALLDATALOAD SWAP1 DUP2 ISZERO ISZERO DUP3 SUB PUSH2 0xDBE JUMPI JUMP JUMPDEST DUP2 PUSH1 0x1F DUP3 ADD SLT ISZERO PUSH2 0xDBE JUMPI DUP1 CALLDATALOAD SWAP1 PUSH1 0x1 PUSH1 0x1 PUSH1 0x40 SHL SUB DUP3 GT PUSH2 0xCE9 JUMPI PUSH1 0x40 MLOAD SWAP3 PUSH2 0xE47 PUSH1 0x1F DUP5 ADD PUSH1 0x1F NOT AND PUSH1 0x20 ADD DUP6 PUSH2 0xD86 JUMP JUMPDEST DUP3 DUP5 MSTORE PUSH1 0x20 DUP4 DUP4 ADD ADD GT PUSH2 0xDBE JUMPI DUP2 PUSH1 0x0 SWAP3 PUSH1 0x20 DUP1 SWAP4 ADD DUP4 DUP7 ADD CALLDATACOPY DUP4 ADD ADD MSTORE SWAP1 JUMP JUMPDEST SWAP2 SWAP1 PUSH1 0xE0 DUP4 DUP3 SUB SLT PUSH2 0xDBE JUMPI PUSH1 0x40 MLOAD SWAP1 PUSH2 0xE82 DUP3 PUSH2 0xCFF JUMP JUMPDEST DUP2 SWAP4 DUP1 CALLDATALOAD PUSH1 0x5 DUP2 LT ISZERO PUSH2 0xDBE JUMPI DUP4 MSTORE PUSH2 0xE9D PUSH1 0x20 DUP3 ADD PUSH2 0xDF1 JUMP JUMPDEST PUSH1 0x20 DUP5 ADD MSTORE PUSH2 0xEAE PUSH1 0x40 DUP3 ADD PUSH2 0xDF1 JUMP JUMPDEST PUSH1 0x40 DUP5 ADD MSTORE PUSH1 0x60 DUP2 ADD CALLDATALOAD PUSH1 0x60 DUP5 ADD MSTORE PUSH2 0xEC9 PUSH1 0x80 DUP3 ADD PUSH2 0xE06 JUMP JUMPDEST PUSH1 0x80 DUP5 ADD MSTORE PUSH2 0xEDA PUSH1 0xA0 DUP3 ADD PUSH2 0xE06 JUMP JUMPDEST PUSH1 0xA0 DUP5 ADD MSTORE PUSH1 0xC0 DUP2 ADD CALLDATALOAD SWAP2 PUSH1 0x1 PUSH1 0x1 PUSH1 0x40 SHL SUB DUP4 GT PUSH2 0xDBE JUMPI PUSH1 0xC0 SWAP3 PUSH2 0xF00 SWAP3 ADD PUSH2 0xE13 JUMP JUMPDEST SWAP2 ADD MSTORE JUMP JUMPDEST SWAP2 SWAP1 DUP3 MLOAD SWAP3 DUP4 DUP3 MSTORE PUSH1 0x0 JUMPDEST DUP5 DUP2 LT PUSH2 0xF31 JUMPI POP POP DUP3 PUSH1 0x0 PUSH1 0x20 DUP1 SWAP5 SWAP6 DUP5 ADD ADD MSTORE PUSH1 0x1F DUP1 NOT SWAP2 ADD AND ADD ADD SWAP1 JUMP JUMPDEST PUSH1 0x20 DUP2 DUP4 ADD DUP2 ADD MLOAD DUP5 DUP4 ADD DUP3 ADD MSTORE ADD PUSH2 0xF10 JUMP JUMPDEST SWAP1 PUSH1 0x20 DUP3 MSTORE PUSH1 0xA0 DUP3 ADD SWAP1 PUSH1 0x1 PUSH1 0x1 PUSH1 0x80 SHL SUB NOT DUP2 MLOAD AND PUSH1 0x20 DUP5 ADD MSTORE PUSH1 0x20 DUP2 ADD MLOAD SWAP2 PUSH1 0x80 PUSH1 0x40 DUP6 ADD MSTORE DUP3 MLOAD DUP1 SWAP2 MSTORE PUSH1 0xC0 DUP5 ADD PUSH1 0x20 PUSH1 0xC0 DUP4 PUSH1 0x5 SHL DUP8 ADD ADD SWAP5 ADD SWAP2 PUSH1 0x0 JUMPDEST DUP2 DUP2 LT PUSH2 0x10C1 JUMPI POP POP POP POP PUSH1 0x40 DUP2 ADD MLOAD SWAP2 PUSH1 0x1F NOT DUP5 DUP3 SUB ADD PUSH1 0x60 DUP6 ADD MSTORE DUP3 MLOAD DUP1 DUP3 MSTORE PUSH1 0x20 DUP3 ADD SWAP1 PUSH1 0x20 DUP1 DUP3 PUSH1 0x5 SHL DUP6 ADD ADD SWAP6 ADD SWAP3 PUSH1 0x0 SWAP1 JUMPDEST DUP3 DUP3 LT PUSH2 0x1017 JUMPI POP POP POP POP POP SWAP1 PUSH1 0x60 PUSH2 0x1014 SWAP4 SWAP3 ADD MLOAD SWAP2 PUSH1 0x80 PUSH1 0x1F NOT DUP3 DUP5 SUB ADD SWAP2 ADD MSTORE PUSH1 0x40 PUSH2 0xFF7 DUP4 MLOAD PUSH1 0x60 DUP5 MSTORE PUSH1 0x60 DUP5 ADD SWAP1 PUSH2 0xF05 JUMP JUMPDEST SWAP3 PUSH1 0x20 DUP2 ADD MLOAD ISZERO ISZERO PUSH1 0x20 DUP5 ADD MSTORE ADD MLOAD SWAP1 PUSH1 0x40 DUP2 DUP5 SUB SWAP2 ADD MSTORE PUSH2 0xF05 JUMP JUMPDEST SWAP1 JUMP JUMPDEST SWAP1 SWAP2 SWAP3 SWAP4 SWAP6 PUSH1 0x1F NOT DUP3 DUP3 SUB ADD DUP6 MSTORE DUP7 MLOAD SWAP1 DUP2 MLOAD PUSH1 0x5 DUP2 LT ISZERO PUSH2 0x10AB JUMPI PUSH2 0x109E DUP3 PUSH1 0xC0 PUSH1 0x1 SWAP6 PUSH1 0x20 SWAP6 SWAP5 DUP7 SWAP6 MSTORE PUSH1 0x1 PUSH1 0x1 PUSH1 0x80 SHL SUB NOT DUP6 DUP3 ADD MLOAD AND DUP6 DUP5 ADD MSTORE PUSH1 0x1 PUSH1 0x1 PUSH1 0x80 SHL SUB NOT PUSH1 0x40 DUP3 ADD MLOAD AND PUSH1 0x40 DUP5 ADD MSTORE PUSH1 0x60 DUP2 ADD MLOAD PUSH1 0x60 DUP5 ADD MSTORE PUSH1 0x80 DUP2 ADD MLOAD ISZERO ISZERO PUSH1 0x80 DUP5 ADD MSTORE PUSH1 0xA0 DUP2 ADD MLOAD ISZERO ISZERO PUSH1 0xA0 DUP5 ADD MSTORE ADD MLOAD SWAP1 PUSH1 0xE0 SWAP1 DUP2 PUSH1 0xC0 DUP3 ADD MSTORE ADD SWAP1 PUSH2 0xF05 JUMP JUMPDEST SWAP9 ADD SWAP6 ADD SWAP4 SWAP3 ADD SWAP1 PUSH2 0xFBF JUMP JUMPDEST PUSH4 0x4E487B71 PUSH1 0xE0 SHL PUSH1 0x0 MSTORE PUSH1 0x21 PUSH1 0x4 MSTORE PUSH1 0x24 PUSH1 0x0 REVERT JUMPDEST SWAP1 SWAP2 SWAP3 SWAP5 PUSH1 0xBF NOT DUP8 DUP3 SUB ADD DUP5 MSTORE DUP6 MLOAD SWAP1 DUP2 MLOAD SWAP2 PUSH1 0x6 DUP4 LT ISZERO PUSH2 0x10AB JUMPI PUSH2 0x112B DUP3 PUSH1 0xC0 PUSH1 0xA0 PUSH1 0x20 SWAP6 SWAP5 PUSH1 0x1 SWAP8 DUP8 SWAP7 MSTORE DUP6 DUP2 ADD MLOAD DUP7 DUP6 ADD MSTORE PUSH1 0x40 DUP2 ADD MLOAD ISZERO ISZERO PUSH1 0x40 DUP6 ADD MSTORE PUSH1 0x60 DUP1 DUP3 ADD MLOAD ISZERO ISZERO SWAP1 DUP6 ADD MSTORE PUSH1 0x80 DUP2 ADD MLOAD ISZERO ISZERO PUSH1 0x80 DUP6 ADD MSTORE ADD MLOAD SWAP2 DUP2 PUSH1 0xA0 DUP3 ADD MSTORE ADD SWAP1 PUSH2 0xF05 JUMP JUMPDEST SWAP8 ADD SWAP5 ADD SWAP3 SWAP2 ADD PUSH2 0xF87 JUMP JUMPDEST SWAP2 SWAP1 PUSH1 0xC0 DUP4 DUP3 SUB SLT PUSH2 0xDBE JUMPI PUSH1 0x40 MLOAD SWAP1 PUSH2 0x1150 DUP3 PUSH2 0xD1A JUMP JUMPDEST DUP2 SWAP4 DUP1 CALLDATALOAD PUSH1 0x6 DUP2 LT ISZERO PUSH2 0xDBE JUMPI DUP4 MSTORE PUSH1 0x20 DUP2 ADD CALLDATALOAD PUSH1 0x20 DUP5 ADD MSTORE PUSH2 0x1175 PUSH1 0x40 DUP3 ADD PUSH2 0xE06 JUMP JUMPDEST PUSH1 0x40 DUP5 ADD MSTORE PUSH2 0x1186 PUSH1 0x60 DUP3 ADD PUSH2 0xE06 JUMP JUMPDEST PUSH1 0x60 DUP5 ADD MSTORE PUSH2 0x1197 PUSH1 0x80 DUP3 ADD PUSH2 0xE06 JUMP JUMPDEST PUSH1 0x80 DUP5 ADD MSTORE PUSH1 0xA0 DUP2 ADD CALLDATALOAD SWAP2 PUSH1 0x1 PUSH1 0x1 PUSH1 0x40 SHL SUB DUP4 GT PUSH2 0xDBE JUMPI PUSH1 0xA0 SWAP3 PUSH2 0xF00 SWAP3 ADD PUSH2 0xE13 JUMP JUMPDEST SWAP2 SWAP1 PUSH1 0x60 DUP4 DUP3 SUB SLT PUSH2 0xDBE JUMPI PUSH1 0x40 MLOAD SWAP1 PUSH2 0x11D6 DUP3 PUSH2 0xD35 JUMP JUMPDEST DUP2 SWAP4 DUP1 CALLDATALOAD SWAP2 PUSH1 0x1 PUSH1 0x1 PUSH1 0x40 SHL SUB SWAP3 DUP4 DUP2 GT PUSH2 0xDBE JUMPI DUP2 PUSH2 0x11F7 SWAP2 DUP5 ADD PUSH2 0xE13 JUMP JUMPDEST DUP5 MSTORE PUSH2 0x1205 PUSH1 0x20 DUP4 ADD PUSH2 0xE06 JUMP JUMPDEST PUSH1 0x20 DUP6 ADD MSTORE PUSH1 0x40 DUP3 ADD CALLDATALOAD SWAP3 DUP4 GT PUSH2 0xDBE JUMPI PUSH1 0x40 SWAP3 PUSH2 0xF00 SWAP3 ADD PUSH2 0xE13 JUMP JUMPDEST PUSH1 0x1 PUSH1 0x1 PUSH1 0x40 SHL SUB DUP2 GT PUSH2 0xCE9 JUMPI PUSH1 0x5 SHL PUSH1 0x20 ADD SWAP1 JUMP JUMPDEST SWAP1 DUP1 PUSH1 0x1F DUP4 ADD SLT ISZERO PUSH2 0xDBE JUMPI DUP2 CALLDATALOAD SWAP1 PUSH2 0x1252 DUP3 PUSH2 0x1223 JUMP JUMPDEST SWAP3 PUSH2 0x1260 PUSH1 0x40 MLOAD SWAP5 DUP6 PUSH2 0xD86 JUMP JUMPDEST DUP3 DUP5 MSTORE PUSH1 0x20 SWAP3 DUP4 DUP1 DUP7 ADD SWAP2 PUSH1 0x5 SHL DUP4 ADD ADD SWAP3 DUP1 DUP5 GT PUSH2 0xDBE JUMPI DUP5 DUP4 ADD SWAP2 JUMPDEST DUP5 DUP4 LT PUSH2 0x128E JUMPI POP POP POP POP POP POP SWAP1 JUMP JUMPDEST DUP3 CALLDATALOAD PUSH1 0x1 PUSH1 0x1 PUSH1 0x40 SHL SUB DUP2 GT PUSH2 0xDBE JUMPI DUP7 SWAP2 PUSH2 0x12AF DUP5 DUP5 DUP1 SWAP5 DUP10 ADD ADD PUSH2 0x1137 JUMP JUMPDEST DUP2 MSTORE ADD SWAP3 ADD SWAP2 PUSH2 0x127E JUMP JUMPDEST SWAP1 DUP1 PUSH1 0x1F DUP4 ADD SLT ISZERO PUSH2 0xDBE JUMPI DUP2 CALLDATALOAD SWAP1 PUSH2 0x12D2 DUP3 PUSH2 0x1223 JUMP JUMPDEST SWAP3 PUSH2 0x12E0 PUSH1 0x40 MLOAD SWAP5 DUP6 PUSH2 0xD86 JUMP JUMPDEST DUP3 DUP5 MSTORE PUSH1 0x20 SWAP3 DUP4 DUP1 DUP7 ADD SWAP2 PUSH1 0x5 SHL DUP4 ADD ADD SWAP3 DUP1 DUP5 GT PUSH2 0xDBE JUMPI DUP5 DUP4 ADD SWAP2 JUMPDEST DUP5 DUP4 LT PUSH2 0x130E JUMPI POP POP POP POP POP POP SWAP1 JUMP JUMPDEST DUP3 CALLDATALOAD PUSH1 0x1 PUSH1 0x1 PUSH1 0x40 SHL SUB DUP2 GT PUSH2 0xDBE JUMPI DUP7 SWAP2 PUSH2 0x132F DUP5 DUP5 DUP1 SWAP5 DUP10 ADD ADD PUSH2 0xE69 JUMP JUMPDEST DUP2 MSTORE ADD SWAP3 ADD SWAP2 PUSH2 0x12FE JUMP JUMPDEST PUSH1 0x40 MLOAD SWAP1 PUSH2 0x1347 DUP3 PUSH2 0xCCE JUMP JUMPDEST DUP2 PUSH1 0x0 DUP2 MSTORE PUSH1 0x60 PUSH1 0x20 DUP3 ADD MSTORE PUSH1 0x60 PUSH1 0x40 DUP3 ADD MSTORE PUSH1 0x60 PUSH1 0x40 MLOAD SWAP2 PUSH2 0x1369 DUP4 PUSH2 0xD35 JUMP JUMPDEST DUP2 DUP4 MSTORE PUSH1 0x0 PUSH1 0x20 DUP5 ADD MSTORE DUP2 PUSH1 0x40 DUP5 ADD MSTORE ADD MSTORE JUMP JUMPDEST PUSH1 0x40 SWAP1 DUP2 MLOAD SWAP2 PUSH2 0x138C DUP4 PUSH2 0xD6B JUMP JUMPDEST PUSH1 0x1 DUP4 MSTORE DUP3 SWAP2 PUSH1 0x0 JUMPDEST PUSH1 0x20 DUP1 DUP3 LT ISZERO PUSH2 0x13DD JUMPI DUP4 MLOAD PUSH1 0x20 SWAP3 SWAP2 PUSH2 0x13AE DUP3 PUSH2 0xD1A JUMP JUMPDEST PUSH1 0x0 DUP3 MSTORE PUSH1 0x0 DUP2 DUP4 ADD MSTORE PUSH1 0x0 DUP7 DUP4 ADD MSTORE PUSH1 0x60 PUSH1 0x0 DUP2 DUP5 ADD MSTORE PUSH1 0x0 PUSH1 0x80 DUP5 ADD MSTORE PUSH1 0xA0 DUP4 ADD MSTORE DUP3 DUP9 ADD ADD MSTORE ADD PUSH2 0x1395 JUMP JUMPDEST POP POP SWAP2 SWAP3 POP POP JUMP JUMPDEST DUP1 MLOAD ISZERO PUSH2 0x13F2 JUMPI PUSH1 0x20 ADD SWAP1 JUMP JUMPDEST PUSH4 0x4E487B71 PUSH1 0xE0 SHL PUSH1 0x0 MSTORE PUSH1 0x32 PUSH1 0x4 MSTORE PUSH1 0x24 PUSH1 0x0 REVERT JUMPDEST PUSH1 0x40 SWAP1 DUP2 MLOAD SWAP2 PUSH2 0x1417 DUP4 PUSH2 0xD6B JUMP JUMPDEST PUSH1 0x1 DUP4 MSTORE DUP3 SWAP2 PUSH1 0x0 JUMPDEST PUSH1 0x20 DUP1 DUP3 LT ISZERO PUSH2 0x13DD JUMPI DUP4 MLOAD PUSH1 0x20 SWAP3 SWAP2 PUSH2 0x1439 DUP3 PUSH2 0xCFF JUMP JUMPDEST PUSH1 0x0 DUP3 MSTORE PUSH1 0x0 DUP2 DUP4 ADD MSTORE PUSH1 0x0 DUP7 DUP4 ADD MSTORE PUSH1 0x60 PUSH1 0x0 DUP2 DUP5 ADD MSTORE PUSH1 0x0 PUSH1 0x80 DUP5 ADD MSTORE PUSH1 0x0 PUSH1 0xA0 DUP5 ADD MSTORE PUSH1 0xC0 DUP4 ADD MSTORE DUP3 DUP9 ADD ADD MSTORE ADD PUSH2 0x1420 JUMP JUMPDEST PUSH1 0x40 MLOAD SWAP1 PUSH2 0x147C DUP3 PUSH2 0xD35 JUMP JUMPDEST DUP2 PUSH1 0x40 MLOAD SWAP1 PUSH1 0x0 DUP1 SLOAD SWAP3 PUSH1 0x1 SWAP2 DUP5 DUP4 SHR SWAP1 DUP4 DUP7 AND SWAP6 DUP7 ISZERO PUSH2 0x1655 JUMPI JUMPDEST PUSH1 0x20 SWAP7 DUP8 DUP5 LT DUP2 EQ PUSH2 0x1641 JUMPI DUP4 DUP6 MSTORE DUP5 SWAP3 SWAP2 DUP9 SWAP1 DUP3 ISZERO PUSH2 0x1624 JUMPI POP POP PUSH1 0x1 EQ PUSH2 0x15C7 JUMPI JUMPDEST PUSH2 0x14C8 SWAP3 POP SUB DUP3 PUSH2 0xD86 JUMP JUMPDEST DUP3 MSTORE PUSH1 0xFF DUP2 SLOAD AND ISZERO ISZERO DUP4 DUP4 ADD MSTORE PUSH1 0x40 MLOAD SWAP3 PUSH1 0x0 SWAP2 PUSH1 0x2 SLOAD SWAP1 DUP2 DUP2 SHR SWAP2 DUP2 DUP2 AND DUP1 ISZERO PUSH2 0x15BD JUMPI JUMPDEST DUP5 DUP5 LT DUP2 EQ PUSH2 0x15A9 JUMPI DUP4 DUP9 MSTORE DUP8 SWAP6 SWAP5 SWAP4 SWAP3 SWAP2 DUP2 ISZERO PUSH2 0x158A JUMPI POP PUSH1 0x1 EQ PUSH2 0x1525 JUMPI JUMPDEST POP POP POP PUSH1 0x40 SWAP3 SWAP2 PUSH2 0x1521 SWAP2 SUB DUP5 PUSH2 0xD86 JUMP JUMPDEST ADD MSTORE JUMP JUMPDEST SWAP1 SWAP5 SWAP4 SWAP3 POP PUSH1 0x2 PUSH1 0x0 MSTORE PUSH32 0x405787FA12A823E0F2B7631CC41B3BA8828B3321CA811111FA75CD3AA3BB5ACE SWAP5 PUSH1 0x0 SWAP2 JUMPDEST DUP2 DUP4 LT PUSH2 0x1572 JUMPI POP SWAP4 SWAP5 POP SWAP2 SWAP3 POP SWAP1 DUP3 ADD ADD DUP2 PUSH2 0x1521 PUSH1 0x40 PUSH2 0x150F JUMP JUMPDEST DUP7 SLOAD DUP9 DUP5 ADD DUP6 ADD MSTORE SWAP6 DUP7 ADD SWAP6 DUP8 SWAP5 POP SWAP2 DUP4 ADD SWAP2 PUSH2 0x1555 JUMP JUMPDEST PUSH1 0xFF NOT AND DUP5 DUP8 ADD MSTORE POP POP ISZERO ISZERO PUSH1 0x5 SHL DUP4 ADD ADD SWAP1 POP DUP2 PUSH2 0x1521 PUSH1 0x40 PUSH2 0x150F JUMP JUMPDEST PUSH4 0x4E487B71 PUSH1 0xE0 SHL DUP7 MSTORE PUSH1 0x22 PUSH1 0x4 MSTORE PUSH1 0x24 DUP7 REVERT JUMPDEST SWAP3 PUSH1 0x7F AND SWAP3 PUSH2 0x14EE JUMP JUMPDEST POP POP PUSH1 0x0 DUP1 MSTORE DUP2 DUP6 PUSH32 0x290DECD9548B62A8D60345A988386FC84BA6BC95484008F6362F93160EF3E563 DUP6 PUSH1 0x0 SWAP2 JUMPDEST DUP6 DUP4 LT PUSH2 0x160B JUMPI POP POP PUSH2 0x14C8 SWAP4 POP DUP3 ADD ADD PUSH2 0x14BC JUMP JUMPDEST DUP1 SWAP2 SWAP3 SWAP5 POP SLOAD DUP4 DUP6 DUP9 ADD ADD MSTORE ADD SWAP2 ADD DUP7 SWAP1 DUP6 DUP6 SWAP4 PUSH2 0x15F5 JUMP JUMPDEST PUSH1 0xFF NOT AND DUP5 DUP3 ADD MSTORE PUSH2 0x14C8 SWAP5 ISZERO ISZERO PUSH1 0x5 SHL DUP5 ADD ADD SWAP2 POP PUSH2 0x14BC SWAP1 POP JUMP JUMPDEST PUSH4 0x4E487B71 PUSH1 0xE0 SHL DUP4 MSTORE PUSH1 0x22 PUSH1 0x4 MSTORE PUSH1 0x24 DUP4 REVERT JUMPDEST SWAP2 PUSH1 0x7F AND SWAP2 PUSH2 0x1498 JUMP INVALID LOG2 PUSH5 0x6970667358 0x22 SLT KECCAK256 0xCF 0xD6 0xF8 SUB 0xB6 JUMP LOG4 0x29 PUSH9 0xFC5176156B7F9844F4 GT 0xC0 RETURNDATACOPY 0xB0 SDIV DUP1 0xCB PUSH11 0x50D03E8C287864736F6C63 NUMBER STOP ADDMOD SGT STOP CALLER "},"gasEstimates":{"creation":{"codeDepositCost":"1156200","executionCost":"infinite","totalCost":"infinite"},"external":{"DEFAULT_NAMESPACE()":"280","build((uint8,bytes16,bytes16,uint256,bool,bool,bytes))":"infinite","build((uint8,bytes16,bytes16,uint256,bool,bool,bytes),(bytes,bool,bytes))":"infinite","build((uint8,bytes16,bytes16,uint256,bool,bool,bytes),(bytes,bool,bytes),bytes16)":"infinite","build((uint8,bytes16,bytes16,uint256,bool,bool,bytes),bytes16)":"infinite","build((uint8,bytes16,bytes16,uint256,bool,bool,bytes)[])":"infinite","build((uint8,bytes16,bytes16,uint256,bool,bool,bytes)[],(bytes,bool,bytes))":"infinite","build((uint8,bytes16,bytes16,uint256,bool,bool,bytes)[],(bytes,bool,bytes),bytes16)":"infinite","build((uint8,bytes16,bytes16,uint256,bool,bool,bytes)[],bytes16)":"infinite","build((uint8,uint256,bool,bool,bool,bytes))":"infinite","build((uint8,uint256,bool,bool,bool,bytes),(bytes,bool,bytes))":"infinite","build((uint8,uint256,bool,bool,bool,bytes),(bytes,bool,bytes),bytes16)":"infinite","build((uint8,uint256,bool,bool,bool,bytes),(uint8,bytes16,bytes16,uint256,bool,bool,bytes))":"infinite","build((uint8,uint256,bool,bool,bool,bytes),(uint8,bytes16,bytes16,uint256,bool,bool,bytes),(bytes,bool,bytes))":"infinite","build((uint8,uint256,bool,bool,bool,bytes),(uint8,bytes16,bytes16,uint256,bool,bool,bytes),(bytes,bool,bytes),bytes16)":"infinite","build((uint8,uint256,bool,bool,bool,bytes),(uint8,bytes16,bytes16,uint256,bool,bool,bytes),bytes16)":"infinite","build((uint8,uint256,bool,bool,bool,bytes),bytes16)":"infinite","build((uint8,uint256,bool,bool,bool,bytes)[])":"infinite","build((uint8,uint256,bool,bool,bool,bytes)[],(bytes,bool,bytes))":"infinite","build((uint8,uint256,bool,bool,bool,bytes)[],(bytes,bool,bytes),bytes16)":"infinite","build((uint8,uint256,bool,bool,bool,bytes)[],(uint8,bytes16,bytes16,uint256,bool,bool,bytes)[])":"infinite","build((uint8,uint256,bool,bool,bool,bytes)[],(uint8,bytes16,bytes16,uint256,bool,bool,bytes)[],(bytes,bool,bytes))":"infinite","build((uint8,uint256,bool,bool,bool,bytes)[],(uint8,bytes16,bytes16,uint256,bool,bool,bytes)[],(bytes,bool,bytes),bytes16)":"infinite","build((uint8,uint256,bool,bool,bool,bytes)[],(uint8,bytes16,bytes16,uint256,bool,bool,bytes)[],bytes16)":"infinite","build((uint8,uint256,bool,bool,bool,bytes)[],bytes16)":"infinite"}},"methodIdentifiers":{"DEFAULT_NAMESPACE()":"1b399c99","build((uint8,bytes16,bytes16,uint256,bool,bool,bytes))":"0e58be05","build((uint8,bytes16,bytes16,uint256,bool,bool,bytes),(bytes,bool,bytes))":"c9f97f53","build((uint8,bytes16,bytes16,uint256,bool,bool,bytes),(bytes,bool,bytes),bytes16)":"54852577","build((uint8,bytes16,bytes16,uint256,bool,bool,bytes),bytes16)":"080b53f8","build((uint8,bytes16,bytes16,uint256,bool,bool,bytes)[])":"b33cd323","build((uint8,bytes16,bytes16,uint256,bool,bool,bytes)[],(bytes,bool,bytes))":"b5ae2587","build((uint8,bytes16,bytes16,uint256,bool,bool,bytes)[],(bytes,bool,bytes),bytes16)":"14ddafa3","build((uint8,bytes16,bytes16,uint256,bool,bool,bytes)[],bytes16)":"f1c1e209","build((uint8,uint256,bool,bool,bool,bytes))":"d7ccd8da","build((uint8,uint256,bool,bool,bool,bytes),(bytes,bool,bytes))":"48fd24cc","build((uint8,uint256,bool,bool,bool,bytes),(bytes,bool,bytes),bytes16)":"10c5d31b","build((uint8,uint256,bool,bool,bool,bytes),(uint8,bytes16,bytes16,uint256,bool,bool,bytes))":"dde11c7c","build((uint8,uint256,bool,bool,bool,bytes),(uint8,bytes16,bytes16,uint256,bool,bool,bytes),(bytes,bool,bytes))":"f2d3f1f6","build((uint8,uint256,bool,bool,bool,bytes),(uint8,bytes16,bytes16,uint256,bool,bool,bytes),(bytes,bool,bytes),bytes16)":"e93f38b8","build((uint8,uint256,bool,bool,bool,bytes),(uint8,bytes16,bytes16,uint256,bool,bool,bytes),bytes16)":"31560e75","build((uint8,uint256,bool,bool,bool,bytes),bytes16)":"91ba07f3","build((uint8,uint256,bool,bool,bool,bytes)[])":"11f83e20","build((uint8,uint256,bool,bool,bool,bytes)[],(bytes,bool,bytes))":"2ceb1e8d","build((uint8,uint256,bool,bool,bool,bytes)[],(bytes,bool,bytes),bytes16)":"dd108267","build((uint8,uint256,bool,bool,bool,bytes)[],(uint8,bytes16,bytes16,uint256,bool,bool,bytes)[])":"a156e2d8","build((uint8,uint256,bool,bool,bool,bytes)[],(uint8,bytes16,bytes16,uint256,bool,bool,bytes)[],(bytes,bool,bytes))":"99240336","build((uint8,uint256,bool,bool,bool,bytes)[],(uint8,bytes16,bytes16,uint256,bool,bool,bytes)[],(bytes,bool,bytes),bytes16)":"e48cd721","build((uint8,uint256,bool,bool,bool,bytes)[],(uint8,bytes16,bytes16,uint256,bool,bool,bytes)[],bytes16)":"9266f47c","build((uint8,uint256,bool,bool,bool,bytes)[],bytes16)":"27b5b7c3"}},"storageLayout":{"storage":[{"astId":1827,"contract":"contracts/helpers/utils/RequestBuilder.sol:RequestBuilder","label":"DEFAULT_SIGNATURE_REQUEST","offset":0,"slot":"0","type":"t_struct(SignatureRequest)3155_storage"}],"types":{"t_bool":{"encoding":"inplace","label":"bool","numberOfBytes":"1"},"t_bytes_storage":{"encoding":"bytes","label":"bytes","numberOfBytes":"32"},"t_struct(SignatureRequest)3155_storage":{"encoding":"inplace","label":"struct SignatureRequest","members":[{"astId":3150,"contract":"contracts/helpers/utils/RequestBuilder.sol:RequestBuilder","label":"message","offset":0,"slot":"0","type":"t_bytes_storage"},{"astId":3152,"contract":"contracts/helpers/utils/RequestBuilder.sol:RequestBuilder","label":"isSelectableByUser","offset":0,"slot":"1","type":"t_bool"},{"astId":3154,"contract":"contracts/helpers/utils/RequestBuilder.sol:RequestBuilder","label":"extraData","offset":0,"slot":"2","type":"t_bytes_storage"}],"numberOfBytes":"96"}}},"userdoc":{"kind":"user","methods":{},"version":1}}}}