{"contracts/MecenateVerifier.sol":{"MecenateVerifier":{"abi":[{"inputs":[{"internalType":"bytes16","name":"_appId","type":"bytes16"}],"stateMutability":"nonpayable","type":"constructor"},{"inputs":[{"internalType":"enum AuthType","name":"authType","type":"uint8"}],"name":"AuthTypeNotFoundInVerifiedResult","type":"error"},{"inputs":[],"name":"ADDRESSES_PROVIDER_V2","outputs":[{"internalType":"contract IAddressesProvider","name":"","type":"address"}],"stateMutability":"view","type":"function"},{"inputs":[],"name":"APP_ID","outputs":[{"internalType":"bytes16","name":"","type":"bytes16"}],"stateMutability":"view","type":"function"},{"inputs":[],"name":"IS_IMPERSONATION_MODE","outputs":[{"internalType":"bool","name":"","type":"bool"}],"stateMutability":"view","type":"function"},{"inputs":[],"name":"SISMO_CONNECT_LIB_VERSION","outputs":[{"internalType":"uint256","name":"","type":"uint256"}],"stateMutability":"view","type":"function"},{"inputs":[],"name":"appId","outputs":[{"internalType":"bytes16","name":"","type":"bytes16"}],"stateMutability":"view","type":"function"},{"inputs":[],"name":"config","outputs":[{"components":[{"internalType":"bytes16","name":"appId","type":"bytes16"},{"components":[{"internalType":"bool","name":"isImpersonationMode","type":"bool"}],"internalType":"struct VaultConfig","name":"vault","type":"tuple"}],"internalType":"struct SismoConnectConfig","name":"","type":"tuple"}],"stateMutability":"view","type":"function"},{"inputs":[{"internalType":"bytes","name":"sismoConnectResponse","type":"bytes"},{"internalType":"address","name":"_to","type":"address"},{"internalType":"address","name":"_from","type":"address"}],"name":"sismoVerify","outputs":[{"internalType":"bytes","name":"","type":"bytes"},{"internalType":"uint256","name":"","type":"uint256"},{"internalType":"uint256","name":"","type":"uint256"}],"stateMutability":"view","type":"function"}],"devdoc":{"kind":"dev","methods":{},"version":1},"evm":{"bytecode":{"linkReferences":{},"object":"610160604081815234620004e3578162002668803803809162000023828562000536565b8339602093849181010312620004e357516001600160801b03198082169290838303620004e3578151906200005882620004e8565b600091828152868451916200006d836200051a565b848352015281835162000080816200051a565b528251946200008f866200051a565b828652835190620000a082620004e8565b808252878201968752156200049f578551516200044f57819051169461012095865251511515936101409485528351620000da81620004e8565b601981527f7369736d6f436f6e6e65637456657269666965722d76312e320000000000000088820152845190816200012163349f642f60e11b92838352600483016200057b565b038983733cd5334eb64ebbd4003b72022cc25465f1bfcee69281845afa9283156200044557869362000421575b506001600160a01b039283166080528651620001ad908b906200017181620004e8565b601781527f61757468526571756573744275696c6465722d76312e3100000000000000000082820152895180938192878352600483016200057b565b0381855afa908115620003d3579084918891620003ff575b501660a052620002188a8851620001dc81620004e8565b601881527f636c61696d526571756573744275696c6465722d76312e31000000000000000082820152895180938192878352600483016200057b565b0381855afa908115620003d3579084918891620003dd575b501660c052620002838a88516200024781620004e8565b601581527f7369676e61747572654275696c6465722d76312e31000000000000000000000082820152895180938192878352600483016200057b565b0381855afa908115620003d3579184620002f294928d948a91620003b1575b501660e052885191620002b583620004e8565b601383527f726571756573744275696c6465722d76312e31000000000000000000000000008484015289518095819482938352600483016200057b565b03915afa988915620003a757859962000371575b50506101009716875260801c9082541617905551916120a19384620005c7853960805184610cea015260a05184818161028a0152818161030b015261038c015260c05184505060e0518461043501525183610b5f01525182818160ac0152611bd20152518160e80152f35b62000396929950803d106200039f575b6200038d818362000536565b8101906200055a565b96388062000306565b503d62000381565b86513d87823e3d90fd5b620003cc9150853d87116200039f576200038d818362000536565b38620002a2565b88513d89823e3d90fd5b620003f891508c8d3d106200039f576200038d818362000536565b3862000230565b6200041a91508c8d3d106200039f576200038d818362000536565b38620001c5565b6200043d9193508a3d8c116200039f576200038d818362000536565b91386200014e565b87513d88823e3d90fd5b835162461bcd60e51b815260048101889052602360248201527f696d706572736f6e6174696f6e206d6f6465206973206e6f7420737570706f726044820152621d195960ea1b6064820152608490fd5b835162461bcd60e51b815260048101889052601560248201527f61707049642063616e6e6f7420626520656d70747900000000000000000000006044820152606490fd5b600080fd5b604081019081106001600160401b038211176200050457604052565b634e487b7160e01b600052604160045260246000fd5b602081019081106001600160401b038211176200050457604052565b601f909101601f19168101906001600160401b038211908210176200050457604052565b90816020910312620004e357516001600160a01b0381168103620004e35790565b6020808252825181830181905290939260005b828110620005b157505060409293506000838284010152601f8019910116010190565b8181018601518482016040015285016200058e56fe6101e0604052600436101561001357600080fd5b60003560e01c806307c93c8f146101a7578063469163011461017857806379502c551461013857806380afdea81461010d578063a183dc27146100d0578063c187bbc11461008b5763c9512d991461006a57600080fd5b3461008657600036600319011261008657602060405160028152f35b600080fd5b346100865760003660031901126100865760206040516001600160801b03197f0000000000000000000000000000000000000000000000000000000000000000168152f35b346100865760003660031901126100865760206040517f000000000000000000000000000000000000000000000000000000000000000015158152f35b3461008657600036600319011261008657602060005460801b604051906001600160801b0319168152f35b34610086576000366003190112610086576040610153611b92565b61017682518092602080916001600160801b031981511684520151511515910152565bf35b34610086576000366003190112610086576020604051733cd5334eb64ebbd4003b72022cc25465f1bfcee68152f35b34610086576060366003190112610086576004356001600160401b0381116100865736602382011215610086578060040135906101f26101e683611a1e565b604051806080526119fd565b8160805152366024838301011161008657816000926024602093018360805101376080510101526024356001600160a01b0381168103610086576044356001600160a01b03811681036100865760805151156118f4576040519061025582611976565b6003825260005b606081106118dd575061026d611a98565b50604051633a0ba6ff60e01b8152600060048201819052816024817f00000000000000000000000000000000000000000000000000000000000000006001600160a01b03165afa90811561132e576000916118c2575b506102cd83611acd565b526102d782611acd565b506102e0611a98565b50604051630c3bcacd60e41b81526002600482015260016024820181905260448201526000816064817f00000000000000000000000000000000000000000000000000000000000000006001600160a01b03165afa90811561132e576000916118a7575b5061034e83611af0565b5261035882611af0565b50610361611a98565b50604051630c3bcacd60e41b81526004808201526001602482018190526044820152906000826064817f00000000000000000000000000000000000000000000000000000000000000006001600160a01b03165afa801561132e5761043192600091611884575b506103d284611b00565b526103dc83611b00565b50604080516001600160a01b038681166020830152831681830152908152600090610406816119e2565b61040e611eab565b5060405180948192631a0d7ccb60e21b8352602060048401526024830190611a5c565b03817f00000000000000000000000000000000000000000000000000000000000000006001600160a01b03165afa91821561132e57600092611840575b50606060a060405161047f8161192a565b60008152600060208201526000604082015282808201528260808201520152608051938451850161018052602085610180510312610086576020850151946001600160401b038611610086578560a0910161018051031261008657604051926104e78461195b565b6104f76020876080510101611ca1565b84526105096040876080510101611ca1565b6020850152606086608051010151604085015285608051016080810151906001600160401b03821161008657602061054992816101805101920101611cb6565b6060850152856080510160a081015160c0526001600160401b0360c051116100865760206101805101603f60c05183010112156100865760c05101602001519461059286611a81565b61059f60405191826119fd565b8061010052868152602081016101005260c0518860805101016020610180510160408960051b830101116100865760400161012052919592915b60c05188608051010160408560051b820101610120511015610ae95761012051516101c0526001600160401b036101c051116100865760a090601f19906101c0510161018051030112610086576040516101a0526106396101a05161195b565b6101c05160c05189608051010101604081015160e0526001600160401b0360e051116100865760206101805101605f60e05183010112156100865760409060e0510101516101405261068d61014051611a81565b9661069b60405198896119fd565b610140518852602088019460e0516101c05160c0518c608051010101016020610180510160606101405160051b8301011161008657606001955b60e0516101c05160c0518d608051010101019060606101405160051b83010188101561080b578751916001600160401b038311610086576101805160a09184019003603f19011261008657604051916060818e6107318661195b565b60e051906101c0519060c0519060805101010101010151600681101561008657818e60c092865261077560808360e0516101c0518751868551010101010101611cfb565b602087015261079860a08360e0516101c051875186608051010101010101611cfb565b604087015260e051906101c0519084519060805101010101010151606084015260e0518d6101c0519060c0519060805101010101019060e0820151926001600160401b038411610086576107fb6020949360608695866101805101920101611cb6565b60808201528152019601956106d5565b505093979094509591959490946101a051526101c05160c05189608051010101606081015160a0526001600160401b0360a051116100865760206101805101605f60a05183010112156100865760409060a0510101516101605261087161016051611a81565b9661087f60405198896119fd565b610160518852602088019460a0516101c05160c0518c608051010101016020610180510160606101605160051b8301011161008657606001955b60a0516101c05160c0518d608051010101019060606101605160051b830101881015610a15578751916001600160401b038311610086576101805160c09184019003603f19011261008657604051916060818e6109158661192a565b60a051906101c0519060c0519060805101010101010151600581101561008657818e60e092865261095a60808360a0516101c05160c051868551010101010101611ca1565b602087015261097d60a08381516101c05160c05186608051010101010101611ca1565b60408701526109a060c08360a0516101c051835186608051010101010101611cfb565b606087015260a051906101c0519060c0519060805101010101010151608084015260a0518d6101c0519060c05190608051010101010190610100820151926001600160401b03841161008657610a056020949360608695866101805101920101611cb6565b60a08201528152019601956108b9565b5050939790945095919594909460206101a051015260806101c05160c0518a8351010101015160406101a05101526101c05160c0518960805101010160a0810151906001600160401b038211610086576040610a7a9260206101805101920101611cb6565b60606101a05101526101c05160c0518960805101010160c0810151906001600160401b038211610086576040610ab99260206101805101920101611cb6565b60806101a05101526101a051610100515260206101005101610100526020610120510161012052959291956105d9565b8686858a6000610b4988886080880152604051610b0581611976565b83815260606020820152606060408201526060610b20611eab565b910152610b5b6040519485938493632ceb1e8d60e01b8552604060048601526044850190611d22565b83810360031901602485015290611dc5565b03817f00000000000000000000000000000000000000000000000000000000000000006001600160a01b03165afa90811561132e5760009161157c575b5092610ba2611b92565b906040519485916312b037ff60e01b8352608060048401526001600160801b031981511660848401526001600160801b031960208201511660a4840152604081015160c48401526080610c05606083015160a060e4870152610124860190611a5c565b9101519060831984820301610104850152815180825260208201916020808360051b8301019401926000915b8383106113d25750505050506003198382030160248401526001600160801b03198251168152610c706020830151608060208401526080830190611d22565b916040810151928281036040840152835180825260208201916020808360051b8301019601926000915b83831061133a575050505050610cc58493600096936060610ce6940151906060818403910152611dc5565b82516001600160801b03191660448501526020909201515115156064840152565b03817f00000000000000000000000000000000000000000000000000000000000000006001600160a01b03165afa92831561132e57600093610f8a575b5060a08301519160408380518101031261008657610d4360208401611b24565b926001600160a01b0390610d5990604001611b24565b166001600160a01b0390911603610f50576001600160a01b03908116911603610f18576060810180515191610d8d83611a81565b92610d9b60405194856119fd565b808452610daa601f1991611a81565b0160005b818110610edf57505060005b82518051821015610df45790610dd381610def93611b10565b51610dde8287611b10565b52610de98186611b10565b50611b38565b610dba565b8483610dff81611f31565b9060405191602083015260208252610e16826119ac565b60009182805b8551811015610eb657610e38610e328288611b10565b51611b5d565b60069081811015610ea057600203610e6457509050610e5f610e598461200f565b91611b38565b610e1c565b610e71610e328389611b10565b90811015610ea057600414610e8a575b610e5f90611b38565b9350610e5f610e9884611fb4565b949050610e81565b634e487b7160e01b600052602160045260246000fd5b610ed0838387604051938493606085526060850190611a5c565b91602084015260408301520390f35b602090604051610eee8161195b565b60008152600083820152600060408201526060808201526060608082015282828801015201610dae565b60405162461bcd60e51b815260206004820152601060248201526f57524f4e475f544f5f4144445245535360801b6044820152606490fd5b60405162461bcd60e51b815260206004820152601260248201527157524f4e475f46524f4d5f4144445245535360701b6044820152606490fd5b9092503d806000833e610f9d81836119fd565b6020828281010312610086578151916001600160401b0383116100865760c083820183830103126100865760405192610fd58461192a565b610fe0818301611ca1565b8452610ff0602082840101611ca1565b602085015281810160408181015190860152606001516001600160401b03811161008657838301601f82848601010112156100865780828401015161103481611a81565b9161104260405193846119fd565b8183526020830186860160208460051b84888a0101010111610086576020828688010101905b60208460051b84888a01010101821061124457505050506060850152608081830101516001600160401b03811161008657838301601f8284860101011215610086578082840101516110b981611a81565b916110c760405193846119fd565b8183526020830186860160208460051b84888a0101010111610086576020828688010101905b60208460051b84888a0101010182106111395750505050608085015260a08183010151906001600160401b0382116100865761112d938301920101611cb6565b60a08201529183610d23565b81516001600160401b0381116100865760e0888801850182018a8a0103601f190112610086576040519161116c83611991565b602082868a8c01010101516005811015610086578352611194604083878b8d01010101611ca1565b60208401526111ab606083878b8d01010101611ca1565b6040840152888801850182016080810151606085015260a001516001600160401b038111610086576111eb908b8b01908a8c018801850101602001611cb6565b60808401528888018501820160c081015160a085015260e00151906001600160401b038211610086576020936112328b868096958f968b8f84998601950101010101611cb6565b60c082015281520192019190506110ed565b81516001600160401b0381116100865760a0888801850182018a8a0103601f19011261008657604051916112778361195b565b602082868a8c0101010151600681101561008657835261129f604083878b8d01010101611cfb565b60208401528888018501820160608101516040850152608001516001600160401b038111610086576112df908b8b01908a8c018801850101602001611cb6565b606084015260a082868a8c0101010151906001600160401b0382116100865760209361131c8b868096958f968b8f84998601950101010101611cb6565b60808201528152019201919050611068565b6040513d6000823e3d90fd5b91939750919394956020806113be600193601f1986820301875260e08c5191611364818451611d15565b6001600160801b03198584015116858201526001600160801b031960408401511660408201526060830151606082015260808301511515608082015260a0830151151560a08201528160c080940151938201520190611a5c565b99019301930190928b979695949293610c9a565b91939596509193601f1982820301835285519060a0810182519060a08352815180915260c08301602060c08360051b86010193019160005b818110611519575050505060208301519082810360208401528151808252602082016020808360051b85010194019260005b838110611498575050505050611485836020936080611474869560406001990151604085015260608501518482036060860152611a5c565b920151906080818403910152611a5c565b97019301930190928a9695949293610c31565b909192939460208061150c600193601f1987820301885260c060a08b516114c0848251611d15565b6001600160801b03198682015116868501526001600160801b03196040820151166040850152606081015115156060850152608081015160808501520151918160a08201520190611a5c565b970195940192910161143c565b9091929360208061157060019360bf198a820301885260a060808a51611540848251611d08565b85810151151586850152604081015115156040850152606081015160608501520151918160808201520190611a5c565b9601940192910161140a565b90503d806000833e61158e81836119fd565b6020828281010312610086578151916001600160401b038311610086576080838201838301031261008657604051926115c684611976565b6115d1818301611ca1565b8452602081830101516001600160401b03811161008657838301601f82848601010112156100865780828401015161160881611a81565b9161161660405193846119fd565b8183526020830186860160208460051b84888a0101010111610086576020828688010101905b60208460051b84888a01010101821061180657505050506020850152604081830101516001600160401b03811161008657838301601f82848601010112156100865780828401015161168d81611a81565b9161169b60405193846119fd565b8183526020830186860160208460051b84888a0101010111610086576020828688010101905b60208460051b84888a01010101821061170c5750505050604085015260608183010151906001600160401b03821161008657611701938301920101611ecb565b606082015284610b98565b81516001600160401b0381116100865760e0888801850182018a8a0103601f190112610086576040519161173f83611991565b602082868a8c01010101516005811015610086578352611767604083878b8d01010101611ca1565b602084015261177e606083878b8d01010101611ca1565b604084015288880185018201608081015160608501526117a09060a001611cfb565b60808401526117b760c083878b8d01010101611cfb565b60a084015260e082868a8c0101010151906001600160401b038211610086576020936117f48b868096958f968b8f84998601950101010101611cb6565b60c082015281520192019190506116c1565b8151906001600160401b0382116100865760208092916118338a838095898f8e9085019401010101611dfb565b815201920191905061163c565b9091503d90816000823e61185482826119fd565b60208183810103126100865780516001600160401b0381116100865761187d9282019101611ecb565b908461046e565b6118a191503d806000833e61189981836119fd565b810190611e86565b856103c8565b6118bc91503d806000833e61189981836119fd565b84610344565b6118d791503d806000833e61189981836119fd565b846102c3565b6020906118e8611a98565b8282860101520161025c565b60405162461bcd60e51b815260206004820152600e60248201526d656d70747920726573706f6e736560901b6044820152606490fd5b60c081019081106001600160401b0382111761194557604052565b634e487b7160e01b600052604160045260246000fd5b60a081019081106001600160401b0382111761194557604052565b608081019081106001600160401b0382111761194557604052565b60e081019081106001600160401b0382111761194557604052565b604081019081106001600160401b0382111761194557604052565b602081019081106001600160401b0382111761194557604052565b606081019081106001600160401b0382111761194557604052565b90601f801991011681019081106001600160401b0382111761194557604052565b6001600160401b03811161194557601f01601f191660200190565b60005b838110611a4c5750506000910152565b8181015183820152602001611a3c565b90602091611a7581518092818552858086019101611a39565b601f01601f1916010190565b6001600160401b0381116119455760051b60200190565b60405190611aa58261192a565b606060a083600081526000602082015260006040820152600083820152600060808201520152565b805115611ada5760200190565b634e487b7160e01b600052603260045260246000fd5b805160011015611ada5760400190565b805160021015611ada5760600190565b8051821015611ada5760209160051b010190565b51906001600160a01b038216820361008657565b6000198114611b475760010190565b634e487b7160e01b600052601160045260246000fd5b516006811015610ea05790565b60405190611b77826119ac565b60008252604051602083611b8a836119c7565b600083520152565b611b9a611b6a565b50611ba3611b6a565b506000604051611bb2816119c7565b52604051611bbf816119c7565b6000815260405190611bd0826119ac565b7f00000000000000000000000000000000000000000000000000000000000000006001600160801b0319168083526020830191825215611c64575151611c135790565b60405162461bcd60e51b815260206004820152602360248201527f696d706572736f6e6174696f6e206d6f6465206973206e6f7420737570706f726044820152621d195960ea1b6064820152608490fd5b60405162461bcd60e51b815260206004820152601560248201527461707049642063616e6e6f7420626520656d70747960581b6044820152606490fd5b51906001600160801b03198216820361008657565b81601f82011215610086578051611ccc81611a1e565b92611cda60405194856119fd565b8184526020828401011161008657611cf89160208085019101611a39565b90565b5190811515820361008657565b906006821015610ea05752565b906005821015610ea05752565b908082519081815260208091019281808460051b8301019501936000915b848310611d505750505050505090565b9091929394958480611db5600193601f198682030187528a51611d74828251611d08565b838101518483015260408082015115159083015260608082015115159083015260808082015115159083015260a0809101519160c080928201520190611a5c565b9801930193019194939290611d40565b611cf8916040611dde8351606084526060840190611a5c565b926020810151151560208401520151906040818403910152611a5c565b919060c0838203126100865760405190611e148261192a565b81938051600681101561008657835260208101516020840152611e3960408201611cfb565b6040840152611e4a60608201611cfb565b6060840152611e5b60808201611cfb565b608084015260a0810151916001600160401b0383116100865760a092611e819201611cb6565b910152565b906020828203126100865781516001600160401b03811161008657611cf89201611dfb565b60405190611eb8826119e2565b6060604083828152600060208201520152565b91906060838203126100865760405190611ee4826119e2565b81938051916001600160401b03928381116100865781611f05918401611cb6565b8452611f1360208301611cfb565b6020850152604082015192831161008657604092611e819201611cb6565b6000805b6060830180518051831015611f9b57610e3283611f5192611b10565b6006811015611f875715611f725750611f6b606091611b38565b9050611f35565b60409350611f81925051611b10565b51015190565b634e487b7160e01b84526021600452602484fd5b60405163267ac2cf60e01b815260048101859052602490fd5b6000805b6060830180518051831015611ff757610e3283611fd492611b10565b6006811015611f8757600414611f725750611ff0606091611b38565b9050611fb8565b60405163267ac2cf60e01b8152600480820152602490fd5b6000805b606083018051805183101561205257610e328361202f92611b10565b6006811015611f8757600214611f72575061204b606091611b38565b9050612013565b60405163267ac2cf60e01b815260026004820152602490fdfea2646970667358221220cc2f7dfc4834c9b23878dd2fb4f9e62bcdab1448c88cb3801c362fb32a23721d64736f6c63430008130033","opcodes":"PUSH2 0x160 PUSH1 0x40 DUP2 DUP2 MSTORE CALLVALUE PUSH3 0x4E3 JUMPI DUP2 PUSH3 0x2668 DUP1 CODESIZE SUB DUP1 SWAP2 PUSH3 0x23 DUP3 DUP6 PUSH3 0x536 JUMP JUMPDEST DUP4 CODECOPY PUSH1 0x20 SWAP4 DUP5 SWAP2 DUP2 ADD SUB SLT PUSH3 0x4E3 JUMPI MLOAD PUSH1 0x1 PUSH1 0x1 PUSH1 0x80 SHL SUB NOT DUP1 DUP3 AND SWAP3 SWAP1 DUP4 DUP4 SUB PUSH3 0x4E3 JUMPI DUP2 MLOAD SWAP1 PUSH3 0x58 DUP3 PUSH3 0x4E8 JUMP JUMPDEST PUSH1 0x0 SWAP2 DUP3 DUP2 MSTORE DUP7 DUP5 MLOAD SWAP2 PUSH3 0x6D DUP4 PUSH3 0x51A JUMP JUMPDEST DUP5 DUP4 MSTORE ADD MSTORE DUP2 DUP4 MLOAD PUSH3 0x80 DUP2 PUSH3 0x51A JUMP JUMPDEST MSTORE DUP3 MLOAD SWAP5 PUSH3 0x8F DUP7 PUSH3 0x51A JUMP JUMPDEST DUP3 DUP7 MSTORE DUP4 MLOAD SWAP1 PUSH3 0xA0 DUP3 PUSH3 0x4E8 JUMP JUMPDEST DUP1 DUP3 MSTORE DUP8 DUP3 ADD SWAP7 DUP8 MSTORE ISZERO PUSH3 0x49F JUMPI DUP6 MLOAD MLOAD PUSH3 0x44F JUMPI DUP2 SWAP1 MLOAD AND SWAP5 PUSH2 0x120 SWAP6 DUP7 MSTORE MLOAD MLOAD ISZERO ISZERO SWAP4 PUSH2 0x140 SWAP5 DUP6 MSTORE DUP4 MLOAD PUSH3 0xDA DUP2 PUSH3 0x4E8 JUMP JUMPDEST PUSH1 0x19 DUP2 MSTORE PUSH32 0x7369736D6F436F6E6E65637456657269666965722D76312E3200000000000000 DUP9 DUP3 ADD MSTORE DUP5 MLOAD SWAP1 DUP2 PUSH3 0x121 PUSH4 0x349F642F PUSH1 0xE1 SHL SWAP3 DUP4 DUP4 MSTORE PUSH1 0x4 DUP4 ADD PUSH3 0x57B JUMP JUMPDEST SUB DUP10 DUP4 PUSH20 0x3CD5334EB64EBBD4003B72022CC25465F1BFCEE6 SWAP3 DUP2 DUP5 GAS STATICCALL SWAP3 DUP4 ISZERO PUSH3 0x445 JUMPI DUP7 SWAP4 PUSH3 0x421 JUMPI JUMPDEST POP PUSH1 0x1 PUSH1 0x1 PUSH1 0xA0 SHL SUB SWAP3 DUP4 AND PUSH1 0x80 MSTORE DUP7 MLOAD PUSH3 0x1AD SWAP1 DUP12 SWAP1 PUSH3 0x171 DUP2 PUSH3 0x4E8 JUMP JUMPDEST PUSH1 0x17 DUP2 MSTORE PUSH32 0x61757468526571756573744275696C6465722D76312E31000000000000000000 DUP3 DUP3 ADD MSTORE DUP10 MLOAD DUP1 SWAP4 DUP2 SWAP3 DUP8 DUP4 MSTORE PUSH1 0x4 DUP4 ADD PUSH3 0x57B JUMP JUMPDEST SUB DUP2 DUP6 GAS STATICCALL SWAP1 DUP2 ISZERO PUSH3 0x3D3 JUMPI SWAP1 DUP5 SWAP2 DUP9 SWAP2 PUSH3 0x3FF JUMPI JUMPDEST POP AND PUSH1 0xA0 MSTORE PUSH3 0x218 DUP11 DUP9 MLOAD PUSH3 0x1DC DUP2 PUSH3 0x4E8 JUMP JUMPDEST PUSH1 0x18 DUP2 MSTORE PUSH32 0x636C61696D526571756573744275696C6465722D76312E310000000000000000 DUP3 DUP3 ADD MSTORE DUP10 MLOAD DUP1 SWAP4 DUP2 SWAP3 DUP8 DUP4 MSTORE PUSH1 0x4 DUP4 ADD PUSH3 0x57B JUMP JUMPDEST SUB DUP2 DUP6 GAS STATICCALL SWAP1 DUP2 ISZERO PUSH3 0x3D3 JUMPI SWAP1 DUP5 SWAP2 DUP9 SWAP2 PUSH3 0x3DD JUMPI JUMPDEST POP AND PUSH1 0xC0 MSTORE PUSH3 0x283 DUP11 DUP9 MLOAD PUSH3 0x247 DUP2 PUSH3 0x4E8 JUMP JUMPDEST PUSH1 0x15 DUP2 MSTORE PUSH32 0x7369676E61747572654275696C6465722D76312E310000000000000000000000 DUP3 DUP3 ADD MSTORE DUP10 MLOAD DUP1 SWAP4 DUP2 SWAP3 DUP8 DUP4 MSTORE PUSH1 0x4 DUP4 ADD PUSH3 0x57B JUMP JUMPDEST SUB DUP2 DUP6 GAS STATICCALL SWAP1 DUP2 ISZERO PUSH3 0x3D3 JUMPI SWAP2 DUP5 PUSH3 0x2F2 SWAP5 SWAP3 DUP14 SWAP5 DUP11 SWAP2 PUSH3 0x3B1 JUMPI JUMPDEST POP AND PUSH1 0xE0 MSTORE DUP9 MLOAD SWAP2 PUSH3 0x2B5 DUP4 PUSH3 0x4E8 JUMP JUMPDEST PUSH1 0x13 DUP4 MSTORE PUSH32 0x726571756573744275696C6465722D76312E3100000000000000000000000000 DUP5 DUP5 ADD MSTORE DUP10 MLOAD DUP1 SWAP6 DUP2 SWAP5 DUP3 SWAP4 DUP4 MSTORE PUSH1 0x4 DUP4 ADD PUSH3 0x57B JUMP JUMPDEST SUB SWAP2 GAS STATICCALL SWAP9 DUP10 ISZERO PUSH3 0x3A7 JUMPI DUP6 SWAP10 PUSH3 0x371 JUMPI JUMPDEST POP POP PUSH2 0x100 SWAP8 AND DUP8 MSTORE PUSH1 0x80 SHR SWAP1 DUP3 SLOAD AND OR SWAP1 SSTORE MLOAD SWAP2 PUSH2 0x20A1 SWAP4 DUP5 PUSH3 0x5C7 DUP6 CODECOPY PUSH1 0x80 MLOAD DUP5 PUSH2 0xCEA ADD MSTORE PUSH1 0xA0 MLOAD DUP5 DUP2 DUP2 PUSH2 0x28A ADD MSTORE DUP2 DUP2 PUSH2 0x30B ADD MSTORE PUSH2 0x38C ADD MSTORE PUSH1 0xC0 MLOAD DUP5 POP POP PUSH1 0xE0 MLOAD DUP5 PUSH2 0x435 ADD MSTORE MLOAD DUP4 PUSH2 0xB5F ADD MSTORE MLOAD DUP3 DUP2 DUP2 PUSH1 0xAC ADD MSTORE PUSH2 0x1BD2 ADD MSTORE MLOAD DUP2 PUSH1 0xE8 ADD MSTORE RETURN JUMPDEST PUSH3 0x396 SWAP3 SWAP10 POP DUP1 RETURNDATASIZE LT PUSH3 0x39F JUMPI JUMPDEST PUSH3 0x38D DUP2 DUP4 PUSH3 0x536 JUMP JUMPDEST DUP2 ADD SWAP1 PUSH3 0x55A JUMP JUMPDEST SWAP7 CODESIZE DUP1 PUSH3 0x306 JUMP JUMPDEST POP RETURNDATASIZE PUSH3 0x381 JUMP JUMPDEST DUP7 MLOAD RETURNDATASIZE DUP8 DUP3 RETURNDATACOPY RETURNDATASIZE SWAP1 REVERT JUMPDEST PUSH3 0x3CC SWAP2 POP DUP6 RETURNDATASIZE DUP8 GT PUSH3 0x39F JUMPI PUSH3 0x38D DUP2 DUP4 PUSH3 0x536 JUMP JUMPDEST CODESIZE PUSH3 0x2A2 JUMP JUMPDEST DUP9 MLOAD RETURNDATASIZE DUP10 DUP3 RETURNDATACOPY RETURNDATASIZE SWAP1 REVERT JUMPDEST PUSH3 0x3F8 SWAP2 POP DUP13 DUP14 RETURNDATASIZE LT PUSH3 0x39F JUMPI PUSH3 0x38D DUP2 DUP4 PUSH3 0x536 JUMP JUMPDEST CODESIZE PUSH3 0x230 JUMP JUMPDEST PUSH3 0x41A SWAP2 POP DUP13 DUP14 RETURNDATASIZE LT PUSH3 0x39F JUMPI PUSH3 0x38D DUP2 DUP4 PUSH3 0x536 JUMP JUMPDEST CODESIZE PUSH3 0x1C5 JUMP JUMPDEST PUSH3 0x43D SWAP2 SWAP4 POP DUP11 RETURNDATASIZE DUP13 GT PUSH3 0x39F JUMPI PUSH3 0x38D DUP2 DUP4 PUSH3 0x536 JUMP JUMPDEST SWAP2 CODESIZE PUSH3 0x14E JUMP JUMPDEST DUP8 MLOAD RETURNDATASIZE DUP9 DUP3 RETURNDATACOPY RETURNDATASIZE SWAP1 REVERT JUMPDEST DUP4 MLOAD PUSH3 0x461BCD PUSH1 0xE5 SHL DUP2 MSTORE PUSH1 0x4 DUP2 ADD DUP9 SWAP1 MSTORE PUSH1 0x23 PUSH1 0x24 DUP3 ADD MSTORE PUSH32 0x696D706572736F6E6174696F6E206D6F6465206973206E6F7420737570706F72 PUSH1 0x44 DUP3 ADD MSTORE PUSH3 0x1D1959 PUSH1 0xEA SHL PUSH1 0x64 DUP3 ADD MSTORE PUSH1 0x84 SWAP1 REVERT JUMPDEST DUP4 MLOAD PUSH3 0x461BCD PUSH1 0xE5 SHL DUP2 MSTORE PUSH1 0x4 DUP2 ADD DUP9 SWAP1 MSTORE PUSH1 0x15 PUSH1 0x24 DUP3 ADD MSTORE PUSH32 0x61707049642063616E6E6F7420626520656D7074790000000000000000000000 PUSH1 0x44 DUP3 ADD MSTORE PUSH1 0x64 SWAP1 REVERT JUMPDEST PUSH1 0x0 DUP1 REVERT JUMPDEST PUSH1 0x40 DUP2 ADD SWAP1 DUP2 LT PUSH1 0x1 PUSH1 0x1 PUSH1 0x40 SHL SUB DUP3 GT OR PUSH3 0x504 JUMPI PUSH1 0x40 MSTORE JUMP JUMPDEST PUSH4 0x4E487B71 PUSH1 0xE0 SHL PUSH1 0x0 MSTORE PUSH1 0x41 PUSH1 0x4 MSTORE PUSH1 0x24 PUSH1 0x0 REVERT JUMPDEST PUSH1 0x20 DUP2 ADD SWAP1 DUP2 LT PUSH1 0x1 PUSH1 0x1 PUSH1 0x40 SHL SUB DUP3 GT OR PUSH3 0x504 JUMPI PUSH1 0x40 MSTORE JUMP JUMPDEST PUSH1 0x1F SWAP1 SWAP2 ADD PUSH1 0x1F NOT AND DUP2 ADD SWAP1 PUSH1 0x1 PUSH1 0x1 PUSH1 0x40 SHL SUB DUP3 GT SWAP1 DUP3 LT OR PUSH3 0x504 JUMPI PUSH1 0x40 MSTORE JUMP JUMPDEST SWAP1 DUP2 PUSH1 0x20 SWAP2 SUB SLT PUSH3 0x4E3 JUMPI MLOAD PUSH1 0x1 PUSH1 0x1 PUSH1 0xA0 SHL SUB DUP2 AND DUP2 SUB PUSH3 0x4E3 JUMPI SWAP1 JUMP JUMPDEST PUSH1 0x20 DUP1 DUP3 MSTORE DUP3 MLOAD DUP2 DUP4 ADD DUP2 SWAP1 MSTORE SWAP1 SWAP4 SWAP3 PUSH1 0x0 JUMPDEST DUP3 DUP2 LT PUSH3 0x5B1 JUMPI POP POP PUSH1 0x40 SWAP3 SWAP4 POP PUSH1 0x0 DUP4 DUP3 DUP5 ADD ADD MSTORE PUSH1 0x1F DUP1 NOT SWAP2 ADD AND ADD ADD SWAP1 JUMP JUMPDEST DUP2 DUP2 ADD DUP7 ADD MLOAD DUP5 DUP3 ADD PUSH1 0x40 ADD MSTORE DUP6 ADD PUSH3 0x58E JUMP INVALID PUSH2 0x1E0 PUSH1 0x40 MSTORE PUSH1 0x4 CALLDATASIZE LT ISZERO PUSH2 0x13 JUMPI PUSH1 0x0 DUP1 REVERT JUMPDEST PUSH1 0x0 CALLDATALOAD PUSH1 0xE0 SHR DUP1 PUSH4 0x7C93C8F EQ PUSH2 0x1A7 JUMPI DUP1 PUSH4 0x46916301 EQ PUSH2 0x178 JUMPI DUP1 PUSH4 0x79502C55 EQ PUSH2 0x138 JUMPI DUP1 PUSH4 0x80AFDEA8 EQ PUSH2 0x10D JUMPI DUP1 PUSH4 0xA183DC27 EQ PUSH2 0xD0 JUMPI DUP1 PUSH4 0xC187BBC1 EQ PUSH2 0x8B JUMPI PUSH4 0xC9512D99 EQ PUSH2 0x6A JUMPI PUSH1 0x0 DUP1 REVERT JUMPDEST CALLVALUE PUSH2 0x86 JUMPI PUSH1 0x0 CALLDATASIZE PUSH1 0x3 NOT ADD SLT PUSH2 0x86 JUMPI PUSH1 0x20 PUSH1 0x40 MLOAD PUSH1 0x2 DUP2 MSTORE RETURN JUMPDEST PUSH1 0x0 DUP1 REVERT JUMPDEST CALLVALUE PUSH2 0x86 JUMPI PUSH1 0x0 CALLDATASIZE PUSH1 0x3 NOT ADD SLT PUSH2 0x86 JUMPI PUSH1 0x20 PUSH1 0x40 MLOAD PUSH1 0x1 PUSH1 0x1 PUSH1 0x80 SHL SUB NOT PUSH32 0x0 AND DUP2 MSTORE RETURN JUMPDEST CALLVALUE PUSH2 0x86 JUMPI PUSH1 0x0 CALLDATASIZE PUSH1 0x3 NOT ADD SLT PUSH2 0x86 JUMPI PUSH1 0x20 PUSH1 0x40 MLOAD PUSH32 0x0 ISZERO ISZERO DUP2 MSTORE RETURN JUMPDEST CALLVALUE PUSH2 0x86 JUMPI PUSH1 0x0 CALLDATASIZE PUSH1 0x3 NOT ADD SLT PUSH2 0x86 JUMPI PUSH1 0x20 PUSH1 0x0 SLOAD PUSH1 0x80 SHL PUSH1 0x40 MLOAD SWAP1 PUSH1 0x1 PUSH1 0x1 PUSH1 0x80 SHL SUB NOT AND DUP2 MSTORE RETURN JUMPDEST CALLVALUE PUSH2 0x86 JUMPI PUSH1 0x0 CALLDATASIZE PUSH1 0x3 NOT ADD SLT PUSH2 0x86 JUMPI PUSH1 0x40 PUSH2 0x153 PUSH2 0x1B92 JUMP JUMPDEST PUSH2 0x176 DUP3 MLOAD DUP1 SWAP3 PUSH1 0x20 DUP1 SWAP2 PUSH1 0x1 PUSH1 0x1 PUSH1 0x80 SHL SUB NOT DUP2 MLOAD AND DUP5 MSTORE ADD MLOAD MLOAD ISZERO ISZERO SWAP2 ADD MSTORE JUMP JUMPDEST RETURN JUMPDEST CALLVALUE PUSH2 0x86 JUMPI PUSH1 0x0 CALLDATASIZE PUSH1 0x3 NOT ADD SLT PUSH2 0x86 JUMPI PUSH1 0x20 PUSH1 0x40 MLOAD PUSH20 0x3CD5334EB64EBBD4003B72022CC25465F1BFCEE6 DUP2 MSTORE RETURN JUMPDEST CALLVALUE PUSH2 0x86 JUMPI PUSH1 0x60 CALLDATASIZE PUSH1 0x3 NOT ADD SLT PUSH2 0x86 JUMPI PUSH1 0x4 CALLDATALOAD PUSH1 0x1 PUSH1 0x1 PUSH1 0x40 SHL SUB DUP2 GT PUSH2 0x86 JUMPI CALLDATASIZE PUSH1 0x23 DUP3 ADD SLT ISZERO PUSH2 0x86 JUMPI DUP1 PUSH1 0x4 ADD CALLDATALOAD SWAP1 PUSH2 0x1F2 PUSH2 0x1E6 DUP4 PUSH2 0x1A1E JUMP JUMPDEST PUSH1 0x40 MLOAD DUP1 PUSH1 0x80 MSTORE PUSH2 0x19FD JUMP JUMPDEST DUP2 PUSH1 0x80 MLOAD MSTORE CALLDATASIZE PUSH1 0x24 DUP4 DUP4 ADD ADD GT PUSH2 0x86 JUMPI DUP2 PUSH1 0x0 SWAP3 PUSH1 0x24 PUSH1 0x20 SWAP4 ADD DUP4 PUSH1 0x80 MLOAD ADD CALLDATACOPY PUSH1 0x80 MLOAD ADD ADD MSTORE PUSH1 0x24 CALLDATALOAD PUSH1 0x1 PUSH1 0x1 PUSH1 0xA0 SHL SUB DUP2 AND DUP2 SUB PUSH2 0x86 JUMPI PUSH1 0x44 CALLDATALOAD PUSH1 0x1 PUSH1 0x1 PUSH1 0xA0 SHL SUB DUP2 AND DUP2 SUB PUSH2 0x86 JUMPI PUSH1 0x80 MLOAD MLOAD ISZERO PUSH2 0x18F4 JUMPI PUSH1 0x40 MLOAD SWAP1 PUSH2 0x255 DUP3 PUSH2 0x1976 JUMP JUMPDEST PUSH1 0x3 DUP3 MSTORE PUSH1 0x0 JUMPDEST PUSH1 0x60 DUP2 LT PUSH2 0x18DD JUMPI POP PUSH2 0x26D PUSH2 0x1A98 JUMP JUMPDEST POP PUSH1 0x40 MLOAD PUSH4 0x3A0BA6FF PUSH1 0xE0 SHL DUP2 MSTORE PUSH1 0x0 PUSH1 0x4 DUP3 ADD DUP2 SWAP1 MSTORE DUP2 PUSH1 0x24 DUP2 PUSH32 0x0 PUSH1 0x1 PUSH1 0x1 PUSH1 0xA0 SHL SUB AND GAS STATICCALL SWAP1 DUP2 ISZERO PUSH2 0x132E JUMPI PUSH1 0x0 SWAP2 PUSH2 0x18C2 JUMPI JUMPDEST POP PUSH2 0x2CD DUP4 PUSH2 0x1ACD JUMP JUMPDEST MSTORE PUSH2 0x2D7 DUP3 PUSH2 0x1ACD JUMP JUMPDEST POP PUSH2 0x2E0 PUSH2 0x1A98 JUMP JUMPDEST POP PUSH1 0x40 MLOAD PUSH4 0xC3BCACD PUSH1 0xE4 SHL DUP2 MSTORE PUSH1 0x2 PUSH1 0x4 DUP3 ADD MSTORE PUSH1 0x1 PUSH1 0x24 DUP3 ADD DUP2 SWAP1 MSTORE PUSH1 0x44 DUP3 ADD MSTORE PUSH1 0x0 DUP2 PUSH1 0x64 DUP2 PUSH32 0x0 PUSH1 0x1 PUSH1 0x1 PUSH1 0xA0 SHL SUB AND GAS STATICCALL SWAP1 DUP2 ISZERO PUSH2 0x132E JUMPI PUSH1 0x0 SWAP2 PUSH2 0x18A7 JUMPI JUMPDEST POP PUSH2 0x34E DUP4 PUSH2 0x1AF0 JUMP JUMPDEST MSTORE PUSH2 0x358 DUP3 PUSH2 0x1AF0 JUMP JUMPDEST POP PUSH2 0x361 PUSH2 0x1A98 JUMP JUMPDEST POP PUSH1 0x40 MLOAD PUSH4 0xC3BCACD PUSH1 0xE4 SHL DUP2 MSTORE PUSH1 0x4 DUP1 DUP3 ADD MSTORE PUSH1 0x1 PUSH1 0x24 DUP3 ADD DUP2 SWAP1 MSTORE PUSH1 0x44 DUP3 ADD MSTORE SWAP1 PUSH1 0x0 DUP3 PUSH1 0x64 DUP2 PUSH32 0x0 PUSH1 0x1 PUSH1 0x1 PUSH1 0xA0 SHL SUB AND GAS STATICCALL DUP1 ISZERO PUSH2 0x132E JUMPI PUSH2 0x431 SWAP3 PUSH1 0x0 SWAP2 PUSH2 0x1884 JUMPI JUMPDEST POP PUSH2 0x3D2 DUP5 PUSH2 0x1B00 JUMP JUMPDEST MSTORE PUSH2 0x3DC DUP4 PUSH2 0x1B00 JUMP JUMPDEST POP PUSH1 0x40 DUP1 MLOAD PUSH1 0x1 PUSH1 0x1 PUSH1 0xA0 SHL SUB DUP7 DUP2 AND PUSH1 0x20 DUP4 ADD MSTORE DUP4 AND DUP2 DUP4 ADD MSTORE SWAP1 DUP2 MSTORE PUSH1 0x0 SWAP1 PUSH2 0x406 DUP2 PUSH2 0x19E2 JUMP JUMPDEST PUSH2 0x40E PUSH2 0x1EAB JUMP JUMPDEST POP PUSH1 0x40 MLOAD DUP1 SWAP5 DUP2 SWAP3 PUSH4 0x1A0D7CCB PUSH1 0xE2 SHL DUP4 MSTORE PUSH1 0x20 PUSH1 0x4 DUP5 ADD MSTORE PUSH1 0x24 DUP4 ADD SWAP1 PUSH2 0x1A5C JUMP JUMPDEST SUB DUP2 PUSH32 0x0 PUSH1 0x1 PUSH1 0x1 PUSH1 0xA0 SHL SUB AND GAS STATICCALL SWAP2 DUP3 ISZERO PUSH2 0x132E JUMPI PUSH1 0x0 SWAP3 PUSH2 0x1840 JUMPI JUMPDEST POP PUSH1 0x60 PUSH1 0xA0 PUSH1 0x40 MLOAD PUSH2 0x47F DUP2 PUSH2 0x192A JUMP JUMPDEST PUSH1 0x0 DUP2 MSTORE PUSH1 0x0 PUSH1 0x20 DUP3 ADD MSTORE PUSH1 0x0 PUSH1 0x40 DUP3 ADD MSTORE DUP3 DUP1 DUP3 ADD MSTORE DUP3 PUSH1 0x80 DUP3 ADD MSTORE ADD MSTORE PUSH1 0x80 MLOAD SWAP4 DUP5 MLOAD DUP6 ADD PUSH2 0x180 MSTORE PUSH1 0x20 DUP6 PUSH2 0x180 MLOAD SUB SLT PUSH2 0x86 JUMPI PUSH1 0x20 DUP6 ADD MLOAD SWAP5 PUSH1 0x1 PUSH1 0x1 PUSH1 0x40 SHL SUB DUP7 GT PUSH2 0x86 JUMPI DUP6 PUSH1 0xA0 SWAP2 ADD PUSH2 0x180 MLOAD SUB SLT PUSH2 0x86 JUMPI PUSH1 0x40 MLOAD SWAP3 PUSH2 0x4E7 DUP5 PUSH2 0x195B JUMP JUMPDEST PUSH2 0x4F7 PUSH1 0x20 DUP8 PUSH1 0x80 MLOAD ADD ADD PUSH2 0x1CA1 JUMP JUMPDEST DUP5 MSTORE PUSH2 0x509 PUSH1 0x40 DUP8 PUSH1 0x80 MLOAD ADD ADD PUSH2 0x1CA1 JUMP JUMPDEST PUSH1 0x20 DUP6 ADD MSTORE PUSH1 0x60 DUP7 PUSH1 0x80 MLOAD ADD ADD MLOAD PUSH1 0x40 DUP6 ADD MSTORE DUP6 PUSH1 0x80 MLOAD ADD PUSH1 0x80 DUP2 ADD MLOAD SWAP1 PUSH1 0x1 PUSH1 0x1 PUSH1 0x40 SHL SUB DUP3 GT PUSH2 0x86 JUMPI PUSH1 0x20 PUSH2 0x549 SWAP3 DUP2 PUSH2 0x180 MLOAD ADD SWAP3 ADD ADD PUSH2 0x1CB6 JUMP JUMPDEST PUSH1 0x60 DUP6 ADD MSTORE DUP6 PUSH1 0x80 MLOAD ADD PUSH1 0xA0 DUP2 ADD MLOAD PUSH1 0xC0 MSTORE PUSH1 0x1 PUSH1 0x1 PUSH1 0x40 SHL SUB PUSH1 0xC0 MLOAD GT PUSH2 0x86 JUMPI PUSH1 0x20 PUSH2 0x180 MLOAD ADD PUSH1 0x3F PUSH1 0xC0 MLOAD DUP4 ADD ADD SLT ISZERO PUSH2 0x86 JUMPI PUSH1 0xC0 MLOAD ADD PUSH1 0x20 ADD MLOAD SWAP5 PUSH2 0x592 DUP7 PUSH2 0x1A81 JUMP JUMPDEST PUSH2 0x59F PUSH1 0x40 MLOAD SWAP2 DUP3 PUSH2 0x19FD JUMP JUMPDEST DUP1 PUSH2 0x100 MSTORE DUP7 DUP2 MSTORE PUSH1 0x20 DUP2 ADD PUSH2 0x100 MSTORE PUSH1 0xC0 MLOAD DUP9 PUSH1 0x80 MLOAD ADD ADD PUSH1 0x20 PUSH2 0x180 MLOAD ADD PUSH1 0x40 DUP10 PUSH1 0x5 SHL DUP4 ADD ADD GT PUSH2 0x86 JUMPI PUSH1 0x40 ADD PUSH2 0x120 MSTORE SWAP2 SWAP6 SWAP3 SWAP2 JUMPDEST PUSH1 0xC0 MLOAD DUP9 PUSH1 0x80 MLOAD ADD ADD PUSH1 0x40 DUP6 PUSH1 0x5 SHL DUP3 ADD ADD PUSH2 0x120 MLOAD LT ISZERO PUSH2 0xAE9 JUMPI PUSH2 0x120 MLOAD MLOAD PUSH2 0x1C0 MSTORE PUSH1 0x1 PUSH1 0x1 PUSH1 0x40 SHL SUB PUSH2 0x1C0 MLOAD GT PUSH2 0x86 JUMPI PUSH1 0xA0 SWAP1 PUSH1 0x1F NOT SWAP1 PUSH2 0x1C0 MLOAD ADD PUSH2 0x180 MLOAD SUB ADD SLT PUSH2 0x86 JUMPI PUSH1 0x40 MLOAD PUSH2 0x1A0 MSTORE PUSH2 0x639 PUSH2 0x1A0 MLOAD PUSH2 0x195B JUMP JUMPDEST PUSH2 0x1C0 MLOAD PUSH1 0xC0 MLOAD DUP10 PUSH1 0x80 MLOAD ADD ADD ADD PUSH1 0x40 DUP2 ADD MLOAD PUSH1 0xE0 MSTORE PUSH1 0x1 PUSH1 0x1 PUSH1 0x40 SHL SUB PUSH1 0xE0 MLOAD GT PUSH2 0x86 JUMPI PUSH1 0x20 PUSH2 0x180 MLOAD ADD PUSH1 0x5F PUSH1 0xE0 MLOAD DUP4 ADD ADD SLT ISZERO PUSH2 0x86 JUMPI PUSH1 0x40 SWAP1 PUSH1 0xE0 MLOAD ADD ADD MLOAD PUSH2 0x140 MSTORE PUSH2 0x68D PUSH2 0x140 MLOAD PUSH2 0x1A81 JUMP JUMPDEST SWAP7 PUSH2 0x69B PUSH1 0x40 MLOAD SWAP9 DUP10 PUSH2 0x19FD JUMP JUMPDEST PUSH2 0x140 MLOAD DUP9 MSTORE PUSH1 0x20 DUP9 ADD SWAP5 PUSH1 0xE0 MLOAD PUSH2 0x1C0 MLOAD PUSH1 0xC0 MLOAD DUP13 PUSH1 0x80 MLOAD ADD ADD ADD ADD PUSH1 0x20 PUSH2 0x180 MLOAD ADD PUSH1 0x60 PUSH2 0x140 MLOAD PUSH1 0x5 SHL DUP4 ADD ADD GT PUSH2 0x86 JUMPI PUSH1 0x60 ADD SWAP6 JUMPDEST PUSH1 0xE0 MLOAD PUSH2 0x1C0 MLOAD PUSH1 0xC0 MLOAD DUP14 PUSH1 0x80 MLOAD ADD ADD ADD ADD SWAP1 PUSH1 0x60 PUSH2 0x140 MLOAD PUSH1 0x5 SHL DUP4 ADD ADD DUP9 LT ISZERO PUSH2 0x80B JUMPI DUP8 MLOAD SWAP2 PUSH1 0x1 PUSH1 0x1 PUSH1 0x40 SHL SUB DUP4 GT PUSH2 0x86 JUMPI PUSH2 0x180 MLOAD PUSH1 0xA0 SWAP2 DUP5 ADD SWAP1 SUB PUSH1 0x3F NOT ADD SLT PUSH2 0x86 JUMPI PUSH1 0x40 MLOAD SWAP2 PUSH1 0x60 DUP2 DUP15 PUSH2 0x731 DUP7 PUSH2 0x195B JUMP JUMPDEST PUSH1 0xE0 MLOAD SWAP1 PUSH2 0x1C0 MLOAD SWAP1 PUSH1 0xC0 MLOAD SWAP1 PUSH1 0x80 MLOAD ADD ADD ADD ADD ADD ADD MLOAD PUSH1 0x6 DUP2 LT ISZERO PUSH2 0x86 JUMPI DUP2 DUP15 PUSH1 0xC0 SWAP3 DUP7 MSTORE PUSH2 0x775 PUSH1 0x80 DUP4 PUSH1 0xE0 MLOAD PUSH2 0x1C0 MLOAD DUP8 MLOAD DUP7 DUP6 MLOAD ADD ADD ADD ADD ADD ADD PUSH2 0x1CFB JUMP JUMPDEST PUSH1 0x20 DUP8 ADD MSTORE PUSH2 0x798 PUSH1 0xA0 DUP4 PUSH1 0xE0 MLOAD PUSH2 0x1C0 MLOAD DUP8 MLOAD DUP7 PUSH1 0x80 MLOAD ADD ADD ADD ADD ADD ADD PUSH2 0x1CFB JUMP JUMPDEST PUSH1 0x40 DUP8 ADD MSTORE PUSH1 0xE0 MLOAD SWAP1 PUSH2 0x1C0 MLOAD SWAP1 DUP5 MLOAD SWAP1 PUSH1 0x80 MLOAD ADD ADD ADD ADD ADD ADD MLOAD PUSH1 0x60 DUP5 ADD MSTORE PUSH1 0xE0 MLOAD DUP14 PUSH2 0x1C0 MLOAD SWAP1 PUSH1 0xC0 MLOAD SWAP1 PUSH1 0x80 MLOAD ADD ADD ADD ADD ADD SWAP1 PUSH1 0xE0 DUP3 ADD MLOAD SWAP3 PUSH1 0x1 PUSH1 0x1 PUSH1 0x40 SHL SUB DUP5 GT PUSH2 0x86 JUMPI PUSH2 0x7FB PUSH1 0x20 SWAP5 SWAP4 PUSH1 0x60 DUP7 SWAP6 DUP7 PUSH2 0x180 MLOAD ADD SWAP3 ADD ADD PUSH2 0x1CB6 JUMP JUMPDEST PUSH1 0x80 DUP3 ADD MSTORE DUP2 MSTORE ADD SWAP7 ADD SWAP6 PUSH2 0x6D5 JUMP JUMPDEST POP POP SWAP4 SWAP8 SWAP1 SWAP5 POP SWAP6 SWAP2 SWAP6 SWAP5 SWAP1 SWAP5 PUSH2 0x1A0 MLOAD MSTORE PUSH2 0x1C0 MLOAD PUSH1 0xC0 MLOAD DUP10 PUSH1 0x80 MLOAD ADD ADD ADD PUSH1 0x60 DUP2 ADD MLOAD PUSH1 0xA0 MSTORE PUSH1 0x1 PUSH1 0x1 PUSH1 0x40 SHL SUB PUSH1 0xA0 MLOAD GT PUSH2 0x86 JUMPI PUSH1 0x20 PUSH2 0x180 MLOAD ADD PUSH1 0x5F PUSH1 0xA0 MLOAD DUP4 ADD ADD SLT ISZERO PUSH2 0x86 JUMPI PUSH1 0x40 SWAP1 PUSH1 0xA0 MLOAD ADD ADD MLOAD PUSH2 0x160 MSTORE PUSH2 0x871 PUSH2 0x160 MLOAD PUSH2 0x1A81 JUMP JUMPDEST SWAP7 PUSH2 0x87F PUSH1 0x40 MLOAD SWAP9 DUP10 PUSH2 0x19FD JUMP JUMPDEST PUSH2 0x160 MLOAD DUP9 MSTORE PUSH1 0x20 DUP9 ADD SWAP5 PUSH1 0xA0 MLOAD PUSH2 0x1C0 MLOAD PUSH1 0xC0 MLOAD DUP13 PUSH1 0x80 MLOAD ADD ADD ADD ADD PUSH1 0x20 PUSH2 0x180 MLOAD ADD PUSH1 0x60 PUSH2 0x160 MLOAD PUSH1 0x5 SHL DUP4 ADD ADD GT PUSH2 0x86 JUMPI PUSH1 0x60 ADD SWAP6 JUMPDEST PUSH1 0xA0 MLOAD PUSH2 0x1C0 MLOAD PUSH1 0xC0 MLOAD DUP14 PUSH1 0x80 MLOAD ADD ADD ADD ADD SWAP1 PUSH1 0x60 PUSH2 0x160 MLOAD PUSH1 0x5 SHL DUP4 ADD ADD DUP9 LT ISZERO PUSH2 0xA15 JUMPI DUP8 MLOAD SWAP2 PUSH1 0x1 PUSH1 0x1 PUSH1 0x40 SHL SUB DUP4 GT PUSH2 0x86 JUMPI PUSH2 0x180 MLOAD PUSH1 0xC0 SWAP2 DUP5 ADD SWAP1 SUB PUSH1 0x3F NOT ADD SLT PUSH2 0x86 JUMPI PUSH1 0x40 MLOAD SWAP2 PUSH1 0x60 DUP2 DUP15 PUSH2 0x915 DUP7 PUSH2 0x192A JUMP JUMPDEST PUSH1 0xA0 MLOAD SWAP1 PUSH2 0x1C0 MLOAD SWAP1 PUSH1 0xC0 MLOAD SWAP1 PUSH1 0x80 MLOAD ADD ADD ADD ADD ADD ADD MLOAD PUSH1 0x5 DUP2 LT ISZERO PUSH2 0x86 JUMPI DUP2 DUP15 PUSH1 0xE0 SWAP3 DUP7 MSTORE PUSH2 0x95A PUSH1 0x80 DUP4 PUSH1 0xA0 MLOAD PUSH2 0x1C0 MLOAD PUSH1 0xC0 MLOAD DUP7 DUP6 MLOAD ADD ADD ADD ADD ADD ADD PUSH2 0x1CA1 JUMP JUMPDEST PUSH1 0x20 DUP8 ADD MSTORE PUSH2 0x97D PUSH1 0xA0 DUP4 DUP2 MLOAD PUSH2 0x1C0 MLOAD PUSH1 0xC0 MLOAD DUP7 PUSH1 0x80 MLOAD ADD ADD ADD ADD ADD ADD PUSH2 0x1CA1 JUMP JUMPDEST PUSH1 0x40 DUP8 ADD MSTORE PUSH2 0x9A0 PUSH1 0xC0 DUP4 PUSH1 0xA0 MLOAD PUSH2 0x1C0 MLOAD DUP4 MLOAD DUP7 PUSH1 0x80 MLOAD ADD ADD ADD ADD ADD ADD PUSH2 0x1CFB JUMP JUMPDEST PUSH1 0x60 DUP8 ADD MSTORE PUSH1 0xA0 MLOAD SWAP1 PUSH2 0x1C0 MLOAD SWAP1 PUSH1 0xC0 MLOAD SWAP1 PUSH1 0x80 MLOAD ADD ADD ADD ADD ADD ADD MLOAD PUSH1 0x80 DUP5 ADD MSTORE PUSH1 0xA0 MLOAD DUP14 PUSH2 0x1C0 MLOAD SWAP1 PUSH1 0xC0 MLOAD SWAP1 PUSH1 0x80 MLOAD ADD ADD ADD ADD ADD SWAP1 PUSH2 0x100 DUP3 ADD MLOAD SWAP3 PUSH1 0x1 PUSH1 0x1 PUSH1 0x40 SHL SUB DUP5 GT PUSH2 0x86 JUMPI PUSH2 0xA05 PUSH1 0x20 SWAP5 SWAP4 PUSH1 0x60 DUP7 SWAP6 DUP7 PUSH2 0x180 MLOAD ADD SWAP3 ADD ADD PUSH2 0x1CB6 JUMP JUMPDEST PUSH1 0xA0 DUP3 ADD MSTORE DUP2 MSTORE ADD SWAP7 ADD SWAP6 PUSH2 0x8B9 JUMP JUMPDEST POP POP SWAP4 SWAP8 SWAP1 SWAP5 POP SWAP6 SWAP2 SWAP6 SWAP5 SWAP1 SWAP5 PUSH1 0x20 PUSH2 0x1A0 MLOAD ADD MSTORE PUSH1 0x80 PUSH2 0x1C0 MLOAD PUSH1 0xC0 MLOAD DUP11 DUP4 MLOAD ADD ADD ADD ADD MLOAD PUSH1 0x40 PUSH2 0x1A0 MLOAD ADD MSTORE PUSH2 0x1C0 MLOAD PUSH1 0xC0 MLOAD DUP10 PUSH1 0x80 MLOAD ADD ADD ADD PUSH1 0xA0 DUP2 ADD MLOAD SWAP1 PUSH1 0x1 PUSH1 0x1 PUSH1 0x40 SHL SUB DUP3 GT PUSH2 0x86 JUMPI PUSH1 0x40 PUSH2 0xA7A SWAP3 PUSH1 0x20 PUSH2 0x180 MLOAD ADD SWAP3 ADD ADD PUSH2 0x1CB6 JUMP JUMPDEST PUSH1 0x60 PUSH2 0x1A0 MLOAD ADD MSTORE PUSH2 0x1C0 MLOAD PUSH1 0xC0 MLOAD DUP10 PUSH1 0x80 MLOAD ADD ADD ADD PUSH1 0xC0 DUP2 ADD MLOAD SWAP1 PUSH1 0x1 PUSH1 0x1 PUSH1 0x40 SHL SUB DUP3 GT PUSH2 0x86 JUMPI PUSH1 0x40 PUSH2 0xAB9 SWAP3 PUSH1 0x20 PUSH2 0x180 MLOAD ADD SWAP3 ADD ADD PUSH2 0x1CB6 JUMP JUMPDEST PUSH1 0x80 PUSH2 0x1A0 MLOAD ADD MSTORE PUSH2 0x1A0 MLOAD PUSH2 0x100 MLOAD MSTORE PUSH1 0x20 PUSH2 0x100 MLOAD ADD PUSH2 0x100 MSTORE PUSH1 0x20 PUSH2 0x120 MLOAD ADD PUSH2 0x120 MSTORE SWAP6 SWAP3 SWAP2 SWAP6 PUSH2 0x5D9 JUMP JUMPDEST DUP7 DUP7 DUP6 DUP11 PUSH1 0x0 PUSH2 0xB49 DUP9 DUP9 PUSH1 0x80 DUP9 ADD MSTORE PUSH1 0x40 MLOAD PUSH2 0xB05 DUP2 PUSH2 0x1976 JUMP JUMPDEST DUP4 DUP2 MSTORE PUSH1 0x60 PUSH1 0x20 DUP3 ADD MSTORE PUSH1 0x60 PUSH1 0x40 DUP3 ADD MSTORE PUSH1 0x60 PUSH2 0xB20 PUSH2 0x1EAB JUMP JUMPDEST SWAP2 ADD MSTORE PUSH2 0xB5B PUSH1 0x40 MLOAD SWAP5 DUP6 SWAP4 DUP5 SWAP4 PUSH4 0x2CEB1E8D PUSH1 0xE0 SHL DUP6 MSTORE PUSH1 0x40 PUSH1 0x4 DUP7 ADD MSTORE PUSH1 0x44 DUP6 ADD SWAP1 PUSH2 0x1D22 JUMP JUMPDEST DUP4 DUP2 SUB PUSH1 0x3 NOT ADD PUSH1 0x24 DUP6 ADD MSTORE SWAP1 PUSH2 0x1DC5 JUMP JUMPDEST SUB DUP2 PUSH32 0x0 PUSH1 0x1 PUSH1 0x1 PUSH1 0xA0 SHL SUB AND GAS STATICCALL SWAP1 DUP2 ISZERO PUSH2 0x132E JUMPI PUSH1 0x0 SWAP2 PUSH2 0x157C JUMPI JUMPDEST POP SWAP3 PUSH2 0xBA2 PUSH2 0x1B92 JUMP JUMPDEST SWAP1 PUSH1 0x40 MLOAD SWAP5 DUP6 SWAP2 PUSH4 0x12B037FF PUSH1 0xE0 SHL DUP4 MSTORE PUSH1 0x80 PUSH1 0x4 DUP5 ADD MSTORE PUSH1 0x1 PUSH1 0x1 PUSH1 0x80 SHL SUB NOT DUP2 MLOAD AND PUSH1 0x84 DUP5 ADD MSTORE PUSH1 0x1 PUSH1 0x1 PUSH1 0x80 SHL SUB NOT PUSH1 0x20 DUP3 ADD MLOAD AND PUSH1 0xA4 DUP5 ADD MSTORE PUSH1 0x40 DUP2 ADD MLOAD PUSH1 0xC4 DUP5 ADD MSTORE PUSH1 0x80 PUSH2 0xC05 PUSH1 0x60 DUP4 ADD MLOAD PUSH1 0xA0 PUSH1 0xE4 DUP8 ADD MSTORE PUSH2 0x124 DUP7 ADD SWAP1 PUSH2 0x1A5C JUMP JUMPDEST SWAP2 ADD MLOAD SWAP1 PUSH1 0x83 NOT DUP5 DUP3 SUB ADD PUSH2 0x104 DUP6 ADD MSTORE DUP2 MLOAD DUP1 DUP3 MSTORE PUSH1 0x20 DUP3 ADD SWAP2 PUSH1 0x20 DUP1 DUP4 PUSH1 0x5 SHL DUP4 ADD ADD SWAP5 ADD SWAP3 PUSH1 0x0 SWAP2 JUMPDEST DUP4 DUP4 LT PUSH2 0x13D2 JUMPI POP POP POP POP POP PUSH1 0x3 NOT DUP4 DUP3 SUB ADD PUSH1 0x24 DUP5 ADD MSTORE PUSH1 0x1 PUSH1 0x1 PUSH1 0x80 SHL SUB NOT DUP3 MLOAD AND DUP2 MSTORE PUSH2 0xC70 PUSH1 0x20 DUP4 ADD MLOAD PUSH1 0x80 PUSH1 0x20 DUP5 ADD MSTORE PUSH1 0x80 DUP4 ADD SWAP1 PUSH2 0x1D22 JUMP JUMPDEST SWAP2 PUSH1 0x40 DUP2 ADD MLOAD SWAP3 DUP3 DUP2 SUB PUSH1 0x40 DUP5 ADD MSTORE DUP4 MLOAD DUP1 DUP3 MSTORE PUSH1 0x20 DUP3 ADD SWAP2 PUSH1 0x20 DUP1 DUP4 PUSH1 0x5 SHL DUP4 ADD ADD SWAP7 ADD SWAP3 PUSH1 0x0 SWAP2 JUMPDEST DUP4 DUP4 LT PUSH2 0x133A JUMPI POP POP POP POP POP PUSH2 0xCC5 DUP5 SWAP4 PUSH1 0x0 SWAP7 SWAP4 PUSH1 0x60 PUSH2 0xCE6 SWAP5 ADD MLOAD SWAP1 PUSH1 0x60 DUP2 DUP5 SUB SWAP2 ADD MSTORE PUSH2 0x1DC5 JUMP JUMPDEST DUP3 MLOAD PUSH1 0x1 PUSH1 0x1 PUSH1 0x80 SHL SUB NOT AND PUSH1 0x44 DUP6 ADD MSTORE PUSH1 0x20 SWAP1 SWAP3 ADD MLOAD MLOAD ISZERO ISZERO PUSH1 0x64 DUP5 ADD MSTORE JUMP JUMPDEST SUB DUP2 PUSH32 0x0 PUSH1 0x1 PUSH1 0x1 PUSH1 0xA0 SHL SUB AND GAS STATICCALL SWAP3 DUP4 ISZERO PUSH2 0x132E JUMPI PUSH1 0x0 SWAP4 PUSH2 0xF8A JUMPI JUMPDEST POP PUSH1 0xA0 DUP4 ADD MLOAD SWAP2 PUSH1 0x40 DUP4 DUP1 MLOAD DUP2 ADD SUB SLT PUSH2 0x86 JUMPI PUSH2 0xD43 PUSH1 0x20 DUP5 ADD PUSH2 0x1B24 JUMP JUMPDEST SWAP3 PUSH1 0x1 PUSH1 0x1 PUSH1 0xA0 SHL SUB SWAP1 PUSH2 0xD59 SWAP1 PUSH1 0x40 ADD PUSH2 0x1B24 JUMP JUMPDEST AND PUSH1 0x1 PUSH1 0x1 PUSH1 0xA0 SHL SUB SWAP1 SWAP2 AND SUB PUSH2 0xF50 JUMPI PUSH1 0x1 PUSH1 0x1 PUSH1 0xA0 SHL SUB SWAP1 DUP2 AND SWAP2 AND SUB PUSH2 0xF18 JUMPI PUSH1 0x60 DUP2 ADD DUP1 MLOAD MLOAD SWAP2 PUSH2 0xD8D DUP4 PUSH2 0x1A81 JUMP JUMPDEST SWAP3 PUSH2 0xD9B PUSH1 0x40 MLOAD SWAP5 DUP6 PUSH2 0x19FD JUMP JUMPDEST DUP1 DUP5 MSTORE PUSH2 0xDAA PUSH1 0x1F NOT SWAP2 PUSH2 0x1A81 JUMP JUMPDEST ADD PUSH1 0x0 JUMPDEST DUP2 DUP2 LT PUSH2 0xEDF JUMPI POP POP PUSH1 0x0 JUMPDEST DUP3 MLOAD DUP1 MLOAD DUP3 LT ISZERO PUSH2 0xDF4 JUMPI SWAP1 PUSH2 0xDD3 DUP2 PUSH2 0xDEF SWAP4 PUSH2 0x1B10 JUMP JUMPDEST MLOAD PUSH2 0xDDE DUP3 DUP8 PUSH2 0x1B10 JUMP JUMPDEST MSTORE PUSH2 0xDE9 DUP2 DUP7 PUSH2 0x1B10 JUMP JUMPDEST POP PUSH2 0x1B38 JUMP JUMPDEST PUSH2 0xDBA JUMP JUMPDEST DUP5 DUP4 PUSH2 0xDFF DUP2 PUSH2 0x1F31 JUMP JUMPDEST SWAP1 PUSH1 0x40 MLOAD SWAP2 PUSH1 0x20 DUP4 ADD MSTORE PUSH1 0x20 DUP3 MSTORE PUSH2 0xE16 DUP3 PUSH2 0x19AC JUMP JUMPDEST PUSH1 0x0 SWAP2 DUP3 DUP1 JUMPDEST DUP6 MLOAD DUP2 LT ISZERO PUSH2 0xEB6 JUMPI PUSH2 0xE38 PUSH2 0xE32 DUP3 DUP9 PUSH2 0x1B10 JUMP JUMPDEST MLOAD PUSH2 0x1B5D JUMP JUMPDEST PUSH1 0x6 SWAP1 DUP2 DUP2 LT ISZERO PUSH2 0xEA0 JUMPI PUSH1 0x2 SUB PUSH2 0xE64 JUMPI POP SWAP1 POP PUSH2 0xE5F PUSH2 0xE59 DUP5 PUSH2 0x200F JUMP JUMPDEST SWAP2 PUSH2 0x1B38 JUMP JUMPDEST PUSH2 0xE1C JUMP JUMPDEST PUSH2 0xE71 PUSH2 0xE32 DUP4 DUP10 PUSH2 0x1B10 JUMP JUMPDEST SWAP1 DUP2 LT ISZERO PUSH2 0xEA0 JUMPI PUSH1 0x4 EQ PUSH2 0xE8A JUMPI JUMPDEST PUSH2 0xE5F SWAP1 PUSH2 0x1B38 JUMP JUMPDEST SWAP4 POP PUSH2 0xE5F PUSH2 0xE98 DUP5 PUSH2 0x1FB4 JUMP JUMPDEST SWAP5 SWAP1 POP PUSH2 0xE81 JUMP JUMPDEST PUSH4 0x4E487B71 PUSH1 0xE0 SHL PUSH1 0x0 MSTORE PUSH1 0x21 PUSH1 0x4 MSTORE PUSH1 0x24 PUSH1 0x0 REVERT JUMPDEST PUSH2 0xED0 DUP4 DUP4 DUP8 PUSH1 0x40 MLOAD SWAP4 DUP5 SWAP4 PUSH1 0x60 DUP6 MSTORE PUSH1 0x60 DUP6 ADD SWAP1 PUSH2 0x1A5C JUMP JUMPDEST SWAP2 PUSH1 0x20 DUP5 ADD MSTORE PUSH1 0x40 DUP4 ADD MSTORE SUB SWAP1 RETURN JUMPDEST PUSH1 0x20 SWAP1 PUSH1 0x40 MLOAD PUSH2 0xEEE DUP2 PUSH2 0x195B JUMP JUMPDEST PUSH1 0x0 DUP2 MSTORE PUSH1 0x0 DUP4 DUP3 ADD MSTORE PUSH1 0x0 PUSH1 0x40 DUP3 ADD MSTORE PUSH1 0x60 DUP1 DUP3 ADD MSTORE PUSH1 0x60 PUSH1 0x80 DUP3 ADD MSTORE DUP3 DUP3 DUP9 ADD ADD MSTORE ADD PUSH2 0xDAE JUMP JUMPDEST PUSH1 0x40 MLOAD PUSH3 0x461BCD PUSH1 0xE5 SHL DUP2 MSTORE PUSH1 0x20 PUSH1 0x4 DUP3 ADD MSTORE PUSH1 0x10 PUSH1 0x24 DUP3 ADD MSTORE PUSH16 0x57524F4E475F544F5F41444452455353 PUSH1 0x80 SHL PUSH1 0x44 DUP3 ADD MSTORE PUSH1 0x64 SWAP1 REVERT JUMPDEST PUSH1 0x40 MLOAD PUSH3 0x461BCD PUSH1 0xE5 SHL DUP2 MSTORE PUSH1 0x20 PUSH1 0x4 DUP3 ADD MSTORE PUSH1 0x12 PUSH1 0x24 DUP3 ADD MSTORE PUSH18 0x57524F4E475F46524F4D5F41444452455353 PUSH1 0x70 SHL PUSH1 0x44 DUP3 ADD MSTORE PUSH1 0x64 SWAP1 REVERT JUMPDEST SWAP1 SWAP3 POP RETURNDATASIZE DUP1 PUSH1 0x0 DUP4 RETURNDATACOPY PUSH2 0xF9D DUP2 DUP4 PUSH2 0x19FD JUMP JUMPDEST PUSH1 0x20 DUP3 DUP3 DUP2 ADD SUB SLT PUSH2 0x86 JUMPI DUP2 MLOAD SWAP2 PUSH1 0x1 PUSH1 0x1 PUSH1 0x40 SHL SUB DUP4 GT PUSH2 0x86 JUMPI PUSH1 0xC0 DUP4 DUP3 ADD DUP4 DUP4 ADD SUB SLT PUSH2 0x86 JUMPI PUSH1 0x40 MLOAD SWAP3 PUSH2 0xFD5 DUP5 PUSH2 0x192A JUMP JUMPDEST PUSH2 0xFE0 DUP2 DUP4 ADD PUSH2 0x1CA1 JUMP JUMPDEST DUP5 MSTORE PUSH2 0xFF0 PUSH1 0x20 DUP3 DUP5 ADD ADD PUSH2 0x1CA1 JUMP JUMPDEST PUSH1 0x20 DUP6 ADD MSTORE DUP2 DUP2 ADD PUSH1 0x40 DUP2 DUP2 ADD MLOAD SWAP1 DUP7 ADD MSTORE PUSH1 0x60 ADD MLOAD PUSH1 0x1 PUSH1 0x1 PUSH1 0x40 SHL SUB DUP2 GT PUSH2 0x86 JUMPI DUP4 DUP4 ADD PUSH1 0x1F DUP3 DUP5 DUP7 ADD ADD ADD SLT ISZERO PUSH2 0x86 JUMPI DUP1 DUP3 DUP5 ADD ADD MLOAD PUSH2 0x1034 DUP2 PUSH2 0x1A81 JUMP JUMPDEST SWAP2 PUSH2 0x1042 PUSH1 0x40 MLOAD SWAP4 DUP5 PUSH2 0x19FD JUMP JUMPDEST DUP2 DUP4 MSTORE PUSH1 0x20 DUP4 ADD DUP7 DUP7 ADD PUSH1 0x20 DUP5 PUSH1 0x5 SHL DUP5 DUP9 DUP11 ADD ADD ADD ADD GT PUSH2 0x86 JUMPI PUSH1 0x20 DUP3 DUP7 DUP9 ADD ADD ADD SWAP1 JUMPDEST PUSH1 0x20 DUP5 PUSH1 0x5 SHL DUP5 DUP9 DUP11 ADD ADD ADD ADD DUP3 LT PUSH2 0x1244 JUMPI POP POP POP POP PUSH1 0x60 DUP6 ADD MSTORE PUSH1 0x80 DUP2 DUP4 ADD ADD MLOAD PUSH1 0x1 PUSH1 0x1 PUSH1 0x40 SHL SUB DUP2 GT PUSH2 0x86 JUMPI DUP4 DUP4 ADD PUSH1 0x1F DUP3 DUP5 DUP7 ADD ADD ADD SLT ISZERO PUSH2 0x86 JUMPI DUP1 DUP3 DUP5 ADD ADD MLOAD PUSH2 0x10B9 DUP2 PUSH2 0x1A81 JUMP JUMPDEST SWAP2 PUSH2 0x10C7 PUSH1 0x40 MLOAD SWAP4 DUP5 PUSH2 0x19FD JUMP JUMPDEST DUP2 DUP4 MSTORE PUSH1 0x20 DUP4 ADD DUP7 DUP7 ADD PUSH1 0x20 DUP5 PUSH1 0x5 SHL DUP5 DUP9 DUP11 ADD ADD ADD ADD GT PUSH2 0x86 JUMPI PUSH1 0x20 DUP3 DUP7 DUP9 ADD ADD ADD SWAP1 JUMPDEST PUSH1 0x20 DUP5 PUSH1 0x5 SHL DUP5 DUP9 DUP11 ADD ADD ADD ADD DUP3 LT PUSH2 0x1139 JUMPI POP POP POP POP PUSH1 0x80 DUP6 ADD MSTORE PUSH1 0xA0 DUP2 DUP4 ADD ADD MLOAD SWAP1 PUSH1 0x1 PUSH1 0x1 PUSH1 0x40 SHL SUB DUP3 GT PUSH2 0x86 JUMPI PUSH2 0x112D SWAP4 DUP4 ADD SWAP3 ADD ADD PUSH2 0x1CB6 JUMP JUMPDEST PUSH1 0xA0 DUP3 ADD MSTORE SWAP2 DUP4 PUSH2 0xD23 JUMP JUMPDEST DUP2 MLOAD PUSH1 0x1 PUSH1 0x1 PUSH1 0x40 SHL SUB DUP2 GT PUSH2 0x86 JUMPI PUSH1 0xE0 DUP9 DUP9 ADD DUP6 ADD DUP3 ADD DUP11 DUP11 ADD SUB PUSH1 0x1F NOT ADD SLT PUSH2 0x86 JUMPI PUSH1 0x40 MLOAD SWAP2 PUSH2 0x116C DUP4 PUSH2 0x1991 JUMP JUMPDEST PUSH1 0x20 DUP3 DUP7 DUP11 DUP13 ADD ADD ADD ADD MLOAD PUSH1 0x5 DUP2 LT ISZERO PUSH2 0x86 JUMPI DUP4 MSTORE PUSH2 0x1194 PUSH1 0x40 DUP4 DUP8 DUP12 DUP14 ADD ADD ADD ADD PUSH2 0x1CA1 JUMP JUMPDEST PUSH1 0x20 DUP5 ADD MSTORE PUSH2 0x11AB PUSH1 0x60 DUP4 DUP8 DUP12 DUP14 ADD ADD ADD ADD PUSH2 0x1CA1 JUMP JUMPDEST PUSH1 0x40 DUP5 ADD MSTORE DUP9 DUP9 ADD DUP6 ADD DUP3 ADD PUSH1 0x80 DUP2 ADD MLOAD PUSH1 0x60 DUP6 ADD MSTORE PUSH1 0xA0 ADD MLOAD PUSH1 0x1 PUSH1 0x1 PUSH1 0x40 SHL SUB DUP2 GT PUSH2 0x86 JUMPI PUSH2 0x11EB SWAP1 DUP12 DUP12 ADD SWAP1 DUP11 DUP13 ADD DUP9 ADD DUP6 ADD ADD PUSH1 0x20 ADD PUSH2 0x1CB6 JUMP JUMPDEST PUSH1 0x80 DUP5 ADD MSTORE DUP9 DUP9 ADD DUP6 ADD DUP3 ADD PUSH1 0xC0 DUP2 ADD MLOAD PUSH1 0xA0 DUP6 ADD MSTORE PUSH1 0xE0 ADD MLOAD SWAP1 PUSH1 0x1 PUSH1 0x1 PUSH1 0x40 SHL SUB DUP3 GT PUSH2 0x86 JUMPI PUSH1 0x20 SWAP4 PUSH2 0x1232 DUP12 DUP7 DUP1 SWAP7 SWAP6 DUP16 SWAP7 DUP12 DUP16 DUP5 SWAP10 DUP7 ADD SWAP6 ADD ADD ADD ADD ADD PUSH2 0x1CB6 JUMP JUMPDEST PUSH1 0xC0 DUP3 ADD MSTORE DUP2 MSTORE ADD SWAP3 ADD SWAP2 SWAP1 POP PUSH2 0x10ED JUMP JUMPDEST DUP2 MLOAD PUSH1 0x1 PUSH1 0x1 PUSH1 0x40 SHL SUB DUP2 GT PUSH2 0x86 JUMPI PUSH1 0xA0 DUP9 DUP9 ADD DUP6 ADD DUP3 ADD DUP11 DUP11 ADD SUB PUSH1 0x1F NOT ADD SLT PUSH2 0x86 JUMPI PUSH1 0x40 MLOAD SWAP2 PUSH2 0x1277 DUP4 PUSH2 0x195B JUMP JUMPDEST PUSH1 0x20 DUP3 DUP7 DUP11 DUP13 ADD ADD ADD ADD MLOAD PUSH1 0x6 DUP2 LT ISZERO PUSH2 0x86 JUMPI DUP4 MSTORE PUSH2 0x129F PUSH1 0x40 DUP4 DUP8 DUP12 DUP14 ADD ADD ADD ADD PUSH2 0x1CFB JUMP JUMPDEST PUSH1 0x20 DUP5 ADD MSTORE DUP9 DUP9 ADD DUP6 ADD DUP3 ADD PUSH1 0x60 DUP2 ADD MLOAD PUSH1 0x40 DUP6 ADD MSTORE PUSH1 0x80 ADD MLOAD PUSH1 0x1 PUSH1 0x1 PUSH1 0x40 SHL SUB DUP2 GT PUSH2 0x86 JUMPI PUSH2 0x12DF SWAP1 DUP12 DUP12 ADD SWAP1 DUP11 DUP13 ADD DUP9 ADD DUP6 ADD ADD PUSH1 0x20 ADD PUSH2 0x1CB6 JUMP JUMPDEST PUSH1 0x60 DUP5 ADD MSTORE PUSH1 0xA0 DUP3 DUP7 DUP11 DUP13 ADD ADD ADD ADD MLOAD SWAP1 PUSH1 0x1 PUSH1 0x1 PUSH1 0x40 SHL SUB DUP3 GT PUSH2 0x86 JUMPI PUSH1 0x20 SWAP4 PUSH2 0x131C DUP12 DUP7 DUP1 SWAP7 SWAP6 DUP16 SWAP7 DUP12 DUP16 DUP5 SWAP10 DUP7 ADD SWAP6 ADD ADD ADD ADD ADD PUSH2 0x1CB6 JUMP JUMPDEST PUSH1 0x80 DUP3 ADD MSTORE DUP2 MSTORE ADD SWAP3 ADD SWAP2 SWAP1 POP PUSH2 0x1068 JUMP JUMPDEST PUSH1 0x40 MLOAD RETURNDATASIZE PUSH1 0x0 DUP3 RETURNDATACOPY RETURNDATASIZE SWAP1 REVERT JUMPDEST SWAP2 SWAP4 SWAP8 POP SWAP2 SWAP4 SWAP5 SWAP6 PUSH1 0x20 DUP1 PUSH2 0x13BE PUSH1 0x1 SWAP4 PUSH1 0x1F NOT DUP7 DUP3 SUB ADD DUP8 MSTORE PUSH1 0xE0 DUP13 MLOAD SWAP2 PUSH2 0x1364 DUP2 DUP5 MLOAD PUSH2 0x1D15 JUMP JUMPDEST PUSH1 0x1 PUSH1 0x1 PUSH1 0x80 SHL SUB NOT DUP6 DUP5 ADD MLOAD AND DUP6 DUP3 ADD MSTORE PUSH1 0x1 PUSH1 0x1 PUSH1 0x80 SHL SUB NOT PUSH1 0x40 DUP5 ADD MLOAD AND PUSH1 0x40 DUP3 ADD MSTORE PUSH1 0x60 DUP4 ADD MLOAD PUSH1 0x60 DUP3 ADD MSTORE PUSH1 0x80 DUP4 ADD MLOAD ISZERO ISZERO PUSH1 0x80 DUP3 ADD MSTORE PUSH1 0xA0 DUP4 ADD MLOAD ISZERO ISZERO PUSH1 0xA0 DUP3 ADD MSTORE DUP2 PUSH1 0xC0 DUP1 SWAP5 ADD MLOAD SWAP4 DUP3 ADD MSTORE ADD SWAP1 PUSH2 0x1A5C JUMP JUMPDEST SWAP10 ADD SWAP4 ADD SWAP4 ADD SWAP1 SWAP3 DUP12 SWAP8 SWAP7 SWAP6 SWAP5 SWAP3 SWAP4 PUSH2 0xC9A JUMP JUMPDEST SWAP2 SWAP4 SWAP6 SWAP7 POP SWAP2 SWAP4 PUSH1 0x1F NOT DUP3 DUP3 SUB ADD DUP4 MSTORE DUP6 MLOAD SWAP1 PUSH1 0xA0 DUP2 ADD DUP3 MLOAD SWAP1 PUSH1 0xA0 DUP4 MSTORE DUP2 MLOAD DUP1 SWAP2 MSTORE PUSH1 0xC0 DUP4 ADD PUSH1 0x20 PUSH1 0xC0 DUP4 PUSH1 0x5 SHL DUP7 ADD ADD SWAP4 ADD SWAP2 PUSH1 0x0 JUMPDEST DUP2 DUP2 LT PUSH2 0x1519 JUMPI POP POP POP POP PUSH1 0x20 DUP4 ADD MLOAD SWAP1 DUP3 DUP2 SUB PUSH1 0x20 DUP5 ADD MSTORE DUP2 MLOAD DUP1 DUP3 MSTORE PUSH1 0x20 DUP3 ADD PUSH1 0x20 DUP1 DUP4 PUSH1 0x5 SHL DUP6 ADD ADD SWAP5 ADD SWAP3 PUSH1 0x0 JUMPDEST DUP4 DUP2 LT PUSH2 0x1498 JUMPI POP POP POP POP POP PUSH2 0x1485 DUP4 PUSH1 0x20 SWAP4 PUSH1 0x80 PUSH2 0x1474 DUP7 SWAP6 PUSH1 0x40 PUSH1 0x1 SWAP10 ADD MLOAD PUSH1 0x40 DUP6 ADD MSTORE PUSH1 0x60 DUP6 ADD MLOAD DUP5 DUP3 SUB PUSH1 0x60 DUP7 ADD MSTORE PUSH2 0x1A5C JUMP JUMPDEST SWAP3 ADD MLOAD SWAP1 PUSH1 0x80 DUP2 DUP5 SUB SWAP2 ADD MSTORE PUSH2 0x1A5C JUMP JUMPDEST SWAP8 ADD SWAP4 ADD SWAP4 ADD SWAP1 SWAP3 DUP11 SWAP7 SWAP6 SWAP5 SWAP3 SWAP4 PUSH2 0xC31 JUMP JUMPDEST SWAP1 SWAP2 SWAP3 SWAP4 SWAP5 PUSH1 0x20 DUP1 PUSH2 0x150C PUSH1 0x1 SWAP4 PUSH1 0x1F NOT DUP8 DUP3 SUB ADD DUP9 MSTORE PUSH1 0xC0 PUSH1 0xA0 DUP12 MLOAD PUSH2 0x14C0 DUP5 DUP3 MLOAD PUSH2 0x1D15 JUMP JUMPDEST PUSH1 0x1 PUSH1 0x1 PUSH1 0x80 SHL SUB NOT DUP7 DUP3 ADD MLOAD AND DUP7 DUP6 ADD MSTORE PUSH1 0x1 PUSH1 0x1 PUSH1 0x80 SHL SUB NOT PUSH1 0x40 DUP3 ADD MLOAD AND PUSH1 0x40 DUP6 ADD MSTORE PUSH1 0x60 DUP2 ADD MLOAD ISZERO ISZERO PUSH1 0x60 DUP6 ADD MSTORE PUSH1 0x80 DUP2 ADD MLOAD PUSH1 0x80 DUP6 ADD MSTORE ADD MLOAD SWAP2 DUP2 PUSH1 0xA0 DUP3 ADD MSTORE ADD SWAP1 PUSH2 0x1A5C JUMP JUMPDEST SWAP8 ADD SWAP6 SWAP5 ADD SWAP3 SWAP2 ADD PUSH2 0x143C JUMP JUMPDEST SWAP1 SWAP2 SWAP3 SWAP4 PUSH1 0x20 DUP1 PUSH2 0x1570 PUSH1 0x1 SWAP4 PUSH1 0xBF NOT DUP11 DUP3 SUB ADD DUP9 MSTORE PUSH1 0xA0 PUSH1 0x80 DUP11 MLOAD PUSH2 0x1540 DUP5 DUP3 MLOAD PUSH2 0x1D08 JUMP JUMPDEST DUP6 DUP2 ADD MLOAD ISZERO ISZERO DUP7 DUP6 ADD MSTORE PUSH1 0x40 DUP2 ADD MLOAD ISZERO ISZERO PUSH1 0x40 DUP6 ADD MSTORE PUSH1 0x60 DUP2 ADD MLOAD PUSH1 0x60 DUP6 ADD MSTORE ADD MLOAD SWAP2 DUP2 PUSH1 0x80 DUP3 ADD MSTORE ADD SWAP1 PUSH2 0x1A5C JUMP JUMPDEST SWAP7 ADD SWAP5 ADD SWAP3 SWAP2 ADD PUSH2 0x140A JUMP JUMPDEST SWAP1 POP RETURNDATASIZE DUP1 PUSH1 0x0 DUP4 RETURNDATACOPY PUSH2 0x158E DUP2 DUP4 PUSH2 0x19FD JUMP JUMPDEST PUSH1 0x20 DUP3 DUP3 DUP2 ADD SUB SLT PUSH2 0x86 JUMPI DUP2 MLOAD SWAP2 PUSH1 0x1 PUSH1 0x1 PUSH1 0x40 SHL SUB DUP4 GT PUSH2 0x86 JUMPI PUSH1 0x80 DUP4 DUP3 ADD DUP4 DUP4 ADD SUB SLT PUSH2 0x86 JUMPI PUSH1 0x40 MLOAD SWAP3 PUSH2 0x15C6 DUP5 PUSH2 0x1976 JUMP JUMPDEST PUSH2 0x15D1 DUP2 DUP4 ADD PUSH2 0x1CA1 JUMP JUMPDEST DUP5 MSTORE PUSH1 0x20 DUP2 DUP4 ADD ADD MLOAD PUSH1 0x1 PUSH1 0x1 PUSH1 0x40 SHL SUB DUP2 GT PUSH2 0x86 JUMPI DUP4 DUP4 ADD PUSH1 0x1F DUP3 DUP5 DUP7 ADD ADD ADD SLT ISZERO PUSH2 0x86 JUMPI DUP1 DUP3 DUP5 ADD ADD MLOAD PUSH2 0x1608 DUP2 PUSH2 0x1A81 JUMP JUMPDEST SWAP2 PUSH2 0x1616 PUSH1 0x40 MLOAD SWAP4 DUP5 PUSH2 0x19FD JUMP JUMPDEST DUP2 DUP4 MSTORE PUSH1 0x20 DUP4 ADD DUP7 DUP7 ADD PUSH1 0x20 DUP5 PUSH1 0x5 SHL DUP5 DUP9 DUP11 ADD ADD ADD ADD GT PUSH2 0x86 JUMPI PUSH1 0x20 DUP3 DUP7 DUP9 ADD ADD ADD SWAP1 JUMPDEST PUSH1 0x20 DUP5 PUSH1 0x5 SHL DUP5 DUP9 DUP11 ADD ADD ADD ADD DUP3 LT PUSH2 0x1806 JUMPI POP POP POP POP PUSH1 0x20 DUP6 ADD MSTORE PUSH1 0x40 DUP2 DUP4 ADD ADD MLOAD PUSH1 0x1 PUSH1 0x1 PUSH1 0x40 SHL SUB DUP2 GT PUSH2 0x86 JUMPI DUP4 DUP4 ADD PUSH1 0x1F DUP3 DUP5 DUP7 ADD ADD ADD SLT ISZERO PUSH2 0x86 JUMPI DUP1 DUP3 DUP5 ADD ADD MLOAD PUSH2 0x168D DUP2 PUSH2 0x1A81 JUMP JUMPDEST SWAP2 PUSH2 0x169B PUSH1 0x40 MLOAD SWAP4 DUP5 PUSH2 0x19FD JUMP JUMPDEST DUP2 DUP4 MSTORE PUSH1 0x20 DUP4 ADD DUP7 DUP7 ADD PUSH1 0x20 DUP5 PUSH1 0x5 SHL DUP5 DUP9 DUP11 ADD ADD ADD ADD GT PUSH2 0x86 JUMPI PUSH1 0x20 DUP3 DUP7 DUP9 ADD ADD ADD SWAP1 JUMPDEST PUSH1 0x20 DUP5 PUSH1 0x5 SHL DUP5 DUP9 DUP11 ADD ADD ADD ADD DUP3 LT PUSH2 0x170C JUMPI POP POP POP POP PUSH1 0x40 DUP6 ADD MSTORE PUSH1 0x60 DUP2 DUP4 ADD ADD MLOAD SWAP1 PUSH1 0x1 PUSH1 0x1 PUSH1 0x40 SHL SUB DUP3 GT PUSH2 0x86 JUMPI PUSH2 0x1701 SWAP4 DUP4 ADD SWAP3 ADD ADD PUSH2 0x1ECB JUMP JUMPDEST PUSH1 0x60 DUP3 ADD MSTORE DUP5 PUSH2 0xB98 JUMP JUMPDEST DUP2 MLOAD PUSH1 0x1 PUSH1 0x1 PUSH1 0x40 SHL SUB DUP2 GT PUSH2 0x86 JUMPI PUSH1 0xE0 DUP9 DUP9 ADD DUP6 ADD DUP3 ADD DUP11 DUP11 ADD SUB PUSH1 0x1F NOT ADD SLT PUSH2 0x86 JUMPI PUSH1 0x40 MLOAD SWAP2 PUSH2 0x173F DUP4 PUSH2 0x1991 JUMP JUMPDEST PUSH1 0x20 DUP3 DUP7 DUP11 DUP13 ADD ADD ADD ADD MLOAD PUSH1 0x5 DUP2 LT ISZERO PUSH2 0x86 JUMPI DUP4 MSTORE PUSH2 0x1767 PUSH1 0x40 DUP4 DUP8 DUP12 DUP14 ADD ADD ADD ADD PUSH2 0x1CA1 JUMP JUMPDEST PUSH1 0x20 DUP5 ADD MSTORE PUSH2 0x177E PUSH1 0x60 DUP4 DUP8 DUP12 DUP14 ADD ADD ADD ADD PUSH2 0x1CA1 JUMP JUMPDEST PUSH1 0x40 DUP5 ADD MSTORE DUP9 DUP9 ADD DUP6 ADD DUP3 ADD PUSH1 0x80 DUP2 ADD MLOAD PUSH1 0x60 DUP6 ADD MSTORE PUSH2 0x17A0 SWAP1 PUSH1 0xA0 ADD PUSH2 0x1CFB JUMP JUMPDEST PUSH1 0x80 DUP5 ADD MSTORE PUSH2 0x17B7 PUSH1 0xC0 DUP4 DUP8 DUP12 DUP14 ADD ADD ADD ADD PUSH2 0x1CFB JUMP JUMPDEST PUSH1 0xA0 DUP5 ADD MSTORE PUSH1 0xE0 DUP3 DUP7 DUP11 DUP13 ADD ADD ADD ADD MLOAD SWAP1 PUSH1 0x1 PUSH1 0x1 PUSH1 0x40 SHL SUB DUP3 GT PUSH2 0x86 JUMPI PUSH1 0x20 SWAP4 PUSH2 0x17F4 DUP12 DUP7 DUP1 SWAP7 SWAP6 DUP16 SWAP7 DUP12 DUP16 DUP5 SWAP10 DUP7 ADD SWAP6 ADD ADD ADD ADD ADD PUSH2 0x1CB6 JUMP JUMPDEST PUSH1 0xC0 DUP3 ADD MSTORE DUP2 MSTORE ADD SWAP3 ADD SWAP2 SWAP1 POP PUSH2 0x16C1 JUMP JUMPDEST DUP2 MLOAD SWAP1 PUSH1 0x1 PUSH1 0x1 PUSH1 0x40 SHL SUB DUP3 GT PUSH2 0x86 JUMPI PUSH1 0x20 DUP1 SWAP3 SWAP2 PUSH2 0x1833 DUP11 DUP4 DUP1 SWAP6 DUP10 DUP16 DUP15 SWAP1 DUP6 ADD SWAP5 ADD ADD ADD ADD PUSH2 0x1DFB JUMP JUMPDEST DUP2 MSTORE ADD SWAP3 ADD SWAP2 SWAP1 POP PUSH2 0x163C JUMP JUMPDEST SWAP1 SWAP2 POP RETURNDATASIZE SWAP1 DUP2 PUSH1 0x0 DUP3 RETURNDATACOPY PUSH2 0x1854 DUP3 DUP3 PUSH2 0x19FD JUMP JUMPDEST PUSH1 0x20 DUP2 DUP4 DUP2 ADD SUB SLT PUSH2 0x86 JUMPI DUP1 MLOAD PUSH1 0x1 PUSH1 0x1 PUSH1 0x40 SHL SUB DUP2 GT PUSH2 0x86 JUMPI PUSH2 0x187D SWAP3 DUP3 ADD SWAP2 ADD PUSH2 0x1ECB JUMP JUMPDEST SWAP1 DUP5 PUSH2 0x46E JUMP JUMPDEST PUSH2 0x18A1 SWAP2 POP RETURNDATASIZE DUP1 PUSH1 0x0 DUP4 RETURNDATACOPY PUSH2 0x1899 DUP2 DUP4 PUSH2 0x19FD JUMP JUMPDEST DUP2 ADD SWAP1 PUSH2 0x1E86 JUMP JUMPDEST DUP6 PUSH2 0x3C8 JUMP JUMPDEST PUSH2 0x18BC SWAP2 POP RETURNDATASIZE DUP1 PUSH1 0x0 DUP4 RETURNDATACOPY PUSH2 0x1899 DUP2 DUP4 PUSH2 0x19FD JUMP JUMPDEST DUP5 PUSH2 0x344 JUMP JUMPDEST PUSH2 0x18D7 SWAP2 POP RETURNDATASIZE DUP1 PUSH1 0x0 DUP4 RETURNDATACOPY PUSH2 0x1899 DUP2 DUP4 PUSH2 0x19FD JUMP JUMPDEST DUP5 PUSH2 0x2C3 JUMP JUMPDEST PUSH1 0x20 SWAP1 PUSH2 0x18E8 PUSH2 0x1A98 JUMP JUMPDEST DUP3 DUP3 DUP7 ADD ADD MSTORE ADD PUSH2 0x25C JUMP JUMPDEST PUSH1 0x40 MLOAD PUSH3 0x461BCD PUSH1 0xE5 SHL DUP2 MSTORE PUSH1 0x20 PUSH1 0x4 DUP3 ADD MSTORE PUSH1 0xE PUSH1 0x24 DUP3 ADD MSTORE PUSH14 0x656D70747920726573706F6E7365 PUSH1 0x90 SHL PUSH1 0x44 DUP3 ADD MSTORE PUSH1 0x64 SWAP1 REVERT JUMPDEST PUSH1 0xC0 DUP2 ADD SWAP1 DUP2 LT PUSH1 0x1 PUSH1 0x1 PUSH1 0x40 SHL SUB DUP3 GT OR PUSH2 0x1945 JUMPI PUSH1 0x40 MSTORE JUMP JUMPDEST PUSH4 0x4E487B71 PUSH1 0xE0 SHL PUSH1 0x0 MSTORE PUSH1 0x41 PUSH1 0x4 MSTORE PUSH1 0x24 PUSH1 0x0 REVERT JUMPDEST PUSH1 0xA0 DUP2 ADD SWAP1 DUP2 LT PUSH1 0x1 PUSH1 0x1 PUSH1 0x40 SHL SUB DUP3 GT OR PUSH2 0x1945 JUMPI PUSH1 0x40 MSTORE JUMP JUMPDEST PUSH1 0x80 DUP2 ADD SWAP1 DUP2 LT PUSH1 0x1 PUSH1 0x1 PUSH1 0x40 SHL SUB DUP3 GT OR PUSH2 0x1945 JUMPI PUSH1 0x40 MSTORE JUMP JUMPDEST PUSH1 0xE0 DUP2 ADD SWAP1 DUP2 LT PUSH1 0x1 PUSH1 0x1 PUSH1 0x40 SHL SUB DUP3 GT OR PUSH2 0x1945 JUMPI PUSH1 0x40 MSTORE JUMP JUMPDEST PUSH1 0x40 DUP2 ADD SWAP1 DUP2 LT PUSH1 0x1 PUSH1 0x1 PUSH1 0x40 SHL SUB DUP3 GT OR PUSH2 0x1945 JUMPI PUSH1 0x40 MSTORE JUMP JUMPDEST PUSH1 0x20 DUP2 ADD SWAP1 DUP2 LT PUSH1 0x1 PUSH1 0x1 PUSH1 0x40 SHL SUB DUP3 GT OR PUSH2 0x1945 JUMPI PUSH1 0x40 MSTORE JUMP JUMPDEST PUSH1 0x60 DUP2 ADD SWAP1 DUP2 LT PUSH1 0x1 PUSH1 0x1 PUSH1 0x40 SHL SUB DUP3 GT OR PUSH2 0x1945 JUMPI PUSH1 0x40 MSTORE JUMP JUMPDEST SWAP1 PUSH1 0x1F DUP1 NOT SWAP2 ADD AND DUP2 ADD SWAP1 DUP2 LT PUSH1 0x1 PUSH1 0x1 PUSH1 0x40 SHL SUB DUP3 GT OR PUSH2 0x1945 JUMPI PUSH1 0x40 MSTORE JUMP JUMPDEST PUSH1 0x1 PUSH1 0x1 PUSH1 0x40 SHL SUB DUP2 GT PUSH2 0x1945 JUMPI PUSH1 0x1F ADD PUSH1 0x1F NOT AND PUSH1 0x20 ADD SWAP1 JUMP JUMPDEST PUSH1 0x0 JUMPDEST DUP4 DUP2 LT PUSH2 0x1A4C JUMPI POP POP PUSH1 0x0 SWAP2 ADD MSTORE JUMP JUMPDEST DUP2 DUP2 ADD MLOAD DUP4 DUP3 ADD MSTORE PUSH1 0x20 ADD PUSH2 0x1A3C JUMP JUMPDEST SWAP1 PUSH1 0x20 SWAP2 PUSH2 0x1A75 DUP2 MLOAD DUP1 SWAP3 DUP2 DUP6 MSTORE DUP6 DUP1 DUP7 ADD SWAP2 ADD PUSH2 0x1A39 JUMP JUMPDEST PUSH1 0x1F ADD PUSH1 0x1F NOT AND ADD ADD SWAP1 JUMP JUMPDEST PUSH1 0x1 PUSH1 0x1 PUSH1 0x40 SHL SUB DUP2 GT PUSH2 0x1945 JUMPI PUSH1 0x5 SHL PUSH1 0x20 ADD SWAP1 JUMP JUMPDEST PUSH1 0x40 MLOAD SWAP1 PUSH2 0x1AA5 DUP3 PUSH2 0x192A JUMP JUMPDEST PUSH1 0x60 PUSH1 0xA0 DUP4 PUSH1 0x0 DUP2 MSTORE PUSH1 0x0 PUSH1 0x20 DUP3 ADD MSTORE PUSH1 0x0 PUSH1 0x40 DUP3 ADD MSTORE PUSH1 0x0 DUP4 DUP3 ADD MSTORE PUSH1 0x0 PUSH1 0x80 DUP3 ADD MSTORE ADD MSTORE JUMP JUMPDEST DUP1 MLOAD ISZERO PUSH2 0x1ADA JUMPI PUSH1 0x20 ADD SWAP1 JUMP JUMPDEST PUSH4 0x4E487B71 PUSH1 0xE0 SHL PUSH1 0x0 MSTORE PUSH1 0x32 PUSH1 0x4 MSTORE PUSH1 0x24 PUSH1 0x0 REVERT JUMPDEST DUP1 MLOAD PUSH1 0x1 LT ISZERO PUSH2 0x1ADA JUMPI PUSH1 0x40 ADD SWAP1 JUMP JUMPDEST DUP1 MLOAD PUSH1 0x2 LT ISZERO PUSH2 0x1ADA JUMPI PUSH1 0x60 ADD SWAP1 JUMP JUMPDEST DUP1 MLOAD DUP3 LT ISZERO PUSH2 0x1ADA JUMPI PUSH1 0x20 SWAP2 PUSH1 0x5 SHL ADD ADD SWAP1 JUMP JUMPDEST MLOAD SWAP1 PUSH1 0x1 PUSH1 0x1 PUSH1 0xA0 SHL SUB DUP3 AND DUP3 SUB PUSH2 0x86 JUMPI JUMP JUMPDEST PUSH1 0x0 NOT DUP2 EQ PUSH2 0x1B47 JUMPI PUSH1 0x1 ADD SWAP1 JUMP JUMPDEST PUSH4 0x4E487B71 PUSH1 0xE0 SHL PUSH1 0x0 MSTORE PUSH1 0x11 PUSH1 0x4 MSTORE PUSH1 0x24 PUSH1 0x0 REVERT JUMPDEST MLOAD PUSH1 0x6 DUP2 LT ISZERO PUSH2 0xEA0 JUMPI SWAP1 JUMP JUMPDEST PUSH1 0x40 MLOAD SWAP1 PUSH2 0x1B77 DUP3 PUSH2 0x19AC JUMP JUMPDEST PUSH1 0x0 DUP3 MSTORE PUSH1 0x40 MLOAD PUSH1 0x20 DUP4 PUSH2 0x1B8A DUP4 PUSH2 0x19C7 JUMP JUMPDEST PUSH1 0x0 DUP4 MSTORE ADD MSTORE JUMP JUMPDEST PUSH2 0x1B9A PUSH2 0x1B6A JUMP JUMPDEST POP PUSH2 0x1BA3 PUSH2 0x1B6A JUMP JUMPDEST POP PUSH1 0x0 PUSH1 0x40 MLOAD PUSH2 0x1BB2 DUP2 PUSH2 0x19C7 JUMP JUMPDEST MSTORE PUSH1 0x40 MLOAD PUSH2 0x1BBF DUP2 PUSH2 0x19C7 JUMP JUMPDEST PUSH1 0x0 DUP2 MSTORE PUSH1 0x40 MLOAD SWAP1 PUSH2 0x1BD0 DUP3 PUSH2 0x19AC JUMP JUMPDEST PUSH32 0x0 PUSH1 0x1 PUSH1 0x1 PUSH1 0x80 SHL SUB NOT AND DUP1 DUP4 MSTORE PUSH1 0x20 DUP4 ADD SWAP2 DUP3 MSTORE ISZERO PUSH2 0x1C64 JUMPI MLOAD MLOAD PUSH2 0x1C13 JUMPI SWAP1 JUMP JUMPDEST PUSH1 0x40 MLOAD PUSH3 0x461BCD PUSH1 0xE5 SHL DUP2 MSTORE PUSH1 0x20 PUSH1 0x4 DUP3 ADD MSTORE PUSH1 0x23 PUSH1 0x24 DUP3 ADD MSTORE PUSH32 0x696D706572736F6E6174696F6E206D6F6465206973206E6F7420737570706F72 PUSH1 0x44 DUP3 ADD MSTORE PUSH3 0x1D1959 PUSH1 0xEA SHL PUSH1 0x64 DUP3 ADD MSTORE PUSH1 0x84 SWAP1 REVERT JUMPDEST PUSH1 0x40 MLOAD PUSH3 0x461BCD PUSH1 0xE5 SHL DUP2 MSTORE PUSH1 0x20 PUSH1 0x4 DUP3 ADD MSTORE PUSH1 0x15 PUSH1 0x24 DUP3 ADD MSTORE PUSH21 0x61707049642063616E6E6F7420626520656D707479 PUSH1 0x58 SHL PUSH1 0x44 DUP3 ADD MSTORE PUSH1 0x64 SWAP1 REVERT JUMPDEST MLOAD SWAP1 PUSH1 0x1 PUSH1 0x1 PUSH1 0x80 SHL SUB NOT DUP3 AND DUP3 SUB PUSH2 0x86 JUMPI JUMP JUMPDEST DUP2 PUSH1 0x1F DUP3 ADD SLT ISZERO PUSH2 0x86 JUMPI DUP1 MLOAD PUSH2 0x1CCC DUP2 PUSH2 0x1A1E JUMP JUMPDEST SWAP3 PUSH2 0x1CDA PUSH1 0x40 MLOAD SWAP5 DUP6 PUSH2 0x19FD JUMP JUMPDEST DUP2 DUP5 MSTORE PUSH1 0x20 DUP3 DUP5 ADD ADD GT PUSH2 0x86 JUMPI PUSH2 0x1CF8 SWAP2 PUSH1 0x20 DUP1 DUP6 ADD SWAP2 ADD PUSH2 0x1A39 JUMP JUMPDEST SWAP1 JUMP JUMPDEST MLOAD SWAP1 DUP2 ISZERO ISZERO DUP3 SUB PUSH2 0x86 JUMPI JUMP JUMPDEST SWAP1 PUSH1 0x6 DUP3 LT ISZERO PUSH2 0xEA0 JUMPI MSTORE JUMP JUMPDEST SWAP1 PUSH1 0x5 DUP3 LT ISZERO PUSH2 0xEA0 JUMPI MSTORE JUMP JUMPDEST SWAP1 DUP1 DUP3 MLOAD SWAP1 DUP2 DUP2 MSTORE PUSH1 0x20 DUP1 SWAP2 ADD SWAP3 DUP2 DUP1 DUP5 PUSH1 0x5 SHL DUP4 ADD ADD SWAP6 ADD SWAP4 PUSH1 0x0 SWAP2 JUMPDEST DUP5 DUP4 LT PUSH2 0x1D50 JUMPI POP POP POP POP POP POP SWAP1 JUMP JUMPDEST SWAP1 SWAP2 SWAP3 SWAP4 SWAP5 SWAP6 DUP5 DUP1 PUSH2 0x1DB5 PUSH1 0x1 SWAP4 PUSH1 0x1F NOT DUP7 DUP3 SUB ADD DUP8 MSTORE DUP11 MLOAD PUSH2 0x1D74 DUP3 DUP3 MLOAD PUSH2 0x1D08 JUMP JUMPDEST DUP4 DUP2 ADD MLOAD DUP5 DUP4 ADD MSTORE PUSH1 0x40 DUP1 DUP3 ADD MLOAD ISZERO ISZERO SWAP1 DUP4 ADD MSTORE PUSH1 0x60 DUP1 DUP3 ADD MLOAD ISZERO ISZERO SWAP1 DUP4 ADD MSTORE PUSH1 0x80 DUP1 DUP3 ADD MLOAD ISZERO ISZERO SWAP1 DUP4 ADD MSTORE PUSH1 0xA0 DUP1 SWAP2 ADD MLOAD SWAP2 PUSH1 0xC0 DUP1 SWAP3 DUP3 ADD MSTORE ADD SWAP1 PUSH2 0x1A5C JUMP JUMPDEST SWAP9 ADD SWAP4 ADD SWAP4 ADD SWAP2 SWAP5 SWAP4 SWAP3 SWAP1 PUSH2 0x1D40 JUMP JUMPDEST PUSH2 0x1CF8 SWAP2 PUSH1 0x40 PUSH2 0x1DDE DUP4 MLOAD PUSH1 0x60 DUP5 MSTORE PUSH1 0x60 DUP5 ADD SWAP1 PUSH2 0x1A5C JUMP JUMPDEST SWAP3 PUSH1 0x20 DUP2 ADD MLOAD ISZERO ISZERO PUSH1 0x20 DUP5 ADD MSTORE ADD MLOAD SWAP1 PUSH1 0x40 DUP2 DUP5 SUB SWAP2 ADD MSTORE PUSH2 0x1A5C JUMP JUMPDEST SWAP2 SWAP1 PUSH1 0xC0 DUP4 DUP3 SUB SLT PUSH2 0x86 JUMPI PUSH1 0x40 MLOAD SWAP1 PUSH2 0x1E14 DUP3 PUSH2 0x192A JUMP JUMPDEST DUP2 SWAP4 DUP1 MLOAD PUSH1 0x6 DUP2 LT ISZERO PUSH2 0x86 JUMPI DUP4 MSTORE PUSH1 0x20 DUP2 ADD MLOAD PUSH1 0x20 DUP5 ADD MSTORE PUSH2 0x1E39 PUSH1 0x40 DUP3 ADD PUSH2 0x1CFB JUMP JUMPDEST PUSH1 0x40 DUP5 ADD MSTORE PUSH2 0x1E4A PUSH1 0x60 DUP3 ADD PUSH2 0x1CFB JUMP JUMPDEST PUSH1 0x60 DUP5 ADD MSTORE PUSH2 0x1E5B PUSH1 0x80 DUP3 ADD PUSH2 0x1CFB JUMP JUMPDEST PUSH1 0x80 DUP5 ADD MSTORE PUSH1 0xA0 DUP2 ADD MLOAD SWAP2 PUSH1 0x1 PUSH1 0x1 PUSH1 0x40 SHL SUB DUP4 GT PUSH2 0x86 JUMPI PUSH1 0xA0 SWAP3 PUSH2 0x1E81 SWAP3 ADD PUSH2 0x1CB6 JUMP JUMPDEST SWAP2 ADD MSTORE JUMP JUMPDEST SWAP1 PUSH1 0x20 DUP3 DUP3 SUB SLT PUSH2 0x86 JUMPI DUP2 MLOAD PUSH1 0x1 PUSH1 0x1 PUSH1 0x40 SHL SUB DUP2 GT PUSH2 0x86 JUMPI PUSH2 0x1CF8 SWAP3 ADD PUSH2 0x1DFB JUMP JUMPDEST PUSH1 0x40 MLOAD SWAP1 PUSH2 0x1EB8 DUP3 PUSH2 0x19E2 JUMP JUMPDEST PUSH1 0x60 PUSH1 0x40 DUP4 DUP3 DUP2 MSTORE PUSH1 0x0 PUSH1 0x20 DUP3 ADD MSTORE ADD MSTORE JUMP JUMPDEST SWAP2 SWAP1 PUSH1 0x60 DUP4 DUP3 SUB SLT PUSH2 0x86 JUMPI PUSH1 0x40 MLOAD SWAP1 PUSH2 0x1EE4 DUP3 PUSH2 0x19E2 JUMP JUMPDEST DUP2 SWAP4 DUP1 MLOAD SWAP2 PUSH1 0x1 PUSH1 0x1 PUSH1 0x40 SHL SUB SWAP3 DUP4 DUP2 GT PUSH2 0x86 JUMPI DUP2 PUSH2 0x1F05 SWAP2 DUP5 ADD PUSH2 0x1CB6 JUMP JUMPDEST DUP5 MSTORE PUSH2 0x1F13 PUSH1 0x20 DUP4 ADD PUSH2 0x1CFB JUMP JUMPDEST PUSH1 0x20 DUP6 ADD MSTORE PUSH1 0x40 DUP3 ADD MLOAD SWAP3 DUP4 GT PUSH2 0x86 JUMPI PUSH1 0x40 SWAP3 PUSH2 0x1E81 SWAP3 ADD PUSH2 0x1CB6 JUMP JUMPDEST PUSH1 0x0 DUP1 JUMPDEST PUSH1 0x60 DUP4 ADD DUP1 MLOAD DUP1 MLOAD DUP4 LT ISZERO PUSH2 0x1F9B JUMPI PUSH2 0xE32 DUP4 PUSH2 0x1F51 SWAP3 PUSH2 0x1B10 JUMP JUMPDEST PUSH1 0x6 DUP2 LT ISZERO PUSH2 0x1F87 JUMPI ISZERO PUSH2 0x1F72 JUMPI POP PUSH2 0x1F6B PUSH1 0x60 SWAP2 PUSH2 0x1B38 JUMP JUMPDEST SWAP1 POP PUSH2 0x1F35 JUMP JUMPDEST PUSH1 0x40 SWAP4 POP PUSH2 0x1F81 SWAP3 POP MLOAD PUSH2 0x1B10 JUMP JUMPDEST MLOAD ADD MLOAD SWAP1 JUMP JUMPDEST PUSH4 0x4E487B71 PUSH1 0xE0 SHL DUP5 MSTORE PUSH1 0x21 PUSH1 0x4 MSTORE PUSH1 0x24 DUP5 REVERT JUMPDEST PUSH1 0x40 MLOAD PUSH4 0x267AC2CF PUSH1 0xE0 SHL DUP2 MSTORE PUSH1 0x4 DUP2 ADD DUP6 SWAP1 MSTORE PUSH1 0x24 SWAP1 REVERT JUMPDEST PUSH1 0x0 DUP1 JUMPDEST PUSH1 0x60 DUP4 ADD DUP1 MLOAD DUP1 MLOAD DUP4 LT ISZERO PUSH2 0x1FF7 JUMPI PUSH2 0xE32 DUP4 PUSH2 0x1FD4 SWAP3 PUSH2 0x1B10 JUMP JUMPDEST PUSH1 0x6 DUP2 LT ISZERO PUSH2 0x1F87 JUMPI PUSH1 0x4 EQ PUSH2 0x1F72 JUMPI POP PUSH2 0x1FF0 PUSH1 0x60 SWAP2 PUSH2 0x1B38 JUMP JUMPDEST SWAP1 POP PUSH2 0x1FB8 JUMP JUMPDEST PUSH1 0x40 MLOAD PUSH4 0x267AC2CF PUSH1 0xE0 SHL DUP2 MSTORE PUSH1 0x4 DUP1 DUP3 ADD MSTORE PUSH1 0x24 SWAP1 REVERT JUMPDEST PUSH1 0x0 DUP1 JUMPDEST PUSH1 0x60 DUP4 ADD DUP1 MLOAD DUP1 MLOAD DUP4 LT ISZERO PUSH2 0x2052 JUMPI PUSH2 0xE32 DUP4 PUSH2 0x202F SWAP3 PUSH2 0x1B10 JUMP JUMPDEST PUSH1 0x6 DUP2 LT ISZERO PUSH2 0x1F87 JUMPI PUSH1 0x2 EQ PUSH2 0x1F72 JUMPI POP PUSH2 0x204B PUSH1 0x60 SWAP2 PUSH2 0x1B38 JUMP JUMPDEST SWAP1 POP PUSH2 0x2013 JUMP JUMPDEST PUSH1 0x40 MLOAD PUSH4 0x267AC2CF PUSH1 0xE0 SHL DUP2 MSTORE PUSH1 0x2 PUSH1 0x4 DUP3 ADD MSTORE PUSH1 0x24 SWAP1 REVERT INVALID LOG2 PUSH5 0x6970667358 0x22 SLT KECCAK256 0xCC 0x2F PUSH30 0xFC4834C9B23878DD2FB4F9E62BCDAB1448C88CB3801C362FB32A23721D64 PUSH20 0x6F6C634300081300330000000000000000000000 "},"gasEstimates":{"creation":{"codeDepositCost":"1670600","executionCost":"infinite","totalCost":"infinite"},"external":{"ADDRESSES_PROVIDER_V2()":"202","APP_ID()":"infinite","IS_IMPERSONATION_MODE()":"infinite","SISMO_CONNECT_LIB_VERSION()":"309","appId()":"2376","config()":"infinite","sismoVerify(bytes,address,address)":"infinite"}},"methodIdentifiers":{"ADDRESSES_PROVIDER_V2()":"46916301","APP_ID()":"c187bbc1","IS_IMPERSONATION_MODE()":"a183dc27","SISMO_CONNECT_LIB_VERSION()":"c9512d99","appId()":"80afdea8","config()":"79502c55","sismoVerify(bytes,address,address)":"07c93c8f"}},"storageLayout":{"storage":[{"astId":6,"contract":"contracts/MecenateVerifier.sol:MecenateVerifier","label":"appId","offset":0,"slot":"0","type":"t_bytes16"}],"types":{"t_bytes16":{"encoding":"inplace","label":"bytes16","numberOfBytes":"16"}}},"userdoc":{"kind":"user","methods":{},"version":1}}}}