{"contracts/helpers/SismoConnectLib.sol":{"SismoConnect":{"abi":[{"inputs":[{"components":[{"internalType":"bytes16","name":"appId","type":"bytes16"},{"components":[{"internalType":"bool","name":"isImpersonationMode","type":"bool"}],"internalType":"struct VaultConfig","name":"vault","type":"tuple"}],"internalType":"struct SismoConnectConfig","name":"_config","type":"tuple"}],"stateMutability":"nonpayable","type":"constructor"},{"inputs":[],"name":"ADDRESSES_PROVIDER_V2","outputs":[{"internalType":"contract IAddressesProvider","name":"","type":"address"}],"stateMutability":"view","type":"function"},{"inputs":[],"name":"APP_ID","outputs":[{"internalType":"bytes16","name":"","type":"bytes16"}],"stateMutability":"view","type":"function"},{"inputs":[],"name":"IS_IMPERSONATION_MODE","outputs":[{"internalType":"bool","name":"","type":"bool"}],"stateMutability":"view","type":"function"},{"inputs":[],"name":"SISMO_CONNECT_LIB_VERSION","outputs":[{"internalType":"uint256","name":"","type":"uint256"}],"stateMutability":"view","type":"function"},{"inputs":[],"name":"config","outputs":[{"components":[{"internalType":"bytes16","name":"appId","type":"bytes16"},{"components":[{"internalType":"bool","name":"isImpersonationMode","type":"bool"}],"internalType":"struct VaultConfig","name":"vault","type":"tuple"}],"internalType":"struct SismoConnectConfig","name":"","type":"tuple"}],"stateMutability":"view","type":"function"}],"devdoc":{"kind":"dev","methods":{},"version":1},"evm":{"bytecode":{"linkReferences":{},"object":"610160604090808252346103d557806107a18038038091610020828561040b565b8339810103918083126103d55780516001600160401b0390808301828111828210176103da57835283516001600160801b0319929083811681036103d557825260208096601f1901126103d557835194868601918211868310176103da5786918552015180151581036103d5578452848101938452511691610120928352515115159061014091825280516100b4816103f0565b601981527f7369736d6f436f6e6e65637456657269666965722d76312e320000000000000085820152815190816100f963349f642f60e11b928383526004830161044d565b038683733cd5334eb64ebbd4003b72022cc25465f1bfcee69281845afa9283156103ca576000936103ab575b506001600160a01b039283166080528351610180908890610145816103f0565b601781527f61757468526571756573744275696c6465722d76312e31000000000000000000828201528651809381928783526004830161044d565b0381855afa9081156103665790849160009161038e575b501660a0526101e68785516101ab816103f0565b601881527f636c61696d526571756573744275696c6465722d76312e310000000000000000828201528651809381928783526004830161044d565b0381855afa90811561036657908491600091610371575b501660c05261024c878551610211816103f0565b601581527f7369676e61747572654275696c6465722d76312e310000000000000000000000828201528651809381928783526004830161044d565b0381855afa9081156103665791846102b694928a94600091610349575b501660e05285519161027a836103f0565b601383527f726571756573744275696c6465722d76312e310000000000000000000000000084840152865180958194829383526004830161044d565b03915afa95861561033e5760009661030f575b505061010094168452519161030a9384610497853960805184505060a05184505060c05184505060e0518450505183505051828181608b015261017b0152518160db0152f35b61032f929650803d10610337575b610327818361040b565b81019061042e565b9338806102c9565b503d61031d565b83513d6000823e3d90fd5b6103609150853d871161033757610327818361040b565b38610269565b85513d6000823e3d90fd5b6103889150893d8b1161033757610327818361040b565b386101fd565b6103a59150893d8b1161033757610327818361040b565b38610197565b6103c3919350873d891161033757610327818361040b565b9138610125565b84513d6000823e3d90fd5b600080fd5b634e487b7160e01b600052604160045260246000fd5b604081019081106001600160401b038211176103da57604052565b601f909101601f19168101906001600160401b038211908210176103da57604052565b908160209103126103d557516001600160a01b03811681036103d55790565b6020808252825181830181905290939260005b82811061048257505060409293506000838284010152601f8019910116010190565b81810186015184820160400152850161046056fe60806040818152600436101561001457600080fd5b600091823560e01c90816346916301146102505750806379502c5514610100578063a183dc27146100c4578063c187bbc1146100775763c9512d991461005957600080fd5b346100735781600319360112610073576020905160028152f35b5080fd5b5034610073578160031936011261007357517f00000000000000000000000000000000000000000000000000000000000000006fffffffffffffffffffffffffffffffff19168152602090f35b5034610073578160031936011261007357602090517f000000000000000000000000000000000000000000000000000000000000000015158152f35b50903461024d578060031936011261024d5761011a6102b4565b81815261012561027e565b8281526020809201526101366102b4565b8281528161014261027e565b9184835201528161015161027e565b5261015a61027e565b9182526101656102b4565b916fffffffffffffffffffffffffffffffff19807f00000000000000000000000000000000000000000000000000000000000000001680855283850192835215610211578151516101c157845193511683525151151590820152f35b845162461bcd60e51b815260048101849052602360248201527f696d706572736f6e6174696f6e206d6f6465206973206e6f7420737570706f726044820152621d195960ea1b6064820152608490fd5b845162461bcd60e51b815260048101849052601560248201527461707049642063616e6e6f7420626520656d70747960581b6044820152606490fd5b80fd5b83903461007357816003193601126100735780733cd5334eb64ebbd4003b72022cc25465f1bfcee660209252f35b604051906020820182811067ffffffffffffffff82111761029e57604052565b634e487b7160e01b600052604160045260246000fd5b604051906040820182811067ffffffffffffffff82111761029e5760405256fea2646970667358221220d45ed4cdc20d997e74865439b92ae12469a4e3585acc44d94a0280952ea55b8064736f6c63430008130033","opcodes":"PUSH2 0x160 PUSH1 0x40 SWAP1 DUP1 DUP3 MSTORE CALLVALUE PUSH2 0x3D5 JUMPI DUP1 PUSH2 0x7A1 DUP1 CODESIZE SUB DUP1 SWAP2 PUSH2 0x20 DUP3 DUP6 PUSH2 0x40B JUMP JUMPDEST DUP4 CODECOPY DUP2 ADD SUB SWAP2 DUP1 DUP4 SLT PUSH2 0x3D5 JUMPI DUP1 MLOAD PUSH1 0x1 PUSH1 0x1 PUSH1 0x40 SHL SUB SWAP1 DUP1 DUP4 ADD DUP3 DUP2 GT DUP3 DUP3 LT OR PUSH2 0x3DA JUMPI DUP4 MSTORE DUP4 MLOAD PUSH1 0x1 PUSH1 0x1 PUSH1 0x80 SHL SUB NOT SWAP3 SWAP1 DUP4 DUP2 AND DUP2 SUB PUSH2 0x3D5 JUMPI DUP3 MSTORE PUSH1 0x20 DUP1 SWAP7 PUSH1 0x1F NOT ADD SLT PUSH2 0x3D5 JUMPI DUP4 MLOAD SWAP5 DUP7 DUP7 ADD SWAP2 DUP3 GT DUP7 DUP4 LT OR PUSH2 0x3DA JUMPI DUP7 SWAP2 DUP6 MSTORE ADD MLOAD DUP1 ISZERO ISZERO DUP2 SUB PUSH2 0x3D5 JUMPI DUP5 MSTORE DUP5 DUP2 ADD SWAP4 DUP5 MSTORE MLOAD AND SWAP2 PUSH2 0x120 SWAP3 DUP4 MSTORE MLOAD MLOAD ISZERO ISZERO SWAP1 PUSH2 0x140 SWAP2 DUP3 MSTORE DUP1 MLOAD PUSH2 0xB4 DUP2 PUSH2 0x3F0 JUMP JUMPDEST PUSH1 0x19 DUP2 MSTORE PUSH32 0x7369736D6F436F6E6E65637456657269666965722D76312E3200000000000000 DUP6 DUP3 ADD MSTORE DUP2 MLOAD SWAP1 DUP2 PUSH2 0xF9 PUSH4 0x349F642F PUSH1 0xE1 SHL SWAP3 DUP4 DUP4 MSTORE PUSH1 0x4 DUP4 ADD PUSH2 0x44D JUMP JUMPDEST SUB DUP7 DUP4 PUSH20 0x3CD5334EB64EBBD4003B72022CC25465F1BFCEE6 SWAP3 DUP2 DUP5 GAS STATICCALL SWAP3 DUP4 ISZERO PUSH2 0x3CA JUMPI PUSH1 0x0 SWAP4 PUSH2 0x3AB JUMPI JUMPDEST POP PUSH1 0x1 PUSH1 0x1 PUSH1 0xA0 SHL SUB SWAP3 DUP4 AND PUSH1 0x80 MSTORE DUP4 MLOAD PUSH2 0x180 SWAP1 DUP9 SWAP1 PUSH2 0x145 DUP2 PUSH2 0x3F0 JUMP JUMPDEST PUSH1 0x17 DUP2 MSTORE PUSH32 0x61757468526571756573744275696C6465722D76312E31000000000000000000 DUP3 DUP3 ADD MSTORE DUP7 MLOAD DUP1 SWAP4 DUP2 SWAP3 DUP8 DUP4 MSTORE PUSH1 0x4 DUP4 ADD PUSH2 0x44D JUMP JUMPDEST SUB DUP2 DUP6 GAS STATICCALL SWAP1 DUP2 ISZERO PUSH2 0x366 JUMPI SWAP1 DUP5 SWAP2 PUSH1 0x0 SWAP2 PUSH2 0x38E JUMPI JUMPDEST POP AND PUSH1 0xA0 MSTORE PUSH2 0x1E6 DUP8 DUP6 MLOAD PUSH2 0x1AB DUP2 PUSH2 0x3F0 JUMP JUMPDEST PUSH1 0x18 DUP2 MSTORE PUSH32 0x636C61696D526571756573744275696C6465722D76312E310000000000000000 DUP3 DUP3 ADD MSTORE DUP7 MLOAD DUP1 SWAP4 DUP2 SWAP3 DUP8 DUP4 MSTORE PUSH1 0x4 DUP4 ADD PUSH2 0x44D JUMP JUMPDEST SUB DUP2 DUP6 GAS STATICCALL SWAP1 DUP2 ISZERO PUSH2 0x366 JUMPI SWAP1 DUP5 SWAP2 PUSH1 0x0 SWAP2 PUSH2 0x371 JUMPI JUMPDEST POP AND PUSH1 0xC0 MSTORE PUSH2 0x24C DUP8 DUP6 MLOAD PUSH2 0x211 DUP2 PUSH2 0x3F0 JUMP JUMPDEST PUSH1 0x15 DUP2 MSTORE PUSH32 0x7369676E61747572654275696C6465722D76312E310000000000000000000000 DUP3 DUP3 ADD MSTORE DUP7 MLOAD DUP1 SWAP4 DUP2 SWAP3 DUP8 DUP4 MSTORE PUSH1 0x4 DUP4 ADD PUSH2 0x44D JUMP JUMPDEST SUB DUP2 DUP6 GAS STATICCALL SWAP1 DUP2 ISZERO PUSH2 0x366 JUMPI SWAP2 DUP5 PUSH2 0x2B6 SWAP5 SWAP3 DUP11 SWAP5 PUSH1 0x0 SWAP2 PUSH2 0x349 JUMPI JUMPDEST POP AND PUSH1 0xE0 MSTORE DUP6 MLOAD SWAP2 PUSH2 0x27A DUP4 PUSH2 0x3F0 JUMP JUMPDEST PUSH1 0x13 DUP4 MSTORE PUSH32 0x726571756573744275696C6465722D76312E3100000000000000000000000000 DUP5 DUP5 ADD MSTORE DUP7 MLOAD DUP1 SWAP6 DUP2 SWAP5 DUP3 SWAP4 DUP4 MSTORE PUSH1 0x4 DUP4 ADD PUSH2 0x44D JUMP JUMPDEST SUB SWAP2 GAS STATICCALL SWAP6 DUP7 ISZERO PUSH2 0x33E JUMPI PUSH1 0x0 SWAP7 PUSH2 0x30F JUMPI JUMPDEST POP POP PUSH2 0x100 SWAP5 AND DUP5 MSTORE MLOAD SWAP2 PUSH2 0x30A SWAP4 DUP5 PUSH2 0x497 DUP6 CODECOPY PUSH1 0x80 MLOAD DUP5 POP POP PUSH1 0xA0 MLOAD DUP5 POP POP PUSH1 0xC0 MLOAD DUP5 POP POP PUSH1 0xE0 MLOAD DUP5 POP POP MLOAD DUP4 POP POP MLOAD DUP3 DUP2 DUP2 PUSH1 0x8B ADD MSTORE PUSH2 0x17B ADD MSTORE MLOAD DUP2 PUSH1 0xDB ADD MSTORE RETURN JUMPDEST PUSH2 0x32F SWAP3 SWAP7 POP DUP1 RETURNDATASIZE LT PUSH2 0x337 JUMPI JUMPDEST PUSH2 0x327 DUP2 DUP4 PUSH2 0x40B JUMP JUMPDEST DUP2 ADD SWAP1 PUSH2 0x42E JUMP JUMPDEST SWAP4 CODESIZE DUP1 PUSH2 0x2C9 JUMP JUMPDEST POP RETURNDATASIZE PUSH2 0x31D JUMP JUMPDEST DUP4 MLOAD RETURNDATASIZE PUSH1 0x0 DUP3 RETURNDATACOPY RETURNDATASIZE SWAP1 REVERT JUMPDEST PUSH2 0x360 SWAP2 POP DUP6 RETURNDATASIZE DUP8 GT PUSH2 0x337 JUMPI PUSH2 0x327 DUP2 DUP4 PUSH2 0x40B JUMP JUMPDEST CODESIZE PUSH2 0x269 JUMP JUMPDEST DUP6 MLOAD RETURNDATASIZE PUSH1 0x0 DUP3 RETURNDATACOPY RETURNDATASIZE SWAP1 REVERT JUMPDEST PUSH2 0x388 SWAP2 POP DUP10 RETURNDATASIZE DUP12 GT PUSH2 0x337 JUMPI PUSH2 0x327 DUP2 DUP4 PUSH2 0x40B JUMP JUMPDEST CODESIZE PUSH2 0x1FD JUMP JUMPDEST PUSH2 0x3A5 SWAP2 POP DUP10 RETURNDATASIZE DUP12 GT PUSH2 0x337 JUMPI PUSH2 0x327 DUP2 DUP4 PUSH2 0x40B JUMP JUMPDEST CODESIZE PUSH2 0x197 JUMP JUMPDEST PUSH2 0x3C3 SWAP2 SWAP4 POP DUP8 RETURNDATASIZE DUP10 GT PUSH2 0x337 JUMPI PUSH2 0x327 DUP2 DUP4 PUSH2 0x40B JUMP JUMPDEST SWAP2 CODESIZE PUSH2 0x125 JUMP JUMPDEST DUP5 MLOAD RETURNDATASIZE PUSH1 0x0 DUP3 RETURNDATACOPY RETURNDATASIZE SWAP1 REVERT JUMPDEST PUSH1 0x0 DUP1 REVERT JUMPDEST PUSH4 0x4E487B71 PUSH1 0xE0 SHL PUSH1 0x0 MSTORE PUSH1 0x41 PUSH1 0x4 MSTORE PUSH1 0x24 PUSH1 0x0 REVERT JUMPDEST PUSH1 0x40 DUP2 ADD SWAP1 DUP2 LT PUSH1 0x1 PUSH1 0x1 PUSH1 0x40 SHL SUB DUP3 GT OR PUSH2 0x3DA JUMPI PUSH1 0x40 MSTORE JUMP JUMPDEST PUSH1 0x1F SWAP1 SWAP2 ADD PUSH1 0x1F NOT AND DUP2 ADD SWAP1 PUSH1 0x1 PUSH1 0x1 PUSH1 0x40 SHL SUB DUP3 GT SWAP1 DUP3 LT OR PUSH2 0x3DA JUMPI PUSH1 0x40 MSTORE JUMP JUMPDEST SWAP1 DUP2 PUSH1 0x20 SWAP2 SUB SLT PUSH2 0x3D5 JUMPI MLOAD PUSH1 0x1 PUSH1 0x1 PUSH1 0xA0 SHL SUB DUP2 AND DUP2 SUB PUSH2 0x3D5 JUMPI SWAP1 JUMP JUMPDEST PUSH1 0x20 DUP1 DUP3 MSTORE DUP3 MLOAD DUP2 DUP4 ADD DUP2 SWAP1 MSTORE SWAP1 SWAP4 SWAP3 PUSH1 0x0 JUMPDEST DUP3 DUP2 LT PUSH2 0x482 JUMPI POP POP PUSH1 0x40 SWAP3 SWAP4 POP PUSH1 0x0 DUP4 DUP3 DUP5 ADD ADD MSTORE PUSH1 0x1F DUP1 NOT SWAP2 ADD AND ADD ADD SWAP1 JUMP JUMPDEST DUP2 DUP2 ADD DUP7 ADD MLOAD DUP5 DUP3 ADD PUSH1 0x40 ADD MSTORE DUP6 ADD PUSH2 0x460 JUMP INVALID PUSH1 0x80 PUSH1 0x40 DUP2 DUP2 MSTORE PUSH1 0x4 CALLDATASIZE LT ISZERO PUSH2 0x14 JUMPI PUSH1 0x0 DUP1 REVERT JUMPDEST PUSH1 0x0 SWAP2 DUP3 CALLDATALOAD PUSH1 0xE0 SHR SWAP1 DUP2 PUSH4 0x46916301 EQ PUSH2 0x250 JUMPI POP DUP1 PUSH4 0x79502C55 EQ PUSH2 0x100 JUMPI DUP1 PUSH4 0xA183DC27 EQ PUSH2 0xC4 JUMPI DUP1 PUSH4 0xC187BBC1 EQ PUSH2 0x77 JUMPI PUSH4 0xC9512D99 EQ PUSH2 0x59 JUMPI PUSH1 0x0 DUP1 REVERT JUMPDEST CALLVALUE PUSH2 0x73 JUMPI DUP2 PUSH1 0x3 NOT CALLDATASIZE ADD SLT PUSH2 0x73 JUMPI PUSH1 0x20 SWAP1 MLOAD PUSH1 0x2 DUP2 MSTORE RETURN JUMPDEST POP DUP1 REVERT JUMPDEST POP CALLVALUE PUSH2 0x73 JUMPI DUP2 PUSH1 0x3 NOT CALLDATASIZE ADD SLT PUSH2 0x73 JUMPI MLOAD PUSH32 0x0 PUSH16 0xFFFFFFFFFFFFFFFFFFFFFFFFFFFFFFFF NOT AND DUP2 MSTORE PUSH1 0x20 SWAP1 RETURN JUMPDEST POP CALLVALUE PUSH2 0x73 JUMPI DUP2 PUSH1 0x3 NOT CALLDATASIZE ADD SLT PUSH2 0x73 JUMPI PUSH1 0x20 SWAP1 MLOAD PUSH32 0x0 ISZERO ISZERO DUP2 MSTORE RETURN JUMPDEST POP SWAP1 CALLVALUE PUSH2 0x24D JUMPI DUP1 PUSH1 0x3 NOT CALLDATASIZE ADD SLT PUSH2 0x24D JUMPI PUSH2 0x11A PUSH2 0x2B4 JUMP JUMPDEST DUP2 DUP2 MSTORE PUSH2 0x125 PUSH2 0x27E JUMP JUMPDEST DUP3 DUP2 MSTORE PUSH1 0x20 DUP1 SWAP3 ADD MSTORE PUSH2 0x136 PUSH2 0x2B4 JUMP JUMPDEST DUP3 DUP2 MSTORE DUP2 PUSH2 0x142 PUSH2 0x27E JUMP JUMPDEST SWAP2 DUP5 DUP4 MSTORE ADD MSTORE DUP2 PUSH2 0x151 PUSH2 0x27E JUMP JUMPDEST MSTORE PUSH2 0x15A PUSH2 0x27E JUMP JUMPDEST SWAP2 DUP3 MSTORE PUSH2 0x165 PUSH2 0x2B4 JUMP JUMPDEST SWAP2 PUSH16 0xFFFFFFFFFFFFFFFFFFFFFFFFFFFFFFFF NOT DUP1 PUSH32 0x0 AND DUP1 DUP6 MSTORE DUP4 DUP6 ADD SWAP3 DUP4 MSTORE ISZERO PUSH2 0x211 JUMPI DUP2 MLOAD MLOAD PUSH2 0x1C1 JUMPI DUP5 MLOAD SWAP4 MLOAD AND DUP4 MSTORE MLOAD MLOAD ISZERO ISZERO SWAP1 DUP3 ADD MSTORE RETURN JUMPDEST DUP5 MLOAD PUSH3 0x461BCD PUSH1 0xE5 SHL DUP2 MSTORE PUSH1 0x4 DUP2 ADD DUP5 SWAP1 MSTORE PUSH1 0x23 PUSH1 0x24 DUP3 ADD MSTORE PUSH32 0x696D706572736F6E6174696F6E206D6F6465206973206E6F7420737570706F72 PUSH1 0x44 DUP3 ADD MSTORE PUSH3 0x1D1959 PUSH1 0xEA SHL PUSH1 0x64 DUP3 ADD MSTORE PUSH1 0x84 SWAP1 REVERT JUMPDEST DUP5 MLOAD PUSH3 0x461BCD PUSH1 0xE5 SHL DUP2 MSTORE PUSH1 0x4 DUP2 ADD DUP5 SWAP1 MSTORE PUSH1 0x15 PUSH1 0x24 DUP3 ADD MSTORE PUSH21 0x61707049642063616E6E6F7420626520656D707479 PUSH1 0x58 SHL PUSH1 0x44 DUP3 ADD MSTORE PUSH1 0x64 SWAP1 REVERT JUMPDEST DUP1 REVERT JUMPDEST DUP4 SWAP1 CALLVALUE PUSH2 0x73 JUMPI DUP2 PUSH1 0x3 NOT CALLDATASIZE ADD SLT PUSH2 0x73 JUMPI DUP1 PUSH20 0x3CD5334EB64EBBD4003B72022CC25465F1BFCEE6 PUSH1 0x20 SWAP3 MSTORE RETURN JUMPDEST PUSH1 0x40 MLOAD SWAP1 PUSH1 0x20 DUP3 ADD DUP3 DUP2 LT PUSH8 0xFFFFFFFFFFFFFFFF DUP3 GT OR PUSH2 0x29E JUMPI PUSH1 0x40 MSTORE JUMP JUMPDEST PUSH4 0x4E487B71 PUSH1 0xE0 SHL PUSH1 0x0 MSTORE PUSH1 0x41 PUSH1 0x4 MSTORE PUSH1 0x24 PUSH1 0x0 REVERT JUMPDEST PUSH1 0x40 MLOAD SWAP1 PUSH1 0x40 DUP3 ADD DUP3 DUP2 LT PUSH8 0xFFFFFFFFFFFFFFFF DUP3 GT OR PUSH2 0x29E JUMPI PUSH1 0x40 MSTORE JUMP INVALID LOG2 PUSH5 0x6970667358 0x22 SLT KECCAK256 0xD4 0x5E 0xD4 0xCD 0xC2 0xD SWAP10 PUSH31 0x74865439B92AE12469A4E3585ACC44D94A0280952EA55B8064736F6C634300 ADDMOD SGT STOP CALLER "},"gasEstimates":{"creation":{"codeDepositCost":"155600","executionCost":"infinite","totalCost":"infinite"},"external":{"ADDRESSES_PROVIDER_V2()":"165","APP_ID()":"infinite","IS_IMPERSONATION_MODE()":"infinite","SISMO_CONNECT_LIB_VERSION()":"249","config()":"infinite"},"internal":{"_GET_EMPTY_SIGNATURE_REQUEST()":"infinite","buildAuth(enum AuthType)":"infinite","buildAuth(enum AuthType,bool,bool)":"infinite","buildConfig(bytes16)":"infinite","buildRequest(struct AuthRequest memory[] memory,struct SignatureRequest memory)":"infinite","buildSignature(bytes memory)":"infinite","buildVaultConfig()":"infinite","verify(bytes memory,struct AuthRequest memory[] memory,struct SignatureRequest memory)":"infinite"}},"methodIdentifiers":{"ADDRESSES_PROVIDER_V2()":"46916301","APP_ID()":"c187bbc1","IS_IMPERSONATION_MODE()":"a183dc27","SISMO_CONNECT_LIB_VERSION()":"c9512d99","config()":"79502c55"}},"storageLayout":{"storage":[],"types":null},"userdoc":{"kind":"user","methods":{},"version":1}}}}