{"contracts/helpers/utils/AuthRequestBuilder.sol":{"AuthRequestBuilder":{"abi":[{"inputs":[],"name":"InvalidUserIdAndAuthType","type":"error"},{"inputs":[],"name":"InvalidUserIdAndIsSelectableByUserAuthType","type":"error"},{"inputs":[],"name":"DEFAULT_AUTH_REQUEST_EXTRA_DATA","outputs":[{"internalType":"bytes","name":"","type":"bytes"}],"stateMutability":"view","type":"function"},{"inputs":[],"name":"DEFAULT_AUTH_REQUEST_IS_ANON","outputs":[{"internalType":"bool","name":"","type":"bool"}],"stateMutability":"view","type":"function"},{"inputs":[],"name":"DEFAULT_AUTH_REQUEST_IS_OPTIONAL","outputs":[{"internalType":"bool","name":"","type":"bool"}],"stateMutability":"view","type":"function"},{"inputs":[],"name":"DEFAULT_AUTH_REQUEST_USER_ID","outputs":[{"internalType":"uint256","name":"","type":"uint256"}],"stateMutability":"view","type":"function"},{"inputs":[{"internalType":"enum AuthType","name":"authType","type":"uint8"},{"internalType":"bool","name":"isAnon","type":"bool"},{"internalType":"bytes","name":"extraData","type":"bytes"}],"name":"build","outputs":[{"components":[{"internalType":"enum AuthType","name":"authType","type":"uint8"},{"internalType":"uint256","name":"userId","type":"uint256"},{"internalType":"bool","name":"isAnon","type":"bool"},{"internalType":"bool","name":"isOptional","type":"bool"},{"internalType":"bool","name":"isSelectableByUser","type":"bool"},{"internalType":"bytes","name":"extraData","type":"bytes"}],"internalType":"struct AuthRequest","name":"","type":"tuple"}],"stateMutability":"pure","type":"function"},{"inputs":[{"internalType":"enum AuthType","name":"authType","type":"uint8"},{"internalType":"bool","name":"isAnon","type":"bool"}],"name":"build","outputs":[{"components":[{"internalType":"enum AuthType","name":"authType","type":"uint8"},{"internalType":"uint256","name":"userId","type":"uint256"},{"internalType":"bool","name":"isAnon","type":"bool"},{"internalType":"bool","name":"isOptional","type":"bool"},{"internalType":"bool","name":"isSelectableByUser","type":"bool"},{"internalType":"bytes","name":"extraData","type":"bytes"}],"internalType":"struct AuthRequest","name":"","type":"tuple"}],"stateMutability":"pure","type":"function"},{"inputs":[{"internalType":"enum AuthType","name":"authType","type":"uint8"},{"internalType":"bool","name":"isAnon","type":"bool"},{"internalType":"bool","name":"isOptional","type":"bool"},{"internalType":"bool","name":"isSelectableByUser","type":"bool"}],"name":"build","outputs":[{"components":[{"internalType":"enum AuthType","name":"authType","type":"uint8"},{"internalType":"uint256","name":"userId","type":"uint256"},{"internalType":"bool","name":"isAnon","type":"bool"},{"internalType":"bool","name":"isOptional","type":"bool"},{"internalType":"bool","name":"isSelectableByUser","type":"bool"},{"internalType":"bytes","name":"extraData","type":"bytes"}],"internalType":"struct AuthRequest","name":"","type":"tuple"}],"stateMutability":"pure","type":"function"},{"inputs":[{"internalType":"enum AuthType","name":"authType","type":"uint8"},{"internalType":"bool","name":"isOptional","type":"bool"},{"internalType":"bool","name":"isSelectableByUser","type":"bool"},{"internalType":"uint256","name":"userId","type":"uint256"}],"name":"build","outputs":[{"components":[{"internalType":"enum AuthType","name":"authType","type":"uint8"},{"internalType":"uint256","name":"userId","type":"uint256"},{"internalType":"bool","name":"isAnon","type":"bool"},{"internalType":"bool","name":"isOptional","type":"bool"},{"internalType":"bool","name":"isSelectableByUser","type":"bool"},{"internalType":"bytes","name":"extraData","type":"bytes"}],"internalType":"struct AuthRequest","name":"","type":"tuple"}],"stateMutability":"pure","type":"function"},{"inputs":[{"internalType":"enum AuthType","name":"authType","type":"uint8"}],"name":"build","outputs":[{"components":[{"internalType":"enum AuthType","name":"authType","type":"uint8"},{"internalType":"uint256","name":"userId","type":"uint256"},{"internalType":"bool","name":"isAnon","type":"bool"},{"internalType":"bool","name":"isOptional","type":"bool"},{"internalType":"bool","name":"isSelectableByUser","type":"bool"},{"internalType":"bytes","name":"extraData","type":"bytes"}],"internalType":"struct AuthRequest","name":"","type":"tuple"}],"stateMutability":"pure","type":"function"},{"inputs":[{"internalType":"enum AuthType","name":"authType","type":"uint8"},{"internalType":"uint256","name":"userId","type":"uint256"},{"internalType":"bool","name":"isOptional","type":"bool"}],"name":"build","outputs":[{"components":[{"internalType":"enum AuthType","name":"authType","type":"uint8"},{"internalType":"uint256","name":"userId","type":"uint256"},{"internalType":"bool","name":"isAnon","type":"bool"},{"internalType":"bool","name":"isOptional","type":"bool"},{"internalType":"bool","name":"isSelectableByUser","type":"bool"},{"internalType":"bytes","name":"extraData","type":"bytes"}],"internalType":"struct AuthRequest","name":"","type":"tuple"}],"stateMutability":"pure","type":"function"},{"inputs":[{"internalType":"enum AuthType","name":"authType","type":"uint8"},{"internalType":"uint256","name":"userId","type":"uint256"}],"name":"build","outputs":[{"components":[{"internalType":"enum AuthType","name":"authType","type":"uint8"},{"internalType":"uint256","name":"userId","type":"uint256"},{"internalType":"bool","name":"isAnon","type":"bool"},{"internalType":"bool","name":"isOptional","type":"bool"},{"internalType":"bool","name":"isSelectableByUser","type":"bool"},{"internalType":"bytes","name":"extraData","type":"bytes"}],"internalType":"struct AuthRequest","name":"","type":"tuple"}],"stateMutability":"pure","type":"function"},{"inputs":[{"internalType":"enum AuthType","name":"authType","type":"uint8"},{"internalType":"bytes","name":"extraData","type":"bytes"}],"name":"build","outputs":[{"components":[{"internalType":"enum AuthType","name":"authType","type":"uint8"},{"internalType":"uint256","name":"userId","type":"uint256"},{"internalType":"bool","name":"isAnon","type":"bool"},{"internalType":"bool","name":"isOptional","type":"bool"},{"internalType":"bool","name":"isSelectableByUser","type":"bool"},{"internalType":"bytes","name":"extraData","type":"bytes"}],"internalType":"struct AuthRequest","name":"","type":"tuple"}],"stateMutability":"pure","type":"function"},{"inputs":[{"internalType":"enum AuthType","name":"authType","type":"uint8"},{"internalType":"bool","name":"isAnon","type":"bool"},{"internalType":"uint256","name":"userId","type":"uint256"}],"name":"build","outputs":[{"components":[{"internalType":"enum AuthType","name":"authType","type":"uint8"},{"internalType":"uint256","name":"userId","type":"uint256"},{"internalType":"bool","name":"isAnon","type":"bool"},{"internalType":"bool","name":"isOptional","type":"bool"},{"internalType":"bool","name":"isSelectableByUser","type":"bool"},{"internalType":"bytes","name":"extraData","type":"bytes"}],"internalType":"struct AuthRequest","name":"","type":"tuple"}],"stateMutability":"pure","type":"function"},{"inputs":[{"internalType":"enum AuthType","name":"authType","type":"uint8"},{"internalType":"bool","name":"isAnon","type":"bool"},{"internalType":"uint256","name":"userId","type":"uint256"},{"internalType":"bool","name":"isOptional","type":"bool"}],"name":"build","outputs":[{"components":[{"internalType":"enum AuthType","name":"authType","type":"uint8"},{"internalType":"uint256","name":"userId","type":"uint256"},{"internalType":"bool","name":"isAnon","type":"bool"},{"internalType":"bool","name":"isOptional","type":"bool"},{"internalType":"bool","name":"isSelectableByUser","type":"bool"},{"internalType":"bytes","name":"extraData","type":"bytes"}],"internalType":"struct AuthRequest","name":"","type":"tuple"}],"stateMutability":"pure","type":"function"},{"inputs":[{"internalType":"enum AuthType","name":"authType","type":"uint8"},{"internalType":"bool","name":"isAnon","type":"bool"},{"internalType":"uint256","name":"userId","type":"uint256"},{"internalType":"bool","name":"isOptional","type":"bool"},{"internalType":"bool","name":"isSelectableByUser","type":"bool"},{"internalType":"bytes","name":"extraData","type":"bytes"}],"name":"build","outputs":[{"components":[{"internalType":"enum AuthType","name":"authType","type":"uint8"},{"internalType":"uint256","name":"userId","type":"uint256"},{"internalType":"bool","name":"isAnon","type":"bool"},{"internalType":"bool","name":"isOptional","type":"bool"},{"internalType":"bool","name":"isSelectableByUser","type":"bool"},{"internalType":"bytes","name":"extraData","type":"bytes"}],"internalType":"struct AuthRequest","name":"","type":"tuple"}],"stateMutability":"pure","type":"function"},{"inputs":[{"internalType":"enum AuthType","name":"authType","type":"uint8"},{"internalType":"uint256","name":"userId","type":"uint256"},{"internalType":"bytes","name":"extraData","type":"bytes"}],"name":"build","outputs":[{"components":[{"internalType":"enum AuthType","name":"authType","type":"uint8"},{"internalType":"uint256","name":"userId","type":"uint256"},{"internalType":"bool","name":"isAnon","type":"bool"},{"internalType":"bool","name":"isOptional","type":"bool"},{"internalType":"bool","name":"isSelectableByUser","type":"bool"},{"internalType":"bytes","name":"extraData","type":"bytes"}],"internalType":"struct AuthRequest","name":"","type":"tuple"}],"stateMutability":"pure","type":"function"},{"inputs":[{"internalType":"enum AuthType","name":"authType","type":"uint8"},{"internalType":"bool","name":"isAnon","type":"bool"},{"internalType":"uint256","name":"userId","type":"uint256"},{"internalType":"bytes","name":"extraData","type":"bytes"}],"name":"build","outputs":[{"components":[{"internalType":"enum AuthType","name":"authType","type":"uint8"},{"internalType":"uint256","name":"userId","type":"uint256"},{"internalType":"bool","name":"isAnon","type":"bool"},{"internalType":"bool","name":"isOptional","type":"bool"},{"internalType":"bool","name":"isSelectableByUser","type":"bool"},{"internalType":"bytes","name":"extraData","type":"bytes"}],"internalType":"struct AuthRequest","name":"","type":"tuple"}],"stateMutability":"pure","type":"function"},{"inputs":[{"internalType":"enum AuthType","name":"authType","type":"uint8"},{"internalType":"bool","name":"isOptional","type":"bool"},{"internalType":"bool","name":"isSelectableByUser","type":"bool"}],"name":"build","outputs":[{"components":[{"internalType":"enum AuthType","name":"authType","type":"uint8"},{"internalType":"uint256","name":"userId","type":"uint256"},{"internalType":"bool","name":"isAnon","type":"bool"},{"internalType":"bool","name":"isOptional","type":"bool"},{"internalType":"bool","name":"isSelectableByUser","type":"bool"},{"internalType":"bytes","name":"extraData","type":"bytes"}],"internalType":"struct AuthRequest","name":"","type":"tuple"}],"stateMutability":"pure","type":"function"}],"devdoc":{"kind":"dev","methods":{},"version":1},"evm":{"bytecode":{"linkReferences":{},"object":"6080806040523461001657610d45908161001c8239f35b600080fdfe6040608081526004908136101561001557600080fd5b600090813560e01c80631967e5101461079c5780631a88fb281461073957806320c90199146106e1578063291884ae146105f15780633049e4f11461059e5780633a0ba6ff1461055d5780633ca1531a146104ff578063448324ea146104e557806345c13083146104b2578063498a992e146104ad578063515591901461046a5780636746dd2c146104025780638b9dba71146103b5578063916d93c71461034f5780639aa01be1146102d3578063af4f63961461025c578063c355a32c146101d85763c3bcacd0146100e757600080fd5b346101d45760603660031901126101d45782359160068310156101d15761010c6107bd565b6101146107cc565b9061011d610957565b50610126610820565b92808452610132610957565b5085158015806101c9575b806101c1575b6101b157806101aa575b806101a2575b6101925761018e96506101646107ea565b95865280602087015284860152151560608501521515608084015260a083015251918291826108e3565b0390f35b8451637fb1693d60e01b81528790fd5b508215610153565b508061014d565b85516301972ecd60e11b81528890fd5b508315610143565b50600161013d565b80fd5b5080fd5b5090346101d15760803660031901126101d15782359060068210156101d1576101ff6107bd565b93604435916064359067ffffffffffffffff82116101d157509161022e610251949261018e9794369101610840565b92610237610957565b50610240610957565b5061024b8284610cf2565b92610bcb565b9051918291826108e3565b5082346102cf5760603660031901126102cf5780359060068210156102cb57602435936044359067ffffffffffffffff82116101d15750916102a861018e959261025194369101610840565b916102b1610957565b506102ba610957565b506102c58183610cf2565b91610b44565b8380fd5b8280fd5b5090346101d15760c03660031901126101d15782359260068410156101d4576102fa6107bd565b936103036107db565b916084359384151585036101d15760a4359067ffffffffffffffff82116101d157509161033c61018e9794926102519694369101610840565b93610345610957565b5060443591610c52565b5082346102cf5760803660031901126102cf573560068110156102cf5761018e926102519161037c6107bd565b6044356103876107db565b91610390610957565b50610399610820565b9485526103a4610957565b506103af8285610cf2565b93610c52565b5082346102cf5760603660031901126102cf573560068110156102cf5761018e92610251916103e26107bd565b604435906103ee610957565b506103f7610820565b938452610240610957565b5082346102cf57816003193601126102cf5780359260068410156101d1576024359067ffffffffffffffff82116101d15750926104486102519261018e95369101610840565b90610451610957565b5061045a610957565b5061046481610cda565b90610abd565b5082346102cf57816003193601126102cf573560068110156102cf5761018e9261025191602435610499610957565b506104a2610820565b9283526102ba610957565b61079c565b50346101d457816003193601126101d4579061018e916104d0610820565b918252519182916020835260208301906108a3565b50346101d457816003193601126101d45751908152602090f35b5082346102cf5760603660031901126102cf573560068110156102cf5761018e926102519160243561052f6107cc565b90610538610957565b50610541610820565b93845261054c610957565b506105578184610cf2565b92610a35565b5082346102cf5760203660031901126102cf573560068110156102cf5761018e926102519161058a610957565b50610593610820565b91825261045a610957565b5082346102cf5760803660031901126102cf573560068110156102cf5761018e92610251916105cb6107bd565b6105d36107cc565b916105dc610957565b506105e5610820565b93845260643590610a35565b50346101d45760803660031901126101d45782359160068310156101d1576106176107bd565b61061f6107cc565b6106276107db565b91610630610957565b50610639610820565b93808552610645610957565b5086158015806106d9575b806106d1575b6106c157806106ba575b806106b2575b6106a25761018e97506106776107ea565b9687526020870152151584860152151560608501521515608084015260a083015251918291826108e3565b8551637fb1693d60e01b81528890fd5b508315610666565b5080610660565b86516301972ecd60e11b81528990fd5b508415610656565b506001610650565b5082346102cf57816003193601126102cf573560068110156102cf5761018e926102519161070d6107bd565b610715610957565b5061071e610820565b928352610729610957565b5061073382610cda565b91610989565b5082346102cf5760603660031901126102cf5780359060068210156102cb576107606107bd565b936044359067ffffffffffffffff82116101d157509161078a61018e959261025194369101610840565b91610793610957565b50610729610957565b346107b85760003660031901126107b857602060405160008152f35b600080fd5b6024359081151582036107b857565b6044359081151582036107b857565b6064359081151582036107b857565b6040519060c0820182811067ffffffffffffffff82111761080a57604052565b634e487b7160e01b600052604160045260246000fd5b604051906020820182811067ffffffffffffffff82111761080a57604052565b81601f820112156107b85780359067ffffffffffffffff9283831161080a5760405193601f8401601f19908116603f011685019081118582101761080a57604052828452602083830101116107b857816000926020809301838601378301015290565b919082519283825260005b8481106108cf575050826000602080949584010152601f8019910116010190565b6020818301810151848301820152016108ae565b6020815281519160068310156109415760a060e09161093e94602085015260208101516040850152604081015115156060850152606081015115156080850152608081015115158285015201519160c08082015201906108a3565b90565b634e487b7160e01b600052602160045260246000fd5b61095f6107ea565b906000825260006020830152600060408301526000606083015260006080830152606060a0830152565b929190610994610957565b506006841015610941578315801580610a2d575b80610a25575b610a135780610a0b575b80610a03575b6109f1576109ca6107ea565b9384526000602085015215156040840152600060608401521515608083015260a082015290565b604051637fb1693d60e01b8152600490fd5b5081156109be565b5060006109b8565b6040516301972ecd60e11b8152600490fd5b5082156109ae565b5060016109a8565b93929190610a41610957565b506006851015610941578415801580610ab5575b80610aad575b610a135780610aa4575b80610a9c575b6109f157610a776107ea565b948552602085015260006040850152151560608401521515608083015260a082015290565b508215610a6b565b50801515610a65565b508315610a5b565b508115610a55565b9190610ac7610957565b506006831015610941578215801580610b3c575b80610b34575b610a135780610b2c575b80610b24575b6109f157610afd6107ea565b9283526000602084015260006040840152600060608401521515608083015260a082015290565b508015610af1565b506000610aeb565b508115610ae1565b506001610adb565b929190610b4f610957565b506006841015610941578315801580610bc3575b80610bbb575b610a135780610bb2575b80610baa575b6109f157610b856107ea565b938452602084015260006040840152600060608401521515608083015260a082015290565b508115610b79565b50801515610b73565b508215610b69565b508115610b63565b939291610bd6610957565b506006851015610941578415801580610c4a575b80610c42575b610a135780610c39575b80610c31575b6109f157610c0c6107ea565b948552602085015215156040840152600060608401521515608083015260a082015290565b508215610c00565b50801515610bfa565b508315610bf0565b508115610bea565b94939291610c5e610957565b506006861015610941578515801580610cd2575b80610cca575b610a135780610cc1575b80610cb9575b6109f157610c946107ea565b958652602086015215156040850152151560608401521515608083015260a082015290565b508315610c88565b50801515610c82565b508415610c78565b508115610c72565b60068110156109415715610ced57600190565b600090565b60068110156109415715610d0957610ced57600190565b5060009056fea2646970667358221220e4fdb3e63b9673ab9a074a3880d4f9838ff91a5ecbe71ab969b3d4930b1445c164736f6c63430008130033","opcodes":"PUSH1 0x80 DUP1 PUSH1 0x40 MSTORE CALLVALUE PUSH2 0x16 JUMPI PUSH2 0xD45 SWAP1 DUP2 PUSH2 0x1C DUP3 CODECOPY RETURN JUMPDEST PUSH1 0x0 DUP1 REVERT INVALID PUSH1 0x40 PUSH1 0x80 DUP2 MSTORE PUSH1 0x4 SWAP1 DUP2 CALLDATASIZE LT ISZERO PUSH2 0x15 JUMPI PUSH1 0x0 DUP1 REVERT JUMPDEST PUSH1 0x0 SWAP1 DUP2 CALLDATALOAD PUSH1 0xE0 SHR DUP1 PUSH4 0x1967E510 EQ PUSH2 0x79C JUMPI DUP1 PUSH4 0x1A88FB28 EQ PUSH2 0x739 JUMPI DUP1 PUSH4 0x20C90199 EQ PUSH2 0x6E1 JUMPI DUP1 PUSH4 0x291884AE EQ PUSH2 0x5F1 JUMPI DUP1 PUSH4 0x3049E4F1 EQ PUSH2 0x59E JUMPI DUP1 PUSH4 0x3A0BA6FF EQ PUSH2 0x55D JUMPI DUP1 PUSH4 0x3CA1531A EQ PUSH2 0x4FF JUMPI DUP1 PUSH4 0x448324EA EQ PUSH2 0x4E5 JUMPI DUP1 PUSH4 0x45C13083 EQ PUSH2 0x4B2 JUMPI DUP1 PUSH4 0x498A992E EQ PUSH2 0x4AD JUMPI DUP1 PUSH4 0x51559190 EQ PUSH2 0x46A JUMPI DUP1 PUSH4 0x6746DD2C EQ PUSH2 0x402 JUMPI DUP1 PUSH4 0x8B9DBA71 EQ PUSH2 0x3B5 JUMPI DUP1 PUSH4 0x916D93C7 EQ PUSH2 0x34F JUMPI DUP1 PUSH4 0x9AA01BE1 EQ PUSH2 0x2D3 JUMPI DUP1 PUSH4 0xAF4F6396 EQ PUSH2 0x25C JUMPI DUP1 PUSH4 0xC355A32C EQ PUSH2 0x1D8 JUMPI PUSH4 0xC3BCACD0 EQ PUSH2 0xE7 JUMPI PUSH1 0x0 DUP1 REVERT JUMPDEST CALLVALUE PUSH2 0x1D4 JUMPI PUSH1 0x60 CALLDATASIZE PUSH1 0x3 NOT ADD SLT PUSH2 0x1D4 JUMPI DUP3 CALLDATALOAD SWAP2 PUSH1 0x6 DUP4 LT ISZERO PUSH2 0x1D1 JUMPI PUSH2 0x10C PUSH2 0x7BD JUMP JUMPDEST PUSH2 0x114 PUSH2 0x7CC JUMP JUMPDEST SWAP1 PUSH2 0x11D PUSH2 0x957 JUMP JUMPDEST POP PUSH2 0x126 PUSH2 0x820 JUMP JUMPDEST SWAP3 DUP1 DUP5 MSTORE PUSH2 0x132 PUSH2 0x957 JUMP JUMPDEST POP DUP6 ISZERO DUP1 ISZERO DUP1 PUSH2 0x1C9 JUMPI JUMPDEST DUP1 PUSH2 0x1C1 JUMPI JUMPDEST PUSH2 0x1B1 JUMPI DUP1 PUSH2 0x1AA JUMPI JUMPDEST DUP1 PUSH2 0x1A2 JUMPI JUMPDEST PUSH2 0x192 JUMPI PUSH2 0x18E SWAP7 POP PUSH2 0x164 PUSH2 0x7EA JUMP JUMPDEST SWAP6 DUP7 MSTORE DUP1 PUSH1 0x20 DUP8 ADD MSTORE DUP5 DUP7 ADD MSTORE ISZERO ISZERO PUSH1 0x60 DUP6 ADD MSTORE ISZERO ISZERO PUSH1 0x80 DUP5 ADD MSTORE PUSH1 0xA0 DUP4 ADD MSTORE MLOAD SWAP2 DUP3 SWAP2 DUP3 PUSH2 0x8E3 JUMP JUMPDEST SUB SWAP1 RETURN JUMPDEST DUP5 MLOAD PUSH4 0x7FB1693D PUSH1 0xE0 SHL DUP2 MSTORE DUP8 SWAP1 REVERT JUMPDEST POP DUP3 ISZERO PUSH2 0x153 JUMP JUMPDEST POP DUP1 PUSH2 0x14D JUMP JUMPDEST DUP6 MLOAD PUSH4 0x1972ECD PUSH1 0xE1 SHL DUP2 MSTORE DUP9 SWAP1 REVERT JUMPDEST POP DUP4 ISZERO PUSH2 0x143 JUMP JUMPDEST POP PUSH1 0x1 PUSH2 0x13D JUMP JUMPDEST DUP1 REVERT JUMPDEST POP DUP1 REVERT JUMPDEST POP SWAP1 CALLVALUE PUSH2 0x1D1 JUMPI PUSH1 0x80 CALLDATASIZE PUSH1 0x3 NOT ADD SLT PUSH2 0x1D1 JUMPI DUP3 CALLDATALOAD SWAP1 PUSH1 0x6 DUP3 LT ISZERO PUSH2 0x1D1 JUMPI PUSH2 0x1FF PUSH2 0x7BD JUMP JUMPDEST SWAP4 PUSH1 0x44 CALLDATALOAD SWAP2 PUSH1 0x64 CALLDATALOAD SWAP1 PUSH8 0xFFFFFFFFFFFFFFFF DUP3 GT PUSH2 0x1D1 JUMPI POP SWAP2 PUSH2 0x22E PUSH2 0x251 SWAP5 SWAP3 PUSH2 0x18E SWAP8 SWAP5 CALLDATASIZE SWAP2 ADD PUSH2 0x840 JUMP JUMPDEST SWAP3 PUSH2 0x237 PUSH2 0x957 JUMP JUMPDEST POP PUSH2 0x240 PUSH2 0x957 JUMP JUMPDEST POP PUSH2 0x24B DUP3 DUP5 PUSH2 0xCF2 JUMP JUMPDEST SWAP3 PUSH2 0xBCB JUMP JUMPDEST SWAP1 MLOAD SWAP2 DUP3 SWAP2 DUP3 PUSH2 0x8E3 JUMP JUMPDEST POP DUP3 CALLVALUE PUSH2 0x2CF JUMPI PUSH1 0x60 CALLDATASIZE PUSH1 0x3 NOT ADD SLT PUSH2 0x2CF JUMPI DUP1 CALLDATALOAD SWAP1 PUSH1 0x6 DUP3 LT ISZERO PUSH2 0x2CB JUMPI PUSH1 0x24 CALLDATALOAD SWAP4 PUSH1 0x44 CALLDATALOAD SWAP1 PUSH8 0xFFFFFFFFFFFFFFFF DUP3 GT PUSH2 0x1D1 JUMPI POP SWAP2 PUSH2 0x2A8 PUSH2 0x18E SWAP6 SWAP3 PUSH2 0x251 SWAP5 CALLDATASIZE SWAP2 ADD PUSH2 0x840 JUMP JUMPDEST SWAP2 PUSH2 0x2B1 PUSH2 0x957 JUMP JUMPDEST POP PUSH2 0x2BA PUSH2 0x957 JUMP JUMPDEST POP PUSH2 0x2C5 DUP2 DUP4 PUSH2 0xCF2 JUMP JUMPDEST SWAP2 PUSH2 0xB44 JUMP JUMPDEST DUP4 DUP1 REVERT JUMPDEST DUP3 DUP1 REVERT JUMPDEST POP SWAP1 CALLVALUE PUSH2 0x1D1 JUMPI PUSH1 0xC0 CALLDATASIZE PUSH1 0x3 NOT ADD SLT PUSH2 0x1D1 JUMPI DUP3 CALLDATALOAD SWAP3 PUSH1 0x6 DUP5 LT ISZERO PUSH2 0x1D4 JUMPI PUSH2 0x2FA PUSH2 0x7BD JUMP JUMPDEST SWAP4 PUSH2 0x303 PUSH2 0x7DB JUMP JUMPDEST SWAP2 PUSH1 0x84 CALLDATALOAD SWAP4 DUP5 ISZERO ISZERO DUP6 SUB PUSH2 0x1D1 JUMPI PUSH1 0xA4 CALLDATALOAD SWAP1 PUSH8 0xFFFFFFFFFFFFFFFF DUP3 GT PUSH2 0x1D1 JUMPI POP SWAP2 PUSH2 0x33C PUSH2 0x18E SWAP8 SWAP5 SWAP3 PUSH2 0x251 SWAP7 SWAP5 CALLDATASIZE SWAP2 ADD PUSH2 0x840 JUMP JUMPDEST SWAP4 PUSH2 0x345 PUSH2 0x957 JUMP JUMPDEST POP PUSH1 0x44 CALLDATALOAD SWAP2 PUSH2 0xC52 JUMP JUMPDEST POP DUP3 CALLVALUE PUSH2 0x2CF JUMPI PUSH1 0x80 CALLDATASIZE PUSH1 0x3 NOT ADD SLT PUSH2 0x2CF JUMPI CALLDATALOAD PUSH1 0x6 DUP2 LT ISZERO PUSH2 0x2CF JUMPI PUSH2 0x18E SWAP3 PUSH2 0x251 SWAP2 PUSH2 0x37C PUSH2 0x7BD JUMP JUMPDEST PUSH1 0x44 CALLDATALOAD PUSH2 0x387 PUSH2 0x7DB JUMP JUMPDEST SWAP2 PUSH2 0x390 PUSH2 0x957 JUMP JUMPDEST POP PUSH2 0x399 PUSH2 0x820 JUMP JUMPDEST SWAP5 DUP6 MSTORE PUSH2 0x3A4 PUSH2 0x957 JUMP JUMPDEST POP PUSH2 0x3AF DUP3 DUP6 PUSH2 0xCF2 JUMP JUMPDEST SWAP4 PUSH2 0xC52 JUMP JUMPDEST POP DUP3 CALLVALUE PUSH2 0x2CF JUMPI PUSH1 0x60 CALLDATASIZE PUSH1 0x3 NOT ADD SLT PUSH2 0x2CF JUMPI CALLDATALOAD PUSH1 0x6 DUP2 LT ISZERO PUSH2 0x2CF JUMPI PUSH2 0x18E SWAP3 PUSH2 0x251 SWAP2 PUSH2 0x3E2 PUSH2 0x7BD JUMP JUMPDEST PUSH1 0x44 CALLDATALOAD SWAP1 PUSH2 0x3EE PUSH2 0x957 JUMP JUMPDEST POP PUSH2 0x3F7 PUSH2 0x820 JUMP JUMPDEST SWAP4 DUP5 MSTORE PUSH2 0x240 PUSH2 0x957 JUMP JUMPDEST POP DUP3 CALLVALUE PUSH2 0x2CF JUMPI DUP2 PUSH1 0x3 NOT CALLDATASIZE ADD SLT PUSH2 0x2CF JUMPI DUP1 CALLDATALOAD SWAP3 PUSH1 0x6 DUP5 LT ISZERO PUSH2 0x1D1 JUMPI PUSH1 0x24 CALLDATALOAD SWAP1 PUSH8 0xFFFFFFFFFFFFFFFF DUP3 GT PUSH2 0x1D1 JUMPI POP SWAP3 PUSH2 0x448 PUSH2 0x251 SWAP3 PUSH2 0x18E SWAP6 CALLDATASIZE SWAP2 ADD PUSH2 0x840 JUMP JUMPDEST SWAP1 PUSH2 0x451 PUSH2 0x957 JUMP JUMPDEST POP PUSH2 0x45A PUSH2 0x957 JUMP JUMPDEST POP PUSH2 0x464 DUP2 PUSH2 0xCDA JUMP JUMPDEST SWAP1 PUSH2 0xABD JUMP JUMPDEST POP DUP3 CALLVALUE PUSH2 0x2CF JUMPI DUP2 PUSH1 0x3 NOT CALLDATASIZE ADD SLT PUSH2 0x2CF JUMPI CALLDATALOAD PUSH1 0x6 DUP2 LT ISZERO PUSH2 0x2CF JUMPI PUSH2 0x18E SWAP3 PUSH2 0x251 SWAP2 PUSH1 0x24 CALLDATALOAD PUSH2 0x499 PUSH2 0x957 JUMP JUMPDEST POP PUSH2 0x4A2 PUSH2 0x820 JUMP JUMPDEST SWAP3 DUP4 MSTORE PUSH2 0x2BA PUSH2 0x957 JUMP JUMPDEST PUSH2 0x79C JUMP JUMPDEST POP CALLVALUE PUSH2 0x1D4 JUMPI DUP2 PUSH1 0x3 NOT CALLDATASIZE ADD SLT PUSH2 0x1D4 JUMPI SWAP1 PUSH2 0x18E SWAP2 PUSH2 0x4D0 PUSH2 0x820 JUMP JUMPDEST SWAP2 DUP3 MSTORE MLOAD SWAP2 DUP3 SWAP2 PUSH1 0x20 DUP4 MSTORE PUSH1 0x20 DUP4 ADD SWAP1 PUSH2 0x8A3 JUMP JUMPDEST POP CALLVALUE PUSH2 0x1D4 JUMPI DUP2 PUSH1 0x3 NOT CALLDATASIZE ADD SLT PUSH2 0x1D4 JUMPI MLOAD SWAP1 DUP2 MSTORE PUSH1 0x20 SWAP1 RETURN JUMPDEST POP DUP3 CALLVALUE PUSH2 0x2CF JUMPI PUSH1 0x60 CALLDATASIZE PUSH1 0x3 NOT ADD SLT PUSH2 0x2CF JUMPI CALLDATALOAD PUSH1 0x6 DUP2 LT ISZERO PUSH2 0x2CF JUMPI PUSH2 0x18E SWAP3 PUSH2 0x251 SWAP2 PUSH1 0x24 CALLDATALOAD PUSH2 0x52F PUSH2 0x7CC JUMP JUMPDEST SWAP1 PUSH2 0x538 PUSH2 0x957 JUMP JUMPDEST POP PUSH2 0x541 PUSH2 0x820 JUMP JUMPDEST SWAP4 DUP5 MSTORE PUSH2 0x54C PUSH2 0x957 JUMP JUMPDEST POP PUSH2 0x557 DUP2 DUP5 PUSH2 0xCF2 JUMP JUMPDEST SWAP3 PUSH2 0xA35 JUMP JUMPDEST POP DUP3 CALLVALUE PUSH2 0x2CF JUMPI PUSH1 0x20 CALLDATASIZE PUSH1 0x3 NOT ADD SLT PUSH2 0x2CF JUMPI CALLDATALOAD PUSH1 0x6 DUP2 LT ISZERO PUSH2 0x2CF JUMPI PUSH2 0x18E SWAP3 PUSH2 0x251 SWAP2 PUSH2 0x58A PUSH2 0x957 JUMP JUMPDEST POP PUSH2 0x593 PUSH2 0x820 JUMP JUMPDEST SWAP2 DUP3 MSTORE PUSH2 0x45A PUSH2 0x957 JUMP JUMPDEST POP DUP3 CALLVALUE PUSH2 0x2CF JUMPI PUSH1 0x80 CALLDATASIZE PUSH1 0x3 NOT ADD SLT PUSH2 0x2CF JUMPI CALLDATALOAD PUSH1 0x6 DUP2 LT ISZERO PUSH2 0x2CF JUMPI PUSH2 0x18E SWAP3 PUSH2 0x251 SWAP2 PUSH2 0x5CB PUSH2 0x7BD JUMP JUMPDEST PUSH2 0x5D3 PUSH2 0x7CC JUMP JUMPDEST SWAP2 PUSH2 0x5DC PUSH2 0x957 JUMP JUMPDEST POP PUSH2 0x5E5 PUSH2 0x820 JUMP JUMPDEST SWAP4 DUP5 MSTORE PUSH1 0x64 CALLDATALOAD SWAP1 PUSH2 0xA35 JUMP JUMPDEST POP CALLVALUE PUSH2 0x1D4 JUMPI PUSH1 0x80 CALLDATASIZE PUSH1 0x3 NOT ADD SLT PUSH2 0x1D4 JUMPI DUP3 CALLDATALOAD SWAP2 PUSH1 0x6 DUP4 LT ISZERO PUSH2 0x1D1 JUMPI PUSH2 0x617 PUSH2 0x7BD JUMP JUMPDEST PUSH2 0x61F PUSH2 0x7CC JUMP JUMPDEST PUSH2 0x627 PUSH2 0x7DB JUMP JUMPDEST SWAP2 PUSH2 0x630 PUSH2 0x957 JUMP JUMPDEST POP PUSH2 0x639 PUSH2 0x820 JUMP JUMPDEST SWAP4 DUP1 DUP6 MSTORE PUSH2 0x645 PUSH2 0x957 JUMP JUMPDEST POP DUP7 ISZERO DUP1 ISZERO DUP1 PUSH2 0x6D9 JUMPI JUMPDEST DUP1 PUSH2 0x6D1 JUMPI JUMPDEST PUSH2 0x6C1 JUMPI DUP1 PUSH2 0x6BA JUMPI JUMPDEST DUP1 PUSH2 0x6B2 JUMPI JUMPDEST PUSH2 0x6A2 JUMPI PUSH2 0x18E SWAP8 POP PUSH2 0x677 PUSH2 0x7EA JUMP JUMPDEST SWAP7 DUP8 MSTORE PUSH1 0x20 DUP8 ADD MSTORE ISZERO ISZERO DUP5 DUP7 ADD MSTORE ISZERO ISZERO PUSH1 0x60 DUP6 ADD MSTORE ISZERO ISZERO PUSH1 0x80 DUP5 ADD MSTORE PUSH1 0xA0 DUP4 ADD MSTORE MLOAD SWAP2 DUP3 SWAP2 DUP3 PUSH2 0x8E3 JUMP JUMPDEST DUP6 MLOAD PUSH4 0x7FB1693D PUSH1 0xE0 SHL DUP2 MSTORE DUP9 SWAP1 REVERT JUMPDEST POP DUP4 ISZERO PUSH2 0x666 JUMP JUMPDEST POP DUP1 PUSH2 0x660 JUMP JUMPDEST DUP7 MLOAD PUSH4 0x1972ECD PUSH1 0xE1 SHL DUP2 MSTORE DUP10 SWAP1 REVERT JUMPDEST POP DUP5 ISZERO PUSH2 0x656 JUMP JUMPDEST POP PUSH1 0x1 PUSH2 0x650 JUMP JUMPDEST POP DUP3 CALLVALUE PUSH2 0x2CF JUMPI DUP2 PUSH1 0x3 NOT CALLDATASIZE ADD SLT PUSH2 0x2CF JUMPI CALLDATALOAD PUSH1 0x6 DUP2 LT ISZERO PUSH2 0x2CF JUMPI PUSH2 0x18E SWAP3 PUSH2 0x251 SWAP2 PUSH2 0x70D PUSH2 0x7BD JUMP JUMPDEST PUSH2 0x715 PUSH2 0x957 JUMP JUMPDEST POP PUSH2 0x71E PUSH2 0x820 JUMP JUMPDEST SWAP3 DUP4 MSTORE PUSH2 0x729 PUSH2 0x957 JUMP JUMPDEST POP PUSH2 0x733 DUP3 PUSH2 0xCDA JUMP JUMPDEST SWAP2 PUSH2 0x989 JUMP JUMPDEST POP DUP3 CALLVALUE PUSH2 0x2CF JUMPI PUSH1 0x60 CALLDATASIZE PUSH1 0x3 NOT ADD SLT PUSH2 0x2CF JUMPI DUP1 CALLDATALOAD SWAP1 PUSH1 0x6 DUP3 LT ISZERO PUSH2 0x2CB JUMPI PUSH2 0x760 PUSH2 0x7BD JUMP JUMPDEST SWAP4 PUSH1 0x44 CALLDATALOAD SWAP1 PUSH8 0xFFFFFFFFFFFFFFFF DUP3 GT PUSH2 0x1D1 JUMPI POP SWAP2 PUSH2 0x78A PUSH2 0x18E SWAP6 SWAP3 PUSH2 0x251 SWAP5 CALLDATASIZE SWAP2 ADD PUSH2 0x840 JUMP JUMPDEST SWAP2 PUSH2 0x793 PUSH2 0x957 JUMP JUMPDEST POP PUSH2 0x729 PUSH2 0x957 JUMP JUMPDEST CALLVALUE PUSH2 0x7B8 JUMPI PUSH1 0x0 CALLDATASIZE PUSH1 0x3 NOT ADD SLT PUSH2 0x7B8 JUMPI PUSH1 0x20 PUSH1 0x40 MLOAD PUSH1 0x0 DUP2 MSTORE RETURN JUMPDEST PUSH1 0x0 DUP1 REVERT JUMPDEST PUSH1 0x24 CALLDATALOAD SWAP1 DUP2 ISZERO ISZERO DUP3 SUB PUSH2 0x7B8 JUMPI JUMP JUMPDEST PUSH1 0x44 CALLDATALOAD SWAP1 DUP2 ISZERO ISZERO DUP3 SUB PUSH2 0x7B8 JUMPI JUMP JUMPDEST PUSH1 0x64 CALLDATALOAD SWAP1 DUP2 ISZERO ISZERO DUP3 SUB PUSH2 0x7B8 JUMPI JUMP JUMPDEST PUSH1 0x40 MLOAD SWAP1 PUSH1 0xC0 DUP3 ADD DUP3 DUP2 LT PUSH8 0xFFFFFFFFFFFFFFFF DUP3 GT OR PUSH2 0x80A JUMPI PUSH1 0x40 MSTORE JUMP JUMPDEST PUSH4 0x4E487B71 PUSH1 0xE0 SHL PUSH1 0x0 MSTORE PUSH1 0x41 PUSH1 0x4 MSTORE PUSH1 0x24 PUSH1 0x0 REVERT JUMPDEST PUSH1 0x40 MLOAD SWAP1 PUSH1 0x20 DUP3 ADD DUP3 DUP2 LT PUSH8 0xFFFFFFFFFFFFFFFF DUP3 GT OR PUSH2 0x80A JUMPI PUSH1 0x40 MSTORE JUMP JUMPDEST DUP2 PUSH1 0x1F DUP3 ADD SLT ISZERO PUSH2 0x7B8 JUMPI DUP1 CALLDATALOAD SWAP1 PUSH8 0xFFFFFFFFFFFFFFFF SWAP3 DUP4 DUP4 GT PUSH2 0x80A JUMPI PUSH1 0x40 MLOAD SWAP4 PUSH1 0x1F DUP5 ADD PUSH1 0x1F NOT SWAP1 DUP2 AND PUSH1 0x3F ADD AND DUP6 ADD SWAP1 DUP2 GT DUP6 DUP3 LT OR PUSH2 0x80A JUMPI PUSH1 0x40 MSTORE DUP3 DUP5 MSTORE PUSH1 0x20 DUP4 DUP4 ADD ADD GT PUSH2 0x7B8 JUMPI DUP2 PUSH1 0x0 SWAP3 PUSH1 0x20 DUP1 SWAP4 ADD DUP4 DUP7 ADD CALLDATACOPY DUP4 ADD ADD MSTORE SWAP1 JUMP JUMPDEST SWAP2 SWAP1 DUP3 MLOAD SWAP3 DUP4 DUP3 MSTORE PUSH1 0x0 JUMPDEST DUP5 DUP2 LT PUSH2 0x8CF JUMPI POP POP DUP3 PUSH1 0x0 PUSH1 0x20 DUP1 SWAP5 SWAP6 DUP5 ADD ADD MSTORE PUSH1 0x1F DUP1 NOT SWAP2 ADD AND ADD ADD SWAP1 JUMP JUMPDEST PUSH1 0x20 DUP2 DUP4 ADD DUP2 ADD MLOAD DUP5 DUP4 ADD DUP3 ADD MSTORE ADD PUSH2 0x8AE JUMP JUMPDEST PUSH1 0x20 DUP2 MSTORE DUP2 MLOAD SWAP2 PUSH1 0x6 DUP4 LT ISZERO PUSH2 0x941 JUMPI PUSH1 0xA0 PUSH1 0xE0 SWAP2 PUSH2 0x93E SWAP5 PUSH1 0x20 DUP6 ADD MSTORE PUSH1 0x20 DUP2 ADD MLOAD PUSH1 0x40 DUP6 ADD MSTORE PUSH1 0x40 DUP2 ADD MLOAD ISZERO ISZERO PUSH1 0x60 DUP6 ADD MSTORE PUSH1 0x60 DUP2 ADD MLOAD ISZERO ISZERO PUSH1 0x80 DUP6 ADD MSTORE PUSH1 0x80 DUP2 ADD MLOAD ISZERO ISZERO DUP3 DUP6 ADD MSTORE ADD MLOAD SWAP2 PUSH1 0xC0 DUP1 DUP3 ADD MSTORE ADD SWAP1 PUSH2 0x8A3 JUMP JUMPDEST SWAP1 JUMP JUMPDEST PUSH4 0x4E487B71 PUSH1 0xE0 SHL PUSH1 0x0 MSTORE PUSH1 0x21 PUSH1 0x4 MSTORE PUSH1 0x24 PUSH1 0x0 REVERT JUMPDEST PUSH2 0x95F PUSH2 0x7EA JUMP JUMPDEST SWAP1 PUSH1 0x0 DUP3 MSTORE PUSH1 0x0 PUSH1 0x20 DUP4 ADD MSTORE PUSH1 0x0 PUSH1 0x40 DUP4 ADD MSTORE PUSH1 0x0 PUSH1 0x60 DUP4 ADD MSTORE PUSH1 0x0 PUSH1 0x80 DUP4 ADD MSTORE PUSH1 0x60 PUSH1 0xA0 DUP4 ADD MSTORE JUMP JUMPDEST SWAP3 SWAP2 SWAP1 PUSH2 0x994 PUSH2 0x957 JUMP JUMPDEST POP PUSH1 0x6 DUP5 LT ISZERO PUSH2 0x941 JUMPI DUP4 ISZERO DUP1 ISZERO DUP1 PUSH2 0xA2D JUMPI JUMPDEST DUP1 PUSH2 0xA25 JUMPI JUMPDEST PUSH2 0xA13 JUMPI DUP1 PUSH2 0xA0B JUMPI JUMPDEST DUP1 PUSH2 0xA03 JUMPI JUMPDEST PUSH2 0x9F1 JUMPI PUSH2 0x9CA PUSH2 0x7EA JUMP JUMPDEST SWAP4 DUP5 MSTORE PUSH1 0x0 PUSH1 0x20 DUP6 ADD MSTORE ISZERO ISZERO PUSH1 0x40 DUP5 ADD MSTORE PUSH1 0x0 PUSH1 0x60 DUP5 ADD MSTORE ISZERO ISZERO PUSH1 0x80 DUP4 ADD MSTORE PUSH1 0xA0 DUP3 ADD MSTORE SWAP1 JUMP JUMPDEST PUSH1 0x40 MLOAD PUSH4 0x7FB1693D PUSH1 0xE0 SHL DUP2 MSTORE PUSH1 0x4 SWAP1 REVERT JUMPDEST POP DUP2 ISZERO PUSH2 0x9BE JUMP JUMPDEST POP PUSH1 0x0 PUSH2 0x9B8 JUMP JUMPDEST PUSH1 0x40 MLOAD PUSH4 0x1972ECD PUSH1 0xE1 SHL DUP2 MSTORE PUSH1 0x4 SWAP1 REVERT JUMPDEST POP DUP3 ISZERO PUSH2 0x9AE JUMP JUMPDEST POP PUSH1 0x1 PUSH2 0x9A8 JUMP JUMPDEST SWAP4 SWAP3 SWAP2 SWAP1 PUSH2 0xA41 PUSH2 0x957 JUMP JUMPDEST POP PUSH1 0x6 DUP6 LT ISZERO PUSH2 0x941 JUMPI DUP5 ISZERO DUP1 ISZERO DUP1 PUSH2 0xAB5 JUMPI JUMPDEST DUP1 PUSH2 0xAAD JUMPI JUMPDEST PUSH2 0xA13 JUMPI DUP1 PUSH2 0xAA4 JUMPI JUMPDEST DUP1 PUSH2 0xA9C JUMPI JUMPDEST PUSH2 0x9F1 JUMPI PUSH2 0xA77 PUSH2 0x7EA JUMP JUMPDEST SWAP5 DUP6 MSTORE PUSH1 0x20 DUP6 ADD MSTORE PUSH1 0x0 PUSH1 0x40 DUP6 ADD MSTORE ISZERO ISZERO PUSH1 0x60 DUP5 ADD MSTORE ISZERO ISZERO PUSH1 0x80 DUP4 ADD MSTORE PUSH1 0xA0 DUP3 ADD MSTORE SWAP1 JUMP JUMPDEST POP DUP3 ISZERO PUSH2 0xA6B JUMP JUMPDEST POP DUP1 ISZERO ISZERO PUSH2 0xA65 JUMP JUMPDEST POP DUP4 ISZERO PUSH2 0xA5B JUMP JUMPDEST POP DUP2 ISZERO PUSH2 0xA55 JUMP JUMPDEST SWAP2 SWAP1 PUSH2 0xAC7 PUSH2 0x957 JUMP JUMPDEST POP PUSH1 0x6 DUP4 LT ISZERO PUSH2 0x941 JUMPI DUP3 ISZERO DUP1 ISZERO DUP1 PUSH2 0xB3C JUMPI JUMPDEST DUP1 PUSH2 0xB34 JUMPI JUMPDEST PUSH2 0xA13 JUMPI DUP1 PUSH2 0xB2C JUMPI JUMPDEST DUP1 PUSH2 0xB24 JUMPI JUMPDEST PUSH2 0x9F1 JUMPI PUSH2 0xAFD PUSH2 0x7EA JUMP JUMPDEST SWAP3 DUP4 MSTORE PUSH1 0x0 PUSH1 0x20 DUP5 ADD MSTORE PUSH1 0x0 PUSH1 0x40 DUP5 ADD MSTORE PUSH1 0x0 PUSH1 0x60 DUP5 ADD MSTORE ISZERO ISZERO PUSH1 0x80 DUP4 ADD MSTORE PUSH1 0xA0 DUP3 ADD MSTORE SWAP1 JUMP JUMPDEST POP DUP1 ISZERO PUSH2 0xAF1 JUMP JUMPDEST POP PUSH1 0x0 PUSH2 0xAEB JUMP JUMPDEST POP DUP2 ISZERO PUSH2 0xAE1 JUMP JUMPDEST POP PUSH1 0x1 PUSH2 0xADB JUMP JUMPDEST SWAP3 SWAP2 SWAP1 PUSH2 0xB4F PUSH2 0x957 JUMP JUMPDEST POP PUSH1 0x6 DUP5 LT ISZERO PUSH2 0x941 JUMPI DUP4 ISZERO DUP1 ISZERO DUP1 PUSH2 0xBC3 JUMPI JUMPDEST DUP1 PUSH2 0xBBB JUMPI JUMPDEST PUSH2 0xA13 JUMPI DUP1 PUSH2 0xBB2 JUMPI JUMPDEST DUP1 PUSH2 0xBAA JUMPI JUMPDEST PUSH2 0x9F1 JUMPI PUSH2 0xB85 PUSH2 0x7EA JUMP JUMPDEST SWAP4 DUP5 MSTORE PUSH1 0x20 DUP5 ADD MSTORE PUSH1 0x0 PUSH1 0x40 DUP5 ADD MSTORE PUSH1 0x0 PUSH1 0x60 DUP5 ADD MSTORE ISZERO ISZERO PUSH1 0x80 DUP4 ADD MSTORE PUSH1 0xA0 DUP3 ADD MSTORE SWAP1 JUMP JUMPDEST POP DUP2 ISZERO PUSH2 0xB79 JUMP JUMPDEST POP DUP1 ISZERO ISZERO PUSH2 0xB73 JUMP JUMPDEST POP DUP3 ISZERO PUSH2 0xB69 JUMP JUMPDEST POP DUP2 ISZERO PUSH2 0xB63 JUMP JUMPDEST SWAP4 SWAP3 SWAP2 PUSH2 0xBD6 PUSH2 0x957 JUMP JUMPDEST POP PUSH1 0x6 DUP6 LT ISZERO PUSH2 0x941 JUMPI DUP5 ISZERO DUP1 ISZERO DUP1 PUSH2 0xC4A JUMPI JUMPDEST DUP1 PUSH2 0xC42 JUMPI JUMPDEST PUSH2 0xA13 JUMPI DUP1 PUSH2 0xC39 JUMPI JUMPDEST DUP1 PUSH2 0xC31 JUMPI JUMPDEST PUSH2 0x9F1 JUMPI PUSH2 0xC0C PUSH2 0x7EA JUMP JUMPDEST SWAP5 DUP6 MSTORE PUSH1 0x20 DUP6 ADD MSTORE ISZERO ISZERO PUSH1 0x40 DUP5 ADD MSTORE PUSH1 0x0 PUSH1 0x60 DUP5 ADD MSTORE ISZERO ISZERO PUSH1 0x80 DUP4 ADD MSTORE PUSH1 0xA0 DUP3 ADD MSTORE SWAP1 JUMP JUMPDEST POP DUP3 ISZERO PUSH2 0xC00 JUMP JUMPDEST POP DUP1 ISZERO ISZERO PUSH2 0xBFA JUMP JUMPDEST POP DUP4 ISZERO PUSH2 0xBF0 JUMP JUMPDEST POP DUP2 ISZERO PUSH2 0xBEA JUMP JUMPDEST SWAP5 SWAP4 SWAP3 SWAP2 PUSH2 0xC5E PUSH2 0x957 JUMP JUMPDEST POP PUSH1 0x6 DUP7 LT ISZERO PUSH2 0x941 JUMPI DUP6 ISZERO DUP1 ISZERO DUP1 PUSH2 0xCD2 JUMPI JUMPDEST DUP1 PUSH2 0xCCA JUMPI JUMPDEST PUSH2 0xA13 JUMPI DUP1 PUSH2 0xCC1 JUMPI JUMPDEST DUP1 PUSH2 0xCB9 JUMPI JUMPDEST PUSH2 0x9F1 JUMPI PUSH2 0xC94 PUSH2 0x7EA JUMP JUMPDEST SWAP6 DUP7 MSTORE PUSH1 0x20 DUP7 ADD MSTORE ISZERO ISZERO PUSH1 0x40 DUP6 ADD MSTORE ISZERO ISZERO PUSH1 0x60 DUP5 ADD MSTORE ISZERO ISZERO PUSH1 0x80 DUP4 ADD MSTORE PUSH1 0xA0 DUP3 ADD MSTORE SWAP1 JUMP JUMPDEST POP DUP4 ISZERO PUSH2 0xC88 JUMP JUMPDEST POP DUP1 ISZERO ISZERO PUSH2 0xC82 JUMP JUMPDEST POP DUP5 ISZERO PUSH2 0xC78 JUMP JUMPDEST POP DUP2 ISZERO PUSH2 0xC72 JUMP JUMPDEST PUSH1 0x6 DUP2 LT ISZERO PUSH2 0x941 JUMPI ISZERO PUSH2 0xCED JUMPI PUSH1 0x1 SWAP1 JUMP JUMPDEST PUSH1 0x0 SWAP1 JUMP JUMPDEST PUSH1 0x6 DUP2 LT ISZERO PUSH2 0x941 JUMPI ISZERO PUSH2 0xD09 JUMPI PUSH2 0xCED JUMPI PUSH1 0x1 SWAP1 JUMP JUMPDEST POP PUSH1 0x0 SWAP1 JUMP INVALID LOG2 PUSH5 0x6970667358 0x22 SLT KECCAK256 0xE4 REVERT 0xB3 0xE6 EXTCODESIZE SWAP7 PUSH20 0xAB9A074A3880D4F9838FF91A5ECBE71AB969B3D4 SWAP4 SIGNEXTEND EQ GASLIMIT 0xC1 PUSH5 0x736F6C6343 STOP ADDMOD SGT STOP CALLER "},"gasEstimates":{"creation":{"codeDepositCost":"679400","executionCost":"723","totalCost":"680123"},"external":{"DEFAULT_AUTH_REQUEST_EXTRA_DATA()":"602","DEFAULT_AUTH_REQUEST_IS_ANON()":"162","DEFAULT_AUTH_REQUEST_IS_OPTIONAL()":"372","DEFAULT_AUTH_REQUEST_USER_ID()":"318","build(uint8)":"infinite","build(uint8,bool)":"infinite","build(uint8,bool,bool)":"infinite","build(uint8,bool,bool,bool)":"infinite","build(uint8,bool,bool,uint256)":"infinite","build(uint8,bool,bytes)":"infinite","build(uint8,bool,uint256)":"infinite","build(uint8,bool,uint256,bool)":"infinite","build(uint8,bool,uint256,bool,bool,bytes)":"infinite","build(uint8,bool,uint256,bytes)":"infinite","build(uint8,bytes)":"infinite","build(uint8,uint256)":"infinite","build(uint8,uint256,bool)":"infinite","build(uint8,uint256,bytes)":"infinite"},"internal":{"_authIsSelectableDefaultValue(enum AuthType,uint256)":"70","_build(enum AuthType,bool,uint256,bool,bool,bytes memory)":"infinite","_build(enum AuthType,bool,uint256,bool,bytes memory)":"infinite"}},"methodIdentifiers":{"DEFAULT_AUTH_REQUEST_EXTRA_DATA()":"45c13083","DEFAULT_AUTH_REQUEST_IS_ANON()":"1967e510","DEFAULT_AUTH_REQUEST_IS_OPTIONAL()":"498a992e","DEFAULT_AUTH_REQUEST_USER_ID()":"448324ea","build(uint8)":"3a0ba6ff","build(uint8,bool)":"20c90199","build(uint8,bool,bool)":"c3bcacd0","build(uint8,bool,bool,bool)":"291884ae","build(uint8,bool,bool,uint256)":"3049e4f1","build(uint8,bool,bytes)":"1a88fb28","build(uint8,bool,uint256)":"8b9dba71","build(uint8,bool,uint256,bool)":"916d93c7","build(uint8,bool,uint256,bool,bool,bytes)":"9aa01be1","build(uint8,bool,uint256,bytes)":"c355a32c","build(uint8,bytes)":"6746dd2c","build(uint8,uint256)":"51559190","build(uint8,uint256,bool)":"3ca1531a","build(uint8,uint256,bytes)":"af4f6396"}},"storageLayout":{"storage":[],"types":null},"userdoc":{"kind":"user","methods":{},"version":1}}}}