{
  "_format": "hh-sol-artifact-1",
  "contractName": "MecenateTreasury",
  "sourceName": "contracts/evm/MecenateTreasury.sol",
  "abi": [
    {
      "anonymous": false,
      "inputs": [
        {
          "indexed": true,
          "internalType": "address",
          "name": "previousOwner",
          "type": "address"
        },
        {
          "indexed": true,
          "internalType": "address",
          "name": "newOwner",
          "type": "address"
        }
      ],
      "name": "OwnershipTransferred",
      "type": "event"
    },
    {
      "inputs": [
        {
          "internalType": "address",
          "name": "token",
          "type": "address"
        },
        {
          "internalType": "uint256",
          "name": "amount",
          "type": "uint256"
        }
      ],
      "name": "addERC20Funds",
      "outputs": [],
      "stateMutability": "nonpayable",
      "type": "function"
    },
    {
      "inputs": [],
      "name": "addFunds",
      "outputs": [],
      "stateMutability": "payable",
      "type": "function"
    },
    {
      "inputs": [
        {
          "internalType": "address",
          "name": "tokenA",
          "type": "address"
        },
        {
          "internalType": "address",
          "name": "tokenB",
          "type": "address"
        },
        {
          "internalType": "uint24",
          "name": "fee",
          "type": "uint24"
        },
        {
          "internalType": "uint256",
          "name": "amountA",
          "type": "uint256"
        },
        {
          "internalType": "uint256",
          "name": "amountB",
          "type": "uint256"
        },
        {
          "internalType": "int24",
          "name": "tickLower",
          "type": "int24"
        },
        {
          "internalType": "int24",
          "name": "tickUpper",
          "type": "int24"
        }
      ],
      "name": "addLiquidity",
      "outputs": [],
      "stateMutability": "nonpayable",
      "type": "function"
    },
    {
      "inputs": [
        {
          "internalType": "address",
          "name": "_native",
          "type": "address"
        },
        {
          "internalType": "contract ISwapRouter",
          "name": "_swapRouter",
          "type": "address"
        }
      ],
      "name": "configLiquidityProvider",
      "outputs": [],
      "stateMutability": "nonpayable",
      "type": "function"
    },
    {
      "inputs": [
        {
          "internalType": "address",
          "name": "_token",
          "type": "address"
        },
        {
          "internalType": "uint256",
          "name": "_amount",
          "type": "uint256"
        }
      ],
      "name": "customApprove",
      "outputs": [],
      "stateMutability": "nonpayable",
      "type": "function"
    },
    {
      "inputs": [],
      "name": "distributableBalance",
      "outputs": [
        {
          "internalType": "uint256",
          "name": "",
          "type": "uint256"
        }
      ],
      "stateMutability": "view",
      "type": "function"
    },
    {
      "inputs": [
        {
          "internalType": "address",
          "name": "",
          "type": "address"
        }
      ],
      "name": "distributableERC20Balance",
      "outputs": [
        {
          "internalType": "uint256",
          "name": "",
          "type": "uint256"
        }
      ],
      "stateMutability": "view",
      "type": "function"
    },
    {
      "inputs": [
        {
          "internalType": "address",
          "name": "_usersContract",
          "type": "address"
        }
      ],
      "name": "distribute",
      "outputs": [],
      "stateMutability": "nonpayable",
      "type": "function"
    },
    {
      "inputs": [
        {
          "internalType": "address",
          "name": "token",
          "type": "address"
        },
        {
          "internalType": "address",
          "name": "_usersContract",
          "type": "address"
        }
      ],
      "name": "distributeERC20",
      "outputs": [],
      "stateMutability": "nonpayable",
      "type": "function"
    },
    {
      "inputs": [],
      "name": "fixedFee",
      "outputs": [
        {
          "internalType": "uint256",
          "name": "",
          "type": "uint256"
        }
      ],
      "stateMutability": "view",
      "type": "function"
    },
    {
      "inputs": [],
      "name": "getDistributionBalance",
      "outputs": [
        {
          "internalType": "uint256",
          "name": "",
          "type": "uint256"
        }
      ],
      "stateMutability": "view",
      "type": "function"
    },
    {
      "inputs": [
        {
          "internalType": "address",
          "name": "token",
          "type": "address"
        }
      ],
      "name": "getDistributionERC20Balance",
      "outputs": [
        {
          "internalType": "uint256",
          "name": "",
          "type": "uint256"
        }
      ],
      "stateMutability": "view",
      "type": "function"
    },
    {
      "inputs": [
        {
          "internalType": "address",
          "name": "_verifierContract",
          "type": "address"
        },
        {
          "internalType": "address",
          "name": "encryptedVaultId",
          "type": "address"
        }
      ],
      "name": "getReward",
      "outputs": [
        {
          "internalType": "uint256",
          "name": "",
          "type": "uint256"
        }
      ],
      "stateMutability": "view",
      "type": "function"
    },
    {
      "inputs": [
        {
          "internalType": "address",
          "name": "_token",
          "type": "address"
        },
        {
          "internalType": "address",
          "name": "encryptedVaultId",
          "type": "address"
        }
      ],
      "name": "getRewardERC20",
      "outputs": [
        {
          "internalType": "uint256",
          "name": "",
          "type": "uint256"
        }
      ],
      "stateMutability": "view",
      "type": "function"
    },
    {
      "inputs": [],
      "name": "globalFee",
      "outputs": [
        {
          "internalType": "uint256",
          "name": "",
          "type": "uint256"
        }
      ],
      "stateMutability": "view",
      "type": "function"
    },
    {
      "inputs": [],
      "name": "lastDistributed",
      "outputs": [
        {
          "internalType": "uint256",
          "name": "",
          "type": "uint256"
        }
      ],
      "stateMutability": "view",
      "type": "function"
    },
    {
      "inputs": [],
      "name": "native",
      "outputs": [
        {
          "internalType": "address",
          "name": "",
          "type": "address"
        }
      ],
      "stateMutability": "view",
      "type": "function"
    },
    {
      "inputs": [],
      "name": "owner",
      "outputs": [
        {
          "internalType": "address",
          "name": "",
          "type": "address"
        }
      ],
      "stateMutability": "view",
      "type": "function"
    },
    {
      "inputs": [],
      "name": "ownerFee",
      "outputs": [
        {
          "internalType": "uint256",
          "name": "",
          "type": "uint256"
        }
      ],
      "stateMutability": "view",
      "type": "function"
    },
    {
      "inputs": [],
      "name": "positionManager",
      "outputs": [
        {
          "internalType": "contract INonfungiblePositionManager",
          "name": "",
          "type": "address"
        }
      ],
      "stateMutability": "view",
      "type": "function"
    },
    {
      "inputs": [],
      "name": "renounceOwnership",
      "outputs": [],
      "stateMutability": "nonpayable",
      "type": "function"
    },
    {
      "inputs": [
        {
          "internalType": "uint256",
          "name": "_fixedFee",
          "type": "uint256"
        }
      ],
      "name": "setFixedFee",
      "outputs": [],
      "stateMutability": "nonpayable",
      "type": "function"
    },
    {
      "inputs": [
        {
          "internalType": "uint256",
          "name": "_globalFee",
          "type": "uint256"
        }
      ],
      "name": "setGlobalFee",
      "outputs": [],
      "stateMutability": "nonpayable",
      "type": "function"
    },
    {
      "inputs": [
        {
          "internalType": "bool",
          "name": "_splitLiquidity",
          "type": "bool"
        }
      ],
      "name": "setSplitLiqudity",
      "outputs": [
        {
          "internalType": "bool",
          "name": "",
          "type": "bool"
        }
      ],
      "stateMutability": "nonpayable",
      "type": "function"
    },
    {
      "inputs": [
        {
          "internalType": "contract ISwapRouter",
          "name": "_swapRouter",
          "type": "address"
        }
      ],
      "name": "setSwapRouter",
      "outputs": [],
      "stateMutability": "nonpayable",
      "type": "function"
    },
    {
      "inputs": [],
      "name": "splitLiquidity",
      "outputs": [
        {
          "internalType": "bool",
          "name": "",
          "type": "bool"
        }
      ],
      "stateMutability": "view",
      "type": "function"
    },
    {
      "inputs": [
        {
          "internalType": "address",
          "name": "_token0",
          "type": "address"
        },
        {
          "internalType": "address",
          "name": "_token1",
          "type": "address"
        },
        {
          "internalType": "address",
          "name": "_token2",
          "type": "address"
        },
        {
          "internalType": "uint24",
          "name": "_fee",
          "type": "uint24"
        },
        {
          "internalType": "uint24",
          "name": "_fee2",
          "type": "uint24"
        }
      ],
      "name": "swapAndBurn",
      "outputs": [],
      "stateMutability": "nonpayable",
      "type": "function"
    },
    {
      "inputs": [],
      "name": "swapRouter",
      "outputs": [
        {
          "internalType": "contract ISwapRouter",
          "name": "",
          "type": "address"
        }
      ],
      "stateMutability": "view",
      "type": "function"
    },
    {
      "inputs": [
        {
          "internalType": "address",
          "name": "token1",
          "type": "address"
        },
        {
          "internalType": "address",
          "name": "token2",
          "type": "address"
        },
        {
          "internalType": "uint256",
          "name": "amount",
          "type": "uint256"
        },
        {
          "internalType": "uint24",
          "name": "fee",
          "type": "uint24"
        }
      ],
      "name": "swapTokensForTokens",
      "outputs": [
        {
          "internalType": "uint256",
          "name": "",
          "type": "uint256"
        }
      ],
      "stateMutability": "nonpayable",
      "type": "function"
    },
    {
      "inputs": [
        {
          "internalType": "address",
          "name": "_receiver",
          "type": "address"
        }
      ],
      "name": "takeReward",
      "outputs": [
        {
          "internalType": "uint256",
          "name": "",
          "type": "uint256"
        }
      ],
      "stateMutability": "nonpayable",
      "type": "function"
    },
    {
      "inputs": [
        {
          "internalType": "address",
          "name": "_token",
          "type": "address"
        },
        {
          "internalType": "address",
          "name": "_receiver",
          "type": "address"
        }
      ],
      "name": "takeRewardERC20",
      "outputs": [
        {
          "internalType": "uint256",
          "name": "",
          "type": "uint256"
        }
      ],
      "stateMutability": "nonpayable",
      "type": "function"
    },
    {
      "inputs": [
        {
          "internalType": "address",
          "name": "newOwner",
          "type": "address"
        }
      ],
      "name": "transferOwnership",
      "outputs": [],
      "stateMutability": "nonpayable",
      "type": "function"
    },
    {
      "inputs": [
        {
          "internalType": "address",
          "name": "",
          "type": "address"
        }
      ],
      "name": "userReward",
      "outputs": [
        {
          "internalType": "uint256",
          "name": "",
          "type": "uint256"
        }
      ],
      "stateMutability": "view",
      "type": "function"
    },
    {
      "inputs": [
        {
          "internalType": "address",
          "name": "",
          "type": "address"
        },
        {
          "internalType": "address",
          "name": "",
          "type": "address"
        }
      ],
      "name": "userRewardERC20",
      "outputs": [
        {
          "internalType": "uint256",
          "name": "",
          "type": "uint256"
        }
      ],
      "stateMutability": "view",
      "type": "function"
    },
    {
      "stateMutability": "payable",
      "type": "receive"
    }
  ],
  "bytecode": "0x6080806040523461006b5760008054336001600160a01b0319821681178355916001600160a01b03909116907f8be0079c531659141344cd1fd0a4f28419497f9722a3daafe3b4186f6b6457e09080a36064600455662386f26fc100006005556118ea90816100718239f35b600080fdfe608080604052600436101561002c575b50361561001b57600080fd5b61002734600754611454565b600755005b600090813560e01c9081620a74be146113885750806305f6059d1461136357806310027a281461120d57806311b0b42d1461133a5780631fce07d51461131c578063291206f6146112f95780632ad2e08c146112a957806337de8106146112865780634127365714611246578063568dbccf1461120d57806363453ae11461106a578063674ee49d1461101f5780636962a86314610dae5780636b09169514610d6d578063715018a614610d135780637450bce914610b4b578063791b98bc14610cea578063808fc20614610ccc57806385258b4b14610bf95780638da5cb5b14610bd25780638f3a899a14610b8757806391792d5b14610b69578063932f9f8a14610b4b578063a26759cb14610b2d578063af2c15c414610965578063afbce84e14610690578063bcb7557f1461063f578063c31c9c0714610616578063d1a06cf814610460578063d5b2a01a14610442578063e266294314610305578063f2fde38b1461023f578063fc99d28f146101f65763ffdf2bcb0361000f57346101f35760403660031901126101f3576101c36113be565b6101cb6113fc565b6001600160a01b03168152600b6020526040812080546101ee9060243590611454565b905580f35b80fd5b50346101f35760803660031901126101f35760206102376102156113be565b61021d6113d4565b6102256113ea565b9061022e6113fc565b60443592611708565b604051908152f35b50346101f35760203660031901126101f3576102596113be565b6102616113fc565b6001600160a01b039081169081156102b157600054826001600160601b0360a01b821617600055167f8be0079c531659141344cd1fd0a4f28419497f9722a3daafe3b4186f6b6457e0600080a380f35b60405162461bcd60e51b815260206004820152602660248201527f4f776e61626c653a206e6577206f776e657220697320746865207a65726f206160448201526564647265737360d01b6064820152608490fd5b50346101f35760403660031901126101f357806103206113be565b816103296113d4565b6103316113fc565b60018060a01b03809316600354906044856001600160601b0360a01b948386861617600355168060015495861617600155600160a01b60ff60a01b1987541617865560405195869384928263095ea7b360e01b98898652161760048401528160248401526020998a9616175af191821561043757849261041a575b50604483600354169360015416918660405195869485938452600484015260001960248401525af1801561040f576103e2578280f35b8161040192903d10610408575b6103f98183611503565b8101906115df565b5038808280f35b503d6103ef565b6040513d85823e3d90fd5b61043090833d8511610408576103f98183611503565b50386103ac565b6040513d87823e3d90fd5b50346101f357806003193601126101f3576020600854604051908152f35b50346101f35760403660031901126101f35761047a6113be565b6104826113d4565b9060018060a01b03809116808452602091600b83526104a660408620541515611484565b818552600b8352806104e66127106104c56040892054600454906114d0565b046104d281600854611454565b600855848852600b86526040882054611477565b9416906040519463b5cb15f760e01b86528486600481865afa95861561060b5787966105d5575b50856105239161051e821515611525565b6114e3565b91865b86811061053e5787600b878783525280604081205580f35b60405163c6e064ad60e01b815260048101829052908682602481865afa9182156105ca576105989285918b9161059d575b50168952600a8752604089208660005287526040600020610591868254611454565b9055611571565b610526565b6105bd9150893d8b116105c3575b6105b58183611503565b810190611580565b3861056f565b503d6105ab565b6040513d8b823e3d90fd5b9095508481813d8311610604575b6105ed8183611503565b810103126105ff57519461052361050d565b600080fd5b503d6105e3565b6040513d89823e3d90fd5b50346101f357806003193601126101f3576001546040516001600160a01b039091168152602090f35b50346101f35760403660031901126101f3576106596113be565b906001600160a01b03906040908261066f6113d4565b168152600a6020522091166000526020526020604060002054604051908152f35b50346101f35760e03660031901126101f3576106aa6113be565b6106b26113d4565b6044359062ffffff821682036105ff5760a4358060020b81036105ff5760c435918260020b83036105ff576106e56113fc565b60025460405163095ea7b360e01b81526001600160a01b0390911660048201526064356024820152602081806044810103818a6001600160a01b038b165af1801561060b57610946575b5060025460405163095ea7b360e01b81526001600160a01b0391821660048201526084356024820181905292909116959194906020816044818b8b5af1801561093b5761091c575b506040519561016087019287841067ffffffffffffffff8511176109065762ffffff9360405260018060a01b03168752602087015216604085015260020b606084015260020b608083015260643560a083015260c08201528160e0820152816101008201523061012082015242610140820152608061014061016460018060a01b036002541693856040519586948593634418b22b60e11b855260018060a01b03815116600486015260018060a01b03602082015116602486015262ffffff6040820151166044860152606081015160020b60648601528781015160020b608486015260a081015160a486015260c081015160c486015260e081015160e486015261010081015161010486015260018060a01b036101208201511661012486015201516101448401525af180156108fb576108b0575080f35b6080813d82116108f3575b816108c860809383611503565b810103126108ef57602001516fffffffffffffffffffffffffffffffff8116036101f35780f35b5080fd5b3d91506108bb565b6040513d84823e3d90fd5b634e487b7160e01b600052604160045260246000fd5b6109349060203d602011610408576103f98183611503565b5038610777565b6040513d8a823e3d90fd5b61095e9060203d602011610408576103f98183611503565b503861072f565b50346101f35760403660031901126101f35761097f6113be565b6109876113d4565b91338152602092600a8452604082209260018060a01b031692836000528452604060002054928315610af257338352600a8552604080842060008381529087528190208490555163a9059cbb60e01b8187019081526001600160a01b039390931660248201526044808201869052815292610a03606485611503565b60405192604084019084821067ffffffffffffffff83111761090657610a649583926040528886527f5361666545524332303a206c6f772d6c6576656c2063616c6c206661696c656489870152519082855af1610a5e61159f565b916115f7565b805190838215928315610ada575b50505015610a8257604051908152f35b60405162461bcd60e51b815260048101839052602a60248201527f5361666545524332303a204552433230206f7065726174696f6e20646964206e6044820152691bdd081cdd58d8d9595960b21b6064820152608490fd5b610aea93508201810191016115df565b388381610a72565b60405162461bcd60e51b81526004810186905260136024820152724e6f2072657761726420617661696c61626c6560681b6044820152606490fd5b50806003193601126101f357610b4534600754611454565b60075580f35b50346101f357806003193601126101f3576020600754604051908152f35b50346101f357806003193601126101f3576020600554604051908152f35b50346101f35760203660031901126101f3576004358015158091036108ef57610bae6113fc565b815460ff60a01b191660a09190911b60ff60a01b1617905560405160018152602090f35b50346101f357806003193601126101f357546040516001600160a01b039091168152602090f35b50346101f35760403660031901126101f357610c5f610c166113be565b610c1e6113fc565b60015460405163095ea7b360e01b8082526001600160a01b039283166004830152602480359083015260209493831693919290918590849081906044820190565b038189885af1908115610cc1578593604492610ca4575b5060015416918660405195869485938452600484015260001960248401525af1801561040f576103e2578280f35b610cba90853d8711610408576103f98183611503565b5038610c76565b6040513d88823e3d90fd5b50346101f357806003193601126101f3576020600454604051908152f35b50346101f357806003193601126101f3576002546040516001600160a01b039091168152602090f35b50346101f357806003193601126101f357610d2c6113fc565b600080546001600160a01b0319811682556001600160a01b03167f8be0079c531659141344cd1fd0a4f28419497f9722a3daafe3b4186f6b6457e08280a380f35b50346101f35760403660031901126101f3576040602091610d8c6113be565b506001600160a01b03610d9d6113d4565b168152600983522054604051908152f35b50346101f35760a03660031901126101f357610dc86113be565b610dd06113d4565b906044356001600160a01b038116900361101b57610dec6113ea565b9062ffffff608435166084350361101757610e056113fc565b6040516370a0823160e01b8152306004820152916020836024816001600160a01b0386165afa918215610437578592610fdd575b60015460405163095ea7b360e01b81526001600160a01b03909116600482015260248101849052935060208480604481015b0381896001600160a01b0386165af1908115610cc157610e978692610e9c968991610f7b575b506116cb565b611708565b8015610fa55760015460405163095ea7b360e01b81526001600160a01b039091166004820152602481018290529160208380604481010381876001600160a01b0386165af1928315610f9a57610f0993610efc918691610f7b57506116cb565b6084359060443590611708565b6044356001600160a01b03163b156108ef57604051630852cd8d60e31b815260048101919091528181602481836044356001600160a01b03165af180156108fb57610f52575080f35b67ffffffffffffffff8111610f675760405280f35b634e487b7160e01b82526041600452602482fd5b610f94915060203d602011610408576103f98183611503565b38610e91565b6040513d86823e3d90fd5b60405162461bcd60e51b815260206004820152601060248201526f139bc81d1bdad95b9cc8189bdd59da1d60821b6044820152606490fd5b91506020833d60201161100f575b81610ff860209383611503565b8101031261100b57610e6b925191610e39565b8480fd5b3d9150610feb565b8380fd5b8280fd5b50346101f35760403660031901126101f357604060209161103e6113be565b6110466113d4565b6001600160a01b039182168352600a85528383209116825283522054604051908152f35b50346101f3576020806003193601126108ef576110856113be565b6201518061109560065442611477565b106111c8576110d06007546110ab811515611484565b6127106110ba600454836114d0565b04906110c882600854611454565b600855611477565b60405163b5cb15f760e01b8152926001600160a01b039283169290918285600481875afa948515610cc1578695611193575b50846111139161051e821515611525565b92855b8581106111295786426006558060075580f35b60405163c6e064ad60e01b815260048101829052908482602481865afa91821561093b576111719285918a91611176575b501688526009855260408820610591878254611454565b611116565b61118d9150873d89116105c3576105b58183611503565b3861115a565b9094508281813d83116111c1575b6111ab8183611503565b810103126111bd575193611113611102565b8580fd5b503d6111a1565b60405162461bcd60e51b815260048101839052601e60248201527f43616e206f6e6c792064697374726962757465206f6e636520612064617900006044820152606490fd5b50346101f35760203660031901126101f3576020906040906001600160a01b036112356113be565b168152600b83522054604051908152f35b50346101f35760203660031901126101f3576112606113be565b6112686113fc565b60018060a01b03166001600160601b0360a01b600154161760015580f35b50346101f35760203660031901126101f3576112a06113fc565b60043560055580f35b50346101f35760203660031901126101f357808080806020946112ca6113be565b3382526009875260408220805496905585906001600160a01b03165af1506112f061159f565b50604051908152f35b50346101f35760203660031901126101f3576113136113fc565b60043560045580f35b50346101f357806003193601126101f3576020600654604051908152f35b50346101f357806003193601126101f3576003546040516001600160a01b039091168152602090f35b50346101f357806003193601126101f35760ff6020915460a01c166040519015158152f35b9050346108ef5760203660031901126108ef576020916040906001600160a01b036113b16113be565b1681526009845220548152f35b600435906001600160a01b03821682036105ff57565b602435906001600160a01b03821682036105ff57565b6064359062ffffff821682036105ff57565b6000546001600160a01b0316330361141057565b606460405162461bcd60e51b815260206004820152602060248201527f4f776e61626c653a2063616c6c6572206973206e6f7420746865206f776e65726044820152fd5b9190820180921161146157565b634e487b7160e01b600052601160045260246000fd5b9190820391821161146157565b1561148b57565b60405162461bcd60e51b815260206004820152601860248201527f4e6f2064697374726962757461626c652062616c616e636500000000000000006044820152606490fd5b8181029291811591840414171561146157565b81156114ed570490565b634e487b7160e01b600052601260045260246000fd5b90601f8019910116810190811067ffffffffffffffff82111761090657604052565b1561152c57565b60405162461bcd60e51b815260206004820152601960248201527f4e6f20757365727320746f206469737472696275746520746f000000000000006044820152606490fd5b60001981146114615760010190565b908160209103126105ff57516001600160a01b03811681036105ff5790565b3d156115da573d9067ffffffffffffffff821161090657604051916115ce601f8201601f191660200184611503565b82523d6000602084013e565b606090565b908160209103126105ff575180151581036105ff5790565b91929015611659575081511561160b575090565b3b156116145790565b60405162461bcd60e51b815260206004820152601d60248201527f416464726573733a2063616c6c20746f206e6f6e2d636f6e74726163740000006044820152606490fd5b82519091501561166c5750805190602001fd5b6040519062461bcd60e51b82528160208060048301528251908160248401526000935b8285106116b2575050604492506000838284010152601f80199101168101030190fd5b848101820151868601604401529381019385935061168f565b156116d257565b60405162461bcd60e51b815260206004820152600e60248201526d105c1c1c9bdd994819985a5b195960921b6044820152606490fd5b6001546040805163095ea7b360e01b81526001600160a01b0392831660048201526024810187905290959392909116906020816044816000865af180156118a95761188a575b50605f830292808404605f148115171561146157600a42018042116114615786519161010083019183831067ffffffffffffffff841117610906579188529282526001600160a01b03938416602083810191825262ffffff978816848a0190815230606086019081526080860194855260a0860196875260649889900460c08701908152600060e088018181526001548e5163414bf38960e01b815299518c1660048b015296518b1660248a01529351909b166044880152905188169886019890985292516084850152935160a4840152945160c483015251831660e482015293909284926101049284929091165af19182156118805750600091611851575090565b90506020813d602011611878575b8161186c60209383611503565b810103126105ff575190565b3d915061185f565b513d6000823e3d90fd5b6118a29060203d602011610408576103f98183611503565b503861174e565b86513d6000823e3d90fdfea264697066735822122059fc18f205353ab6fa12d7bf2105ae19de11d2aefab3f5b93c039d8fd7a689e264736f6c63430008130033",
  "linkReferences": {},
  "deployedLinkReferences": {}
}