{
  "_format": "hh-sol-artifact-1",
  "contractName": "SismoConnect",
  "sourceName": "contracts/helpers/sismo/SismoConnectLib.sol",
  "abi": [
    {
      "inputs": [
        {
          "components": [
            {
              "internalType": "bytes16",
              "name": "appId",
              "type": "bytes16"
            },
            {
              "components": [
                {
                  "internalType": "bool",
                  "name": "isImpersonationMode",
                  "type": "bool"
                }
              ],
              "internalType": "struct VaultConfig",
              "name": "vault",
              "type": "tuple"
            }
          ],
          "internalType": "struct SismoConnectConfig",
          "name": "_config",
          "type": "tuple"
        }
      ],
      "stateMutability": "nonpayable",
      "type": "constructor"
    },
    {
      "inputs": [],
      "name": "ADDRESSES_PROVIDER_V2",
      "outputs": [
        {
          "internalType": "contract IAddressesProvider",
          "name": "",
          "type": "address"
        }
      ],
      "stateMutability": "view",
      "type": "function"
    },
    {
      "inputs": [],
      "name": "APP_ID",
      "outputs": [
        {
          "internalType": "bytes16",
          "name": "",
          "type": "bytes16"
        }
      ],
      "stateMutability": "view",
      "type": "function"
    },
    {
      "inputs": [],
      "name": "IS_IMPERSONATION_MODE",
      "outputs": [
        {
          "internalType": "bool",
          "name": "",
          "type": "bool"
        }
      ],
      "stateMutability": "view",
      "type": "function"
    },
    {
      "inputs": [],
      "name": "SISMO_CONNECT_LIB_VERSION",
      "outputs": [
        {
          "internalType": "uint256",
          "name": "",
          "type": "uint256"
        }
      ],
      "stateMutability": "view",
      "type": "function"
    },
    {
      "inputs": [],
      "name": "config",
      "outputs": [
        {
          "components": [
            {
              "internalType": "bytes16",
              "name": "appId",
              "type": "bytes16"
            },
            {
              "components": [
                {
                  "internalType": "bool",
                  "name": "isImpersonationMode",
                  "type": "bool"
                }
              ],
              "internalType": "struct VaultConfig",
              "name": "vault",
              "type": "tuple"
            }
          ],
          "internalType": "struct SismoConnectConfig",
          "name": "",
          "type": "tuple"
        }
      ],
      "stateMutability": "view",
      "type": "function"
    }
  ],
  "bytecode": "0x610160604090808252346200041a57806200090d803803809162000024828562000451565b8339810103918083126200041a5780516001600160401b0390808301828111828210176200041f57835283516001600160801b0319929083811681036200041a57825260208096601f1901126200041a57835194868601918211868310176200041f5786918552015180151581036200041a57845284810193845251169161012092835251511515906101409182528051620000c08162000435565b601981527f7369736d6f436f6e6e65637456657269666965722d76312e320000000000000085820152815190816200010763349f642f60e11b928383526004830162000496565b038683733cd5334eb64ebbd4003b72022cc25465f1bfcee69281845afa9283156200040f57600093620003eb575b506001600160a01b03928316608052835162000194908890620001588162000435565b601781527f61757468526571756573744275696c6465722d76312e31000000000000000000828201528651809381928783526004830162000496565b0381855afa9081156200039c57908491600091620003c9575b501660a05262000200878551620001c48162000435565b601881527f636c61696d526571756573744275696c6465722d76312e310000000000000000828201528651809381928783526004830162000496565b0381855afa9081156200039c57908491600091620003a7575b501660c0526200026c878551620002308162000435565b601581527f7369676e61747572654275696c6465722d76312e310000000000000000000000828201528651809381928783526004830162000496565b0381855afa9081156200039c579184620002dc94928a946000916200037a575b501660e0528551916200029f8362000435565b601383527f726571756573744275696c6465722d76312e310000000000000000000000000084840152865180958194829383526004830162000496565b03915afa9586156200036f5760009662000339575b505061010094168452519161042b9384620004e2853960805184505060a05184505060c05184505060e051845050518350505182818160eb0152610211015251816101440152f35b6200035e929650803d1062000367575b62000355818362000451565b81019062000475565b933880620002f1565b503d62000349565b83513d6000823e3d90fd5b620003959150853d8711620003675762000355818362000451565b386200028c565b85513d6000823e3d90fd5b620003c29150893d8b11620003675762000355818362000451565b3862000219565b620003e49150893d8b11620003675762000355818362000451565b38620001ad565b62000407919350873d8911620003675762000355818362000451565b913862000135565b84513d6000823e3d90fd5b600080fd5b634e487b7160e01b600052604160045260246000fd5b604081019081106001600160401b038211176200041f57604052565b601f909101601f19168101906001600160401b038211908210176200041f57604052565b908160209103126200041a57516001600160a01b03811681036200041a5790565b6020808252825181830181905290939260005b828110620004cc57505060409293506000838284010152601f8019910116010190565b818101860151848201604001528501620004a956fe60806040818152600436101561001457600080fd5b600091823560e01c908163469163011461033a5750806379502c5514610169578063a183dc271461010f578063c187bbc1146100955763c9512d991461005957600080fd5b3461009157817ffffffffffffffffffffffffffffffffffffffffffffffffffffffffffffffffc360112610091576020905160028152f35b5080fd5b503461009157817ffffffffffffffffffffffffffffffffffffffffffffffffffffffffffffffffc36011261009157602090517fffffffffffffffffffffffffffffffff000000000000000000000000000000007f0000000000000000000000000000000000000000000000000000000000000000168152f35b503461009157817ffffffffffffffffffffffffffffffffffffffffffffffffffffffffffffffffc36011261009157602090517f000000000000000000000000000000000000000000000000000000000000000015158152f35b50903461033757807ffffffffffffffffffffffffffffffffffffffffffffffffffffffffffffffffc360112610337576101a16103d5565b8181526101ac610386565b8281526020809201526101bd6103d5565b828152816101c9610386565b918483520152816101d8610386565b526101e1610386565b9182526101ec6103d5565b917fffffffffffffffffffffffffffffffff00000000000000000000000000000000807f000000000000000000000000000000000000000000000000000000000000000016808552838501928352156102da5781515161025757845193511683525151151590820152f35b6084838651907f08c379a00000000000000000000000000000000000000000000000000000000082526004820152602360248201527f696d706572736f6e6174696f6e206d6f6465206973206e6f7420737570706f7260448201527f74656400000000000000000000000000000000000000000000000000000000006064820152fd5b6064838651907f08c379a00000000000000000000000000000000000000000000000000000000082526004820152601560248201527f61707049642063616e6e6f7420626520656d70747900000000000000000000006044820152fd5b80fd5b83903461009157817ffffffffffffffffffffffffffffffffffffffffffffffffffffffffffffffffc3601126100915780733cd5334eb64ebbd4003b72022cc25465f1bfcee660209252f35b604051906020820182811067ffffffffffffffff8211176103a657604052565b7f4e487b7100000000000000000000000000000000000000000000000000000000600052604160045260246000fd5b604051906040820182811067ffffffffffffffff8211176103a65760405256fea2646970667358221220dc98b13c2400d59b953c38f29f7ca705aac39be1a8279b52a49df923b290684464736f6c63430008130033",
  "linkReferences": {},
  "deployedLinkReferences": {}
}