{
  "_format": "hh-sol-artifact-1",
  "contractName": "AuthRequestBuilder",
  "sourceName": "contracts/helpers/sismo/utils/AuthRequestBuilder.sol",
  "abi": [
    {
      "inputs": [],
      "name": "InvalidUserIdAndAuthType",
      "type": "error"
    },
    {
      "inputs": [],
      "name": "InvalidUserIdAndIsSelectableByUserAuthType",
      "type": "error"
    },
    {
      "inputs": [],
      "name": "DEFAULT_AUTH_REQUEST_EXTRA_DATA",
      "outputs": [
        {
          "internalType": "bytes",
          "name": "",
          "type": "bytes"
        }
      ],
      "stateMutability": "view",
      "type": "function"
    },
    {
      "inputs": [],
      "name": "DEFAULT_AUTH_REQUEST_IS_ANON",
      "outputs": [
        {
          "internalType": "bool",
          "name": "",
          "type": "bool"
        }
      ],
      "stateMutability": "view",
      "type": "function"
    },
    {
      "inputs": [],
      "name": "DEFAULT_AUTH_REQUEST_IS_OPTIONAL",
      "outputs": [
        {
          "internalType": "bool",
          "name": "",
          "type": "bool"
        }
      ],
      "stateMutability": "view",
      "type": "function"
    },
    {
      "inputs": [],
      "name": "DEFAULT_AUTH_REQUEST_USER_ID",
      "outputs": [
        {
          "internalType": "uint256",
          "name": "",
          "type": "uint256"
        }
      ],
      "stateMutability": "view",
      "type": "function"
    },
    {
      "inputs": [
        {
          "internalType": "enum AuthType",
          "name": "authType",
          "type": "uint8"
        },
        {
          "internalType": "bool",
          "name": "isAnon",
          "type": "bool"
        },
        {
          "internalType": "bytes",
          "name": "extraData",
          "type": "bytes"
        }
      ],
      "name": "build",
      "outputs": [
        {
          "components": [
            {
              "internalType": "enum AuthType",
              "name": "authType",
              "type": "uint8"
            },
            {
              "internalType": "uint256",
              "name": "userId",
              "type": "uint256"
            },
            {
              "internalType": "bool",
              "name": "isAnon",
              "type": "bool"
            },
            {
              "internalType": "bool",
              "name": "isOptional",
              "type": "bool"
            },
            {
              "internalType": "bool",
              "name": "isSelectableByUser",
              "type": "bool"
            },
            {
              "internalType": "bytes",
              "name": "extraData",
              "type": "bytes"
            }
          ],
          "internalType": "struct AuthRequest",
          "name": "",
          "type": "tuple"
        }
      ],
      "stateMutability": "pure",
      "type": "function"
    },
    {
      "inputs": [
        {
          "internalType": "enum AuthType",
          "name": "authType",
          "type": "uint8"
        },
        {
          "internalType": "bool",
          "name": "isAnon",
          "type": "bool"
        }
      ],
      "name": "build",
      "outputs": [
        {
          "components": [
            {
              "internalType": "enum AuthType",
              "name": "authType",
              "type": "uint8"
            },
            {
              "internalType": "uint256",
              "name": "userId",
              "type": "uint256"
            },
            {
              "internalType": "bool",
              "name": "isAnon",
              "type": "bool"
            },
            {
              "internalType": "bool",
              "name": "isOptional",
              "type": "bool"
            },
            {
              "internalType": "bool",
              "name": "isSelectableByUser",
              "type": "bool"
            },
            {
              "internalType": "bytes",
              "name": "extraData",
              "type": "bytes"
            }
          ],
          "internalType": "struct AuthRequest",
          "name": "",
          "type": "tuple"
        }
      ],
      "stateMutability": "pure",
      "type": "function"
    },
    {
      "inputs": [
        {
          "internalType": "enum AuthType",
          "name": "authType",
          "type": "uint8"
        },
        {
          "internalType": "bool",
          "name": "isAnon",
          "type": "bool"
        },
        {
          "internalType": "bool",
          "name": "isOptional",
          "type": "bool"
        },
        {
          "internalType": "bool",
          "name": "isSelectableByUser",
          "type": "bool"
        }
      ],
      "name": "build",
      "outputs": [
        {
          "components": [
            {
              "internalType": "enum AuthType",
              "name": "authType",
              "type": "uint8"
            },
            {
              "internalType": "uint256",
              "name": "userId",
              "type": "uint256"
            },
            {
              "internalType": "bool",
              "name": "isAnon",
              "type": "bool"
            },
            {
              "internalType": "bool",
              "name": "isOptional",
              "type": "bool"
            },
            {
              "internalType": "bool",
              "name": "isSelectableByUser",
              "type": "bool"
            },
            {
              "internalType": "bytes",
              "name": "extraData",
              "type": "bytes"
            }
          ],
          "internalType": "struct AuthRequest",
          "name": "",
          "type": "tuple"
        }
      ],
      "stateMutability": "pure",
      "type": "function"
    },
    {
      "inputs": [
        {
          "internalType": "enum AuthType",
          "name": "authType",
          "type": "uint8"
        },
        {
          "internalType": "bool",
          "name": "isOptional",
          "type": "bool"
        },
        {
          "internalType": "bool",
          "name": "isSelectableByUser",
          "type": "bool"
        },
        {
          "internalType": "uint256",
          "name": "userId",
          "type": "uint256"
        }
      ],
      "name": "build",
      "outputs": [
        {
          "components": [
            {
              "internalType": "enum AuthType",
              "name": "authType",
              "type": "uint8"
            },
            {
              "internalType": "uint256",
              "name": "userId",
              "type": "uint256"
            },
            {
              "internalType": "bool",
              "name": "isAnon",
              "type": "bool"
            },
            {
              "internalType": "bool",
              "name": "isOptional",
              "type": "bool"
            },
            {
              "internalType": "bool",
              "name": "isSelectableByUser",
              "type": "bool"
            },
            {
              "internalType": "bytes",
              "name": "extraData",
              "type": "bytes"
            }
          ],
          "internalType": "struct AuthRequest",
          "name": "",
          "type": "tuple"
        }
      ],
      "stateMutability": "pure",
      "type": "function"
    },
    {
      "inputs": [
        {
          "internalType": "enum AuthType",
          "name": "authType",
          "type": "uint8"
        }
      ],
      "name": "build",
      "outputs": [
        {
          "components": [
            {
              "internalType": "enum AuthType",
              "name": "authType",
              "type": "uint8"
            },
            {
              "internalType": "uint256",
              "name": "userId",
              "type": "uint256"
            },
            {
              "internalType": "bool",
              "name": "isAnon",
              "type": "bool"
            },
            {
              "internalType": "bool",
              "name": "isOptional",
              "type": "bool"
            },
            {
              "internalType": "bool",
              "name": "isSelectableByUser",
              "type": "bool"
            },
            {
              "internalType": "bytes",
              "name": "extraData",
              "type": "bytes"
            }
          ],
          "internalType": "struct AuthRequest",
          "name": "",
          "type": "tuple"
        }
      ],
      "stateMutability": "pure",
      "type": "function"
    },
    {
      "inputs": [
        {
          "internalType": "enum AuthType",
          "name": "authType",
          "type": "uint8"
        },
        {
          "internalType": "uint256",
          "name": "userId",
          "type": "uint256"
        },
        {
          "internalType": "bool",
          "name": "isOptional",
          "type": "bool"
        }
      ],
      "name": "build",
      "outputs": [
        {
          "components": [
            {
              "internalType": "enum AuthType",
              "name": "authType",
              "type": "uint8"
            },
            {
              "internalType": "uint256",
              "name": "userId",
              "type": "uint256"
            },
            {
              "internalType": "bool",
              "name": "isAnon",
              "type": "bool"
            },
            {
              "internalType": "bool",
              "name": "isOptional",
              "type": "bool"
            },
            {
              "internalType": "bool",
              "name": "isSelectableByUser",
              "type": "bool"
            },
            {
              "internalType": "bytes",
              "name": "extraData",
              "type": "bytes"
            }
          ],
          "internalType": "struct AuthRequest",
          "name": "",
          "type": "tuple"
        }
      ],
      "stateMutability": "pure",
      "type": "function"
    },
    {
      "inputs": [
        {
          "internalType": "enum AuthType",
          "name": "authType",
          "type": "uint8"
        },
        {
          "internalType": "uint256",
          "name": "userId",
          "type": "uint256"
        }
      ],
      "name": "build",
      "outputs": [
        {
          "components": [
            {
              "internalType": "enum AuthType",
              "name": "authType",
              "type": "uint8"
            },
            {
              "internalType": "uint256",
              "name": "userId",
              "type": "uint256"
            },
            {
              "internalType": "bool",
              "name": "isAnon",
              "type": "bool"
            },
            {
              "internalType": "bool",
              "name": "isOptional",
              "type": "bool"
            },
            {
              "internalType": "bool",
              "name": "isSelectableByUser",
              "type": "bool"
            },
            {
              "internalType": "bytes",
              "name": "extraData",
              "type": "bytes"
            }
          ],
          "internalType": "struct AuthRequest",
          "name": "",
          "type": "tuple"
        }
      ],
      "stateMutability": "pure",
      "type": "function"
    },
    {
      "inputs": [
        {
          "internalType": "enum AuthType",
          "name": "authType",
          "type": "uint8"
        },
        {
          "internalType": "bytes",
          "name": "extraData",
          "type": "bytes"
        }
      ],
      "name": "build",
      "outputs": [
        {
          "components": [
            {
              "internalType": "enum AuthType",
              "name": "authType",
              "type": "uint8"
            },
            {
              "internalType": "uint256",
              "name": "userId",
              "type": "uint256"
            },
            {
              "internalType": "bool",
              "name": "isAnon",
              "type": "bool"
            },
            {
              "internalType": "bool",
              "name": "isOptional",
              "type": "bool"
            },
            {
              "internalType": "bool",
              "name": "isSelectableByUser",
              "type": "bool"
            },
            {
              "internalType": "bytes",
              "name": "extraData",
              "type": "bytes"
            }
          ],
          "internalType": "struct AuthRequest",
          "name": "",
          "type": "tuple"
        }
      ],
      "stateMutability": "pure",
      "type": "function"
    },
    {
      "inputs": [
        {
          "internalType": "enum AuthType",
          "name": "authType",
          "type": "uint8"
        },
        {
          "internalType": "bool",
          "name": "isAnon",
          "type": "bool"
        },
        {
          "internalType": "uint256",
          "name": "userId",
          "type": "uint256"
        }
      ],
      "name": "build",
      "outputs": [
        {
          "components": [
            {
              "internalType": "enum AuthType",
              "name": "authType",
              "type": "uint8"
            },
            {
              "internalType": "uint256",
              "name": "userId",
              "type": "uint256"
            },
            {
              "internalType": "bool",
              "name": "isAnon",
              "type": "bool"
            },
            {
              "internalType": "bool",
              "name": "isOptional",
              "type": "bool"
            },
            {
              "internalType": "bool",
              "name": "isSelectableByUser",
              "type": "bool"
            },
            {
              "internalType": "bytes",
              "name": "extraData",
              "type": "bytes"
            }
          ],
          "internalType": "struct AuthRequest",
          "name": "",
          "type": "tuple"
        }
      ],
      "stateMutability": "pure",
      "type": "function"
    },
    {
      "inputs": [
        {
          "internalType": "enum AuthType",
          "name": "authType",
          "type": "uint8"
        },
        {
          "internalType": "bool",
          "name": "isAnon",
          "type": "bool"
        },
        {
          "internalType": "uint256",
          "name": "userId",
          "type": "uint256"
        },
        {
          "internalType": "bool",
          "name": "isOptional",
          "type": "bool"
        }
      ],
      "name": "build",
      "outputs": [
        {
          "components": [
            {
              "internalType": "enum AuthType",
              "name": "authType",
              "type": "uint8"
            },
            {
              "internalType": "uint256",
              "name": "userId",
              "type": "uint256"
            },
            {
              "internalType": "bool",
              "name": "isAnon",
              "type": "bool"
            },
            {
              "internalType": "bool",
              "name": "isOptional",
              "type": "bool"
            },
            {
              "internalType": "bool",
              "name": "isSelectableByUser",
              "type": "bool"
            },
            {
              "internalType": "bytes",
              "name": "extraData",
              "type": "bytes"
            }
          ],
          "internalType": "struct AuthRequest",
          "name": "",
          "type": "tuple"
        }
      ],
      "stateMutability": "pure",
      "type": "function"
    },
    {
      "inputs": [
        {
          "internalType": "enum AuthType",
          "name": "authType",
          "type": "uint8"
        },
        {
          "internalType": "bool",
          "name": "isAnon",
          "type": "bool"
        },
        {
          "internalType": "uint256",
          "name": "userId",
          "type": "uint256"
        },
        {
          "internalType": "bool",
          "name": "isOptional",
          "type": "bool"
        },
        {
          "internalType": "bool",
          "name": "isSelectableByUser",
          "type": "bool"
        },
        {
          "internalType": "bytes",
          "name": "extraData",
          "type": "bytes"
        }
      ],
      "name": "build",
      "outputs": [
        {
          "components": [
            {
              "internalType": "enum AuthType",
              "name": "authType",
              "type": "uint8"
            },
            {
              "internalType": "uint256",
              "name": "userId",
              "type": "uint256"
            },
            {
              "internalType": "bool",
              "name": "isAnon",
              "type": "bool"
            },
            {
              "internalType": "bool",
              "name": "isOptional",
              "type": "bool"
            },
            {
              "internalType": "bool",
              "name": "isSelectableByUser",
              "type": "bool"
            },
            {
              "internalType": "bytes",
              "name": "extraData",
              "type": "bytes"
            }
          ],
          "internalType": "struct AuthRequest",
          "name": "",
          "type": "tuple"
        }
      ],
      "stateMutability": "pure",
      "type": "function"
    },
    {
      "inputs": [
        {
          "internalType": "enum AuthType",
          "name": "authType",
          "type": "uint8"
        },
        {
          "internalType": "uint256",
          "name": "userId",
          "type": "uint256"
        },
        {
          "internalType": "bytes",
          "name": "extraData",
          "type": "bytes"
        }
      ],
      "name": "build",
      "outputs": [
        {
          "components": [
            {
              "internalType": "enum AuthType",
              "name": "authType",
              "type": "uint8"
            },
            {
              "internalType": "uint256",
              "name": "userId",
              "type": "uint256"
            },
            {
              "internalType": "bool",
              "name": "isAnon",
              "type": "bool"
            },
            {
              "internalType": "bool",
              "name": "isOptional",
              "type": "bool"
            },
            {
              "internalType": "bool",
              "name": "isSelectableByUser",
              "type": "bool"
            },
            {
              "internalType": "bytes",
              "name": "extraData",
              "type": "bytes"
            }
          ],
          "internalType": "struct AuthRequest",
          "name": "",
          "type": "tuple"
        }
      ],
      "stateMutability": "pure",
      "type": "function"
    },
    {
      "inputs": [
        {
          "internalType": "enum AuthType",
          "name": "authType",
          "type": "uint8"
        },
        {
          "internalType": "bool",
          "name": "isAnon",
          "type": "bool"
        },
        {
          "internalType": "uint256",
          "name": "userId",
          "type": "uint256"
        },
        {
          "internalType": "bytes",
          "name": "extraData",
          "type": "bytes"
        }
      ],
      "name": "build",
      "outputs": [
        {
          "components": [
            {
              "internalType": "enum AuthType",
              "name": "authType",
              "type": "uint8"
            },
            {
              "internalType": "uint256",
              "name": "userId",
              "type": "uint256"
            },
            {
              "internalType": "bool",
              "name": "isAnon",
              "type": "bool"
            },
            {
              "internalType": "bool",
              "name": "isOptional",
              "type": "bool"
            },
            {
              "internalType": "bool",
              "name": "isSelectableByUser",
              "type": "bool"
            },
            {
              "internalType": "bytes",
              "name": "extraData",
              "type": "bytes"
            }
          ],
          "internalType": "struct AuthRequest",
          "name": "",
          "type": "tuple"
        }
      ],
      "stateMutability": "pure",
      "type": "function"
    },
    {
      "inputs": [
        {
          "internalType": "enum AuthType",
          "name": "authType",
          "type": "uint8"
        },
        {
          "internalType": "bool",
          "name": "isOptional",
          "type": "bool"
        },
        {
          "internalType": "bool",
          "name": "isSelectableByUser",
          "type": "bool"
        }
      ],
      "name": "build",
      "outputs": [
        {
          "components": [
            {
              "internalType": "enum AuthType",
              "name": "authType",
              "type": "uint8"
            },
            {
              "internalType": "uint256",
              "name": "userId",
              "type": "uint256"
            },
            {
              "internalType": "bool",
              "name": "isAnon",
              "type": "bool"
            },
            {
              "internalType": "bool",
              "name": "isOptional",
              "type": "bool"
            },
            {
              "internalType": "bool",
              "name": "isSelectableByUser",
              "type": "bool"
            },
            {
              "internalType": "bytes",
              "name": "extraData",
              "type": "bytes"
            }
          ],
          "internalType": "struct AuthRequest",
          "name": "",
          "type": "tuple"
        }
      ],
      "stateMutability": "pure",
      "type": "function"
    }
  ],
  "bytecode": "0x6080806040523461001657610e43908161001c8239f35b600080fdfe6040608081526004908136101561001557600080fd5b600090813560e01c80631967e510146107fc5780631a88fb281461079957806320c9019914610741578063291884ae146106215780633049e4f1146105ce5780633a0ba6ff1461058d5780633ca1531a1461052f578063448324ea1461051557806345c13083146104e2578063498a992e146104dd578063515591901461049a5780636746dd2c146104325780638b9dba71146103e5578063916d93c71461037f5780639aa01be114610303578063af4f63961461028c578063c355a32c146102085763c3bcacd0146100e757600080fd5b346102045760606003193601126102045782359160068310156102015761010c61081d565b61011461082c565b9061011d610a25565b50610126610899565b92808452610132610a25565b5085158015806101f9575b806101f1575b6101c957806101c2575b806101ba575b6101925761018e965061016461084a565b95865280602087015284860152151560608501521515608084015260a08301525191829182610998565b0390f35b8685517f7fb1693d000000000000000000000000000000000000000000000000000000008152fd5b508215610153565b508061014d565b8786517f032e5d9a000000000000000000000000000000000000000000000000000000008152fd5b508315610143565b50600161013d565b80fd5b5080fd5b5090346102015760806003193601126102015782359060068210156102015761022f61081d565b93604435916064359067ffffffffffffffff821161020157509161025e610281949261018e97943691016108b9565b92610267610a25565b50610270610a25565b5061027b8284610df0565b92610cc9565b905191829182610998565b5082346102ff5760606003193601126102ff5780359060068210156102fb57602435936044359067ffffffffffffffff82116102015750916102d861018e9592610281943691016108b9565b916102e1610a25565b506102ea610a25565b506102f58183610df0565b91610c42565b8380fd5b8280fd5b5090346102015760c06003193601126102015782359260068410156102045761032a61081d565b9361033361083b565b916084359384151585036102015760a4359067ffffffffffffffff821161020157509161036c61018e97949261028196943691016108b9565b93610375610a25565b5060443591610d50565b5082346102ff5760806003193601126102ff573560068110156102ff5761018e92610281916103ac61081d565b6044356103b761083b565b916103c0610a25565b506103c9610899565b9485526103d4610a25565b506103df8285610df0565b93610d50565b5082346102ff5760606003193601126102ff573560068110156102ff5761018e926102819161041261081d565b6044359061041e610a25565b50610427610899565b938452610270610a25565b5082346102ff57816003193601126102ff578035926006841015610201576024359067ffffffffffffffff82116102015750926104786102819261018e953691016108b9565b90610481610a25565b5061048a610a25565b5061049481610dd8565b90610bbb565b5082346102ff57816003193601126102ff573560068110156102ff5761018e92610281916024356104c9610a25565b506104d2610899565b9283526102ea610a25565b6107fc565b50346102045781600319360112610204579061018e91610500610899565b9182525191829160208352602083019061093a565b503461020457816003193601126102045751908152602090f35b5082346102ff5760606003193601126102ff573560068110156102ff5761018e926102819160243561055f61082c565b90610568610a25565b50610571610899565b93845261057c610a25565b506105878184610df0565b92610b33565b5082346102ff5760206003193601126102ff573560068110156102ff5761018e92610281916105ba610a25565b506105c3610899565b91825261048a610a25565b5082346102ff5760806003193601126102ff573560068110156102ff5761018e92610281916105fb61081d565b61060361082c565b9161060c610a25565b50610615610899565b93845260643590610b33565b50346102045760806003193601126102045782359160068310156102015761064761081d565b61064f61082c565b61065761083b565b91610660610a25565b50610669610899565b93808552610675610a25565b508615801580610739575b80610731575b6107095780610702575b806106fa575b6106d25761018e97506106a761084a565b9687526020870152151584860152151560608501521515608084015260a08301525191829182610998565b8786517f7fb1693d000000000000000000000000000000000000000000000000000000008152fd5b508315610696565b5080610690565b8887517f032e5d9a000000000000000000000000000000000000000000000000000000008152fd5b508415610686565b506001610680565b5082346102ff57816003193601126102ff573560068110156102ff5761018e926102819161076d61081d565b610775610a25565b5061077e610899565b928352610789610a25565b5061079382610dd8565b91610a57565b5082346102ff5760606003193601126102ff5780359060068210156102fb576107c061081d565b936044359067ffffffffffffffff82116102015750916107ea61018e9592610281943691016108b9565b916107f3610a25565b50610789610a25565b3461081857600060031936011261081857602060405160008152f35b600080fd5b60243590811515820361081857565b60443590811515820361081857565b60643590811515820361081857565b6040519060c0820182811067ffffffffffffffff82111761086a57604052565b7f4e487b7100000000000000000000000000000000000000000000000000000000600052604160045260246000fd5b604051906020820182811067ffffffffffffffff82111761086a57604052565b81601f820112156108185780359067ffffffffffffffff9283831161086a57604051937fffffffffffffffffffffffffffffffffffffffffffffffffffffffffffffffe0603f81601f87011601168501908582109082111761086a576040528284526020838301011161081857816000926020809301838601378301015290565b919082519283825260005b8481106109845750507fffffffffffffffffffffffffffffffffffffffffffffffffffffffffffffffe0601f8460006020809697860101520116010190565b602081830181015184830182015201610945565b6020815281519160068310156109f65760a060e0916109f394602085015260208101516040850152604081015115156060850152606081015115156080850152608081015115158285015201519160c080820152019061093a565b90565b7f4e487b7100000000000000000000000000000000000000000000000000000000600052602160045260246000fd5b610a2d61084a565b906000825260006020830152600060408301526000606083015260006080830152606060a0830152565b929190610a62610a25565b5060068410156109f6578315801580610b2b575b80610b23575b610af95780610af1575b80610ae9575b610abf57610a9861084a565b9384526000602085015215156040840152600060608401521515608083015260a082015290565b60046040517f7fb1693d000000000000000000000000000000000000000000000000000000008152fd5b508115610a8c565b506000610a86565b60046040517f032e5d9a000000000000000000000000000000000000000000000000000000008152fd5b508215610a7c565b506001610a76565b93929190610b3f610a25565b5060068510156109f6578415801580610bb3575b80610bab575b610af95780610ba2575b80610b9a575b610abf57610b7561084a565b948552602085015260006040850152151560608401521515608083015260a082015290565b508215610b69565b50801515610b63565b508315610b59565b508115610b53565b9190610bc5610a25565b5060068310156109f6578215801580610c3a575b80610c32575b610af95780610c2a575b80610c22575b610abf57610bfb61084a565b9283526000602084015260006040840152600060608401521515608083015260a082015290565b508015610bef565b506000610be9565b508115610bdf565b506001610bd9565b929190610c4d610a25565b5060068410156109f6578315801580610cc1575b80610cb9575b610af95780610cb0575b80610ca8575b610abf57610c8361084a565b938452602084015260006040840152600060608401521515608083015260a082015290565b508115610c77565b50801515610c71565b508215610c67565b508115610c61565b939291610cd4610a25565b5060068510156109f6578415801580610d48575b80610d40575b610af95780610d37575b80610d2f575b610abf57610d0a61084a565b948552602085015215156040840152600060608401521515608083015260a082015290565b508215610cfe565b50801515610cf8565b508315610cee565b508115610ce8565b94939291610d5c610a25565b5060068610156109f6578515801580610dd0575b80610dc8575b610af95780610dbf575b80610db7575b610abf57610d9261084a565b958652602086015215156040850152151560608401521515608083015260a082015290565b508315610d86565b50801515610d80565b508415610d76565b508115610d70565b60068110156109f65715610deb57600190565b600090565b60068110156109f65715610e0757610deb57600190565b5060009056fea26469706673582212202d0d43d15dbf3e6ae89724f7e50ff8b0b95dc36e6b18f26739e42a22341d008564736f6c63430008130033",
  "linkReferences": {},
  "deployedLinkReferences": {}
}