{
  "_format": "hh-sol-artifact-1",
  "contractName": "MecenateSend",
  "sourceName": "contracts/layer/MecenateSend.sol",
  "abi": [
    {
      "inputs": [
        {
          "internalType": "address",
          "name": "_usersContract",
          "type": "address"
        },
        {
          "internalType": "address",
          "name": "_treasuryContract",
          "type": "address"
        }
      ],
      "stateMutability": "nonpayable",
      "type": "constructor"
    },
    {
      "anonymous": false,
      "inputs": [
        {
          "indexed": false,
          "internalType": "address",
          "name": "sender",
          "type": "address"
        },
        {
          "indexed": false,
          "internalType": "address",
          "name": "receiver",
          "type": "address"
        },
        {
          "indexed": false,
          "internalType": "address",
          "name": "token",
          "type": "address"
        },
        {
          "indexed": false,
          "internalType": "uint256",
          "name": "amount",
          "type": "uint256"
        },
        {
          "indexed": false,
          "internalType": "bytes",
          "name": "ipfsHash",
          "type": "bytes"
        },
        {
          "indexed": false,
          "internalType": "bytes",
          "name": "pubKey",
          "type": "bytes"
        }
      ],
      "name": "HashSubmitted",
      "type": "event"
    },
    {
      "anonymous": false,
      "inputs": [
        {
          "indexed": true,
          "internalType": "address",
          "name": "previousOwner",
          "type": "address"
        },
        {
          "indexed": true,
          "internalType": "address",
          "name": "newOwner",
          "type": "address"
        }
      ],
      "name": "OwnershipTransferred",
      "type": "event"
    },
    {
      "inputs": [
        {
          "internalType": "address",
          "name": "_treasuryContract",
          "type": "address"
        }
      ],
      "name": "changeTreasuryContract",
      "outputs": [],
      "stateMutability": "nonpayable",
      "type": "function"
    },
    {
      "inputs": [
        {
          "internalType": "address",
          "name": "_usersContract",
          "type": "address"
        }
      ],
      "name": "changeUsersContract",
      "outputs": [],
      "stateMutability": "nonpayable",
      "type": "function"
    },
    {
      "inputs": [
        {
          "internalType": "bytes",
          "name": "",
          "type": "bytes"
        }
      ],
      "name": "encryptedKeys",
      "outputs": [
        {
          "internalType": "bytes",
          "name": "",
          "type": "bytes"
        }
      ],
      "stateMutability": "view",
      "type": "function"
    },
    {
      "inputs": [],
      "name": "fixedFee",
      "outputs": [
        {
          "internalType": "uint256",
          "name": "",
          "type": "uint256"
        }
      ],
      "stateMutability": "view",
      "type": "function"
    },
    {
      "inputs": [
        {
          "internalType": "bytes",
          "name": "pubKey",
          "type": "bytes"
        }
      ],
      "name": "getHash",
      "outputs": [
        {
          "internalType": "bytes",
          "name": "",
          "type": "bytes"
        }
      ],
      "stateMutability": "view",
      "type": "function"
    },
    {
      "inputs": [],
      "name": "globalFee",
      "outputs": [
        {
          "internalType": "uint256",
          "name": "",
          "type": "uint256"
        }
      ],
      "stateMutability": "view",
      "type": "function"
    },
    {
      "inputs": [],
      "name": "owner",
      "outputs": [
        {
          "internalType": "address",
          "name": "",
          "type": "address"
        }
      ],
      "stateMutability": "view",
      "type": "function"
    },
    {
      "inputs": [],
      "name": "renounceOwnership",
      "outputs": [],
      "stateMutability": "nonpayable",
      "type": "function"
    },
    {
      "inputs": [
        {
          "internalType": "bytes",
          "name": "encryptedData",
          "type": "bytes"
        }
      ],
      "name": "submitHash",
      "outputs": [],
      "stateMutability": "payable",
      "type": "function"
    },
    {
      "inputs": [
        {
          "internalType": "address",
          "name": "newOwner",
          "type": "address"
        }
      ],
      "name": "transferOwnership",
      "outputs": [],
      "stateMutability": "nonpayable",
      "type": "function"
    },
    {
      "inputs": [],
      "name": "treasuryContract",
      "outputs": [
        {
          "internalType": "address",
          "name": "",
          "type": "address"
        }
      ],
      "stateMutability": "view",
      "type": "function"
    },
    {
      "inputs": [],
      "name": "usersContract",
      "outputs": [
        {
          "internalType": "address",
          "name": "",
          "type": "address"
        }
      ],
      "stateMutability": "view",
      "type": "function"
    },
    {
      "inputs": [
        {
          "internalType": "address",
          "name": "_receiver",
          "type": "address"
        }
      ],
      "name": "withdrawETH",
      "outputs": [],
      "stateMutability": "nonpayable",
      "type": "function"
    }
  ],
  "bytecode": "0x6080346100ce57601f610eb438819003918201601f19168301916001600160401b038311848410176100d35780849260409485528339810103126100ce57610052602061004b836100e9565b92016100e9565b60008054336001600160a01b0319808316821784556040519590946001600160a01b03949093859391908416907f8be0079c531659141344cd1fd0a4f28419497f9722a3daafe3b4186f6b6457e09080a3662386f26fc100006004551683600254161760025516906003541617600355610db690816100fe8239f35b600080fd5b634e487b7160e01b600052604160045260246000fd5b51906001600160a01b03821682036100ce5756fe608080604052600436101561001357600080fd5b60003560e01c908163142ebf3c14610a275750806318da0011146109fe5780634b78896d146101bf578063690d8320146109af57806370962dd214610969578063715018a614610910578063808fc2061461088e5780638da5cb5b146108655780638f903c791461023057806391792d5b14610212578063b00140aa146101bf578063bd87e0c9146101795763f2fde38b146100ae57600080fd5b34610174576020366003190112610174576004356001600160a01b0381811691829003610174576100dd610c1a565b811561012057600054826001600160601b0360a01b821617600055167f8be0079c531659141344cd1fd0a4f28419497f9722a3daafe3b4186f6b6457e0600080a3005b60405162461bcd60e51b815260206004820152602660248201527f4f776e61626c653a206e6577206f776e657220697320746865207a65726f206160448201526564647265737360d01b6064820152608490fd5b600080fd5b34610174576020366003190112610174576004356001600160a01b03811690819003610174576101a7610c1a565b6001600160601b0360a01b6003541617600355600080f35b346101745761020e6101fa6101eb60206101d836610a89565b8160405193828580945193849201610af2565b81016001815203019020610b4f565b604051918291602083526020830190610bf5565b0390f35b34610174576000366003190112610174576020600454604051908152f35b61023936610a89565b805181019060a0816020840193031261017457602081015167ffffffffffffffff81116101745782602061026f92840101610c72565b9160408201519067ffffffffffffffff821161017457602061029392840101610c72565b916102a060608301610cb7565b9060a06102af60808501610cb7565b93015160025460405163122643f360e21b815233600482015291959190602090829060249082906001600160a01b03165afa90811561046a57600091610836575b50156107f957604051602081835161030b8183858801610af2565b81016001815203019020825167ffffffffffffffff811161068d576103308254610b15565b601f81116107b5575b50806020601f821160011461075157600091610746575b508160011b916000199060031b1c19161790555b600354604051634047e10360e11b815290602090829060049082906001600160a01b03165afa90811561046a57600091610714575b5080860290868204148615171561047f576001600160a01b03909416936127109004846104cc5780860180871161047f573410610495578034039034821161047f576000808093819382903414610476575b6001600160a01b03891690f11561046a57610457610465927f954bf59b64e01f6e7b8a4c837cd19e9d1ee041fe4683298995b980c3d1aeebaf965b60405196879633885260018060a01b031660208801526040870152606086015260c0608086015260c0850190610bf5565b9083820360a0850152610bf5565b0390a1005b6040513d6000823e3d90fd5b506108fc6103eb565b634e487b7160e01b600052601160045260246000fd5b60405162461bcd60e51b815260206004820152600f60248201526e57726f6e67204665652056616c756560881b6044820152606490fd5b50604051636eb1769f60e11b8152336004820152306024820152602081604481885afa801561046a5786916000916106df575b50106106a3576040516323b872dd60e01b602082019081523360248301526001600160a01b0385166044830152606480830188905282529060a081019067ffffffffffffffff82118183101761068d5760e0810182811067ffffffffffffffff82111761068d57604052602082527f5361666545524332303a206c6f772d6c6576656c2063616c6c206661696c656460c0820152516105d1926000918291828a5af13d15610685573d906105b282610a6d565b916105c06040519384610a4b565b82523d6000602084013e5b87610ce3565b805190811591821561066b575b50501561061357610457610465927f954bf59b64e01f6e7b8a4c837cd19e9d1ee041fe4683298995b980c3d1aeebaf96610426565b60405162461bcd60e51b815260206004820152602a60248201527f5361666545524332303a204552433230206f7065726174696f6e20646964206e6044820152691bdd081cdd58d8d9595960b21b6064820152608490fd5b61067e9250602080918301019101610ccb565b86806105de565b6060906105cb565b634e487b7160e01b600052604160045260246000fd5b60405162461bcd60e51b81526020600482015260146024820152734e6f7420656e6f75676820616c6c6f77616e636560601b6044820152606490fd5b9150506020813d60201161070c575b816106fb60209383610a4b565b8101031261017457859051876104ff565b3d91506106ee565b90506020813d60201161073e575b8161072f60209383610a4b565b81010312610174575186610399565b3d9150610722565b905084015188610350565b6000848152602081209250601f198416905b81811061079d57509083600194939210610784575b5050811b019055610364565b86015160001960f88460031b161c191690558880610778565b9192602060018192868b015181550194019201610763565b826000526020600020601f830160051c8101602084106107f2575b601f830160051c820181106107e6575050610339565b600081556001016107d0565b50806107d0565b60405162461bcd60e51b815260206004820152601560248201527414d95b99195c881b9bdd081c9959da5cdd195c9959605a1b6044820152606490fd5b610858915060203d60201161085e575b6108508183610a4b565b810190610ccb565b866102f0565b503d610846565b34610174576000366003190112610174576000546040516001600160a01b039091168152602090f35b3461017457600036600319011261017457600354604051634047e10360e11b815290602090829060049082906001600160a01b03165afa801561046a576000906108de575b602090604051908152f35b506020813d8211610908575b816108f760209383610a4b565b8101031261017457602090516108d3565b3d91506108ea565b3461017457600036600319011261017457610929610c1a565b600080546001600160a01b0319811682556001600160a01b03167f8be0079c531659141344cd1fd0a4f28419497f9722a3daafe3b4186f6b6457e08280a3005b34610174576020366003190112610174576004356001600160a01b0381169081900361017457610997610c1a565b6001600160601b0360a01b6002541617600255600080f35b34610174576020366003190112610174576004356001600160a01b03811690819003610174576000808080936109e3610c1a565b47908282156109f5575bf11561046a57005b506108fc6109ed565b34610174576000366003190112610174576003546040516001600160a01b039091168152602090f35b34610174576000366003190112610174576002546001600160a01b03168152602090f35b90601f8019910116810190811067ffffffffffffffff82111761068d57604052565b67ffffffffffffffff811161068d57601f01601f191660200190565b60206003198201126101745760043567ffffffffffffffff8111610174578160238201121561017457806004013590610ac182610a6d565b92610acf6040519485610a4b565b828452602483830101116101745781600092602460209301838601378301015290565b60005b838110610b055750506000910152565b8181015183820152602001610af5565b90600182811c92168015610b45575b6020831014610b2f57565b634e487b7160e01b600052602260045260246000fd5b91607f1691610b24565b9060405191826000825492610b6384610b15565b908184526001948581169081600014610bd25750600114610b8f575b5050610b8d92500383610a4b565b565b9093915060005260209081600020936000915b818310610bba575050610b8d93508201013880610b7f565b85548884018501529485019487945091830191610ba2565b915050610b8d94506020925060ff191682840152151560051b8201013880610b7f565b90602091610c0e81518092818552858086019101610af2565b601f01601f1916010190565b6000546001600160a01b03163303610c2e57565b606460405162461bcd60e51b815260206004820152602060248201527f4f776e61626c653a2063616c6c6572206973206e6f7420746865206f776e65726044820152fd5b81601f82011215610174578051610c8881610a6d565b92610c966040519485610a4b565b8184526020828401011161017457610cb49160208085019101610af2565b90565b51906001600160a01b038216820361017457565b90816020910312610174575180151581036101745790565b91929015610d455750815115610cf7575090565b3b15610d005790565b60405162461bcd60e51b815260206004820152601d60248201527f416464726573733a2063616c6c20746f206e6f6e2d636f6e74726163740000006044820152606490fd5b825190915015610d585750805190602001fd5b60405162461bcd60e51b815260206004820152908190610d7c906024830190610bf5565b0390fdfea26469706673582212200da01f56d02f158cec99cdb30b92a9e6a91555cea35e98dba10c72866fa9168964736f6c63430008130033",
  "linkReferences": {},
  "deployedLinkReferences": {}
}