{
  "_format": "hh-sol-artifact-1",
  "contractName": "MecenateSend",
  "sourceName": "contracts/layer/MecenateSend.sol",
  "abi": [
    {
      "inputs": [
        {
          "internalType": "address",
          "name": "_usersContract",
          "type": "address"
        }
      ],
      "stateMutability": "nonpayable",
      "type": "constructor"
    },
    {
      "anonymous": false,
      "inputs": [
        {
          "indexed": true,
          "internalType": "address",
          "name": "previousOwner",
          "type": "address"
        },
        {
          "indexed": true,
          "internalType": "address",
          "name": "newOwner",
          "type": "address"
        }
      ],
      "name": "OwnershipTransferred",
      "type": "event"
    },
    {
      "inputs": [
        {
          "internalType": "address",
          "name": "_usersContract",
          "type": "address"
        }
      ],
      "name": "changeUsersContract",
      "outputs": [],
      "stateMutability": "nonpayable",
      "type": "function"
    },
    {
      "inputs": [
        {
          "internalType": "bytes",
          "name": "",
          "type": "bytes"
        }
      ],
      "name": "encryptedKeys",
      "outputs": [
        {
          "internalType": "bytes",
          "name": "",
          "type": "bytes"
        }
      ],
      "stateMutability": "view",
      "type": "function"
    },
    {
      "inputs": [],
      "name": "fixedFee",
      "outputs": [
        {
          "internalType": "uint256",
          "name": "",
          "type": "uint256"
        }
      ],
      "stateMutability": "view",
      "type": "function"
    },
    {
      "inputs": [
        {
          "internalType": "bytes",
          "name": "pubKey",
          "type": "bytes"
        }
      ],
      "name": "getHash",
      "outputs": [
        {
          "internalType": "bytes",
          "name": "",
          "type": "bytes"
        }
      ],
      "stateMutability": "view",
      "type": "function"
    },
    {
      "inputs": [],
      "name": "owner",
      "outputs": [
        {
          "internalType": "address",
          "name": "",
          "type": "address"
        }
      ],
      "stateMutability": "view",
      "type": "function"
    },
    {
      "inputs": [],
      "name": "renounceOwnership",
      "outputs": [],
      "stateMutability": "nonpayable",
      "type": "function"
    },
    {
      "inputs": [
        {
          "internalType": "bytes",
          "name": "encryptedData",
          "type": "bytes"
        }
      ],
      "name": "submitHash",
      "outputs": [],
      "stateMutability": "payable",
      "type": "function"
    },
    {
      "inputs": [
        {
          "internalType": "address",
          "name": "newOwner",
          "type": "address"
        }
      ],
      "name": "transferOwnership",
      "outputs": [],
      "stateMutability": "nonpayable",
      "type": "function"
    },
    {
      "inputs": [
        {
          "internalType": "address",
          "name": "newUsersContract",
          "type": "address"
        }
      ],
      "name": "updateUsersContract",
      "outputs": [],
      "stateMutability": "nonpayable",
      "type": "function"
    },
    {
      "inputs": [],
      "name": "usersContract",
      "outputs": [
        {
          "internalType": "address",
          "name": "",
          "type": "address"
        }
      ],
      "stateMutability": "view",
      "type": "function"
    },
    {
      "inputs": [
        {
          "internalType": "address",
          "name": "_receiver",
          "type": "address"
        }
      ],
      "name": "withdrawETH",
      "outputs": [],
      "stateMutability": "nonpayable",
      "type": "function"
    }
  ],
  "bytecode": "0x6080346100b257601f610c9738819003918201601f19168301916001600160401b038311848410176100b7578084926020946040528339810103126100b257516001600160a01b0390818116908190036100b25760005460018060a01b0319903382821617600055604051933391167f8be0079c531659141344cd1fd0a4f28419497f9722a3daafe3b4186f6b6457e0600080a3662386f26fc100006003556002541617600255610bc990816100ce8239f35b600080fd5b634e487b7160e01b600052604160045260246000fdfe608060408181526004908136101561001657600080fd5b600092833560e01c908163142ebf3c1461081e575080634b78896d1461016b578063505da9e11461078357838163690d8320146107d85750806370962dd214610783578063715018a6146107265780638da5cb5b146106fe5780638f903c79146101e257806391792d5b146101c3578063b00140aa1461016b5763f2fde38b1461009f57600080fd5b34610167576020366003190112610167576001600160a01b03823581811693919290849003610163576100d0610a2d565b831561011157505082546001600160a01b0319811683178455167f8be0079c531659141344cd1fd0a4f28419497f9722a3daafe3b4186f6b6457e08380a380f35b906020608492519162461bcd60e51b8352820152602660248201527f4f776e61626c653a206e6577206f776e657220697320746865207a65726f206160448201526564647265737360d01b6064820152fd5b8480fd5b8280fd5b8382346101bf576101bb906101a8610199602061018736610897565b81855193828580945193849201610905565b81016001815203019020610962565b9051918291602083526020830190610a08565b0390f35b5080fd5b8382346101bf57816003193601126101bf576020906003549051908152f35b50906101ed36610897565b80518101602060a0838284019303126106fa57808301519167ffffffffffffffff928381116106f657818361022492870101610a85565b92868501518181116106f25783928361023f92880101610a85565b9361024c60608701610aca565b9060a061025b60808901610aca565b9701519560018060a01b0380809416981692600254168a519687809263122643f360e21b8252338d8301526024998a915afa9081156106e8578c916106bb575b501561068157846102b48b519283815193849201610905565b8101908581600193848152030190209180519085821161066f578c876102da8654610928565b91601f8311610627575b9150505086908d601f84116001146105c857918394918493946105bd575b50501b916000199060031b1c19161790555b806103c0575050600354928381018091116103ae57341061037b57508134039334851161036a5750508480938193829383903414610361575bf115610357575080f35b51903d90823e3d90fd5b506108fc61034d565b634e487b7160e01b87526011905285fd5b600f606492869288519362461bcd60e51b85528401528201526e57726f6e67204665652056616c756560881b6044820152fd5b634e487b7160e01b8852601186528288fd5b919490929596938451636eb1769f60e11b8152338982015230888201528681604481875afa9081156105b3579082918b9161057e575b501061054557845190868201926323b872dd60e01b84523389840152604483015260648201526064815260a0810193818510818611176105335760e08201908111858210176105335785528584527f5361666545524332303a206c6f772d6c6576656c2063616c6c206661696c656460c0820152516104a49392918991829182855af13d1561052b573d9161048a8361087b565b9261049787519485610843565b83523d8a8885013e610af6565b805190838215928315610513575b505050156104c1575050505080f35b5162461bcd60e51b815292830152602a908201527f5361666545524332303a204552433230206f7065726174696f6e20646964206e6044820152691bdd081cdd58d8d9595960b21b6064820152608490fd5b6105239350820181019101610ade565b3883816104b2565b606091610af6565b634e487b7160e01b8a5260418952878afd5b845162461bcd60e51b8152808901879052601481890152734e6f7420656e6f75676820616c6c6f77616e636560601b6044820152606490fd5b809250888092503d83116105ac575b6105978183610843565b810103126105a857819051386103f6565b8980fd5b503d61058d565b86513d8c823e3d90fd5b015192503880610302565b919083601f1981168785528a8520945b8b8883831061061057505050106105f7575b505050811b019055610314565b015160001960f88460031b161c191690553880806105ea565b8686015188559096019594850194879350016105d8565b86815220601f840160051c810191898510610665575b601f0160051c019084908f5b83821061065a5790508991506102e4565b81550184908f610649565b909150819061063d565b634e487b7160e01b8d5260418b52878dfd5b895162461bcd60e51b8152808a018690526015818801527414d95b99195c881b9bdd081c9959da5cdd195c9959605a1b6044820152606490fd5b6106db9150863d88116106e1575b6106d38183610843565b810190610ade565b3861029b565b503d6106c9565b8b513d8e823e3d90fd5b8880fd5b8780fd5b8580fd5b8382346101bf57816003193601126101bf57905490516001600160a01b039091168152602090f35b833461078057806003193601126107805761073f610a2d565b80546001600160a01b03198116825581906001600160a01b03167f8be0079c531659141344cd1fd0a4f28419497f9722a3daafe3b4186f6b6457e08280a380f35b80fd5b5050346101bf5760203660031901126101bf57356001600160a01b03811681036101bf576107d5906107b3610a2d565b60018060a01b03166bffffffffffffffffffffffff60a01b6002541617600255565b80f35b828185346101bf5760203660031901126101bf57356001600160a01b038116908190036101bf578180809261080b610a2d565b479082821561036157f115610357575080f35b8490346101bf57816003193601126101bf576002546001600160a01b03168152602090f35b90601f8019910116810190811067ffffffffffffffff82111761086557604052565b634e487b7160e01b600052604160045260246000fd5b67ffffffffffffffff811161086557601f01601f191660200190565b60206003198201126109005760043567ffffffffffffffff81116109005781602382011215610900578060040135906108cf8261087b565b926108dd6040519485610843565b828452602483830101116109005781600092602460209301838601378301015290565b600080fd5b60005b8381106109185750506000910152565b8181015183820152602001610908565b90600182811c92168015610958575b602083101461094257565b634e487b7160e01b600052602260045260246000fd5b91607f1691610937565b906040519182600082549261097684610928565b9081845260019485811690816000146109e557506001146109a2575b50506109a092500383610843565b565b9093915060005260209081600020936000915b8183106109cd5750506109a093508201013880610992565b855488840185015294850194879450918301916109b5565b9150506109a094506020925060ff191682840152151560051b8201013880610992565b90602091610a2181518092818552858086019101610905565b601f01601f1916010190565b6000546001600160a01b03163303610a4157565b606460405162461bcd60e51b815260206004820152602060248201527f4f776e61626c653a2063616c6c6572206973206e6f7420746865206f776e65726044820152fd5b81601f82011215610900578051610a9b8161087b565b92610aa96040519485610843565b8184526020828401011161090057610ac79160208085019101610905565b90565b51906001600160a01b038216820361090057565b90816020910312610900575180151581036109005790565b91929015610b585750815115610b0a575090565b3b15610b135790565b60405162461bcd60e51b815260206004820152601d60248201527f416464726573733a2063616c6c20746f206e6f6e2d636f6e74726163740000006044820152606490fd5b825190915015610b6b5750805190602001fd5b60405162461bcd60e51b815260206004820152908190610b8f906024830190610a08565b0390fdfea2646970667358221220ffd72290547df7241c4d5f8e7332c78b34d25b2433e49ee37b1e243e75f949c864736f6c63430008130033",
  "linkReferences": {},
  "deployedLinkReferences": {}
}