{
  "_format": "hh-sol-artifact-1",
  "contractName": "ProofBuilder",
  "sourceName": "contracts/helpers/utils/SismoConnectProofBuilder.sol",
  "abi": [
    {
      "inputs": [],
      "name": "DEFAULT_PROOF_EXTRA_DATA",
      "outputs": [
        {
          "internalType": "bytes",
          "name": "",
          "type": "bytes"
        }
      ],
      "stateMutability": "view",
      "type": "function"
    },
    {
      "inputs": [],
      "name": "DEFAULT_PROOF_PROVING_SCHEME",
      "outputs": [
        {
          "internalType": "bytes32",
          "name": "",
          "type": "bytes32"
        }
      ],
      "stateMutability": "view",
      "type": "function"
    },
    {
      "inputs": [
        {
          "components": [
            {
              "internalType": "enum AuthType",
              "name": "authType",
              "type": "AuthType"
            },
            {
              "internalType": "bool",
              "name": "isAnon",
              "type": "bool"
            },
            {
              "internalType": "bool",
              "name": "isSelectableByUser",
              "type": "bool"
            },
            {
              "internalType": "uint256",
              "name": "userId",
              "type": "uint256"
            },
            {
              "internalType": "bytes",
              "name": "extraData",
              "type": "bytes"
            }
          ],
          "internalType": "struct Auth[]",
          "name": "auths",
          "type": "tuple[]"
        },
        {
          "components": [
            {
              "internalType": "enum ClaimType",
              "name": "claimType",
              "type": "ClaimType"
            },
            {
              "internalType": "bytes16",
              "name": "groupId",
              "type": "bytes16"
            },
            {
              "internalType": "bytes16",
              "name": "groupTimestamp",
              "type": "bytes16"
            },
            {
              "internalType": "bool",
              "name": "isSelectableByUser",
              "type": "bool"
            },
            {
              "internalType": "uint256",
              "name": "value",
              "type": "uint256"
            },
            {
              "internalType": "bytes",
              "name": "extraData",
              "type": "bytes"
            }
          ],
          "internalType": "struct Claim[]",
          "name": "claims",
          "type": "tuple[]"
        },
        {
          "internalType": "bytes",
          "name": "proofData",
          "type": "bytes"
        }
      ],
      "name": "build",
      "outputs": [
        {
          "components": [
            {
              "components": [
                {
                  "internalType": "enum AuthType",
                  "name": "authType",
                  "type": "AuthType"
                },
                {
                  "internalType": "bool",
                  "name": "isAnon",
                  "type": "bool"
                },
                {
                  "internalType": "bool",
                  "name": "isSelectableByUser",
                  "type": "bool"
                },
                {
                  "internalType": "uint256",
                  "name": "userId",
                  "type": "uint256"
                },
                {
                  "internalType": "bytes",
                  "name": "extraData",
                  "type": "bytes"
                }
              ],
              "internalType": "struct Auth[]",
              "name": "auths",
              "type": "tuple[]"
            },
            {
              "components": [
                {
                  "internalType": "enum ClaimType",
                  "name": "claimType",
                  "type": "ClaimType"
                },
                {
                  "internalType": "bytes16",
                  "name": "groupId",
                  "type": "bytes16"
                },
                {
                  "internalType": "bytes16",
                  "name": "groupTimestamp",
                  "type": "bytes16"
                },
                {
                  "internalType": "bool",
                  "name": "isSelectableByUser",
                  "type": "bool"
                },
                {
                  "internalType": "uint256",
                  "name": "value",
                  "type": "uint256"
                },
                {
                  "internalType": "bytes",
                  "name": "extraData",
                  "type": "bytes"
                }
              ],
              "internalType": "struct Claim[]",
              "name": "claims",
              "type": "tuple[]"
            },
            {
              "internalType": "bytes32",
              "name": "provingScheme",
              "type": "bytes32"
            },
            {
              "internalType": "bytes",
              "name": "proofData",
              "type": "bytes"
            },
            {
              "internalType": "bytes",
              "name": "extraData",
              "type": "bytes"
            }
          ],
          "internalType": "struct SismoConnectProof",
          "name": "",
          "type": "tuple"
        }
      ],
      "stateMutability": "pure",
      "type": "function"
    },
    {
      "inputs": [
        {
          "components": [
            {
              "internalType": "enum AuthType",
              "name": "authType",
              "type": "AuthType"
            },
            {
              "internalType": "bool",
              "name": "isAnon",
              "type": "bool"
            },
            {
              "internalType": "bool",
              "name": "isSelectableByUser",
              "type": "bool"
            },
            {
              "internalType": "uint256",
              "name": "userId",
              "type": "uint256"
            },
            {
              "internalType": "bytes",
              "name": "extraData",
              "type": "bytes"
            }
          ],
          "internalType": "struct Auth",
          "name": "auth",
          "type": "tuple"
        },
        {
          "internalType": "bytes",
          "name": "proofData",
          "type": "bytes"
        }
      ],
      "name": "build",
      "outputs": [
        {
          "components": [
            {
              "components": [
                {
                  "internalType": "enum AuthType",
                  "name": "authType",
                  "type": "AuthType"
                },
                {
                  "internalType": "bool",
                  "name": "isAnon",
                  "type": "bool"
                },
                {
                  "internalType": "bool",
                  "name": "isSelectableByUser",
                  "type": "bool"
                },
                {
                  "internalType": "uint256",
                  "name": "userId",
                  "type": "uint256"
                },
                {
                  "internalType": "bytes",
                  "name": "extraData",
                  "type": "bytes"
                }
              ],
              "internalType": "struct Auth[]",
              "name": "auths",
              "type": "tuple[]"
            },
            {
              "components": [
                {
                  "internalType": "enum ClaimType",
                  "name": "claimType",
                  "type": "ClaimType"
                },
                {
                  "internalType": "bytes16",
                  "name": "groupId",
                  "type": "bytes16"
                },
                {
                  "internalType": "bytes16",
                  "name": "groupTimestamp",
                  "type": "bytes16"
                },
                {
                  "internalType": "bool",
                  "name": "isSelectableByUser",
                  "type": "bool"
                },
                {
                  "internalType": "uint256",
                  "name": "value",
                  "type": "uint256"
                },
                {
                  "internalType": "bytes",
                  "name": "extraData",
                  "type": "bytes"
                }
              ],
              "internalType": "struct Claim[]",
              "name": "claims",
              "type": "tuple[]"
            },
            {
              "internalType": "bytes32",
              "name": "provingScheme",
              "type": "bytes32"
            },
            {
              "internalType": "bytes",
              "name": "proofData",
              "type": "bytes"
            },
            {
              "internalType": "bytes",
              "name": "extraData",
              "type": "bytes"
            }
          ],
          "internalType": "struct SismoConnectProof",
          "name": "",
          "type": "tuple"
        }
      ],
      "stateMutability": "pure",
      "type": "function"
    },
    {
      "inputs": [
        {
          "components": [
            {
              "internalType": "enum ClaimType",
              "name": "claimType",
              "type": "ClaimType"
            },
            {
              "internalType": "bytes16",
              "name": "groupId",
              "type": "bytes16"
            },
            {
              "internalType": "bytes16",
              "name": "groupTimestamp",
              "type": "bytes16"
            },
            {
              "internalType": "bool",
              "name": "isSelectableByUser",
              "type": "bool"
            },
            {
              "internalType": "uint256",
              "name": "value",
              "type": "uint256"
            },
            {
              "internalType": "bytes",
              "name": "extraData",
              "type": "bytes"
            }
          ],
          "internalType": "struct Claim",
          "name": "claim",
          "type": "tuple"
        },
        {
          "internalType": "bytes",
          "name": "proofData",
          "type": "bytes"
        },
        {
          "internalType": "bytes32",
          "name": "provingScheme",
          "type": "bytes32"
        }
      ],
      "name": "build",
      "outputs": [
        {
          "components": [
            {
              "components": [
                {
                  "internalType": "enum AuthType",
                  "name": "authType",
                  "type": "AuthType"
                },
                {
                  "internalType": "bool",
                  "name": "isAnon",
                  "type": "bool"
                },
                {
                  "internalType": "bool",
                  "name": "isSelectableByUser",
                  "type": "bool"
                },
                {
                  "internalType": "uint256",
                  "name": "userId",
                  "type": "uint256"
                },
                {
                  "internalType": "bytes",
                  "name": "extraData",
                  "type": "bytes"
                }
              ],
              "internalType": "struct Auth[]",
              "name": "auths",
              "type": "tuple[]"
            },
            {
              "components": [
                {
                  "internalType": "enum ClaimType",
                  "name": "claimType",
                  "type": "ClaimType"
                },
                {
                  "internalType": "bytes16",
                  "name": "groupId",
                  "type": "bytes16"
                },
                {
                  "internalType": "bytes16",
                  "name": "groupTimestamp",
                  "type": "bytes16"
                },
                {
                  "internalType": "bool",
                  "name": "isSelectableByUser",
                  "type": "bool"
                },
                {
                  "internalType": "uint256",
                  "name": "value",
                  "type": "uint256"
                },
                {
                  "internalType": "bytes",
                  "name": "extraData",
                  "type": "bytes"
                }
              ],
              "internalType": "struct Claim[]",
              "name": "claims",
              "type": "tuple[]"
            },
            {
              "internalType": "bytes32",
              "name": "provingScheme",
              "type": "bytes32"
            },
            {
              "internalType": "bytes",
              "name": "proofData",
              "type": "bytes"
            },
            {
              "internalType": "bytes",
              "name": "extraData",
              "type": "bytes"
            }
          ],
          "internalType": "struct SismoConnectProof",
          "name": "",
          "type": "tuple"
        }
      ],
      "stateMutability": "pure",
      "type": "function"
    },
    {
      "inputs": [
        {
          "components": [
            {
              "internalType": "enum AuthType",
              "name": "authType",
              "type": "AuthType"
            },
            {
              "internalType": "bool",
              "name": "isAnon",
              "type": "bool"
            },
            {
              "internalType": "bool",
              "name": "isSelectableByUser",
              "type": "bool"
            },
            {
              "internalType": "uint256",
              "name": "userId",
              "type": "uint256"
            },
            {
              "internalType": "bytes",
              "name": "extraData",
              "type": "bytes"
            }
          ],
          "internalType": "struct Auth",
          "name": "auth",
          "type": "tuple"
        },
        {
          "internalType": "bytes",
          "name": "proofData",
          "type": "bytes"
        },
        {
          "internalType": "bytes32",
          "name": "provingScheme",
          "type": "bytes32"
        }
      ],
      "name": "build",
      "outputs": [
        {
          "components": [
            {
              "components": [
                {
                  "internalType": "enum AuthType",
                  "name": "authType",
                  "type": "AuthType"
                },
                {
                  "internalType": "bool",
                  "name": "isAnon",
                  "type": "bool"
                },
                {
                  "internalType": "bool",
                  "name": "isSelectableByUser",
                  "type": "bool"
                },
                {
                  "internalType": "uint256",
                  "name": "userId",
                  "type": "uint256"
                },
                {
                  "internalType": "bytes",
                  "name": "extraData",
                  "type": "bytes"
                }
              ],
              "internalType": "struct Auth[]",
              "name": "auths",
              "type": "tuple[]"
            },
            {
              "components": [
                {
                  "internalType": "enum ClaimType",
                  "name": "claimType",
                  "type": "ClaimType"
                },
                {
                  "internalType": "bytes16",
                  "name": "groupId",
                  "type": "bytes16"
                },
                {
                  "internalType": "bytes16",
                  "name": "groupTimestamp",
                  "type": "bytes16"
                },
                {
                  "internalType": "bool",
                  "name": "isSelectableByUser",
                  "type": "bool"
                },
                {
                  "internalType": "uint256",
                  "name": "value",
                  "type": "uint256"
                },
                {
                  "internalType": "bytes",
                  "name": "extraData",
                  "type": "bytes"
                }
              ],
              "internalType": "struct Claim[]",
              "name": "claims",
              "type": "tuple[]"
            },
            {
              "internalType": "bytes32",
              "name": "provingScheme",
              "type": "bytes32"
            },
            {
              "internalType": "bytes",
              "name": "proofData",
              "type": "bytes"
            },
            {
              "internalType": "bytes",
              "name": "extraData",
              "type": "bytes"
            }
          ],
          "internalType": "struct SismoConnectProof",
          "name": "",
          "type": "tuple"
        }
      ],
      "stateMutability": "pure",
      "type": "function"
    },
    {
      "inputs": [
        {
          "components": [
            {
              "internalType": "enum ClaimType",
              "name": "claimType",
              "type": "ClaimType"
            },
            {
              "internalType": "bytes16",
              "name": "groupId",
              "type": "bytes16"
            },
            {
              "internalType": "bytes16",
              "name": "groupTimestamp",
              "type": "bytes16"
            },
            {
              "internalType": "bool",
              "name": "isSelectableByUser",
              "type": "bool"
            },
            {
              "internalType": "uint256",
              "name": "value",
              "type": "uint256"
            },
            {
              "internalType": "bytes",
              "name": "extraData",
              "type": "bytes"
            }
          ],
          "internalType": "struct Claim",
          "name": "claim",
          "type": "tuple"
        },
        {
          "internalType": "bytes",
          "name": "proofData",
          "type": "bytes"
        }
      ],
      "name": "build",
      "outputs": [
        {
          "components": [
            {
              "components": [
                {
                  "internalType": "enum AuthType",
                  "name": "authType",
                  "type": "AuthType"
                },
                {
                  "internalType": "bool",
                  "name": "isAnon",
                  "type": "bool"
                },
                {
                  "internalType": "bool",
                  "name": "isSelectableByUser",
                  "type": "bool"
                },
                {
                  "internalType": "uint256",
                  "name": "userId",
                  "type": "uint256"
                },
                {
                  "internalType": "bytes",
                  "name": "extraData",
                  "type": "bytes"
                }
              ],
              "internalType": "struct Auth[]",
              "name": "auths",
              "type": "tuple[]"
            },
            {
              "components": [
                {
                  "internalType": "enum ClaimType",
                  "name": "claimType",
                  "type": "ClaimType"
                },
                {
                  "internalType": "bytes16",
                  "name": "groupId",
                  "type": "bytes16"
                },
                {
                  "internalType": "bytes16",
                  "name": "groupTimestamp",
                  "type": "bytes16"
                },
                {
                  "internalType": "bool",
                  "name": "isSelectableByUser",
                  "type": "bool"
                },
                {
                  "internalType": "uint256",
                  "name": "value",
                  "type": "uint256"
                },
                {
                  "internalType": "bytes",
                  "name": "extraData",
                  "type": "bytes"
                }
              ],
              "internalType": "struct Claim[]",
              "name": "claims",
              "type": "tuple[]"
            },
            {
              "internalType": "bytes32",
              "name": "provingScheme",
              "type": "bytes32"
            },
            {
              "internalType": "bytes",
              "name": "proofData",
              "type": "bytes"
            },
            {
              "internalType": "bytes",
              "name": "extraData",
              "type": "bytes"
            }
          ],
          "internalType": "struct SismoConnectProof",
          "name": "",
          "type": "tuple"
        }
      ],
      "stateMutability": "pure",
      "type": "function"
    },
    {
      "inputs": [
        {
          "components": [
            {
              "internalType": "enum AuthType",
              "name": "authType",
              "type": "AuthType"
            },
            {
              "internalType": "bool",
              "name": "isAnon",
              "type": "bool"
            },
            {
              "internalType": "bool",
              "name": "isSelectableByUser",
              "type": "bool"
            },
            {
              "internalType": "uint256",
              "name": "userId",
              "type": "uint256"
            },
            {
              "internalType": "bytes",
              "name": "extraData",
              "type": "bytes"
            }
          ],
          "internalType": "struct Auth",
          "name": "auth",
          "type": "tuple"
        },
        {
          "components": [
            {
              "internalType": "enum ClaimType",
              "name": "claimType",
              "type": "ClaimType"
            },
            {
              "internalType": "bytes16",
              "name": "groupId",
              "type": "bytes16"
            },
            {
              "internalType": "bytes16",
              "name": "groupTimestamp",
              "type": "bytes16"
            },
            {
              "internalType": "bool",
              "name": "isSelectableByUser",
              "type": "bool"
            },
            {
              "internalType": "uint256",
              "name": "value",
              "type": "uint256"
            },
            {
              "internalType": "bytes",
              "name": "extraData",
              "type": "bytes"
            }
          ],
          "internalType": "struct Claim",
          "name": "claim",
          "type": "tuple"
        },
        {
          "internalType": "bytes",
          "name": "proofData",
          "type": "bytes"
        }
      ],
      "name": "build",
      "outputs": [
        {
          "components": [
            {
              "components": [
                {
                  "internalType": "enum AuthType",
                  "name": "authType",
                  "type": "AuthType"
                },
                {
                  "internalType": "bool",
                  "name": "isAnon",
                  "type": "bool"
                },
                {
                  "internalType": "bool",
                  "name": "isSelectableByUser",
                  "type": "bool"
                },
                {
                  "internalType": "uint256",
                  "name": "userId",
                  "type": "uint256"
                },
                {
                  "internalType": "bytes",
                  "name": "extraData",
                  "type": "bytes"
                }
              ],
              "internalType": "struct Auth[]",
              "name": "auths",
              "type": "tuple[]"
            },
            {
              "components": [
                {
                  "internalType": "enum ClaimType",
                  "name": "claimType",
                  "type": "ClaimType"
                },
                {
                  "internalType": "bytes16",
                  "name": "groupId",
                  "type": "bytes16"
                },
                {
                  "internalType": "bytes16",
                  "name": "groupTimestamp",
                  "type": "bytes16"
                },
                {
                  "internalType": "bool",
                  "name": "isSelectableByUser",
                  "type": "bool"
                },
                {
                  "internalType": "uint256",
                  "name": "value",
                  "type": "uint256"
                },
                {
                  "internalType": "bytes",
                  "name": "extraData",
                  "type": "bytes"
                }
              ],
              "internalType": "struct Claim[]",
              "name": "claims",
              "type": "tuple[]"
            },
            {
              "internalType": "bytes32",
              "name": "provingScheme",
              "type": "bytes32"
            },
            {
              "internalType": "bytes",
              "name": "proofData",
              "type": "bytes"
            },
            {
              "internalType": "bytes",
              "name": "extraData",
              "type": "bytes"
            }
          ],
          "internalType": "struct SismoConnectProof",
          "name": "",
          "type": "tuple"
        }
      ],
      "stateMutability": "pure",
      "type": "function"
    },
    {
      "inputs": [
        {
          "components": [
            {
              "internalType": "enum AuthType",
              "name": "authType",
              "type": "AuthType"
            },
            {
              "internalType": "bool",
              "name": "isAnon",
              "type": "bool"
            },
            {
              "internalType": "bool",
              "name": "isSelectableByUser",
              "type": "bool"
            },
            {
              "internalType": "uint256",
              "name": "userId",
              "type": "uint256"
            },
            {
              "internalType": "bytes",
              "name": "extraData",
              "type": "bytes"
            }
          ],
          "internalType": "struct Auth",
          "name": "auth",
          "type": "tuple"
        },
        {
          "components": [
            {
              "internalType": "enum ClaimType",
              "name": "claimType",
              "type": "ClaimType"
            },
            {
              "internalType": "bytes16",
              "name": "groupId",
              "type": "bytes16"
            },
            {
              "internalType": "bytes16",
              "name": "groupTimestamp",
              "type": "bytes16"
            },
            {
              "internalType": "bool",
              "name": "isSelectableByUser",
              "type": "bool"
            },
            {
              "internalType": "uint256",
              "name": "value",
              "type": "uint256"
            },
            {
              "internalType": "bytes",
              "name": "extraData",
              "type": "bytes"
            }
          ],
          "internalType": "struct Claim",
          "name": "claim",
          "type": "tuple"
        },
        {
          "internalType": "bytes",
          "name": "proofData",
          "type": "bytes"
        },
        {
          "internalType": "bytes32",
          "name": "provingScheme",
          "type": "bytes32"
        }
      ],
      "name": "build",
      "outputs": [
        {
          "components": [
            {
              "components": [
                {
                  "internalType": "enum AuthType",
                  "name": "authType",
                  "type": "AuthType"
                },
                {
                  "internalType": "bool",
                  "name": "isAnon",
                  "type": "bool"
                },
                {
                  "internalType": "bool",
                  "name": "isSelectableByUser",
                  "type": "bool"
                },
                {
                  "internalType": "uint256",
                  "name": "userId",
                  "type": "uint256"
                },
                {
                  "internalType": "bytes",
                  "name": "extraData",
                  "type": "bytes"
                }
              ],
              "internalType": "struct Auth[]",
              "name": "auths",
              "type": "tuple[]"
            },
            {
              "components": [
                {
                  "internalType": "enum ClaimType",
                  "name": "claimType",
                  "type": "ClaimType"
                },
                {
                  "internalType": "bytes16",
                  "name": "groupId",
                  "type": "bytes16"
                },
                {
                  "internalType": "bytes16",
                  "name": "groupTimestamp",
                  "type": "bytes16"
                },
                {
                  "internalType": "bool",
                  "name": "isSelectableByUser",
                  "type": "bool"
                },
                {
                  "internalType": "uint256",
                  "name": "value",
                  "type": "uint256"
                },
                {
                  "internalType": "bytes",
                  "name": "extraData",
                  "type": "bytes"
                }
              ],
              "internalType": "struct Claim[]",
              "name": "claims",
              "type": "tuple[]"
            },
            {
              "internalType": "bytes32",
              "name": "provingScheme",
              "type": "bytes32"
            },
            {
              "internalType": "bytes",
              "name": "proofData",
              "type": "bytes"
            },
            {
              "internalType": "bytes",
              "name": "extraData",
              "type": "bytes"
            }
          ],
          "internalType": "struct SismoConnectProof",
          "name": "",
          "type": "tuple"
        }
      ],
      "stateMutability": "pure",
      "type": "function"
    },
    {
      "inputs": [
        {
          "components": [
            {
              "internalType": "enum AuthType",
              "name": "authType",
              "type": "AuthType"
            },
            {
              "internalType": "bool",
              "name": "isAnon",
              "type": "bool"
            },
            {
              "internalType": "bool",
              "name": "isSelectableByUser",
              "type": "bool"
            },
            {
              "internalType": "uint256",
              "name": "userId",
              "type": "uint256"
            },
            {
              "internalType": "bytes",
              "name": "extraData",
              "type": "bytes"
            }
          ],
          "internalType": "struct Auth[]",
          "name": "auths",
          "type": "tuple[]"
        },
        {
          "components": [
            {
              "internalType": "enum ClaimType",
              "name": "claimType",
              "type": "ClaimType"
            },
            {
              "internalType": "bytes16",
              "name": "groupId",
              "type": "bytes16"
            },
            {
              "internalType": "bytes16",
              "name": "groupTimestamp",
              "type": "bytes16"
            },
            {
              "internalType": "bool",
              "name": "isSelectableByUser",
              "type": "bool"
            },
            {
              "internalType": "uint256",
              "name": "value",
              "type": "uint256"
            },
            {
              "internalType": "bytes",
              "name": "extraData",
              "type": "bytes"
            }
          ],
          "internalType": "struct Claim[]",
          "name": "claims",
          "type": "tuple[]"
        },
        {
          "internalType": "bytes",
          "name": "proofData",
          "type": "bytes"
        },
        {
          "internalType": "bytes32",
          "name": "provingScheme",
          "type": "bytes32"
        }
      ],
      "name": "build",
      "outputs": [
        {
          "components": [
            {
              "components": [
                {
                  "internalType": "enum AuthType",
                  "name": "authType",
                  "type": "AuthType"
                },
                {
                  "internalType": "bool",
                  "name": "isAnon",
                  "type": "bool"
                },
                {
                  "internalType": "bool",
                  "name": "isSelectableByUser",
                  "type": "bool"
                },
                {
                  "internalType": "uint256",
                  "name": "userId",
                  "type": "uint256"
                },
                {
                  "internalType": "bytes",
                  "name": "extraData",
                  "type": "bytes"
                }
              ],
              "internalType": "struct Auth[]",
              "name": "auths",
              "type": "tuple[]"
            },
            {
              "components": [
                {
                  "internalType": "enum ClaimType",
                  "name": "claimType",
                  "type": "ClaimType"
                },
                {
                  "internalType": "bytes16",
                  "name": "groupId",
                  "type": "bytes16"
                },
                {
                  "internalType": "bytes16",
                  "name": "groupTimestamp",
                  "type": "bytes16"
                },
                {
                  "internalType": "bool",
                  "name": "isSelectableByUser",
                  "type": "bool"
                },
                {
                  "internalType": "uint256",
                  "name": "value",
                  "type": "uint256"
                },
                {
                  "internalType": "bytes",
                  "name": "extraData",
                  "type": "bytes"
                }
              ],
              "internalType": "struct Claim[]",
              "name": "claims",
              "type": "tuple[]"
            },
            {
              "internalType": "bytes32",
              "name": "provingScheme",
              "type": "bytes32"
            },
            {
              "internalType": "bytes",
              "name": "proofData",
              "type": "bytes"
            },
            {
              "internalType": "bytes",
              "name": "extraData",
              "type": "bytes"
            }
          ],
          "internalType": "struct SismoConnectProof",
          "name": "",
          "type": "tuple"
        }
      ],
      "stateMutability": "pure",
      "type": "function"
    }
  ],
  "bytecode": "0x6080806040523461001a57610c069081610020823930815050f35b600080fdfe60806040908082526004918236101561001757600080fd5b600091823560e01c908163034121d11461057a575080631e0fdcea146105125780633b606951146104e45780635ea9cfa014610462578063605cc1f3146103de5780636428e33e1461032d578063c6dab85f146102c3578063c7282496146101df578063c89320b01461013d5763ef4ce2361461009357600080fd5b6080366003190112610139576001600160401b03918335838111610139576100be9036908601610741565b92602435818111610135576100d6903690870161085e565b9060443590811161013557610131956100f19136910161067c565b906100fa610ad5565b506101036105f0565b92835261010e61059c565b948552602085015260643583850152606084015260808301525191829182610914565b0390f35b8280fd5b5080fd5b506080366003190112610139576001600160401b039183358381116101395761016990369086016106ce565b926024358181116101355761018190369087016107da565b90604435908111610135576101319561019c9136910161067c565b906101a5610ad5565b506101ae610aff565b946101b886610b55565b526101c285610b55565b506101cb610b78565b906101d582610b55565b526100fa81610b55565b506060366003190112610139576001600160401b039183358381116101395761020b90369086016106ce565b926024358181116101355761022390369087016107da565b90604435908111610135576101319561023e9136910161067c565b90610247610ad5565b50610250610aff565b9461025a86610b55565b5261026485610b55565b5061026d610b78565b9061027782610b55565b5261028181610b55565b5061028a6105f0565b92835261029561059c565b94855260208501526968796472612d73332e3160b01b83850152606084015260808301525191829182610914565b50808391600319360112610135576001600160401b03918035838111610329576102f090369083016107da565b9260243590811161032957610131949161030c9136910161067c565b610314610ad5565b5061031d6105f0565b9382855261026d610b78565b8480fd5b5082906060366003190112610135576001600160401b039180358381116103295761035b90369083016106ce565b926024359081116103295761013194916103779136910161067c565b61037f610ad5565b50610388610aff565b9361039285610b55565b5261039c84610b55565b506103a56105f0565b8281526103b06105f0565b9283526103bb61059c565b948552602085015260443583850152606084015260808301525191829182610914565b5082906060366003190112610135576001600160401b039180358381116103295761040c90369083016107da565b926024359081116103295761013194916104289136910161067c565b610430610ad5565b506104396105f0565b93828552610445610b78565b9061044f82610b55565b5261045981610b55565b506103b06105f0565b50808391600319360112610135576001600160401b039180358381116103295761048f90369083016106ce565b926024359081116103295761013194916104ab9136910161067c565b6104b3610ad5565b506104bc610aff565b936104c685610b55565b526104d084610b55565b506104d96105f0565b82815261028a6105f0565b50816003193601126101395790610131916104fd6105f0565b918252519182916020835260208301906108d4565b506060366003190112610139576001600160401b039183358381116101395761053e9036908601610741565b9260243581811161013557610556903690870161085e565b9060443590811161013557610131956105719136910161067c565b90610281610ad5565b839081600319360112610139576968796472612d73332e3160b01b8152602090f35b6040519060a082018281106001600160401b038211176105bb57604052565b634e487b7160e01b600052604160045260246000fd5b6040519060c082018281106001600160401b038211176105bb57604052565b60405190602082018281106001600160401b038211176105bb57604052565b60405190604082018281106001600160401b038211176105bb57604052565b6040519190601f01601f191682016001600160401b038111838210176105bb57604052565b6001600160401b0381116105bb5760051b60200190565b3590811515820361067757565b600080fd5b81601f82011215610677578035906001600160401b0382116105bb576106ab601f8301601f191660200161062e565b928284526020838301011161067757816000926020809301838601378301015290565b91909160a081840312610677576106e361059c565b92813560068110156106775784526106fd6020830161066a565b602085015261070e6040830161066a565b60408501526060820135606085015260808201356001600160401b0381116106775761073a920161067c565b6080830152565b81601f820112156106775780359161076061075b84610653565b61062e565b9182938084526020808095019160051b8301019280841161067757848301915b8483106107905750505050505090565b82356001600160401b0381116106775786916107b1848480948901016106ce565b815201920191610780565b35906fffffffffffffffffffffffffffffffff198216820361067757565b91909160c081840312610677576107ef6105d1565b9281356005811015610677578452610809602083016107bc565b602085015261081a604083016107bc565b604085015261082b6060830161066a565b60608501526080820135608085015260a08201356001600160401b03811161067757610857920161067c565b60a0830152565b81601f820112156106775780359161087861075b84610653565b9182938084526020808095019160051b8301019280841161067757848301915b8483106108a85750505050505090565b82356001600160401b0381116106775786916108c9848480948901016107da565b815201920191610898565b919082519283825260005b848110610900575050826000602080949584010152601f8019910116010190565b6020818301810151848301820152016108df565b91906020835260c09283810182519060a06020840152815180915260e0830190602060e08260051b86010193019160005b828110610a6e5750505050602083015194601f1983830301604084015285519081835260208301926020808460051b8301019801936000915b8483106109cc5750505050505060806109b46109c99495604085015160608501526060850151601f1985830301848601526108d4565b9201519060a0601f19828503019101526108d4565b90565b909192939498601f198282030183528951908151916005831015610a5857610a48828860a0602095946001978796526fffffffffffffffffffffffffffffffff19808783015116878601526040820151166040850152606080820151151590850152608080820151908501520151918160a082015201906108d4565b9b0193019301919493929061097e565b634e487b7160e01b600052602160045260246000fd5b9091929360df19868203018352845180516006811015610a5857610ac960209260a0858594600197528483015115158582015260408084015115159082015260608084015190820152816080809401519382015201906108d4565b96019493019101610945565b610add61059c565b9060608252606060208301526000604083015260608083015260606080830152565b610b0761060f565b90600182528160005b60209081811015610b5057602091610b2661059c565b90600082526000818301526000604083015260606000818401526080830152828501015201610b10565b505050565b805115610b625760200190565b634e487b7160e01b600052603260045260246000fd5b610b8061060f565b90600182528160005b60209081811015610b5057602091610b9f6105d1565b90600082526000818301526000604083015260606000818401526000608084015260a0830152828501015201610b8956fea26469706673582212207ec28ec89ba1b61f9119e9bd4a4783a24db6e0072543dd5969a89177f6621fbd64736f6c63430008130033",
  "linkReferences": {},
  "deployedLinkReferences": {}
}