{
  "_format": "hh-sol-artifact-1",
  "contractName": "AuthMatchingLib",
  "sourceName": "contracts/helpers/utils/AuthMatchingLib.sol",
  "abi": [
    {
      "inputs": [
        {
          "internalType": "uint8",
          "name": "requestAuthType",
          "type": "uint8"
        },
        {
          "internalType": "bool",
          "name": "requestIsAnon",
          "type": "bool"
        },
        {
          "internalType": "uint256",
          "name": "requestUserId",
          "type": "uint256"
        },
        {
          "internalType": "bytes",
          "name": "requestExtraData",
          "type": "bytes"
        }
      ],
      "name": "AuthInRequestNotFoundInResponse",
      "type": "error"
    },
    {
      "inputs": [
        {
          "internalType": "bool",
          "name": "requestIsAnon",
          "type": "bool"
        },
        {
          "internalType": "uint256",
          "name": "requestUserId",
          "type": "uint256"
        }
      ],
      "name": "AuthIsAnonAndUserIdNotFound",
      "type": "error"
    },
    {
      "inputs": [
        {
          "internalType": "bool",
          "name": "requestIsAnon",
          "type": "bool"
        }
      ],
      "name": "AuthIsAnonNotFound",
      "type": "error"
    },
    {
      "inputs": [
        {
          "internalType": "uint8",
          "name": "requestAuthType",
          "type": "uint8"
        },
        {
          "internalType": "bool",
          "name": "requestIsAnon",
          "type": "bool"
        }
      ],
      "name": "AuthTypeAndIsAnonNotFound",
      "type": "error"
    },
    {
      "inputs": [
        {
          "internalType": "uint8",
          "name": "requestAuthType",
          "type": "uint8"
        },
        {
          "internalType": "uint256",
          "name": "requestUserId",
          "type": "uint256"
        }
      ],
      "name": "AuthTypeAndUserIdNotFound",
      "type": "error"
    },
    {
      "inputs": [
        {
          "internalType": "uint8",
          "name": "requestAuthType",
          "type": "uint8"
        }
      ],
      "name": "AuthTypeNotFound",
      "type": "error"
    },
    {
      "inputs": [
        {
          "internalType": "uint256",
          "name": "requestUserId",
          "type": "uint256"
        }
      ],
      "name": "AuthUserIdNotFound",
      "type": "error"
    },
    {
      "inputs": [
        {
          "internalType": "uint8",
          "name": "maxMatchingProperties",
          "type": "uint8"
        },
        {
          "components": [
            {
              "internalType": "enum AuthType",
              "name": "authType",
              "type": "AuthType"
            },
            {
              "internalType": "uint256",
              "name": "userId",
              "type": "uint256"
            },
            {
              "internalType": "bool",
              "name": "isAnon",
              "type": "bool"
            },
            {
              "internalType": "bool",
              "name": "isOptional",
              "type": "bool"
            },
            {
              "internalType": "bool",
              "name": "isSelectableByUser",
              "type": "bool"
            },
            {
              "internalType": "bytes",
              "name": "extraData",
              "type": "bytes"
            }
          ],
          "internalType": "struct AuthRequest",
          "name": "auth",
          "type": "tuple"
        }
      ],
      "name": "handleAuthErrors",
      "outputs": [],
      "stateMutability": "pure",
      "type": "function"
    }
  ],
  "bytecode": "0x6080806040523461001a576105409081610020823930815050f35b600080fdfe60806004908136101561001157600080fd5b6000803560e01c63c19f87361461002757600080fd5b60407ffffffffffffffffffffffffffffffffffffffffffffffffffffffffffffffffc9181833601126104f55784359460ff86168096036104f15760249586359567ffffffffffffffff958688116104ed5760c09088360301126104e95760c08101818110878211176104be57855260069783880135898110156104ba57825260209384830192828a013584526100c060448b016104f8565b908881019182526100d360648c016104f8565b60608201526100e460848c016104f8565b608082015260a49a8b810135908b82116104b6570195366023880112156104b257838701358b8111610487578a51977fffffffffffffffffffffffffffffffffffffffffffffffffffffffffffffffe09c8d603f81601f86011601168a01908a82109082111761045c578c528189523687838301011161045857818b92888c9301838c01378901015260a082019687528061023e5750519a8b1015610213579060ff9a979896949392915115159251935198519a8b987fc8051011000000000000000000000000000000000000000000000000000000008a52169088015286015260448501526080606485015284519182608486015281955b8387106101fb5750508394508582601f949501015201168101030190fd5b868101820151898801890152958101958895506101dd565b50602186917f4e487b7100000000000000000000000000000000000000000000000000000000835252fd5b8c898b9496938360018a951460001461028b575050505060449451151590519251937f444b29f8000000000000000000000000000000000000000000000000000000008552840152820152fd5b600281999293949896991460001461030c57505051948510156102e157509060ff60449592519351947f828910080000000000000000000000000000000000000000000000000000000086521690840152820152fd5b806021847f4e487b710000000000000000000000000000000000000000000000000000000089945252fd5b9287928460038b9997961460001461034f575050505050519051917fe0de2b13000000000000000000000000000000000000000000000000000000008352820152fd5b8897949695508085036103a1575051948510156102e157509060ff604495925115159351947f3eec72600000000000000000000000000000000000000000000000000000000086521690840152820152fd5b6005819793949597146000146103e257505050505115159051917ea70391000000000000000000000000000000000000000000000000000000008352820152fd5b85839289948993146103f2578580f35b8590519384101561042d575060ff9051927f3647c6db0000000000000000000000000000000000000000000000000000000084521690820152fd5b806021847f4e487b710000000000000000000000000000000000000000000000000000000088945252fd5b8a80fd5b878c6041897f4e487b7100000000000000000000000000000000000000000000000000000000835252fd5b858a6041877f4e487b7100000000000000000000000000000000000000000000000000000000835252fd5b8880fd5b8980fd5b8580fd5b88856041867f4e487b7100000000000000000000000000000000000000000000000000000000835252fd5b8380fd5b8480fd5b5080fd5b80fd5b3590811515820361050557565b600080fdfea264697066735822122085654acc4364518a2b1955ac6f13230d2be36f4466c3b5266551945d6d21906264736f6c63430008130033",
  "linkReferences": {},
  "deployedLinkReferences": {}
}