{
  "_format": "hh-sol-artifact-1",
  "contractName": "MecenateStats",
  "sourceName": "contracts/MecenateStats.sol",
  "abi": [
    {
      "inputs": [
        {
          "internalType": "address",
          "name": "_mecenateUsers",
          "type": "address"
        },
        {
          "internalType": "address",
          "name": "_mecenateFeedFactory",
          "type": "address"
        },
        {
          "internalType": "address",
          "name": "_mecenateBay",
          "type": "address"
        },
        {
          "internalType": "address",
          "name": "_mecenateTreasury",
          "type": "address"
        }
      ],
      "stateMutability": "nonpayable",
      "type": "constructor"
    },
    {
      "inputs": [],
      "name": "getStats",
      "outputs": [
        {
          "components": [
            {
              "internalType": "uint256",
              "name": "totalUsers",
              "type": "uint256"
            },
            {
              "internalType": "uint256",
              "name": "totalBayRequests",
              "type": "uint256"
            },
            {
              "internalType": "uint256",
              "name": "totalFeeds",
              "type": "uint256"
            },
            {
              "internalType": "uint256",
              "name": "globalFee",
              "type": "uint256"
            },
            {
              "internalType": "uint256",
              "name": "fixedFee",
              "type": "uint256"
            },
            {
              "internalType": "uint256",
              "name": "treasuryBalance",
              "type": "uint256"
            }
          ],
          "internalType": "struct MecenateStats.Stats",
          "name": "",
          "type": "tuple"
        }
      ],
      "stateMutability": "view",
      "type": "function"
    },
    {
      "inputs": [],
      "name": "mecenateBay",
      "outputs": [
        {
          "internalType": "contract IMecenateBay",
          "name": "",
          "type": "address"
        }
      ],
      "stateMutability": "view",
      "type": "function"
    },
    {
      "inputs": [],
      "name": "mecenateFeedFactory",
      "outputs": [
        {
          "internalType": "contract IMecenateFeedFactory",
          "name": "",
          "type": "address"
        }
      ],
      "stateMutability": "view",
      "type": "function"
    },
    {
      "inputs": [],
      "name": "mecenateTreasury",
      "outputs": [
        {
          "internalType": "contract IMecenateTreasury",
          "name": "",
          "type": "address"
        }
      ],
      "stateMutability": "view",
      "type": "function"
    },
    {
      "inputs": [],
      "name": "mecenateUsers",
      "outputs": [
        {
          "internalType": "contract IMecenateUsers",
          "name": "",
          "type": "address"
        }
      ],
      "stateMutability": "view",
      "type": "function"
    }
  ],
  "bytecode": "0x6080346100b957601f61065b38819003918201601f19168301916001600160401b038311848410176100be578084926080946040528339810103126100b957610047816100d4565b90610054602082016100d4565b61006c6060610065604085016100d4565b93016100d4565b9060018060a01b03928380928160018060a01b0319971687600054161760005516856001541617600155168360025416176002551690600354161760035560405161057290816100e98239f35b600080fd5b634e487b7160e01b600052604160045260246000fd5b51906001600160a01b03821682036100b95756fe6080604081815260048036101561001557600080fd5b600092833560e01c908163139e3c541461046257508063295b7b9a1461040f5780633f16a3bb146103bc57806377260151146103655763c59d48471461005a57600080fd5b3461036157827ffffffffffffffffffffffffffffffffffffffffffffffffffffffffffffffffc360112610361578151610093816104b0565b8381528360a060209282848201528286820152826060820152826080820152015273ffffffffffffffffffffffffffffffffffffffff90816002541693805192828486817f067bd3b400000000000000000000000000000000000000000000000000000000998a82525afa938415610328578794610332575b50828160015416968684518099819382525afa90811561032857859688969596926102f2575b5083818954168451988980927fb5cb15f70000000000000000000000000000000000000000000000000000000082525afa9687156102e85788976102b5575b5060035416928251937f808fc20600000000000000000000000000000000000000000000000000000000855281858781845afa94851561027c578995610286575b5081845180977f91792d5b00000000000000000000000000000000000000000000000000000000825281845afa95861561027c578996610245575b5060c09850319560a08451610201816104b0565b8981528381019283528581019485526060810196875260808101978852019687528351978852519087015251908501525160608401525160808301525160a0820152f35b9095508181813d8311610275575b61025d81836104fb565b810103126102715760c098505194386101ed565b8880fd5b503d610253565b84513d8b823e3d90fd5b9094508181813d83116102ae575b61029e81836104fb565b81010312610271575193386101b2565b503d610294565b9096508381813d83116102e1575b6102cd81836104fb565b810103126102dd57519538610171565b8780fd5b503d6102c3565b83513d8a823e3d90fd5b945090508284813d8111610321575b61030b81836104fb565b8101031261031d578593519038610132565b8680fd5b503d610301565b82513d89823e3d90fd5b9093508281813d831161035a575b61034a81836104fb565b8101031261031d5751923861010c565b503d610340565b8280fd5b5050346103b857817ffffffffffffffffffffffffffffffffffffffffffffffffffffffffffffffffc3601126103b85760209073ffffffffffffffffffffffffffffffffffffffff600154169051908152f35b5080fd5b5050346103b857817ffffffffffffffffffffffffffffffffffffffffffffffffffffffffffffffffc3601126103b85760209073ffffffffffffffffffffffffffffffffffffffff600254169051908152f35b5050346103b857817ffffffffffffffffffffffffffffffffffffffffffffffffffffffffffffffffc3601126103b85760209073ffffffffffffffffffffffffffffffffffffffff600354169051908152f35b8490346103b857817ffffffffffffffffffffffffffffffffffffffffffffffffffffffffffffffffc3601126103b85773ffffffffffffffffffffffffffffffffffffffff60209254168152f35b60c0810190811067ffffffffffffffff8211176104cc57604052565b7f4e487b7100000000000000000000000000000000000000000000000000000000600052604160045260246000fd5b90601f7fffffffffffffffffffffffffffffffffffffffffffffffffffffffffffffffe0910116810190811067ffffffffffffffff8211176104cc5760405256fea2646970667358221220f88f6fdfa14fa10ef0f170b2a80448c3333639ad192ffcee8a955b5e3e41730264736f6c63430008130033",
  "linkReferences": {},
  "deployedLinkReferences": {}
}